{"abi":[{"type":"function","name":"ESafeTransferFrom","inputs":[{"name":"from","type":"address","internalType":"address"},{"name":"to","type":"address","internalType":"address"},{"name":"id","type":"uint256","internalType":"uint256"},{"name":"indexes","type":"uint256[]","internalType":"uint256[]"},{"name":"data","type":"bytes","internalType":"bytes"}],"outputs":[],"stateMutability":"nonpayable"},{"type":"function","name":"NFTPrice_initialized","inputs":[],"outputs":[{"name":"","type":"uint8","internalType":"uint8"}],"stateMutability":"view"},{"type":"function","name":"NFTS","inputs":[{"name":"","type":"uint256","internalType":"uint256"}],"outputs":[{"name":"ratio","type":"uint8","internalType":"uint8"},{"name":"indate","type":"uint32","internalType":"uint32"}],"stateMutability":"view"},{"type":"function","name":"addSupportedToken","inputs":[{"name":"_tokenAddress","type":"address","internalType":"address"}],"outputs":[],"stateMutability":"nonpayable"},{"type":"function","name":"balanceOf","inputs":[{"name":"account","type":"address","internalType":"address"},{"name":"id","type":"uint256","internalType":"uint256"}],"outputs":[{"name":"","type":"uint256","internalType":"uint256"}],"stateMutability":"view"},{"type":"function","name":"balanceOfBatch","inputs":[{"name":"","type":"address[]","internalType":"address[]"},{"name":"","type":"uint256[]","internalType":"uint256[]"}],"outputs":[{"name":"","type":"uint256[]","internalType":"uint256[]"}],"stateMutability":"view"},{"type":"function","name":"changeDynamicRatio","inputs":[{"name":"tokenID","type":"uint256","internalType":"uint256"},{"name":"newRatio","type":"uint8","internalType":"uint8"}],"outputs":[],"stateMutability":"nonpayable"},{"type":"function","name":"changeNFTPrice","inputs":[{"name":"tokenID","type":"uint256","internalType":"uint256"},{"name":"tokenAddress","type":"address","internalType":"address"},{"name":"amount","type":"uint256","internalType":"uint256"}],"outputs":[],"stateMutability":"nonpayable"},{"type":"function","name":"checkInitPricesParams","inputs":[{"name":"prices","type":"tuple[][6]","internalType":"struct TCF_NFTPrice.priceTypeAndAomut[][6]","components":[{"name":"tokenAddress","type":"address","internalType":"address"},{"name":"amount","type":"uint256","internalType":"uint256"}]}],"outputs":[{"name":"","type":"string","internalType":"string"}],"stateMutability":"view"},{"type":"function","name":"getNFTPrice","inputs":[{"name":"tokenID","type":"uint256","internalType":"uint256"},{"name":"_tokenAddress","type":"address","internalType":"address"}],"outputs":[{"name":"","type":"string","internalType":"string"},{"name":"","type":"uint256","internalType":"uint256"}],"stateMutability":"view"},{"type":"function","name":"getNftMintTime","inputs":[{"name":"tokenId","type":"uint256","internalType":"uint256"},{"name":"account","type":"address","internalType":"address"},{"name":"editionId","type":"uint256","internalType":"uint256"}],"outputs":[{"name":"","type":"uint256","internalType":"uint256"}],"stateMutability":"view"},{"type":"function","name":"getTotalNFTWorth","inputs":[{"name":"owner","type":"address","internalType":"address"}],"outputs":[{"name":"","type":"uint256","internalType":"uint256"}],"stateMutability":"view"},{"type":"function","name":"getUserTokenIds","inputs":[{"name":"account","type":"address","internalType":"address"},{"name":"tokenId","type":"uint256","internalType":"uint256"}],"outputs":[{"name":"","type":"uint256[]","internalType":"uint256[]"}],"stateMutability":"view"},{"type":"function","name":"initPrice","inputs":[{"name":"prices","type":"tuple[][6]","internalType":"struct TCF_NFTPrice.priceTypeAndAomut[][6]","components":[{"name":"tokenAddress","type":"address","internalType":"address"},{"name":"amount","type":"uint256","internalType":"uint256"}]}],"outputs":[],"stateMutability":"nonpayable"},{"type":"function","name":"isApprovedForAll","inputs":[{"name":"account","type":"address","internalType":"address"},{"name":"operator","type":"address","internalType":"address"}],"outputs":[{"name":"","type":"bool","internalType":"bool"}],"stateMutability":"view"},{"type":"function","name":"isSupported","inputs":[{"name":"token","type":"address","internalType":"address"}],"outputs":[{"name":"","type":"uint8","internalType":"uint8"}],"stateMutability":"view"},{"type":"function","name":"owner","inputs":[],"outputs":[{"name":"","type":"address","internalType":"address"}],"stateMutability":"view"},{"type":"function","name":"ownerOf","inputs":[{"name":"tokenId","type":"uint256","internalType":"uint256"},{"name":"editionId","type":"uint256","internalType":"uint256"}],"outputs":[{"name":"","type":"address","internalType":"address"}],"stateMutability":"view"},{"type":"function","name":"renounceOwnership","inputs":[],"outputs":[],"stateMutability":"nonpayable"},{"type":"function","name":"safeBatchTransferFrom","inputs":[{"name":"","type":"address","internalType":"address"},{"name":"","type":"address","internalType":"address"},{"name":"","type":"uint256[]","internalType":"uint256[]"},{"name":"","type":"uint256[]","internalType":"uint256[]"},{"name":"","type":"bytes","internalType":"bytes"}],"outputs":[],"stateMutability":"nonpayable"},{"type":"function","name":"safeTransferFrom","inputs":[{"name":"","type":"address","internalType":"address"},{"name":"","type":"address","internalType":"address"},{"name":"","type":"uint256","internalType":"uint256"},{"name":"","type":"uint256","internalType":"uint256"},{"name":"","type":"bytes","internalType":"bytes"}],"outputs":[],"stateMutability":"nonpayable"},{"type":"function","name":"setApprovalForAll","inputs":[{"name":"operator","type":"address","internalType":"address"},{"name":"approved","type":"bool","internalType":"bool"}],"outputs":[],"stateMutability":"nonpayable"},{"type":"function","name":"supportedTokenAmount","inputs":[],"outputs":[{"name":"","type":"uint256","internalType":"uint256"}],"stateMutability":"view"},{"type":"function","name":"supportsInterface","inputs":[{"name":"interfaceId","type":"bytes4","internalType":"bytes4"}],"outputs":[{"name":"","type":"bool","internalType":"bool"}],"stateMutability":"view"},{"type":"function","name":"tokenAddress_array","inputs":[{"name":"","type":"uint256","internalType":"uint256"}],"outputs":[{"name":"","type":"address","internalType":"address"}],"stateMutability":"view"},{"type":"function","name":"transferOwnership","inputs":[{"name":"newOwner","type":"address","internalType":"address"}],"outputs":[],"stateMutability":"nonpayable"},{"type":"function","name":"uri","inputs":[{"name":"","type":"uint256","internalType":"uint256"}],"outputs":[{"name":"","type":"string","internalType":"string"}],"stateMutability":"view"},{"type":"event","name":"ApprovalForAll","inputs":[{"name":"account","type":"address","indexed":true,"internalType":"address"},{"name":"operator","type":"address","indexed":true,"internalType":"address"},{"name":"approved","type":"bool","indexed":false,"internalType":"bool"}],"anonymous":false},{"type":"event","name":"OwnershipTransferred","inputs":[{"name":"previousOwner","type":"address","indexed":true,"internalType":"address"},{"name":"newOwner","type":"address","indexed":true,"internalType":"address"}],"anonymous":false},{"type":"event","name":"TransferBatch","inputs":[{"name":"operator","type":"address","indexed":true,"internalType":"address"},{"name":"from","type":"address","indexed":true,"internalType":"address"},{"name":"to","type":"address","indexed":true,"internalType":"address"},{"name":"ids","type":"uint256[]","indexed":false,"internalType":"uint256[]"},{"name":"values","type":"uint256[]","indexed":false,"internalType":"uint256[]"}],"anonymous":false},{"type":"event","name":"TransferSingle","inputs":[{"name":"operator","type":"address","indexed":true,"internalType":"address"},{"name":"from","type":"address","indexed":true,"internalType":"address"},{"name":"to","type":"address","indexed":true,"internalType":"address"},{"name":"id","type":"uint256","indexed":false,"internalType":"uint256"},{"name":"value","type":"uint256","indexed":false,"internalType":"uint256"}],"anonymous":false},{"type":"event","name":"URI","inputs":[{"name":"value","type":"string","indexed":false,"internalType":"string"},{"name":"id","type":"uint256","indexed":true,"internalType":"uint256"}],"anonymous":false}],"bytecode":{"object":"0x60806040523480156200001157600080fd5b506200002662000020620000a4565b620000a8565b600a6020527fbbc70db1b6c7afd11e79c0fb0051300458f1a3acb8ee9789d9b6b26c61ad9bc7805460ff19166001908117909155600c805480830182556000919091527fdf6966c971051c3d54ec59162606531493a51404a002842f56009d7e5cf4a8c70180546001600160a01b03191682179055600b55620000fa565b3390565b600980546001600160a01b038381166001600160a01b0319831681179093556040519116919082907f8be0079c531659141344cd1fd0a4f28419497f9722a3daafe3b4186f6b6457e090600090a35050565b612d51806200010a6000396000f3fe608060405234801561001057600080fd5b50600436106101a85760003560e01c80636d69fcaf116100f9578063b788920e11610097578063e5030adc11610071578063e5030adc146103ab578063e985e9c5146103be578063f242432a146103d1578063f2fde38b146103e4576101a8565b8063b788920e14610364578063c9b6b48514610377578063d9dad80d14610398576101a8565b806386ff9113116100d357806386ff9113146103155780638da5cb5b14610336578063a22cb4651461033e578063aa31281c14610351576101a8565b80636d69fcaf146102e7578063715018a6146102fa57806383023c8814610302576101a8565b80632eb2c2d6116101665780634e1273f4116101405780634e1273f41461028e5780634f129c53146102ae57806355826313146102c1578063598c27bc146102d4576101a8565b80632eb2c2d6146102515780633a4d2d3a146102665780634c8cb67214610279576101a8565b8062fdd58e146101ad57806301ffc9a7146101d65780630e89341c146101f657806319d62e57146102165780631f3fd618146102365780632336128314610249575b600080fd5b6101c06101bb36600461230e565b6103f7565b6040516101cd9190612a99565b60405180910390f35b6101e96101e4366004612438565b610473565b6040516101cd9190612705565b61020961020436600461252c565b6104bb565b6040516101cd9190612710565b61022961022436600461252c565b6104d5565b6040516101cd9190612668565b610209610244366004612400565b6104ff565b6101c061080f565b61026461025f36600461210e565b610815565b005b610264610274366004612400565b61082d565b610281610b3b565b6040516101cd9190612ab0565b6102a161029c366004612337565b610b49565b6040516101cd91906126c1565b6102816102bc3660046120bb565b610b63565b6102646102cf366004612566565b610b97565b6102646102e23660046121b4565b610c0a565b6102646102f53660046120bb565b610c6a565b610264610d53565b6102646103103660046125bb565b610d67565b610328610323366004612544565b610ddf565b6040516101cd929190612723565b610229610e8c565b61026461034c3660046122d4565b610e9c565b6101c061035f366004612566565b610eb2565b6102a161037236600461230e565b610f04565b61038a61038536600461252c565b610f99565b6040516101cd929190612abe565b6102296103a636600461259a565b610fbe565b6101c06103b93660046120bb565b611007565b6101e96103cc3660046120dc565b6111b9565b6102646103df366004612271565b6111e7565b6102646103f23660046120bb565b6111ff565b60006001600160a01b0383166104285760405162461bcd60e51b815260040161041f9061289a565b60405180910390fd5b600682106104485760405162461bcd60e51b815260040161041f906128e9565b5060008181526007602090815260408083206001600160a01b03861684529091529020545b92915050565b60006001600160e01b03198216636cdb3d1360e11b14806104a457506001600160e01b031982166303a24d0760e21b145b806104b357506104b382611239565b90505b919050565b606060405162461bcd60e51b815260040161041f90612a03565b600c81815481106104e557600080fd5b6000918252602090912001546001600160a01b0316905081565b606060005b60068110156107f957600b5483826006811061053057634e487b7160e01b600052603260045260246000fd5b6020028101906105409190612ad7565b90501461056f57505060408051808201909152600a815269282924a1a2a9afa622a760b11b60208201526104b6565b600080600085846006811061059457634e487b7160e01b600052603260045260246000fd5b6020028101906105a49190612ad7565b808060200260200160405190810160405280939291908181526020016000905b828210156105f0576105e1604083028601368190038101906124ee565b815260200190600101906105c4565b5050505050905060005b600b5481101561076b57600082828151811061062657634e487b7160e01b600052603260045260246000fd5b60209081029190910101515190506001600160a01b03811661064b5760019450610650565b600193505b60006001600160a01b031683838151811061067b57634e487b7160e01b600052603260045260246000fd5b6020026020010151600001516001600160a01b0316141580156106ea5750600a60008484815181106106bd57634e487b7160e01b600052603260045260246000fd5b602090810291909101810151516001600160a01b031682528101919091526040016000205460ff16600114155b1561075a5761074d83838151811061071257634e487b7160e01b600052603260045260246000fd5b602002602001015160000151604051806040016040528060118152602001701513d2d15397d55394d5541413d4951151607a1b815250611252565b96505050505050506104b6565b5061076481612c15565b90506105fa565b50826107a857604051806040016040528060138152602001721510d7d4149250d157d35554d517d1561254d5606a1b8152509450505050506104b6565b816107e557604051806040016040528060148152602001731110d197d4149250d157d35554d517d1561254d560621b8152509450505050506104b6565b505050806107f290612c15565b9050610504565b5050604080516020810190915260008152919050565b600b5481565b60405162461bcd60e51b815260040161041f90612a25565b610835611286565b600d5460ff1660011461085a5760405162461bcd60e51b815260040161041f906129a4565b600d54610100900460ff16156108825760405162461bcd60e51b815260040161041f90612914565b600061088d826104ff565b905080516000146108b2578060405162461bcd60e51b815260040161041f9190612710565b6040805160c0808201835262ed4e008252630107ac0060208084019190915263013c68008385015263017124006060808501919091526301a5e0006080808601919091526301da9c0060a0808701919091528651948501875260288552603293850193909352603c95840195909552605090830152605a938201939093526064928101929092529060006109468580612ad7565b9050905060005b6006811015610b245783816006811061097657634e487b7160e01b600052603260045260246000fd5b6020020151600e600083815260200190815260200160002060010160016101000a81548163ffffffff021916908363ffffffff1602179055508281600681106109cf57634e487b7160e01b600052603260045260246000fd5b602090810291909101516000838152600e90925260408220600101805460ff191660ff9092169190911790555b82811015610b13576000878360068110610a2657634e487b7160e01b600052603260045260246000fd5b602002810190610a369190612ad7565b83818110610a5457634e487b7160e01b600052603260045260246000fd5b610a6a92602060409092020190810191506120bb565b90506001600160a01b038116610a7e575060015b878360068110610a9e57634e487b7160e01b600052603260045260246000fd5b602002810190610aae9190612ad7565b83818110610acc57634e487b7160e01b600052603260045260246000fd5b6000868152600e602090815260408083206001600160a01b039790971683529581529085902091909402929092019092013590555080610b0b81612c15565b9150506109fc565b50610b1d81612c15565b905061094d565b5050600d805461ff00191661010017905550505050565b600d54610100900460ff1681565b606060405162461bcd60e51b815260040161041f90612a25565b60006001600160a01b038216610b7857600191505b506001600160a01b03166000908152600a602052604090205460ff1690565b610b9f611286565b6000610bab84846112c5565b90508051600014610bd0578060405162461bcd60e51b815260040161041f9190612710565b6001600160a01b038316610be357600192505b506000928352600e602090815260408085206001600160a01b039094168552929052912055565b610c126113c7565b6001600160a01b0316866001600160a01b03161480610c385750610c38866103cc6113c7565b610c545760405162461bcd60e51b815260040161041f906127b6565b610c628686868686866113cb565b505050505050565b610c72611286565b600d5460ff1615610c955760405162461bcd60e51b815260040161041f90612745565b6000610ca08261169a565b90508051600014610cc5578060405162461bcd60e51b815260040161041f9190612710565b6001600160a01b0382166000818152600a60205260408120805460ff19166001908117909155600c805480830182559083527fdf6966c971051c3d54ec59162606531493a51404a002842f56009d7e5cf4a8c70180546001600160a01b031916909317909255600b8054909190610d3d908490612b6a565b9091555050600d805460ff191660011790555050565b610d5b611286565b610d65600061187f565b565b610d6f611286565b600d5460ff61010090910416600114610d9a5760405162461bcd60e51b815260040161041f906129d3565b60068210610dba5760405162461bcd60e51b815260040161041f90612815565b6000918252600e6020526040909120600101805460ff191660ff909216919091179055565b6060600080610dee85856112c5565b90508051600014610e0457915060009050610e85565b6001600160a01b038416610e1757600193505b6000858152600e602090815260408083206001600160a01b038816845290915290205480610e7057505060408051808201909152600d81526c14149250d157d393d517d4d155609a1b6020820152915060009050610e85565b60408051602081019091526000815293509150505b9250929050565b6009546001600160a01b03165b90565b610eae610ea76113c7565b83836118d1565b5050565b600060068410610ed45760405162461bcd60e51b815260040161041f90612815565b5060009283526010602090815260408085206001600160a01b039490941685529281528284209184525290205490565b606060068210610f265760405162461bcd60e51b815260040161041f90612815565b6001600160a01b0383166000908152600f6020908152604080832085845282529182902080548351818402810184019094528084529091830182828015610f8c57602002820191906000526020600020905b815481526020019060010190808311610f78575b5050505050905092915050565b600e6020526000908152604090206001015460ff811690610100900463ffffffff1682565b600060068310610fe05760405162461bcd60e51b815260040161041f90612815565b5060009182526006602090815260408084209284529190529020546001600160a01b031690565b60006001600160a01b03821661102f5760405162461bcd60e51b815260040161041f9061289a565b6000805b60068110156111b2576001600160a01b0384166000908152600f602090815260408083208484528252808320805482518185028101850190935280835291929091908301828280156110a457602002820191906000526020600020905b815481526020019060010190808311611090575b5050505050905060005b815181101561119d5760008282815181106110d957634e487b7160e01b600052603260045260246000fd5b60209081029190910181015160008681526010835260408082206001600160a01b038c1683528452808220838352845280822054888352600e909452902060010154909250610100900463ffffffff166111338183612b6a565b4211156111425750505061118b565b600080611150886000610ddf565b91509150815160001482906111785760405162461bcd60e51b815260040161041f9190612710565b50611183818a612b6a565b985050505050505b8061119581612c15565b9150506110ae565b505080806111aa90612c15565b915050611033565b5092915050565b6001600160a01b03918216600090815260086020908152604080832093909416825291909152205460ff1690565b60405162461bcd60e51b815260040161041f90612975565b611207611286565b6001600160a01b03811661122d5760405162461bcd60e51b815260040161041f90612770565b6112368161187f565b50565b6001600160e01b031981166301ffc9a760e01b14919050565b60608161125e84611974565b60405160200161126f92919061262c565b604051602081830303815290604052905092915050565b61128e6113c7565b6001600160a01b031661129f610e8c565b6001600160a01b031614610d655760405162461bcd60e51b815260040161041f90612940565b600d5460609060ff6101009091041660011461130e575060408051808201909152601681527514149250d154d7d393d517d25392551250531256915160521b602082015261046d565b6005831115611341575060408051808201909152600d81526c544f4b454e49445f52414e474560981b602082015261046d565b6001600160a01b03821661135457600191505b6001600160a01b0382166000908152600a602052604090205460ff166001146113b1576113aa82604051806040016040528060118152602001701513d2d15397d55394d5541413d4951151607a1b815250611252565b905061046d565b5060408051602081019091526000815292915050565b3390565b6001600160a01b0385166113f15760405162461bcd60e51b815260040161041f9061289a565b600684106114115760405162461bcd60e51b815260040161041f90612815565b60005b8281101561168b57600084848381811061143e57634e487b7160e01b600052603260045260246000fd5b60008981526010602090815260408083206001600160a01b038f168085529083528184209483029690960135808452938252808320548c8452600e909252909120600101549194509261010090910463ffffffff16915061149f8985610fbe565b6001600160a01b0316146114c55760405162461bcd60e51b815260040161041f906128c0565b6114cf8183612b6a565b42116114ed5760405162461bcd60e51b815260040161041f906127ed565b60008881526010602090815260408083206001600160a01b03808e1680865291845282852088865284528285208590558e168452600f8084528285208d8652845282852091855283528184208c8552909252822090915b8254811015611631578583828154811061156e57634e487b7160e01b600052603260045260246000fd5b9060005260206000200154141561161f578254839061158f90600190612ba1565b815481106115ad57634e487b7160e01b600052603260045260246000fd5b90600052602060002001548382815481106115d857634e487b7160e01b600052603260045260246000fd5b90600052602060002001819055508280548061160457634e487b7160e01b600052603160045260246000fd5b60019003818190600052602060002001600090559055611631565b8061162981612c15565b915050611544565b508054600181018255600091825260208083209091018690558a82526010815260408083206001600160a01b038f16845282528083209683529590529384209390935550829150611683905081612c15565b915050611414565b50610c62868686868686611b63565b6001600160a01b0381166000908152600a602052604090205460609060ff16600114156116f5576116ee826040518060400160405280600b81526020016a414444525f45584953545360a81b815250611252565b90506104b6565b60408051600481526024810182526020810180516001600160e01b03166395d89b4160e01b179052905160009081906001600160a01b0386169061173a908590612610565b600060405180830381855afa9150503d8060008114611775576040519150601f19603f3d011682016040523d82523d6000602084013e61177a565b606091505b509150915081801561178d575060008151115b15611834576000818060200190518101906117a89190612470565b80516020808301919091206040805180820190915260038152622221a360e91b9201919091529091507f580e4ba285e7e1134de91e671c33b0ab748bee7126d5d2e4d0845e6ad176e7eb811461182d5761182187604051806040016040528060078152602001662727aa2fa221a360c91b815250611252565b955050505050506104b6565b5050611867565b61185d85604051806040016040528060078152602001662727aa2fa221a360c91b815250611252565b93505050506104b6565b50506040805160208101909152600081529392505050565b600980546001600160a01b038381166001600160a01b0319831681179093556040519116919082907f8be0079c531659141344cd1fd0a4f28419497f9722a3daafe3b4186f6b6457e090600090a35050565b816001600160a01b0316836001600160a01b031614156119035760405162461bcd60e51b815260040161041f90612873565b6001600160a01b0383811660008181526008602090815260408083209487168084529490915290819020805460ff1916851515179055517f17307eab39ab6107e8899845ad3d59bd9653f200f220920489ca2b5937696c3190611967908590612705565b60405180910390a3505050565b60408051602a808252606082810190935283831b916f181899199a1a9b1b9c1cb0b131b232b360811b9160009190602082018180368337019050509050600360fc1b816000815181106119d757634e487b7160e01b600052603260045260246000fd5b60200101906001600160f81b031916908160001a905350600f60fb1b81600181518110611a1457634e487b7160e01b600052603260045260246000fd5b60200101906001600160f81b031916908160001a90535060005b6014811015611b5a576000848260148110611a5957634e487b7160e01b600052603260045260246000fd5b1a905083600482901c60ff1660108110611a8357634e487b7160e01b600052603260045260246000fd5b1a60f81b83611a93846002612b82565b611a9e906002612b6a565b81518110611abc57634e487b7160e01b600052603260045260246000fd5b60200101906001600160f81b031916908160001a90535083600f821660108110611af657634e487b7160e01b600052603260045260246000fd5b1a60f81b83611b06846002612b82565b611b11906003612b6a565b81518110611b2f57634e487b7160e01b600052603260045260246000fd5b60200101906001600160f81b031916908160001a905350508080611b5290612c15565b915050611a2e565b50949350505050565b6001600160a01b038516611b895760405162461bcd60e51b815260040161041f9061289a565b60068410611ba95760405162461bcd60e51b815260040161041f90612815565b60005b82811015611c3f5760008581526006602052604081206001600160a01b03891691868685818110611bed57634e487b7160e01b600052603260045260246000fd5b60209081029290920135835250810191909152604001600020546001600160a01b031614611c2d5760405162461bcd60e51b815260040161041f906128c0565b80611c3781612c15565b915050611bac565b506000611c4a6113c7565b90506000611c5786611e5b565b90506000611c6485611e5b565b9050611c74838a8a858589610c62565b60005b85811015611d0a5760008881526006602052604081206001600160a01b038c1691898985818110611cb857634e487b7160e01b600052603260045260246000fd5b60209081029290920135835250810191909152604001600020546001600160a01b031614611cf85760405162461bcd60e51b815260040161041f906128c0565b80611d0281612c15565b915050611c77565b5060008781526007602090815260408083206001600160a01b038d16845290915281208054878103909155905b86811015611dae5760008981526006602052604081208b918a8a85818110611d6f57634e487b7160e01b600052603260045260246000fd5b6020908102929092013583525081019190915260400160002080546001600160a01b0319166001600160a01b0392909216919091179055600101611d37565b5060008881526007602090815260408083206001600160a01b038d16845290915281208054889290611de1908490612b6a565b90915550506040516001600160a01b03808b16918c8216918716907fc3d58168c5ae7397731d063d5bbf3d657854427343f4c083240f7aacaa2d0f6290611e2b908d908c90612aa2565b60405180910390a4611e41848b8b86868a610c62565b611e4f848b8b8b8a8a611eb4565b50505050505050505050565b60408051600180825281830190925260609160009190602080830190803683370190505090508281600081518110611ea357634e487b7160e01b600052603260045260246000fd5b602090810291909101015292915050565b6001600160a01b0384163b15610c625760405163f23a6e6160e01b81526001600160a01b0385169063f23a6e6190611ef8908990899088908890889060040161267c565b602060405180830381600087803b158015611f1257600080fd5b505af1925050508015611f42575060408051601f3d908101601f19168201909252611f3f91810190612454565b60015b611fa257611f4e612c5c565b806308c379a01415611f885750611f63612c73565b80611f6e5750611f8a565b8060405162461bcd60e51b815260040161041f9190612710565b505b60405162461bcd60e51b815260040161041f90612a4e565b6001600160e01b0319811663f23a6e6160e01b14611fd25760405162461bcd60e51b815260040161041f9061283c565b50505050505050565b80356001600160a01b03811681146104b657600080fd5b600082601f830112612002578081fd5b8135602061200f82612b1e565b60405161201c8282612be8565b838152828101915085830183850287018401881015612039578586fd5b855b858110156120575781358452928401929084019060010161203b565b5090979650505050505050565b600082601f830112612074578081fd5b813561207f81612b42565b60405161208c8282612be8565b8281528560208487010111156120a0578384fd5b82602086016020830137918201602001929092529392505050565b6000602082840312156120cc578081fd5b6120d582611fdb565b9392505050565b600080604083850312156120ee578081fd5b6120f783611fdb565b915061210560208401611fdb565b90509250929050565b600080600080600060a08688031215612125578081fd5b61212e86611fdb565b945061213c60208701611fdb565b9350604086013567ffffffffffffffff80821115612158578283fd5b61216489838a01611ff2565b94506060880135915080821115612179578283fd5b61218589838a01611ff2565b9350608088013591508082111561219a578283fd5b506121a788828901612064565b9150509295509295909350565b60008060008060008060a087890312156121cc578081fd5b6121d587611fdb565b95506121e360208801611fdb565b945060408701359350606087013567ffffffffffffffff80821115612206578283fd5b818901915089601f830112612219578283fd5b813581811115612227578384fd5b8a6020808302850101111561223a578384fd5b602083019550809450506080890135915080821115612257578283fd5b5061226489828a01612064565b9150509295509295509295565b600080600080600060a08688031215612288578081fd5b61229186611fdb565b945061229f60208701611fdb565b93506040860135925060608601359150608086013567ffffffffffffffff8111156122c8578182fd5b6121a788828901612064565b600080604083850312156122e6578182fd5b6122ef83611fdb565b915060208301358015158114612303578182fd5b809150509250929050565b60008060408385031215612320578182fd5b61232983611fdb565b946020939093013593505050565b60008060408385031215612349578182fd5b823567ffffffffffffffff80821115612360578384fd5b818501915085601f830112612373578384fd5b8135602061238082612b1e565b60405161238d8282612be8565b8381528281019150858301838502870184018b10156123aa578889fd5b8896505b848710156123d3576123bf81611fdb565b8352600196909601959183019183016123ae565b50965050860135925050808211156123e9578283fd5b506123f685828601611ff2565b9150509250929050565b600060208284031215612411578081fd5b813567ffffffffffffffff811115612427578182fd5b820160c081018410156120d5578182fd5b600060208284031215612449578081fd5b81356120d581612d05565b600060208284031215612465578081fd5b81516120d581612d05565b600060208284031215612481578081fd5b815167ffffffffffffffff811115612497578182fd5b8201601f810184136124a7578182fd5b80516124b281612b42565b6040516124bf8282612be8565b8281528660208486010111156124d3578485fd5b6124e4836020830160208701612bb8565b9695505050505050565b6000604082840312156124ff578081fd5b60405161250d604082612be8565b61251683611fdb565b8152602083013560208201528091505092915050565b60006020828403121561253d578081fd5b5035919050565b60008060408385031215612556578182fd5b8235915061210560208401611fdb565b60008060006060848603121561257a578081fd5b8335925061258a60208501611fdb565b9150604084013590509250925092565b600080604083850312156125ac578182fd5b50508035926020909101359150565b600080604083850312156125cd578182fd5b82359150602083013560ff81168114612303578182fd5b600081518084526125fc816020860160208601612bb8565b601f01601f19169290920160200192915050565b60008251612622818460208701612bb8565b9190910192915050565b6000835161263e818460208801612bb8565b600160fd1b908301908152835161265c816001840160208801612bb8565b01600101949350505050565b6001600160a01b0391909116815260200190565b6001600160a01b03868116825285166020820152604081018490526060810183905260a0608082018190526000906126b6908301846125e4565b979650505050505050565b6020808252825182820181905260009190848201906040850190845b818110156126f9578351835292840192918401916001016126dd565b50909695505050505050565b901515815260200190565b6000602082526120d560208301846125e4565b60006040825261273660408301856125e4565b90508260208301529392505050565b6020808252601190820152701513d2d15397d253925512505312569151607a1b604082015260600190565b60208082526026908201527f4f776e61626c653a206e6577206f776e657220697320746865207a65726f206160408201526564647265737360d01b606082015260800190565b60208082526019908201527f43414c4c45525f4e4f545f4f574e45525f415050524f56454400000000000000604082015260600190565b6020808252600e908201526d14d1539117d59053125117d3919560921b604082015260600190565b6020808252600d908201526c544f4b454e49445f52414e474560981b604082015260600190565b6020808252601f908201527f4552433131353552454345495645525f52454a45435445445f544f4b454e5300604082015260600190565b6020808252600d908201526c20a8282927ab20a62fa9a2a62360991b604082015260600190565b6020808252600c908201526b5a45524f5f4144445245535360a01b604082015260600190565b6020808252600f908201526e1513d2d15397d393d517d3d5d39151608a1b604082015260600190565b6020808252601190820152704552525f544f4b454e49445f52414e474560781b604082015260600190565b60208082526012908201527114149250d154d7d25392551250531256915160721b604082015260600190565b6020808252818101527f4f776e61626c653a2063616c6c6572206973206e6f7420746865206f776e6572604082015260600190565b6020808252601590820152745553455f45536166655472616e7366657246726f6d60581b604082015260600190565b6020808252601590820152741513d2d15397d393d517d253925512505312569151605a1b604082015260600190565b60208082526016908201527514149250d154d7d393d517d25392551250531256915160521b604082015260600190565b6020808252600890820152675553455f4575726960c01b604082015260600190565b6020808252600f908201526e1393d517d253541311535153951151608a1b604082015260600190565b6020808252602b908201527f7472616e736665725f746f5f6e6f6e2d4552433131353552656365697665725f60408201526a34b6b83632b6b2b73a32b960a91b606082015260800190565b90815260200190565b918252602082015260400190565b60ff91909116815260200190565b60ff92909216825263ffffffff16602082015260400190565b6000808335601e19843603018112612aed578283fd5b83018035915067ffffffffffffffff821115612b07578283fd5b6020019150604081023603821315610e8557600080fd5b600067ffffffffffffffff821115612b3857612b38612c46565b5060209081020190565b600067ffffffffffffffff821115612b5c57612b5c612c46565b50601f01601f191660200190565b60008219821115612b7d57612b7d612c30565b500190565b6000816000190483118215151615612b9c57612b9c612c30565b500290565b600082821015612bb357612bb3612c30565b500390565b60005b83811015612bd3578181015183820152602001612bbb565b83811115612be2576000848401525b50505050565b601f8201601f1916810167ffffffffffffffff81118282101715612c0e57612c0e612c46565b6040525050565b6000600019821415612c2957612c29612c30565b5060010190565b634e487b7160e01b600052601160045260246000fd5b634e487b7160e01b600052604160045260246000fd5b600060033d1115610e9957600481823e5160e01c90565b600060443d1015612c8357610e99565b6040516003193d81016004833e81513d67ffffffffffffffff8160248401118184111715612cb5575050505050610e99565b8285019150815181811115612ccf57505050505050610e99565b843d8701016020828501011115612ceb57505050505050610e99565b612cfa60208286010187612be8565b509094505050505090565b6001600160e01b03198116811461123657600080fdfea2646970667358221220e38824692edf63c5ac264ff74ab2ab6e1a4da41e7d5421939657951ce38e3def64736f6c63430008010033","linkReferences":{}},"methodIdentifiers":{"ESafeTransferFrom(address,address,uint256,uint256[],bytes)":"598c27bc","NFTPrice_initialized()":"4c8cb672","NFTS(uint256)":"c9b6b485","addSupportedToken(address)":"6d69fcaf","balanceOf(address,uint256)":"00fdd58e","balanceOfBatch(address[],uint256[])":"4e1273f4","changeDynamicRatio(uint256,uint8)":"83023c88","changeNFTPrice(uint256,address,uint256)":"55826313","checkInitPricesParams((address,uint256)[][6])":"1f3fd618","getNFTPrice(uint256,address)":"86ff9113","getNftMintTime(uint256,address,uint256)":"aa31281c","getTotalNFTWorth(address)":"e5030adc","getUserTokenIds(address,uint256)":"b788920e","initPrice((address,uint256)[][6])":"3a4d2d3a","isApprovedForAll(address,address)":"e985e9c5","isSupported(address)":"4f129c53","owner()":"8da5cb5b","ownerOf(uint256,uint256)":"d9dad80d","renounceOwnership()":"715018a6","safeBatchTransferFrom(address,address,uint256[],uint256[],bytes)":"2eb2c2d6","safeTransferFrom(address,address,uint256,uint256,bytes)":"f242432a","setApprovalForAll(address,bool)":"a22cb465","supportedTokenAmount()":"23361283","supportsInterface(bytes4)":"01ffc9a7","tokenAddress_array(uint256)":"19d62e57","transferOwnership(address)":"f2fde38b","uri(uint256)":"0e89341c"},"id":2}