{"abi":[{"type":"constructor","inputs":[],"stateMutability":"nonpayable"},{"type":"function","name":"ESafeTransferFrom","inputs":[{"name":"from","type":"address","internalType":"address"},{"name":"to","type":"address","internalType":"address"},{"name":"id","type":"uint256","internalType":"uint256"},{"name":"indexes","type":"uint256[]","internalType":"uint256[]"},{"name":"data","type":"bytes","internalType":"bytes"}],"outputs":[],"stateMutability":"nonpayable"},{"type":"function","name":"NFTPrice_initialized","inputs":[],"outputs":[{"name":"","type":"uint8","internalType":"uint8"}],"stateMutability":"view"},{"type":"function","name":"NFTS","inputs":[{"name":"","type":"uint256","internalType":"uint256"}],"outputs":[{"name":"ratio","type":"uint8","internalType":"uint8"},{"name":"indate","type":"uint32","internalType":"uint32"}],"stateMutability":"view"},{"type":"function","name":"addSupportedToken","inputs":[{"name":"_tokenAddress","type":"address","internalType":"address"}],"outputs":[],"stateMutability":"nonpayable"},{"type":"function","name":"balanceOf","inputs":[{"name":"account","type":"address","internalType":"address"},{"name":"id","type":"uint256","internalType":"uint256"}],"outputs":[{"name":"","type":"uint256","internalType":"uint256"}],"stateMutability":"view"},{"type":"function","name":"balanceOfBatch","inputs":[{"name":"","type":"address[]","internalType":"address[]"},{"name":"","type":"uint256[]","internalType":"uint256[]"}],"outputs":[{"name":"","type":"uint256[]","internalType":"uint256[]"}],"stateMutability":"view"},{"type":"function","name":"changeDynamicRatio","inputs":[{"name":"tokenID","type":"uint256","internalType":"uint256"},{"name":"newRatio","type":"uint8","internalType":"uint8"}],"outputs":[],"stateMutability":"nonpayable"},{"type":"function","name":"changeNFTPrice","inputs":[{"name":"tokenID","type":"uint256","internalType":"uint256"},{"name":"tokenAddress","type":"address","internalType":"address"},{"name":"amount","type":"uint256","internalType":"uint256"}],"outputs":[],"stateMutability":"nonpayable"},{"type":"function","name":"checkInitPricesParams","inputs":[{"name":"prices","type":"tuple[][6]","internalType":"struct TCF_NFTPrice.priceTypeAndAomut[][6]","components":[{"name":"tokenAddress","type":"address","internalType":"address"},{"name":"amount","type":"uint256","internalType":"uint256"}]}],"outputs":[{"name":"","type":"string","internalType":"string"}],"stateMutability":"view"},{"type":"function","name":"getNFTPrice","inputs":[{"name":"tokenID","type":"uint256","internalType":"uint256"},{"name":"_tokenAddress","type":"address","internalType":"address"}],"outputs":[{"name":"","type":"string","internalType":"string"},{"name":"","type":"uint256","internalType":"uint256"}],"stateMutability":"view"},{"type":"function","name":"initPrice","inputs":[{"name":"prices","type":"tuple[][6]","internalType":"struct TCF_NFTPrice.priceTypeAndAomut[][6]","components":[{"name":"tokenAddress","type":"address","internalType":"address"},{"name":"amount","type":"uint256","internalType":"uint256"}]}],"outputs":[],"stateMutability":"nonpayable"},{"type":"function","name":"isApprovedForAll","inputs":[{"name":"account","type":"address","internalType":"address"},{"name":"operator","type":"address","internalType":"address"}],"outputs":[{"name":"","type":"bool","internalType":"bool"}],"stateMutability":"view"},{"type":"function","name":"isSupported","inputs":[{"name":"token","type":"address","internalType":"address"}],"outputs":[{"name":"","type":"uint8","internalType":"uint8"}],"stateMutability":"view"},{"type":"function","name":"owner","inputs":[],"outputs":[{"name":"","type":"address","internalType":"address"}],"stateMutability":"view"},{"type":"function","name":"ownerOf","inputs":[{"name":"tokenId","type":"uint256","internalType":"uint256"},{"name":"editionId","type":"uint256","internalType":"uint256"}],"outputs":[{"name":"","type":"address","internalType":"address"}],"stateMutability":"view"},{"type":"function","name":"renounceOwnership","inputs":[],"outputs":[],"stateMutability":"nonpayable"},{"type":"function","name":"safeBatchTransferFrom","inputs":[{"name":"","type":"address","internalType":"address"},{"name":"","type":"address","internalType":"address"},{"name":"","type":"uint256[]","internalType":"uint256[]"},{"name":"","type":"uint256[]","internalType":"uint256[]"},{"name":"","type":"bytes","internalType":"bytes"}],"outputs":[],"stateMutability":"nonpayable"},{"type":"function","name":"safeTransferFrom","inputs":[{"name":"","type":"address","internalType":"address"},{"name":"","type":"address","internalType":"address"},{"name":"","type":"uint256","internalType":"uint256"},{"name":"","type":"uint256","internalType":"uint256"},{"name":"","type":"bytes","internalType":"bytes"}],"outputs":[],"stateMutability":"nonpayable"},{"type":"function","name":"setApprovalForAll","inputs":[{"name":"operator","type":"address","internalType":"address"},{"name":"approved","type":"bool","internalType":"bool"}],"outputs":[],"stateMutability":"nonpayable"},{"type":"function","name":"supportedTokenAmount","inputs":[],"outputs":[{"name":"","type":"uint256","internalType":"uint256"}],"stateMutability":"view"},{"type":"function","name":"supportsInterface","inputs":[{"name":"interfaceId","type":"bytes4","internalType":"bytes4"}],"outputs":[{"name":"","type":"bool","internalType":"bool"}],"stateMutability":"view"},{"type":"function","name":"tokenAddress_array","inputs":[{"name":"","type":"uint256","internalType":"uint256"}],"outputs":[{"name":"","type":"address","internalType":"address"}],"stateMutability":"view"},{"type":"function","name":"transferOwnership","inputs":[{"name":"newOwner","type":"address","internalType":"address"}],"outputs":[],"stateMutability":"nonpayable"},{"type":"function","name":"uri","inputs":[{"name":"","type":"uint256","internalType":"uint256"}],"outputs":[{"name":"","type":"string","internalType":"string"}],"stateMutability":"view"},{"type":"event","name":"ApprovalForAll","inputs":[{"name":"account","type":"address","indexed":true,"internalType":"address"},{"name":"operator","type":"address","indexed":true,"internalType":"address"},{"name":"approved","type":"bool","indexed":false,"internalType":"bool"}],"anonymous":false},{"type":"event","name":"OwnershipTransferred","inputs":[{"name":"previousOwner","type":"address","indexed":true,"internalType":"address"},{"name":"newOwner","type":"address","indexed":true,"internalType":"address"}],"anonymous":false},{"type":"event","name":"TransferBatch","inputs":[{"name":"operator","type":"address","indexed":true,"internalType":"address"},{"name":"from","type":"address","indexed":true,"internalType":"address"},{"name":"to","type":"address","indexed":true,"internalType":"address"},{"name":"ids","type":"uint256[]","indexed":false,"internalType":"uint256[]"},{"name":"values","type":"uint256[]","indexed":false,"internalType":"uint256[]"}],"anonymous":false},{"type":"event","name":"TransferSingle","inputs":[{"name":"operator","type":"address","indexed":true,"internalType":"address"},{"name":"from","type":"address","indexed":true,"internalType":"address"},{"name":"to","type":"address","indexed":true,"internalType":"address"},{"name":"id","type":"uint256","indexed":false,"internalType":"uint256"},{"name":"value","type":"uint256","indexed":false,"internalType":"uint256"}],"anonymous":false},{"type":"event","name":"URI","inputs":[{"name":"value","type":"string","indexed":false,"internalType":"string"},{"name":"id","type":"uint256","indexed":true,"internalType":"uint256"}],"anonymous":false}],"bytecode":{"object":"0x60806040523480156200001157600080fd5b506200002662000020620000a4565b620000a8565b600a6020527fbbc70db1b6c7afd11e79c0fb0051300458f1a3acb8ee9789d9b6b26c61ad9bc7805460ff19166001908117909155600c805480830182556000919091527fdf6966c971051c3d54ec59162606531493a51404a002842f56009d7e5cf4a8c70180546001600160a01b03191682179055600b55620000fa565b3390565b600980546001600160a01b038381166001600160a01b0319831681179093556040519116919082907f8be0079c531659141344cd1fd0a4f28419497f9722a3daafe3b4186f6b6457e090600090a35050565b612720806200010a6000396000f3fe608060405234801561001057600080fd5b50600436106101575760003560e01c8063598c27bc116100c3578063a22cb4651161007c578063a22cb465146102ed578063c9b6b48514610300578063d9dad80d14610321578063e985e9c514610334578063f242432a14610347578063f2fde38b1461035a57610157565b8063598c27bc146102835780636d69fcaf14610296578063715018a6146102a957806383023c88146102b157806386ff9113146102c45780638da5cb5b146102e557610157565b80632eb2c2d6116101155780632eb2c2d6146102005780633a4d2d3a146102155780634c8cb672146102285780634e1273f41461023d5780634f129c531461025d578063558263131461027057610157565b8062fdd58e1461015c57806301ffc9a7146101855780630e89341c146101a557806319d62e57146101c55780631f3fd618146101e557806323361283146101f8575b600080fd5b61016f61016a366004611d1c565b61036d565b60405161017c919061247f565b60405180910390f35b610198610193366004611e46565b6103e9565b60405161017c9190612113565b6101b86101b3366004611f3a565b610431565b60405161017c919061211e565b6101d86101d3366004611f3a565b61044b565b60405161017c9190612076565b6101b86101f3366004611e0e565b610475565b61016f610785565b61021361020e366004611b1c565b61078b565b005b610213610223366004611e0e565b6107a3565b610230610ab1565b60405161017c9190612496565b61025061024b366004611d45565b610abf565b60405161017c91906120cf565b61023061026b366004611ac9565b610ad9565b61021361027e366004611f74565b610b0d565b610213610291366004611bc2565b610b80565b6102136102a4366004611ac9565b610be0565b610213610cc9565b6102136102bf366004611fc9565b610cdd565b6102d76102d2366004611f52565b610d55565b60405161017c929190612131565b6101d8610e02565b6102136102fb366004611ce2565b610e12565b61031361030e366004611f3a565b610e28565b60405161017c9291906124a4565b6101d861032f366004611fa8565b610e4d565b610198610342366004611aea565b610e96565b610213610355366004611c7f565b610ec4565b610213610368366004611ac9565b610edc565b60006001600160a01b03831661039e5760405162461bcd60e51b815260040161039590612280565b60405180910390fd5b600682106103be5760405162461bcd60e51b8152600401610395906122cf565b5060008181526007602090815260408083206001600160a01b03861684529091529020545b92915050565b60006001600160e01b03198216636cdb3d1360e11b148061041a57506001600160e01b031982166303a24d0760e21b145b80610429575061042982610f16565b90505b919050565b606060405162461bcd60e51b8152600401610395906123e9565b600c818154811061045b57600080fd5b6000918252602090912001546001600160a01b0316905081565b606060005b600681101561076f57600b548382600681106104a657634e487b7160e01b600052603260045260246000fd5b6020028101906104b691906124bd565b9050146104e557505060408051808201909152600a815269282924a1a2a9afa622a760b11b602082015261042c565b600080600085846006811061050a57634e487b7160e01b600052603260045260246000fd5b60200281019061051a91906124bd565b808060200260200160405190810160405280939291908181526020016000905b828210156105665761055760408302860136819003810190611efc565b8152602001906001019061053a565b5050505050905060005b600b548110156106e157600082828151811061059c57634e487b7160e01b600052603260045260246000fd5b60209081029190910101515190506001600160a01b0381166105c157600194506105c6565b600193505b60006001600160a01b03168383815181106105f157634e487b7160e01b600052603260045260246000fd5b6020026020010151600001516001600160a01b0316141580156106605750600a600084848151811061063357634e487b7160e01b600052603260045260246000fd5b602090810291909101810151516001600160a01b031682528101919091526040016000205460ff16600114155b156106d0576106c383838151811061068857634e487b7160e01b600052603260045260246000fd5b602002602001015160000151604051806040016040528060118152602001701513d2d15397d55394d5541413d4951151607a1b815250610f2f565b965050505050505061042c565b506106da816125e4565b9050610570565b508261071e57604051806040016040528060138152602001721510d7d4149250d157d35554d517d1561254d5606a1b81525094505050505061042c565b8161075b57604051806040016040528060148152602001731110d197d4149250d157d35554d517d1561254d560621b81525094505050505061042c565b50505080610768906125e4565b905061047a565b5050604080516020810190915260008152919050565b600b5481565b60405162461bcd60e51b81526004016103959061240b565b6107ab610f63565b600d5460ff166001146107d05760405162461bcd60e51b81526004016103959061238a565b600d54610100900460ff16156107f85760405162461bcd60e51b8152600401610395906122fa565b600061080382610475565b90508051600014610828578060405162461bcd60e51b8152600401610395919061211e565b6040805160c0808201835262ed4e008252630107ac0060208084019190915263013c68008385015263017124006060808501919091526301a5e0006080808601919091526301da9c0060a0808701919091528651948501875260288552603293850193909352603c95840195909552605090830152605a938201939093526064928101929092529060006108bc85806124bd565b9050905060005b6006811015610a9a578381600681106108ec57634e487b7160e01b600052603260045260246000fd5b6020020151600e600083815260200190815260200160002060010160016101000a81548163ffffffff021916908363ffffffff16021790555082816006811061094557634e487b7160e01b600052603260045260246000fd5b602090810291909101516000838152600e90925260408220600101805460ff191660ff9092169190911790555b82811015610a8957600087836006811061099c57634e487b7160e01b600052603260045260246000fd5b6020028101906109ac91906124bd565b838181106109ca57634e487b7160e01b600052603260045260246000fd5b6109e09260206040909202019081019150611ac9565b90506001600160a01b0381166109f4575060015b878360068110610a1457634e487b7160e01b600052603260045260246000fd5b602002810190610a2491906124bd565b83818110610a4257634e487b7160e01b600052603260045260246000fd5b6000868152600e602090815260408083206001600160a01b039790971683529581529085902091909402929092019092013590555080610a81816125e4565b915050610972565b50610a93816125e4565b90506108c3565b5050600d805461ff00191661010017905550505050565b600d54610100900460ff1681565b606060405162461bcd60e51b81526004016103959061240b565b60006001600160a01b038216610aee57600191505b506001600160a01b03166000908152600a602052604090205460ff1690565b610b15610f63565b6000610b218484610fa2565b90508051600014610b46578060405162461bcd60e51b8152600401610395919061211e565b6001600160a01b038316610b5957600192505b506000928352600e602090815260408085206001600160a01b039094168552929052912055565b610b886110a4565b6001600160a01b0316866001600160a01b03161480610bae5750610bae866103426110a4565b610bca5760405162461bcd60e51b8152600401610395906121c4565b610bd88686868686866110a8565b505050505050565b610be8610f63565b600d5460ff1615610c0b5760405162461bcd60e51b815260040161039590612153565b6000610c16826113a0565b90508051600014610c3b578060405162461bcd60e51b8152600401610395919061211e565b6001600160a01b0382166000818152600a60205260408120805460ff19166001908117909155600c805480830182559083527fdf6966c971051c3d54ec59162606531493a51404a002842f56009d7e5cf4a8c70180546001600160a01b031916909317909255600b8054909190610cb3908490612550565b9091555050600d805460ff191660011790555050565b610cd1610f63565b610cdb6000611585565b565b610ce5610f63565b600d5460ff61010090910416600114610d105760405162461bcd60e51b8152600401610395906123b9565b60068210610d305760405162461bcd60e51b8152600401610395906121fb565b6000918252600e6020526040909120600101805460ff191660ff909216919091179055565b6060600080610d648585610fa2565b90508051600014610d7a57915060009050610dfb565b6001600160a01b038416610d8d57600193505b6000858152600e602090815260408083206001600160a01b038816845290915290205480610de657505060408051808201909152600d81526c14149250d157d393d517d4d155609a1b6020820152915060009050610dfb565b60408051602081019091526000815293509150505b9250929050565b6009546001600160a01b03165b90565b610e24610e1d6110a4565b83836115d7565b5050565b600e6020526000908152604090206001015460ff811690610100900463ffffffff1682565b600060068310610e6f5760405162461bcd60e51b8152600401610395906121fb565b5060009182526006602090815260408084209284529190529020546001600160a01b031690565b6001600160a01b03918216600090815260086020908152604080832093909416825291909152205460ff1690565b60405162461bcd60e51b81526004016103959061235b565b610ee4610f63565b6001600160a01b038116610f0a5760405162461bcd60e51b81526004016103959061217e565b610f1381611585565b50565b6001600160e01b031981166301ffc9a760e01b14919050565b606081610f3b8461167a565b604051602001610f4c92919061203a565b604051602081830303815290604052905092915050565b610f6b6110a4565b6001600160a01b0316610f7c610e02565b6001600160a01b031614610cdb5760405162461bcd60e51b815260040161039590612326565b600d5460609060ff61010090910416600114610feb575060408051808201909152601681527514149250d154d7d393d517d25392551250531256915160521b60208201526103e3565b600583111561101e575060408051808201909152600d81526c544f4b454e49445f52414e474560981b60208201526103e3565b6001600160a01b03821661103157600191505b6001600160a01b0382166000908152600a602052604090205460ff1660011461108e5761108782604051806040016040528060118152602001701513d2d15397d55394d5541413d4951151607a1b815250610f2f565b90506103e3565b5060408051602081019091526000815292915050565b3390565b6001600160a01b0385166110ce5760405162461bcd60e51b815260040161039590612280565b600684106110ee5760405162461bcd60e51b8152600401610395906121fb565b60005b828110156111845760008581526006602052604081206001600160a01b0389169186868581811061113257634e487b7160e01b600052603260045260246000fd5b60209081029290920135835250810191909152604001600020546001600160a01b0316146111725760405162461bcd60e51b8152600401610395906122a6565b8061117c816125e4565b9150506110f1565b50600061118f6110a4565b9050600061119c86611869565b905060006111a985611869565b90506111b9838a8a858589610bd8565b60005b8581101561124f5760008881526006602052604081206001600160a01b038c16918989858181106111fd57634e487b7160e01b600052603260045260246000fd5b60209081029290920135835250810191909152604001600020546001600160a01b03161461123d5760405162461bcd60e51b8152600401610395906122a6565b80611247816125e4565b9150506111bc565b5060008781526007602090815260408083206001600160a01b038d16845290915281208054878103909155905b868110156112f35760008981526006602052604081208b918a8a858181106112b457634e487b7160e01b600052603260045260246000fd5b6020908102929092013583525081019190915260400160002080546001600160a01b0319166001600160a01b039290921691909117905560010161127c565b5060008881526007602090815260408083206001600160a01b038d16845290915281208054889290611326908490612550565b90915550506040516001600160a01b03808b16918c8216918716907fc3d58168c5ae7397731d063d5bbf3d657854427343f4c083240f7aacaa2d0f6290611370908d908c90612488565b60405180910390a4611386848b8b86868a610bd8565b611394848b8b8b8a8a6118c2565b50505050505050505050565b6001600160a01b0381166000908152600a602052604090205460609060ff16600114156113fb576113f4826040518060400160405280600b81526020016a414444525f45584953545360a81b815250610f2f565b905061042c565b60408051600481526024810182526020810180516001600160e01b03166395d89b4160e01b179052905160009081906001600160a01b0386169061144090859061201e565b600060405180830381855afa9150503d806000811461147b576040519150601f19603f3d011682016040523d82523d6000602084013e611480565b606091505b5091509150818015611493575060008151115b1561153a576000818060200190518101906114ae9190611e7e565b80516020808301919091206040805180820190915260038152622221a360e91b9201919091529091507f580e4ba285e7e1134de91e671c33b0ab748bee7126d5d2e4d0845e6ad176e7eb81146115335761152787604051806040016040528060078152602001662727aa2fa221a360c91b815250610f2f565b9550505050505061042c565b505061156d565b61156385604051806040016040528060078152602001662727aa2fa221a360c91b815250610f2f565b935050505061042c565b50506040805160208101909152600081529392505050565b600980546001600160a01b038381166001600160a01b0319831681179093556040519116919082907f8be0079c531659141344cd1fd0a4f28419497f9722a3daafe3b4186f6b6457e090600090a35050565b816001600160a01b0316836001600160a01b031614156116095760405162461bcd60e51b815260040161039590612259565b6001600160a01b0383811660008181526008602090815260408083209487168084529490915290819020805460ff1916851515179055517f17307eab39ab6107e8899845ad3d59bd9653f200f220920489ca2b5937696c319061166d908590612113565b60405180910390a3505050565b60408051602a808252606082810190935283831b916f181899199a1a9b1b9c1cb0b131b232b360811b9160009190602082018180368337019050509050600360fc1b816000815181106116dd57634e487b7160e01b600052603260045260246000fd5b60200101906001600160f81b031916908160001a905350600f60fb1b8160018151811061171a57634e487b7160e01b600052603260045260246000fd5b60200101906001600160f81b031916908160001a90535060005b601481101561186057600084826014811061175f57634e487b7160e01b600052603260045260246000fd5b1a905083600482901c60ff166010811061178957634e487b7160e01b600052603260045260246000fd5b1a60f81b83611799846002612568565b6117a4906002612550565b815181106117c257634e487b7160e01b600052603260045260246000fd5b60200101906001600160f81b031916908160001a90535083600f8216601081106117fc57634e487b7160e01b600052603260045260246000fd5b1a60f81b8361180c846002612568565b611817906003612550565b8151811061183557634e487b7160e01b600052603260045260246000fd5b60200101906001600160f81b031916908160001a905350508080611858906125e4565b915050611734565b50949350505050565b604080516001808252818301909252606091600091906020808301908036833701905050905082816000815181106118b157634e487b7160e01b600052603260045260246000fd5b602090810291909101015292915050565b6001600160a01b0384163b15610bd85760405163f23a6e6160e01b81526001600160a01b0385169063f23a6e6190611906908990899088908890889060040161208a565b602060405180830381600087803b15801561192057600080fd5b505af1925050508015611950575060408051601f3d908101601f1916820190925261194d91810190611e62565b60015b6119b05761195c61262b565b806308c379a014156119965750611971612642565b8061197c5750611998565b8060405162461bcd60e51b8152600401610395919061211e565b505b60405162461bcd60e51b815260040161039590612434565b6001600160e01b0319811663f23a6e6160e01b146119e05760405162461bcd60e51b815260040161039590612222565b50505050505050565b80356001600160a01b038116811461042c57600080fd5b600082601f830112611a10578081fd5b81356020611a1d82612504565b604051611a2a82826125b7565b838152828101915085830183850287018401881015611a47578586fd5b855b85811015611a6557813584529284019290840190600101611a49565b5090979650505050505050565b600082601f830112611a82578081fd5b8135611a8d81612528565b604051611a9a82826125b7565b828152856020848701011115611aae578384fd5b82602086016020830137918201602001929092529392505050565b600060208284031215611ada578081fd5b611ae3826119e9565b9392505050565b60008060408385031215611afc578081fd5b611b05836119e9565b9150611b13602084016119e9565b90509250929050565b600080600080600060a08688031215611b33578081fd5b611b3c866119e9565b9450611b4a602087016119e9565b9350604086013567ffffffffffffffff80821115611b66578283fd5b611b7289838a01611a00565b94506060880135915080821115611b87578283fd5b611b9389838a01611a00565b93506080880135915080821115611ba8578283fd5b50611bb588828901611a72565b9150509295509295909350565b60008060008060008060a08789031215611bda578081fd5b611be3876119e9565b9550611bf1602088016119e9565b945060408701359350606087013567ffffffffffffffff80821115611c14578283fd5b818901915089601f830112611c27578283fd5b813581811115611c35578384fd5b8a60208083028501011115611c48578384fd5b602083019550809450506080890135915080821115611c65578283fd5b50611c7289828a01611a72565b9150509295509295509295565b600080600080600060a08688031215611c96578081fd5b611c9f866119e9565b9450611cad602087016119e9565b93506040860135925060608601359150608086013567ffffffffffffffff811115611cd6578182fd5b611bb588828901611a72565b60008060408385031215611cf4578182fd5b611cfd836119e9565b915060208301358015158114611d11578182fd5b809150509250929050565b60008060408385031215611d2e578182fd5b611d37836119e9565b946020939093013593505050565b60008060408385031215611d57578182fd5b823567ffffffffffffffff80821115611d6e578384fd5b818501915085601f830112611d81578384fd5b81356020611d8e82612504565b604051611d9b82826125b7565b8381528281019150858301838502870184018b1015611db8578889fd5b8896505b84871015611de157611dcd816119e9565b835260019690960195918301918301611dbc565b5096505086013592505080821115611df7578283fd5b50611e0485828601611a00565b9150509250929050565b600060208284031215611e1f578081fd5b813567ffffffffffffffff811115611e35578182fd5b820160c08101841015611ae3578182fd5b600060208284031215611e57578081fd5b8135611ae3816126d4565b600060208284031215611e73578081fd5b8151611ae3816126d4565b600060208284031215611e8f578081fd5b815167ffffffffffffffff811115611ea5578182fd5b8201601f81018413611eb5578182fd5b8051611ec081612528565b604051611ecd82826125b7565b828152866020848601011115611ee1578485fd5b611ef2836020830160208701612587565b9695505050505050565b600060408284031215611f0d578081fd5b604051611f1b6040826125b7565b611f24836119e9565b8152602083013560208201528091505092915050565b600060208284031215611f4b578081fd5b5035919050565b60008060408385031215611f64578182fd5b82359150611b13602084016119e9565b600080600060608486031215611f88578081fd5b83359250611f98602085016119e9565b9150604084013590509250925092565b60008060408385031215611fba578182fd5b50508035926020909101359150565b60008060408385031215611fdb578182fd5b82359150602083013560ff81168114611d11578182fd5b6000815180845261200a816020860160208601612587565b601f01601f19169290920160200192915050565b60008251612030818460208701612587565b9190910192915050565b6000835161204c818460208801612587565b600160fd1b908301908152835161206a816001840160208801612587565b01600101949350505050565b6001600160a01b0391909116815260200190565b6001600160a01b03868116825285166020820152604081018490526060810183905260a0608082018190526000906120c490830184611ff2565b979650505050505050565b6020808252825182820181905260009190848201906040850190845b81811015612107578351835292840192918401916001016120eb565b50909695505050505050565b901515815260200190565b600060208252611ae36020830184611ff2565b6000604082526121446040830185611ff2565b90508260208301529392505050565b6020808252601190820152701513d2d15397d253925512505312569151607a1b604082015260600190565b60208082526026908201527f4f776e61626c653a206e6577206f776e657220697320746865207a65726f206160408201526564647265737360d01b606082015260800190565b60208082526019908201527f43414c4c45525f4e4f545f4f574e45525f415050524f56454400000000000000604082015260600190565b6020808252600d908201526c544f4b454e49445f52414e474560981b604082015260600190565b6020808252601f908201527f4552433131353552454345495645525f52454a45435445445f544f4b454e5300604082015260600190565b6020808252600d908201526c20a8282927ab20a62fa9a2a62360991b604082015260600190565b6020808252600c908201526b5a45524f5f4144445245535360a01b604082015260600190565b6020808252600f908201526e1513d2d15397d393d517d3d5d39151608a1b604082015260600190565b6020808252601190820152704552525f544f4b454e49445f52414e474560781b604082015260600190565b60208082526012908201527114149250d154d7d25392551250531256915160721b604082015260600190565b6020808252818101527f4f776e61626c653a2063616c6c6572206973206e6f7420746865206f776e6572604082015260600190565b6020808252601590820152745553455f45536166655472616e7366657246726f6d60581b604082015260600190565b6020808252601590820152741513d2d15397d393d517d253925512505312569151605a1b604082015260600190565b60208082526016908201527514149250d154d7d393d517d25392551250531256915160521b604082015260600190565b6020808252600890820152675553455f4575726960c01b604082015260600190565b6020808252600f908201526e1393d517d253541311535153951151608a1b604082015260600190565b6020808252602b908201527f7472616e736665725f746f5f6e6f6e2d4552433131353552656365697665725f60408201526a34b6b83632b6b2b73a32b960a91b606082015260800190565b90815260200190565b918252602082015260400190565b60ff91909116815260200190565b60ff92909216825263ffffffff16602082015260400190565b6000808335601e198436030181126124d3578283fd5b83018035915067ffffffffffffffff8211156124ed578283fd5b6020019150604081023603821315610dfb57600080fd5b600067ffffffffffffffff82111561251e5761251e612615565b5060209081020190565b600067ffffffffffffffff82111561254257612542612615565b50601f01601f191660200190565b60008219821115612563576125636125ff565b500190565b6000816000190483118215151615612582576125826125ff565b500290565b60005b838110156125a257818101518382015260200161258a565b838111156125b1576000848401525b50505050565b601f8201601f1916810167ffffffffffffffff811182821017156125dd576125dd612615565b6040525050565b60006000198214156125f8576125f86125ff565b5060010190565b634e487b7160e01b600052601160045260246000fd5b634e487b7160e01b600052604160045260246000fd5b600060033d1115610e0f57600481823e5160e01c90565b600060443d101561265257610e0f565b6040516003193d81016004833e81513d67ffffffffffffffff8160248401118184111715612684575050505050610e0f565b828501915081518181111561269e57505050505050610e0f565b843d87010160208285010111156126ba57505050505050610e0f565b6126c9602082860101876125b7565b509094505050505090565b6001600160e01b031981168114610f1357600080fdfea26469706673582212204d03720eee9a89098a06a77705fb796d1391c07f825775ab9e3131469bf851ec64736f6c63430008010033","linkReferences":{}},"methodIdentifiers":{"ESafeTransferFrom(address,address,uint256,uint256[],bytes)":"598c27bc","NFTPrice_initialized()":"4c8cb672","NFTS(uint256)":"c9b6b485","addSupportedToken(address)":"6d69fcaf","balanceOf(address,uint256)":"00fdd58e","balanceOfBatch(address[],uint256[])":"4e1273f4","changeDynamicRatio(uint256,uint8)":"83023c88","changeNFTPrice(uint256,address,uint256)":"55826313","checkInitPricesParams((address,uint256)[][6])":"1f3fd618","getNFTPrice(uint256,address)":"86ff9113","initPrice((address,uint256)[][6])":"3a4d2d3a","isApprovedForAll(address,address)":"e985e9c5","isSupported(address)":"4f129c53","owner()":"8da5cb5b","ownerOf(uint256,uint256)":"d9dad80d","renounceOwnership()":"715018a6","safeBatchTransferFrom(address,address,uint256[],uint256[],bytes)":"2eb2c2d6","safeTransferFrom(address,address,uint256,uint256,bytes)":"f242432a","setApprovalForAll(address,bool)":"a22cb465","supportedTokenAmount()":"23361283","supportsInterface(bytes4)":"01ffc9a7","tokenAddress_array(uint256)":"19d62e57","transferOwnership(address)":"f2fde38b","uri(uint256)":"0e89341c"},"id":4}