{"abi":[{"type":"function","name":"allowance","inputs":[{"name":"owner","type":"address","internalType":"address"},{"name":"spender","type":"address","internalType":"address"}],"outputs":[{"name":"","type":"uint256","internalType":"uint256"}],"stateMutability":"view"},{"type":"function","name":"approve","inputs":[{"name":"spender","type":"address","internalType":"address"},{"name":"amount","type":"uint256","internalType":"uint256"}],"outputs":[{"name":"","type":"bool","internalType":"bool"}],"stateMutability":"nonpayable"},{"type":"function","name":"balanceOf","inputs":[{"name":"account","type":"address","internalType":"address"}],"outputs":[{"name":"","type":"uint256","internalType":"uint256"}],"stateMutability":"view"},{"type":"function","name":"decimals","inputs":[],"outputs":[{"name":"","type":"uint8","internalType":"uint8"}],"stateMutability":"view"},{"type":"function","name":"decreaseAllowance","inputs":[{"name":"spender","type":"address","internalType":"address"},{"name":"subtractedValue","type":"uint256","internalType":"uint256"}],"outputs":[{"name":"","type":"bool","internalType":"bool"}],"stateMutability":"nonpayable"},{"type":"function","name":"increaseAllowance","inputs":[{"name":"spender","type":"address","internalType":"address"},{"name":"addedValue","type":"uint256","internalType":"uint256"}],"outputs":[{"name":"","type":"bool","internalType":"bool"}],"stateMutability":"nonpayable"},{"type":"function","name":"name","inputs":[],"outputs":[{"name":"","type":"string","internalType":"string"}],"stateMutability":"view"},{"type":"function","name":"supportsInterface","inputs":[{"name":"interfaceId","type":"bytes4","internalType":"bytes4"}],"outputs":[{"name":"","type":"bool","internalType":"bool"}],"stateMutability":"view"},{"type":"function","name":"symbol","inputs":[],"outputs":[{"name":"","type":"string","internalType":"string"}],"stateMutability":"view"},{"type":"function","name":"totalSupply","inputs":[],"outputs":[{"name":"","type":"uint256","internalType":"uint256"}],"stateMutability":"view"},{"type":"function","name":"transfer","inputs":[{"name":"to","type":"address","internalType":"address"},{"name":"amount","type":"uint256","internalType":"uint256"}],"outputs":[{"name":"","type":"bool","internalType":"bool"}],"stateMutability":"nonpayable"},{"type":"function","name":"transferFrom","inputs":[{"name":"from","type":"address","internalType":"address"},{"name":"to","type":"address","internalType":"address"},{"name":"amount","type":"uint256","internalType":"uint256"}],"outputs":[{"name":"","type":"bool","internalType":"bool"}],"stateMutability":"nonpayable"},{"type":"event","name":"Approval","inputs":[{"name":"owner","type":"address","indexed":true,"internalType":"address"},{"name":"spender","type":"address","indexed":true,"internalType":"address"},{"name":"value","type":"uint256","indexed":false,"internalType":"uint256"}],"anonymous":false},{"type":"event","name":"Transfer","inputs":[{"name":"from","type":"address","indexed":true,"internalType":"address"},{"name":"to","type":"address","indexed":true,"internalType":"address"},{"name":"value","type":"uint256","indexed":false,"internalType":"uint256"}],"anonymous":false}],"bytecode":{"object":"0x608060405234801561001057600080fd5b506108ed806100206000396000f3fe608060405234801561001057600080fd5b50600436106100b45760003560e01c80633950935111610071578063395093511461013d57806370a082311461015057806395d89b4114610179578063a457c2d714610181578063a9059cbb14610194578063dd62ed3e146101a757600080fd5b806301ffc9a7146100b957806306fdde03146100e1578063095ea7b3146100f657806318160ddd1461010957806323b872dd1461011b578063313ce5671461012e575b600080fd5b6100cc6100c736600461070d565b6101ba565b60405190151581526020015b60405180910390f35b6100e961020c565b6040516100d8919061073e565b6100cc6101043660046107a8565b61029e565b6003545b6040519081526020016100d8565b6100cc6101293660046107d2565b6102b6565b604051600981526020016100d8565b6100cc61014b3660046107a8565b6102da565b61010d61015e36600461080e565b6001600160a01b031660009081526001602052604090205490565b6100e96102fc565b6100cc61018f3660046107a8565b61030b565b6100cc6101a23660046107a8565b61038b565b61010d6101b5366004610829565b610399565b60006001600160e01b031982166336372b0760e01b14806101eb57506001600160e01b0319821663a219a02560e01b145b8061020657506301ffc9a760e01b6001600160e01b03198316145b92915050565b60606004805461021b9061085c565b80601f01602080910402602001604051908101604052809291908181526020018280546102479061085c565b80156102945780601f1061026957610100808354040283529160200191610294565b820191906000526020600020905b81548152906001019060200180831161027757829003601f168201915b5050505050905090565b6000336102ac8185856103c4565b5060019392505050565b6000336102c48582856104e8565b6102cf858585610562565b506001949350505050565b6000336102ac8185856102ed8383610399565b6102f79190610896565b6103c4565b60606005805461021b9061085c565b600033816103198286610399565b90508381101561037e5760405162461bcd60e51b815260206004820152602560248201527f45524332303a2064656372656173656420616c6c6f77616e63652062656c6f77604482015264207a65726f60d81b60648201526084015b60405180910390fd5b6102cf82868684036103c4565b6000336102ac818585610562565b6001600160a01b03918216600090815260026020908152604080832093909416825291909152205490565b6001600160a01b0383166104265760405162461bcd60e51b8152602060048201526024808201527f45524332303a20617070726f76652066726f6d20746865207a65726f206164646044820152637265737360e01b6064820152608401610375565b6001600160a01b0382166104875760405162461bcd60e51b815260206004820152602260248201527f45524332303a20617070726f766520746f20746865207a65726f206164647265604482015261737360f01b6064820152608401610375565b6001600160a01b0383811660008181526002602090815260408083209487168084529482529182902085905590518481527f8c5be1e5ebec7d5bd14f71427d1e84f3dd0314c0f7b2291e5b200ac8c7c3b925910160405180910390a3505050565b60006104f48484610399565b9050600019811461055c578181101561054f5760405162461bcd60e51b815260206004820152601d60248201527f45524332303a20696e73756666696369656e7420616c6c6f77616e63650000006044820152606401610375565b61055c84848484036103c4565b50505050565b6001600160a01b0383166105c65760405162461bcd60e51b815260206004820152602560248201527f45524332303a207472616e736665722066726f6d20746865207a65726f206164604482015264647265737360d81b6064820152608401610375565b6001600160a01b0382166106285760405162461bcd60e51b815260206004820152602360248201527f45524332303a207472616e7366657220746f20746865207a65726f206164647260448201526265737360e81b6064820152608401610375565b6001600160a01b038316600090815260016020526040902054818110156106a05760405162461bcd60e51b815260206004820152602660248201527f45524332303a207472616e7366657220616d6f756e7420657863656564732062604482015265616c616e636560d01b6064820152608401610375565b6001600160a01b0380851660008181526001602052604080822086860390559286168082529083902080548601905591517fddf252ad1be2c89b69c2b068fc378daa952ba7f163c4a11628f55a4df523b3ef906107009086815260200190565b60405180910390a361055c565b60006020828403121561071f57600080fd5b81356001600160e01b03198116811461073757600080fd5b9392505050565b600060208083528351808285015260005b8181101561076b5785810183015185820160400152820161074f565b506000604082860101526040601f19601f8301168501019250505092915050565b80356001600160a01b03811681146107a357600080fd5b919050565b600080604083850312156107bb57600080fd5b6107c48361078c565b946020939093013593505050565b6000806000606084860312156107e757600080fd5b6107f08461078c565b92506107fe6020850161078c565b9150604084013590509250925092565b60006020828403121561082057600080fd5b6107378261078c565b6000806040838503121561083c57600080fd5b6108458361078c565b91506108536020840161078c565b90509250929050565b600181811c9082168061087057607f821691505b60208210810361089057634e487b7160e01b600052602260045260246000fd5b50919050565b8082018082111561020657634e487b7160e01b600052601160045260246000fdfea26469706673582212205591184954a4129b26554e932fac6570b612078e3e04109068583dc7cb09615f64736f6c63430008140033","linkReferences":{}},"methodIdentifiers":{"allowance(address,address)":"dd62ed3e","approve(address,uint256)":"095ea7b3","balanceOf(address)":"70a08231","decimals()":"313ce567","decreaseAllowance(address,uint256)":"a457c2d7","increaseAllowance(address,uint256)":"39509351","name()":"06fdde03","supportsInterface(bytes4)":"01ffc9a7","symbol()":"95d89b41","totalSupply()":"18160ddd","transfer(address,uint256)":"a9059cbb","transferFrom(address,address,uint256)":"23b872dd"},"id":28}