{
	"openzeppelin/contract/token/ERC721/ERC721.sol": {
		"ERC721": {
			"abi": [
				{
					"inputs": [
						{
							"internalType": "bytes",
							"name": "name_",
							"type": "bytes"
						},
						{
							"internalType": "bytes",
							"name": "symbol_",
							"type": "bytes"
						}
					],
					"stateMutability": "nonpayable",
					"type": "constructor"
				},
				{
					"anonymous": false,
					"inputs": [
						{
							"indexed": true,
							"internalType": "address",
							"name": "owner",
							"type": "address"
						},
						{
							"indexed": true,
							"internalType": "address",
							"name": "approved",
							"type": "address"
						},
						{
							"indexed": true,
							"internalType": "uint256",
							"name": "tokenId",
							"type": "uint256"
						}
					],
					"name": "Approval",
					"type": "event"
				},
				{
					"anonymous": false,
					"inputs": [
						{
							"indexed": true,
							"internalType": "address",
							"name": "owner",
							"type": "address"
						},
						{
							"indexed": true,
							"internalType": "address",
							"name": "operator",
							"type": "address"
						},
						{
							"indexed": false,
							"internalType": "bool",
							"name": "approved",
							"type": "bool"
						}
					],
					"name": "ApprovalForAll",
					"type": "event"
				},
				{
					"anonymous": false,
					"inputs": [
						{
							"indexed": true,
							"internalType": "address",
							"name": "from",
							"type": "address"
						},
						{
							"indexed": true,
							"internalType": "address",
							"name": "to",
							"type": "address"
						},
						{
							"indexed": true,
							"internalType": "uint256",
							"name": "tokenId",
							"type": "uint256"
						}
					],
					"name": "Transfer",
					"type": "event"
				},
				{
					"inputs": [
						{
							"internalType": "address",
							"name": "to",
							"type": "address"
						},
						{
							"internalType": "uint256",
							"name": "tokenId",
							"type": "uint256"
						}
					],
					"name": "approve",
					"outputs": [],
					"stateMutability": "nonpayable",
					"type": "function"
				},
				{
					"inputs": [
						{
							"internalType": "address",
							"name": "owner",
							"type": "address"
						}
					],
					"name": "balanceOf",
					"outputs": [
						{
							"internalType": "uint256",
							"name": "",
							"type": "uint256"
						}
					],
					"stateMutability": "view",
					"type": "function"
				},
				{
					"inputs": [
						{
							"internalType": "uint256",
							"name": "tokenId",
							"type": "uint256"
						}
					],
					"name": "getApproved",
					"outputs": [
						{
							"internalType": "address",
							"name": "",
							"type": "address"
						}
					],
					"stateMutability": "view",
					"type": "function"
				},
				{
					"inputs": [
						{
							"internalType": "address",
							"name": "owner",
							"type": "address"
						},
						{
							"internalType": "address",
							"name": "operator",
							"type": "address"
						}
					],
					"name": "isApprovedForAll",
					"outputs": [
						{
							"internalType": "bool",
							"name": "",
							"type": "bool"
						}
					],
					"stateMutability": "view",
					"type": "function"
				},
				{
					"inputs": [],
					"name": "name",
					"outputs": [
						{
							"internalType": "bytes",
							"name": "",
							"type": "bytes"
						}
					],
					"stateMutability": "view",
					"type": "function"
				},
				{
					"inputs": [
						{
							"internalType": "uint256",
							"name": "tokenId",
							"type": "uint256"
						}
					],
					"name": "ownerOf",
					"outputs": [
						{
							"internalType": "address",
							"name": "",
							"type": "address"
						}
					],
					"stateMutability": "view",
					"type": "function"
				},
				{
					"inputs": [
						{
							"internalType": "address",
							"name": "from",
							"type": "address"
						},
						{
							"internalType": "address",
							"name": "to",
							"type": "address"
						},
						{
							"internalType": "uint256",
							"name": "tokenId",
							"type": "uint256"
						}
					],
					"name": "safeTransferFrom",
					"outputs": [],
					"stateMutability": "nonpayable",
					"type": "function"
				},
				{
					"inputs": [
						{
							"internalType": "address",
							"name": "from",
							"type": "address"
						},
						{
							"internalType": "address",
							"name": "to",
							"type": "address"
						},
						{
							"internalType": "uint256",
							"name": "tokenId",
							"type": "uint256"
						},
						{
							"internalType": "bytes",
							"name": "data",
							"type": "bytes"
						}
					],
					"name": "safeTransferFrom",
					"outputs": [],
					"stateMutability": "nonpayable",
					"type": "function"
				},
				{
					"inputs": [
						{
							"internalType": "address",
							"name": "operator",
							"type": "address"
						},
						{
							"internalType": "bool",
							"name": "approved",
							"type": "bool"
						}
					],
					"name": "setApprovalForAll",
					"outputs": [],
					"stateMutability": "nonpayable",
					"type": "function"
				},
				{
					"inputs": [
						{
							"internalType": "bytes4",
							"name": "interfaceId",
							"type": "bytes4"
						}
					],
					"name": "supportsInterface",
					"outputs": [
						{
							"internalType": "bool",
							"name": "",
							"type": "bool"
						}
					],
					"stateMutability": "view",
					"type": "function"
				},
				{
					"inputs": [],
					"name": "symbol",
					"outputs": [
						{
							"internalType": "bytes",
							"name": "",
							"type": "bytes"
						}
					],
					"stateMutability": "view",
					"type": "function"
				},
				{
					"inputs": [
						{
							"internalType": "uint256",
							"name": "tokenId",
							"type": "uint256"
						}
					],
					"name": "tokenURI",
					"outputs": [
						{
							"internalType": "bytes",
							"name": "",
							"type": "bytes"
						}
					],
					"stateMutability": "view",
					"type": "function"
				},
				{
					"inputs": [
						{
							"internalType": "address",
							"name": "from",
							"type": "address"
						},
						{
							"internalType": "address",
							"name": "to",
							"type": "address"
						},
						{
							"internalType": "uint256",
							"name": "tokenId",
							"type": "uint256"
						}
					],
					"name": "transferFrom",
					"outputs": [],
					"stateMutability": "nonpayable",
					"type": "function"
				},
				{
					"inputs": [
						{
							"internalType": "uint256",
							"name": "value",
							"type": "uint256"
						}
					],
					"name": "uintToBytesNoPadding",
					"outputs": [
						{
							"internalType": "bytes",
							"name": "",
							"type": "bytes"
						}
					],
					"stateMutability": "pure",
					"type": "function"
				}
			],
			"devdoc": {
				"details": "Implementation of https://eips.ethereum.org/EIPS/eip-721[ERC721] Non-Fungible Token Standard, including the Metadata extension, but not including the Enumerable extension, which is available separately as {ERC721Enumerable}.",
				"kind": "dev",
				"methods": {
					"approve(address,uint256)": {
						"details": "See {IERC721-approve}."
					},
					"balanceOf(address)": {
						"details": "See {IERC721-balanceOf}."
					},
					"constructor": {
						"details": "Initializes the contract by setting a `name` and a `symbol` to the token collection."
					},
					"getApproved(uint256)": {
						"details": "See {IERC721-getApproved}."
					},
					"isApprovedForAll(address,address)": {
						"details": "See {IERC721-isApprovedForAll}."
					},
					"name()": {
						"details": "See {IERC721Metadata-name}."
					},
					"ownerOf(uint256)": {
						"details": "See {IERC721-ownerOf}."
					},
					"safeTransferFrom(address,address,uint256)": {
						"details": "See {IERC721-safeTransferFrom}."
					},
					"safeTransferFrom(address,address,uint256,bytes)": {
						"details": "See {IERC721-safeTransferFrom}."
					},
					"setApprovalForAll(address,bool)": {
						"details": "See {IERC721-setApprovalForAll}."
					},
					"supportsInterface(bytes4)": {
						"details": "See {IERC165-supportsInterface}."
					},
					"symbol()": {
						"details": "See {IERC721Metadata-symbol}."
					},
					"tokenURI(uint256)": {
						"details": "See {IERC721Metadata-tokenURI}."
					},
					"transferFrom(address,address,uint256)": {
						"details": "See {IERC721-transferFrom}."
					}
				},
				"version": 1
			},
			"evm": {
				"assembly": "    /* \"openzeppelin/contract/token/ERC721/ERC721.sol\":824:18407  contract ERC721 is Context, ERC165, IERC721, IERC721Metadata {\r... */\n  mstore(0x40, 0x80)\n    /* \"openzeppelin/contract/token/ERC721/ERC721.sol\":1609:1723  constructor(bytes memory name_, bytes memory symbol_) {\r... */\n  callvalue\n  dup1\n  iszero\n  tag_1\n  jumpi\n  0x00\n  dup1\n  revert\ntag_1:\n  pop\n  mload(0x40)\n  sub(codesize, bytecodeSize)\n  dup1\n  bytecodeSize\n  dup4\n  codecopy\n  dup2\n  dup2\n  add\n  0x40\n  mstore\n  dup2\n  add\n  swap1\n  tag_2\n  swap2\n  swap1\n  tag_3\n  jump\t// in\ntag_2:\n    /* \"openzeppelin/contract/token/ERC721/ERC721.sol\":1682:1687  name_ */\n  dup2\n    /* \"openzeppelin/contract/token/ERC721/ERC721.sol\":1674:1679  _name */\n  0x00\n    /* \"openzeppelin/contract/token/ERC721/ERC721.sol\":1674:1687  _name = name_ */\n  swap1\n  dup1\n  mload\n  swap1\n  0x20\n  add\n  swap1\n  tag_6\n  swap3\n  swap2\n  swap1\n  tag_7\n  jump\t// in\ntag_6:\n  pop\n    /* \"openzeppelin/contract/token/ERC721/ERC721.sol\":1708:1715  symbol_ */\n  dup1\n    /* \"openzeppelin/contract/token/ERC721/ERC721.sol\":1698:1705  _symbol */\n  0x01\n    /* \"openzeppelin/contract/token/ERC721/ERC721.sol\":1698:1715  _symbol = symbol_ */\n  swap1\n  dup1\n  mload\n  swap1\n  0x20\n  add\n  swap1\n  tag_8\n  swap3\n  swap2\n  swap1\n  tag_7\n  jump\t// in\ntag_8:\n  pop\n    /* \"openzeppelin/contract/token/ERC721/ERC721.sol\":1609:1723  constructor(bytes memory name_, bytes memory symbol_) {\r... */\n  pop\n  pop\n    /* \"openzeppelin/contract/token/ERC721/ERC721.sol\":824:18407  contract ERC721 is Context, ERC165, IERC721, IERC721Metadata {\r... */\n  jump(tag_9)\ntag_7:\n  dup3\n  dup1\n  sload\n  tag_10\n  swap1\n  tag_11\n  jump\t// in\ntag_10:\n  swap1\n  0x00\n  mstore\n  keccak256(0x00, 0x20)\n  swap1\n  0x1f\n  add\n  0x20\n  swap1\n  div\n  dup2\n  add\n  swap3\n  dup3\n  tag_13\n  jumpi\n  0x00\n  dup6\n  sstore\n  jump(tag_12)\ntag_13:\n  dup3\n  0x1f\n  lt\n  tag_14\n  jumpi\n  dup1\n  mload\n  not(0xff)\n  and\n  dup4\n  dup1\n  add\n  or\n  dup6\n  sstore\n  jump(tag_12)\ntag_14:\n  dup3\n  dup1\n  add\n  0x01\n  add\n  dup6\n  sstore\n  dup3\n  iszero\n  tag_12\n  jumpi\n  swap2\n  dup3\n  add\ntag_15:\n  dup3\n  dup2\n  gt\n  iszero\n  tag_16\n  jumpi\n  dup3\n  mload\n  dup3\n  sstore\n  swap2\n  0x20\n  add\n  swap2\n  swap1\n  0x01\n  add\n  swap1\n  jump(tag_15)\ntag_16:\ntag_12:\n  pop\n  swap1\n  pop\n  tag_17\n  swap2\n  swap1\n  tag_18\n  jump\t// in\ntag_17:\n  pop\n  swap1\n  jump\t// out\ntag_18:\ntag_19:\n  dup1\n  dup3\n  gt\n  iszero\n  tag_20\n  jumpi\n  0x00\n  dup2\n  0x00\n  swap1\n  sstore\n  pop\n  0x01\n  add\n  jump(tag_19)\ntag_20:\n  pop\n  swap1\n  jump\t// out\n    /* \"#utility.yul\":7:359   */\ntag_22:\n  0x00\n    /* \"#utility.yul\":120:185   */\n  tag_24\n    /* \"#utility.yul\":136:184   */\n  tag_25\n    /* \"#utility.yul\":177:183   */\n  dup5\n    /* \"#utility.yul\":136:184   */\n  tag_26\n  jump\t// in\ntag_25:\n    /* \"#utility.yul\":120:185   */\n  tag_27\n  jump\t// in\ntag_24:\n    /* \"#utility.yul\":111:185   */\n  swap1\n  pop\n    /* \"#utility.yul\":208:214   */\n  dup3\n    /* \"#utility.yul\":201:206   */\n  dup2\n    /* \"#utility.yul\":194:215   */\n  mstore\n    /* \"#utility.yul\":246:250   */\n  0x20\n    /* \"#utility.yul\":239:244   */\n  dup2\n    /* \"#utility.yul\":235:251   */\n  add\n    /* \"#utility.yul\":284:287   */\n  dup5\n    /* \"#utility.yul\":275:281   */\n  dup5\n    /* \"#utility.yul\":270:273   */\n  dup5\n    /* \"#utility.yul\":266:282   */\n  add\n    /* \"#utility.yul\":263:288   */\n  gt\n    /* \"#utility.yul\":260:262   */\n  iszero\n  tag_28\n  jumpi\n    /* \"#utility.yul\":301:302   */\n  0x00\n    /* \"#utility.yul\":298:299   */\n  dup1\n    /* \"#utility.yul\":291:303   */\n  revert\n    /* \"#utility.yul\":260:262   */\ntag_28:\n    /* \"#utility.yul\":314:353   */\n  tag_29\n    /* \"#utility.yul\":346:352   */\n  dup5\n    /* \"#utility.yul\":341:344   */\n  dup3\n    /* \"#utility.yul\":336:339   */\n  dup6\n    /* \"#utility.yul\":314:353   */\n  tag_30\n  jump\t// in\ntag_29:\n    /* \"#utility.yul\":101:359   */\n  pop\n  swap4\n  swap3\n  pop\n  pop\n  pop\n  jump\t// out\n    /* \"#utility.yul\":378:664   */\ntag_31:\n  0x00\n    /* \"#utility.yul\":493:496   */\n  dup3\n    /* \"#utility.yul\":486:490   */\n  0x1f\n    /* \"#utility.yul\":478:484   */\n  dup4\n    /* \"#utility.yul\":474:491   */\n  add\n    /* \"#utility.yul\":470:497   */\n  slt\n    /* \"#utility.yul\":460:462   */\n  tag_33\n  jumpi\n    /* \"#utility.yul\":511:512   */\n  0x00\n    /* \"#utility.yul\":508:509   */\n  dup1\n    /* \"#utility.yul\":501:513   */\n  revert\n    /* \"#utility.yul\":460:462   */\ntag_33:\n    /* \"#utility.yul\":544:550   */\n  dup2\n    /* \"#utility.yul\":538:551   */\n  mload\n    /* \"#utility.yul\":569:658   */\n  tag_34\n    /* \"#utility.yul\":654:657   */\n  dup5\n    /* \"#utility.yul\":646:652   */\n  dup3\n    /* \"#utility.yul\":639:643   */\n  0x20\n    /* \"#utility.yul\":631:637   */\n  dup7\n    /* \"#utility.yul\":627:644   */\n  add\n    /* \"#utility.yul\":569:658   */\n  tag_22\n  jump\t// in\ntag_34:\n    /* \"#utility.yul\":560:658   */\n  swap2\n  pop\n    /* \"#utility.yul\":450:664   */\n  pop\n  swap3\n  swap2\n  pop\n  pop\n  jump\t// out\n    /* \"#utility.yul\":670:1318   */\ntag_3:\n  0x00\n  dup1\n    /* \"#utility.yul\":824:826   */\n  0x40\n    /* \"#utility.yul\":812:821   */\n  dup4\n    /* \"#utility.yul\":803:810   */\n  dup6\n    /* \"#utility.yul\":799:822   */\n  sub\n    /* \"#utility.yul\":795:827   */\n  slt\n    /* \"#utility.yul\":792:794   */\n  iszero\n  tag_36\n  jumpi\n    /* \"#utility.yul\":840:841   */\n  0x00\n    /* \"#utility.yul\":837:838   */\n  dup1\n    /* \"#utility.yul\":830:842   */\n  revert\n    /* \"#utility.yul\":792:794   */\ntag_36:\n    /* \"#utility.yul\":904:905   */\n  0x00\n    /* \"#utility.yul\":893:902   */\n  dup4\n    /* \"#utility.yul\":889:906   */\n  add\n    /* \"#utility.yul\":883:907   */\n  mload\n    /* \"#utility.yul\":934:952   */\n  0xffffffffffffffff\n    /* \"#utility.yul\":926:932   */\n  dup2\n    /* \"#utility.yul\":923:953   */\n  gt\n    /* \"#utility.yul\":920:922   */\n  iszero\n  tag_37\n  jumpi\n    /* \"#utility.yul\":966:967   */\n  0x00\n    /* \"#utility.yul\":963:964   */\n  dup1\n    /* \"#utility.yul\":956:968   */\n  revert\n    /* \"#utility.yul\":920:922   */\ntag_37:\n    /* \"#utility.yul\":994:1067   */\n  tag_38\n    /* \"#utility.yul\":1059:1066   */\n  dup6\n    /* \"#utility.yul\":1050:1056   */\n  dup3\n    /* \"#utility.yul\":1039:1048   */\n  dup7\n    /* \"#utility.yul\":1035:1057   */\n  add\n    /* \"#utility.yul\":994:1067   */\n  tag_31\n  jump\t// in\ntag_38:\n    /* \"#utility.yul\":984:1067   */\n  swap3\n  pop\n    /* \"#utility.yul\":854:1077   */\n  pop\n    /* \"#utility.yul\":1137:1139   */\n  0x20\n    /* \"#utility.yul\":1126:1135   */\n  dup4\n    /* \"#utility.yul\":1122:1140   */\n  add\n    /* \"#utility.yul\":1116:1141   */\n  mload\n    /* \"#utility.yul\":1168:1186   */\n  0xffffffffffffffff\n    /* \"#utility.yul\":1160:1166   */\n  dup2\n    /* \"#utility.yul\":1157:1187   */\n  gt\n    /* \"#utility.yul\":1154:1156   */\n  iszero\n  tag_39\n  jumpi\n    /* \"#utility.yul\":1200:1201   */\n  0x00\n    /* \"#utility.yul\":1197:1198   */\n  dup1\n    /* \"#utility.yul\":1190:1202   */\n  revert\n    /* \"#utility.yul\":1154:1156   */\ntag_39:\n    /* \"#utility.yul\":1228:1301   */\n  tag_40\n    /* \"#utility.yul\":1293:1300   */\n  dup6\n    /* \"#utility.yul\":1284:1290   */\n  dup3\n    /* \"#utility.yul\":1273:1282   */\n  dup7\n    /* \"#utility.yul\":1269:1291   */\n  add\n    /* \"#utility.yul\":1228:1301   */\n  tag_31\n  jump\t// in\ntag_40:\n    /* \"#utility.yul\":1218:1301   */\n  swap2\n  pop\n    /* \"#utility.yul\":1087:1311   */\n  pop\n    /* \"#utility.yul\":782:1318   */\n  swap3\n  pop\n  swap3\n  swap1\n  pop\n  jump\t// out\n    /* \"#utility.yul\":1324:1453   */\ntag_27:\n  0x00\n    /* \"#utility.yul\":1385:1405   */\n  tag_42\n  tag_43\n  jump\t// in\ntag_42:\n    /* \"#utility.yul\":1375:1405   */\n  swap1\n  pop\n    /* \"#utility.yul\":1414:1447   */\n  tag_44\n    /* \"#utility.yul\":1442:1446   */\n  dup3\n    /* \"#utility.yul\":1434:1440   */\n  dup3\n    /* \"#utility.yul\":1414:1447   */\n  tag_45\n  jump\t// in\ntag_44:\n    /* \"#utility.yul\":1365:1453   */\n  swap2\n  swap1\n  pop\n  jump\t// out\n    /* \"#utility.yul\":1459:1534   */\ntag_43:\n  0x00\n    /* \"#utility.yul\":1525:1527   */\n  0x40\n    /* \"#utility.yul\":1519:1528   */\n  mload\n    /* \"#utility.yul\":1509:1528   */\n  swap1\n  pop\n    /* \"#utility.yul\":1499:1534   */\n  swap1\n  jump\t// out\n    /* \"#utility.yul\":1540:1847   */\ntag_26:\n  0x00\n    /* \"#utility.yul\":1691:1709   */\n  0xffffffffffffffff\n    /* \"#utility.yul\":1683:1689   */\n  dup3\n    /* \"#utility.yul\":1680:1710   */\n  gt\n    /* \"#utility.yul\":1677:1679   */\n  iszero\n  tag_48\n  jumpi\n    /* \"#utility.yul\":1713:1731   */\n  tag_49\n  tag_50\n  jump\t// in\ntag_49:\n    /* \"#utility.yul\":1677:1679   */\ntag_48:\n    /* \"#utility.yul\":1751:1780   */\n  tag_51\n    /* \"#utility.yul\":1773:1779   */\n  dup3\n    /* \"#utility.yul\":1751:1780   */\n  tag_52\n  jump\t// in\ntag_51:\n    /* \"#utility.yul\":1743:1780   */\n  swap1\n  pop\n    /* \"#utility.yul\":1835:1839   */\n  0x20\n    /* \"#utility.yul\":1829:1833   */\n  dup2\n    /* \"#utility.yul\":1825:1840   */\n  add\n    /* \"#utility.yul\":1817:1840   */\n  swap1\n  pop\n    /* \"#utility.yul\":1606:1847   */\n  swap2\n  swap1\n  pop\n  jump\t// out\n    /* \"#utility.yul\":1853:2160   */\ntag_30:\n    /* \"#utility.yul\":1921:1922   */\n  0x00\n    /* \"#utility.yul\":1931:2044   */\ntag_54:\n    /* \"#utility.yul\":1945:1951   */\n  dup4\n    /* \"#utility.yul\":1942:1943   */\n  dup2\n    /* \"#utility.yul\":1939:1952   */\n  lt\n    /* \"#utility.yul\":1931:2044   */\n  iszero\n  tag_56\n  jumpi\n    /* \"#utility.yul\":2030:2031   */\n  dup1\n    /* \"#utility.yul\":2025:2028   */\n  dup3\n    /* \"#utility.yul\":2021:2032   */\n  add\n    /* \"#utility.yul\":2015:2033   */\n  mload\n    /* \"#utility.yul\":2011:2012   */\n  dup2\n    /* \"#utility.yul\":2006:2009   */\n  dup5\n    /* \"#utility.yul\":2002:2013   */\n  add\n    /* \"#utility.yul\":1995:2034   */\n  mstore\n    /* \"#utility.yul\":1967:1969   */\n  0x20\n    /* \"#utility.yul\":1964:1965   */\n  dup2\n    /* \"#utility.yul\":1960:1970   */\n  add\n    /* \"#utility.yul\":1955:1970   */\n  swap1\n  pop\n    /* \"#utility.yul\":1931:2044   */\n  jump(tag_54)\ntag_56:\n    /* \"#utility.yul\":2062:2068   */\n  dup4\n    /* \"#utility.yul\":2059:2060   */\n  dup2\n    /* \"#utility.yul\":2056:2069   */\n  gt\n    /* \"#utility.yul\":2053:2055   */\n  iszero\n  tag_57\n  jumpi\n    /* \"#utility.yul\":2142:2143   */\n  0x00\n    /* \"#utility.yul\":2133:2139   */\n  dup5\n    /* \"#utility.yul\":2128:2131   */\n  dup5\n    /* \"#utility.yul\":2124:2140   */\n  add\n    /* \"#utility.yul\":2117:2144   */\n  mstore\n    /* \"#utility.yul\":2053:2055   */\ntag_57:\n    /* \"#utility.yul\":1902:2160   */\n  pop\n  pop\n  pop\n  pop\n  jump\t// out\n    /* \"#utility.yul\":2166:2486   */\ntag_11:\n  0x00\n    /* \"#utility.yul\":2247:2248   */\n  0x02\n    /* \"#utility.yul\":2241:2245   */\n  dup3\n    /* \"#utility.yul\":2237:2249   */\n  div\n    /* \"#utility.yul\":2227:2249   */\n  swap1\n  pop\n    /* \"#utility.yul\":2294:2295   */\n  0x01\n    /* \"#utility.yul\":2288:2292   */\n  dup3\n    /* \"#utility.yul\":2284:2296   */\n  and\n    /* \"#utility.yul\":2315:2333   */\n  dup1\n    /* \"#utility.yul\":2305:2307   */\n  tag_59\n  jumpi\n    /* \"#utility.yul\":2371:2375   */\n  0x7f\n    /* \"#utility.yul\":2363:2369   */\n  dup3\n    /* \"#utility.yul\":2359:2376   */\n  and\n    /* \"#utility.yul\":2349:2376   */\n  swap2\n  pop\n    /* \"#utility.yul\":2305:2307   */\ntag_59:\n    /* \"#utility.yul\":2433:2435   */\n  0x20\n    /* \"#utility.yul\":2425:2431   */\n  dup3\n    /* \"#utility.yul\":2422:2436   */\n  lt\n    /* \"#utility.yul\":2402:2420   */\n  dup2\n    /* \"#utility.yul\":2399:2437   */\n  eq\n    /* \"#utility.yul\":2396:2398   */\n  iszero\n  tag_60\n  jumpi\n    /* \"#utility.yul\":2452:2470   */\n  tag_61\n  tag_62\n  jump\t// in\ntag_61:\n    /* \"#utility.yul\":2396:2398   */\ntag_60:\n    /* \"#utility.yul\":2217:2486   */\n  pop\n  swap2\n  swap1\n  pop\n  jump\t// out\n    /* \"#utility.yul\":2492:2773   */\ntag_45:\n    /* \"#utility.yul\":2575:2602   */\n  tag_64\n    /* \"#utility.yul\":2597:2601   */\n  dup3\n    /* \"#utility.yul\":2575:2602   */\n  tag_52\n  jump\t// in\ntag_64:\n    /* \"#utility.yul\":2567:2573   */\n  dup2\n    /* \"#utility.yul\":2563:2603   */\n  add\n    /* \"#utility.yul\":2705:2711   */\n  dup2\n    /* \"#utility.yul\":2693:2703   */\n  dup2\n    /* \"#utility.yul\":2690:2712   */\n  lt\n    /* \"#utility.yul\":2669:2687   */\n  0xffffffffffffffff\n    /* \"#utility.yul\":2657:2667   */\n  dup3\n    /* \"#utility.yul\":2654:2688   */\n  gt\n    /* \"#utility.yul\":2651:2713   */\n  or\n    /* \"#utility.yul\":2648:2650   */\n  iszero\n  tag_65\n  jumpi\n    /* \"#utility.yul\":2716:2734   */\n  tag_66\n  tag_50\n  jump\t// in\ntag_66:\n    /* \"#utility.yul\":2648:2650   */\ntag_65:\n    /* \"#utility.yul\":2756:2766   */\n  dup1\n    /* \"#utility.yul\":2752:2754   */\n  0x40\n    /* \"#utility.yul\":2745:2767   */\n  mstore\n    /* \"#utility.yul\":2535:2773   */\n  pop\n  pop\n  pop\n  jump\t// out\n    /* \"#utility.yul\":2779:2959   */\ntag_62:\n    /* \"#utility.yul\":2827:2904   */\n  0x4e487b7100000000000000000000000000000000000000000000000000000000\n    /* \"#utility.yul\":2824:2825   */\n  0x00\n    /* \"#utility.yul\":2817:2905   */\n  mstore\n    /* \"#utility.yul\":2924:2928   */\n  0x22\n    /* \"#utility.yul\":2921:2922   */\n  0x04\n    /* \"#utility.yul\":2914:2929   */\n  mstore\n    /* \"#utility.yul\":2948:2952   */\n  0x24\n    /* \"#utility.yul\":2945:2946   */\n  0x00\n    /* \"#utility.yul\":2938:2953   */\n  revert\n    /* \"#utility.yul\":2965:3145   */\ntag_50:\n    /* \"#utility.yul\":3013:3090   */\n  0x4e487b7100000000000000000000000000000000000000000000000000000000\n    /* \"#utility.yul\":3010:3011   */\n  0x00\n    /* \"#utility.yul\":3003:3091   */\n  mstore\n    /* \"#utility.yul\":3110:3114   */\n  0x41\n    /* \"#utility.yul\":3107:3108   */\n  0x04\n    /* \"#utility.yul\":3100:3115   */\n  mstore\n    /* \"#utility.yul\":3134:3138   */\n  0x24\n    /* \"#utility.yul\":3131:3132   */\n  0x00\n    /* \"#utility.yul\":3124:3139   */\n  revert\n    /* \"#utility.yul\":3151:3253   */\ntag_52:\n  0x00\n    /* \"#utility.yul\":3243:3245   */\n  0x1f\n    /* \"#utility.yul\":3239:3246   */\n  not\n    /* \"#utility.yul\":3234:3236   */\n  0x1f\n    /* \"#utility.yul\":3227:3232   */\n  dup4\n    /* \"#utility.yul\":3223:3237   */\n  add\n    /* \"#utility.yul\":3219:3247   */\n  and\n    /* \"#utility.yul\":3209:3247   */\n  swap1\n  pop\n    /* \"#utility.yul\":3199:3253   */\n  swap2\n  swap1\n  pop\n  jump\t// out\n    /* \"openzeppelin/contract/token/ERC721/ERC721.sol\":824:18407  contract ERC721 is Context, ERC165, IERC721, IERC721Metadata {\r... */\ntag_9:\n  dataSize(sub_0)\n  dup1\n  dataOffset(sub_0)\n  0x00\n  codecopy\n  0x00\n  return\nstop\n\nsub_0: assembly {\n        /* \"openzeppelin/contract/token/ERC721/ERC721.sol\":824:18407  contract ERC721 is Context, ERC165, IERC721, IERC721Metadata {\r... */\n      mstore(0x40, 0x80)\n      callvalue\n      dup1\n      iszero\n      tag_1\n      jumpi\n      0x00\n      dup1\n      revert\n    tag_1:\n      pop\n      jumpi(tag_2, lt(calldatasize, 0x04))\n      shr(0xe0, calldataload(0x00))\n      dup1\n      0x70a08231\n      gt\n      tag_17\n      jumpi\n      dup1\n      0xb88d4fde\n      gt\n      tag_18\n      jumpi\n      dup1\n      0xb88d4fde\n      eq\n      tag_13\n      jumpi\n      dup1\n      0xc511b246\n      eq\n      tag_14\n      jumpi\n      dup1\n      0xc87b56dd\n      eq\n      tag_15\n      jumpi\n      dup1\n      0xe985e9c5\n      eq\n      tag_16\n      jumpi\n      jump(tag_2)\n    tag_18:\n      dup1\n      0x70a08231\n      eq\n      tag_10\n      jumpi\n      dup1\n      0x95d89b41\n      eq\n      tag_11\n      jumpi\n      dup1\n      0xa22cb465\n      eq\n      tag_12\n      jumpi\n      jump(tag_2)\n    tag_17:\n      dup1\n      0x095ea7b3\n      gt\n      tag_19\n      jumpi\n      dup1\n      0x095ea7b3\n      eq\n      tag_6\n      jumpi\n      dup1\n      0x23b872dd\n      eq\n      tag_7\n      jumpi\n      dup1\n      0x42842e0e\n      eq\n      tag_8\n      jumpi\n      dup1\n      0x6352211e\n      eq\n      tag_9\n      jumpi\n      jump(tag_2)\n    tag_19:\n      dup1\n      0x01ffc9a7\n      eq\n      tag_3\n      jumpi\n      dup1\n      0x06fdde03\n      eq\n      tag_4\n      jumpi\n      dup1\n      0x081812fc\n      eq\n      tag_5\n      jumpi\n    tag_2:\n      0x00\n      dup1\n      revert\n        /* \"openzeppelin/contract/token/ERC721/ERC721.sol\":1795:2100  function supportsInterface(bytes4 interfaceId) public view virtual override(ERC165, IERC165) returns (bool) {\r... */\n    tag_3:\n      tag_20\n      0x04\n      dup1\n      calldatasize\n      sub\n      dup2\n      add\n      swap1\n      tag_21\n      swap2\n      swap1\n      tag_22\n      jump\t// in\n    tag_21:\n      tag_23\n      jump\t// in\n    tag_20:\n      mload(0x40)\n      tag_24\n      swap2\n      swap1\n      tag_25\n      jump\t// in\n    tag_24:\n      mload(0x40)\n      dup1\n      swap2\n      sub\n      swap1\n      return\n        /* \"openzeppelin/contract/token/ERC721/ERC721.sol\":2723:2822  function name() public view virtual override returns (bytes memory) {\r... */\n    tag_4:\n      tag_26\n      tag_27\n      jump\t// in\n    tag_26:\n      mload(0x40)\n      tag_28\n      swap2\n      swap1\n      tag_29\n      jump\t// in\n    tag_28:\n      mload(0x40)\n      dup1\n      swap2\n      sub\n      swap1\n      return\n        /* \"openzeppelin/contract/token/ERC721/ERC721.sol\":4998:5169  function getApproved(uint256 tokenId) public view virtual override returns (address) {\r... */\n    tag_5:\n      tag_30\n      0x04\n      dup1\n      calldatasize\n      sub\n      dup2\n      add\n      swap1\n      tag_31\n      swap2\n      swap1\n      tag_32\n      jump\t// in\n    tag_31:\n      tag_33\n      jump\t// in\n    tag_30:\n      mload(0x40)\n      tag_34\n      swap2\n      swap1\n      tag_35\n      jump\t// in\n    tag_34:\n      mload(0x40)\n      dup1\n      swap2\n      sub\n      swap1\n      return\n        /* \"openzeppelin/contract/token/ERC721/ERC721.sol\":4516:4932  function approve(address to, uint256 tokenId) public virtual override {\r... */\n    tag_6:\n      tag_36\n      0x04\n      dup1\n      calldatasize\n      sub\n      dup2\n      add\n      swap1\n      tag_37\n      swap2\n      swap1\n      tag_38\n      jump\t// in\n    tag_37:\n      tag_39\n      jump\t// in\n    tag_36:\n      stop\n        /* \"openzeppelin/contract/token/ERC721/ERC721.sol\":5698:5999  function transferFrom(address from, address to, uint256 tokenId) public virtual override {\r... */\n    tag_7:\n      tag_40\n      0x04\n      dup1\n      calldatasize\n      sub\n      dup2\n      add\n      swap1\n      tag_41\n      swap2\n      swap1\n      tag_42\n      jump\t// in\n    tag_41:\n      tag_43\n      jump\t// in\n    tag_40:\n      stop\n        /* \"openzeppelin/contract/token/ERC721/ERC721.sol\":6070:6221  function safeTransferFrom(address from, address to, uint256 tokenId) public virtual override {\r... */\n    tag_8:\n      tag_44\n      0x04\n      dup1\n      calldatasize\n      sub\n      dup2\n      add\n      swap1\n      tag_45\n      swap2\n      swap1\n      tag_42\n      jump\t// in\n    tag_45:\n      tag_46\n      jump\t// in\n    tag_44:\n      stop\n        /* \"openzeppelin/contract/token/ERC721/ERC721.sol\":2433:2656  function ownerOf(uint256 tokenId) public view virtual override returns (address) {\r... */\n    tag_9:\n      tag_47\n      0x04\n      dup1\n      calldatasize\n      sub\n      dup2\n      add\n      swap1\n      tag_48\n      swap2\n      swap1\n      tag_32\n      jump\t// in\n    tag_48:\n      tag_49\n      jump\t// in\n    tag_47:\n      mload(0x40)\n      tag_50\n      swap2\n      swap1\n      tag_35\n      jump\t// in\n    tag_50:\n      mload(0x40)\n      dup1\n      swap2\n      sub\n      swap1\n      return\n        /* \"openzeppelin/contract/token/ERC721/ERC721.sol\":2164:2371  function balanceOf(address owner) public view virtual override returns (uint256) {\r... */\n    tag_10:\n      tag_51\n      0x04\n      dup1\n      calldatasize\n      sub\n      dup2\n      add\n      swap1\n      tag_52\n      swap2\n      swap1\n      tag_53\n      jump\t// in\n    tag_52:\n      tag_54\n      jump\t// in\n    tag_51:\n      mload(0x40)\n      tag_55\n      swap2\n      swap1\n      tag_56\n      jump\t// in\n    tag_55:\n      mload(0x40)\n      dup1\n      swap2\n      sub\n      swap1\n      return\n        /* \"openzeppelin/contract/token/ERC721/ERC721.sol\":2891:2994  function symbol() public view virtual override returns (bytes memory) {\r... */\n    tag_11:\n      tag_57\n      tag_58\n      jump\t// in\n    tag_57:\n      mload(0x40)\n      tag_59\n      swap2\n      swap1\n      tag_29\n      jump\t// in\n    tag_59:\n      mload(0x40)\n      dup1\n      swap2\n      sub\n      swap1\n      return\n        /* \"openzeppelin/contract/token/ERC721/ERC721.sol\":5241:5396  function setApprovalForAll(address operator, bool approved) public virtual override {\r... */\n    tag_12:\n      tag_60\n      0x04\n      dup1\n      calldatasize\n      sub\n      dup2\n      add\n      swap1\n      tag_61\n      swap2\n      swap1\n      tag_62\n      jump\t// in\n    tag_61:\n      tag_63\n      jump\t// in\n    tag_60:\n      stop\n        /* \"openzeppelin/contract/token/ERC721/ERC721.sol\":6292:6571  function safeTransferFrom(address from, address to, uint256 tokenId, bytes memory data) public virtual override {\r... */\n    tag_13:\n      tag_64\n      0x04\n      dup1\n      calldatasize\n      sub\n      dup2\n      add\n      swap1\n      tag_65\n      swap2\n      swap1\n      tag_66\n      jump\t// in\n    tag_65:\n      tag_67\n      jump\t// in\n    tag_64:\n      stop\n        /* \"openzeppelin/contract/token/ERC721/ERC721.sol\":3422:4112  function uintToBytesNoPadding(uint256 value) public pure returns (bytes memory) {\r... */\n    tag_14:\n      tag_68\n      0x04\n      dup1\n      calldatasize\n      sub\n      dup2\n      add\n      swap1\n      tag_69\n      swap2\n      swap1\n      tag_32\n      jump\t// in\n    tag_69:\n      tag_70\n      jump\t// in\n    tag_68:\n      mload(0x40)\n      tag_71\n      swap2\n      swap1\n      tag_29\n      jump\t// in\n    tag_71:\n      mload(0x40)\n      dup1\n      swap2\n      sub\n      swap1\n      return\n        /* \"openzeppelin/contract/token/ERC721/ERC721.sol\":3065:3414  function tokenURI(uint256 tokenId) public view virtual override returns (bytes memory) {\r... */\n    tag_15:\n      tag_72\n      0x04\n      dup1\n      calldatasize\n      sub\n      dup2\n      add\n      swap1\n      tag_73\n      swap2\n      swap1\n      tag_32\n      jump\t// in\n    tag_73:\n      tag_74\n      jump\t// in\n    tag_72:\n      mload(0x40)\n      tag_75\n      swap2\n      swap1\n      tag_29\n      jump\t// in\n    tag_75:\n      mload(0x40)\n      dup1\n      swap2\n      sub\n      swap1\n      return\n        /* \"openzeppelin/contract/token/ERC721/ERC721.sol\":5467:5631  function isApprovedForAll(address owner, address operator) public view virtual override returns (bool) {\r... */\n    tag_16:\n      tag_76\n      0x04\n      dup1\n      calldatasize\n      sub\n      dup2\n      add\n      swap1\n      tag_77\n      swap2\n      swap1\n      tag_78\n      jump\t// in\n    tag_77:\n      tag_79\n      jump\t// in\n    tag_76:\n      mload(0x40)\n      tag_80\n      swap2\n      swap1\n      tag_25\n      jump\t// in\n    tag_80:\n      mload(0x40)\n      dup1\n      swap2\n      sub\n      swap1\n      return\n        /* \"openzeppelin/contract/token/ERC721/ERC721.sol\":1795:2100  function supportsInterface(bytes4 interfaceId) public view virtual override(ERC165, IERC165) returns (bool) {\r... */\n    tag_23:\n        /* \"openzeppelin/contract/token/ERC721/ERC721.sol\":1897:1901  bool */\n      0x00\n        /* \"openzeppelin/contract/token/ERC721/ERC721.sol\":1949:1974  type(IERC721).interfaceId */\n      0x80ac58cd00000000000000000000000000000000000000000000000000000000\n        /* \"openzeppelin/contract/token/ERC721/ERC721.sol\":1934:1974  interfaceId == type(IERC721).interfaceId */\n      not(0xffffffffffffffffffffffffffffffffffffffffffffffffffffffff)\n      and\n        /* \"openzeppelin/contract/token/ERC721/ERC721.sol\":1934:1945  interfaceId */\n      dup3\n        /* \"openzeppelin/contract/token/ERC721/ERC721.sol\":1934:1974  interfaceId == type(IERC721).interfaceId */\n      not(0xffffffffffffffffffffffffffffffffffffffffffffffffffffffff)\n      and\n      eq\n        /* \"openzeppelin/contract/token/ERC721/ERC721.sol\":1934:2039  interfaceId == type(IERC721).interfaceId ||\r... */\n      dup1\n      tag_82\n      jumpi\n      pop\n        /* \"openzeppelin/contract/token/ERC721/ERC721.sol\":2006:2039  type(IERC721Metadata).interfaceId */\n      0x5b5e139f00000000000000000000000000000000000000000000000000000000\n        /* \"openzeppelin/contract/token/ERC721/ERC721.sol\":1991:2039  interfaceId == type(IERC721Metadata).interfaceId */\n      not(0xffffffffffffffffffffffffffffffffffffffffffffffffffffffff)\n      and\n        /* \"openzeppelin/contract/token/ERC721/ERC721.sol\":1991:2002  interfaceId */\n      dup3\n        /* \"openzeppelin/contract/token/ERC721/ERC721.sol\":1991:2039  interfaceId == type(IERC721Metadata).interfaceId */\n      not(0xffffffffffffffffffffffffffffffffffffffffffffffffffffffff)\n      and\n      eq\n        /* \"openzeppelin/contract/token/ERC721/ERC721.sol\":1934:2039  interfaceId == type(IERC721).interfaceId ||\r... */\n    tag_82:\n        /* \"openzeppelin/contract/token/ERC721/ERC721.sol\":1934:2092  interfaceId == type(IERC721).interfaceId ||\r... */\n      dup1\n      tag_83\n      jumpi\n      pop\n        /* \"openzeppelin/contract/token/ERC721/ERC721.sol\":2056:2092  super.supportsInterface(interfaceId) */\n      tag_84\n        /* \"openzeppelin/contract/token/ERC721/ERC721.sol\":2080:2091  interfaceId */\n      dup3\n        /* \"openzeppelin/contract/token/ERC721/ERC721.sol\":2056:2079  super.supportsInterface */\n      tag_85\n        /* \"openzeppelin/contract/token/ERC721/ERC721.sol\":2056:2092  super.supportsInterface(interfaceId) */\n      jump\t// in\n    tag_84:\n        /* \"openzeppelin/contract/token/ERC721/ERC721.sol\":1934:2092  interfaceId == type(IERC721).interfaceId ||\r... */\n    tag_83:\n        /* \"openzeppelin/contract/token/ERC721/ERC721.sol\":1914:2092  return\r... */\n      swap1\n      pop\n        /* \"openzeppelin/contract/token/ERC721/ERC721.sol\":1795:2100  function supportsInterface(bytes4 interfaceId) public view virtual override(ERC165, IERC165) returns (bool) {\r... */\n      swap2\n      swap1\n      pop\n      jump\t// out\n        /* \"openzeppelin/contract/token/ERC721/ERC721.sol\":2723:2822  function name() public view virtual override returns (bytes memory) {\r... */\n    tag_27:\n        /* \"openzeppelin/contract/token/ERC721/ERC721.sol\":2777:2789  bytes memory */\n      0x60\n        /* \"openzeppelin/contract/token/ERC721/ERC721.sol\":2809:2814  _name */\n      0x00\n        /* \"openzeppelin/contract/token/ERC721/ERC721.sol\":2802:2814  return _name */\n      dup1\n      sload\n      tag_87\n      swap1\n      tag_88\n      jump\t// in\n    tag_87:\n      dup1\n      0x1f\n      add\n      0x20\n      dup1\n      swap2\n      div\n      mul\n      0x20\n      add\n      mload(0x40)\n      swap1\n      dup2\n      add\n      0x40\n      mstore\n      dup1\n      swap3\n      swap2\n      swap1\n      dup2\n      dup2\n      mstore\n      0x20\n      add\n      dup3\n      dup1\n      sload\n      tag_89\n      swap1\n      tag_88\n      jump\t// in\n    tag_89:\n      dup1\n      iszero\n      tag_90\n      jumpi\n      dup1\n      0x1f\n      lt\n      tag_91\n      jumpi\n      0x0100\n      dup1\n      dup4\n      sload\n      div\n      mul\n      dup4\n      mstore\n      swap2\n      0x20\n      add\n      swap2\n      jump(tag_90)\n    tag_91:\n      dup3\n      add\n      swap2\n      swap1\n      0x00\n      mstore\n      keccak256(0x00, 0x20)\n      swap1\n    tag_92:\n      dup2\n      sload\n      dup2\n      mstore\n      swap1\n      0x01\n      add\n      swap1\n      0x20\n      add\n      dup1\n      dup4\n      gt\n      tag_92\n      jumpi\n      dup3\n      swap1\n      sub\n      0x1f\n      and\n      dup3\n      add\n      swap2\n    tag_90:\n      pop\n      pop\n      pop\n      pop\n      pop\n      swap1\n      pop\n        /* \"openzeppelin/contract/token/ERC721/ERC721.sol\":2723:2822  function name() public view virtual override returns (bytes memory) {\r... */\n      swap1\n      jump\t// out\n        /* \"openzeppelin/contract/token/ERC721/ERC721.sol\":4998:5169  function getApproved(uint256 tokenId) public view virtual override returns (address) {\r... */\n    tag_33:\n        /* \"openzeppelin/contract/token/ERC721/ERC721.sol\":5074:5081  address */\n      0x00\n        /* \"openzeppelin/contract/token/ERC721/ERC721.sol\":5094:5117  _requireMinted(tokenId) */\n      tag_94\n        /* \"openzeppelin/contract/token/ERC721/ERC721.sol\":5109:5116  tokenId */\n      dup3\n        /* \"openzeppelin/contract/token/ERC721/ERC721.sol\":5094:5108  _requireMinted */\n      tag_95\n        /* \"openzeppelin/contract/token/ERC721/ERC721.sol\":5094:5117  _requireMinted(tokenId) */\n      jump\t// in\n    tag_94:\n        /* \"openzeppelin/contract/token/ERC721/ERC721.sol\":5137:5152  _tokenApprovals */\n      0x04\n        /* \"openzeppelin/contract/token/ERC721/ERC721.sol\":5137:5161  _tokenApprovals[tokenId] */\n      0x00\n        /* \"openzeppelin/contract/token/ERC721/ERC721.sol\":5153:5160  tokenId */\n      dup4\n        /* \"openzeppelin/contract/token/ERC721/ERC721.sol\":5137:5161  _tokenApprovals[tokenId] */\n      dup2\n      mstore\n      0x20\n      add\n      swap1\n      dup2\n      mstore\n      0x20\n      add\n      0x00\n      keccak256\n      0x00\n      swap1\n      sload\n      swap1\n      0x0100\n      exp\n      swap1\n      div\n      0xffffffffffffffffffffffffffffffffffffffff\n      and\n        /* \"openzeppelin/contract/token/ERC721/ERC721.sol\":5130:5161  return _tokenApprovals[tokenId] */\n      swap1\n      pop\n        /* \"openzeppelin/contract/token/ERC721/ERC721.sol\":4998:5169  function getApproved(uint256 tokenId) public view virtual override returns (address) {\r... */\n      swap2\n      swap1\n      pop\n      jump\t// out\n        /* \"openzeppelin/contract/token/ERC721/ERC721.sol\":4516:4932  function approve(address to, uint256 tokenId) public virtual override {\r... */\n    tag_39:\n        /* \"openzeppelin/contract/token/ERC721/ERC721.sol\":4597:4610  address owner */\n      0x00\n        /* \"openzeppelin/contract/token/ERC721/ERC721.sol\":4613:4636  ERC721.ownerOf(tokenId) */\n      tag_97\n        /* \"openzeppelin/contract/token/ERC721/ERC721.sol\":4628:4635  tokenId */\n      dup3\n        /* \"openzeppelin/contract/token/ERC721/ERC721.sol\":4613:4627  ERC721.ownerOf */\n      tag_49\n        /* \"openzeppelin/contract/token/ERC721/ERC721.sol\":4613:4636  ERC721.ownerOf(tokenId) */\n      jump\t// in\n    tag_97:\n        /* \"openzeppelin/contract/token/ERC721/ERC721.sol\":4597:4636  address owner = ERC721.ownerOf(tokenId) */\n      swap1\n      pop\n        /* \"openzeppelin/contract/token/ERC721/ERC721.sol\":4661:4666  owner */\n      dup1\n        /* \"openzeppelin/contract/token/ERC721/ERC721.sol\":4655:4666  to != owner */\n      0xffffffffffffffffffffffffffffffffffffffff\n      and\n        /* \"openzeppelin/contract/token/ERC721/ERC721.sol\":4655:4657  to */\n      dup4\n        /* \"openzeppelin/contract/token/ERC721/ERC721.sol\":4655:4666  to != owner */\n      0xffffffffffffffffffffffffffffffffffffffff\n      and\n      eq\n      iszero\n        /* \"openzeppelin/contract/token/ERC721/ERC721.sol\":4647:4704  require(to != owner, \"ERC721: approval to current owner\") */\n      tag_98\n      jumpi\n      mload(0x40)\n      0x08c379a000000000000000000000000000000000000000000000000000000000\n      dup2\n      mstore\n      0x04\n      add\n      tag_99\n      swap1\n      tag_100\n      jump\t// in\n    tag_99:\n      mload(0x40)\n      dup1\n      swap2\n      sub\n      swap1\n      revert\n    tag_98:\n        /* \"openzeppelin/contract/token/ERC721/ERC721.sol\":4755:4760  owner */\n      dup1\n        /* \"openzeppelin/contract/token/ERC721/ERC721.sol\":4739:4760  _msgSender() == owner */\n      0xffffffffffffffffffffffffffffffffffffffff\n      and\n        /* \"openzeppelin/contract/token/ERC721/ERC721.sol\":4739:4751  _msgSender() */\n      tag_101\n        /* \"openzeppelin/contract/token/ERC721/ERC721.sol\":4739:4749  _msgSender */\n      tag_102\n        /* \"openzeppelin/contract/token/ERC721/ERC721.sol\":4739:4751  _msgSender() */\n      jump\t// in\n    tag_101:\n        /* \"openzeppelin/contract/token/ERC721/ERC721.sol\":4739:4760  _msgSender() == owner */\n      0xffffffffffffffffffffffffffffffffffffffff\n      and\n      eq\n        /* \"openzeppelin/contract/token/ERC721/ERC721.sol\":4739:4801  _msgSender() == owner || isApprovedForAll(owner, _msgSender()) */\n      dup1\n      tag_103\n      jumpi\n      pop\n        /* \"openzeppelin/contract/token/ERC721/ERC721.sol\":4764:4801  isApprovedForAll(owner, _msgSender()) */\n      tag_104\n        /* \"openzeppelin/contract/token/ERC721/ERC721.sol\":4781:4786  owner */\n      dup2\n        /* \"openzeppelin/contract/token/ERC721/ERC721.sol\":4788:4800  _msgSender() */\n      tag_105\n        /* \"openzeppelin/contract/token/ERC721/ERC721.sol\":4788:4798  _msgSender */\n      tag_102\n        /* \"openzeppelin/contract/token/ERC721/ERC721.sol\":4788:4800  _msgSender() */\n      jump\t// in\n    tag_105:\n        /* \"openzeppelin/contract/token/ERC721/ERC721.sol\":4764:4780  isApprovedForAll */\n      tag_79\n        /* \"openzeppelin/contract/token/ERC721/ERC721.sol\":4764:4801  isApprovedForAll(owner, _msgSender()) */\n      jump\t// in\n    tag_104:\n        /* \"openzeppelin/contract/token/ERC721/ERC721.sol\":4739:4801  _msgSender() == owner || isApprovedForAll(owner, _msgSender()) */\n    tag_103:\n        /* \"openzeppelin/contract/token/ERC721/ERC721.sol\":4717:4890  require(\r... */\n      tag_106\n      jumpi\n      mload(0x40)\n      0x08c379a000000000000000000000000000000000000000000000000000000000\n      dup2\n      mstore\n      0x04\n      add\n      tag_107\n      swap1\n      tag_108\n      jump\t// in\n    tag_107:\n      mload(0x40)\n      dup1\n      swap2\n      sub\n      swap1\n      revert\n    tag_106:\n        /* \"openzeppelin/contract/token/ERC721/ERC721.sol\":4903:4924  _approve(to, tokenId) */\n      tag_109\n        /* \"openzeppelin/contract/token/ERC721/ERC721.sol\":4912:4914  to */\n      dup4\n        /* \"openzeppelin/contract/token/ERC721/ERC721.sol\":4916:4923  tokenId */\n      dup4\n        /* \"openzeppelin/contract/token/ERC721/ERC721.sol\":4903:4911  _approve */\n      tag_110\n        /* \"openzeppelin/contract/token/ERC721/ERC721.sol\":4903:4924  _approve(to, tokenId) */\n      jump\t// in\n    tag_109:\n        /* \"openzeppelin/contract/token/ERC721/ERC721.sol\":4516:4932  function approve(address to, uint256 tokenId) public virtual override {\r... */\n      pop\n      pop\n      pop\n      jump\t// out\n        /* \"openzeppelin/contract/token/ERC721/ERC721.sol\":5698:5999  function transferFrom(address from, address to, uint256 tokenId) public virtual override {\r... */\n    tag_43:\n        /* \"openzeppelin/contract/token/ERC721/ERC721.sol\":5859:5900  _isApprovedOrOwner(_msgSender(), tokenId) */\n      tag_112\n        /* \"openzeppelin/contract/token/ERC721/ERC721.sol\":5878:5890  _msgSender() */\n      tag_113\n        /* \"openzeppelin/contract/token/ERC721/ERC721.sol\":5878:5888  _msgSender */\n      tag_102\n        /* \"openzeppelin/contract/token/ERC721/ERC721.sol\":5878:5890  _msgSender() */\n      jump\t// in\n    tag_113:\n        /* \"openzeppelin/contract/token/ERC721/ERC721.sol\":5892:5899  tokenId */\n      dup3\n        /* \"openzeppelin/contract/token/ERC721/ERC721.sol\":5859:5877  _isApprovedOrOwner */\n      tag_114\n        /* \"openzeppelin/contract/token/ERC721/ERC721.sol\":5859:5900  _isApprovedOrOwner(_msgSender(), tokenId) */\n      jump\t// in\n    tag_112:\n        /* \"openzeppelin/contract/token/ERC721/ERC721.sol\":5851:5950  require(_isApprovedOrOwner(_msgSender(), tokenId), \"ERC721: caller is not token owner or approved\") */\n      tag_115\n      jumpi\n      mload(0x40)\n      0x08c379a000000000000000000000000000000000000000000000000000000000\n      dup2\n      mstore\n      0x04\n      add\n      tag_116\n      swap1\n      tag_117\n      jump\t// in\n    tag_116:\n      mload(0x40)\n      dup1\n      swap2\n      sub\n      swap1\n      revert\n    tag_115:\n        /* \"openzeppelin/contract/token/ERC721/ERC721.sol\":5963:5991  _transfer(from, to, tokenId) */\n      tag_118\n        /* \"openzeppelin/contract/token/ERC721/ERC721.sol\":5973:5977  from */\n      dup4\n        /* \"openzeppelin/contract/token/ERC721/ERC721.sol\":5979:5981  to */\n      dup4\n        /* \"openzeppelin/contract/token/ERC721/ERC721.sol\":5983:5990  tokenId */\n      dup4\n        /* \"openzeppelin/contract/token/ERC721/ERC721.sol\":5963:5972  _transfer */\n      tag_119\n        /* \"openzeppelin/contract/token/ERC721/ERC721.sol\":5963:5991  _transfer(from, to, tokenId) */\n      jump\t// in\n    tag_118:\n        /* \"openzeppelin/contract/token/ERC721/ERC721.sol\":5698:5999  function transferFrom(address from, address to, uint256 tokenId) public virtual override {\r... */\n      pop\n      pop\n      pop\n      jump\t// out\n        /* \"openzeppelin/contract/token/ERC721/ERC721.sol\":6070:6221  function safeTransferFrom(address from, address to, uint256 tokenId) public virtual override {\r... */\n    tag_46:\n        /* \"openzeppelin/contract/token/ERC721/ERC721.sol\":6174:6213  safeTransferFrom(from, to, tokenId, \"\") */\n      tag_121\n        /* \"openzeppelin/contract/token/ERC721/ERC721.sol\":6191:6195  from */\n      dup4\n        /* \"openzeppelin/contract/token/ERC721/ERC721.sol\":6197:6199  to */\n      dup4\n        /* \"openzeppelin/contract/token/ERC721/ERC721.sol\":6201:6208  tokenId */\n      dup4\n        /* \"openzeppelin/contract/token/ERC721/ERC721.sol\":6174:6213  safeTransferFrom(from, to, tokenId, \"\") */\n      mload(0x40)\n      dup1\n      0x20\n      add\n      0x40\n      mstore\n      dup1\n      0x00\n      dup2\n      mstore\n      pop\n        /* \"openzeppelin/contract/token/ERC721/ERC721.sol\":6174:6190  safeTransferFrom */\n      tag_67\n        /* \"openzeppelin/contract/token/ERC721/ERC721.sol\":6174:6213  safeTransferFrom(from, to, tokenId, \"\") */\n      jump\t// in\n    tag_121:\n        /* \"openzeppelin/contract/token/ERC721/ERC721.sol\":6070:6221  function safeTransferFrom(address from, address to, uint256 tokenId) public virtual override {\r... */\n      pop\n      pop\n      pop\n      jump\t// out\n        /* \"openzeppelin/contract/token/ERC721/ERC721.sol\":2433:2656  function ownerOf(uint256 tokenId) public view virtual override returns (address) {\r... */\n    tag_49:\n        /* \"openzeppelin/contract/token/ERC721/ERC721.sol\":2505:2512  address */\n      0x00\n        /* \"openzeppelin/contract/token/ERC721/ERC721.sol\":2525:2538  address owner */\n      dup1\n        /* \"openzeppelin/contract/token/ERC721/ERC721.sol\":2541:2558  _ownerOf(tokenId) */\n      tag_123\n        /* \"openzeppelin/contract/token/ERC721/ERC721.sol\":2550:2557  tokenId */\n      dup4\n        /* \"openzeppelin/contract/token/ERC721/ERC721.sol\":2541:2549  _ownerOf */\n      tag_124\n        /* \"openzeppelin/contract/token/ERC721/ERC721.sol\":2541:2558  _ownerOf(tokenId) */\n      jump\t// in\n    tag_123:\n        /* \"openzeppelin/contract/token/ERC721/ERC721.sol\":2525:2558  address owner = _ownerOf(tokenId) */\n      swap1\n      pop\n        /* \"openzeppelin/contract/token/ERC721/ERC721.sol\":2594:2595  0 */\n      0x00\n        /* \"openzeppelin/contract/token/ERC721/ERC721.sol\":2577:2596  owner != address(0) */\n      0xffffffffffffffffffffffffffffffffffffffff\n      and\n        /* \"openzeppelin/contract/token/ERC721/ERC721.sol\":2577:2582  owner */\n      dup2\n        /* \"openzeppelin/contract/token/ERC721/ERC721.sol\":2577:2596  owner != address(0) */\n      0xffffffffffffffffffffffffffffffffffffffff\n      and\n      eq\n      iszero\n        /* \"openzeppelin/contract/token/ERC721/ERC721.sol\":2569:2625  require(owner != address(0), \"ERC721: invalid token ID\") */\n      tag_125\n      jumpi\n      mload(0x40)\n      0x08c379a000000000000000000000000000000000000000000000000000000000\n      dup2\n      mstore\n      0x04\n      add\n      tag_126\n      swap1\n      tag_127\n      jump\t// in\n    tag_126:\n      mload(0x40)\n      dup1\n      swap2\n      sub\n      swap1\n      revert\n    tag_125:\n        /* \"openzeppelin/contract/token/ERC721/ERC721.sol\":2643:2648  owner */\n      dup1\n        /* \"openzeppelin/contract/token/ERC721/ERC721.sol\":2636:2648  return owner */\n      swap2\n      pop\n      pop\n        /* \"openzeppelin/contract/token/ERC721/ERC721.sol\":2433:2656  function ownerOf(uint256 tokenId) public view virtual override returns (address) {\r... */\n      swap2\n      swap1\n      pop\n      jump\t// out\n        /* \"openzeppelin/contract/token/ERC721/ERC721.sol\":2164:2371  function balanceOf(address owner) public view virtual override returns (uint256) {\r... */\n    tag_54:\n        /* \"openzeppelin/contract/token/ERC721/ERC721.sol\":2236:2243  uint256 */\n      0x00\n        /* \"openzeppelin/contract/token/ERC721/ERC721.sol\":2281:2282  0 */\n      dup1\n        /* \"openzeppelin/contract/token/ERC721/ERC721.sol\":2264:2283  owner != address(0) */\n      0xffffffffffffffffffffffffffffffffffffffff\n      and\n        /* \"openzeppelin/contract/token/ERC721/ERC721.sol\":2264:2269  owner */\n      dup3\n        /* \"openzeppelin/contract/token/ERC721/ERC721.sol\":2264:2283  owner != address(0) */\n      0xffffffffffffffffffffffffffffffffffffffff\n      and\n      eq\n      iszero\n        /* \"openzeppelin/contract/token/ERC721/ERC721.sol\":2256:2329  require(owner != address(0), \"ERC721: address zero is not a valid owner\") */\n      tag_129\n      jumpi\n      mload(0x40)\n      0x08c379a000000000000000000000000000000000000000000000000000000000\n      dup2\n      mstore\n      0x04\n      add\n      tag_130\n      swap1\n      tag_131\n      jump\t// in\n    tag_130:\n      mload(0x40)\n      dup1\n      swap2\n      sub\n      swap1\n      revert\n    tag_129:\n        /* \"openzeppelin/contract/token/ERC721/ERC721.sol\":2347:2356  _balances */\n      0x03\n        /* \"openzeppelin/contract/token/ERC721/ERC721.sol\":2347:2363  _balances[owner] */\n      0x00\n        /* \"openzeppelin/contract/token/ERC721/ERC721.sol\":2357:2362  owner */\n      dup4\n        /* \"openzeppelin/contract/token/ERC721/ERC721.sol\":2347:2363  _balances[owner] */\n      0xffffffffffffffffffffffffffffffffffffffff\n      and\n      0xffffffffffffffffffffffffffffffffffffffff\n      and\n      dup2\n      mstore\n      0x20\n      add\n      swap1\n      dup2\n      mstore\n      0x20\n      add\n      0x00\n      keccak256\n      sload\n        /* \"openzeppelin/contract/token/ERC721/ERC721.sol\":2340:2363  return _balances[owner] */\n      swap1\n      pop\n        /* \"openzeppelin/contract/token/ERC721/ERC721.sol\":2164:2371  function balanceOf(address owner) public view virtual override returns (uint256) {\r... */\n      swap2\n      swap1\n      pop\n      jump\t// out\n        /* \"openzeppelin/contract/token/ERC721/ERC721.sol\":2891:2994  function symbol() public view virtual override returns (bytes memory) {\r... */\n    tag_58:\n        /* \"openzeppelin/contract/token/ERC721/ERC721.sol\":2947:2959  bytes memory */\n      0x60\n        /* \"openzeppelin/contract/token/ERC721/ERC721.sol\":2979:2986  _symbol */\n      0x01\n        /* \"openzeppelin/contract/token/ERC721/ERC721.sol\":2972:2986  return _symbol */\n      dup1\n      sload\n      tag_133\n      swap1\n      tag_88\n      jump\t// in\n    tag_133:\n      dup1\n      0x1f\n      add\n      0x20\n      dup1\n      swap2\n      div\n      mul\n      0x20\n      add\n      mload(0x40)\n      swap1\n      dup2\n      add\n      0x40\n      mstore\n      dup1\n      swap3\n      swap2\n      swap1\n      dup2\n      dup2\n      mstore\n      0x20\n      add\n      dup3\n      dup1\n      sload\n      tag_134\n      swap1\n      tag_88\n      jump\t// in\n    tag_134:\n      dup1\n      iszero\n      tag_135\n      jumpi\n      dup1\n      0x1f\n      lt\n      tag_136\n      jumpi\n      0x0100\n      dup1\n      dup4\n      sload\n      div\n      mul\n      dup4\n      mstore\n      swap2\n      0x20\n      add\n      swap2\n      jump(tag_135)\n    tag_136:\n      dup3\n      add\n      swap2\n      swap1\n      0x00\n      mstore\n      keccak256(0x00, 0x20)\n      swap1\n    tag_137:\n      dup2\n      sload\n      dup2\n      mstore\n      swap1\n      0x01\n      add\n      swap1\n      0x20\n      add\n      dup1\n      dup4\n      gt\n      tag_137\n      jumpi\n      dup3\n      swap1\n      sub\n      0x1f\n      and\n      dup3\n      add\n      swap2\n    tag_135:\n      pop\n      pop\n      pop\n      pop\n      pop\n      swap1\n      pop\n        /* \"openzeppelin/contract/token/ERC721/ERC721.sol\":2891:2994  function symbol() public view virtual override returns (bytes memory) {\r... */\n      swap1\n      jump\t// out\n        /* \"openzeppelin/contract/token/ERC721/ERC721.sol\":5241:5396  function setApprovalForAll(address operator, bool approved) public virtual override {\r... */\n    tag_63:\n        /* \"openzeppelin/contract/token/ERC721/ERC721.sol\":5336:5388  _setApprovalForAll(_msgSender(), operator, approved) */\n      tag_139\n        /* \"openzeppelin/contract/token/ERC721/ERC721.sol\":5355:5367  _msgSender() */\n      tag_140\n        /* \"openzeppelin/contract/token/ERC721/ERC721.sol\":5355:5365  _msgSender */\n      tag_102\n        /* \"openzeppelin/contract/token/ERC721/ERC721.sol\":5355:5367  _msgSender() */\n      jump\t// in\n    tag_140:\n        /* \"openzeppelin/contract/token/ERC721/ERC721.sol\":5369:5377  operator */\n      dup4\n        /* \"openzeppelin/contract/token/ERC721/ERC721.sol\":5379:5387  approved */\n      dup4\n        /* \"openzeppelin/contract/token/ERC721/ERC721.sol\":5336:5354  _setApprovalForAll */\n      tag_141\n        /* \"openzeppelin/contract/token/ERC721/ERC721.sol\":5336:5388  _setApprovalForAll(_msgSender(), operator, approved) */\n      jump\t// in\n    tag_139:\n        /* \"openzeppelin/contract/token/ERC721/ERC721.sol\":5241:5396  function setApprovalForAll(address operator, bool approved) public virtual override {\r... */\n      pop\n      pop\n      jump\t// out\n        /* \"openzeppelin/contract/token/ERC721/ERC721.sol\":6292:6571  function safeTransferFrom(address from, address to, uint256 tokenId, bytes memory data) public virtual override {\r... */\n    tag_67:\n        /* \"openzeppelin/contract/token/ERC721/ERC721.sol\":6423:6464  _isApprovedOrOwner(_msgSender(), tokenId) */\n      tag_143\n        /* \"openzeppelin/contract/token/ERC721/ERC721.sol\":6442:6454  _msgSender() */\n      tag_144\n        /* \"openzeppelin/contract/token/ERC721/ERC721.sol\":6442:6452  _msgSender */\n      tag_102\n        /* \"openzeppelin/contract/token/ERC721/ERC721.sol\":6442:6454  _msgSender() */\n      jump\t// in\n    tag_144:\n        /* \"openzeppelin/contract/token/ERC721/ERC721.sol\":6456:6463  tokenId */\n      dup4\n        /* \"openzeppelin/contract/token/ERC721/ERC721.sol\":6423:6441  _isApprovedOrOwner */\n      tag_114\n        /* \"openzeppelin/contract/token/ERC721/ERC721.sol\":6423:6464  _isApprovedOrOwner(_msgSender(), tokenId) */\n      jump\t// in\n    tag_143:\n        /* \"openzeppelin/contract/token/ERC721/ERC721.sol\":6415:6514  require(_isApprovedOrOwner(_msgSender(), tokenId), \"ERC721: caller is not token owner or approved\") */\n      tag_145\n      jumpi\n      mload(0x40)\n      0x08c379a000000000000000000000000000000000000000000000000000000000\n      dup2\n      mstore\n      0x04\n      add\n      tag_146\n      swap1\n      tag_117\n      jump\t// in\n    tag_146:\n      mload(0x40)\n      dup1\n      swap2\n      sub\n      swap1\n      revert\n    tag_145:\n        /* \"openzeppelin/contract/token/ERC721/ERC721.sol\":6525:6563  _safeTransfer(from, to, tokenId, data) */\n      tag_147\n        /* \"openzeppelin/contract/token/ERC721/ERC721.sol\":6539:6543  from */\n      dup5\n        /* \"openzeppelin/contract/token/ERC721/ERC721.sol\":6545:6547  to */\n      dup5\n        /* \"openzeppelin/contract/token/ERC721/ERC721.sol\":6549:6556  tokenId */\n      dup5\n        /* \"openzeppelin/contract/token/ERC721/ERC721.sol\":6558:6562  data */\n      dup5\n        /* \"openzeppelin/contract/token/ERC721/ERC721.sol\":6525:6538  _safeTransfer */\n      tag_148\n        /* \"openzeppelin/contract/token/ERC721/ERC721.sol\":6525:6563  _safeTransfer(from, to, tokenId, data) */\n      jump\t// in\n    tag_147:\n        /* \"openzeppelin/contract/token/ERC721/ERC721.sol\":6292:6571  function safeTransferFrom(address from, address to, uint256 tokenId, bytes memory data) public virtual override {\r... */\n      pop\n      pop\n      pop\n      pop\n      jump\t// out\n        /* \"openzeppelin/contract/token/ERC721/ERC721.sol\":3422:4112  function uintToBytesNoPadding(uint256 value) public pure returns (bytes memory) {\r... */\n    tag_70:\n        /* \"openzeppelin/contract/token/ERC721/ERC721.sol\":3488:3500  bytes memory */\n      0x60\n        /* \"openzeppelin/contract/token/ERC721/ERC721.sol\":3526:3527  0 */\n      0x00\n        /* \"openzeppelin/contract/token/ERC721/ERC721.sol\":3517:3522  value */\n      dup3\n        /* \"openzeppelin/contract/token/ERC721/ERC721.sol\":3517:3527  value == 0 */\n      eq\n        /* \"openzeppelin/contract/token/ERC721/ERC721.sol\":3513:3575  if (value == 0) {\r... */\n      iszero\n      tag_150\n      jumpi\n        /* \"openzeppelin/contract/token/ERC721/ERC721.sol\":3561:3562  0 */\n      0x00\n        /* \"openzeppelin/contract/token/ERC721/ERC721.sol\":3551:3563  new bytes(0) */\n      0xffffffffffffffff\n      dup2\n      gt\n      iszero\n      tag_151\n      jumpi\n      mstore(0x00, 0x4e487b7100000000000000000000000000000000000000000000000000000000)\n      mstore(0x04, 0x41)\n      revert(0x00, 0x24)\n    tag_151:\n      mload(0x40)\n      swap1\n      dup1\n      dup3\n      mstore\n      dup1\n      0x1f\n      add\n      not(0x1f)\n      and\n      0x20\n      add\n      dup3\n      add\n      0x40\n      mstore\n      dup1\n      iszero\n      tag_152\n      jumpi\n      dup2\n      0x20\n      add\n      0x01\n      dup3\n      mul\n      dup1\n      calldatasize\n      dup4\n      calldatacopy\n      dup1\n      dup3\n      add\n      swap2\n      pop\n      pop\n      swap1\n      pop\n    tag_152:\n      pop\n        /* \"openzeppelin/contract/token/ERC721/ERC721.sol\":3544:3563  return new bytes(0) */\n      swap1\n      pop\n      jump(tag_149)\n        /* \"openzeppelin/contract/token/ERC721/ERC721.sol\":3513:3575  if (value == 0) {\r... */\n    tag_150:\n        /* \"openzeppelin/contract/token/ERC721/ERC721.sol\":3632:3644  uint256 temp */\n      0x00\n        /* \"openzeppelin/contract/token/ERC721/ERC721.sol\":3647:3652  value */\n      dup3\n        /* \"openzeppelin/contract/token/ERC721/ERC721.sol\":3632:3652  uint256 temp = value */\n      swap1\n      pop\n        /* \"openzeppelin/contract/token/ERC721/ERC721.sol\":3663:3677  uint256 length */\n      0x00\n        /* \"openzeppelin/contract/token/ERC721/ERC721.sol\":3702:3780  while (temp != 0) {\r... */\n    tag_153:\n        /* \"openzeppelin/contract/token/ERC721/ERC721.sol\":3717:3718  0 */\n      0x00\n        /* \"openzeppelin/contract/token/ERC721/ERC721.sol\":3709:3713  temp */\n      dup3\n        /* \"openzeppelin/contract/token/ERC721/ERC721.sol\":3709:3718  temp != 0 */\n      eq\n        /* \"openzeppelin/contract/token/ERC721/ERC721.sol\":3702:3780  while (temp != 0) {\r... */\n      tag_154\n      jumpi\n        /* \"openzeppelin/contract/token/ERC721/ERC721.sol\":3735:3743  length++ */\n      dup1\n      dup1\n      tag_155\n      swap1\n      tag_156\n      jump\t// in\n    tag_155:\n      swap2\n      pop\n      pop\n        /* \"openzeppelin/contract/token/ERC721/ERC721.sol\":3767:3768  8 */\n      0x08\n        /* \"openzeppelin/contract/token/ERC721/ERC721.sol\":3758:3768  temp >>= 8 */\n      dup3\n      swap1\n      shr\n      swap2\n      pop\n        /* \"openzeppelin/contract/token/ERC721/ERC721.sol\":3702:3780  while (temp != 0) {\r... */\n      jump(tag_153)\n    tag_154:\n        /* \"openzeppelin/contract/token/ERC721/ERC721.sol\":3832:3851  bytes memory result */\n      0x00\n        /* \"openzeppelin/contract/token/ERC721/ERC721.sol\":3864:3870  length */\n      dup2\n        /* \"openzeppelin/contract/token/ERC721/ERC721.sol\":3854:3871  new bytes(length) */\n      0xffffffffffffffff\n      dup2\n      gt\n      iszero\n      tag_157\n      jumpi\n      mstore(0x00, 0x4e487b7100000000000000000000000000000000000000000000000000000000)\n      mstore(0x04, 0x41)\n      revert(0x00, 0x24)\n    tag_157:\n      mload(0x40)\n      swap1\n      dup1\n      dup3\n      mstore\n      dup1\n      0x1f\n      add\n      not(0x1f)\n      and\n      0x20\n      add\n      dup3\n      add\n      0x40\n      mstore\n      dup1\n      iszero\n      tag_158\n      jumpi\n      dup2\n      0x20\n      add\n      0x01\n      dup3\n      mul\n      dup1\n      calldatasize\n      dup4\n      calldatacopy\n      dup1\n      dup3\n      add\n      swap2\n      pop\n      pop\n      swap1\n      pop\n    tag_158:\n      pop\n        /* \"openzeppelin/contract/token/ERC721/ERC721.sol\":3832:3871  bytes memory result = new bytes(length) */\n      swap1\n      pop\n        /* \"openzeppelin/contract/token/ERC721/ERC721.sol\":3924:3929  value */\n      dup5\n        /* \"openzeppelin/contract/token/ERC721/ERC721.sol\":3917:3929  temp = value */\n      swap3\n      pop\n        /* \"openzeppelin/contract/token/ERC721/ERC721.sol\":3945:3954  uint256 i */\n      0x00\n        /* \"openzeppelin/contract/token/ERC721/ERC721.sol\":3957:3963  length */\n      dup3\n        /* \"openzeppelin/contract/token/ERC721/ERC721.sol\":3945:3963  uint256 i = length */\n      swap1\n      pop\n        /* \"openzeppelin/contract/token/ERC721/ERC721.sol\":3940:4071  for (uint256 i = length; i > 0; i--) {\r... */\n    tag_159:\n        /* \"openzeppelin/contract/token/ERC721/ERC721.sol\":3969:3970  0 */\n      0x00\n        /* \"openzeppelin/contract/token/ERC721/ERC721.sol\":3965:3966  i */\n      dup2\n        /* \"openzeppelin/contract/token/ERC721/ERC721.sol\":3965:3970  i > 0 */\n      gt\n        /* \"openzeppelin/contract/token/ERC721/ERC721.sol\":3940:4071  for (uint256 i = length; i > 0; i--) {\r... */\n      iszero\n      tag_160\n      jumpi\n        /* \"openzeppelin/contract/token/ERC721/ERC721.sol\":4028:4032  0xFF */\n      0xff\n        /* \"openzeppelin/contract/token/ERC721/ERC721.sol\":4021:4025  temp */\n      dup5\n        /* \"openzeppelin/contract/token/ERC721/ERC721.sol\":4021:4032  temp & 0xFF */\n      and\n        /* \"openzeppelin/contract/token/ERC721/ERC721.sol\":4008:4034  bytes1(uint8(temp & 0xFF)) */\n      0xf8\n      shl\n        /* \"openzeppelin/contract/token/ERC721/ERC721.sol\":3992:3998  result */\n      dup3\n        /* \"openzeppelin/contract/token/ERC721/ERC721.sol\":4003:4004  1 */\n      0x01\n        /* \"openzeppelin/contract/token/ERC721/ERC721.sol\":3999:4000  i */\n      dup4\n        /* \"openzeppelin/contract/token/ERC721/ERC721.sol\":3999:4004  i - 1 */\n      tag_162\n      swap2\n      swap1\n      tag_163\n      jump\t// in\n    tag_162:\n        /* \"openzeppelin/contract/token/ERC721/ERC721.sol\":3992:4005  result[i - 1] */\n      dup2\n      mload\n      dup2\n      lt\n      tag_164\n      jumpi\n      mstore(0x00, 0x4e487b7100000000000000000000000000000000000000000000000000000000)\n      mstore(0x04, 0x32)\n      revert(0x00, 0x24)\n    tag_164:\n      0x20\n      add\n      add\n        /* \"openzeppelin/contract/token/ERC721/ERC721.sol\":3992:4034  result[i - 1] = bytes1(uint8(temp & 0xFF)) */\n      swap1\n      not(0xffffffffffffffffffffffffffffffffffffffffffffffffffffffffffffff)\n      and\n      swap1\n      dup2\n      0x00\n      byte\n      swap1\n      mstore8\n      pop\n        /* \"openzeppelin/contract/token/ERC721/ERC721.sol\":4058:4059  8 */\n      0x08\n        /* \"openzeppelin/contract/token/ERC721/ERC721.sol\":4049:4059  temp >>= 8 */\n      dup5\n      swap1\n      shr\n      swap4\n      pop\n        /* \"openzeppelin/contract/token/ERC721/ERC721.sol\":3972:3975  i-- */\n      dup1\n      dup1\n      tag_165\n      swap1\n      tag_166\n      jump\t// in\n    tag_165:\n      swap2\n      pop\n      pop\n        /* \"openzeppelin/contract/token/ERC721/ERC721.sol\":3940:4071  for (uint256 i = length; i > 0; i--) {\r... */\n      jump(tag_159)\n    tag_160:\n      pop\n        /* \"openzeppelin/contract/token/ERC721/ERC721.sol\":4098:4104  result */\n      dup1\n        /* \"openzeppelin/contract/token/ERC721/ERC721.sol\":4091:4104  return result */\n      swap4\n      pop\n      pop\n      pop\n      pop\n        /* \"openzeppelin/contract/token/ERC721/ERC721.sol\":3422:4112  function uintToBytesNoPadding(uint256 value) public pure returns (bytes memory) {\r... */\n    tag_149:\n      swap2\n      swap1\n      pop\n      jump\t// out\n        /* \"openzeppelin/contract/token/ERC721/ERC721.sol\":3065:3414  function tokenURI(uint256 tokenId) public view virtual override returns (bytes memory) {\r... */\n    tag_74:\n        /* \"openzeppelin/contract/token/ERC721/ERC721.sol\":3138:3150  bytes memory */\n      0x60\n        /* \"openzeppelin/contract/token/ERC721/ERC721.sol\":3163:3186  _requireMinted(tokenId) */\n      tag_168\n        /* \"openzeppelin/contract/token/ERC721/ERC721.sol\":3178:3185  tokenId */\n      dup3\n        /* \"openzeppelin/contract/token/ERC721/ERC721.sol\":3163:3177  _requireMinted */\n      tag_95\n        /* \"openzeppelin/contract/token/ERC721/ERC721.sol\":3163:3186  _requireMinted(tokenId) */\n      jump\t// in\n    tag_168:\n        /* \"openzeppelin/contract/token/ERC721/ERC721.sol\":3199:3219  bytes memory baseURI */\n      0x00\n        /* \"openzeppelin/contract/token/ERC721/ERC721.sol\":3222:3232  _baseURI() */\n      tag_169\n        /* \"openzeppelin/contract/token/ERC721/ERC721.sol\":3222:3230  _baseURI */\n      tag_170\n        /* \"openzeppelin/contract/token/ERC721/ERC721.sol\":3222:3232  _baseURI() */\n      jump\t// in\n    tag_169:\n        /* \"openzeppelin/contract/token/ERC721/ERC721.sol\":3199:3232  bytes memory baseURI = _baseURI() */\n      swap1\n      pop\n        /* \"openzeppelin/contract/token/ERC721/ERC721.sol\":3334:3335  0 */\n      0x00\n        /* \"openzeppelin/contract/token/ERC721/ERC721.sol\":3316:3323  baseURI */\n      dup2\n        /* \"openzeppelin/contract/token/ERC721/ERC721.sol\":3310:3331  bytes(baseURI).length */\n      mload\n        /* \"openzeppelin/contract/token/ERC721/ERC721.sol\":3310:3335  bytes(baseURI).length > 0 */\n      gt\n        /* \"openzeppelin/contract/token/ERC721/ERC721.sol\":3310:3406  bytes(baseURI).length > 0 ? abi.encodePacked(baseURI, uintToBytesNoPadding(tokenId)) : bytes(\"\") */\n      tag_171\n      jumpi\n        /* \"openzeppelin/contract/token/ERC721/ERC721.sol\":3397:3406  bytes(\"\") */\n      mload(0x40)\n      dup1\n      0x20\n      add\n      0x40\n      mstore\n      dup1\n      0x00\n      dup2\n      mstore\n      pop\n        /* \"openzeppelin/contract/token/ERC721/ERC721.sol\":3310:3406  bytes(baseURI).length > 0 ? abi.encodePacked(baseURI, uintToBytesNoPadding(tokenId)) : bytes(\"\") */\n      jump(tag_172)\n    tag_171:\n        /* \"openzeppelin/contract/token/ERC721/ERC721.sol\":3355:3362  baseURI */\n      dup1\n        /* \"openzeppelin/contract/token/ERC721/ERC721.sol\":3364:3393  uintToBytesNoPadding(tokenId) */\n      tag_173\n        /* \"openzeppelin/contract/token/ERC721/ERC721.sol\":3385:3392  tokenId */\n      dup5\n        /* \"openzeppelin/contract/token/ERC721/ERC721.sol\":3364:3384  uintToBytesNoPadding */\n      tag_70\n        /* \"openzeppelin/contract/token/ERC721/ERC721.sol\":3364:3393  uintToBytesNoPadding(tokenId) */\n      jump\t// in\n    tag_173:\n        /* \"openzeppelin/contract/token/ERC721/ERC721.sol\":3338:3394  abi.encodePacked(baseURI, uintToBytesNoPadding(tokenId)) */\n      add(0x20, mload(0x40))\n      tag_174\n      swap3\n      swap2\n      swap1\n      tag_175\n      jump\t// in\n    tag_174:\n      mload(0x40)\n      0x20\n      dup2\n      dup4\n      sub\n      sub\n      dup2\n      mstore\n      swap1\n      0x40\n      mstore\n        /* \"openzeppelin/contract/token/ERC721/ERC721.sol\":3310:3406  bytes(baseURI).length > 0 ? abi.encodePacked(baseURI, uintToBytesNoPadding(tokenId)) : bytes(\"\") */\n    tag_172:\n        /* \"openzeppelin/contract/token/ERC721/ERC721.sol\":3303:3406  return bytes(baseURI).length > 0 ? abi.encodePacked(baseURI, uintToBytesNoPadding(tokenId)) : bytes(\"\") */\n      swap2\n      pop\n      pop\n        /* \"openzeppelin/contract/token/ERC721/ERC721.sol\":3065:3414  function tokenURI(uint256 tokenId) public view virtual override returns (bytes memory) {\r... */\n      swap2\n      swap1\n      pop\n      jump\t// out\n        /* \"openzeppelin/contract/token/ERC721/ERC721.sol\":5467:5631  function isApprovedForAll(address owner, address operator) public view virtual override returns (bool) {\r... */\n    tag_79:\n        /* \"openzeppelin/contract/token/ERC721/ERC721.sol\":5564:5568  bool */\n      0x00\n        /* \"openzeppelin/contract/token/ERC721/ERC721.sol\":5588:5606  _operatorApprovals */\n      0x05\n        /* \"openzeppelin/contract/token/ERC721/ERC721.sol\":5588:5613  _operatorApprovals[owner] */\n      0x00\n        /* \"openzeppelin/contract/token/ERC721/ERC721.sol\":5607:5612  owner */\n      dup5\n        /* \"openzeppelin/contract/token/ERC721/ERC721.sol\":5588:5613  _operatorApprovals[owner] */\n      0xffffffffffffffffffffffffffffffffffffffff\n      and\n      0xffffffffffffffffffffffffffffffffffffffff\n      and\n      dup2\n      mstore\n      0x20\n      add\n      swap1\n      dup2\n      mstore\n      0x20\n      add\n      0x00\n      keccak256\n        /* \"openzeppelin/contract/token/ERC721/ERC721.sol\":5588:5623  _operatorApprovals[owner][operator] */\n      0x00\n        /* \"openzeppelin/contract/token/ERC721/ERC721.sol\":5614:5622  operator */\n      dup4\n        /* \"openzeppelin/contract/token/ERC721/ERC721.sol\":5588:5623  _operatorApprovals[owner][operator] */\n      0xffffffffffffffffffffffffffffffffffffffff\n      and\n      0xffffffffffffffffffffffffffffffffffffffff\n      and\n      dup2\n      mstore\n      0x20\n      add\n      swap1\n      dup2\n      mstore\n      0x20\n      add\n      0x00\n      keccak256\n      0x00\n      swap1\n      sload\n      swap1\n      0x0100\n      exp\n      swap1\n      div\n      0xff\n      and\n        /* \"openzeppelin/contract/token/ERC721/ERC721.sol\":5581:5623  return _operatorApprovals[owner][operator] */\n      swap1\n      pop\n        /* \"openzeppelin/contract/token/ERC721/ERC721.sol\":5467:5631  function isApprovedForAll(address owner, address operator) public view virtual override returns (bool) {\r... */\n      swap3\n      swap2\n      pop\n      pop\n      jump\t// out\n        /* \"@openzeppelin/contracts@4.9.3/utils/introspection/ERC165.sol\":829:984  function supportsInterface(bytes4 interfaceId) public view virtual override returns (bool) {... */\n    tag_85:\n        /* \"@openzeppelin/contracts@4.9.3/utils/introspection/ERC165.sol\":914:918  bool */\n      0x00\n        /* \"@openzeppelin/contracts@4.9.3/utils/introspection/ERC165.sol\":952:977  type(IERC165).interfaceId */\n      0x01ffc9a700000000000000000000000000000000000000000000000000000000\n        /* \"@openzeppelin/contracts@4.9.3/utils/introspection/ERC165.sol\":937:977  interfaceId == type(IERC165).interfaceId */\n      not(0xffffffffffffffffffffffffffffffffffffffffffffffffffffffff)\n      and\n        /* \"@openzeppelin/contracts@4.9.3/utils/introspection/ERC165.sol\":937:948  interfaceId */\n      dup3\n        /* \"@openzeppelin/contracts@4.9.3/utils/introspection/ERC165.sol\":937:977  interfaceId == type(IERC165).interfaceId */\n      not(0xffffffffffffffffffffffffffffffffffffffffffffffffffffffff)\n      and\n      eq\n        /* \"@openzeppelin/contracts@4.9.3/utils/introspection/ERC165.sol\":930:977  return interfaceId == type(IERC165).interfaceId */\n      swap1\n      pop\n        /* \"@openzeppelin/contracts@4.9.3/utils/introspection/ERC165.sol\":829:984  function supportsInterface(bytes4 interfaceId) public view virtual override returns (bool) {... */\n      swap2\n      swap1\n      pop\n      jump\t// out\n        /* \"openzeppelin/contract/token/ERC721/ERC721.sol\":14561:14696  function _requireMinted(uint256 tokenId) internal view virtual {\r... */\n    tag_95:\n        /* \"openzeppelin/contract/token/ERC721/ERC721.sol\":14643:14659  _exists(tokenId) */\n      tag_179\n        /* \"openzeppelin/contract/token/ERC721/ERC721.sol\":14651:14658  tokenId */\n      dup2\n        /* \"openzeppelin/contract/token/ERC721/ERC721.sol\":14643:14650  _exists */\n      tag_180\n        /* \"openzeppelin/contract/token/ERC721/ERC721.sol\":14643:14659  _exists(tokenId) */\n      jump\t// in\n    tag_179:\n        /* \"openzeppelin/contract/token/ERC721/ERC721.sol\":14635:14688  require(_exists(tokenId), \"ERC721: invalid token ID\") */\n      tag_181\n      jumpi\n      mload(0x40)\n      0x08c379a000000000000000000000000000000000000000000000000000000000\n      dup2\n      mstore\n      0x04\n      add\n      tag_182\n      swap1\n      tag_127\n      jump\t// in\n    tag_182:\n      mload(0x40)\n      dup1\n      swap2\n      sub\n      swap1\n      revert\n    tag_181:\n        /* \"openzeppelin/contract/token/ERC721/ERC721.sol\":14561:14696  function _requireMinted(uint256 tokenId) internal view virtual {\r... */\n      pop\n      jump\t// out\n        /* \"@openzeppelin/contracts@4.9.3/utils/Context.sol\":640:736  function _msgSender() internal view virtual returns (address) {... */\n    tag_102:\n        /* \"@openzeppelin/contracts@4.9.3/utils/Context.sol\":693:700  address */\n      0x00\n        /* \"@openzeppelin/contracts@4.9.3/utils/Context.sol\":719:729  msg.sender */\n      caller\n        /* \"@openzeppelin/contracts@4.9.3/utils/Context.sol\":712:729  return msg.sender */\n      swap1\n      pop\n        /* \"@openzeppelin/contracts@4.9.3/utils/Context.sol\":640:736  function _msgSender() internal view virtual returns (address) {... */\n      swap1\n      jump\t// out\n        /* \"openzeppelin/contract/token/ERC721/ERC721.sol\":13874:14048  function _approve(address to, uint256 tokenId) internal virtual {\r... */\n    tag_110:\n        /* \"openzeppelin/contract/token/ERC721/ERC721.sol\":13976:13978  to */\n      dup2\n        /* \"openzeppelin/contract/token/ERC721/ERC721.sol\":13949:13964  _tokenApprovals */\n      0x04\n        /* \"openzeppelin/contract/token/ERC721/ERC721.sol\":13949:13973  _tokenApprovals[tokenId] */\n      0x00\n        /* \"openzeppelin/contract/token/ERC721/ERC721.sol\":13965:13972  tokenId */\n      dup4\n        /* \"openzeppelin/contract/token/ERC721/ERC721.sol\":13949:13973  _tokenApprovals[tokenId] */\n      dup2\n      mstore\n      0x20\n      add\n      swap1\n      dup2\n      mstore\n      0x20\n      add\n      0x00\n      keccak256\n      0x00\n        /* \"openzeppelin/contract/token/ERC721/ERC721.sol\":13949:13978  _tokenApprovals[tokenId] = to */\n      0x0100\n      exp\n      dup2\n      sload\n      dup2\n      0xffffffffffffffffffffffffffffffffffffffff\n      mul\n      not\n      and\n      swap1\n      dup4\n      0xffffffffffffffffffffffffffffffffffffffff\n      and\n      mul\n      or\n      swap1\n      sstore\n      pop\n        /* \"openzeppelin/contract/token/ERC721/ERC721.sol\":14032:14039  tokenId */\n      dup1\n        /* \"openzeppelin/contract/token/ERC721/ERC721.sol\":14028:14030  to */\n      dup3\n        /* \"openzeppelin/contract/token/ERC721/ERC721.sol\":13994:14040  Approval(ERC721.ownerOf(tokenId), to, tokenId) */\n      0xffffffffffffffffffffffffffffffffffffffff\n      and\n        /* \"openzeppelin/contract/token/ERC721/ERC721.sol\":14003:14026  ERC721.ownerOf(tokenId) */\n      tag_185\n        /* \"openzeppelin/contract/token/ERC721/ERC721.sol\":14018:14025  tokenId */\n      dup4\n        /* \"openzeppelin/contract/token/ERC721/ERC721.sol\":14003:14017  ERC721.ownerOf */\n      tag_49\n        /* \"openzeppelin/contract/token/ERC721/ERC721.sol\":14003:14026  ERC721.ownerOf(tokenId) */\n      jump\t// in\n    tag_185:\n        /* \"openzeppelin/contract/token/ERC721/ERC721.sol\":13994:14040  Approval(ERC721.ownerOf(tokenId), to, tokenId) */\n      0xffffffffffffffffffffffffffffffffffffffff\n      and\n      0x8c5be1e5ebec7d5bd14f71427d1e84f3dd0314c0f7b2291e5b200ac8c7c3b925\n      mload(0x40)\n      mload(0x40)\n      dup1\n      swap2\n      sub\n      swap1\n      log4\n        /* \"openzeppelin/contract/token/ERC721/ERC721.sol\":13874:14048  function _approve(address to, uint256 tokenId) internal virtual {\r... */\n      pop\n      pop\n      jump\t// out\n        /* \"openzeppelin/contract/token/ERC721/ERC721.sol\":8561:8825  function _isApprovedOrOwner(address spender, uint256 tokenId) internal view virtual returns (bool) {\r... */\n    tag_114:\n        /* \"openzeppelin/contract/token/ERC721/ERC721.sol\":8654:8658  bool */\n      0x00\n        /* \"openzeppelin/contract/token/ERC721/ERC721.sol\":8671:8684  address owner */\n      dup1\n        /* \"openzeppelin/contract/token/ERC721/ERC721.sol\":8687:8710  ERC721.ownerOf(tokenId) */\n      tag_187\n        /* \"openzeppelin/contract/token/ERC721/ERC721.sol\":8702:8709  tokenId */\n      dup4\n        /* \"openzeppelin/contract/token/ERC721/ERC721.sol\":8687:8701  ERC721.ownerOf */\n      tag_49\n        /* \"openzeppelin/contract/token/ERC721/ERC721.sol\":8687:8710  ERC721.ownerOf(tokenId) */\n      jump\t// in\n    tag_187:\n        /* \"openzeppelin/contract/token/ERC721/ERC721.sol\":8671:8710  address owner = ERC721.ownerOf(tokenId) */\n      swap1\n      pop\n        /* \"openzeppelin/contract/token/ERC721/ERC721.sol\":8740:8745  owner */\n      dup1\n        /* \"openzeppelin/contract/token/ERC721/ERC721.sol\":8729:8745  spender == owner */\n      0xffffffffffffffffffffffffffffffffffffffff\n      and\n        /* \"openzeppelin/contract/token/ERC721/ERC721.sol\":8729:8736  spender */\n      dup5\n        /* \"openzeppelin/contract/token/ERC721/ERC721.sol\":8729:8745  spender == owner */\n      0xffffffffffffffffffffffffffffffffffffffff\n      and\n      eq\n        /* \"openzeppelin/contract/token/ERC721/ERC721.sol\":8729:8781  spender == owner || isApprovedForAll(owner, spender) */\n      dup1\n      tag_188\n      jumpi\n      pop\n        /* \"openzeppelin/contract/token/ERC721/ERC721.sol\":8749:8781  isApprovedForAll(owner, spender) */\n      tag_189\n        /* \"openzeppelin/contract/token/ERC721/ERC721.sol\":8766:8771  owner */\n      dup2\n        /* \"openzeppelin/contract/token/ERC721/ERC721.sol\":8773:8780  spender */\n      dup6\n        /* \"openzeppelin/contract/token/ERC721/ERC721.sol\":8749:8765  isApprovedForAll */\n      tag_79\n        /* \"openzeppelin/contract/token/ERC721/ERC721.sol\":8749:8781  isApprovedForAll(owner, spender) */\n      jump\t// in\n    tag_189:\n        /* \"openzeppelin/contract/token/ERC721/ERC721.sol\":8729:8781  spender == owner || isApprovedForAll(owner, spender) */\n    tag_188:\n        /* \"openzeppelin/contract/token/ERC721/ERC721.sol\":8729:8816  spender == owner || isApprovedForAll(owner, spender) || getApproved(tokenId) == spender */\n      dup1\n      tag_190\n      jumpi\n      pop\n        /* \"openzeppelin/contract/token/ERC721/ERC721.sol\":8809:8816  spender */\n      dup4\n        /* \"openzeppelin/contract/token/ERC721/ERC721.sol\":8785:8816  getApproved(tokenId) == spender */\n      0xffffffffffffffffffffffffffffffffffffffff\n      and\n        /* \"openzeppelin/contract/token/ERC721/ERC721.sol\":8785:8805  getApproved(tokenId) */\n      tag_191\n        /* \"openzeppelin/contract/token/ERC721/ERC721.sol\":8797:8804  tokenId */\n      dup5\n        /* \"openzeppelin/contract/token/ERC721/ERC721.sol\":8785:8796  getApproved */\n      tag_33\n        /* \"openzeppelin/contract/token/ERC721/ERC721.sol\":8785:8805  getApproved(tokenId) */\n      jump\t// in\n    tag_191:\n        /* \"openzeppelin/contract/token/ERC721/ERC721.sol\":8785:8816  getApproved(tokenId) == spender */\n      0xffffffffffffffffffffffffffffffffffffffff\n      and\n      eq\n        /* \"openzeppelin/contract/token/ERC721/ERC721.sol\":8729:8816  spender == owner || isApprovedForAll(owner, spender) || getApproved(tokenId) == spender */\n    tag_190:\n        /* \"openzeppelin/contract/token/ERC721/ERC721.sol\":8721:8817  return (spender == owner || isApprovedForAll(owner, spender) || getApproved(tokenId) == spender) */\n      swap2\n      pop\n      pop\n        /* \"openzeppelin/contract/token/ERC721/ERC721.sol\":8561:8825  function _isApprovedOrOwner(address spender, uint256 tokenId) internal view virtual returns (bool) {\r... */\n      swap3\n      swap2\n      pop\n      pop\n      jump\t// out\n        /* \"openzeppelin/contract/token/ERC721/ERC721.sol\":12526:13755  function _transfer(address from, address to, uint256 tokenId) internal virtual {\r... */\n    tag_119:\n        /* \"openzeppelin/contract/token/ERC721/ERC721.sol\":12651:12655  from */\n      dup3\n        /* \"openzeppelin/contract/token/ERC721/ERC721.sol\":12624:12655  ERC721.ownerOf(tokenId) == from */\n      0xffffffffffffffffffffffffffffffffffffffff\n      and\n        /* \"openzeppelin/contract/token/ERC721/ERC721.sol\":12624:12647  ERC721.ownerOf(tokenId) */\n      tag_193\n        /* \"openzeppelin/contract/token/ERC721/ERC721.sol\":12639:12646  tokenId */\n      dup3\n        /* \"openzeppelin/contract/token/ERC721/ERC721.sol\":12624:12638  ERC721.ownerOf */\n      tag_49\n        /* \"openzeppelin/contract/token/ERC721/ERC721.sol\":12624:12647  ERC721.ownerOf(tokenId) */\n      jump\t// in\n    tag_193:\n        /* \"openzeppelin/contract/token/ERC721/ERC721.sol\":12624:12655  ERC721.ownerOf(tokenId) == from */\n      0xffffffffffffffffffffffffffffffffffffffff\n      and\n      eq\n        /* \"openzeppelin/contract/token/ERC721/ERC721.sol\":12616:12697  require(ERC721.ownerOf(tokenId) == from, \"ERC721: transfer from incorrect owner\") */\n      tag_194\n      jumpi\n      mload(0x40)\n      0x08c379a000000000000000000000000000000000000000000000000000000000\n      dup2\n      mstore\n      0x04\n      add\n      tag_195\n      swap1\n      tag_196\n      jump\t// in\n    tag_195:\n      mload(0x40)\n      dup1\n      swap2\n      sub\n      swap1\n      revert\n    tag_194:\n        /* \"openzeppelin/contract/token/ERC721/ERC721.sol\":12730:12731  0 */\n      0x00\n        /* \"openzeppelin/contract/token/ERC721/ERC721.sol\":12716:12732  to != address(0) */\n      0xffffffffffffffffffffffffffffffffffffffff\n      and\n        /* \"openzeppelin/contract/token/ERC721/ERC721.sol\":12716:12718  to */\n      dup3\n        /* \"openzeppelin/contract/token/ERC721/ERC721.sol\":12716:12732  to != address(0) */\n      0xffffffffffffffffffffffffffffffffffffffff\n      and\n      eq\n      iszero\n        /* \"openzeppelin/contract/token/ERC721/ERC721.sol\":12708:12773  require(to != address(0), \"ERC721: transfer to the zero address\") */\n      tag_197\n      jumpi\n      mload(0x40)\n      0x08c379a000000000000000000000000000000000000000000000000000000000\n      dup2\n      mstore\n      0x04\n      add\n      tag_198\n      swap1\n      tag_199\n      jump\t// in\n    tag_198:\n      mload(0x40)\n      dup1\n      swap2\n      sub\n      swap1\n      revert\n    tag_197:\n        /* \"openzeppelin/contract/token/ERC721/ERC721.sol\":12786:12828  _beforeTokenTransfer(from, to, tokenId, 1) */\n      tag_200\n        /* \"openzeppelin/contract/token/ERC721/ERC721.sol\":12807:12811  from */\n      dup4\n        /* \"openzeppelin/contract/token/ERC721/ERC721.sol\":12813:12815  to */\n      dup4\n        /* \"openzeppelin/contract/token/ERC721/ERC721.sol\":12817:12824  tokenId */\n      dup4\n        /* \"openzeppelin/contract/token/ERC721/ERC721.sol\":12826:12827  1 */\n      0x01\n        /* \"openzeppelin/contract/token/ERC721/ERC721.sol\":12786:12806  _beforeTokenTransfer */\n      tag_201\n        /* \"openzeppelin/contract/token/ERC721/ERC721.sol\":12786:12828  _beforeTokenTransfer(from, to, tokenId, 1) */\n      jump\t// in\n    tag_200:\n        /* \"openzeppelin/contract/token/ERC721/ERC721.sol\":12958:12962  from */\n      dup3\n        /* \"openzeppelin/contract/token/ERC721/ERC721.sol\":12931:12962  ERC721.ownerOf(tokenId) == from */\n      0xffffffffffffffffffffffffffffffffffffffff\n      and\n        /* \"openzeppelin/contract/token/ERC721/ERC721.sol\":12931:12954  ERC721.ownerOf(tokenId) */\n      tag_202\n        /* \"openzeppelin/contract/token/ERC721/ERC721.sol\":12946:12953  tokenId */\n      dup3\n        /* \"openzeppelin/contract/token/ERC721/ERC721.sol\":12931:12945  ERC721.ownerOf */\n      tag_49\n        /* \"openzeppelin/contract/token/ERC721/ERC721.sol\":12931:12954  ERC721.ownerOf(tokenId) */\n      jump\t// in\n    tag_202:\n        /* \"openzeppelin/contract/token/ERC721/ERC721.sol\":12931:12962  ERC721.ownerOf(tokenId) == from */\n      0xffffffffffffffffffffffffffffffffffffffff\n      and\n      eq\n        /* \"openzeppelin/contract/token/ERC721/ERC721.sol\":12923:13004  require(ERC721.ownerOf(tokenId) == from, \"ERC721: transfer from incorrect owner\") */\n      tag_203\n      jumpi\n      mload(0x40)\n      0x08c379a000000000000000000000000000000000000000000000000000000000\n      dup2\n      mstore\n      0x04\n      add\n      tag_204\n      swap1\n      tag_196\n      jump\t// in\n    tag_204:\n      mload(0x40)\n      dup1\n      swap2\n      sub\n      swap1\n      revert\n    tag_203:\n        /* \"openzeppelin/contract/token/ERC721/ERC721.sol\":13076:13091  _tokenApprovals */\n      0x04\n        /* \"openzeppelin/contract/token/ERC721/ERC721.sol\":13076:13100  _tokenApprovals[tokenId] */\n      0x00\n        /* \"openzeppelin/contract/token/ERC721/ERC721.sol\":13092:13099  tokenId */\n      dup3\n        /* \"openzeppelin/contract/token/ERC721/ERC721.sol\":13076:13100  _tokenApprovals[tokenId] */\n      dup2\n      mstore\n      0x20\n      add\n      swap1\n      dup2\n      mstore\n      0x20\n      add\n      0x00\n      keccak256\n      0x00\n        /* \"openzeppelin/contract/token/ERC721/ERC721.sol\":13069:13100  delete _tokenApprovals[tokenId] */\n      0x0100\n      exp\n      dup2\n      sload\n      swap1\n      0xffffffffffffffffffffffffffffffffffffffff\n      mul\n      not\n      and\n      swap1\n      sstore\n        /* \"openzeppelin/contract/token/ERC721/ERC721.sol\":13571:13572  1 */\n      0x01\n        /* \"openzeppelin/contract/token/ERC721/ERC721.sol\":13552:13561  _balances */\n      0x03\n        /* \"openzeppelin/contract/token/ERC721/ERC721.sol\":13552:13567  _balances[from] */\n      0x00\n        /* \"openzeppelin/contract/token/ERC721/ERC721.sol\":13562:13566  from */\n      dup6\n        /* \"openzeppelin/contract/token/ERC721/ERC721.sol\":13552:13567  _balances[from] */\n      0xffffffffffffffffffffffffffffffffffffffff\n      and\n      0xffffffffffffffffffffffffffffffffffffffff\n      and\n      dup2\n      mstore\n      0x20\n      add\n      swap1\n      dup2\n      mstore\n      0x20\n      add\n      0x00\n      keccak256\n      0x00\n        /* \"openzeppelin/contract/token/ERC721/ERC721.sol\":13552:13572  _balances[from] -= 1 */\n      dup3\n      dup3\n      sload\n      sub\n      swap3\n      pop\n      pop\n      dup2\n      swap1\n      sstore\n      pop\n        /* \"openzeppelin/contract/token/ERC721/ERC721.sol\":13604:13605  1 */\n      0x01\n        /* \"openzeppelin/contract/token/ERC721/ERC721.sol\":13587:13596  _balances */\n      0x03\n        /* \"openzeppelin/contract/token/ERC721/ERC721.sol\":13587:13600  _balances[to] */\n      0x00\n        /* \"openzeppelin/contract/token/ERC721/ERC721.sol\":13597:13599  to */\n      dup5\n        /* \"openzeppelin/contract/token/ERC721/ERC721.sol\":13587:13600  _balances[to] */\n      0xffffffffffffffffffffffffffffffffffffffff\n      and\n      0xffffffffffffffffffffffffffffffffffffffff\n      and\n      dup2\n      mstore\n      0x20\n      add\n      swap1\n      dup2\n      mstore\n      0x20\n      add\n      0x00\n      keccak256\n      0x00\n        /* \"openzeppelin/contract/token/ERC721/ERC721.sol\":13587:13605  _balances[to] += 1 */\n      dup3\n      dup3\n      sload\n      add\n      swap3\n      pop\n      pop\n      dup2\n      swap1\n      sstore\n      pop\n        /* \"openzeppelin/contract/token/ERC721/ERC721.sol\":13646:13648  to */\n      dup2\n        /* \"openzeppelin/contract/token/ERC721/ERC721.sol\":13627:13634  _owners */\n      0x02\n        /* \"openzeppelin/contract/token/ERC721/ERC721.sol\":13627:13643  _owners[tokenId] */\n      0x00\n        /* \"openzeppelin/contract/token/ERC721/ERC721.sol\":13635:13642  tokenId */\n      dup4\n        /* \"openzeppelin/contract/token/ERC721/ERC721.sol\":13627:13643  _owners[tokenId] */\n      dup2\n      mstore\n      0x20\n      add\n      swap1\n      dup2\n      mstore\n      0x20\n      add\n      0x00\n      keccak256\n      0x00\n        /* \"openzeppelin/contract/token/ERC721/ERC721.sol\":13627:13648  _owners[tokenId] = to */\n      0x0100\n      exp\n      dup2\n      sload\n      dup2\n      0xffffffffffffffffffffffffffffffffffffffff\n      mul\n      not\n      and\n      swap1\n      dup4\n      0xffffffffffffffffffffffffffffffffffffffff\n      and\n      mul\n      or\n      swap1\n      sstore\n      pop\n        /* \"openzeppelin/contract/token/ERC721/ERC721.sol\":13685:13692  tokenId */\n      dup1\n        /* \"openzeppelin/contract/token/ERC721/ERC721.sol\":13681:13683  to */\n      dup3\n        /* \"openzeppelin/contract/token/ERC721/ERC721.sol\":13666:13693  Transfer(from, to, tokenId) */\n      0xffffffffffffffffffffffffffffffffffffffff\n      and\n        /* \"openzeppelin/contract/token/ERC721/ERC721.sol\":13675:13679  from */\n      dup5\n        /* \"openzeppelin/contract/token/ERC721/ERC721.sol\":13666:13693  Transfer(from, to, tokenId) */\n      0xffffffffffffffffffffffffffffffffffffffff\n      and\n      0xddf252ad1be2c89b69c2b068fc378daa952ba7f163c4a11628f55a4df523b3ef\n      mload(0x40)\n      mload(0x40)\n      dup1\n      swap2\n      sub\n      swap1\n      log4\n        /* \"openzeppelin/contract/token/ERC721/ERC721.sol\":13706:13747  _afterTokenTransfer(from, to, tokenId, 1) */\n      tag_205\n        /* \"openzeppelin/contract/token/ERC721/ERC721.sol\":13726:13730  from */\n      dup4\n        /* \"openzeppelin/contract/token/ERC721/ERC721.sol\":13732:13734  to */\n      dup4\n        /* \"openzeppelin/contract/token/ERC721/ERC721.sol\":13736:13743  tokenId */\n      dup4\n        /* \"openzeppelin/contract/token/ERC721/ERC721.sol\":13745:13746  1 */\n      0x01\n        /* \"openzeppelin/contract/token/ERC721/ERC721.sol\":13706:13725  _afterTokenTransfer */\n      tag_206\n        /* \"openzeppelin/contract/token/ERC721/ERC721.sol\":13706:13747  _afterTokenTransfer(from, to, tokenId, 1) */\n      jump\t// in\n    tag_205:\n        /* \"openzeppelin/contract/token/ERC721/ERC721.sol\":12526:13755  function _transfer(address from, address to, uint256 tokenId) internal virtual {\r... */\n      pop\n      pop\n      pop\n      jump\t// out\n        /* \"openzeppelin/contract/token/ERC721/ERC721.sol\":7836:7953  function _ownerOf(uint256 tokenId) internal view virtual returns (address) {\r... */\n    tag_124:\n        /* \"openzeppelin/contract/token/ERC721/ERC721.sol\":7902:7909  address */\n      0x00\n        /* \"openzeppelin/contract/token/ERC721/ERC721.sol\":7929:7936  _owners */\n      0x02\n        /* \"openzeppelin/contract/token/ERC721/ERC721.sol\":7929:7945  _owners[tokenId] */\n      0x00\n        /* \"openzeppelin/contract/token/ERC721/ERC721.sol\":7937:7944  tokenId */\n      dup4\n        /* \"openzeppelin/contract/token/ERC721/ERC721.sol\":7929:7945  _owners[tokenId] */\n      dup2\n      mstore\n      0x20\n      add\n      swap1\n      dup2\n      mstore\n      0x20\n      add\n      0x00\n      keccak256\n      0x00\n      swap1\n      sload\n      swap1\n      0x0100\n      exp\n      swap1\n      div\n      0xffffffffffffffffffffffffffffffffffffffff\n      and\n        /* \"openzeppelin/contract/token/ERC721/ERC721.sol\":7922:7945  return _owners[tokenId] */\n      swap1\n      pop\n        /* \"openzeppelin/contract/token/ERC721/ERC721.sol\":7836:7953  function _ownerOf(uint256 tokenId) internal view virtual returns (address) {\r... */\n      swap2\n      swap1\n      pop\n      jump\t// out\n        /* \"openzeppelin/contract/token/ERC721/ERC721.sol\":14191:14472  function _setApprovalForAll(address owner, address operator, bool approved) internal virtual {\r... */\n    tag_141:\n        /* \"openzeppelin/contract/token/ERC721/ERC721.sol\":14312:14320  operator */\n      dup2\n        /* \"openzeppelin/contract/token/ERC721/ERC721.sol\":14303:14320  owner != operator */\n      0xffffffffffffffffffffffffffffffffffffffff\n      and\n        /* \"openzeppelin/contract/token/ERC721/ERC721.sol\":14303:14308  owner */\n      dup4\n        /* \"openzeppelin/contract/token/ERC721/ERC721.sol\":14303:14320  owner != operator */\n      0xffffffffffffffffffffffffffffffffffffffff\n      and\n      eq\n      iszero\n        /* \"openzeppelin/contract/token/ERC721/ERC721.sol\":14295:14350  require(owner != operator, \"ERC721: approve to caller\") */\n      tag_209\n      jumpi\n      mload(0x40)\n      0x08c379a000000000000000000000000000000000000000000000000000000000\n      dup2\n      mstore\n      0x04\n      add\n      tag_210\n      swap1\n      tag_211\n      jump\t// in\n    tag_210:\n      mload(0x40)\n      dup1\n      swap2\n      sub\n      swap1\n      revert\n    tag_209:\n        /* \"openzeppelin/contract/token/ERC721/ERC721.sol\":14399:14407  approved */\n      dup1\n        /* \"openzeppelin/contract/token/ERC721/ERC721.sol\":14361:14379  _operatorApprovals */\n      0x05\n        /* \"openzeppelin/contract/token/ERC721/ERC721.sol\":14361:14386  _operatorApprovals[owner] */\n      0x00\n        /* \"openzeppelin/contract/token/ERC721/ERC721.sol\":14380:14385  owner */\n      dup6\n        /* \"openzeppelin/contract/token/ERC721/ERC721.sol\":14361:14386  _operatorApprovals[owner] */\n      0xffffffffffffffffffffffffffffffffffffffff\n      and\n      0xffffffffffffffffffffffffffffffffffffffff\n      and\n      dup2\n      mstore\n      0x20\n      add\n      swap1\n      dup2\n      mstore\n      0x20\n      add\n      0x00\n      keccak256\n        /* \"openzeppelin/contract/token/ERC721/ERC721.sol\":14361:14396  _operatorApprovals[owner][operator] */\n      0x00\n        /* \"openzeppelin/contract/token/ERC721/ERC721.sol\":14387:14395  operator */\n      dup5\n        /* \"openzeppelin/contract/token/ERC721/ERC721.sol\":14361:14396  _operatorApprovals[owner][operator] */\n      0xffffffffffffffffffffffffffffffffffffffff\n      and\n      0xffffffffffffffffffffffffffffffffffffffff\n      and\n      dup2\n      mstore\n      0x20\n      add\n      swap1\n      dup2\n      mstore\n      0x20\n      add\n      0x00\n      keccak256\n      0x00\n        /* \"openzeppelin/contract/token/ERC721/ERC721.sol\":14361:14407  _operatorApprovals[owner][operator] = approved */\n      0x0100\n      exp\n      dup2\n      sload\n      dup2\n      0xff\n      mul\n      not\n      and\n      swap1\n      dup4\n      iszero\n      iszero\n      mul\n      or\n      swap1\n      sstore\n      pop\n        /* \"openzeppelin/contract/token/ERC721/ERC721.sol\":14445:14453  operator */\n      dup2\n        /* \"openzeppelin/contract/token/ERC721/ERC721.sol\":14423:14464  ApprovalForAll(owner, operator, approved) */\n      0xffffffffffffffffffffffffffffffffffffffff\n      and\n        /* \"openzeppelin/contract/token/ERC721/ERC721.sol\":14438:14443  owner */\n      dup4\n        /* \"openzeppelin/contract/token/ERC721/ERC721.sol\":14423:14464  ApprovalForAll(owner, operator, approved) */\n      0xffffffffffffffffffffffffffffffffffffffff\n      and\n      0x17307eab39ab6107e8899845ad3d59bd9653f200f220920489ca2b5937696c31\n        /* \"openzeppelin/contract/token/ERC721/ERC721.sol\":14455:14463  approved */\n      dup4\n        /* \"openzeppelin/contract/token/ERC721/ERC721.sol\":14423:14464  ApprovalForAll(owner, operator, approved) */\n      mload(0x40)\n      tag_212\n      swap2\n      swap1\n      tag_25\n      jump\t// in\n    tag_212:\n      mload(0x40)\n      dup1\n      swap2\n      sub\n      swap1\n      log3\n        /* \"openzeppelin/contract/token/ERC721/ERC721.sol\":14191:14472  function _setApprovalForAll(address owner, address operator, bool approved) internal virtual {\r... */\n      pop\n      pop\n      pop\n      jump\t// out\n        /* \"openzeppelin/contract/token/ERC721/ERC721.sol\":7452:7722  function _safeTransfer(address from, address to, uint256 tokenId, bytes memory data) internal virtual {\r... */\n    tag_148:\n        /* \"openzeppelin/contract/token/ERC721/ERC721.sol\":7565:7593  _transfer(from, to, tokenId) */\n      tag_214\n        /* \"openzeppelin/contract/token/ERC721/ERC721.sol\":7575:7579  from */\n      dup5\n        /* \"openzeppelin/contract/token/ERC721/ERC721.sol\":7581:7583  to */\n      dup5\n        /* \"openzeppelin/contract/token/ERC721/ERC721.sol\":7585:7592  tokenId */\n      dup5\n        /* \"openzeppelin/contract/token/ERC721/ERC721.sol\":7565:7574  _transfer */\n      tag_119\n        /* \"openzeppelin/contract/token/ERC721/ERC721.sol\":7565:7593  _transfer(from, to, tokenId) */\n      jump\t// in\n    tag_214:\n        /* \"openzeppelin/contract/token/ERC721/ERC721.sol\":7612:7659  _checkOnERC721Received(from, to, tokenId, data) */\n      tag_215\n        /* \"openzeppelin/contract/token/ERC721/ERC721.sol\":7635:7639  from */\n      dup5\n        /* \"openzeppelin/contract/token/ERC721/ERC721.sol\":7641:7643  to */\n      dup5\n        /* \"openzeppelin/contract/token/ERC721/ERC721.sol\":7645:7652  tokenId */\n      dup5\n        /* \"openzeppelin/contract/token/ERC721/ERC721.sol\":7654:7658  data */\n      dup5\n        /* \"openzeppelin/contract/token/ERC721/ERC721.sol\":7612:7634  _checkOnERC721Received */\n      tag_216\n        /* \"openzeppelin/contract/token/ERC721/ERC721.sol\":7612:7659  _checkOnERC721Received(from, to, tokenId, data) */\n      jump\t// in\n    tag_215:\n        /* \"openzeppelin/contract/token/ERC721/ERC721.sol\":7604:7714  require(_checkOnERC721Received(from, to, tokenId, data), \"ERC721: transfer to non ERC721Receiver implementer\") */\n      tag_217\n      jumpi\n      mload(0x40)\n      0x08c379a000000000000000000000000000000000000000000000000000000000\n      dup2\n      mstore\n      0x04\n      add\n      tag_218\n      swap1\n      tag_219\n      jump\t// in\n    tag_218:\n      mload(0x40)\n      dup1\n      swap2\n      sub\n      swap1\n      revert\n    tag_217:\n        /* \"openzeppelin/contract/token/ERC721/ERC721.sol\":7452:7722  function _safeTransfer(address from, address to, uint256 tokenId, bytes memory data) internal virtual {\r... */\n      pop\n      pop\n      pop\n      pop\n      jump\t// out\n        /* \"openzeppelin/contract/token/ERC721/ERC721.sol\":4361:4454  function _baseURI() internal view virtual returns (bytes memory) {\r... */\n    tag_170:\n        /* \"openzeppelin/contract/token/ERC721/ERC721.sol\":4412:4424  bytes memory */\n      0x60\n        /* \"openzeppelin/contract/token/ERC721/ERC721.sol\":4437:4446  return \"\" */\n      mload(0x40)\n      dup1\n      0x20\n      add\n      0x40\n      mstore\n      dup1\n      0x00\n      dup2\n      mstore\n      pop\n      swap1\n      pop\n        /* \"openzeppelin/contract/token/ERC721/ERC721.sol\":4361:4454  function _baseURI() internal view virtual returns (bytes memory) {\r... */\n      swap1\n      jump\t// out\n        /* \"openzeppelin/contract/token/ERC721/ERC721.sol\":8266:8394  function _exists(uint256 tokenId) internal view virtual returns (bool) {\r... */\n    tag_180:\n        /* \"openzeppelin/contract/token/ERC721/ERC721.sol\":8331:8335  bool */\n      0x00\n        /* \"openzeppelin/contract/token/ERC721/ERC721.sol\":8384:8385  0 */\n      dup1\n        /* \"openzeppelin/contract/token/ERC721/ERC721.sol\":8355:8386  _ownerOf(tokenId) != address(0) */\n      0xffffffffffffffffffffffffffffffffffffffff\n      and\n        /* \"openzeppelin/contract/token/ERC721/ERC721.sol\":8355:8372  _ownerOf(tokenId) */\n      tag_222\n        /* \"openzeppelin/contract/token/ERC721/ERC721.sol\":8364:8371  tokenId */\n      dup4\n        /* \"openzeppelin/contract/token/ERC721/ERC721.sol\":8355:8363  _ownerOf */\n      tag_124\n        /* \"openzeppelin/contract/token/ERC721/ERC721.sol\":8355:8372  _ownerOf(tokenId) */\n      jump\t// in\n    tag_222:\n        /* \"openzeppelin/contract/token/ERC721/ERC721.sol\":8355:8386  _ownerOf(tokenId) != address(0) */\n      0xffffffffffffffffffffffffffffffffffffffff\n      and\n      eq\n      iszero\n        /* \"openzeppelin/contract/token/ERC721/ERC721.sol\":8348:8386  return _ownerOf(tokenId) != address(0) */\n      swap1\n      pop\n        /* \"openzeppelin/contract/token/ERC721/ERC721.sol\":8266:8394  function _exists(uint256 tokenId) internal view virtual returns (bool) {\r... */\n      swap2\n      swap1\n      pop\n      jump\t// out\n        /* \"openzeppelin/contract/token/ERC721/ERC721.sol\":16845:16961  function _beforeTokenTransfer(address from, address to, uint256 firstTokenId, uint256 batchSize) internal virtual {} */\n    tag_201:\n      pop\n      pop\n      pop\n      pop\n      jump\t// out\n        /* \"openzeppelin/contract/token/ERC721/ERC721.sol\":17683:17798  function _afterTokenTransfer(address from, address to, uint256 firstTokenId, uint256 batchSize) internal virtual {} */\n    tag_206:\n      pop\n      pop\n      pop\n      pop\n      jump\t// out\n        /* \"openzeppelin/contract/token/ERC721/ERC721.sol\":15260:16113  function _checkOnERC721Received(\r... */\n    tag_216:\n        /* \"openzeppelin/contract/token/ERC721/ERC721.sol\":15414:15418  bool */\n      0x00\n        /* \"openzeppelin/contract/token/ERC721/ERC721.sol\":15435:15450  to.isContract() */\n      tag_226\n        /* \"openzeppelin/contract/token/ERC721/ERC721.sol\":15435:15437  to */\n      dup5\n        /* \"openzeppelin/contract/token/ERC721/ERC721.sol\":15435:15448  to.isContract */\n      0xffffffffffffffffffffffffffffffffffffffff\n      and\n      tag_227\n        /* \"openzeppelin/contract/token/ERC721/ERC721.sol\":15435:15450  to.isContract() */\n      jump\t// in\n    tag_226:\n        /* \"openzeppelin/contract/token/ERC721/ERC721.sol\":15431:16106  if (to.isContract()) {\r... */\n      iszero\n      tag_228\n      jumpi\n        /* \"openzeppelin/contract/token/ERC721/ERC721.sol\":15487:15489  to */\n      dup4\n        /* \"openzeppelin/contract/token/ERC721/ERC721.sol\":15471:15507  IERC721Receiver(to).onERC721Received */\n      0xffffffffffffffffffffffffffffffffffffffff\n      and\n      0x150b7a02\n        /* \"openzeppelin/contract/token/ERC721/ERC721.sol\":15508:15520  _msgSender() */\n      tag_229\n        /* \"openzeppelin/contract/token/ERC721/ERC721.sol\":15508:15518  _msgSender */\n      tag_102\n        /* \"openzeppelin/contract/token/ERC721/ERC721.sol\":15508:15520  _msgSender() */\n      jump\t// in\n    tag_229:\n        /* \"openzeppelin/contract/token/ERC721/ERC721.sol\":15522:15526  from */\n      dup8\n        /* \"openzeppelin/contract/token/ERC721/ERC721.sol\":15528:15535  tokenId */\n      dup7\n        /* \"openzeppelin/contract/token/ERC721/ERC721.sol\":15537:15541  data */\n      dup7\n        /* \"openzeppelin/contract/token/ERC721/ERC721.sol\":15471:15542  IERC721Receiver(to).onERC721Received(_msgSender(), from, tokenId, data) */\n      mload(0x40)\n      dup6\n      0xffffffff\n      and\n      0xe0\n      shl\n      dup2\n      mstore\n      0x04\n      add\n      tag_230\n      swap5\n      swap4\n      swap3\n      swap2\n      swap1\n      tag_231\n      jump\t// in\n    tag_230:\n      0x20\n      mload(0x40)\n      dup1\n      dup4\n      sub\n      dup2\n      0x00\n      dup8\n      dup1\n      extcodesize\n      iszero\n      dup1\n      iszero\n      tag_232\n      jumpi\n      0x00\n      dup1\n      revert\n    tag_232:\n      pop\n      gas\n      call\n      swap3\n      pop\n      pop\n      pop\n      dup1\n      iszero\n      tag_233\n      jumpi\n      pop\n      mload(0x40)\n      returndatasize\n      not(0x1f)\n      0x1f\n      dup3\n      add\n      and\n      dup3\n      add\n      dup1\n      0x40\n      mstore\n      pop\n      dup2\n      add\n      swap1\n      tag_234\n      swap2\n      swap1\n      tag_235\n      jump\t// in\n    tag_234:\n      0x01\n    tag_233:\n        /* \"openzeppelin/contract/token/ERC721/ERC721.sol\":15467:16051  try IERC721Receiver(to).onERC721Received(_msgSender(), from, tokenId, data) returns (bytes4 retval) {\r... */\n      tag_236\n      jumpi\n      returndatasize\n      dup1\n      0x00\n      dup2\n      eq\n      tag_241\n      jumpi\n      mload(0x40)\n      swap2\n      pop\n      and(add(returndatasize, 0x3f), not(0x1f))\n      dup3\n      add\n      0x40\n      mstore\n      returndatasize\n      dup3\n      mstore\n      returndatasize\n      0x00\n      0x20\n      dup5\n      add\n      returndatacopy\n      jump(tag_240)\n    tag_241:\n      0x60\n      swap2\n      pop\n    tag_240:\n      pop\n        /* \"openzeppelin/contract/token/ERC721/ERC721.sol\":15729:15730  0 */\n      0x00\n        /* \"openzeppelin/contract/token/ERC721/ERC721.sol\":15712:15718  reason */\n      dup2\n        /* \"openzeppelin/contract/token/ERC721/ERC721.sol\":15712:15725  reason.length */\n      mload\n        /* \"openzeppelin/contract/token/ERC721/ERC721.sol\":15712:15730  reason.length == 0 */\n      eq\n        /* \"openzeppelin/contract/token/ERC721/ERC721.sol\":15708:16036  if (reason.length == 0) {\r... */\n      iszero\n      tag_242\n      jumpi\n        /* \"openzeppelin/contract/token/ERC721/ERC721.sol\":15755:15815  revert(\"ERC721: transfer to non ERC721Receiver implementer\") */\n      mload(0x40)\n      0x08c379a000000000000000000000000000000000000000000000000000000000\n      dup2\n      mstore\n      0x04\n      add\n      tag_243\n      swap1\n      tag_219\n      jump\t// in\n    tag_243:\n      mload(0x40)\n      dup1\n      swap2\n      sub\n      swap1\n      revert\n        /* \"openzeppelin/contract/token/ERC721/ERC721.sol\":15708:16036  if (reason.length == 0) {\r... */\n    tag_242:\n        /* \"openzeppelin/contract/token/ERC721/ERC721.sol\":15986:15992  reason */\n      dup1\n        /* \"openzeppelin/contract/token/ERC721/ERC721.sol\":15980:15993  mload(reason) */\n      mload\n        /* \"openzeppelin/contract/token/ERC721/ERC721.sol\":15971:15977  reason */\n      dup2\n        /* \"openzeppelin/contract/token/ERC721/ERC721.sol\":15967:15969  32 */\n      0x20\n        /* \"openzeppelin/contract/token/ERC721/ERC721.sol\":15963:15978  add(32, reason) */\n      add\n        /* \"openzeppelin/contract/token/ERC721/ERC721.sol\":15956:15994  revert(add(32, reason), mload(reason)) */\n      revert\n        /* \"openzeppelin/contract/token/ERC721/ERC721.sol\":15467:16051  try IERC721Receiver(to).onERC721Received(_msgSender(), from, tokenId, data) returns (bytes4 retval) {\r... */\n    tag_236:\n        /* \"openzeppelin/contract/token/ERC721/ERC721.sol\":15603:15644  IERC721Receiver.onERC721Received.selector */\n      shl(0xe0, 0x150b7a02)\n        /* \"openzeppelin/contract/token/ERC721/ERC721.sol\":15593:15644  retval == IERC721Receiver.onERC721Received.selector */\n      not(0xffffffffffffffffffffffffffffffffffffffffffffffffffffffff)\n      and\n        /* \"openzeppelin/contract/token/ERC721/ERC721.sol\":15593:15599  retval */\n      dup2\n        /* \"openzeppelin/contract/token/ERC721/ERC721.sol\":15593:15644  retval == IERC721Receiver.onERC721Received.selector */\n      not(0xffffffffffffffffffffffffffffffffffffffffffffffffffffffff)\n      and\n      eq\n        /* \"openzeppelin/contract/token/ERC721/ERC721.sol\":15586:15644  return retval == IERC721Receiver.onERC721Received.selector */\n      swap2\n      pop\n      pop\n      jump(tag_225)\n        /* \"openzeppelin/contract/token/ERC721/ERC721.sol\":15431:16106  if (to.isContract()) {\r... */\n    tag_228:\n        /* \"openzeppelin/contract/token/ERC721/ERC721.sol\":16090:16094  true */\n      0x01\n        /* \"openzeppelin/contract/token/ERC721/ERC721.sol\":16083:16094  return true */\n      swap1\n      pop\n        /* \"openzeppelin/contract/token/ERC721/ERC721.sol\":15260:16113  function _checkOnERC721Received(\r... */\n    tag_225:\n      swap5\n      swap4\n      pop\n      pop\n      pop\n      pop\n      jump\t// out\n        /* \"@openzeppelin/contracts@4.9.3/utils/Address.sol\":1412:1732  function isContract(address account) internal view returns (bool) {... */\n    tag_227:\n        /* \"@openzeppelin/contracts@4.9.3/utils/Address.sol\":1472:1476  bool */\n      0x00\n        /* \"@openzeppelin/contracts@4.9.3/utils/Address.sol\":1724:1725  0 */\n      dup1\n        /* \"@openzeppelin/contracts@4.9.3/utils/Address.sol\":1702:1709  account */\n      dup3\n        /* \"@openzeppelin/contracts@4.9.3/utils/Address.sol\":1702:1721  account.code.length */\n      0xffffffffffffffffffffffffffffffffffffffff\n      and\n      extcodesize\n        /* \"@openzeppelin/contracts@4.9.3/utils/Address.sol\":1702:1725  account.code.length > 0 */\n      gt\n        /* \"@openzeppelin/contracts@4.9.3/utils/Address.sol\":1695:1725  return account.code.length > 0 */\n      swap1\n      pop\n        /* \"@openzeppelin/contracts@4.9.3/utils/Address.sol\":1412:1732  function isContract(address account) internal view returns (bool) {... */\n      swap2\n      swap1\n      pop\n      jump\t// out\n        /* \"#utility.yul\":7:350   */\n    tag_249:\n      0x00\n        /* \"#utility.yul\":109:174   */\n      tag_251\n        /* \"#utility.yul\":125:173   */\n      tag_252\n        /* \"#utility.yul\":166:172   */\n      dup5\n        /* \"#utility.yul\":125:173   */\n      tag_253\n      jump\t// in\n    tag_252:\n        /* \"#utility.yul\":109:174   */\n      tag_254\n      jump\t// in\n    tag_251:\n        /* \"#utility.yul\":100:174   */\n      swap1\n      pop\n        /* \"#utility.yul\":197:203   */\n      dup3\n        /* \"#utility.yul\":190:195   */\n      dup2\n        /* \"#utility.yul\":183:204   */\n      mstore\n        /* \"#utility.yul\":235:239   */\n      0x20\n        /* \"#utility.yul\":228:233   */\n      dup2\n        /* \"#utility.yul\":224:240   */\n      add\n        /* \"#utility.yul\":273:276   */\n      dup5\n        /* \"#utility.yul\":264:270   */\n      dup5\n        /* \"#utility.yul\":259:262   */\n      dup5\n        /* \"#utility.yul\":255:271   */\n      add\n        /* \"#utility.yul\":252:277   */\n      gt\n        /* \"#utility.yul\":249:251   */\n      iszero\n      tag_255\n      jumpi\n        /* \"#utility.yul\":290:291   */\n      0x00\n        /* \"#utility.yul\":287:288   */\n      dup1\n        /* \"#utility.yul\":280:292   */\n      revert\n        /* \"#utility.yul\":249:251   */\n    tag_255:\n        /* \"#utility.yul\":303:344   */\n      tag_256\n        /* \"#utility.yul\":337:343   */\n      dup5\n        /* \"#utility.yul\":332:335   */\n      dup3\n        /* \"#utility.yul\":327:330   */\n      dup6\n        /* \"#utility.yul\":303:344   */\n      tag_257\n      jump\t// in\n    tag_256:\n        /* \"#utility.yul\":90:350   */\n      pop\n      swap4\n      swap3\n      pop\n      pop\n      pop\n      jump\t// out\n        /* \"#utility.yul\":356:495   */\n    tag_258:\n      0x00\n        /* \"#utility.yul\":440:446   */\n      dup2\n        /* \"#utility.yul\":427:447   */\n      calldataload\n        /* \"#utility.yul\":418:447   */\n      swap1\n      pop\n        /* \"#utility.yul\":456:489   */\n      tag_260\n        /* \"#utility.yul\":483:488   */\n      dup2\n        /* \"#utility.yul\":456:489   */\n      tag_261\n      jump\t// in\n    tag_260:\n        /* \"#utility.yul\":408:495   */\n      swap3\n      swap2\n      pop\n      pop\n      jump\t// out\n        /* \"#utility.yul\":501:634   */\n    tag_262:\n      0x00\n        /* \"#utility.yul\":582:588   */\n      dup2\n        /* \"#utility.yul\":569:589   */\n      calldataload\n        /* \"#utility.yul\":560:589   */\n      swap1\n      pop\n        /* \"#utility.yul\":598:628   */\n      tag_264\n        /* \"#utility.yul\":622:627   */\n      dup2\n        /* \"#utility.yul\":598:628   */\n      tag_265\n      jump\t// in\n    tag_264:\n        /* \"#utility.yul\":550:634   */\n      swap3\n      swap2\n      pop\n      pop\n      jump\t// out\n        /* \"#utility.yul\":640:777   */\n    tag_266:\n      0x00\n        /* \"#utility.yul\":723:729   */\n      dup2\n        /* \"#utility.yul\":710:730   */\n      calldataload\n        /* \"#utility.yul\":701:730   */\n      swap1\n      pop\n        /* \"#utility.yul\":739:771   */\n      tag_268\n        /* \"#utility.yul\":765:770   */\n      dup2\n        /* \"#utility.yul\":739:771   */\n      tag_269\n      jump\t// in\n    tag_268:\n        /* \"#utility.yul\":691:777   */\n      swap3\n      swap2\n      pop\n      pop\n      jump\t// out\n        /* \"#utility.yul\":783:924   */\n    tag_270:\n      0x00\n        /* \"#utility.yul\":870:876   */\n      dup2\n        /* \"#utility.yul\":864:877   */\n      mload\n        /* \"#utility.yul\":855:877   */\n      swap1\n      pop\n        /* \"#utility.yul\":886:918   */\n      tag_272\n        /* \"#utility.yul\":912:917   */\n      dup2\n        /* \"#utility.yul\":886:918   */\n      tag_269\n      jump\t// in\n    tag_272:\n        /* \"#utility.yul\":845:924   */\n      swap3\n      swap2\n      pop\n      pop\n      jump\t// out\n        /* \"#utility.yul\":943:1214   */\n    tag_273:\n      0x00\n        /* \"#utility.yul\":1047:1050   */\n      dup3\n        /* \"#utility.yul\":1040:1044   */\n      0x1f\n        /* \"#utility.yul\":1032:1038   */\n      dup4\n        /* \"#utility.yul\":1028:1045   */\n      add\n        /* \"#utility.yul\":1024:1051   */\n      slt\n        /* \"#utility.yul\":1014:1016   */\n      tag_275\n      jumpi\n        /* \"#utility.yul\":1065:1066   */\n      0x00\n        /* \"#utility.yul\":1062:1063   */\n      dup1\n        /* \"#utility.yul\":1055:1067   */\n      revert\n        /* \"#utility.yul\":1014:1016   */\n    tag_275:\n        /* \"#utility.yul\":1105:1111   */\n      dup2\n        /* \"#utility.yul\":1092:1112   */\n      calldataload\n        /* \"#utility.yul\":1130:1208   */\n      tag_276\n        /* \"#utility.yul\":1204:1207   */\n      dup5\n        /* \"#utility.yul\":1196:1202   */\n      dup3\n        /* \"#utility.yul\":1189:1193   */\n      0x20\n        /* \"#utility.yul\":1181:1187   */\n      dup7\n        /* \"#utility.yul\":1177:1194   */\n      add\n        /* \"#utility.yul\":1130:1208   */\n      tag_249\n      jump\t// in\n    tag_276:\n        /* \"#utility.yul\":1121:1208   */\n      swap2\n      pop\n        /* \"#utility.yul\":1004:1214   */\n      pop\n      swap3\n      swap2\n      pop\n      pop\n      jump\t// out\n        /* \"#utility.yul\":1220:1359   */\n    tag_277:\n      0x00\n        /* \"#utility.yul\":1304:1310   */\n      dup2\n        /* \"#utility.yul\":1291:1311   */\n      calldataload\n        /* \"#utility.yul\":1282:1311   */\n      swap1\n      pop\n        /* \"#utility.yul\":1320:1353   */\n      tag_279\n        /* \"#utility.yul\":1347:1352   */\n      dup2\n        /* \"#utility.yul\":1320:1353   */\n      tag_280\n      jump\t// in\n    tag_279:\n        /* \"#utility.yul\":1272:1359   */\n      swap3\n      swap2\n      pop\n      pop\n      jump\t// out\n        /* \"#utility.yul\":1365:1627   */\n    tag_53:\n      0x00\n        /* \"#utility.yul\":1473:1475   */\n      0x20\n        /* \"#utility.yul\":1461:1470   */\n      dup3\n        /* \"#utility.yul\":1452:1459   */\n      dup5\n        /* \"#utility.yul\":1448:1471   */\n      sub\n        /* \"#utility.yul\":1444:1476   */\n      slt\n        /* \"#utility.yul\":1441:1443   */\n      iszero\n      tag_282\n      jumpi\n        /* \"#utility.yul\":1489:1490   */\n      0x00\n        /* \"#utility.yul\":1486:1487   */\n      dup1\n        /* \"#utility.yul\":1479:1491   */\n      revert\n        /* \"#utility.yul\":1441:1443   */\n    tag_282:\n        /* \"#utility.yul\":1532:1533   */\n      0x00\n        /* \"#utility.yul\":1557:1610   */\n      tag_283\n        /* \"#utility.yul\":1602:1609   */\n      dup5\n        /* \"#utility.yul\":1593:1599   */\n      dup3\n        /* \"#utility.yul\":1582:1591   */\n      dup6\n        /* \"#utility.yul\":1578:1600   */\n      add\n        /* \"#utility.yul\":1557:1610   */\n      tag_258\n      jump\t// in\n    tag_283:\n        /* \"#utility.yul\":1547:1610   */\n      swap2\n      pop\n        /* \"#utility.yul\":1503:1620   */\n      pop\n        /* \"#utility.yul\":1431:1627   */\n      swap3\n      swap2\n      pop\n      pop\n      jump\t// out\n        /* \"#utility.yul\":1633:2040   */\n    tag_78:\n      0x00\n      dup1\n        /* \"#utility.yul\":1758:1760   */\n      0x40\n        /* \"#utility.yul\":1746:1755   */\n      dup4\n        /* \"#utility.yul\":1737:1744   */\n      dup6\n        /* \"#utility.yul\":1733:1756   */\n      sub\n        /* \"#utility.yul\":1729:1761   */\n      slt\n        /* \"#utility.yul\":1726:1728   */\n      iszero\n      tag_285\n      jumpi\n        /* \"#utility.yul\":1774:1775   */\n      0x00\n        /* \"#utility.yul\":1771:1772   */\n      dup1\n        /* \"#utility.yul\":1764:1776   */\n      revert\n        /* \"#utility.yul\":1726:1728   */\n    tag_285:\n        /* \"#utility.yul\":1817:1818   */\n      0x00\n        /* \"#utility.yul\":1842:1895   */\n      tag_286\n        /* \"#utility.yul\":1887:1894   */\n      dup6\n        /* \"#utility.yul\":1878:1884   */\n      dup3\n        /* \"#utility.yul\":1867:1876   */\n      dup7\n        /* \"#utility.yul\":1863:1885   */\n      add\n        /* \"#utility.yul\":1842:1895   */\n      tag_258\n      jump\t// in\n    tag_286:\n        /* \"#utility.yul\":1832:1895   */\n      swap3\n      pop\n        /* \"#utility.yul\":1788:1905   */\n      pop\n        /* \"#utility.yul\":1944:1946   */\n      0x20\n        /* \"#utility.yul\":1970:2023   */\n      tag_287\n        /* \"#utility.yul\":2015:2022   */\n      dup6\n        /* \"#utility.yul\":2006:2012   */\n      dup3\n        /* \"#utility.yul\":1995:2004   */\n      dup7\n        /* \"#utility.yul\":1991:2013   */\n      add\n        /* \"#utility.yul\":1970:2023   */\n      tag_258\n      jump\t// in\n    tag_287:\n        /* \"#utility.yul\":1960:2023   */\n      swap2\n      pop\n        /* \"#utility.yul\":1915:2033   */\n      pop\n        /* \"#utility.yul\":1716:2040   */\n      swap3\n      pop\n      swap3\n      swap1\n      pop\n      jump\t// out\n        /* \"#utility.yul\":2046:2598   */\n    tag_42:\n      0x00\n      dup1\n      0x00\n        /* \"#utility.yul\":2188:2190   */\n      0x60\n        /* \"#utility.yul\":2176:2185   */\n      dup5\n        /* \"#utility.yul\":2167:2174   */\n      dup7\n        /* \"#utility.yul\":2163:2186   */\n      sub\n        /* \"#utility.yul\":2159:2191   */\n      slt\n        /* \"#utility.yul\":2156:2158   */\n      iszero\n      tag_289\n      jumpi\n        /* \"#utility.yul\":2204:2205   */\n      0x00\n        /* \"#utility.yul\":2201:2202   */\n      dup1\n        /* \"#utility.yul\":2194:2206   */\n      revert\n        /* \"#utility.yul\":2156:2158   */\n    tag_289:\n        /* \"#utility.yul\":2247:2248   */\n      0x00\n        /* \"#utility.yul\":2272:2325   */\n      tag_290\n        /* \"#utility.yul\":2317:2324   */\n      dup7\n        /* \"#utility.yul\":2308:2314   */\n      dup3\n        /* \"#utility.yul\":2297:2306   */\n      dup8\n        /* \"#utility.yul\":2293:2315   */\n      add\n        /* \"#utility.yul\":2272:2325   */\n      tag_258\n      jump\t// in\n    tag_290:\n        /* \"#utility.yul\":2262:2325   */\n      swap4\n      pop\n        /* \"#utility.yul\":2218:2335   */\n      pop\n        /* \"#utility.yul\":2374:2376   */\n      0x20\n        /* \"#utility.yul\":2400:2453   */\n      tag_291\n        /* \"#utility.yul\":2445:2452   */\n      dup7\n        /* \"#utility.yul\":2436:2442   */\n      dup3\n        /* \"#utility.yul\":2425:2434   */\n      dup8\n        /* \"#utility.yul\":2421:2443   */\n      add\n        /* \"#utility.yul\":2400:2453   */\n      tag_258\n      jump\t// in\n    tag_291:\n        /* \"#utility.yul\":2390:2453   */\n      swap3\n      pop\n        /* \"#utility.yul\":2345:2463   */\n      pop\n        /* \"#utility.yul\":2502:2504   */\n      0x40\n        /* \"#utility.yul\":2528:2581   */\n      tag_292\n        /* \"#utility.yul\":2573:2580   */\n      dup7\n        /* \"#utility.yul\":2564:2570   */\n      dup3\n        /* \"#utility.yul\":2553:2562   */\n      dup8\n        /* \"#utility.yul\":2549:2571   */\n      add\n        /* \"#utility.yul\":2528:2581   */\n      tag_277\n      jump\t// in\n    tag_292:\n        /* \"#utility.yul\":2518:2581   */\n      swap2\n      pop\n        /* \"#utility.yul\":2473:2591   */\n      pop\n        /* \"#utility.yul\":2146:2598   */\n      swap3\n      pop\n      swap3\n      pop\n      swap3\n      jump\t// out\n        /* \"#utility.yul\":2604:3413   */\n    tag_66:\n      0x00\n      dup1\n      0x00\n      dup1\n        /* \"#utility.yul\":2772:2775   */\n      0x80\n        /* \"#utility.yul\":2760:2769   */\n      dup6\n        /* \"#utility.yul\":2751:2758   */\n      dup8\n        /* \"#utility.yul\":2747:2770   */\n      sub\n        /* \"#utility.yul\":2743:2776   */\n      slt\n        /* \"#utility.yul\":2740:2742   */\n      iszero\n      tag_294\n      jumpi\n        /* \"#utility.yul\":2789:2790   */\n      0x00\n        /* \"#utility.yul\":2786:2787   */\n      dup1\n        /* \"#utility.yul\":2779:2791   */\n      revert\n        /* \"#utility.yul\":2740:2742   */\n    tag_294:\n        /* \"#utility.yul\":2832:2833   */\n      0x00\n        /* \"#utility.yul\":2857:2910   */\n      tag_295\n        /* \"#utility.yul\":2902:2909   */\n      dup8\n        /* \"#utility.yul\":2893:2899   */\n      dup3\n        /* \"#utility.yul\":2882:2891   */\n      dup9\n        /* \"#utility.yul\":2878:2900   */\n      add\n        /* \"#utility.yul\":2857:2910   */\n      tag_258\n      jump\t// in\n    tag_295:\n        /* \"#utility.yul\":2847:2910   */\n      swap5\n      pop\n        /* \"#utility.yul\":2803:2920   */\n      pop\n        /* \"#utility.yul\":2959:2961   */\n      0x20\n        /* \"#utility.yul\":2985:3038   */\n      tag_296\n        /* \"#utility.yul\":3030:3037   */\n      dup8\n        /* \"#utility.yul\":3021:3027   */\n      dup3\n        /* \"#utility.yul\":3010:3019   */\n      dup9\n        /* \"#utility.yul\":3006:3028   */\n      add\n        /* \"#utility.yul\":2985:3038   */\n      tag_258\n      jump\t// in\n    tag_296:\n        /* \"#utility.yul\":2975:3038   */\n      swap4\n      pop\n        /* \"#utility.yul\":2930:3048   */\n      pop\n        /* \"#utility.yul\":3087:3089   */\n      0x40\n        /* \"#utility.yul\":3113:3166   */\n      tag_297\n        /* \"#utility.yul\":3158:3165   */\n      dup8\n        /* \"#utility.yul\":3149:3155   */\n      dup3\n        /* \"#utility.yul\":3138:3147   */\n      dup9\n        /* \"#utility.yul\":3134:3156   */\n      add\n        /* \"#utility.yul\":3113:3166   */\n      tag_277\n      jump\t// in\n    tag_297:\n        /* \"#utility.yul\":3103:3166   */\n      swap3\n      pop\n        /* \"#utility.yul\":3058:3176   */\n      pop\n        /* \"#utility.yul\":3243:3245   */\n      0x60\n        /* \"#utility.yul\":3232:3241   */\n      dup6\n        /* \"#utility.yul\":3228:3246   */\n      add\n        /* \"#utility.yul\":3215:3247   */\n      calldataload\n        /* \"#utility.yul\":3274:3292   */\n      0xffffffffffffffff\n        /* \"#utility.yul\":3266:3272   */\n      dup2\n        /* \"#utility.yul\":3263:3293   */\n      gt\n        /* \"#utility.yul\":3260:3262   */\n      iszero\n      tag_298\n      jumpi\n        /* \"#utility.yul\":3306:3307   */\n      0x00\n        /* \"#utility.yul\":3303:3304   */\n      dup1\n        /* \"#utility.yul\":3296:3308   */\n      revert\n        /* \"#utility.yul\":3260:3262   */\n    tag_298:\n        /* \"#utility.yul\":3334:3396   */\n      tag_299\n        /* \"#utility.yul\":3388:3395   */\n      dup8\n        /* \"#utility.yul\":3379:3385   */\n      dup3\n        /* \"#utility.yul\":3368:3377   */\n      dup9\n        /* \"#utility.yul\":3364:3386   */\n      add\n        /* \"#utility.yul\":3334:3396   */\n      tag_273\n      jump\t// in\n    tag_299:\n        /* \"#utility.yul\":3324:3396   */\n      swap2\n      pop\n        /* \"#utility.yul\":3186:3406   */\n      pop\n        /* \"#utility.yul\":2730:3413   */\n      swap3\n      swap6\n      swap2\n      swap5\n      pop\n      swap3\n      pop\n      jump\t// out\n        /* \"#utility.yul\":3419:3820   */\n    tag_62:\n      0x00\n      dup1\n        /* \"#utility.yul\":3541:3543   */\n      0x40\n        /* \"#utility.yul\":3529:3538   */\n      dup4\n        /* \"#utility.yul\":3520:3527   */\n      dup6\n        /* \"#utility.yul\":3516:3539   */\n      sub\n        /* \"#utility.yul\":3512:3544   */\n      slt\n        /* \"#utility.yul\":3509:3511   */\n      iszero\n      tag_301\n      jumpi\n        /* \"#utility.yul\":3557:3558   */\n      0x00\n        /* \"#utility.yul\":3554:3555   */\n      dup1\n        /* \"#utility.yul\":3547:3559   */\n      revert\n        /* \"#utility.yul\":3509:3511   */\n    tag_301:\n        /* \"#utility.yul\":3600:3601   */\n      0x00\n        /* \"#utility.yul\":3625:3678   */\n      tag_302\n        /* \"#utility.yul\":3670:3677   */\n      dup6\n        /* \"#utility.yul\":3661:3667   */\n      dup3\n        /* \"#utility.yul\":3650:3659   */\n      dup7\n        /* \"#utility.yul\":3646:3668   */\n      add\n        /* \"#utility.yul\":3625:3678   */\n      tag_258\n      jump\t// in\n    tag_302:\n        /* \"#utility.yul\":3615:3678   */\n      swap3\n      pop\n        /* \"#utility.yul\":3571:3688   */\n      pop\n        /* \"#utility.yul\":3727:3729   */\n      0x20\n        /* \"#utility.yul\":3753:3803   */\n      tag_303\n        /* \"#utility.yul\":3795:3802   */\n      dup6\n        /* \"#utility.yul\":3786:3792   */\n      dup3\n        /* \"#utility.yul\":3775:3784   */\n      dup7\n        /* \"#utility.yul\":3771:3793   */\n      add\n        /* \"#utility.yul\":3753:3803   */\n      tag_262\n      jump\t// in\n    tag_303:\n        /* \"#utility.yul\":3743:3803   */\n      swap2\n      pop\n        /* \"#utility.yul\":3698:3813   */\n      pop\n        /* \"#utility.yul\":3499:3820   */\n      swap3\n      pop\n      swap3\n      swap1\n      pop\n      jump\t// out\n        /* \"#utility.yul\":3826:4233   */\n    tag_38:\n      0x00\n      dup1\n        /* \"#utility.yul\":3951:3953   */\n      0x40\n        /* \"#utility.yul\":3939:3948   */\n      dup4\n        /* \"#utility.yul\":3930:3937   */\n      dup6\n        /* \"#utility.yul\":3926:3949   */\n      sub\n        /* \"#utility.yul\":3922:3954   */\n      slt\n        /* \"#utility.yul\":3919:3921   */\n      iszero\n      tag_305\n      jumpi\n        /* \"#utility.yul\":3967:3968   */\n      0x00\n        /* \"#utility.yul\":3964:3965   */\n      dup1\n        /* \"#utility.yul\":3957:3969   */\n      revert\n        /* \"#utility.yul\":3919:3921   */\n    tag_305:\n        /* \"#utility.yul\":4010:4011   */\n      0x00\n        /* \"#utility.yul\":4035:4088   */\n      tag_306\n        /* \"#utility.yul\":4080:4087   */\n      dup6\n        /* \"#utility.yul\":4071:4077   */\n      dup3\n        /* \"#utility.yul\":4060:4069   */\n      dup7\n        /* \"#utility.yul\":4056:4078   */\n      add\n        /* \"#utility.yul\":4035:4088   */\n      tag_258\n      jump\t// in\n    tag_306:\n        /* \"#utility.yul\":4025:4088   */\n      swap3\n      pop\n        /* \"#utility.yul\":3981:4098   */\n      pop\n        /* \"#utility.yul\":4137:4139   */\n      0x20\n        /* \"#utility.yul\":4163:4216   */\n      tag_307\n        /* \"#utility.yul\":4208:4215   */\n      dup6\n        /* \"#utility.yul\":4199:4205   */\n      dup3\n        /* \"#utility.yul\":4188:4197   */\n      dup7\n        /* \"#utility.yul\":4184:4206   */\n      add\n        /* \"#utility.yul\":4163:4216   */\n      tag_277\n      jump\t// in\n    tag_307:\n        /* \"#utility.yul\":4153:4216   */\n      swap2\n      pop\n        /* \"#utility.yul\":4108:4226   */\n      pop\n        /* \"#utility.yul\":3909:4233   */\n      swap3\n      pop\n      swap3\n      swap1\n      pop\n      jump\t// out\n        /* \"#utility.yul\":4239:4499   */\n    tag_22:\n      0x00\n        /* \"#utility.yul\":4346:4348   */\n      0x20\n        /* \"#utility.yul\":4334:4343   */\n      dup3\n        /* \"#utility.yul\":4325:4332   */\n      dup5\n        /* \"#utility.yul\":4321:4344   */\n      sub\n        /* \"#utility.yul\":4317:4349   */\n      slt\n        /* \"#utility.yul\":4314:4316   */\n      iszero\n      tag_309\n      jumpi\n        /* \"#utility.yul\":4362:4363   */\n      0x00\n        /* \"#utility.yul\":4359:4360   */\n      dup1\n        /* \"#utility.yul\":4352:4364   */\n      revert\n        /* \"#utility.yul\":4314:4316   */\n    tag_309:\n        /* \"#utility.yul\":4405:4406   */\n      0x00\n        /* \"#utility.yul\":4430:4482   */\n      tag_310\n        /* \"#utility.yul\":4474:4481   */\n      dup5\n        /* \"#utility.yul\":4465:4471   */\n      dup3\n        /* \"#utility.yul\":4454:4463   */\n      dup6\n        /* \"#utility.yul\":4450:4472   */\n      add\n        /* \"#utility.yul\":4430:4482   */\n      tag_266\n      jump\t// in\n    tag_310:\n        /* \"#utility.yul\":4420:4482   */\n      swap2\n      pop\n        /* \"#utility.yul\":4376:4492   */\n      pop\n        /* \"#utility.yul\":4304:4499   */\n      swap3\n      swap2\n      pop\n      pop\n      jump\t// out\n        /* \"#utility.yul\":4505:4787   */\n    tag_235:\n      0x00\n        /* \"#utility.yul\":4623:4625   */\n      0x20\n        /* \"#utility.yul\":4611:4620   */\n      dup3\n        /* \"#utility.yul\":4602:4609   */\n      dup5\n        /* \"#utility.yul\":4598:4621   */\n      sub\n        /* \"#utility.yul\":4594:4626   */\n      slt\n        /* \"#utility.yul\":4591:4593   */\n      iszero\n      tag_312\n      jumpi\n        /* \"#utility.yul\":4639:4640   */\n      0x00\n        /* \"#utility.yul\":4636:4637   */\n      dup1\n        /* \"#utility.yul\":4629:4641   */\n      revert\n        /* \"#utility.yul\":4591:4593   */\n    tag_312:\n        /* \"#utility.yul\":4682:4683   */\n      0x00\n        /* \"#utility.yul\":4707:4770   */\n      tag_313\n        /* \"#utility.yul\":4762:4769   */\n      dup5\n        /* \"#utility.yul\":4753:4759   */\n      dup3\n        /* \"#utility.yul\":4742:4751   */\n      dup6\n        /* \"#utility.yul\":4738:4760   */\n      add\n        /* \"#utility.yul\":4707:4770   */\n      tag_270\n      jump\t// in\n    tag_313:\n        /* \"#utility.yul\":4697:4770   */\n      swap2\n      pop\n        /* \"#utility.yul\":4653:4780   */\n      pop\n        /* \"#utility.yul\":4581:4787   */\n      swap3\n      swap2\n      pop\n      pop\n      jump\t// out\n        /* \"#utility.yul\":4793:5055   */\n    tag_32:\n      0x00\n        /* \"#utility.yul\":4901:4903   */\n      0x20\n        /* \"#utility.yul\":4889:4898   */\n      dup3\n        /* \"#utility.yul\":4880:4887   */\n      dup5\n        /* \"#utility.yul\":4876:4899   */\n      sub\n        /* \"#utility.yul\":4872:4904   */\n      slt\n        /* \"#utility.yul\":4869:4871   */\n      iszero\n      tag_315\n      jumpi\n        /* \"#utility.yul\":4917:4918   */\n      0x00\n        /* \"#utility.yul\":4914:4915   */\n      dup1\n        /* \"#utility.yul\":4907:4919   */\n      revert\n        /* \"#utility.yul\":4869:4871   */\n    tag_315:\n        /* \"#utility.yul\":4960:4961   */\n      0x00\n        /* \"#utility.yul\":4985:5038   */\n      tag_316\n        /* \"#utility.yul\":5030:5037   */\n      dup5\n        /* \"#utility.yul\":5021:5027   */\n      dup3\n        /* \"#utility.yul\":5010:5019   */\n      dup6\n        /* \"#utility.yul\":5006:5028   */\n      add\n        /* \"#utility.yul\":4985:5038   */\n      tag_277\n      jump\t// in\n    tag_316:\n        /* \"#utility.yul\":4975:5038   */\n      swap2\n      pop\n        /* \"#utility.yul\":4931:5048   */\n      pop\n        /* \"#utility.yul\":4859:5055   */\n      swap3\n      swap2\n      pop\n      pop\n      jump\t// out\n        /* \"#utility.yul\":5061:5179   */\n    tag_317:\n        /* \"#utility.yul\":5148:5172   */\n      tag_319\n        /* \"#utility.yul\":5166:5171   */\n      dup2\n        /* \"#utility.yul\":5148:5172   */\n      tag_320\n      jump\t// in\n    tag_319:\n        /* \"#utility.yul\":5143:5146   */\n      dup3\n        /* \"#utility.yul\":5136:5173   */\n      mstore\n        /* \"#utility.yul\":5126:5179   */\n      pop\n      pop\n      jump\t// out\n        /* \"#utility.yul\":5185:5294   */\n    tag_321:\n        /* \"#utility.yul\":5266:5287   */\n      tag_323\n        /* \"#utility.yul\":5281:5286   */\n      dup2\n        /* \"#utility.yul\":5266:5287   */\n      tag_324\n      jump\t// in\n    tag_323:\n        /* \"#utility.yul\":5261:5264   */\n      dup3\n        /* \"#utility.yul\":5254:5288   */\n      mstore\n        /* \"#utility.yul\":5244:5294   */\n      pop\n      pop\n      jump\t// out\n        /* \"#utility.yul\":5300:5660   */\n    tag_325:\n      0x00\n        /* \"#utility.yul\":5414:5452   */\n      tag_327\n        /* \"#utility.yul\":5446:5451   */\n      dup3\n        /* \"#utility.yul\":5414:5452   */\n      tag_328\n      jump\t// in\n    tag_327:\n        /* \"#utility.yul\":5468:5538   */\n      tag_329\n        /* \"#utility.yul\":5531:5537   */\n      dup2\n        /* \"#utility.yul\":5526:5529   */\n      dup6\n        /* \"#utility.yul\":5468:5538   */\n      tag_330\n      jump\t// in\n    tag_329:\n        /* \"#utility.yul\":5461:5538   */\n      swap4\n      pop\n        /* \"#utility.yul\":5547:5599   */\n      tag_331\n        /* \"#utility.yul\":5592:5598   */\n      dup2\n        /* \"#utility.yul\":5587:5590   */\n      dup6\n        /* \"#utility.yul\":5580:5584   */\n      0x20\n        /* \"#utility.yul\":5573:5578   */\n      dup7\n        /* \"#utility.yul\":5569:5585   */\n      add\n        /* \"#utility.yul\":5547:5599   */\n      tag_332\n      jump\t// in\n    tag_331:\n        /* \"#utility.yul\":5624:5653   */\n      tag_333\n        /* \"#utility.yul\":5646:5652   */\n      dup2\n        /* \"#utility.yul\":5624:5653   */\n      tag_334\n      jump\t// in\n    tag_333:\n        /* \"#utility.yul\":5619:5622   */\n      dup5\n        /* \"#utility.yul\":5615:5654   */\n      add\n        /* \"#utility.yul\":5608:5654   */\n      swap2\n      pop\n        /* \"#utility.yul\":5390:5660   */\n      pop\n      swap3\n      swap2\n      pop\n      pop\n      jump\t// out\n        /* \"#utility.yul\":5666:6039   */\n    tag_335:\n      0x00\n        /* \"#utility.yul\":5798:5836   */\n      tag_337\n        /* \"#utility.yul\":5830:5835   */\n      dup3\n        /* \"#utility.yul\":5798:5836   */\n      tag_328\n      jump\t// in\n    tag_337:\n        /* \"#utility.yul\":5852:5940   */\n      tag_338\n        /* \"#utility.yul\":5933:5939   */\n      dup2\n        /* \"#utility.yul\":5928:5931   */\n      dup6\n        /* \"#utility.yul\":5852:5940   */\n      tag_339\n      jump\t// in\n    tag_338:\n        /* \"#utility.yul\":5845:5940   */\n      swap4\n      pop\n        /* \"#utility.yul\":5949:6001   */\n      tag_340\n        /* \"#utility.yul\":5994:6000   */\n      dup2\n        /* \"#utility.yul\":5989:5992   */\n      dup6\n        /* \"#utility.yul\":5982:5986   */\n      0x20\n        /* \"#utility.yul\":5975:5980   */\n      dup7\n        /* \"#utility.yul\":5971:5987   */\n      add\n        /* \"#utility.yul\":5949:6001   */\n      tag_332\n      jump\t// in\n    tag_340:\n        /* \"#utility.yul\":6026:6032   */\n      dup1\n        /* \"#utility.yul\":6021:6024   */\n      dup5\n        /* \"#utility.yul\":6017:6033   */\n      add\n        /* \"#utility.yul\":6010:6033   */\n      swap2\n      pop\n        /* \"#utility.yul\":5774:6039   */\n      pop\n      swap3\n      swap2\n      pop\n      pop\n      jump\t// out\n        /* \"#utility.yul\":6045:6411   */\n    tag_341:\n      0x00\n        /* \"#utility.yul\":6208:6275   */\n      tag_343\n        /* \"#utility.yul\":6272:6274   */\n      0x2d\n        /* \"#utility.yul\":6267:6270   */\n      dup4\n        /* \"#utility.yul\":6208:6275   */\n      tag_344\n      jump\t// in\n    tag_343:\n        /* \"#utility.yul\":6201:6275   */\n      swap2\n      pop\n        /* \"#utility.yul\":6284:6377   */\n      tag_345\n        /* \"#utility.yul\":6373:6376   */\n      dup3\n        /* \"#utility.yul\":6284:6377   */\n      tag_346\n      jump\t// in\n    tag_345:\n        /* \"#utility.yul\":6402:6404   */\n      0x40\n        /* \"#utility.yul\":6397:6400   */\n      dup3\n        /* \"#utility.yul\":6393:6405   */\n      add\n        /* \"#utility.yul\":6386:6405   */\n      swap1\n      pop\n        /* \"#utility.yul\":6191:6411   */\n      swap2\n      swap1\n      pop\n      jump\t// out\n        /* \"#utility.yul\":6417:6783   */\n    tag_347:\n      0x00\n        /* \"#utility.yul\":6580:6647   */\n      tag_349\n        /* \"#utility.yul\":6644:6646   */\n      0x32\n        /* \"#utility.yul\":6639:6642   */\n      dup4\n        /* \"#utility.yul\":6580:6647   */\n      tag_344\n      jump\t// in\n    tag_349:\n        /* \"#utility.yul\":6573:6647   */\n      swap2\n      pop\n        /* \"#utility.yul\":6656:6749   */\n      tag_350\n        /* \"#utility.yul\":6745:6748   */\n      dup3\n        /* \"#utility.yul\":6656:6749   */\n      tag_351\n      jump\t// in\n    tag_350:\n        /* \"#utility.yul\":6774:6776   */\n      0x40\n        /* \"#utility.yul\":6769:6772   */\n      dup3\n        /* \"#utility.yul\":6765:6777   */\n      add\n        /* \"#utility.yul\":6758:6777   */\n      swap1\n      pop\n        /* \"#utility.yul\":6563:6783   */\n      swap2\n      swap1\n      pop\n      jump\t// out\n        /* \"#utility.yul\":6789:7155   */\n    tag_352:\n      0x00\n        /* \"#utility.yul\":6952:7019   */\n      tag_354\n        /* \"#utility.yul\":7016:7018   */\n      0x25\n        /* \"#utility.yul\":7011:7014   */\n      dup4\n        /* \"#utility.yul\":6952:7019   */\n      tag_344\n      jump\t// in\n    tag_354:\n        /* \"#utility.yul\":6945:7019   */\n      swap2\n      pop\n        /* \"#utility.yul\":7028:7121   */\n      tag_355\n        /* \"#utility.yul\":7117:7120   */\n      dup3\n        /* \"#utility.yul\":7028:7121   */\n      tag_356\n      jump\t// in\n    tag_355:\n        /* \"#utility.yul\":7146:7148   */\n      0x40\n        /* \"#utility.yul\":7141:7144   */\n      dup3\n        /* \"#utility.yul\":7137:7149   */\n      add\n        /* \"#utility.yul\":7130:7149   */\n      swap1\n      pop\n        /* \"#utility.yul\":6935:7155   */\n      swap2\n      swap1\n      pop\n      jump\t// out\n        /* \"#utility.yul\":7161:7527   */\n    tag_357:\n      0x00\n        /* \"#utility.yul\":7324:7391   */\n      tag_359\n        /* \"#utility.yul\":7388:7390   */\n      0x24\n        /* \"#utility.yul\":7383:7386   */\n      dup4\n        /* \"#utility.yul\":7324:7391   */\n      tag_344\n      jump\t// in\n    tag_359:\n        /* \"#utility.yul\":7317:7391   */\n      swap2\n      pop\n        /* \"#utility.yul\":7400:7493   */\n      tag_360\n        /* \"#utility.yul\":7489:7492   */\n      dup3\n        /* \"#utility.yul\":7400:7493   */\n      tag_361\n      jump\t// in\n    tag_360:\n        /* \"#utility.yul\":7518:7520   */\n      0x40\n        /* \"#utility.yul\":7513:7516   */\n      dup3\n        /* \"#utility.yul\":7509:7521   */\n      add\n        /* \"#utility.yul\":7502:7521   */\n      swap1\n      pop\n        /* \"#utility.yul\":7307:7527   */\n      swap2\n      swap1\n      pop\n      jump\t// out\n        /* \"#utility.yul\":7533:7899   */\n    tag_362:\n      0x00\n        /* \"#utility.yul\":7696:7763   */\n      tag_364\n        /* \"#utility.yul\":7760:7762   */\n      0x19\n        /* \"#utility.yul\":7755:7758   */\n      dup4\n        /* \"#utility.yul\":7696:7763   */\n      tag_344\n      jump\t// in\n    tag_364:\n        /* \"#utility.yul\":7689:7763   */\n      swap2\n      pop\n        /* \"#utility.yul\":7772:7865   */\n      tag_365\n        /* \"#utility.yul\":7861:7864   */\n      dup3\n        /* \"#utility.yul\":7772:7865   */\n      tag_366\n      jump\t// in\n    tag_365:\n        /* \"#utility.yul\":7890:7892   */\n      0x20\n        /* \"#utility.yul\":7885:7888   */\n      dup3\n        /* \"#utility.yul\":7881:7893   */\n      add\n        /* \"#utility.yul\":7874:7893   */\n      swap1\n      pop\n        /* \"#utility.yul\":7679:7899   */\n      swap2\n      swap1\n      pop\n      jump\t// out\n        /* \"#utility.yul\":7905:8271   */\n    tag_367:\n      0x00\n        /* \"#utility.yul\":8068:8135   */\n      tag_369\n        /* \"#utility.yul\":8132:8134   */\n      0x29\n        /* \"#utility.yul\":8127:8130   */\n      dup4\n        /* \"#utility.yul\":8068:8135   */\n      tag_344\n      jump\t// in\n    tag_369:\n        /* \"#utility.yul\":8061:8135   */\n      swap2\n      pop\n        /* \"#utility.yul\":8144:8237   */\n      tag_370\n        /* \"#utility.yul\":8233:8236   */\n      dup3\n        /* \"#utility.yul\":8144:8237   */\n      tag_371\n      jump\t// in\n    tag_370:\n        /* \"#utility.yul\":8262:8264   */\n      0x40\n        /* \"#utility.yul\":8257:8260   */\n      dup3\n        /* \"#utility.yul\":8253:8265   */\n      add\n        /* \"#utility.yul\":8246:8265   */\n      swap1\n      pop\n        /* \"#utility.yul\":8051:8271   */\n      swap2\n      swap1\n      pop\n      jump\t// out\n        /* \"#utility.yul\":8277:8643   */\n    tag_372:\n      0x00\n        /* \"#utility.yul\":8440:8507   */\n      tag_374\n        /* \"#utility.yul\":8504:8506   */\n      0x18\n        /* \"#utility.yul\":8499:8502   */\n      dup4\n        /* \"#utility.yul\":8440:8507   */\n      tag_344\n      jump\t// in\n    tag_374:\n        /* \"#utility.yul\":8433:8507   */\n      swap2\n      pop\n        /* \"#utility.yul\":8516:8609   */\n      tag_375\n        /* \"#utility.yul\":8605:8608   */\n      dup3\n        /* \"#utility.yul\":8516:8609   */\n      tag_376\n      jump\t// in\n    tag_375:\n        /* \"#utility.yul\":8634:8636   */\n      0x20\n        /* \"#utility.yul\":8629:8632   */\n      dup3\n        /* \"#utility.yul\":8625:8637   */\n      add\n        /* \"#utility.yul\":8618:8637   */\n      swap1\n      pop\n        /* \"#utility.yul\":8423:8643   */\n      swap2\n      swap1\n      pop\n      jump\t// out\n        /* \"#utility.yul\":8649:9015   */\n    tag_377:\n      0x00\n        /* \"#utility.yul\":8812:8879   */\n      tag_379\n        /* \"#utility.yul\":8876:8878   */\n      0x21\n        /* \"#utility.yul\":8871:8874   */\n      dup4\n        /* \"#utility.yul\":8812:8879   */\n      tag_344\n      jump\t// in\n    tag_379:\n        /* \"#utility.yul\":8805:8879   */\n      swap2\n      pop\n        /* \"#utility.yul\":8888:8981   */\n      tag_380\n        /* \"#utility.yul\":8977:8980   */\n      dup3\n        /* \"#utility.yul\":8888:8981   */\n      tag_381\n      jump\t// in\n    tag_380:\n        /* \"#utility.yul\":9006:9008   */\n      0x40\n        /* \"#utility.yul\":9001:9004   */\n      dup3\n        /* \"#utility.yul\":8997:9009   */\n      add\n        /* \"#utility.yul\":8990:9009   */\n      swap1\n      pop\n        /* \"#utility.yul\":8795:9015   */\n      swap2\n      swap1\n      pop\n      jump\t// out\n        /* \"#utility.yul\":9021:9387   */\n    tag_382:\n      0x00\n        /* \"#utility.yul\":9184:9251   */\n      tag_384\n        /* \"#utility.yul\":9248:9250   */\n      0x3d\n        /* \"#utility.yul\":9243:9246   */\n      dup4\n        /* \"#utility.yul\":9184:9251   */\n      tag_344\n      jump\t// in\n    tag_384:\n        /* \"#utility.yul\":9177:9251   */\n      swap2\n      pop\n        /* \"#utility.yul\":9260:9353   */\n      tag_385\n        /* \"#utility.yul\":9349:9352   */\n      dup3\n        /* \"#utility.yul\":9260:9353   */\n      tag_386\n      jump\t// in\n    tag_385:\n        /* \"#utility.yul\":9378:9380   */\n      0x40\n        /* \"#utility.yul\":9373:9376   */\n      dup3\n        /* \"#utility.yul\":9369:9381   */\n      add\n        /* \"#utility.yul\":9362:9381   */\n      swap1\n      pop\n        /* \"#utility.yul\":9167:9387   */\n      swap2\n      swap1\n      pop\n      jump\t// out\n        /* \"#utility.yul\":9393:9511   */\n    tag_387:\n        /* \"#utility.yul\":9480:9504   */\n      tag_389\n        /* \"#utility.yul\":9498:9503   */\n      dup2\n        /* \"#utility.yul\":9480:9504   */\n      tag_390\n      jump\t// in\n    tag_389:\n        /* \"#utility.yul\":9475:9478   */\n      dup3\n        /* \"#utility.yul\":9468:9505   */\n      mstore\n        /* \"#utility.yul\":9458:9511   */\n      pop\n      pop\n      jump\t// out\n        /* \"#utility.yul\":9517:9944   */\n    tag_175:\n      0x00\n        /* \"#utility.yul\":9715:9808   */\n      tag_392\n        /* \"#utility.yul\":9804:9807   */\n      dup3\n        /* \"#utility.yul\":9795:9801   */\n      dup6\n        /* \"#utility.yul\":9715:9808   */\n      tag_335\n      jump\t// in\n    tag_392:\n        /* \"#utility.yul\":9708:9808   */\n      swap2\n      pop\n        /* \"#utility.yul\":9825:9918   */\n      tag_393\n        /* \"#utility.yul\":9914:9917   */\n      dup3\n        /* \"#utility.yul\":9905:9911   */\n      dup5\n        /* \"#utility.yul\":9825:9918   */\n      tag_335\n      jump\t// in\n    tag_393:\n        /* \"#utility.yul\":9818:9918   */\n      swap2\n      pop\n        /* \"#utility.yul\":9935:9938   */\n      dup2\n        /* \"#utility.yul\":9928:9938   */\n      swap1\n      pop\n        /* \"#utility.yul\":9697:9944   */\n      swap4\n      swap3\n      pop\n      pop\n      pop\n      jump\t// out\n        /* \"#utility.yul\":9950:10172   */\n    tag_35:\n      0x00\n        /* \"#utility.yul\":10081:10083   */\n      0x20\n        /* \"#utility.yul\":10070:10079   */\n      dup3\n        /* \"#utility.yul\":10066:10084   */\n      add\n        /* \"#utility.yul\":10058:10084   */\n      swap1\n      pop\n        /* \"#utility.yul\":10094:10165   */\n      tag_395\n        /* \"#utility.yul\":10162:10163   */\n      0x00\n        /* \"#utility.yul\":10151:10160   */\n      dup4\n        /* \"#utility.yul\":10147:10164   */\n      add\n        /* \"#utility.yul\":10138:10144   */\n      dup5\n        /* \"#utility.yul\":10094:10165   */\n      tag_317\n      jump\t// in\n    tag_395:\n        /* \"#utility.yul\":10048:10172   */\n      swap3\n      swap2\n      pop\n      pop\n      jump\t// out\n        /* \"#utility.yul\":10178:10818   */\n    tag_231:\n      0x00\n        /* \"#utility.yul\":10411:10414   */\n      0x80\n        /* \"#utility.yul\":10400:10409   */\n      dup3\n        /* \"#utility.yul\":10396:10415   */\n      add\n        /* \"#utility.yul\":10388:10415   */\n      swap1\n      pop\n        /* \"#utility.yul\":10425:10496   */\n      tag_397\n        /* \"#utility.yul\":10493:10494   */\n      0x00\n        /* \"#utility.yul\":10482:10491   */\n      dup4\n        /* \"#utility.yul\":10478:10495   */\n      add\n        /* \"#utility.yul\":10469:10475   */\n      dup8\n        /* \"#utility.yul\":10425:10496   */\n      tag_317\n      jump\t// in\n    tag_397:\n        /* \"#utility.yul\":10506:10578   */\n      tag_398\n        /* \"#utility.yul\":10574:10576   */\n      0x20\n        /* \"#utility.yul\":10563:10572   */\n      dup4\n        /* \"#utility.yul\":10559:10577   */\n      add\n        /* \"#utility.yul\":10550:10556   */\n      dup7\n        /* \"#utility.yul\":10506:10578   */\n      tag_317\n      jump\t// in\n    tag_398:\n        /* \"#utility.yul\":10588:10660   */\n      tag_399\n        /* \"#utility.yul\":10656:10658   */\n      0x40\n        /* \"#utility.yul\":10645:10654   */\n      dup4\n        /* \"#utility.yul\":10641:10659   */\n      add\n        /* \"#utility.yul\":10632:10638   */\n      dup6\n        /* \"#utility.yul\":10588:10660   */\n      tag_387\n      jump\t// in\n    tag_399:\n        /* \"#utility.yul\":10707:10716   */\n      dup2\n        /* \"#utility.yul\":10701:10705   */\n      dup2\n        /* \"#utility.yul\":10697:10717   */\n      sub\n        /* \"#utility.yul\":10692:10694   */\n      0x60\n        /* \"#utility.yul\":10681:10690   */\n      dup4\n        /* \"#utility.yul\":10677:10695   */\n      add\n        /* \"#utility.yul\":10670:10718   */\n      mstore\n        /* \"#utility.yul\":10735:10811   */\n      tag_400\n        /* \"#utility.yul\":10806:10810   */\n      dup2\n        /* \"#utility.yul\":10797:10803   */\n      dup5\n        /* \"#utility.yul\":10735:10811   */\n      tag_325\n      jump\t// in\n    tag_400:\n        /* \"#utility.yul\":10727:10811   */\n      swap1\n      pop\n        /* \"#utility.yul\":10378:10818   */\n      swap6\n      swap5\n      pop\n      pop\n      pop\n      pop\n      pop\n      jump\t// out\n        /* \"#utility.yul\":10824:11034   */\n    tag_25:\n      0x00\n        /* \"#utility.yul\":10949:10951   */\n      0x20\n        /* \"#utility.yul\":10938:10947   */\n      dup3\n        /* \"#utility.yul\":10934:10952   */\n      add\n        /* \"#utility.yul\":10926:10952   */\n      swap1\n      pop\n        /* \"#utility.yul\":10962:11027   */\n      tag_402\n        /* \"#utility.yul\":11024:11025   */\n      0x00\n        /* \"#utility.yul\":11013:11022   */\n      dup4\n        /* \"#utility.yul\":11009:11026   */\n      add\n        /* \"#utility.yul\":11000:11006   */\n      dup5\n        /* \"#utility.yul\":10962:11027   */\n      tag_321\n      jump\t// in\n    tag_402:\n        /* \"#utility.yul\":10916:11034   */\n      swap3\n      swap2\n      pop\n      pop\n      jump\t// out\n        /* \"#utility.yul\":11040:11349   */\n    tag_29:\n      0x00\n        /* \"#utility.yul\":11189:11191   */\n      0x20\n        /* \"#utility.yul\":11178:11187   */\n      dup3\n        /* \"#utility.yul\":11174:11192   */\n      add\n        /* \"#utility.yul\":11166:11192   */\n      swap1\n      pop\n        /* \"#utility.yul\":11238:11247   */\n      dup2\n        /* \"#utility.yul\":11232:11236   */\n      dup2\n        /* \"#utility.yul\":11228:11248   */\n      sub\n        /* \"#utility.yul\":11224:11225   */\n      0x00\n        /* \"#utility.yul\":11213:11222   */\n      dup4\n        /* \"#utility.yul\":11209:11226   */\n      add\n        /* \"#utility.yul\":11202:11249   */\n      mstore\n        /* \"#utility.yul\":11266:11342   */\n      tag_404\n        /* \"#utility.yul\":11337:11341   */\n      dup2\n        /* \"#utility.yul\":11328:11334   */\n      dup5\n        /* \"#utility.yul\":11266:11342   */\n      tag_325\n      jump\t// in\n    tag_404:\n        /* \"#utility.yul\":11258:11342   */\n      swap1\n      pop\n        /* \"#utility.yul\":11156:11349   */\n      swap3\n      swap2\n      pop\n      pop\n      jump\t// out\n        /* \"#utility.yul\":11355:11774   */\n    tag_117:\n      0x00\n        /* \"#utility.yul\":11559:11561   */\n      0x20\n        /* \"#utility.yul\":11548:11557   */\n      dup3\n        /* \"#utility.yul\":11544:11562   */\n      add\n        /* \"#utility.yul\":11536:11562   */\n      swap1\n      pop\n        /* \"#utility.yul\":11608:11617   */\n      dup2\n        /* \"#utility.yul\":11602:11606   */\n      dup2\n        /* \"#utility.yul\":11598:11618   */\n      sub\n        /* \"#utility.yul\":11594:11595   */\n      0x00\n        /* \"#utility.yul\":11583:11592   */\n      dup4\n        /* \"#utility.yul\":11579:11596   */\n      add\n        /* \"#utility.yul\":11572:11619   */\n      mstore\n        /* \"#utility.yul\":11636:11767   */\n      tag_406\n        /* \"#utility.yul\":11762:11766   */\n      dup2\n        /* \"#utility.yul\":11636:11767   */\n      tag_341\n      jump\t// in\n    tag_406:\n        /* \"#utility.yul\":11628:11767   */\n      swap1\n      pop\n        /* \"#utility.yul\":11526:11774   */\n      swap2\n      swap1\n      pop\n      jump\t// out\n        /* \"#utility.yul\":11780:12199   */\n    tag_219:\n      0x00\n        /* \"#utility.yul\":11984:11986   */\n      0x20\n        /* \"#utility.yul\":11973:11982   */\n      dup3\n        /* \"#utility.yul\":11969:11987   */\n      add\n        /* \"#utility.yul\":11961:11987   */\n      swap1\n      pop\n        /* \"#utility.yul\":12033:12042   */\n      dup2\n        /* \"#utility.yul\":12027:12031   */\n      dup2\n        /* \"#utility.yul\":12023:12043   */\n      sub\n        /* \"#utility.yul\":12019:12020   */\n      0x00\n        /* \"#utility.yul\":12008:12017   */\n      dup4\n        /* \"#utility.yul\":12004:12021   */\n      add\n        /* \"#utility.yul\":11997:12044   */\n      mstore\n        /* \"#utility.yul\":12061:12192   */\n      tag_408\n        /* \"#utility.yul\":12187:12191   */\n      dup2\n        /* \"#utility.yul\":12061:12192   */\n      tag_347\n      jump\t// in\n    tag_408:\n        /* \"#utility.yul\":12053:12192   */\n      swap1\n      pop\n        /* \"#utility.yul\":11951:12199   */\n      swap2\n      swap1\n      pop\n      jump\t// out\n        /* \"#utility.yul\":12205:12624   */\n    tag_196:\n      0x00\n        /* \"#utility.yul\":12409:12411   */\n      0x20\n        /* \"#utility.yul\":12398:12407   */\n      dup3\n        /* \"#utility.yul\":12394:12412   */\n      add\n        /* \"#utility.yul\":12386:12412   */\n      swap1\n      pop\n        /* \"#utility.yul\":12458:12467   */\n      dup2\n        /* \"#utility.yul\":12452:12456   */\n      dup2\n        /* \"#utility.yul\":12448:12468   */\n      sub\n        /* \"#utility.yul\":12444:12445   */\n      0x00\n        /* \"#utility.yul\":12433:12442   */\n      dup4\n        /* \"#utility.yul\":12429:12446   */\n      add\n        /* \"#utility.yul\":12422:12469   */\n      mstore\n        /* \"#utility.yul\":12486:12617   */\n      tag_410\n        /* \"#utility.yul\":12612:12616   */\n      dup2\n        /* \"#utility.yul\":12486:12617   */\n      tag_352\n      jump\t// in\n    tag_410:\n        /* \"#utility.yul\":12478:12617   */\n      swap1\n      pop\n        /* \"#utility.yul\":12376:12624   */\n      swap2\n      swap1\n      pop\n      jump\t// out\n        /* \"#utility.yul\":12630:13049   */\n    tag_199:\n      0x00\n        /* \"#utility.yul\":12834:12836   */\n      0x20\n        /* \"#utility.yul\":12823:12832   */\n      dup3\n        /* \"#utility.yul\":12819:12837   */\n      add\n        /* \"#utility.yul\":12811:12837   */\n      swap1\n      pop\n        /* \"#utility.yul\":12883:12892   */\n      dup2\n        /* \"#utility.yul\":12877:12881   */\n      dup2\n        /* \"#utility.yul\":12873:12893   */\n      sub\n        /* \"#utility.yul\":12869:12870   */\n      0x00\n        /* \"#utility.yul\":12858:12867   */\n      dup4\n        /* \"#utility.yul\":12854:12871   */\n      add\n        /* \"#utility.yul\":12847:12894   */\n      mstore\n        /* \"#utility.yul\":12911:13042   */\n      tag_412\n        /* \"#utility.yul\":13037:13041   */\n      dup2\n        /* \"#utility.yul\":12911:13042   */\n      tag_357\n      jump\t// in\n    tag_412:\n        /* \"#utility.yul\":12903:13042   */\n      swap1\n      pop\n        /* \"#utility.yul\":12801:13049   */\n      swap2\n      swap1\n      pop\n      jump\t// out\n        /* \"#utility.yul\":13055:13474   */\n    tag_211:\n      0x00\n        /* \"#utility.yul\":13259:13261   */\n      0x20\n        /* \"#utility.yul\":13248:13257   */\n      dup3\n        /* \"#utility.yul\":13244:13262   */\n      add\n        /* \"#utility.yul\":13236:13262   */\n      swap1\n      pop\n        /* \"#utility.yul\":13308:13317   */\n      dup2\n        /* \"#utility.yul\":13302:13306   */\n      dup2\n        /* \"#utility.yul\":13298:13318   */\n      sub\n        /* \"#utility.yul\":13294:13295   */\n      0x00\n        /* \"#utility.yul\":13283:13292   */\n      dup4\n        /* \"#utility.yul\":13279:13296   */\n      add\n        /* \"#utility.yul\":13272:13319   */\n      mstore\n        /* \"#utility.yul\":13336:13467   */\n      tag_414\n        /* \"#utility.yul\":13462:13466   */\n      dup2\n        /* \"#utility.yul\":13336:13467   */\n      tag_362\n      jump\t// in\n    tag_414:\n        /* \"#utility.yul\":13328:13467   */\n      swap1\n      pop\n        /* \"#utility.yul\":13226:13474   */\n      swap2\n      swap1\n      pop\n      jump\t// out\n        /* \"#utility.yul\":13480:13899   */\n    tag_131:\n      0x00\n        /* \"#utility.yul\":13684:13686   */\n      0x20\n        /* \"#utility.yul\":13673:13682   */\n      dup3\n        /* \"#utility.yul\":13669:13687   */\n      add\n        /* \"#utility.yul\":13661:13687   */\n      swap1\n      pop\n        /* \"#utility.yul\":13733:13742   */\n      dup2\n        /* \"#utility.yul\":13727:13731   */\n      dup2\n        /* \"#utility.yul\":13723:13743   */\n      sub\n        /* \"#utility.yul\":13719:13720   */\n      0x00\n        /* \"#utility.yul\":13708:13717   */\n      dup4\n        /* \"#utility.yul\":13704:13721   */\n      add\n        /* \"#utility.yul\":13697:13744   */\n      mstore\n        /* \"#utility.yul\":13761:13892   */\n      tag_416\n        /* \"#utility.yul\":13887:13891   */\n      dup2\n        /* \"#utility.yul\":13761:13892   */\n      tag_367\n      jump\t// in\n    tag_416:\n        /* \"#utility.yul\":13753:13892   */\n      swap1\n      pop\n        /* \"#utility.yul\":13651:13899   */\n      swap2\n      swap1\n      pop\n      jump\t// out\n        /* \"#utility.yul\":13905:14324   */\n    tag_127:\n      0x00\n        /* \"#utility.yul\":14109:14111   */\n      0x20\n        /* \"#utility.yul\":14098:14107   */\n      dup3\n        /* \"#utility.yul\":14094:14112   */\n      add\n        /* \"#utility.yul\":14086:14112   */\n      swap1\n      pop\n        /* \"#utility.yul\":14158:14167   */\n      dup2\n        /* \"#utility.yul\":14152:14156   */\n      dup2\n        /* \"#utility.yul\":14148:14168   */\n      sub\n        /* \"#utility.yul\":14144:14145   */\n      0x00\n        /* \"#utility.yul\":14133:14142   */\n      dup4\n        /* \"#utility.yul\":14129:14146   */\n      add\n        /* \"#utility.yul\":14122:14169   */\n      mstore\n        /* \"#utility.yul\":14186:14317   */\n      tag_418\n        /* \"#utility.yul\":14312:14316   */\n      dup2\n        /* \"#utility.yul\":14186:14317   */\n      tag_372\n      jump\t// in\n    tag_418:\n        /* \"#utility.yul\":14178:14317   */\n      swap1\n      pop\n        /* \"#utility.yul\":14076:14324   */\n      swap2\n      swap1\n      pop\n      jump\t// out\n        /* \"#utility.yul\":14330:14749   */\n    tag_100:\n      0x00\n        /* \"#utility.yul\":14534:14536   */\n      0x20\n        /* \"#utility.yul\":14523:14532   */\n      dup3\n        /* \"#utility.yul\":14519:14537   */\n      add\n        /* \"#utility.yul\":14511:14537   */\n      swap1\n      pop\n        /* \"#utility.yul\":14583:14592   */\n      dup2\n        /* \"#utility.yul\":14577:14581   */\n      dup2\n        /* \"#utility.yul\":14573:14593   */\n      sub\n        /* \"#utility.yul\":14569:14570   */\n      0x00\n        /* \"#utility.yul\":14558:14567   */\n      dup4\n        /* \"#utility.yul\":14554:14571   */\n      add\n        /* \"#utility.yul\":14547:14594   */\n      mstore\n        /* \"#utility.yul\":14611:14742   */\n      tag_420\n        /* \"#utility.yul\":14737:14741   */\n      dup2\n        /* \"#utility.yul\":14611:14742   */\n      tag_377\n      jump\t// in\n    tag_420:\n        /* \"#utility.yul\":14603:14742   */\n      swap1\n      pop\n        /* \"#utility.yul\":14501:14749   */\n      swap2\n      swap1\n      pop\n      jump\t// out\n        /* \"#utility.yul\":14755:15174   */\n    tag_108:\n      0x00\n        /* \"#utility.yul\":14959:14961   */\n      0x20\n        /* \"#utility.yul\":14948:14957   */\n      dup3\n        /* \"#utility.yul\":14944:14962   */\n      add\n        /* \"#utility.yul\":14936:14962   */\n      swap1\n      pop\n        /* \"#utility.yul\":15008:15017   */\n      dup2\n        /* \"#utility.yul\":15002:15006   */\n      dup2\n        /* \"#utility.yul\":14998:15018   */\n      sub\n        /* \"#utility.yul\":14994:14995   */\n      0x00\n        /* \"#utility.yul\":14983:14992   */\n      dup4\n        /* \"#utility.yul\":14979:14996   */\n      add\n        /* \"#utility.yul\":14972:15019   */\n      mstore\n        /* \"#utility.yul\":15036:15167   */\n      tag_422\n        /* \"#utility.yul\":15162:15166   */\n      dup2\n        /* \"#utility.yul\":15036:15167   */\n      tag_382\n      jump\t// in\n    tag_422:\n        /* \"#utility.yul\":15028:15167   */\n      swap1\n      pop\n        /* \"#utility.yul\":14926:15174   */\n      swap2\n      swap1\n      pop\n      jump\t// out\n        /* \"#utility.yul\":15180:15402   */\n    tag_56:\n      0x00\n        /* \"#utility.yul\":15311:15313   */\n      0x20\n        /* \"#utility.yul\":15300:15309   */\n      dup3\n        /* \"#utility.yul\":15296:15314   */\n      add\n        /* \"#utility.yul\":15288:15314   */\n      swap1\n      pop\n        /* \"#utility.yul\":15324:15395   */\n      tag_424\n        /* \"#utility.yul\":15392:15393   */\n      0x00\n        /* \"#utility.yul\":15381:15390   */\n      dup4\n        /* \"#utility.yul\":15377:15394   */\n      add\n        /* \"#utility.yul\":15368:15374   */\n      dup5\n        /* \"#utility.yul\":15324:15395   */\n      tag_387\n      jump\t// in\n    tag_424:\n        /* \"#utility.yul\":15278:15402   */\n      swap3\n      swap2\n      pop\n      pop\n      jump\t// out\n        /* \"#utility.yul\":15408:15537   */\n    tag_254:\n      0x00\n        /* \"#utility.yul\":15469:15489   */\n      tag_426\n      tag_427\n      jump\t// in\n    tag_426:\n        /* \"#utility.yul\":15459:15489   */\n      swap1\n      pop\n        /* \"#utility.yul\":15498:15531   */\n      tag_428\n        /* \"#utility.yul\":15526:15530   */\n      dup3\n        /* \"#utility.yul\":15518:15524   */\n      dup3\n        /* \"#utility.yul\":15498:15531   */\n      tag_429\n      jump\t// in\n    tag_428:\n        /* \"#utility.yul\":15449:15537   */\n      swap2\n      swap1\n      pop\n      jump\t// out\n        /* \"#utility.yul\":15543:15618   */\n    tag_427:\n      0x00\n        /* \"#utility.yul\":15609:15611   */\n      0x40\n        /* \"#utility.yul\":15603:15612   */\n      mload\n        /* \"#utility.yul\":15593:15612   */\n      swap1\n      pop\n        /* \"#utility.yul\":15583:15618   */\n      swap1\n      jump\t// out\n        /* \"#utility.yul\":15624:15931   */\n    tag_253:\n      0x00\n        /* \"#utility.yul\":15775:15793   */\n      0xffffffffffffffff\n        /* \"#utility.yul\":15767:15773   */\n      dup3\n        /* \"#utility.yul\":15764:15794   */\n      gt\n        /* \"#utility.yul\":15761:15763   */\n      iszero\n      tag_432\n      jumpi\n        /* \"#utility.yul\":15797:15815   */\n      tag_433\n      tag_434\n      jump\t// in\n    tag_433:\n        /* \"#utility.yul\":15761:15763   */\n    tag_432:\n        /* \"#utility.yul\":15835:15864   */\n      tag_435\n        /* \"#utility.yul\":15857:15863   */\n      dup3\n        /* \"#utility.yul\":15835:15864   */\n      tag_334\n      jump\t// in\n    tag_435:\n        /* \"#utility.yul\":15827:15864   */\n      swap1\n      pop\n        /* \"#utility.yul\":15919:15923   */\n      0x20\n        /* \"#utility.yul\":15913:15917   */\n      dup2\n        /* \"#utility.yul\":15909:15924   */\n      add\n        /* \"#utility.yul\":15901:15924   */\n      swap1\n      pop\n        /* \"#utility.yul\":15690:15931   */\n      swap2\n      swap1\n      pop\n      jump\t// out\n        /* \"#utility.yul\":15937:16035   */\n    tag_328:\n      0x00\n        /* \"#utility.yul\":16022:16027   */\n      dup2\n        /* \"#utility.yul\":16016:16028   */\n      mload\n        /* \"#utility.yul\":16006:16028   */\n      swap1\n      pop\n        /* \"#utility.yul\":15995:16035   */\n      swap2\n      swap1\n      pop\n      jump\t// out\n        /* \"#utility.yul\":16041:16209   */\n    tag_330:\n      0x00\n        /* \"#utility.yul\":16158:16164   */\n      dup3\n        /* \"#utility.yul\":16153:16156   */\n      dup3\n        /* \"#utility.yul\":16146:16165   */\n      mstore\n        /* \"#utility.yul\":16198:16202   */\n      0x20\n        /* \"#utility.yul\":16193:16196   */\n      dup3\n        /* \"#utility.yul\":16189:16203   */\n      add\n        /* \"#utility.yul\":16174:16203   */\n      swap1\n      pop\n        /* \"#utility.yul\":16136:16209   */\n      swap3\n      swap2\n      pop\n      pop\n      jump\t// out\n        /* \"#utility.yul\":16215:16362   */\n    tag_339:\n      0x00\n        /* \"#utility.yul\":16353:16356   */\n      dup2\n        /* \"#utility.yul\":16338:16356   */\n      swap1\n      pop\n        /* \"#utility.yul\":16328:16362   */\n      swap3\n      swap2\n      pop\n      pop\n      jump\t// out\n        /* \"#utility.yul\":16368:16537   */\n    tag_344:\n      0x00\n        /* \"#utility.yul\":16486:16492   */\n      dup3\n        /* \"#utility.yul\":16481:16484   */\n      dup3\n        /* \"#utility.yul\":16474:16493   */\n      mstore\n        /* \"#utility.yul\":16526:16530   */\n      0x20\n        /* \"#utility.yul\":16521:16524   */\n      dup3\n        /* \"#utility.yul\":16517:16531   */\n      add\n        /* \"#utility.yul\":16502:16531   */\n      swap1\n      pop\n        /* \"#utility.yul\":16464:16537   */\n      swap3\n      swap2\n      pop\n      pop\n      jump\t// out\n        /* \"#utility.yul\":16543:16734   */\n    tag_163:\n      0x00\n        /* \"#utility.yul\":16603:16623   */\n      tag_441\n        /* \"#utility.yul\":16621:16622   */\n      dup3\n        /* \"#utility.yul\":16603:16623   */\n      tag_390\n      jump\t// in\n    tag_441:\n        /* \"#utility.yul\":16598:16623   */\n      swap2\n      pop\n        /* \"#utility.yul\":16637:16657   */\n      tag_442\n        /* \"#utility.yul\":16655:16656   */\n      dup4\n        /* \"#utility.yul\":16637:16657   */\n      tag_390\n      jump\t// in\n    tag_442:\n        /* \"#utility.yul\":16632:16657   */\n      swap3\n      pop\n        /* \"#utility.yul\":16676:16677   */\n      dup3\n        /* \"#utility.yul\":16673:16674   */\n      dup3\n        /* \"#utility.yul\":16670:16678   */\n      lt\n        /* \"#utility.yul\":16667:16669   */\n      iszero\n      tag_443\n      jumpi\n        /* \"#utility.yul\":16681:16699   */\n      tag_444\n      tag_445\n      jump\t// in\n    tag_444:\n        /* \"#utility.yul\":16667:16669   */\n    tag_443:\n        /* \"#utility.yul\":16726:16727   */\n      dup3\n        /* \"#utility.yul\":16723:16724   */\n      dup3\n        /* \"#utility.yul\":16719:16728   */\n      sub\n        /* \"#utility.yul\":16711:16728   */\n      swap1\n      pop\n        /* \"#utility.yul\":16588:16734   */\n      swap3\n      swap2\n      pop\n      pop\n      jump\t// out\n        /* \"#utility.yul\":16740:16836   */\n    tag_320:\n      0x00\n        /* \"#utility.yul\":16806:16830   */\n      tag_447\n        /* \"#utility.yul\":16824:16829   */\n      dup3\n        /* \"#utility.yul\":16806:16830   */\n      tag_448\n      jump\t// in\n    tag_447:\n        /* \"#utility.yul\":16795:16830   */\n      swap1\n      pop\n        /* \"#utility.yul\":16785:16836   */\n      swap2\n      swap1\n      pop\n      jump\t// out\n        /* \"#utility.yul\":16842:16932   */\n    tag_324:\n      0x00\n        /* \"#utility.yul\":16919:16924   */\n      dup2\n        /* \"#utility.yul\":16912:16925   */\n      iszero\n        /* \"#utility.yul\":16905:16926   */\n      iszero\n        /* \"#utility.yul\":16894:16926   */\n      swap1\n      pop\n        /* \"#utility.yul\":16884:16932   */\n      swap2\n      swap1\n      pop\n      jump\t// out\n        /* \"#utility.yul\":16938:17087   */\n    tag_450:\n      0x00\n        /* \"#utility.yul\":17014:17080   */\n      0xffffffff00000000000000000000000000000000000000000000000000000000\n        /* \"#utility.yul\":17007:17012   */\n      dup3\n        /* \"#utility.yul\":17003:17081   */\n      and\n        /* \"#utility.yul\":16992:17081   */\n      swap1\n      pop\n        /* \"#utility.yul\":16982:17087   */\n      swap2\n      swap1\n      pop\n      jump\t// out\n        /* \"#utility.yul\":17093:17219   */\n    tag_448:\n      0x00\n        /* \"#utility.yul\":17170:17212   */\n      0xffffffffffffffffffffffffffffffffffffffff\n        /* \"#utility.yul\":17163:17168   */\n      dup3\n        /* \"#utility.yul\":17159:17213   */\n      and\n        /* \"#utility.yul\":17148:17213   */\n      swap1\n      pop\n        /* \"#utility.yul\":17138:17219   */\n      swap2\n      swap1\n      pop\n      jump\t// out\n        /* \"#utility.yul\":17225:17302   */\n    tag_390:\n      0x00\n        /* \"#utility.yul\":17291:17296   */\n      dup2\n        /* \"#utility.yul\":17280:17296   */\n      swap1\n      pop\n        /* \"#utility.yul\":17270:17302   */\n      swap2\n      swap1\n      pop\n      jump\t// out\n        /* \"#utility.yul\":17308:17462   */\n    tag_257:\n        /* \"#utility.yul\":17392:17398   */\n      dup3\n        /* \"#utility.yul\":17387:17390   */\n      dup2\n        /* \"#utility.yul\":17382:17385   */\n      dup4\n        /* \"#utility.yul\":17369:17399   */\n      calldatacopy\n        /* \"#utility.yul\":17454:17455   */\n      0x00\n        /* \"#utility.yul\":17445:17451   */\n      dup4\n        /* \"#utility.yul\":17440:17443   */\n      dup4\n        /* \"#utility.yul\":17436:17452   */\n      add\n        /* \"#utility.yul\":17429:17456   */\n      mstore\n        /* \"#utility.yul\":17359:17462   */\n      pop\n      pop\n      pop\n      jump\t// out\n        /* \"#utility.yul\":17468:17775   */\n    tag_332:\n        /* \"#utility.yul\":17536:17537   */\n      0x00\n        /* \"#utility.yul\":17546:17659   */\n    tag_456:\n        /* \"#utility.yul\":17560:17566   */\n      dup4\n        /* \"#utility.yul\":17557:17558   */\n      dup2\n        /* \"#utility.yul\":17554:17567   */\n      lt\n        /* \"#utility.yul\":17546:17659   */\n      iszero\n      tag_458\n      jumpi\n        /* \"#utility.yul\":17645:17646   */\n      dup1\n        /* \"#utility.yul\":17640:17643   */\n      dup3\n        /* \"#utility.yul\":17636:17647   */\n      add\n        /* \"#utility.yul\":17630:17648   */\n      mload\n        /* \"#utility.yul\":17626:17627   */\n      dup2\n        /* \"#utility.yul\":17621:17624   */\n      dup5\n        /* \"#utility.yul\":17617:17628   */\n      add\n        /* \"#utility.yul\":17610:17649   */\n      mstore\n        /* \"#utility.yul\":17582:17584   */\n      0x20\n        /* \"#utility.yul\":17579:17580   */\n      dup2\n        /* \"#utility.yul\":17575:17585   */\n      add\n        /* \"#utility.yul\":17570:17585   */\n      swap1\n      pop\n        /* \"#utility.yul\":17546:17659   */\n      jump(tag_456)\n    tag_458:\n        /* \"#utility.yul\":17677:17683   */\n      dup4\n        /* \"#utility.yul\":17674:17675   */\n      dup2\n        /* \"#utility.yul\":17671:17684   */\n      gt\n        /* \"#utility.yul\":17668:17670   */\n      iszero\n      tag_459\n      jumpi\n        /* \"#utility.yul\":17757:17758   */\n      0x00\n        /* \"#utility.yul\":17748:17754   */\n      dup5\n        /* \"#utility.yul\":17743:17746   */\n      dup5\n        /* \"#utility.yul\":17739:17755   */\n      add\n        /* \"#utility.yul\":17732:17759   */\n      mstore\n        /* \"#utility.yul\":17668:17670   */\n    tag_459:\n        /* \"#utility.yul\":17517:17775   */\n      pop\n      pop\n      pop\n      pop\n      jump\t// out\n        /* \"#utility.yul\":17781:17952   */\n    tag_166:\n      0x00\n        /* \"#utility.yul\":17843:17867   */\n      tag_461\n        /* \"#utility.yul\":17861:17866   */\n      dup3\n        /* \"#utility.yul\":17843:17867   */\n      tag_390\n      jump\t// in\n    tag_461:\n        /* \"#utility.yul\":17834:17867   */\n      swap2\n      pop\n        /* \"#utility.yul\":17889:17893   */\n      0x00\n        /* \"#utility.yul\":17882:17887   */\n      dup3\n        /* \"#utility.yul\":17879:17894   */\n      eq\n        /* \"#utility.yul\":17876:17878   */\n      iszero\n      tag_462\n      jumpi\n        /* \"#utility.yul\":17897:17915   */\n      tag_463\n      tag_445\n      jump\t// in\n    tag_463:\n        /* \"#utility.yul\":17876:17878   */\n    tag_462:\n        /* \"#utility.yul\":17944:17945   */\n      0x01\n        /* \"#utility.yul\":17937:17942   */\n      dup3\n        /* \"#utility.yul\":17933:17946   */\n      sub\n        /* \"#utility.yul\":17926:17946   */\n      swap1\n      pop\n        /* \"#utility.yul\":17824:17952   */\n      swap2\n      swap1\n      pop\n      jump\t// out\n        /* \"#utility.yul\":17958:18278   */\n    tag_88:\n      0x00\n        /* \"#utility.yul\":18039:18040   */\n      0x02\n        /* \"#utility.yul\":18033:18037   */\n      dup3\n        /* \"#utility.yul\":18029:18041   */\n      div\n        /* \"#utility.yul\":18019:18041   */\n      swap1\n      pop\n        /* \"#utility.yul\":18086:18087   */\n      0x01\n        /* \"#utility.yul\":18080:18084   */\n      dup3\n        /* \"#utility.yul\":18076:18088   */\n      and\n        /* \"#utility.yul\":18107:18125   */\n      dup1\n        /* \"#utility.yul\":18097:18099   */\n      tag_465\n      jumpi\n        /* \"#utility.yul\":18163:18167   */\n      0x7f\n        /* \"#utility.yul\":18155:18161   */\n      dup3\n        /* \"#utility.yul\":18151:18168   */\n      and\n        /* \"#utility.yul\":18141:18168   */\n      swap2\n      pop\n        /* \"#utility.yul\":18097:18099   */\n    tag_465:\n        /* \"#utility.yul\":18225:18227   */\n      0x20\n        /* \"#utility.yul\":18217:18223   */\n      dup3\n        /* \"#utility.yul\":18214:18228   */\n      lt\n        /* \"#utility.yul\":18194:18212   */\n      dup2\n        /* \"#utility.yul\":18191:18229   */\n      eq\n        /* \"#utility.yul\":18188:18190   */\n      iszero\n      tag_466\n      jumpi\n        /* \"#utility.yul\":18244:18262   */\n      tag_467\n      tag_468\n      jump\t// in\n    tag_467:\n        /* \"#utility.yul\":18188:18190   */\n    tag_466:\n        /* \"#utility.yul\":18009:18278   */\n      pop\n      swap2\n      swap1\n      pop\n      jump\t// out\n        /* \"#utility.yul\":18284:18565   */\n    tag_429:\n        /* \"#utility.yul\":18367:18394   */\n      tag_470\n        /* \"#utility.yul\":18389:18393   */\n      dup3\n        /* \"#utility.yul\":18367:18394   */\n      tag_334\n      jump\t// in\n    tag_470:\n        /* \"#utility.yul\":18359:18365   */\n      dup2\n        /* \"#utility.yul\":18355:18395   */\n      add\n        /* \"#utility.yul\":18497:18503   */\n      dup2\n        /* \"#utility.yul\":18485:18495   */\n      dup2\n        /* \"#utility.yul\":18482:18504   */\n      lt\n        /* \"#utility.yul\":18461:18479   */\n      0xffffffffffffffff\n        /* \"#utility.yul\":18449:18459   */\n      dup3\n        /* \"#utility.yul\":18446:18480   */\n      gt\n        /* \"#utility.yul\":18443:18505   */\n      or\n        /* \"#utility.yul\":18440:18442   */\n      iszero\n      tag_471\n      jumpi\n        /* \"#utility.yul\":18508:18526   */\n      tag_472\n      tag_434\n      jump\t// in\n    tag_472:\n        /* \"#utility.yul\":18440:18442   */\n    tag_471:\n        /* \"#utility.yul\":18548:18558   */\n      dup1\n        /* \"#utility.yul\":18544:18546   */\n      0x40\n        /* \"#utility.yul\":18537:18559   */\n      mstore\n        /* \"#utility.yul\":18327:18565   */\n      pop\n      pop\n      pop\n      jump\t// out\n        /* \"#utility.yul\":18571:18804   */\n    tag_156:\n      0x00\n        /* \"#utility.yul\":18633:18657   */\n      tag_474\n        /* \"#utility.yul\":18651:18656   */\n      dup3\n        /* \"#utility.yul\":18633:18657   */\n      tag_390\n      jump\t// in\n    tag_474:\n        /* \"#utility.yul\":18624:18657   */\n      swap2\n      pop\n        /* \"#utility.yul\":18679:18745   */\n      0xffffffffffffffffffffffffffffffffffffffffffffffffffffffffffffffff\n        /* \"#utility.yul\":18672:18677   */\n      dup3\n        /* \"#utility.yul\":18669:18746   */\n      eq\n        /* \"#utility.yul\":18666:18668   */\n      iszero\n      tag_475\n      jumpi\n        /* \"#utility.yul\":18749:18767   */\n      tag_476\n      tag_445\n      jump\t// in\n    tag_476:\n        /* \"#utility.yul\":18666:18668   */\n    tag_475:\n        /* \"#utility.yul\":18796:18797   */\n      0x01\n        /* \"#utility.yul\":18789:18794   */\n      dup3\n        /* \"#utility.yul\":18785:18798   */\n      add\n        /* \"#utility.yul\":18778:18798   */\n      swap1\n      pop\n        /* \"#utility.yul\":18614:18804   */\n      swap2\n      swap1\n      pop\n      jump\t// out\n        /* \"#utility.yul\":18810:18990   */\n    tag_445:\n        /* \"#utility.yul\":18858:18935   */\n      0x4e487b7100000000000000000000000000000000000000000000000000000000\n        /* \"#utility.yul\":18855:18856   */\n      0x00\n        /* \"#utility.yul\":18848:18936   */\n      mstore\n        /* \"#utility.yul\":18955:18959   */\n      0x11\n        /* \"#utility.yul\":18952:18953   */\n      0x04\n        /* \"#utility.yul\":18945:18960   */\n      mstore\n        /* \"#utility.yul\":18979:18983   */\n      0x24\n        /* \"#utility.yul\":18976:18977   */\n      0x00\n        /* \"#utility.yul\":18969:18984   */\n      revert\n        /* \"#utility.yul\":18996:19176   */\n    tag_468:\n        /* \"#utility.yul\":19044:19121   */\n      0x4e487b7100000000000000000000000000000000000000000000000000000000\n        /* \"#utility.yul\":19041:19042   */\n      0x00\n        /* \"#utility.yul\":19034:19122   */\n      mstore\n        /* \"#utility.yul\":19141:19145   */\n      0x22\n        /* \"#utility.yul\":19138:19139   */\n      0x04\n        /* \"#utility.yul\":19131:19146   */\n      mstore\n        /* \"#utility.yul\":19165:19169   */\n      0x24\n        /* \"#utility.yul\":19162:19163   */\n      0x00\n        /* \"#utility.yul\":19155:19170   */\n      revert\n        /* \"#utility.yul\":19182:19362   */\n    tag_434:\n        /* \"#utility.yul\":19230:19307   */\n      0x4e487b7100000000000000000000000000000000000000000000000000000000\n        /* \"#utility.yul\":19227:19228   */\n      0x00\n        /* \"#utility.yul\":19220:19308   */\n      mstore\n        /* \"#utility.yul\":19327:19331   */\n      0x41\n        /* \"#utility.yul\":19324:19325   */\n      0x04\n        /* \"#utility.yul\":19317:19332   */\n      mstore\n        /* \"#utility.yul\":19351:19355   */\n      0x24\n        /* \"#utility.yul\":19348:19349   */\n      0x00\n        /* \"#utility.yul\":19341:19356   */\n      revert\n        /* \"#utility.yul\":19368:19470   */\n    tag_334:\n      0x00\n        /* \"#utility.yul\":19460:19462   */\n      0x1f\n        /* \"#utility.yul\":19456:19463   */\n      not\n        /* \"#utility.yul\":19451:19453   */\n      0x1f\n        /* \"#utility.yul\":19444:19449   */\n      dup4\n        /* \"#utility.yul\":19440:19454   */\n      add\n        /* \"#utility.yul\":19436:19464   */\n      and\n        /* \"#utility.yul\":19426:19464   */\n      swap1\n      pop\n        /* \"#utility.yul\":19416:19470   */\n      swap2\n      swap1\n      pop\n      jump\t// out\n        /* \"#utility.yul\":19476:19708   */\n    tag_346:\n        /* \"#utility.yul\":19616:19650   */\n      0x4552433732313a2063616c6c6572206973206e6f7420746f6b656e206f776e65\n        /* \"#utility.yul\":19612:19613   */\n      0x00\n        /* \"#utility.yul\":19604:19610   */\n      dup3\n        /* \"#utility.yul\":19600:19614   */\n      add\n        /* \"#utility.yul\":19593:19651   */\n      mstore\n        /* \"#utility.yul\":19685:19700   */\n      0x72206f7220617070726f76656400000000000000000000000000000000000000\n        /* \"#utility.yul\":19680:19682   */\n      0x20\n        /* \"#utility.yul\":19672:19678   */\n      dup3\n        /* \"#utility.yul\":19668:19683   */\n      add\n        /* \"#utility.yul\":19661:19701   */\n      mstore\n        /* \"#utility.yul\":19582:19708   */\n      pop\n      jump\t// out\n        /* \"#utility.yul\":19714:19951   */\n    tag_351:\n        /* \"#utility.yul\":19854:19888   */\n      0x4552433732313a207472616e7366657220746f206e6f6e204552433732315265\n        /* \"#utility.yul\":19850:19851   */\n      0x00\n        /* \"#utility.yul\":19842:19848   */\n      dup3\n        /* \"#utility.yul\":19838:19852   */\n      add\n        /* \"#utility.yul\":19831:19889   */\n      mstore\n        /* \"#utility.yul\":19923:19943   */\n      0x63656976657220696d706c656d656e7465720000000000000000000000000000\n        /* \"#utility.yul\":19918:19920   */\n      0x20\n        /* \"#utility.yul\":19910:19916   */\n      dup3\n        /* \"#utility.yul\":19906:19921   */\n      add\n        /* \"#utility.yul\":19899:19944   */\n      mstore\n        /* \"#utility.yul\":19820:19951   */\n      pop\n      jump\t// out\n        /* \"#utility.yul\":19957:20181   */\n    tag_356:\n        /* \"#utility.yul\":20097:20131   */\n      0x4552433732313a207472616e736665722066726f6d20696e636f727265637420\n        /* \"#utility.yul\":20093:20094   */\n      0x00\n        /* \"#utility.yul\":20085:20091   */\n      dup3\n        /* \"#utility.yul\":20081:20095   */\n      add\n        /* \"#utility.yul\":20074:20132   */\n      mstore\n        /* \"#utility.yul\":20166:20173   */\n      0x6f776e6572000000000000000000000000000000000000000000000000000000\n        /* \"#utility.yul\":20161:20163   */\n      0x20\n        /* \"#utility.yul\":20153:20159   */\n      dup3\n        /* \"#utility.yul\":20149:20164   */\n      add\n        /* \"#utility.yul\":20142:20174   */\n      mstore\n        /* \"#utility.yul\":20063:20181   */\n      pop\n      jump\t// out\n        /* \"#utility.yul\":20187:20410   */\n    tag_361:\n        /* \"#utility.yul\":20327:20361   */\n      0x4552433732313a207472616e7366657220746f20746865207a65726f20616464\n        /* \"#utility.yul\":20323:20324   */\n      0x00\n        /* \"#utility.yul\":20315:20321   */\n      dup3\n        /* \"#utility.yul\":20311:20325   */\n      add\n        /* \"#utility.yul\":20304:20362   */\n      mstore\n        /* \"#utility.yul\":20396:20402   */\n      0x7265737300000000000000000000000000000000000000000000000000000000\n        /* \"#utility.yul\":20391:20393   */\n      0x20\n        /* \"#utility.yul\":20383:20389   */\n      dup3\n        /* \"#utility.yul\":20379:20394   */\n      add\n        /* \"#utility.yul\":20372:20403   */\n      mstore\n        /* \"#utility.yul\":20293:20410   */\n      pop\n      jump\t// out\n        /* \"#utility.yul\":20416:20591   */\n    tag_366:\n        /* \"#utility.yul\":20556:20583   */\n      0x4552433732313a20617070726f766520746f2063616c6c657200000000000000\n        /* \"#utility.yul\":20552:20553   */\n      0x00\n        /* \"#utility.yul\":20544:20550   */\n      dup3\n        /* \"#utility.yul\":20540:20554   */\n      add\n        /* \"#utility.yul\":20533:20584   */\n      mstore\n        /* \"#utility.yul\":20522:20591   */\n      pop\n      jump\t// out\n        /* \"#utility.yul\":20597:20825   */\n    tag_371:\n        /* \"#utility.yul\":20737:20771   */\n      0x4552433732313a2061646472657373207a65726f206973206e6f742061207661\n        /* \"#utility.yul\":20733:20734   */\n      0x00\n        /* \"#utility.yul\":20725:20731   */\n      dup3\n        /* \"#utility.yul\":20721:20735   */\n      add\n        /* \"#utility.yul\":20714:20772   */\n      mstore\n        /* \"#utility.yul\":20806:20817   */\n      0x6c6964206f776e65720000000000000000000000000000000000000000000000\n        /* \"#utility.yul\":20801:20803   */\n      0x20\n        /* \"#utility.yul\":20793:20799   */\n      dup3\n        /* \"#utility.yul\":20789:20804   */\n      add\n        /* \"#utility.yul\":20782:20818   */\n      mstore\n        /* \"#utility.yul\":20703:20825   */\n      pop\n      jump\t// out\n        /* \"#utility.yul\":20831:21005   */\n    tag_376:\n        /* \"#utility.yul\":20971:20997   */\n      0x4552433732313a20696e76616c696420746f6b656e2049440000000000000000\n        /* \"#utility.yul\":20967:20968   */\n      0x00\n        /* \"#utility.yul\":20959:20965   */\n      dup3\n        /* \"#utility.yul\":20955:20969   */\n      add\n        /* \"#utility.yul\":20948:20998   */\n      mstore\n        /* \"#utility.yul\":20937:21005   */\n      pop\n      jump\t// out\n        /* \"#utility.yul\":21011:21231   */\n    tag_381:\n        /* \"#utility.yul\":21151:21185   */\n      0x4552433732313a20617070726f76616c20746f2063757272656e74206f776e65\n        /* \"#utility.yul\":21147:21148   */\n      0x00\n        /* \"#utility.yul\":21139:21145   */\n      dup3\n        /* \"#utility.yul\":21135:21149   */\n      add\n        /* \"#utility.yul\":21128:21186   */\n      mstore\n        /* \"#utility.yul\":21220:21223   */\n      0x7200000000000000000000000000000000000000000000000000000000000000\n        /* \"#utility.yul\":21215:21217   */\n      0x20\n        /* \"#utility.yul\":21207:21213   */\n      dup3\n        /* \"#utility.yul\":21203:21218   */\n      add\n        /* \"#utility.yul\":21196:21224   */\n      mstore\n        /* \"#utility.yul\":21117:21231   */\n      pop\n      jump\t// out\n        /* \"#utility.yul\":21237:21485   */\n    tag_386:\n        /* \"#utility.yul\":21377:21411   */\n      0x4552433732313a20617070726f76652063616c6c6572206973206e6f7420746f\n        /* \"#utility.yul\":21373:21374   */\n      0x00\n        /* \"#utility.yul\":21365:21371   */\n      dup3\n        /* \"#utility.yul\":21361:21375   */\n      add\n        /* \"#utility.yul\":21354:21412   */\n      mstore\n        /* \"#utility.yul\":21446:21477   */\n      0x6b656e206f776e6572206f7220617070726f76656420666f7220616c6c000000\n        /* \"#utility.yul\":21441:21443   */\n      0x20\n        /* \"#utility.yul\":21433:21439   */\n      dup3\n        /* \"#utility.yul\":21429:21444   */\n      add\n        /* \"#utility.yul\":21422:21478   */\n      mstore\n        /* \"#utility.yul\":21343:21485   */\n      pop\n      jump\t// out\n        /* \"#utility.yul\":21491:21613   */\n    tag_261:\n        /* \"#utility.yul\":21564:21588   */\n      tag_491\n        /* \"#utility.yul\":21582:21587   */\n      dup2\n        /* \"#utility.yul\":21564:21588   */\n      tag_320\n      jump\t// in\n    tag_491:\n        /* \"#utility.yul\":21557:21562   */\n      dup2\n        /* \"#utility.yul\":21554:21589   */\n      eq\n        /* \"#utility.yul\":21544:21546   */\n      tag_492\n      jumpi\n        /* \"#utility.yul\":21603:21604   */\n      0x00\n        /* \"#utility.yul\":21600:21601   */\n      dup1\n        /* \"#utility.yul\":21593:21605   */\n      revert\n        /* \"#utility.yul\":21544:21546   */\n    tag_492:\n        /* \"#utility.yul\":21534:21613   */\n      pop\n      jump\t// out\n        /* \"#utility.yul\":21619:21735   */\n    tag_265:\n        /* \"#utility.yul\":21689:21710   */\n      tag_494\n        /* \"#utility.yul\":21704:21709   */\n      dup2\n        /* \"#utility.yul\":21689:21710   */\n      tag_324\n      jump\t// in\n    tag_494:\n        /* \"#utility.yul\":21682:21687   */\n      dup2\n        /* \"#utility.yul\":21679:21711   */\n      eq\n        /* \"#utility.yul\":21669:21671   */\n      tag_495\n      jumpi\n        /* \"#utility.yul\":21725:21726   */\n      0x00\n        /* \"#utility.yul\":21722:21723   */\n      dup1\n        /* \"#utility.yul\":21715:21727   */\n      revert\n        /* \"#utility.yul\":21669:21671   */\n    tag_495:\n        /* \"#utility.yul\":21659:21735   */\n      pop\n      jump\t// out\n        /* \"#utility.yul\":21741:21861   */\n    tag_269:\n        /* \"#utility.yul\":21813:21836   */\n      tag_497\n        /* \"#utility.yul\":21830:21835   */\n      dup2\n        /* \"#utility.yul\":21813:21836   */\n      tag_450\n      jump\t// in\n    tag_497:\n        /* \"#utility.yul\":21806:21811   */\n      dup2\n        /* \"#utility.yul\":21803:21837   */\n      eq\n        /* \"#utility.yul\":21793:21795   */\n      tag_498\n      jumpi\n        /* \"#utility.yul\":21851:21852   */\n      0x00\n        /* \"#utility.yul\":21848:21849   */\n      dup1\n        /* \"#utility.yul\":21841:21853   */\n      revert\n        /* \"#utility.yul\":21793:21795   */\n    tag_498:\n        /* \"#utility.yul\":21783:21861   */\n      pop\n      jump\t// out\n        /* \"#utility.yul\":21867:21989   */\n    tag_280:\n        /* \"#utility.yul\":21940:21964   */\n      tag_500\n        /* \"#utility.yul\":21958:21963   */\n      dup2\n        /* \"#utility.yul\":21940:21964   */\n      tag_390\n      jump\t// in\n    tag_500:\n        /* \"#utility.yul\":21933:21938   */\n      dup2\n        /* \"#utility.yul\":21930:21965   */\n      eq\n        /* \"#utility.yul\":21920:21922   */\n      tag_501\n      jumpi\n        /* \"#utility.yul\":21979:21980   */\n      0x00\n        /* \"#utility.yul\":21976:21977   */\n      dup1\n        /* \"#utility.yul\":21969:21981   */\n      revert\n        /* \"#utility.yul\":21920:21922   */\n    tag_501:\n        /* \"#utility.yul\":21910:21989   */\n      pop\n      jump\t// out\n\n    auxdata: 0xa26469706673582212206ad849f919e5610d243b83b674d9a1f8a361bad67270fc981142c4313953a96964736f6c63430008010033\n}\n",
				"bytecode": {
					"linkReferences": {},
					"object": "60806040523480156200001157600080fd5b50604051620024e9380380620024e9833981810160405281019062000037919062000193565b81600090805190602001906200004f92919062000071565b5080600190805190602001906200006892919062000071565b50505062000376565b8280546200007f906200029b565b90600052602060002090601f016020900481019282620000a35760008555620000ef565b82601f10620000be57805160ff1916838001178555620000ef565b82800160010185558215620000ef579182015b82811115620000ee578251825591602001919060010190620000d1565b5b509050620000fe919062000102565b5090565b5b808211156200011d57600081600090555060010162000103565b5090565b60006200013862000132846200022f565b62000206565b9050828152602081018484840111156200015157600080fd5b6200015e84828562000265565b509392505050565b600082601f8301126200017857600080fd5b81516200018a84826020860162000121565b91505092915050565b60008060408385031215620001a757600080fd5b600083015167ffffffffffffffff811115620001c257600080fd5b620001d08582860162000166565b925050602083015167ffffffffffffffff811115620001ee57600080fd5b620001fc8582860162000166565b9150509250929050565b60006200021262000225565b9050620002208282620002d1565b919050565b6000604051905090565b600067ffffffffffffffff8211156200024d576200024c62000336565b5b620002588262000365565b9050602081019050919050565b60005b838110156200028557808201518184015260208101905062000268565b8381111562000295576000848401525b50505050565b60006002820490506001821680620002b457607f821691505b60208210811415620002cb57620002ca62000307565b5b50919050565b620002dc8262000365565b810181811067ffffffffffffffff82111715620002fe57620002fd62000336565b5b80604052505050565b7f4e487b7100000000000000000000000000000000000000000000000000000000600052602260045260246000fd5b7f4e487b7100000000000000000000000000000000000000000000000000000000600052604160045260246000fd5b6000601f19601f8301169050919050565b61216380620003866000396000f3fe608060405234801561001057600080fd5b50600436106100ea5760003560e01c806370a082311161008c578063b88d4fde11610066578063b88d4fde1461025b578063c511b24614610277578063c87b56dd146102a7578063e985e9c5146102d7576100ea565b806370a08231146101f157806395d89b4114610221578063a22cb4651461023f576100ea565b8063095ea7b3116100c8578063095ea7b31461016d57806323b872dd1461018957806342842e0e146101a55780636352211e146101c1576100ea565b806301ffc9a7146100ef57806306fdde031461011f578063081812fc1461013d575b600080fd5b6101096004803603810190610104919061171a565b610307565b60405161011691906119f2565b60405180910390f35b6101276103e9565b6040516101349190611a0d565b60405180910390f35b6101576004803603810190610152919061176c565b61047b565b604051610164919061198b565b60405180910390f35b610187600480360381019061018291906116de565b6104c1565b005b6101a3600480360381019061019e91906115d8565b6105d9565b005b6101bf60048036038101906101ba91906115d8565b610639565b005b6101db60048036038101906101d6919061176c565b610659565b6040516101e8919061198b565b60405180910390f35b61020b60048036038101906102069190611573565b6106e0565b6040516102189190611b4f565b60405180910390f35b610229610798565b6040516102369190611a0d565b60405180910390f35b610259600480360381019061025491906116a2565b61082a565b005b61027560048036038101906102709190611627565b610840565b005b610291600480360381019061028c919061176c565b6108a2565b60405161029e9190611a0d565b60405180910390f35b6102c160048036038101906102bc919061176c565b610a7d565b6040516102ce9190611a0d565b60405180910390f35b6102f160048036038101906102ec919061159c565b610ae5565b6040516102fe91906119f2565b60405180910390f35b60007f80ac58cd000000000000000000000000000000000000000000000000000000007bffffffffffffffffffffffffffffffffffffffffffffffffffffffff1916827bffffffffffffffffffffffffffffffffffffffffffffffffffffffff191614806103d257507f5b5e139f000000000000000000000000000000000000000000000000000000007bffffffffffffffffffffffffffffffffffffffffffffffffffffffff1916827bffffffffffffffffffffffffffffffffffffffffffffffffffffffff1916145b806103e257506103e182610b79565b5b9050919050565b6060600080546103f890611d0c565b80601f016020809104026020016040519081016040528092919081815260200182805461042490611d0c565b80156104715780601f1061044657610100808354040283529160200191610471565b820191906000526020600020905b81548152906001019060200180831161045457829003601f168201915b5050505050905090565b600061048682610be3565b6004600083815260200190815260200160002060009054906101000a900473ffffffffffffffffffffffffffffffffffffffff169050919050565b60006104cc82610659565b90508073ffffffffffffffffffffffffffffffffffffffff168373ffffffffffffffffffffffffffffffffffffffff16141561053d576040517f08c379a000000000000000000000000000000000000000000000000000000000815260040161053490611b0f565b60405180910390fd5b8073ffffffffffffffffffffffffffffffffffffffff1661055c610c2e565b73ffffffffffffffffffffffffffffffffffffffff16148061058b575061058a81610585610c2e565b610ae5565b5b6105ca576040517f08c379a00000000000000000000000000000000000000000000000000000000081526004016105c190611b2f565b60405180910390fd5b6105d48383610c36565b505050565b6105ea6105e4610c2e565b82610cef565b610629576040517f08c379a000000000000000000000000000000000000000000000000000000000815260040161062090611a2f565b60405180910390fd5b610634838383610d84565b505050565b61065483838360405180602001604052806000815250610840565b505050565b6000806106658361107e565b9050600073ffffffffffffffffffffffffffffffffffffffff168173ffffffffffffffffffffffffffffffffffffffff1614156106d7576040517f08c379a00000000000000000000000000000000000000000000000000000000081526004016106ce90611aef565b60405180910390fd5b80915050919050565b60008073ffffffffffffffffffffffffffffffffffffffff168273ffffffffffffffffffffffffffffffffffffffff161415610751576040517f08c379a000000000000000000000000000000000000000000000000000000000815260040161074890611acf565b60405180910390fd5b600360008373ffffffffffffffffffffffffffffffffffffffff1673ffffffffffffffffffffffffffffffffffffffff168152602001908152602001600020549050919050565b6060600180546107a790611d0c565b80601f01602080910402602001604051908101604052809291908181526020018280546107d390611d0c565b80156108205780601f106107f557610100808354040283529160200191610820565b820191906000526020600020905b81548152906001019060200180831161080357829003601f168201915b5050505050905090565b61083c610835610c2e565b83836110bb565b5050565b61085161084b610c2e565b83610cef565b610890576040517f08c379a000000000000000000000000000000000000000000000000000000000815260040161088790611a2f565b60405180910390fd5b61089c84848484611228565b50505050565b6060600082141561092857600067ffffffffffffffff8111156108ee577f4e487b7100000000000000000000000000000000000000000000000000000000600052604160045260246000fd5b6040519080825280601f01601f1916602001820160405280156109205781602001600182028036833780820191505090505b509050610a78565b600082905060005b6000821461095257808061094390611d6f565b915050600882901c9150610930565b60008167ffffffffffffffff811115610994577f4e487b7100000000000000000000000000000000000000000000000000000000600052604160045260246000fd5b6040519080825280601f01601f1916602001820160405280156109c65781602001600182028036833780820191505090505b50905084925060008290505b6000811115610a705760ff841660f81b826001836109f09190611bf8565b81518110610a27577f4e487b7100000000000000000000000000000000000000000000000000000000600052603260045260246000fd5b60200101907effffffffffffffffffffffffffffffffffffffffffffffffffffffffffffff1916908160001a905350600884901c93508080610a6890611ce2565b9150506109d2565b508093505050505b919050565b6060610a8882610be3565b6000610a92611284565b90506000815111610ab25760405180602001604052806000815250610add565b80610abc846108a2565b604051602001610acd929190611967565b6040516020818303038152906040525b915050919050565b6000600560008473ffffffffffffffffffffffffffffffffffffffff1673ffffffffffffffffffffffffffffffffffffffff16815260200190815260200160002060008373ffffffffffffffffffffffffffffffffffffffff1673ffffffffffffffffffffffffffffffffffffffff16815260200190815260200160002060009054906101000a900460ff16905092915050565b60007f01ffc9a7000000000000000000000000000000000000000000000000000000007bffffffffffffffffffffffffffffffffffffffffffffffffffffffff1916827bffffffffffffffffffffffffffffffffffffffffffffffffffffffff1916149050919050565b610bec8161129b565b610c2b576040517f08c379a0000000000000000000000000000000000000000000000000000000008152600401610c2290611aef565b60405180910390fd5b50565b600033905090565b816004600083815260200190815260200160002060006101000a81548173ffffffffffffffffffffffffffffffffffffffff021916908373ffffffffffffffffffffffffffffffffffffffff160217905550808273ffffffffffffffffffffffffffffffffffffffff16610ca983610659565b73ffffffffffffffffffffffffffffffffffffffff167f8c5be1e5ebec7d5bd14f71427d1e84f3dd0314c0f7b2291e5b200ac8c7c3b92560405160405180910390a45050565b600080610cfb83610659565b90508073ffffffffffffffffffffffffffffffffffffffff168473ffffffffffffffffffffffffffffffffffffffff161480610d3d5750610d3c8185610ae5565b5b80610d7b57508373ffffffffffffffffffffffffffffffffffffffff16610d638461047b565b73ffffffffffffffffffffffffffffffffffffffff16145b91505092915050565b8273ffffffffffffffffffffffffffffffffffffffff16610da482610659565b73ffffffffffffffffffffffffffffffffffffffff1614610dfa576040517f08c379a0000000000000000000000000000000000000000000000000000000008152600401610df190611a6f565b60405180910390fd5b600073ffffffffffffffffffffffffffffffffffffffff168273ffffffffffffffffffffffffffffffffffffffff161415610e6a576040517f08c379a0000000000000000000000000000000000000000000000000000000008152600401610e6190611a8f565b60405180910390fd5b610e7783838360016112dc565b8273ffffffffffffffffffffffffffffffffffffffff16610e9782610659565b73ffffffffffffffffffffffffffffffffffffffff1614610eed576040517f08c379a0000000000000000000000000000000000000000000000000000000008152600401610ee490611a6f565b60405180910390fd5b6004600082815260200190815260200160002060006101000a81549073ffffffffffffffffffffffffffffffffffffffff02191690556001600360008573ffffffffffffffffffffffffffffffffffffffff1673ffffffffffffffffffffffffffffffffffffffff168152602001908152602001600020600082825403925050819055506001600360008473ffffffffffffffffffffffffffffffffffffffff1673ffffffffffffffffffffffffffffffffffffffff16815260200190815260200160002060008282540192505081905550816002600083815260200190815260200160002060006101000a81548173ffffffffffffffffffffffffffffffffffffffff021916908373ffffffffffffffffffffffffffffffffffffffff160217905550808273ffffffffffffffffffffffffffffffffffffffff168473ffffffffffffffffffffffffffffffffffffffff167fddf252ad1be2c89b69c2b068fc378daa952ba7f163c4a11628f55a4df523b3ef60405160405180910390a461107983838360016112e2565b505050565b60006002600083815260200190815260200160002060009054906101000a900473ffffffffffffffffffffffffffffffffffffffff169050919050565b8173ffffffffffffffffffffffffffffffffffffffff168373ffffffffffffffffffffffffffffffffffffffff16141561112a576040517f08c379a000000000000000000000000000000000000000000000000000000000815260040161112190611aaf565b60405180910390fd5b80600560008573ffffffffffffffffffffffffffffffffffffffff1673ffffffffffffffffffffffffffffffffffffffff16815260200190815260200160002060008473ffffffffffffffffffffffffffffffffffffffff1673ffffffffffffffffffffffffffffffffffffffff16815260200190815260200160002060006101000a81548160ff0219169083151502179055508173ffffffffffffffffffffffffffffffffffffffff168373ffffffffffffffffffffffffffffffffffffffff167f17307eab39ab6107e8899845ad3d59bd9653f200f220920489ca2b5937696c318360405161121b91906119f2565b60405180910390a3505050565b611233848484610d84565b61123f848484846112e8565b61127e576040517f08c379a000000000000000000000000000000000000000000000000000000000815260040161127590611a4f565b60405180910390fd5b50505050565b606060405180602001604052806000815250905090565b60008073ffffffffffffffffffffffffffffffffffffffff166112bd8361107e565b73ffffffffffffffffffffffffffffffffffffffff1614159050919050565b50505050565b50505050565b60006113098473ffffffffffffffffffffffffffffffffffffffff1661147f565b15611472578373ffffffffffffffffffffffffffffffffffffffff1663150b7a02611332610c2e565b8786866040518563ffffffff1660e01b815260040161135494939291906119a6565b602060405180830381600087803b15801561136e57600080fd5b505af192505050801561139f57506040513d601f19601f8201168201806040525081019061139c9190611743565b60015b611422573d80600081146113cf576040519150601f19603f3d011682016040523d82523d6000602084013e6113d4565b606091505b5060008151141561141a576040517f08c379a000000000000000000000000000000000000000000000000000000000815260040161141190611a4f565b60405180910390fd5b805181602001fd5b63150b7a0260e01b7bffffffffffffffffffffffffffffffffffffffffffffffffffffffff1916817bffffffffffffffffffffffffffffffffffffffffffffffffffffffff191614915050611477565b600190505b949350505050565b6000808273ffffffffffffffffffffffffffffffffffffffff163b119050919050565b60006114b56114b084611b8f565b611b6a565b9050828152602081018484840111156114cd57600080fd5b6114d8848285611ca0565b509392505050565b6000813590506114ef816120d1565b92915050565b600081359050611504816120e8565b92915050565b600081359050611519816120ff565b92915050565b60008151905061152e816120ff565b92915050565b600082601f83011261154557600080fd5b81356115558482602086016114a2565b91505092915050565b60008135905061156d81612116565b92915050565b60006020828403121561158557600080fd5b6000611593848285016114e0565b91505092915050565b600080604083850312156115af57600080fd5b60006115bd858286016114e0565b92505060206115ce858286016114e0565b9150509250929050565b6000806000606084860312156115ed57600080fd5b60006115fb868287016114e0565b935050602061160c868287016114e0565b925050604061161d8682870161155e565b9150509250925092565b6000806000806080858703121561163d57600080fd5b600061164b878288016114e0565b945050602061165c878288016114e0565b935050604061166d8782880161155e565b925050606085013567ffffffffffffffff81111561168a57600080fd5b61169687828801611534565b91505092959194509250565b600080604083850312156116b557600080fd5b60006116c3858286016114e0565b92505060206116d4858286016114f5565b9150509250929050565b600080604083850312156116f157600080fd5b60006116ff858286016114e0565b92505060206117108582860161155e565b9150509250929050565b60006020828403121561172c57600080fd5b600061173a8482850161150a565b91505092915050565b60006020828403121561175557600080fd5b60006117638482850161151f565b91505092915050565b60006020828403121561177e57600080fd5b600061178c8482850161155e565b91505092915050565b61179e81611c2c565b82525050565b6117ad81611c3e565b82525050565b60006117be82611bc0565b6117c88185611bcb565b93506117d8818560208601611caf565b6117e181611e45565b840191505092915050565b60006117f782611bc0565b6118018185611bdc565b9350611811818560208601611caf565b80840191505092915050565b600061182a602d83611be7565b915061183582611e56565b604082019050919050565b600061184d603283611be7565b915061185882611ea5565b604082019050919050565b6000611870602583611be7565b915061187b82611ef4565b604082019050919050565b6000611893602483611be7565b915061189e82611f43565b604082019050919050565b60006118b6601983611be7565b91506118c182611f92565b602082019050919050565b60006118d9602983611be7565b91506118e482611fbb565b604082019050919050565b60006118fc601883611be7565b91506119078261200a565b602082019050919050565b600061191f602183611be7565b915061192a82612033565b604082019050919050565b6000611942603d83611be7565b915061194d82612082565b604082019050919050565b61196181611c96565b82525050565b600061197382856117ec565b915061197f82846117ec565b91508190509392505050565b60006020820190506119a06000830184611795565b92915050565b60006080820190506119bb6000830187611795565b6119c86020830186611795565b6119d56040830185611958565b81810360608301526119e781846117b3565b905095945050505050565b6000602082019050611a0760008301846117a4565b92915050565b60006020820190508181036000830152611a2781846117b3565b905092915050565b60006020820190508181036000830152611a488161181d565b9050919050565b60006020820190508181036000830152611a6881611840565b9050919050565b60006020820190508181036000830152611a8881611863565b9050919050565b60006020820190508181036000830152611aa881611886565b9050919050565b60006020820190508181036000830152611ac8816118a9565b9050919050565b60006020820190508181036000830152611ae8816118cc565b9050919050565b60006020820190508181036000830152611b08816118ef565b9050919050565b60006020820190508181036000830152611b2881611912565b9050919050565b60006020820190508181036000830152611b4881611935565b9050919050565b6000602082019050611b646000830184611958565b92915050565b6000611b74611b85565b9050611b808282611d3e565b919050565b6000604051905090565b600067ffffffffffffffff821115611baa57611ba9611e16565b5b611bb382611e45565b9050602081019050919050565b600081519050919050565b600082825260208201905092915050565b600081905092915050565b600082825260208201905092915050565b6000611c0382611c96565b9150611c0e83611c96565b925082821015611c2157611c20611db8565b5b828203905092915050565b6000611c3782611c76565b9050919050565b60008115159050919050565b60007fffffffff0000000000000000000000000000000000000000000000000000000082169050919050565b600073ffffffffffffffffffffffffffffffffffffffff82169050919050565b6000819050919050565b82818337600083830152505050565b60005b83811015611ccd578082015181840152602081019050611cb2565b83811115611cdc576000848401525b50505050565b6000611ced82611c96565b91506000821415611d0157611d00611db8565b5b600182039050919050565b60006002820490506001821680611d2457607f821691505b60208210811415611d3857611d37611de7565b5b50919050565b611d4782611e45565b810181811067ffffffffffffffff82111715611d6657611d65611e16565b5b80604052505050565b6000611d7a82611c96565b91507fffffffffffffffffffffffffffffffffffffffffffffffffffffffffffffffff821415611dad57611dac611db8565b5b600182019050919050565b7f4e487b7100000000000000000000000000000000000000000000000000000000600052601160045260246000fd5b7f4e487b7100000000000000000000000000000000000000000000000000000000600052602260045260246000fd5b7f4e487b7100000000000000000000000000000000000000000000000000000000600052604160045260246000fd5b6000601f19601f8301169050919050565b7f4552433732313a2063616c6c6572206973206e6f7420746f6b656e206f776e6560008201527f72206f7220617070726f76656400000000000000000000000000000000000000602082015250565b7f4552433732313a207472616e7366657220746f206e6f6e20455243373231526560008201527f63656976657220696d706c656d656e7465720000000000000000000000000000602082015250565b7f4552433732313a207472616e736665722066726f6d20696e636f72726563742060008201527f6f776e6572000000000000000000000000000000000000000000000000000000602082015250565b7f4552433732313a207472616e7366657220746f20746865207a65726f2061646460008201527f7265737300000000000000000000000000000000000000000000000000000000602082015250565b7f4552433732313a20617070726f766520746f2063616c6c657200000000000000600082015250565b7f4552433732313a2061646472657373207a65726f206973206e6f74206120766160008201527f6c6964206f776e65720000000000000000000000000000000000000000000000602082015250565b7f4552433732313a20696e76616c696420746f6b656e2049440000000000000000600082015250565b7f4552433732313a20617070726f76616c20746f2063757272656e74206f776e6560008201527f7200000000000000000000000000000000000000000000000000000000000000602082015250565b7f4552433732313a20617070726f76652063616c6c6572206973206e6f7420746f60008201527f6b656e206f776e6572206f7220617070726f76656420666f7220616c6c000000602082015250565b6120da81611c2c565b81146120e557600080fd5b50565b6120f181611c3e565b81146120fc57600080fd5b50565b61210881611c4a565b811461211357600080fd5b50565b61211f81611c96565b811461212a57600080fd5b5056fea26469706673582212206ad849f919e5610d243b83b674d9a1f8a361bad67270fc981142c4313953a96964736f6c63430008010033",
					"opcodes": "PUSH1 0x80 PUSH1 0x40 MSTORE CALLVALUE DUP1 ISZERO PUSH3 0x11 JUMPI PUSH1 0x0 DUP1 REVERT JUMPDEST POP PUSH1 0x40 MLOAD PUSH3 0x24E9 CODESIZE SUB DUP1 PUSH3 0x24E9 DUP4 CODECOPY DUP2 DUP2 ADD PUSH1 0x40 MSTORE DUP2 ADD SWAP1 PUSH3 0x37 SWAP2 SWAP1 PUSH3 0x193 JUMP JUMPDEST DUP2 PUSH1 0x0 SWAP1 DUP1 MLOAD SWAP1 PUSH1 0x20 ADD SWAP1 PUSH3 0x4F SWAP3 SWAP2 SWAP1 PUSH3 0x71 JUMP JUMPDEST POP DUP1 PUSH1 0x1 SWAP1 DUP1 MLOAD SWAP1 PUSH1 0x20 ADD SWAP1 PUSH3 0x68 SWAP3 SWAP2 SWAP1 PUSH3 0x71 JUMP JUMPDEST POP POP POP PUSH3 0x376 JUMP JUMPDEST DUP3 DUP1 SLOAD PUSH3 0x7F SWAP1 PUSH3 0x29B JUMP JUMPDEST SWAP1 PUSH1 0x0 MSTORE PUSH1 0x20 PUSH1 0x0 KECCAK256 SWAP1 PUSH1 0x1F ADD PUSH1 0x20 SWAP1 DIV DUP2 ADD SWAP3 DUP3 PUSH3 0xA3 JUMPI PUSH1 0x0 DUP6 SSTORE PUSH3 0xEF JUMP JUMPDEST DUP3 PUSH1 0x1F LT PUSH3 0xBE JUMPI DUP1 MLOAD PUSH1 0xFF NOT AND DUP4 DUP1 ADD OR DUP6 SSTORE PUSH3 0xEF JUMP JUMPDEST DUP3 DUP1 ADD PUSH1 0x1 ADD DUP6 SSTORE DUP3 ISZERO PUSH3 0xEF JUMPI SWAP2 DUP3 ADD JUMPDEST DUP3 DUP2 GT ISZERO PUSH3 0xEE JUMPI DUP3 MLOAD DUP3 SSTORE SWAP2 PUSH1 0x20 ADD SWAP2 SWAP1 PUSH1 0x1 ADD SWAP1 PUSH3 0xD1 JUMP JUMPDEST JUMPDEST POP SWAP1 POP PUSH3 0xFE SWAP2 SWAP1 PUSH3 0x102 JUMP JUMPDEST POP SWAP1 JUMP JUMPDEST JUMPDEST DUP1 DUP3 GT ISZERO PUSH3 0x11D JUMPI PUSH1 0x0 DUP2 PUSH1 0x0 SWAP1 SSTORE POP PUSH1 0x1 ADD PUSH3 0x103 JUMP JUMPDEST POP SWAP1 JUMP JUMPDEST PUSH1 0x0 PUSH3 0x138 PUSH3 0x132 DUP5 PUSH3 0x22F JUMP JUMPDEST PUSH3 0x206 JUMP JUMPDEST SWAP1 POP DUP3 DUP2 MSTORE PUSH1 0x20 DUP2 ADD DUP5 DUP5 DUP5 ADD GT ISZERO PUSH3 0x151 JUMPI PUSH1 0x0 DUP1 REVERT JUMPDEST PUSH3 0x15E DUP5 DUP3 DUP6 PUSH3 0x265 JUMP JUMPDEST POP SWAP4 SWAP3 POP POP POP JUMP JUMPDEST PUSH1 0x0 DUP3 PUSH1 0x1F DUP4 ADD SLT PUSH3 0x178 JUMPI PUSH1 0x0 DUP1 REVERT JUMPDEST DUP2 MLOAD PUSH3 0x18A DUP5 DUP3 PUSH1 0x20 DUP7 ADD PUSH3 0x121 JUMP JUMPDEST SWAP2 POP POP SWAP3 SWAP2 POP POP JUMP JUMPDEST PUSH1 0x0 DUP1 PUSH1 0x40 DUP4 DUP6 SUB SLT ISZERO PUSH3 0x1A7 JUMPI PUSH1 0x0 DUP1 REVERT JUMPDEST PUSH1 0x0 DUP4 ADD MLOAD PUSH8 0xFFFFFFFFFFFFFFFF DUP2 GT ISZERO PUSH3 0x1C2 JUMPI PUSH1 0x0 DUP1 REVERT JUMPDEST PUSH3 0x1D0 DUP6 DUP3 DUP7 ADD PUSH3 0x166 JUMP JUMPDEST SWAP3 POP POP PUSH1 0x20 DUP4 ADD MLOAD PUSH8 0xFFFFFFFFFFFFFFFF DUP2 GT ISZERO PUSH3 0x1EE JUMPI PUSH1 0x0 DUP1 REVERT JUMPDEST PUSH3 0x1FC DUP6 DUP3 DUP7 ADD PUSH3 0x166 JUMP JUMPDEST SWAP2 POP POP SWAP3 POP SWAP3 SWAP1 POP JUMP JUMPDEST PUSH1 0x0 PUSH3 0x212 PUSH3 0x225 JUMP JUMPDEST SWAP1 POP PUSH3 0x220 DUP3 DUP3 PUSH3 0x2D1 JUMP JUMPDEST SWAP2 SWAP1 POP JUMP JUMPDEST PUSH1 0x0 PUSH1 0x40 MLOAD SWAP1 POP SWAP1 JUMP JUMPDEST PUSH1 0x0 PUSH8 0xFFFFFFFFFFFFFFFF DUP3 GT ISZERO PUSH3 0x24D JUMPI PUSH3 0x24C PUSH3 0x336 JUMP JUMPDEST JUMPDEST PUSH3 0x258 DUP3 PUSH3 0x365 JUMP JUMPDEST SWAP1 POP PUSH1 0x20 DUP2 ADD SWAP1 POP SWAP2 SWAP1 POP JUMP JUMPDEST PUSH1 0x0 JUMPDEST DUP4 DUP2 LT ISZERO PUSH3 0x285 JUMPI DUP1 DUP3 ADD MLOAD DUP2 DUP5 ADD MSTORE PUSH1 0x20 DUP2 ADD SWAP1 POP PUSH3 0x268 JUMP JUMPDEST DUP4 DUP2 GT ISZERO PUSH3 0x295 JUMPI PUSH1 0x0 DUP5 DUP5 ADD MSTORE JUMPDEST POP POP POP POP JUMP JUMPDEST PUSH1 0x0 PUSH1 0x2 DUP3 DIV SWAP1 POP PUSH1 0x1 DUP3 AND DUP1 PUSH3 0x2B4 JUMPI PUSH1 0x7F DUP3 AND SWAP2 POP JUMPDEST PUSH1 0x20 DUP3 LT DUP2 EQ ISZERO PUSH3 0x2CB JUMPI PUSH3 0x2CA PUSH3 0x307 JUMP JUMPDEST JUMPDEST POP SWAP2 SWAP1 POP JUMP JUMPDEST PUSH3 0x2DC DUP3 PUSH3 0x365 JUMP JUMPDEST DUP2 ADD DUP2 DUP2 LT PUSH8 0xFFFFFFFFFFFFFFFF DUP3 GT OR ISZERO PUSH3 0x2FE JUMPI PUSH3 0x2FD PUSH3 0x336 JUMP JUMPDEST JUMPDEST DUP1 PUSH1 0x40 MSTORE POP POP POP JUMP JUMPDEST PUSH32 0x4E487B7100000000000000000000000000000000000000000000000000000000 PUSH1 0x0 MSTORE PUSH1 0x22 PUSH1 0x4 MSTORE PUSH1 0x24 PUSH1 0x0 REVERT JUMPDEST PUSH32 0x4E487B7100000000000000000000000000000000000000000000000000000000 PUSH1 0x0 MSTORE PUSH1 0x41 PUSH1 0x4 MSTORE PUSH1 0x24 PUSH1 0x0 REVERT JUMPDEST PUSH1 0x0 PUSH1 0x1F NOT PUSH1 0x1F DUP4 ADD AND SWAP1 POP SWAP2 SWAP1 POP JUMP JUMPDEST PUSH2 0x2163 DUP1 PUSH3 0x386 PUSH1 0x0 CODECOPY PUSH1 0x0 RETURN INVALID PUSH1 0x80 PUSH1 0x40 MSTORE CALLVALUE DUP1 ISZERO PUSH2 0x10 JUMPI PUSH1 0x0 DUP1 REVERT JUMPDEST POP PUSH1 0x4 CALLDATASIZE LT PUSH2 0xEA JUMPI PUSH1 0x0 CALLDATALOAD PUSH1 0xE0 SHR DUP1 PUSH4 0x70A08231 GT PUSH2 0x8C JUMPI DUP1 PUSH4 0xB88D4FDE GT PUSH2 0x66 JUMPI DUP1 PUSH4 0xB88D4FDE EQ PUSH2 0x25B JUMPI DUP1 PUSH4 0xC511B246 EQ PUSH2 0x277 JUMPI DUP1 PUSH4 0xC87B56DD EQ PUSH2 0x2A7 JUMPI DUP1 PUSH4 0xE985E9C5 EQ PUSH2 0x2D7 JUMPI PUSH2 0xEA JUMP JUMPDEST DUP1 PUSH4 0x70A08231 EQ PUSH2 0x1F1 JUMPI DUP1 PUSH4 0x95D89B41 EQ PUSH2 0x221 JUMPI DUP1 PUSH4 0xA22CB465 EQ PUSH2 0x23F JUMPI PUSH2 0xEA JUMP JUMPDEST DUP1 PUSH4 0x95EA7B3 GT PUSH2 0xC8 JUMPI DUP1 PUSH4 0x95EA7B3 EQ PUSH2 0x16D JUMPI DUP1 PUSH4 0x23B872DD EQ PUSH2 0x189 JUMPI DUP1 PUSH4 0x42842E0E EQ PUSH2 0x1A5 JUMPI DUP1 PUSH4 0x6352211E EQ PUSH2 0x1C1 JUMPI PUSH2 0xEA JUMP JUMPDEST DUP1 PUSH4 0x1FFC9A7 EQ PUSH2 0xEF JUMPI DUP1 PUSH4 0x6FDDE03 EQ PUSH2 0x11F JUMPI DUP1 PUSH4 0x81812FC EQ PUSH2 0x13D JUMPI JUMPDEST PUSH1 0x0 DUP1 REVERT JUMPDEST PUSH2 0x109 PUSH1 0x4 DUP1 CALLDATASIZE SUB DUP2 ADD SWAP1 PUSH2 0x104 SWAP2 SWAP1 PUSH2 0x171A JUMP JUMPDEST PUSH2 0x307 JUMP JUMPDEST PUSH1 0x40 MLOAD PUSH2 0x116 SWAP2 SWAP1 PUSH2 0x19F2 JUMP JUMPDEST PUSH1 0x40 MLOAD DUP1 SWAP2 SUB SWAP1 RETURN JUMPDEST PUSH2 0x127 PUSH2 0x3E9 JUMP JUMPDEST PUSH1 0x40 MLOAD PUSH2 0x134 SWAP2 SWAP1 PUSH2 0x1A0D JUMP JUMPDEST PUSH1 0x40 MLOAD DUP1 SWAP2 SUB SWAP1 RETURN JUMPDEST PUSH2 0x157 PUSH1 0x4 DUP1 CALLDATASIZE SUB DUP2 ADD SWAP1 PUSH2 0x152 SWAP2 SWAP1 PUSH2 0x176C JUMP JUMPDEST PUSH2 0x47B JUMP JUMPDEST PUSH1 0x40 MLOAD PUSH2 0x164 SWAP2 SWAP1 PUSH2 0x198B JUMP JUMPDEST PUSH1 0x40 MLOAD DUP1 SWAP2 SUB SWAP1 RETURN JUMPDEST PUSH2 0x187 PUSH1 0x4 DUP1 CALLDATASIZE SUB DUP2 ADD SWAP1 PUSH2 0x182 SWAP2 SWAP1 PUSH2 0x16DE JUMP JUMPDEST PUSH2 0x4C1 JUMP JUMPDEST STOP JUMPDEST PUSH2 0x1A3 PUSH1 0x4 DUP1 CALLDATASIZE SUB DUP2 ADD SWAP1 PUSH2 0x19E SWAP2 SWAP1 PUSH2 0x15D8 JUMP JUMPDEST PUSH2 0x5D9 JUMP JUMPDEST STOP JUMPDEST PUSH2 0x1BF PUSH1 0x4 DUP1 CALLDATASIZE SUB DUP2 ADD SWAP1 PUSH2 0x1BA SWAP2 SWAP1 PUSH2 0x15D8 JUMP JUMPDEST PUSH2 0x639 JUMP JUMPDEST STOP JUMPDEST PUSH2 0x1DB PUSH1 0x4 DUP1 CALLDATASIZE SUB DUP2 ADD SWAP1 PUSH2 0x1D6 SWAP2 SWAP1 PUSH2 0x176C JUMP JUMPDEST PUSH2 0x659 JUMP JUMPDEST PUSH1 0x40 MLOAD PUSH2 0x1E8 SWAP2 SWAP1 PUSH2 0x198B JUMP JUMPDEST PUSH1 0x40 MLOAD DUP1 SWAP2 SUB SWAP1 RETURN JUMPDEST PUSH2 0x20B PUSH1 0x4 DUP1 CALLDATASIZE SUB DUP2 ADD SWAP1 PUSH2 0x206 SWAP2 SWAP1 PUSH2 0x1573 JUMP JUMPDEST PUSH2 0x6E0 JUMP JUMPDEST PUSH1 0x40 MLOAD PUSH2 0x218 SWAP2 SWAP1 PUSH2 0x1B4F JUMP JUMPDEST PUSH1 0x40 MLOAD DUP1 SWAP2 SUB SWAP1 RETURN JUMPDEST PUSH2 0x229 PUSH2 0x798 JUMP JUMPDEST PUSH1 0x40 MLOAD PUSH2 0x236 SWAP2 SWAP1 PUSH2 0x1A0D JUMP JUMPDEST PUSH1 0x40 MLOAD DUP1 SWAP2 SUB SWAP1 RETURN JUMPDEST PUSH2 0x259 PUSH1 0x4 DUP1 CALLDATASIZE SUB DUP2 ADD SWAP1 PUSH2 0x254 SWAP2 SWAP1 PUSH2 0x16A2 JUMP JUMPDEST PUSH2 0x82A JUMP JUMPDEST STOP JUMPDEST PUSH2 0x275 PUSH1 0x4 DUP1 CALLDATASIZE SUB DUP2 ADD SWAP1 PUSH2 0x270 SWAP2 SWAP1 PUSH2 0x1627 JUMP JUMPDEST PUSH2 0x840 JUMP JUMPDEST STOP JUMPDEST PUSH2 0x291 PUSH1 0x4 DUP1 CALLDATASIZE SUB DUP2 ADD SWAP1 PUSH2 0x28C SWAP2 SWAP1 PUSH2 0x176C JUMP JUMPDEST PUSH2 0x8A2 JUMP JUMPDEST PUSH1 0x40 MLOAD PUSH2 0x29E SWAP2 SWAP1 PUSH2 0x1A0D JUMP JUMPDEST PUSH1 0x40 MLOAD DUP1 SWAP2 SUB SWAP1 RETURN JUMPDEST PUSH2 0x2C1 PUSH1 0x4 DUP1 CALLDATASIZE SUB DUP2 ADD SWAP1 PUSH2 0x2BC SWAP2 SWAP1 PUSH2 0x176C JUMP JUMPDEST PUSH2 0xA7D JUMP JUMPDEST PUSH1 0x40 MLOAD PUSH2 0x2CE SWAP2 SWAP1 PUSH2 0x1A0D JUMP JUMPDEST PUSH1 0x40 MLOAD DUP1 SWAP2 SUB SWAP1 RETURN JUMPDEST PUSH2 0x2F1 PUSH1 0x4 DUP1 CALLDATASIZE SUB DUP2 ADD SWAP1 PUSH2 0x2EC SWAP2 SWAP1 PUSH2 0x159C JUMP JUMPDEST PUSH2 0xAE5 JUMP JUMPDEST PUSH1 0x40 MLOAD PUSH2 0x2FE SWAP2 SWAP1 PUSH2 0x19F2 JUMP JUMPDEST PUSH1 0x40 MLOAD DUP1 SWAP2 SUB SWAP1 RETURN JUMPDEST PUSH1 0x0 PUSH32 0x80AC58CD00000000000000000000000000000000000000000000000000000000 PUSH28 0xFFFFFFFFFFFFFFFFFFFFFFFFFFFFFFFFFFFFFFFFFFFFFFFFFFFFFFFF NOT AND DUP3 PUSH28 0xFFFFFFFFFFFFFFFFFFFFFFFFFFFFFFFFFFFFFFFFFFFFFFFFFFFFFFFF NOT AND EQ DUP1 PUSH2 0x3D2 JUMPI POP PUSH32 0x5B5E139F00000000000000000000000000000000000000000000000000000000 PUSH28 0xFFFFFFFFFFFFFFFFFFFFFFFFFFFFFFFFFFFFFFFFFFFFFFFFFFFFFFFF NOT AND DUP3 PUSH28 0xFFFFFFFFFFFFFFFFFFFFFFFFFFFFFFFFFFFFFFFFFFFFFFFFFFFFFFFF NOT AND EQ JUMPDEST DUP1 PUSH2 0x3E2 JUMPI POP PUSH2 0x3E1 DUP3 PUSH2 0xB79 JUMP JUMPDEST JUMPDEST SWAP1 POP SWAP2 SWAP1 POP JUMP JUMPDEST PUSH1 0x60 PUSH1 0x0 DUP1 SLOAD PUSH2 0x3F8 SWAP1 PUSH2 0x1D0C JUMP JUMPDEST DUP1 PUSH1 0x1F ADD PUSH1 0x20 DUP1 SWAP2 DIV MUL PUSH1 0x20 ADD PUSH1 0x40 MLOAD SWAP1 DUP2 ADD PUSH1 0x40 MSTORE DUP1 SWAP3 SWAP2 SWAP1 DUP2 DUP2 MSTORE PUSH1 0x20 ADD DUP3 DUP1 SLOAD PUSH2 0x424 SWAP1 PUSH2 0x1D0C JUMP JUMPDEST DUP1 ISZERO PUSH2 0x471 JUMPI DUP1 PUSH1 0x1F LT PUSH2 0x446 JUMPI PUSH2 0x100 DUP1 DUP4 SLOAD DIV MUL DUP4 MSTORE SWAP2 PUSH1 0x20 ADD SWAP2 PUSH2 0x471 JUMP JUMPDEST DUP3 ADD SWAP2 SWAP1 PUSH1 0x0 MSTORE PUSH1 0x20 PUSH1 0x0 KECCAK256 SWAP1 JUMPDEST DUP2 SLOAD DUP2 MSTORE SWAP1 PUSH1 0x1 ADD SWAP1 PUSH1 0x20 ADD DUP1 DUP4 GT PUSH2 0x454 JUMPI DUP3 SWAP1 SUB PUSH1 0x1F AND DUP3 ADD SWAP2 JUMPDEST POP POP POP POP POP SWAP1 POP SWAP1 JUMP JUMPDEST PUSH1 0x0 PUSH2 0x486 DUP3 PUSH2 0xBE3 JUMP JUMPDEST PUSH1 0x4 PUSH1 0x0 DUP4 DUP2 MSTORE PUSH1 0x20 ADD SWAP1 DUP2 MSTORE PUSH1 0x20 ADD PUSH1 0x0 KECCAK256 PUSH1 0x0 SWAP1 SLOAD SWAP1 PUSH2 0x100 EXP SWAP1 DIV PUSH20 0xFFFFFFFFFFFFFFFFFFFFFFFFFFFFFFFFFFFFFFFF AND SWAP1 POP SWAP2 SWAP1 POP JUMP JUMPDEST PUSH1 0x0 PUSH2 0x4CC DUP3 PUSH2 0x659 JUMP JUMPDEST SWAP1 POP DUP1 PUSH20 0xFFFFFFFFFFFFFFFFFFFFFFFFFFFFFFFFFFFFFFFF AND DUP4 PUSH20 0xFFFFFFFFFFFFFFFFFFFFFFFFFFFFFFFFFFFFFFFF AND EQ ISZERO PUSH2 0x53D JUMPI PUSH1 0x40 MLOAD PUSH32 0x8C379A000000000000000000000000000000000000000000000000000000000 DUP2 MSTORE PUSH1 0x4 ADD PUSH2 0x534 SWAP1 PUSH2 0x1B0F JUMP JUMPDEST PUSH1 0x40 MLOAD DUP1 SWAP2 SUB SWAP1 REVERT JUMPDEST DUP1 PUSH20 0xFFFFFFFFFFFFFFFFFFFFFFFFFFFFFFFFFFFFFFFF AND PUSH2 0x55C PUSH2 0xC2E JUMP JUMPDEST PUSH20 0xFFFFFFFFFFFFFFFFFFFFFFFFFFFFFFFFFFFFFFFF AND EQ DUP1 PUSH2 0x58B JUMPI POP PUSH2 0x58A DUP2 PUSH2 0x585 PUSH2 0xC2E JUMP JUMPDEST PUSH2 0xAE5 JUMP JUMPDEST JUMPDEST PUSH2 0x5CA JUMPI PUSH1 0x40 MLOAD PUSH32 0x8C379A000000000000000000000000000000000000000000000000000000000 DUP2 MSTORE PUSH1 0x4 ADD PUSH2 0x5C1 SWAP1 PUSH2 0x1B2F JUMP JUMPDEST PUSH1 0x40 MLOAD DUP1 SWAP2 SUB SWAP1 REVERT JUMPDEST PUSH2 0x5D4 DUP4 DUP4 PUSH2 0xC36 JUMP JUMPDEST POP POP POP JUMP JUMPDEST PUSH2 0x5EA PUSH2 0x5E4 PUSH2 0xC2E JUMP JUMPDEST DUP3 PUSH2 0xCEF JUMP JUMPDEST PUSH2 0x629 JUMPI PUSH1 0x40 MLOAD PUSH32 0x8C379A000000000000000000000000000000000000000000000000000000000 DUP2 MSTORE PUSH1 0x4 ADD PUSH2 0x620 SWAP1 PUSH2 0x1A2F JUMP JUMPDEST PUSH1 0x40 MLOAD DUP1 SWAP2 SUB SWAP1 REVERT JUMPDEST PUSH2 0x634 DUP4 DUP4 DUP4 PUSH2 0xD84 JUMP JUMPDEST POP POP POP JUMP JUMPDEST PUSH2 0x654 DUP4 DUP4 DUP4 PUSH1 0x40 MLOAD DUP1 PUSH1 0x20 ADD PUSH1 0x40 MSTORE DUP1 PUSH1 0x0 DUP2 MSTORE POP PUSH2 0x840 JUMP JUMPDEST POP POP POP JUMP JUMPDEST PUSH1 0x0 DUP1 PUSH2 0x665 DUP4 PUSH2 0x107E JUMP JUMPDEST SWAP1 POP PUSH1 0x0 PUSH20 0xFFFFFFFFFFFFFFFFFFFFFFFFFFFFFFFFFFFFFFFF AND DUP2 PUSH20 0xFFFFFFFFFFFFFFFFFFFFFFFFFFFFFFFFFFFFFFFF AND EQ ISZERO PUSH2 0x6D7 JUMPI PUSH1 0x40 MLOAD PUSH32 0x8C379A000000000000000000000000000000000000000000000000000000000 DUP2 MSTORE PUSH1 0x4 ADD PUSH2 0x6CE SWAP1 PUSH2 0x1AEF JUMP JUMPDEST PUSH1 0x40 MLOAD DUP1 SWAP2 SUB SWAP1 REVERT JUMPDEST DUP1 SWAP2 POP POP SWAP2 SWAP1 POP JUMP JUMPDEST PUSH1 0x0 DUP1 PUSH20 0xFFFFFFFFFFFFFFFFFFFFFFFFFFFFFFFFFFFFFFFF AND DUP3 PUSH20 0xFFFFFFFFFFFFFFFFFFFFFFFFFFFFFFFFFFFFFFFF AND EQ ISZERO PUSH2 0x751 JUMPI PUSH1 0x40 MLOAD PUSH32 0x8C379A000000000000000000000000000000000000000000000000000000000 DUP2 MSTORE PUSH1 0x4 ADD PUSH2 0x748 SWAP1 PUSH2 0x1ACF JUMP JUMPDEST PUSH1 0x40 MLOAD DUP1 SWAP2 SUB SWAP1 REVERT JUMPDEST PUSH1 0x3 PUSH1 0x0 DUP4 PUSH20 0xFFFFFFFFFFFFFFFFFFFFFFFFFFFFFFFFFFFFFFFF AND PUSH20 0xFFFFFFFFFFFFFFFFFFFFFFFFFFFFFFFFFFFFFFFF AND DUP2 MSTORE PUSH1 0x20 ADD SWAP1 DUP2 MSTORE PUSH1 0x20 ADD PUSH1 0x0 KECCAK256 SLOAD SWAP1 POP SWAP2 SWAP1 POP JUMP JUMPDEST PUSH1 0x60 PUSH1 0x1 DUP1 SLOAD PUSH2 0x7A7 SWAP1 PUSH2 0x1D0C JUMP JUMPDEST DUP1 PUSH1 0x1F ADD PUSH1 0x20 DUP1 SWAP2 DIV MUL PUSH1 0x20 ADD PUSH1 0x40 MLOAD SWAP1 DUP2 ADD PUSH1 0x40 MSTORE DUP1 SWAP3 SWAP2 SWAP1 DUP2 DUP2 MSTORE PUSH1 0x20 ADD DUP3 DUP1 SLOAD PUSH2 0x7D3 SWAP1 PUSH2 0x1D0C JUMP JUMPDEST DUP1 ISZERO PUSH2 0x820 JUMPI DUP1 PUSH1 0x1F LT PUSH2 0x7F5 JUMPI PUSH2 0x100 DUP1 DUP4 SLOAD DIV MUL DUP4 MSTORE SWAP2 PUSH1 0x20 ADD SWAP2 PUSH2 0x820 JUMP JUMPDEST DUP3 ADD SWAP2 SWAP1 PUSH1 0x0 MSTORE PUSH1 0x20 PUSH1 0x0 KECCAK256 SWAP1 JUMPDEST DUP2 SLOAD DUP2 MSTORE SWAP1 PUSH1 0x1 ADD SWAP1 PUSH1 0x20 ADD DUP1 DUP4 GT PUSH2 0x803 JUMPI DUP3 SWAP1 SUB PUSH1 0x1F AND DUP3 ADD SWAP2 JUMPDEST POP POP POP POP POP SWAP1 POP SWAP1 JUMP JUMPDEST PUSH2 0x83C PUSH2 0x835 PUSH2 0xC2E JUMP JUMPDEST DUP4 DUP4 PUSH2 0x10BB JUMP JUMPDEST POP POP JUMP JUMPDEST PUSH2 0x851 PUSH2 0x84B PUSH2 0xC2E JUMP JUMPDEST DUP4 PUSH2 0xCEF JUMP JUMPDEST PUSH2 0x890 JUMPI PUSH1 0x40 MLOAD PUSH32 0x8C379A000000000000000000000000000000000000000000000000000000000 DUP2 MSTORE PUSH1 0x4 ADD PUSH2 0x887 SWAP1 PUSH2 0x1A2F JUMP JUMPDEST PUSH1 0x40 MLOAD DUP1 SWAP2 SUB SWAP1 REVERT JUMPDEST PUSH2 0x89C DUP5 DUP5 DUP5 DUP5 PUSH2 0x1228 JUMP JUMPDEST POP POP POP POP JUMP JUMPDEST PUSH1 0x60 PUSH1 0x0 DUP3 EQ ISZERO PUSH2 0x928 JUMPI PUSH1 0x0 PUSH8 0xFFFFFFFFFFFFFFFF DUP2 GT ISZERO PUSH2 0x8EE JUMPI PUSH32 0x4E487B7100000000000000000000000000000000000000000000000000000000 PUSH1 0x0 MSTORE PUSH1 0x41 PUSH1 0x4 MSTORE PUSH1 0x24 PUSH1 0x0 REVERT JUMPDEST PUSH1 0x40 MLOAD SWAP1 DUP1 DUP3 MSTORE DUP1 PUSH1 0x1F ADD PUSH1 0x1F NOT AND PUSH1 0x20 ADD DUP3 ADD PUSH1 0x40 MSTORE DUP1 ISZERO PUSH2 0x920 JUMPI DUP2 PUSH1 0x20 ADD PUSH1 0x1 DUP3 MUL DUP1 CALLDATASIZE DUP4 CALLDATACOPY DUP1 DUP3 ADD SWAP2 POP POP SWAP1 POP JUMPDEST POP SWAP1 POP PUSH2 0xA78 JUMP JUMPDEST PUSH1 0x0 DUP3 SWAP1 POP PUSH1 0x0 JUMPDEST PUSH1 0x0 DUP3 EQ PUSH2 0x952 JUMPI DUP1 DUP1 PUSH2 0x943 SWAP1 PUSH2 0x1D6F JUMP JUMPDEST SWAP2 POP POP PUSH1 0x8 DUP3 SWAP1 SHR SWAP2 POP PUSH2 0x930 JUMP JUMPDEST PUSH1 0x0 DUP2 PUSH8 0xFFFFFFFFFFFFFFFF DUP2 GT ISZERO PUSH2 0x994 JUMPI PUSH32 0x4E487B7100000000000000000000000000000000000000000000000000000000 PUSH1 0x0 MSTORE PUSH1 0x41 PUSH1 0x4 MSTORE PUSH1 0x24 PUSH1 0x0 REVERT JUMPDEST PUSH1 0x40 MLOAD SWAP1 DUP1 DUP3 MSTORE DUP1 PUSH1 0x1F ADD PUSH1 0x1F NOT AND PUSH1 0x20 ADD DUP3 ADD PUSH1 0x40 MSTORE DUP1 ISZERO PUSH2 0x9C6 JUMPI DUP2 PUSH1 0x20 ADD PUSH1 0x1 DUP3 MUL DUP1 CALLDATASIZE DUP4 CALLDATACOPY DUP1 DUP3 ADD SWAP2 POP POP SWAP1 POP JUMPDEST POP SWAP1 POP DUP5 SWAP3 POP PUSH1 0x0 DUP3 SWAP1 POP JUMPDEST PUSH1 0x0 DUP2 GT ISZERO PUSH2 0xA70 JUMPI PUSH1 0xFF DUP5 AND PUSH1 0xF8 SHL DUP3 PUSH1 0x1 DUP4 PUSH2 0x9F0 SWAP2 SWAP1 PUSH2 0x1BF8 JUMP JUMPDEST DUP2 MLOAD DUP2 LT PUSH2 0xA27 JUMPI PUSH32 0x4E487B7100000000000000000000000000000000000000000000000000000000 PUSH1 0x0 MSTORE PUSH1 0x32 PUSH1 0x4 MSTORE PUSH1 0x24 PUSH1 0x0 REVERT JUMPDEST PUSH1 0x20 ADD ADD SWAP1 PUSH31 0xFFFFFFFFFFFFFFFFFFFFFFFFFFFFFFFFFFFFFFFFFFFFFFFFFFFFFFFFFFFFFF NOT AND SWAP1 DUP2 PUSH1 0x0 BYTE SWAP1 MSTORE8 POP PUSH1 0x8 DUP5 SWAP1 SHR SWAP4 POP DUP1 DUP1 PUSH2 0xA68 SWAP1 PUSH2 0x1CE2 JUMP JUMPDEST SWAP2 POP POP PUSH2 0x9D2 JUMP JUMPDEST POP DUP1 SWAP4 POP POP POP POP JUMPDEST SWAP2 SWAP1 POP JUMP JUMPDEST PUSH1 0x60 PUSH2 0xA88 DUP3 PUSH2 0xBE3 JUMP JUMPDEST PUSH1 0x0 PUSH2 0xA92 PUSH2 0x1284 JUMP JUMPDEST SWAP1 POP PUSH1 0x0 DUP2 MLOAD GT PUSH2 0xAB2 JUMPI PUSH1 0x40 MLOAD DUP1 PUSH1 0x20 ADD PUSH1 0x40 MSTORE DUP1 PUSH1 0x0 DUP2 MSTORE POP PUSH2 0xADD JUMP JUMPDEST DUP1 PUSH2 0xABC DUP5 PUSH2 0x8A2 JUMP JUMPDEST PUSH1 0x40 MLOAD PUSH1 0x20 ADD PUSH2 0xACD SWAP3 SWAP2 SWAP1 PUSH2 0x1967 JUMP JUMPDEST PUSH1 0x40 MLOAD PUSH1 0x20 DUP2 DUP4 SUB SUB DUP2 MSTORE SWAP1 PUSH1 0x40 MSTORE JUMPDEST SWAP2 POP POP SWAP2 SWAP1 POP JUMP JUMPDEST PUSH1 0x0 PUSH1 0x5 PUSH1 0x0 DUP5 PUSH20 0xFFFFFFFFFFFFFFFFFFFFFFFFFFFFFFFFFFFFFFFF AND PUSH20 0xFFFFFFFFFFFFFFFFFFFFFFFFFFFFFFFFFFFFFFFF AND DUP2 MSTORE PUSH1 0x20 ADD SWAP1 DUP2 MSTORE PUSH1 0x20 ADD PUSH1 0x0 KECCAK256 PUSH1 0x0 DUP4 PUSH20 0xFFFFFFFFFFFFFFFFFFFFFFFFFFFFFFFFFFFFFFFF AND PUSH20 0xFFFFFFFFFFFFFFFFFFFFFFFFFFFFFFFFFFFFFFFF AND DUP2 MSTORE PUSH1 0x20 ADD SWAP1 DUP2 MSTORE PUSH1 0x20 ADD PUSH1 0x0 KECCAK256 PUSH1 0x0 SWAP1 SLOAD SWAP1 PUSH2 0x100 EXP SWAP1 DIV PUSH1 0xFF AND SWAP1 POP SWAP3 SWAP2 POP POP JUMP JUMPDEST PUSH1 0x0 PUSH32 0x1FFC9A700000000000000000000000000000000000000000000000000000000 PUSH28 0xFFFFFFFFFFFFFFFFFFFFFFFFFFFFFFFFFFFFFFFFFFFFFFFFFFFFFFFF NOT AND DUP3 PUSH28 0xFFFFFFFFFFFFFFFFFFFFFFFFFFFFFFFFFFFFFFFFFFFFFFFFFFFFFFFF NOT AND EQ SWAP1 POP SWAP2 SWAP1 POP JUMP JUMPDEST PUSH2 0xBEC DUP2 PUSH2 0x129B JUMP JUMPDEST PUSH2 0xC2B JUMPI PUSH1 0x40 MLOAD PUSH32 0x8C379A000000000000000000000000000000000000000000000000000000000 DUP2 MSTORE PUSH1 0x4 ADD PUSH2 0xC22 SWAP1 PUSH2 0x1AEF JUMP JUMPDEST PUSH1 0x40 MLOAD DUP1 SWAP2 SUB SWAP1 REVERT JUMPDEST POP JUMP JUMPDEST PUSH1 0x0 CALLER SWAP1 POP SWAP1 JUMP JUMPDEST DUP2 PUSH1 0x4 PUSH1 0x0 DUP4 DUP2 MSTORE PUSH1 0x20 ADD SWAP1 DUP2 MSTORE PUSH1 0x20 ADD PUSH1 0x0 KECCAK256 PUSH1 0x0 PUSH2 0x100 EXP DUP2 SLOAD DUP2 PUSH20 0xFFFFFFFFFFFFFFFFFFFFFFFFFFFFFFFFFFFFFFFF MUL NOT AND SWAP1 DUP4 PUSH20 0xFFFFFFFFFFFFFFFFFFFFFFFFFFFFFFFFFFFFFFFF AND MUL OR SWAP1 SSTORE POP DUP1 DUP3 PUSH20 0xFFFFFFFFFFFFFFFFFFFFFFFFFFFFFFFFFFFFFFFF AND PUSH2 0xCA9 DUP4 PUSH2 0x659 JUMP JUMPDEST PUSH20 0xFFFFFFFFFFFFFFFFFFFFFFFFFFFFFFFFFFFFFFFF AND PUSH32 0x8C5BE1E5EBEC7D5BD14F71427D1E84F3DD0314C0F7B2291E5B200AC8C7C3B925 PUSH1 0x40 MLOAD PUSH1 0x40 MLOAD DUP1 SWAP2 SUB SWAP1 LOG4 POP POP JUMP JUMPDEST PUSH1 0x0 DUP1 PUSH2 0xCFB DUP4 PUSH2 0x659 JUMP JUMPDEST SWAP1 POP DUP1 PUSH20 0xFFFFFFFFFFFFFFFFFFFFFFFFFFFFFFFFFFFFFFFF AND DUP5 PUSH20 0xFFFFFFFFFFFFFFFFFFFFFFFFFFFFFFFFFFFFFFFF AND EQ DUP1 PUSH2 0xD3D JUMPI POP PUSH2 0xD3C DUP2 DUP6 PUSH2 0xAE5 JUMP JUMPDEST JUMPDEST DUP1 PUSH2 0xD7B JUMPI POP DUP4 PUSH20 0xFFFFFFFFFFFFFFFFFFFFFFFFFFFFFFFFFFFFFFFF AND PUSH2 0xD63 DUP5 PUSH2 0x47B JUMP JUMPDEST PUSH20 0xFFFFFFFFFFFFFFFFFFFFFFFFFFFFFFFFFFFFFFFF AND EQ JUMPDEST SWAP2 POP POP SWAP3 SWAP2 POP POP JUMP JUMPDEST DUP3 PUSH20 0xFFFFFFFFFFFFFFFFFFFFFFFFFFFFFFFFFFFFFFFF AND PUSH2 0xDA4 DUP3 PUSH2 0x659 JUMP JUMPDEST PUSH20 0xFFFFFFFFFFFFFFFFFFFFFFFFFFFFFFFFFFFFFFFF AND EQ PUSH2 0xDFA JUMPI PUSH1 0x40 MLOAD PUSH32 0x8C379A000000000000000000000000000000000000000000000000000000000 DUP2 MSTORE PUSH1 0x4 ADD PUSH2 0xDF1 SWAP1 PUSH2 0x1A6F JUMP JUMPDEST PUSH1 0x40 MLOAD DUP1 SWAP2 SUB SWAP1 REVERT JUMPDEST PUSH1 0x0 PUSH20 0xFFFFFFFFFFFFFFFFFFFFFFFFFFFFFFFFFFFFFFFF AND DUP3 PUSH20 0xFFFFFFFFFFFFFFFFFFFFFFFFFFFFFFFFFFFFFFFF AND EQ ISZERO PUSH2 0xE6A JUMPI PUSH1 0x40 MLOAD PUSH32 0x8C379A000000000000000000000000000000000000000000000000000000000 DUP2 MSTORE PUSH1 0x4 ADD PUSH2 0xE61 SWAP1 PUSH2 0x1A8F JUMP JUMPDEST PUSH1 0x40 MLOAD DUP1 SWAP2 SUB SWAP1 REVERT JUMPDEST PUSH2 0xE77 DUP4 DUP4 DUP4 PUSH1 0x1 PUSH2 0x12DC JUMP JUMPDEST DUP3 PUSH20 0xFFFFFFFFFFFFFFFFFFFFFFFFFFFFFFFFFFFFFFFF AND PUSH2 0xE97 DUP3 PUSH2 0x659 JUMP JUMPDEST PUSH20 0xFFFFFFFFFFFFFFFFFFFFFFFFFFFFFFFFFFFFFFFF AND EQ PUSH2 0xEED JUMPI PUSH1 0x40 MLOAD PUSH32 0x8C379A000000000000000000000000000000000000000000000000000000000 DUP2 MSTORE PUSH1 0x4 ADD PUSH2 0xEE4 SWAP1 PUSH2 0x1A6F JUMP JUMPDEST PUSH1 0x40 MLOAD DUP1 SWAP2 SUB SWAP1 REVERT JUMPDEST PUSH1 0x4 PUSH1 0x0 DUP3 DUP2 MSTORE PUSH1 0x20 ADD SWAP1 DUP2 MSTORE PUSH1 0x20 ADD PUSH1 0x0 KECCAK256 PUSH1 0x0 PUSH2 0x100 EXP DUP2 SLOAD SWAP1 PUSH20 0xFFFFFFFFFFFFFFFFFFFFFFFFFFFFFFFFFFFFFFFF MUL NOT AND SWAP1 SSTORE PUSH1 0x1 PUSH1 0x3 PUSH1 0x0 DUP6 PUSH20 0xFFFFFFFFFFFFFFFFFFFFFFFFFFFFFFFFFFFFFFFF AND PUSH20 0xFFFFFFFFFFFFFFFFFFFFFFFFFFFFFFFFFFFFFFFF AND DUP2 MSTORE PUSH1 0x20 ADD SWAP1 DUP2 MSTORE PUSH1 0x20 ADD PUSH1 0x0 KECCAK256 PUSH1 0x0 DUP3 DUP3 SLOAD SUB SWAP3 POP POP DUP2 SWAP1 SSTORE POP PUSH1 0x1 PUSH1 0x3 PUSH1 0x0 DUP5 PUSH20 0xFFFFFFFFFFFFFFFFFFFFFFFFFFFFFFFFFFFFFFFF AND PUSH20 0xFFFFFFFFFFFFFFFFFFFFFFFFFFFFFFFFFFFFFFFF AND DUP2 MSTORE PUSH1 0x20 ADD SWAP1 DUP2 MSTORE PUSH1 0x20 ADD PUSH1 0x0 KECCAK256 PUSH1 0x0 DUP3 DUP3 SLOAD ADD SWAP3 POP POP DUP2 SWAP1 SSTORE POP DUP2 PUSH1 0x2 PUSH1 0x0 DUP4 DUP2 MSTORE PUSH1 0x20 ADD SWAP1 DUP2 MSTORE PUSH1 0x20 ADD PUSH1 0x0 KECCAK256 PUSH1 0x0 PUSH2 0x100 EXP DUP2 SLOAD DUP2 PUSH20 0xFFFFFFFFFFFFFFFFFFFFFFFFFFFFFFFFFFFFFFFF MUL NOT AND SWAP1 DUP4 PUSH20 0xFFFFFFFFFFFFFFFFFFFFFFFFFFFFFFFFFFFFFFFF AND MUL OR SWAP1 SSTORE POP DUP1 DUP3 PUSH20 0xFFFFFFFFFFFFFFFFFFFFFFFFFFFFFFFFFFFFFFFF AND DUP5 PUSH20 0xFFFFFFFFFFFFFFFFFFFFFFFFFFFFFFFFFFFFFFFF AND PUSH32 0xDDF252AD1BE2C89B69C2B068FC378DAA952BA7F163C4A11628F55A4DF523B3EF PUSH1 0x40 MLOAD PUSH1 0x40 MLOAD DUP1 SWAP2 SUB SWAP1 LOG4 PUSH2 0x1079 DUP4 DUP4 DUP4 PUSH1 0x1 PUSH2 0x12E2 JUMP JUMPDEST POP POP POP JUMP JUMPDEST PUSH1 0x0 PUSH1 0x2 PUSH1 0x0 DUP4 DUP2 MSTORE PUSH1 0x20 ADD SWAP1 DUP2 MSTORE PUSH1 0x20 ADD PUSH1 0x0 KECCAK256 PUSH1 0x0 SWAP1 SLOAD SWAP1 PUSH2 0x100 EXP SWAP1 DIV PUSH20 0xFFFFFFFFFFFFFFFFFFFFFFFFFFFFFFFFFFFFFFFF AND SWAP1 POP SWAP2 SWAP1 POP JUMP JUMPDEST DUP2 PUSH20 0xFFFFFFFFFFFFFFFFFFFFFFFFFFFFFFFFFFFFFFFF AND DUP4 PUSH20 0xFFFFFFFFFFFFFFFFFFFFFFFFFFFFFFFFFFFFFFFF AND EQ ISZERO PUSH2 0x112A JUMPI PUSH1 0x40 MLOAD PUSH32 0x8C379A000000000000000000000000000000000000000000000000000000000 DUP2 MSTORE PUSH1 0x4 ADD PUSH2 0x1121 SWAP1 PUSH2 0x1AAF JUMP JUMPDEST PUSH1 0x40 MLOAD DUP1 SWAP2 SUB SWAP1 REVERT JUMPDEST DUP1 PUSH1 0x5 PUSH1 0x0 DUP6 PUSH20 0xFFFFFFFFFFFFFFFFFFFFFFFFFFFFFFFFFFFFFFFF AND PUSH20 0xFFFFFFFFFFFFFFFFFFFFFFFFFFFFFFFFFFFFFFFF AND DUP2 MSTORE PUSH1 0x20 ADD SWAP1 DUP2 MSTORE PUSH1 0x20 ADD PUSH1 0x0 KECCAK256 PUSH1 0x0 DUP5 PUSH20 0xFFFFFFFFFFFFFFFFFFFFFFFFFFFFFFFFFFFFFFFF AND PUSH20 0xFFFFFFFFFFFFFFFFFFFFFFFFFFFFFFFFFFFFFFFF AND DUP2 MSTORE PUSH1 0x20 ADD SWAP1 DUP2 MSTORE PUSH1 0x20 ADD PUSH1 0x0 KECCAK256 PUSH1 0x0 PUSH2 0x100 EXP DUP2 SLOAD DUP2 PUSH1 0xFF MUL NOT AND SWAP1 DUP4 ISZERO ISZERO MUL OR SWAP1 SSTORE POP DUP2 PUSH20 0xFFFFFFFFFFFFFFFFFFFFFFFFFFFFFFFFFFFFFFFF AND DUP4 PUSH20 0xFFFFFFFFFFFFFFFFFFFFFFFFFFFFFFFFFFFFFFFF AND PUSH32 0x17307EAB39AB6107E8899845AD3D59BD9653F200F220920489CA2B5937696C31 DUP4 PUSH1 0x40 MLOAD PUSH2 0x121B SWAP2 SWAP1 PUSH2 0x19F2 JUMP JUMPDEST PUSH1 0x40 MLOAD DUP1 SWAP2 SUB SWAP1 LOG3 POP POP POP JUMP JUMPDEST PUSH2 0x1233 DUP5 DUP5 DUP5 PUSH2 0xD84 JUMP JUMPDEST PUSH2 0x123F DUP5 DUP5 DUP5 DUP5 PUSH2 0x12E8 JUMP JUMPDEST PUSH2 0x127E JUMPI PUSH1 0x40 MLOAD PUSH32 0x8C379A000000000000000000000000000000000000000000000000000000000 DUP2 MSTORE PUSH1 0x4 ADD PUSH2 0x1275 SWAP1 PUSH2 0x1A4F JUMP JUMPDEST PUSH1 0x40 MLOAD DUP1 SWAP2 SUB SWAP1 REVERT JUMPDEST POP POP POP POP JUMP JUMPDEST PUSH1 0x60 PUSH1 0x40 MLOAD DUP1 PUSH1 0x20 ADD PUSH1 0x40 MSTORE DUP1 PUSH1 0x0 DUP2 MSTORE POP SWAP1 POP SWAP1 JUMP JUMPDEST PUSH1 0x0 DUP1 PUSH20 0xFFFFFFFFFFFFFFFFFFFFFFFFFFFFFFFFFFFFFFFF AND PUSH2 0x12BD DUP4 PUSH2 0x107E JUMP JUMPDEST PUSH20 0xFFFFFFFFFFFFFFFFFFFFFFFFFFFFFFFFFFFFFFFF AND EQ ISZERO SWAP1 POP SWAP2 SWAP1 POP JUMP JUMPDEST POP POP POP POP JUMP JUMPDEST POP POP POP POP JUMP JUMPDEST PUSH1 0x0 PUSH2 0x1309 DUP5 PUSH20 0xFFFFFFFFFFFFFFFFFFFFFFFFFFFFFFFFFFFFFFFF AND PUSH2 0x147F JUMP JUMPDEST ISZERO PUSH2 0x1472 JUMPI DUP4 PUSH20 0xFFFFFFFFFFFFFFFFFFFFFFFFFFFFFFFFFFFFFFFF AND PUSH4 0x150B7A02 PUSH2 0x1332 PUSH2 0xC2E JUMP JUMPDEST DUP8 DUP7 DUP7 PUSH1 0x40 MLOAD DUP6 PUSH4 0xFFFFFFFF AND PUSH1 0xE0 SHL DUP2 MSTORE PUSH1 0x4 ADD PUSH2 0x1354 SWAP5 SWAP4 SWAP3 SWAP2 SWAP1 PUSH2 0x19A6 JUMP JUMPDEST PUSH1 0x20 PUSH1 0x40 MLOAD DUP1 DUP4 SUB DUP2 PUSH1 0x0 DUP8 DUP1 EXTCODESIZE ISZERO DUP1 ISZERO PUSH2 0x136E JUMPI PUSH1 0x0 DUP1 REVERT JUMPDEST POP GAS CALL SWAP3 POP POP POP DUP1 ISZERO PUSH2 0x139F JUMPI POP PUSH1 0x40 MLOAD RETURNDATASIZE PUSH1 0x1F NOT PUSH1 0x1F DUP3 ADD AND DUP3 ADD DUP1 PUSH1 0x40 MSTORE POP DUP2 ADD SWAP1 PUSH2 0x139C SWAP2 SWAP1 PUSH2 0x1743 JUMP JUMPDEST PUSH1 0x1 JUMPDEST PUSH2 0x1422 JUMPI RETURNDATASIZE DUP1 PUSH1 0x0 DUP2 EQ PUSH2 0x13CF JUMPI PUSH1 0x40 MLOAD SWAP2 POP PUSH1 0x1F NOT PUSH1 0x3F RETURNDATASIZE ADD AND DUP3 ADD PUSH1 0x40 MSTORE RETURNDATASIZE DUP3 MSTORE RETURNDATASIZE PUSH1 0x0 PUSH1 0x20 DUP5 ADD RETURNDATACOPY PUSH2 0x13D4 JUMP JUMPDEST PUSH1 0x60 SWAP2 POP JUMPDEST POP PUSH1 0x0 DUP2 MLOAD EQ ISZERO PUSH2 0x141A JUMPI PUSH1 0x40 MLOAD PUSH32 0x8C379A000000000000000000000000000000000000000000000000000000000 DUP2 MSTORE PUSH1 0x4 ADD PUSH2 0x1411 SWAP1 PUSH2 0x1A4F JUMP JUMPDEST PUSH1 0x40 MLOAD DUP1 SWAP2 SUB SWAP1 REVERT JUMPDEST DUP1 MLOAD DUP2 PUSH1 0x20 ADD REVERT JUMPDEST PUSH4 0x150B7A02 PUSH1 0xE0 SHL PUSH28 0xFFFFFFFFFFFFFFFFFFFFFFFFFFFFFFFFFFFFFFFFFFFFFFFFFFFFFFFF NOT AND DUP2 PUSH28 0xFFFFFFFFFFFFFFFFFFFFFFFFFFFFFFFFFFFFFFFFFFFFFFFFFFFFFFFF NOT AND EQ SWAP2 POP POP PUSH2 0x1477 JUMP JUMPDEST PUSH1 0x1 SWAP1 POP JUMPDEST SWAP5 SWAP4 POP POP POP POP JUMP JUMPDEST PUSH1 0x0 DUP1 DUP3 PUSH20 0xFFFFFFFFFFFFFFFFFFFFFFFFFFFFFFFFFFFFFFFF AND EXTCODESIZE GT SWAP1 POP SWAP2 SWAP1 POP JUMP JUMPDEST PUSH1 0x0 PUSH2 0x14B5 PUSH2 0x14B0 DUP5 PUSH2 0x1B8F JUMP JUMPDEST PUSH2 0x1B6A JUMP JUMPDEST SWAP1 POP DUP3 DUP2 MSTORE PUSH1 0x20 DUP2 ADD DUP5 DUP5 DUP5 ADD GT ISZERO PUSH2 0x14CD JUMPI PUSH1 0x0 DUP1 REVERT JUMPDEST PUSH2 0x14D8 DUP5 DUP3 DUP6 PUSH2 0x1CA0 JUMP JUMPDEST POP SWAP4 SWAP3 POP POP POP JUMP JUMPDEST PUSH1 0x0 DUP2 CALLDATALOAD SWAP1 POP PUSH2 0x14EF DUP2 PUSH2 0x20D1 JUMP JUMPDEST SWAP3 SWAP2 POP POP JUMP JUMPDEST PUSH1 0x0 DUP2 CALLDATALOAD SWAP1 POP PUSH2 0x1504 DUP2 PUSH2 0x20E8 JUMP JUMPDEST SWAP3 SWAP2 POP POP JUMP JUMPDEST PUSH1 0x0 DUP2 CALLDATALOAD SWAP1 POP PUSH2 0x1519 DUP2 PUSH2 0x20FF JUMP JUMPDEST SWAP3 SWAP2 POP POP JUMP JUMPDEST PUSH1 0x0 DUP2 MLOAD SWAP1 POP PUSH2 0x152E DUP2 PUSH2 0x20FF JUMP JUMPDEST SWAP3 SWAP2 POP POP JUMP JUMPDEST PUSH1 0x0 DUP3 PUSH1 0x1F DUP4 ADD SLT PUSH2 0x1545 JUMPI PUSH1 0x0 DUP1 REVERT JUMPDEST DUP2 CALLDATALOAD PUSH2 0x1555 DUP5 DUP3 PUSH1 0x20 DUP7 ADD PUSH2 0x14A2 JUMP JUMPDEST SWAP2 POP POP SWAP3 SWAP2 POP POP JUMP JUMPDEST PUSH1 0x0 DUP2 CALLDATALOAD SWAP1 POP PUSH2 0x156D DUP2 PUSH2 0x2116 JUMP JUMPDEST SWAP3 SWAP2 POP POP JUMP JUMPDEST PUSH1 0x0 PUSH1 0x20 DUP3 DUP5 SUB SLT ISZERO PUSH2 0x1585 JUMPI PUSH1 0x0 DUP1 REVERT JUMPDEST PUSH1 0x0 PUSH2 0x1593 DUP5 DUP3 DUP6 ADD PUSH2 0x14E0 JUMP JUMPDEST SWAP2 POP POP SWAP3 SWAP2 POP POP JUMP JUMPDEST PUSH1 0x0 DUP1 PUSH1 0x40 DUP4 DUP6 SUB SLT ISZERO PUSH2 0x15AF JUMPI PUSH1 0x0 DUP1 REVERT JUMPDEST PUSH1 0x0 PUSH2 0x15BD DUP6 DUP3 DUP7 ADD PUSH2 0x14E0 JUMP JUMPDEST SWAP3 POP POP PUSH1 0x20 PUSH2 0x15CE DUP6 DUP3 DUP7 ADD PUSH2 0x14E0 JUMP JUMPDEST SWAP2 POP POP SWAP3 POP SWAP3 SWAP1 POP JUMP JUMPDEST PUSH1 0x0 DUP1 PUSH1 0x0 PUSH1 0x60 DUP5 DUP7 SUB SLT ISZERO PUSH2 0x15ED JUMPI PUSH1 0x0 DUP1 REVERT JUMPDEST PUSH1 0x0 PUSH2 0x15FB DUP7 DUP3 DUP8 ADD PUSH2 0x14E0 JUMP JUMPDEST SWAP4 POP POP PUSH1 0x20 PUSH2 0x160C DUP7 DUP3 DUP8 ADD PUSH2 0x14E0 JUMP JUMPDEST SWAP3 POP POP PUSH1 0x40 PUSH2 0x161D DUP7 DUP3 DUP8 ADD PUSH2 0x155E JUMP JUMPDEST SWAP2 POP POP SWAP3 POP SWAP3 POP SWAP3 JUMP JUMPDEST PUSH1 0x0 DUP1 PUSH1 0x0 DUP1 PUSH1 0x80 DUP6 DUP8 SUB SLT ISZERO PUSH2 0x163D JUMPI PUSH1 0x0 DUP1 REVERT JUMPDEST PUSH1 0x0 PUSH2 0x164B DUP8 DUP3 DUP9 ADD PUSH2 0x14E0 JUMP JUMPDEST SWAP5 POP POP PUSH1 0x20 PUSH2 0x165C DUP8 DUP3 DUP9 ADD PUSH2 0x14E0 JUMP JUMPDEST SWAP4 POP POP PUSH1 0x40 PUSH2 0x166D DUP8 DUP3 DUP9 ADD PUSH2 0x155E JUMP JUMPDEST SWAP3 POP POP PUSH1 0x60 DUP6 ADD CALLDATALOAD PUSH8 0xFFFFFFFFFFFFFFFF DUP2 GT ISZERO PUSH2 0x168A JUMPI PUSH1 0x0 DUP1 REVERT JUMPDEST PUSH2 0x1696 DUP8 DUP3 DUP9 ADD PUSH2 0x1534 JUMP JUMPDEST SWAP2 POP POP SWAP3 SWAP6 SWAP2 SWAP5 POP SWAP3 POP JUMP JUMPDEST PUSH1 0x0 DUP1 PUSH1 0x40 DUP4 DUP6 SUB SLT ISZERO PUSH2 0x16B5 JUMPI PUSH1 0x0 DUP1 REVERT JUMPDEST PUSH1 0x0 PUSH2 0x16C3 DUP6 DUP3 DUP7 ADD PUSH2 0x14E0 JUMP JUMPDEST SWAP3 POP POP PUSH1 0x20 PUSH2 0x16D4 DUP6 DUP3 DUP7 ADD PUSH2 0x14F5 JUMP JUMPDEST SWAP2 POP POP SWAP3 POP SWAP3 SWAP1 POP JUMP JUMPDEST PUSH1 0x0 DUP1 PUSH1 0x40 DUP4 DUP6 SUB SLT ISZERO PUSH2 0x16F1 JUMPI PUSH1 0x0 DUP1 REVERT JUMPDEST PUSH1 0x0 PUSH2 0x16FF DUP6 DUP3 DUP7 ADD PUSH2 0x14E0 JUMP JUMPDEST SWAP3 POP POP PUSH1 0x20 PUSH2 0x1710 DUP6 DUP3 DUP7 ADD PUSH2 0x155E JUMP JUMPDEST SWAP2 POP POP SWAP3 POP SWAP3 SWAP1 POP JUMP JUMPDEST PUSH1 0x0 PUSH1 0x20 DUP3 DUP5 SUB SLT ISZERO PUSH2 0x172C JUMPI PUSH1 0x0 DUP1 REVERT JUMPDEST PUSH1 0x0 PUSH2 0x173A DUP5 DUP3 DUP6 ADD PUSH2 0x150A JUMP JUMPDEST SWAP2 POP POP SWAP3 SWAP2 POP POP JUMP JUMPDEST PUSH1 0x0 PUSH1 0x20 DUP3 DUP5 SUB SLT ISZERO PUSH2 0x1755 JUMPI PUSH1 0x0 DUP1 REVERT JUMPDEST PUSH1 0x0 PUSH2 0x1763 DUP5 DUP3 DUP6 ADD PUSH2 0x151F JUMP JUMPDEST SWAP2 POP POP SWAP3 SWAP2 POP POP JUMP JUMPDEST PUSH1 0x0 PUSH1 0x20 DUP3 DUP5 SUB SLT ISZERO PUSH2 0x177E JUMPI PUSH1 0x0 DUP1 REVERT JUMPDEST PUSH1 0x0 PUSH2 0x178C DUP5 DUP3 DUP6 ADD PUSH2 0x155E JUMP JUMPDEST SWAP2 POP POP SWAP3 SWAP2 POP POP JUMP JUMPDEST PUSH2 0x179E DUP2 PUSH2 0x1C2C JUMP JUMPDEST DUP3 MSTORE POP POP JUMP JUMPDEST PUSH2 0x17AD DUP2 PUSH2 0x1C3E JUMP JUMPDEST DUP3 MSTORE POP POP JUMP JUMPDEST PUSH1 0x0 PUSH2 0x17BE DUP3 PUSH2 0x1BC0 JUMP JUMPDEST PUSH2 0x17C8 DUP2 DUP6 PUSH2 0x1BCB JUMP JUMPDEST SWAP4 POP PUSH2 0x17D8 DUP2 DUP6 PUSH1 0x20 DUP7 ADD PUSH2 0x1CAF JUMP JUMPDEST PUSH2 0x17E1 DUP2 PUSH2 0x1E45 JUMP JUMPDEST DUP5 ADD SWAP2 POP POP SWAP3 SWAP2 POP POP JUMP JUMPDEST PUSH1 0x0 PUSH2 0x17F7 DUP3 PUSH2 0x1BC0 JUMP JUMPDEST PUSH2 0x1801 DUP2 DUP6 PUSH2 0x1BDC JUMP JUMPDEST SWAP4 POP PUSH2 0x1811 DUP2 DUP6 PUSH1 0x20 DUP7 ADD PUSH2 0x1CAF JUMP JUMPDEST DUP1 DUP5 ADD SWAP2 POP POP SWAP3 SWAP2 POP POP JUMP JUMPDEST PUSH1 0x0 PUSH2 0x182A PUSH1 0x2D DUP4 PUSH2 0x1BE7 JUMP JUMPDEST SWAP2 POP PUSH2 0x1835 DUP3 PUSH2 0x1E56 JUMP JUMPDEST PUSH1 0x40 DUP3 ADD SWAP1 POP SWAP2 SWAP1 POP JUMP JUMPDEST PUSH1 0x0 PUSH2 0x184D PUSH1 0x32 DUP4 PUSH2 0x1BE7 JUMP JUMPDEST SWAP2 POP PUSH2 0x1858 DUP3 PUSH2 0x1EA5 JUMP JUMPDEST PUSH1 0x40 DUP3 ADD SWAP1 POP SWAP2 SWAP1 POP JUMP JUMPDEST PUSH1 0x0 PUSH2 0x1870 PUSH1 0x25 DUP4 PUSH2 0x1BE7 JUMP JUMPDEST SWAP2 POP PUSH2 0x187B DUP3 PUSH2 0x1EF4 JUMP JUMPDEST PUSH1 0x40 DUP3 ADD SWAP1 POP SWAP2 SWAP1 POP JUMP JUMPDEST PUSH1 0x0 PUSH2 0x1893 PUSH1 0x24 DUP4 PUSH2 0x1BE7 JUMP JUMPDEST SWAP2 POP PUSH2 0x189E DUP3 PUSH2 0x1F43 JUMP JUMPDEST PUSH1 0x40 DUP3 ADD SWAP1 POP SWAP2 SWAP1 POP JUMP JUMPDEST PUSH1 0x0 PUSH2 0x18B6 PUSH1 0x19 DUP4 PUSH2 0x1BE7 JUMP JUMPDEST SWAP2 POP PUSH2 0x18C1 DUP3 PUSH2 0x1F92 JUMP JUMPDEST PUSH1 0x20 DUP3 ADD SWAP1 POP SWAP2 SWAP1 POP JUMP JUMPDEST PUSH1 0x0 PUSH2 0x18D9 PUSH1 0x29 DUP4 PUSH2 0x1BE7 JUMP JUMPDEST SWAP2 POP PUSH2 0x18E4 DUP3 PUSH2 0x1FBB JUMP JUMPDEST PUSH1 0x40 DUP3 ADD SWAP1 POP SWAP2 SWAP1 POP JUMP JUMPDEST PUSH1 0x0 PUSH2 0x18FC PUSH1 0x18 DUP4 PUSH2 0x1BE7 JUMP JUMPDEST SWAP2 POP PUSH2 0x1907 DUP3 PUSH2 0x200A JUMP JUMPDEST PUSH1 0x20 DUP3 ADD SWAP1 POP SWAP2 SWAP1 POP JUMP JUMPDEST PUSH1 0x0 PUSH2 0x191F PUSH1 0x21 DUP4 PUSH2 0x1BE7 JUMP JUMPDEST SWAP2 POP PUSH2 0x192A DUP3 PUSH2 0x2033 JUMP JUMPDEST PUSH1 0x40 DUP3 ADD SWAP1 POP SWAP2 SWAP1 POP JUMP JUMPDEST PUSH1 0x0 PUSH2 0x1942 PUSH1 0x3D DUP4 PUSH2 0x1BE7 JUMP JUMPDEST SWAP2 POP PUSH2 0x194D DUP3 PUSH2 0x2082 JUMP JUMPDEST PUSH1 0x40 DUP3 ADD SWAP1 POP SWAP2 SWAP1 POP JUMP JUMPDEST PUSH2 0x1961 DUP2 PUSH2 0x1C96 JUMP JUMPDEST DUP3 MSTORE POP POP JUMP JUMPDEST PUSH1 0x0 PUSH2 0x1973 DUP3 DUP6 PUSH2 0x17EC JUMP JUMPDEST SWAP2 POP PUSH2 0x197F DUP3 DUP5 PUSH2 0x17EC JUMP JUMPDEST SWAP2 POP DUP2 SWAP1 POP SWAP4 SWAP3 POP POP POP JUMP JUMPDEST PUSH1 0x0 PUSH1 0x20 DUP3 ADD SWAP1 POP PUSH2 0x19A0 PUSH1 0x0 DUP4 ADD DUP5 PUSH2 0x1795 JUMP JUMPDEST SWAP3 SWAP2 POP POP JUMP JUMPDEST PUSH1 0x0 PUSH1 0x80 DUP3 ADD SWAP1 POP PUSH2 0x19BB PUSH1 0x0 DUP4 ADD DUP8 PUSH2 0x1795 JUMP JUMPDEST PUSH2 0x19C8 PUSH1 0x20 DUP4 ADD DUP7 PUSH2 0x1795 JUMP JUMPDEST PUSH2 0x19D5 PUSH1 0x40 DUP4 ADD DUP6 PUSH2 0x1958 JUMP JUMPDEST DUP2 DUP2 SUB PUSH1 0x60 DUP4 ADD MSTORE PUSH2 0x19E7 DUP2 DUP5 PUSH2 0x17B3 JUMP JUMPDEST SWAP1 POP SWAP6 SWAP5 POP POP POP POP POP JUMP JUMPDEST PUSH1 0x0 PUSH1 0x20 DUP3 ADD SWAP1 POP PUSH2 0x1A07 PUSH1 0x0 DUP4 ADD DUP5 PUSH2 0x17A4 JUMP JUMPDEST SWAP3 SWAP2 POP POP JUMP JUMPDEST PUSH1 0x0 PUSH1 0x20 DUP3 ADD SWAP1 POP DUP2 DUP2 SUB PUSH1 0x0 DUP4 ADD MSTORE PUSH2 0x1A27 DUP2 DUP5 PUSH2 0x17B3 JUMP JUMPDEST SWAP1 POP SWAP3 SWAP2 POP POP JUMP JUMPDEST PUSH1 0x0 PUSH1 0x20 DUP3 ADD SWAP1 POP DUP2 DUP2 SUB PUSH1 0x0 DUP4 ADD MSTORE PUSH2 0x1A48 DUP2 PUSH2 0x181D JUMP JUMPDEST SWAP1 POP SWAP2 SWAP1 POP JUMP JUMPDEST PUSH1 0x0 PUSH1 0x20 DUP3 ADD SWAP1 POP DUP2 DUP2 SUB PUSH1 0x0 DUP4 ADD MSTORE PUSH2 0x1A68 DUP2 PUSH2 0x1840 JUMP JUMPDEST SWAP1 POP SWAP2 SWAP1 POP JUMP JUMPDEST PUSH1 0x0 PUSH1 0x20 DUP3 ADD SWAP1 POP DUP2 DUP2 SUB PUSH1 0x0 DUP4 ADD MSTORE PUSH2 0x1A88 DUP2 PUSH2 0x1863 JUMP JUMPDEST SWAP1 POP SWAP2 SWAP1 POP JUMP JUMPDEST PUSH1 0x0 PUSH1 0x20 DUP3 ADD SWAP1 POP DUP2 DUP2 SUB PUSH1 0x0 DUP4 ADD MSTORE PUSH2 0x1AA8 DUP2 PUSH2 0x1886 JUMP JUMPDEST SWAP1 POP SWAP2 SWAP1 POP JUMP JUMPDEST PUSH1 0x0 PUSH1 0x20 DUP3 ADD SWAP1 POP DUP2 DUP2 SUB PUSH1 0x0 DUP4 ADD MSTORE PUSH2 0x1AC8 DUP2 PUSH2 0x18A9 JUMP JUMPDEST SWAP1 POP SWAP2 SWAP1 POP JUMP JUMPDEST PUSH1 0x0 PUSH1 0x20 DUP3 ADD SWAP1 POP DUP2 DUP2 SUB PUSH1 0x0 DUP4 ADD MSTORE PUSH2 0x1AE8 DUP2 PUSH2 0x18CC JUMP JUMPDEST SWAP1 POP SWAP2 SWAP1 POP JUMP JUMPDEST PUSH1 0x0 PUSH1 0x20 DUP3 ADD SWAP1 POP DUP2 DUP2 SUB PUSH1 0x0 DUP4 ADD MSTORE PUSH2 0x1B08 DUP2 PUSH2 0x18EF JUMP JUMPDEST SWAP1 POP SWAP2 SWAP1 POP JUMP JUMPDEST PUSH1 0x0 PUSH1 0x20 DUP3 ADD SWAP1 POP DUP2 DUP2 SUB PUSH1 0x0 DUP4 ADD MSTORE PUSH2 0x1B28 DUP2 PUSH2 0x1912 JUMP JUMPDEST SWAP1 POP SWAP2 SWAP1 POP JUMP JUMPDEST PUSH1 0x0 PUSH1 0x20 DUP3 ADD SWAP1 POP DUP2 DUP2 SUB PUSH1 0x0 DUP4 ADD MSTORE PUSH2 0x1B48 DUP2 PUSH2 0x1935 JUMP JUMPDEST SWAP1 POP SWAP2 SWAP1 POP JUMP JUMPDEST PUSH1 0x0 PUSH1 0x20 DUP3 ADD SWAP1 POP PUSH2 0x1B64 PUSH1 0x0 DUP4 ADD DUP5 PUSH2 0x1958 JUMP JUMPDEST SWAP3 SWAP2 POP POP JUMP JUMPDEST PUSH1 0x0 PUSH2 0x1B74 PUSH2 0x1B85 JUMP JUMPDEST SWAP1 POP PUSH2 0x1B80 DUP3 DUP3 PUSH2 0x1D3E JUMP JUMPDEST SWAP2 SWAP1 POP JUMP JUMPDEST PUSH1 0x0 PUSH1 0x40 MLOAD SWAP1 POP SWAP1 JUMP JUMPDEST PUSH1 0x0 PUSH8 0xFFFFFFFFFFFFFFFF DUP3 GT ISZERO PUSH2 0x1BAA JUMPI PUSH2 0x1BA9 PUSH2 0x1E16 JUMP JUMPDEST JUMPDEST PUSH2 0x1BB3 DUP3 PUSH2 0x1E45 JUMP JUMPDEST SWAP1 POP PUSH1 0x20 DUP2 ADD SWAP1 POP SWAP2 SWAP1 POP JUMP JUMPDEST PUSH1 0x0 DUP2 MLOAD SWAP1 POP SWAP2 SWAP1 POP JUMP JUMPDEST PUSH1 0x0 DUP3 DUP3 MSTORE PUSH1 0x20 DUP3 ADD SWAP1 POP SWAP3 SWAP2 POP POP JUMP JUMPDEST PUSH1 0x0 DUP2 SWAP1 POP SWAP3 SWAP2 POP POP JUMP JUMPDEST PUSH1 0x0 DUP3 DUP3 MSTORE PUSH1 0x20 DUP3 ADD SWAP1 POP SWAP3 SWAP2 POP POP JUMP JUMPDEST PUSH1 0x0 PUSH2 0x1C03 DUP3 PUSH2 0x1C96 JUMP JUMPDEST SWAP2 POP PUSH2 0x1C0E DUP4 PUSH2 0x1C96 JUMP JUMPDEST SWAP3 POP DUP3 DUP3 LT ISZERO PUSH2 0x1C21 JUMPI PUSH2 0x1C20 PUSH2 0x1DB8 JUMP JUMPDEST JUMPDEST DUP3 DUP3 SUB SWAP1 POP SWAP3 SWAP2 POP POP JUMP JUMPDEST PUSH1 0x0 PUSH2 0x1C37 DUP3 PUSH2 0x1C76 JUMP JUMPDEST SWAP1 POP SWAP2 SWAP1 POP JUMP JUMPDEST PUSH1 0x0 DUP2 ISZERO ISZERO SWAP1 POP SWAP2 SWAP1 POP JUMP JUMPDEST PUSH1 0x0 PUSH32 0xFFFFFFFF00000000000000000000000000000000000000000000000000000000 DUP3 AND SWAP1 POP SWAP2 SWAP1 POP JUMP JUMPDEST PUSH1 0x0 PUSH20 0xFFFFFFFFFFFFFFFFFFFFFFFFFFFFFFFFFFFFFFFF DUP3 AND SWAP1 POP SWAP2 SWAP1 POP JUMP JUMPDEST PUSH1 0x0 DUP2 SWAP1 POP SWAP2 SWAP1 POP JUMP JUMPDEST DUP3 DUP2 DUP4 CALLDATACOPY PUSH1 0x0 DUP4 DUP4 ADD MSTORE POP POP POP JUMP JUMPDEST PUSH1 0x0 JUMPDEST DUP4 DUP2 LT ISZERO PUSH2 0x1CCD JUMPI DUP1 DUP3 ADD MLOAD DUP2 DUP5 ADD MSTORE PUSH1 0x20 DUP2 ADD SWAP1 POP PUSH2 0x1CB2 JUMP JUMPDEST DUP4 DUP2 GT ISZERO PUSH2 0x1CDC JUMPI PUSH1 0x0 DUP5 DUP5 ADD MSTORE JUMPDEST POP POP POP POP JUMP JUMPDEST PUSH1 0x0 PUSH2 0x1CED DUP3 PUSH2 0x1C96 JUMP JUMPDEST SWAP2 POP PUSH1 0x0 DUP3 EQ ISZERO PUSH2 0x1D01 JUMPI PUSH2 0x1D00 PUSH2 0x1DB8 JUMP JUMPDEST JUMPDEST PUSH1 0x1 DUP3 SUB SWAP1 POP SWAP2 SWAP1 POP JUMP JUMPDEST PUSH1 0x0 PUSH1 0x2 DUP3 DIV SWAP1 POP PUSH1 0x1 DUP3 AND DUP1 PUSH2 0x1D24 JUMPI PUSH1 0x7F DUP3 AND SWAP2 POP JUMPDEST PUSH1 0x20 DUP3 LT DUP2 EQ ISZERO PUSH2 0x1D38 JUMPI PUSH2 0x1D37 PUSH2 0x1DE7 JUMP JUMPDEST JUMPDEST POP SWAP2 SWAP1 POP JUMP JUMPDEST PUSH2 0x1D47 DUP3 PUSH2 0x1E45 JUMP JUMPDEST DUP2 ADD DUP2 DUP2 LT PUSH8 0xFFFFFFFFFFFFFFFF DUP3 GT OR ISZERO PUSH2 0x1D66 JUMPI PUSH2 0x1D65 PUSH2 0x1E16 JUMP JUMPDEST JUMPDEST DUP1 PUSH1 0x40 MSTORE POP POP POP JUMP JUMPDEST PUSH1 0x0 PUSH2 0x1D7A DUP3 PUSH2 0x1C96 JUMP JUMPDEST SWAP2 POP PUSH32 0xFFFFFFFFFFFFFFFFFFFFFFFFFFFFFFFFFFFFFFFFFFFFFFFFFFFFFFFFFFFFFFFF DUP3 EQ ISZERO PUSH2 0x1DAD JUMPI PUSH2 0x1DAC PUSH2 0x1DB8 JUMP JUMPDEST JUMPDEST PUSH1 0x1 DUP3 ADD SWAP1 POP SWAP2 SWAP1 POP JUMP JUMPDEST PUSH32 0x4E487B7100000000000000000000000000000000000000000000000000000000 PUSH1 0x0 MSTORE PUSH1 0x11 PUSH1 0x4 MSTORE PUSH1 0x24 PUSH1 0x0 REVERT JUMPDEST PUSH32 0x4E487B7100000000000000000000000000000000000000000000000000000000 PUSH1 0x0 MSTORE PUSH1 0x22 PUSH1 0x4 MSTORE PUSH1 0x24 PUSH1 0x0 REVERT JUMPDEST PUSH32 0x4E487B7100000000000000000000000000000000000000000000000000000000 PUSH1 0x0 MSTORE PUSH1 0x41 PUSH1 0x4 MSTORE PUSH1 0x24 PUSH1 0x0 REVERT JUMPDEST PUSH1 0x0 PUSH1 0x1F NOT PUSH1 0x1F DUP4 ADD AND SWAP1 POP SWAP2 SWAP1 POP JUMP JUMPDEST PUSH32 0x4552433732313A2063616C6C6572206973206E6F7420746F6B656E206F776E65 PUSH1 0x0 DUP3 ADD MSTORE PUSH32 0x72206F7220617070726F76656400000000000000000000000000000000000000 PUSH1 0x20 DUP3 ADD MSTORE POP JUMP JUMPDEST PUSH32 0x4552433732313A207472616E7366657220746F206E6F6E204552433732315265 PUSH1 0x0 DUP3 ADD MSTORE PUSH32 0x63656976657220696D706C656D656E7465720000000000000000000000000000 PUSH1 0x20 DUP3 ADD MSTORE POP JUMP JUMPDEST PUSH32 0x4552433732313A207472616E736665722066726F6D20696E636F727265637420 PUSH1 0x0 DUP3 ADD MSTORE PUSH32 0x6F776E6572000000000000000000000000000000000000000000000000000000 PUSH1 0x20 DUP3 ADD MSTORE POP JUMP JUMPDEST PUSH32 0x4552433732313A207472616E7366657220746F20746865207A65726F20616464 PUSH1 0x0 DUP3 ADD MSTORE PUSH32 0x7265737300000000000000000000000000000000000000000000000000000000 PUSH1 0x20 DUP3 ADD MSTORE POP JUMP JUMPDEST PUSH32 0x4552433732313A20617070726F766520746F2063616C6C657200000000000000 PUSH1 0x0 DUP3 ADD MSTORE POP JUMP JUMPDEST PUSH32 0x4552433732313A2061646472657373207A65726F206973206E6F742061207661 PUSH1 0x0 DUP3 ADD MSTORE PUSH32 0x6C6964206F776E65720000000000000000000000000000000000000000000000 PUSH1 0x20 DUP3 ADD MSTORE POP JUMP JUMPDEST PUSH32 0x4552433732313A20696E76616C696420746F6B656E2049440000000000000000 PUSH1 0x0 DUP3 ADD MSTORE POP JUMP JUMPDEST PUSH32 0x4552433732313A20617070726F76616C20746F2063757272656E74206F776E65 PUSH1 0x0 DUP3 ADD MSTORE PUSH32 0x7200000000000000000000000000000000000000000000000000000000000000 PUSH1 0x20 DUP3 ADD MSTORE POP JUMP JUMPDEST PUSH32 0x4552433732313A20617070726F76652063616C6C6572206973206E6F7420746F PUSH1 0x0 DUP3 ADD MSTORE PUSH32 0x6B656E206F776E6572206F7220617070726F76656420666F7220616C6C000000 PUSH1 0x20 DUP3 ADD MSTORE POP JUMP JUMPDEST PUSH2 0x20DA DUP2 PUSH2 0x1C2C JUMP JUMPDEST DUP2 EQ PUSH2 0x20E5 JUMPI PUSH1 0x0 DUP1 REVERT JUMPDEST POP JUMP JUMPDEST PUSH2 0x20F1 DUP2 PUSH2 0x1C3E JUMP JUMPDEST DUP2 EQ PUSH2 0x20FC JUMPI PUSH1 0x0 DUP1 REVERT JUMPDEST POP JUMP JUMPDEST PUSH2 0x2108 DUP2 PUSH2 0x1C4A JUMP JUMPDEST DUP2 EQ PUSH2 0x2113 JUMPI PUSH1 0x0 DUP1 REVERT JUMPDEST POP JUMP JUMPDEST PUSH2 0x211F DUP2 PUSH2 0x1C96 JUMP JUMPDEST DUP2 EQ PUSH2 0x212A JUMPI PUSH1 0x0 DUP1 REVERT JUMPDEST POP JUMP INVALID LOG2 PUSH5 0x6970667358 0x22 SLT KECCAK256 PUSH11 0xD849F919E5610D243B83B6 PUSH21 0xD9A1F8A361BAD67270FC981142C4313953A9696473 PUSH16 0x6C634300080100330000000000000000 "
				},
				"gasEstimates": {
					"creation": {
						"codeDepositCost": "1709400",
						"executionCost": "infinite",
						"totalCost": "infinite"
					},
					"external": {
						"approve(address,uint256)": "infinite",
						"balanceOf(address)": "1602",
						"getApproved(uint256)": "2700",
						"isApprovedForAll(address,address)": "infinite",
						"name()": "infinite",
						"ownerOf(uint256)": "1791",
						"safeTransferFrom(address,address,uint256)": "infinite",
						"safeTransferFrom(address,address,uint256,bytes)": "infinite",
						"setApprovalForAll(address,bool)": "infinite",
						"supportsInterface(bytes4)": "797",
						"symbol()": "infinite",
						"tokenURI(uint256)": "2167",
						"transferFrom(address,address,uint256)": "infinite",
						"uintToBytesNoPadding(uint256)": "infinite"
					},
					"internal": {
						"__unsafe_increaseBalance(address,uint256)": "infinite",
						"_afterTokenTransfer(address,address,uint256,uint256)": "17",
						"_approve(address,uint256)": "infinite",
						"_baseURI()": "infinite",
						"_beforeTokenTransfer(address,address,uint256,uint256)": "17",
						"_burn(uint256)": "infinite",
						"_checkOnERC721Received(address,address,uint256,bytes memory)": "infinite",
						"_exists(uint256)": "1012",
						"_isApprovedOrOwner(address,uint256)": "infinite",
						"_mint(address,uint256)": "infinite",
						"_ownerOf(uint256)": "948",
						"_requireMinted(uint256)": "infinite",
						"_safeMint(address,uint256)": "infinite",
						"_safeMint(address,uint256,bytes memory)": "infinite",
						"_safeTransfer(address,address,uint256,bytes memory)": "infinite",
						"_setApprovalForAll(address,address,bool)": "infinite",
						"_transfer(address,address,uint256)": "infinite"
					}
				},
				"methodIdentifiers": {
					"approve(address,uint256)": "095ea7b3",
					"balanceOf(address)": "70a08231",
					"getApproved(uint256)": "081812fc",
					"isApprovedForAll(address,address)": "e985e9c5",
					"name()": "06fdde03",
					"ownerOf(uint256)": "6352211e",
					"safeTransferFrom(address,address,uint256)": "42842e0e",
					"safeTransferFrom(address,address,uint256,bytes)": "b88d4fde",
					"setApprovalForAll(address,bool)": "a22cb465",
					"supportsInterface(bytes4)": "01ffc9a7",
					"symbol()": "95d89b41",
					"tokenURI(uint256)": "c87b56dd",
					"transferFrom(address,address,uint256)": "23b872dd",
					"uintToBytesNoPadding(uint256)": "c511b246"
				}
			},
			"storageLayout": {
				"storage": [
					{
						"astId": 1747,
						"contract": "openzeppelin/contract/token/ERC721/ERC721.sol:ERC721",
						"label": "_name",
						"offset": 0,
						"slot": "0",
						"type": "t_bytes_storage"
					},
					{
						"astId": 1749,
						"contract": "openzeppelin/contract/token/ERC721/ERC721.sol:ERC721",
						"label": "_symbol",
						"offset": 0,
						"slot": "1",
						"type": "t_bytes_storage"
					},
					{
						"astId": 1753,
						"contract": "openzeppelin/contract/token/ERC721/ERC721.sol:ERC721",
						"label": "_owners",
						"offset": 0,
						"slot": "2",
						"type": "t_mapping(t_uint256,t_address)"
					},
					{
						"astId": 1757,
						"contract": "openzeppelin/contract/token/ERC721/ERC721.sol:ERC721",
						"label": "_balances",
						"offset": 0,
						"slot": "3",
						"type": "t_mapping(t_address,t_uint256)"
					},
					{
						"astId": 1761,
						"contract": "openzeppelin/contract/token/ERC721/ERC721.sol:ERC721",
						"label": "_tokenApprovals",
						"offset": 0,
						"slot": "4",
						"type": "t_mapping(t_uint256,t_address)"
					},
					{
						"astId": 1767,
						"contract": "openzeppelin/contract/token/ERC721/ERC721.sol:ERC721",
						"label": "_operatorApprovals",
						"offset": 0,
						"slot": "5",
						"type": "t_mapping(t_address,t_mapping(t_address,t_bool))"
					}
				],
				"types": {
					"t_address": {
						"encoding": "inplace",
						"label": "address",
						"numberOfBytes": "20"
					},
					"t_bool": {
						"encoding": "inplace",
						"label": "bool",
						"numberOfBytes": "1"
					},
					"t_bytes_storage": {
						"encoding": "bytes",
						"label": "bytes",
						"numberOfBytes": "32"
					},
					"t_mapping(t_address,t_bool)": {
						"encoding": "mapping",
						"key": "t_address",
						"label": "mapping(address => bool)",
						"numberOfBytes": "32",
						"value": "t_bool"
					},
					"t_mapping(t_address,t_mapping(t_address,t_bool))": {
						"encoding": "mapping",
						"key": "t_address",
						"label": "mapping(address => mapping(address => bool))",
						"numberOfBytes": "32",
						"value": "t_mapping(t_address,t_bool)"
					},
					"t_mapping(t_address,t_uint256)": {
						"encoding": "mapping",
						"key": "t_address",
						"label": "mapping(address => uint256)",
						"numberOfBytes": "32",
						"value": "t_uint256"
					},
					"t_mapping(t_uint256,t_address)": {
						"encoding": "mapping",
						"key": "t_uint256",
						"label": "mapping(uint256 => address)",
						"numberOfBytes": "32",
						"value": "t_address"
					},
					"t_uint256": {
						"encoding": "inplace",
						"label": "uint256",
						"numberOfBytes": "32"
					}
				}
			},
			"userdoc": {
				"kind": "user",
				"methods": {},
				"version": 1
			}
		}
	}
}