{
	"testSolidity.sol": {
		"A": {
			"abi": [
				{
					"inputs": [],
					"name": "setValue",
					"outputs": [],
					"stateMutability": "nonpayable",
					"type": "function"
				},
				{
					"inputs": [],
					"name": "str",
					"outputs": [
						{
							"internalType": "string",
							"name": "",
							"type": "string"
						}
					],
					"stateMutability": "view",
					"type": "function"
				}
			],
			"devdoc": {
				"kind": "dev",
				"methods": {},
				"version": 1
			},
			"evm": {
				"assembly": "    /* \"testSolidity.sol\":62:173  contract A {... */\n  mstore(0x40, 0x80)\n  callvalue\n  dup1\n  iszero\n  tag_1\n  jumpi\n  revert(0x00, 0x00)\ntag_1:\n  pop\n  dataSize(sub_0)\n  dup1\n  dataOffset(sub_0)\n  0x00\n  codecopy\n  0x00\n  return\nstop\n\nsub_0: assembly {\n        /* \"testSolidity.sol\":62:173  contract A {... */\n      mstore(0x40, 0x80)\n      callvalue\n      dup1\n      iszero\n      tag_1\n      jumpi\n      revert(0x00, 0x00)\n    tag_1:\n      pop\n      jumpi(tag_2, lt(calldatasize, 0x04))\n      shr(0xe0, calldataload(0x00))\n      dup1\n      0x4fa519fa\n      eq\n      tag_3\n      jumpi\n      dup1\n      0xc15bae84\n      eq\n      tag_4\n      jumpi\n    tag_2:\n      revert(0x00, 0x00)\n        /* \"testSolidity.sol\":106:170  function setValue () public virtual {... */\n    tag_3:\n      tag_5\n      tag_6\n      jump\t// in\n    tag_5:\n      stop\n        /* \"testSolidity.sol\":80:97  string public str */\n    tag_4:\n      tag_7\n      tag_8\n      jump\t// in\n    tag_7:\n      mload(0x40)\n      tag_9\n      swap2\n      swap1\n      tag_10\n      jump\t// in\n    tag_9:\n      mload(0x40)\n      dup1\n      swap2\n      sub\n      swap1\n      return\n        /* \"testSolidity.sol\":106:170  function setValue () public virtual {... */\n    tag_6:\n        /* \"testSolidity.sol\":153:162  str = \"A\" */\n      mload(0x40)\n      dup1\n      0x40\n      add\n      0x40\n      mstore\n      dup1\n      0x01\n      dup2\n      mstore\n      0x20\n      add\n      0x4100000000000000000000000000000000000000000000000000000000000000\n      dup2\n      mstore\n      pop\n        /* \"testSolidity.sol\":153:156  str */\n      0x00\n        /* \"testSolidity.sol\":153:162  str = \"A\" */\n      swap1\n      dup2\n      tag_12\n      swap2\n      swap1\n      tag_13\n      jump\t// in\n    tag_12:\n      pop\n        /* \"testSolidity.sol\":106:170  function setValue () public virtual {... */\n      jump\t// out\n        /* \"testSolidity.sol\":80:97  string public str */\n    tag_8:\n      0x00\n      dup1\n      sload\n      tag_14\n      swap1\n      tag_15\n      jump\t// in\n    tag_14:\n      dup1\n      0x1f\n      add\n      0x20\n      dup1\n      swap2\n      div\n      mul\n      0x20\n      add\n      mload(0x40)\n      swap1\n      dup2\n      add\n      0x40\n      mstore\n      dup1\n      swap3\n      swap2\n      swap1\n      dup2\n      dup2\n      mstore\n      0x20\n      add\n      dup3\n      dup1\n      sload\n      tag_16\n      swap1\n      tag_15\n      jump\t// in\n    tag_16:\n      dup1\n      iszero\n      tag_17\n      jumpi\n      dup1\n      0x1f\n      lt\n      tag_18\n      jumpi\n      0x0100\n      dup1\n      dup4\n      sload\n      div\n      mul\n      dup4\n      mstore\n      swap2\n      0x20\n      add\n      swap2\n      jump(tag_17)\n    tag_18:\n      dup3\n      add\n      swap2\n      swap1\n      0x00\n      mstore\n      keccak256(0x00, 0x20)\n      swap1\n    tag_19:\n      dup2\n      sload\n      dup2\n      mstore\n      swap1\n      0x01\n      add\n      swap1\n      0x20\n      add\n      dup1\n      dup4\n      gt\n      tag_19\n      jumpi\n      dup3\n      swap1\n      sub\n      0x1f\n      and\n      dup3\n      add\n      swap2\n    tag_17:\n      pop\n      pop\n      pop\n      pop\n      pop\n      dup2\n      jump\t// out\n        /* \"#utility.yul\":7:106   */\n    tag_20:\n        /* \"#utility.yul\":59:65   */\n      0x00\n        /* \"#utility.yul\":93:98   */\n      dup2\n        /* \"#utility.yul\":87:99   */\n      mload\n        /* \"#utility.yul\":77:99   */\n      swap1\n      pop\n        /* \"#utility.yul\":7:106   */\n      swap2\n      swap1\n      pop\n      jump\t// out\n        /* \"#utility.yul\":112:281   */\n    tag_21:\n        /* \"#utility.yul\":196:207   */\n      0x00\n        /* \"#utility.yul\":230:236   */\n      dup3\n        /* \"#utility.yul\":225:228   */\n      dup3\n        /* \"#utility.yul\":218:237   */\n      mstore\n        /* \"#utility.yul\":270:274   */\n      0x20\n        /* \"#utility.yul\":265:268   */\n      dup3\n        /* \"#utility.yul\":261:275   */\n      add\n        /* \"#utility.yul\":246:275   */\n      swap1\n      pop\n        /* \"#utility.yul\":112:281   */\n      swap3\n      swap2\n      pop\n      pop\n      jump\t// out\n        /* \"#utility.yul\":287:426   */\n    tag_22:\n        /* \"#utility.yul\":376:382   */\n      dup3\n        /* \"#utility.yul\":371:374   */\n      dup2\n        /* \"#utility.yul\":366:369   */\n      dup4\n        /* \"#utility.yul\":360:383   */\n      mcopy\n        /* \"#utility.yul\":417:418   */\n      0x00\n        /* \"#utility.yul\":408:414   */\n      dup4\n        /* \"#utility.yul\":403:406   */\n      dup4\n        /* \"#utility.yul\":399:415   */\n      add\n        /* \"#utility.yul\":392:419   */\n      mstore\n        /* \"#utility.yul\":287:426   */\n      pop\n      pop\n      pop\n      jump\t// out\n        /* \"#utility.yul\":432:534   */\n    tag_23:\n        /* \"#utility.yul\":473:479   */\n      0x00\n        /* \"#utility.yul\":524:526   */\n      0x1f\n        /* \"#utility.yul\":520:527   */\n      not\n        /* \"#utility.yul\":515:517   */\n      0x1f\n        /* \"#utility.yul\":508:513   */\n      dup4\n        /* \"#utility.yul\":504:518   */\n      add\n        /* \"#utility.yul\":500:528   */\n      and\n        /* \"#utility.yul\":490:528   */\n      swap1\n      pop\n        /* \"#utility.yul\":432:534   */\n      swap2\n      swap1\n      pop\n      jump\t// out\n        /* \"#utility.yul\":540:917   */\n    tag_24:\n        /* \"#utility.yul\":628:631   */\n      0x00\n        /* \"#utility.yul\":656:695   */\n      tag_49\n        /* \"#utility.yul\":689:694   */\n      dup3\n        /* \"#utility.yul\":656:695   */\n      tag_20\n      jump\t// in\n    tag_49:\n        /* \"#utility.yul\":711:782   */\n      tag_50\n        /* \"#utility.yul\":775:781   */\n      dup2\n        /* \"#utility.yul\":770:773   */\n      dup6\n        /* \"#utility.yul\":711:782   */\n      tag_21\n      jump\t// in\n    tag_50:\n        /* \"#utility.yul\":704:782   */\n      swap4\n      pop\n        /* \"#utility.yul\":791:856   */\n      tag_51\n        /* \"#utility.yul\":849:855   */\n      dup2\n        /* \"#utility.yul\":844:847   */\n      dup6\n        /* \"#utility.yul\":837:841   */\n      0x20\n        /* \"#utility.yul\":830:835   */\n      dup7\n        /* \"#utility.yul\":826:842   */\n      add\n        /* \"#utility.yul\":791:856   */\n      tag_22\n      jump\t// in\n    tag_51:\n        /* \"#utility.yul\":881:910   */\n      tag_52\n        /* \"#utility.yul\":903:909   */\n      dup2\n        /* \"#utility.yul\":881:910   */\n      tag_23\n      jump\t// in\n    tag_52:\n        /* \"#utility.yul\":876:879   */\n      dup5\n        /* \"#utility.yul\":872:911   */\n      add\n        /* \"#utility.yul\":865:911   */\n      swap2\n      pop\n        /* \"#utility.yul\":632:917   */\n      pop\n        /* \"#utility.yul\":540:917   */\n      swap3\n      swap2\n      pop\n      pop\n      jump\t// out\n        /* \"#utility.yul\":923:1236   */\n    tag_10:\n        /* \"#utility.yul\":1036:1040   */\n      0x00\n        /* \"#utility.yul\":1074:1076   */\n      0x20\n        /* \"#utility.yul\":1063:1072   */\n      dup3\n        /* \"#utility.yul\":1059:1077   */\n      add\n        /* \"#utility.yul\":1051:1077   */\n      swap1\n      pop\n        /* \"#utility.yul\":1123:1132   */\n      dup2\n        /* \"#utility.yul\":1117:1121   */\n      dup2\n        /* \"#utility.yul\":1113:1133   */\n      sub\n        /* \"#utility.yul\":1109:1110   */\n      0x00\n        /* \"#utility.yul\":1098:1107   */\n      dup4\n        /* \"#utility.yul\":1094:1111   */\n      add\n        /* \"#utility.yul\":1087:1134   */\n      mstore\n        /* \"#utility.yul\":1151:1229   */\n      tag_54\n        /* \"#utility.yul\":1224:1228   */\n      dup2\n        /* \"#utility.yul\":1215:1221   */\n      dup5\n        /* \"#utility.yul\":1151:1229   */\n      tag_24\n      jump\t// in\n    tag_54:\n        /* \"#utility.yul\":1143:1229   */\n      swap1\n      pop\n        /* \"#utility.yul\":923:1236   */\n      swap3\n      swap2\n      pop\n      pop\n      jump\t// out\n        /* \"#utility.yul\":1242:1422   */\n    tag_25:\n        /* \"#utility.yul\":1290:1367   */\n      0x4e487b7100000000000000000000000000000000000000000000000000000000\n        /* \"#utility.yul\":1287:1288   */\n      0x00\n        /* \"#utility.yul\":1280:1368   */\n      mstore\n        /* \"#utility.yul\":1387:1391   */\n      0x41\n        /* \"#utility.yul\":1384:1385   */\n      0x04\n        /* \"#utility.yul\":1377:1392   */\n      mstore\n        /* \"#utility.yul\":1411:1415   */\n      0x24\n        /* \"#utility.yul\":1408:1409   */\n      0x00\n        /* \"#utility.yul\":1401:1416   */\n      revert\n        /* \"#utility.yul\":1428:1608   */\n    tag_26:\n        /* \"#utility.yul\":1476:1553   */\n      0x4e487b7100000000000000000000000000000000000000000000000000000000\n        /* \"#utility.yul\":1473:1474   */\n      0x00\n        /* \"#utility.yul\":1466:1554   */\n      mstore\n        /* \"#utility.yul\":1573:1577   */\n      0x22\n        /* \"#utility.yul\":1570:1571   */\n      0x04\n        /* \"#utility.yul\":1563:1578   */\n      mstore\n        /* \"#utility.yul\":1597:1601   */\n      0x24\n        /* \"#utility.yul\":1594:1595   */\n      0x00\n        /* \"#utility.yul\":1587:1602   */\n      revert\n        /* \"#utility.yul\":1614:1934   */\n    tag_15:\n        /* \"#utility.yul\":1658:1664   */\n      0x00\n        /* \"#utility.yul\":1695:1696   */\n      0x02\n        /* \"#utility.yul\":1689:1693   */\n      dup3\n        /* \"#utility.yul\":1685:1697   */\n      div\n        /* \"#utility.yul\":1675:1697   */\n      swap1\n      pop\n        /* \"#utility.yul\":1742:1743   */\n      0x01\n        /* \"#utility.yul\":1736:1740   */\n      dup3\n        /* \"#utility.yul\":1732:1744   */\n      and\n        /* \"#utility.yul\":1763:1781   */\n      dup1\n        /* \"#utility.yul\":1753:1834   */\n      tag_58\n      jumpi\n        /* \"#utility.yul\":1819:1823   */\n      0x7f\n        /* \"#utility.yul\":1811:1817   */\n      dup3\n        /* \"#utility.yul\":1807:1824   */\n      and\n        /* \"#utility.yul\":1797:1824   */\n      swap2\n      pop\n        /* \"#utility.yul\":1753:1834   */\n    tag_58:\n        /* \"#utility.yul\":1881:1883   */\n      0x20\n        /* \"#utility.yul\":1873:1879   */\n      dup3\n        /* \"#utility.yul\":1870:1884   */\n      lt\n        /* \"#utility.yul\":1850:1868   */\n      dup2\n        /* \"#utility.yul\":1847:1885   */\n      sub\n        /* \"#utility.yul\":1844:1928   */\n      tag_59\n      jumpi\n        /* \"#utility.yul\":1900:1918   */\n      tag_60\n      tag_26\n      jump\t// in\n    tag_60:\n        /* \"#utility.yul\":1844:1928   */\n    tag_59:\n        /* \"#utility.yul\":1665:1934   */\n      pop\n        /* \"#utility.yul\":1614:1934   */\n      swap2\n      swap1\n      pop\n      jump\t// out\n        /* \"#utility.yul\":1940:2081   */\n    tag_27:\n        /* \"#utility.yul\":1989:1993   */\n      0x00\n        /* \"#utility.yul\":2012:2015   */\n      dup2\n        /* \"#utility.yul\":2004:2015   */\n      swap1\n      pop\n        /* \"#utility.yul\":2035:2038   */\n      dup2\n        /* \"#utility.yul\":2032:2033   */\n      0x00\n        /* \"#utility.yul\":2025:2039   */\n      mstore\n        /* \"#utility.yul\":2069:2073   */\n      0x20\n        /* \"#utility.yul\":2066:2067   */\n      0x00\n        /* \"#utility.yul\":2056:2074   */\n      keccak256\n        /* \"#utility.yul\":2048:2074   */\n      swap1\n      pop\n        /* \"#utility.yul\":1940:2081   */\n      swap2\n      swap1\n      pop\n      jump\t// out\n        /* \"#utility.yul\":2087:2180   */\n    tag_28:\n        /* \"#utility.yul\":2124:2130   */\n      0x00\n        /* \"#utility.yul\":2171:2173   */\n      0x20\n        /* \"#utility.yul\":2166:2168   */\n      0x1f\n        /* \"#utility.yul\":2159:2164   */\n      dup4\n        /* \"#utility.yul\":2155:2169   */\n      add\n        /* \"#utility.yul\":2151:2174   */\n      div\n        /* \"#utility.yul\":2141:2174   */\n      swap1\n      pop\n        /* \"#utility.yul\":2087:2180   */\n      swap2\n      swap1\n      pop\n      jump\t// out\n        /* \"#utility.yul\":2186:2293   */\n    tag_29:\n        /* \"#utility.yul\":2230:2238   */\n      0x00\n        /* \"#utility.yul\":2280:2285   */\n      dup3\n        /* \"#utility.yul\":2274:2278   */\n      dup3\n        /* \"#utility.yul\":2270:2286   */\n      shl\n        /* \"#utility.yul\":2249:2286   */\n      swap1\n      pop\n        /* \"#utility.yul\":2186:2293   */\n      swap3\n      swap2\n      pop\n      pop\n      jump\t// out\n        /* \"#utility.yul\":2299:2692   */\n    tag_30:\n        /* \"#utility.yul\":2368:2374   */\n      0x00\n        /* \"#utility.yul\":2418:2419   */\n      0x08\n        /* \"#utility.yul\":2406:2416   */\n      dup4\n        /* \"#utility.yul\":2402:2420   */\n      mul\n        /* \"#utility.yul\":2441:2538   */\n      tag_65\n        /* \"#utility.yul\":2471:2537   */\n      0xffffffffffffffffffffffffffffffffffffffffffffffffffffffffffffffff\n        /* \"#utility.yul\":2460:2469   */\n      dup3\n        /* \"#utility.yul\":2441:2538   */\n      tag_29\n      jump\t// in\n    tag_65:\n        /* \"#utility.yul\":2559:2598   */\n      tag_66\n        /* \"#utility.yul\":2589:2597   */\n      dup7\n        /* \"#utility.yul\":2578:2587   */\n      dup4\n        /* \"#utility.yul\":2559:2598   */\n      tag_29\n      jump\t// in\n    tag_66:\n        /* \"#utility.yul\":2547:2598   */\n      swap6\n      pop\n        /* \"#utility.yul\":2631:2635   */\n      dup1\n        /* \"#utility.yul\":2627:2636   */\n      not\n        /* \"#utility.yul\":2620:2625   */\n      dup5\n        /* \"#utility.yul\":2616:2637   */\n      and\n        /* \"#utility.yul\":2607:2637   */\n      swap4\n      pop\n        /* \"#utility.yul\":2680:2684   */\n      dup1\n        /* \"#utility.yul\":2670:2678   */\n      dup7\n        /* \"#utility.yul\":2666:2685   */\n      and\n        /* \"#utility.yul\":2659:2664   */\n      dup5\n        /* \"#utility.yul\":2656:2686   */\n      or\n        /* \"#utility.yul\":2646:2686   */\n      swap3\n      pop\n        /* \"#utility.yul\":2375:2692   */\n      pop\n      pop\n        /* \"#utility.yul\":2299:2692   */\n      swap4\n      swap3\n      pop\n      pop\n      pop\n      jump\t// out\n        /* \"#utility.yul\":2698:2775   */\n    tag_31:\n        /* \"#utility.yul\":2735:2742   */\n      0x00\n        /* \"#utility.yul\":2764:2769   */\n      dup2\n        /* \"#utility.yul\":2753:2769   */\n      swap1\n      pop\n        /* \"#utility.yul\":2698:2775   */\n      swap2\n      swap1\n      pop\n      jump\t// out\n        /* \"#utility.yul\":2781:2841   */\n    tag_32:\n        /* \"#utility.yul\":2809:2812   */\n      0x00\n        /* \"#utility.yul\":2830:2835   */\n      dup2\n        /* \"#utility.yul\":2823:2835   */\n      swap1\n      pop\n        /* \"#utility.yul\":2781:2841   */\n      swap2\n      swap1\n      pop\n      jump\t// out\n        /* \"#utility.yul\":2847:2989   */\n    tag_33:\n        /* \"#utility.yul\":2897:2906   */\n      0x00\n        /* \"#utility.yul\":2930:2983   */\n      tag_70\n        /* \"#utility.yul\":2948:2982   */\n      tag_71\n        /* \"#utility.yul\":2957:2981   */\n      tag_72\n        /* \"#utility.yul\":2975:2980   */\n      dup5\n        /* \"#utility.yul\":2957:2981   */\n      tag_31\n      jump\t// in\n    tag_72:\n        /* \"#utility.yul\":2948:2982   */\n      tag_32\n      jump\t// in\n    tag_71:\n        /* \"#utility.yul\":2930:2983   */\n      tag_31\n      jump\t// in\n    tag_70:\n        /* \"#utility.yul\":2917:2983   */\n      swap1\n      pop\n        /* \"#utility.yul\":2847:2989   */\n      swap2\n      swap1\n      pop\n      jump\t// out\n        /* \"#utility.yul\":2995:3070   */\n    tag_34:\n        /* \"#utility.yul\":3038:3041   */\n      0x00\n        /* \"#utility.yul\":3059:3064   */\n      dup2\n        /* \"#utility.yul\":3052:3064   */\n      swap1\n      pop\n        /* \"#utility.yul\":2995:3070   */\n      swap2\n      swap1\n      pop\n      jump\t// out\n        /* \"#utility.yul\":3076:3345   */\n    tag_35:\n        /* \"#utility.yul\":3186:3225   */\n      tag_75\n        /* \"#utility.yul\":3217:3224   */\n      dup4\n        /* \"#utility.yul\":3186:3225   */\n      tag_33\n      jump\t// in\n    tag_75:\n        /* \"#utility.yul\":3247:3338   */\n      tag_76\n        /* \"#utility.yul\":3296:3337   */\n      tag_77\n        /* \"#utility.yul\":3320:3336   */\n      dup3\n        /* \"#utility.yul\":3296:3337   */\n      tag_34\n      jump\t// in\n    tag_77:\n        /* \"#utility.yul\":3288:3294   */\n      dup5\n        /* \"#utility.yul\":3281:3285   */\n      dup5\n        /* \"#utility.yul\":3275:3286   */\n      sload\n        /* \"#utility.yul\":3247:3338   */\n      tag_30\n      jump\t// in\n    tag_76:\n        /* \"#utility.yul\":3241:3245   */\n      dup3\n        /* \"#utility.yul\":3234:3339   */\n      sstore\n        /* \"#utility.yul\":3152:3345   */\n      pop\n        /* \"#utility.yul\":3076:3345   */\n      pop\n      pop\n      pop\n      jump\t// out\n        /* \"#utility.yul\":3351:3424   */\n    tag_36:\n        /* \"#utility.yul\":3396:3399   */\n      0x00\n        /* \"#utility.yul\":3417:3418   */\n      0x00\n        /* \"#utility.yul\":3410:3418   */\n      swap1\n      pop\n        /* \"#utility.yul\":3351:3424   */\n      swap1\n      jump\t// out\n        /* \"#utility.yul\":3430:3619   */\n    tag_37:\n        /* \"#utility.yul\":3507:3539   */\n      tag_80\n      tag_36\n      jump\t// in\n    tag_80:\n        /* \"#utility.yul\":3548:3613   */\n      tag_81\n        /* \"#utility.yul\":3606:3612   */\n      dup2\n        /* \"#utility.yul\":3598:3604   */\n      dup5\n        /* \"#utility.yul\":3592:3596   */\n      dup5\n        /* \"#utility.yul\":3548:3613   */\n      tag_35\n      jump\t// in\n    tag_81:\n        /* \"#utility.yul\":3483:3619   */\n      pop\n        /* \"#utility.yul\":3430:3619   */\n      pop\n      pop\n      jump\t// out\n        /* \"#utility.yul\":3625:3811   */\n    tag_38:\n        /* \"#utility.yul\":3685:3805   */\n    tag_83:\n        /* \"#utility.yul\":3702:3705   */\n      dup2\n        /* \"#utility.yul\":3695:3700   */\n      dup2\n        /* \"#utility.yul\":3692:3706   */\n      lt\n        /* \"#utility.yul\":3685:3805   */\n      iszero\n      tag_85\n      jumpi\n        /* \"#utility.yul\":3756:3795   */\n      tag_86\n        /* \"#utility.yul\":3793:3794   */\n      0x00\n        /* \"#utility.yul\":3786:3791   */\n      dup3\n        /* \"#utility.yul\":3756:3795   */\n      tag_37\n      jump\t// in\n    tag_86:\n        /* \"#utility.yul\":3729:3730   */\n      0x01\n        /* \"#utility.yul\":3722:3727   */\n      dup2\n        /* \"#utility.yul\":3718:3731   */\n      add\n        /* \"#utility.yul\":3709:3731   */\n      swap1\n      pop\n        /* \"#utility.yul\":3685:3805   */\n      jump(tag_83)\n    tag_85:\n        /* \"#utility.yul\":3625:3811   */\n      pop\n      pop\n      jump\t// out\n        /* \"#utility.yul\":3817:4360   */\n    tag_39:\n        /* \"#utility.yul\":3918:3920   */\n      0x1f\n        /* \"#utility.yul\":3913:3916   */\n      dup3\n        /* \"#utility.yul\":3910:3921   */\n      gt\n        /* \"#utility.yul\":3907:4353   */\n      iszero\n      tag_88\n      jumpi\n        /* \"#utility.yul\":3952:3990   */\n      tag_89\n        /* \"#utility.yul\":3984:3989   */\n      dup2\n        /* \"#utility.yul\":3952:3990   */\n      tag_27\n      jump\t// in\n    tag_89:\n        /* \"#utility.yul\":4036:4065   */\n      tag_90\n        /* \"#utility.yul\":4054:4064   */\n      dup5\n        /* \"#utility.yul\":4036:4065   */\n      tag_28\n      jump\t// in\n    tag_90:\n        /* \"#utility.yul\":4026:4034   */\n      dup2\n        /* \"#utility.yul\":4022:4066   */\n      add\n        /* \"#utility.yul\":4219:4221   */\n      0x20\n        /* \"#utility.yul\":4207:4217   */\n      dup6\n        /* \"#utility.yul\":4204:4222   */\n      lt\n        /* \"#utility.yul\":4201:4250   */\n      iszero\n      tag_91\n      jumpi\n        /* \"#utility.yul\":4240:4248   */\n      dup2\n        /* \"#utility.yul\":4225:4248   */\n      swap1\n      pop\n        /* \"#utility.yul\":4201:4250   */\n    tag_91:\n        /* \"#utility.yul\":4263:4343   */\n      tag_92\n        /* \"#utility.yul\":4319:4341   */\n      tag_93\n        /* \"#utility.yul\":4337:4340   */\n      dup6\n        /* \"#utility.yul\":4319:4341   */\n      tag_28\n      jump\t// in\n    tag_93:\n        /* \"#utility.yul\":4309:4317   */\n      dup4\n        /* \"#utility.yul\":4305:4342   */\n      add\n        /* \"#utility.yul\":4292:4303   */\n      dup3\n        /* \"#utility.yul\":4263:4343   */\n      tag_38\n      jump\t// in\n    tag_92:\n        /* \"#utility.yul\":3922:4353   */\n      pop\n      pop\n        /* \"#utility.yul\":3907:4353   */\n    tag_88:\n        /* \"#utility.yul\":3817:4360   */\n      pop\n      pop\n      pop\n      jump\t// out\n        /* \"#utility.yul\":4366:4483   */\n    tag_40:\n        /* \"#utility.yul\":4420:4428   */\n      0x00\n        /* \"#utility.yul\":4470:4475   */\n      dup3\n        /* \"#utility.yul\":4464:4468   */\n      dup3\n        /* \"#utility.yul\":4460:4476   */\n      shr\n        /* \"#utility.yul\":4439:4476   */\n      swap1\n      pop\n        /* \"#utility.yul\":4366:4483   */\n      swap3\n      swap2\n      pop\n      pop\n      jump\t// out\n        /* \"#utility.yul\":4489:4658   */\n    tag_41:\n        /* \"#utility.yul\":4533:4539   */\n      0x00\n        /* \"#utility.yul\":4566:4617   */\n      tag_96\n        /* \"#utility.yul\":4614:4615   */\n      0x00\n        /* \"#utility.yul\":4610:4616   */\n      not\n        /* \"#utility.yul\":4602:4607   */\n      dup5\n        /* \"#utility.yul\":4599:4600   */\n      0x08\n        /* \"#utility.yul\":4595:4608   */\n      mul\n        /* \"#utility.yul\":4566:4617   */\n      tag_40\n      jump\t// in\n    tag_96:\n        /* \"#utility.yul\":4562:4618   */\n      not\n        /* \"#utility.yul\":4647:4651   */\n      dup1\n        /* \"#utility.yul\":4641:4645   */\n      dup4\n        /* \"#utility.yul\":4637:4652   */\n      and\n        /* \"#utility.yul\":4627:4652   */\n      swap2\n      pop\n        /* \"#utility.yul\":4540:4658   */\n      pop\n        /* \"#utility.yul\":4489:4658   */\n      swap3\n      swap2\n      pop\n      pop\n      jump\t// out\n        /* \"#utility.yul\":4663:4958   */\n    tag_42:\n        /* \"#utility.yul\":4739:4743   */\n      0x00\n        /* \"#utility.yul\":4885:4914   */\n      tag_98\n        /* \"#utility.yul\":4910:4913   */\n      dup4\n        /* \"#utility.yul\":4904:4908   */\n      dup4\n        /* \"#utility.yul\":4885:4914   */\n      tag_41\n      jump\t// in\n    tag_98:\n        /* \"#utility.yul\":4877:4914   */\n      swap2\n      pop\n        /* \"#utility.yul\":4947:4950   */\n      dup3\n        /* \"#utility.yul\":4944:4945   */\n      0x02\n        /* \"#utility.yul\":4940:4951   */\n      mul\n        /* \"#utility.yul\":4934:4938   */\n      dup3\n        /* \"#utility.yul\":4931:4952   */\n      or\n        /* \"#utility.yul\":4923:4952   */\n      swap1\n      pop\n        /* \"#utility.yul\":4663:4958   */\n      swap3\n      swap2\n      pop\n      pop\n      jump\t// out\n        /* \"#utility.yul\":4963:6358   */\n    tag_13:\n        /* \"#utility.yul\":5080:5117   */\n      tag_100\n        /* \"#utility.yul\":5113:5116   */\n      dup3\n        /* \"#utility.yul\":5080:5117   */\n      tag_20\n      jump\t// in\n    tag_100:\n        /* \"#utility.yul\":5182:5200   */\n      0xffffffffffffffff\n        /* \"#utility.yul\":5174:5180   */\n      dup2\n        /* \"#utility.yul\":5171:5201   */\n      gt\n        /* \"#utility.yul\":5168:5224   */\n      iszero\n      tag_101\n      jumpi\n        /* \"#utility.yul\":5204:5222   */\n      tag_102\n      tag_25\n      jump\t// in\n    tag_102:\n        /* \"#utility.yul\":5168:5224   */\n    tag_101:\n        /* \"#utility.yul\":5248:5286   */\n      tag_103\n        /* \"#utility.yul\":5280:5284   */\n      dup3\n        /* \"#utility.yul\":5274:5285   */\n      sload\n        /* \"#utility.yul\":5248:5286   */\n      tag_15\n      jump\t// in\n    tag_103:\n        /* \"#utility.yul\":5333:5400   */\n      tag_104\n        /* \"#utility.yul\":5393:5399   */\n      dup3\n        /* \"#utility.yul\":5385:5391   */\n      dup3\n        /* \"#utility.yul\":5379:5383   */\n      dup6\n        /* \"#utility.yul\":5333:5400   */\n      tag_39\n      jump\t// in\n    tag_104:\n        /* \"#utility.yul\":5427:5428   */\n      0x00\n        /* \"#utility.yul\":5451:5455   */\n      0x20\n        /* \"#utility.yul\":5438:5455   */\n      swap1\n      pop\n        /* \"#utility.yul\":5483:5485   */\n      0x1f\n        /* \"#utility.yul\":5475:5481   */\n      dup4\n        /* \"#utility.yul\":5472:5486   */\n      gt\n        /* \"#utility.yul\":5500:5501   */\n      0x01\n        /* \"#utility.yul\":5495:6113   */\n      dup2\n      eq\n      tag_106\n      jumpi\n        /* \"#utility.yul\":6157:6158   */\n      0x00\n        /* \"#utility.yul\":6174:6180   */\n      dup5\n        /* \"#utility.yul\":6171:6248   */\n      iszero\n      tag_107\n      jumpi\n        /* \"#utility.yul\":6223:6232   */\n      dup3\n        /* \"#utility.yul\":6218:6221   */\n      dup8\n        /* \"#utility.yul\":6214:6233   */\n      add\n        /* \"#utility.yul\":6208:6234   */\n      mload\n        /* \"#utility.yul\":6199:6234   */\n      swap1\n      pop\n        /* \"#utility.yul\":6171:6248   */\n    tag_107:\n        /* \"#utility.yul\":6274:6341   */\n      tag_108\n        /* \"#utility.yul\":6334:6340   */\n      dup6\n        /* \"#utility.yul\":6327:6332   */\n      dup3\n        /* \"#utility.yul\":6274:6341   */\n      tag_42\n      jump\t// in\n    tag_108:\n        /* \"#utility.yul\":6268:6272   */\n      dup7\n        /* \"#utility.yul\":6261:6342   */\n      sstore\n        /* \"#utility.yul\":6130:6352   */\n      pop\n        /* \"#utility.yul\":5465:6352   */\n      jump(tag_105)\n        /* \"#utility.yul\":5495:6113   */\n    tag_106:\n        /* \"#utility.yul\":5547:5551   */\n      0x1f\n        /* \"#utility.yul\":5543:5552   */\n      not\n        /* \"#utility.yul\":5535:5541   */\n      dup5\n        /* \"#utility.yul\":5531:5553   */\n      and\n        /* \"#utility.yul\":5581:5618   */\n      tag_109\n        /* \"#utility.yul\":5613:5617   */\n      dup7\n        /* \"#utility.yul\":5581:5618   */\n      tag_27\n      jump\t// in\n    tag_109:\n        /* \"#utility.yul\":5640:5641   */\n      0x00\n        /* \"#utility.yul\":5654:5862   */\n    tag_110:\n        /* \"#utility.yul\":5668:5675   */\n      dup3\n        /* \"#utility.yul\":5665:5666   */\n      dup2\n        /* \"#utility.yul\":5662:5676   */\n      lt\n        /* \"#utility.yul\":5654:5862   */\n      iszero\n      tag_112\n      jumpi\n        /* \"#utility.yul\":5747:5756   */\n      dup5\n        /* \"#utility.yul\":5742:5745   */\n      dup10\n        /* \"#utility.yul\":5738:5757   */\n      add\n        /* \"#utility.yul\":5732:5758   */\n      mload\n        /* \"#utility.yul\":5724:5730   */\n      dup3\n        /* \"#utility.yul\":5717:5759   */\n      sstore\n        /* \"#utility.yul\":5798:5799   */\n      0x01\n        /* \"#utility.yul\":5790:5796   */\n      dup3\n        /* \"#utility.yul\":5786:5800   */\n      add\n        /* \"#utility.yul\":5776:5800   */\n      swap2\n      pop\n        /* \"#utility.yul\":5845:5847   */\n      0x20\n        /* \"#utility.yul\":5834:5843   */\n      dup6\n        /* \"#utility.yul\":5830:5848   */\n      add\n        /* \"#utility.yul\":5817:5848   */\n      swap5\n      pop\n        /* \"#utility.yul\":5691:5695   */\n      0x20\n        /* \"#utility.yul\":5688:5689   */\n      dup2\n        /* \"#utility.yul\":5684:5696   */\n      add\n        /* \"#utility.yul\":5679:5696   */\n      swap1\n      pop\n        /* \"#utility.yul\":5654:5862   */\n      jump(tag_110)\n    tag_112:\n        /* \"#utility.yul\":5890:5896   */\n      dup7\n        /* \"#utility.yul\":5881:5888   */\n      dup4\n        /* \"#utility.yul\":5878:5897   */\n      lt\n        /* \"#utility.yul\":5875:6054   */\n      iszero\n      tag_113\n      jumpi\n        /* \"#utility.yul\":5948:5957   */\n      dup5\n        /* \"#utility.yul\":5943:5946   */\n      dup10\n        /* \"#utility.yul\":5939:5958   */\n      add\n        /* \"#utility.yul\":5933:5959   */\n      mload\n        /* \"#utility.yul\":5991:6039   */\n      tag_114\n        /* \"#utility.yul\":6033:6037   */\n      0x1f\n        /* \"#utility.yul\":6025:6031   */\n      dup10\n        /* \"#utility.yul\":6021:6038   */\n      and\n        /* \"#utility.yul\":6010:6019   */\n      dup3\n        /* \"#utility.yul\":5991:6039   */\n      tag_41\n      jump\t// in\n    tag_114:\n        /* \"#utility.yul\":5983:5989   */\n      dup4\n        /* \"#utility.yul\":5976:6040   */\n      sstore\n        /* \"#utility.yul\":5898:6054   */\n      pop\n        /* \"#utility.yul\":5875:6054   */\n    tag_113:\n        /* \"#utility.yul\":6100:6101   */\n      0x01\n        /* \"#utility.yul\":6096:6097   */\n      0x02\n        /* \"#utility.yul\":6088:6094   */\n      dup9\n        /* \"#utility.yul\":6084:6098   */\n      mul\n        /* \"#utility.yul\":6080:6102   */\n      add\n        /* \"#utility.yul\":6074:6078   */\n      dup9\n        /* \"#utility.yul\":6067:6103   */\n      sstore\n        /* \"#utility.yul\":5502:6113   */\n      pop\n      pop\n      pop\n        /* \"#utility.yul\":5465:6352   */\n    tag_105:\n      pop\n        /* \"#utility.yul\":5055:6358   */\n      pop\n      pop\n      pop\n        /* \"#utility.yul\":4963:6358   */\n      pop\n      pop\n      jump\t// out\n\n    auxdata: 0xa2646970667358221220998d243823169c118f5bcfc08e58eef6434f90d8d7c4dbd0442a4837f3b0c26264736f6c634300081e0033\n}\n",
				"bytecode": {
					"linkReferences": {},
					"object": "6080604052348015600e575f5ffd5b506104f98061001c5f395ff3fe608060405234801561000f575f5ffd5b5060043610610034575f3560e01c80634fa519fa14610038578063c15bae8414610042575b5f5ffd5b610040610060565b005b61004a6100a6565b60405161005791906101a1565b60405180910390f35b6040518060400160405280600181526020017f41000000000000000000000000000000000000000000000000000000000000008152505f90816100a391906103f4565b50565b5f80546100b29061021b565b80601f01602080910402602001604051908101604052809291908181526020018280546100de9061021b565b80156101295780601f1061010057610100808354040283529160200191610129565b820191905f5260205f20905b81548152906001019060200180831161010c57829003601f168201915b505050505081565b5f81519050919050565b5f82825260208201905092915050565b8281835e5f83830152505050565b5f601f19601f8301169050919050565b5f61017382610131565b61017d818561013b565b935061018d81856020860161014b565b61019681610159565b840191505092915050565b5f6020820190508181035f8301526101b98184610169565b905092915050565b7f4e487b71000000000000000000000000000000000000000000000000000000005f52604160045260245ffd5b7f4e487b71000000000000000000000000000000000000000000000000000000005f52602260045260245ffd5b5f600282049050600182168061023257607f821691505b602082108103610245576102446101ee565b5b50919050565b5f819050815f5260205f209050919050565b5f6020601f8301049050919050565b5f82821b905092915050565b5f600883026102a77fffffffffffffffffffffffffffffffffffffffffffffffffffffffffffffffff8261026c565b6102b1868361026c565b95508019841693508086168417925050509392505050565b5f819050919050565b5f819050919050565b5f6102f56102f06102eb846102c9565b6102d2565b6102c9565b9050919050565b5f819050919050565b61030e836102db565b61032261031a826102fc565b848454610278565b825550505050565b5f5f905090565b61033961032a565b610344818484610305565b505050565b5b818110156103675761035c5f82610331565b60018101905061034a565b5050565b601f8211156103ac5761037d8161024b565b6103868461025d565b81016020851015610395578190505b6103a96103a18561025d565b830182610349565b50505b505050565b5f82821c905092915050565b5f6103cc5f19846008026103b1565b1980831691505092915050565b5f6103e483836103bd565b9150826002028217905092915050565b6103fd82610131565b67ffffffffffffffff811115610416576104156101c1565b5b610420825461021b565b61042b82828561036b565b5f60209050601f83116001811461045c575f841561044a578287015190505b61045485826103d9565b8655506104bb565b601f19841661046a8661024b565b5f5b828110156104915784890151825560018201915060208501945060208101905061046c565b868310156104ae57848901516104aa601f8916826103bd565b8355505b6001600288020188555050505b50505050505056fea2646970667358221220998d243823169c118f5bcfc08e58eef6434f90d8d7c4dbd0442a4837f3b0c26264736f6c634300081e0033",
					"opcodes": "PUSH1 0x80 PUSH1 0x40 MSTORE CALLVALUE DUP1 ISZERO PUSH1 0xE JUMPI PUSH0 PUSH0 REVERT JUMPDEST POP PUSH2 0x4F9 DUP1 PUSH2 0x1C PUSH0 CODECOPY PUSH0 RETURN INVALID PUSH1 0x80 PUSH1 0x40 MSTORE CALLVALUE DUP1 ISZERO PUSH2 0xF JUMPI PUSH0 PUSH0 REVERT JUMPDEST POP PUSH1 0x4 CALLDATASIZE LT PUSH2 0x34 JUMPI PUSH0 CALLDATALOAD PUSH1 0xE0 SHR DUP1 PUSH4 0x4FA519FA EQ PUSH2 0x38 JUMPI DUP1 PUSH4 0xC15BAE84 EQ PUSH2 0x42 JUMPI JUMPDEST PUSH0 PUSH0 REVERT JUMPDEST PUSH2 0x40 PUSH2 0x60 JUMP JUMPDEST STOP JUMPDEST PUSH2 0x4A PUSH2 0xA6 JUMP JUMPDEST PUSH1 0x40 MLOAD PUSH2 0x57 SWAP2 SWAP1 PUSH2 0x1A1 JUMP JUMPDEST PUSH1 0x40 MLOAD DUP1 SWAP2 SUB SWAP1 RETURN JUMPDEST PUSH1 0x40 MLOAD DUP1 PUSH1 0x40 ADD PUSH1 0x40 MSTORE DUP1 PUSH1 0x1 DUP2 MSTORE PUSH1 0x20 ADD PUSH32 0x4100000000000000000000000000000000000000000000000000000000000000 DUP2 MSTORE POP PUSH0 SWAP1 DUP2 PUSH2 0xA3 SWAP2 SWAP1 PUSH2 0x3F4 JUMP JUMPDEST POP JUMP JUMPDEST PUSH0 DUP1 SLOAD PUSH2 0xB2 SWAP1 PUSH2 0x21B JUMP JUMPDEST DUP1 PUSH1 0x1F ADD PUSH1 0x20 DUP1 SWAP2 DIV MUL PUSH1 0x20 ADD PUSH1 0x40 MLOAD SWAP1 DUP2 ADD PUSH1 0x40 MSTORE DUP1 SWAP3 SWAP2 SWAP1 DUP2 DUP2 MSTORE PUSH1 0x20 ADD DUP3 DUP1 SLOAD PUSH2 0xDE SWAP1 PUSH2 0x21B JUMP JUMPDEST DUP1 ISZERO PUSH2 0x129 JUMPI DUP1 PUSH1 0x1F LT PUSH2 0x100 JUMPI PUSH2 0x100 DUP1 DUP4 SLOAD DIV MUL DUP4 MSTORE SWAP2 PUSH1 0x20 ADD SWAP2 PUSH2 0x129 JUMP JUMPDEST DUP3 ADD SWAP2 SWAP1 PUSH0 MSTORE PUSH1 0x20 PUSH0 KECCAK256 SWAP1 JUMPDEST DUP2 SLOAD DUP2 MSTORE SWAP1 PUSH1 0x1 ADD SWAP1 PUSH1 0x20 ADD DUP1 DUP4 GT PUSH2 0x10C JUMPI DUP3 SWAP1 SUB PUSH1 0x1F AND DUP3 ADD SWAP2 JUMPDEST POP POP POP POP POP DUP2 JUMP JUMPDEST PUSH0 DUP2 MLOAD SWAP1 POP SWAP2 SWAP1 POP JUMP JUMPDEST PUSH0 DUP3 DUP3 MSTORE PUSH1 0x20 DUP3 ADD SWAP1 POP SWAP3 SWAP2 POP POP JUMP JUMPDEST DUP3 DUP2 DUP4 MCOPY PUSH0 DUP4 DUP4 ADD MSTORE POP POP POP JUMP JUMPDEST PUSH0 PUSH1 0x1F NOT PUSH1 0x1F DUP4 ADD AND SWAP1 POP SWAP2 SWAP1 POP JUMP JUMPDEST PUSH0 PUSH2 0x173 DUP3 PUSH2 0x131 JUMP JUMPDEST PUSH2 0x17D DUP2 DUP6 PUSH2 0x13B JUMP JUMPDEST SWAP4 POP PUSH2 0x18D DUP2 DUP6 PUSH1 0x20 DUP7 ADD PUSH2 0x14B JUMP JUMPDEST PUSH2 0x196 DUP2 PUSH2 0x159 JUMP JUMPDEST DUP5 ADD SWAP2 POP POP SWAP3 SWAP2 POP POP JUMP JUMPDEST PUSH0 PUSH1 0x20 DUP3 ADD SWAP1 POP DUP2 DUP2 SUB PUSH0 DUP4 ADD MSTORE PUSH2 0x1B9 DUP2 DUP5 PUSH2 0x169 JUMP JUMPDEST SWAP1 POP SWAP3 SWAP2 POP POP JUMP JUMPDEST PUSH32 0x4E487B7100000000000000000000000000000000000000000000000000000000 PUSH0 MSTORE PUSH1 0x41 PUSH1 0x4 MSTORE PUSH1 0x24 PUSH0 REVERT JUMPDEST PUSH32 0x4E487B7100000000000000000000000000000000000000000000000000000000 PUSH0 MSTORE PUSH1 0x22 PUSH1 0x4 MSTORE PUSH1 0x24 PUSH0 REVERT JUMPDEST PUSH0 PUSH1 0x2 DUP3 DIV SWAP1 POP PUSH1 0x1 DUP3 AND DUP1 PUSH2 0x232 JUMPI PUSH1 0x7F DUP3 AND SWAP2 POP JUMPDEST PUSH1 0x20 DUP3 LT DUP2 SUB PUSH2 0x245 JUMPI PUSH2 0x244 PUSH2 0x1EE JUMP JUMPDEST JUMPDEST POP SWAP2 SWAP1 POP JUMP JUMPDEST PUSH0 DUP2 SWAP1 POP DUP2 PUSH0 MSTORE PUSH1 0x20 PUSH0 KECCAK256 SWAP1 POP SWAP2 SWAP1 POP JUMP JUMPDEST PUSH0 PUSH1 0x20 PUSH1 0x1F DUP4 ADD DIV SWAP1 POP SWAP2 SWAP1 POP JUMP JUMPDEST PUSH0 DUP3 DUP3 SHL SWAP1 POP SWAP3 SWAP2 POP POP JUMP JUMPDEST PUSH0 PUSH1 0x8 DUP4 MUL PUSH2 0x2A7 PUSH32 0xFFFFFFFFFFFFFFFFFFFFFFFFFFFFFFFFFFFFFFFFFFFFFFFFFFFFFFFFFFFFFFFF DUP3 PUSH2 0x26C JUMP JUMPDEST PUSH2 0x2B1 DUP7 DUP4 PUSH2 0x26C JUMP JUMPDEST SWAP6 POP DUP1 NOT DUP5 AND SWAP4 POP DUP1 DUP7 AND DUP5 OR SWAP3 POP POP POP SWAP4 SWAP3 POP POP POP JUMP JUMPDEST PUSH0 DUP2 SWAP1 POP SWAP2 SWAP1 POP JUMP JUMPDEST PUSH0 DUP2 SWAP1 POP SWAP2 SWAP1 POP JUMP JUMPDEST PUSH0 PUSH2 0x2F5 PUSH2 0x2F0 PUSH2 0x2EB DUP5 PUSH2 0x2C9 JUMP JUMPDEST PUSH2 0x2D2 JUMP JUMPDEST PUSH2 0x2C9 JUMP JUMPDEST SWAP1 POP SWAP2 SWAP1 POP JUMP JUMPDEST PUSH0 DUP2 SWAP1 POP SWAP2 SWAP1 POP JUMP JUMPDEST PUSH2 0x30E DUP4 PUSH2 0x2DB JUMP JUMPDEST PUSH2 0x322 PUSH2 0x31A DUP3 PUSH2 0x2FC JUMP JUMPDEST DUP5 DUP5 SLOAD PUSH2 0x278 JUMP JUMPDEST DUP3 SSTORE POP POP POP POP JUMP JUMPDEST PUSH0 PUSH0 SWAP1 POP SWAP1 JUMP JUMPDEST PUSH2 0x339 PUSH2 0x32A JUMP JUMPDEST PUSH2 0x344 DUP2 DUP5 DUP5 PUSH2 0x305 JUMP JUMPDEST POP POP POP JUMP JUMPDEST JUMPDEST DUP2 DUP2 LT ISZERO PUSH2 0x367 JUMPI PUSH2 0x35C PUSH0 DUP3 PUSH2 0x331 JUMP JUMPDEST PUSH1 0x1 DUP2 ADD SWAP1 POP PUSH2 0x34A JUMP JUMPDEST POP POP JUMP JUMPDEST PUSH1 0x1F DUP3 GT ISZERO PUSH2 0x3AC JUMPI PUSH2 0x37D DUP2 PUSH2 0x24B JUMP JUMPDEST PUSH2 0x386 DUP5 PUSH2 0x25D JUMP JUMPDEST DUP2 ADD PUSH1 0x20 DUP6 LT ISZERO PUSH2 0x395 JUMPI DUP2 SWAP1 POP JUMPDEST PUSH2 0x3A9 PUSH2 0x3A1 DUP6 PUSH2 0x25D JUMP JUMPDEST DUP4 ADD DUP3 PUSH2 0x349 JUMP JUMPDEST POP POP JUMPDEST POP POP POP JUMP JUMPDEST PUSH0 DUP3 DUP3 SHR SWAP1 POP SWAP3 SWAP2 POP POP JUMP JUMPDEST PUSH0 PUSH2 0x3CC PUSH0 NOT DUP5 PUSH1 0x8 MUL PUSH2 0x3B1 JUMP JUMPDEST NOT DUP1 DUP4 AND SWAP2 POP POP SWAP3 SWAP2 POP POP JUMP JUMPDEST PUSH0 PUSH2 0x3E4 DUP4 DUP4 PUSH2 0x3BD JUMP JUMPDEST SWAP2 POP DUP3 PUSH1 0x2 MUL DUP3 OR SWAP1 POP SWAP3 SWAP2 POP POP JUMP JUMPDEST PUSH2 0x3FD DUP3 PUSH2 0x131 JUMP JUMPDEST PUSH8 0xFFFFFFFFFFFFFFFF DUP2 GT ISZERO PUSH2 0x416 JUMPI PUSH2 0x415 PUSH2 0x1C1 JUMP JUMPDEST JUMPDEST PUSH2 0x420 DUP3 SLOAD PUSH2 0x21B JUMP JUMPDEST PUSH2 0x42B DUP3 DUP3 DUP6 PUSH2 0x36B JUMP JUMPDEST PUSH0 PUSH1 0x20 SWAP1 POP PUSH1 0x1F DUP4 GT PUSH1 0x1 DUP2 EQ PUSH2 0x45C JUMPI PUSH0 DUP5 ISZERO PUSH2 0x44A JUMPI DUP3 DUP8 ADD MLOAD SWAP1 POP JUMPDEST PUSH2 0x454 DUP6 DUP3 PUSH2 0x3D9 JUMP JUMPDEST DUP7 SSTORE POP PUSH2 0x4BB JUMP JUMPDEST PUSH1 0x1F NOT DUP5 AND PUSH2 0x46A DUP7 PUSH2 0x24B JUMP JUMPDEST PUSH0 JUMPDEST DUP3 DUP2 LT ISZERO PUSH2 0x491 JUMPI DUP5 DUP10 ADD MLOAD DUP3 SSTORE PUSH1 0x1 DUP3 ADD SWAP2 POP PUSH1 0x20 DUP6 ADD SWAP5 POP PUSH1 0x20 DUP2 ADD SWAP1 POP PUSH2 0x46C JUMP JUMPDEST DUP7 DUP4 LT ISZERO PUSH2 0x4AE JUMPI DUP5 DUP10 ADD MLOAD PUSH2 0x4AA PUSH1 0x1F DUP10 AND DUP3 PUSH2 0x3BD JUMP JUMPDEST DUP4 SSTORE POP JUMPDEST PUSH1 0x1 PUSH1 0x2 DUP9 MUL ADD DUP9 SSTORE POP POP POP JUMPDEST POP POP POP POP POP POP JUMP INVALID LOG2 PUSH5 0x6970667358 0x22 SLT KECCAK256 SWAP10 DUP14 0x24 CODESIZE 0x23 AND SWAP13 GT DUP16 JUMPDEST 0xCF 0xC0 DUP15 PC RETURNCONTRACT 0xF6 NUMBER 0x4F SWAP1 0xD8 0xD7 0xC4 0xDB 0xD0 PREVRANDAO 0x2A BASEFEE CALLDATACOPY RETURN 0xB0 0xC2 PUSH3 0x64736F PUSH13 0x634300081E0033000000000000 "
				},
				"gasEstimates": {
					"creation": {
						"codeDepositCost": "254600",
						"executionCost": "292",
						"totalCost": "254892"
					},
					"external": {
						"setValue()": "infinite",
						"str()": "infinite"
					}
				},
				"methodIdentifiers": {
					"setValue()": "4fa519fa",
					"str()": "c15bae84"
				}
			},
			"storageLayout": {
				"storage": [
					{
						"astId": 3,
						"contract": "testSolidity.sol:A",
						"label": "str",
						"offset": 0,
						"slot": "0",
						"type": "t_string_storage"
					}
				],
				"types": {
					"t_string_storage": {
						"encoding": "bytes",
						"label": "string",
						"numberOfBytes": "32"
					}
				}
			},
			"userdoc": {
				"kind": "user",
				"methods": {},
				"version": 1
			}
		}
	}
}