{"abi":[{"type":"function","name":"ESafeTransferFrom","inputs":[{"name":"from","type":"address","internalType":"address"},{"name":"to","type":"address","internalType":"address"},{"name":"id","type":"uint256","internalType":"uint256"},{"name":"indexes","type":"uint256[]","internalType":"uint256[]"},{"name":"data","type":"bytes","internalType":"bytes"}],"outputs":[],"stateMutability":"nonpayable"},{"type":"function","name":"NFTPrice_initialized","inputs":[],"outputs":[{"name":"","type":"uint8","internalType":"uint8"}],"stateMutability":"view"},{"type":"function","name":"NFTS","inputs":[{"name":"","type":"uint256","internalType":"uint256"}],"outputs":[{"name":"ratio","type":"uint8","internalType":"uint8"},{"name":"indate","type":"uint32","internalType":"uint32"}],"stateMutability":"view"},{"type":"function","name":"addSupportedToken","inputs":[{"name":"_tokenAddress","type":"address","internalType":"address"}],"outputs":[],"stateMutability":"nonpayable"},{"type":"function","name":"balanceOf","inputs":[{"name":"account","type":"address","internalType":"address"},{"name":"id","type":"uint256","internalType":"uint256"}],"outputs":[{"name":"","type":"uint256","internalType":"uint256"}],"stateMutability":"view"},{"type":"function","name":"balanceOfBatch","inputs":[{"name":"","type":"address[]","internalType":"address[]"},{"name":"","type":"uint256[]","internalType":"uint256[]"}],"outputs":[{"name":"","type":"uint256[]","internalType":"uint256[]"}],"stateMutability":"view"},{"type":"function","name":"changeDynamicRatio","inputs":[{"name":"tokenID","type":"uint256","internalType":"uint256"},{"name":"newRatio","type":"uint8","internalType":"uint8"}],"outputs":[],"stateMutability":"nonpayable"},{"type":"function","name":"changeNFTPrice","inputs":[{"name":"tokenID","type":"uint256","internalType":"uint256"},{"name":"tokenAddress","type":"address","internalType":"address"},{"name":"amount","type":"uint256","internalType":"uint256"}],"outputs":[],"stateMutability":"nonpayable"},{"type":"function","name":"checkInitPricesParams","inputs":[{"name":"prices","type":"tuple[][6]","internalType":"struct TCF_NFTPrice.priceTypeAndAomut[][6]","components":[{"name":"tokenAddress","type":"address","internalType":"address"},{"name":"amount","type":"uint256","internalType":"uint256"}]}],"outputs":[{"name":"","type":"string","internalType":"string"}],"stateMutability":"view"},{"type":"function","name":"getChildren","inputs":[{"name":"node","type":"address","internalType":"address"}],"outputs":[{"name":"left","type":"address","internalType":"address"},{"name":"right","type":"address","internalType":"address"}],"stateMutability":"view"},{"type":"function","name":"getNFTPrice","inputs":[{"name":"tokenID","type":"uint256","internalType":"uint256"},{"name":"_tokenAddress","type":"address","internalType":"address"}],"outputs":[{"name":"","type":"string","internalType":"string"},{"name":"","type":"uint256","internalType":"uint256"}],"stateMutability":"view"},{"type":"function","name":"getNftMintTime","inputs":[{"name":"tokenId","type":"uint256","internalType":"uint256"},{"name":"account","type":"address","internalType":"address"},{"name":"editionId","type":"uint256","internalType":"uint256"}],"outputs":[{"name":"","type":"uint256","internalType":"uint256"}],"stateMutability":"view"},{"type":"function","name":"getNodeBalance","inputs":[{"name":"node","type":"address","internalType":"address"}],"outputs":[{"name":"","type":"uint256","internalType":"uint256"}],"stateMutability":"view"},{"type":"function","name":"getParent","inputs":[{"name":"node","type":"address","internalType":"address"}],"outputs":[{"name":"","type":"address","internalType":"address"}],"stateMutability":"view"},{"type":"function","name":"getRecommendedParent","inputs":[{"name":"recommender","type":"address","internalType":"address"}],"outputs":[{"name":"parent","type":"address","internalType":"address"},{"name":"isLeftBranch","type":"bool","internalType":"bool"}],"stateMutability":"view"},{"type":"function","name":"getRecommender","inputs":[{"name":"node","type":"address","internalType":"address"}],"outputs":[{"name":"","type":"address","internalType":"address"}],"stateMutability":"view"},{"type":"function","name":"getTotalNFTWorth","inputs":[{"name":"owner","type":"address","internalType":"address"}],"outputs":[{"name":"","type":"uint256","internalType":"uint256"}],"stateMutability":"view"},{"type":"function","name":"getUserTokenIds","inputs":[{"name":"account","type":"address","internalType":"address"},{"name":"tokenId","type":"uint256","internalType":"uint256"}],"outputs":[{"name":"","type":"uint256[]","internalType":"uint256[]"}],"stateMutability":"view"},{"type":"function","name":"initPrice","inputs":[{"name":"prices","type":"tuple[][6]","internalType":"struct TCF_NFTPrice.priceTypeAndAomut[][6]","components":[{"name":"tokenAddress","type":"address","internalType":"address"},{"name":"amount","type":"uint256","internalType":"uint256"}]}],"outputs":[],"stateMutability":"nonpayable"},{"type":"function","name":"initRoot","inputs":[{"name":"rootAddress","type":"address","internalType":"address"}],"outputs":[],"stateMutability":"nonpayable"},{"type":"function","name":"insert","inputs":[{"name":"node","type":"address","internalType":"address"},{"name":"parent","type":"address","internalType":"address"},{"name":"recommender","type":"address","internalType":"address"},{"name":"isLeft","type":"bool","internalType":"bool"}],"outputs":[],"stateMutability":"nonpayable"},{"type":"function","name":"isApprovedForAll","inputs":[{"name":"account","type":"address","internalType":"address"},{"name":"operator","type":"address","internalType":"address"}],"outputs":[{"name":"","type":"bool","internalType":"bool"}],"stateMutability":"view"},{"type":"function","name":"isExist","inputs":[{"name":"node","type":"address","internalType":"address"}],"outputs":[{"name":"","type":"bool","internalType":"bool"}],"stateMutability":"view"},{"type":"function","name":"isSupported","inputs":[{"name":"token","type":"address","internalType":"address"}],"outputs":[{"name":"","type":"uint8","internalType":"uint8"}],"stateMutability":"view"},{"type":"function","name":"minChildSubtreeBalance","inputs":[{"name":"node","type":"address","internalType":"address"}],"outputs":[{"name":"","type":"uint256","internalType":"uint256"}],"stateMutability":"view"},{"type":"function","name":"owner","inputs":[],"outputs":[{"name":"","type":"address","internalType":"address"}],"stateMutability":"view"},{"type":"function","name":"ownerOf","inputs":[{"name":"tokenId","type":"uint256","internalType":"uint256"},{"name":"editionId","type":"uint256","internalType":"uint256"}],"outputs":[{"name":"","type":"address","internalType":"address"}],"stateMutability":"view"},{"type":"function","name":"renounceOwnership","inputs":[],"outputs":[],"stateMutability":"nonpayable"},{"type":"function","name":"root","inputs":[],"outputs":[{"name":"","type":"address","internalType":"address"}],"stateMutability":"view"},{"type":"function","name":"rootInitialized","inputs":[],"outputs":[{"name":"","type":"bool","internalType":"bool"}],"stateMutability":"view"},{"type":"function","name":"safeBatchTransferFrom","inputs":[{"name":"","type":"address","internalType":"address"},{"name":"","type":"address","internalType":"address"},{"name":"","type":"uint256[]","internalType":"uint256[]"},{"name":"","type":"uint256[]","internalType":"uint256[]"},{"name":"","type":"bytes","internalType":"bytes"}],"outputs":[],"stateMutability":"nonpayable"},{"type":"function","name":"safeTransferFrom","inputs":[{"name":"","type":"address","internalType":"address"},{"name":"","type":"address","internalType":"address"},{"name":"","type":"uint256","internalType":"uint256"},{"name":"","type":"uint256","internalType":"uint256"},{"name":"","type":"bytes","internalType":"bytes"}],"outputs":[],"stateMutability":"nonpayable"},{"type":"function","name":"setApprovalForAll","inputs":[{"name":"operator","type":"address","internalType":"address"},{"name":"approved","type":"bool","internalType":"bool"}],"outputs":[],"stateMutability":"nonpayable"},{"type":"function","name":"subtreeBalance","inputs":[{"name":"node","type":"address","internalType":"address"}],"outputs":[{"name":"","type":"uint256","internalType":"uint256"}],"stateMutability":"view"},{"type":"function","name":"supportedTokenAmount","inputs":[],"outputs":[{"name":"","type":"uint256","internalType":"uint256"}],"stateMutability":"view"},{"type":"function","name":"supportsInterface","inputs":[{"name":"interfaceId","type":"bytes4","internalType":"bytes4"}],"outputs":[{"name":"","type":"bool","internalType":"bool"}],"stateMutability":"view"},{"type":"function","name":"tokenAddress_array","inputs":[{"name":"","type":"uint256","internalType":"uint256"}],"outputs":[{"name":"","type":"address","internalType":"address"}],"stateMutability":"view"},{"type":"function","name":"totalTreeBalance","inputs":[],"outputs":[{"name":"","type":"uint256","internalType":"uint256"}],"stateMutability":"view"},{"type":"function","name":"transferOwnership","inputs":[{"name":"newOwner","type":"address","internalType":"address"}],"outputs":[],"stateMutability":"nonpayable"},{"type":"function","name":"uri","inputs":[{"name":"","type":"uint256","internalType":"uint256"}],"outputs":[{"name":"","type":"string","internalType":"string"}],"stateMutability":"view"},{"type":"event","name":"ApprovalForAll","inputs":[{"name":"account","type":"address","indexed":true,"internalType":"address"},{"name":"operator","type":"address","indexed":true,"internalType":"address"},{"name":"approved","type":"bool","indexed":false,"internalType":"bool"}],"anonymous":false},{"type":"event","name":"NodeInserted","inputs":[{"name":"node","type":"address","indexed":true,"internalType":"address"},{"name":"parent","type":"address","indexed":true,"internalType":"address"},{"name":"recommender","type":"address","indexed":true,"internalType":"address"},{"name":"isLeft","type":"bool","indexed":false,"internalType":"bool"}],"anonymous":false},{"type":"event","name":"OwnershipTransferred","inputs":[{"name":"previousOwner","type":"address","indexed":true,"internalType":"address"},{"name":"newOwner","type":"address","indexed":true,"internalType":"address"}],"anonymous":false},{"type":"event","name":"RootInitialized","inputs":[{"name":"root","type":"address","indexed":true,"internalType":"address"}],"anonymous":false},{"type":"event","name":"TransferBatch","inputs":[{"name":"operator","type":"address","indexed":true,"internalType":"address"},{"name":"from","type":"address","indexed":true,"internalType":"address"},{"name":"to","type":"address","indexed":true,"internalType":"address"},{"name":"ids","type":"uint256[]","indexed":false,"internalType":"uint256[]"},{"name":"values","type":"uint256[]","indexed":false,"internalType":"uint256[]"}],"anonymous":false},{"type":"event","name":"TransferSingle","inputs":[{"name":"operator","type":"address","indexed":true,"internalType":"address"},{"name":"from","type":"address","indexed":true,"internalType":"address"},{"name":"to","type":"address","indexed":true,"internalType":"address"},{"name":"id","type":"uint256","indexed":false,"internalType":"uint256"},{"name":"value","type":"uint256","indexed":false,"internalType":"uint256"}],"anonymous":false},{"type":"event","name":"URI","inputs":[{"name":"value","type":"string","indexed":false,"internalType":"string"},{"name":"id","type":"uint256","indexed":true,"internalType":"uint256"}],"anonymous":false}],"bytecode":{"object":"0x60806040523480156200001157600080fd5b506200001d336200009b565b600a6020527fbbc70db1b6c7afd11e79c0fb0051300458f1a3acb8ee9789d9b6b26c61ad9bc7805460ff19166001908117909155600c805480830182556000919091527fdf6966c971051c3d54ec59162606531493a51404a002842f56009d7e5cf4a8c70180546001600160a01b03191682179055600b55620000ed565b600980546001600160a01b038381166001600160a01b0319831681179093556040519116919082907f8be0079c531659141344cd1fd0a4f28419497f9722a3daafe3b4186f6b6457e090600090a35050565b61384a80620000fd6000396000f3fe608060405234801561001057600080fd5b50600436106102465760003560e01c80636d69fcaf1161013b578063a9405923116100b8578063e5030adc1161007c578063e5030adc146105b6578063e985e9c5146105c9578063ebf0c71714610605578063f242432a14610618578063f2fde38b1461062b57600080fd5b8063a940592314610519578063aa31281c1461052c578063b788920e1461053f578063c9b6b48514610552578063d9dad80d146105a357600080fd5b80638da5cb5b116100ff5780638da5cb5b146104c757806392aeff48146104d85780639f2980db146104eb578063a15113d1146104fe578063a22cb4651461050657600080fd5b80636d69fcaf14610465578063715018a6146104785780637c8e2da71461048057806383023c881461049357806386ff9113146104a657600080fd5b80632eb2c2d6116101c95780634f129c531161018d5780634f129c53146103e557806355826313146103f8578063598c27bc1461040b578063651583ee1461041e5780636999fa451461043257600080fd5b80632eb2c2d6146103475780633a4d2d3a1461035c5780633f2575991461036f5780634c8cb672146103a15780634e1273f4146103c557600080fd5b8063153154fd11610210578063153154fd146102da57806319d62e57146103055780631f3fd61814610318578063233612831461032b5780632653335a1461033457600080fd5b806213eb4b1461024b578062fdd58e1461027357806301ffc9a71461029457806307f241ce146102a75780630e89341c146102ba575b600080fd5b61025e610259366004612d37565b61063e565b60405190151581526020015b60405180910390f35b610286610281366004612d52565b610698565b60405190815260200161026a565b61025e6102a2366004612d92565b61072f565b6102866102b5366004612d37565b61077f565b6102cd6102c8366004612daf565b6107ca565b60405161026a9190612e18565b6102ed6102e8366004612d37565b610800565b6040516001600160a01b03909116815260200161026a565b6102ed610313366004612daf565b610864565b6102cd610326366004612e2b565b61088e565b610286600b5481565b610286610342366004612d37565b610b43565b61035a610355366004612fc2565b610c49565b005b61035a61036a366004612e2b565b610c83565b61038261037d366004612d37565b610f8a565b604080516001600160a01b03909316835290151560208301520161026a565b600d546103b390610100900460ff1681565b60405160ff909116815260200161026a565b6103d86103d336600461306c565b6110fb565b60405161026a9190613137565b6103b36103f3366004612d37565b611138565b61035a61040636600461317b565b61116c565b61035a6104193660046131b0565b6111df565b60115461025e90600160a01b900460ff1681565b610445610440366004612d37565b61125d565b604080516001600160a01b0393841681529290911660208301520161026a565b61035a610473366004612d37565b6112d0565b61035a6113dd565b61028661048e366004612d37565b6113f1565b61035a6104a1366004613274565b611468565b6104b96104b43660046132aa565b611509565b60405161026a9291906132d6565b6009546001600160a01b03166102ed565b61035a6104e6366004612d37565b6115b9565b61035a6104f9366004613308565b6116d6565b610286611ab5565b61035a61051436600461335c565b611afb565b6102ed610527366004612d37565b611b0a565b61028661053a36600461317b565b611b6b565b6103d861054d366004612d52565b611bbd565b610585610560366004612daf565b600e6020526000908152604090206001015460ff811690610100900463ffffffff1682565b6040805160ff909316835263ffffffff90911660208301520161026a565b6102ed6105b1366004613386565b611c52565b6102866105c4366004612d37565b611c9b565b61025e6105d73660046133a8565b6001600160a01b03918216600090815260086020908152604080832093909416825291909152205460ff1690565b6011546102ed906001600160a01b031681565b61035a6106263660046133d2565b611e3f565b61035a610639366004612d37565b611e7f565b60006001600160a01b03821661066f5760405162461bcd60e51b815260040161066690613437565b60405180910390fd5b506001600160a01b0316600090815260126020526040902060030154600160a01b900460ff1690565b60006001600160a01b0383166106c05760405162461bcd60e51b815260040161066690613437565b600682106107045760405162461bcd60e51b81526020600482015260116024820152704552525f544f4b454e49445f52414e474560781b6044820152606401610666565b5060008181526007602090815260408083206001600160a01b03861684529091529020545b92915050565b60006001600160e01b03198216636cdb3d1360e11b148061076057506001600160e01b031982166303a24d0760e21b145b8061072957506301ffc9a760e01b6001600160e01b0319831614610729565b6001600160a01b038116600090815260126020526040812060030154600160a01b900460ff166107c15760405162461bcd60e51b81526004016106669061345d565b61072982611c9b565b60405162461bcd60e51b81526020600482015260086024820152675553455f4575726960c01b6044820152606090606401610666565b6001600160a01b038116600090815260126020526040812060030154600160a01b900460ff166108425760405162461bcd60e51b81526004016106669061345d565b506001600160a01b039081166000908152601260205260409020600301541690565b600c818154811061087457600080fd5b6000918252602090912001546001600160a01b0316905081565b606060005b6006811015610b2d57600b548382600681106108b1576108b1613486565b6020028101906108c1919061349c565b9050146108f057505060408051808201909152600a815269282924a1a2a9afa622a760b11b6020820152919050565b600080600085846006811061090757610907613486565b602002810190610917919061349c565b808060200260200160405190810160405280939291908181526020016000905b8282101561096357610954604083028601368190038101906134e6565b81526020019060010190610937565b5050505050905060005b600b54811015610aa557600082828151811061098b5761098b613486565b60209081029190910101515190506001600160a01b0381166109b057600194506109b5565b600193505b60006001600160a01b03168383815181106109d2576109d2613486565b6020026020010151600001516001600160a01b031614158015610a335750600a6000848481518110610a0657610a06613486565b602090810291909101810151516001600160a01b031682528101919091526040016000205460ff16600114155b15610a9457610a88838381518110610a4d57610a4d613486565b602002602001015160000151604051806040016040528060118152602001701513d2d15397d55394d5541413d4951151607a1b815250611ef8565b98975050505050505050565b50610a9e81613553565b905061096d565b5082610adf5750506040805180820190915260138152721510d7d4149250d157d35554d517d1561254d5606a1b6020820152949350505050565b81610b195750506040805180820190915260148152731110d197d4149250d157d35554d517d1561254d560621b6020820152949350505050565b50505080610b2690613553565b9050610893565b5050604080516020810190915260008152919050565b601154600090600160a01b900460ff16610b6f5760405162461bcd60e51b81526004016106669061356c565b6001600160a01b038216600090815260126020526040902060030154600160a01b900460ff16610bb15760405162461bcd60e51b81526004016106669061345d565b6001600160a01b038083166000908152601260205260408120600181015490921615610bf3576001820154610bee906001600160a01b0316611f2c565b610bf6565b60005b60028301549091506000906001600160a01b031615610c2b576002830154610c26906001600160a01b0316611f2c565b610c2e565b60005b905080821115610c3e5780610c40565b815b95945050505050565b60405162461bcd60e51b815260206004820152600f60248201526e1393d517d253541311535153951151608a1b6044820152606401610666565b610c8b611fca565b600d5460ff16600114610cd85760405162461bcd60e51b81526020600482015260156024820152741513d2d15397d393d517d253925512505312569151605a1b6044820152606401610666565b600d54610100900460ff1615610d255760405162461bcd60e51b815260206004820152601260248201527114149250d154d7d25392551250531256915160721b6044820152606401610666565b6000610d308261088e565b90508051600014610d55578060405162461bcd60e51b81526004016106669190612e18565b6040805160c0808201835262ed4e008252630107ac0060208084019190915263013c68008385015263017124006060808501919091526301a5e0006080808601919091526301da9c0060a0808701919091528651948501875260288552603293850193909352603c95840195909552605090830152605a93820193909352606492810192909252906000610de9858061349c565b9050905060005b6006811015610f7357838160068110610e0b57610e0b613486565b6020020151600e600083815260200190815260200160002060010160016101000a81548163ffffffff021916908363ffffffff160217905550828160068110610e5657610e56613486565b602090810291909101516000838152600e90925260408220600101805460ff191660ff9092169190911790555b82811015610f62576000878360068110610e9f57610e9f613486565b602002810190610eaf919061349c565b83818110610ebf57610ebf613486565b610ed59260206040909202019081019150612d37565b90506001600160a01b038116610ee9575060015b878360068110610efb57610efb613486565b602002810190610f0b919061349c565b83818110610f1b57610f1b613486565b6000868152600e602090815260408083206001600160a01b039790971683529581529085902091909402929092019092013590555080610f5a81613553565b915050610e83565b50610f6c81613553565b9050610df0565b5050600d805461ff00191661010017905550505050565b6011546000908190600160a01b900460ff16610fb85760405162461bcd60e51b81526004016106669061356c565b6001600160a01b038316600090815260126020526040902060030154600160a01b900460ff166110225760405162461bcd60e51b8152602060048201526015602482015274149150d3d353515391115497d393d517d1561254d5605a1b6044820152606401610666565b825b6001600160a01b038082166000908152601260205260408120600181015490921615611066576001820154611061906001600160a01b0316611f2c565b611069565b60005b60028301549091506000906001600160a01b03161561109e576002830154611099906001600160a01b0316611f2c565b6110a1565b60005b9050808211156000816110c15760028501546001600160a01b03166110d0565b60018501546001600160a01b03165b90506001600160a01b0381166110ef5750939793965092945050505050565b94506110249350505050565b60405162461bcd60e51b815260206004820152600f60248201526e1393d517d253541311535153951151608a1b6044820152606090606401610666565b60006001600160a01b03821661114d57600191505b506001600160a01b03166000908152600a602052604090205460ff1690565b611174611fca565b60006111808484612024565b905080516000146111a5578060405162461bcd60e51b81526004016106669190612e18565b6001600160a01b0383166111b857600192505b506000928352600e602090815260408085206001600160a01b039094168552929052912055565b6001600160a01b0386163314806111fb57506111fb86336105d7565b6112475760405162461bcd60e51b815260206004820152601960248201527f43414c4c45525f4e4f545f4f574e45525f415050524f564544000000000000006044820152606401610666565b611255868686868686612126565b505050505050565b6001600160a01b0381166000908152601260205260408120600301548190600160a01b900460ff166112a15760405162461bcd60e51b81526004016106669061345d565b50506001600160a01b039081166000908152601260205260409020600181015460029091015490821692911690565b6112d8611fca565b600d5460ff161561131f5760405162461bcd60e51b81526020600482015260116024820152701513d2d15397d253925512505312569151607a1b6044820152606401610666565b600061132a826123cf565b9050805160001461134f578060405162461bcd60e51b81526004016106669190612e18565b6001600160a01b0382166000818152600a60205260408120805460ff19166001908117909155600c805480830182559083527fdf6966c971051c3d54ec59162606531493a51404a002842f56009d7e5cf4a8c70180546001600160a01b031916909317909255600b80549091906113c790849061359a565b9091555050600d805460ff191660011790555050565b6113e5611fca565b6113ef60006125a1565b565b601154600090600160a01b900460ff1661141d5760405162461bcd60e51b81526004016106669061356c565b6001600160a01b038216600090815260126020526040902060030154600160a01b900460ff1661145f5760405162461bcd60e51b81526004016106669061345d565b61072982611f2c565b611470611fca565b600d5460ff610100909104166001146114c45760405162461bcd60e51b815260206004820152601660248201527514149250d154d7d393d517d25392551250531256915160521b6044820152606401610666565b600682106114e45760405162461bcd60e51b8152600401610666906135ad565b6000918252600e6020526040909120600101805460ff191660ff909216919091179055565b60606000806115188585612024565b9050805160001461152e579150600090506115b2565b6001600160a01b03841661154157600193505b6000858152600e602090815260408083206001600160a01b03881684529091528120549081900361159d57505060408051808201909152600d81526c14149250d157d393d517d4d155609a1b60208201529150600090506115b2565b60408051602081019091526000815293509150505b9250929050565b6115c1611fca565b601154600160a01b900460ff161561161b5760405162461bcd60e51b815260206004820152601860248201527f524f4f545f414c52454144595f494e495449414c495a454400000000000000006044820152606401610666565b6001600160a01b0381166116415760405162461bcd60e51b815260040161066690613437565b601180546001600160a01b0383166001600160a81b03199182168117600160a01b90811790935560008181526012602052604080822060038101805482546001600160a01b03199081168455600184018054821690556002840180549091169055909516909517909355915190917fbeec1fc786857549cbe9ae8717fa0fbdea9bb7386027cbad8197404a3c94421091a25050565b601154600160a01b900460ff166116ff5760405162461bcd60e51b81526004016106669061356c565b6001600160a01b0384161580159061171f57506001600160a01b03831615155b801561173357506001600160a01b03821615155b61174f5760405162461bcd60e51b815260040161066690613437565b6001600160a01b038416600090815260126020526040902060030154600160a01b900460ff16156117b05760405162461bcd60e51b815260206004820152600b60248201526a4e4f44455f45584953545360a81b6044820152606401610666565b6001600160a01b038316600090815260126020526040902060030154600160a01b900460ff166118155760405162461bcd60e51b815260206004820152601060248201526f14105491539517d393d517d1561254d560821b6044820152606401610666565b6001600160a01b038216600090815260126020526040902060030154600160a01b900460ff1661187f5760405162461bcd60e51b8152602060048201526015602482015274149150d3d353515391115497d393d517d1561254d5605a1b6044820152606401610666565b61188982846125f3565b6118d55760405162461bcd60e51b815260206004820152601e60248201527f504152454e545f4e4f545f5245434f4d4d454e4445525f5355425452454500006044820152606401610666565b6001600160a01b0380841660009081526012602052604090206001810154909116158061190d575060028101546001600160a01b0316155b6119595760405162461bcd60e51b815260206004820152601760248201527f504152454e545f4841535f54574f5f4348494c4452454e0000000000000000006044820152606401610666565b81156119b55760018101546001600160a01b0316611993576001810180546001600160a01b0319166001600160a01b038716179055611a07565b6002810180546001600160a01b0319166001600160a01b038716179055611a07565b60028101546001600160a01b03166119e9576002810180546001600160a01b0319166001600160a01b038716179055611a07565b6001810180546001600160a01b0319166001600160a01b0387161790555b6001600160a01b038086166000818152601260205260409081902060038101805482548a87166001600160a01b031991821681178555600185018054831690556002850180549092169091559589166001600160a81b03199091168117600160a01b17909155915190939192907fb7de7526072e4403cbc0296462672a10ed96d94c4169dc8b84b07515e949013d90611aa590881515815260200190565b60405180910390a4505050505050565b601154600090600160a01b900460ff16611ae15760405162461bcd60e51b81526004016106669061356c565b601154611af6906001600160a01b0316611f2c565b905090565b611b06338383612653565b5050565b6001600160a01b038116600090815260126020526040812060030154600160a01b900460ff16611b4c5760405162461bcd60e51b81526004016106669061345d565b506001600160a01b039081166000908152601260205260409020541690565b600060068410611b8d5760405162461bcd60e51b8152600401610666906135ad565b5060009283526010602090815260408085206001600160a01b039490941685529281528284209184525290205490565b606060068210611bdf5760405162461bcd60e51b8152600401610666906135ad565b6001600160a01b0383166000908152600f6020908152604080832085845282529182902080548351818402810184019094528084529091830182828015611c4557602002820191906000526020600020905b815481526020019060010190808311611c31575b5050505050905092915050565b600060068310611c745760405162461bcd60e51b8152600401610666906135ad565b5060009182526006602090815260408084209284529190529020546001600160a01b031690565b60006001600160a01b038216611cc35760405162461bcd60e51b815260040161066690613437565b6000805b6006811015611e38576001600160a01b0384166000908152600f60209081526040808320848452825280832080548251818502810185019093528083529192909190830182828015611d3857602002820191906000526020600020905b815481526020019060010190808311611d24575b5050505050905060005b8151811015611e23576000828281518110611d5f57611d5f613486565b60209081029190910181015160008681526010835260408082206001600160a01b038c1683528452808220838352845280822054888352600e909452902060010154909250610100900463ffffffff16611db9818361359a565b421115611dc857505050611e11565b600080611dd6886000611509565b9150915081516000148290611dfe5760405162461bcd60e51b81526004016106669190612e18565b50611e09818a61359a565b985050505050505b80611e1b81613553565b915050611d42565b50508080611e3090613553565b915050611cc7565b5092915050565b60405162461bcd60e51b81526020600482015260156024820152745553455f45536166655472616e7366657246726f6d60581b6044820152606401610666565b611e87611fca565b6001600160a01b038116611eec5760405162461bcd60e51b815260206004820152602660248201527f4f776e61626c653a206e6577206f776e657220697320746865207a65726f206160448201526564647265737360d01b6064820152608401610666565b611ef5816125a1565b50565b606081611f0484612711565b604051602001611f159291906135d4565b604051602081830303815290604052905092915050565b60006001600160a01b038216611f4457506000919050565b6001600160a01b03821660009081526012602052604090206003810154600160a01b900460ff16611f785750600092915050565b6002810154611f8f906001600160a01b0316611f2c565b6001820154611fa6906001600160a01b0316611f2c565b611faf85611c9b565b611fb9919061359a565b611fc3919061359a565b9392505050565b6009546001600160a01b031633146113ef5760405162461bcd60e51b815260206004820181905260248201527f4f776e61626c653a2063616c6c6572206973206e6f7420746865206f776e65726044820152606401610666565b600d5460609060ff6101009091041660011461206d575060408051808201909152601681527514149250d154d7d393d517d25392551250531256915160521b6020820152610729565b60058311156120a0575060408051808201909152600d81526c544f4b454e49445f52414e474560981b6020820152610729565b6001600160a01b0382166120b357600191505b6001600160a01b0382166000908152600a602052604090205460ff166001146121105761210982604051806040016040528060118152602001701513d2d15397d55394d5541413d4951151607a1b815250611ef8565b9050610729565b5060408051602081019091526000815292915050565b6001600160a01b03851661214c5760405162461bcd60e51b815260040161066690613437565b6006841061216c5760405162461bcd60e51b8152600401610666906135ad565b60005b828110156123c057600084848381811061218b5761218b613486565b60008981526010602090815260408083206001600160a01b038f168085529083528184209483029690960135808452938252808320548c8452600e909252909120600101549194509261010090910463ffffffff1691506121ec8985611c52565b6001600160a01b0316146122125760405162461bcd60e51b815260040161066690613610565b61221c818361359a565b421161225b5760405162461bcd60e51b815260206004820152600e60248201526d14d1539117d59053125117d3919560921b6044820152606401610666565b60008881526010602090815260408083206001600160a01b03808e1680865291845282852088865284528285208590558e168452600f8084528285208d8652845282852091855283528184208c8552909252822090915b825481101561236657858382815481106122ce576122ce613486565b90600052602060002001540361235457825483906122ee90600190613639565b815481106122fe576122fe613486565b906000526020600020015483828154811061231b5761231b613486565b9060005260206000200181905550828054806123395761233961364c565b60019003818190600052602060002001600090559055612366565b8061235e81613553565b9150506122b2565b508054600181018255600091825260208083209091018690558a82526010815260408083206001600160a01b038f168452825280832096835295905293842093909355508291506123b8905081613553565b91505061216f565b5061125586868686868661289e565b6001600160a01b0381166000908152600a602052604090205460609060ff1660010361242257610729826040518060400160405280600b81526020016a414444525f45584953545360a81b815250611ef8565b60408051600481526024810182526020810180516001600160e01b03166395d89b4160e01b179052905160009081906001600160a01b03861690612467908590613662565b600060405180830381855afa9150503d80600081146124a2576040519150601f19603f3d011682016040523d82523d6000602084013e6124a7565b606091505b50915091508180156124ba575060008151115b15612560576000818060200190518101906124d5919061367e565b80516020808301919091206040805180820190915260038152622221a360e91b9201919091529091507f580e4ba285e7e1134de91e671c33b0ab748bee7126d5d2e4d0845e6ad176e7eb81146125595761254e87604051806040016040528060078152602001662727aa2fa221a360c91b815250611ef8565b979650505050505050565b5050612589565b610c4085604051806040016040528060078152602001662727aa2fa221a360c91b815250611ef8565b50506040805160208101909152600081529392505050565b600980546001600160a01b038381166001600160a01b0319831681179093556040519116919082907f8be0079c531659141344cd1fd0a4f28419497f9722a3daafe3b4186f6b6457e090600090a35050565b6000815b6001600160a01b0381161561264957836001600160a01b0316816001600160a01b031603612629576001915050610729565b6001600160a01b03908116600090815260126020526040902054166125f7565b5060009392505050565b816001600160a01b0316836001600160a01b0316036126a45760405162461bcd60e51b815260206004820152600d60248201526c20a8282927ab20a62fa9a2a62360991b6044820152606401610666565b6001600160a01b03838116600081815260086020908152604080832094871680845294825291829020805460ff191686151590811790915591519182527f17307eab39ab6107e8899845ad3d59bd9653f200f220920489ca2b5937696c31910160405180910390a3505050565b60408051602a808252606082810190935283831b916f181899199a1a9b1b9c1cb0b131b232b360811b9160009190602082018180368337019050509050600360fc1b8160008151811061276657612766613486565b60200101906001600160f81b031916908160001a905350600f60fb1b8160018151811061279557612795613486565b60200101906001600160f81b031916908160001a90535060005b60148110156128955760008482601481106127cc576127cc613486565b1a905083600482901c60ff16601081106127e8576127e8613486565b1a60f81b836127f8846002613700565b61280390600261359a565b8151811061281357612813613486565b60200101906001600160f81b031916908160001a90535083600f82166010811061283f5761283f613486565b1a60f81b8361284f846002613700565b61285a90600361359a565b8151811061286a5761286a613486565b60200101906001600160f81b031916908160001a90535050808061288d90613553565b9150506127af565b50949350505050565b6001600160a01b0385166128c45760405162461bcd60e51b815260040161066690613437565b600684106128e45760405162461bcd60e51b8152600401610666906135ad565b60005b8281101561296c5760008581526006602052604081206001600160a01b0389169186868581811061291a5761291a613486565b60209081029290920135835250810191909152604001600020546001600160a01b03161461295a5760405162461bcd60e51b815260040161066690613610565b8061296481613553565b9150506128e7565b5033600061297986612b45565b9050600061298685612b45565b905060005b85811015612a105760008881526006602052604081206001600160a01b038c16918989858181106129be576129be613486565b60209081029290920135835250810191909152604001600020546001600160a01b0316146129fe5760405162461bcd60e51b815260040161066690613610565b80612a0881613553565b91505061298b565b5060008781526007602090815260408083206001600160a01b038d16845290915281208054878103909155905b86811015612aa65760008981526006602052604081208b918a8a85818110612a6757612a67613486565b6020908102929092013583525081019190915260400160002080546001600160a01b0319166001600160a01b0392909216919091179055600101612a3d565b5060008881526007602090815260408083206001600160a01b038d16845290915281208054889290612ad990849061359a565b909155505060408051898152602081018890526001600160a01b038b8116928d821692918816917fc3d58168c5ae7397731d063d5bbf3d657854427343f4c083240f7aacaa2d0f62910160405180910390a4612b39848b8b8b8a8a612b90565b50505050505050505050565b60408051600180825281830190925260609160009190602080830190803683370190505090508281600081518110612b7f57612b7f613486565b602090810291909101015292915050565b6001600160a01b0384163b156112555760405163f23a6e6160e01b81526001600160a01b0385169063f23a6e6190612bd49089908990889088908890600401613717565b6020604051808303816000875af1925050508015612c0f575060408051601f3d908101601f19168201909252612c0c91810190613751565b60015b612cb257612c1b61376e565b806308c379a003612c545750612c2f61378a565b80612c3a5750612c56565b8060405162461bcd60e51b81526004016106669190612e18565b505b60405162461bcd60e51b815260206004820152602b60248201527f7472616e736665725f746f5f6e6f6e2d4552433131353552656365697665725f60448201526a34b6b83632b6b2b73a32b960a91b6064820152608401610666565b6001600160e01b0319811663f23a6e6160e01b14612d125760405162461bcd60e51b815260206004820152601f60248201527f4552433131353552454345495645525f52454a45435445445f544f4b454e53006044820152606401610666565b50505050505050565b80356001600160a01b0381168114612d3257600080fd5b919050565b600060208284031215612d4957600080fd5b611fc382612d1b565b60008060408385031215612d6557600080fd5b612d6e83612d1b565b946020939093013593505050565b6001600160e01b031981168114611ef557600080fd5b600060208284031215612da457600080fd5b8135611fc381612d7c565b600060208284031215612dc157600080fd5b5035919050565b60005b83811015612de3578181015183820152602001612dcb565b50506000910152565b60008151808452612e04816020860160208601612dc8565b601f01601f19169290920160200192915050565b602081526000611fc36020830184612dec565b600060208284031215612e3d57600080fd5b813567ffffffffffffffff811115612e5457600080fd5b820160c08101841015611fc357600080fd5b634e487b7160e01b600052604160045260246000fd5b601f8201601f1916810167ffffffffffffffff81118282101715612ea257612ea2612e66565b6040525050565b600067ffffffffffffffff821115612ec357612ec3612e66565b5060051b60200190565b600082601f830112612ede57600080fd5b81356020612eeb82612ea9565b604051612ef88282612e7c565b83815260059390931b8501820192828101915086841115612f1857600080fd5b8286015b84811015612f335780358352918301918301612f1c565b509695505050505050565b600067ffffffffffffffff821115612f5857612f58612e66565b50601f01601f191660200190565b600082601f830112612f7757600080fd5b8135612f8281612f3e565b604051612f8f8282612e7c565b828152856020848701011115612fa457600080fd5b82602086016020830137600092810160200192909252509392505050565b600080600080600060a08688031215612fda57600080fd5b612fe386612d1b565b9450612ff160208701612d1b565b9350604086013567ffffffffffffffff8082111561300e57600080fd5b61301a89838a01612ecd565b9450606088013591508082111561303057600080fd5b61303c89838a01612ecd565b9350608088013591508082111561305257600080fd5b5061305f88828901612f66565b9150509295509295909350565b6000806040838503121561307f57600080fd5b823567ffffffffffffffff8082111561309757600080fd5b818501915085601f8301126130ab57600080fd5b813560206130b882612ea9565b6040516130c58282612e7c565b83815260059390931b85018201928281019150898411156130e557600080fd5b948201945b8386101561310a576130fb86612d1b565b825294820194908201906130ea565b9650508601359250508082111561312057600080fd5b5061312d85828601612ecd565b9150509250929050565b6020808252825182820181905260009190848201906040850190845b8181101561316f57835183529284019291840191600101613153565b50909695505050505050565b60008060006060848603121561319057600080fd5b833592506131a060208501612d1b565b9150604084013590509250925092565b60008060008060008060a087890312156131c957600080fd5b6131d287612d1b565b95506131e060208801612d1b565b945060408701359350606087013567ffffffffffffffff8082111561320457600080fd5b818901915089601f83011261321857600080fd5b81358181111561322757600080fd5b8a60208260051b850101111561323c57600080fd5b60208301955080945050608089013591508082111561325a57600080fd5b5061326789828a01612f66565b9150509295509295509295565b6000806040838503121561328757600080fd5b82359150602083013560ff8116811461329f57600080fd5b809150509250929050565b600080604083850312156132bd57600080fd5b823591506132cd60208401612d1b565b90509250929050565b6040815260006132e96040830185612dec565b90508260208301529392505050565b80358015158114612d3257600080fd5b6000806000806080858703121561331e57600080fd5b61332785612d1b565b935061333560208601612d1b565b925061334360408601612d1b565b9150613351606086016132f8565b905092959194509250565b6000806040838503121561336f57600080fd5b61337883612d1b565b91506132cd602084016132f8565b6000806040838503121561339957600080fd5b50508035926020909101359150565b600080604083850312156133bb57600080fd5b6133c483612d1b565b91506132cd60208401612d1b565b600080600080600060a086880312156133ea57600080fd5b6133f386612d1b565b945061340160208701612d1b565b93506040860135925060608601359150608086013567ffffffffffffffff81111561342b57600080fd5b61305f88828901612f66565b6020808252600c908201526b5a45524f5f4144445245535360a01b604082015260600190565b6020808252600f908201526e4e4f44455f4e4f545f45584953545360881b604082015260600190565b634e487b7160e01b600052603260045260246000fd5b6000808335601e198436030181126134b357600080fd5b83018035915067ffffffffffffffff8211156134ce57600080fd5b6020019150600681901b36038213156115b257600080fd5b6000604082840312156134f857600080fd5b6040516040810181811067ffffffffffffffff8211171561351b5761351b612e66565b60405261352783612d1b565b8152602083013560208201528091505092915050565b634e487b7160e01b600052601160045260246000fd5b6000600182016135655761356561353d565b5060010190565b6020808252601490820152731493d3d517d393d517d25392551250531256915160621b604082015260600190565b808201808211156107295761072961353d565b6020808252600d908201526c544f4b454e49445f52414e474560981b604082015260600190565b600083516135e6818460208801612dc8565b600160fd1b9083019081528351613604816001840160208801612dc8565b01600101949350505050565b6020808252600f908201526e1513d2d15397d393d517d3d5d39151608a1b604082015260600190565b818103818111156107295761072961353d565b634e487b7160e01b600052603160045260246000fd5b60008251613674818460208701612dc8565b9190910192915050565b60006020828403121561369057600080fd5b815167ffffffffffffffff8111156136a757600080fd5b8201601f810184136136b857600080fd5b80516136c381612f3e565b6040516136d08282612e7c565b8281528660208486010111156136e557600080fd5b6136f6836020830160208701612dc8565b9695505050505050565b80820281158282048414176107295761072961353d565b6001600160a01b03868116825285166020820152604081018490526060810183905260a06080820181905260009061254e90830184612dec565b60006020828403121561376357600080fd5b8151611fc381612d7c565b600060033d11156137875760046000803e5060005160e01c5b90565b600060443d10156137985790565b6040516003193d81016004833e81513d67ffffffffffffffff81602484011181841117156137c857505050505090565b82850191508151818111156137e05750505050505090565b843d87010160208285010111156137fa5750505050505090565b61380960208286010187612e7c565b50909594505050505056fea2646970667358221220202874eb1131facb7365d6b6514aad57eaee0633545e16acc912f46fe830b1a064736f6c63430008140033","linkReferences":{}},"methodIdentifiers":{"ESafeTransferFrom(address,address,uint256,uint256[],bytes)":"598c27bc","NFTPrice_initialized()":"4c8cb672","NFTS(uint256)":"c9b6b485","addSupportedToken(address)":"6d69fcaf","balanceOf(address,uint256)":"00fdd58e","balanceOfBatch(address[],uint256[])":"4e1273f4","changeDynamicRatio(uint256,uint8)":"83023c88","changeNFTPrice(uint256,address,uint256)":"55826313","checkInitPricesParams((address,uint256)[][6])":"1f3fd618","getChildren(address)":"6999fa45","getNFTPrice(uint256,address)":"86ff9113","getNftMintTime(uint256,address,uint256)":"aa31281c","getNodeBalance(address)":"07f241ce","getParent(address)":"a9405923","getRecommendedParent(address)":"3f257599","getRecommender(address)":"153154fd","getTotalNFTWorth(address)":"e5030adc","getUserTokenIds(address,uint256)":"b788920e","initPrice((address,uint256)[][6])":"3a4d2d3a","initRoot(address)":"92aeff48","insert(address,address,address,bool)":"9f2980db","isApprovedForAll(address,address)":"e985e9c5","isExist(address)":"0013eb4b","isSupported(address)":"4f129c53","minChildSubtreeBalance(address)":"2653335a","owner()":"8da5cb5b","ownerOf(uint256,uint256)":"d9dad80d","renounceOwnership()":"715018a6","root()":"ebf0c717","rootInitialized()":"651583ee","safeBatchTransferFrom(address,address,uint256[],uint256[],bytes)":"2eb2c2d6","safeTransferFrom(address,address,uint256,uint256,bytes)":"f242432a","setApprovalForAll(address,bool)":"a22cb465","subtreeBalance(address)":"7c8e2da7","supportedTokenAmount()":"23361283","supportsInterface(bytes4)":"01ffc9a7","tokenAddress_array(uint256)":"19d62e57","totalTreeBalance()":"a15113d1","transferOwnership(address)":"f2fde38b","uri(uint256)":"0e89341c"},"id":8}