{"abi":[{"type":"receive","stateMutability":"payable"},{"type":"function","name":"getBalance","inputs":[{"name":"token","type":"address","internalType":"contract IERC20"}],"outputs":[{"name":"","type":"uint256","internalType":"uint256"}],"stateMutability":"view"},{"type":"function","name":"owner","inputs":[],"outputs":[{"name":"","type":"address","internalType":"address"}],"stateMutability":"view"},{"type":"function","name":"renounceOwnership","inputs":[],"outputs":[],"stateMutability":"nonpayable"},{"type":"function","name":"transferOwnership","inputs":[{"name":"newOwner","type":"address","internalType":"address"}],"outputs":[],"stateMutability":"nonpayable"},{"type":"event","name":"OwnershipTransferred","inputs":[{"name":"previousOwner","type":"address","indexed":true,"internalType":"address"},{"name":"newOwner","type":"address","indexed":true,"internalType":"address"}],"anonymous":false},{"type":"event","name":"TokensReceived","inputs":[{"name":"token","type":"address","indexed":true,"internalType":"address"},{"name":"from","type":"address","indexed":true,"internalType":"address"},{"name":"amount","type":"uint256","indexed":false,"internalType":"uint256"}],"anonymous":false},{"type":"event","name":"TokensWithdrawn","inputs":[{"name":"token","type":"address","indexed":true,"internalType":"address"},{"name":"to","type":"address","indexed":true,"internalType":"address"},{"name":"amount","type":"uint256","indexed":false,"internalType":"uint256"}],"anonymous":false}],"bytecode":{"object":"0x608060405234801561001057600080fd5b5061001a33610023565b60018055610073565b600080546001600160a01b038381166001600160a01b0319831681178455604051919092169283917f8be0079c531659141344cd1fd0a4f28419497f9722a3daafe3b4186f6b6457e09190a35050565b610366806100826000396000f3fe6080604052600436106100435760003560e01c8063715018a6146100a45780638da5cb5b146100bb578063f2fde38b146100e8578063f8b2cb4f1461010857600080fd5b3661009f5760405162461bcd60e51b815260206004820152602160248201527f5468697320636f6e747261637420646f6573206e6f74206163636570742045546044820152600960fb1b60648201526084015b60405180910390fd5b600080fd5b3480156100b057600080fd5b506100b9610136565b005b3480156100c757600080fd5b506000546040516001600160a01b0390911681526020015b60405180910390f35b3480156100f457600080fd5b506100b96101033660046102f3565b61014a565b34801561011457600080fd5b506101286101233660046102f3565b6101c3565b6040519081526020016100df565b61013e610234565b610148600061028e565b565b610152610234565b6001600160a01b0381166101b75760405162461bcd60e51b815260206004820152602660248201527f4f776e61626c653a206e6577206f776e657220697320746865207a65726f206160448201526564647265737360d01b6064820152608401610096565b6101c08161028e565b50565b6040516370a0823160e01b81523060048201526000906001600160a01b038316906370a0823190602401602060405180830381865afa15801561020a573d6000803e3d6000fd5b505050506040513d601f19601f8201168201806040525081019061022e9190610317565b92915050565b6000546001600160a01b031633146101485760405162461bcd60e51b815260206004820181905260248201527f4f776e61626c653a2063616c6c6572206973206e6f7420746865206f776e65726044820152606401610096565b600080546001600160a01b038381166001600160a01b0319831681178455604051919092169283917f8be0079c531659141344cd1fd0a4f28419497f9722a3daafe3b4186f6b6457e09190a35050565b6001600160a01b03811681146101c057600080fd5b60006020828403121561030557600080fd5b8135610310816102de565b9392505050565b60006020828403121561032957600080fd5b505191905056fea264697066735822122007c6b3ceb3fb5c2e4322e03f9fabfe123e9732621df96c487a01b34a41a6982d64736f6c63430008140033","linkReferences":{}},"methodIdentifiers":{"getBalance(address)":"f8b2cb4f","owner()":"8da5cb5b","renounceOwnership()":"715018a6","transferOwnership(address)":"f2fde38b"},"id":9}