{"abi":[{"type":"constructor","inputs":[],"stateMutability":"nonpayable"},{"type":"function","name":"allowance","inputs":[{"name":"owner","type":"address","internalType":"address"},{"name":"spender","type":"address","internalType":"address"}],"outputs":[{"name":"","type":"uint256","internalType":"uint256"}],"stateMutability":"view"},{"type":"function","name":"approve","inputs":[{"name":"spender","type":"address","internalType":"address"},{"name":"amount","type":"uint256","internalType":"uint256"}],"outputs":[{"name":"","type":"bool","internalType":"bool"}],"stateMutability":"nonpayable"},{"type":"function","name":"approveAndCall","inputs":[{"name":"","type":"address","internalType":"address"},{"name":"","type":"uint256","internalType":"uint256"}],"outputs":[{"name":"","type":"bool","internalType":"bool"}],"stateMutability":"pure"},{"type":"function","name":"approveAndCall","inputs":[{"name":"","type":"address","internalType":"address"},{"name":"","type":"uint256","internalType":"uint256"},{"name":"","type":"bytes","internalType":"bytes"}],"outputs":[{"name":"","type":"bool","internalType":"bool"}],"stateMutability":"pure"},{"type":"function","name":"balanceOf","inputs":[{"name":"account","type":"address","internalType":"address"}],"outputs":[{"name":"","type":"uint256","internalType":"uint256"}],"stateMutability":"view"},{"type":"function","name":"decimals","inputs":[],"outputs":[{"name":"","type":"uint8","internalType":"uint8"}],"stateMutability":"view"},{"type":"function","name":"decreaseAllowance","inputs":[{"name":"spender","type":"address","internalType":"address"},{"name":"subtractedValue","type":"uint256","internalType":"uint256"}],"outputs":[{"name":"","type":"bool","internalType":"bool"}],"stateMutability":"nonpayable"},{"type":"function","name":"dynamicVault","inputs":[],"outputs":[{"name":"","type":"address","internalType":"contract vault"}],"stateMutability":"view"},{"type":"function","name":"increaseAllowance","inputs":[{"name":"spender","type":"address","internalType":"address"},{"name":"addedValue","type":"uint256","internalType":"uint256"}],"outputs":[{"name":"","type":"bool","internalType":"bool"}],"stateMutability":"nonpayable"},{"type":"function","name":"initialize","inputs":[{"name":"addr_3","type":"address","internalType":"address"},{"name":"addr_7","type":"address","internalType":"address"}],"outputs":[],"stateMutability":"nonpayable"},{"type":"function","name":"name","inputs":[],"outputs":[{"name":"","type":"string","internalType":"string"}],"stateMutability":"view"},{"type":"function","name":"owner","inputs":[],"outputs":[{"name":"","type":"address","internalType":"address"}],"stateMutability":"view"},{"type":"function","name":"releaseDailyTokens","inputs":[],"outputs":[],"stateMutability":"nonpayable"},{"type":"function","name":"renounceOwnership","inputs":[],"outputs":[],"stateMutability":"nonpayable"},{"type":"function","name":"staticVault","inputs":[],"outputs":[{"name":"","type":"address","internalType":"contract vault"}],"stateMutability":"view"},{"type":"function","name":"supportsInterface","inputs":[{"name":"interfaceId","type":"bytes4","internalType":"bytes4"}],"outputs":[{"name":"","type":"bool","internalType":"bool"}],"stateMutability":"view"},{"type":"function","name":"symbol","inputs":[],"outputs":[{"name":"","type":"string","internalType":"string"}],"stateMutability":"view"},{"type":"function","name":"totalSupply","inputs":[],"outputs":[{"name":"","type":"uint256","internalType":"uint256"}],"stateMutability":"view"},{"type":"function","name":"transfer","inputs":[{"name":"to","type":"address","internalType":"address"},{"name":"amount","type":"uint256","internalType":"uint256"}],"outputs":[{"name":"","type":"bool","internalType":"bool"}],"stateMutability":"nonpayable"},{"type":"function","name":"transferAndCall","inputs":[{"name":"","type":"address","internalType":"address"},{"name":"","type":"uint256","internalType":"uint256"}],"outputs":[{"name":"","type":"bool","internalType":"bool"}],"stateMutability":"pure"},{"type":"function","name":"transferAndCall","inputs":[{"name":"to","type":"address","internalType":"address"},{"name":"value","type":"uint256","internalType":"uint256"},{"name":"data","type":"bytes","internalType":"bytes"}],"outputs":[{"name":"","type":"bool","internalType":"bool"}],"stateMutability":"nonpayable"},{"type":"function","name":"transferFrom","inputs":[{"name":"from","type":"address","internalType":"address"},{"name":"to","type":"address","internalType":"address"},{"name":"amount","type":"uint256","internalType":"uint256"}],"outputs":[{"name":"","type":"bool","internalType":"bool"}],"stateMutability":"nonpayable"},{"type":"function","name":"transferFromAndCall","inputs":[{"name":"","type":"address","internalType":"address"},{"name":"","type":"address","internalType":"address"},{"name":"","type":"uint256","internalType":"uint256"},{"name":"","type":"bytes","internalType":"bytes"}],"outputs":[{"name":"","type":"bool","internalType":"bool"}],"stateMutability":"pure"},{"type":"function","name":"transferFromAndCall","inputs":[{"name":"","type":"address","internalType":"address"},{"name":"","type":"address","internalType":"address"},{"name":"","type":"uint256","internalType":"uint256"}],"outputs":[{"name":"","type":"bool","internalType":"bool"}],"stateMutability":"pure"},{"type":"function","name":"transferOwnership","inputs":[{"name":"newOwner","type":"address","internalType":"address"}],"outputs":[],"stateMutability":"nonpayable"},{"type":"function","name":"withdrawFromDynamicVault","inputs":[{"name":"to","type":"address","internalType":"address"},{"name":"dynamicAmount","type":"uint256","internalType":"uint256"}],"outputs":[],"stateMutability":"nonpayable"},{"type":"function","name":"withdrawFromStaticVault","inputs":[{"name":"to","type":"address","internalType":"address"},{"name":"staticAmount","type":"uint256","internalType":"uint256"}],"outputs":[],"stateMutability":"nonpayable"},{"type":"event","name":"Approval","inputs":[{"name":"owner","type":"address","indexed":true,"internalType":"address"},{"name":"spender","type":"address","indexed":true,"internalType":"address"},{"name":"value","type":"uint256","indexed":false,"internalType":"uint256"}],"anonymous":false},{"type":"event","name":"OwnershipTransferred","inputs":[{"name":"previousOwner","type":"address","indexed":true,"internalType":"address"},{"name":"newOwner","type":"address","indexed":true,"internalType":"address"}],"anonymous":false},{"type":"event","name":"TokensReceived","inputs":[{"name":"token","type":"address","indexed":true,"internalType":"address"},{"name":"from","type":"address","indexed":true,"internalType":"address"},{"name":"to","type":"address","indexed":true,"internalType":"address"},{"name":"amount","type":"uint256","indexed":false,"internalType":"uint256"}],"anonymous":false},{"type":"event","name":"TokensWithdrawn","inputs":[{"name":"token","type":"address","indexed":true,"internalType":"address"},{"name":"from","type":"address","indexed":true,"internalType":"address"},{"name":"to","type":"address","indexed":true,"internalType":"address"},{"name":"amount","type":"uint256","indexed":false,"internalType":"uint256"}],"anonymous":false},{"type":"event","name":"Transfer","inputs":[{"name":"from","type":"address","indexed":true,"internalType":"address"},{"name":"to","type":"address","indexed":true,"internalType":"address"},{"name":"value","type":"uint256","indexed":false,"internalType":"uint256"}],"anonymous":false}],"bytecode":{"object":"0x60806040523480156200001157600080fd5b506200001d3362000113565b6040516200002b9062000291565b604051809103906000f08015801562000048573d6000803e3d6000fd5b50600780546001600160a01b0319166001600160a01b0392909216919091179055604051620000779062000291565b604051809103906000f08015801562000094573d6000803e3d6000fd5b50600880546001600160a01b0319166001600160a01b03928316179055600754620000db9116620000cd6006546001600160a01b031690565b6606a692f705000062000165565b6008546200010d906001600160a01b0316620000ff6006546001600160a01b031690565b6609f9dc7287800062000165565b6200029f565b600680546001600160a01b038381166001600160a01b0319831681179093556040519116919082907f8be0079c531659141344cd1fd0a4f28419497f9722a3daafe3b4186f6b6457e090600090a35050565b6001600160a01b038316620001cd5760405162461bcd60e51b8152602060048201526024808201527f45524332303a20617070726f76652066726f6d20746865207a65726f206164646044820152637265737360e01b60648201526084015b60405180910390fd5b6001600160a01b038216620002305760405162461bcd60e51b815260206004820152602260248201527f45524332303a20617070726f766520746f20746865207a65726f206164647265604482015261737360f01b6064820152608401620001c4565b6001600160a01b0383811660008181526002602090815260408083209487168084529482529182902085905590518481527f8c5be1e5ebec7d5bd14f71427d1e84f3dd0314c0f7b2291e5b200ac8c7c3b925910160405180910390a3505050565b6103e880620019ed83390190565b61173e80620002af6000396000f3fe608060405234801561001057600080fd5b50600436106101a95760003560e01c8063715018a6116100f9578063c1d34b8911610097578063d215ae6911610071578063d215ae6914610365578063d8fbe99414610378578063dd62ed3e14610386578063f2fde38b1461039957600080fd5b8063c1d34b8914610336578063c92df35714610344578063cae9ca511461035757600080fd5b8063916c9a8f116100d3578063916c9a8f1461030057806395d89b4114610308578063a457c2d714610310578063a9059cbb1461032357600080fd5b8063715018a6146102d457806385a38799146102dc5780638da5cb5b146102ef57600080fd5b8063313ce567116101665780634000aea0116101405780634000aea01461025857806344df5a401461026b578063485cc9551461029657806370a08231146102ab57600080fd5b8063313ce567146102365780633177029f146101fe578063395093511461024557600080fd5b806301ffc9a7146101ae57806306fdde03146101d6578063095ea7b3146101eb5780631296ee62146101fe57806318160ddd1461021157806323b872dd14610223575b600080fd5b6101c16101bc3660046111cf565b6103ac565b60405190151581526020015b60405180910390f35b6101de6103d7565b6040516101cd9190611239565b6101c16101f9366004611268565b610469565b6101c161020c366004611268565b610481565b6003545b6040519081526020016101cd565b6101c1610231366004611292565b6104c3565b604051600981526020016101cd565b6101c1610253366004611268565b6104e7565b6101c1610266366004611371565b610509565b60085461027e906001600160a01b031681565b6040516001600160a01b0390911681526020016101cd565b6102a96102a43660046113c8565b6105bf565b005b6102156102b93660046113fb565b6001600160a01b031660009081526001602052604090205490565b6102a96107a0565b6102a96102ea366004611268565b6107b4565b6006546001600160a01b031661027e565b6102a961083f565b6101de610919565b6101c161031e366004611268565b610928565b6101c1610331366004611268565b6109a3565b6101c161020c366004611416565b6102a9610352366004611268565b6109b1565b6101c161020c366004611371565b60075461027e906001600160a01b031681565b6101c161020c366004611292565b6102156103943660046113c8565b610a34565b6102a96103a73660046113fb565b610a5f565b60006001600160e01b0319821663b0202a1160e01b14806103d157506103d182610ad8565b92915050565b6060600480546103e69061147e565b80601f01602080910402602001604051908101604052809291908181526020018280546104129061147e565b801561045f5780601f106104345761010080835404028352916020019161045f565b820191906000526020600020905b81548152906001019060200180831161044257829003601f168201915b5050505050905090565b600033610477818585610b28565b5060019392505050565b60405162461bcd60e51b815260206004820152600f60248201526e1393d517d253541311535153951151608a1b60448201526000906064015b60405180910390fd5b6000336104d1858285610c4c565b6104dc858585610cc6565b506001949350505050565b6000336104778185856104fa8383610a34565b61050491906114b8565b610b28565b6000815160401461055c5760405162461bcd60e51b815260206004820152601c60248201527f455243313336333a20696e76616c6964206461746120666f726d61740000000060448201526064016104ba565b61056684846109a3565b6105b25760405162461bcd60e51b815260206004820152601860248201527f455243313336333a207472616e73666572206661696c6564000000000000000060448201526064016104ba565b6104773333868686610e71565b600054610100900460ff166105da5760005460ff16156105de565b303b155b6106415760405162461bcd60e51b815260206004820152602e60248201527f496e697469616c697a61626c653a20636f6e747261637420697320616c72656160448201526d191e481a5b9a5d1a585b1a5e995960921b60648201526084016104ba565b600054610100900460ff16158015610663576000805461ffff19166101011790555b61066b610fd7565b6001600160a01b0383166106c15760405162461bcd60e51b815260206004820152601f60248201527f5443463a20616464725f3320697320746865207a65726f20616464726573730060448201526064016104ba565b6001600160a01b0382166107175760405162461bcd60e51b815260206004820152601f60248201527f5443463a20616464725f3720697320746865207a65726f20616464726573730060448201526064016104ba565b610757604051806040016040528060038152602001622221a360e91b815250604051806040016040528060038152602001622221a360e91b815250611031565b610768306610a06f698c8000611066565b61077883658de19495c000611066565b6107898266014b0e5ab2c000611066565b801561079b576000805461ff00191690555b505050565b6107a8610fd7565b6107b26000611127565b565b6107bc610fd7565b600081116107dc5760405162461bcd60e51b81526004016104ba906114d9565b6007546107f3906001600160a01b031683836104c3565b506007546040518281526001600160a01b0384811692169030907fedf7bea45e16025d7f82902171a24376f5f3a2c06d9d8c2be4d41bbc7292f74a906020015b60405180910390a45050565b610847610fd7565b6007546108649030906001600160a01b03166409502f9000610cc6565b6007546040516409502f900081526001600160a01b0390911690309081907f5164f10f87fd87cf5c46c62431dcc841456159c4b0a3cdef38cbe4ef6ea602fb9060200160405180910390a46008546108cc9030906001600160a01b0316640df8475800610cc6565b600854604051640df847580081526001600160a01b0390911690309081907f5164f10f87fd87cf5c46c62431dcc841456159c4b0a3cdef38cbe4ef6ea602fb9060200160405180910390a4565b6060600580546103e69061147e565b600033816109368286610a34565b9050838110156109965760405162461bcd60e51b815260206004820152602560248201527f45524332303a2064656372656173656420616c6c6f77616e63652062656c6f77604482015264207a65726f60d81b60648201526084016104ba565b6104dc8286868403610b28565b600033610477818585610cc6565b6109b9610fd7565b600081116109d95760405162461bcd60e51b81526004016104ba906114d9565b6008546109f0906001600160a01b031683836104c3565b506008546040518281526001600160a01b0384811692169030907fedf7bea45e16025d7f82902171a24376f5f3a2c06d9d8c2be4d41bbc7292f74a90602001610833565b6001600160a01b03918216600090815260026020908152604080832093909416825291909152205490565b610a67610fd7565b6001600160a01b038116610acc5760405162461bcd60e51b815260206004820152602660248201527f4f776e61626c653a206e6577206f776e657220697320746865207a65726f206160448201526564647265737360d01b60648201526084016104ba565b610ad581611127565b50565b60006001600160e01b031982166336372b0760e01b1480610b0957506001600160e01b0319821663a219a02560e01b145b806103d157506301ffc9a760e01b6001600160e01b03198316146103d1565b6001600160a01b038316610b8a5760405162461bcd60e51b8152602060048201526024808201527f45524332303a20617070726f76652066726f6d20746865207a65726f206164646044820152637265737360e01b60648201526084016104ba565b6001600160a01b038216610beb5760405162461bcd60e51b815260206004820152602260248201527f45524332303a20617070726f766520746f20746865207a65726f206164647265604482015261737360f01b60648201526084016104ba565b6001600160a01b0383811660008181526002602090815260408083209487168084529482529182902085905590518481527f8c5be1e5ebec7d5bd14f71427d1e84f3dd0314c0f7b2291e5b200ac8c7c3b925910160405180910390a3505050565b6000610c588484610a34565b90506000198114610cc05781811015610cb35760405162461bcd60e51b815260206004820152601d60248201527f45524332303a20696e73756666696369656e7420616c6c6f77616e636500000060448201526064016104ba565b610cc08484848403610b28565b50505050565b6001600160a01b038316610d2a5760405162461bcd60e51b815260206004820152602560248201527f45524332303a207472616e736665722066726f6d20746865207a65726f206164604482015264647265737360d81b60648201526084016104ba565b6001600160a01b038216610d8c5760405162461bcd60e51b815260206004820152602360248201527f45524332303a207472616e7366657220746f20746865207a65726f206164647260448201526265737360e81b60648201526084016104ba565b6001600160a01b03831660009081526001602052604090205481811015610e045760405162461bcd60e51b815260206004820152602660248201527f45524332303a207472616e7366657220616d6f756e7420657863656564732062604482015265616c616e636560d01b60648201526084016104ba565b6001600160a01b0380851660008181526001602052604080822086860390559286168082529083902080548601905591517fddf252ad1be2c89b69c2b068fc378daa952ba7f163c4a11628f55a4df523b3ef90610e649086815260200190565b60405180910390a3610cc0565b826001600160a01b03163b600003610ed55760405162461bcd60e51b815260206004820152602160248201527f455243313336333a207472616e7366657220746f206e6f6e2d636f6e747261636044820152601d60fa1b60648201526084016104ba565b604051632229f29760e21b81526001600160a01b038416906388a7ca5c90610f0790889088908790879060040161151b565b6020604051808303816000875af1925050508015610f42575060408051601f3d908101601f19168201909252610f3f91810190611558565b60015b610f9f573d808015610f70576040519150601f19603f3d011682016040523d82523d6000602084013e610f75565b606091505b508051600003610f975760405162461bcd60e51b81526004016104ba90611575565b805160208201fd5b6001600160e01b03198116632229f29760e21b14610fcf5760405162461bcd60e51b81526004016104ba90611575565b505050505050565b6006546001600160a01b031633146107b25760405162461bcd60e51b815260206004820181905260248201527f4f776e61626c653a2063616c6c6572206973206e6f7420746865206f776e657260448201526064016104ba565b600054610100900460ff166110585760405162461bcd60e51b81526004016104ba906115b7565b6110628282611179565b5050565b6001600160a01b0382166110bc5760405162461bcd60e51b815260206004820152601f60248201527f45524332303a206d696e7420746f20746865207a65726f20616464726573730060448201526064016104ba565b80600360008282546110ce91906114b8565b90915550506001600160a01b0382166000818152600160209081526040808320805486019055518481527fddf252ad1be2c89b69c2b068fc378daa952ba7f163c4a11628f55a4df523b3ef910160405180910390a35050565b600680546001600160a01b038381166001600160a01b0319831681179093556040519116919082907f8be0079c531659141344cd1fd0a4f28419497f9722a3daafe3b4186f6b6457e090600090a35050565b600054610100900460ff166111a05760405162461bcd60e51b81526004016104ba906115b7565b60046111ac8382611648565b50600561079b8282611648565b6001600160e01b031981168114610ad557600080fd5b6000602082840312156111e157600080fd5b81356111ec816111b9565b9392505050565b6000815180845260005b81811015611219576020818501810151868301820152016111fd565b506000602082860101526020601f19601f83011685010191505092915050565b6020815260006111ec60208301846111f3565b80356001600160a01b038116811461126357600080fd5b919050565b6000806040838503121561127b57600080fd5b6112848361124c565b946020939093013593505050565b6000806000606084860312156112a757600080fd5b6112b08461124c565b92506112be6020850161124c565b9150604084013590509250925092565b634e487b7160e01b600052604160045260246000fd5b600082601f8301126112f557600080fd5b813567ffffffffffffffff80821115611310576113106112ce565b604051601f8301601f19908116603f01168101908282118183101715611338576113386112ce565b8160405283815286602085880101111561135157600080fd5b836020870160208301376000602085830101528094505050505092915050565b60008060006060848603121561138657600080fd5b61138f8461124c565b925060208401359150604084013567ffffffffffffffff8111156113b257600080fd5b6113be868287016112e4565b9150509250925092565b600080604083850312156113db57600080fd5b6113e48361124c565b91506113f26020840161124c565b90509250929050565b60006020828403121561140d57600080fd5b6111ec8261124c565b6000806000806080858703121561142c57600080fd5b6114358561124c565b93506114436020860161124c565b925060408501359150606085013567ffffffffffffffff81111561146657600080fd5b611472878288016112e4565b91505092959194509250565b600181811c9082168061149257607f821691505b6020821081036114b257634e487b7160e01b600052602260045260246000fd5b50919050565b808201808211156103d157634e487b7160e01b600052601160045260246000fd5b60208082526022908201527f5443463a20416d6f756e74206d7573742062652067726561746572207468616e604082015261020360f41b606082015260800190565b6001600160a01b038581168252841660208201526040810183905260806060820181905260009061154e908301846111f3565b9695505050505050565b60006020828403121561156a57600080fd5b81516111ec816111b9565b60208082526022908201527f455243313336333a20746f206973206120696e636f7272656374206164647265604082015261737360f01b606082015260800190565b6020808252602b908201527f496e697469616c697a61626c653a20636f6e7472616374206973206e6f74206960408201526a6e697469616c697a696e6760a81b606082015260800190565b601f82111561079b57600081815260208120601f850160051c810160208610156116295750805b601f850160051c820191505b81811015610fcf57828155600101611635565b815167ffffffffffffffff811115611662576116626112ce565b61167681611670845461147e565b84611602565b602080601f8311600181146116ab57600084156116935750858301515b600019600386901b1c1916600185901b178555610fcf565b600085815260208120601f198616915b828110156116da578886015182559484019460019091019084016116bb565b50858210156116f85787850151600019600388901b60f8161c191681555b5050505050600190811b0190555056fea2646970667358221220220ef49bb201a85de0339691c5acc24cce57625724d65241f2a3b46f8bebaec264736f6c63430008140033608060405234801561001057600080fd5b5061001a33610023565b60018055610073565b600080546001600160a01b038381166001600160a01b0319831681178455604051919092169283917f8be0079c531659141344cd1fd0a4f28419497f9722a3daafe3b4186f6b6457e09190a35050565b610366806100826000396000f3fe6080604052600436106100435760003560e01c8063715018a6146100a45780638da5cb5b146100bb578063f2fde38b146100e8578063f8b2cb4f1461010857600080fd5b3661009f5760405162461bcd60e51b815260206004820152602160248201527f5468697320636f6e747261637420646f6573206e6f74206163636570742045546044820152600960fb1b60648201526084015b60405180910390fd5b600080fd5b3480156100b057600080fd5b506100b9610136565b005b3480156100c757600080fd5b506000546040516001600160a01b0390911681526020015b60405180910390f35b3480156100f457600080fd5b506100b96101033660046102f3565b61014a565b34801561011457600080fd5b506101286101233660046102f3565b6101c3565b6040519081526020016100df565b61013e610234565b610148600061028e565b565b610152610234565b6001600160a01b0381166101b75760405162461bcd60e51b815260206004820152602660248201527f4f776e61626c653a206e6577206f776e657220697320746865207a65726f206160448201526564647265737360d01b6064820152608401610096565b6101c08161028e565b50565b6040516370a0823160e01b81523060048201526000906001600160a01b038316906370a0823190602401602060405180830381865afa15801561020a573d6000803e3d6000fd5b505050506040513d601f19601f8201168201806040525081019061022e9190610317565b92915050565b6000546001600160a01b031633146101485760405162461bcd60e51b815260206004820181905260248201527f4f776e61626c653a2063616c6c6572206973206e6f7420746865206f776e65726044820152606401610096565b600080546001600160a01b038381166001600160a01b0319831681178455604051919092169283917f8be0079c531659141344cd1fd0a4f28419497f9722a3daafe3b4186f6b6457e09190a35050565b6001600160a01b03811681146101c057600080fd5b60006020828403121561030557600080fd5b8135610310816102de565b9392505050565b60006020828403121561032957600080fd5b505191905056fea264697066735822122007c6b3ceb3fb5c2e4322e03f9fabfe123e9732621df96c487a01b34a41a6982d64736f6c63430008140033","linkReferences":{}},"methodIdentifiers":{"allowance(address,address)":"dd62ed3e","approve(address,uint256)":"095ea7b3","approveAndCall(address,uint256)":"3177029f","approveAndCall(address,uint256,bytes)":"cae9ca51","balanceOf(address)":"70a08231","decimals()":"313ce567","decreaseAllowance(address,uint256)":"a457c2d7","dynamicVault()":"44df5a40","increaseAllowance(address,uint256)":"39509351","initialize(address,address)":"485cc955","name()":"06fdde03","owner()":"8da5cb5b","releaseDailyTokens()":"916c9a8f","renounceOwnership()":"715018a6","staticVault()":"d215ae69","supportsInterface(bytes4)":"01ffc9a7","symbol()":"95d89b41","totalSupply()":"18160ddd","transfer(address,uint256)":"a9059cbb","transferAndCall(address,uint256)":"1296ee62","transferAndCall(address,uint256,bytes)":"4000aea0","transferFrom(address,address,uint256)":"23b872dd","transferFromAndCall(address,address,uint256)":"d8fbe994","transferFromAndCall(address,address,uint256,bytes)":"c1d34b89","transferOwnership(address)":"f2fde38b","withdrawFromDynamicVault(address,uint256)":"c92df357","withdrawFromStaticVault(address,uint256)":"85a38799"},"id":1}