{
  "address": "0x5fbdb2315678afecb367f032d93f642f64180aa3",
  "abi": [
    {
      "anonymous": false,
      "inputs": [
        {
          "indexed": true,
          "internalType": "address",
          "name": "owner",
          "type": "address"
        },
        {
          "indexed": true,
          "internalType": "address",
          "name": "approved",
          "type": "address"
        },
        {
          "indexed": true,
          "internalType": "uint256",
          "name": "tokenId",
          "type": "uint256"
        }
      ],
      "name": "Approval",
      "type": "event"
    },
    {
      "anonymous": false,
      "inputs": [
        {
          "indexed": true,
          "internalType": "address",
          "name": "owner",
          "type": "address"
        },
        {
          "indexed": true,
          "internalType": "address",
          "name": "operator",
          "type": "address"
        },
        {
          "indexed": false,
          "internalType": "bool",
          "name": "approved",
          "type": "bool"
        }
      ],
      "name": "ApprovalForAll",
      "type": "event"
    },
    {
      "anonymous": false,
      "inputs": [
        {
          "indexed": false,
          "internalType": "uint256",
          "name": "_fromTokenId",
          "type": "uint256"
        },
        {
          "indexed": false,
          "internalType": "uint256",
          "name": "_toTokenId",
          "type": "uint256"
        }
      ],
      "name": "BatchMetadataUpdate",
      "type": "event"
    },
    {
      "anonymous": false,
      "inputs": [
        {
          "indexed": false,
          "internalType": "uint256",
          "name": "_tokenId",
          "type": "uint256"
        }
      ],
      "name": "MetadataUpdate",
      "type": "event"
    },
    {
      "anonymous": false,
      "inputs": [
        {
          "indexed": true,
          "internalType": "address",
          "name": "previousOwner",
          "type": "address"
        },
        {
          "indexed": true,
          "internalType": "address",
          "name": "newOwner",
          "type": "address"
        }
      ],
      "name": "OwnershipTransferred",
      "type": "event"
    },
    {
      "anonymous": false,
      "inputs": [
        {
          "indexed": false,
          "internalType": "address",
          "name": "account",
          "type": "address"
        }
      ],
      "name": "Paused",
      "type": "event"
    },
    {
      "anonymous": false,
      "inputs": [
        {
          "indexed": true,
          "internalType": "address",
          "name": "from",
          "type": "address"
        },
        {
          "indexed": true,
          "internalType": "address",
          "name": "to",
          "type": "address"
        },
        {
          "indexed": true,
          "internalType": "uint256",
          "name": "tokenId",
          "type": "uint256"
        }
      ],
      "name": "Transfer",
      "type": "event"
    },
    {
      "anonymous": false,
      "inputs": [
        {
          "indexed": false,
          "internalType": "address",
          "name": "account",
          "type": "address"
        }
      ],
      "name": "Unpaused",
      "type": "event"
    },
    {
      "inputs": [
        {
          "internalType": "address",
          "name": "to",
          "type": "address"
        },
        {
          "internalType": "uint256",
          "name": "tokenId",
          "type": "uint256"
        }
      ],
      "name": "approve",
      "outputs": [],
      "stateMutability": "nonpayable",
      "type": "function"
    },
    {
      "inputs": [
        {
          "internalType": "address",
          "name": "owner",
          "type": "address"
        }
      ],
      "name": "balanceOf",
      "outputs": [
        {
          "internalType": "uint256",
          "name": "",
          "type": "uint256"
        }
      ],
      "stateMutability": "view",
      "type": "function"
    },
    {
      "inputs": [
        {
          "internalType": "uint256",
          "name": "tokenId",
          "type": "uint256"
        }
      ],
      "name": "burn",
      "outputs": [],
      "stateMutability": "nonpayable",
      "type": "function"
    },
    {
      "inputs": [
        {
          "internalType": "uint256",
          "name": "tokenId",
          "type": "uint256"
        }
      ],
      "name": "getApproved",
      "outputs": [
        {
          "internalType": "address",
          "name": "",
          "type": "address"
        }
      ],
      "stateMutability": "view",
      "type": "function"
    },
    {
      "inputs": [
        {
          "internalType": "uint256",
          "name": "pageIndex",
          "type": "uint256"
        },
        {
          "internalType": "uint256",
          "name": "batchSize",
          "type": "uint256"
        },
        {
          "internalType": "address",
          "name": "owner",
          "type": "address"
        }
      ],
      "name": "getBatchURI",
      "outputs": [
        {
          "components": [
            {
              "internalType": "uint8",
              "name": "code",
              "type": "uint8"
            },
            {
              "internalType": "string",
              "name": "message",
              "type": "string"
            },
            {
              "components": [
                {
                  "internalType": "uint256",
                  "name": "id",
                  "type": "uint256"
                },
                {
                  "internalType": "string",
                  "name": "uri",
                  "type": "string"
                },
                {
                  "internalType": "address",
                  "name": "contractAddress",
                  "type": "address"
                },
                {
                  "internalType": "string",
                  "name": "tokenStandard",
                  "type": "string"
                }
              ],
              "internalType": "struct batchURIAndId.NFT[]",
              "name": "NFTs",
              "type": "tuple[]"
            },
            {
              "components": [
                {
                  "internalType": "uint256",
                  "name": "last_page",
                  "type": "uint256"
                },
                {
                  "internalType": "uint256",
                  "name": "current_page",
                  "type": "uint256"
                },
                {
                  "internalType": "uint256",
                  "name": "pre_page",
                  "type": "uint256"
                },
                {
                  "internalType": "uint256",
                  "name": "next_page",
                  "type": "uint256"
                }
              ],
              "internalType": "struct batchURIAndId.PageConfig",
              "name": "page_config",
              "type": "tuple"
            }
          ],
          "internalType": "struct batchURIAndId.response",
          "name": "",
          "type": "tuple"
        }
      ],
      "stateMutability": "view",
      "type": "function"
    },
    {
      "inputs": [
        {
          "internalType": "bytes",
          "name": "_tokenName",
          "type": "bytes"
        },
        {
          "internalType": "bytes",
          "name": "_tokenSymbol",
          "type": "bytes"
        },
        {
          "internalType": "bytes",
          "name": "_baseURIInit",
          "type": "bytes"
        }
      ],
      "name": "initialize",
      "outputs": [],
      "stateMutability": "nonpayable",
      "type": "function"
    },
    {
      "inputs": [
        {
          "internalType": "address",
          "name": "owner",
          "type": "address"
        },
        {
          "internalType": "address",
          "name": "operator",
          "type": "address"
        }
      ],
      "name": "isApprovedForAll",
      "outputs": [
        {
          "internalType": "bool",
          "name": "",
          "type": "bool"
        }
      ],
      "stateMutability": "view",
      "type": "function"
    },
    {
      "inputs": [],
      "name": "name",
      "outputs": [
        {
          "internalType": "string",
          "name": "",
          "type": "string"
        }
      ],
      "stateMutability": "view",
      "type": "function"
    },
    {
      "inputs": [],
      "name": "owner",
      "outputs": [
        {
          "internalType": "address",
          "name": "",
          "type": "address"
        }
      ],
      "stateMutability": "view",
      "type": "function"
    },
    {
      "inputs": [
        {
          "internalType": "uint256",
          "name": "tokenId",
          "type": "uint256"
        }
      ],
      "name": "ownerOf",
      "outputs": [
        {
          "internalType": "address",
          "name": "",
          "type": "address"
        }
      ],
      "stateMutability": "view",
      "type": "function"
    },
    {
      "inputs": [],
      "name": "pause",
      "outputs": [],
      "stateMutability": "nonpayable",
      "type": "function"
    },
    {
      "inputs": [],
      "name": "paused",
      "outputs": [
        {
          "internalType": "bool",
          "name": "",
          "type": "bool"
        }
      ],
      "stateMutability": "view",
      "type": "function"
    },
    {
      "inputs": [],
      "name": "renounceOwnership",
      "outputs": [],
      "stateMutability": "nonpayable",
      "type": "function"
    },
    {
      "inputs": [
        {
          "internalType": "address",
          "name": "to",
          "type": "address"
        },
        {
          "internalType": "bytes",
          "name": "uri",
          "type": "bytes"
        }
      ],
      "name": "safeMint",
      "outputs": [
        {
          "internalType": "uint256",
          "name": "",
          "type": "uint256"
        }
      ],
      "stateMutability": "nonpayable",
      "type": "function"
    },
    {
      "inputs": [
        {
          "internalType": "address",
          "name": "from",
          "type": "address"
        },
        {
          "internalType": "address",
          "name": "to",
          "type": "address"
        },
        {
          "internalType": "uint256",
          "name": "tokenId",
          "type": "uint256"
        }
      ],
      "name": "safeTransferFrom",
      "outputs": [],
      "stateMutability": "nonpayable",
      "type": "function"
    },
    {
      "inputs": [
        {
          "internalType": "address",
          "name": "from",
          "type": "address"
        },
        {
          "internalType": "address",
          "name": "to",
          "type": "address"
        },
        {
          "internalType": "uint256",
          "name": "tokenId",
          "type": "uint256"
        },
        {
          "internalType": "bytes",
          "name": "data",
          "type": "bytes"
        }
      ],
      "name": "safeTransferFrom",
      "outputs": [],
      "stateMutability": "nonpayable",
      "type": "function"
    },
    {
      "inputs": [
        {
          "internalType": "address",
          "name": "operator",
          "type": "address"
        },
        {
          "internalType": "bool",
          "name": "approved",
          "type": "bool"
        }
      ],
      "name": "setApprovalForAll",
      "outputs": [],
      "stateMutability": "nonpayable",
      "type": "function"
    },
    {
      "inputs": [
        {
          "internalType": "bytes4",
          "name": "interfaceId",
          "type": "bytes4"
        }
      ],
      "name": "supportsInterface",
      "outputs": [
        {
          "internalType": "bool",
          "name": "",
          "type": "bool"
        }
      ],
      "stateMutability": "view",
      "type": "function"
    },
    {
      "inputs": [],
      "name": "symbol",
      "outputs": [
        {
          "internalType": "string",
          "name": "",
          "type": "string"
        }
      ],
      "stateMutability": "view",
      "type": "function"
    },
    {
      "inputs": [
        {
          "internalType": "uint256",
          "name": "index",
          "type": "uint256"
        }
      ],
      "name": "tokenByIndex",
      "outputs": [
        {
          "internalType": "uint256",
          "name": "",
          "type": "uint256"
        }
      ],
      "stateMutability": "view",
      "type": "function"
    },
    {
      "inputs": [
        {
          "internalType": "address",
          "name": "owner",
          "type": "address"
        },
        {
          "internalType": "uint256",
          "name": "index",
          "type": "uint256"
        }
      ],
      "name": "tokenOfOwnerByIndex",
      "outputs": [
        {
          "internalType": "uint256",
          "name": "",
          "type": "uint256"
        }
      ],
      "stateMutability": "view",
      "type": "function"
    },
    {
      "inputs": [
        {
          "internalType": "uint256",
          "name": "tokenId",
          "type": "uint256"
        }
      ],
      "name": "tokenURI",
      "outputs": [
        {
          "internalType": "string",
          "name": "",
          "type": "string"
        }
      ],
      "stateMutability": "view",
      "type": "function"
    },
    {
      "inputs": [],
      "name": "totalSupply",
      "outputs": [
        {
          "internalType": "uint256",
          "name": "",
          "type": "uint256"
        }
      ],
      "stateMutability": "view",
      "type": "function"
    },
    {
      "inputs": [
        {
          "internalType": "address",
          "name": "from",
          "type": "address"
        },
        {
          "internalType": "address",
          "name": "to",
          "type": "address"
        },
        {
          "internalType": "uint256",
          "name": "tokenId",
          "type": "uint256"
        }
      ],
      "name": "transferFrom",
      "outputs": [],
      "stateMutability": "nonpayable",
      "type": "function"
    },
    {
      "inputs": [
        {
          "internalType": "address",
          "name": "newOwner",
          "type": "address"
        }
      ],
      "name": "transferOwnership",
      "outputs": [],
      "stateMutability": "nonpayable",
      "type": "function"
    },
    {
      "inputs": [],
      "name": "unpause",
      "outputs": [],
      "stateMutability": "nonpayable",
      "type": "function"
    }
  ],
  "contractName": "batchURIAndId",
  "sourceName": "contracts/voidChain/batchURI.sol",
  "bytecode": "0x60806040523480156200001157600080fd5b5062000032620000266200005360201b60201c565b6200005b60201b60201c565b6000600760006101000a81548160ff02191690831515021790555062000120565b600033905090565b60008060029054906101000a900473ffffffffffffffffffffffffffffffffffffffff16905081600060026101000a81548173ffffffffffffffffffffffffffffffffffffffff021916908373ffffffffffffffffffffffffffffffffffffffff1602179055508173ffffffffffffffffffffffffffffffffffffffff168173ffffffffffffffffffffffffffffffffffffffff167f8be0079c531659141344cd1fd0a4f28419497f9722a3daafe3b4186f6b6457e060405160405180910390a35050565b61583880620001306000396000f3fe608060405234801561001057600080fd5b506004361061018e5760003560e01c80636352211e116100de57806395d89b4111610097578063bf2add2f11610071578063bf2add2f1461045b578063c87b56dd1461048b578063e985e9c5146104bb578063f2fde38b146104eb5761018e565b806395d89b4114610405578063a22cb46514610423578063b88d4fde1461043f5761018e565b80636352211e1461034357806370a0823114610373578063715018a6146103a3578063785bb03e146103ad5780638456cb59146103dd5780638da5cb5b146103e75761018e565b80632f745c591161014b57806342966c681161012557806342966c68146102bd5780634f6ccce7146102d95780635411b209146103095780635c975abb146103255761018e565b80632f745c59146102675780633f4ba83a1461029757806342842e0e146102a15761018e565b806301ffc9a71461019357806306fdde03146101c3578063081812fc146101e1578063095ea7b31461021157806318160ddd1461022d57806323b872dd1461024b575b600080fd5b6101ad60048036038101906101a89190613efe565b610507565b6040516101ba9190614819565b60405180910390f35b6101cb610519565b6040516101d89190614834565b60405180910390f35b6101fb60048036038101906101f69190613ff4565b6105ab565b60405161020891906147b2565b60405180910390f35b61022b60048036038101906102269190613ec2565b6105f1565b005b610235610709565b6040516102429190614b38565b60405180910390f35b61026560048036038101906102609190613d68565b610716565b005b610281600480360381019061027c9190613ec2565b610776565b60405161028e9190614b38565b60405180910390f35b61029f61081b565b005b6102bb60048036038101906102b69190613d68565b61082d565b005b6102d760048036038101906102d29190613ff4565b61084d565b005b6102f360048036038101906102ee9190613ff4565b610859565b6040516103009190614b38565b60405180910390f35b610323600480360381019061031e9190613f50565b6108f0565b005b61032d610a86565b60405161033a9190614819565b60405180910390f35b61035d60048036038101906103589190613ff4565b610a9d565b60405161036a91906147b2565b60405180910390f35b61038d60048036038101906103889190613d03565b610b24565b60405161039a9190614b38565b60405180910390f35b6103ab610bdc565b005b6103c760048036038101906103c29190613e6e565b610bf0565b6040516103d49190614b38565b60405180910390f35b6103e5610c33565b005b6103ef610c45565b6040516103fc91906147b2565b60405180910390f35b61040d610c6e565b60405161041a9190614834565b60405180910390f35b61043d60048036038101906104389190613e32565b610d00565b005b61045960048036038101906104549190613db7565b610d16565b005b6104756004803603810190610470919061401d565b610d78565b6040516104829190614b16565b60405180910390f35b6104a560048036038101906104a09190613ff4565b61109d565b6040516104b29190614834565b60405180910390f35b6104d560048036038101906104d09190613d2c565b6110af565b6040516104e29190614819565b60405180910390f35b61050560048036038101906105009190613d03565b611143565b005b6000610512826111c7565b9050919050565b60606001805461052890614f40565b80601f016020809104026020016040519081016040528092919081815260200182805461055490614f40565b80156105a15780601f10610576576101008083540402835291602001916105a1565b820191906000526020600020905b81548152906001019060200180831161058457829003601f168201915b5050505050905090565b60006105b682611228565b6005600083815260200190815260200160002060009054906101000a900473ffffffffffffffffffffffffffffffffffffffff169050919050565b60006105fc82610a9d565b90508073ffffffffffffffffffffffffffffffffffffffff168373ffffffffffffffffffffffffffffffffffffffff16141561066d576040517f08c379a000000000000000000000000000000000000000000000000000000000815260040161066490614a76565b60405180910390fd5b8073ffffffffffffffffffffffffffffffffffffffff1661068c611273565b73ffffffffffffffffffffffffffffffffffffffff1614806106bb57506106ba816106b5611273565b6110af565b5b6106fa576040517f08c379a00000000000000000000000000000000000000000000000000000000081526004016106f190614a96565b60405180910390fd5b610704838361127b565b505050565b6000600a80549050905090565b610727610721611273565b82611334565b610766576040517f08c379a000000000000000000000000000000000000000000000000000000000815260040161075d90614896565b60405180910390fd5b6107718383836113c9565b505050565b600061078183610b24565b82106107c2576040517f08c379a00000000000000000000000000000000000000000000000000000000081526004016107b9906148b6565b60405180910390fd5b600860008473ffffffffffffffffffffffffffffffffffffffff1673ffffffffffffffffffffffffffffffffffffffff168152602001908152602001600020600083815260200190815260200160002054905092915050565b6108236116c3565b61082b611741565b565b61084883838360405180602001604052806000815250610d16565b505050565b610856816117a4565b50565b6000610863610709565b82106108a4576040517f08c379a000000000000000000000000000000000000000000000000000000000815260040161089b90614ab6565b60405180910390fd5b600a82815481106108de577f4e487b7100000000000000000000000000000000000000000000000000000000600052603260045260246000fd5b90600052602060002001549050919050565b600060019054906101000a900460ff166109185760008054906101000a900460ff1615610921565b610920611800565b5b610960576040517f08c379a0000000000000000000000000000000000000000000000000000000008152600401610957906149f6565b60405180910390fd5b60008060019054906101000a900460ff1615905080156109b0576001600060016101000a81548160ff02191690831515021790555060016000806101000a81548160ff0219169083151502179055505b6109b86116c3565b610a4a87878080601f016020809104026020016040519081016040528093929190818152602001838380828437600081840152601f19601f8201169050808301925050505050505086868080601f016020809104026020016040519081016040528093929190818152602001838380828437600081840152601f19601f82011690508083019250505050505050611811565b8282600e9190610a5b9291906139e8565b508015610a7d5760008060016101000a81548160ff0219169083151502179055505b50505050505050565b6000600760009054906101000a900460ff16905090565b600080610aa98361186e565b9050600073ffffffffffffffffffffffffffffffffffffffff168173ffffffffffffffffffffffffffffffffffffffff161415610b1b576040517f08c379a0000000000000000000000000000000000000000000000000000000008152600401610b1290614a56565b60405180910390fd5b80915050919050565b60008073ffffffffffffffffffffffffffffffffffffffff168273ffffffffffffffffffffffffffffffffffffffff161415610b95576040517f08c379a0000000000000000000000000000000000000000000000000000000008152600401610b8c906149b6565b60405180910390fd5b600460008373ffffffffffffffffffffffffffffffffffffffff1673ffffffffffffffffffffffffffffffffffffffff168152602001908152602001600020549050919050565b610be46116c3565b610bee60006118ab565b565b6000610bfa6116c3565b6000600d6000815480929190610c0f90614fa3565b919050559050610c1f8482611970565b610c29818461198e565b8091505092915050565b610c3b6116c3565b610c43611a39565b565b60008060029054906101000a900473ffffffffffffffffffffffffffffffffffffffff16905090565b606060028054610c7d90614f40565b80601f0160208091040260200160405190810160405280929190818152602001828054610ca990614f40565b8015610cf65780601f10610ccb57610100808354040283529160200191610cf6565b820191906000526020600020905b815481529060010190602001808311610cd957829003601f168201915b5050505050905090565b610d12610d0b611273565b8383611a9c565b5050565b610d27610d21611273565b83611334565b610d66576040517f08c379a0000000000000000000000000000000000000000000000000000000008152600401610d5d90614896565b60405180910390fd5b610d7284848484611c09565b50505050565b610d80613a6e565b600073ffffffffffffffffffffffffffffffffffffffff168273ffffffffffffffffffffffffffffffffffffffff161415610de057610dd98484846040518060600160405280602f81526020016157d4602f9139611c65565b9050611096565b6001841015610e29576000610df485611d52565b604051602001610e049190614758565b6040516020818303038152906040529050610e2185858584611e76565b915050611096565b6000610e3483610b24565b9050600084600187610e469190614e3f565b610e509190614d51565b9050818110610e9b576000610e6487611d52565b604051602001610e749190614785565b6040516020818303038152906040529050610e9187878784611e76565b9350505050611096565b60008183610ea99190614e3f565b9050600086821015610ebd57819050610ec1565b8690505b60008167ffffffffffffffff811115610f03577f4e487b7100000000000000000000000000000000000000000000000000000000600052604160045260246000fd5b604051908082528060200260200182016040528015610f3c57816020015b610f29613a9f565b815260200190600190039081610f215790505b5090506000610f4a88611f4a565b905060008386610f5a9190614cca565b90506000808790505b8281101561100d57838181518110610fa4577f4e487b7100000000000000000000000000000000000000000000000000000000600052603260045260246000fd5b6020026020010151858381518110610fe5577f4e487b7100000000000000000000000000000000000000000000000000000000600052603260045260246000fd5b602002602001018190525081610ffa90614fa3565b91508061100690614fa3565b9050610f63565b50600061101b8d8d8d61230a565b9050611025613a6e565b6000816000019060ff16908160ff16815250506040518060400160405280600781526020017f73756363657373000000000000000000000000000000000000000000000000008152508160200181905250858160400181905250818160600181905250809a50505050505050505050505b9392505050565b60606110a88261240a565b9050919050565b6000600660008473ffffffffffffffffffffffffffffffffffffffff1673ffffffffffffffffffffffffffffffffffffffff16815260200190815260200160002060008373ffffffffffffffffffffffffffffffffffffffff1673ffffffffffffffffffffffffffffffffffffffff16815260200190815260200160002060009054906101000a900460ff16905092915050565b61114b6116c3565b600073ffffffffffffffffffffffffffffffffffffffff168173ffffffffffffffffffffffffffffffffffffffff1614156111bb576040517f08c379a00000000000000000000000000000000000000000000000000000000081526004016111b2906148f6565b60405180910390fd5b6111c4816118ab565b50565b6000634906490660e01b7bffffffffffffffffffffffffffffffffffffffffffffffffffffffff1916827bffffffffffffffffffffffffffffffffffffffffffffffffffffffff1916148061122157506112208261251d565b5b9050919050565b61123181612597565b611270576040517f08c379a000000000000000000000000000000000000000000000000000000000815260040161126790614a56565b60405180910390fd5b50565b600033905090565b816005600083815260200190815260200160002060006101000a81548173ffffffffffffffffffffffffffffffffffffffff021916908373ffffffffffffffffffffffffffffffffffffffff160217905550808273ffffffffffffffffffffffffffffffffffffffff166112ee83610a9d565b73ffffffffffffffffffffffffffffffffffffffff167f8c5be1e5ebec7d5bd14f71427d1e84f3dd0314c0f7b2291e5b200ac8c7c3b92560405160405180910390a45050565b60008061134083610a9d565b90508073ffffffffffffffffffffffffffffffffffffffff168473ffffffffffffffffffffffffffffffffffffffff161480611382575061138181856110af565b5b806113c057508373ffffffffffffffffffffffffffffffffffffffff166113a8846105ab565b73ffffffffffffffffffffffffffffffffffffffff16145b91505092915050565b8273ffffffffffffffffffffffffffffffffffffffff166113e982610a9d565b73ffffffffffffffffffffffffffffffffffffffff161461143f576040517f08c379a000000000000000000000000000000000000000000000000000000000815260040161143690614916565b60405180910390fd5b600073ffffffffffffffffffffffffffffffffffffffff168273ffffffffffffffffffffffffffffffffffffffff1614156114af576040517f08c379a00000000000000000000000000000000000000000000000000000000081526004016114a690614956565b60405180910390fd5b6114bc83838360016125d8565b8273ffffffffffffffffffffffffffffffffffffffff166114dc82610a9d565b73ffffffffffffffffffffffffffffffffffffffff1614611532576040517f08c379a000000000000000000000000000000000000000000000000000000000815260040161152990614916565b60405180910390fd5b6005600082815260200190815260200160002060006101000a81549073ffffffffffffffffffffffffffffffffffffffff02191690556001600460008573ffffffffffffffffffffffffffffffffffffffff1673ffffffffffffffffffffffffffffffffffffffff168152602001908152602001600020600082825403925050819055506001600460008473ffffffffffffffffffffffffffffffffffffffff1673ffffffffffffffffffffffffffffffffffffffff16815260200190815260200160002060008282540192505081905550816003600083815260200190815260200160002060006101000a81548173ffffffffffffffffffffffffffffffffffffffff021916908373ffffffffffffffffffffffffffffffffffffffff160217905550808273ffffffffffffffffffffffffffffffffffffffff168473ffffffffffffffffffffffffffffffffffffffff167fddf252ad1be2c89b69c2b068fc378daa952ba7f163c4a11628f55a4df523b3ef60405160405180910390a46116be83838360016125ea565b505050565b6116cb611273565b73ffffffffffffffffffffffffffffffffffffffff166116e9610c45565b73ffffffffffffffffffffffffffffffffffffffff161461173f576040517f08c379a000000000000000000000000000000000000000000000000000000000815260040161173690614a36565b60405180910390fd5b565b6117496125f0565b6000600760006101000a81548160ff0219169083151502179055507f5db9ee0a495bf2e6ff9c91a7834c1ba4fdd244a5e8aa4e537bd38aeae4b073aa61178d611273565b60405161179a91906147b2565b60405180910390a1565b6117b56117af611273565b82611334565b6117f4576040517f08c379a00000000000000000000000000000000000000000000000000000000081526004016117eb90614896565b60405180910390fd5b6117fd81612639565b50565b600061180b3061268c565b15905090565b600060019054906101000a900460ff16611860576040517f08c379a000000000000000000000000000000000000000000000000000000000815260040161185790614ad6565b60405180910390fd5b61186a82826126af565b5050565b60006003600083815260200190815260200160002060009054906101000a900473ffffffffffffffffffffffffffffffffffffffff169050919050565b60008060029054906101000a900473ffffffffffffffffffffffffffffffffffffffff16905081600060026101000a81548173ffffffffffffffffffffffffffffffffffffffff021916908373ffffffffffffffffffffffffffffffffffffffff1602179055508173ffffffffffffffffffffffffffffffffffffffff168173ffffffffffffffffffffffffffffffffffffffff167f8be0079c531659141344cd1fd0a4f28419497f9722a3daafe3b4186f6b6457e060405160405180910390a35050565b61198a828260405180602001604052806000815250612730565b5050565b61199782612597565b6119d6576040517f08c379a00000000000000000000000000000000000000000000000000000000081526004016119cd906149d6565b60405180910390fd5b80600c600084815260200190815260200160002090805190602001906119fd929190613add565b507ff8e1a15aba9398e019f0b49df1a4fde98ee17ae345cb5f6b5e2c27f5033e8ce782604051611a2d9190614b38565b60405180910390a15050565b611a4161278b565b6001600760006101000a81548160ff0219169083151502179055507f62e78cea01bee320cd4e420270b5ea74000d11b0c9f74754ebdbfc544b05a258611a85611273565b604051611a9291906147b2565b60405180910390a1565b8173ffffffffffffffffffffffffffffffffffffffff168373ffffffffffffffffffffffffffffffffffffffff161415611b0b576040517f08c379a0000000000000000000000000000000000000000000000000000000008152600401611b0290614976565b60405180910390fd5b80600660008573ffffffffffffffffffffffffffffffffffffffff1673ffffffffffffffffffffffffffffffffffffffff16815260200190815260200160002060008473ffffffffffffffffffffffffffffffffffffffff1673ffffffffffffffffffffffffffffffffffffffff16815260200190815260200160002060006101000a81548160ff0219169083151502179055508173ffffffffffffffffffffffffffffffffffffffff168373ffffffffffffffffffffffffffffffffffffffff167f17307eab39ab6107e8899845ad3d59bd9653f200f220920489ca2b5937696c3183604051611bfc9190614819565b60405180910390a3505050565b611c148484846113c9565b611c20848484846127d5565b611c5f576040517f08c379a0000000000000000000000000000000000000000000000000000000008152600401611c56906148d6565b60405180910390fd5b50505050565b611c6d613a6e565b611c75613b63565b85816020018181525050600186611c8c9190614e3f565b816040018181525050611c9d613a6e565b6001816000019060ff16908160ff1681525050838160200181905250600067ffffffffffffffff811115611cfa577f4e487b7100000000000000000000000000000000000000000000000000000000600052604160045260246000fd5b604051908082528060200260200182016040528015611d3357816020015b611d20613a9f565b815260200190600190039081611d185790505b5081604001819052508181606001819052508092505050949350505050565b606060006001611d618461296c565b01905060008167ffffffffffffffff811115611da6577f4e487b7100000000000000000000000000000000000000000000000000000000600052604160045260246000fd5b6040519080825280601f01601f191660200182016040528015611dd85781602001600182028036833780820191505090505b509050600082602001820190505b600115611e6b578080600190039150507f3031323334353637383961626364656600000000000000000000000000000000600a86061a8153600a8581611e55577f4e487b7100000000000000000000000000000000000000000000000000000000600052601260045260246000fd5b0494506000851415611e6657611e6b565b611de6565b819350505050919050565b611e7e613a6e565b6000611e8b86868661230a565b9050611e95613a6e565b6001816000019060ff16908160ff1681525050838160200181905250600067ffffffffffffffff811115611ef2577f4e487b7100000000000000000000000000000000000000000000000000000000600052604160045260246000fd5b604051908082528060200260200182016040528015611f2b57816020015b611f18613a9f565b815260200190600190039081611f105790505b5081604001819052508181606001819052508092505050949350505050565b60606000611f5783610b24565b905060008167ffffffffffffffff811115611f9b577f4e487b7100000000000000000000000000000000000000000000000000000000600052604160045260246000fd5b604051908082528060200260200182016040528015611fd457816020015b611fc1613a9f565b815260200190600190039081611fb95790505b50905060005b828110156120c0576000611fee8683610776565b90506000611ffb8261109d565b905060405180608001604052808381526020018281526020013073ffffffffffffffffffffffffffffffffffffffff1681526020016040518060400160405280600681526020017f65726337323100000000000000000000000000000000000000000000000000008152508152508484815181106120a2577f4e487b7100000000000000000000000000000000000000000000000000000000600052603260045260246000fd5b60200260200101819052505050806120b990614fa3565b9050611fda565b50600081519050600181116120da57819350505050612305565b6000600190505b6003826120ee9190614d20565b8110156121155760016003826121049190614d51565b61210e9190614cca565b90506120e1565b5b60008111156122fd5760008190505b828110156122e8576000848281518110612168577f4e487b7100000000000000000000000000000000000000000000000000000000600052603260045260246000fd5b60200260200101519050600083836121809190614dab565b90505b600081121580156121db575081600001518682815181106121cd577f4e487b7100000000000000000000000000000000000000000000000000000000600052603260045260246000fd5b602002602001015160000151115b1561228357858181518110612219577f4e487b7100000000000000000000000000000000000000000000000000000000600052603260045260246000fd5b602002602001015186858361222e9190614c36565b81518110612265577f4e487b7100000000000000000000000000000000000000000000000000000000600052603260045260246000fd5b6020026020010181905250838161227c9190614dab565b9050612183565b818685836122919190614c36565b815181106122c8577f4e487b7100000000000000000000000000000000000000000000000000000000600052603260045260246000fd5b6020026020010181905250505080806122e090614fa3565b915050612125565b506003816122f69190614d20565b9050612116565b829450505050505b919050565b612312613b63565b600061231d83610b24565b90506000848261232d9190614d20565b90506000858361233d9190614fec565b146123525760018161234f9190614cca565b90505b6000816001886123629190614cca565b111561237057819050612380565b60018761237d9190614cca565b90505b6000808814806123905750600188145b1561239e57600190506123cb565b826001896123ac9190614e3f565b11156123ba578290506123ca565b6001886123c79190614e3f565b90505b5b6123d3613b63565b8381600001818152505088816020018181525050818160400181815250508281606001818152505080955050505050509392505050565b606061241582611228565b6000600c6000848152602001908152602001600020805461243590614f40565b80601f016020809104026020016040519081016040528092919081815260200182805461246190614f40565b80156124ae5780601f10612483576101008083540402835291602001916124ae565b820191906000526020600020905b81548152906001019060200180831161249157829003601f168201915b5050505050905060006124bf612ba3565b90506000815114156124d5578192505050612518565b60008251111561250a5780826040516020016124f2929190614705565b60405160208183030381529060405292505050612518565b61251384612c35565b925050505b919050565b60007f780e9d63000000000000000000000000000000000000000000000000000000007bffffffffffffffffffffffffffffffffffffffffffffffffffffffff1916827bffffffffffffffffffffffffffffffffffffffffffffffffffffffff19161480612590575061258f82612c9d565b5b9050919050565b60008073ffffffffffffffffffffffffffffffffffffffff166125b98361186e565b73ffffffffffffffffffffffffffffffffffffffff1614159050919050565b6125e484848484612d7f565b50505050565b50505050565b6125f8610a86565b612637576040517f08c379a000000000000000000000000000000000000000000000000000000000815260040161262e90614876565b60405180910390fd5b565b61264281612edf565b6000600c6000838152602001908152602001600020805461266290614f40565b90501461268957600c600082815260200190815260200160002060006126889190613b8b565b5b50565b6000808273ffffffffffffffffffffffffffffffffffffffff163b119050919050565b600060019054906101000a900460ff166126fe576040517f08c379a00000000000000000000000000000000000000000000000000000000081526004016126f590614ad6565b60405180910390fd5b8160019080519060200190612714929190613add565b50806002908051906020019061272b929190613add565b505050565b61273a838361302d565b61274760008484846127d5565b612786576040517f08c379a000000000000000000000000000000000000000000000000000000000815260040161277d906148d6565b60405180910390fd5b505050565b612793610a86565b156127d3576040517f08c379a00000000000000000000000000000000000000000000000000000000081526004016127ca90614996565b60405180910390fd5b565b60006127f68473ffffffffffffffffffffffffffffffffffffffff1661268c565b1561295f578373ffffffffffffffffffffffffffffffffffffffff1663150b7a0261281f611273565b8786866040518563ffffffff1660e01b815260040161284194939291906147cd565b602060405180830381600087803b15801561285b57600080fd5b505af192505050801561288c57506040513d601f19601f820116820180604052508101906128899190613f27565b60015b61290f573d80600081146128bc576040519150601f19603f3d011682016040523d82523d6000602084013e6128c1565b606091505b50600081511415612907576040517f08c379a00000000000000000000000000000000000000000000000000000000081526004016128fe906148d6565b60405180910390fd5b805181602001fd5b63150b7a0260e01b7bffffffffffffffffffffffffffffffffffffffffffffffffffffffff1916817bffffffffffffffffffffffffffffffffffffffffffffffffffffffff191614915050612964565b600190505b949350505050565b600080600090507a184f03e93ff9f4daa797ed6e38ed64bf6a1f01000000000000000083106129f0577a184f03e93ff9f4daa797ed6e38ed64bf6a1f01000000000000000083816129e6577f4e487b7100000000000000000000000000000000000000000000000000000000600052601260045260246000fd5b0492506040810190505b6d04ee2d6d415b85acef81000000008310612a53576d04ee2d6d415b85acef81000000008381612a49577f4e487b7100000000000000000000000000000000000000000000000000000000600052601260045260246000fd5b0492506020810190505b662386f26fc100008310612aa857662386f26fc100008381612a9e577f4e487b7100000000000000000000000000000000000000000000000000000000600052601260045260246000fd5b0492506010810190505b6305f5e1008310612af7576305f5e1008381612aed577f4e487b7100000000000000000000000000000000000000000000000000000000600052601260045260246000fd5b0492506008810190505b6127108310612b42576127108381612b38577f4e487b7100000000000000000000000000000000000000000000000000000000600052601260045260246000fd5b0492506004810190505b60648310612b8b5760648381612b81577f4e487b7100000000000000000000000000000000000000000000000000000000600052601260045260246000fd5b0492506002810190505b600a8310612b9a576001810190505b80915050919050565b6060600e8054612bb290614f40565b80601f0160208091040260200160405190810160405280929190818152602001828054612bde90614f40565b8015612c2b5780601f10612c0057610100808354040283529160200191612c2b565b820191906000526020600020905b815481529060010190602001808311612c0e57829003601f168201915b5050505050905090565b6060612c4082611228565b6000612c4a612ba3565b90506000815111612c6a5760405180602001604052806000815250612c95565b80612c748461324b565b604051602001612c85929190614729565b6040516020818303038152906040525b915050919050565b60007f80ac58cd000000000000000000000000000000000000000000000000000000007bffffffffffffffffffffffffffffffffffffffffffffffffffffffff1916827bffffffffffffffffffffffffffffffffffffffffffffffffffffffff19161480612d6857507f5b5e139f000000000000000000000000000000000000000000000000000000007bffffffffffffffffffffffffffffffffffffffffffffffffffffffff1916827bffffffffffffffffffffffffffffffffffffffffffffffffffffffff1916145b80612d785750612d778261336f565b5b9050919050565b612d8b848484846133d9565b6001811115612dcf576040517f08c379a0000000000000000000000000000000000000000000000000000000008152600401612dc690614af6565b60405180910390fd5b6000829050600073ffffffffffffffffffffffffffffffffffffffff168573ffffffffffffffffffffffffffffffffffffffff161415612e1757612e1281613433565b612e56565b8373ffffffffffffffffffffffffffffffffffffffff168573ffffffffffffffffffffffffffffffffffffffff1614612e5557612e54858261347c565b5b5b600073ffffffffffffffffffffffffffffffffffffffff168473ffffffffffffffffffffffffffffffffffffffff161415612e9957612e94816135e9565b612ed8565b8473ffffffffffffffffffffffffffffffffffffffff168473ffffffffffffffffffffffffffffffffffffffff1614612ed757612ed6848261372c565b5b5b5050505050565b6000612eea82610a9d565b9050612efa8160008460016125d8565b612f0382610a9d565b90506005600083815260200190815260200160002060006101000a81549073ffffffffffffffffffffffffffffffffffffffff02191690556001600460008373ffffffffffffffffffffffffffffffffffffffff1673ffffffffffffffffffffffffffffffffffffffff168152602001908152602001600020600082825403925050819055506003600083815260200190815260200160002060006101000a81549073ffffffffffffffffffffffffffffffffffffffff021916905581600073ffffffffffffffffffffffffffffffffffffffff168273ffffffffffffffffffffffffffffffffffffffff167fddf252ad1be2c89b69c2b068fc378daa952ba7f163c4a11628f55a4df523b3ef60405160405180910390a46130298160008460016125ea565b5050565b600073ffffffffffffffffffffffffffffffffffffffff168273ffffffffffffffffffffffffffffffffffffffff16141561309d576040517f08c379a000000000000000000000000000000000000000000000000000000000815260040161309490614a16565b60405180910390fd5b6130a681612597565b156130e6576040517f08c379a00000000000000000000000000000000000000000000000000000000081526004016130dd90614936565b60405180910390fd5b6130f46000838360016125d8565b6130fd81612597565b1561313d576040517f08c379a000000000000000000000000000000000000000000000000000000000815260040161313490614936565b60405180910390fd5b6001600460008473ffffffffffffffffffffffffffffffffffffffff1673ffffffffffffffffffffffffffffffffffffffff16815260200190815260200160002060008282540192505081905550816003600083815260200190815260200160002060006101000a81548173ffffffffffffffffffffffffffffffffffffffff021916908373ffffffffffffffffffffffffffffffffffffffff160217905550808273ffffffffffffffffffffffffffffffffffffffff16600073ffffffffffffffffffffffffffffffffffffffff167fddf252ad1be2c89b69c2b068fc378daa952ba7f163c4a11628f55a4df523b3ef60405160405180910390a46132476000838360016125ea565b5050565b60606000600161325a846137ab565b01905060008167ffffffffffffffff81111561329f577f4e487b7100000000000000000000000000000000000000000000000000000000600052604160045260246000fd5b6040519080825280601f01601f1916602001820160405280156132d15781602001600182028036833780820191505090505b509050600082602001820190505b600115613364578080600190039150507f3031323334353637383961626364656600000000000000000000000000000000600a86061a8153600a858161334e577f4e487b7100000000000000000000000000000000000000000000000000000000600052601260045260246000fd5b049450600085141561335f57613364565b6132df565b819350505050919050565b60007f01ffc9a7000000000000000000000000000000000000000000000000000000007bffffffffffffffffffffffffffffffffffffffffffffffffffffffff1916827bffffffffffffffffffffffffffffffffffffffffffffffffffffffff1916149050919050565b6133e5848484846139e2565b6133ed610a86565b1561342d576040517f08c379a000000000000000000000000000000000000000000000000000000000815260040161342490614856565b60405180910390fd5b50505050565b600a80549050600b600083815260200190815260200160002081905550600a81908060018154018082558091505060019003906000526020600020016000909190919091505550565b6000600161348984610b24565b6134939190614e3f565b9050600060096000848152602001908152602001600020549050818114613578576000600860008673ffffffffffffffffffffffffffffffffffffffff1673ffffffffffffffffffffffffffffffffffffffff168152602001908152602001600020600084815260200190815260200160002054905080600860008773ffffffffffffffffffffffffffffffffffffffff1673ffffffffffffffffffffffffffffffffffffffff168152602001908152602001600020600084815260200190815260200160002081905550816009600083815260200190815260200160002081905550505b6009600084815260200190815260200160002060009055600860008573ffffffffffffffffffffffffffffffffffffffff1673ffffffffffffffffffffffffffffffffffffffff16815260200190815260200160002060008381526020019081526020016000206000905550505050565b60006001600a805490506135fd9190614e3f565b90506000600b60008481526020019081526020016000205490506000600a8381548110613653577f4e487b7100000000000000000000000000000000000000000000000000000000600052603260045260246000fd5b9060005260206000200154905080600a838154811061369b577f4e487b7100000000000000000000000000000000000000000000000000000000600052603260045260246000fd5b906000526020600020018190555081600b600083815260200190815260200160002081905550600b600085815260200190815260200160002060009055600a805480613710577f4e487b7100000000000000000000000000000000000000000000000000000000600052603160045260246000fd5b6001900381819060005260206000200160009055905550505050565b600061373783610b24565b905081600860008573ffffffffffffffffffffffffffffffffffffffff1673ffffffffffffffffffffffffffffffffffffffff168152602001908152602001600020600083815260200190815260200160002081905550806009600084815260200190815260200160002081905550505050565b600080600090507a184f03e93ff9f4daa797ed6e38ed64bf6a1f010000000000000000831061382f577a184f03e93ff9f4daa797ed6e38ed64bf6a1f0100000000000000008381613825577f4e487b7100000000000000000000000000000000000000000000000000000000600052601260045260246000fd5b0492506040810190505b6d04ee2d6d415b85acef81000000008310613892576d04ee2d6d415b85acef81000000008381613888577f4e487b7100000000000000000000000000000000000000000000000000000000600052601260045260246000fd5b0492506020810190505b662386f26fc1000083106138e757662386f26fc1000083816138dd577f4e487b7100000000000000000000000000000000000000000000000000000000600052601260045260246000fd5b0492506010810190505b6305f5e1008310613936576305f5e100838161392c577f4e487b7100000000000000000000000000000000000000000000000000000000600052601260045260246000fd5b0492506008810190505b6127108310613981576127108381613977577f4e487b7100000000000000000000000000000000000000000000000000000000600052601260045260246000fd5b0492506004810190505b606483106139ca57606483816139c0577f4e487b7100000000000000000000000000000000000000000000000000000000600052601260045260246000fd5b0492506002810190505b600a83106139d9576001810190505b80915050919050565b50505050565b8280546139f490614f40565b90600052602060002090601f016020900481019282613a165760008555613a5d565b82601f10613a2f57803560ff1916838001178555613a5d565b82800160010185558215613a5d579182015b82811115613a5c578235825591602001919060010190613a41565b5b509050613a6a9190613bcb565b5090565b6040518060800160405280600060ff1681526020016060815260200160608152602001613a99613b63565b81525090565b60405180608001604052806000815260200160608152602001600073ffffffffffffffffffffffffffffffffffffffff168152602001606081525090565b828054613ae990614f40565b90600052602060002090601f016020900481019282613b0b5760008555613b52565b82601f10613b2457805160ff1916838001178555613b52565b82800160010185558215613b52579182015b82811115613b51578251825591602001919060010190613b36565b5b509050613b5f9190613bcb565b5090565b6040518060800160405280600081526020016000815260200160008152602001600081525090565b508054613b9790614f40565b6000825580601f10613ba95750613bc8565b601f016020900490600052602060002090810190613bc79190613bcb565b5b50565b5b80821115613be4576000816000905550600101613bcc565b5090565b6000613bfb613bf684614b78565b614b53565b905082815260208101848484011115613c1357600080fd5b613c1e848285614efe565b509392505050565b600081359050613c3581615777565b92915050565b600081359050613c4a8161578e565b92915050565b600081359050613c5f816157a5565b92915050565b600081519050613c74816157a5565b92915050565b60008083601f840112613c8c57600080fd5b8235905067ffffffffffffffff811115613ca557600080fd5b602083019150836001820283011115613cbd57600080fd5b9250929050565b600082601f830112613cd557600080fd5b8135613ce5848260208601613be8565b91505092915050565b600081359050613cfd816157bc565b92915050565b600060208284031215613d1557600080fd5b6000613d2384828501613c26565b91505092915050565b60008060408385031215613d3f57600080fd5b6000613d4d85828601613c26565b9250506020613d5e85828601613c26565b9150509250929050565b600080600060608486031215613d7d57600080fd5b6000613d8b86828701613c26565b9350506020613d9c86828701613c26565b9250506040613dad86828701613cee565b9150509250925092565b60008060008060808587031215613dcd57600080fd5b6000613ddb87828801613c26565b9450506020613dec87828801613c26565b9350506040613dfd87828801613cee565b925050606085013567ffffffffffffffff811115613e1a57600080fd5b613e2687828801613cc4565b91505092959194509250565b60008060408385031215613e4557600080fd5b6000613e5385828601613c26565b9250506020613e6485828601613c3b565b9150509250929050565b60008060408385031215613e8157600080fd5b6000613e8f85828601613c26565b925050602083013567ffffffffffffffff811115613eac57600080fd5b613eb885828601613cc4565b9150509250929050565b60008060408385031215613ed557600080fd5b6000613ee385828601613c26565b9250506020613ef485828601613cee565b9150509250929050565b600060208284031215613f1057600080fd5b6000613f1e84828501613c50565b91505092915050565b600060208284031215613f3957600080fd5b6000613f4784828501613c65565b91505092915050565b60008060008060008060608789031215613f6957600080fd5b600087013567ffffffffffffffff811115613f8357600080fd5b613f8f89828a01613c7a565b9650965050602087013567ffffffffffffffff811115613fae57600080fd5b613fba89828a01613c7a565b9450945050604087013567ffffffffffffffff811115613fd957600080fd5b613fe589828a01613c7a565b92509250509295509295509295565b60006020828403121561400657600080fd5b600061401484828501613cee565b91505092915050565b60008060006060848603121561403257600080fd5b600061404086828701613cee565b935050602061405186828701613cee565b925050604061406286828701613c26565b9150509250925092565b600061407883836145af565b905092915050565b61408981614e73565b82525050565b61409881614e73565b82525050565b60006140a982614bb9565b6140b38185614be7565b9350836020820285016140c585614ba9565b8060005b8581101561410157848403895281516140e2858261406c565b94506140ed83614bda565b925060208a019950506001810190506140c9565b50829750879550505050505092915050565b61411c81614e85565b82525050565b600061412d82614bc4565b6141378185614bf8565b9350614147818560208601614f0d565b614150816150d9565b840191505092915050565b600061416682614bcf565b6141708185614c09565b9350614180818560208601614f0d565b614189816150d9565b840191505092915050565b600061419f82614bcf565b6141a98185614c1a565b93506141b9818560208601614f0d565b6141c2816150d9565b840191505092915050565b60006141d882614bcf565b6141e28185614c2b565b93506141f2818560208601614f0d565b80840191505092915050565b600061420b602b83614c1a565b9150614216826150ea565b604082019050919050565b600061422e601483614c1a565b915061423982615139565b602082019050919050565b6000614251602d83614c1a565b915061425c82615162565b604082019050919050565b6000614274602b83614c1a565b915061427f826151b1565b604082019050919050565b6000614297603283614c1a565b91506142a282615200565b604082019050919050565b60006142ba602683614c1a565b91506142c58261524f565b604082019050919050565b60006142dd602583614c1a565b91506142e88261529e565b604082019050919050565b6000614300601c83614c1a565b915061430b826152ed565b602082019050919050565b6000614323600e83614c2b565b915061432e82615316565b600e82019050919050565b6000614346601883614c2b565b91506143518261533f565b601882019050919050565b6000614369602483614c1a565b915061437482615368565b604082019050919050565b600061438c601983614c1a565b9150614397826153b7565b602082019050919050565b60006143af601083614c1a565b91506143ba826153e0565b602082019050919050565b60006143d2602983614c1a565b91506143dd82615409565b604082019050919050565b60006143f5602e83614c1a565b915061440082615458565b604082019050919050565b6000614418601883614c2b565b9150614423826154a7565b601882019050919050565b600061443b602e83614c1a565b9150614446826154d0565b604082019050919050565b600061445e602083614c1a565b91506144698261551f565b602082019050919050565b6000614481600583614c2b565b915061448c82615548565b600582019050919050565b60006144a4602083614c1a565b91506144af82615571565b602082019050919050565b60006144c7601883614c1a565b91506144d28261559a565b602082019050919050565b60006144ea602183614c1a565b91506144f5826155c3565b604082019050919050565b600061450d603d83614c1a565b915061451882615612565b604082019050919050565b6000614530601c83614c2b565b915061453b82615661565b601c82019050919050565b6000614553602c83614c1a565b915061455e8261568a565b604082019050919050565b6000614576602b83614c1a565b9150614581826156d9565b604082019050919050565b6000614599603583614c1a565b91506145a482615728565b604082019050919050565b60006080830160008301516145c760008601826146d8565b50602083015184820360208601526145df828261415b565b91505060408301516145f46040860182614080565b506060830151848203606086015261460c828261415b565b9150508091505092915050565b60808201600082015161462f60008501826146d8565b50602082015161464260208501826146d8565b50604082015161465560408501826146d8565b50606082015161466860608501826146d8565b50505050565b600060e08301600083015161468660008601826146f6565b506020830151848203602086015261469e828261415b565b915050604083015184820360408601526146b8828261409e565b91505060608301516146cd6060860182614619565b508091505092915050565b6146e181614ee7565b82525050565b6146f081614ee7565b82525050565b6146ff81614ef1565b82525050565b600061471182856141cd565b915061471d82846141cd565b91508190509392505050565b600061473582856141cd565b915061474182846141cd565b915061474c82614474565b91508190509392505050565b600061476382614339565b915061476f82846141cd565b915061477a8261440b565b915081905092915050565b600061479082614523565b915061479c82846141cd565b91506147a782614316565b915081905092915050565b60006020820190506147c7600083018461408f565b92915050565b60006080820190506147e2600083018761408f565b6147ef602083018661408f565b6147fc60408301856146e7565b818103606083015261480e8184614122565b905095945050505050565b600060208201905061482e6000830184614113565b92915050565b6000602082019050818103600083015261484e8184614194565b905092915050565b6000602082019050818103600083015261486f816141fe565b9050919050565b6000602082019050818103600083015261488f81614221565b9050919050565b600060208201905081810360008301526148af81614244565b9050919050565b600060208201905081810360008301526148cf81614267565b9050919050565b600060208201905081810360008301526148ef8161428a565b9050919050565b6000602082019050818103600083015261490f816142ad565b9050919050565b6000602082019050818103600083015261492f816142d0565b9050919050565b6000602082019050818103600083015261494f816142f3565b9050919050565b6000602082019050818103600083015261496f8161435c565b9050919050565b6000602082019050818103600083015261498f8161437f565b9050919050565b600060208201905081810360008301526149af816143a2565b9050919050565b600060208201905081810360008301526149cf816143c5565b9050919050565b600060208201905081810360008301526149ef816143e8565b9050919050565b60006020820190508181036000830152614a0f8161442e565b9050919050565b60006020820190508181036000830152614a2f81614451565b9050919050565b60006020820190508181036000830152614a4f81614497565b9050919050565b60006020820190508181036000830152614a6f816144ba565b9050919050565b60006020820190508181036000830152614a8f816144dd565b9050919050565b60006020820190508181036000830152614aaf81614500565b9050919050565b60006020820190508181036000830152614acf81614546565b9050919050565b60006020820190508181036000830152614aef81614569565b9050919050565b60006020820190508181036000830152614b0f8161458c565b9050919050565b60006020820190508181036000830152614b30818461466e565b905092915050565b6000602082019050614b4d60008301846146e7565b92915050565b6000614b5d614b6e565b9050614b698282614f72565b919050565b6000604051905090565b600067ffffffffffffffff821115614b9357614b926150aa565b5b614b9c826150d9565b9050602081019050919050565b6000819050602082019050919050565b600081519050919050565b600081519050919050565b600081519050919050565b6000602082019050919050565b600082825260208201905092915050565b600082825260208201905092915050565b600082825260208201905092915050565b600082825260208201905092915050565b600081905092915050565b6000614c4182614ebd565b9150614c4c83614ebd565b9250817f7fffffffffffffffffffffffffffffffffffffffffffffffffffffffffffffff03831360008312151615614c8757614c8661501d565b5b817f8000000000000000000000000000000000000000000000000000000000000000038312600083121615614cbf57614cbe61501d565b5b828201905092915050565b6000614cd582614ee7565b9150614ce083614ee7565b9250827fffffffffffffffffffffffffffffffffffffffffffffffffffffffffffffffff03821115614d1557614d1461501d565b5b828201905092915050565b6000614d2b82614ee7565b9150614d3683614ee7565b925082614d4657614d4561504c565b5b828204905092915050565b6000614d5c82614ee7565b9150614d6783614ee7565b9250817fffffffffffffffffffffffffffffffffffffffffffffffffffffffffffffffff0483118215151615614da057614d9f61501d565b5b828202905092915050565b6000614db682614ebd565b9150614dc183614ebd565b9250827f800000000000000000000000000000000000000000000000000000000000000001821260008412151615614dfc57614dfb61501d565b5b827f7fffffffffffffffffffffffffffffffffffffffffffffffffffffffffffffff018213600084121615614e3457614e3361501d565b5b828203905092915050565b6000614e4a82614ee7565b9150614e5583614ee7565b925082821015614e6857614e6761501d565b5b828203905092915050565b6000614e7e82614ec7565b9050919050565b60008115159050919050565b60007fffffffff0000000000000000000000000000000000000000000000000000000082169050919050565b6000819050919050565b600073ffffffffffffffffffffffffffffffffffffffff82169050919050565b6000819050919050565b600060ff82169050919050565b82818337600083830152505050565b60005b83811015614f2b578082015181840152602081019050614f10565b83811115614f3a576000848401525b50505050565b60006002820490506001821680614f5857607f821691505b60208210811415614f6c57614f6b61507b565b5b50919050565b614f7b826150d9565b810181811067ffffffffffffffff82111715614f9a57614f996150aa565b5b80604052505050565b6000614fae82614ee7565b91507fffffffffffffffffffffffffffffffffffffffffffffffffffffffffffffffff821415614fe157614fe061501d565b5b600182019050919050565b6000614ff782614ee7565b915061500283614ee7565b9250826150125761501161504c565b5b828206905092915050565b7f4e487b7100000000000000000000000000000000000000000000000000000000600052601160045260246000fd5b7f4e487b7100000000000000000000000000000000000000000000000000000000600052601260045260246000fd5b7f4e487b7100000000000000000000000000000000000000000000000000000000600052602260045260246000fd5b7f4e487b7100000000000000000000000000000000000000000000000000000000600052604160045260246000fd5b6000601f19601f8301169050919050565b7f4552433732315061757361626c653a20746f6b656e207472616e73666572207760008201527f68696c6520706175736564000000000000000000000000000000000000000000602082015250565b7f5061757361626c653a206e6f7420706175736564000000000000000000000000600082015250565b7f4552433732313a2063616c6c6572206973206e6f7420746f6b656e206f776e6560008201527f72206f7220617070726f76656400000000000000000000000000000000000000602082015250565b7f455243373231456e756d657261626c653a206f776e657220696e646578206f7560008201527f74206f6620626f756e6473000000000000000000000000000000000000000000602082015250565b7f4552433732313a207472616e7366657220746f206e6f6e20455243373231526560008201527f63656976657220696d706c656d656e7465720000000000000000000000000000602082015250565b7f4f776e61626c653a206e6577206f776e657220697320746865207a65726f206160008201527f6464726573730000000000000000000000000000000000000000000000000000602082015250565b7f4552433732313a207472616e736665722066726f6d20696e636f72726563742060008201527f6f776e6572000000000000000000000000000000000000000000000000000000602082015250565b7f4552433732313a20746f6b656e20616c7265616479206d696e74656400000000600082015250565b7f29206f7574206f662072616e6765000000000000000000000000000000000000600082015250565b7f6261746368555249416e6449643a70616765496e646578280000000000000000600082015250565b7f4552433732313a207472616e7366657220746f20746865207a65726f2061646460008201527f7265737300000000000000000000000000000000000000000000000000000000602082015250565b7f4552433732313a20617070726f766520746f2063616c6c657200000000000000600082015250565b7f5061757361626c653a2070617573656400000000000000000000000000000000600082015250565b7f4552433732313a2061646472657373207a65726f206973206e6f74206120766160008201527f6c6964206f776e65720000000000000000000000000000000000000000000000602082015250565b7f45524337323155524953746f726167653a2055524920736574206f66206e6f6e60008201527f6578697374656e7420746f6b656e000000000000000000000000000000000000602082015250565b7f29206d7573742062652067726561746572207468616e20300000000000000000600082015250565b7f496e697469616c697a61626c653a20636f6e747261637420697320616c72656160008201527f647920696e697469616c697a6564000000000000000000000000000000000000602082015250565b7f4552433732313a206d696e7420746f20746865207a65726f2061646472657373600082015250565b7f2e6a736f6e000000000000000000000000000000000000000000000000000000600082015250565b7f4f776e61626c653a2063616c6c6572206973206e6f7420746865206f776e6572600082015250565b7f4552433732313a20696e76616c696420746f6b656e2049440000000000000000600082015250565b7f4552433732313a20617070726f76616c20746f2063757272656e74206f776e6560008201527f7200000000000000000000000000000000000000000000000000000000000000602082015250565b7f4552433732313a20617070726f76652063616c6c6572206973206e6f7420746f60008201527f6b656e206f776e6572206f7220617070726f76656420666f7220616c6c000000602082015250565b7f6261746368555249416e6449643a7468652070616765496e6465782800000000600082015250565b7f455243373231456e756d657261626c653a20676c6f62616c20696e646578206f60008201527f7574206f6620626f756e64730000000000000000000000000000000000000000602082015250565b7f496e697469616c697a61626c653a20636f6e7472616374206973206e6f74206960008201527f6e697469616c697a696e67000000000000000000000000000000000000000000602082015250565b7f455243373231456e756d657261626c653a20636f6e736563757469766520747260008201527f616e7366657273206e6f7420737570706f727465640000000000000000000000602082015250565b61578081614e73565b811461578b57600080fd5b50565b61579781614e85565b81146157a257600080fd5b50565b6157ae81614e91565b81146157b957600080fd5b50565b6157c581614ee7565b81146157d057600080fd5b5056fe6261746368555249416e6449643a61646472657373207a65726f206973206e6f7420612076616c6964206f776e6572a2646970667358221220bddf5841dccc3c401327eebb276f9efd72cfe2ed70fe6a3c62b93715ed5db58264736f6c63430008010033",
  "linkReferences": {},
  "deployedLinkReferences": {},
  "immutableReferences": {},
  "inputSourceName": "project/contracts/voidChain/batchURI.sol",
  "devdoc": {
    "kind": "dev",
    "methods": {
      "approve(address,uint256)": {
        "details": "See {IERC721-approve}."
      },
      "balanceOf(address)": {
        "details": "See {IERC721-balanceOf}."
      },
      "getApproved(uint256)": {
        "details": "See {IERC721-getApproved}."
      },
      "isApprovedForAll(address,address)": {
        "details": "See {IERC721-isApprovedForAll}."
      },
      "name()": {
        "details": "See {IERC721Metadata-name}."
      },
      "owner()": {
        "details": "Returns the address of the current owner."
      },
      "ownerOf(uint256)": {
        "details": "See {IERC721-ownerOf}."
      },
      "paused()": {
        "details": "Returns true if the contract is paused, and false otherwise."
      },
      "renounceOwnership()": {
        "details": "Leaves the contract without owner. It will not be possible to call `onlyOwner` functions. Can only be called by the current owner. NOTE: Renouncing ownership will leave the contract without an owner, thereby disabling any functionality that is only available to the owner."
      },
      "safeTransferFrom(address,address,uint256)": {
        "details": "See {IERC721-safeTransferFrom}."
      },
      "safeTransferFrom(address,address,uint256,bytes)": {
        "details": "See {IERC721-safeTransferFrom}."
      },
      "setApprovalForAll(address,bool)": {
        "details": "See {IERC721-setApprovalForAll}."
      },
      "symbol()": {
        "details": "See {IERC721Metadata-symbol}."
      },
      "tokenByIndex(uint256)": {
        "details": "See {IERC721Enumerable-tokenByIndex}."
      },
      "tokenOfOwnerByIndex(address,uint256)": {
        "details": "See {IERC721Enumerable-tokenOfOwnerByIndex}."
      },
      "totalSupply()": {
        "details": "See {IERC721Enumerable-totalSupply}."
      },
      "transferFrom(address,address,uint256)": {
        "details": "See {IERC721-transferFrom}."
      },
      "transferOwnership(address)": {
        "details": "Transfers ownership of the contract to a new account (`newOwner`). Can only be called by the current owner."
      }
    },
    "version": 1
  },
  "evm": {
    "gasEstimates": {
      "creation": {
        "codeDepositCost": "4516800",
        "executionCost": "infinite",
        "totalCost": "infinite"
      },
      "external": {
        "approve(address,uint256)": "infinite",
        "balanceOf(address)": "1624",
        "burn(uint256)": "infinite",
        "getApproved(uint256)": "2700",
        "getBatchURI(uint256,uint256,address)": "infinite",
        "initialize(bytes,bytes,bytes)": "infinite",
        "isApprovedForAll(address,address)": "infinite",
        "name()": "infinite",
        "owner()": "1405",
        "ownerOf(uint256)": "1725",
        "pause()": "infinite",
        "paused()": "1290",
        "renounceOwnership()": "24615",
        "safeMint(address,bytes)": "infinite",
        "safeTransferFrom(address,address,uint256)": "infinite",
        "safeTransferFrom(address,address,uint256,bytes)": "infinite",
        "setApprovalForAll(address,bool)": "infinite",
        "supportsInterface(bytes4)": "1024",
        "symbol()": "infinite",
        "tokenByIndex(uint256)": "infinite",
        "tokenOfOwnerByIndex(address,uint256)": "infinite",
        "tokenURI(uint256)": "infinite",
        "totalSupply()": "1257",
        "transferFrom(address,address,uint256)": "infinite",
        "transferOwnership(address)": "25007",
        "unpause()": "infinite"
      },
      "internal": {
        "computerPageConfig(uint256,uint256,address)": "infinite",
        "revertMessage_Address_0(uint256,uint256,address,string memory)": "infinite",
        "revertMessage_IndexOutOfRange(uint256,uint256,address,string memory)": "infinite",
        "shellSort(address)": "infinite"
      }
    }
  },
  "storageLayout": {
    "storage": [
      {
        "astId": 1791,
        "contract": "project/contracts/voidChain/batchURI.sol:batchURIAndId",
        "label": "_initialized",
        "offset": 0,
        "slot": "0",
        "type": "t_bool"
      },
      {
        "astId": 1794,
        "contract": "project/contracts/voidChain/batchURI.sol:batchURIAndId",
        "label": "_initializing",
        "offset": 1,
        "slot": "0",
        "type": "t_bool"
      },
      {
        "astId": 1679,
        "contract": "project/contracts/voidChain/batchURI.sol:batchURIAndId",
        "label": "_owner",
        "offset": 2,
        "slot": "0",
        "type": "t_address"
      },
      {
        "astId": 1994,
        "contract": "project/contracts/voidChain/batchURI.sol:batchURIAndId",
        "label": "_name",
        "offset": 0,
        "slot": "1",
        "type": "t_string_storage"
      },
      {
        "astId": 1996,
        "contract": "project/contracts/voidChain/batchURI.sol:batchURIAndId",
        "label": "_symbol",
        "offset": 0,
        "slot": "2",
        "type": "t_string_storage"
      },
      {
        "astId": 2000,
        "contract": "project/contracts/voidChain/batchURI.sol:batchURIAndId",
        "label": "_owners",
        "offset": 0,
        "slot": "3",
        "type": "t_mapping(t_uint256,t_address)"
      },
      {
        "astId": 2004,
        "contract": "project/contracts/voidChain/batchURI.sol:batchURIAndId",
        "label": "_balances",
        "offset": 0,
        "slot": "4",
        "type": "t_mapping(t_address,t_uint256)"
      },
      {
        "astId": 2008,
        "contract": "project/contracts/voidChain/batchURI.sol:batchURIAndId",
        "label": "_tokenApprovals",
        "offset": 0,
        "slot": "5",
        "type": "t_mapping(t_uint256,t_address)"
      },
      {
        "astId": 2014,
        "contract": "project/contracts/voidChain/batchURI.sol:batchURIAndId",
        "label": "_operatorApprovals",
        "offset": 0,
        "slot": "6",
        "type": "t_mapping(t_address,t_mapping(t_address,t_bool))"
      },
      {
        "astId": 1876,
        "contract": "project/contracts/voidChain/batchURI.sol:batchURIAndId",
        "label": "_paused",
        "offset": 0,
        "slot": "7",
        "type": "t_bool"
      },
      {
        "astId": 2929,
        "contract": "project/contracts/voidChain/batchURI.sol:batchURIAndId",
        "label": "_ownedTokens",
        "offset": 0,
        "slot": "8",
        "type": "t_mapping(t_address,t_mapping(t_uint256,t_uint256))"
      },
      {
        "astId": 2933,
        "contract": "project/contracts/voidChain/batchURI.sol:batchURIAndId",
        "label": "_ownedTokensIndex",
        "offset": 0,
        "slot": "9",
        "type": "t_mapping(t_uint256,t_uint256)"
      },
      {
        "astId": 2936,
        "contract": "project/contracts/voidChain/batchURI.sol:batchURIAndId",
        "label": "_allTokens",
        "offset": 0,
        "slot": "10",
        "type": "t_array(t_uint256)dyn_storage"
      },
      {
        "astId": 2940,
        "contract": "project/contracts/voidChain/batchURI.sol:batchURIAndId",
        "label": "_allTokensIndex",
        "offset": 0,
        "slot": "11",
        "type": "t_mapping(t_uint256,t_uint256)"
      },
      {
        "astId": 3324,
        "contract": "project/contracts/voidChain/batchURI.sol:batchURIAndId",
        "label": "_tokenURIs",
        "offset": 0,
        "slot": "12",
        "type": "t_mapping(t_uint256,t_string_storage)"
      },
      {
        "astId": 1483,
        "contract": "project/contracts/voidChain/batchURI.sol:batchURIAndId",
        "label": "_nextTokenId",
        "offset": 0,
        "slot": "13",
        "type": "t_uint256"
      },
      {
        "astId": 1485,
        "contract": "project/contracts/voidChain/batchURI.sol:batchURIAndId",
        "label": "baseURI",
        "offset": 0,
        "slot": "14",
        "type": "t_string_storage"
      }
    ],
    "types": {
      "t_address": {
        "encoding": "inplace",
        "label": "address",
        "numberOfBytes": "20"
      },
      "t_array(t_uint256)dyn_storage": {
        "base": "t_uint256",
        "encoding": "dynamic_array",
        "label": "uint256[]",
        "numberOfBytes": "32"
      },
      "t_bool": {
        "encoding": "inplace",
        "label": "bool",
        "numberOfBytes": "1"
      },
      "t_mapping(t_address,t_bool)": {
        "encoding": "mapping",
        "key": "t_address",
        "label": "mapping(address => bool)",
        "numberOfBytes": "32",
        "value": "t_bool"
      },
      "t_mapping(t_address,t_mapping(t_address,t_bool))": {
        "encoding": "mapping",
        "key": "t_address",
        "label": "mapping(address => mapping(address => bool))",
        "numberOfBytes": "32",
        "value": "t_mapping(t_address,t_bool)"
      },
      "t_mapping(t_address,t_mapping(t_uint256,t_uint256))": {
        "encoding": "mapping",
        "key": "t_address",
        "label": "mapping(address => mapping(uint256 => uint256))",
        "numberOfBytes": "32",
        "value": "t_mapping(t_uint256,t_uint256)"
      },
      "t_mapping(t_address,t_uint256)": {
        "encoding": "mapping",
        "key": "t_address",
        "label": "mapping(address => uint256)",
        "numberOfBytes": "32",
        "value": "t_uint256"
      },
      "t_mapping(t_uint256,t_address)": {
        "encoding": "mapping",
        "key": "t_uint256",
        "label": "mapping(uint256 => address)",
        "numberOfBytes": "32",
        "value": "t_address"
      },
      "t_mapping(t_uint256,t_string_storage)": {
        "encoding": "mapping",
        "key": "t_uint256",
        "label": "mapping(uint256 => string)",
        "numberOfBytes": "32",
        "value": "t_string_storage"
      },
      "t_mapping(t_uint256,t_uint256)": {
        "encoding": "mapping",
        "key": "t_uint256",
        "label": "mapping(uint256 => uint256)",
        "numberOfBytes": "32",
        "value": "t_uint256"
      },
      "t_string_storage": {
        "encoding": "bytes",
        "label": "string",
        "numberOfBytes": "32"
      },
      "t_uint256": {
        "encoding": "inplace",
        "label": "uint256",
        "numberOfBytes": "32"
      }
    }
  },
  "userdoc": {
    "kind": "user",
    "methods": {},
    "version": 1
  },
  "argsData": "0x",
  "transaction": {
    "hash": "0xbe744d8679f9848955c576318cd4578efebff54244563dba2a128a83982cd43b",
    "nonce": "0x0",
    "origin": "0xf39fd6e51aad88f6f4ce6ab8827279cfffb92266"
  }
}