{
  "address": "0x5fbdb2315678afecb367f032d93f642f64180aa3",
  "abi": [
    {
      "anonymous": false,
      "inputs": [
        {
          "indexed": true,
          "internalType": "uint256",
          "name": "id",
          "type": "uint256"
        },
        {
          "indexed": true,
          "internalType": "address",
          "name": "sender",
          "type": "address"
        },
        {
          "indexed": false,
          "internalType": "bytes",
          "name": "data",
          "type": "bytes"
        }
      ],
      "name": "MultiEvent",
      "type": "event"
    },
    {
      "anonymous": false,
      "inputs": [
        {
          "indexed": true,
          "internalType": "address",
          "name": "payer",
          "type": "address"
        },
        {
          "indexed": false,
          "internalType": "uint256",
          "name": "amount",
          "type": "uint256"
        },
        {
          "indexed": false,
          "internalType": "string",
          "name": "message",
          "type": "string"
        }
      ],
      "name": "PaymentReceived",
      "type": "event"
    },
    {
      "anonymous": false,
      "inputs": [
        {
          "indexed": true,
          "internalType": "address",
          "name": "changer",
          "type": "address"
        },
        {
          "indexed": true,
          "internalType": "uint256",
          "name": "oldValue",
          "type": "uint256"
        },
        {
          "indexed": false,
          "internalType": "uint256",
          "name": "newValue",
          "type": "uint256"
        }
      ],
      "name": "ValueChanged",
      "type": "event"
    },
    {
      "inputs": [],
      "name": "emitMultiple",
      "outputs": [],
      "stateMutability": "nonpayable",
      "type": "function"
    },
    {
      "inputs": [
        {
          "internalType": "string",
          "name": "message",
          "type": "string"
        }
      ],
      "name": "pay",
      "outputs": [],
      "stateMutability": "payable",
      "type": "function"
    },
    {
      "inputs": [
        {
          "internalType": "uint256",
          "name": "newValue",
          "type": "uint256"
        }
      ],
      "name": "setValue",
      "outputs": [],
      "stateMutability": "nonpayable",
      "type": "function"
    }
  ],
  "contractName": "EventEmitter",
  "sourceName": "contracts/test/eventTest.sol",
  "bytecode": "0x608060405234801561001057600080fd5b50610738806100206000396000f3fe6080604052600436106100345760003560e01c80632b66d72e1461003957806355241077146100555780635eb7c3e61461007e575b600080fd5b610053600480360381019061004e91906102ff565b610095565b005b34801561006157600080fd5b5061007c60048036038101906100779190610340565b61012b565b005b34801561008a57600080fd5b5061009361018b565b005b600034116100d8576040517f08c379a00000000000000000000000000000000000000000000000000000000081526004016100cf906104a1565b60405180910390fd5b3373ffffffffffffffffffffffffffffffffffffffff167f8dfc1109af223bb7f4e48f38a8a7631f492f0106b90747a651bf181b0fc4e40234836040516101209291906104dc565b60405180910390a250565b60008054905081600081905550803373ffffffffffffffffffffffffffffffffffffffff167fe435f0fbe584e62b62f48f4016a57ef6c95e4c79f5babbe6ad3bb64f3281d2618460405161017f91906104c1565b60405180910390a35050565b60003373ffffffffffffffffffffffffffffffffffffffff167fe435f0fbe584e62b62f48f4016a57ef6c95e4c79f5babbe6ad3bb64f3281d26160016040516101d49190610466565b60405180910390a33373ffffffffffffffffffffffffffffffffffffffff167f8dfc1109af223bb7f4e48f38a8a7631f492f0106b90747a651bf181b0fc4e402670de0b6b3a764000060405161022a9190610438565b60405180910390a23373ffffffffffffffffffffffffffffffffffffffff1660017fae9bf333eb35b237cc51cf4d390600bf91839b72febf1c02ab87b8fb169fe2c360405161027890610481565b60405180910390a3565b600061029561029084610531565b61050c565b9050828152602081018484840111156102ad57600080fd5b6102b88482856105bd565b509392505050565b600082601f8301126102d157600080fd5b81356102e1848260208601610282565b91505092915050565b6000813590506102f9816106eb565b92915050565b60006020828403121561031157600080fd5b600082013567ffffffffffffffff81111561032b57600080fd5b610337848285016102c0565b91505092915050565b60006020828403121561035257600080fd5b6000610360848285016102ea565b91505092915050565b61037281610599565b82525050565b610381816105ab565b82525050565b600061039282610562565b61039c818561057e565b93506103ac8185602086016105cc565b6103b58161065f565b840191505092915050565b60006103cd60068361056d565b91506103d882610670565b602082019050919050565b60006103f060048361057e565b91506103fb82610699565b602082019050919050565b6000610413600d8361057e565b915061041e826106c2565b602082019050919050565b6104328161058f565b82525050565b600060408201905061044d6000830184610369565b818103602083015261045e816103e3565b905092915050565b600060208201905061047b6000830184610378565b92915050565b6000602082019050818103600083015261049a816103c0565b9050919050565b600060208201905081810360008301526104ba81610406565b9050919050565b60006020820190506104d66000830184610429565b92915050565b60006040820190506104f16000830185610429565b81810360208301526105038184610387565b90509392505050565b6000610516610527565b905061052282826105ff565b919050565b6000604051905090565b600067ffffffffffffffff82111561054c5761054b610630565b5b6105558261065f565b9050602081019050919050565b600081519050919050565b600082825260208201905092915050565b600082825260208201905092915050565b6000819050919050565b60006105a48261058f565b9050919050565b60006105b68261058f565b9050919050565b82818337600083830152505050565b60005b838110156105ea5780820151818401526020810190506105cf565b838111156105f9576000848401525b50505050565b6106088261065f565b810181811067ffffffffffffffff8211171561062757610626610630565b5b80604052505050565b7f4e487b7100000000000000000000000000000000000000000000000000000000600052604160045260246000fd5b6000601f19601f8301169050919050565b7f3078313233340000000000000000000000000000000000000000000000000000600082015250565b7f7465737400000000000000000000000000000000000000000000000000000000600082015250565b7f4d7573742073656e642045544800000000000000000000000000000000000000600082015250565b6106f48161058f565b81146106ff57600080fd5b5056fea2646970667358221220e8aaf4a2c72cc866b4588c41d3396cc1b6774ba3c4ca986b57841eea236a848b64736f6c63430008010033",
  "linkReferences": {},
  "deployedLinkReferences": {},
  "immutableReferences": {},
  "inputSourceName": "project/contracts/test/eventTest.sol",
  "devdoc": {
    "kind": "dev",
    "methods": {},
    "version": 1
  },
  "evm": {
    "gasEstimates": {
      "creation": {
        "codeDepositCost": "369600",
        "executionCost": "405",
        "totalCost": "370005"
      },
      "external": {
        "emitMultiple()": "infinite",
        "pay(string)": "infinite",
        "setValue(uint256)": "infinite"
      }
    }
  },
  "storageLayout": {
    "storage": [
      {
        "astId": 3,
        "contract": "project/contracts/test/eventTest.sol:EventEmitter",
        "label": "counter",
        "offset": 0,
        "slot": "0",
        "type": "t_uint256"
      }
    ],
    "types": {
      "t_uint256": {
        "encoding": "inplace",
        "label": "uint256",
        "numberOfBytes": "32"
      }
    }
  },
  "userdoc": {
    "kind": "user",
    "methods": {},
    "version": 1
  },
  "argsData": "0x",
  "transaction": {
    "hash": "0x9f996c1da571376554173d031d6071101e1cf408d4de226998c0aa34404676a1",
    "nonce": "0x0",
    "origin": "0xf39fd6e51aad88f6f4ce6ab8827279cfffb92266"
  }
}