{
  "address": "0xe7f1725e7734ce288f8367e1bb143e90bb3f0512",
  "abi": [
    {
      "anonymous": false,
      "inputs": [
        {
          "indexed": true,
          "internalType": "address",
          "name": "owner",
          "type": "address"
        },
        {
          "indexed": true,
          "internalType": "address",
          "name": "approved",
          "type": "address"
        },
        {
          "indexed": true,
          "internalType": "uint256",
          "name": "tokenId",
          "type": "uint256"
        }
      ],
      "name": "Approval",
      "type": "event"
    },
    {
      "anonymous": false,
      "inputs": [
        {
          "indexed": true,
          "internalType": "address",
          "name": "owner",
          "type": "address"
        },
        {
          "indexed": true,
          "internalType": "address",
          "name": "operator",
          "type": "address"
        },
        {
          "indexed": false,
          "internalType": "bool",
          "name": "approved",
          "type": "bool"
        }
      ],
      "name": "ApprovalForAll",
      "type": "event"
    },
    {
      "anonymous": false,
      "inputs": [
        {
          "indexed": false,
          "internalType": "uint256",
          "name": "_fromTokenId",
          "type": "uint256"
        },
        {
          "indexed": false,
          "internalType": "uint256",
          "name": "_toTokenId",
          "type": "uint256"
        }
      ],
      "name": "BatchMetadataUpdate",
      "type": "event"
    },
    {
      "anonymous": false,
      "inputs": [
        {
          "indexed": false,
          "internalType": "uint256",
          "name": "_tokenId",
          "type": "uint256"
        }
      ],
      "name": "MetadataUpdate",
      "type": "event"
    },
    {
      "anonymous": false,
      "inputs": [
        {
          "indexed": true,
          "internalType": "address",
          "name": "previousOwner",
          "type": "address"
        },
        {
          "indexed": true,
          "internalType": "address",
          "name": "newOwner",
          "type": "address"
        }
      ],
      "name": "OwnershipTransferred",
      "type": "event"
    },
    {
      "anonymous": false,
      "inputs": [
        {
          "indexed": false,
          "internalType": "address",
          "name": "account",
          "type": "address"
        }
      ],
      "name": "Paused",
      "type": "event"
    },
    {
      "anonymous": false,
      "inputs": [
        {
          "indexed": true,
          "internalType": "address",
          "name": "from",
          "type": "address"
        },
        {
          "indexed": true,
          "internalType": "address",
          "name": "to",
          "type": "address"
        },
        {
          "indexed": true,
          "internalType": "uint256",
          "name": "tokenId",
          "type": "uint256"
        }
      ],
      "name": "Transfer",
      "type": "event"
    },
    {
      "anonymous": false,
      "inputs": [
        {
          "indexed": false,
          "internalType": "address",
          "name": "account",
          "type": "address"
        }
      ],
      "name": "Unpaused",
      "type": "event"
    },
    {
      "inputs": [
        {
          "internalType": "address",
          "name": "to",
          "type": "address"
        },
        {
          "internalType": "uint256",
          "name": "tokenId",
          "type": "uint256"
        }
      ],
      "name": "approve",
      "outputs": [],
      "stateMutability": "nonpayable",
      "type": "function"
    },
    {
      "inputs": [
        {
          "internalType": "address",
          "name": "owner",
          "type": "address"
        }
      ],
      "name": "balanceOf",
      "outputs": [
        {
          "internalType": "uint256",
          "name": "",
          "type": "uint256"
        }
      ],
      "stateMutability": "view",
      "type": "function"
    },
    {
      "inputs": [
        {
          "internalType": "uint256",
          "name": "tokenId",
          "type": "uint256"
        }
      ],
      "name": "burn",
      "outputs": [],
      "stateMutability": "nonpayable",
      "type": "function"
    },
    {
      "inputs": [
        {
          "internalType": "uint256",
          "name": "tokenId",
          "type": "uint256"
        }
      ],
      "name": "getApproved",
      "outputs": [
        {
          "internalType": "address",
          "name": "",
          "type": "address"
        }
      ],
      "stateMutability": "view",
      "type": "function"
    },
    {
      "inputs": [
        {
          "internalType": "bytes",
          "name": "_tokenName",
          "type": "bytes"
        },
        {
          "internalType": "bytes",
          "name": "_tokenSymbol",
          "type": "bytes"
        },
        {
          "internalType": "bytes",
          "name": "_baseURIInit",
          "type": "bytes"
        }
      ],
      "name": "initialize",
      "outputs": [],
      "stateMutability": "nonpayable",
      "type": "function"
    },
    {
      "inputs": [
        {
          "internalType": "address",
          "name": "owner",
          "type": "address"
        },
        {
          "internalType": "address",
          "name": "operator",
          "type": "address"
        }
      ],
      "name": "isApprovedForAll",
      "outputs": [
        {
          "internalType": "bool",
          "name": "",
          "type": "bool"
        }
      ],
      "stateMutability": "view",
      "type": "function"
    },
    {
      "inputs": [],
      "name": "name",
      "outputs": [
        {
          "internalType": "string",
          "name": "",
          "type": "string"
        }
      ],
      "stateMutability": "view",
      "type": "function"
    },
    {
      "inputs": [],
      "name": "owner",
      "outputs": [
        {
          "internalType": "address",
          "name": "",
          "type": "address"
        }
      ],
      "stateMutability": "view",
      "type": "function"
    },
    {
      "inputs": [
        {
          "internalType": "uint256",
          "name": "tokenId",
          "type": "uint256"
        }
      ],
      "name": "ownerOf",
      "outputs": [
        {
          "internalType": "address",
          "name": "",
          "type": "address"
        }
      ],
      "stateMutability": "view",
      "type": "function"
    },
    {
      "inputs": [],
      "name": "pause",
      "outputs": [],
      "stateMutability": "nonpayable",
      "type": "function"
    },
    {
      "inputs": [],
      "name": "paused",
      "outputs": [
        {
          "internalType": "bool",
          "name": "",
          "type": "bool"
        }
      ],
      "stateMutability": "view",
      "type": "function"
    },
    {
      "inputs": [],
      "name": "renounceOwnership",
      "outputs": [],
      "stateMutability": "nonpayable",
      "type": "function"
    },
    {
      "inputs": [
        {
          "internalType": "address",
          "name": "to",
          "type": "address"
        },
        {
          "internalType": "bytes",
          "name": "uri",
          "type": "bytes"
        }
      ],
      "name": "safeMint",
      "outputs": [
        {
          "internalType": "uint256",
          "name": "",
          "type": "uint256"
        }
      ],
      "stateMutability": "nonpayable",
      "type": "function"
    },
    {
      "inputs": [
        {
          "internalType": "address",
          "name": "from",
          "type": "address"
        },
        {
          "internalType": "address",
          "name": "to",
          "type": "address"
        },
        {
          "internalType": "uint256",
          "name": "tokenId",
          "type": "uint256"
        }
      ],
      "name": "safeTransferFrom",
      "outputs": [],
      "stateMutability": "nonpayable",
      "type": "function"
    },
    {
      "inputs": [
        {
          "internalType": "address",
          "name": "from",
          "type": "address"
        },
        {
          "internalType": "address",
          "name": "to",
          "type": "address"
        },
        {
          "internalType": "uint256",
          "name": "tokenId",
          "type": "uint256"
        },
        {
          "internalType": "bytes",
          "name": "data",
          "type": "bytes"
        }
      ],
      "name": "safeTransferFrom",
      "outputs": [],
      "stateMutability": "nonpayable",
      "type": "function"
    },
    {
      "inputs": [
        {
          "internalType": "address",
          "name": "operator",
          "type": "address"
        },
        {
          "internalType": "bool",
          "name": "approved",
          "type": "bool"
        }
      ],
      "name": "setApprovalForAll",
      "outputs": [],
      "stateMutability": "nonpayable",
      "type": "function"
    },
    {
      "inputs": [
        {
          "internalType": "bytes4",
          "name": "interfaceId",
          "type": "bytes4"
        }
      ],
      "name": "supportsInterface",
      "outputs": [
        {
          "internalType": "bool",
          "name": "",
          "type": "bool"
        }
      ],
      "stateMutability": "view",
      "type": "function"
    },
    {
      "inputs": [],
      "name": "symbol",
      "outputs": [
        {
          "internalType": "string",
          "name": "",
          "type": "string"
        }
      ],
      "stateMutability": "view",
      "type": "function"
    },
    {
      "inputs": [
        {
          "internalType": "uint256",
          "name": "index",
          "type": "uint256"
        }
      ],
      "name": "tokenByIndex",
      "outputs": [
        {
          "internalType": "uint256",
          "name": "",
          "type": "uint256"
        }
      ],
      "stateMutability": "view",
      "type": "function"
    },
    {
      "inputs": [
        {
          "internalType": "address",
          "name": "owner",
          "type": "address"
        },
        {
          "internalType": "uint256",
          "name": "index",
          "type": "uint256"
        }
      ],
      "name": "tokenOfOwnerByIndex",
      "outputs": [
        {
          "internalType": "uint256",
          "name": "",
          "type": "uint256"
        }
      ],
      "stateMutability": "view",
      "type": "function"
    },
    {
      "inputs": [
        {
          "internalType": "uint256",
          "name": "tokenId",
          "type": "uint256"
        }
      ],
      "name": "tokenURI",
      "outputs": [
        {
          "internalType": "string",
          "name": "",
          "type": "string"
        }
      ],
      "stateMutability": "view",
      "type": "function"
    },
    {
      "inputs": [],
      "name": "totalSupply",
      "outputs": [
        {
          "internalType": "uint256",
          "name": "",
          "type": "uint256"
        }
      ],
      "stateMutability": "view",
      "type": "function"
    },
    {
      "inputs": [
        {
          "internalType": "address",
          "name": "from",
          "type": "address"
        },
        {
          "internalType": "address",
          "name": "to",
          "type": "address"
        },
        {
          "internalType": "uint256",
          "name": "tokenId",
          "type": "uint256"
        }
      ],
      "name": "transferFrom",
      "outputs": [],
      "stateMutability": "nonpayable",
      "type": "function"
    },
    {
      "inputs": [
        {
          "internalType": "address",
          "name": "newOwner",
          "type": "address"
        }
      ],
      "name": "transferOwnership",
      "outputs": [],
      "stateMutability": "nonpayable",
      "type": "function"
    },
    {
      "inputs": [],
      "name": "unpause",
      "outputs": [],
      "stateMutability": "nonpayable",
      "type": "function"
    }
  ],
  "contractName": "MyToken",
  "sourceName": "contracts/myToken.sol",
  "bytecode": "0x60806040523480156200001157600080fd5b5062000032620000266200005360201b60201c565b6200005b60201b60201c565b6000600760006101000a81548160ff02191690831515021790555062000120565b600033905090565b60008060029054906101000a900473ffffffffffffffffffffffffffffffffffffffff16905081600060026101000a81548173ffffffffffffffffffffffffffffffffffffffff021916908373ffffffffffffffffffffffffffffffffffffffff1602179055508173ffffffffffffffffffffffffffffffffffffffff168173ffffffffffffffffffffffffffffffffffffffff167f8be0079c531659141344cd1fd0a4f28419497f9722a3daafe3b4186f6b6457e060405160405180910390a35050565b61434980620001306000396000f3fe608060405234801561001057600080fd5b50600436106101735760003560e01c80635c975abb116100de5780638da5cb5b11610097578063b88d4fde11610071578063b88d4fde14610424578063c87b56dd14610440578063e985e9c514610470578063f2fde38b146104a057610173565b80638da5cb5b146103cc57806395d89b41146103ea578063a22cb4651461040857610173565b80635c975abb1461030a5780636352211e1461032857806370a0823114610358578063715018a614610388578063785bb03e146103925780638456cb59146103c257610173565b80632f745c59116101305780632f745c591461024c5780633f4ba83a1461027c57806342842e0e1461028657806342966c68146102a25780634f6ccce7146102be5780635411b209146102ee57610173565b806301ffc9a71461017857806306fdde03146101a8578063081812fc146101c6578063095ea7b3146101f657806318160ddd1461021257806323b872dd14610230575b600080fd5b610192600480360381019061018d919061311b565b6104bc565b60405161019f91906136e9565b60405180910390f35b6101b06104ce565b6040516101bd9190613704565b60405180910390f35b6101e060048036038101906101db9190613211565b610560565b6040516101ed9190613682565b60405180910390f35b610210600480360381019061020b91906130df565b6105a6565b005b61021a6106be565b60405161022791906139e6565b60405180910390f35b61024a60048036038101906102459190612f85565b6106cb565b005b610266600480360381019061026191906130df565b61072b565b60405161027391906139e6565b60405180910390f35b6102846107d0565b005b6102a0600480360381019061029b9190612f85565b6107e2565b005b6102bc60048036038101906102b79190613211565b610802565b005b6102d860048036038101906102d39190613211565b61080e565b6040516102e591906139e6565b60405180910390f35b6103086004803603810190610303919061316d565b6108a5565b005b610312610a3b565b60405161031f91906136e9565b60405180910390f35b610342600480360381019061033d9190613211565b610a52565b60405161034f9190613682565b60405180910390f35b610372600480360381019061036d9190612f20565b610ad9565b60405161037f91906139e6565b60405180910390f35b610390610b91565b005b6103ac60048036038101906103a7919061308b565b610ba5565b6040516103b991906139e6565b60405180910390f35b6103ca610be8565b005b6103d4610bfa565b6040516103e19190613682565b60405180910390f35b6103f2610c23565b6040516103ff9190613704565b60405180910390f35b610422600480360381019061041d919061304f565b610cb5565b005b61043e60048036038101906104399190612fd4565b610ccb565b005b61045a60048036038101906104559190613211565b610d2d565b6040516104679190613704565b60405180910390f35b61048a60048036038101906104859190612f49565b610d3f565b60405161049791906136e9565b60405180910390f35b6104ba60048036038101906104b59190612f20565b610dd3565b005b60006104c782610e57565b9050919050565b6060600180546104dd90613b84565b80601f016020809104026020016040519081016040528092919081815260200182805461050990613b84565b80156105565780601f1061052b57610100808354040283529160200191610556565b820191906000526020600020905b81548152906001019060200180831161053957829003601f168201915b5050505050905090565b600061056b82610eb8565b6005600083815260200190815260200160002060009054906101000a900473ffffffffffffffffffffffffffffffffffffffff169050919050565b60006105b182610a52565b90508073ffffffffffffffffffffffffffffffffffffffff168373ffffffffffffffffffffffffffffffffffffffff161415610622576040517f08c379a000000000000000000000000000000000000000000000000000000000815260040161061990613946565b60405180910390fd5b8073ffffffffffffffffffffffffffffffffffffffff16610641610f03565b73ffffffffffffffffffffffffffffffffffffffff161480610670575061066f8161066a610f03565b610d3f565b5b6106af576040517f08c379a00000000000000000000000000000000000000000000000000000000081526004016106a690613966565b60405180910390fd5b6106b98383610f0b565b505050565b6000600a80549050905090565b6106dc6106d6610f03565b82610fc4565b61071b576040517f08c379a000000000000000000000000000000000000000000000000000000000815260040161071290613766565b60405180910390fd5b610726838383611059565b505050565b600061073683610ad9565b8210610777576040517f08c379a000000000000000000000000000000000000000000000000000000000815260040161076e90613786565b60405180910390fd5b600860008473ffffffffffffffffffffffffffffffffffffffff1673ffffffffffffffffffffffffffffffffffffffff168152602001908152602001600020600083815260200190815260200160002054905092915050565b6107d8611353565b6107e06113d1565b565b6107fd83838360405180602001604052806000815250610ccb565b505050565b61080b81611434565b50565b60006108186106be565b8210610859576040517f08c379a000000000000000000000000000000000000000000000000000000000815260040161085090613986565b60405180910390fd5b600a8281548110610893577f4e487b7100000000000000000000000000000000000000000000000000000000600052603260045260246000fd5b90600052602060002001549050919050565b600060019054906101000a900460ff166108cd5760008054906101000a900460ff16156108d6565b6108d5611490565b5b610915576040517f08c379a000000000000000000000000000000000000000000000000000000000815260040161090c906138c6565b60405180910390fd5b60008060019054906101000a900460ff161590508015610965576001600060016101000a81548160ff02191690831515021790555060016000806101000a81548160ff0219169083151502179055505b61096d611353565b6109ff87878080601f016020809104026020016040519081016040528093929190818152602001838380828437600081840152601f19601f8201169050808301925050505050505086868080601f016020809104026020016040519081016040528093929190818152602001838380828437600081840152601f19601f820116905080830192505050505050506114a1565b8282600e9190610a10929190612c9c565b508015610a325760008060016101000a81548160ff0219169083151502179055505b50505050505050565b6000600760009054906101000a900460ff16905090565b600080610a5e836114fe565b9050600073ffffffffffffffffffffffffffffffffffffffff168173ffffffffffffffffffffffffffffffffffffffff161415610ad0576040517f08c379a0000000000000000000000000000000000000000000000000000000008152600401610ac790613926565b60405180910390fd5b80915050919050565b60008073ffffffffffffffffffffffffffffffffffffffff168273ffffffffffffffffffffffffffffffffffffffff161415610b4a576040517f08c379a0000000000000000000000000000000000000000000000000000000008152600401610b4190613886565b60405180910390fd5b600460008373ffffffffffffffffffffffffffffffffffffffff1673ffffffffffffffffffffffffffffffffffffffff168152602001908152602001600020549050919050565b610b99611353565b610ba3600061153b565b565b6000610baf611353565b6000600d6000815480929190610bc490613be7565b919050559050610bd48482611600565b610bde818461161e565b8091505092915050565b610bf0611353565b610bf86116c9565b565b60008060029054906101000a900473ffffffffffffffffffffffffffffffffffffffff16905090565b606060028054610c3290613b84565b80601f0160208091040260200160405190810160405280929190818152602001828054610c5e90613b84565b8015610cab5780601f10610c8057610100808354040283529160200191610cab565b820191906000526020600020905b815481529060010190602001808311610c8e57829003601f168201915b5050505050905090565b610cc7610cc0610f03565b838361172c565b5050565b610cdc610cd6610f03565b83610fc4565b610d1b576040517f08c379a0000000000000000000000000000000000000000000000000000000008152600401610d1290613766565b60405180910390fd5b610d2784848484611899565b50505050565b6060610d38826118f5565b9050919050565b6000600660008473ffffffffffffffffffffffffffffffffffffffff1673ffffffffffffffffffffffffffffffffffffffff16815260200190815260200160002060008373ffffffffffffffffffffffffffffffffffffffff1673ffffffffffffffffffffffffffffffffffffffff16815260200190815260200160002060009054906101000a900460ff16905092915050565b610ddb611353565b600073ffffffffffffffffffffffffffffffffffffffff168173ffffffffffffffffffffffffffffffffffffffff161415610e4b576040517f08c379a0000000000000000000000000000000000000000000000000000000008152600401610e42906137c6565b60405180910390fd5b610e548161153b565b50565b6000634906490660e01b7bffffffffffffffffffffffffffffffffffffffffffffffffffffffff1916827bffffffffffffffffffffffffffffffffffffffffffffffffffffffff19161480610eb15750610eb082611a08565b5b9050919050565b610ec181611a82565b610f00576040517f08c379a0000000000000000000000000000000000000000000000000000000008152600401610ef790613926565b60405180910390fd5b50565b600033905090565b816005600083815260200190815260200160002060006101000a81548173ffffffffffffffffffffffffffffffffffffffff021916908373ffffffffffffffffffffffffffffffffffffffff160217905550808273ffffffffffffffffffffffffffffffffffffffff16610f7e83610a52565b73ffffffffffffffffffffffffffffffffffffffff167f8c5be1e5ebec7d5bd14f71427d1e84f3dd0314c0f7b2291e5b200ac8c7c3b92560405160405180910390a45050565b600080610fd083610a52565b90508073ffffffffffffffffffffffffffffffffffffffff168473ffffffffffffffffffffffffffffffffffffffff16148061101257506110118185610d3f565b5b8061105057508373ffffffffffffffffffffffffffffffffffffffff1661103884610560565b73ffffffffffffffffffffffffffffffffffffffff16145b91505092915050565b8273ffffffffffffffffffffffffffffffffffffffff1661107982610a52565b73ffffffffffffffffffffffffffffffffffffffff16146110cf576040517f08c379a00000000000000000000000000000000000000000000000000000000081526004016110c6906137e6565b60405180910390fd5b600073ffffffffffffffffffffffffffffffffffffffff168273ffffffffffffffffffffffffffffffffffffffff16141561113f576040517f08c379a000000000000000000000000000000000000000000000000000000000815260040161113690613826565b60405180910390fd5b61114c8383836001611ac3565b8273ffffffffffffffffffffffffffffffffffffffff1661116c82610a52565b73ffffffffffffffffffffffffffffffffffffffff16146111c2576040517f08c379a00000000000000000000000000000000000000000000000000000000081526004016111b9906137e6565b60405180910390fd5b6005600082815260200190815260200160002060006101000a81549073ffffffffffffffffffffffffffffffffffffffff02191690556001600460008573ffffffffffffffffffffffffffffffffffffffff1673ffffffffffffffffffffffffffffffffffffffff168152602001908152602001600020600082825403925050819055506001600460008473ffffffffffffffffffffffffffffffffffffffff1673ffffffffffffffffffffffffffffffffffffffff16815260200190815260200160002060008282540192505081905550816003600083815260200190815260200160002060006101000a81548173ffffffffffffffffffffffffffffffffffffffff021916908373ffffffffffffffffffffffffffffffffffffffff160217905550808273ffffffffffffffffffffffffffffffffffffffff168473ffffffffffffffffffffffffffffffffffffffff167fddf252ad1be2c89b69c2b068fc378daa952ba7f163c4a11628f55a4df523b3ef60405160405180910390a461134e8383836001611ad5565b505050565b61135b610f03565b73ffffffffffffffffffffffffffffffffffffffff16611379610bfa565b73ffffffffffffffffffffffffffffffffffffffff16146113cf576040517f08c379a00000000000000000000000000000000000000000000000000000000081526004016113c690613906565b60405180910390fd5b565b6113d9611adb565b6000600760006101000a81548160ff0219169083151502179055507f5db9ee0a495bf2e6ff9c91a7834c1ba4fdd244a5e8aa4e537bd38aeae4b073aa61141d610f03565b60405161142a9190613682565b60405180910390a1565b61144561143f610f03565b82610fc4565b611484576040517f08c379a000000000000000000000000000000000000000000000000000000000815260040161147b90613766565b60405180910390fd5b61148d81611b24565b50565b600061149b30611b77565b15905090565b600060019054906101000a900460ff166114f0576040517f08c379a00000000000000000000000000000000000000000000000000000000081526004016114e7906139a6565b60405180910390fd5b6114fa8282611b9a565b5050565b60006003600083815260200190815260200160002060009054906101000a900473ffffffffffffffffffffffffffffffffffffffff169050919050565b60008060029054906101000a900473ffffffffffffffffffffffffffffffffffffffff16905081600060026101000a81548173ffffffffffffffffffffffffffffffffffffffff021916908373ffffffffffffffffffffffffffffffffffffffff1602179055508173ffffffffffffffffffffffffffffffffffffffff168173ffffffffffffffffffffffffffffffffffffffff167f8be0079c531659141344cd1fd0a4f28419497f9722a3daafe3b4186f6b6457e060405160405180910390a35050565b61161a828260405180602001604052806000815250611c1b565b5050565b61162782611a82565b611666576040517f08c379a000000000000000000000000000000000000000000000000000000000815260040161165d906138a6565b60405180910390fd5b80600c6000848152602001908152602001600020908051906020019061168d929190612d22565b507ff8e1a15aba9398e019f0b49df1a4fde98ee17ae345cb5f6b5e2c27f5033e8ce7826040516116bd91906139e6565b60405180910390a15050565b6116d1611c76565b6001600760006101000a81548160ff0219169083151502179055507f62e78cea01bee320cd4e420270b5ea74000d11b0c9f74754ebdbfc544b05a258611715610f03565b6040516117229190613682565b60405180910390a1565b8173ffffffffffffffffffffffffffffffffffffffff168373ffffffffffffffffffffffffffffffffffffffff16141561179b576040517f08c379a000000000000000000000000000000000000000000000000000000000815260040161179290613846565b60405180910390fd5b80600660008573ffffffffffffffffffffffffffffffffffffffff1673ffffffffffffffffffffffffffffffffffffffff16815260200190815260200160002060008473ffffffffffffffffffffffffffffffffffffffff1673ffffffffffffffffffffffffffffffffffffffff16815260200190815260200160002060006101000a81548160ff0219169083151502179055508173ffffffffffffffffffffffffffffffffffffffff168373ffffffffffffffffffffffffffffffffffffffff167f17307eab39ab6107e8899845ad3d59bd9653f200f220920489ca2b5937696c318360405161188c91906136e9565b60405180910390a3505050565b6118a4848484611059565b6118b084848484611cc0565b6118ef576040517f08c379a00000000000000000000000000000000000000000000000000000000081526004016118e6906137a6565b60405180910390fd5b50505050565b606061190082610eb8565b6000600c6000848152602001908152602001600020805461192090613b84565b80601f016020809104026020016040519081016040528092919081815260200182805461194c90613b84565b80156119995780601f1061196e57610100808354040283529160200191611999565b820191906000526020600020905b81548152906001019060200180831161197c57829003601f168201915b5050505050905060006119aa611e57565b90506000815114156119c0578192505050611a03565b6000825111156119f55780826040516020016119dd92919061362f565b60405160208183030381529060405292505050611a03565b6119fe84611ee9565b925050505b919050565b60007f780e9d63000000000000000000000000000000000000000000000000000000007bffffffffffffffffffffffffffffffffffffffffffffffffffffffff1916827bffffffffffffffffffffffffffffffffffffffffffffffffffffffff19161480611a7b5750611a7a82611f51565b5b9050919050565b60008073ffffffffffffffffffffffffffffffffffffffff16611aa4836114fe565b73ffffffffffffffffffffffffffffffffffffffff1614159050919050565b611acf84848484612033565b50505050565b50505050565b611ae3610a3b565b611b22576040517f08c379a0000000000000000000000000000000000000000000000000000000008152600401611b1990613746565b60405180910390fd5b565b611b2d81612193565b6000600c60008381526020019081526020016000208054611b4d90613b84565b905014611b7457600c60008281526020019081526020016000206000611b739190612da8565b5b50565b6000808273ffffffffffffffffffffffffffffffffffffffff163b119050919050565b600060019054906101000a900460ff16611be9576040517f08c379a0000000000000000000000000000000000000000000000000000000008152600401611be0906139a6565b60405180910390fd5b8160019080519060200190611bff929190612d22565b508060029080519060200190611c16929190612d22565b505050565b611c2583836122e1565b611c326000848484611cc0565b611c71576040517f08c379a0000000000000000000000000000000000000000000000000000000008152600401611c68906137a6565b60405180910390fd5b505050565b611c7e610a3b565b15611cbe576040517f08c379a0000000000000000000000000000000000000000000000000000000008152600401611cb590613866565b60405180910390fd5b565b6000611ce18473ffffffffffffffffffffffffffffffffffffffff16611b77565b15611e4a578373ffffffffffffffffffffffffffffffffffffffff1663150b7a02611d0a610f03565b8786866040518563ffffffff1660e01b8152600401611d2c949392919061369d565b602060405180830381600087803b158015611d4657600080fd5b505af1925050508015611d7757506040513d601f19601f82011682018060405250810190611d749190613144565b60015b611dfa573d8060008114611da7576040519150601f19603f3d011682016040523d82523d6000602084013e611dac565b606091505b50600081511415611df2576040517f08c379a0000000000000000000000000000000000000000000000000000000008152600401611de9906137a6565b60405180910390fd5b805181602001fd5b63150b7a0260e01b7bffffffffffffffffffffffffffffffffffffffffffffffffffffffff1916817bffffffffffffffffffffffffffffffffffffffffffffffffffffffff191614915050611e4f565b600190505b949350505050565b6060600e8054611e6690613b84565b80601f0160208091040260200160405190810160405280929190818152602001828054611e9290613b84565b8015611edf5780601f10611eb457610100808354040283529160200191611edf565b820191906000526020600020905b815481529060010190602001808311611ec257829003601f168201915b5050505050905090565b6060611ef482610eb8565b6000611efe611e57565b90506000815111611f1e5760405180602001604052806000815250611f49565b80611f28846124ff565b604051602001611f39929190613653565b6040516020818303038152906040525b915050919050565b60007f80ac58cd000000000000000000000000000000000000000000000000000000007bffffffffffffffffffffffffffffffffffffffffffffffffffffffff1916827bffffffffffffffffffffffffffffffffffffffffffffffffffffffff1916148061201c57507f5b5e139f000000000000000000000000000000000000000000000000000000007bffffffffffffffffffffffffffffffffffffffffffffffffffffffff1916827bffffffffffffffffffffffffffffffffffffffffffffffffffffffff1916145b8061202c575061202b82612623565b5b9050919050565b61203f8484848461268d565b6001811115612083576040517f08c379a000000000000000000000000000000000000000000000000000000000815260040161207a906139c6565b60405180910390fd5b6000829050600073ffffffffffffffffffffffffffffffffffffffff168573ffffffffffffffffffffffffffffffffffffffff1614156120cb576120c6816126e7565b61210a565b8373ffffffffffffffffffffffffffffffffffffffff168573ffffffffffffffffffffffffffffffffffffffff1614612109576121088582612730565b5b5b600073ffffffffffffffffffffffffffffffffffffffff168473ffffffffffffffffffffffffffffffffffffffff16141561214d576121488161289d565b61218c565b8473ffffffffffffffffffffffffffffffffffffffff168473ffffffffffffffffffffffffffffffffffffffff161461218b5761218a84826129e0565b5b5b5050505050565b600061219e82610a52565b90506121ae816000846001611ac3565b6121b782610a52565b90506005600083815260200190815260200160002060006101000a81549073ffffffffffffffffffffffffffffffffffffffff02191690556001600460008373ffffffffffffffffffffffffffffffffffffffff1673ffffffffffffffffffffffffffffffffffffffff168152602001908152602001600020600082825403925050819055506003600083815260200190815260200160002060006101000a81549073ffffffffffffffffffffffffffffffffffffffff021916905581600073ffffffffffffffffffffffffffffffffffffffff168273ffffffffffffffffffffffffffffffffffffffff167fddf252ad1be2c89b69c2b068fc378daa952ba7f163c4a11628f55a4df523b3ef60405160405180910390a46122dd816000846001611ad5565b5050565b600073ffffffffffffffffffffffffffffffffffffffff168273ffffffffffffffffffffffffffffffffffffffff161415612351576040517f08c379a0000000000000000000000000000000000000000000000000000000008152600401612348906138e6565b60405180910390fd5b61235a81611a82565b1561239a576040517f08c379a000000000000000000000000000000000000000000000000000000000815260040161239190613806565b60405180910390fd5b6123a8600083836001611ac3565b6123b181611a82565b156123f1576040517f08c379a00000000000000000000000000000000000000000000000000000000081526004016123e890613806565b60405180910390fd5b6001600460008473ffffffffffffffffffffffffffffffffffffffff1673ffffffffffffffffffffffffffffffffffffffff16815260200190815260200160002060008282540192505081905550816003600083815260200190815260200160002060006101000a81548173ffffffffffffffffffffffffffffffffffffffff021916908373ffffffffffffffffffffffffffffffffffffffff160217905550808273ffffffffffffffffffffffffffffffffffffffff16600073ffffffffffffffffffffffffffffffffffffffff167fddf252ad1be2c89b69c2b068fc378daa952ba7f163c4a11628f55a4df523b3ef60405160405180910390a46124fb600083836001611ad5565b5050565b60606000600161250e84612a5f565b01905060008167ffffffffffffffff811115612553577f4e487b7100000000000000000000000000000000000000000000000000000000600052604160045260246000fd5b6040519080825280601f01601f1916602001820160405280156125855781602001600182028036833780820191505090505b509050600082602001820190505b600115612618578080600190039150507f3031323334353637383961626364656600000000000000000000000000000000600a86061a8153600a8581612602577f4e487b7100000000000000000000000000000000000000000000000000000000600052601260045260246000fd5b049450600085141561261357612618565b612593565b819350505050919050565b60007f01ffc9a7000000000000000000000000000000000000000000000000000000007bffffffffffffffffffffffffffffffffffffffffffffffffffffffff1916827bffffffffffffffffffffffffffffffffffffffffffffffffffffffff1916149050919050565b61269984848484612c96565b6126a1610a3b565b156126e1576040517f08c379a00000000000000000000000000000000000000000000000000000000081526004016126d890613726565b60405180910390fd5b50505050565b600a80549050600b600083815260200190815260200160002081905550600a81908060018154018082558091505060019003906000526020600020016000909190919091505550565b6000600161273d84610ad9565b6127479190613a9a565b905060006009600084815260200190815260200160002054905081811461282c576000600860008673ffffffffffffffffffffffffffffffffffffffff1673ffffffffffffffffffffffffffffffffffffffff168152602001908152602001600020600084815260200190815260200160002054905080600860008773ffffffffffffffffffffffffffffffffffffffff1673ffffffffffffffffffffffffffffffffffffffff168152602001908152602001600020600084815260200190815260200160002081905550816009600083815260200190815260200160002081905550505b6009600084815260200190815260200160002060009055600860008573ffffffffffffffffffffffffffffffffffffffff1673ffffffffffffffffffffffffffffffffffffffff16815260200190815260200160002060008381526020019081526020016000206000905550505050565b60006001600a805490506128b19190613a9a565b90506000600b60008481526020019081526020016000205490506000600a8381548110612907577f4e487b7100000000000000000000000000000000000000000000000000000000600052603260045260246000fd5b9060005260206000200154905080600a838154811061294f577f4e487b7100000000000000000000000000000000000000000000000000000000600052603260045260246000fd5b906000526020600020018190555081600b600083815260200190815260200160002081905550600b600085815260200190815260200160002060009055600a8054806129c4577f4e487b7100000000000000000000000000000000000000000000000000000000600052603160045260246000fd5b6001900381819060005260206000200160009055905550505050565b60006129eb83610ad9565b905081600860008573ffffffffffffffffffffffffffffffffffffffff1673ffffffffffffffffffffffffffffffffffffffff168152602001908152602001600020600083815260200190815260200160002081905550806009600084815260200190815260200160002081905550505050565b600080600090507a184f03e93ff9f4daa797ed6e38ed64bf6a1f0100000000000000008310612ae3577a184f03e93ff9f4daa797ed6e38ed64bf6a1f0100000000000000008381612ad9577f4e487b7100000000000000000000000000000000000000000000000000000000600052601260045260246000fd5b0492506040810190505b6d04ee2d6d415b85acef81000000008310612b46576d04ee2d6d415b85acef81000000008381612b3c577f4e487b7100000000000000000000000000000000000000000000000000000000600052601260045260246000fd5b0492506020810190505b662386f26fc100008310612b9b57662386f26fc100008381612b91577f4e487b7100000000000000000000000000000000000000000000000000000000600052601260045260246000fd5b0492506010810190505b6305f5e1008310612bea576305f5e1008381612be0577f4e487b7100000000000000000000000000000000000000000000000000000000600052601260045260246000fd5b0492506008810190505b6127108310612c35576127108381612c2b577f4e487b7100000000000000000000000000000000000000000000000000000000600052601260045260246000fd5b0492506004810190505b60648310612c7e5760648381612c74577f4e487b7100000000000000000000000000000000000000000000000000000000600052601260045260246000fd5b0492506002810190505b600a8310612c8d576001810190505b80915050919050565b50505050565b828054612ca890613b84565b90600052602060002090601f016020900481019282612cca5760008555612d11565b82601f10612ce357803560ff1916838001178555612d11565b82800160010185558215612d11579182015b82811115612d10578235825591602001919060010190612cf5565b5b509050612d1e9190612de8565b5090565b828054612d2e90613b84565b90600052602060002090601f016020900481019282612d505760008555612d97565b82601f10612d6957805160ff1916838001178555612d97565b82800160010185558215612d97579182015b82811115612d96578251825591602001919060010190612d7b565b5b509050612da49190612de8565b5090565b508054612db490613b84565b6000825580601f10612dc65750612de5565b601f016020900490600052602060002090810190612de49190612de8565b5b50565b5b80821115612e01576000816000905550600101612de9565b5090565b6000612e18612e1384613a26565b613a01565b905082815260208101848484011115612e3057600080fd5b612e3b848285613b42565b509392505050565b600081359050612e52816142b7565b92915050565b600081359050612e67816142ce565b92915050565b600081359050612e7c816142e5565b92915050565b600081519050612e91816142e5565b92915050565b60008083601f840112612ea957600080fd5b8235905067ffffffffffffffff811115612ec257600080fd5b602083019150836001820283011115612eda57600080fd5b9250929050565b600082601f830112612ef257600080fd5b8135612f02848260208601612e05565b91505092915050565b600081359050612f1a816142fc565b92915050565b600060208284031215612f3257600080fd5b6000612f4084828501612e43565b91505092915050565b60008060408385031215612f5c57600080fd5b6000612f6a85828601612e43565b9250506020612f7b85828601612e43565b9150509250929050565b600080600060608486031215612f9a57600080fd5b6000612fa886828701612e43565b9350506020612fb986828701612e43565b9250506040612fca86828701612f0b565b9150509250925092565b60008060008060808587031215612fea57600080fd5b6000612ff887828801612e43565b945050602061300987828801612e43565b935050604061301a87828801612f0b565b925050606085013567ffffffffffffffff81111561303757600080fd5b61304387828801612ee1565b91505092959194509250565b6000806040838503121561306257600080fd5b600061307085828601612e43565b925050602061308185828601612e58565b9150509250929050565b6000806040838503121561309e57600080fd5b60006130ac85828601612e43565b925050602083013567ffffffffffffffff8111156130c957600080fd5b6130d585828601612ee1565b9150509250929050565b600080604083850312156130f257600080fd5b600061310085828601612e43565b925050602061311185828601612f0b565b9150509250929050565b60006020828403121561312d57600080fd5b600061313b84828501612e6d565b91505092915050565b60006020828403121561315657600080fd5b600061316484828501612e82565b91505092915050565b6000806000806000806060878903121561318657600080fd5b600087013567ffffffffffffffff8111156131a057600080fd5b6131ac89828a01612e97565b9650965050602087013567ffffffffffffffff8111156131cb57600080fd5b6131d789828a01612e97565b9450945050604087013567ffffffffffffffff8111156131f657600080fd5b61320289828a01612e97565b92509250509295509295509295565b60006020828403121561322357600080fd5b600061323184828501612f0b565b91505092915050565b61324381613ace565b82525050565b61325281613ae0565b82525050565b600061326382613a57565b61326d8185613a6d565b935061327d818560208601613b51565b61328681613cbd565b840191505092915050565b600061329c82613a62565b6132a68185613a7e565b93506132b6818560208601613b51565b6132bf81613cbd565b840191505092915050565b60006132d582613a62565b6132df8185613a8f565b93506132ef818560208601613b51565b80840191505092915050565b6000613308602b83613a7e565b915061331382613cce565b604082019050919050565b600061332b601483613a7e565b915061333682613d1d565b602082019050919050565b600061334e602d83613a7e565b915061335982613d46565b604082019050919050565b6000613371602b83613a7e565b915061337c82613d95565b604082019050919050565b6000613394603283613a7e565b915061339f82613de4565b604082019050919050565b60006133b7602683613a7e565b91506133c282613e33565b604082019050919050565b60006133da602583613a7e565b91506133e582613e82565b604082019050919050565b60006133fd601c83613a7e565b915061340882613ed1565b602082019050919050565b6000613420602483613a7e565b915061342b82613efa565b604082019050919050565b6000613443601983613a7e565b915061344e82613f49565b602082019050919050565b6000613466601083613a7e565b915061347182613f72565b602082019050919050565b6000613489602983613a7e565b915061349482613f9b565b604082019050919050565b60006134ac602e83613a7e565b91506134b782613fea565b604082019050919050565b60006134cf602e83613a7e565b91506134da82614039565b604082019050919050565b60006134f2602083613a7e565b91506134fd82614088565b602082019050919050565b6000613515600583613a8f565b9150613520826140b1565b600582019050919050565b6000613538602083613a7e565b9150613543826140da565b602082019050919050565b600061355b601883613a7e565b915061356682614103565b602082019050919050565b600061357e602183613a7e565b91506135898261412c565b604082019050919050565b60006135a1603d83613a7e565b91506135ac8261417b565b604082019050919050565b60006135c4602c83613a7e565b91506135cf826141ca565b604082019050919050565b60006135e7602b83613a7e565b91506135f282614219565b604082019050919050565b600061360a603583613a7e565b915061361582614268565b604082019050919050565b61362981613b38565b82525050565b600061363b82856132ca565b915061364782846132ca565b91508190509392505050565b600061365f82856132ca565b915061366b82846132ca565b915061367682613508565b91508190509392505050565b6000602082019050613697600083018461323a565b92915050565b60006080820190506136b2600083018761323a565b6136bf602083018661323a565b6136cc6040830185613620565b81810360608301526136de8184613258565b905095945050505050565b60006020820190506136fe6000830184613249565b92915050565b6000602082019050818103600083015261371e8184613291565b905092915050565b6000602082019050818103600083015261373f816132fb565b9050919050565b6000602082019050818103600083015261375f8161331e565b9050919050565b6000602082019050818103600083015261377f81613341565b9050919050565b6000602082019050818103600083015261379f81613364565b9050919050565b600060208201905081810360008301526137bf81613387565b9050919050565b600060208201905081810360008301526137df816133aa565b9050919050565b600060208201905081810360008301526137ff816133cd565b9050919050565b6000602082019050818103600083015261381f816133f0565b9050919050565b6000602082019050818103600083015261383f81613413565b9050919050565b6000602082019050818103600083015261385f81613436565b9050919050565b6000602082019050818103600083015261387f81613459565b9050919050565b6000602082019050818103600083015261389f8161347c565b9050919050565b600060208201905081810360008301526138bf8161349f565b9050919050565b600060208201905081810360008301526138df816134c2565b9050919050565b600060208201905081810360008301526138ff816134e5565b9050919050565b6000602082019050818103600083015261391f8161352b565b9050919050565b6000602082019050818103600083015261393f8161354e565b9050919050565b6000602082019050818103600083015261395f81613571565b9050919050565b6000602082019050818103600083015261397f81613594565b9050919050565b6000602082019050818103600083015261399f816135b7565b9050919050565b600060208201905081810360008301526139bf816135da565b9050919050565b600060208201905081810360008301526139df816135fd565b9050919050565b60006020820190506139fb6000830184613620565b92915050565b6000613a0b613a1c565b9050613a178282613bb6565b919050565b6000604051905090565b600067ffffffffffffffff821115613a4157613a40613c8e565b5b613a4a82613cbd565b9050602081019050919050565b600081519050919050565b600081519050919050565b600082825260208201905092915050565b600082825260208201905092915050565b600081905092915050565b6000613aa582613b38565b9150613ab083613b38565b925082821015613ac357613ac2613c30565b5b828203905092915050565b6000613ad982613b18565b9050919050565b60008115159050919050565b60007fffffffff0000000000000000000000000000000000000000000000000000000082169050919050565b600073ffffffffffffffffffffffffffffffffffffffff82169050919050565b6000819050919050565b82818337600083830152505050565b60005b83811015613b6f578082015181840152602081019050613b54565b83811115613b7e576000848401525b50505050565b60006002820490506001821680613b9c57607f821691505b60208210811415613bb057613baf613c5f565b5b50919050565b613bbf82613cbd565b810181811067ffffffffffffffff82111715613bde57613bdd613c8e565b5b80604052505050565b6000613bf282613b38565b91507fffffffffffffffffffffffffffffffffffffffffffffffffffffffffffffffff821415613c2557613c24613c30565b5b600182019050919050565b7f4e487b7100000000000000000000000000000000000000000000000000000000600052601160045260246000fd5b7f4e487b7100000000000000000000000000000000000000000000000000000000600052602260045260246000fd5b7f4e487b7100000000000000000000000000000000000000000000000000000000600052604160045260246000fd5b6000601f19601f8301169050919050565b7f4552433732315061757361626c653a20746f6b656e207472616e73666572207760008201527f68696c6520706175736564000000000000000000000000000000000000000000602082015250565b7f5061757361626c653a206e6f7420706175736564000000000000000000000000600082015250565b7f4552433732313a2063616c6c6572206973206e6f7420746f6b656e206f776e6560008201527f72206f7220617070726f76656400000000000000000000000000000000000000602082015250565b7f455243373231456e756d657261626c653a206f776e657220696e646578206f7560008201527f74206f6620626f756e6473000000000000000000000000000000000000000000602082015250565b7f4552433732313a207472616e7366657220746f206e6f6e20455243373231526560008201527f63656976657220696d706c656d656e7465720000000000000000000000000000602082015250565b7f4f776e61626c653a206e6577206f776e657220697320746865207a65726f206160008201527f6464726573730000000000000000000000000000000000000000000000000000602082015250565b7f4552433732313a207472616e736665722066726f6d20696e636f72726563742060008201527f6f776e6572000000000000000000000000000000000000000000000000000000602082015250565b7f4552433732313a20746f6b656e20616c7265616479206d696e74656400000000600082015250565b7f4552433732313a207472616e7366657220746f20746865207a65726f2061646460008201527f7265737300000000000000000000000000000000000000000000000000000000602082015250565b7f4552433732313a20617070726f766520746f2063616c6c657200000000000000600082015250565b7f5061757361626c653a2070617573656400000000000000000000000000000000600082015250565b7f4552433732313a2061646472657373207a65726f206973206e6f74206120766160008201527f6c6964206f776e65720000000000000000000000000000000000000000000000602082015250565b7f45524337323155524953746f726167653a2055524920736574206f66206e6f6e60008201527f6578697374656e7420746f6b656e000000000000000000000000000000000000602082015250565b7f496e697469616c697a61626c653a20636f6e747261637420697320616c72656160008201527f647920696e697469616c697a6564000000000000000000000000000000000000602082015250565b7f4552433732313a206d696e7420746f20746865207a65726f2061646472657373600082015250565b7f2e6a736f6e000000000000000000000000000000000000000000000000000000600082015250565b7f4f776e61626c653a2063616c6c6572206973206e6f7420746865206f776e6572600082015250565b7f4552433732313a20696e76616c696420746f6b656e2049440000000000000000600082015250565b7f4552433732313a20617070726f76616c20746f2063757272656e74206f776e6560008201527f7200000000000000000000000000000000000000000000000000000000000000602082015250565b7f4552433732313a20617070726f76652063616c6c6572206973206e6f7420746f60008201527f6b656e206f776e6572206f7220617070726f76656420666f7220616c6c000000602082015250565b7f455243373231456e756d657261626c653a20676c6f62616c20696e646578206f60008201527f7574206f6620626f756e64730000000000000000000000000000000000000000602082015250565b7f496e697469616c697a61626c653a20636f6e7472616374206973206e6f74206960008201527f6e697469616c697a696e67000000000000000000000000000000000000000000602082015250565b7f455243373231456e756d657261626c653a20636f6e736563757469766520747260008201527f616e7366657273206e6f7420737570706f727465640000000000000000000000602082015250565b6142c081613ace565b81146142cb57600080fd5b50565b6142d781613ae0565b81146142e257600080fd5b50565b6142ee81613aec565b81146142f957600080fd5b50565b61430581613b38565b811461431057600080fd5b5056fea26469706673582212200b4e918f931e0d31eb2221c5e17e27d6ab0b13a73e1c3a2aeefff7a78ba5647164736f6c63430008010033",
  "linkReferences": {},
  "deployedLinkReferences": {},
  "immutableReferences": {},
  "inputSourceName": "project/contracts/myToken.sol",
  "devdoc": {
    "kind": "dev",
    "methods": {
      "approve(address,uint256)": {
        "details": "See {IERC721-approve}."
      },
      "balanceOf(address)": {
        "details": "See {IERC721-balanceOf}."
      },
      "getApproved(uint256)": {
        "details": "See {IERC721-getApproved}."
      },
      "isApprovedForAll(address,address)": {
        "details": "See {IERC721-isApprovedForAll}."
      },
      "name()": {
        "details": "See {IERC721Metadata-name}."
      },
      "owner()": {
        "details": "Returns the address of the current owner."
      },
      "ownerOf(uint256)": {
        "details": "See {IERC721-ownerOf}."
      },
      "paused()": {
        "details": "Returns true if the contract is paused, and false otherwise."
      },
      "renounceOwnership()": {
        "details": "Leaves the contract without owner. It will not be possible to call `onlyOwner` functions. Can only be called by the current owner. NOTE: Renouncing ownership will leave the contract without an owner, thereby disabling any functionality that is only available to the owner."
      },
      "safeTransferFrom(address,address,uint256)": {
        "details": "See {IERC721-safeTransferFrom}."
      },
      "safeTransferFrom(address,address,uint256,bytes)": {
        "details": "See {IERC721-safeTransferFrom}."
      },
      "setApprovalForAll(address,bool)": {
        "details": "See {IERC721-setApprovalForAll}."
      },
      "symbol()": {
        "details": "See {IERC721Metadata-symbol}."
      },
      "tokenByIndex(uint256)": {
        "details": "See {IERC721Enumerable-tokenByIndex}."
      },
      "tokenOfOwnerByIndex(address,uint256)": {
        "details": "See {IERC721Enumerable-tokenOfOwnerByIndex}."
      },
      "totalSupply()": {
        "details": "See {IERC721Enumerable-totalSupply}."
      },
      "transferFrom(address,address,uint256)": {
        "details": "See {IERC721-transferFrom}."
      },
      "transferOwnership(address)": {
        "details": "Transfers ownership of the contract to a new account (`newOwner`). Can only be called by the current owner."
      }
    },
    "version": 1
  },
  "evm": {
    "gasEstimates": {
      "creation": {
        "codeDepositCost": "3445000",
        "executionCost": "infinite",
        "totalCost": "infinite"
      },
      "external": {
        "approve(address,uint256)": "infinite",
        "balanceOf(address)": "1646",
        "burn(uint256)": "infinite",
        "getApproved(uint256)": "2700",
        "initialize(bytes,bytes,bytes)": "infinite",
        "isApprovedForAll(address,address)": "infinite",
        "name()": "infinite",
        "owner()": "1317",
        "ownerOf(uint256)": "1747",
        "pause()": "infinite",
        "paused()": "1202",
        "renounceOwnership()": "24637",
        "safeMint(address,bytes)": "infinite",
        "safeTransferFrom(address,address,uint256)": "infinite",
        "safeTransferFrom(address,address,uint256,bytes)": "infinite",
        "setApprovalForAll(address,bool)": "infinite",
        "supportsInterface(bytes4)": "1024",
        "symbol()": "infinite",
        "tokenByIndex(uint256)": "infinite",
        "tokenOfOwnerByIndex(address,uint256)": "infinite",
        "tokenURI(uint256)": "infinite",
        "totalSupply()": "1257",
        "transferFrom(address,address,uint256)": "infinite",
        "transferOwnership(address)": "25007",
        "unpause()": "infinite"
      },
      "internal": {
        "_baseURI()": "infinite",
        "_beforeTokenTransfer(address,address,uint256,uint256)": "infinite",
        "_burn(uint256)": "infinite"
      }
    }
  },
  "storageLayout": {
    "storage": [
      {
        "astId": 1791,
        "contract": "project/contracts/myToken.sol:MyToken",
        "label": "_initialized",
        "offset": 0,
        "slot": "0",
        "type": "t_bool"
      },
      {
        "astId": 1794,
        "contract": "project/contracts/myToken.sol:MyToken",
        "label": "_initializing",
        "offset": 1,
        "slot": "0",
        "type": "t_bool"
      },
      {
        "astId": 1679,
        "contract": "project/contracts/myToken.sol:MyToken",
        "label": "_owner",
        "offset": 2,
        "slot": "0",
        "type": "t_address"
      },
      {
        "astId": 1994,
        "contract": "project/contracts/myToken.sol:MyToken",
        "label": "_name",
        "offset": 0,
        "slot": "1",
        "type": "t_string_storage"
      },
      {
        "astId": 1996,
        "contract": "project/contracts/myToken.sol:MyToken",
        "label": "_symbol",
        "offset": 0,
        "slot": "2",
        "type": "t_string_storage"
      },
      {
        "astId": 2000,
        "contract": "project/contracts/myToken.sol:MyToken",
        "label": "_owners",
        "offset": 0,
        "slot": "3",
        "type": "t_mapping(t_uint256,t_address)"
      },
      {
        "astId": 2004,
        "contract": "project/contracts/myToken.sol:MyToken",
        "label": "_balances",
        "offset": 0,
        "slot": "4",
        "type": "t_mapping(t_address,t_uint256)"
      },
      {
        "astId": 2008,
        "contract": "project/contracts/myToken.sol:MyToken",
        "label": "_tokenApprovals",
        "offset": 0,
        "slot": "5",
        "type": "t_mapping(t_uint256,t_address)"
      },
      {
        "astId": 2014,
        "contract": "project/contracts/myToken.sol:MyToken",
        "label": "_operatorApprovals",
        "offset": 0,
        "slot": "6",
        "type": "t_mapping(t_address,t_mapping(t_address,t_bool))"
      },
      {
        "astId": 1876,
        "contract": "project/contracts/myToken.sol:MyToken",
        "label": "_paused",
        "offset": 0,
        "slot": "7",
        "type": "t_bool"
      },
      {
        "astId": 2929,
        "contract": "project/contracts/myToken.sol:MyToken",
        "label": "_ownedTokens",
        "offset": 0,
        "slot": "8",
        "type": "t_mapping(t_address,t_mapping(t_uint256,t_uint256))"
      },
      {
        "astId": 2933,
        "contract": "project/contracts/myToken.sol:MyToken",
        "label": "_ownedTokensIndex",
        "offset": 0,
        "slot": "9",
        "type": "t_mapping(t_uint256,t_uint256)"
      },
      {
        "astId": 2936,
        "contract": "project/contracts/myToken.sol:MyToken",
        "label": "_allTokens",
        "offset": 0,
        "slot": "10",
        "type": "t_array(t_uint256)dyn_storage"
      },
      {
        "astId": 2940,
        "contract": "project/contracts/myToken.sol:MyToken",
        "label": "_allTokensIndex",
        "offset": 0,
        "slot": "11",
        "type": "t_mapping(t_uint256,t_uint256)"
      },
      {
        "astId": 3324,
        "contract": "project/contracts/myToken.sol:MyToken",
        "label": "_tokenURIs",
        "offset": 0,
        "slot": "12",
        "type": "t_mapping(t_uint256,t_string_storage)"
      },
      {
        "astId": 1483,
        "contract": "project/contracts/myToken.sol:MyToken",
        "label": "_nextTokenId",
        "offset": 0,
        "slot": "13",
        "type": "t_uint256"
      },
      {
        "astId": 1485,
        "contract": "project/contracts/myToken.sol:MyToken",
        "label": "baseURI",
        "offset": 0,
        "slot": "14",
        "type": "t_string_storage"
      }
    ],
    "types": {
      "t_address": {
        "encoding": "inplace",
        "label": "address",
        "numberOfBytes": "20"
      },
      "t_array(t_uint256)dyn_storage": {
        "base": "t_uint256",
        "encoding": "dynamic_array",
        "label": "uint256[]",
        "numberOfBytes": "32"
      },
      "t_bool": {
        "encoding": "inplace",
        "label": "bool",
        "numberOfBytes": "1"
      },
      "t_mapping(t_address,t_bool)": {
        "encoding": "mapping",
        "key": "t_address",
        "label": "mapping(address => bool)",
        "numberOfBytes": "32",
        "value": "t_bool"
      },
      "t_mapping(t_address,t_mapping(t_address,t_bool))": {
        "encoding": "mapping",
        "key": "t_address",
        "label": "mapping(address => mapping(address => bool))",
        "numberOfBytes": "32",
        "value": "t_mapping(t_address,t_bool)"
      },
      "t_mapping(t_address,t_mapping(t_uint256,t_uint256))": {
        "encoding": "mapping",
        "key": "t_address",
        "label": "mapping(address => mapping(uint256 => uint256))",
        "numberOfBytes": "32",
        "value": "t_mapping(t_uint256,t_uint256)"
      },
      "t_mapping(t_address,t_uint256)": {
        "encoding": "mapping",
        "key": "t_address",
        "label": "mapping(address => uint256)",
        "numberOfBytes": "32",
        "value": "t_uint256"
      },
      "t_mapping(t_uint256,t_address)": {
        "encoding": "mapping",
        "key": "t_uint256",
        "label": "mapping(uint256 => address)",
        "numberOfBytes": "32",
        "value": "t_address"
      },
      "t_mapping(t_uint256,t_string_storage)": {
        "encoding": "mapping",
        "key": "t_uint256",
        "label": "mapping(uint256 => string)",
        "numberOfBytes": "32",
        "value": "t_string_storage"
      },
      "t_mapping(t_uint256,t_uint256)": {
        "encoding": "mapping",
        "key": "t_uint256",
        "label": "mapping(uint256 => uint256)",
        "numberOfBytes": "32",
        "value": "t_uint256"
      },
      "t_string_storage": {
        "encoding": "bytes",
        "label": "string",
        "numberOfBytes": "32"
      },
      "t_uint256": {
        "encoding": "inplace",
        "label": "uint256",
        "numberOfBytes": "32"
      }
    }
  },
  "userdoc": {
    "kind": "user",
    "methods": {},
    "version": 1
  },
  "argsData": "0x",
  "transaction": {
    "hash": "0xcf3c7d3b4bdf93bde4e7cfa486874d235954487d1b367b389a3213f033f7f575",
    "nonce": "0x1",
    "origin": "0xf39fd6e51aad88f6f4ce6ab8827279cfffb92266"
  }
}