{
	"upgradeContract/v2/proxy.sol": {
		"ERC1967Proxy": {
			"abi": [
				{
					"inputs": [],
					"stateMutability": "payable",
					"type": "constructor"
				},
				{
					"anonymous": false,
					"inputs": [
						{
							"indexed": false,
							"internalType": "address",
							"name": "previousAdmin",
							"type": "address"
						},
						{
							"indexed": false,
							"internalType": "address",
							"name": "newAdmin",
							"type": "address"
						}
					],
					"name": "AdminChanged",
					"type": "event"
				},
				{
					"anonymous": false,
					"inputs": [
						{
							"indexed": true,
							"internalType": "address",
							"name": "beacon",
							"type": "address"
						}
					],
					"name": "BeaconUpgraded",
					"type": "event"
				},
				{
					"anonymous": false,
					"inputs": [
						{
							"indexed": true,
							"internalType": "address",
							"name": "implementation",
							"type": "address"
						}
					],
					"name": "Upgraded",
					"type": "event"
				},
				{
					"stateMutability": "payable",
					"type": "fallback"
				},
				{
					"inputs": [
						{
							"internalType": "address",
							"name": "implementation",
							"type": "address"
						},
						{
							"internalType": "bytes",
							"name": "_data",
							"type": "bytes"
						}
					],
					"name": "InitProxy",
					"outputs": [],
					"stateMutability": "nonpayable",
					"type": "function"
				},
				{
					"stateMutability": "payable",
					"type": "receive"
				}
			],
			"devdoc": {
				"details": "This contract implements an upgradeable proxy. It is upgradeable because calls are delegated to an implementation address that can be changed. This address is stored in storage in the location specified by https://eips.ethereum.org/EIPS/eip-1967[ERC-1967], so that it doesn't conflict with the storage layout of the implementation behind the proxy.",
				"kind": "dev",
				"methods": {},
				"version": 1
			},
			"evm": {
				"assembly": "    /* \"upgradeContract/v2/proxy.sol\":924:5123  contract ERC1967Proxy is Proxy , ERC1967Upgrade {\r... */\n  mstore(0x40, 0x80)\n    /* \"upgradeContract/v2/proxy.sol\":2930:2954  _setProyOwnableStorage() */\n  tag_3\n    /* \"upgradeContract/v2/proxy.sol\":2930:2952  _setProyOwnableStorage */\n  shl(0x20, tag_4)\n    /* \"upgradeContract/v2/proxy.sol\":2930:2954  _setProyOwnableStorage() */\n  0x20\n  shr\n  jump\t// in\ntag_3:\n    /* \"upgradeContract/v2/proxy.sol\":924:5123  contract ERC1967Proxy is Proxy , ERC1967Upgrade {\r... */\n  jump(tag_5)\n    /* \"upgradeContract/v2/proxy.sol\":3560:3719  function _setProyOwnableStorage() private  {\r... */\ntag_4:\n    /* \"upgradeContract/v2/proxy.sol\":3614:3643  ProxyOwnableStorage storage $ */\n  0x00\n    /* \"upgradeContract/v2/proxy.sol\":3646:3679  _getProxyOwnableStorageLocation() */\n  tag_7\n    /* \"upgradeContract/v2/proxy.sol\":3646:3677  _getProxyOwnableStorageLocation */\n  shl(0x20, tag_8)\n    /* \"upgradeContract/v2/proxy.sol\":3646:3679  _getProxyOwnableStorageLocation() */\n  0x20\n  shr\n  jump\t// in\ntag_7:\n    /* \"upgradeContract/v2/proxy.sol\":3614:3679  ProxyOwnableStorage storage $ = _getProxyOwnableStorageLocation() */\n  swap1\n  pop\n    /* \"upgradeContract/v2/proxy.sol\":3701:3711  msg.sender */\n  caller\n    /* \"upgradeContract/v2/proxy.sol\":3690:3691  $ */\n  dup2\n    /* \"upgradeContract/v2/proxy.sol\":3690:3698  $._owner */\n  0x00\n  add\n  0x00\n    /* \"upgradeContract/v2/proxy.sol\":3690:3711  $._owner = msg.sender */\n  0x0100\n  exp\n  dup2\n  sload\n  dup2\n  0xffffffffffffffffffffffffffffffffffffffff\n  mul\n  not\n  and\n  swap1\n  dup4\n  0xffffffffffffffffffffffffffffffffffffffff\n  and\n  mul\n  or\n  swap1\n  sstore\n  pop\n    /* \"upgradeContract/v2/proxy.sol\":3560:3719  function _setProyOwnableStorage() private  {\r... */\n  pop\n  jump\t// out\n    /* \"upgradeContract/v2/proxy.sol\":3390:3552  function _getProxyOwnableStorageLocation() private pure returns(ProxyOwnableStorage storage $){\r... */\ntag_8:\n    /* \"upgradeContract/v2/proxy.sol\":3454:3483  ProxyOwnableStorage storage $ */\n  0x00\n    /* \"upgradeContract/v2/proxy.sol\":3516:3543  ProxyOwnableStorageLocation */\n  0x92cef8c4ccaa2a6db286f574c78bc46415e24fe9a533e0453d051ad93ca0dd00\n    /* \"upgradeContract/v2/proxy.sol\":3506:3543  $.slot := ProxyOwnableStorageLocation */\n  swap1\n  pop\n    /* \"upgradeContract/v2/proxy.sol\":3504:3545  { $.slot := ProxyOwnableStorageLocation } */\n  swap1\n  jump\t// out\n    /* \"upgradeContract/v2/proxy.sol\":924:5123  contract ERC1967Proxy is Proxy , ERC1967Upgrade {\r... */\ntag_5:\n  dataSize(sub_0)\n  dup1\n  dataOffset(sub_0)\n  0x00\n  codecopy\n  0x00\n  return\nstop\n\nsub_0: assembly {\n        /* \"upgradeContract/v2/proxy.sol\":924:5123  contract ERC1967Proxy is Proxy , ERC1967Upgrade {\r... */\n      mstore(0x40, 0x80)\n      jumpi(tag_1, lt(calldatasize, 0x04))\n      shr(0xe0, calldataload(0x00))\n      dup1\n      0x43869334\n      eq\n      tag_3\n      jumpi\n      jump(tag_2)\n    tag_1:\n      jumpi(tag_2, calldatasize)\n        /* \"@openzeppelin/contracts@4.9.6/proxy/Proxy.sol\":2898:2909  _fallback() */\n      tag_6\n        /* \"@openzeppelin/contracts@4.9.6/proxy/Proxy.sol\":2898:2907  _fallback */\n      tag_7\n        /* \"@openzeppelin/contracts@4.9.6/proxy/Proxy.sol\":2898:2909  _fallback() */\n      jump\t// in\n    tag_6:\n        /* \"upgradeContract/v2/proxy.sol\":924:5123  contract ERC1967Proxy is Proxy , ERC1967Upgrade {\r... */\n      stop\n    tag_2:\n        /* \"@openzeppelin/contracts@4.9.6/proxy/Proxy.sol\":2675:2686  _fallback() */\n      tag_10\n        /* \"@openzeppelin/contracts@4.9.6/proxy/Proxy.sol\":2675:2684  _fallback */\n      tag_7\n        /* \"@openzeppelin/contracts@4.9.6/proxy/Proxy.sol\":2675:2686  _fallback() */\n      jump\t// in\n    tag_10:\n        /* \"upgradeContract/v2/proxy.sol\":924:5123  contract ERC1967Proxy is Proxy , ERC1967Upgrade {\r... */\n      stop\n        /* \"upgradeContract/v2/proxy.sol\":3957:4160  function InitProxy (address implementation, bytes memory _data) external onlyOwner initializer {\r... */\n    tag_3:\n      callvalue\n      dup1\n      iszero\n      tag_11\n      jumpi\n      0x00\n      dup1\n      revert\n    tag_11:\n      pop\n      tag_12\n      0x04\n      dup1\n      calldatasize\n      sub\n      dup2\n      add\n      swap1\n      tag_13\n      swap2\n      swap1\n      tag_14\n      jump\t// in\n    tag_13:\n      tag_15\n      jump\t// in\n    tag_12:\n      stop\n        /* \"@openzeppelin/contracts@4.9.6/proxy/Proxy.sol\":2322:2432  function _fallback() internal virtual {... */\n    tag_7:\n        /* \"@openzeppelin/contracts@4.9.6/proxy/Proxy.sol\":2370:2387  _beforeFallback() */\n      tag_17\n        /* \"@openzeppelin/contracts@4.9.6/proxy/Proxy.sol\":2370:2385  _beforeFallback */\n      tag_18\n        /* \"@openzeppelin/contracts@4.9.6/proxy/Proxy.sol\":2370:2387  _beforeFallback() */\n      jump\t// in\n    tag_17:\n        /* \"@openzeppelin/contracts@4.9.6/proxy/Proxy.sol\":2397:2425  _delegate(_implementation()) */\n      tag_19\n        /* \"@openzeppelin/contracts@4.9.6/proxy/Proxy.sol\":2407:2424  _implementation() */\n      tag_20\n        /* \"@openzeppelin/contracts@4.9.6/proxy/Proxy.sol\":2407:2422  _implementation */\n      tag_21\n        /* \"@openzeppelin/contracts@4.9.6/proxy/Proxy.sol\":2407:2424  _implementation() */\n      jump\t// in\n    tag_20:\n        /* \"@openzeppelin/contracts@4.9.6/proxy/Proxy.sol\":2397:2406  _delegate */\n      tag_22\n        /* \"@openzeppelin/contracts@4.9.6/proxy/Proxy.sol\":2397:2425  _delegate(_implementation()) */\n      jump\t// in\n    tag_19:\n        /* \"@openzeppelin/contracts@4.9.6/proxy/Proxy.sol\":2322:2432  function _fallback() internal virtual {... */\n      jump\t// out\n        /* \"upgradeContract/v2/proxy.sol\":3957:4160  function InitProxy (address implementation, bytes memory _data) external onlyOwner initializer {\r... */\n    tag_15:\n        /* \"upgradeContract/v2/proxy.sol\":4199:4228  ProxyOwnableStorage storage $ */\n      0x00\n        /* \"upgradeContract/v2/proxy.sol\":4231:4264  _getProxyOwnableStorageLocation() */\n      tag_24\n        /* \"upgradeContract/v2/proxy.sol\":4231:4262  _getProxyOwnableStorageLocation */\n      tag_25\n        /* \"upgradeContract/v2/proxy.sol\":4231:4264  _getProxyOwnableStorageLocation() */\n      jump\t// in\n    tag_24:\n        /* \"upgradeContract/v2/proxy.sol\":4199:4264  ProxyOwnableStorage storage $ = _getProxyOwnableStorageLocation() */\n      swap1\n      pop\n        /* \"upgradeContract/v2/proxy.sol\":4275:4288  address owner */\n      0x00\n        /* \"upgradeContract/v2/proxy.sol\":4291:4292  $ */\n      dup2\n        /* \"upgradeContract/v2/proxy.sol\":4291:4299  $._owner */\n      0x00\n      add\n      0x00\n      swap1\n      sload\n      swap1\n      0x0100\n      exp\n      swap1\n      div\n      0xffffffffffffffffffffffffffffffffffffffff\n      and\n        /* \"upgradeContract/v2/proxy.sol\":4275:4299  address owner = $._owner */\n      swap1\n      pop\n        /* \"upgradeContract/v2/proxy.sol\":4327:4337  msg.sender */\n      caller\n        /* \"upgradeContract/v2/proxy.sol\":4318:4337  owner == msg.sender */\n      0xffffffffffffffffffffffffffffffffffffffff\n      and\n        /* \"upgradeContract/v2/proxy.sol\":4318:4323  owner */\n      dup2\n        /* \"upgradeContract/v2/proxy.sol\":4318:4337  owner == msg.sender */\n      0xffffffffffffffffffffffffffffffffffffffff\n      and\n      eq\n        /* \"upgradeContract/v2/proxy.sol\":4310:4373  require(owner == msg.sender,\"Ownable: caller is not the owner\") */\n      tag_26\n      jumpi\n      mload(0x40)\n      0x08c379a000000000000000000000000000000000000000000000000000000000\n      dup2\n      mstore\n      0x04\n      add\n      tag_27\n      swap1\n      tag_28\n      jump\t// in\n    tag_27:\n      mload(0x40)\n      dup1\n      swap2\n      sub\n      swap1\n      revert\n    tag_26:\n        /* \"upgradeContract/v2/proxy.sol\":4434:4463  ProxyOwnableStorage storage $ */\n      0x00\n        /* \"upgradeContract/v2/proxy.sol\":4466:4499  _getProxyOwnableStorageLocation() */\n      tag_30\n        /* \"upgradeContract/v2/proxy.sol\":4466:4497  _getProxyOwnableStorageLocation */\n      tag_25\n        /* \"upgradeContract/v2/proxy.sol\":4466:4499  _getProxyOwnableStorageLocation() */\n      jump\t// in\n    tag_30:\n        /* \"upgradeContract/v2/proxy.sol\":4434:4499  ProxyOwnableStorage storage $ = _getProxyOwnableStorageLocation() */\n      swap1\n      pop\n        /* \"upgradeContract/v2/proxy.sol\":4535:4536  1 */\n      0x01\n        /* \"upgradeContract/v2/proxy.sol\":4518:4519  $ */\n      dup2\n        /* \"upgradeContract/v2/proxy.sol\":4518:4532  $._initialized */\n      0x00\n      add\n      0x14\n      swap1\n      sload\n      swap1\n      0x0100\n      exp\n      swap1\n      div\n      0xff\n      and\n        /* \"upgradeContract/v2/proxy.sol\":4518:4536  $._initialized < 1 */\n      0xff\n      and\n      lt\n        /* \"upgradeContract/v2/proxy.sol\":4510:4586  require($._initialized < 1,\"Initializable: contract is already initialized\") */\n      tag_31\n      jumpi\n      mload(0x40)\n      0x08c379a000000000000000000000000000000000000000000000000000000000\n      dup2\n      mstore\n      0x04\n      add\n      tag_32\n      swap1\n      tag_33\n      jump\t// in\n    tag_32:\n      mload(0x40)\n      dup1\n      swap2\n      sub\n      swap1\n      revert\n    tag_31:\n        /* \"upgradeContract/v2/proxy.sol\":4063:4080  _setInitialized() */\n      tag_35\n        /* \"upgradeContract/v2/proxy.sol\":4063:4078  _setInitialized */\n      tag_36\n        /* \"upgradeContract/v2/proxy.sol\":4063:4080  _setInitialized() */\n      jump\t// in\n    tag_35:\n        /* \"upgradeContract/v2/proxy.sol\":4091:4152  ERC1967Upgrade._upgradeToAndCall(implementation, _data,false) */\n      tag_37\n        /* \"upgradeContract/v2/proxy.sol\":4124:4138  implementation */\n      dup6\n        /* \"upgradeContract/v2/proxy.sol\":4140:4145  _data */\n      dup6\n        /* \"upgradeContract/v2/proxy.sol\":4146:4151  false */\n      0x00\n        /* \"upgradeContract/v2/proxy.sol\":4091:4123  ERC1967Upgrade._upgradeToAndCall */\n      tag_38\n        /* \"upgradeContract/v2/proxy.sol\":4091:4152  ERC1967Upgrade._upgradeToAndCall(implementation, _data,false) */\n      jump\t// in\n    tag_37:\n        /* \"upgradeContract/v2/proxy.sol\":4384:4385  _ */\n      pop\n        /* \"upgradeContract/v2/proxy.sol\":3957:4160  function InitProxy (address implementation, bytes memory _data) external onlyOwner initializer {\r... */\n      pop\n      pop\n      pop\n      pop\n      jump\t// out\n        /* \"@openzeppelin/contracts@4.9.6/proxy/Proxy.sol\":3198:3244  function _beforeFallback() internal virtual {} */\n    tag_18:\n      jump\t// out\n        /* \"upgradeContract/v2/proxy.sol\":4983:5120  function _implementation() internal view virtual override returns (address) {\r... */\n    tag_21:\n        /* \"upgradeContract/v2/proxy.sol\":5050:5057  address */\n      0x00\n        /* \"upgradeContract/v2/proxy.sol\":5077:5112  ERC1967Upgrade._getImplementation() */\n      tag_41\n        /* \"upgradeContract/v2/proxy.sol\":5077:5110  ERC1967Upgrade._getImplementation */\n      tag_42\n        /* \"upgradeContract/v2/proxy.sol\":5077:5112  ERC1967Upgrade._getImplementation() */\n      jump\t// in\n    tag_41:\n        /* \"upgradeContract/v2/proxy.sol\":5070:5112  return ERC1967Upgrade._getImplementation() */\n      swap1\n      pop\n        /* \"upgradeContract/v2/proxy.sol\":4983:5120  function _implementation() internal view virtual override returns (address) {\r... */\n      swap1\n      jump\t// out\n        /* \"@openzeppelin/contracts@4.9.6/proxy/Proxy.sol\":948:1843  function _delegate(address implementation) internal virtual {... */\n    tag_22:\n        /* \"@openzeppelin/contracts@4.9.6/proxy/Proxy.sol\":1286:1300  calldatasize() */\n      calldatasize\n        /* \"@openzeppelin/contracts@4.9.6/proxy/Proxy.sol\":1283:1284  0 */\n      0x00\n        /* \"@openzeppelin/contracts@4.9.6/proxy/Proxy.sol\":1280:1281  0 */\n      dup1\n        /* \"@openzeppelin/contracts@4.9.6/proxy/Proxy.sol\":1267:1301  calldatacopy(0, 0, calldatasize()) */\n      calldatacopy\n        /* \"@openzeppelin/contracts@4.9.6/proxy/Proxy.sol\":1500:1501  0 */\n      0x00\n        /* \"@openzeppelin/contracts@4.9.6/proxy/Proxy.sol\":1497:1498  0 */\n      dup1\n        /* \"@openzeppelin/contracts@4.9.6/proxy/Proxy.sol\":1481:1495  calldatasize() */\n      calldatasize\n        /* \"@openzeppelin/contracts@4.9.6/proxy/Proxy.sol\":1478:1479  0 */\n      0x00\n        /* \"@openzeppelin/contracts@4.9.6/proxy/Proxy.sol\":1462:1476  implementation */\n      dup5\n        /* \"@openzeppelin/contracts@4.9.6/proxy/Proxy.sol\":1455:1460  gas() */\n      gas\n        /* \"@openzeppelin/contracts@4.9.6/proxy/Proxy.sol\":1442:1502  delegatecall(gas(), implementation, 0, calldatasize(), 0, 0) */\n      delegatecall\n        /* \"@openzeppelin/contracts@4.9.6/proxy/Proxy.sol\":1576:1592  returndatasize() */\n      returndatasize\n        /* \"@openzeppelin/contracts@4.9.6/proxy/Proxy.sol\":1573:1574  0 */\n      0x00\n        /* \"@openzeppelin/contracts@4.9.6/proxy/Proxy.sol\":1570:1571  0 */\n      dup1\n        /* \"@openzeppelin/contracts@4.9.6/proxy/Proxy.sol\":1555:1593  returndatacopy(0, 0, returndatasize()) */\n      returndatacopy\n        /* \"@openzeppelin/contracts@4.9.6/proxy/Proxy.sol\":1614:1620  result */\n      dup1\n        /* \"@openzeppelin/contracts@4.9.6/proxy/Proxy.sol\":1686:1687  0 */\n      0x00\n        /* \"@openzeppelin/contracts@4.9.6/proxy/Proxy.sol\":1681:1747  case 0 {... */\n      dup2\n      eq\n      tag_45\n      jumpi\n        /* \"@openzeppelin/contracts@4.9.6/proxy/Proxy.sol\":1796:1812  returndatasize() */\n      returndatasize\n        /* \"@openzeppelin/contracts@4.9.6/proxy/Proxy.sol\":1793:1794  0 */\n      0x00\n        /* \"@openzeppelin/contracts@4.9.6/proxy/Proxy.sol\":1786:1813  return(0, returndatasize()) */\n      return\n        /* \"@openzeppelin/contracts@4.9.6/proxy/Proxy.sol\":1681:1747  case 0 {... */\n    tag_45:\n        /* \"@openzeppelin/contracts@4.9.6/proxy/Proxy.sol\":1716:1732  returndatasize() */\n      returndatasize\n        /* \"@openzeppelin/contracts@4.9.6/proxy/Proxy.sol\":1713:1714  0 */\n      0x00\n        /* \"@openzeppelin/contracts@4.9.6/proxy/Proxy.sol\":1706:1733  revert(0, returndatasize()) */\n      revert\n        /* \"upgradeContract/v2/proxy.sol\":3390:3552  function _getProxyOwnableStorageLocation() private pure returns(ProxyOwnableStorage storage $){\r... */\n    tag_25:\n        /* \"upgradeContract/v2/proxy.sol\":3454:3483  ProxyOwnableStorage storage $ */\n      0x00\n        /* \"upgradeContract/v2/proxy.sol\":3516:3543  ProxyOwnableStorageLocation */\n      0x92cef8c4ccaa2a6db286f574c78bc46415e24fe9a533e0453d051ad93ca0dd00\n        /* \"upgradeContract/v2/proxy.sol\":3506:3543  $.slot := ProxyOwnableStorageLocation */\n      swap1\n      pop\n        /* \"upgradeContract/v2/proxy.sol\":3504:3545  { $.slot := ProxyOwnableStorageLocation } */\n      swap1\n      jump\t// out\n        /* \"upgradeContract/v2/proxy.sol\":3727:3874  function _setInitialized() private{\r... */\n    tag_36:\n        /* \"upgradeContract/v2/proxy.sol\":3772:3801  ProxyOwnableStorage storage $ */\n      0x00\n        /* \"upgradeContract/v2/proxy.sol\":3804:3837  _getProxyOwnableStorageLocation() */\n      tag_48\n        /* \"upgradeContract/v2/proxy.sol\":3804:3835  _getProxyOwnableStorageLocation */\n      tag_25\n        /* \"upgradeContract/v2/proxy.sol\":3804:3837  _getProxyOwnableStorageLocation() */\n      jump\t// in\n    tag_48:\n        /* \"upgradeContract/v2/proxy.sol\":3772:3837  ProxyOwnableStorage storage $ = _getProxyOwnableStorageLocation() */\n      swap1\n      pop\n        /* \"upgradeContract/v2/proxy.sol\":3865:3866  1 */\n      0x01\n        /* \"upgradeContract/v2/proxy.sol\":3848:3849  $ */\n      dup2\n        /* \"upgradeContract/v2/proxy.sol\":3848:3862  $._initialized */\n      0x00\n      add\n      0x14\n        /* \"upgradeContract/v2/proxy.sol\":3848:3866  $._initialized = 1 */\n      0x0100\n      exp\n      dup2\n      sload\n      dup2\n      0xff\n      mul\n      not\n      and\n      swap1\n      dup4\n      0xff\n      and\n      mul\n      or\n      swap1\n      sstore\n      pop\n        /* \"upgradeContract/v2/proxy.sol\":3727:3874  function _setInitialized() private{\r... */\n      pop\n      jump\t// out\n        /* \"upgradeContract/v2/openzeppelin_L/contracts/proxy/ERC1967/ERC1967Upgrade.sol\":2272:2542  function _upgradeToAndCall(address newImplementation, bytes memory data, bool forceCall) internal {\r... */\n    tag_38:\n        /* \"upgradeContract/v2/openzeppelin_L/contracts/proxy/ERC1967/ERC1967Upgrade.sol\":2381:2410  _upgradeTo(newImplementation) */\n      tag_50\n        /* \"upgradeContract/v2/openzeppelin_L/contracts/proxy/ERC1967/ERC1967Upgrade.sol\":2392:2409  newImplementation */\n      dup4\n        /* \"upgradeContract/v2/openzeppelin_L/contracts/proxy/ERC1967/ERC1967Upgrade.sol\":2381:2391  _upgradeTo */\n      tag_51\n        /* \"upgradeContract/v2/openzeppelin_L/contracts/proxy/ERC1967/ERC1967Upgrade.sol\":2381:2410  _upgradeTo(newImplementation) */\n      jump\t// in\n    tag_50:\n        /* \"upgradeContract/v2/openzeppelin_L/contracts/proxy/ERC1967/ERC1967Upgrade.sol\":2439:2440  0 */\n      0x00\n        /* \"upgradeContract/v2/openzeppelin_L/contracts/proxy/ERC1967/ERC1967Upgrade.sol\":2425:2429  data */\n      dup3\n        /* \"upgradeContract/v2/openzeppelin_L/contracts/proxy/ERC1967/ERC1967Upgrade.sol\":2425:2436  data.length */\n      mload\n        /* \"upgradeContract/v2/openzeppelin_L/contracts/proxy/ERC1967/ERC1967Upgrade.sol\":2425:2440  data.length > 0 */\n      gt\n        /* \"upgradeContract/v2/openzeppelin_L/contracts/proxy/ERC1967/ERC1967Upgrade.sol\":2425:2453  data.length > 0 || forceCall */\n      dup1\n      tag_52\n      jumpi\n      pop\n        /* \"upgradeContract/v2/openzeppelin_L/contracts/proxy/ERC1967/ERC1967Upgrade.sol\":2444:2453  forceCall */\n      dup1\n        /* \"upgradeContract/v2/openzeppelin_L/contracts/proxy/ERC1967/ERC1967Upgrade.sol\":2425:2453  data.length > 0 || forceCall */\n    tag_52:\n        /* \"upgradeContract/v2/openzeppelin_L/contracts/proxy/ERC1967/ERC1967Upgrade.sol\":2421:2535  if (data.length > 0 || forceCall) {\r... */\n      iszero\n      tag_53\n      jumpi\n        /* \"upgradeContract/v2/openzeppelin_L/contracts/proxy/ERC1967/ERC1967Upgrade.sol\":2470:2523  Address.functionDelegateCall(newImplementation, data) */\n      tag_54\n        /* \"upgradeContract/v2/openzeppelin_L/contracts/proxy/ERC1967/ERC1967Upgrade.sol\":2499:2516  newImplementation */\n      dup4\n        /* \"upgradeContract/v2/openzeppelin_L/contracts/proxy/ERC1967/ERC1967Upgrade.sol\":2518:2522  data */\n      dup4\n        /* \"upgradeContract/v2/openzeppelin_L/contracts/proxy/ERC1967/ERC1967Upgrade.sol\":2470:2498  Address.functionDelegateCall */\n      tag_55\n        /* \"upgradeContract/v2/openzeppelin_L/contracts/proxy/ERC1967/ERC1967Upgrade.sol\":2470:2523  Address.functionDelegateCall(newImplementation, data) */\n      jump\t// in\n    tag_54:\n      pop\n        /* \"upgradeContract/v2/openzeppelin_L/contracts/proxy/ERC1967/ERC1967Upgrade.sol\":2421:2535  if (data.length > 0 || forceCall) {\r... */\n    tag_53:\n        /* \"upgradeContract/v2/openzeppelin_L/contracts/proxy/ERC1967/ERC1967Upgrade.sol\":2272:2542  function _upgradeToAndCall(address newImplementation, bytes memory data, bool forceCall) internal {\r... */\n      pop\n      pop\n      pop\n      jump\t// out\n        /* \"upgradeContract/v2/openzeppelin_L/contracts/proxy/ERC1967/ERC1967Upgrade.sol\":1363:1505  function _getImplementation() internal view returns (address) {\r... */\n    tag_42:\n        /* \"upgradeContract/v2/openzeppelin_L/contracts/proxy/ERC1967/ERC1967Upgrade.sol\":1416:1423  address */\n      0x00\n        /* \"upgradeContract/v2/openzeppelin_L/contracts/proxy/ERC1967/ERC1967Upgrade.sol\":1443:1491  StorageSlot.getAddressSlot(_IMPLEMENTATION_SLOT) */\n      tag_57\n        /* \"upgradeContract/v2/openzeppelin_L/contracts/proxy/ERC1967/ERC1967Upgrade.sol\":1213:1279  0x360894a13ba1a3210667c828492db98dca3e2076cc3735a920a3ca505d382bbc */\n      0x360894a13ba1a3210667c828492db98dca3e2076cc3735a920a3ca505d382bbc\n        /* \"upgradeContract/v2/openzeppelin_L/contracts/proxy/ERC1967/ERC1967Upgrade.sol\":1470:1490  _IMPLEMENTATION_SLOT */\n      0x00\n      shl\n        /* \"upgradeContract/v2/openzeppelin_L/contracts/proxy/ERC1967/ERC1967Upgrade.sol\":1443:1469  StorageSlot.getAddressSlot */\n      tag_58\n        /* \"upgradeContract/v2/openzeppelin_L/contracts/proxy/ERC1967/ERC1967Upgrade.sol\":1443:1491  StorageSlot.getAddressSlot(_IMPLEMENTATION_SLOT) */\n      jump\t// in\n    tag_57:\n        /* \"upgradeContract/v2/openzeppelin_L/contracts/proxy/ERC1967/ERC1967Upgrade.sol\":1443:1497  StorageSlot.getAddressSlot(_IMPLEMENTATION_SLOT).value */\n      0x00\n      add\n      0x00\n      swap1\n      sload\n      swap1\n      0x0100\n      exp\n      swap1\n      div\n      0xffffffffffffffffffffffffffffffffffffffff\n      and\n        /* \"upgradeContract/v2/openzeppelin_L/contracts/proxy/ERC1967/ERC1967Upgrade.sol\":1436:1497  return StorageSlot.getAddressSlot(_IMPLEMENTATION_SLOT).value */\n      swap1\n      pop\n        /* \"upgradeContract/v2/openzeppelin_L/contracts/proxy/ERC1967/ERC1967Upgrade.sol\":1363:1505  function _getImplementation() internal view returns (address) {\r... */\n      swap1\n      jump\t// out\n        /* \"upgradeContract/v2/openzeppelin_L/contracts/proxy/ERC1967/ERC1967Upgrade.sol\":1976:2131  function _upgradeTo(address newImplementation) internal {\r... */\n    tag_51:\n        /* \"upgradeContract/v2/openzeppelin_L/contracts/proxy/ERC1967/ERC1967Upgrade.sol\":2043:2080  _setImplementation(newImplementation) */\n      tag_60\n        /* \"upgradeContract/v2/openzeppelin_L/contracts/proxy/ERC1967/ERC1967Upgrade.sol\":2062:2079  newImplementation */\n      dup2\n        /* \"upgradeContract/v2/openzeppelin_L/contracts/proxy/ERC1967/ERC1967Upgrade.sol\":2043:2061  _setImplementation */\n      tag_61\n        /* \"upgradeContract/v2/openzeppelin_L/contracts/proxy/ERC1967/ERC1967Upgrade.sol\":2043:2080  _setImplementation(newImplementation) */\n      jump\t// in\n    tag_60:\n        /* \"upgradeContract/v2/openzeppelin_L/contracts/proxy/ERC1967/ERC1967Upgrade.sol\":2105:2122  newImplementation */\n      dup1\n        /* \"upgradeContract/v2/openzeppelin_L/contracts/proxy/ERC1967/ERC1967Upgrade.sol\":2096:2123  Upgraded(newImplementation) */\n      0xffffffffffffffffffffffffffffffffffffffff\n      and\n      0xbc7cd75a20ee27fd9adebab32041f755214dbc6bffa90cc0225b39da2e5c2d3b\n      mload(0x40)\n      mload(0x40)\n      dup1\n      swap2\n      sub\n      swap1\n      log2\n        /* \"upgradeContract/v2/openzeppelin_L/contracts/proxy/ERC1967/ERC1967Upgrade.sol\":1976:2131  function _upgradeTo(address newImplementation) internal {\r... */\n      pop\n      jump\t// out\n        /* \"@openzeppelin/contracts@4.9.6/utils/Address.sol\":6674:6872  function functionDelegateCall(address target, bytes memory data) internal returns (bytes memory) {... */\n    tag_55:\n        /* \"@openzeppelin/contracts@4.9.6/utils/Address.sol\":6757:6769  bytes memory */\n      0x60\n        /* \"@openzeppelin/contracts@4.9.6/utils/Address.sol\":6788:6865  functionDelegateCall(target, data, \"Address: low-level delegate call failed\") */\n      tag_63\n        /* \"@openzeppelin/contracts@4.9.6/utils/Address.sol\":6809:6815  target */\n      dup4\n        /* \"@openzeppelin/contracts@4.9.6/utils/Address.sol\":6817:6821  data */\n      dup4\n        /* \"@openzeppelin/contracts@4.9.6/utils/Address.sol\":6788:6865  functionDelegateCall(target, data, \"Address: low-level delegate call failed\") */\n      mload(0x40)\n      dup1\n      0x60\n      add\n      0x40\n      mstore\n      dup1\n      0x27\n      dup2\n      mstore\n      0x20\n      add\n      data_9fdcd12e4b726339b32a442b0a448365d5d85c96b2d2cff917b4f66c63110398\n      0x27\n      swap2\n      codecopy\n        /* \"@openzeppelin/contracts@4.9.6/utils/Address.sol\":6788:6808  functionDelegateCall */\n      tag_64\n        /* \"@openzeppelin/contracts@4.9.6/utils/Address.sol\":6788:6865  functionDelegateCall(target, data, \"Address: low-level delegate call failed\") */\n      jump\t// in\n    tag_63:\n        /* \"@openzeppelin/contracts@4.9.6/utils/Address.sol\":6781:6865  return functionDelegateCall(target, data, \"Address: low-level delegate call failed\") */\n      swap1\n      pop\n        /* \"@openzeppelin/contracts@4.9.6/utils/Address.sol\":6674:6872  function functionDelegateCall(address target, bytes memory data) internal returns (bytes memory) {... */\n      swap3\n      swap2\n      pop\n      pop\n      jump\t// out\n        /* \"@openzeppelin/contracts@4.9.6/utils/StorageSlot.sol\":1859:2049  function getAddressSlot(bytes32 slot) internal pure returns (AddressSlot storage r) {... */\n    tag_58:\n        /* \"@openzeppelin/contracts@4.9.6/utils/StorageSlot.sol\":1920:1941  AddressSlot storage r */\n      0x00\n        /* \"@openzeppelin/contracts@4.9.6/utils/StorageSlot.sol\":2029:2033  slot */\n      dup2\n        /* \"@openzeppelin/contracts@4.9.6/utils/StorageSlot.sol\":2019:2033  r.slot := slot */\n      swap1\n      pop\n        /* \"@openzeppelin/contracts@4.9.6/utils/StorageSlot.sol\":2005:2043  {... */\n      swap2\n      swap1\n      pop\n      jump\t// out\n        /* \"upgradeContract/v2/openzeppelin_L/contracts/proxy/ERC1967/ERC1967Upgrade.sol\":1601:1863  function _setImplementation(address newImplementation) private {\r... */\n    tag_61:\n        /* \"upgradeContract/v2/openzeppelin_L/contracts/proxy/ERC1967/ERC1967Upgrade.sol\":1683:1720  Address.isContract(newImplementation) */\n      tag_67\n        /* \"upgradeContract/v2/openzeppelin_L/contracts/proxy/ERC1967/ERC1967Upgrade.sol\":1702:1719  newImplementation */\n      dup2\n        /* \"upgradeContract/v2/openzeppelin_L/contracts/proxy/ERC1967/ERC1967Upgrade.sol\":1683:1701  Address.isContract */\n      tag_68\n        /* \"upgradeContract/v2/openzeppelin_L/contracts/proxy/ERC1967/ERC1967Upgrade.sol\":1683:1720  Address.isContract(newImplementation) */\n      jump\t// in\n    tag_67:\n        /* \"upgradeContract/v2/openzeppelin_L/contracts/proxy/ERC1967/ERC1967Upgrade.sol\":1675:1770  require(Address.isContract(newImplementation), \"ERC1967: new implementation is not a contract\") */\n      tag_69\n      jumpi\n      mload(0x40)\n      0x08c379a000000000000000000000000000000000000000000000000000000000\n      dup2\n      mstore\n      0x04\n      add\n      tag_70\n      swap1\n      tag_71\n      jump\t// in\n    tag_70:\n      mload(0x40)\n      dup1\n      swap2\n      sub\n      swap1\n      revert\n    tag_69:\n        /* \"upgradeContract/v2/openzeppelin_L/contracts/proxy/ERC1967/ERC1967Upgrade.sol\":1838:1855  newImplementation */\n      dup1\n        /* \"upgradeContract/v2/openzeppelin_L/contracts/proxy/ERC1967/ERC1967Upgrade.sol\":1781:1829  StorageSlot.getAddressSlot(_IMPLEMENTATION_SLOT) */\n      tag_72\n        /* \"upgradeContract/v2/openzeppelin_L/contracts/proxy/ERC1967/ERC1967Upgrade.sol\":1213:1279  0x360894a13ba1a3210667c828492db98dca3e2076cc3735a920a3ca505d382bbc */\n      0x360894a13ba1a3210667c828492db98dca3e2076cc3735a920a3ca505d382bbc\n        /* \"upgradeContract/v2/openzeppelin_L/contracts/proxy/ERC1967/ERC1967Upgrade.sol\":1808:1828  _IMPLEMENTATION_SLOT */\n      0x00\n      shl\n        /* \"upgradeContract/v2/openzeppelin_L/contracts/proxy/ERC1967/ERC1967Upgrade.sol\":1781:1807  StorageSlot.getAddressSlot */\n      tag_58\n        /* \"upgradeContract/v2/openzeppelin_L/contracts/proxy/ERC1967/ERC1967Upgrade.sol\":1781:1829  StorageSlot.getAddressSlot(_IMPLEMENTATION_SLOT) */\n      jump\t// in\n    tag_72:\n        /* \"upgradeContract/v2/openzeppelin_L/contracts/proxy/ERC1967/ERC1967Upgrade.sol\":1781:1835  StorageSlot.getAddressSlot(_IMPLEMENTATION_SLOT).value */\n      0x00\n      add\n      0x00\n        /* \"upgradeContract/v2/openzeppelin_L/contracts/proxy/ERC1967/ERC1967Upgrade.sol\":1781:1855  StorageSlot.getAddressSlot(_IMPLEMENTATION_SLOT).value = newImplementation */\n      0x0100\n      exp\n      dup2\n      sload\n      dup2\n      0xffffffffffffffffffffffffffffffffffffffff\n      mul\n      not\n      and\n      swap1\n      dup4\n      0xffffffffffffffffffffffffffffffffffffffff\n      and\n      mul\n      or\n      swap1\n      sstore\n      pop\n        /* \"upgradeContract/v2/openzeppelin_L/contracts/proxy/ERC1967/ERC1967Upgrade.sol\":1601:1863  function _setImplementation(address newImplementation) private {\r... */\n      pop\n      jump\t// out\n        /* \"@openzeppelin/contracts@4.9.6/utils/Address.sol\":7058:7383  function functionDelegateCall(... */\n    tag_64:\n        /* \"@openzeppelin/contracts@4.9.6/utils/Address.sol\":7199:7211  bytes memory */\n      0x60\n        /* \"@openzeppelin/contracts@4.9.6/utils/Address.sol\":7224:7236  bool success */\n      0x00\n        /* \"@openzeppelin/contracts@4.9.6/utils/Address.sol\":7238:7261  bytes memory returndata */\n      dup1\n        /* \"@openzeppelin/contracts@4.9.6/utils/Address.sol\":7265:7271  target */\n      dup6\n        /* \"@openzeppelin/contracts@4.9.6/utils/Address.sol\":7265:7284  target.delegatecall */\n      0xffffffffffffffffffffffffffffffffffffffff\n      and\n        /* \"@openzeppelin/contracts@4.9.6/utils/Address.sol\":7285:7289  data */\n      dup6\n        /* \"@openzeppelin/contracts@4.9.6/utils/Address.sol\":7265:7290  target.delegatecall(data) */\n      mload(0x40)\n      tag_74\n      swap2\n      swap1\n      tag_75\n      jump\t// in\n    tag_74:\n      0x00\n      mload(0x40)\n      dup1\n      dup4\n      sub\n      dup2\n      dup6\n      gas\n      delegatecall\n      swap2\n      pop\n      pop\n      returndatasize\n      dup1\n      0x00\n      dup2\n      eq\n      tag_78\n      jumpi\n      mload(0x40)\n      swap2\n      pop\n      and(add(returndatasize, 0x3f), not(0x1f))\n      dup3\n      add\n      0x40\n      mstore\n      returndatasize\n      dup3\n      mstore\n      returndatasize\n      0x00\n      0x20\n      dup5\n      add\n      returndatacopy\n      jump(tag_77)\n    tag_78:\n      0x60\n      swap2\n      pop\n    tag_77:\n      pop\n        /* \"@openzeppelin/contracts@4.9.6/utils/Address.sol\":7223:7290  (bool success, bytes memory returndata) = target.delegatecall(data) */\n      swap2\n      pop\n      swap2\n      pop\n        /* \"@openzeppelin/contracts@4.9.6/utils/Address.sol\":7307:7376  verifyCallResultFromTarget(target, success, returndata, errorMessage) */\n      tag_79\n        /* \"@openzeppelin/contracts@4.9.6/utils/Address.sol\":7334:7340  target */\n      dup7\n        /* \"@openzeppelin/contracts@4.9.6/utils/Address.sol\":7342:7349  success */\n      dup4\n        /* \"@openzeppelin/contracts@4.9.6/utils/Address.sol\":7351:7361  returndata */\n      dup4\n        /* \"@openzeppelin/contracts@4.9.6/utils/Address.sol\":7363:7375  errorMessage */\n      dup8\n        /* \"@openzeppelin/contracts@4.9.6/utils/Address.sol\":7307:7333  verifyCallResultFromTarget */\n      tag_80\n        /* \"@openzeppelin/contracts@4.9.6/utils/Address.sol\":7307:7376  verifyCallResultFromTarget(target, success, returndata, errorMessage) */\n      jump\t// in\n    tag_79:\n        /* \"@openzeppelin/contracts@4.9.6/utils/Address.sol\":7300:7376  return verifyCallResultFromTarget(target, success, returndata, errorMessage) */\n      swap3\n      pop\n      pop\n      pop\n        /* \"@openzeppelin/contracts@4.9.6/utils/Address.sol\":7058:7383  function functionDelegateCall(... */\n      swap4\n      swap3\n      pop\n      pop\n      pop\n      jump\t// out\n        /* \"@openzeppelin/contracts@4.9.6/utils/Address.sol\":1412:1732  function isContract(address account) internal view returns (bool) {... */\n    tag_68:\n        /* \"@openzeppelin/contracts@4.9.6/utils/Address.sol\":1472:1476  bool */\n      0x00\n        /* \"@openzeppelin/contracts@4.9.6/utils/Address.sol\":1724:1725  0 */\n      dup1\n        /* \"@openzeppelin/contracts@4.9.6/utils/Address.sol\":1702:1709  account */\n      dup3\n        /* \"@openzeppelin/contracts@4.9.6/utils/Address.sol\":1702:1721  account.code.length */\n      0xffffffffffffffffffffffffffffffffffffffff\n      and\n      extcodesize\n        /* \"@openzeppelin/contracts@4.9.6/utils/Address.sol\":1702:1725  account.code.length > 0 */\n      gt\n        /* \"@openzeppelin/contracts@4.9.6/utils/Address.sol\":1695:1725  return account.code.length > 0 */\n      swap1\n      pop\n        /* \"@openzeppelin/contracts@4.9.6/utils/Address.sol\":1412:1732  function isContract(address account) internal view returns (bool) {... */\n      swap2\n      swap1\n      pop\n      jump\t// out\n        /* \"@openzeppelin/contracts@4.9.6/utils/Address.sol\":7671:8299  function verifyCallResultFromTarget(... */\n    tag_80:\n        /* \"@openzeppelin/contracts@4.9.6/utils/Address.sol\":7851:7863  bytes memory */\n      0x60\n        /* \"@openzeppelin/contracts@4.9.6/utils/Address.sol\":7879:7886  success */\n      dup4\n        /* \"@openzeppelin/contracts@4.9.6/utils/Address.sol\":7875:8293  if (success) {... */\n      iszero\n      tag_83\n      jumpi\n        /* \"@openzeppelin/contracts@4.9.6/utils/Address.sol\":7927:7928  0 */\n      0x00\n        /* \"@openzeppelin/contracts@4.9.6/utils/Address.sol\":7906:7916  returndata */\n      dup4\n        /* \"@openzeppelin/contracts@4.9.6/utils/Address.sol\":7906:7923  returndata.length */\n      mload\n        /* \"@openzeppelin/contracts@4.9.6/utils/Address.sol\":7906:7928  returndata.length == 0 */\n      eq\n        /* \"@openzeppelin/contracts@4.9.6/utils/Address.sol\":7902:8188  if (returndata.length == 0) {... */\n      iszero\n      tag_84\n      jumpi\n        /* \"@openzeppelin/contracts@4.9.6/utils/Address.sol\":8121:8139  isContract(target) */\n      tag_85\n        /* \"@openzeppelin/contracts@4.9.6/utils/Address.sol\":8132:8138  target */\n      dup6\n        /* \"@openzeppelin/contracts@4.9.6/utils/Address.sol\":8121:8131  isContract */\n      tag_68\n        /* \"@openzeppelin/contracts@4.9.6/utils/Address.sol\":8121:8139  isContract(target) */\n      jump\t// in\n    tag_85:\n        /* \"@openzeppelin/contracts@4.9.6/utils/Address.sol\":8113:8173  require(isContract(target), \"Address: call to non-contract\") */\n      tag_86\n      jumpi\n      mload(0x40)\n      0x08c379a000000000000000000000000000000000000000000000000000000000\n      dup2\n      mstore\n      0x04\n      add\n      tag_87\n      swap1\n      tag_88\n      jump\t// in\n    tag_87:\n      mload(0x40)\n      dup1\n      swap2\n      sub\n      swap1\n      revert\n    tag_86:\n        /* \"@openzeppelin/contracts@4.9.6/utils/Address.sol\":7902:8188  if (returndata.length == 0) {... */\n    tag_84:\n        /* \"@openzeppelin/contracts@4.9.6/utils/Address.sol\":8208:8218  returndata */\n      dup3\n        /* \"@openzeppelin/contracts@4.9.6/utils/Address.sol\":8201:8218  return returndata */\n      swap1\n      pop\n      jump(tag_82)\n        /* \"@openzeppelin/contracts@4.9.6/utils/Address.sol\":7875:8293  if (success) {... */\n    tag_83:\n        /* \"@openzeppelin/contracts@4.9.6/utils/Address.sol\":8249:8282  _revert(returndata, errorMessage) */\n      tag_90\n        /* \"@openzeppelin/contracts@4.9.6/utils/Address.sol\":8257:8267  returndata */\n      dup4\n        /* \"@openzeppelin/contracts@4.9.6/utils/Address.sol\":8269:8281  errorMessage */\n      dup4\n        /* \"@openzeppelin/contracts@4.9.6/utils/Address.sol\":8249:8256  _revert */\n      tag_91\n        /* \"@openzeppelin/contracts@4.9.6/utils/Address.sol\":8249:8282  _revert(returndata, errorMessage) */\n      jump\t// in\n    tag_90:\n        /* \"@openzeppelin/contracts@4.9.6/utils/Address.sol\":7671:8299  function verifyCallResultFromTarget(... */\n    tag_82:\n      swap5\n      swap4\n      pop\n      pop\n      pop\n      pop\n      jump\t// out\n        /* \"@openzeppelin/contracts@4.9.6/utils/Address.sol\":8821:9361  function _revert(bytes memory returndata, string memory errorMessage) private pure {... */\n    tag_91:\n        /* \"@openzeppelin/contracts@4.9.6/utils/Address.sol\":9000:9001  0 */\n      0x00\n        /* \"@openzeppelin/contracts@4.9.6/utils/Address.sol\":8980:8990  returndata */\n      dup3\n        /* \"@openzeppelin/contracts@4.9.6/utils/Address.sol\":8980:8997  returndata.length */\n      mload\n        /* \"@openzeppelin/contracts@4.9.6/utils/Address.sol\":8980:9001  returndata.length > 0 */\n      gt\n        /* \"@openzeppelin/contracts@4.9.6/utils/Address.sol\":8976:9355  if (returndata.length > 0) {... */\n      iszero\n      tag_93\n      jumpi\n        /* \"@openzeppelin/contracts@4.9.6/utils/Address.sol\":9208:9218  returndata */\n      dup2\n        /* \"@openzeppelin/contracts@4.9.6/utils/Address.sol\":9202:9219  mload(returndata) */\n      mload\n        /* \"@openzeppelin/contracts@4.9.6/utils/Address.sol\":9264:9279  returndata_size */\n      dup1\n        /* \"@openzeppelin/contracts@4.9.6/utils/Address.sol\":9251:9261  returndata */\n      dup4\n        /* \"@openzeppelin/contracts@4.9.6/utils/Address.sol\":9247:9249  32 */\n      0x20\n        /* \"@openzeppelin/contracts@4.9.6/utils/Address.sol\":9243:9262  add(32, returndata) */\n      add\n        /* \"@openzeppelin/contracts@4.9.6/utils/Address.sol\":9236:9280  revert(add(32, returndata), returndata_size) */\n      revert\n        /* \"@openzeppelin/contracts@4.9.6/utils/Address.sol\":9161:9294  {... */\n    tag_93:\n        /* \"@openzeppelin/contracts@4.9.6/utils/Address.sol\":9331:9343  errorMessage */\n      dup1\n        /* \"@openzeppelin/contracts@4.9.6/utils/Address.sol\":9324:9344  revert(errorMessage) */\n      mload(0x40)\n      0x08c379a000000000000000000000000000000000000000000000000000000000\n      dup2\n      mstore\n      0x04\n      add\n      tag_95\n      swap2\n      swap1\n      tag_96\n      jump\t// in\n    tag_95:\n      mload(0x40)\n      dup1\n      swap2\n      sub\n      swap1\n      revert\n        /* \"#utility.yul\":7:350   */\n    tag_98:\n      0x00\n        /* \"#utility.yul\":109:174   */\n      tag_100\n        /* \"#utility.yul\":125:173   */\n      tag_101\n        /* \"#utility.yul\":166:172   */\n      dup5\n        /* \"#utility.yul\":125:173   */\n      tag_102\n      jump\t// in\n    tag_101:\n        /* \"#utility.yul\":109:174   */\n      tag_103\n      jump\t// in\n    tag_100:\n        /* \"#utility.yul\":100:174   */\n      swap1\n      pop\n        /* \"#utility.yul\":197:203   */\n      dup3\n        /* \"#utility.yul\":190:195   */\n      dup2\n        /* \"#utility.yul\":183:204   */\n      mstore\n        /* \"#utility.yul\":235:239   */\n      0x20\n        /* \"#utility.yul\":228:233   */\n      dup2\n        /* \"#utility.yul\":224:240   */\n      add\n        /* \"#utility.yul\":273:276   */\n      dup5\n        /* \"#utility.yul\":264:270   */\n      dup5\n        /* \"#utility.yul\":259:262   */\n      dup5\n        /* \"#utility.yul\":255:271   */\n      add\n        /* \"#utility.yul\":252:277   */\n      gt\n        /* \"#utility.yul\":249:251   */\n      iszero\n      tag_104\n      jumpi\n        /* \"#utility.yul\":290:291   */\n      0x00\n        /* \"#utility.yul\":287:288   */\n      dup1\n        /* \"#utility.yul\":280:292   */\n      revert\n        /* \"#utility.yul\":249:251   */\n    tag_104:\n        /* \"#utility.yul\":303:344   */\n      tag_105\n        /* \"#utility.yul\":337:343   */\n      dup5\n        /* \"#utility.yul\":332:335   */\n      dup3\n        /* \"#utility.yul\":327:330   */\n      dup6\n        /* \"#utility.yul\":303:344   */\n      tag_106\n      jump\t// in\n    tag_105:\n        /* \"#utility.yul\":90:350   */\n      pop\n      swap4\n      swap3\n      pop\n      pop\n      pop\n      jump\t// out\n        /* \"#utility.yul\":356:495   */\n    tag_107:\n      0x00\n        /* \"#utility.yul\":440:446   */\n      dup2\n        /* \"#utility.yul\":427:447   */\n      calldataload\n        /* \"#utility.yul\":418:447   */\n      swap1\n      pop\n        /* \"#utility.yul\":456:489   */\n      tag_109\n        /* \"#utility.yul\":483:488   */\n      dup2\n        /* \"#utility.yul\":456:489   */\n      tag_110\n      jump\t// in\n    tag_109:\n        /* \"#utility.yul\":408:495   */\n      swap3\n      swap2\n      pop\n      pop\n      jump\t// out\n        /* \"#utility.yul\":514:785   */\n    tag_111:\n      0x00\n        /* \"#utility.yul\":618:621   */\n      dup3\n        /* \"#utility.yul\":611:615   */\n      0x1f\n        /* \"#utility.yul\":603:609   */\n      dup4\n        /* \"#utility.yul\":599:616   */\n      add\n        /* \"#utility.yul\":595:622   */\n      slt\n        /* \"#utility.yul\":585:587   */\n      tag_113\n      jumpi\n        /* \"#utility.yul\":636:637   */\n      0x00\n        /* \"#utility.yul\":633:634   */\n      dup1\n        /* \"#utility.yul\":626:638   */\n      revert\n        /* \"#utility.yul\":585:587   */\n    tag_113:\n        /* \"#utility.yul\":676:682   */\n      dup2\n        /* \"#utility.yul\":663:683   */\n      calldataload\n        /* \"#utility.yul\":701:779   */\n      tag_114\n        /* \"#utility.yul\":775:778   */\n      dup5\n        /* \"#utility.yul\":767:773   */\n      dup3\n        /* \"#utility.yul\":760:764   */\n      0x20\n        /* \"#utility.yul\":752:758   */\n      dup7\n        /* \"#utility.yul\":748:765   */\n      add\n        /* \"#utility.yul\":701:779   */\n      tag_98\n      jump\t// in\n    tag_114:\n        /* \"#utility.yul\":692:779   */\n      swap2\n      pop\n        /* \"#utility.yul\":575:785   */\n      pop\n      swap3\n      swap2\n      pop\n      pop\n      jump\t// out\n        /* \"#utility.yul\":791:1309   */\n    tag_14:\n      0x00\n      dup1\n        /* \"#utility.yul\":925:927   */\n      0x40\n        /* \"#utility.yul\":913:922   */\n      dup4\n        /* \"#utility.yul\":904:911   */\n      dup6\n        /* \"#utility.yul\":900:923   */\n      sub\n        /* \"#utility.yul\":896:928   */\n      slt\n        /* \"#utility.yul\":893:895   */\n      iszero\n      tag_116\n      jumpi\n        /* \"#utility.yul\":941:942   */\n      0x00\n        /* \"#utility.yul\":938:939   */\n      dup1\n        /* \"#utility.yul\":931:943   */\n      revert\n        /* \"#utility.yul\":893:895   */\n    tag_116:\n        /* \"#utility.yul\":984:985   */\n      0x00\n        /* \"#utility.yul\":1009:1062   */\n      tag_117\n        /* \"#utility.yul\":1054:1061   */\n      dup6\n        /* \"#utility.yul\":1045:1051   */\n      dup3\n        /* \"#utility.yul\":1034:1043   */\n      dup7\n        /* \"#utility.yul\":1030:1052   */\n      add\n        /* \"#utility.yul\":1009:1062   */\n      tag_107\n      jump\t// in\n    tag_117:\n        /* \"#utility.yul\":999:1062   */\n      swap3\n      pop\n        /* \"#utility.yul\":955:1072   */\n      pop\n        /* \"#utility.yul\":1139:1141   */\n      0x20\n        /* \"#utility.yul\":1128:1137   */\n      dup4\n        /* \"#utility.yul\":1124:1142   */\n      add\n        /* \"#utility.yul\":1111:1143   */\n      calldataload\n        /* \"#utility.yul\":1170:1188   */\n      0xffffffffffffffff\n        /* \"#utility.yul\":1162:1168   */\n      dup2\n        /* \"#utility.yul\":1159:1189   */\n      gt\n        /* \"#utility.yul\":1156:1158   */\n      iszero\n      tag_118\n      jumpi\n        /* \"#utility.yul\":1202:1203   */\n      0x00\n        /* \"#utility.yul\":1199:1200   */\n      dup1\n        /* \"#utility.yul\":1192:1204   */\n      revert\n        /* \"#utility.yul\":1156:1158   */\n    tag_118:\n        /* \"#utility.yul\":1230:1292   */\n      tag_119\n        /* \"#utility.yul\":1284:1291   */\n      dup6\n        /* \"#utility.yul\":1275:1281   */\n      dup3\n        /* \"#utility.yul\":1264:1273   */\n      dup7\n        /* \"#utility.yul\":1260:1282   */\n      add\n        /* \"#utility.yul\":1230:1292   */\n      tag_111\n      jump\t// in\n    tag_119:\n        /* \"#utility.yul\":1220:1292   */\n      swap2\n      pop\n        /* \"#utility.yul\":1082:1302   */\n      pop\n        /* \"#utility.yul\":883:1309   */\n      swap3\n      pop\n      swap3\n      swap1\n      pop\n      jump\t// out\n        /* \"#utility.yul\":1315:1688   */\n    tag_120:\n      0x00\n        /* \"#utility.yul\":1447:1485   */\n      tag_122\n        /* \"#utility.yul\":1479:1484   */\n      dup3\n        /* \"#utility.yul\":1447:1485   */\n      tag_123\n      jump\t// in\n    tag_122:\n        /* \"#utility.yul\":1501:1589   */\n      tag_124\n        /* \"#utility.yul\":1582:1588   */\n      dup2\n        /* \"#utility.yul\":1577:1580   */\n      dup6\n        /* \"#utility.yul\":1501:1589   */\n      tag_125\n      jump\t// in\n    tag_124:\n        /* \"#utility.yul\":1494:1589   */\n      swap4\n      pop\n        /* \"#utility.yul\":1598:1650   */\n      tag_126\n        /* \"#utility.yul\":1643:1649   */\n      dup2\n        /* \"#utility.yul\":1638:1641   */\n      dup6\n        /* \"#utility.yul\":1631:1635   */\n      0x20\n        /* \"#utility.yul\":1624:1629   */\n      dup7\n        /* \"#utility.yul\":1620:1636   */\n      add\n        /* \"#utility.yul\":1598:1650   */\n      tag_127\n      jump\t// in\n    tag_126:\n        /* \"#utility.yul\":1675:1681   */\n      dup1\n        /* \"#utility.yul\":1670:1673   */\n      dup5\n        /* \"#utility.yul\":1666:1682   */\n      add\n        /* \"#utility.yul\":1659:1682   */\n      swap2\n      pop\n        /* \"#utility.yul\":1423:1688   */\n      pop\n      swap3\n      swap2\n      pop\n      pop\n      jump\t// out\n        /* \"#utility.yul\":1694:2058   */\n    tag_128:\n      0x00\n        /* \"#utility.yul\":1810:1849   */\n      tag_130\n        /* \"#utility.yul\":1843:1848   */\n      dup3\n        /* \"#utility.yul\":1810:1849   */\n      tag_131\n      jump\t// in\n    tag_130:\n        /* \"#utility.yul\":1865:1936   */\n      tag_132\n        /* \"#utility.yul\":1929:1935   */\n      dup2\n        /* \"#utility.yul\":1924:1927   */\n      dup6\n        /* \"#utility.yul\":1865:1936   */\n      tag_133\n      jump\t// in\n    tag_132:\n        /* \"#utility.yul\":1858:1936   */\n      swap4\n      pop\n        /* \"#utility.yul\":1945:1997   */\n      tag_134\n        /* \"#utility.yul\":1990:1996   */\n      dup2\n        /* \"#utility.yul\":1985:1988   */\n      dup6\n        /* \"#utility.yul\":1978:1982   */\n      0x20\n        /* \"#utility.yul\":1971:1976   */\n      dup7\n        /* \"#utility.yul\":1967:1983   */\n      add\n        /* \"#utility.yul\":1945:1997   */\n      tag_127\n      jump\t// in\n    tag_134:\n        /* \"#utility.yul\":2022:2051   */\n      tag_135\n        /* \"#utility.yul\":2044:2050   */\n      dup2\n        /* \"#utility.yul\":2022:2051   */\n      tag_136\n      jump\t// in\n    tag_135:\n        /* \"#utility.yul\":2017:2020   */\n      dup5\n        /* \"#utility.yul\":2013:2052   */\n      add\n        /* \"#utility.yul\":2006:2052   */\n      swap2\n      pop\n        /* \"#utility.yul\":1786:2058   */\n      pop\n      swap3\n      swap2\n      pop\n      pop\n      jump\t// out\n        /* \"#utility.yul\":2064:2430   */\n    tag_137:\n      0x00\n        /* \"#utility.yul\":2227:2294   */\n      tag_139\n        /* \"#utility.yul\":2291:2293   */\n      0x2e\n        /* \"#utility.yul\":2286:2289   */\n      dup4\n        /* \"#utility.yul\":2227:2294   */\n      tag_133\n      jump\t// in\n    tag_139:\n        /* \"#utility.yul\":2220:2294   */\n      swap2\n      pop\n        /* \"#utility.yul\":2303:2396   */\n      tag_140\n        /* \"#utility.yul\":2392:2395   */\n      dup3\n        /* \"#utility.yul\":2303:2396   */\n      tag_141\n      jump\t// in\n    tag_140:\n        /* \"#utility.yul\":2421:2423   */\n      0x40\n        /* \"#utility.yul\":2416:2419   */\n      dup3\n        /* \"#utility.yul\":2412:2424   */\n      add\n        /* \"#utility.yul\":2405:2424   */\n      swap1\n      pop\n        /* \"#utility.yul\":2210:2430   */\n      swap2\n      swap1\n      pop\n      jump\t// out\n        /* \"#utility.yul\":2436:2802   */\n    tag_142:\n      0x00\n        /* \"#utility.yul\":2599:2666   */\n      tag_144\n        /* \"#utility.yul\":2663:2665   */\n      0x2d\n        /* \"#utility.yul\":2658:2661   */\n      dup4\n        /* \"#utility.yul\":2599:2666   */\n      tag_133\n      jump\t// in\n    tag_144:\n        /* \"#utility.yul\":2592:2666   */\n      swap2\n      pop\n        /* \"#utility.yul\":2675:2768   */\n      tag_145\n        /* \"#utility.yul\":2764:2767   */\n      dup3\n        /* \"#utility.yul\":2675:2768   */\n      tag_146\n      jump\t// in\n    tag_145:\n        /* \"#utility.yul\":2793:2795   */\n      0x40\n        /* \"#utility.yul\":2788:2791   */\n      dup3\n        /* \"#utility.yul\":2784:2796   */\n      add\n        /* \"#utility.yul\":2777:2796   */\n      swap1\n      pop\n        /* \"#utility.yul\":2582:2802   */\n      swap2\n      swap1\n      pop\n      jump\t// out\n        /* \"#utility.yul\":2808:3174   */\n    tag_147:\n      0x00\n        /* \"#utility.yul\":2971:3038   */\n      tag_149\n        /* \"#utility.yul\":3035:3037   */\n      0x20\n        /* \"#utility.yul\":3030:3033   */\n      dup4\n        /* \"#utility.yul\":2971:3038   */\n      tag_133\n      jump\t// in\n    tag_149:\n        /* \"#utility.yul\":2964:3038   */\n      swap2\n      pop\n        /* \"#utility.yul\":3047:3140   */\n      tag_150\n        /* \"#utility.yul\":3136:3139   */\n      dup3\n        /* \"#utility.yul\":3047:3140   */\n      tag_151\n      jump\t// in\n    tag_150:\n        /* \"#utility.yul\":3165:3167   */\n      0x20\n        /* \"#utility.yul\":3160:3163   */\n      dup3\n        /* \"#utility.yul\":3156:3168   */\n      add\n        /* \"#utility.yul\":3149:3168   */\n      swap1\n      pop\n        /* \"#utility.yul\":2954:3174   */\n      swap2\n      swap1\n      pop\n      jump\t// out\n        /* \"#utility.yul\":3180:3546   */\n    tag_152:\n      0x00\n        /* \"#utility.yul\":3343:3410   */\n      tag_154\n        /* \"#utility.yul\":3407:3409   */\n      0x1d\n        /* \"#utility.yul\":3402:3405   */\n      dup4\n        /* \"#utility.yul\":3343:3410   */\n      tag_133\n      jump\t// in\n    tag_154:\n        /* \"#utility.yul\":3336:3410   */\n      swap2\n      pop\n        /* \"#utility.yul\":3419:3512   */\n      tag_155\n        /* \"#utility.yul\":3508:3511   */\n      dup3\n        /* \"#utility.yul\":3419:3512   */\n      tag_156\n      jump\t// in\n    tag_155:\n        /* \"#utility.yul\":3537:3539   */\n      0x20\n        /* \"#utility.yul\":3532:3535   */\n      dup3\n        /* \"#utility.yul\":3528:3540   */\n      add\n        /* \"#utility.yul\":3521:3540   */\n      swap1\n      pop\n        /* \"#utility.yul\":3326:3546   */\n      swap2\n      swap1\n      pop\n      jump\t// out\n        /* \"#utility.yul\":3552:3823   */\n    tag_75:\n      0x00\n        /* \"#utility.yul\":3704:3797   */\n      tag_158\n        /* \"#utility.yul\":3793:3796   */\n      dup3\n        /* \"#utility.yul\":3784:3790   */\n      dup5\n        /* \"#utility.yul\":3704:3797   */\n      tag_120\n      jump\t// in\n    tag_158:\n        /* \"#utility.yul\":3697:3797   */\n      swap2\n      pop\n        /* \"#utility.yul\":3814:3817   */\n      dup2\n        /* \"#utility.yul\":3807:3817   */\n      swap1\n      pop\n        /* \"#utility.yul\":3686:3823   */\n      swap3\n      swap2\n      pop\n      pop\n      jump\t// out\n        /* \"#utility.yul\":3829:4142   */\n    tag_96:\n      0x00\n        /* \"#utility.yul\":3980:3982   */\n      0x20\n        /* \"#utility.yul\":3969:3978   */\n      dup3\n        /* \"#utility.yul\":3965:3983   */\n      add\n        /* \"#utility.yul\":3957:3983   */\n      swap1\n      pop\n        /* \"#utility.yul\":4029:4038   */\n      dup2\n        /* \"#utility.yul\":4023:4027   */\n      dup2\n        /* \"#utility.yul\":4019:4039   */\n      sub\n        /* \"#utility.yul\":4015:4016   */\n      0x00\n        /* \"#utility.yul\":4004:4013   */\n      dup4\n        /* \"#utility.yul\":4000:4017   */\n      add\n        /* \"#utility.yul\":3993:4040   */\n      mstore\n        /* \"#utility.yul\":4057:4135   */\n      tag_160\n        /* \"#utility.yul\":4130:4134   */\n      dup2\n        /* \"#utility.yul\":4121:4127   */\n      dup5\n        /* \"#utility.yul\":4057:4135   */\n      tag_128\n      jump\t// in\n    tag_160:\n        /* \"#utility.yul\":4049:4135   */\n      swap1\n      pop\n        /* \"#utility.yul\":3947:4142   */\n      swap3\n      swap2\n      pop\n      pop\n      jump\t// out\n        /* \"#utility.yul\":4148:4567   */\n    tag_33:\n      0x00\n        /* \"#utility.yul\":4352:4354   */\n      0x20\n        /* \"#utility.yul\":4341:4350   */\n      dup3\n        /* \"#utility.yul\":4337:4355   */\n      add\n        /* \"#utility.yul\":4329:4355   */\n      swap1\n      pop\n        /* \"#utility.yul\":4401:4410   */\n      dup2\n        /* \"#utility.yul\":4395:4399   */\n      dup2\n        /* \"#utility.yul\":4391:4411   */\n      sub\n        /* \"#utility.yul\":4387:4388   */\n      0x00\n        /* \"#utility.yul\":4376:4385   */\n      dup4\n        /* \"#utility.yul\":4372:4389   */\n      add\n        /* \"#utility.yul\":4365:4412   */\n      mstore\n        /* \"#utility.yul\":4429:4560   */\n      tag_162\n        /* \"#utility.yul\":4555:4559   */\n      dup2\n        /* \"#utility.yul\":4429:4560   */\n      tag_137\n      jump\t// in\n    tag_162:\n        /* \"#utility.yul\":4421:4560   */\n      swap1\n      pop\n        /* \"#utility.yul\":4319:4567   */\n      swap2\n      swap1\n      pop\n      jump\t// out\n        /* \"#utility.yul\":4573:4992   */\n    tag_71:\n      0x00\n        /* \"#utility.yul\":4777:4779   */\n      0x20\n        /* \"#utility.yul\":4766:4775   */\n      dup3\n        /* \"#utility.yul\":4762:4780   */\n      add\n        /* \"#utility.yul\":4754:4780   */\n      swap1\n      pop\n        /* \"#utility.yul\":4826:4835   */\n      dup2\n        /* \"#utility.yul\":4820:4824   */\n      dup2\n        /* \"#utility.yul\":4816:4836   */\n      sub\n        /* \"#utility.yul\":4812:4813   */\n      0x00\n        /* \"#utility.yul\":4801:4810   */\n      dup4\n        /* \"#utility.yul\":4797:4814   */\n      add\n        /* \"#utility.yul\":4790:4837   */\n      mstore\n        /* \"#utility.yul\":4854:4985   */\n      tag_164\n        /* \"#utility.yul\":4980:4984   */\n      dup2\n        /* \"#utility.yul\":4854:4985   */\n      tag_142\n      jump\t// in\n    tag_164:\n        /* \"#utility.yul\":4846:4985   */\n      swap1\n      pop\n        /* \"#utility.yul\":4744:4992   */\n      swap2\n      swap1\n      pop\n      jump\t// out\n        /* \"#utility.yul\":4998:5417   */\n    tag_28:\n      0x00\n        /* \"#utility.yul\":5202:5204   */\n      0x20\n        /* \"#utility.yul\":5191:5200   */\n      dup3\n        /* \"#utility.yul\":5187:5205   */\n      add\n        /* \"#utility.yul\":5179:5205   */\n      swap1\n      pop\n        /* \"#utility.yul\":5251:5260   */\n      dup2\n        /* \"#utility.yul\":5245:5249   */\n      dup2\n        /* \"#utility.yul\":5241:5261   */\n      sub\n        /* \"#utility.yul\":5237:5238   */\n      0x00\n        /* \"#utility.yul\":5226:5235   */\n      dup4\n        /* \"#utility.yul\":5222:5239   */\n      add\n        /* \"#utility.yul\":5215:5262   */\n      mstore\n        /* \"#utility.yul\":5279:5410   */\n      tag_166\n        /* \"#utility.yul\":5405:5409   */\n      dup2\n        /* \"#utility.yul\":5279:5410   */\n      tag_147\n      jump\t// in\n    tag_166:\n        /* \"#utility.yul\":5271:5410   */\n      swap1\n      pop\n        /* \"#utility.yul\":5169:5417   */\n      swap2\n      swap1\n      pop\n      jump\t// out\n        /* \"#utility.yul\":5423:5842   */\n    tag_88:\n      0x00\n        /* \"#utility.yul\":5627:5629   */\n      0x20\n        /* \"#utility.yul\":5616:5625   */\n      dup3\n        /* \"#utility.yul\":5612:5630   */\n      add\n        /* \"#utility.yul\":5604:5630   */\n      swap1\n      pop\n        /* \"#utility.yul\":5676:5685   */\n      dup2\n        /* \"#utility.yul\":5670:5674   */\n      dup2\n        /* \"#utility.yul\":5666:5686   */\n      sub\n        /* \"#utility.yul\":5662:5663   */\n      0x00\n        /* \"#utility.yul\":5651:5660   */\n      dup4\n        /* \"#utility.yul\":5647:5664   */\n      add\n        /* \"#utility.yul\":5640:5687   */\n      mstore\n        /* \"#utility.yul\":5704:5835   */\n      tag_168\n        /* \"#utility.yul\":5830:5834   */\n      dup2\n        /* \"#utility.yul\":5704:5835   */\n      tag_152\n      jump\t// in\n    tag_168:\n        /* \"#utility.yul\":5696:5835   */\n      swap1\n      pop\n        /* \"#utility.yul\":5594:5842   */\n      swap2\n      swap1\n      pop\n      jump\t// out\n        /* \"#utility.yul\":5848:5977   */\n    tag_103:\n      0x00\n        /* \"#utility.yul\":5909:5929   */\n      tag_170\n      tag_171\n      jump\t// in\n    tag_170:\n        /* \"#utility.yul\":5899:5929   */\n      swap1\n      pop\n        /* \"#utility.yul\":5938:5971   */\n      tag_172\n        /* \"#utility.yul\":5966:5970   */\n      dup3\n        /* \"#utility.yul\":5958:5964   */\n      dup3\n        /* \"#utility.yul\":5938:5971   */\n      tag_173\n      jump\t// in\n    tag_172:\n        /* \"#utility.yul\":5889:5977   */\n      swap2\n      swap1\n      pop\n      jump\t// out\n        /* \"#utility.yul\":5983:6058   */\n    tag_171:\n      0x00\n        /* \"#utility.yul\":6049:6051   */\n      0x40\n        /* \"#utility.yul\":6043:6052   */\n      mload\n        /* \"#utility.yul\":6033:6052   */\n      swap1\n      pop\n        /* \"#utility.yul\":6023:6058   */\n      swap1\n      jump\t// out\n        /* \"#utility.yul\":6064:6371   */\n    tag_102:\n      0x00\n        /* \"#utility.yul\":6215:6233   */\n      0xffffffffffffffff\n        /* \"#utility.yul\":6207:6213   */\n      dup3\n        /* \"#utility.yul\":6204:6234   */\n      gt\n        /* \"#utility.yul\":6201:6203   */\n      iszero\n      tag_176\n      jumpi\n        /* \"#utility.yul\":6237:6255   */\n      tag_177\n      tag_178\n      jump\t// in\n    tag_177:\n        /* \"#utility.yul\":6201:6203   */\n    tag_176:\n        /* \"#utility.yul\":6275:6304   */\n      tag_179\n        /* \"#utility.yul\":6297:6303   */\n      dup3\n        /* \"#utility.yul\":6275:6304   */\n      tag_136\n      jump\t// in\n    tag_179:\n        /* \"#utility.yul\":6267:6304   */\n      swap1\n      pop\n        /* \"#utility.yul\":6359:6363   */\n      0x20\n        /* \"#utility.yul\":6353:6357   */\n      dup2\n        /* \"#utility.yul\":6349:6364   */\n      add\n        /* \"#utility.yul\":6341:6364   */\n      swap1\n      pop\n        /* \"#utility.yul\":6130:6371   */\n      swap2\n      swap1\n      pop\n      jump\t// out\n        /* \"#utility.yul\":6377:6475   */\n    tag_123:\n      0x00\n        /* \"#utility.yul\":6462:6467   */\n      dup2\n        /* \"#utility.yul\":6456:6468   */\n      mload\n        /* \"#utility.yul\":6446:6468   */\n      swap1\n      pop\n        /* \"#utility.yul\":6435:6475   */\n      swap2\n      swap1\n      pop\n      jump\t// out\n        /* \"#utility.yul\":6481:6580   */\n    tag_131:\n      0x00\n        /* \"#utility.yul\":6567:6572   */\n      dup2\n        /* \"#utility.yul\":6561:6573   */\n      mload\n        /* \"#utility.yul\":6551:6573   */\n      swap1\n      pop\n        /* \"#utility.yul\":6540:6580   */\n      swap2\n      swap1\n      pop\n      jump\t// out\n        /* \"#utility.yul\":6586:6733   */\n    tag_125:\n      0x00\n        /* \"#utility.yul\":6724:6727   */\n      dup2\n        /* \"#utility.yul\":6709:6727   */\n      swap1\n      pop\n        /* \"#utility.yul\":6699:6733   */\n      swap3\n      swap2\n      pop\n      pop\n      jump\t// out\n        /* \"#utility.yul\":6739:6908   */\n    tag_133:\n      0x00\n        /* \"#utility.yul\":6857:6863   */\n      dup3\n        /* \"#utility.yul\":6852:6855   */\n      dup3\n        /* \"#utility.yul\":6845:6864   */\n      mstore\n        /* \"#utility.yul\":6897:6901   */\n      0x20\n        /* \"#utility.yul\":6892:6895   */\n      dup3\n        /* \"#utility.yul\":6888:6902   */\n      add\n        /* \"#utility.yul\":6873:6902   */\n      swap1\n      pop\n        /* \"#utility.yul\":6835:6908   */\n      swap3\n      swap2\n      pop\n      pop\n      jump\t// out\n        /* \"#utility.yul\":6914:7010   */\n    tag_184:\n      0x00\n        /* \"#utility.yul\":6980:7004   */\n      tag_186\n        /* \"#utility.yul\":6998:7003   */\n      dup3\n        /* \"#utility.yul\":6980:7004   */\n      tag_187\n      jump\t// in\n    tag_186:\n        /* \"#utility.yul\":6969:7004   */\n      swap1\n      pop\n        /* \"#utility.yul\":6959:7010   */\n      swap2\n      swap1\n      pop\n      jump\t// out\n        /* \"#utility.yul\":7016:7142   */\n    tag_187:\n      0x00\n        /* \"#utility.yul\":7093:7135   */\n      0xffffffffffffffffffffffffffffffffffffffff\n        /* \"#utility.yul\":7086:7091   */\n      dup3\n        /* \"#utility.yul\":7082:7136   */\n      and\n        /* \"#utility.yul\":7071:7136   */\n      swap1\n      pop\n        /* \"#utility.yul\":7061:7142   */\n      swap2\n      swap1\n      pop\n      jump\t// out\n        /* \"#utility.yul\":7148:7302   */\n    tag_106:\n        /* \"#utility.yul\":7232:7238   */\n      dup3\n        /* \"#utility.yul\":7227:7230   */\n      dup2\n        /* \"#utility.yul\":7222:7225   */\n      dup4\n        /* \"#utility.yul\":7209:7239   */\n      calldatacopy\n        /* \"#utility.yul\":7294:7295   */\n      0x00\n        /* \"#utility.yul\":7285:7291   */\n      dup4\n        /* \"#utility.yul\":7280:7283   */\n      dup4\n        /* \"#utility.yul\":7276:7292   */\n      add\n        /* \"#utility.yul\":7269:7296   */\n      mstore\n        /* \"#utility.yul\":7199:7302   */\n      pop\n      pop\n      pop\n      jump\t// out\n        /* \"#utility.yul\":7308:7615   */\n    tag_127:\n        /* \"#utility.yul\":7376:7377   */\n      0x00\n        /* \"#utility.yul\":7386:7499   */\n    tag_191:\n        /* \"#utility.yul\":7400:7406   */\n      dup4\n        /* \"#utility.yul\":7397:7398   */\n      dup2\n        /* \"#utility.yul\":7394:7407   */\n      lt\n        /* \"#utility.yul\":7386:7499   */\n      iszero\n      tag_193\n      jumpi\n        /* \"#utility.yul\":7485:7486   */\n      dup1\n        /* \"#utility.yul\":7480:7483   */\n      dup3\n        /* \"#utility.yul\":7476:7487   */\n      add\n        /* \"#utility.yul\":7470:7488   */\n      mload\n        /* \"#utility.yul\":7466:7467   */\n      dup2\n        /* \"#utility.yul\":7461:7464   */\n      dup5\n        /* \"#utility.yul\":7457:7468   */\n      add\n        /* \"#utility.yul\":7450:7489   */\n      mstore\n        /* \"#utility.yul\":7422:7424   */\n      0x20\n        /* \"#utility.yul\":7419:7420   */\n      dup2\n        /* \"#utility.yul\":7415:7425   */\n      add\n        /* \"#utility.yul\":7410:7425   */\n      swap1\n      pop\n        /* \"#utility.yul\":7386:7499   */\n      jump(tag_191)\n    tag_193:\n        /* \"#utility.yul\":7517:7523   */\n      dup4\n        /* \"#utility.yul\":7514:7515   */\n      dup2\n        /* \"#utility.yul\":7511:7524   */\n      gt\n        /* \"#utility.yul\":7508:7510   */\n      iszero\n      tag_194\n      jumpi\n        /* \"#utility.yul\":7597:7598   */\n      0x00\n        /* \"#utility.yul\":7588:7594   */\n      dup5\n        /* \"#utility.yul\":7583:7586   */\n      dup5\n        /* \"#utility.yul\":7579:7595   */\n      add\n        /* \"#utility.yul\":7572:7599   */\n      mstore\n        /* \"#utility.yul\":7508:7510   */\n    tag_194:\n        /* \"#utility.yul\":7357:7615   */\n      pop\n      pop\n      pop\n      pop\n      jump\t// out\n        /* \"#utility.yul\":7621:7902   */\n    tag_173:\n        /* \"#utility.yul\":7704:7731   */\n      tag_196\n        /* \"#utility.yul\":7726:7730   */\n      dup3\n        /* \"#utility.yul\":7704:7731   */\n      tag_136\n      jump\t// in\n    tag_196:\n        /* \"#utility.yul\":7696:7702   */\n      dup2\n        /* \"#utility.yul\":7692:7732   */\n      add\n        /* \"#utility.yul\":7834:7840   */\n      dup2\n        /* \"#utility.yul\":7822:7832   */\n      dup2\n        /* \"#utility.yul\":7819:7841   */\n      lt\n        /* \"#utility.yul\":7798:7816   */\n      0xffffffffffffffff\n        /* \"#utility.yul\":7786:7796   */\n      dup3\n        /* \"#utility.yul\":7783:7817   */\n      gt\n        /* \"#utility.yul\":7780:7842   */\n      or\n        /* \"#utility.yul\":7777:7779   */\n      iszero\n      tag_197\n      jumpi\n        /* \"#utility.yul\":7845:7863   */\n      tag_198\n      tag_178\n      jump\t// in\n    tag_198:\n        /* \"#utility.yul\":7777:7779   */\n    tag_197:\n        /* \"#utility.yul\":7885:7895   */\n      dup1\n        /* \"#utility.yul\":7881:7883   */\n      0x40\n        /* \"#utility.yul\":7874:7896   */\n      mstore\n        /* \"#utility.yul\":7664:7902   */\n      pop\n      pop\n      pop\n      jump\t// out\n        /* \"#utility.yul\":7908:8088   */\n    tag_178:\n        /* \"#utility.yul\":7956:8033   */\n      0x4e487b7100000000000000000000000000000000000000000000000000000000\n        /* \"#utility.yul\":7953:7954   */\n      0x00\n        /* \"#utility.yul\":7946:8034   */\n      mstore\n        /* \"#utility.yul\":8053:8057   */\n      0x41\n        /* \"#utility.yul\":8050:8051   */\n      0x04\n        /* \"#utility.yul\":8043:8058   */\n      mstore\n        /* \"#utility.yul\":8077:8081   */\n      0x24\n        /* \"#utility.yul\":8074:8075   */\n      0x00\n        /* \"#utility.yul\":8067:8082   */\n      revert\n        /* \"#utility.yul\":8094:8196   */\n    tag_136:\n      0x00\n        /* \"#utility.yul\":8186:8188   */\n      0x1f\n        /* \"#utility.yul\":8182:8189   */\n      not\n        /* \"#utility.yul\":8177:8179   */\n      0x1f\n        /* \"#utility.yul\":8170:8175   */\n      dup4\n        /* \"#utility.yul\":8166:8180   */\n      add\n        /* \"#utility.yul\":8162:8190   */\n      and\n        /* \"#utility.yul\":8152:8190   */\n      swap1\n      pop\n        /* \"#utility.yul\":8142:8196   */\n      swap2\n      swap1\n      pop\n      jump\t// out\n        /* \"#utility.yul\":8202:8435   */\n    tag_141:\n        /* \"#utility.yul\":8342:8376   */\n      0x496e697469616c697a61626c653a20636f6e747261637420697320616c726561\n        /* \"#utility.yul\":8338:8339   */\n      0x00\n        /* \"#utility.yul\":8330:8336   */\n      dup3\n        /* \"#utility.yul\":8326:8340   */\n      add\n        /* \"#utility.yul\":8319:8377   */\n      mstore\n        /* \"#utility.yul\":8411:8427   */\n      0x647920696e697469616c697a6564000000000000000000000000000000000000\n        /* \"#utility.yul\":8406:8408   */\n      0x20\n        /* \"#utility.yul\":8398:8404   */\n      dup3\n        /* \"#utility.yul\":8394:8409   */\n      add\n        /* \"#utility.yul\":8387:8428   */\n      mstore\n        /* \"#utility.yul\":8308:8435   */\n      pop\n      jump\t// out\n        /* \"#utility.yul\":8441:8673   */\n    tag_146:\n        /* \"#utility.yul\":8581:8615   */\n      0x455243313936373a206e657720696d706c656d656e746174696f6e206973206e\n        /* \"#utility.yul\":8577:8578   */\n      0x00\n        /* \"#utility.yul\":8569:8575   */\n      dup3\n        /* \"#utility.yul\":8565:8579   */\n      add\n        /* \"#utility.yul\":8558:8616   */\n      mstore\n        /* \"#utility.yul\":8650:8665   */\n      0x6f74206120636f6e747261637400000000000000000000000000000000000000\n        /* \"#utility.yul\":8645:8647   */\n      0x20\n        /* \"#utility.yul\":8637:8643   */\n      dup3\n        /* \"#utility.yul\":8633:8648   */\n      add\n        /* \"#utility.yul\":8626:8666   */\n      mstore\n        /* \"#utility.yul\":8547:8673   */\n      pop\n      jump\t// out\n        /* \"#utility.yul\":8679:8861   */\n    tag_151:\n        /* \"#utility.yul\":8819:8853   */\n      0x4f776e61626c653a2063616c6c6572206973206e6f7420746865206f776e6572\n        /* \"#utility.yul\":8815:8816   */\n      0x00\n        /* \"#utility.yul\":8807:8813   */\n      dup3\n        /* \"#utility.yul\":8803:8817   */\n      add\n        /* \"#utility.yul\":8796:8854   */\n      mstore\n        /* \"#utility.yul\":8785:8861   */\n      pop\n      jump\t// out\n        /* \"#utility.yul\":8867:9046   */\n    tag_156:\n        /* \"#utility.yul\":9007:9038   */\n      0x416464726573733a2063616c6c20746f206e6f6e2d636f6e7472616374000000\n        /* \"#utility.yul\":9003:9004   */\n      0x00\n        /* \"#utility.yul\":8995:9001   */\n      dup3\n        /* \"#utility.yul\":8991:9005   */\n      add\n        /* \"#utility.yul\":8984:9039   */\n      mstore\n        /* \"#utility.yul\":8973:9046   */\n      pop\n      jump\t// out\n        /* \"#utility.yul\":9052:9174   */\n    tag_110:\n        /* \"#utility.yul\":9125:9149   */\n      tag_206\n        /* \"#utility.yul\":9143:9148   */\n      dup2\n        /* \"#utility.yul\":9125:9149   */\n      tag_184\n      jump\t// in\n    tag_206:\n        /* \"#utility.yul\":9118:9123   */\n      dup2\n        /* \"#utility.yul\":9115:9150   */\n      eq\n        /* \"#utility.yul\":9105:9107   */\n      tag_207\n      jumpi\n        /* \"#utility.yul\":9164:9165   */\n      0x00\n        /* \"#utility.yul\":9161:9162   */\n      dup1\n        /* \"#utility.yul\":9154:9166   */\n      revert\n        /* \"#utility.yul\":9105:9107   */\n    tag_207:\n        /* \"#utility.yul\":9095:9174   */\n      pop\n      jump\t// out\n    stop\n    data_9fdcd12e4b726339b32a442b0a448365d5d85c96b2d2cff917b4f66c63110398 416464726573733a206c6f772d6c6576656c2064656c65676174652063616c6c206661696c6564\n\n    auxdata: 0xa26469706673582212208f86c4c37036438f5521da8be86fd254ca6fa77256f2f4ec8438853ac5447cfd64736f6c63430008010033\n}\n",
				"bytecode": {
					"linkReferences": {},
					"object": "608060405261001261001760201b60201c565b610097565b600061002761006f60201b60201c565b9050338160000160006101000a81548173ffffffffffffffffffffffffffffffffffffffff021916908373ffffffffffffffffffffffffffffffffffffffff16021790555050565b60007f92cef8c4ccaa2a6db286f574c78bc46415e24fe9a533e0453d051ad93ca0dd00905090565b610aad806100a66000396000f3fe6080604052600436106100225760003560e01c8063438693341461003b57610031565b366100315761002f610064565b005b610039610064565b005b34801561004757600080fd5b50610062600480360381019061005d91906105d9565b61007e565b005b61006c61019f565b61007c6100776101a1565b6101b0565b565b60006100886101d6565b905060008160000160009054906101000a900473ffffffffffffffffffffffffffffffffffffffff1690503373ffffffffffffffffffffffffffffffffffffffff168173ffffffffffffffffffffffffffffffffffffffff1614610121576040517f08c379a00000000000000000000000000000000000000000000000000000000081526004016101189061079c565b60405180910390fd5b600061012b6101d6565b905060018160000160149054906101000a900460ff1660ff1610610184576040517f08c379a000000000000000000000000000000000000000000000000000000000815260040161017b9061075c565b60405180910390fd5b61018c6101fe565b6101988585600061022b565b5050505050565b565b60006101ab610257565b905090565b3660008037600080366000845af43d6000803e80600081146101d1573d6000f35b3d6000fd5b60007f92cef8c4ccaa2a6db286f574c78bc46415e24fe9a533e0453d051ad93ca0dd00905090565b60006102086101d6565b905060018160000160146101000a81548160ff021916908360ff16021790555050565b610234836102ae565b6000825111806102415750805b156102525761025083836102fd565b505b505050565b60006102857f360894a13ba1a3210667c828492db98dca3e2076cc3735a920a3ca505d382bbc60001b61032a565b60000160009054906101000a900473ffffffffffffffffffffffffffffffffffffffff16905090565b6102b781610334565b8073ffffffffffffffffffffffffffffffffffffffff167fbc7cd75a20ee27fd9adebab32041f755214dbc6bffa90cc0225b39da2e5c2d3b60405160405180910390a250565b60606103228383604051806060016040528060278152602001610a51602791396103ed565b905092915050565b6000819050919050565b61033d81610473565b61037c576040517f08c379a00000000000000000000000000000000000000000000000000000000081526004016103739061077c565b60405180910390fd5b806103a97f360894a13ba1a3210667c828492db98dca3e2076cc3735a920a3ca505d382bbc60001b61032a565b60000160006101000a81548173ffffffffffffffffffffffffffffffffffffffff021916908373ffffffffffffffffffffffffffffffffffffffff16021790555050565b60606000808573ffffffffffffffffffffffffffffffffffffffff16856040516104179190610723565b600060405180830381855af49150503d8060008114610452576040519150601f19603f3d011682016040523d82523d6000602084013e610457565b606091505b509150915061046886838387610496565b925050509392505050565b6000808273ffffffffffffffffffffffffffffffffffffffff163b119050919050565b606083156104f9576000835114156104f1576104b185610473565b6104f0576040517f08c379a00000000000000000000000000000000000000000000000000000000081526004016104e7906107bc565b60405180910390fd5b5b829050610504565b610503838361050c565b5b949350505050565b60008251111561051f5781518083602001fd5b806040517f08c379a0000000000000000000000000000000000000000000000000000000008152600401610553919061073a565b60405180910390fd5b600061056f61056a84610801565b6107dc565b90508281526020810184848401111561058757600080fd5b610592848285610896565b509392505050565b6000813590506105a981610a39565b92915050565b600082601f8301126105c057600080fd5b81356105d084826020860161055c565b91505092915050565b600080604083850312156105ec57600080fd5b60006105fa8582860161059a565b925050602083013567ffffffffffffffff81111561061757600080fd5b610623858286016105af565b9150509250929050565b600061063882610832565b6106428185610848565b93506106528185602086016108a5565b80840191505092915050565b60006106698261083d565b6106738185610853565b93506106838185602086016108a5565b61068c81610938565b840191505092915050565b60006106a4602e83610853565b91506106af82610949565b604082019050919050565b60006106c7602d83610853565b91506106d282610998565b604082019050919050565b60006106ea602083610853565b91506106f5826109e7565b602082019050919050565b600061070d601d83610853565b915061071882610a10565b602082019050919050565b600061072f828461062d565b915081905092915050565b60006020820190508181036000830152610754818461065e565b905092915050565b6000602082019050818103600083015261077581610697565b9050919050565b60006020820190508181036000830152610795816106ba565b9050919050565b600060208201905081810360008301526107b5816106dd565b9050919050565b600060208201905081810360008301526107d581610700565b9050919050565b60006107e66107f7565b90506107f282826108d8565b919050565b6000604051905090565b600067ffffffffffffffff82111561081c5761081b610909565b5b61082582610938565b9050602081019050919050565b600081519050919050565b600081519050919050565b600081905092915050565b600082825260208201905092915050565b600061086f82610876565b9050919050565b600073ffffffffffffffffffffffffffffffffffffffff82169050919050565b82818337600083830152505050565b60005b838110156108c35780820151818401526020810190506108a8565b838111156108d2576000848401525b50505050565b6108e182610938565b810181811067ffffffffffffffff82111715610900576108ff610909565b5b80604052505050565b7f4e487b7100000000000000000000000000000000000000000000000000000000600052604160045260246000fd5b6000601f19601f8301169050919050565b7f496e697469616c697a61626c653a20636f6e747261637420697320616c72656160008201527f647920696e697469616c697a6564000000000000000000000000000000000000602082015250565b7f455243313936373a206e657720696d706c656d656e746174696f6e206973206e60008201527f6f74206120636f6e747261637400000000000000000000000000000000000000602082015250565b7f4f776e61626c653a2063616c6c6572206973206e6f7420746865206f776e6572600082015250565b7f416464726573733a2063616c6c20746f206e6f6e2d636f6e7472616374000000600082015250565b610a4281610864565b8114610a4d57600080fd5b5056fe416464726573733a206c6f772d6c6576656c2064656c65676174652063616c6c206661696c6564a26469706673582212208f86c4c37036438f5521da8be86fd254ca6fa77256f2f4ec8438853ac5447cfd64736f6c63430008010033",
					"opcodes": "PUSH1 0x80 PUSH1 0x40 MSTORE PUSH2 0x12 PUSH2 0x17 PUSH1 0x20 SHL PUSH1 0x20 SHR JUMP JUMPDEST PUSH2 0x97 JUMP JUMPDEST PUSH1 0x0 PUSH2 0x27 PUSH2 0x6F PUSH1 0x20 SHL PUSH1 0x20 SHR JUMP JUMPDEST SWAP1 POP CALLER DUP2 PUSH1 0x0 ADD PUSH1 0x0 PUSH2 0x100 EXP DUP2 SLOAD DUP2 PUSH20 0xFFFFFFFFFFFFFFFFFFFFFFFFFFFFFFFFFFFFFFFF MUL NOT AND SWAP1 DUP4 PUSH20 0xFFFFFFFFFFFFFFFFFFFFFFFFFFFFFFFFFFFFFFFF AND MUL OR SWAP1 SSTORE POP POP JUMP JUMPDEST PUSH1 0x0 PUSH32 0x92CEF8C4CCAA2A6DB286F574C78BC46415E24FE9A533E0453D051AD93CA0DD00 SWAP1 POP SWAP1 JUMP JUMPDEST PUSH2 0xAAD DUP1 PUSH2 0xA6 PUSH1 0x0 CODECOPY PUSH1 0x0 RETURN INVALID PUSH1 0x80 PUSH1 0x40 MSTORE PUSH1 0x4 CALLDATASIZE LT PUSH2 0x22 JUMPI PUSH1 0x0 CALLDATALOAD PUSH1 0xE0 SHR DUP1 PUSH4 0x43869334 EQ PUSH2 0x3B JUMPI PUSH2 0x31 JUMP JUMPDEST CALLDATASIZE PUSH2 0x31 JUMPI PUSH2 0x2F PUSH2 0x64 JUMP JUMPDEST STOP JUMPDEST PUSH2 0x39 PUSH2 0x64 JUMP JUMPDEST STOP JUMPDEST CALLVALUE DUP1 ISZERO PUSH2 0x47 JUMPI PUSH1 0x0 DUP1 REVERT JUMPDEST POP PUSH2 0x62 PUSH1 0x4 DUP1 CALLDATASIZE SUB DUP2 ADD SWAP1 PUSH2 0x5D SWAP2 SWAP1 PUSH2 0x5D9 JUMP JUMPDEST PUSH2 0x7E JUMP JUMPDEST STOP JUMPDEST PUSH2 0x6C PUSH2 0x19F JUMP JUMPDEST PUSH2 0x7C PUSH2 0x77 PUSH2 0x1A1 JUMP JUMPDEST PUSH2 0x1B0 JUMP JUMPDEST JUMP JUMPDEST PUSH1 0x0 PUSH2 0x88 PUSH2 0x1D6 JUMP JUMPDEST SWAP1 POP PUSH1 0x0 DUP2 PUSH1 0x0 ADD PUSH1 0x0 SWAP1 SLOAD SWAP1 PUSH2 0x100 EXP SWAP1 DIV PUSH20 0xFFFFFFFFFFFFFFFFFFFFFFFFFFFFFFFFFFFFFFFF AND SWAP1 POP CALLER PUSH20 0xFFFFFFFFFFFFFFFFFFFFFFFFFFFFFFFFFFFFFFFF AND DUP2 PUSH20 0xFFFFFFFFFFFFFFFFFFFFFFFFFFFFFFFFFFFFFFFF AND EQ PUSH2 0x121 JUMPI PUSH1 0x40 MLOAD PUSH32 0x8C379A000000000000000000000000000000000000000000000000000000000 DUP2 MSTORE PUSH1 0x4 ADD PUSH2 0x118 SWAP1 PUSH2 0x79C JUMP JUMPDEST PUSH1 0x40 MLOAD DUP1 SWAP2 SUB SWAP1 REVERT JUMPDEST PUSH1 0x0 PUSH2 0x12B PUSH2 0x1D6 JUMP JUMPDEST SWAP1 POP PUSH1 0x1 DUP2 PUSH1 0x0 ADD PUSH1 0x14 SWAP1 SLOAD SWAP1 PUSH2 0x100 EXP SWAP1 DIV PUSH1 0xFF AND PUSH1 0xFF AND LT PUSH2 0x184 JUMPI PUSH1 0x40 MLOAD PUSH32 0x8C379A000000000000000000000000000000000000000000000000000000000 DUP2 MSTORE PUSH1 0x4 ADD PUSH2 0x17B SWAP1 PUSH2 0x75C JUMP JUMPDEST PUSH1 0x40 MLOAD DUP1 SWAP2 SUB SWAP1 REVERT JUMPDEST PUSH2 0x18C PUSH2 0x1FE JUMP JUMPDEST PUSH2 0x198 DUP6 DUP6 PUSH1 0x0 PUSH2 0x22B JUMP JUMPDEST POP POP POP POP POP JUMP JUMPDEST JUMP JUMPDEST PUSH1 0x0 PUSH2 0x1AB PUSH2 0x257 JUMP JUMPDEST SWAP1 POP SWAP1 JUMP JUMPDEST CALLDATASIZE PUSH1 0x0 DUP1 CALLDATACOPY PUSH1 0x0 DUP1 CALLDATASIZE PUSH1 0x0 DUP5 GAS DELEGATECALL RETURNDATASIZE PUSH1 0x0 DUP1 RETURNDATACOPY DUP1 PUSH1 0x0 DUP2 EQ PUSH2 0x1D1 JUMPI RETURNDATASIZE PUSH1 0x0 RETURN JUMPDEST RETURNDATASIZE PUSH1 0x0 REVERT JUMPDEST PUSH1 0x0 PUSH32 0x92CEF8C4CCAA2A6DB286F574C78BC46415E24FE9A533E0453D051AD93CA0DD00 SWAP1 POP SWAP1 JUMP JUMPDEST PUSH1 0x0 PUSH2 0x208 PUSH2 0x1D6 JUMP JUMPDEST SWAP1 POP PUSH1 0x1 DUP2 PUSH1 0x0 ADD PUSH1 0x14 PUSH2 0x100 EXP DUP2 SLOAD DUP2 PUSH1 0xFF MUL NOT AND SWAP1 DUP4 PUSH1 0xFF AND MUL OR SWAP1 SSTORE POP POP JUMP JUMPDEST PUSH2 0x234 DUP4 PUSH2 0x2AE JUMP JUMPDEST PUSH1 0x0 DUP3 MLOAD GT DUP1 PUSH2 0x241 JUMPI POP DUP1 JUMPDEST ISZERO PUSH2 0x252 JUMPI PUSH2 0x250 DUP4 DUP4 PUSH2 0x2FD JUMP JUMPDEST POP JUMPDEST POP POP POP JUMP JUMPDEST PUSH1 0x0 PUSH2 0x285 PUSH32 0x360894A13BA1A3210667C828492DB98DCA3E2076CC3735A920A3CA505D382BBC PUSH1 0x0 SHL PUSH2 0x32A JUMP JUMPDEST PUSH1 0x0 ADD PUSH1 0x0 SWAP1 SLOAD SWAP1 PUSH2 0x100 EXP SWAP1 DIV PUSH20 0xFFFFFFFFFFFFFFFFFFFFFFFFFFFFFFFFFFFFFFFF AND SWAP1 POP SWAP1 JUMP JUMPDEST PUSH2 0x2B7 DUP2 PUSH2 0x334 JUMP JUMPDEST DUP1 PUSH20 0xFFFFFFFFFFFFFFFFFFFFFFFFFFFFFFFFFFFFFFFF AND PUSH32 0xBC7CD75A20EE27FD9ADEBAB32041F755214DBC6BFFA90CC0225B39DA2E5C2D3B PUSH1 0x40 MLOAD PUSH1 0x40 MLOAD DUP1 SWAP2 SUB SWAP1 LOG2 POP JUMP JUMPDEST PUSH1 0x60 PUSH2 0x322 DUP4 DUP4 PUSH1 0x40 MLOAD DUP1 PUSH1 0x60 ADD PUSH1 0x40 MSTORE DUP1 PUSH1 0x27 DUP2 MSTORE PUSH1 0x20 ADD PUSH2 0xA51 PUSH1 0x27 SWAP2 CODECOPY PUSH2 0x3ED JUMP JUMPDEST SWAP1 POP SWAP3 SWAP2 POP POP JUMP JUMPDEST PUSH1 0x0 DUP2 SWAP1 POP SWAP2 SWAP1 POP JUMP JUMPDEST PUSH2 0x33D DUP2 PUSH2 0x473 JUMP JUMPDEST PUSH2 0x37C JUMPI PUSH1 0x40 MLOAD PUSH32 0x8C379A000000000000000000000000000000000000000000000000000000000 DUP2 MSTORE PUSH1 0x4 ADD PUSH2 0x373 SWAP1 PUSH2 0x77C JUMP JUMPDEST PUSH1 0x40 MLOAD DUP1 SWAP2 SUB SWAP1 REVERT JUMPDEST DUP1 PUSH2 0x3A9 PUSH32 0x360894A13BA1A3210667C828492DB98DCA3E2076CC3735A920A3CA505D382BBC PUSH1 0x0 SHL PUSH2 0x32A JUMP JUMPDEST PUSH1 0x0 ADD PUSH1 0x0 PUSH2 0x100 EXP DUP2 SLOAD DUP2 PUSH20 0xFFFFFFFFFFFFFFFFFFFFFFFFFFFFFFFFFFFFFFFF MUL NOT AND SWAP1 DUP4 PUSH20 0xFFFFFFFFFFFFFFFFFFFFFFFFFFFFFFFFFFFFFFFF AND MUL OR SWAP1 SSTORE POP POP JUMP JUMPDEST PUSH1 0x60 PUSH1 0x0 DUP1 DUP6 PUSH20 0xFFFFFFFFFFFFFFFFFFFFFFFFFFFFFFFFFFFFFFFF AND DUP6 PUSH1 0x40 MLOAD PUSH2 0x417 SWAP2 SWAP1 PUSH2 0x723 JUMP JUMPDEST PUSH1 0x0 PUSH1 0x40 MLOAD DUP1 DUP4 SUB DUP2 DUP6 GAS DELEGATECALL SWAP2 POP POP RETURNDATASIZE DUP1 PUSH1 0x0 DUP2 EQ PUSH2 0x452 JUMPI PUSH1 0x40 MLOAD SWAP2 POP PUSH1 0x1F NOT PUSH1 0x3F RETURNDATASIZE ADD AND DUP3 ADD PUSH1 0x40 MSTORE RETURNDATASIZE DUP3 MSTORE RETURNDATASIZE PUSH1 0x0 PUSH1 0x20 DUP5 ADD RETURNDATACOPY PUSH2 0x457 JUMP JUMPDEST PUSH1 0x60 SWAP2 POP JUMPDEST POP SWAP2 POP SWAP2 POP PUSH2 0x468 DUP7 DUP4 DUP4 DUP8 PUSH2 0x496 JUMP JUMPDEST SWAP3 POP POP POP SWAP4 SWAP3 POP POP POP JUMP JUMPDEST PUSH1 0x0 DUP1 DUP3 PUSH20 0xFFFFFFFFFFFFFFFFFFFFFFFFFFFFFFFFFFFFFFFF AND EXTCODESIZE GT SWAP1 POP SWAP2 SWAP1 POP JUMP JUMPDEST PUSH1 0x60 DUP4 ISZERO PUSH2 0x4F9 JUMPI PUSH1 0x0 DUP4 MLOAD EQ ISZERO PUSH2 0x4F1 JUMPI PUSH2 0x4B1 DUP6 PUSH2 0x473 JUMP JUMPDEST PUSH2 0x4F0 JUMPI PUSH1 0x40 MLOAD PUSH32 0x8C379A000000000000000000000000000000000000000000000000000000000 DUP2 MSTORE PUSH1 0x4 ADD PUSH2 0x4E7 SWAP1 PUSH2 0x7BC JUMP JUMPDEST PUSH1 0x40 MLOAD DUP1 SWAP2 SUB SWAP1 REVERT JUMPDEST JUMPDEST DUP3 SWAP1 POP PUSH2 0x504 JUMP JUMPDEST PUSH2 0x503 DUP4 DUP4 PUSH2 0x50C JUMP JUMPDEST JUMPDEST SWAP5 SWAP4 POP POP POP POP JUMP JUMPDEST PUSH1 0x0 DUP3 MLOAD GT ISZERO PUSH2 0x51F JUMPI DUP2 MLOAD DUP1 DUP4 PUSH1 0x20 ADD REVERT JUMPDEST DUP1 PUSH1 0x40 MLOAD PUSH32 0x8C379A000000000000000000000000000000000000000000000000000000000 DUP2 MSTORE PUSH1 0x4 ADD PUSH2 0x553 SWAP2 SWAP1 PUSH2 0x73A JUMP JUMPDEST PUSH1 0x40 MLOAD DUP1 SWAP2 SUB SWAP1 REVERT JUMPDEST PUSH1 0x0 PUSH2 0x56F PUSH2 0x56A DUP5 PUSH2 0x801 JUMP JUMPDEST PUSH2 0x7DC JUMP JUMPDEST SWAP1 POP DUP3 DUP2 MSTORE PUSH1 0x20 DUP2 ADD DUP5 DUP5 DUP5 ADD GT ISZERO PUSH2 0x587 JUMPI PUSH1 0x0 DUP1 REVERT JUMPDEST PUSH2 0x592 DUP5 DUP3 DUP6 PUSH2 0x896 JUMP JUMPDEST POP SWAP4 SWAP3 POP POP POP JUMP JUMPDEST PUSH1 0x0 DUP2 CALLDATALOAD SWAP1 POP PUSH2 0x5A9 DUP2 PUSH2 0xA39 JUMP JUMPDEST SWAP3 SWAP2 POP POP JUMP JUMPDEST PUSH1 0x0 DUP3 PUSH1 0x1F DUP4 ADD SLT PUSH2 0x5C0 JUMPI PUSH1 0x0 DUP1 REVERT JUMPDEST DUP2 CALLDATALOAD PUSH2 0x5D0 DUP5 DUP3 PUSH1 0x20 DUP7 ADD PUSH2 0x55C JUMP JUMPDEST SWAP2 POP POP SWAP3 SWAP2 POP POP JUMP JUMPDEST PUSH1 0x0 DUP1 PUSH1 0x40 DUP4 DUP6 SUB SLT ISZERO PUSH2 0x5EC JUMPI PUSH1 0x0 DUP1 REVERT JUMPDEST PUSH1 0x0 PUSH2 0x5FA DUP6 DUP3 DUP7 ADD PUSH2 0x59A JUMP JUMPDEST SWAP3 POP POP PUSH1 0x20 DUP4 ADD CALLDATALOAD PUSH8 0xFFFFFFFFFFFFFFFF DUP2 GT ISZERO PUSH2 0x617 JUMPI PUSH1 0x0 DUP1 REVERT JUMPDEST PUSH2 0x623 DUP6 DUP3 DUP7 ADD PUSH2 0x5AF JUMP JUMPDEST SWAP2 POP POP SWAP3 POP SWAP3 SWAP1 POP JUMP JUMPDEST PUSH1 0x0 PUSH2 0x638 DUP3 PUSH2 0x832 JUMP JUMPDEST PUSH2 0x642 DUP2 DUP6 PUSH2 0x848 JUMP JUMPDEST SWAP4 POP PUSH2 0x652 DUP2 DUP6 PUSH1 0x20 DUP7 ADD PUSH2 0x8A5 JUMP JUMPDEST DUP1 DUP5 ADD SWAP2 POP POP SWAP3 SWAP2 POP POP JUMP JUMPDEST PUSH1 0x0 PUSH2 0x669 DUP3 PUSH2 0x83D JUMP JUMPDEST PUSH2 0x673 DUP2 DUP6 PUSH2 0x853 JUMP JUMPDEST SWAP4 POP PUSH2 0x683 DUP2 DUP6 PUSH1 0x20 DUP7 ADD PUSH2 0x8A5 JUMP JUMPDEST PUSH2 0x68C DUP2 PUSH2 0x938 JUMP JUMPDEST DUP5 ADD SWAP2 POP POP SWAP3 SWAP2 POP POP JUMP JUMPDEST PUSH1 0x0 PUSH2 0x6A4 PUSH1 0x2E DUP4 PUSH2 0x853 JUMP JUMPDEST SWAP2 POP PUSH2 0x6AF DUP3 PUSH2 0x949 JUMP JUMPDEST PUSH1 0x40 DUP3 ADD SWAP1 POP SWAP2 SWAP1 POP JUMP JUMPDEST PUSH1 0x0 PUSH2 0x6C7 PUSH1 0x2D DUP4 PUSH2 0x853 JUMP JUMPDEST SWAP2 POP PUSH2 0x6D2 DUP3 PUSH2 0x998 JUMP JUMPDEST PUSH1 0x40 DUP3 ADD SWAP1 POP SWAP2 SWAP1 POP JUMP JUMPDEST PUSH1 0x0 PUSH2 0x6EA PUSH1 0x20 DUP4 PUSH2 0x853 JUMP JUMPDEST SWAP2 POP PUSH2 0x6F5 DUP3 PUSH2 0x9E7 JUMP JUMPDEST PUSH1 0x20 DUP3 ADD SWAP1 POP SWAP2 SWAP1 POP JUMP JUMPDEST PUSH1 0x0 PUSH2 0x70D PUSH1 0x1D DUP4 PUSH2 0x853 JUMP JUMPDEST SWAP2 POP PUSH2 0x718 DUP3 PUSH2 0xA10 JUMP JUMPDEST PUSH1 0x20 DUP3 ADD SWAP1 POP SWAP2 SWAP1 POP JUMP JUMPDEST PUSH1 0x0 PUSH2 0x72F DUP3 DUP5 PUSH2 0x62D JUMP JUMPDEST SWAP2 POP DUP2 SWAP1 POP SWAP3 SWAP2 POP POP JUMP JUMPDEST PUSH1 0x0 PUSH1 0x20 DUP3 ADD SWAP1 POP DUP2 DUP2 SUB PUSH1 0x0 DUP4 ADD MSTORE PUSH2 0x754 DUP2 DUP5 PUSH2 0x65E JUMP JUMPDEST SWAP1 POP SWAP3 SWAP2 POP POP JUMP JUMPDEST PUSH1 0x0 PUSH1 0x20 DUP3 ADD SWAP1 POP DUP2 DUP2 SUB PUSH1 0x0 DUP4 ADD MSTORE PUSH2 0x775 DUP2 PUSH2 0x697 JUMP JUMPDEST SWAP1 POP SWAP2 SWAP1 POP JUMP JUMPDEST PUSH1 0x0 PUSH1 0x20 DUP3 ADD SWAP1 POP DUP2 DUP2 SUB PUSH1 0x0 DUP4 ADD MSTORE PUSH2 0x795 DUP2 PUSH2 0x6BA JUMP JUMPDEST SWAP1 POP SWAP2 SWAP1 POP JUMP JUMPDEST PUSH1 0x0 PUSH1 0x20 DUP3 ADD SWAP1 POP DUP2 DUP2 SUB PUSH1 0x0 DUP4 ADD MSTORE PUSH2 0x7B5 DUP2 PUSH2 0x6DD JUMP JUMPDEST SWAP1 POP SWAP2 SWAP1 POP JUMP JUMPDEST PUSH1 0x0 PUSH1 0x20 DUP3 ADD SWAP1 POP DUP2 DUP2 SUB PUSH1 0x0 DUP4 ADD MSTORE PUSH2 0x7D5 DUP2 PUSH2 0x700 JUMP JUMPDEST SWAP1 POP SWAP2 SWAP1 POP JUMP JUMPDEST PUSH1 0x0 PUSH2 0x7E6 PUSH2 0x7F7 JUMP JUMPDEST SWAP1 POP PUSH2 0x7F2 DUP3 DUP3 PUSH2 0x8D8 JUMP JUMPDEST SWAP2 SWAP1 POP JUMP JUMPDEST PUSH1 0x0 PUSH1 0x40 MLOAD SWAP1 POP SWAP1 JUMP JUMPDEST PUSH1 0x0 PUSH8 0xFFFFFFFFFFFFFFFF DUP3 GT ISZERO PUSH2 0x81C JUMPI PUSH2 0x81B PUSH2 0x909 JUMP JUMPDEST JUMPDEST PUSH2 0x825 DUP3 PUSH2 0x938 JUMP JUMPDEST SWAP1 POP PUSH1 0x20 DUP2 ADD SWAP1 POP SWAP2 SWAP1 POP JUMP JUMPDEST PUSH1 0x0 DUP2 MLOAD SWAP1 POP SWAP2 SWAP1 POP JUMP JUMPDEST PUSH1 0x0 DUP2 MLOAD SWAP1 POP SWAP2 SWAP1 POP JUMP JUMPDEST PUSH1 0x0 DUP2 SWAP1 POP SWAP3 SWAP2 POP POP JUMP JUMPDEST PUSH1 0x0 DUP3 DUP3 MSTORE PUSH1 0x20 DUP3 ADD SWAP1 POP SWAP3 SWAP2 POP POP JUMP JUMPDEST PUSH1 0x0 PUSH2 0x86F DUP3 PUSH2 0x876 JUMP JUMPDEST SWAP1 POP SWAP2 SWAP1 POP JUMP JUMPDEST PUSH1 0x0 PUSH20 0xFFFFFFFFFFFFFFFFFFFFFFFFFFFFFFFFFFFFFFFF DUP3 AND SWAP1 POP SWAP2 SWAP1 POP JUMP JUMPDEST DUP3 DUP2 DUP4 CALLDATACOPY PUSH1 0x0 DUP4 DUP4 ADD MSTORE POP POP POP JUMP JUMPDEST PUSH1 0x0 JUMPDEST DUP4 DUP2 LT ISZERO PUSH2 0x8C3 JUMPI DUP1 DUP3 ADD MLOAD DUP2 DUP5 ADD MSTORE PUSH1 0x20 DUP2 ADD SWAP1 POP PUSH2 0x8A8 JUMP JUMPDEST DUP4 DUP2 GT ISZERO PUSH2 0x8D2 JUMPI PUSH1 0x0 DUP5 DUP5 ADD MSTORE JUMPDEST POP POP POP POP JUMP JUMPDEST PUSH2 0x8E1 DUP3 PUSH2 0x938 JUMP JUMPDEST DUP2 ADD DUP2 DUP2 LT PUSH8 0xFFFFFFFFFFFFFFFF DUP3 GT OR ISZERO PUSH2 0x900 JUMPI PUSH2 0x8FF PUSH2 0x909 JUMP JUMPDEST JUMPDEST DUP1 PUSH1 0x40 MSTORE POP POP POP JUMP JUMPDEST PUSH32 0x4E487B7100000000000000000000000000000000000000000000000000000000 PUSH1 0x0 MSTORE PUSH1 0x41 PUSH1 0x4 MSTORE PUSH1 0x24 PUSH1 0x0 REVERT JUMPDEST PUSH1 0x0 PUSH1 0x1F NOT PUSH1 0x1F DUP4 ADD AND SWAP1 POP SWAP2 SWAP1 POP JUMP JUMPDEST PUSH32 0x496E697469616C697A61626C653A20636F6E747261637420697320616C726561 PUSH1 0x0 DUP3 ADD MSTORE PUSH32 0x647920696E697469616C697A6564000000000000000000000000000000000000 PUSH1 0x20 DUP3 ADD MSTORE POP JUMP JUMPDEST PUSH32 0x455243313936373A206E657720696D706C656D656E746174696F6E206973206E PUSH1 0x0 DUP3 ADD MSTORE PUSH32 0x6F74206120636F6E747261637400000000000000000000000000000000000000 PUSH1 0x20 DUP3 ADD MSTORE POP JUMP JUMPDEST PUSH32 0x4F776E61626C653A2063616C6C6572206973206E6F7420746865206F776E6572 PUSH1 0x0 DUP3 ADD MSTORE POP JUMP JUMPDEST PUSH32 0x416464726573733A2063616C6C20746F206E6F6E2D636F6E7472616374000000 PUSH1 0x0 DUP3 ADD MSTORE POP JUMP JUMPDEST PUSH2 0xA42 DUP2 PUSH2 0x864 JUMP JUMPDEST DUP2 EQ PUSH2 0xA4D JUMPI PUSH1 0x0 DUP1 REVERT JUMPDEST POP JUMP INVALID COINBASE PUSH5 0x6472657373 GASPRICE KECCAK256 PUSH13 0x6F772D6C6576656C2064656C65 PUSH8 0x6174652063616C6C KECCAK256 PUSH7 0x61696C6564A264 PUSH10 0x706673582212208F86C4 0xC3 PUSH17 0x36438F5521DA8BE86FD254CA6FA77256F2 DELEGATECALL 0xEC DUP5 CODESIZE DUP6 GASPRICE 0xC5 DIFFICULTY PUSH29 0xFD64736F6C634300080100330000000000000000000000000000000000 "
				},
				"gasEstimates": {
					"creation": {
						"codeDepositCost": "546600",
						"executionCost": "infinite",
						"totalCost": "infinite"
					},
					"external": {
						"": "infinite",
						"InitProxy(address,bytes)": "infinite"
					},
					"internal": {
						"_getProxyOwnableStorageLocation()": "23",
						"_implementation()": "949",
						"_setInitialized()": "20980",
						"_setProyOwnableStorage()": "infinite"
					}
				},
				"methodIdentifiers": {
					"InitProxy(address,bytes)": "43869334"
				}
			},
			"storageLayout": {
				"storage": [],
				"types": null
			},
			"userdoc": {
				"kind": "user",
				"methods": {},
				"version": 1
			}
		}
	}
}