{
	"upgradeContract/v2/v2.sol": {
		"MyToken": {
			"abi": [
				{
					"inputs": [],
					"stateMutability": "nonpayable",
					"type": "constructor"
				},
				{
					"anonymous": false,
					"inputs": [
						{
							"indexed": false,
							"internalType": "address",
							"name": "previousAdmin",
							"type": "address"
						},
						{
							"indexed": false,
							"internalType": "address",
							"name": "newAdmin",
							"type": "address"
						}
					],
					"name": "AdminChanged",
					"type": "event"
				},
				{
					"anonymous": false,
					"inputs": [
						{
							"indexed": true,
							"internalType": "address",
							"name": "beacon",
							"type": "address"
						}
					],
					"name": "BeaconUpgraded",
					"type": "event"
				},
				{
					"anonymous": false,
					"inputs": [
						{
							"indexed": true,
							"internalType": "address",
							"name": "previousOwner",
							"type": "address"
						},
						{
							"indexed": true,
							"internalType": "address",
							"name": "newOwner",
							"type": "address"
						}
					],
					"name": "OwnershipTransferred",
					"type": "event"
				},
				{
					"anonymous": false,
					"inputs": [
						{
							"indexed": true,
							"internalType": "address",
							"name": "implementation",
							"type": "address"
						}
					],
					"name": "Upgraded",
					"type": "event"
				},
				{
					"inputs": [],
					"name": "getTokenId",
					"outputs": [
						{
							"internalType": "uint256",
							"name": "",
							"type": "uint256"
						}
					],
					"stateMutability": "pure",
					"type": "function"
				},
				{
					"inputs": [],
					"name": "getTokenName",
					"outputs": [
						{
							"internalType": "string",
							"name": "",
							"type": "string"
						}
					],
					"stateMutability": "pure",
					"type": "function"
				},
				{
					"inputs": [],
					"name": "initialize",
					"outputs": [],
					"stateMutability": "nonpayable",
					"type": "function"
				},
				{
					"inputs": [],
					"name": "owner",
					"outputs": [
						{
							"internalType": "address",
							"name": "",
							"type": "address"
						}
					],
					"stateMutability": "view",
					"type": "function"
				},
				{
					"inputs": [],
					"name": "proxiableUUID",
					"outputs": [
						{
							"internalType": "bytes32",
							"name": "",
							"type": "bytes32"
						}
					],
					"stateMutability": "view",
					"type": "function"
				},
				{
					"inputs": [],
					"name": "renounceOwnership",
					"outputs": [],
					"stateMutability": "nonpayable",
					"type": "function"
				},
				{
					"inputs": [],
					"name": "setValue",
					"outputs": [],
					"stateMutability": "nonpayable",
					"type": "function"
				},
				{
					"inputs": [
						{
							"internalType": "address",
							"name": "newOwner",
							"type": "address"
						}
					],
					"name": "transferOwnership",
					"outputs": [],
					"stateMutability": "nonpayable",
					"type": "function"
				},
				{
					"inputs": [
						{
							"internalType": "address",
							"name": "newImplementation",
							"type": "address"
						}
					],
					"name": "upgradeTo",
					"outputs": [],
					"stateMutability": "nonpayable",
					"type": "function"
				},
				{
					"inputs": [
						{
							"internalType": "address",
							"name": "newImplementation",
							"type": "address"
						},
						{
							"internalType": "bytes",
							"name": "data",
							"type": "bytes"
						}
					],
					"name": "upgradeToAndCall",
					"outputs": [],
					"stateMutability": "payable",
					"type": "function"
				}
			],
			"devdoc": {
				"kind": "dev",
				"methods": {
					"owner()": {
						"details": "Returns the address of the current owner."
					},
					"proxiableUUID()": {
						"details": "Implementation of the ERC1822 {proxiableUUID} function. This returns the storage slot used by the implementation. It is used to validate the implementation's compatibility when performing an upgrade. IMPORTANT: A proxy pointing at a proxiable contract should not be considered proxiable itself, because this risks bricking a proxy that upgrades to it, by delegating to itself until out of gas. Thus it is critical that this function revert if invoked through a proxy. This is guaranteed by the `notDelegated` modifier."
					},
					"renounceOwnership()": {
						"details": "Leaves the contract without owner. It will not be possible to call `onlyOwner` functions. Can only be called by the current owner. NOTE: Renouncing ownership will leave the contract without an owner, thereby disabling any functionality that is only available to the owner."
					},
					"transferOwnership(address)": {
						"details": "Transfers ownership of the contract to a new account (`newOwner`). Can only be called by the current owner."
					}
				},
				"version": 1
			},
			"evm": {
				"assembly": "    /* \"upgradeContract/v2/v2.sol\":521:1957  contract MyToken is OwnableUpgradeable, UUPSUpgradeable {   \r... */\n  mstore(0x40, 0xa0)\n    /* \"upgradeContract/v2/openzeppelin_L/contracts/proxy/utils/UUPSUpgradeable.sol\":1133:1137  this */\n  address\n    /* \"upgradeContract/v2/openzeppelin_L/contracts/proxy/utils/UUPSUpgradeable.sol\":1090:1138  address private immutable __self = address(this) */\n  0xffffffffffffffffffffffffffffffffffffffff\n  and\n  0x80\n  swap1\n  0xffffffffffffffffffffffffffffffffffffffff\n  and\n  0x60\n  shl\n  dup2\n  mstore\n  pop\n    /* \"upgradeContract/v2/v2.sol\":1028:1083  constructor() {\r... */\n  callvalue\n  dup1\n  iszero\n  tag_1\n  jumpi\n  0x00\n  dup1\n  revert\ntag_1:\n  pop\n    /* \"upgradeContract/v2/v2.sol\":1053:1075  _disableInitializers() */\n  tag_4\n    /* \"upgradeContract/v2/v2.sol\":1053:1073  _disableInitializers */\n  shl(0x20, tag_5)\n    /* \"upgradeContract/v2/v2.sol\":1053:1075  _disableInitializers() */\n  0x20\n  shr\n  jump\t// in\ntag_4:\n    /* \"upgradeContract/v2/v2.sol\":521:1957  contract MyToken is OwnableUpgradeable, UUPSUpgradeable {   \r... */\n  jump(tag_6)\n    /* \"upgradeContract/v2/openzeppelin_L/contracts-upgradeable/proxy/utils/Initializable.sol\":3443:3681  function _disableInitializers() internal virtual {\r... */\ntag_5:\n    /* \"upgradeContract/v2/openzeppelin_L/contracts-upgradeable/proxy/utils/Initializable.sol\":3512:3525  _initializing */\n  0x00\n  0x01\n  swap1\n  sload\n  swap1\n  0x0100\n  exp\n  swap1\n  div\n  0xff\n  and\n    /* \"upgradeContract/v2/openzeppelin_L/contracts-upgradeable/proxy/utils/Initializable.sol\":3511:3525  !_initializing */\n  iszero\n    /* \"upgradeContract/v2/openzeppelin_L/contracts-upgradeable/proxy/utils/Initializable.sol\":3503:3569  require(!_initializing, \"Initializable: contract is initializing\") */\n  tag_8\n  jumpi\n  mload(0x40)\n  0x08c379a000000000000000000000000000000000000000000000000000000000\n  dup2\n  mstore\n  0x04\n  add\n  tag_9\n  swap1\n  tag_10\n  jump\t// in\ntag_9:\n  mload(0x40)\n  dup1\n  swap2\n  sub\n  swap1\n  revert\ntag_8:\n    /* \"upgradeContract/v2/openzeppelin_L/contracts-upgradeable/proxy/utils/Initializable.sol\":3600:3615  type(uint8).max */\n  0xff\n    /* \"upgradeContract/v2/openzeppelin_L/contracts-upgradeable/proxy/utils/Initializable.sol\":3584:3615  _initialized != type(uint8).max */\n  dup1\n  and\n    /* \"upgradeContract/v2/openzeppelin_L/contracts-upgradeable/proxy/utils/Initializable.sol\":3584:3596  _initialized */\n  0x00\n  dup1\n  sload\n  swap1\n  0x0100\n  exp\n  swap1\n  div\n  0xff\n  and\n    /* \"upgradeContract/v2/openzeppelin_L/contracts-upgradeable/proxy/utils/Initializable.sol\":3584:3615  _initialized != type(uint8).max */\n  0xff\n  and\n  eq\n    /* \"upgradeContract/v2/openzeppelin_L/contracts-upgradeable/proxy/utils/Initializable.sol\":3580:3674  if (_initialized != type(uint8).max) {\r... */\n  tag_11\n  jumpi\n    /* \"upgradeContract/v2/openzeppelin_L/contracts-upgradeable/proxy/utils/Initializable.sol\":3647:3662  type(uint8).max */\n  0xff\n    /* \"upgradeContract/v2/openzeppelin_L/contracts-upgradeable/proxy/utils/Initializable.sol\":3632:3644  _initialized */\n  0x00\n  dup1\n    /* \"upgradeContract/v2/openzeppelin_L/contracts-upgradeable/proxy/utils/Initializable.sol\":3632:3662  _initialized = type(uint8).max */\n  0x0100\n  exp\n  dup2\n  sload\n  dup2\n  0xff\n  mul\n  not\n  and\n  swap1\n  dup4\n  0xff\n  and\n  mul\n  or\n  swap1\n  sstore\n  pop\n    /* \"upgradeContract/v2/openzeppelin_L/contracts-upgradeable/proxy/utils/Initializable.sol\":3580:3674  if (_initialized != type(uint8).max) {\r... */\ntag_11:\n    /* \"upgradeContract/v2/openzeppelin_L/contracts-upgradeable/proxy/utils/Initializable.sol\":3443:3681  function _disableInitializers() internal virtual {\r... */\n  jump\t// out\n    /* \"#utility.yul\":7:373   */\ntag_13:\n  0x00\n    /* \"#utility.yul\":170:237   */\n  tag_15\n    /* \"#utility.yul\":234:236   */\n  0x27\n    /* \"#utility.yul\":229:232   */\n  dup4\n    /* \"#utility.yul\":170:237   */\n  tag_16\n  jump\t// in\ntag_15:\n    /* \"#utility.yul\":163:237   */\n  swap2\n  pop\n    /* \"#utility.yul\":246:339   */\n  tag_17\n    /* \"#utility.yul\":335:338   */\n  dup3\n    /* \"#utility.yul\":246:339   */\n  tag_18\n  jump\t// in\ntag_17:\n    /* \"#utility.yul\":364:366   */\n  0x40\n    /* \"#utility.yul\":359:362   */\n  dup3\n    /* \"#utility.yul\":355:367   */\n  add\n    /* \"#utility.yul\":348:367   */\n  swap1\n  pop\n    /* \"#utility.yul\":153:373   */\n  swap2\n  swap1\n  pop\n  jump\t// out\n    /* \"#utility.yul\":379:798   */\ntag_10:\n  0x00\n    /* \"#utility.yul\":583:585   */\n  0x20\n    /* \"#utility.yul\":572:581   */\n  dup3\n    /* \"#utility.yul\":568:586   */\n  add\n    /* \"#utility.yul\":560:586   */\n  swap1\n  pop\n    /* \"#utility.yul\":632:641   */\n  dup2\n    /* \"#utility.yul\":626:630   */\n  dup2\n    /* \"#utility.yul\":622:642   */\n  sub\n    /* \"#utility.yul\":618:619   */\n  0x00\n    /* \"#utility.yul\":607:616   */\n  dup4\n    /* \"#utility.yul\":603:620   */\n  add\n    /* \"#utility.yul\":596:643   */\n  mstore\n    /* \"#utility.yul\":660:791   */\n  tag_20\n    /* \"#utility.yul\":786:790   */\n  dup2\n    /* \"#utility.yul\":660:791   */\n  tag_13\n  jump\t// in\ntag_20:\n    /* \"#utility.yul\":652:791   */\n  swap1\n  pop\n    /* \"#utility.yul\":550:798   */\n  swap2\n  swap1\n  pop\n  jump\t// out\n    /* \"#utility.yul\":804:973   */\ntag_16:\n  0x00\n    /* \"#utility.yul\":922:928   */\n  dup3\n    /* \"#utility.yul\":917:920   */\n  dup3\n    /* \"#utility.yul\":910:929   */\n  mstore\n    /* \"#utility.yul\":962:966   */\n  0x20\n    /* \"#utility.yul\":957:960   */\n  dup3\n    /* \"#utility.yul\":953:967   */\n  add\n    /* \"#utility.yul\":938:967   */\n  swap1\n  pop\n    /* \"#utility.yul\":900:973   */\n  swap3\n  swap2\n  pop\n  pop\n  jump\t// out\n    /* \"#utility.yul\":979:1205   */\ntag_18:\n    /* \"#utility.yul\":1119:1153   */\n  0x496e697469616c697a61626c653a20636f6e747261637420697320696e697469\n    /* \"#utility.yul\":1115:1116   */\n  0x00\n    /* \"#utility.yul\":1107:1113   */\n  dup3\n    /* \"#utility.yul\":1103:1117   */\n  add\n    /* \"#utility.yul\":1096:1154   */\n  mstore\n    /* \"#utility.yul\":1188:1197   */\n  0x616c697a696e6700000000000000000000000000000000000000000000000000\n    /* \"#utility.yul\":1183:1185   */\n  0x20\n    /* \"#utility.yul\":1175:1181   */\n  dup3\n    /* \"#utility.yul\":1171:1186   */\n  add\n    /* \"#utility.yul\":1164:1198   */\n  mstore\n    /* \"#utility.yul\":1085:1205   */\n  pop\n  jump\t// out\n    /* \"upgradeContract/v2/v2.sol\":521:1957  contract MyToken is OwnableUpgradeable, UUPSUpgradeable {   \r... */\ntag_6:\n  shr(0x60, mload(0x80))\n  codecopy(0x00, dataOffset(sub_0), dataSize(sub_0))\n  0x00\n  assignImmutable(\"0x1509f8d8925c0545b6a426638c55dcb9de4e51c41f7349dd1e9c74f3cab7487d\")\n  return(0x00, dataSize(sub_0))\nstop\n\nsub_0: assembly {\n        /* \"upgradeContract/v2/v2.sol\":521:1957  contract MyToken is OwnableUpgradeable, UUPSUpgradeable {   \r... */\n      mstore(0x40, 0x80)\n      jumpi(tag_1, lt(calldatasize, 0x04))\n      shr(0xe0, calldataload(0x00))\n      dup1\n      0x715018a6\n      gt\n      tag_12\n      jumpi\n      dup1\n      0x715018a6\n      eq\n      tag_7\n      jumpi\n      dup1\n      0x8129fc1c\n      eq\n      tag_8\n      jumpi\n      dup1\n      0x862b092b\n      eq\n      tag_9\n      jumpi\n      dup1\n      0x8da5cb5b\n      eq\n      tag_10\n      jumpi\n      dup1\n      0xf2fde38b\n      eq\n      tag_11\n      jumpi\n      jump(tag_1)\n    tag_12:\n      dup1\n      0x010a38f5\n      eq\n      tag_2\n      jumpi\n      dup1\n      0x3659cfe6\n      eq\n      tag_3\n      jumpi\n      dup1\n      0x4f1ef286\n      eq\n      tag_4\n      jumpi\n      dup1\n      0x4fa519fa\n      eq\n      tag_5\n      jumpi\n      dup1\n      0x52d1902d\n      eq\n      tag_6\n      jumpi\n    tag_1:\n      0x00\n      dup1\n      revert\n        /* \"upgradeContract/v2/v2.sol\":1371:1518  function getTokenId() public pure returns(uint256){\r... */\n    tag_2:\n      callvalue\n      dup1\n      iszero\n      tag_13\n      jumpi\n      0x00\n      dup1\n      revert\n    tag_13:\n      pop\n      tag_14\n      tag_15\n      jump\t// in\n    tag_14:\n      mload(0x40)\n      tag_16\n      swap2\n      swap1\n      tag_17\n      jump\t// in\n    tag_16:\n      mload(0x40)\n      dup1\n      swap2\n      sub\n      swap1\n      return\n        /* \"upgradeContract/v2/openzeppelin_L/contracts/proxy/utils/UUPSUpgradeable.sol\":3232:3430  function upgradeTo(address newImplementation) public virtual onlyProxy {\r... */\n    tag_3:\n      callvalue\n      dup1\n      iszero\n      tag_18\n      jumpi\n      0x00\n      dup1\n      revert\n    tag_18:\n      pop\n      tag_19\n      0x04\n      dup1\n      calldatasize\n      sub\n      dup2\n      add\n      swap1\n      tag_20\n      swap2\n      swap1\n      tag_21\n      jump\t// in\n    tag_20:\n      tag_22\n      jump\t// in\n    tag_19:\n      stop\n        /* \"upgradeContract/v2/openzeppelin_L/contracts/proxy/utils/UUPSUpgradeable.sol\":3760:3983  function upgradeToAndCall(address newImplementation, bytes memory data) public payable virtual onlyProxy {\r... */\n    tag_4:\n      tag_23\n      0x04\n      dup1\n      calldatasize\n      sub\n      dup2\n      add\n      swap1\n      tag_24\n      swap2\n      swap1\n      tag_25\n      jump\t// in\n    tag_24:\n      tag_26\n      jump\t// in\n    tag_23:\n      stop\n        /* \"upgradeContract/v2/v2.sol\":1240:1363  function setValue() public {\r... */\n    tag_5:\n      callvalue\n      dup1\n      iszero\n      tag_27\n      jumpi\n      0x00\n      dup1\n      revert\n    tag_27:\n      pop\n      tag_28\n      tag_29\n      jump\t// in\n    tag_28:\n      stop\n        /* \"upgradeContract/v2/openzeppelin_L/contracts/proxy/utils/UUPSUpgradeable.sol\":2839:2972  function proxiableUUID() external view virtual override notDelegated returns (bytes32) {\r... */\n    tag_6:\n      callvalue\n      dup1\n      iszero\n      tag_30\n      jumpi\n      0x00\n      dup1\n      revert\n    tag_30:\n      pop\n      tag_31\n      tag_32\n      jump\t// in\n    tag_31:\n      mload(0x40)\n      tag_33\n      swap2\n      swap1\n      tag_34\n      jump\t// in\n    tag_33:\n      mload(0x40)\n      dup1\n      swap2\n      sub\n      swap1\n      return\n        /* \"upgradeContract/v2/openzeppelin_L/contracts-upgradeable/access/OwnableUpgradeable.sol\":2150:2253  function renounceOwnership() public virtual onlyOwner {\r... */\n    tag_7:\n      callvalue\n      dup1\n      iszero\n      tag_35\n      jumpi\n      0x00\n      dup1\n      revert\n    tag_35:\n      pop\n      tag_36\n      tag_37\n      jump\t// in\n    tag_36:\n      stop\n        /* \"upgradeContract/v2/v2.sol\":1091:1232  function initialize() public initializer{\r... */\n    tag_8:\n      callvalue\n      dup1\n      iszero\n      tag_38\n      jumpi\n      0x00\n      dup1\n      revert\n    tag_38:\n      pop\n      tag_39\n      tag_40\n      jump\t// in\n    tag_39:\n      stop\n        /* \"upgradeContract/v2/v2.sol\":1526:1679  function getTokenName() public pure returns(string memory){\r... */\n    tag_9:\n      callvalue\n      dup1\n      iszero\n      tag_41\n      jumpi\n      0x00\n      dup1\n      revert\n    tag_41:\n      pop\n      tag_42\n      tag_43\n      jump\t// in\n    tag_42:\n      mload(0x40)\n      tag_44\n      swap2\n      swap1\n      tag_45\n      jump\t// in\n    tag_44:\n      mload(0x40)\n      dup1\n      swap2\n      sub\n      swap1\n      return\n        /* \"upgradeContract/v2/openzeppelin_L/contracts-upgradeable/access/OwnableUpgradeable.sol\":1509:1596  function owner() public view virtual returns (address) {\r... */\n    tag_10:\n      callvalue\n      dup1\n      iszero\n      tag_46\n      jumpi\n      0x00\n      dup1\n      revert\n    tag_46:\n      pop\n      tag_47\n      tag_48\n      jump\t// in\n    tag_47:\n      mload(0x40)\n      tag_49\n      swap2\n      swap1\n      tag_50\n      jump\t// in\n    tag_49:\n      mload(0x40)\n      dup1\n      swap2\n      sub\n      swap1\n      return\n        /* \"upgradeContract/v2/openzeppelin_L/contracts-upgradeable/access/OwnableUpgradeable.sol\":2408:2609  function transferOwnership(address newOwner) public virtual onlyOwner {\r... */\n    tag_11:\n      callvalue\n      dup1\n      iszero\n      tag_51\n      jumpi\n      0x00\n      dup1\n      revert\n    tag_51:\n      pop\n      tag_52\n      0x04\n      dup1\n      calldatasize\n      sub\n      dup2\n      add\n      swap1\n      tag_53\n      swap2\n      swap1\n      tag_21\n      jump\t// in\n    tag_53:\n      tag_54\n      jump\t// in\n    tag_52:\n      stop\n        /* \"upgradeContract/v2/v2.sol\":1371:1518  function getTokenId() public pure returns(uint256){\r... */\n    tag_15:\n        /* \"upgradeContract/v2/v2.sol\":1413:1420  uint256 */\n      0x00\n        /* \"upgradeContract/v2/v2.sol\":1432:1455  MyTokenStorage memory $ */\n      dup1\n        /* \"upgradeContract/v2/v2.sol\":1458:1478  _getMyTokenStorage() */\n      tag_56\n        /* \"upgradeContract/v2/v2.sol\":1458:1476  _getMyTokenStorage */\n      tag_57\n        /* \"upgradeContract/v2/v2.sol\":1458:1478  _getMyTokenStorage() */\n      jump\t// in\n    tag_56:\n        /* \"upgradeContract/v2/v2.sol\":1432:1478  MyTokenStorage memory $ = _getMyTokenStorage() */\n      mload(0x40)\n      dup1\n      0x40\n      add\n      0x40\n      mstore\n      swap1\n      dup2\n      0x00\n      dup3\n      add\n      dup1\n      sload\n      tag_58\n      swap1\n      tag_59\n      jump\t// in\n    tag_58:\n      dup1\n      0x1f\n      add\n      0x20\n      dup1\n      swap2\n      div\n      mul\n      0x20\n      add\n      mload(0x40)\n      swap1\n      dup2\n      add\n      0x40\n      mstore\n      dup1\n      swap3\n      swap2\n      swap1\n      dup2\n      dup2\n      mstore\n      0x20\n      add\n      dup3\n      dup1\n      sload\n      tag_60\n      swap1\n      tag_59\n      jump\t// in\n    tag_60:\n      dup1\n      iszero\n      tag_61\n      jumpi\n      dup1\n      0x1f\n      lt\n      tag_62\n      jumpi\n      0x0100\n      dup1\n      dup4\n      sload\n      div\n      mul\n      dup4\n      mstore\n      swap2\n      0x20\n      add\n      swap2\n      jump(tag_61)\n    tag_62:\n      dup3\n      add\n      swap2\n      swap1\n      0x00\n      mstore\n      keccak256(0x00, 0x20)\n      swap1\n    tag_63:\n      dup2\n      sload\n      dup2\n      mstore\n      swap1\n      0x01\n      add\n      swap1\n      0x20\n      add\n      dup1\n      dup4\n      gt\n      tag_63\n      jumpi\n      dup3\n      swap1\n      sub\n      0x1f\n      and\n      dup3\n      add\n      swap2\n    tag_61:\n      pop\n      pop\n      pop\n      pop\n      pop\n      dup2\n      mstore\n      0x20\n      add\n      0x01\n      dup3\n      add\n      sload\n      dup2\n      mstore\n      pop\n      pop\n      swap1\n      pop\n        /* \"upgradeContract/v2/v2.sol\":1496:1497  $ */\n      dup1\n        /* \"upgradeContract/v2/v2.sol\":1496:1510  $._nextTokenId */\n      0x20\n      add\n      mload\n        /* \"upgradeContract/v2/v2.sol\":1489:1510  return $._nextTokenId */\n      swap2\n      pop\n      pop\n        /* \"upgradeContract/v2/v2.sol\":1371:1518  function getTokenId() public pure returns(uint256){\r... */\n      swap1\n      jump\t// out\n        /* \"upgradeContract/v2/openzeppelin_L/contracts/proxy/utils/UUPSUpgradeable.sol\":3232:3430  function upgradeTo(address newImplementation) public virtual onlyProxy {\r... */\n    tag_22:\n        /* \"upgradeContract/v2/openzeppelin_L/contracts/proxy/utils/UUPSUpgradeable.sol\":1709:1715  __self */\n      immutable(\"0x1509f8d8925c0545b6a426638c55dcb9de4e51c41f7349dd1e9c74f3cab7487d\")\n        /* \"upgradeContract/v2/openzeppelin_L/contracts/proxy/utils/UUPSUpgradeable.sol\":1692:1715  address(this) != __self */\n      0xffffffffffffffffffffffffffffffffffffffff\n      and\n        /* \"upgradeContract/v2/openzeppelin_L/contracts/proxy/utils/UUPSUpgradeable.sol\":1700:1704  this */\n      address\n        /* \"upgradeContract/v2/openzeppelin_L/contracts/proxy/utils/UUPSUpgradeable.sol\":1692:1715  address(this) != __self */\n      0xffffffffffffffffffffffffffffffffffffffff\n      and\n      eq\n      iszero\n        /* \"upgradeContract/v2/openzeppelin_L/contracts/proxy/utils/UUPSUpgradeable.sol\":1684:1764  require(address(this) != __self, \"Function must be called through delegatecall\") */\n      tag_65\n      jumpi\n      mload(0x40)\n      0x08c379a000000000000000000000000000000000000000000000000000000000\n      dup2\n      mstore\n      0x04\n      add\n      tag_66\n      swap1\n      tag_67\n      jump\t// in\n    tag_66:\n      mload(0x40)\n      dup1\n      swap2\n      sub\n      swap1\n      revert\n    tag_65:\n        /* \"upgradeContract/v2/openzeppelin_L/contracts/proxy/utils/UUPSUpgradeable.sol\":1807:1813  __self */\n      immutable(\"0x1509f8d8925c0545b6a426638c55dcb9de4e51c41f7349dd1e9c74f3cab7487d\")\n        /* \"upgradeContract/v2/openzeppelin_L/contracts/proxy/utils/UUPSUpgradeable.sol\":1783:1813  _getImplementation() == __self */\n      0xffffffffffffffffffffffffffffffffffffffff\n      and\n        /* \"upgradeContract/v2/openzeppelin_L/contracts/proxy/utils/UUPSUpgradeable.sol\":1783:1803  _getImplementation() */\n      tag_68\n        /* \"upgradeContract/v2/openzeppelin_L/contracts/proxy/utils/UUPSUpgradeable.sol\":1783:1801  _getImplementation */\n      tag_69\n        /* \"upgradeContract/v2/openzeppelin_L/contracts/proxy/utils/UUPSUpgradeable.sol\":1783:1803  _getImplementation() */\n      jump\t// in\n    tag_68:\n        /* \"upgradeContract/v2/openzeppelin_L/contracts/proxy/utils/UUPSUpgradeable.sol\":1783:1813  _getImplementation() == __self */\n      0xffffffffffffffffffffffffffffffffffffffff\n      and\n      eq\n        /* \"upgradeContract/v2/openzeppelin_L/contracts/proxy/utils/UUPSUpgradeable.sol\":1775:1862  require(_getImplementation() == __self, \"Function must be called through active proxy\") */\n      tag_70\n      jumpi\n      mload(0x40)\n      0x08c379a000000000000000000000000000000000000000000000000000000000\n      dup2\n      mstore\n      0x04\n      add\n      tag_71\n      swap1\n      tag_72\n      jump\t// in\n    tag_71:\n      mload(0x40)\n      dup1\n      swap2\n      sub\n      swap1\n      revert\n    tag_70:\n        /* \"upgradeContract/v2/openzeppelin_L/contracts/proxy/utils/UUPSUpgradeable.sol\":3314:3350  _authorizeUpgrade(newImplementation) */\n      tag_74\n        /* \"upgradeContract/v2/openzeppelin_L/contracts/proxy/utils/UUPSUpgradeable.sol\":3332:3349  newImplementation */\n      dup2\n        /* \"upgradeContract/v2/openzeppelin_L/contracts/proxy/utils/UUPSUpgradeable.sol\":3314:3331  _authorizeUpgrade */\n      tag_75\n        /* \"upgradeContract/v2/openzeppelin_L/contracts/proxy/utils/UUPSUpgradeable.sol\":3314:3350  _authorizeUpgrade(newImplementation) */\n      jump\t// in\n    tag_74:\n        /* \"upgradeContract/v2/openzeppelin_L/contracts/proxy/utils/UUPSUpgradeable.sol\":3361:3422  _upgradeToAndCallUUPS(newImplementation, new bytes(0), false) */\n      tag_76\n        /* \"upgradeContract/v2/openzeppelin_L/contracts/proxy/utils/UUPSUpgradeable.sol\":3383:3400  newImplementation */\n      dup2\n        /* \"upgradeContract/v2/openzeppelin_L/contracts/proxy/utils/UUPSUpgradeable.sol\":3412:3413  0 */\n      0x00\n        /* \"upgradeContract/v2/openzeppelin_L/contracts/proxy/utils/UUPSUpgradeable.sol\":3402:3414  new bytes(0) */\n      0xffffffffffffffff\n      dup2\n      gt\n      iszero\n      tag_77\n      jumpi\n      mstore(0x00, 0x4e487b7100000000000000000000000000000000000000000000000000000000)\n      mstore(0x04, 0x41)\n      revert(0x00, 0x24)\n    tag_77:\n      mload(0x40)\n      swap1\n      dup1\n      dup3\n      mstore\n      dup1\n      0x1f\n      add\n      not(0x1f)\n      and\n      0x20\n      add\n      dup3\n      add\n      0x40\n      mstore\n      dup1\n      iszero\n      tag_78\n      jumpi\n      dup2\n      0x20\n      add\n      0x01\n      dup3\n      mul\n      dup1\n      calldatasize\n      dup4\n      calldatacopy\n      dup1\n      dup3\n      add\n      swap2\n      pop\n      pop\n      swap1\n      pop\n    tag_78:\n      pop\n        /* \"upgradeContract/v2/openzeppelin_L/contracts/proxy/utils/UUPSUpgradeable.sol\":3416:3421  false */\n      0x00\n        /* \"upgradeContract/v2/openzeppelin_L/contracts/proxy/utils/UUPSUpgradeable.sol\":3361:3382  _upgradeToAndCallUUPS */\n      tag_79\n        /* \"upgradeContract/v2/openzeppelin_L/contracts/proxy/utils/UUPSUpgradeable.sol\":3361:3422  _upgradeToAndCallUUPS(newImplementation, new bytes(0), false) */\n      jump\t// in\n    tag_76:\n        /* \"upgradeContract/v2/openzeppelin_L/contracts/proxy/utils/UUPSUpgradeable.sol\":3232:3430  function upgradeTo(address newImplementation) public virtual onlyProxy {\r... */\n      pop\n      jump\t// out\n        /* \"upgradeContract/v2/openzeppelin_L/contracts/proxy/utils/UUPSUpgradeable.sol\":3760:3983  function upgradeToAndCall(address newImplementation, bytes memory data) public payable virtual onlyProxy {\r... */\n    tag_26:\n        /* \"upgradeContract/v2/openzeppelin_L/contracts/proxy/utils/UUPSUpgradeable.sol\":1709:1715  __self */\n      immutable(\"0x1509f8d8925c0545b6a426638c55dcb9de4e51c41f7349dd1e9c74f3cab7487d\")\n        /* \"upgradeContract/v2/openzeppelin_L/contracts/proxy/utils/UUPSUpgradeable.sol\":1692:1715  address(this) != __self */\n      0xffffffffffffffffffffffffffffffffffffffff\n      and\n        /* \"upgradeContract/v2/openzeppelin_L/contracts/proxy/utils/UUPSUpgradeable.sol\":1700:1704  this */\n      address\n        /* \"upgradeContract/v2/openzeppelin_L/contracts/proxy/utils/UUPSUpgradeable.sol\":1692:1715  address(this) != __self */\n      0xffffffffffffffffffffffffffffffffffffffff\n      and\n      eq\n      iszero\n        /* \"upgradeContract/v2/openzeppelin_L/contracts/proxy/utils/UUPSUpgradeable.sol\":1684:1764  require(address(this) != __self, \"Function must be called through delegatecall\") */\n      tag_81\n      jumpi\n      mload(0x40)\n      0x08c379a000000000000000000000000000000000000000000000000000000000\n      dup2\n      mstore\n      0x04\n      add\n      tag_82\n      swap1\n      tag_67\n      jump\t// in\n    tag_82:\n      mload(0x40)\n      dup1\n      swap2\n      sub\n      swap1\n      revert\n    tag_81:\n        /* \"upgradeContract/v2/openzeppelin_L/contracts/proxy/utils/UUPSUpgradeable.sol\":1807:1813  __self */\n      immutable(\"0x1509f8d8925c0545b6a426638c55dcb9de4e51c41f7349dd1e9c74f3cab7487d\")\n        /* \"upgradeContract/v2/openzeppelin_L/contracts/proxy/utils/UUPSUpgradeable.sol\":1783:1813  _getImplementation() == __self */\n      0xffffffffffffffffffffffffffffffffffffffff\n      and\n        /* \"upgradeContract/v2/openzeppelin_L/contracts/proxy/utils/UUPSUpgradeable.sol\":1783:1803  _getImplementation() */\n      tag_83\n        /* \"upgradeContract/v2/openzeppelin_L/contracts/proxy/utils/UUPSUpgradeable.sol\":1783:1801  _getImplementation */\n      tag_69\n        /* \"upgradeContract/v2/openzeppelin_L/contracts/proxy/utils/UUPSUpgradeable.sol\":1783:1803  _getImplementation() */\n      jump\t// in\n    tag_83:\n        /* \"upgradeContract/v2/openzeppelin_L/contracts/proxy/utils/UUPSUpgradeable.sol\":1783:1813  _getImplementation() == __self */\n      0xffffffffffffffffffffffffffffffffffffffff\n      and\n      eq\n        /* \"upgradeContract/v2/openzeppelin_L/contracts/proxy/utils/UUPSUpgradeable.sol\":1775:1862  require(_getImplementation() == __self, \"Function must be called through active proxy\") */\n      tag_84\n      jumpi\n      mload(0x40)\n      0x08c379a000000000000000000000000000000000000000000000000000000000\n      dup2\n      mstore\n      0x04\n      add\n      tag_85\n      swap1\n      tag_72\n      jump\t// in\n    tag_85:\n      mload(0x40)\n      dup1\n      swap2\n      sub\n      swap1\n      revert\n    tag_84:\n        /* \"upgradeContract/v2/openzeppelin_L/contracts/proxy/utils/UUPSUpgradeable.sol\":3876:3912  _authorizeUpgrade(newImplementation) */\n      tag_87\n        /* \"upgradeContract/v2/openzeppelin_L/contracts/proxy/utils/UUPSUpgradeable.sol\":3894:3911  newImplementation */\n      dup3\n        /* \"upgradeContract/v2/openzeppelin_L/contracts/proxy/utils/UUPSUpgradeable.sol\":3876:3893  _authorizeUpgrade */\n      tag_75\n        /* \"upgradeContract/v2/openzeppelin_L/contracts/proxy/utils/UUPSUpgradeable.sol\":3876:3912  _authorizeUpgrade(newImplementation) */\n      jump\t// in\n    tag_87:\n        /* \"upgradeContract/v2/openzeppelin_L/contracts/proxy/utils/UUPSUpgradeable.sol\":3923:3975  _upgradeToAndCallUUPS(newImplementation, data, true) */\n      tag_88\n        /* \"upgradeContract/v2/openzeppelin_L/contracts/proxy/utils/UUPSUpgradeable.sol\":3945:3962  newImplementation */\n      dup3\n        /* \"upgradeContract/v2/openzeppelin_L/contracts/proxy/utils/UUPSUpgradeable.sol\":3964:3968  data */\n      dup3\n        /* \"upgradeContract/v2/openzeppelin_L/contracts/proxy/utils/UUPSUpgradeable.sol\":3970:3974  true */\n      0x01\n        /* \"upgradeContract/v2/openzeppelin_L/contracts/proxy/utils/UUPSUpgradeable.sol\":3923:3944  _upgradeToAndCallUUPS */\n      tag_79\n        /* \"upgradeContract/v2/openzeppelin_L/contracts/proxy/utils/UUPSUpgradeable.sol\":3923:3975  _upgradeToAndCallUUPS(newImplementation, data, true) */\n      jump\t// in\n    tag_88:\n        /* \"upgradeContract/v2/openzeppelin_L/contracts/proxy/utils/UUPSUpgradeable.sol\":3760:3983  function upgradeToAndCall(address newImplementation, bytes memory data) public payable virtual onlyProxy {\r... */\n      pop\n      pop\n      jump\t// out\n        /* \"upgradeContract/v2/v2.sol\":1240:1363  function setValue() public {\r... */\n    tag_29:\n        /* \"upgradeContract/v2/v2.sol\":1278:1302  MyTokenStorage storage $ */\n      0x00\n        /* \"upgradeContract/v2/v2.sol\":1305:1325  _getMyTokenStorage() */\n      tag_90\n        /* \"upgradeContract/v2/v2.sol\":1305:1323  _getMyTokenStorage */\n      tag_57\n        /* \"upgradeContract/v2/v2.sol\":1305:1325  _getMyTokenStorage() */\n      jump\t// in\n    tag_90:\n        /* \"upgradeContract/v2/v2.sol\":1278:1325  MyTokenStorage storage $ = _getMyTokenStorage() */\n      swap1\n      pop\n        /* \"upgradeContract/v2/v2.sol\":1353:1354  2 */\n      0x02\n        /* \"upgradeContract/v2/v2.sol\":1336:1337  $ */\n      dup2\n        /* \"upgradeContract/v2/v2.sol\":1336:1350  $._nextTokenId */\n      0x01\n      add\n      0x00\n        /* \"upgradeContract/v2/v2.sol\":1336:1354  $._nextTokenId +=2 */\n      dup3\n      dup3\n      sload\n      tag_91\n      swap2\n      swap1\n      tag_92\n      jump\t// in\n    tag_91:\n      swap3\n      pop\n      pop\n      dup2\n      swap1\n      sstore\n      pop\n        /* \"upgradeContract/v2/v2.sol\":1240:1363  function setValue() public {\r... */\n      pop\n      jump\t// out\n        /* \"upgradeContract/v2/openzeppelin_L/contracts/proxy/utils/UUPSUpgradeable.sol\":2839:2972  function proxiableUUID() external view virtual override notDelegated returns (bytes32) {\r... */\n    tag_32:\n        /* \"upgradeContract/v2/openzeppelin_L/contracts/proxy/utils/UUPSUpgradeable.sol\":2917:2924  bytes32 */\n      0x00\n        /* \"upgradeContract/v2/openzeppelin_L/contracts/proxy/utils/UUPSUpgradeable.sol\":2154:2160  __self */\n      immutable(\"0x1509f8d8925c0545b6a426638c55dcb9de4e51c41f7349dd1e9c74f3cab7487d\")\n        /* \"upgradeContract/v2/openzeppelin_L/contracts/proxy/utils/UUPSUpgradeable.sol\":2137:2160  address(this) == __self */\n      0xffffffffffffffffffffffffffffffffffffffff\n      and\n        /* \"upgradeContract/v2/openzeppelin_L/contracts/proxy/utils/UUPSUpgradeable.sol\":2145:2149  this */\n      address\n        /* \"upgradeContract/v2/openzeppelin_L/contracts/proxy/utils/UUPSUpgradeable.sol\":2137:2160  address(this) == __self */\n      0xffffffffffffffffffffffffffffffffffffffff\n      and\n      eq\n        /* \"upgradeContract/v2/openzeppelin_L/contracts/proxy/utils/UUPSUpgradeable.sol\":2129:2221  require(address(this) == __self, \"UUPSUpgradeable: must not be called through delegatecall\") */\n      tag_94\n      jumpi\n      mload(0x40)\n      0x08c379a000000000000000000000000000000000000000000000000000000000\n      dup2\n      mstore\n      0x04\n      add\n      tag_95\n      swap1\n      tag_96\n      jump\t// in\n    tag_95:\n      mload(0x40)\n      dup1\n      swap2\n      sub\n      swap1\n      revert\n    tag_94:\n        /* \"upgradeContract/v2/openzeppelin_L/contracts/proxy/ERC1967/ERC1967Upgrade.sol\":1213:1279  0x360894a13ba1a3210667c828492db98dca3e2076cc3735a920a3ca505d382bbc */\n      0x360894a13ba1a3210667c828492db98dca3e2076cc3735a920a3ca505d382bbc\n        /* \"upgradeContract/v2/openzeppelin_L/contracts/proxy/utils/UUPSUpgradeable.sol\":2944:2964  _IMPLEMENTATION_SLOT */\n      0x00\n      shl\n        /* \"upgradeContract/v2/openzeppelin_L/contracts/proxy/utils/UUPSUpgradeable.sol\":2937:2964  return _IMPLEMENTATION_SLOT */\n      swap1\n      pop\n        /* \"upgradeContract/v2/openzeppelin_L/contracts/proxy/utils/UUPSUpgradeable.sol\":2839:2972  function proxiableUUID() external view virtual override notDelegated returns (bytes32) {\r... */\n      swap1\n      jump\t// out\n        /* \"upgradeContract/v2/openzeppelin_L/contracts-upgradeable/access/OwnableUpgradeable.sol\":2150:2253  function renounceOwnership() public virtual onlyOwner {\r... */\n    tag_37:\n        /* \"upgradeContract/v2/openzeppelin_L/contracts-upgradeable/access/OwnableUpgradeable.sol\":1395:1408  _checkOwner() */\n      tag_99\n        /* \"upgradeContract/v2/openzeppelin_L/contracts-upgradeable/access/OwnableUpgradeable.sol\":1395:1406  _checkOwner */\n      tag_100\n        /* \"upgradeContract/v2/openzeppelin_L/contracts-upgradeable/access/OwnableUpgradeable.sol\":1395:1408  _checkOwner() */\n      jump\t// in\n    tag_99:\n        /* \"upgradeContract/v2/openzeppelin_L/contracts-upgradeable/access/OwnableUpgradeable.sol\":2215:2245  _transferOwnership(address(0)) */\n      tag_102\n        /* \"upgradeContract/v2/openzeppelin_L/contracts-upgradeable/access/OwnableUpgradeable.sol\":2242:2243  0 */\n      0x00\n        /* \"upgradeContract/v2/openzeppelin_L/contracts-upgradeable/access/OwnableUpgradeable.sol\":2215:2233  _transferOwnership */\n      tag_103\n        /* \"upgradeContract/v2/openzeppelin_L/contracts-upgradeable/access/OwnableUpgradeable.sol\":2215:2245  _transferOwnership(address(0)) */\n      jump\t// in\n    tag_102:\n        /* \"upgradeContract/v2/openzeppelin_L/contracts-upgradeable/access/OwnableUpgradeable.sol\":2150:2253  function renounceOwnership() public virtual onlyOwner {\r... */\n      jump\t// out\n        /* \"upgradeContract/v2/v2.sol\":1091:1232  function initialize() public initializer{\r... */\n    tag_40:\n        /* \"upgradeContract/v2/openzeppelin_L/contracts-upgradeable/proxy/utils/Initializable.sol\":2507:2520  _initializing */\n      0x00\n      0x01\n      swap1\n      sload\n      swap1\n      0x0100\n      exp\n      swap1\n      div\n      0xff\n      and\n        /* \"upgradeContract/v2/openzeppelin_L/contracts-upgradeable/proxy/utils/Initializable.sol\":2507:2558  _initializing ? _isConstructor() : _initialized < 1 */\n      tag_105\n      jumpi\n        /* \"upgradeContract/v2/openzeppelin_L/contracts-upgradeable/proxy/utils/Initializable.sol\":2557:2558  1 */\n      0x01\n        /* \"upgradeContract/v2/openzeppelin_L/contracts-upgradeable/proxy/utils/Initializable.sol\":2542:2554  _initialized */\n      0x00\n      dup1\n      sload\n      swap1\n      0x0100\n      exp\n      swap1\n      div\n      0xff\n      and\n        /* \"upgradeContract/v2/openzeppelin_L/contracts-upgradeable/proxy/utils/Initializable.sol\":2542:2558  _initialized < 1 */\n      0xff\n      and\n      lt\n        /* \"upgradeContract/v2/openzeppelin_L/contracts-upgradeable/proxy/utils/Initializable.sol\":2507:2558  _initializing ? _isConstructor() : _initialized < 1 */\n      jump(tag_106)\n    tag_105:\n        /* \"upgradeContract/v2/openzeppelin_L/contracts-upgradeable/proxy/utils/Initializable.sol\":2523:2539  _isConstructor() */\n      tag_107\n        /* \"upgradeContract/v2/openzeppelin_L/contracts-upgradeable/proxy/utils/Initializable.sol\":2523:2537  _isConstructor */\n      tag_108\n        /* \"upgradeContract/v2/openzeppelin_L/contracts-upgradeable/proxy/utils/Initializable.sol\":2523:2539  _isConstructor() */\n      jump\t// in\n    tag_107:\n        /* \"upgradeContract/v2/openzeppelin_L/contracts-upgradeable/proxy/utils/Initializable.sol\":2507:2558  _initializing ? _isConstructor() : _initialized < 1 */\n    tag_106:\n        /* \"upgradeContract/v2/openzeppelin_L/contracts-upgradeable/proxy/utils/Initializable.sol\":2499:2609  require(_initializing ? _isConstructor() : _initialized < 1, \"Initializable: contract is already initialized\") */\n      tag_109\n      jumpi\n      mload(0x40)\n      0x08c379a000000000000000000000000000000000000000000000000000000000\n      dup2\n      mstore\n      0x04\n      add\n      tag_110\n      swap1\n      tag_111\n      jump\t// in\n    tag_110:\n      mload(0x40)\n      dup1\n      swap2\n      sub\n      swap1\n      revert\n    tag_109:\n        /* \"upgradeContract/v2/openzeppelin_L/contracts-upgradeable/proxy/utils/Initializable.sol\":2622:2641  bool isTopLevelCall */\n      0x00\n        /* \"upgradeContract/v2/openzeppelin_L/contracts-upgradeable/proxy/utils/Initializable.sol\":2645:2658  _initializing */\n      dup1\n      0x01\n      swap1\n      sload\n      swap1\n      0x0100\n      exp\n      swap1\n      div\n      0xff\n      and\n        /* \"upgradeContract/v2/openzeppelin_L/contracts-upgradeable/proxy/utils/Initializable.sol\":2644:2658  !_initializing */\n      iszero\n        /* \"upgradeContract/v2/openzeppelin_L/contracts-upgradeable/proxy/utils/Initializable.sol\":2622:2658  bool isTopLevelCall = !_initializing */\n      swap1\n      pop\n        /* \"upgradeContract/v2/openzeppelin_L/contracts-upgradeable/proxy/utils/Initializable.sol\":2684:2685  1 */\n      0x01\n        /* \"upgradeContract/v2/openzeppelin_L/contracts-upgradeable/proxy/utils/Initializable.sol\":2669:2681  _initialized */\n      0x00\n      dup1\n        /* \"upgradeContract/v2/openzeppelin_L/contracts-upgradeable/proxy/utils/Initializable.sol\":2669:2685  _initialized = 1 */\n      0x0100\n      exp\n      dup2\n      sload\n      dup2\n      0xff\n      mul\n      not\n      and\n      swap1\n      dup4\n      0xff\n      and\n      mul\n      or\n      swap1\n      sstore\n      pop\n        /* \"upgradeContract/v2/openzeppelin_L/contracts-upgradeable/proxy/utils/Initializable.sol\":2700:2714  isTopLevelCall */\n      dup1\n        /* \"upgradeContract/v2/openzeppelin_L/contracts-upgradeable/proxy/utils/Initializable.sol\":2696:2763  if (isTopLevelCall) {\r... */\n      iszero\n      tag_112\n      jumpi\n        /* \"upgradeContract/v2/openzeppelin_L/contracts-upgradeable/proxy/utils/Initializable.sol\":2747:2751  true */\n      0x01\n        /* \"upgradeContract/v2/openzeppelin_L/contracts-upgradeable/proxy/utils/Initializable.sol\":2731:2744  _initializing */\n      0x00\n      0x01\n        /* \"upgradeContract/v2/openzeppelin_L/contracts-upgradeable/proxy/utils/Initializable.sol\":2731:2751  _initializing = true */\n      0x0100\n      exp\n      dup2\n      sload\n      dup2\n      0xff\n      mul\n      not\n      and\n      swap1\n      dup4\n      iszero\n      iszero\n      mul\n      or\n      swap1\n      sstore\n      pop\n        /* \"upgradeContract/v2/openzeppelin_L/contracts-upgradeable/proxy/utils/Initializable.sol\":2696:2763  if (isTopLevelCall) {\r... */\n    tag_112:\n        /* \"upgradeContract/v2/v2.sol\":1142:1166  MyTokenStorage storage $ */\n      0x00\n        /* \"upgradeContract/v2/v2.sol\":1169:1189  _getMyTokenStorage() */\n      tag_114\n        /* \"upgradeContract/v2/v2.sol\":1169:1187  _getMyTokenStorage */\n      tag_57\n        /* \"upgradeContract/v2/v2.sol\":1169:1189  _getMyTokenStorage() */\n      jump\t// in\n    tag_114:\n        /* \"upgradeContract/v2/v2.sol\":1142:1189  MyTokenStorage storage $ = _getMyTokenStorage() */\n      swap1\n      pop\n        /* \"upgradeContract/v2/v2.sol\":1200:1224  $._tokenName = \"MyToken\" */\n      mload(0x40)\n      dup1\n      0x40\n      add\n      0x40\n      mstore\n      dup1\n      0x07\n      dup2\n      mstore\n      0x20\n      add\n      0x4d79546f6b656e00000000000000000000000000000000000000000000000000\n      dup2\n      mstore\n      pop\n        /* \"upgradeContract/v2/v2.sol\":1200:1201  $ */\n      dup2\n        /* \"upgradeContract/v2/v2.sol\":1200:1212  $._tokenName */\n      0x00\n      add\n        /* \"upgradeContract/v2/v2.sol\":1200:1224  $._tokenName = \"MyToken\" */\n      swap1\n      dup1\n      mload\n      swap1\n      0x20\n      add\n      swap1\n      tag_115\n      swap3\n      swap2\n      swap1\n      tag_116\n      jump\t// in\n    tag_115:\n      pop\n        /* \"upgradeContract/v2/openzeppelin_L/contracts-upgradeable/proxy/utils/Initializable.sol\":2775:2776  _ */\n      pop\n        /* \"upgradeContract/v2/openzeppelin_L/contracts-upgradeable/proxy/utils/Initializable.sol\":2793:2807  isTopLevelCall */\n      dup1\n        /* \"upgradeContract/v2/openzeppelin_L/contracts-upgradeable/proxy/utils/Initializable.sol\":2789:2857  if (isTopLevelCall) {\r... */\n      iszero\n      tag_117\n      jumpi\n        /* \"upgradeContract/v2/openzeppelin_L/contracts-upgradeable/proxy/utils/Initializable.sol\":2840:2845  false */\n      0x00\n        /* \"upgradeContract/v2/openzeppelin_L/contracts-upgradeable/proxy/utils/Initializable.sol\":2824:2837  _initializing */\n      dup1\n      0x01\n        /* \"upgradeContract/v2/openzeppelin_L/contracts-upgradeable/proxy/utils/Initializable.sol\":2824:2845  _initializing = false */\n      0x0100\n      exp\n      dup2\n      sload\n      dup2\n      0xff\n      mul\n      not\n      and\n      swap1\n      dup4\n      iszero\n      iszero\n      mul\n      or\n      swap1\n      sstore\n      pop\n        /* \"upgradeContract/v2/openzeppelin_L/contracts-upgradeable/proxy/utils/Initializable.sol\":2789:2857  if (isTopLevelCall) {\r... */\n    tag_117:\n        /* \"upgradeContract/v2/v2.sol\":1091:1232  function initialize() public initializer{\r... */\n      pop\n      jump\t// out\n        /* \"upgradeContract/v2/v2.sol\":1526:1679  function getTokenName() public pure returns(string memory){\r... */\n    tag_43:\n        /* \"upgradeContract/v2/v2.sol\":1570:1583  string memory */\n      0x60\n        /* \"upgradeContract/v2/v2.sol\":1595:1618  MyTokenStorage memory $ */\n      0x00\n        /* \"upgradeContract/v2/v2.sol\":1621:1641  _getMyTokenStorage() */\n      tag_119\n        /* \"upgradeContract/v2/v2.sol\":1621:1639  _getMyTokenStorage */\n      tag_57\n        /* \"upgradeContract/v2/v2.sol\":1621:1641  _getMyTokenStorage() */\n      jump\t// in\n    tag_119:\n        /* \"upgradeContract/v2/v2.sol\":1595:1641  MyTokenStorage memory $ = _getMyTokenStorage() */\n      mload(0x40)\n      dup1\n      0x40\n      add\n      0x40\n      mstore\n      swap1\n      dup2\n      0x00\n      dup3\n      add\n      dup1\n      sload\n      tag_120\n      swap1\n      tag_59\n      jump\t// in\n    tag_120:\n      dup1\n      0x1f\n      add\n      0x20\n      dup1\n      swap2\n      div\n      mul\n      0x20\n      add\n      mload(0x40)\n      swap1\n      dup2\n      add\n      0x40\n      mstore\n      dup1\n      swap3\n      swap2\n      swap1\n      dup2\n      dup2\n      mstore\n      0x20\n      add\n      dup3\n      dup1\n      sload\n      tag_121\n      swap1\n      tag_59\n      jump\t// in\n    tag_121:\n      dup1\n      iszero\n      tag_122\n      jumpi\n      dup1\n      0x1f\n      lt\n      tag_123\n      jumpi\n      0x0100\n      dup1\n      dup4\n      sload\n      div\n      mul\n      dup4\n      mstore\n      swap2\n      0x20\n      add\n      swap2\n      jump(tag_122)\n    tag_123:\n      dup3\n      add\n      swap2\n      swap1\n      0x00\n      mstore\n      keccak256(0x00, 0x20)\n      swap1\n    tag_124:\n      dup2\n      sload\n      dup2\n      mstore\n      swap1\n      0x01\n      add\n      swap1\n      0x20\n      add\n      dup1\n      dup4\n      gt\n      tag_124\n      jumpi\n      dup3\n      swap1\n      sub\n      0x1f\n      and\n      dup3\n      add\n      swap2\n    tag_122:\n      pop\n      pop\n      pop\n      pop\n      pop\n      dup2\n      mstore\n      0x20\n      add\n      0x01\n      dup3\n      add\n      sload\n      dup2\n      mstore\n      pop\n      pop\n      swap1\n      pop\n        /* \"upgradeContract/v2/v2.sol\":1659:1660  $ */\n      dup1\n        /* \"upgradeContract/v2/v2.sol\":1659:1671  $._tokenName */\n      0x00\n      add\n      mload\n        /* \"upgradeContract/v2/v2.sol\":1652:1671  return $._tokenName */\n      swap2\n      pop\n      pop\n        /* \"upgradeContract/v2/v2.sol\":1526:1679  function getTokenName() public pure returns(string memory){\r... */\n      swap1\n      jump\t// out\n        /* \"upgradeContract/v2/openzeppelin_L/contracts-upgradeable/access/OwnableUpgradeable.sol\":1509:1596  function owner() public view virtual returns (address) {\r... */\n    tag_48:\n        /* \"upgradeContract/v2/openzeppelin_L/contracts-upgradeable/access/OwnableUpgradeable.sol\":1555:1562  address */\n      0x00\n        /* \"upgradeContract/v2/openzeppelin_L/contracts-upgradeable/access/OwnableUpgradeable.sol\":1582:1588  _owner */\n      0x33\n      0x00\n      swap1\n      sload\n      swap1\n      0x0100\n      exp\n      swap1\n      div\n      0xffffffffffffffffffffffffffffffffffffffff\n      and\n        /* \"upgradeContract/v2/openzeppelin_L/contracts-upgradeable/access/OwnableUpgradeable.sol\":1575:1588  return _owner */\n      swap1\n      pop\n        /* \"upgradeContract/v2/openzeppelin_L/contracts-upgradeable/access/OwnableUpgradeable.sol\":1509:1596  function owner() public view virtual returns (address) {\r... */\n      swap1\n      jump\t// out\n        /* \"upgradeContract/v2/openzeppelin_L/contracts-upgradeable/access/OwnableUpgradeable.sol\":2408:2609  function transferOwnership(address newOwner) public virtual onlyOwner {\r... */\n    tag_54:\n        /* \"upgradeContract/v2/openzeppelin_L/contracts-upgradeable/access/OwnableUpgradeable.sol\":1395:1408  _checkOwner() */\n      tag_127\n        /* \"upgradeContract/v2/openzeppelin_L/contracts-upgradeable/access/OwnableUpgradeable.sol\":1395:1406  _checkOwner */\n      tag_100\n        /* \"upgradeContract/v2/openzeppelin_L/contracts-upgradeable/access/OwnableUpgradeable.sol\":1395:1408  _checkOwner() */\n      jump\t// in\n    tag_127:\n        /* \"upgradeContract/v2/openzeppelin_L/contracts-upgradeable/access/OwnableUpgradeable.sol\":2517:2518  0 */\n      0x00\n        /* \"upgradeContract/v2/openzeppelin_L/contracts-upgradeable/access/OwnableUpgradeable.sol\":2497:2519  newOwner != address(0) */\n      0xffffffffffffffffffffffffffffffffffffffff\n      and\n        /* \"upgradeContract/v2/openzeppelin_L/contracts-upgradeable/access/OwnableUpgradeable.sol\":2497:2505  newOwner */\n      dup2\n        /* \"upgradeContract/v2/openzeppelin_L/contracts-upgradeable/access/OwnableUpgradeable.sol\":2497:2519  newOwner != address(0) */\n      0xffffffffffffffffffffffffffffffffffffffff\n      and\n      eq\n      iszero\n        /* \"upgradeContract/v2/openzeppelin_L/contracts-upgradeable/access/OwnableUpgradeable.sol\":2489:2562  require(newOwner != address(0), \"Ownable: new owner is the zero address\") */\n      tag_129\n      jumpi\n      mload(0x40)\n      0x08c379a000000000000000000000000000000000000000000000000000000000\n      dup2\n      mstore\n      0x04\n      add\n      tag_130\n      swap1\n      tag_131\n      jump\t// in\n    tag_130:\n      mload(0x40)\n      dup1\n      swap2\n      sub\n      swap1\n      revert\n    tag_129:\n        /* \"upgradeContract/v2/openzeppelin_L/contracts-upgradeable/access/OwnableUpgradeable.sol\":2573:2601  _transferOwnership(newOwner) */\n      tag_132\n        /* \"upgradeContract/v2/openzeppelin_L/contracts-upgradeable/access/OwnableUpgradeable.sol\":2592:2600  newOwner */\n      dup2\n        /* \"upgradeContract/v2/openzeppelin_L/contracts-upgradeable/access/OwnableUpgradeable.sol\":2573:2591  _transferOwnership */\n      tag_103\n        /* \"upgradeContract/v2/openzeppelin_L/contracts-upgradeable/access/OwnableUpgradeable.sol\":2573:2601  _transferOwnership(newOwner) */\n      jump\t// in\n    tag_132:\n        /* \"upgradeContract/v2/openzeppelin_L/contracts-upgradeable/access/OwnableUpgradeable.sol\":2408:2609  function transferOwnership(address newOwner) public virtual onlyOwner {\r... */\n      pop\n      jump\t// out\n        /* \"upgradeContract/v2/v2.sol\":1687:1830  function _getMyTokenStorage() private pure returns (MyTokenStorage storage $) {\r... */\n    tag_57:\n        /* \"upgradeContract/v2/v2.sol\":1739:1763  MyTokenStorage storage $ */\n      0x00\n        /* \"upgradeContract/v2/v2.sol\":1797:1821  MYTOKEN_STORAGE_LOCATION */\n      0xfbb7c9e4123fcf4b1aad53c70358f7b1c1d7cf28092f5178b53e55db565e9200\n        /* \"upgradeContract/v2/v2.sol\":1787:1821  $.slot := MYTOKEN_STORAGE_LOCATION */\n      swap1\n      pop\n        /* \"upgradeContract/v2/v2.sol\":1785:1823  { $.slot := MYTOKEN_STORAGE_LOCATION } */\n      swap1\n      jump\t// out\n        /* \"upgradeContract/v2/openzeppelin_L/contracts/proxy/ERC1967/ERC1967Upgrade.sol\":1363:1505  function _getImplementation() internal view returns (address) {\r... */\n    tag_69:\n        /* \"upgradeContract/v2/openzeppelin_L/contracts/proxy/ERC1967/ERC1967Upgrade.sol\":1416:1423  address */\n      0x00\n        /* \"upgradeContract/v2/openzeppelin_L/contracts/proxy/ERC1967/ERC1967Upgrade.sol\":1443:1491  StorageSlot.getAddressSlot(_IMPLEMENTATION_SLOT) */\n      tag_135\n        /* \"upgradeContract/v2/openzeppelin_L/contracts/proxy/ERC1967/ERC1967Upgrade.sol\":1213:1279  0x360894a13ba1a3210667c828492db98dca3e2076cc3735a920a3ca505d382bbc */\n      0x360894a13ba1a3210667c828492db98dca3e2076cc3735a920a3ca505d382bbc\n        /* \"upgradeContract/v2/openzeppelin_L/contracts/proxy/ERC1967/ERC1967Upgrade.sol\":1470:1490  _IMPLEMENTATION_SLOT */\n      0x00\n      shl\n        /* \"upgradeContract/v2/openzeppelin_L/contracts/proxy/ERC1967/ERC1967Upgrade.sol\":1443:1469  StorageSlot.getAddressSlot */\n      tag_136\n        /* \"upgradeContract/v2/openzeppelin_L/contracts/proxy/ERC1967/ERC1967Upgrade.sol\":1443:1491  StorageSlot.getAddressSlot(_IMPLEMENTATION_SLOT) */\n      jump\t// in\n    tag_135:\n        /* \"upgradeContract/v2/openzeppelin_L/contracts/proxy/ERC1967/ERC1967Upgrade.sol\":1443:1497  StorageSlot.getAddressSlot(_IMPLEMENTATION_SLOT).value */\n      0x00\n      add\n      0x00\n      swap1\n      sload\n      swap1\n      0x0100\n      exp\n      swap1\n      div\n      0xffffffffffffffffffffffffffffffffffffffff\n      and\n        /* \"upgradeContract/v2/openzeppelin_L/contracts/proxy/ERC1967/ERC1967Upgrade.sol\":1436:1497  return StorageSlot.getAddressSlot(_IMPLEMENTATION_SLOT).value */\n      swap1\n      pop\n        /* \"upgradeContract/v2/openzeppelin_L/contracts/proxy/ERC1967/ERC1967Upgrade.sol\":1363:1505  function _getImplementation() internal view returns (address) {\r... */\n      swap1\n      jump\t// out\n        /* \"upgradeContract/v2/v2.sol\":1838:1954  function _authorizeUpgrade(address newImplementation)\r... */\n    tag_75:\n        /* \"upgradeContract/v2/openzeppelin_L/contracts-upgradeable/access/OwnableUpgradeable.sol\":1395:1408  _checkOwner() */\n      tag_138\n        /* \"upgradeContract/v2/openzeppelin_L/contracts-upgradeable/access/OwnableUpgradeable.sol\":1395:1406  _checkOwner */\n      tag_100\n        /* \"upgradeContract/v2/openzeppelin_L/contracts-upgradeable/access/OwnableUpgradeable.sol\":1395:1408  _checkOwner() */\n      jump\t// in\n    tag_138:\n        /* \"upgradeContract/v2/v2.sol\":1838:1954  function _authorizeUpgrade(address newImplementation)\r... */\n      pop\n      jump\t// out\n        /* \"upgradeContract/v2/openzeppelin_L/contracts/proxy/ERC1967/ERC1967Upgrade.sol\":2721:3657  function _upgradeToAndCallUUPS(address newImplementation, bytes memory data, bool forceCall) internal {\r... */\n    tag_79:\n        /* \"upgradeContract/v2/openzeppelin_L/contracts/proxy/ERC1967/ERC1967Upgrade.sol\":3141:3183  StorageSlot.getBooleanSlot(_ROLLBACK_SLOT) */\n      tag_141\n        /* \"upgradeContract/v2/openzeppelin_L/contracts/proxy/ERC1967/ERC1967Upgrade.sol\":865:931  0x4910fdfa16fed3260ed0e7147f7cc6da11a60208b5b9406d12a635614ffd9143 */\n      0x4910fdfa16fed3260ed0e7147f7cc6da11a60208b5b9406d12a635614ffd9143\n        /* \"upgradeContract/v2/openzeppelin_L/contracts/proxy/ERC1967/ERC1967Upgrade.sol\":3168:3182  _ROLLBACK_SLOT */\n      0x00\n      shl\n        /* \"upgradeContract/v2/openzeppelin_L/contracts/proxy/ERC1967/ERC1967Upgrade.sol\":3141:3167  StorageSlot.getBooleanSlot */\n      tag_142\n        /* \"upgradeContract/v2/openzeppelin_L/contracts/proxy/ERC1967/ERC1967Upgrade.sol\":3141:3183  StorageSlot.getBooleanSlot(_ROLLBACK_SLOT) */\n      jump\t// in\n    tag_141:\n        /* \"upgradeContract/v2/openzeppelin_L/contracts/proxy/ERC1967/ERC1967Upgrade.sol\":3141:3189  StorageSlot.getBooleanSlot(_ROLLBACK_SLOT).value */\n      0x00\n      add\n      0x00\n      swap1\n      sload\n      swap1\n      0x0100\n      exp\n      swap1\n      div\n      0xff\n      and\n        /* \"upgradeContract/v2/openzeppelin_L/contracts/proxy/ERC1967/ERC1967Upgrade.sol\":3137:3650  if (StorageSlot.getBooleanSlot(_ROLLBACK_SLOT).value) {\r... */\n      iszero\n      tag_143\n      jumpi\n        /* \"upgradeContract/v2/openzeppelin_L/contracts/proxy/ERC1967/ERC1967Upgrade.sol\":3206:3243  _setImplementation(newImplementation) */\n      tag_144\n        /* \"upgradeContract/v2/openzeppelin_L/contracts/proxy/ERC1967/ERC1967Upgrade.sol\":3225:3242  newImplementation */\n      dup4\n        /* \"upgradeContract/v2/openzeppelin_L/contracts/proxy/ERC1967/ERC1967Upgrade.sol\":3206:3224  _setImplementation */\n      tag_145\n        /* \"upgradeContract/v2/openzeppelin_L/contracts/proxy/ERC1967/ERC1967Upgrade.sol\":3206:3243  _setImplementation(newImplementation) */\n      jump\t// in\n    tag_144:\n        /* \"upgradeContract/v2/openzeppelin_L/contracts/proxy/ERC1967/ERC1967Upgrade.sol\":3137:3650  if (StorageSlot.getBooleanSlot(_ROLLBACK_SLOT).value) {\r... */\n      jump(tag_146)\n    tag_143:\n        /* \"upgradeContract/v2/openzeppelin_L/contracts/proxy/ERC1967/ERC1967Upgrade.sol\":3298:3315  newImplementation */\n      dup3\n        /* \"upgradeContract/v2/openzeppelin_L/contracts/proxy/ERC1967/ERC1967Upgrade.sol\":3280:3330  IERC1822Proxiable(newImplementation).proxiableUUID */\n      0xffffffffffffffffffffffffffffffffffffffff\n      and\n      0x52d1902d\n        /* \"upgradeContract/v2/openzeppelin_L/contracts/proxy/ERC1967/ERC1967Upgrade.sol\":3280:3332  IERC1822Proxiable(newImplementation).proxiableUUID() */\n      mload(0x40)\n      dup2\n      0xffffffff\n      and\n      0xe0\n      shl\n      dup2\n      mstore\n      0x04\n      add\n      0x20\n      mload(0x40)\n      dup1\n      dup4\n      sub\n      dup2\n      dup7\n      dup1\n      extcodesize\n      iszero\n      dup1\n      iszero\n      tag_147\n      jumpi\n      0x00\n      dup1\n      revert\n    tag_147:\n      pop\n      gas\n      staticcall\n      swap3\n      pop\n      pop\n      pop\n      dup1\n      iszero\n      tag_148\n      jumpi\n      pop\n      mload(0x40)\n      returndatasize\n      not(0x1f)\n      0x1f\n      dup3\n      add\n      and\n      dup3\n      add\n      dup1\n      0x40\n      mstore\n      pop\n      dup2\n      add\n      swap1\n      tag_149\n      swap2\n      swap1\n      tag_150\n      jump\t// in\n    tag_149:\n      0x01\n    tag_148:\n        /* \"upgradeContract/v2/openzeppelin_L/contracts/proxy/ERC1967/ERC1967Upgrade.sol\":3276:3571  try IERC1822Proxiable(newImplementation).proxiableUUID() returns (bytes32 slot) {\r... */\n      tag_151\n      jumpi\n        /* \"upgradeContract/v2/openzeppelin_L/contracts/proxy/ERC1967/ERC1967Upgrade.sol\":3499:3555  revert(\"ERC1967Upgrade: new implementation is not UUPS\") */\n      mload(0x40)\n      0x08c379a000000000000000000000000000000000000000000000000000000000\n      dup2\n      mstore\n      0x04\n      add\n      tag_155\n      swap1\n      tag_156\n      jump\t// in\n    tag_155:\n      mload(0x40)\n      dup1\n      swap2\n      sub\n      swap1\n      revert\n        /* \"upgradeContract/v2/openzeppelin_L/contracts/proxy/ERC1967/ERC1967Upgrade.sol\":3276:3571  try IERC1822Proxiable(newImplementation).proxiableUUID() returns (bytes32 slot) {\r... */\n    tag_151:\n        /* \"upgradeContract/v2/openzeppelin_L/contracts/proxy/ERC1967/ERC1967Upgrade.sol\":1213:1279  0x360894a13ba1a3210667c828492db98dca3e2076cc3735a920a3ca505d382bbc */\n      0x360894a13ba1a3210667c828492db98dca3e2076cc3735a920a3ca505d382bbc\n        /* \"upgradeContract/v2/openzeppelin_L/contracts/proxy/ERC1967/ERC1967Upgrade.sol\":3391:3411  _IMPLEMENTATION_SLOT */\n      0x00\n      shl\n        /* \"upgradeContract/v2/openzeppelin_L/contracts/proxy/ERC1967/ERC1967Upgrade.sol\":3383:3387  slot */\n      dup2\n        /* \"upgradeContract/v2/openzeppelin_L/contracts/proxy/ERC1967/ERC1967Upgrade.sol\":3383:3411  slot == _IMPLEMENTATION_SLOT */\n      eq\n        /* \"upgradeContract/v2/openzeppelin_L/contracts/proxy/ERC1967/ERC1967Upgrade.sol\":3375:3457  require(slot == _IMPLEMENTATION_SLOT, \"ERC1967Upgrade: unsupported proxiableUUID\") */\n      tag_158\n      jumpi\n      mload(0x40)\n      0x08c379a000000000000000000000000000000000000000000000000000000000\n      dup2\n      mstore\n      0x04\n      add\n      tag_159\n      swap1\n      tag_160\n      jump\t// in\n    tag_159:\n      mload(0x40)\n      dup1\n      swap2\n      sub\n      swap1\n      revert\n    tag_158:\n        /* \"upgradeContract/v2/openzeppelin_L/contracts/proxy/ERC1967/ERC1967Upgrade.sol\":3333:3473  returns (bytes32 slot) {\r... */\n      pop\n        /* \"upgradeContract/v2/openzeppelin_L/contracts/proxy/ERC1967/ERC1967Upgrade.sol\":3585:3638  _upgradeToAndCall(newImplementation, data, forceCall) */\n      tag_161\n        /* \"upgradeContract/v2/openzeppelin_L/contracts/proxy/ERC1967/ERC1967Upgrade.sol\":3603:3620  newImplementation */\n      dup4\n        /* \"upgradeContract/v2/openzeppelin_L/contracts/proxy/ERC1967/ERC1967Upgrade.sol\":3622:3626  data */\n      dup4\n        /* \"upgradeContract/v2/openzeppelin_L/contracts/proxy/ERC1967/ERC1967Upgrade.sol\":3628:3637  forceCall */\n      dup4\n        /* \"upgradeContract/v2/openzeppelin_L/contracts/proxy/ERC1967/ERC1967Upgrade.sol\":3585:3602  _upgradeToAndCall */\n      tag_162\n        /* \"upgradeContract/v2/openzeppelin_L/contracts/proxy/ERC1967/ERC1967Upgrade.sol\":3585:3638  _upgradeToAndCall(newImplementation, data, forceCall) */\n      jump\t// in\n    tag_161:\n        /* \"upgradeContract/v2/openzeppelin_L/contracts/proxy/ERC1967/ERC1967Upgrade.sol\":3137:3650  if (StorageSlot.getBooleanSlot(_ROLLBACK_SLOT).value) {\r... */\n    tag_146:\n        /* \"upgradeContract/v2/openzeppelin_L/contracts/proxy/ERC1967/ERC1967Upgrade.sol\":2721:3657  function _upgradeToAndCallUUPS(address newImplementation, bytes memory data, bool forceCall) internal {\r... */\n      pop\n      pop\n      pop\n      jump\t// out\n        /* \"upgradeContract/v2/openzeppelin_L/contracts-upgradeable/access/OwnableUpgradeable.sol\":1674:1806  function _checkOwner() internal view virtual {\r... */\n    tag_100:\n        /* \"upgradeContract/v2/openzeppelin_L/contracts-upgradeable/access/OwnableUpgradeable.sol\":1749:1761  _msgSender() */\n      tag_164\n        /* \"upgradeContract/v2/openzeppelin_L/contracts-upgradeable/access/OwnableUpgradeable.sol\":1749:1759  _msgSender */\n      tag_165\n        /* \"upgradeContract/v2/openzeppelin_L/contracts-upgradeable/access/OwnableUpgradeable.sol\":1749:1761  _msgSender() */\n      jump\t// in\n    tag_164:\n        /* \"upgradeContract/v2/openzeppelin_L/contracts-upgradeable/access/OwnableUpgradeable.sol\":1738:1761  owner() == _msgSender() */\n      0xffffffffffffffffffffffffffffffffffffffff\n      and\n        /* \"upgradeContract/v2/openzeppelin_L/contracts-upgradeable/access/OwnableUpgradeable.sol\":1738:1745  owner() */\n      tag_166\n        /* \"upgradeContract/v2/openzeppelin_L/contracts-upgradeable/access/OwnableUpgradeable.sol\":1738:1743  owner */\n      tag_48\n        /* \"upgradeContract/v2/openzeppelin_L/contracts-upgradeable/access/OwnableUpgradeable.sol\":1738:1745  owner() */\n      jump\t// in\n    tag_166:\n        /* \"upgradeContract/v2/openzeppelin_L/contracts-upgradeable/access/OwnableUpgradeable.sol\":1738:1761  owner() == _msgSender() */\n      0xffffffffffffffffffffffffffffffffffffffff\n      and\n      eq\n        /* \"upgradeContract/v2/openzeppelin_L/contracts-upgradeable/access/OwnableUpgradeable.sol\":1730:1798  require(owner() == _msgSender(), \"Ownable: caller is not the owner\") */\n      tag_167\n      jumpi\n      mload(0x40)\n      0x08c379a000000000000000000000000000000000000000000000000000000000\n      dup2\n      mstore\n      0x04\n      add\n      tag_168\n      swap1\n      tag_169\n      jump\t// in\n    tag_168:\n      mload(0x40)\n      dup1\n      swap2\n      sub\n      swap1\n      revert\n    tag_167:\n        /* \"upgradeContract/v2/openzeppelin_L/contracts-upgradeable/access/OwnableUpgradeable.sol\":1674:1806  function _checkOwner() internal view virtual {\r... */\n      jump\t// out\n        /* \"upgradeContract/v2/openzeppelin_L/contracts-upgradeable/access/OwnableUpgradeable.sol\":2769:2960  function _transferOwnership(address newOwner) internal virtual {\r... */\n    tag_103:\n        /* \"upgradeContract/v2/openzeppelin_L/contracts-upgradeable/access/OwnableUpgradeable.sol\":2843:2859  address oldOwner */\n      0x00\n        /* \"upgradeContract/v2/openzeppelin_L/contracts-upgradeable/access/OwnableUpgradeable.sol\":2862:2868  _owner */\n      0x33\n      0x00\n      swap1\n      sload\n      swap1\n      0x0100\n      exp\n      swap1\n      div\n      0xffffffffffffffffffffffffffffffffffffffff\n      and\n        /* \"upgradeContract/v2/openzeppelin_L/contracts-upgradeable/access/OwnableUpgradeable.sol\":2843:2868  address oldOwner = _owner */\n      swap1\n      pop\n        /* \"upgradeContract/v2/openzeppelin_L/contracts-upgradeable/access/OwnableUpgradeable.sol\":2888:2896  newOwner */\n      dup2\n        /* \"upgradeContract/v2/openzeppelin_L/contracts-upgradeable/access/OwnableUpgradeable.sol\":2879:2885  _owner */\n      0x33\n      0x00\n        /* \"upgradeContract/v2/openzeppelin_L/contracts-upgradeable/access/OwnableUpgradeable.sol\":2879:2896  _owner = newOwner */\n      0x0100\n      exp\n      dup2\n      sload\n      dup2\n      0xffffffffffffffffffffffffffffffffffffffff\n      mul\n      not\n      and\n      swap1\n      dup4\n      0xffffffffffffffffffffffffffffffffffffffff\n      and\n      mul\n      or\n      swap1\n      sstore\n      pop\n        /* \"upgradeContract/v2/openzeppelin_L/contracts-upgradeable/access/OwnableUpgradeable.sol\":2943:2951  newOwner */\n      dup2\n        /* \"upgradeContract/v2/openzeppelin_L/contracts-upgradeable/access/OwnableUpgradeable.sol\":2912:2952  OwnershipTransferred(oldOwner, newOwner) */\n      0xffffffffffffffffffffffffffffffffffffffff\n      and\n        /* \"upgradeContract/v2/openzeppelin_L/contracts-upgradeable/access/OwnableUpgradeable.sol\":2933:2941  oldOwner */\n      dup2\n        /* \"upgradeContract/v2/openzeppelin_L/contracts-upgradeable/access/OwnableUpgradeable.sol\":2912:2952  OwnershipTransferred(oldOwner, newOwner) */\n      0xffffffffffffffffffffffffffffffffffffffff\n      and\n      0x8be0079c531659141344cd1fd0a4f28419497f9722a3daafe3b4186f6b6457e0\n      mload(0x40)\n      mload(0x40)\n      dup1\n      swap2\n      sub\n      swap1\n      log3\n        /* \"upgradeContract/v2/openzeppelin_L/contracts-upgradeable/access/OwnableUpgradeable.sol\":2769:2960  function _transferOwnership(address newOwner) internal virtual {\r... */\n      pop\n      pop\n      jump\t// out\n        /* \"upgradeContract/v2/openzeppelin_L/contracts-upgradeable/proxy/utils/Initializable.sol\":4015:4182  function _isConstructor() private view returns (bool) {\r... */\n    tag_108:\n        /* \"upgradeContract/v2/openzeppelin_L/contracts-upgradeable/proxy/utils/Initializable.sol\":4063:4067  bool */\n      0x00\n        /* \"upgradeContract/v2/openzeppelin_L/contracts-upgradeable/proxy/utils/Initializable.sol\":4117:4118  0 */\n      dup1\n        /* \"upgradeContract/v2/openzeppelin_L/contracts-upgradeable/proxy/utils/Initializable.sol\":4097:4101  this */\n      address\n        /* \"upgradeContract/v2/openzeppelin_L/contracts-upgradeable/proxy/utils/Initializable.sol\":4089:4114  address(this).code.length */\n      0xffffffffffffffffffffffffffffffffffffffff\n      and\n      extcodesize\n        /* \"upgradeContract/v2/openzeppelin_L/contracts-upgradeable/proxy/utils/Initializable.sol\":4089:4118  address(this).code.length > 0 */\n      gt\n        /* \"upgradeContract/v2/openzeppelin_L/contracts-upgradeable/proxy/utils/Initializable.sol\":4087:4119  !(address(this).code.length > 0) */\n      iszero\n        /* \"upgradeContract/v2/openzeppelin_L/contracts-upgradeable/proxy/utils/Initializable.sol\":4080:4119  return !(address(this).code.length > 0) */\n      swap1\n      pop\n        /* \"upgradeContract/v2/openzeppelin_L/contracts-upgradeable/proxy/utils/Initializable.sol\":4015:4182  function _isConstructor() private view returns (bool) {\r... */\n      swap1\n      jump\t// out\n        /* \"@openzeppelin/contracts@4.9.6/utils/StorageSlot.sol\":1859:2049  function getAddressSlot(bytes32 slot) internal pure returns (AddressSlot storage r) {... */\n    tag_136:\n        /* \"@openzeppelin/contracts@4.9.6/utils/StorageSlot.sol\":1920:1941  AddressSlot storage r */\n      0x00\n        /* \"@openzeppelin/contracts@4.9.6/utils/StorageSlot.sol\":2029:2033  slot */\n      dup2\n        /* \"@openzeppelin/contracts@4.9.6/utils/StorageSlot.sol\":2019:2033  r.slot := slot */\n      swap1\n      pop\n        /* \"@openzeppelin/contracts@4.9.6/utils/StorageSlot.sol\":2005:2043  {... */\n      swap2\n      swap1\n      pop\n      jump\t// out\n        /* \"@openzeppelin/contracts@4.9.6/utils/StorageSlot.sol\":2147:2337  function getBooleanSlot(bytes32 slot) internal pure returns (BooleanSlot storage r) {... */\n    tag_142:\n        /* \"@openzeppelin/contracts@4.9.6/utils/StorageSlot.sol\":2208:2229  BooleanSlot storage r */\n      0x00\n        /* \"@openzeppelin/contracts@4.9.6/utils/StorageSlot.sol\":2317:2321  slot */\n      dup2\n        /* \"@openzeppelin/contracts@4.9.6/utils/StorageSlot.sol\":2307:2321  r.slot := slot */\n      swap1\n      pop\n        /* \"@openzeppelin/contracts@4.9.6/utils/StorageSlot.sol\":2293:2331  {... */\n      swap2\n      swap1\n      pop\n      jump\t// out\n        /* \"upgradeContract/v2/openzeppelin_L/contracts/proxy/ERC1967/ERC1967Upgrade.sol\":1601:1863  function _setImplementation(address newImplementation) private {\r... */\n    tag_145:\n        /* \"upgradeContract/v2/openzeppelin_L/contracts/proxy/ERC1967/ERC1967Upgrade.sol\":1683:1720  Address.isContract(newImplementation) */\n      tag_175\n        /* \"upgradeContract/v2/openzeppelin_L/contracts/proxy/ERC1967/ERC1967Upgrade.sol\":1702:1719  newImplementation */\n      dup2\n        /* \"upgradeContract/v2/openzeppelin_L/contracts/proxy/ERC1967/ERC1967Upgrade.sol\":1683:1701  Address.isContract */\n      tag_176\n        /* \"upgradeContract/v2/openzeppelin_L/contracts/proxy/ERC1967/ERC1967Upgrade.sol\":1683:1720  Address.isContract(newImplementation) */\n      jump\t// in\n    tag_175:\n        /* \"upgradeContract/v2/openzeppelin_L/contracts/proxy/ERC1967/ERC1967Upgrade.sol\":1675:1770  require(Address.isContract(newImplementation), \"ERC1967: new implementation is not a contract\") */\n      tag_177\n      jumpi\n      mload(0x40)\n      0x08c379a000000000000000000000000000000000000000000000000000000000\n      dup2\n      mstore\n      0x04\n      add\n      tag_178\n      swap1\n      tag_179\n      jump\t// in\n    tag_178:\n      mload(0x40)\n      dup1\n      swap2\n      sub\n      swap1\n      revert\n    tag_177:\n        /* \"upgradeContract/v2/openzeppelin_L/contracts/proxy/ERC1967/ERC1967Upgrade.sol\":1838:1855  newImplementation */\n      dup1\n        /* \"upgradeContract/v2/openzeppelin_L/contracts/proxy/ERC1967/ERC1967Upgrade.sol\":1781:1829  StorageSlot.getAddressSlot(_IMPLEMENTATION_SLOT) */\n      tag_180\n        /* \"upgradeContract/v2/openzeppelin_L/contracts/proxy/ERC1967/ERC1967Upgrade.sol\":1213:1279  0x360894a13ba1a3210667c828492db98dca3e2076cc3735a920a3ca505d382bbc */\n      0x360894a13ba1a3210667c828492db98dca3e2076cc3735a920a3ca505d382bbc\n        /* \"upgradeContract/v2/openzeppelin_L/contracts/proxy/ERC1967/ERC1967Upgrade.sol\":1808:1828  _IMPLEMENTATION_SLOT */\n      0x00\n      shl\n        /* \"upgradeContract/v2/openzeppelin_L/contracts/proxy/ERC1967/ERC1967Upgrade.sol\":1781:1807  StorageSlot.getAddressSlot */\n      tag_136\n        /* \"upgradeContract/v2/openzeppelin_L/contracts/proxy/ERC1967/ERC1967Upgrade.sol\":1781:1829  StorageSlot.getAddressSlot(_IMPLEMENTATION_SLOT) */\n      jump\t// in\n    tag_180:\n        /* \"upgradeContract/v2/openzeppelin_L/contracts/proxy/ERC1967/ERC1967Upgrade.sol\":1781:1835  StorageSlot.getAddressSlot(_IMPLEMENTATION_SLOT).value */\n      0x00\n      add\n      0x00\n        /* \"upgradeContract/v2/openzeppelin_L/contracts/proxy/ERC1967/ERC1967Upgrade.sol\":1781:1855  StorageSlot.getAddressSlot(_IMPLEMENTATION_SLOT).value = newImplementation */\n      0x0100\n      exp\n      dup2\n      sload\n      dup2\n      0xffffffffffffffffffffffffffffffffffffffff\n      mul\n      not\n      and\n      swap1\n      dup4\n      0xffffffffffffffffffffffffffffffffffffffff\n      and\n      mul\n      or\n      swap1\n      sstore\n      pop\n        /* \"upgradeContract/v2/openzeppelin_L/contracts/proxy/ERC1967/ERC1967Upgrade.sol\":1601:1863  function _setImplementation(address newImplementation) private {\r... */\n      pop\n      jump\t// out\n        /* \"upgradeContract/v2/openzeppelin_L/contracts/proxy/ERC1967/ERC1967Upgrade.sol\":2272:2542  function _upgradeToAndCall(address newImplementation, bytes memory data, bool forceCall) internal {\r... */\n    tag_162:\n        /* \"upgradeContract/v2/openzeppelin_L/contracts/proxy/ERC1967/ERC1967Upgrade.sol\":2381:2410  _upgradeTo(newImplementation) */\n      tag_182\n        /* \"upgradeContract/v2/openzeppelin_L/contracts/proxy/ERC1967/ERC1967Upgrade.sol\":2392:2409  newImplementation */\n      dup4\n        /* \"upgradeContract/v2/openzeppelin_L/contracts/proxy/ERC1967/ERC1967Upgrade.sol\":2381:2391  _upgradeTo */\n      tag_183\n        /* \"upgradeContract/v2/openzeppelin_L/contracts/proxy/ERC1967/ERC1967Upgrade.sol\":2381:2410  _upgradeTo(newImplementation) */\n      jump\t// in\n    tag_182:\n        /* \"upgradeContract/v2/openzeppelin_L/contracts/proxy/ERC1967/ERC1967Upgrade.sol\":2439:2440  0 */\n      0x00\n        /* \"upgradeContract/v2/openzeppelin_L/contracts/proxy/ERC1967/ERC1967Upgrade.sol\":2425:2429  data */\n      dup3\n        /* \"upgradeContract/v2/openzeppelin_L/contracts/proxy/ERC1967/ERC1967Upgrade.sol\":2425:2436  data.length */\n      mload\n        /* \"upgradeContract/v2/openzeppelin_L/contracts/proxy/ERC1967/ERC1967Upgrade.sol\":2425:2440  data.length > 0 */\n      gt\n        /* \"upgradeContract/v2/openzeppelin_L/contracts/proxy/ERC1967/ERC1967Upgrade.sol\":2425:2453  data.length > 0 || forceCall */\n      dup1\n      tag_184\n      jumpi\n      pop\n        /* \"upgradeContract/v2/openzeppelin_L/contracts/proxy/ERC1967/ERC1967Upgrade.sol\":2444:2453  forceCall */\n      dup1\n        /* \"upgradeContract/v2/openzeppelin_L/contracts/proxy/ERC1967/ERC1967Upgrade.sol\":2425:2453  data.length > 0 || forceCall */\n    tag_184:\n        /* \"upgradeContract/v2/openzeppelin_L/contracts/proxy/ERC1967/ERC1967Upgrade.sol\":2421:2535  if (data.length > 0 || forceCall) {\r... */\n      iszero\n      tag_185\n      jumpi\n        /* \"upgradeContract/v2/openzeppelin_L/contracts/proxy/ERC1967/ERC1967Upgrade.sol\":2470:2523  Address.functionDelegateCall(newImplementation, data) */\n      tag_186\n        /* \"upgradeContract/v2/openzeppelin_L/contracts/proxy/ERC1967/ERC1967Upgrade.sol\":2499:2516  newImplementation */\n      dup4\n        /* \"upgradeContract/v2/openzeppelin_L/contracts/proxy/ERC1967/ERC1967Upgrade.sol\":2518:2522  data */\n      dup4\n        /* \"upgradeContract/v2/openzeppelin_L/contracts/proxy/ERC1967/ERC1967Upgrade.sol\":2470:2498  Address.functionDelegateCall */\n      tag_187\n        /* \"upgradeContract/v2/openzeppelin_L/contracts/proxy/ERC1967/ERC1967Upgrade.sol\":2470:2523  Address.functionDelegateCall(newImplementation, data) */\n      jump\t// in\n    tag_186:\n      pop\n        /* \"upgradeContract/v2/openzeppelin_L/contracts/proxy/ERC1967/ERC1967Upgrade.sol\":2421:2535  if (data.length > 0 || forceCall) {\r... */\n    tag_185:\n        /* \"upgradeContract/v2/openzeppelin_L/contracts/proxy/ERC1967/ERC1967Upgrade.sol\":2272:2542  function _upgradeToAndCall(address newImplementation, bytes memory data, bool forceCall) internal {\r... */\n      pop\n      pop\n      pop\n      jump\t// out\n        /* \"upgradeContract/v2/openzeppelin_L/contracts-upgradeable/utils/ContextUpgradeable.sol\":908:1006  function _msgSender() internal view virtual returns (address) {\r... */\n    tag_165:\n        /* \"upgradeContract/v2/openzeppelin_L/contracts-upgradeable/utils/ContextUpgradeable.sol\":961:968  address */\n      0x00\n        /* \"upgradeContract/v2/openzeppelin_L/contracts-upgradeable/utils/ContextUpgradeable.sol\":988:998  msg.sender */\n      caller\n        /* \"upgradeContract/v2/openzeppelin_L/contracts-upgradeable/utils/ContextUpgradeable.sol\":981:998  return msg.sender */\n      swap1\n      pop\n        /* \"upgradeContract/v2/openzeppelin_L/contracts-upgradeable/utils/ContextUpgradeable.sol\":908:1006  function _msgSender() internal view virtual returns (address) {\r... */\n      swap1\n      jump\t// out\n        /* \"@openzeppelin/contracts@4.9.6/utils/Address.sol\":1412:1732  function isContract(address account) internal view returns (bool) {... */\n    tag_176:\n        /* \"@openzeppelin/contracts@4.9.6/utils/Address.sol\":1472:1476  bool */\n      0x00\n        /* \"@openzeppelin/contracts@4.9.6/utils/Address.sol\":1724:1725  0 */\n      dup1\n        /* \"@openzeppelin/contracts@4.9.6/utils/Address.sol\":1702:1709  account */\n      dup3\n        /* \"@openzeppelin/contracts@4.9.6/utils/Address.sol\":1702:1721  account.code.length */\n      0xffffffffffffffffffffffffffffffffffffffff\n      and\n      extcodesize\n        /* \"@openzeppelin/contracts@4.9.6/utils/Address.sol\":1702:1725  account.code.length > 0 */\n      gt\n        /* \"@openzeppelin/contracts@4.9.6/utils/Address.sol\":1695:1725  return account.code.length > 0 */\n      swap1\n      pop\n        /* \"@openzeppelin/contracts@4.9.6/utils/Address.sol\":1412:1732  function isContract(address account) internal view returns (bool) {... */\n      swap2\n      swap1\n      pop\n      jump\t// out\n        /* \"upgradeContract/v2/openzeppelin_L/contracts/proxy/ERC1967/ERC1967Upgrade.sol\":1976:2131  function _upgradeTo(address newImplementation) internal {\r... */\n    tag_183:\n        /* \"upgradeContract/v2/openzeppelin_L/contracts/proxy/ERC1967/ERC1967Upgrade.sol\":2043:2080  _setImplementation(newImplementation) */\n      tag_191\n        /* \"upgradeContract/v2/openzeppelin_L/contracts/proxy/ERC1967/ERC1967Upgrade.sol\":2062:2079  newImplementation */\n      dup2\n        /* \"upgradeContract/v2/openzeppelin_L/contracts/proxy/ERC1967/ERC1967Upgrade.sol\":2043:2061  _setImplementation */\n      tag_145\n        /* \"upgradeContract/v2/openzeppelin_L/contracts/proxy/ERC1967/ERC1967Upgrade.sol\":2043:2080  _setImplementation(newImplementation) */\n      jump\t// in\n    tag_191:\n        /* \"upgradeContract/v2/openzeppelin_L/contracts/proxy/ERC1967/ERC1967Upgrade.sol\":2105:2122  newImplementation */\n      dup1\n        /* \"upgradeContract/v2/openzeppelin_L/contracts/proxy/ERC1967/ERC1967Upgrade.sol\":2096:2123  Upgraded(newImplementation) */\n      0xffffffffffffffffffffffffffffffffffffffff\n      and\n      0xbc7cd75a20ee27fd9adebab32041f755214dbc6bffa90cc0225b39da2e5c2d3b\n      mload(0x40)\n      mload(0x40)\n      dup1\n      swap2\n      sub\n      swap1\n      log2\n        /* \"upgradeContract/v2/openzeppelin_L/contracts/proxy/ERC1967/ERC1967Upgrade.sol\":1976:2131  function _upgradeTo(address newImplementation) internal {\r... */\n      pop\n      jump\t// out\n        /* \"@openzeppelin/contracts@4.9.6/utils/Address.sol\":6674:6872  function functionDelegateCall(address target, bytes memory data) internal returns (bytes memory) {... */\n    tag_187:\n        /* \"@openzeppelin/contracts@4.9.6/utils/Address.sol\":6757:6769  bytes memory */\n      0x60\n        /* \"@openzeppelin/contracts@4.9.6/utils/Address.sol\":6788:6865  functionDelegateCall(target, data, \"Address: low-level delegate call failed\") */\n      tag_193\n        /* \"@openzeppelin/contracts@4.9.6/utils/Address.sol\":6809:6815  target */\n      dup4\n        /* \"@openzeppelin/contracts@4.9.6/utils/Address.sol\":6817:6821  data */\n      dup4\n        /* \"@openzeppelin/contracts@4.9.6/utils/Address.sol\":6788:6865  functionDelegateCall(target, data, \"Address: low-level delegate call failed\") */\n      mload(0x40)\n      dup1\n      0x60\n      add\n      0x40\n      mstore\n      dup1\n      0x27\n      dup2\n      mstore\n      0x20\n      add\n      data_9fdcd12e4b726339b32a442b0a448365d5d85c96b2d2cff917b4f66c63110398\n      0x27\n      swap2\n      codecopy\n        /* \"@openzeppelin/contracts@4.9.6/utils/Address.sol\":6788:6808  functionDelegateCall */\n      tag_194\n        /* \"@openzeppelin/contracts@4.9.6/utils/Address.sol\":6788:6865  functionDelegateCall(target, data, \"Address: low-level delegate call failed\") */\n      jump\t// in\n    tag_193:\n        /* \"@openzeppelin/contracts@4.9.6/utils/Address.sol\":6781:6865  return functionDelegateCall(target, data, \"Address: low-level delegate call failed\") */\n      swap1\n      pop\n        /* \"@openzeppelin/contracts@4.9.6/utils/Address.sol\":6674:6872  function functionDelegateCall(address target, bytes memory data) internal returns (bytes memory) {... */\n      swap3\n      swap2\n      pop\n      pop\n      jump\t// out\n        /* \"@openzeppelin/contracts@4.9.6/utils/Address.sol\":7058:7383  function functionDelegateCall(... */\n    tag_194:\n        /* \"@openzeppelin/contracts@4.9.6/utils/Address.sol\":7199:7211  bytes memory */\n      0x60\n        /* \"@openzeppelin/contracts@4.9.6/utils/Address.sol\":7224:7236  bool success */\n      0x00\n        /* \"@openzeppelin/contracts@4.9.6/utils/Address.sol\":7238:7261  bytes memory returndata */\n      dup1\n        /* \"@openzeppelin/contracts@4.9.6/utils/Address.sol\":7265:7271  target */\n      dup6\n        /* \"@openzeppelin/contracts@4.9.6/utils/Address.sol\":7265:7284  target.delegatecall */\n      0xffffffffffffffffffffffffffffffffffffffff\n      and\n        /* \"@openzeppelin/contracts@4.9.6/utils/Address.sol\":7285:7289  data */\n      dup6\n        /* \"@openzeppelin/contracts@4.9.6/utils/Address.sol\":7265:7290  target.delegatecall(data) */\n      mload(0x40)\n      tag_196\n      swap2\n      swap1\n      tag_197\n      jump\t// in\n    tag_196:\n      0x00\n      mload(0x40)\n      dup1\n      dup4\n      sub\n      dup2\n      dup6\n      gas\n      delegatecall\n      swap2\n      pop\n      pop\n      returndatasize\n      dup1\n      0x00\n      dup2\n      eq\n      tag_200\n      jumpi\n      mload(0x40)\n      swap2\n      pop\n      and(add(returndatasize, 0x3f), not(0x1f))\n      dup3\n      add\n      0x40\n      mstore\n      returndatasize\n      dup3\n      mstore\n      returndatasize\n      0x00\n      0x20\n      dup5\n      add\n      returndatacopy\n      jump(tag_199)\n    tag_200:\n      0x60\n      swap2\n      pop\n    tag_199:\n      pop\n        /* \"@openzeppelin/contracts@4.9.6/utils/Address.sol\":7223:7290  (bool success, bytes memory returndata) = target.delegatecall(data) */\n      swap2\n      pop\n      swap2\n      pop\n        /* \"@openzeppelin/contracts@4.9.6/utils/Address.sol\":7307:7376  verifyCallResultFromTarget(target, success, returndata, errorMessage) */\n      tag_201\n        /* \"@openzeppelin/contracts@4.9.6/utils/Address.sol\":7334:7340  target */\n      dup7\n        /* \"@openzeppelin/contracts@4.9.6/utils/Address.sol\":7342:7349  success */\n      dup4\n        /* \"@openzeppelin/contracts@4.9.6/utils/Address.sol\":7351:7361  returndata */\n      dup4\n        /* \"@openzeppelin/contracts@4.9.6/utils/Address.sol\":7363:7375  errorMessage */\n      dup8\n        /* \"@openzeppelin/contracts@4.9.6/utils/Address.sol\":7307:7333  verifyCallResultFromTarget */\n      tag_202\n        /* \"@openzeppelin/contracts@4.9.6/utils/Address.sol\":7307:7376  verifyCallResultFromTarget(target, success, returndata, errorMessage) */\n      jump\t// in\n    tag_201:\n        /* \"@openzeppelin/contracts@4.9.6/utils/Address.sol\":7300:7376  return verifyCallResultFromTarget(target, success, returndata, errorMessage) */\n      swap3\n      pop\n      pop\n      pop\n        /* \"@openzeppelin/contracts@4.9.6/utils/Address.sol\":7058:7383  function functionDelegateCall(... */\n      swap4\n      swap3\n      pop\n      pop\n      pop\n      jump\t// out\n        /* \"@openzeppelin/contracts@4.9.6/utils/Address.sol\":7671:8299  function verifyCallResultFromTarget(... */\n    tag_202:\n        /* \"@openzeppelin/contracts@4.9.6/utils/Address.sol\":7851:7863  bytes memory */\n      0x60\n        /* \"@openzeppelin/contracts@4.9.6/utils/Address.sol\":7879:7886  success */\n      dup4\n        /* \"@openzeppelin/contracts@4.9.6/utils/Address.sol\":7875:8293  if (success) {... */\n      iszero\n      tag_204\n      jumpi\n        /* \"@openzeppelin/contracts@4.9.6/utils/Address.sol\":7927:7928  0 */\n      0x00\n        /* \"@openzeppelin/contracts@4.9.6/utils/Address.sol\":7906:7916  returndata */\n      dup4\n        /* \"@openzeppelin/contracts@4.9.6/utils/Address.sol\":7906:7923  returndata.length */\n      mload\n        /* \"@openzeppelin/contracts@4.9.6/utils/Address.sol\":7906:7928  returndata.length == 0 */\n      eq\n        /* \"@openzeppelin/contracts@4.9.6/utils/Address.sol\":7902:8188  if (returndata.length == 0) {... */\n      iszero\n      tag_205\n      jumpi\n        /* \"@openzeppelin/contracts@4.9.6/utils/Address.sol\":8121:8139  isContract(target) */\n      tag_206\n        /* \"@openzeppelin/contracts@4.9.6/utils/Address.sol\":8132:8138  target */\n      dup6\n        /* \"@openzeppelin/contracts@4.9.6/utils/Address.sol\":8121:8131  isContract */\n      tag_176\n        /* \"@openzeppelin/contracts@4.9.6/utils/Address.sol\":8121:8139  isContract(target) */\n      jump\t// in\n    tag_206:\n        /* \"@openzeppelin/contracts@4.9.6/utils/Address.sol\":8113:8173  require(isContract(target), \"Address: call to non-contract\") */\n      tag_207\n      jumpi\n      mload(0x40)\n      0x08c379a000000000000000000000000000000000000000000000000000000000\n      dup2\n      mstore\n      0x04\n      add\n      tag_208\n      swap1\n      tag_209\n      jump\t// in\n    tag_208:\n      mload(0x40)\n      dup1\n      swap2\n      sub\n      swap1\n      revert\n    tag_207:\n        /* \"@openzeppelin/contracts@4.9.6/utils/Address.sol\":7902:8188  if (returndata.length == 0) {... */\n    tag_205:\n        /* \"@openzeppelin/contracts@4.9.6/utils/Address.sol\":8208:8218  returndata */\n      dup3\n        /* \"@openzeppelin/contracts@4.9.6/utils/Address.sol\":8201:8218  return returndata */\n      swap1\n      pop\n      jump(tag_203)\n        /* \"@openzeppelin/contracts@4.9.6/utils/Address.sol\":7875:8293  if (success) {... */\n    tag_204:\n        /* \"@openzeppelin/contracts@4.9.6/utils/Address.sol\":8249:8282  _revert(returndata, errorMessage) */\n      tag_211\n        /* \"@openzeppelin/contracts@4.9.6/utils/Address.sol\":8257:8267  returndata */\n      dup4\n        /* \"@openzeppelin/contracts@4.9.6/utils/Address.sol\":8269:8281  errorMessage */\n      dup4\n        /* \"@openzeppelin/contracts@4.9.6/utils/Address.sol\":8249:8256  _revert */\n      tag_212\n        /* \"@openzeppelin/contracts@4.9.6/utils/Address.sol\":8249:8282  _revert(returndata, errorMessage) */\n      jump\t// in\n    tag_211:\n        /* \"@openzeppelin/contracts@4.9.6/utils/Address.sol\":7671:8299  function verifyCallResultFromTarget(... */\n    tag_203:\n      swap5\n      swap4\n      pop\n      pop\n      pop\n      pop\n      jump\t// out\n        /* \"@openzeppelin/contracts@4.9.6/utils/Address.sol\":8821:9361  function _revert(bytes memory returndata, string memory errorMessage) private pure {... */\n    tag_212:\n        /* \"@openzeppelin/contracts@4.9.6/utils/Address.sol\":9000:9001  0 */\n      0x00\n        /* \"@openzeppelin/contracts@4.9.6/utils/Address.sol\":8980:8990  returndata */\n      dup3\n        /* \"@openzeppelin/contracts@4.9.6/utils/Address.sol\":8980:8997  returndata.length */\n      mload\n        /* \"@openzeppelin/contracts@4.9.6/utils/Address.sol\":8980:9001  returndata.length > 0 */\n      gt\n        /* \"@openzeppelin/contracts@4.9.6/utils/Address.sol\":8976:9355  if (returndata.length > 0) {... */\n      iszero\n      tag_214\n      jumpi\n        /* \"@openzeppelin/contracts@4.9.6/utils/Address.sol\":9208:9218  returndata */\n      dup2\n        /* \"@openzeppelin/contracts@4.9.6/utils/Address.sol\":9202:9219  mload(returndata) */\n      mload\n        /* \"@openzeppelin/contracts@4.9.6/utils/Address.sol\":9264:9279  returndata_size */\n      dup1\n        /* \"@openzeppelin/contracts@4.9.6/utils/Address.sol\":9251:9261  returndata */\n      dup4\n        /* \"@openzeppelin/contracts@4.9.6/utils/Address.sol\":9247:9249  32 */\n      0x20\n        /* \"@openzeppelin/contracts@4.9.6/utils/Address.sol\":9243:9262  add(32, returndata) */\n      add\n        /* \"@openzeppelin/contracts@4.9.6/utils/Address.sol\":9236:9280  revert(add(32, returndata), returndata_size) */\n      revert\n        /* \"@openzeppelin/contracts@4.9.6/utils/Address.sol\":9161:9294  {... */\n    tag_214:\n        /* \"@openzeppelin/contracts@4.9.6/utils/Address.sol\":9331:9343  errorMessage */\n      dup1\n        /* \"@openzeppelin/contracts@4.9.6/utils/Address.sol\":9324:9344  revert(errorMessage) */\n      mload(0x40)\n      0x08c379a000000000000000000000000000000000000000000000000000000000\n      dup2\n      mstore\n      0x04\n      add\n      tag_216\n      swap2\n      swap1\n      tag_45\n      jump\t// in\n    tag_216:\n      mload(0x40)\n      dup1\n      swap2\n      sub\n      swap1\n      revert\n    tag_116:\n      dup3\n      dup1\n      sload\n      tag_217\n      swap1\n      tag_59\n      jump\t// in\n    tag_217:\n      swap1\n      0x00\n      mstore\n      keccak256(0x00, 0x20)\n      swap1\n      0x1f\n      add\n      0x20\n      swap1\n      div\n      dup2\n      add\n      swap3\n      dup3\n      tag_219\n      jumpi\n      0x00\n      dup6\n      sstore\n      jump(tag_218)\n    tag_219:\n      dup3\n      0x1f\n      lt\n      tag_220\n      jumpi\n      dup1\n      mload\n      not(0xff)\n      and\n      dup4\n      dup1\n      add\n      or\n      dup6\n      sstore\n      jump(tag_218)\n    tag_220:\n      dup3\n      dup1\n      add\n      0x01\n      add\n      dup6\n      sstore\n      dup3\n      iszero\n      tag_218\n      jumpi\n      swap2\n      dup3\n      add\n    tag_221:\n      dup3\n      dup2\n      gt\n      iszero\n      tag_222\n      jumpi\n      dup3\n      mload\n      dup3\n      sstore\n      swap2\n      0x20\n      add\n      swap2\n      swap1\n      0x01\n      add\n      swap1\n      jump(tag_221)\n    tag_222:\n    tag_218:\n      pop\n      swap1\n      pop\n      tag_223\n      swap2\n      swap1\n      tag_224\n      jump\t// in\n    tag_223:\n      pop\n      swap1\n      jump\t// out\n    tag_224:\n    tag_225:\n      dup1\n      dup3\n      gt\n      iszero\n      tag_226\n      jumpi\n      0x00\n      dup2\n      0x00\n      swap1\n      sstore\n      pop\n      0x01\n      add\n      jump(tag_225)\n    tag_226:\n      pop\n      swap1\n      jump\t// out\n        /* \"#utility.yul\":7:350   */\n    tag_228:\n      0x00\n        /* \"#utility.yul\":109:174   */\n      tag_230\n        /* \"#utility.yul\":125:173   */\n      tag_231\n        /* \"#utility.yul\":166:172   */\n      dup5\n        /* \"#utility.yul\":125:173   */\n      tag_232\n      jump\t// in\n    tag_231:\n        /* \"#utility.yul\":109:174   */\n      tag_233\n      jump\t// in\n    tag_230:\n        /* \"#utility.yul\":100:174   */\n      swap1\n      pop\n        /* \"#utility.yul\":197:203   */\n      dup3\n        /* \"#utility.yul\":190:195   */\n      dup2\n        /* \"#utility.yul\":183:204   */\n      mstore\n        /* \"#utility.yul\":235:239   */\n      0x20\n        /* \"#utility.yul\":228:233   */\n      dup2\n        /* \"#utility.yul\":224:240   */\n      add\n        /* \"#utility.yul\":273:276   */\n      dup5\n        /* \"#utility.yul\":264:270   */\n      dup5\n        /* \"#utility.yul\":259:262   */\n      dup5\n        /* \"#utility.yul\":255:271   */\n      add\n        /* \"#utility.yul\":252:277   */\n      gt\n        /* \"#utility.yul\":249:251   */\n      iszero\n      tag_234\n      jumpi\n        /* \"#utility.yul\":290:291   */\n      0x00\n        /* \"#utility.yul\":287:288   */\n      dup1\n        /* \"#utility.yul\":280:292   */\n      revert\n        /* \"#utility.yul\":249:251   */\n    tag_234:\n        /* \"#utility.yul\":303:344   */\n      tag_235\n        /* \"#utility.yul\":337:343   */\n      dup5\n        /* \"#utility.yul\":332:335   */\n      dup3\n        /* \"#utility.yul\":327:330   */\n      dup6\n        /* \"#utility.yul\":303:344   */\n      tag_236\n      jump\t// in\n    tag_235:\n        /* \"#utility.yul\":90:350   */\n      pop\n      swap4\n      swap3\n      pop\n      pop\n      pop\n      jump\t// out\n        /* \"#utility.yul\":356:495   */\n    tag_237:\n      0x00\n        /* \"#utility.yul\":440:446   */\n      dup2\n        /* \"#utility.yul\":427:447   */\n      calldataload\n        /* \"#utility.yul\":418:447   */\n      swap1\n      pop\n        /* \"#utility.yul\":456:489   */\n      tag_239\n        /* \"#utility.yul\":483:488   */\n      dup2\n        /* \"#utility.yul\":456:489   */\n      tag_240\n      jump\t// in\n    tag_239:\n        /* \"#utility.yul\":408:495   */\n      swap3\n      swap2\n      pop\n      pop\n      jump\t// out\n        /* \"#utility.yul\":501:644   */\n    tag_241:\n      0x00\n        /* \"#utility.yul\":589:595   */\n      dup2\n        /* \"#utility.yul\":583:596   */\n      mload\n        /* \"#utility.yul\":574:596   */\n      swap1\n      pop\n        /* \"#utility.yul\":605:638   */\n      tag_243\n        /* \"#utility.yul\":632:637   */\n      dup2\n        /* \"#utility.yul\":605:638   */\n      tag_244\n      jump\t// in\n    tag_243:\n        /* \"#utility.yul\":564:644   */\n      swap3\n      swap2\n      pop\n      pop\n      jump\t// out\n        /* \"#utility.yul\":663:934   */\n    tag_245:\n      0x00\n        /* \"#utility.yul\":767:770   */\n      dup3\n        /* \"#utility.yul\":760:764   */\n      0x1f\n        /* \"#utility.yul\":752:758   */\n      dup4\n        /* \"#utility.yul\":748:765   */\n      add\n        /* \"#utility.yul\":744:771   */\n      slt\n        /* \"#utility.yul\":734:736   */\n      tag_247\n      jumpi\n        /* \"#utility.yul\":785:786   */\n      0x00\n        /* \"#utility.yul\":782:783   */\n      dup1\n        /* \"#utility.yul\":775:787   */\n      revert\n        /* \"#utility.yul\":734:736   */\n    tag_247:\n        /* \"#utility.yul\":825:831   */\n      dup2\n        /* \"#utility.yul\":812:832   */\n      calldataload\n        /* \"#utility.yul\":850:928   */\n      tag_248\n        /* \"#utility.yul\":924:927   */\n      dup5\n        /* \"#utility.yul\":916:922   */\n      dup3\n        /* \"#utility.yul\":909:913   */\n      0x20\n        /* \"#utility.yul\":901:907   */\n      dup7\n        /* \"#utility.yul\":897:914   */\n      add\n        /* \"#utility.yul\":850:928   */\n      tag_228\n      jump\t// in\n    tag_248:\n        /* \"#utility.yul\":841:928   */\n      swap2\n      pop\n        /* \"#utility.yul\":724:934   */\n      pop\n      swap3\n      swap2\n      pop\n      pop\n      jump\t// out\n        /* \"#utility.yul\":940:1202   */\n    tag_21:\n      0x00\n        /* \"#utility.yul\":1048:1050   */\n      0x20\n        /* \"#utility.yul\":1036:1045   */\n      dup3\n        /* \"#utility.yul\":1027:1034   */\n      dup5\n        /* \"#utility.yul\":1023:1046   */\n      sub\n        /* \"#utility.yul\":1019:1051   */\n      slt\n        /* \"#utility.yul\":1016:1018   */\n      iszero\n      tag_250\n      jumpi\n        /* \"#utility.yul\":1064:1065   */\n      0x00\n        /* \"#utility.yul\":1061:1062   */\n      dup1\n        /* \"#utility.yul\":1054:1066   */\n      revert\n        /* \"#utility.yul\":1016:1018   */\n    tag_250:\n        /* \"#utility.yul\":1107:1108   */\n      0x00\n        /* \"#utility.yul\":1132:1185   */\n      tag_251\n        /* \"#utility.yul\":1177:1184   */\n      dup5\n        /* \"#utility.yul\":1168:1174   */\n      dup3\n        /* \"#utility.yul\":1157:1166   */\n      dup6\n        /* \"#utility.yul\":1153:1175   */\n      add\n        /* \"#utility.yul\":1132:1185   */\n      tag_237\n      jump\t// in\n    tag_251:\n        /* \"#utility.yul\":1122:1185   */\n      swap2\n      pop\n        /* \"#utility.yul\":1078:1195   */\n      pop\n        /* \"#utility.yul\":1006:1202   */\n      swap3\n      swap2\n      pop\n      pop\n      jump\t// out\n        /* \"#utility.yul\":1208:1726   */\n    tag_25:\n      0x00\n      dup1\n        /* \"#utility.yul\":1342:1344   */\n      0x40\n        /* \"#utility.yul\":1330:1339   */\n      dup4\n        /* \"#utility.yul\":1321:1328   */\n      dup6\n        /* \"#utility.yul\":1317:1340   */\n      sub\n        /* \"#utility.yul\":1313:1345   */\n      slt\n        /* \"#utility.yul\":1310:1312   */\n      iszero\n      tag_253\n      jumpi\n        /* \"#utility.yul\":1358:1359   */\n      0x00\n        /* \"#utility.yul\":1355:1356   */\n      dup1\n        /* \"#utility.yul\":1348:1360   */\n      revert\n        /* \"#utility.yul\":1310:1312   */\n    tag_253:\n        /* \"#utility.yul\":1401:1402   */\n      0x00\n        /* \"#utility.yul\":1426:1479   */\n      tag_254\n        /* \"#utility.yul\":1471:1478   */\n      dup6\n        /* \"#utility.yul\":1462:1468   */\n      dup3\n        /* \"#utility.yul\":1451:1460   */\n      dup7\n        /* \"#utility.yul\":1447:1469   */\n      add\n        /* \"#utility.yul\":1426:1479   */\n      tag_237\n      jump\t// in\n    tag_254:\n        /* \"#utility.yul\":1416:1479   */\n      swap3\n      pop\n        /* \"#utility.yul\":1372:1489   */\n      pop\n        /* \"#utility.yul\":1556:1558   */\n      0x20\n        /* \"#utility.yul\":1545:1554   */\n      dup4\n        /* \"#utility.yul\":1541:1559   */\n      add\n        /* \"#utility.yul\":1528:1560   */\n      calldataload\n        /* \"#utility.yul\":1587:1605   */\n      0xffffffffffffffff\n        /* \"#utility.yul\":1579:1585   */\n      dup2\n        /* \"#utility.yul\":1576:1606   */\n      gt\n        /* \"#utility.yul\":1573:1575   */\n      iszero\n      tag_255\n      jumpi\n        /* \"#utility.yul\":1619:1620   */\n      0x00\n        /* \"#utility.yul\":1616:1617   */\n      dup1\n        /* \"#utility.yul\":1609:1621   */\n      revert\n        /* \"#utility.yul\":1573:1575   */\n    tag_255:\n        /* \"#utility.yul\":1647:1709   */\n      tag_256\n        /* \"#utility.yul\":1701:1708   */\n      dup6\n        /* \"#utility.yul\":1692:1698   */\n      dup3\n        /* \"#utility.yul\":1681:1690   */\n      dup7\n        /* \"#utility.yul\":1677:1699   */\n      add\n        /* \"#utility.yul\":1647:1709   */\n      tag_245\n      jump\t// in\n    tag_256:\n        /* \"#utility.yul\":1637:1709   */\n      swap2\n      pop\n        /* \"#utility.yul\":1499:1719   */\n      pop\n        /* \"#utility.yul\":1300:1726   */\n      swap3\n      pop\n      swap3\n      swap1\n      pop\n      jump\t// out\n        /* \"#utility.yul\":1732:2016   */\n    tag_150:\n      0x00\n        /* \"#utility.yul\":1851:1853   */\n      0x20\n        /* \"#utility.yul\":1839:1848   */\n      dup3\n        /* \"#utility.yul\":1830:1837   */\n      dup5\n        /* \"#utility.yul\":1826:1849   */\n      sub\n        /* \"#utility.yul\":1822:1854   */\n      slt\n        /* \"#utility.yul\":1819:1821   */\n      iszero\n      tag_258\n      jumpi\n        /* \"#utility.yul\":1867:1868   */\n      0x00\n        /* \"#utility.yul\":1864:1865   */\n      dup1\n        /* \"#utility.yul\":1857:1869   */\n      revert\n        /* \"#utility.yul\":1819:1821   */\n    tag_258:\n        /* \"#utility.yul\":1910:1911   */\n      0x00\n        /* \"#utility.yul\":1935:1999   */\n      tag_259\n        /* \"#utility.yul\":1991:1998   */\n      dup5\n        /* \"#utility.yul\":1982:1988   */\n      dup3\n        /* \"#utility.yul\":1971:1980   */\n      dup6\n        /* \"#utility.yul\":1967:1989   */\n      add\n        /* \"#utility.yul\":1935:1999   */\n      tag_241\n      jump\t// in\n    tag_259:\n        /* \"#utility.yul\":1925:1999   */\n      swap2\n      pop\n        /* \"#utility.yul\":1881:2009   */\n      pop\n        /* \"#utility.yul\":1809:2016   */\n      swap3\n      swap2\n      pop\n      pop\n      jump\t// out\n        /* \"#utility.yul\":2022:2140   */\n    tag_260:\n        /* \"#utility.yul\":2109:2133   */\n      tag_262\n        /* \"#utility.yul\":2127:2132   */\n      dup2\n        /* \"#utility.yul\":2109:2133   */\n      tag_263\n      jump\t// in\n    tag_262:\n        /* \"#utility.yul\":2104:2107   */\n      dup3\n        /* \"#utility.yul\":2097:2134   */\n      mstore\n        /* \"#utility.yul\":2087:2140   */\n      pop\n      pop\n      jump\t// out\n        /* \"#utility.yul\":2146:2264   */\n    tag_264:\n        /* \"#utility.yul\":2233:2257   */\n      tag_266\n        /* \"#utility.yul\":2251:2256   */\n      dup2\n        /* \"#utility.yul\":2233:2257   */\n      tag_267\n      jump\t// in\n    tag_266:\n        /* \"#utility.yul\":2228:2231   */\n      dup3\n        /* \"#utility.yul\":2221:2258   */\n      mstore\n        /* \"#utility.yul\":2211:2264   */\n      pop\n      pop\n      jump\t// out\n        /* \"#utility.yul\":2270:2643   */\n    tag_268:\n      0x00\n        /* \"#utility.yul\":2402:2440   */\n      tag_270\n        /* \"#utility.yul\":2434:2439   */\n      dup3\n        /* \"#utility.yul\":2402:2440   */\n      tag_271\n      jump\t// in\n    tag_270:\n        /* \"#utility.yul\":2456:2544   */\n      tag_272\n        /* \"#utility.yul\":2537:2543   */\n      dup2\n        /* \"#utility.yul\":2532:2535   */\n      dup6\n        /* \"#utility.yul\":2456:2544   */\n      tag_273\n      jump\t// in\n    tag_272:\n        /* \"#utility.yul\":2449:2544   */\n      swap4\n      pop\n        /* \"#utility.yul\":2553:2605   */\n      tag_274\n        /* \"#utility.yul\":2598:2604   */\n      dup2\n        /* \"#utility.yul\":2593:2596   */\n      dup6\n        /* \"#utility.yul\":2586:2590   */\n      0x20\n        /* \"#utility.yul\":2579:2584   */\n      dup7\n        /* \"#utility.yul\":2575:2591   */\n      add\n        /* \"#utility.yul\":2553:2605   */\n      tag_275\n      jump\t// in\n    tag_274:\n        /* \"#utility.yul\":2630:2636   */\n      dup1\n        /* \"#utility.yul\":2625:2628   */\n      dup5\n        /* \"#utility.yul\":2621:2637   */\n      add\n        /* \"#utility.yul\":2614:2637   */\n      swap2\n      pop\n        /* \"#utility.yul\":2378:2643   */\n      pop\n      swap3\n      swap2\n      pop\n      pop\n      jump\t// out\n        /* \"#utility.yul\":2649:3013   */\n    tag_276:\n      0x00\n        /* \"#utility.yul\":2765:2804   */\n      tag_278\n        /* \"#utility.yul\":2798:2803   */\n      dup3\n        /* \"#utility.yul\":2765:2804   */\n      tag_279\n      jump\t// in\n    tag_278:\n        /* \"#utility.yul\":2820:2891   */\n      tag_280\n        /* \"#utility.yul\":2884:2890   */\n      dup2\n        /* \"#utility.yul\":2879:2882   */\n      dup6\n        /* \"#utility.yul\":2820:2891   */\n      tag_281\n      jump\t// in\n    tag_280:\n        /* \"#utility.yul\":2813:2891   */\n      swap4\n      pop\n        /* \"#utility.yul\":2900:2952   */\n      tag_282\n        /* \"#utility.yul\":2945:2951   */\n      dup2\n        /* \"#utility.yul\":2940:2943   */\n      dup6\n        /* \"#utility.yul\":2933:2937   */\n      0x20\n        /* \"#utility.yul\":2926:2931   */\n      dup7\n        /* \"#utility.yul\":2922:2938   */\n      add\n        /* \"#utility.yul\":2900:2952   */\n      tag_275\n      jump\t// in\n    tag_282:\n        /* \"#utility.yul\":2977:3006   */\n      tag_283\n        /* \"#utility.yul\":2999:3005   */\n      dup2\n        /* \"#utility.yul\":2977:3006   */\n      tag_284\n      jump\t// in\n    tag_283:\n        /* \"#utility.yul\":2972:2975   */\n      dup5\n        /* \"#utility.yul\":2968:3007   */\n      add\n        /* \"#utility.yul\":2961:3007   */\n      swap2\n      pop\n        /* \"#utility.yul\":2741:3013   */\n      pop\n      swap3\n      swap2\n      pop\n      pop\n      jump\t// out\n        /* \"#utility.yul\":3019:3385   */\n    tag_285:\n      0x00\n        /* \"#utility.yul\":3182:3249   */\n      tag_287\n        /* \"#utility.yul\":3246:3248   */\n      0x26\n        /* \"#utility.yul\":3241:3244   */\n      dup4\n        /* \"#utility.yul\":3182:3249   */\n      tag_281\n      jump\t// in\n    tag_287:\n        /* \"#utility.yul\":3175:3249   */\n      swap2\n      pop\n        /* \"#utility.yul\":3258:3351   */\n      tag_288\n        /* \"#utility.yul\":3347:3350   */\n      dup3\n        /* \"#utility.yul\":3258:3351   */\n      tag_289\n      jump\t// in\n    tag_288:\n        /* \"#utility.yul\":3376:3378   */\n      0x40\n        /* \"#utility.yul\":3371:3374   */\n      dup3\n        /* \"#utility.yul\":3367:3379   */\n      add\n        /* \"#utility.yul\":3360:3379   */\n      swap1\n      pop\n        /* \"#utility.yul\":3165:3385   */\n      swap2\n      swap1\n      pop\n      jump\t// out\n        /* \"#utility.yul\":3391:3757   */\n    tag_290:\n      0x00\n        /* \"#utility.yul\":3554:3621   */\n      tag_292\n        /* \"#utility.yul\":3618:3620   */\n      0x2c\n        /* \"#utility.yul\":3613:3616   */\n      dup4\n        /* \"#utility.yul\":3554:3621   */\n      tag_281\n      jump\t// in\n    tag_292:\n        /* \"#utility.yul\":3547:3621   */\n      swap2\n      pop\n        /* \"#utility.yul\":3630:3723   */\n      tag_293\n        /* \"#utility.yul\":3719:3722   */\n      dup3\n        /* \"#utility.yul\":3630:3723   */\n      tag_294\n      jump\t// in\n    tag_293:\n        /* \"#utility.yul\":3748:3750   */\n      0x40\n        /* \"#utility.yul\":3743:3746   */\n      dup3\n        /* \"#utility.yul\":3739:3751   */\n      add\n        /* \"#utility.yul\":3732:3751   */\n      swap1\n      pop\n        /* \"#utility.yul\":3537:3757   */\n      swap2\n      swap1\n      pop\n      jump\t// out\n        /* \"#utility.yul\":3763:4129   */\n    tag_295:\n      0x00\n        /* \"#utility.yul\":3926:3993   */\n      tag_297\n        /* \"#utility.yul\":3990:3992   */\n      0x2c\n        /* \"#utility.yul\":3985:3988   */\n      dup4\n        /* \"#utility.yul\":3926:3993   */\n      tag_281\n      jump\t// in\n    tag_297:\n        /* \"#utility.yul\":3919:3993   */\n      swap2\n      pop\n        /* \"#utility.yul\":4002:4095   */\n      tag_298\n        /* \"#utility.yul\":4091:4094   */\n      dup3\n        /* \"#utility.yul\":4002:4095   */\n      tag_299\n      jump\t// in\n    tag_298:\n        /* \"#utility.yul\":4120:4122   */\n      0x40\n        /* \"#utility.yul\":4115:4118   */\n      dup3\n        /* \"#utility.yul\":4111:4123   */\n      add\n        /* \"#utility.yul\":4104:4123   */\n      swap1\n      pop\n        /* \"#utility.yul\":3909:4129   */\n      swap2\n      swap1\n      pop\n      jump\t// out\n        /* \"#utility.yul\":4135:4501   */\n    tag_300:\n      0x00\n        /* \"#utility.yul\":4298:4365   */\n      tag_302\n        /* \"#utility.yul\":4362:4364   */\n      0x38\n        /* \"#utility.yul\":4357:4360   */\n      dup4\n        /* \"#utility.yul\":4298:4365   */\n      tag_281\n      jump\t// in\n    tag_302:\n        /* \"#utility.yul\":4291:4365   */\n      swap2\n      pop\n        /* \"#utility.yul\":4374:4467   */\n      tag_303\n        /* \"#utility.yul\":4463:4466   */\n      dup3\n        /* \"#utility.yul\":4374:4467   */\n      tag_304\n      jump\t// in\n    tag_303:\n        /* \"#utility.yul\":4492:4494   */\n      0x40\n        /* \"#utility.yul\":4487:4490   */\n      dup3\n        /* \"#utility.yul\":4483:4495   */\n      add\n        /* \"#utility.yul\":4476:4495   */\n      swap1\n      pop\n        /* \"#utility.yul\":4281:4501   */\n      swap2\n      swap1\n      pop\n      jump\t// out\n        /* \"#utility.yul\":4507:4873   */\n    tag_305:\n      0x00\n        /* \"#utility.yul\":4670:4737   */\n      tag_307\n        /* \"#utility.yul\":4734:4736   */\n      0x29\n        /* \"#utility.yul\":4729:4732   */\n      dup4\n        /* \"#utility.yul\":4670:4737   */\n      tag_281\n      jump\t// in\n    tag_307:\n        /* \"#utility.yul\":4663:4737   */\n      swap2\n      pop\n        /* \"#utility.yul\":4746:4839   */\n      tag_308\n        /* \"#utility.yul\":4835:4838   */\n      dup3\n        /* \"#utility.yul\":4746:4839   */\n      tag_309\n      jump\t// in\n    tag_308:\n        /* \"#utility.yul\":4864:4866   */\n      0x40\n        /* \"#utility.yul\":4859:4862   */\n      dup3\n        /* \"#utility.yul\":4855:4867   */\n      add\n        /* \"#utility.yul\":4848:4867   */\n      swap1\n      pop\n        /* \"#utility.yul\":4653:4873   */\n      swap2\n      swap1\n      pop\n      jump\t// out\n        /* \"#utility.yul\":4879:5245   */\n    tag_310:\n      0x00\n        /* \"#utility.yul\":5042:5109   */\n      tag_312\n        /* \"#utility.yul\":5106:5108   */\n      0x2e\n        /* \"#utility.yul\":5101:5104   */\n      dup4\n        /* \"#utility.yul\":5042:5109   */\n      tag_281\n      jump\t// in\n    tag_312:\n        /* \"#utility.yul\":5035:5109   */\n      swap2\n      pop\n        /* \"#utility.yul\":5118:5211   */\n      tag_313\n        /* \"#utility.yul\":5207:5210   */\n      dup3\n        /* \"#utility.yul\":5118:5211   */\n      tag_314\n      jump\t// in\n    tag_313:\n        /* \"#utility.yul\":5236:5238   */\n      0x40\n        /* \"#utility.yul\":5231:5234   */\n      dup3\n        /* \"#utility.yul\":5227:5239   */\n      add\n        /* \"#utility.yul\":5220:5239   */\n      swap1\n      pop\n        /* \"#utility.yul\":5025:5245   */\n      swap2\n      swap1\n      pop\n      jump\t// out\n        /* \"#utility.yul\":5251:5617   */\n    tag_315:\n      0x00\n        /* \"#utility.yul\":5414:5481   */\n      tag_317\n        /* \"#utility.yul\":5478:5480   */\n      0x2e\n        /* \"#utility.yul\":5473:5476   */\n      dup4\n        /* \"#utility.yul\":5414:5481   */\n      tag_281\n      jump\t// in\n    tag_317:\n        /* \"#utility.yul\":5407:5481   */\n      swap2\n      pop\n        /* \"#utility.yul\":5490:5583   */\n      tag_318\n        /* \"#utility.yul\":5579:5582   */\n      dup3\n        /* \"#utility.yul\":5490:5583   */\n      tag_319\n      jump\t// in\n    tag_318:\n        /* \"#utility.yul\":5608:5610   */\n      0x40\n        /* \"#utility.yul\":5603:5606   */\n      dup3\n        /* \"#utility.yul\":5599:5611   */\n      add\n        /* \"#utility.yul\":5592:5611   */\n      swap1\n      pop\n        /* \"#utility.yul\":5397:5617   */\n      swap2\n      swap1\n      pop\n      jump\t// out\n        /* \"#utility.yul\":5623:5989   */\n    tag_320:\n      0x00\n        /* \"#utility.yul\":5786:5853   */\n      tag_322\n        /* \"#utility.yul\":5850:5852   */\n      0x2d\n        /* \"#utility.yul\":5845:5848   */\n      dup4\n        /* \"#utility.yul\":5786:5853   */\n      tag_281\n      jump\t// in\n    tag_322:\n        /* \"#utility.yul\":5779:5853   */\n      swap2\n      pop\n        /* \"#utility.yul\":5862:5955   */\n      tag_323\n        /* \"#utility.yul\":5951:5954   */\n      dup3\n        /* \"#utility.yul\":5862:5955   */\n      tag_324\n      jump\t// in\n    tag_323:\n        /* \"#utility.yul\":5980:5982   */\n      0x40\n        /* \"#utility.yul\":5975:5978   */\n      dup3\n        /* \"#utility.yul\":5971:5983   */\n      add\n        /* \"#utility.yul\":5964:5983   */\n      swap1\n      pop\n        /* \"#utility.yul\":5769:5989   */\n      swap2\n      swap1\n      pop\n      jump\t// out\n        /* \"#utility.yul\":5995:6361   */\n    tag_325:\n      0x00\n        /* \"#utility.yul\":6158:6225   */\n      tag_327\n        /* \"#utility.yul\":6222:6224   */\n      0x20\n        /* \"#utility.yul\":6217:6220   */\n      dup4\n        /* \"#utility.yul\":6158:6225   */\n      tag_281\n      jump\t// in\n    tag_327:\n        /* \"#utility.yul\":6151:6225   */\n      swap2\n      pop\n        /* \"#utility.yul\":6234:6327   */\n      tag_328\n        /* \"#utility.yul\":6323:6326   */\n      dup3\n        /* \"#utility.yul\":6234:6327   */\n      tag_329\n      jump\t// in\n    tag_328:\n        /* \"#utility.yul\":6352:6354   */\n      0x20\n        /* \"#utility.yul\":6347:6350   */\n      dup3\n        /* \"#utility.yul\":6343:6355   */\n      add\n        /* \"#utility.yul\":6336:6355   */\n      swap1\n      pop\n        /* \"#utility.yul\":6141:6361   */\n      swap2\n      swap1\n      pop\n      jump\t// out\n        /* \"#utility.yul\":6367:6733   */\n    tag_330:\n      0x00\n        /* \"#utility.yul\":6530:6597   */\n      tag_332\n        /* \"#utility.yul\":6594:6596   */\n      0x1d\n        /* \"#utility.yul\":6589:6592   */\n      dup4\n        /* \"#utility.yul\":6530:6597   */\n      tag_281\n      jump\t// in\n    tag_332:\n        /* \"#utility.yul\":6523:6597   */\n      swap2\n      pop\n        /* \"#utility.yul\":6606:6699   */\n      tag_333\n        /* \"#utility.yul\":6695:6698   */\n      dup3\n        /* \"#utility.yul\":6606:6699   */\n      tag_334\n      jump\t// in\n    tag_333:\n        /* \"#utility.yul\":6724:6726   */\n      0x20\n        /* \"#utility.yul\":6719:6722   */\n      dup3\n        /* \"#utility.yul\":6715:6727   */\n      add\n        /* \"#utility.yul\":6708:6727   */\n      swap1\n      pop\n        /* \"#utility.yul\":6513:6733   */\n      swap2\n      swap1\n      pop\n      jump\t// out\n        /* \"#utility.yul\":6739:6857   */\n    tag_335:\n        /* \"#utility.yul\":6826:6850   */\n      tag_337\n        /* \"#utility.yul\":6844:6849   */\n      dup2\n        /* \"#utility.yul\":6826:6850   */\n      tag_338\n      jump\t// in\n    tag_337:\n        /* \"#utility.yul\":6821:6824   */\n      dup3\n        /* \"#utility.yul\":6814:6851   */\n      mstore\n        /* \"#utility.yul\":6804:6857   */\n      pop\n      pop\n      jump\t// out\n        /* \"#utility.yul\":6863:7134   */\n    tag_197:\n      0x00\n        /* \"#utility.yul\":7015:7108   */\n      tag_340\n        /* \"#utility.yul\":7104:7107   */\n      dup3\n        /* \"#utility.yul\":7095:7101   */\n      dup5\n        /* \"#utility.yul\":7015:7108   */\n      tag_268\n      jump\t// in\n    tag_340:\n        /* \"#utility.yul\":7008:7108   */\n      swap2\n      pop\n        /* \"#utility.yul\":7125:7128   */\n      dup2\n        /* \"#utility.yul\":7118:7128   */\n      swap1\n      pop\n        /* \"#utility.yul\":6997:7134   */\n      swap3\n      swap2\n      pop\n      pop\n      jump\t// out\n        /* \"#utility.yul\":7140:7362   */\n    tag_50:\n      0x00\n        /* \"#utility.yul\":7271:7273   */\n      0x20\n        /* \"#utility.yul\":7260:7269   */\n      dup3\n        /* \"#utility.yul\":7256:7274   */\n      add\n        /* \"#utility.yul\":7248:7274   */\n      swap1\n      pop\n        /* \"#utility.yul\":7284:7355   */\n      tag_342\n        /* \"#utility.yul\":7352:7353   */\n      0x00\n        /* \"#utility.yul\":7341:7350   */\n      dup4\n        /* \"#utility.yul\":7337:7354   */\n      add\n        /* \"#utility.yul\":7328:7334   */\n      dup5\n        /* \"#utility.yul\":7284:7355   */\n      tag_260\n      jump\t// in\n    tag_342:\n        /* \"#utility.yul\":7238:7362   */\n      swap3\n      swap2\n      pop\n      pop\n      jump\t// out\n        /* \"#utility.yul\":7368:7590   */\n    tag_34:\n      0x00\n        /* \"#utility.yul\":7499:7501   */\n      0x20\n        /* \"#utility.yul\":7488:7497   */\n      dup3\n        /* \"#utility.yul\":7484:7502   */\n      add\n        /* \"#utility.yul\":7476:7502   */\n      swap1\n      pop\n        /* \"#utility.yul\":7512:7583   */\n      tag_344\n        /* \"#utility.yul\":7580:7581   */\n      0x00\n        /* \"#utility.yul\":7569:7578   */\n      dup4\n        /* \"#utility.yul\":7565:7582   */\n      add\n        /* \"#utility.yul\":7556:7562   */\n      dup5\n        /* \"#utility.yul\":7512:7583   */\n      tag_264\n      jump\t// in\n    tag_344:\n        /* \"#utility.yul\":7466:7590   */\n      swap3\n      swap2\n      pop\n      pop\n      jump\t// out\n        /* \"#utility.yul\":7596:7909   */\n    tag_45:\n      0x00\n        /* \"#utility.yul\":7747:7749   */\n      0x20\n        /* \"#utility.yul\":7736:7745   */\n      dup3\n        /* \"#utility.yul\":7732:7750   */\n      add\n        /* \"#utility.yul\":7724:7750   */\n      swap1\n      pop\n        /* \"#utility.yul\":7796:7805   */\n      dup2\n        /* \"#utility.yul\":7790:7794   */\n      dup2\n        /* \"#utility.yul\":7786:7806   */\n      sub\n        /* \"#utility.yul\":7782:7783   */\n      0x00\n        /* \"#utility.yul\":7771:7780   */\n      dup4\n        /* \"#utility.yul\":7767:7784   */\n      add\n        /* \"#utility.yul\":7760:7807   */\n      mstore\n        /* \"#utility.yul\":7824:7902   */\n      tag_346\n        /* \"#utility.yul\":7897:7901   */\n      dup2\n        /* \"#utility.yul\":7888:7894   */\n      dup5\n        /* \"#utility.yul\":7824:7902   */\n      tag_276\n      jump\t// in\n    tag_346:\n        /* \"#utility.yul\":7816:7902   */\n      swap1\n      pop\n        /* \"#utility.yul\":7714:7909   */\n      swap3\n      swap2\n      pop\n      pop\n      jump\t// out\n        /* \"#utility.yul\":7915:8334   */\n    tag_131:\n      0x00\n        /* \"#utility.yul\":8119:8121   */\n      0x20\n        /* \"#utility.yul\":8108:8117   */\n      dup3\n        /* \"#utility.yul\":8104:8122   */\n      add\n        /* \"#utility.yul\":8096:8122   */\n      swap1\n      pop\n        /* \"#utility.yul\":8168:8177   */\n      dup2\n        /* \"#utility.yul\":8162:8166   */\n      dup2\n        /* \"#utility.yul\":8158:8178   */\n      sub\n        /* \"#utility.yul\":8154:8155   */\n      0x00\n        /* \"#utility.yul\":8143:8152   */\n      dup4\n        /* \"#utility.yul\":8139:8156   */\n      add\n        /* \"#utility.yul\":8132:8179   */\n      mstore\n        /* \"#utility.yul\":8196:8327   */\n      tag_348\n        /* \"#utility.yul\":8322:8326   */\n      dup2\n        /* \"#utility.yul\":8196:8327   */\n      tag_285\n      jump\t// in\n    tag_348:\n        /* \"#utility.yul\":8188:8327   */\n      swap1\n      pop\n        /* \"#utility.yul\":8086:8334   */\n      swap2\n      swap1\n      pop\n      jump\t// out\n        /* \"#utility.yul\":8340:8759   */\n    tag_67:\n      0x00\n        /* \"#utility.yul\":8544:8546   */\n      0x20\n        /* \"#utility.yul\":8533:8542   */\n      dup3\n        /* \"#utility.yul\":8529:8547   */\n      add\n        /* \"#utility.yul\":8521:8547   */\n      swap1\n      pop\n        /* \"#utility.yul\":8593:8602   */\n      dup2\n        /* \"#utility.yul\":8587:8591   */\n      dup2\n        /* \"#utility.yul\":8583:8603   */\n      sub\n        /* \"#utility.yul\":8579:8580   */\n      0x00\n        /* \"#utility.yul\":8568:8577   */\n      dup4\n        /* \"#utility.yul\":8564:8581   */\n      add\n        /* \"#utility.yul\":8557:8604   */\n      mstore\n        /* \"#utility.yul\":8621:8752   */\n      tag_350\n        /* \"#utility.yul\":8747:8751   */\n      dup2\n        /* \"#utility.yul\":8621:8752   */\n      tag_290\n      jump\t// in\n    tag_350:\n        /* \"#utility.yul\":8613:8752   */\n      swap1\n      pop\n        /* \"#utility.yul\":8511:8759   */\n      swap2\n      swap1\n      pop\n      jump\t// out\n        /* \"#utility.yul\":8765:9184   */\n    tag_72:\n      0x00\n        /* \"#utility.yul\":8969:8971   */\n      0x20\n        /* \"#utility.yul\":8958:8967   */\n      dup3\n        /* \"#utility.yul\":8954:8972   */\n      add\n        /* \"#utility.yul\":8946:8972   */\n      swap1\n      pop\n        /* \"#utility.yul\":9018:9027   */\n      dup2\n        /* \"#utility.yul\":9012:9016   */\n      dup2\n        /* \"#utility.yul\":9008:9028   */\n      sub\n        /* \"#utility.yul\":9004:9005   */\n      0x00\n        /* \"#utility.yul\":8993:9002   */\n      dup4\n        /* \"#utility.yul\":8989:9006   */\n      add\n        /* \"#utility.yul\":8982:9029   */\n      mstore\n        /* \"#utility.yul\":9046:9177   */\n      tag_352\n        /* \"#utility.yul\":9172:9176   */\n      dup2\n        /* \"#utility.yul\":9046:9177   */\n      tag_295\n      jump\t// in\n    tag_352:\n        /* \"#utility.yul\":9038:9177   */\n      swap1\n      pop\n        /* \"#utility.yul\":8936:9184   */\n      swap2\n      swap1\n      pop\n      jump\t// out\n        /* \"#utility.yul\":9190:9609   */\n    tag_96:\n      0x00\n        /* \"#utility.yul\":9394:9396   */\n      0x20\n        /* \"#utility.yul\":9383:9392   */\n      dup3\n        /* \"#utility.yul\":9379:9397   */\n      add\n        /* \"#utility.yul\":9371:9397   */\n      swap1\n      pop\n        /* \"#utility.yul\":9443:9452   */\n      dup2\n        /* \"#utility.yul\":9437:9441   */\n      dup2\n        /* \"#utility.yul\":9433:9453   */\n      sub\n        /* \"#utility.yul\":9429:9430   */\n      0x00\n        /* \"#utility.yul\":9418:9427   */\n      dup4\n        /* \"#utility.yul\":9414:9431   */\n      add\n        /* \"#utility.yul\":9407:9454   */\n      mstore\n        /* \"#utility.yul\":9471:9602   */\n      tag_354\n        /* \"#utility.yul\":9597:9601   */\n      dup2\n        /* \"#utility.yul\":9471:9602   */\n      tag_300\n      jump\t// in\n    tag_354:\n        /* \"#utility.yul\":9463:9602   */\n      swap1\n      pop\n        /* \"#utility.yul\":9361:9609   */\n      swap2\n      swap1\n      pop\n      jump\t// out\n        /* \"#utility.yul\":9615:10034   */\n    tag_160:\n      0x00\n        /* \"#utility.yul\":9819:9821   */\n      0x20\n        /* \"#utility.yul\":9808:9817   */\n      dup3\n        /* \"#utility.yul\":9804:9822   */\n      add\n        /* \"#utility.yul\":9796:9822   */\n      swap1\n      pop\n        /* \"#utility.yul\":9868:9877   */\n      dup2\n        /* \"#utility.yul\":9862:9866   */\n      dup2\n        /* \"#utility.yul\":9858:9878   */\n      sub\n        /* \"#utility.yul\":9854:9855   */\n      0x00\n        /* \"#utility.yul\":9843:9852   */\n      dup4\n        /* \"#utility.yul\":9839:9856   */\n      add\n        /* \"#utility.yul\":9832:9879   */\n      mstore\n        /* \"#utility.yul\":9896:10027   */\n      tag_356\n        /* \"#utility.yul\":10022:10026   */\n      dup2\n        /* \"#utility.yul\":9896:10027   */\n      tag_305\n      jump\t// in\n    tag_356:\n        /* \"#utility.yul\":9888:10027   */\n      swap1\n      pop\n        /* \"#utility.yul\":9786:10034   */\n      swap2\n      swap1\n      pop\n      jump\t// out\n        /* \"#utility.yul\":10040:10459   */\n    tag_111:\n      0x00\n        /* \"#utility.yul\":10244:10246   */\n      0x20\n        /* \"#utility.yul\":10233:10242   */\n      dup3\n        /* \"#utility.yul\":10229:10247   */\n      add\n        /* \"#utility.yul\":10221:10247   */\n      swap1\n      pop\n        /* \"#utility.yul\":10293:10302   */\n      dup2\n        /* \"#utility.yul\":10287:10291   */\n      dup2\n        /* \"#utility.yul\":10283:10303   */\n      sub\n        /* \"#utility.yul\":10279:10280   */\n      0x00\n        /* \"#utility.yul\":10268:10277   */\n      dup4\n        /* \"#utility.yul\":10264:10281   */\n      add\n        /* \"#utility.yul\":10257:10304   */\n      mstore\n        /* \"#utility.yul\":10321:10452   */\n      tag_358\n        /* \"#utility.yul\":10447:10451   */\n      dup2\n        /* \"#utility.yul\":10321:10452   */\n      tag_310\n      jump\t// in\n    tag_358:\n        /* \"#utility.yul\":10313:10452   */\n      swap1\n      pop\n        /* \"#utility.yul\":10211:10459   */\n      swap2\n      swap1\n      pop\n      jump\t// out\n        /* \"#utility.yul\":10465:10884   */\n    tag_156:\n      0x00\n        /* \"#utility.yul\":10669:10671   */\n      0x20\n        /* \"#utility.yul\":10658:10667   */\n      dup3\n        /* \"#utility.yul\":10654:10672   */\n      add\n        /* \"#utility.yul\":10646:10672   */\n      swap1\n      pop\n        /* \"#utility.yul\":10718:10727   */\n      dup2\n        /* \"#utility.yul\":10712:10716   */\n      dup2\n        /* \"#utility.yul\":10708:10728   */\n      sub\n        /* \"#utility.yul\":10704:10705   */\n      0x00\n        /* \"#utility.yul\":10693:10702   */\n      dup4\n        /* \"#utility.yul\":10689:10706   */\n      add\n        /* \"#utility.yul\":10682:10729   */\n      mstore\n        /* \"#utility.yul\":10746:10877   */\n      tag_360\n        /* \"#utility.yul\":10872:10876   */\n      dup2\n        /* \"#utility.yul\":10746:10877   */\n      tag_315\n      jump\t// in\n    tag_360:\n        /* \"#utility.yul\":10738:10877   */\n      swap1\n      pop\n        /* \"#utility.yul\":10636:10884   */\n      swap2\n      swap1\n      pop\n      jump\t// out\n        /* \"#utility.yul\":10890:11309   */\n    tag_179:\n      0x00\n        /* \"#utility.yul\":11094:11096   */\n      0x20\n        /* \"#utility.yul\":11083:11092   */\n      dup3\n        /* \"#utility.yul\":11079:11097   */\n      add\n        /* \"#utility.yul\":11071:11097   */\n      swap1\n      pop\n        /* \"#utility.yul\":11143:11152   */\n      dup2\n        /* \"#utility.yul\":11137:11141   */\n      dup2\n        /* \"#utility.yul\":11133:11153   */\n      sub\n        /* \"#utility.yul\":11129:11130   */\n      0x00\n        /* \"#utility.yul\":11118:11127   */\n      dup4\n        /* \"#utility.yul\":11114:11131   */\n      add\n        /* \"#utility.yul\":11107:11154   */\n      mstore\n        /* \"#utility.yul\":11171:11302   */\n      tag_362\n        /* \"#utility.yul\":11297:11301   */\n      dup2\n        /* \"#utility.yul\":11171:11302   */\n      tag_320\n      jump\t// in\n    tag_362:\n        /* \"#utility.yul\":11163:11302   */\n      swap1\n      pop\n        /* \"#utility.yul\":11061:11309   */\n      swap2\n      swap1\n      pop\n      jump\t// out\n        /* \"#utility.yul\":11315:11734   */\n    tag_169:\n      0x00\n        /* \"#utility.yul\":11519:11521   */\n      0x20\n        /* \"#utility.yul\":11508:11517   */\n      dup3\n        /* \"#utility.yul\":11504:11522   */\n      add\n        /* \"#utility.yul\":11496:11522   */\n      swap1\n      pop\n        /* \"#utility.yul\":11568:11577   */\n      dup2\n        /* \"#utility.yul\":11562:11566   */\n      dup2\n        /* \"#utility.yul\":11558:11578   */\n      sub\n        /* \"#utility.yul\":11554:11555   */\n      0x00\n        /* \"#utility.yul\":11543:11552   */\n      dup4\n        /* \"#utility.yul\":11539:11556   */\n      add\n        /* \"#utility.yul\":11532:11579   */\n      mstore\n        /* \"#utility.yul\":11596:11727   */\n      tag_364\n        /* \"#utility.yul\":11722:11726   */\n      dup2\n        /* \"#utility.yul\":11596:11727   */\n      tag_325\n      jump\t// in\n    tag_364:\n        /* \"#utility.yul\":11588:11727   */\n      swap1\n      pop\n        /* \"#utility.yul\":11486:11734   */\n      swap2\n      swap1\n      pop\n      jump\t// out\n        /* \"#utility.yul\":11740:12159   */\n    tag_209:\n      0x00\n        /* \"#utility.yul\":11944:11946   */\n      0x20\n        /* \"#utility.yul\":11933:11942   */\n      dup3\n        /* \"#utility.yul\":11929:11947   */\n      add\n        /* \"#utility.yul\":11921:11947   */\n      swap1\n      pop\n        /* \"#utility.yul\":11993:12002   */\n      dup2\n        /* \"#utility.yul\":11987:11991   */\n      dup2\n        /* \"#utility.yul\":11983:12003   */\n      sub\n        /* \"#utility.yul\":11979:11980   */\n      0x00\n        /* \"#utility.yul\":11968:11977   */\n      dup4\n        /* \"#utility.yul\":11964:11981   */\n      add\n        /* \"#utility.yul\":11957:12004   */\n      mstore\n        /* \"#utility.yul\":12021:12152   */\n      tag_366\n        /* \"#utility.yul\":12147:12151   */\n      dup2\n        /* \"#utility.yul\":12021:12152   */\n      tag_330\n      jump\t// in\n    tag_366:\n        /* \"#utility.yul\":12013:12152   */\n      swap1\n      pop\n        /* \"#utility.yul\":11911:12159   */\n      swap2\n      swap1\n      pop\n      jump\t// out\n        /* \"#utility.yul\":12165:12387   */\n    tag_17:\n      0x00\n        /* \"#utility.yul\":12296:12298   */\n      0x20\n        /* \"#utility.yul\":12285:12294   */\n      dup3\n        /* \"#utility.yul\":12281:12299   */\n      add\n        /* \"#utility.yul\":12273:12299   */\n      swap1\n      pop\n        /* \"#utility.yul\":12309:12380   */\n      tag_368\n        /* \"#utility.yul\":12377:12378   */\n      0x00\n        /* \"#utility.yul\":12366:12375   */\n      dup4\n        /* \"#utility.yul\":12362:12379   */\n      add\n        /* \"#utility.yul\":12353:12359   */\n      dup5\n        /* \"#utility.yul\":12309:12380   */\n      tag_335\n      jump\t// in\n    tag_368:\n        /* \"#utility.yul\":12263:12387   */\n      swap3\n      swap2\n      pop\n      pop\n      jump\t// out\n        /* \"#utility.yul\":12393:12522   */\n    tag_233:\n      0x00\n        /* \"#utility.yul\":12454:12474   */\n      tag_370\n      tag_371\n      jump\t// in\n    tag_370:\n        /* \"#utility.yul\":12444:12474   */\n      swap1\n      pop\n        /* \"#utility.yul\":12483:12516   */\n      tag_372\n        /* \"#utility.yul\":12511:12515   */\n      dup3\n        /* \"#utility.yul\":12503:12509   */\n      dup3\n        /* \"#utility.yul\":12483:12516   */\n      tag_373\n      jump\t// in\n    tag_372:\n        /* \"#utility.yul\":12434:12522   */\n      swap2\n      swap1\n      pop\n      jump\t// out\n        /* \"#utility.yul\":12528:12603   */\n    tag_371:\n      0x00\n        /* \"#utility.yul\":12594:12596   */\n      0x40\n        /* \"#utility.yul\":12588:12597   */\n      mload\n        /* \"#utility.yul\":12578:12597   */\n      swap1\n      pop\n        /* \"#utility.yul\":12568:12603   */\n      swap1\n      jump\t// out\n        /* \"#utility.yul\":12609:12916   */\n    tag_232:\n      0x00\n        /* \"#utility.yul\":12760:12778   */\n      0xffffffffffffffff\n        /* \"#utility.yul\":12752:12758   */\n      dup3\n        /* \"#utility.yul\":12749:12779   */\n      gt\n        /* \"#utility.yul\":12746:12748   */\n      iszero\n      tag_376\n      jumpi\n        /* \"#utility.yul\":12782:12800   */\n      tag_377\n      tag_378\n      jump\t// in\n    tag_377:\n        /* \"#utility.yul\":12746:12748   */\n    tag_376:\n        /* \"#utility.yul\":12820:12849   */\n      tag_379\n        /* \"#utility.yul\":12842:12848   */\n      dup3\n        /* \"#utility.yul\":12820:12849   */\n      tag_284\n      jump\t// in\n    tag_379:\n        /* \"#utility.yul\":12812:12849   */\n      swap1\n      pop\n        /* \"#utility.yul\":12904:12908   */\n      0x20\n        /* \"#utility.yul\":12898:12902   */\n      dup2\n        /* \"#utility.yul\":12894:12909   */\n      add\n        /* \"#utility.yul\":12886:12909   */\n      swap1\n      pop\n        /* \"#utility.yul\":12675:12916   */\n      swap2\n      swap1\n      pop\n      jump\t// out\n        /* \"#utility.yul\":12922:13020   */\n    tag_271:\n      0x00\n        /* \"#utility.yul\":13007:13012   */\n      dup2\n        /* \"#utility.yul\":13001:13013   */\n      mload\n        /* \"#utility.yul\":12991:13013   */\n      swap1\n      pop\n        /* \"#utility.yul\":12980:13020   */\n      swap2\n      swap1\n      pop\n      jump\t// out\n        /* \"#utility.yul\":13026:13125   */\n    tag_279:\n      0x00\n        /* \"#utility.yul\":13112:13117   */\n      dup2\n        /* \"#utility.yul\":13106:13118   */\n      mload\n        /* \"#utility.yul\":13096:13118   */\n      swap1\n      pop\n        /* \"#utility.yul\":13085:13125   */\n      swap2\n      swap1\n      pop\n      jump\t// out\n        /* \"#utility.yul\":13131:13278   */\n    tag_273:\n      0x00\n        /* \"#utility.yul\":13269:13272   */\n      dup2\n        /* \"#utility.yul\":13254:13272   */\n      swap1\n      pop\n        /* \"#utility.yul\":13244:13278   */\n      swap3\n      swap2\n      pop\n      pop\n      jump\t// out\n        /* \"#utility.yul\":13284:13453   */\n    tag_281:\n      0x00\n        /* \"#utility.yul\":13402:13408   */\n      dup3\n        /* \"#utility.yul\":13397:13400   */\n      dup3\n        /* \"#utility.yul\":13390:13409   */\n      mstore\n        /* \"#utility.yul\":13442:13446   */\n      0x20\n        /* \"#utility.yul\":13437:13440   */\n      dup3\n        /* \"#utility.yul\":13433:13447   */\n      add\n        /* \"#utility.yul\":13418:13447   */\n      swap1\n      pop\n        /* \"#utility.yul\":13380:13453   */\n      swap3\n      swap2\n      pop\n      pop\n      jump\t// out\n        /* \"#utility.yul\":13459:13764   */\n    tag_92:\n      0x00\n        /* \"#utility.yul\":13518:13538   */\n      tag_385\n        /* \"#utility.yul\":13536:13537   */\n      dup3\n        /* \"#utility.yul\":13518:13538   */\n      tag_338\n      jump\t// in\n    tag_385:\n        /* \"#utility.yul\":13513:13538   */\n      swap2\n      pop\n        /* \"#utility.yul\":13552:13572   */\n      tag_386\n        /* \"#utility.yul\":13570:13571   */\n      dup4\n        /* \"#utility.yul\":13552:13572   */\n      tag_338\n      jump\t// in\n    tag_386:\n        /* \"#utility.yul\":13547:13572   */\n      swap3\n      pop\n        /* \"#utility.yul\":13706:13707   */\n      dup3\n        /* \"#utility.yul\":13638:13704   */\n      0xffffffffffffffffffffffffffffffffffffffffffffffffffffffffffffffff\n        /* \"#utility.yul\":13634:13708   */\n      sub\n        /* \"#utility.yul\":13631:13632   */\n      dup3\n        /* \"#utility.yul\":13628:13709   */\n      gt\n        /* \"#utility.yul\":13625:13627   */\n      iszero\n      tag_387\n      jumpi\n        /* \"#utility.yul\":13712:13730   */\n      tag_388\n      tag_389\n      jump\t// in\n    tag_388:\n        /* \"#utility.yul\":13625:13627   */\n    tag_387:\n        /* \"#utility.yul\":13756:13757   */\n      dup3\n        /* \"#utility.yul\":13753:13754   */\n      dup3\n        /* \"#utility.yul\":13749:13758   */\n      add\n        /* \"#utility.yul\":13742:13758   */\n      swap1\n      pop\n        /* \"#utility.yul\":13503:13764   */\n      swap3\n      swap2\n      pop\n      pop\n      jump\t// out\n        /* \"#utility.yul\":13770:13866   */\n    tag_263:\n      0x00\n        /* \"#utility.yul\":13836:13860   */\n      tag_391\n        /* \"#utility.yul\":13854:13859   */\n      dup3\n        /* \"#utility.yul\":13836:13860   */\n      tag_392\n      jump\t// in\n    tag_391:\n        /* \"#utility.yul\":13825:13860   */\n      swap1\n      pop\n        /* \"#utility.yul\":13815:13866   */\n      swap2\n      swap1\n      pop\n      jump\t// out\n        /* \"#utility.yul\":13872:13949   */\n    tag_267:\n      0x00\n        /* \"#utility.yul\":13938:13943   */\n      dup2\n        /* \"#utility.yul\":13927:13943   */\n      swap1\n      pop\n        /* \"#utility.yul\":13917:13949   */\n      swap2\n      swap1\n      pop\n      jump\t// out\n        /* \"#utility.yul\":13955:14081   */\n    tag_392:\n      0x00\n        /* \"#utility.yul\":14032:14074   */\n      0xffffffffffffffffffffffffffffffffffffffff\n        /* \"#utility.yul\":14025:14030   */\n      dup3\n        /* \"#utility.yul\":14021:14075   */\n      and\n        /* \"#utility.yul\":14010:14075   */\n      swap1\n      pop\n        /* \"#utility.yul\":14000:14081   */\n      swap2\n      swap1\n      pop\n      jump\t// out\n        /* \"#utility.yul\":14087:14164   */\n    tag_338:\n      0x00\n        /* \"#utility.yul\":14153:14158   */\n      dup2\n        /* \"#utility.yul\":14142:14158   */\n      swap1\n      pop\n        /* \"#utility.yul\":14132:14164   */\n      swap2\n      swap1\n      pop\n      jump\t// out\n        /* \"#utility.yul\":14170:14324   */\n    tag_236:\n        /* \"#utility.yul\":14254:14260   */\n      dup3\n        /* \"#utility.yul\":14249:14252   */\n      dup2\n        /* \"#utility.yul\":14244:14247   */\n      dup4\n        /* \"#utility.yul\":14231:14261   */\n      calldatacopy\n        /* \"#utility.yul\":14316:14317   */\n      0x00\n        /* \"#utility.yul\":14307:14313   */\n      dup4\n        /* \"#utility.yul\":14302:14305   */\n      dup4\n        /* \"#utility.yul\":14298:14314   */\n      add\n        /* \"#utility.yul\":14291:14318   */\n      mstore\n        /* \"#utility.yul\":14221:14324   */\n      pop\n      pop\n      pop\n      jump\t// out\n        /* \"#utility.yul\":14330:14637   */\n    tag_275:\n        /* \"#utility.yul\":14398:14399   */\n      0x00\n        /* \"#utility.yul\":14408:14521   */\n    tag_398:\n        /* \"#utility.yul\":14422:14428   */\n      dup4\n        /* \"#utility.yul\":14419:14420   */\n      dup2\n        /* \"#utility.yul\":14416:14429   */\n      lt\n        /* \"#utility.yul\":14408:14521   */\n      iszero\n      tag_400\n      jumpi\n        /* \"#utility.yul\":14507:14508   */\n      dup1\n        /* \"#utility.yul\":14502:14505   */\n      dup3\n        /* \"#utility.yul\":14498:14509   */\n      add\n        /* \"#utility.yul\":14492:14510   */\n      mload\n        /* \"#utility.yul\":14488:14489   */\n      dup2\n        /* \"#utility.yul\":14483:14486   */\n      dup5\n        /* \"#utility.yul\":14479:14490   */\n      add\n        /* \"#utility.yul\":14472:14511   */\n      mstore\n        /* \"#utility.yul\":14444:14446   */\n      0x20\n        /* \"#utility.yul\":14441:14442   */\n      dup2\n        /* \"#utility.yul\":14437:14447   */\n      add\n        /* \"#utility.yul\":14432:14447   */\n      swap1\n      pop\n        /* \"#utility.yul\":14408:14521   */\n      jump(tag_398)\n    tag_400:\n        /* \"#utility.yul\":14539:14545   */\n      dup4\n        /* \"#utility.yul\":14536:14537   */\n      dup2\n        /* \"#utility.yul\":14533:14546   */\n      gt\n        /* \"#utility.yul\":14530:14532   */\n      iszero\n      tag_401\n      jumpi\n        /* \"#utility.yul\":14619:14620   */\n      0x00\n        /* \"#utility.yul\":14610:14616   */\n      dup5\n        /* \"#utility.yul\":14605:14608   */\n      dup5\n        /* \"#utility.yul\":14601:14617   */\n      add\n        /* \"#utility.yul\":14594:14621   */\n      mstore\n        /* \"#utility.yul\":14530:14532   */\n    tag_401:\n        /* \"#utility.yul\":14379:14637   */\n      pop\n      pop\n      pop\n      pop\n      jump\t// out\n        /* \"#utility.yul\":14643:14963   */\n    tag_59:\n      0x00\n        /* \"#utility.yul\":14724:14725   */\n      0x02\n        /* \"#utility.yul\":14718:14722   */\n      dup3\n        /* \"#utility.yul\":14714:14726   */\n      div\n        /* \"#utility.yul\":14704:14726   */\n      swap1\n      pop\n        /* \"#utility.yul\":14771:14772   */\n      0x01\n        /* \"#utility.yul\":14765:14769   */\n      dup3\n        /* \"#utility.yul\":14761:14773   */\n      and\n        /* \"#utility.yul\":14792:14810   */\n      dup1\n        /* \"#utility.yul\":14782:14784   */\n      tag_403\n      jumpi\n        /* \"#utility.yul\":14848:14852   */\n      0x7f\n        /* \"#utility.yul\":14840:14846   */\n      dup3\n        /* \"#utility.yul\":14836:14853   */\n      and\n        /* \"#utility.yul\":14826:14853   */\n      swap2\n      pop\n        /* \"#utility.yul\":14782:14784   */\n    tag_403:\n        /* \"#utility.yul\":14910:14912   */\n      0x20\n        /* \"#utility.yul\":14902:14908   */\n      dup3\n        /* \"#utility.yul\":14899:14913   */\n      lt\n        /* \"#utility.yul\":14879:14897   */\n      dup2\n        /* \"#utility.yul\":14876:14914   */\n      eq\n        /* \"#utility.yul\":14873:14875   */\n      iszero\n      tag_404\n      jumpi\n        /* \"#utility.yul\":14929:14947   */\n      tag_405\n      tag_406\n      jump\t// in\n    tag_405:\n        /* \"#utility.yul\":14873:14875   */\n    tag_404:\n        /* \"#utility.yul\":14694:14963   */\n      pop\n      swap2\n      swap1\n      pop\n      jump\t// out\n        /* \"#utility.yul\":14969:15250   */\n    tag_373:\n        /* \"#utility.yul\":15052:15079   */\n      tag_408\n        /* \"#utility.yul\":15074:15078   */\n      dup3\n        /* \"#utility.yul\":15052:15079   */\n      tag_284\n      jump\t// in\n    tag_408:\n        /* \"#utility.yul\":15044:15050   */\n      dup2\n        /* \"#utility.yul\":15040:15080   */\n      add\n        /* \"#utility.yul\":15182:15188   */\n      dup2\n        /* \"#utility.yul\":15170:15180   */\n      dup2\n        /* \"#utility.yul\":15167:15189   */\n      lt\n        /* \"#utility.yul\":15146:15164   */\n      0xffffffffffffffff\n        /* \"#utility.yul\":15134:15144   */\n      dup3\n        /* \"#utility.yul\":15131:15165   */\n      gt\n        /* \"#utility.yul\":15128:15190   */\n      or\n        /* \"#utility.yul\":15125:15127   */\n      iszero\n      tag_409\n      jumpi\n        /* \"#utility.yul\":15193:15211   */\n      tag_410\n      tag_378\n      jump\t// in\n    tag_410:\n        /* \"#utility.yul\":15125:15127   */\n    tag_409:\n        /* \"#utility.yul\":15233:15243   */\n      dup1\n        /* \"#utility.yul\":15229:15231   */\n      0x40\n        /* \"#utility.yul\":15222:15244   */\n      mstore\n        /* \"#utility.yul\":15012:15250   */\n      pop\n      pop\n      pop\n      jump\t// out\n        /* \"#utility.yul\":15256:15436   */\n    tag_389:\n        /* \"#utility.yul\":15304:15381   */\n      0x4e487b7100000000000000000000000000000000000000000000000000000000\n        /* \"#utility.yul\":15301:15302   */\n      0x00\n        /* \"#utility.yul\":15294:15382   */\n      mstore\n        /* \"#utility.yul\":15401:15405   */\n      0x11\n        /* \"#utility.yul\":15398:15399   */\n      0x04\n        /* \"#utility.yul\":15391:15406   */\n      mstore\n        /* \"#utility.yul\":15425:15429   */\n      0x24\n        /* \"#utility.yul\":15422:15423   */\n      0x00\n        /* \"#utility.yul\":15415:15430   */\n      revert\n        /* \"#utility.yul\":15442:15622   */\n    tag_406:\n        /* \"#utility.yul\":15490:15567   */\n      0x4e487b7100000000000000000000000000000000000000000000000000000000\n        /* \"#utility.yul\":15487:15488   */\n      0x00\n        /* \"#utility.yul\":15480:15568   */\n      mstore\n        /* \"#utility.yul\":15587:15591   */\n      0x22\n        /* \"#utility.yul\":15584:15585   */\n      0x04\n        /* \"#utility.yul\":15577:15592   */\n      mstore\n        /* \"#utility.yul\":15611:15615   */\n      0x24\n        /* \"#utility.yul\":15608:15609   */\n      0x00\n        /* \"#utility.yul\":15601:15616   */\n      revert\n        /* \"#utility.yul\":15628:15808   */\n    tag_378:\n        /* \"#utility.yul\":15676:15753   */\n      0x4e487b7100000000000000000000000000000000000000000000000000000000\n        /* \"#utility.yul\":15673:15674   */\n      0x00\n        /* \"#utility.yul\":15666:15754   */\n      mstore\n        /* \"#utility.yul\":15773:15777   */\n      0x41\n        /* \"#utility.yul\":15770:15771   */\n      0x04\n        /* \"#utility.yul\":15763:15778   */\n      mstore\n        /* \"#utility.yul\":15797:15801   */\n      0x24\n        /* \"#utility.yul\":15794:15795   */\n      0x00\n        /* \"#utility.yul\":15787:15802   */\n      revert\n        /* \"#utility.yul\":15814:15916   */\n    tag_284:\n      0x00\n        /* \"#utility.yul\":15906:15908   */\n      0x1f\n        /* \"#utility.yul\":15902:15909   */\n      not\n        /* \"#utility.yul\":15897:15899   */\n      0x1f\n        /* \"#utility.yul\":15890:15895   */\n      dup4\n        /* \"#utility.yul\":15886:15900   */\n      add\n        /* \"#utility.yul\":15882:15910   */\n      and\n        /* \"#utility.yul\":15872:15910   */\n      swap1\n      pop\n        /* \"#utility.yul\":15862:15916   */\n      swap2\n      swap1\n      pop\n      jump\t// out\n        /* \"#utility.yul\":15922:16147   */\n    tag_289:\n        /* \"#utility.yul\":16062:16096   */\n      0x4f776e61626c653a206e6577206f776e657220697320746865207a65726f2061\n        /* \"#utility.yul\":16058:16059   */\n      0x00\n        /* \"#utility.yul\":16050:16056   */\n      dup3\n        /* \"#utility.yul\":16046:16060   */\n      add\n        /* \"#utility.yul\":16039:16097   */\n      mstore\n        /* \"#utility.yul\":16131:16139   */\n      0x6464726573730000000000000000000000000000000000000000000000000000\n        /* \"#utility.yul\":16126:16128   */\n      0x20\n        /* \"#utility.yul\":16118:16124   */\n      dup3\n        /* \"#utility.yul\":16114:16129   */\n      add\n        /* \"#utility.yul\":16107:16140   */\n      mstore\n        /* \"#utility.yul\":16028:16147   */\n      pop\n      jump\t// out\n        /* \"#utility.yul\":16153:16384   */\n    tag_294:\n        /* \"#utility.yul\":16293:16327   */\n      0x46756e6374696f6e206d7573742062652063616c6c6564207468726f75676820\n        /* \"#utility.yul\":16289:16290   */\n      0x00\n        /* \"#utility.yul\":16281:16287   */\n      dup3\n        /* \"#utility.yul\":16277:16291   */\n      add\n        /* \"#utility.yul\":16270:16328   */\n      mstore\n        /* \"#utility.yul\":16362:16376   */\n      0x64656c656761746563616c6c0000000000000000000000000000000000000000\n        /* \"#utility.yul\":16357:16359   */\n      0x20\n        /* \"#utility.yul\":16349:16355   */\n      dup3\n        /* \"#utility.yul\":16345:16360   */\n      add\n        /* \"#utility.yul\":16338:16377   */\n      mstore\n        /* \"#utility.yul\":16259:16384   */\n      pop\n      jump\t// out\n        /* \"#utility.yul\":16390:16621   */\n    tag_299:\n        /* \"#utility.yul\":16530:16564   */\n      0x46756e6374696f6e206d7573742062652063616c6c6564207468726f75676820\n        /* \"#utility.yul\":16526:16527   */\n      0x00\n        /* \"#utility.yul\":16518:16524   */\n      dup3\n        /* \"#utility.yul\":16514:16528   */\n      add\n        /* \"#utility.yul\":16507:16565   */\n      mstore\n        /* \"#utility.yul\":16599:16613   */\n      0x6163746976652070726f78790000000000000000000000000000000000000000\n        /* \"#utility.yul\":16594:16596   */\n      0x20\n        /* \"#utility.yul\":16586:16592   */\n      dup3\n        /* \"#utility.yul\":16582:16597   */\n      add\n        /* \"#utility.yul\":16575:16614   */\n      mstore\n        /* \"#utility.yul\":16496:16621   */\n      pop\n      jump\t// out\n        /* \"#utility.yul\":16627:16870   */\n    tag_304:\n        /* \"#utility.yul\":16767:16801   */\n      0x555550535570677261646561626c653a206d757374206e6f742062652063616c\n        /* \"#utility.yul\":16763:16764   */\n      0x00\n        /* \"#utility.yul\":16755:16761   */\n      dup3\n        /* \"#utility.yul\":16751:16765   */\n      add\n        /* \"#utility.yul\":16744:16802   */\n      mstore\n        /* \"#utility.yul\":16836:16862   */\n      0x6c6564207468726f7567682064656c656761746563616c6c0000000000000000\n        /* \"#utility.yul\":16831:16833   */\n      0x20\n        /* \"#utility.yul\":16823:16829   */\n      dup3\n        /* \"#utility.yul\":16819:16834   */\n      add\n        /* \"#utility.yul\":16812:16863   */\n      mstore\n        /* \"#utility.yul\":16733:16870   */\n      pop\n      jump\t// out\n        /* \"#utility.yul\":16876:17104   */\n    tag_309:\n        /* \"#utility.yul\":17016:17050   */\n      0x45524331393637557067726164653a20756e737570706f727465642070726f78\n        /* \"#utility.yul\":17012:17013   */\n      0x00\n        /* \"#utility.yul\":17004:17010   */\n      dup3\n        /* \"#utility.yul\":17000:17014   */\n      add\n        /* \"#utility.yul\":16993:17051   */\n      mstore\n        /* \"#utility.yul\":17085:17096   */\n      0x6961626c65555549440000000000000000000000000000000000000000000000\n        /* \"#utility.yul\":17080:17082   */\n      0x20\n        /* \"#utility.yul\":17072:17078   */\n      dup3\n        /* \"#utility.yul\":17068:17083   */\n      add\n        /* \"#utility.yul\":17061:17097   */\n      mstore\n        /* \"#utility.yul\":16982:17104   */\n      pop\n      jump\t// out\n        /* \"#utility.yul\":17110:17343   */\n    tag_314:\n        /* \"#utility.yul\":17250:17284   */\n      0x496e697469616c697a61626c653a20636f6e747261637420697320616c726561\n        /* \"#utility.yul\":17246:17247   */\n      0x00\n        /* \"#utility.yul\":17238:17244   */\n      dup3\n        /* \"#utility.yul\":17234:17248   */\n      add\n        /* \"#utility.yul\":17227:17285   */\n      mstore\n        /* \"#utility.yul\":17319:17335   */\n      0x647920696e697469616c697a6564000000000000000000000000000000000000\n        /* \"#utility.yul\":17314:17316   */\n      0x20\n        /* \"#utility.yul\":17306:17312   */\n      dup3\n        /* \"#utility.yul\":17302:17317   */\n      add\n        /* \"#utility.yul\":17295:17336   */\n      mstore\n        /* \"#utility.yul\":17216:17343   */\n      pop\n      jump\t// out\n        /* \"#utility.yul\":17349:17582   */\n    tag_319:\n        /* \"#utility.yul\":17489:17523   */\n      0x45524331393637557067726164653a206e657720696d706c656d656e74617469\n        /* \"#utility.yul\":17485:17486   */\n      0x00\n        /* \"#utility.yul\":17477:17483   */\n      dup3\n        /* \"#utility.yul\":17473:17487   */\n      add\n        /* \"#utility.yul\":17466:17524   */\n      mstore\n        /* \"#utility.yul\":17558:17574   */\n      0x6f6e206973206e6f742055555053000000000000000000000000000000000000\n        /* \"#utility.yul\":17553:17555   */\n      0x20\n        /* \"#utility.yul\":17545:17551   */\n      dup3\n        /* \"#utility.yul\":17541:17556   */\n      add\n        /* \"#utility.yul\":17534:17575   */\n      mstore\n        /* \"#utility.yul\":17455:17582   */\n      pop\n      jump\t// out\n        /* \"#utility.yul\":17588:17820   */\n    tag_324:\n        /* \"#utility.yul\":17728:17762   */\n      0x455243313936373a206e657720696d706c656d656e746174696f6e206973206e\n        /* \"#utility.yul\":17724:17725   */\n      0x00\n        /* \"#utility.yul\":17716:17722   */\n      dup3\n        /* \"#utility.yul\":17712:17726   */\n      add\n        /* \"#utility.yul\":17705:17763   */\n      mstore\n        /* \"#utility.yul\":17797:17812   */\n      0x6f74206120636f6e747261637400000000000000000000000000000000000000\n        /* \"#utility.yul\":17792:17794   */\n      0x20\n        /* \"#utility.yul\":17784:17790   */\n      dup3\n        /* \"#utility.yul\":17780:17795   */\n      add\n        /* \"#utility.yul\":17773:17813   */\n      mstore\n        /* \"#utility.yul\":17694:17820   */\n      pop\n      jump\t// out\n        /* \"#utility.yul\":17826:18008   */\n    tag_329:\n        /* \"#utility.yul\":17966:18000   */\n      0x4f776e61626c653a2063616c6c6572206973206e6f7420746865206f776e6572\n        /* \"#utility.yul\":17962:17963   */\n      0x00\n        /* \"#utility.yul\":17954:17960   */\n      dup3\n        /* \"#utility.yul\":17950:17964   */\n      add\n        /* \"#utility.yul\":17943:18001   */\n      mstore\n        /* \"#utility.yul\":17932:18008   */\n      pop\n      jump\t// out\n        /* \"#utility.yul\":18014:18193   */\n    tag_334:\n        /* \"#utility.yul\":18154:18185   */\n      0x416464726573733a2063616c6c20746f206e6f6e2d636f6e7472616374000000\n        /* \"#utility.yul\":18150:18151   */\n      0x00\n        /* \"#utility.yul\":18142:18148   */\n      dup3\n        /* \"#utility.yul\":18138:18152   */\n      add\n        /* \"#utility.yul\":18131:18186   */\n      mstore\n        /* \"#utility.yul\":18120:18193   */\n      pop\n      jump\t// out\n        /* \"#utility.yul\":18199:18321   */\n    tag_240:\n        /* \"#utility.yul\":18272:18296   */\n      tag_426\n        /* \"#utility.yul\":18290:18295   */\n      dup2\n        /* \"#utility.yul\":18272:18296   */\n      tag_263\n      jump\t// in\n    tag_426:\n        /* \"#utility.yul\":18265:18270   */\n      dup2\n        /* \"#utility.yul\":18262:18297   */\n      eq\n        /* \"#utility.yul\":18252:18254   */\n      tag_427\n      jumpi\n        /* \"#utility.yul\":18311:18312   */\n      0x00\n        /* \"#utility.yul\":18308:18309   */\n      dup1\n        /* \"#utility.yul\":18301:18313   */\n      revert\n        /* \"#utility.yul\":18252:18254   */\n    tag_427:\n        /* \"#utility.yul\":18242:18321   */\n      pop\n      jump\t// out\n        /* \"#utility.yul\":18327:18449   */\n    tag_244:\n        /* \"#utility.yul\":18400:18424   */\n      tag_429\n        /* \"#utility.yul\":18418:18423   */\n      dup2\n        /* \"#utility.yul\":18400:18424   */\n      tag_267\n      jump\t// in\n    tag_429:\n        /* \"#utility.yul\":18393:18398   */\n      dup2\n        /* \"#utility.yul\":18390:18425   */\n      eq\n        /* \"#utility.yul\":18380:18382   */\n      tag_430\n      jumpi\n        /* \"#utility.yul\":18439:18440   */\n      0x00\n        /* \"#utility.yul\":18436:18437   */\n      dup1\n        /* \"#utility.yul\":18429:18441   */\n      revert\n        /* \"#utility.yul\":18380:18382   */\n    tag_430:\n        /* \"#utility.yul\":18370:18449   */\n      pop\n      jump\t// out\n    stop\n    data_9fdcd12e4b726339b32a442b0a448365d5d85c96b2d2cff917b4f66c63110398 416464726573733a206c6f772d6c6576656c2064656c65676174652063616c6c206661696c6564\n\n    auxdata: 0xa264697066735822122032e03d88c337730f8155ba68df9d35a35bc7324f932d05ee3221be5b65fb685164736f6c63430008010033\n}\n",
				"bytecode": {
					"linkReferences": {},
					"object": "60a06040523073ffffffffffffffffffffffffffffffffffffffff1660809073ffffffffffffffffffffffffffffffffffffffff1660601b8152503480156200004757600080fd5b50620000586200005e60201b60201c565b62000193565b600060019054906101000a900460ff1615620000b1576040517f08c379a0000000000000000000000000000000000000000000000000000000008152600401620000a89062000111565b60405180910390fd5b60ff801660008054906101000a900460ff1660ff1614620000e85760ff6000806101000a81548160ff021916908360ff1602179055505b565b6000620000f960278362000133565b9150620001068262000144565b604082019050919050565b600060208201905081810360008301526200012c81620000ea565b9050919050565b600082825260208201905092915050565b7f496e697469616c697a61626c653a20636f6e747261637420697320696e69746960008201527f616c697a696e6700000000000000000000000000000000000000000000000000602082015250565b60805160601c611afa620001ce600039600081816102b60152818161034501528181610465015281816104f401526105cf0152611afa6000f3fe6080604052600436106100915760003560e01c8063715018a611610059578063715018a6146101485780638129fc1c1461015f578063862b092b146101765780638da5cb5b146101a1578063f2fde38b146101cc57610091565b8063010a38f5146100965780633659cfe6146100c15780634f1ef286146100ea5780634fa519fa1461010657806352d1902d1461011d575b600080fd5b3480156100a257600080fd5b506100ab6101f5565b6040516100b89190611523565b60405180910390f35b3480156100cd57600080fd5b506100e860048036038101906100e391906110d9565b6102b4565b005b61010460048036038101906100ff9190611102565b610463565b005b34801561011257600080fd5b5061011b6105a0565b005b34801561012957600080fd5b506101326105cb565b60405161013f91906113a6565b60405180910390f35b34801561015457600080fd5b5061015d610684565b005b34801561016b57600080fd5b50610174610698565b005b34801561018257600080fd5b5061018b6107dd565b60405161019891906113c1565b60405180910390f35b3480156101ad57600080fd5b506101b661089d565b6040516101c3919061138b565b60405180910390f35b3480156101d857600080fd5b506101f360048036038101906101ee91906110d9565b6108c7565b005b60008061020061094b565b60405180604001604052908160008201805461021b906116a4565b80601f0160208091040260200160405190810160405280929190818152602001828054610247906116a4565b80156102945780601f1061026957610100808354040283529160200191610294565b820191906000526020600020905b81548152906001019060200180831161027757829003601f168201915b505050505081526020016001820154815250509050806020015191505090565b7f000000000000000000000000000000000000000000000000000000000000000073ffffffffffffffffffffffffffffffffffffffff163073ffffffffffffffffffffffffffffffffffffffff161415610343576040517f08c379a000000000000000000000000000000000000000000000000000000000815260040161033a90611403565b60405180910390fd5b7f000000000000000000000000000000000000000000000000000000000000000073ffffffffffffffffffffffffffffffffffffffff16610382610973565b73ffffffffffffffffffffffffffffffffffffffff16146103d8576040517f08c379a00000000000000000000000000000000000000000000000000000000081526004016103cf90611423565b60405180910390fd5b6103e1816109ca565b61046081600067ffffffffffffffff811115610426577f4e487b7100000000000000000000000000000000000000000000000000000000600052604160045260246000fd5b6040519080825280601f01601f1916602001820160405280156104585781602001600182028036833780820191505090505b5060006109d5565b50565b7f000000000000000000000000000000000000000000000000000000000000000073ffffffffffffffffffffffffffffffffffffffff163073ffffffffffffffffffffffffffffffffffffffff1614156104f2576040517f08c379a00000000000000000000000000000000000000000000000000000000081526004016104e990611403565b60405180910390fd5b7f000000000000000000000000000000000000000000000000000000000000000073ffffffffffffffffffffffffffffffffffffffff16610531610973565b73ffffffffffffffffffffffffffffffffffffffff1614610587576040517f08c379a000000000000000000000000000000000000000000000000000000000815260040161057e90611423565b60405180910390fd5b610590826109ca565b61059c828260016109d5565b5050565b60006105aa61094b565b905060028160010160008282546105c191906115c6565b9250508190555050565b60007f000000000000000000000000000000000000000000000000000000000000000073ffffffffffffffffffffffffffffffffffffffff163073ffffffffffffffffffffffffffffffffffffffff161461065b576040517f08c379a000000000000000000000000000000000000000000000000000000000815260040161065290611443565b60405180910390fd5b7f360894a13ba1a3210667c828492db98dca3e2076cc3735a920a3ca505d382bbc60001b905090565b61068c610b52565b6106966000610bd0565b565b600060019054906101000a900460ff166106c557600160008054906101000a900460ff1660ff16106106ce565b6106cd610c96565b5b61070d576040517f08c379a000000000000000000000000000000000000000000000000000000000815260040161070490611483565b60405180910390fd5b60008060019054906101000a900460ff1615905060016000806101000a81548160ff021916908360ff160217905550801561075e576001600060016101000a81548160ff0219169083151502179055505b600061076861094b565b90506040518060400160405280600781526020017f4d79546f6b656e000000000000000000000000000000000000000000000000008152508160000190805190602001906107b7929190610fa4565b505080156107da5760008060016101000a81548160ff0219169083151502179055505b50565b606060006107e961094b565b604051806040016040529081600082018054610804906116a4565b80601f0160208091040260200160405190810160405280929190818152602001828054610830906116a4565b801561087d5780601f106108525761010080835404028352916020019161087d565b820191906000526020600020905b81548152906001019060200180831161086057829003601f168201915b505050505081526020016001820154815250509050806000015191505090565b6000603360009054906101000a900473ffffffffffffffffffffffffffffffffffffffff16905090565b6108cf610b52565b600073ffffffffffffffffffffffffffffffffffffffff168173ffffffffffffffffffffffffffffffffffffffff16141561093f576040517f08c379a0000000000000000000000000000000000000000000000000000000008152600401610936906113e3565b60405180910390fd5b61094881610bd0565b50565b60007ffbb7c9e4123fcf4b1aad53c70358f7b1c1d7cf28092f5178b53e55db565e9200905090565b60006109a17f360894a13ba1a3210667c828492db98dca3e2076cc3735a920a3ca505d382bbc60001b610cb8565b60000160009054906101000a900473ffffffffffffffffffffffffffffffffffffffff16905090565b6109d2610b52565b50565b610a017f4910fdfa16fed3260ed0e7147f7cc6da11a60208b5b9406d12a635614ffd914360001b610cc2565b60000160009054906101000a900460ff1615610a2557610a2083610ccc565b610b4d565b8273ffffffffffffffffffffffffffffffffffffffff166352d1902d6040518163ffffffff1660e01b815260040160206040518083038186803b158015610a6b57600080fd5b505afa925050508015610a9c57506040513d601f19601f82011682018060405250810190610a999190611156565b60015b610adb576040517f08c379a0000000000000000000000000000000000000000000000000000000008152600401610ad2906114a3565b60405180910390fd5b7f360894a13ba1a3210667c828492db98dca3e2076cc3735a920a3ca505d382bbc60001b8114610b40576040517f08c379a0000000000000000000000000000000000000000000000000000000008152600401610b3790611463565b60405180910390fd5b50610b4c838383610d85565b5b505050565b610b5a610db1565b73ffffffffffffffffffffffffffffffffffffffff16610b7861089d565b73ffffffffffffffffffffffffffffffffffffffff1614610bce576040517f08c379a0000000000000000000000000000000000000000000000000000000008152600401610bc5906114e3565b60405180910390fd5b565b6000603360009054906101000a900473ffffffffffffffffffffffffffffffffffffffff16905081603360006101000a81548173ffffffffffffffffffffffffffffffffffffffff021916908373ffffffffffffffffffffffffffffffffffffffff1602179055508173ffffffffffffffffffffffffffffffffffffffff168173ffffffffffffffffffffffffffffffffffffffff167f8be0079c531659141344cd1fd0a4f28419497f9722a3daafe3b4186f6b6457e060405160405180910390a35050565b6000803073ffffffffffffffffffffffffffffffffffffffff163b1115905090565b6000819050919050565b6000819050919050565b610cd581610db9565b610d14576040517f08c379a0000000000000000000000000000000000000000000000000000000008152600401610d0b906114c3565b60405180910390fd5b80610d417f360894a13ba1a3210667c828492db98dca3e2076cc3735a920a3ca505d382bbc60001b610cb8565b60000160006101000a81548173ffffffffffffffffffffffffffffffffffffffff021916908373ffffffffffffffffffffffffffffffffffffffff16021790555050565b610d8e83610ddc565b600082511180610d9b5750805b15610dac57610daa8383610e2b565b505b505050565b600033905090565b6000808273ffffffffffffffffffffffffffffffffffffffff163b119050919050565b610de581610ccc565b8073ffffffffffffffffffffffffffffffffffffffff167fbc7cd75a20ee27fd9adebab32041f755214dbc6bffa90cc0225b39da2e5c2d3b60405160405180910390a250565b6060610e508383604051806060016040528060278152602001611a9e60279139610e58565b905092915050565b60606000808573ffffffffffffffffffffffffffffffffffffffff1685604051610e829190611374565b600060405180830381855af49150503d8060008114610ebd576040519150601f19603f3d011682016040523d82523d6000602084013e610ec2565b606091505b5091509150610ed386838387610ede565b925050509392505050565b60608315610f4157600083511415610f3957610ef985610db9565b610f38576040517f08c379a0000000000000000000000000000000000000000000000000000000008152600401610f2f90611503565b60405180910390fd5b5b829050610f4c565b610f4b8383610f54565b5b949350505050565b600082511115610f675781518083602001fd5b806040517f08c379a0000000000000000000000000000000000000000000000000000000008152600401610f9b91906113c1565b60405180910390fd5b828054610fb0906116a4565b90600052602060002090601f016020900481019282610fd25760008555611019565b82601f10610feb57805160ff1916838001178555611019565b82800160010185558215611019579182015b82811115611018578251825591602001919060010190610ffd565b5b509050611026919061102a565b5090565b5b8082111561104357600081600090555060010161102b565b5090565b600061105a61105584611563565b61153e565b90508281526020810184848401111561107257600080fd5b61107d848285611662565b509392505050565b60008135905061109481611a6f565b92915050565b6000815190506110a981611a86565b92915050565b600082601f8301126110c057600080fd5b81356110d0848260208601611047565b91505092915050565b6000602082840312156110eb57600080fd5b60006110f984828501611085565b91505092915050565b6000806040838503121561111557600080fd5b600061112385828601611085565b925050602083013567ffffffffffffffff81111561114057600080fd5b61114c858286016110af565b9150509250929050565b60006020828403121561116857600080fd5b60006111768482850161109a565b91505092915050565b6111888161161c565b82525050565b6111978161162e565b82525050565b60006111a882611594565b6111b281856115aa565b93506111c2818560208601611671565b80840191505092915050565b60006111d98261159f565b6111e381856115b5565b93506111f3818560208601611671565b6111fc81611794565b840191505092915050565b60006112146026836115b5565b915061121f826117a5565b604082019050919050565b6000611237602c836115b5565b9150611242826117f4565b604082019050919050565b600061125a602c836115b5565b915061126582611843565b604082019050919050565b600061127d6038836115b5565b915061128882611892565b604082019050919050565b60006112a06029836115b5565b91506112ab826118e1565b604082019050919050565b60006112c3602e836115b5565b91506112ce82611930565b604082019050919050565b60006112e6602e836115b5565b91506112f18261197f565b604082019050919050565b6000611309602d836115b5565b9150611314826119ce565b604082019050919050565b600061132c6020836115b5565b915061133782611a1d565b602082019050919050565b600061134f601d836115b5565b915061135a82611a46565b602082019050919050565b61136e81611658565b82525050565b6000611380828461119d565b915081905092915050565b60006020820190506113a0600083018461117f565b92915050565b60006020820190506113bb600083018461118e565b92915050565b600060208201905081810360008301526113db81846111ce565b905092915050565b600060208201905081810360008301526113fc81611207565b9050919050565b6000602082019050818103600083015261141c8161122a565b9050919050565b6000602082019050818103600083015261143c8161124d565b9050919050565b6000602082019050818103600083015261145c81611270565b9050919050565b6000602082019050818103600083015261147c81611293565b9050919050565b6000602082019050818103600083015261149c816112b6565b9050919050565b600060208201905081810360008301526114bc816112d9565b9050919050565b600060208201905081810360008301526114dc816112fc565b9050919050565b600060208201905081810360008301526114fc8161131f565b9050919050565b6000602082019050818103600083015261151c81611342565b9050919050565b60006020820190506115386000830184611365565b92915050565b6000611548611559565b905061155482826116d6565b919050565b6000604051905090565b600067ffffffffffffffff82111561157e5761157d611765565b5b61158782611794565b9050602081019050919050565b600081519050919050565b600081519050919050565b600081905092915050565b600082825260208201905092915050565b60006115d182611658565b91506115dc83611658565b9250827fffffffffffffffffffffffffffffffffffffffffffffffffffffffffffffffff0382111561161157611610611707565b5b828201905092915050565b600061162782611638565b9050919050565b6000819050919050565b600073ffffffffffffffffffffffffffffffffffffffff82169050919050565b6000819050919050565b82818337600083830152505050565b60005b8381101561168f578082015181840152602081019050611674565b8381111561169e576000848401525b50505050565b600060028204905060018216806116bc57607f821691505b602082108114156116d0576116cf611736565b5b50919050565b6116df82611794565b810181811067ffffffffffffffff821117156116fe576116fd611765565b5b80604052505050565b7f4e487b7100000000000000000000000000000000000000000000000000000000600052601160045260246000fd5b7f4e487b7100000000000000000000000000000000000000000000000000000000600052602260045260246000fd5b7f4e487b7100000000000000000000000000000000000000000000000000000000600052604160045260246000fd5b6000601f19601f8301169050919050565b7f4f776e61626c653a206e6577206f776e657220697320746865207a65726f206160008201527f6464726573730000000000000000000000000000000000000000000000000000602082015250565b7f46756e6374696f6e206d7573742062652063616c6c6564207468726f7567682060008201527f64656c656761746563616c6c0000000000000000000000000000000000000000602082015250565b7f46756e6374696f6e206d7573742062652063616c6c6564207468726f7567682060008201527f6163746976652070726f78790000000000000000000000000000000000000000602082015250565b7f555550535570677261646561626c653a206d757374206e6f742062652063616c60008201527f6c6564207468726f7567682064656c656761746563616c6c0000000000000000602082015250565b7f45524331393637557067726164653a20756e737570706f727465642070726f7860008201527f6961626c65555549440000000000000000000000000000000000000000000000602082015250565b7f496e697469616c697a61626c653a20636f6e747261637420697320616c72656160008201527f647920696e697469616c697a6564000000000000000000000000000000000000602082015250565b7f45524331393637557067726164653a206e657720696d706c656d656e7461746960008201527f6f6e206973206e6f742055555053000000000000000000000000000000000000602082015250565b7f455243313936373a206e657720696d706c656d656e746174696f6e206973206e60008201527f6f74206120636f6e747261637400000000000000000000000000000000000000602082015250565b7f4f776e61626c653a2063616c6c6572206973206e6f7420746865206f776e6572600082015250565b7f416464726573733a2063616c6c20746f206e6f6e2d636f6e7472616374000000600082015250565b611a788161161c565b8114611a8357600080fd5b50565b611a8f8161162e565b8114611a9a57600080fd5b5056fe416464726573733a206c6f772d6c6576656c2064656c65676174652063616c6c206661696c6564a264697066735822122032e03d88c337730f8155ba68df9d35a35bc7324f932d05ee3221be5b65fb685164736f6c63430008010033",
					"opcodes": "PUSH1 0xA0 PUSH1 0x40 MSTORE ADDRESS PUSH20 0xFFFFFFFFFFFFFFFFFFFFFFFFFFFFFFFFFFFFFFFF AND PUSH1 0x80 SWAP1 PUSH20 0xFFFFFFFFFFFFFFFFFFFFFFFFFFFFFFFFFFFFFFFF AND PUSH1 0x60 SHL DUP2 MSTORE POP CALLVALUE DUP1 ISZERO PUSH3 0x47 JUMPI PUSH1 0x0 DUP1 REVERT JUMPDEST POP PUSH3 0x58 PUSH3 0x5E PUSH1 0x20 SHL PUSH1 0x20 SHR JUMP JUMPDEST PUSH3 0x193 JUMP JUMPDEST PUSH1 0x0 PUSH1 0x1 SWAP1 SLOAD SWAP1 PUSH2 0x100 EXP SWAP1 DIV PUSH1 0xFF AND ISZERO PUSH3 0xB1 JUMPI PUSH1 0x40 MLOAD PUSH32 0x8C379A000000000000000000000000000000000000000000000000000000000 DUP2 MSTORE PUSH1 0x4 ADD PUSH3 0xA8 SWAP1 PUSH3 0x111 JUMP JUMPDEST PUSH1 0x40 MLOAD DUP1 SWAP2 SUB SWAP1 REVERT JUMPDEST PUSH1 0xFF DUP1 AND PUSH1 0x0 DUP1 SLOAD SWAP1 PUSH2 0x100 EXP SWAP1 DIV PUSH1 0xFF AND PUSH1 0xFF AND EQ PUSH3 0xE8 JUMPI PUSH1 0xFF PUSH1 0x0 DUP1 PUSH2 0x100 EXP DUP2 SLOAD DUP2 PUSH1 0xFF MUL NOT AND SWAP1 DUP4 PUSH1 0xFF AND MUL OR SWAP1 SSTORE POP JUMPDEST JUMP JUMPDEST PUSH1 0x0 PUSH3 0xF9 PUSH1 0x27 DUP4 PUSH3 0x133 JUMP JUMPDEST SWAP2 POP PUSH3 0x106 DUP3 PUSH3 0x144 JUMP JUMPDEST PUSH1 0x40 DUP3 ADD SWAP1 POP SWAP2 SWAP1 POP JUMP JUMPDEST PUSH1 0x0 PUSH1 0x20 DUP3 ADD SWAP1 POP DUP2 DUP2 SUB PUSH1 0x0 DUP4 ADD MSTORE PUSH3 0x12C DUP2 PUSH3 0xEA JUMP JUMPDEST SWAP1 POP SWAP2 SWAP1 POP JUMP JUMPDEST PUSH1 0x0 DUP3 DUP3 MSTORE PUSH1 0x20 DUP3 ADD SWAP1 POP SWAP3 SWAP2 POP POP JUMP JUMPDEST PUSH32 0x496E697469616C697A61626C653A20636F6E747261637420697320696E697469 PUSH1 0x0 DUP3 ADD MSTORE PUSH32 0x616C697A696E6700000000000000000000000000000000000000000000000000 PUSH1 0x20 DUP3 ADD MSTORE POP JUMP JUMPDEST PUSH1 0x80 MLOAD PUSH1 0x60 SHR PUSH2 0x1AFA PUSH3 0x1CE PUSH1 0x0 CODECOPY PUSH1 0x0 DUP2 DUP2 PUSH2 0x2B6 ADD MSTORE DUP2 DUP2 PUSH2 0x345 ADD MSTORE DUP2 DUP2 PUSH2 0x465 ADD MSTORE DUP2 DUP2 PUSH2 0x4F4 ADD MSTORE PUSH2 0x5CF ADD MSTORE PUSH2 0x1AFA PUSH1 0x0 RETURN INVALID PUSH1 0x80 PUSH1 0x40 MSTORE PUSH1 0x4 CALLDATASIZE LT PUSH2 0x91 JUMPI PUSH1 0x0 CALLDATALOAD PUSH1 0xE0 SHR DUP1 PUSH4 0x715018A6 GT PUSH2 0x59 JUMPI DUP1 PUSH4 0x715018A6 EQ PUSH2 0x148 JUMPI DUP1 PUSH4 0x8129FC1C EQ PUSH2 0x15F JUMPI DUP1 PUSH4 0x862B092B EQ PUSH2 0x176 JUMPI DUP1 PUSH4 0x8DA5CB5B EQ PUSH2 0x1A1 JUMPI DUP1 PUSH4 0xF2FDE38B EQ PUSH2 0x1CC JUMPI PUSH2 0x91 JUMP JUMPDEST DUP1 PUSH4 0x10A38F5 EQ PUSH2 0x96 JUMPI DUP1 PUSH4 0x3659CFE6 EQ PUSH2 0xC1 JUMPI DUP1 PUSH4 0x4F1EF286 EQ PUSH2 0xEA JUMPI DUP1 PUSH4 0x4FA519FA EQ PUSH2 0x106 JUMPI DUP1 PUSH4 0x52D1902D EQ PUSH2 0x11D JUMPI JUMPDEST PUSH1 0x0 DUP1 REVERT JUMPDEST CALLVALUE DUP1 ISZERO PUSH2 0xA2 JUMPI PUSH1 0x0 DUP1 REVERT JUMPDEST POP PUSH2 0xAB PUSH2 0x1F5 JUMP JUMPDEST PUSH1 0x40 MLOAD PUSH2 0xB8 SWAP2 SWAP1 PUSH2 0x1523 JUMP JUMPDEST PUSH1 0x40 MLOAD DUP1 SWAP2 SUB SWAP1 RETURN JUMPDEST CALLVALUE DUP1 ISZERO PUSH2 0xCD JUMPI PUSH1 0x0 DUP1 REVERT JUMPDEST POP PUSH2 0xE8 PUSH1 0x4 DUP1 CALLDATASIZE SUB DUP2 ADD SWAP1 PUSH2 0xE3 SWAP2 SWAP1 PUSH2 0x10D9 JUMP JUMPDEST PUSH2 0x2B4 JUMP JUMPDEST STOP JUMPDEST PUSH2 0x104 PUSH1 0x4 DUP1 CALLDATASIZE SUB DUP2 ADD SWAP1 PUSH2 0xFF SWAP2 SWAP1 PUSH2 0x1102 JUMP JUMPDEST PUSH2 0x463 JUMP JUMPDEST STOP JUMPDEST CALLVALUE DUP1 ISZERO PUSH2 0x112 JUMPI PUSH1 0x0 DUP1 REVERT JUMPDEST POP PUSH2 0x11B PUSH2 0x5A0 JUMP JUMPDEST STOP JUMPDEST CALLVALUE DUP1 ISZERO PUSH2 0x129 JUMPI PUSH1 0x0 DUP1 REVERT JUMPDEST POP PUSH2 0x132 PUSH2 0x5CB JUMP JUMPDEST PUSH1 0x40 MLOAD PUSH2 0x13F SWAP2 SWAP1 PUSH2 0x13A6 JUMP JUMPDEST PUSH1 0x40 MLOAD DUP1 SWAP2 SUB SWAP1 RETURN JUMPDEST CALLVALUE DUP1 ISZERO PUSH2 0x154 JUMPI PUSH1 0x0 DUP1 REVERT JUMPDEST POP PUSH2 0x15D PUSH2 0x684 JUMP JUMPDEST STOP JUMPDEST CALLVALUE DUP1 ISZERO PUSH2 0x16B JUMPI PUSH1 0x0 DUP1 REVERT JUMPDEST POP PUSH2 0x174 PUSH2 0x698 JUMP JUMPDEST STOP JUMPDEST CALLVALUE DUP1 ISZERO PUSH2 0x182 JUMPI PUSH1 0x0 DUP1 REVERT JUMPDEST POP PUSH2 0x18B PUSH2 0x7DD JUMP JUMPDEST PUSH1 0x40 MLOAD PUSH2 0x198 SWAP2 SWAP1 PUSH2 0x13C1 JUMP JUMPDEST PUSH1 0x40 MLOAD DUP1 SWAP2 SUB SWAP1 RETURN JUMPDEST CALLVALUE DUP1 ISZERO PUSH2 0x1AD JUMPI PUSH1 0x0 DUP1 REVERT JUMPDEST POP PUSH2 0x1B6 PUSH2 0x89D JUMP JUMPDEST PUSH1 0x40 MLOAD PUSH2 0x1C3 SWAP2 SWAP1 PUSH2 0x138B JUMP JUMPDEST PUSH1 0x40 MLOAD DUP1 SWAP2 SUB SWAP1 RETURN JUMPDEST CALLVALUE DUP1 ISZERO PUSH2 0x1D8 JUMPI PUSH1 0x0 DUP1 REVERT JUMPDEST POP PUSH2 0x1F3 PUSH1 0x4 DUP1 CALLDATASIZE SUB DUP2 ADD SWAP1 PUSH2 0x1EE SWAP2 SWAP1 PUSH2 0x10D9 JUMP JUMPDEST PUSH2 0x8C7 JUMP JUMPDEST STOP JUMPDEST PUSH1 0x0 DUP1 PUSH2 0x200 PUSH2 0x94B JUMP JUMPDEST PUSH1 0x40 MLOAD DUP1 PUSH1 0x40 ADD PUSH1 0x40 MSTORE SWAP1 DUP2 PUSH1 0x0 DUP3 ADD DUP1 SLOAD PUSH2 0x21B SWAP1 PUSH2 0x16A4 JUMP JUMPDEST DUP1 PUSH1 0x1F ADD PUSH1 0x20 DUP1 SWAP2 DIV MUL PUSH1 0x20 ADD PUSH1 0x40 MLOAD SWAP1 DUP2 ADD PUSH1 0x40 MSTORE DUP1 SWAP3 SWAP2 SWAP1 DUP2 DUP2 MSTORE PUSH1 0x20 ADD DUP3 DUP1 SLOAD PUSH2 0x247 SWAP1 PUSH2 0x16A4 JUMP JUMPDEST DUP1 ISZERO PUSH2 0x294 JUMPI DUP1 PUSH1 0x1F LT PUSH2 0x269 JUMPI PUSH2 0x100 DUP1 DUP4 SLOAD DIV MUL DUP4 MSTORE SWAP2 PUSH1 0x20 ADD SWAP2 PUSH2 0x294 JUMP JUMPDEST DUP3 ADD SWAP2 SWAP1 PUSH1 0x0 MSTORE PUSH1 0x20 PUSH1 0x0 KECCAK256 SWAP1 JUMPDEST DUP2 SLOAD DUP2 MSTORE SWAP1 PUSH1 0x1 ADD SWAP1 PUSH1 0x20 ADD DUP1 DUP4 GT PUSH2 0x277 JUMPI DUP3 SWAP1 SUB PUSH1 0x1F AND DUP3 ADD SWAP2 JUMPDEST POP POP POP POP POP DUP2 MSTORE PUSH1 0x20 ADD PUSH1 0x1 DUP3 ADD SLOAD DUP2 MSTORE POP POP SWAP1 POP DUP1 PUSH1 0x20 ADD MLOAD SWAP2 POP POP SWAP1 JUMP JUMPDEST PUSH32 0x0 PUSH20 0xFFFFFFFFFFFFFFFFFFFFFFFFFFFFFFFFFFFFFFFF AND ADDRESS PUSH20 0xFFFFFFFFFFFFFFFFFFFFFFFFFFFFFFFFFFFFFFFF AND EQ ISZERO PUSH2 0x343 JUMPI PUSH1 0x40 MLOAD PUSH32 0x8C379A000000000000000000000000000000000000000000000000000000000 DUP2 MSTORE PUSH1 0x4 ADD PUSH2 0x33A SWAP1 PUSH2 0x1403 JUMP JUMPDEST PUSH1 0x40 MLOAD DUP1 SWAP2 SUB SWAP1 REVERT JUMPDEST PUSH32 0x0 PUSH20 0xFFFFFFFFFFFFFFFFFFFFFFFFFFFFFFFFFFFFFFFF AND PUSH2 0x382 PUSH2 0x973 JUMP JUMPDEST PUSH20 0xFFFFFFFFFFFFFFFFFFFFFFFFFFFFFFFFFFFFFFFF AND EQ PUSH2 0x3D8 JUMPI PUSH1 0x40 MLOAD PUSH32 0x8C379A000000000000000000000000000000000000000000000000000000000 DUP2 MSTORE PUSH1 0x4 ADD PUSH2 0x3CF SWAP1 PUSH2 0x1423 JUMP JUMPDEST PUSH1 0x40 MLOAD DUP1 SWAP2 SUB SWAP1 REVERT JUMPDEST PUSH2 0x3E1 DUP2 PUSH2 0x9CA JUMP JUMPDEST PUSH2 0x460 DUP2 PUSH1 0x0 PUSH8 0xFFFFFFFFFFFFFFFF DUP2 GT ISZERO PUSH2 0x426 JUMPI PUSH32 0x4E487B7100000000000000000000000000000000000000000000000000000000 PUSH1 0x0 MSTORE PUSH1 0x41 PUSH1 0x4 MSTORE PUSH1 0x24 PUSH1 0x0 REVERT JUMPDEST PUSH1 0x40 MLOAD SWAP1 DUP1 DUP3 MSTORE DUP1 PUSH1 0x1F ADD PUSH1 0x1F NOT AND PUSH1 0x20 ADD DUP3 ADD PUSH1 0x40 MSTORE DUP1 ISZERO PUSH2 0x458 JUMPI DUP2 PUSH1 0x20 ADD PUSH1 0x1 DUP3 MUL DUP1 CALLDATASIZE DUP4 CALLDATACOPY DUP1 DUP3 ADD SWAP2 POP POP SWAP1 POP JUMPDEST POP PUSH1 0x0 PUSH2 0x9D5 JUMP JUMPDEST POP JUMP JUMPDEST PUSH32 0x0 PUSH20 0xFFFFFFFFFFFFFFFFFFFFFFFFFFFFFFFFFFFFFFFF AND ADDRESS PUSH20 0xFFFFFFFFFFFFFFFFFFFFFFFFFFFFFFFFFFFFFFFF AND EQ ISZERO PUSH2 0x4F2 JUMPI PUSH1 0x40 MLOAD PUSH32 0x8C379A000000000000000000000000000000000000000000000000000000000 DUP2 MSTORE PUSH1 0x4 ADD PUSH2 0x4E9 SWAP1 PUSH2 0x1403 JUMP JUMPDEST PUSH1 0x40 MLOAD DUP1 SWAP2 SUB SWAP1 REVERT JUMPDEST PUSH32 0x0 PUSH20 0xFFFFFFFFFFFFFFFFFFFFFFFFFFFFFFFFFFFFFFFF AND PUSH2 0x531 PUSH2 0x973 JUMP JUMPDEST PUSH20 0xFFFFFFFFFFFFFFFFFFFFFFFFFFFFFFFFFFFFFFFF AND EQ PUSH2 0x587 JUMPI PUSH1 0x40 MLOAD PUSH32 0x8C379A000000000000000000000000000000000000000000000000000000000 DUP2 MSTORE PUSH1 0x4 ADD PUSH2 0x57E SWAP1 PUSH2 0x1423 JUMP JUMPDEST PUSH1 0x40 MLOAD DUP1 SWAP2 SUB SWAP1 REVERT JUMPDEST PUSH2 0x590 DUP3 PUSH2 0x9CA JUMP JUMPDEST PUSH2 0x59C DUP3 DUP3 PUSH1 0x1 PUSH2 0x9D5 JUMP JUMPDEST POP POP JUMP JUMPDEST PUSH1 0x0 PUSH2 0x5AA PUSH2 0x94B JUMP JUMPDEST SWAP1 POP PUSH1 0x2 DUP2 PUSH1 0x1 ADD PUSH1 0x0 DUP3 DUP3 SLOAD PUSH2 0x5C1 SWAP2 SWAP1 PUSH2 0x15C6 JUMP JUMPDEST SWAP3 POP POP DUP2 SWAP1 SSTORE POP POP JUMP JUMPDEST PUSH1 0x0 PUSH32 0x0 PUSH20 0xFFFFFFFFFFFFFFFFFFFFFFFFFFFFFFFFFFFFFFFF AND ADDRESS PUSH20 0xFFFFFFFFFFFFFFFFFFFFFFFFFFFFFFFFFFFFFFFF AND EQ PUSH2 0x65B JUMPI PUSH1 0x40 MLOAD PUSH32 0x8C379A000000000000000000000000000000000000000000000000000000000 DUP2 MSTORE PUSH1 0x4 ADD PUSH2 0x652 SWAP1 PUSH2 0x1443 JUMP JUMPDEST PUSH1 0x40 MLOAD DUP1 SWAP2 SUB SWAP1 REVERT JUMPDEST PUSH32 0x360894A13BA1A3210667C828492DB98DCA3E2076CC3735A920A3CA505D382BBC PUSH1 0x0 SHL SWAP1 POP SWAP1 JUMP JUMPDEST PUSH2 0x68C PUSH2 0xB52 JUMP JUMPDEST PUSH2 0x696 PUSH1 0x0 PUSH2 0xBD0 JUMP JUMPDEST JUMP JUMPDEST PUSH1 0x0 PUSH1 0x1 SWAP1 SLOAD SWAP1 PUSH2 0x100 EXP SWAP1 DIV PUSH1 0xFF AND PUSH2 0x6C5 JUMPI PUSH1 0x1 PUSH1 0x0 DUP1 SLOAD SWAP1 PUSH2 0x100 EXP SWAP1 DIV PUSH1 0xFF AND PUSH1 0xFF AND LT PUSH2 0x6CE JUMP JUMPDEST PUSH2 0x6CD PUSH2 0xC96 JUMP JUMPDEST JUMPDEST PUSH2 0x70D JUMPI PUSH1 0x40 MLOAD PUSH32 0x8C379A000000000000000000000000000000000000000000000000000000000 DUP2 MSTORE PUSH1 0x4 ADD PUSH2 0x704 SWAP1 PUSH2 0x1483 JUMP JUMPDEST PUSH1 0x40 MLOAD DUP1 SWAP2 SUB SWAP1 REVERT JUMPDEST PUSH1 0x0 DUP1 PUSH1 0x1 SWAP1 SLOAD SWAP1 PUSH2 0x100 EXP SWAP1 DIV PUSH1 0xFF AND ISZERO SWAP1 POP PUSH1 0x1 PUSH1 0x0 DUP1 PUSH2 0x100 EXP DUP2 SLOAD DUP2 PUSH1 0xFF MUL NOT AND SWAP1 DUP4 PUSH1 0xFF AND MUL OR SWAP1 SSTORE POP DUP1 ISZERO PUSH2 0x75E JUMPI PUSH1 0x1 PUSH1 0x0 PUSH1 0x1 PUSH2 0x100 EXP DUP2 SLOAD DUP2 PUSH1 0xFF MUL NOT AND SWAP1 DUP4 ISZERO ISZERO MUL OR SWAP1 SSTORE POP JUMPDEST PUSH1 0x0 PUSH2 0x768 PUSH2 0x94B JUMP JUMPDEST SWAP1 POP PUSH1 0x40 MLOAD DUP1 PUSH1 0x40 ADD PUSH1 0x40 MSTORE DUP1 PUSH1 0x7 DUP2 MSTORE PUSH1 0x20 ADD PUSH32 0x4D79546F6B656E00000000000000000000000000000000000000000000000000 DUP2 MSTORE POP DUP2 PUSH1 0x0 ADD SWAP1 DUP1 MLOAD SWAP1 PUSH1 0x20 ADD SWAP1 PUSH2 0x7B7 SWAP3 SWAP2 SWAP1 PUSH2 0xFA4 JUMP JUMPDEST POP POP DUP1 ISZERO PUSH2 0x7DA JUMPI PUSH1 0x0 DUP1 PUSH1 0x1 PUSH2 0x100 EXP DUP2 SLOAD DUP2 PUSH1 0xFF MUL NOT AND SWAP1 DUP4 ISZERO ISZERO MUL OR SWAP1 SSTORE POP JUMPDEST POP JUMP JUMPDEST PUSH1 0x60 PUSH1 0x0 PUSH2 0x7E9 PUSH2 0x94B JUMP JUMPDEST PUSH1 0x40 MLOAD DUP1 PUSH1 0x40 ADD PUSH1 0x40 MSTORE SWAP1 DUP2 PUSH1 0x0 DUP3 ADD DUP1 SLOAD PUSH2 0x804 SWAP1 PUSH2 0x16A4 JUMP JUMPDEST DUP1 PUSH1 0x1F ADD PUSH1 0x20 DUP1 SWAP2 DIV MUL PUSH1 0x20 ADD PUSH1 0x40 MLOAD SWAP1 DUP2 ADD PUSH1 0x40 MSTORE DUP1 SWAP3 SWAP2 SWAP1 DUP2 DUP2 MSTORE PUSH1 0x20 ADD DUP3 DUP1 SLOAD PUSH2 0x830 SWAP1 PUSH2 0x16A4 JUMP JUMPDEST DUP1 ISZERO PUSH2 0x87D JUMPI DUP1 PUSH1 0x1F LT PUSH2 0x852 JUMPI PUSH2 0x100 DUP1 DUP4 SLOAD DIV MUL DUP4 MSTORE SWAP2 PUSH1 0x20 ADD SWAP2 PUSH2 0x87D JUMP JUMPDEST DUP3 ADD SWAP2 SWAP1 PUSH1 0x0 MSTORE PUSH1 0x20 PUSH1 0x0 KECCAK256 SWAP1 JUMPDEST DUP2 SLOAD DUP2 MSTORE SWAP1 PUSH1 0x1 ADD SWAP1 PUSH1 0x20 ADD DUP1 DUP4 GT PUSH2 0x860 JUMPI DUP3 SWAP1 SUB PUSH1 0x1F AND DUP3 ADD SWAP2 JUMPDEST POP POP POP POP POP DUP2 MSTORE PUSH1 0x20 ADD PUSH1 0x1 DUP3 ADD SLOAD DUP2 MSTORE POP POP SWAP1 POP DUP1 PUSH1 0x0 ADD MLOAD SWAP2 POP POP SWAP1 JUMP JUMPDEST PUSH1 0x0 PUSH1 0x33 PUSH1 0x0 SWAP1 SLOAD SWAP1 PUSH2 0x100 EXP SWAP1 DIV PUSH20 0xFFFFFFFFFFFFFFFFFFFFFFFFFFFFFFFFFFFFFFFF AND SWAP1 POP SWAP1 JUMP JUMPDEST PUSH2 0x8CF PUSH2 0xB52 JUMP JUMPDEST PUSH1 0x0 PUSH20 0xFFFFFFFFFFFFFFFFFFFFFFFFFFFFFFFFFFFFFFFF AND DUP2 PUSH20 0xFFFFFFFFFFFFFFFFFFFFFFFFFFFFFFFFFFFFFFFF AND EQ ISZERO PUSH2 0x93F JUMPI PUSH1 0x40 MLOAD PUSH32 0x8C379A000000000000000000000000000000000000000000000000000000000 DUP2 MSTORE PUSH1 0x4 ADD PUSH2 0x936 SWAP1 PUSH2 0x13E3 JUMP JUMPDEST PUSH1 0x40 MLOAD DUP1 SWAP2 SUB SWAP1 REVERT JUMPDEST PUSH2 0x948 DUP2 PUSH2 0xBD0 JUMP JUMPDEST POP JUMP JUMPDEST PUSH1 0x0 PUSH32 0xFBB7C9E4123FCF4B1AAD53C70358F7B1C1D7CF28092F5178B53E55DB565E9200 SWAP1 POP SWAP1 JUMP JUMPDEST PUSH1 0x0 PUSH2 0x9A1 PUSH32 0x360894A13BA1A3210667C828492DB98DCA3E2076CC3735A920A3CA505D382BBC PUSH1 0x0 SHL PUSH2 0xCB8 JUMP JUMPDEST PUSH1 0x0 ADD PUSH1 0x0 SWAP1 SLOAD SWAP1 PUSH2 0x100 EXP SWAP1 DIV PUSH20 0xFFFFFFFFFFFFFFFFFFFFFFFFFFFFFFFFFFFFFFFF AND SWAP1 POP SWAP1 JUMP JUMPDEST PUSH2 0x9D2 PUSH2 0xB52 JUMP JUMPDEST POP JUMP JUMPDEST PUSH2 0xA01 PUSH32 0x4910FDFA16FED3260ED0E7147F7CC6DA11A60208B5B9406D12A635614FFD9143 PUSH1 0x0 SHL PUSH2 0xCC2 JUMP JUMPDEST PUSH1 0x0 ADD PUSH1 0x0 SWAP1 SLOAD SWAP1 PUSH2 0x100 EXP SWAP1 DIV PUSH1 0xFF AND ISZERO PUSH2 0xA25 JUMPI PUSH2 0xA20 DUP4 PUSH2 0xCCC JUMP JUMPDEST PUSH2 0xB4D JUMP JUMPDEST DUP3 PUSH20 0xFFFFFFFFFFFFFFFFFFFFFFFFFFFFFFFFFFFFFFFF AND PUSH4 0x52D1902D PUSH1 0x40 MLOAD DUP2 PUSH4 0xFFFFFFFF AND PUSH1 0xE0 SHL DUP2 MSTORE PUSH1 0x4 ADD PUSH1 0x20 PUSH1 0x40 MLOAD DUP1 DUP4 SUB DUP2 DUP7 DUP1 EXTCODESIZE ISZERO DUP1 ISZERO PUSH2 0xA6B JUMPI PUSH1 0x0 DUP1 REVERT JUMPDEST POP GAS STATICCALL SWAP3 POP POP POP DUP1 ISZERO PUSH2 0xA9C JUMPI POP PUSH1 0x40 MLOAD RETURNDATASIZE PUSH1 0x1F NOT PUSH1 0x1F DUP3 ADD AND DUP3 ADD DUP1 PUSH1 0x40 MSTORE POP DUP2 ADD SWAP1 PUSH2 0xA99 SWAP2 SWAP1 PUSH2 0x1156 JUMP JUMPDEST PUSH1 0x1 JUMPDEST PUSH2 0xADB JUMPI PUSH1 0x40 MLOAD PUSH32 0x8C379A000000000000000000000000000000000000000000000000000000000 DUP2 MSTORE PUSH1 0x4 ADD PUSH2 0xAD2 SWAP1 PUSH2 0x14A3 JUMP JUMPDEST PUSH1 0x40 MLOAD DUP1 SWAP2 SUB SWAP1 REVERT JUMPDEST PUSH32 0x360894A13BA1A3210667C828492DB98DCA3E2076CC3735A920A3CA505D382BBC PUSH1 0x0 SHL DUP2 EQ PUSH2 0xB40 JUMPI PUSH1 0x40 MLOAD PUSH32 0x8C379A000000000000000000000000000000000000000000000000000000000 DUP2 MSTORE PUSH1 0x4 ADD PUSH2 0xB37 SWAP1 PUSH2 0x1463 JUMP JUMPDEST PUSH1 0x40 MLOAD DUP1 SWAP2 SUB SWAP1 REVERT JUMPDEST POP PUSH2 0xB4C DUP4 DUP4 DUP4 PUSH2 0xD85 JUMP JUMPDEST JUMPDEST POP POP POP JUMP JUMPDEST PUSH2 0xB5A PUSH2 0xDB1 JUMP JUMPDEST PUSH20 0xFFFFFFFFFFFFFFFFFFFFFFFFFFFFFFFFFFFFFFFF AND PUSH2 0xB78 PUSH2 0x89D JUMP JUMPDEST PUSH20 0xFFFFFFFFFFFFFFFFFFFFFFFFFFFFFFFFFFFFFFFF AND EQ PUSH2 0xBCE JUMPI PUSH1 0x40 MLOAD PUSH32 0x8C379A000000000000000000000000000000000000000000000000000000000 DUP2 MSTORE PUSH1 0x4 ADD PUSH2 0xBC5 SWAP1 PUSH2 0x14E3 JUMP JUMPDEST PUSH1 0x40 MLOAD DUP1 SWAP2 SUB SWAP1 REVERT JUMPDEST JUMP JUMPDEST PUSH1 0x0 PUSH1 0x33 PUSH1 0x0 SWAP1 SLOAD SWAP1 PUSH2 0x100 EXP SWAP1 DIV PUSH20 0xFFFFFFFFFFFFFFFFFFFFFFFFFFFFFFFFFFFFFFFF AND SWAP1 POP DUP2 PUSH1 0x33 PUSH1 0x0 PUSH2 0x100 EXP DUP2 SLOAD DUP2 PUSH20 0xFFFFFFFFFFFFFFFFFFFFFFFFFFFFFFFFFFFFFFFF MUL NOT AND SWAP1 DUP4 PUSH20 0xFFFFFFFFFFFFFFFFFFFFFFFFFFFFFFFFFFFFFFFF AND MUL OR SWAP1 SSTORE POP DUP2 PUSH20 0xFFFFFFFFFFFFFFFFFFFFFFFFFFFFFFFFFFFFFFFF AND DUP2 PUSH20 0xFFFFFFFFFFFFFFFFFFFFFFFFFFFFFFFFFFFFFFFF AND PUSH32 0x8BE0079C531659141344CD1FD0A4F28419497F9722A3DAAFE3B4186F6B6457E0 PUSH1 0x40 MLOAD PUSH1 0x40 MLOAD DUP1 SWAP2 SUB SWAP1 LOG3 POP POP JUMP JUMPDEST PUSH1 0x0 DUP1 ADDRESS PUSH20 0xFFFFFFFFFFFFFFFFFFFFFFFFFFFFFFFFFFFFFFFF AND EXTCODESIZE GT ISZERO SWAP1 POP SWAP1 JUMP JUMPDEST PUSH1 0x0 DUP2 SWAP1 POP SWAP2 SWAP1 POP JUMP JUMPDEST PUSH1 0x0 DUP2 SWAP1 POP SWAP2 SWAP1 POP JUMP JUMPDEST PUSH2 0xCD5 DUP2 PUSH2 0xDB9 JUMP JUMPDEST PUSH2 0xD14 JUMPI PUSH1 0x40 MLOAD PUSH32 0x8C379A000000000000000000000000000000000000000000000000000000000 DUP2 MSTORE PUSH1 0x4 ADD PUSH2 0xD0B SWAP1 PUSH2 0x14C3 JUMP JUMPDEST PUSH1 0x40 MLOAD DUP1 SWAP2 SUB SWAP1 REVERT JUMPDEST DUP1 PUSH2 0xD41 PUSH32 0x360894A13BA1A3210667C828492DB98DCA3E2076CC3735A920A3CA505D382BBC PUSH1 0x0 SHL PUSH2 0xCB8 JUMP JUMPDEST PUSH1 0x0 ADD PUSH1 0x0 PUSH2 0x100 EXP DUP2 SLOAD DUP2 PUSH20 0xFFFFFFFFFFFFFFFFFFFFFFFFFFFFFFFFFFFFFFFF MUL NOT AND SWAP1 DUP4 PUSH20 0xFFFFFFFFFFFFFFFFFFFFFFFFFFFFFFFFFFFFFFFF AND MUL OR SWAP1 SSTORE POP POP JUMP JUMPDEST PUSH2 0xD8E DUP4 PUSH2 0xDDC JUMP JUMPDEST PUSH1 0x0 DUP3 MLOAD GT DUP1 PUSH2 0xD9B JUMPI POP DUP1 JUMPDEST ISZERO PUSH2 0xDAC JUMPI PUSH2 0xDAA DUP4 DUP4 PUSH2 0xE2B JUMP JUMPDEST POP JUMPDEST POP POP POP JUMP JUMPDEST PUSH1 0x0 CALLER SWAP1 POP SWAP1 JUMP JUMPDEST PUSH1 0x0 DUP1 DUP3 PUSH20 0xFFFFFFFFFFFFFFFFFFFFFFFFFFFFFFFFFFFFFFFF AND EXTCODESIZE GT SWAP1 POP SWAP2 SWAP1 POP JUMP JUMPDEST PUSH2 0xDE5 DUP2 PUSH2 0xCCC JUMP JUMPDEST DUP1 PUSH20 0xFFFFFFFFFFFFFFFFFFFFFFFFFFFFFFFFFFFFFFFF AND PUSH32 0xBC7CD75A20EE27FD9ADEBAB32041F755214DBC6BFFA90CC0225B39DA2E5C2D3B PUSH1 0x40 MLOAD PUSH1 0x40 MLOAD DUP1 SWAP2 SUB SWAP1 LOG2 POP JUMP JUMPDEST PUSH1 0x60 PUSH2 0xE50 DUP4 DUP4 PUSH1 0x40 MLOAD DUP1 PUSH1 0x60 ADD PUSH1 0x40 MSTORE DUP1 PUSH1 0x27 DUP2 MSTORE PUSH1 0x20 ADD PUSH2 0x1A9E PUSH1 0x27 SWAP2 CODECOPY PUSH2 0xE58 JUMP JUMPDEST SWAP1 POP SWAP3 SWAP2 POP POP JUMP JUMPDEST PUSH1 0x60 PUSH1 0x0 DUP1 DUP6 PUSH20 0xFFFFFFFFFFFFFFFFFFFFFFFFFFFFFFFFFFFFFFFF AND DUP6 PUSH1 0x40 MLOAD PUSH2 0xE82 SWAP2 SWAP1 PUSH2 0x1374 JUMP JUMPDEST PUSH1 0x0 PUSH1 0x40 MLOAD DUP1 DUP4 SUB DUP2 DUP6 GAS DELEGATECALL SWAP2 POP POP RETURNDATASIZE DUP1 PUSH1 0x0 DUP2 EQ PUSH2 0xEBD JUMPI PUSH1 0x40 MLOAD SWAP2 POP PUSH1 0x1F NOT PUSH1 0x3F RETURNDATASIZE ADD AND DUP3 ADD PUSH1 0x40 MSTORE RETURNDATASIZE DUP3 MSTORE RETURNDATASIZE PUSH1 0x0 PUSH1 0x20 DUP5 ADD RETURNDATACOPY PUSH2 0xEC2 JUMP JUMPDEST PUSH1 0x60 SWAP2 POP JUMPDEST POP SWAP2 POP SWAP2 POP PUSH2 0xED3 DUP7 DUP4 DUP4 DUP8 PUSH2 0xEDE JUMP JUMPDEST SWAP3 POP POP POP SWAP4 SWAP3 POP POP POP JUMP JUMPDEST PUSH1 0x60 DUP4 ISZERO PUSH2 0xF41 JUMPI PUSH1 0x0 DUP4 MLOAD EQ ISZERO PUSH2 0xF39 JUMPI PUSH2 0xEF9 DUP6 PUSH2 0xDB9 JUMP JUMPDEST PUSH2 0xF38 JUMPI PUSH1 0x40 MLOAD PUSH32 0x8C379A000000000000000000000000000000000000000000000000000000000 DUP2 MSTORE PUSH1 0x4 ADD PUSH2 0xF2F SWAP1 PUSH2 0x1503 JUMP JUMPDEST PUSH1 0x40 MLOAD DUP1 SWAP2 SUB SWAP1 REVERT JUMPDEST JUMPDEST DUP3 SWAP1 POP PUSH2 0xF4C JUMP JUMPDEST PUSH2 0xF4B DUP4 DUP4 PUSH2 0xF54 JUMP JUMPDEST JUMPDEST SWAP5 SWAP4 POP POP POP POP JUMP JUMPDEST PUSH1 0x0 DUP3 MLOAD GT ISZERO PUSH2 0xF67 JUMPI DUP2 MLOAD DUP1 DUP4 PUSH1 0x20 ADD REVERT JUMPDEST DUP1 PUSH1 0x40 MLOAD PUSH32 0x8C379A000000000000000000000000000000000000000000000000000000000 DUP2 MSTORE PUSH1 0x4 ADD PUSH2 0xF9B SWAP2 SWAP1 PUSH2 0x13C1 JUMP JUMPDEST PUSH1 0x40 MLOAD DUP1 SWAP2 SUB SWAP1 REVERT JUMPDEST DUP3 DUP1 SLOAD PUSH2 0xFB0 SWAP1 PUSH2 0x16A4 JUMP JUMPDEST SWAP1 PUSH1 0x0 MSTORE PUSH1 0x20 PUSH1 0x0 KECCAK256 SWAP1 PUSH1 0x1F ADD PUSH1 0x20 SWAP1 DIV DUP2 ADD SWAP3 DUP3 PUSH2 0xFD2 JUMPI PUSH1 0x0 DUP6 SSTORE PUSH2 0x1019 JUMP JUMPDEST DUP3 PUSH1 0x1F LT PUSH2 0xFEB JUMPI DUP1 MLOAD PUSH1 0xFF NOT AND DUP4 DUP1 ADD OR DUP6 SSTORE PUSH2 0x1019 JUMP JUMPDEST DUP3 DUP1 ADD PUSH1 0x1 ADD DUP6 SSTORE DUP3 ISZERO PUSH2 0x1019 JUMPI SWAP2 DUP3 ADD JUMPDEST DUP3 DUP2 GT ISZERO PUSH2 0x1018 JUMPI DUP3 MLOAD DUP3 SSTORE SWAP2 PUSH1 0x20 ADD SWAP2 SWAP1 PUSH1 0x1 ADD SWAP1 PUSH2 0xFFD JUMP JUMPDEST JUMPDEST POP SWAP1 POP PUSH2 0x1026 SWAP2 SWAP1 PUSH2 0x102A JUMP JUMPDEST POP SWAP1 JUMP JUMPDEST JUMPDEST DUP1 DUP3 GT ISZERO PUSH2 0x1043 JUMPI PUSH1 0x0 DUP2 PUSH1 0x0 SWAP1 SSTORE POP PUSH1 0x1 ADD PUSH2 0x102B JUMP JUMPDEST POP SWAP1 JUMP JUMPDEST PUSH1 0x0 PUSH2 0x105A PUSH2 0x1055 DUP5 PUSH2 0x1563 JUMP JUMPDEST PUSH2 0x153E JUMP JUMPDEST SWAP1 POP DUP3 DUP2 MSTORE PUSH1 0x20 DUP2 ADD DUP5 DUP5 DUP5 ADD GT ISZERO PUSH2 0x1072 JUMPI PUSH1 0x0 DUP1 REVERT JUMPDEST PUSH2 0x107D DUP5 DUP3 DUP6 PUSH2 0x1662 JUMP JUMPDEST POP SWAP4 SWAP3 POP POP POP JUMP JUMPDEST PUSH1 0x0 DUP2 CALLDATALOAD SWAP1 POP PUSH2 0x1094 DUP2 PUSH2 0x1A6F JUMP JUMPDEST SWAP3 SWAP2 POP POP JUMP JUMPDEST PUSH1 0x0 DUP2 MLOAD SWAP1 POP PUSH2 0x10A9 DUP2 PUSH2 0x1A86 JUMP JUMPDEST SWAP3 SWAP2 POP POP JUMP JUMPDEST PUSH1 0x0 DUP3 PUSH1 0x1F DUP4 ADD SLT PUSH2 0x10C0 JUMPI PUSH1 0x0 DUP1 REVERT JUMPDEST DUP2 CALLDATALOAD PUSH2 0x10D0 DUP5 DUP3 PUSH1 0x20 DUP7 ADD PUSH2 0x1047 JUMP JUMPDEST SWAP2 POP POP SWAP3 SWAP2 POP POP JUMP JUMPDEST PUSH1 0x0 PUSH1 0x20 DUP3 DUP5 SUB SLT ISZERO PUSH2 0x10EB JUMPI PUSH1 0x0 DUP1 REVERT JUMPDEST PUSH1 0x0 PUSH2 0x10F9 DUP5 DUP3 DUP6 ADD PUSH2 0x1085 JUMP JUMPDEST SWAP2 POP POP SWAP3 SWAP2 POP POP JUMP JUMPDEST PUSH1 0x0 DUP1 PUSH1 0x40 DUP4 DUP6 SUB SLT ISZERO PUSH2 0x1115 JUMPI PUSH1 0x0 DUP1 REVERT JUMPDEST PUSH1 0x0 PUSH2 0x1123 DUP6 DUP3 DUP7 ADD PUSH2 0x1085 JUMP JUMPDEST SWAP3 POP POP PUSH1 0x20 DUP4 ADD CALLDATALOAD PUSH8 0xFFFFFFFFFFFFFFFF DUP2 GT ISZERO PUSH2 0x1140 JUMPI PUSH1 0x0 DUP1 REVERT JUMPDEST PUSH2 0x114C DUP6 DUP3 DUP7 ADD PUSH2 0x10AF JUMP JUMPDEST SWAP2 POP POP SWAP3 POP SWAP3 SWAP1 POP JUMP JUMPDEST PUSH1 0x0 PUSH1 0x20 DUP3 DUP5 SUB SLT ISZERO PUSH2 0x1168 JUMPI PUSH1 0x0 DUP1 REVERT JUMPDEST PUSH1 0x0 PUSH2 0x1176 DUP5 DUP3 DUP6 ADD PUSH2 0x109A JUMP JUMPDEST SWAP2 POP POP SWAP3 SWAP2 POP POP JUMP JUMPDEST PUSH2 0x1188 DUP2 PUSH2 0x161C JUMP JUMPDEST DUP3 MSTORE POP POP JUMP JUMPDEST PUSH2 0x1197 DUP2 PUSH2 0x162E JUMP JUMPDEST DUP3 MSTORE POP POP JUMP JUMPDEST PUSH1 0x0 PUSH2 0x11A8 DUP3 PUSH2 0x1594 JUMP JUMPDEST PUSH2 0x11B2 DUP2 DUP6 PUSH2 0x15AA JUMP JUMPDEST SWAP4 POP PUSH2 0x11C2 DUP2 DUP6 PUSH1 0x20 DUP7 ADD PUSH2 0x1671 JUMP JUMPDEST DUP1 DUP5 ADD SWAP2 POP POP SWAP3 SWAP2 POP POP JUMP JUMPDEST PUSH1 0x0 PUSH2 0x11D9 DUP3 PUSH2 0x159F JUMP JUMPDEST PUSH2 0x11E3 DUP2 DUP6 PUSH2 0x15B5 JUMP JUMPDEST SWAP4 POP PUSH2 0x11F3 DUP2 DUP6 PUSH1 0x20 DUP7 ADD PUSH2 0x1671 JUMP JUMPDEST PUSH2 0x11FC DUP2 PUSH2 0x1794 JUMP JUMPDEST DUP5 ADD SWAP2 POP POP SWAP3 SWAP2 POP POP JUMP JUMPDEST PUSH1 0x0 PUSH2 0x1214 PUSH1 0x26 DUP4 PUSH2 0x15B5 JUMP JUMPDEST SWAP2 POP PUSH2 0x121F DUP3 PUSH2 0x17A5 JUMP JUMPDEST PUSH1 0x40 DUP3 ADD SWAP1 POP SWAP2 SWAP1 POP JUMP JUMPDEST PUSH1 0x0 PUSH2 0x1237 PUSH1 0x2C DUP4 PUSH2 0x15B5 JUMP JUMPDEST SWAP2 POP PUSH2 0x1242 DUP3 PUSH2 0x17F4 JUMP JUMPDEST PUSH1 0x40 DUP3 ADD SWAP1 POP SWAP2 SWAP1 POP JUMP JUMPDEST PUSH1 0x0 PUSH2 0x125A PUSH1 0x2C DUP4 PUSH2 0x15B5 JUMP JUMPDEST SWAP2 POP PUSH2 0x1265 DUP3 PUSH2 0x1843 JUMP JUMPDEST PUSH1 0x40 DUP3 ADD SWAP1 POP SWAP2 SWAP1 POP JUMP JUMPDEST PUSH1 0x0 PUSH2 0x127D PUSH1 0x38 DUP4 PUSH2 0x15B5 JUMP JUMPDEST SWAP2 POP PUSH2 0x1288 DUP3 PUSH2 0x1892 JUMP JUMPDEST PUSH1 0x40 DUP3 ADD SWAP1 POP SWAP2 SWAP1 POP JUMP JUMPDEST PUSH1 0x0 PUSH2 0x12A0 PUSH1 0x29 DUP4 PUSH2 0x15B5 JUMP JUMPDEST SWAP2 POP PUSH2 0x12AB DUP3 PUSH2 0x18E1 JUMP JUMPDEST PUSH1 0x40 DUP3 ADD SWAP1 POP SWAP2 SWAP1 POP JUMP JUMPDEST PUSH1 0x0 PUSH2 0x12C3 PUSH1 0x2E DUP4 PUSH2 0x15B5 JUMP JUMPDEST SWAP2 POP PUSH2 0x12CE DUP3 PUSH2 0x1930 JUMP JUMPDEST PUSH1 0x40 DUP3 ADD SWAP1 POP SWAP2 SWAP1 POP JUMP JUMPDEST PUSH1 0x0 PUSH2 0x12E6 PUSH1 0x2E DUP4 PUSH2 0x15B5 JUMP JUMPDEST SWAP2 POP PUSH2 0x12F1 DUP3 PUSH2 0x197F JUMP JUMPDEST PUSH1 0x40 DUP3 ADD SWAP1 POP SWAP2 SWAP1 POP JUMP JUMPDEST PUSH1 0x0 PUSH2 0x1309 PUSH1 0x2D DUP4 PUSH2 0x15B5 JUMP JUMPDEST SWAP2 POP PUSH2 0x1314 DUP3 PUSH2 0x19CE JUMP JUMPDEST PUSH1 0x40 DUP3 ADD SWAP1 POP SWAP2 SWAP1 POP JUMP JUMPDEST PUSH1 0x0 PUSH2 0x132C PUSH1 0x20 DUP4 PUSH2 0x15B5 JUMP JUMPDEST SWAP2 POP PUSH2 0x1337 DUP3 PUSH2 0x1A1D JUMP JUMPDEST PUSH1 0x20 DUP3 ADD SWAP1 POP SWAP2 SWAP1 POP JUMP JUMPDEST PUSH1 0x0 PUSH2 0x134F PUSH1 0x1D DUP4 PUSH2 0x15B5 JUMP JUMPDEST SWAP2 POP PUSH2 0x135A DUP3 PUSH2 0x1A46 JUMP JUMPDEST PUSH1 0x20 DUP3 ADD SWAP1 POP SWAP2 SWAP1 POP JUMP JUMPDEST PUSH2 0x136E DUP2 PUSH2 0x1658 JUMP JUMPDEST DUP3 MSTORE POP POP JUMP JUMPDEST PUSH1 0x0 PUSH2 0x1380 DUP3 DUP5 PUSH2 0x119D JUMP JUMPDEST SWAP2 POP DUP2 SWAP1 POP SWAP3 SWAP2 POP POP JUMP JUMPDEST PUSH1 0x0 PUSH1 0x20 DUP3 ADD SWAP1 POP PUSH2 0x13A0 PUSH1 0x0 DUP4 ADD DUP5 PUSH2 0x117F JUMP JUMPDEST SWAP3 SWAP2 POP POP JUMP JUMPDEST PUSH1 0x0 PUSH1 0x20 DUP3 ADD SWAP1 POP PUSH2 0x13BB PUSH1 0x0 DUP4 ADD DUP5 PUSH2 0x118E JUMP JUMPDEST SWAP3 SWAP2 POP POP JUMP JUMPDEST PUSH1 0x0 PUSH1 0x20 DUP3 ADD SWAP1 POP DUP2 DUP2 SUB PUSH1 0x0 DUP4 ADD MSTORE PUSH2 0x13DB DUP2 DUP5 PUSH2 0x11CE JUMP JUMPDEST SWAP1 POP SWAP3 SWAP2 POP POP JUMP JUMPDEST PUSH1 0x0 PUSH1 0x20 DUP3 ADD SWAP1 POP DUP2 DUP2 SUB PUSH1 0x0 DUP4 ADD MSTORE PUSH2 0x13FC DUP2 PUSH2 0x1207 JUMP JUMPDEST SWAP1 POP SWAP2 SWAP1 POP JUMP JUMPDEST PUSH1 0x0 PUSH1 0x20 DUP3 ADD SWAP1 POP DUP2 DUP2 SUB PUSH1 0x0 DUP4 ADD MSTORE PUSH2 0x141C DUP2 PUSH2 0x122A JUMP JUMPDEST SWAP1 POP SWAP2 SWAP1 POP JUMP JUMPDEST PUSH1 0x0 PUSH1 0x20 DUP3 ADD SWAP1 POP DUP2 DUP2 SUB PUSH1 0x0 DUP4 ADD MSTORE PUSH2 0x143C DUP2 PUSH2 0x124D JUMP JUMPDEST SWAP1 POP SWAP2 SWAP1 POP JUMP JUMPDEST PUSH1 0x0 PUSH1 0x20 DUP3 ADD SWAP1 POP DUP2 DUP2 SUB PUSH1 0x0 DUP4 ADD MSTORE PUSH2 0x145C DUP2 PUSH2 0x1270 JUMP JUMPDEST SWAP1 POP SWAP2 SWAP1 POP JUMP JUMPDEST PUSH1 0x0 PUSH1 0x20 DUP3 ADD SWAP1 POP DUP2 DUP2 SUB PUSH1 0x0 DUP4 ADD MSTORE PUSH2 0x147C DUP2 PUSH2 0x1293 JUMP JUMPDEST SWAP1 POP SWAP2 SWAP1 POP JUMP JUMPDEST PUSH1 0x0 PUSH1 0x20 DUP3 ADD SWAP1 POP DUP2 DUP2 SUB PUSH1 0x0 DUP4 ADD MSTORE PUSH2 0x149C DUP2 PUSH2 0x12B6 JUMP JUMPDEST SWAP1 POP SWAP2 SWAP1 POP JUMP JUMPDEST PUSH1 0x0 PUSH1 0x20 DUP3 ADD SWAP1 POP DUP2 DUP2 SUB PUSH1 0x0 DUP4 ADD MSTORE PUSH2 0x14BC DUP2 PUSH2 0x12D9 JUMP JUMPDEST SWAP1 POP SWAP2 SWAP1 POP JUMP JUMPDEST PUSH1 0x0 PUSH1 0x20 DUP3 ADD SWAP1 POP DUP2 DUP2 SUB PUSH1 0x0 DUP4 ADD MSTORE PUSH2 0x14DC DUP2 PUSH2 0x12FC JUMP JUMPDEST SWAP1 POP SWAP2 SWAP1 POP JUMP JUMPDEST PUSH1 0x0 PUSH1 0x20 DUP3 ADD SWAP1 POP DUP2 DUP2 SUB PUSH1 0x0 DUP4 ADD MSTORE PUSH2 0x14FC DUP2 PUSH2 0x131F JUMP JUMPDEST SWAP1 POP SWAP2 SWAP1 POP JUMP JUMPDEST PUSH1 0x0 PUSH1 0x20 DUP3 ADD SWAP1 POP DUP2 DUP2 SUB PUSH1 0x0 DUP4 ADD MSTORE PUSH2 0x151C DUP2 PUSH2 0x1342 JUMP JUMPDEST SWAP1 POP SWAP2 SWAP1 POP JUMP JUMPDEST PUSH1 0x0 PUSH1 0x20 DUP3 ADD SWAP1 POP PUSH2 0x1538 PUSH1 0x0 DUP4 ADD DUP5 PUSH2 0x1365 JUMP JUMPDEST SWAP3 SWAP2 POP POP JUMP JUMPDEST PUSH1 0x0 PUSH2 0x1548 PUSH2 0x1559 JUMP JUMPDEST SWAP1 POP PUSH2 0x1554 DUP3 DUP3 PUSH2 0x16D6 JUMP JUMPDEST SWAP2 SWAP1 POP JUMP JUMPDEST PUSH1 0x0 PUSH1 0x40 MLOAD SWAP1 POP SWAP1 JUMP JUMPDEST PUSH1 0x0 PUSH8 0xFFFFFFFFFFFFFFFF DUP3 GT ISZERO PUSH2 0x157E JUMPI PUSH2 0x157D PUSH2 0x1765 JUMP JUMPDEST JUMPDEST PUSH2 0x1587 DUP3 PUSH2 0x1794 JUMP JUMPDEST SWAP1 POP PUSH1 0x20 DUP2 ADD SWAP1 POP SWAP2 SWAP1 POP JUMP JUMPDEST PUSH1 0x0 DUP2 MLOAD SWAP1 POP SWAP2 SWAP1 POP JUMP JUMPDEST PUSH1 0x0 DUP2 MLOAD SWAP1 POP SWAP2 SWAP1 POP JUMP JUMPDEST PUSH1 0x0 DUP2 SWAP1 POP SWAP3 SWAP2 POP POP JUMP JUMPDEST PUSH1 0x0 DUP3 DUP3 MSTORE PUSH1 0x20 DUP3 ADD SWAP1 POP SWAP3 SWAP2 POP POP JUMP JUMPDEST PUSH1 0x0 PUSH2 0x15D1 DUP3 PUSH2 0x1658 JUMP JUMPDEST SWAP2 POP PUSH2 0x15DC DUP4 PUSH2 0x1658 JUMP JUMPDEST SWAP3 POP DUP3 PUSH32 0xFFFFFFFFFFFFFFFFFFFFFFFFFFFFFFFFFFFFFFFFFFFFFFFFFFFFFFFFFFFFFFFF SUB DUP3 GT ISZERO PUSH2 0x1611 JUMPI PUSH2 0x1610 PUSH2 0x1707 JUMP JUMPDEST JUMPDEST DUP3 DUP3 ADD SWAP1 POP SWAP3 SWAP2 POP POP JUMP JUMPDEST PUSH1 0x0 PUSH2 0x1627 DUP3 PUSH2 0x1638 JUMP JUMPDEST SWAP1 POP SWAP2 SWAP1 POP JUMP JUMPDEST PUSH1 0x0 DUP2 SWAP1 POP SWAP2 SWAP1 POP JUMP JUMPDEST PUSH1 0x0 PUSH20 0xFFFFFFFFFFFFFFFFFFFFFFFFFFFFFFFFFFFFFFFF DUP3 AND SWAP1 POP SWAP2 SWAP1 POP JUMP JUMPDEST PUSH1 0x0 DUP2 SWAP1 POP SWAP2 SWAP1 POP JUMP JUMPDEST DUP3 DUP2 DUP4 CALLDATACOPY PUSH1 0x0 DUP4 DUP4 ADD MSTORE POP POP POP JUMP JUMPDEST PUSH1 0x0 JUMPDEST DUP4 DUP2 LT ISZERO PUSH2 0x168F JUMPI DUP1 DUP3 ADD MLOAD DUP2 DUP5 ADD MSTORE PUSH1 0x20 DUP2 ADD SWAP1 POP PUSH2 0x1674 JUMP JUMPDEST DUP4 DUP2 GT ISZERO PUSH2 0x169E JUMPI PUSH1 0x0 DUP5 DUP5 ADD MSTORE JUMPDEST POP POP POP POP JUMP JUMPDEST PUSH1 0x0 PUSH1 0x2 DUP3 DIV SWAP1 POP PUSH1 0x1 DUP3 AND DUP1 PUSH2 0x16BC JUMPI PUSH1 0x7F DUP3 AND SWAP2 POP JUMPDEST PUSH1 0x20 DUP3 LT DUP2 EQ ISZERO PUSH2 0x16D0 JUMPI PUSH2 0x16CF PUSH2 0x1736 JUMP JUMPDEST JUMPDEST POP SWAP2 SWAP1 POP JUMP JUMPDEST PUSH2 0x16DF DUP3 PUSH2 0x1794 JUMP JUMPDEST DUP2 ADD DUP2 DUP2 LT PUSH8 0xFFFFFFFFFFFFFFFF DUP3 GT OR ISZERO PUSH2 0x16FE JUMPI PUSH2 0x16FD PUSH2 0x1765 JUMP JUMPDEST JUMPDEST DUP1 PUSH1 0x40 MSTORE POP POP POP JUMP JUMPDEST PUSH32 0x4E487B7100000000000000000000000000000000000000000000000000000000 PUSH1 0x0 MSTORE PUSH1 0x11 PUSH1 0x4 MSTORE PUSH1 0x24 PUSH1 0x0 REVERT JUMPDEST PUSH32 0x4E487B7100000000000000000000000000000000000000000000000000000000 PUSH1 0x0 MSTORE PUSH1 0x22 PUSH1 0x4 MSTORE PUSH1 0x24 PUSH1 0x0 REVERT JUMPDEST PUSH32 0x4E487B7100000000000000000000000000000000000000000000000000000000 PUSH1 0x0 MSTORE PUSH1 0x41 PUSH1 0x4 MSTORE PUSH1 0x24 PUSH1 0x0 REVERT JUMPDEST PUSH1 0x0 PUSH1 0x1F NOT PUSH1 0x1F DUP4 ADD AND SWAP1 POP SWAP2 SWAP1 POP JUMP JUMPDEST PUSH32 0x4F776E61626C653A206E6577206F776E657220697320746865207A65726F2061 PUSH1 0x0 DUP3 ADD MSTORE PUSH32 0x6464726573730000000000000000000000000000000000000000000000000000 PUSH1 0x20 DUP3 ADD MSTORE POP JUMP JUMPDEST PUSH32 0x46756E6374696F6E206D7573742062652063616C6C6564207468726F75676820 PUSH1 0x0 DUP3 ADD MSTORE PUSH32 0x64656C656761746563616C6C0000000000000000000000000000000000000000 PUSH1 0x20 DUP3 ADD MSTORE POP JUMP JUMPDEST PUSH32 0x46756E6374696F6E206D7573742062652063616C6C6564207468726F75676820 PUSH1 0x0 DUP3 ADD MSTORE PUSH32 0x6163746976652070726F78790000000000000000000000000000000000000000 PUSH1 0x20 DUP3 ADD MSTORE POP JUMP JUMPDEST PUSH32 0x555550535570677261646561626C653A206D757374206E6F742062652063616C PUSH1 0x0 DUP3 ADD MSTORE PUSH32 0x6C6564207468726F7567682064656C656761746563616C6C0000000000000000 PUSH1 0x20 DUP3 ADD MSTORE POP JUMP JUMPDEST PUSH32 0x45524331393637557067726164653A20756E737570706F727465642070726F78 PUSH1 0x0 DUP3 ADD MSTORE PUSH32 0x6961626C65555549440000000000000000000000000000000000000000000000 PUSH1 0x20 DUP3 ADD MSTORE POP JUMP JUMPDEST PUSH32 0x496E697469616C697A61626C653A20636F6E747261637420697320616C726561 PUSH1 0x0 DUP3 ADD MSTORE PUSH32 0x647920696E697469616C697A6564000000000000000000000000000000000000 PUSH1 0x20 DUP3 ADD MSTORE POP JUMP JUMPDEST PUSH32 0x45524331393637557067726164653A206E657720696D706C656D656E74617469 PUSH1 0x0 DUP3 ADD MSTORE PUSH32 0x6F6E206973206E6F742055555053000000000000000000000000000000000000 PUSH1 0x20 DUP3 ADD MSTORE POP JUMP JUMPDEST PUSH32 0x455243313936373A206E657720696D706C656D656E746174696F6E206973206E PUSH1 0x0 DUP3 ADD MSTORE PUSH32 0x6F74206120636F6E747261637400000000000000000000000000000000000000 PUSH1 0x20 DUP3 ADD MSTORE POP JUMP JUMPDEST PUSH32 0x4F776E61626C653A2063616C6C6572206973206E6F7420746865206F776E6572 PUSH1 0x0 DUP3 ADD MSTORE POP JUMP JUMPDEST PUSH32 0x416464726573733A2063616C6C20746F206E6F6E2D636F6E7472616374000000 PUSH1 0x0 DUP3 ADD MSTORE POP JUMP JUMPDEST PUSH2 0x1A78 DUP2 PUSH2 0x161C JUMP JUMPDEST DUP2 EQ PUSH2 0x1A83 JUMPI PUSH1 0x0 DUP1 REVERT JUMPDEST POP JUMP JUMPDEST PUSH2 0x1A8F DUP2 PUSH2 0x162E JUMP JUMPDEST DUP2 EQ PUSH2 0x1A9A JUMPI PUSH1 0x0 DUP1 REVERT JUMPDEST POP JUMP INVALID COINBASE PUSH5 0x6472657373 GASPRICE KECCAK256 PUSH13 0x6F772D6C6576656C2064656C65 PUSH8 0x6174652063616C6C KECCAK256 PUSH7 0x61696C6564A264 PUSH10 0x7066735822122032E03D DUP9 0xC3 CALLDATACOPY PUSH20 0xF8155BA68DF9D35A35BC7324F932D05EE3221BE JUMPDEST PUSH6 0xFB685164736F PUSH13 0x63430008010033000000000000 "
				},
				"gasEstimates": {
					"creation": {
						"codeDepositCost": "1381200",
						"executionCost": "infinite",
						"totalCost": "infinite"
					},
					"external": {
						"getTokenId()": "infinite",
						"getTokenName()": "infinite",
						"initialize()": "infinite",
						"owner()": "1288",
						"proxiableUUID()": "infinite",
						"renounceOwnership()": "24398",
						"setValue()": "infinite",
						"transferOwnership(address)": "24835",
						"upgradeTo(address)": "infinite",
						"upgradeToAndCall(address,bytes)": "infinite"
					},
					"internal": {
						"_authorizeUpgrade(address)": "infinite",
						"_getMyTokenStorage()": "23"
					}
				},
				"methodIdentifiers": {
					"getTokenId()": "010a38f5",
					"getTokenName()": "862b092b",
					"initialize()": "8129fc1c",
					"owner()": "8da5cb5b",
					"proxiableUUID()": "52d1902d",
					"renounceOwnership()": "715018a6",
					"setValue()": "4fa519fa",
					"transferOwnership(address)": "f2fde38b",
					"upgradeTo(address)": "3659cfe6",
					"upgradeToAndCall(address,bytes)": "4f1ef286"
				}
			},
			"storageLayout": {
				"storage": [
					{
						"astId": 618,
						"contract": "upgradeContract/v2/v2.sol:MyToken",
						"label": "_initialized",
						"offset": 0,
						"slot": "0",
						"type": "t_uint8"
					},
					{
						"astId": 621,
						"contract": "upgradeContract/v2/v2.sol:MyToken",
						"label": "_initializing",
						"offset": 1,
						"slot": "0",
						"type": "t_bool"
					},
					{
						"astId": 766,
						"contract": "upgradeContract/v2/v2.sol:MyToken",
						"label": "__gap",
						"offset": 0,
						"slot": "1",
						"type": "t_array(t_uint256)50_storage"
					},
					{
						"astId": 492,
						"contract": "upgradeContract/v2/v2.sol:MyToken",
						"label": "_owner",
						"offset": 0,
						"slot": "51",
						"type": "t_address"
					},
					{
						"astId": 612,
						"contract": "upgradeContract/v2/v2.sol:MyToken",
						"label": "__gap",
						"offset": 0,
						"slot": "52",
						"type": "t_array(t_uint256)49_storage"
					}
				],
				"types": {
					"t_address": {
						"encoding": "inplace",
						"label": "address",
						"numberOfBytes": "20"
					},
					"t_array(t_uint256)49_storage": {
						"base": "t_uint256",
						"encoding": "inplace",
						"label": "uint256[49]",
						"numberOfBytes": "1568"
					},
					"t_array(t_uint256)50_storage": {
						"base": "t_uint256",
						"encoding": "inplace",
						"label": "uint256[50]",
						"numberOfBytes": "1600"
					},
					"t_bool": {
						"encoding": "inplace",
						"label": "bool",
						"numberOfBytes": "1"
					},
					"t_uint256": {
						"encoding": "inplace",
						"label": "uint256",
						"numberOfBytes": "32"
					},
					"t_uint8": {
						"encoding": "inplace",
						"label": "uint8",
						"numberOfBytes": "1"
					}
				}
			},
			"userdoc": {
				"kind": "user",
				"methods": {},
				"version": 1
			}
		}
	}
}