{
	"upgradeContract/v2/v1.sol": {
		"MyToken": {
			"abi": [
				{
					"inputs": [],
					"stateMutability": "nonpayable",
					"type": "constructor"
				},
				{
					"anonymous": false,
					"inputs": [
						{
							"indexed": false,
							"internalType": "address",
							"name": "previousAdmin",
							"type": "address"
						},
						{
							"indexed": false,
							"internalType": "address",
							"name": "newAdmin",
							"type": "address"
						}
					],
					"name": "AdminChanged",
					"type": "event"
				},
				{
					"anonymous": false,
					"inputs": [
						{
							"indexed": true,
							"internalType": "address",
							"name": "beacon",
							"type": "address"
						}
					],
					"name": "BeaconUpgraded",
					"type": "event"
				},
				{
					"anonymous": false,
					"inputs": [
						{
							"indexed": true,
							"internalType": "address",
							"name": "previousOwner",
							"type": "address"
						},
						{
							"indexed": true,
							"internalType": "address",
							"name": "newOwner",
							"type": "address"
						}
					],
					"name": "OwnershipTransferred",
					"type": "event"
				},
				{
					"anonymous": false,
					"inputs": [
						{
							"indexed": true,
							"internalType": "address",
							"name": "implementation",
							"type": "address"
						}
					],
					"name": "Upgraded",
					"type": "event"
				},
				{
					"inputs": [],
					"name": "getTokenId",
					"outputs": [
						{
							"internalType": "uint256",
							"name": "",
							"type": "uint256"
						}
					],
					"stateMutability": "pure",
					"type": "function"
				},
				{
					"inputs": [],
					"name": "getTokenName",
					"outputs": [
						{
							"internalType": "string",
							"name": "",
							"type": "string"
						}
					],
					"stateMutability": "pure",
					"type": "function"
				},
				{
					"inputs": [],
					"name": "initialize",
					"outputs": [],
					"stateMutability": "nonpayable",
					"type": "function"
				},
				{
					"inputs": [],
					"name": "owner",
					"outputs": [
						{
							"internalType": "address",
							"name": "",
							"type": "address"
						}
					],
					"stateMutability": "view",
					"type": "function"
				},
				{
					"inputs": [],
					"name": "proxiableUUID",
					"outputs": [
						{
							"internalType": "bytes32",
							"name": "",
							"type": "bytes32"
						}
					],
					"stateMutability": "view",
					"type": "function"
				},
				{
					"inputs": [],
					"name": "renounceOwnership",
					"outputs": [],
					"stateMutability": "nonpayable",
					"type": "function"
				},
				{
					"inputs": [],
					"name": "setValue",
					"outputs": [],
					"stateMutability": "nonpayable",
					"type": "function"
				},
				{
					"inputs": [
						{
							"internalType": "address",
							"name": "newOwner",
							"type": "address"
						}
					],
					"name": "transferOwnership",
					"outputs": [],
					"stateMutability": "nonpayable",
					"type": "function"
				},
				{
					"inputs": [
						{
							"internalType": "address",
							"name": "newImplementation",
							"type": "address"
						}
					],
					"name": "upgradeTo",
					"outputs": [],
					"stateMutability": "nonpayable",
					"type": "function"
				},
				{
					"inputs": [
						{
							"internalType": "address",
							"name": "newImplementation",
							"type": "address"
						},
						{
							"internalType": "bytes",
							"name": "data",
							"type": "bytes"
						}
					],
					"name": "upgradeToAndCall",
					"outputs": [],
					"stateMutability": "payable",
					"type": "function"
				}
			],
			"devdoc": {
				"kind": "dev",
				"methods": {
					"owner()": {
						"details": "Returns the address of the current owner."
					},
					"proxiableUUID()": {
						"details": "Implementation of the ERC1822 {proxiableUUID} function. This returns the storage slot used by the implementation. It is used to validate the implementation's compatibility when performing an upgrade. IMPORTANT: A proxy pointing at a proxiable contract should not be considered proxiable itself, because this risks bricking a proxy that upgrades to it, by delegating to itself until out of gas. Thus it is critical that this function revert if invoked through a proxy. This is guaranteed by the `notDelegated` modifier."
					},
					"renounceOwnership()": {
						"details": "Leaves the contract without owner. It will not be possible to call `onlyOwner` functions. Can only be called by the current owner. NOTE: Renouncing ownership will leave the contract without an owner, thereby disabling any functionality that is only available to the owner."
					},
					"transferOwnership(address)": {
						"details": "Transfers ownership of the contract to a new account (`newOwner`). Can only be called by the current owner."
					}
				},
				"version": 1
			},
			"evm": {
				"assembly": "    /* \"upgradeContract/v2/v1.sol\":521:2153  contract MyToken is OwnableUpgradeable, UUPSUpgradeable {\r... */\n  mstore(0x40, 0xa0)\n    /* \"upgradeContract/v2/openzeppelin_L/contracts/proxy/utils/UUPSUpgradeable.sol\":1133:1137  this */\n  address\n    /* \"upgradeContract/v2/openzeppelin_L/contracts/proxy/utils/UUPSUpgradeable.sol\":1090:1138  address private immutable __self = address(this) */\n  0xffffffffffffffffffffffffffffffffffffffff\n  and\n  0x80\n  swap1\n  0xffffffffffffffffffffffffffffffffffffffff\n  and\n  0x60\n  shl\n  dup2\n  mstore\n  pop\n    /* \"upgradeContract/v2/v1.sol\":1023:1154  constructor() {\r... */\n  callvalue\n  dup1\n  iszero\n  tag_1\n  jumpi\n  0x00\n  dup1\n  revert\ntag_1:\n  pop\n    /* \"upgradeContract/v2/v1.sol\":1124:1146  _disableInitializers() */\n  tag_4\n    /* \"upgradeContract/v2/v1.sol\":1124:1144  _disableInitializers */\n  shl(0x20, tag_5)\n    /* \"upgradeContract/v2/v1.sol\":1124:1146  _disableInitializers() */\n  0x20\n  shr\n  jump\t// in\ntag_4:\n    /* \"upgradeContract/v2/v1.sol\":521:2153  contract MyToken is OwnableUpgradeable, UUPSUpgradeable {\r... */\n  jump(tag_6)\n    /* \"upgradeContract/v2/openzeppelin_L/contracts-upgradeable/proxy/utils/Initializable.sol\":3443:3681  function _disableInitializers() internal virtual {\r... */\ntag_5:\n    /* \"upgradeContract/v2/openzeppelin_L/contracts-upgradeable/proxy/utils/Initializable.sol\":3512:3525  _initializing */\n  0x00\n  0x01\n  swap1\n  sload\n  swap1\n  0x0100\n  exp\n  swap1\n  div\n  0xff\n  and\n    /* \"upgradeContract/v2/openzeppelin_L/contracts-upgradeable/proxy/utils/Initializable.sol\":3511:3525  !_initializing */\n  iszero\n    /* \"upgradeContract/v2/openzeppelin_L/contracts-upgradeable/proxy/utils/Initializable.sol\":3503:3569  require(!_initializing, \"Initializable: contract is initializing\") */\n  tag_8\n  jumpi\n  mload(0x40)\n  0x08c379a000000000000000000000000000000000000000000000000000000000\n  dup2\n  mstore\n  0x04\n  add\n  tag_9\n  swap1\n  tag_10\n  jump\t// in\ntag_9:\n  mload(0x40)\n  dup1\n  swap2\n  sub\n  swap1\n  revert\ntag_8:\n    /* \"upgradeContract/v2/openzeppelin_L/contracts-upgradeable/proxy/utils/Initializable.sol\":3600:3615  type(uint8).max */\n  0xff\n    /* \"upgradeContract/v2/openzeppelin_L/contracts-upgradeable/proxy/utils/Initializable.sol\":3584:3615  _initialized != type(uint8).max */\n  dup1\n  and\n    /* \"upgradeContract/v2/openzeppelin_L/contracts-upgradeable/proxy/utils/Initializable.sol\":3584:3596  _initialized */\n  0x00\n  dup1\n  sload\n  swap1\n  0x0100\n  exp\n  swap1\n  div\n  0xff\n  and\n    /* \"upgradeContract/v2/openzeppelin_L/contracts-upgradeable/proxy/utils/Initializable.sol\":3584:3615  _initialized != type(uint8).max */\n  0xff\n  and\n  eq\n    /* \"upgradeContract/v2/openzeppelin_L/contracts-upgradeable/proxy/utils/Initializable.sol\":3580:3674  if (_initialized != type(uint8).max) {\r... */\n  tag_11\n  jumpi\n    /* \"upgradeContract/v2/openzeppelin_L/contracts-upgradeable/proxy/utils/Initializable.sol\":3647:3662  type(uint8).max */\n  0xff\n    /* \"upgradeContract/v2/openzeppelin_L/contracts-upgradeable/proxy/utils/Initializable.sol\":3632:3644  _initialized */\n  0x00\n  dup1\n    /* \"upgradeContract/v2/openzeppelin_L/contracts-upgradeable/proxy/utils/Initializable.sol\":3632:3662  _initialized = type(uint8).max */\n  0x0100\n  exp\n  dup2\n  sload\n  dup2\n  0xff\n  mul\n  not\n  and\n  swap1\n  dup4\n  0xff\n  and\n  mul\n  or\n  swap1\n  sstore\n  pop\n    /* \"upgradeContract/v2/openzeppelin_L/contracts-upgradeable/proxy/utils/Initializable.sol\":3580:3674  if (_initialized != type(uint8).max) {\r... */\ntag_11:\n    /* \"upgradeContract/v2/openzeppelin_L/contracts-upgradeable/proxy/utils/Initializable.sol\":3443:3681  function _disableInitializers() internal virtual {\r... */\n  jump\t// out\n    /* \"#utility.yul\":7:373   */\ntag_13:\n  0x00\n    /* \"#utility.yul\":170:237   */\n  tag_15\n    /* \"#utility.yul\":234:236   */\n  0x27\n    /* \"#utility.yul\":229:232   */\n  dup4\n    /* \"#utility.yul\":170:237   */\n  tag_16\n  jump\t// in\ntag_15:\n    /* \"#utility.yul\":163:237   */\n  swap2\n  pop\n    /* \"#utility.yul\":246:339   */\n  tag_17\n    /* \"#utility.yul\":335:338   */\n  dup3\n    /* \"#utility.yul\":246:339   */\n  tag_18\n  jump\t// in\ntag_17:\n    /* \"#utility.yul\":364:366   */\n  0x40\n    /* \"#utility.yul\":359:362   */\n  dup3\n    /* \"#utility.yul\":355:367   */\n  add\n    /* \"#utility.yul\":348:367   */\n  swap1\n  pop\n    /* \"#utility.yul\":153:373   */\n  swap2\n  swap1\n  pop\n  jump\t// out\n    /* \"#utility.yul\":379:798   */\ntag_10:\n  0x00\n    /* \"#utility.yul\":583:585   */\n  0x20\n    /* \"#utility.yul\":572:581   */\n  dup3\n    /* \"#utility.yul\":568:586   */\n  add\n    /* \"#utility.yul\":560:586   */\n  swap1\n  pop\n    /* \"#utility.yul\":632:641   */\n  dup2\n    /* \"#utility.yul\":626:630   */\n  dup2\n    /* \"#utility.yul\":622:642   */\n  sub\n    /* \"#utility.yul\":618:619   */\n  0x00\n    /* \"#utility.yul\":607:616   */\n  dup4\n    /* \"#utility.yul\":603:620   */\n  add\n    /* \"#utility.yul\":596:643   */\n  mstore\n    /* \"#utility.yul\":660:791   */\n  tag_20\n    /* \"#utility.yul\":786:790   */\n  dup2\n    /* \"#utility.yul\":660:791   */\n  tag_13\n  jump\t// in\ntag_20:\n    /* \"#utility.yul\":652:791   */\n  swap1\n  pop\n    /* \"#utility.yul\":550:798   */\n  swap2\n  swap1\n  pop\n  jump\t// out\n    /* \"#utility.yul\":804:973   */\ntag_16:\n  0x00\n    /* \"#utility.yul\":922:928   */\n  dup3\n    /* \"#utility.yul\":917:920   */\n  dup3\n    /* \"#utility.yul\":910:929   */\n  mstore\n    /* \"#utility.yul\":962:966   */\n  0x20\n    /* \"#utility.yul\":957:960   */\n  dup3\n    /* \"#utility.yul\":953:967   */\n  add\n    /* \"#utility.yul\":938:967   */\n  swap1\n  pop\n    /* \"#utility.yul\":900:973   */\n  swap3\n  swap2\n  pop\n  pop\n  jump\t// out\n    /* \"#utility.yul\":979:1205   */\ntag_18:\n    /* \"#utility.yul\":1119:1153   */\n  0x496e697469616c697a61626c653a20636f6e747261637420697320696e697469\n    /* \"#utility.yul\":1115:1116   */\n  0x00\n    /* \"#utility.yul\":1107:1113   */\n  dup3\n    /* \"#utility.yul\":1103:1117   */\n  add\n    /* \"#utility.yul\":1096:1154   */\n  mstore\n    /* \"#utility.yul\":1188:1197   */\n  0x616c697a696e6700000000000000000000000000000000000000000000000000\n    /* \"#utility.yul\":1183:1185   */\n  0x20\n    /* \"#utility.yul\":1175:1181   */\n  dup3\n    /* \"#utility.yul\":1171:1186   */\n  add\n    /* \"#utility.yul\":1164:1198   */\n  mstore\n    /* \"#utility.yul\":1085:1205   */\n  pop\n  jump\t// out\n    /* \"upgradeContract/v2/v1.sol\":521:2153  contract MyToken is OwnableUpgradeable, UUPSUpgradeable {\r... */\ntag_6:\n  shr(0x60, mload(0x80))\n  codecopy(0x00, dataOffset(sub_0), dataSize(sub_0))\n  0x00\n  assignImmutable(\"0x1509f8d8925c0545b6a426638c55dcb9de4e51c41f7349dd1e9c74f3cab7487d\")\n  return(0x00, dataSize(sub_0))\nstop\n\nsub_0: assembly {\n        /* \"upgradeContract/v2/v1.sol\":521:2153  contract MyToken is OwnableUpgradeable, UUPSUpgradeable {\r... */\n      mstore(0x40, 0x80)\n      jumpi(tag_1, lt(calldatasize, 0x04))\n      shr(0xe0, calldataload(0x00))\n      dup1\n      0x715018a6\n      gt\n      tag_12\n      jumpi\n      dup1\n      0x715018a6\n      eq\n      tag_7\n      jumpi\n      dup1\n      0x8129fc1c\n      eq\n      tag_8\n      jumpi\n      dup1\n      0x862b092b\n      eq\n      tag_9\n      jumpi\n      dup1\n      0x8da5cb5b\n      eq\n      tag_10\n      jumpi\n      dup1\n      0xf2fde38b\n      eq\n      tag_11\n      jumpi\n      jump(tag_1)\n    tag_12:\n      dup1\n      0x010a38f5\n      eq\n      tag_2\n      jumpi\n      dup1\n      0x3659cfe6\n      eq\n      tag_3\n      jumpi\n      dup1\n      0x4f1ef286\n      eq\n      tag_4\n      jumpi\n      dup1\n      0x4fa519fa\n      eq\n      tag_5\n      jumpi\n      dup1\n      0x52d1902d\n      eq\n      tag_6\n      jumpi\n    tag_1:\n      0x00\n      dup1\n      revert\n        /* \"upgradeContract/v2/v1.sol\":1567:1714  function getTokenId() public pure returns(uint256){\r... */\n    tag_2:\n      callvalue\n      dup1\n      iszero\n      tag_13\n      jumpi\n      0x00\n      dup1\n      revert\n    tag_13:\n      pop\n      tag_14\n      tag_15\n      jump\t// in\n    tag_14:\n      mload(0x40)\n      tag_16\n      swap2\n      swap1\n      tag_17\n      jump\t// in\n    tag_16:\n      mload(0x40)\n      dup1\n      swap2\n      sub\n      swap1\n      return\n        /* \"upgradeContract/v2/openzeppelin_L/contracts/proxy/utils/UUPSUpgradeable.sol\":3232:3430  function upgradeTo(address newImplementation) public virtual onlyProxy {\r... */\n    tag_3:\n      callvalue\n      dup1\n      iszero\n      tag_18\n      jumpi\n      0x00\n      dup1\n      revert\n    tag_18:\n      pop\n      tag_19\n      0x04\n      dup1\n      calldatasize\n      sub\n      dup2\n      add\n      swap1\n      tag_20\n      swap2\n      swap1\n      tag_21\n      jump\t// in\n    tag_20:\n      tag_22\n      jump\t// in\n    tag_19:\n      stop\n        /* \"upgradeContract/v2/openzeppelin_L/contracts/proxy/utils/UUPSUpgradeable.sol\":3760:3983  function upgradeToAndCall(address newImplementation, bytes memory data) public payable virtual onlyProxy {\r... */\n    tag_4:\n      tag_23\n      0x04\n      dup1\n      calldatasize\n      sub\n      dup2\n      add\n      swap1\n      tag_24\n      swap2\n      swap1\n      tag_25\n      jump\t// in\n    tag_24:\n      tag_26\n      jump\t// in\n    tag_23:\n      stop\n        /* \"upgradeContract/v2/v1.sol\":1437:1559  function setValue() public {\r... */\n    tag_5:\n      callvalue\n      dup1\n      iszero\n      tag_27\n      jumpi\n      0x00\n      dup1\n      revert\n    tag_27:\n      pop\n      tag_28\n      tag_29\n      jump\t// in\n    tag_28:\n      stop\n        /* \"upgradeContract/v2/openzeppelin_L/contracts/proxy/utils/UUPSUpgradeable.sol\":2839:2972  function proxiableUUID() external view virtual override notDelegated returns (bytes32) {\r... */\n    tag_6:\n      callvalue\n      dup1\n      iszero\n      tag_30\n      jumpi\n      0x00\n      dup1\n      revert\n    tag_30:\n      pop\n      tag_31\n      tag_32\n      jump\t// in\n    tag_31:\n      mload(0x40)\n      tag_33\n      swap2\n      swap1\n      tag_34\n      jump\t// in\n    tag_33:\n      mload(0x40)\n      dup1\n      swap2\n      sub\n      swap1\n      return\n        /* \"upgradeContract/v2/openzeppelin_L/contracts-upgradeable/access/OwnableUpgradeable.sol\":2150:2253  function renounceOwnership() public virtual onlyOwner {\r... */\n    tag_7:\n      callvalue\n      dup1\n      iszero\n      tag_35\n      jumpi\n      0x00\n      dup1\n      revert\n    tag_35:\n      pop\n      tag_36\n      tag_37\n      jump\t// in\n    tag_36:\n      stop\n        /* \"upgradeContract/v2/v1.sol\":1353:1429  function initialize() public initializer {\r... */\n    tag_8:\n      callvalue\n      dup1\n      iszero\n      tag_38\n      jumpi\n      0x00\n      dup1\n      revert\n    tag_38:\n      pop\n      tag_39\n      tag_40\n      jump\t// in\n    tag_39:\n      stop\n        /* \"upgradeContract/v2/v1.sol\":1722:1875  function getTokenName() public pure returns(string memory){\r... */\n    tag_9:\n      callvalue\n      dup1\n      iszero\n      tag_41\n      jumpi\n      0x00\n      dup1\n      revert\n    tag_41:\n      pop\n      tag_42\n      tag_43\n      jump\t// in\n    tag_42:\n      mload(0x40)\n      tag_44\n      swap2\n      swap1\n      tag_45\n      jump\t// in\n    tag_44:\n      mload(0x40)\n      dup1\n      swap2\n      sub\n      swap1\n      return\n        /* \"upgradeContract/v2/openzeppelin_L/contracts-upgradeable/access/OwnableUpgradeable.sol\":1509:1596  function owner() public view virtual returns (address) {\r... */\n    tag_10:\n      callvalue\n      dup1\n      iszero\n      tag_46\n      jumpi\n      0x00\n      dup1\n      revert\n    tag_46:\n      pop\n      tag_47\n      tag_48\n      jump\t// in\n    tag_47:\n      mload(0x40)\n      tag_49\n      swap2\n      swap1\n      tag_50\n      jump\t// in\n    tag_49:\n      mload(0x40)\n      dup1\n      swap2\n      sub\n      swap1\n      return\n        /* \"upgradeContract/v2/openzeppelin_L/contracts-upgradeable/access/OwnableUpgradeable.sol\":2408:2609  function transferOwnership(address newOwner) public virtual onlyOwner {\r... */\n    tag_11:\n      callvalue\n      dup1\n      iszero\n      tag_51\n      jumpi\n      0x00\n      dup1\n      revert\n    tag_51:\n      pop\n      tag_52\n      0x04\n      dup1\n      calldatasize\n      sub\n      dup2\n      add\n      swap1\n      tag_53\n      swap2\n      swap1\n      tag_21\n      jump\t// in\n    tag_53:\n      tag_54\n      jump\t// in\n    tag_52:\n      stop\n        /* \"upgradeContract/v2/v1.sol\":1567:1714  function getTokenId() public pure returns(uint256){\r... */\n    tag_15:\n        /* \"upgradeContract/v2/v1.sol\":1609:1616  uint256 */\n      0x00\n        /* \"upgradeContract/v2/v1.sol\":1628:1651  MyTokenStorage memory $ */\n      dup1\n        /* \"upgradeContract/v2/v1.sol\":1654:1674  _getMyTokenStorage() */\n      tag_56\n        /* \"upgradeContract/v2/v1.sol\":1654:1672  _getMyTokenStorage */\n      tag_57\n        /* \"upgradeContract/v2/v1.sol\":1654:1674  _getMyTokenStorage() */\n      jump\t// in\n    tag_56:\n        /* \"upgradeContract/v2/v1.sol\":1628:1674  MyTokenStorage memory $ = _getMyTokenStorage() */\n      mload(0x40)\n      dup1\n      0x40\n      add\n      0x40\n      mstore\n      swap1\n      dup2\n      0x00\n      dup3\n      add\n      dup1\n      sload\n      tag_58\n      swap1\n      tag_59\n      jump\t// in\n    tag_58:\n      dup1\n      0x1f\n      add\n      0x20\n      dup1\n      swap2\n      div\n      mul\n      0x20\n      add\n      mload(0x40)\n      swap1\n      dup2\n      add\n      0x40\n      mstore\n      dup1\n      swap3\n      swap2\n      swap1\n      dup2\n      dup2\n      mstore\n      0x20\n      add\n      dup3\n      dup1\n      sload\n      tag_60\n      swap1\n      tag_59\n      jump\t// in\n    tag_60:\n      dup1\n      iszero\n      tag_61\n      jumpi\n      dup1\n      0x1f\n      lt\n      tag_62\n      jumpi\n      0x0100\n      dup1\n      dup4\n      sload\n      div\n      mul\n      dup4\n      mstore\n      swap2\n      0x20\n      add\n      swap2\n      jump(tag_61)\n    tag_62:\n      dup3\n      add\n      swap2\n      swap1\n      0x00\n      mstore\n      keccak256(0x00, 0x20)\n      swap1\n    tag_63:\n      dup2\n      sload\n      dup2\n      mstore\n      swap1\n      0x01\n      add\n      swap1\n      0x20\n      add\n      dup1\n      dup4\n      gt\n      tag_63\n      jumpi\n      dup3\n      swap1\n      sub\n      0x1f\n      and\n      dup3\n      add\n      swap2\n    tag_61:\n      pop\n      pop\n      pop\n      pop\n      pop\n      dup2\n      mstore\n      0x20\n      add\n      0x01\n      dup3\n      add\n      sload\n      dup2\n      mstore\n      pop\n      pop\n      swap1\n      pop\n        /* \"upgradeContract/v2/v1.sol\":1692:1693  $ */\n      dup1\n        /* \"upgradeContract/v2/v1.sol\":1692:1706  $._nextTokenId */\n      0x20\n      add\n      mload\n        /* \"upgradeContract/v2/v1.sol\":1685:1706  return $._nextTokenId */\n      swap2\n      pop\n      pop\n        /* \"upgradeContract/v2/v1.sol\":1567:1714  function getTokenId() public pure returns(uint256){\r... */\n      swap1\n      jump\t// out\n        /* \"upgradeContract/v2/openzeppelin_L/contracts/proxy/utils/UUPSUpgradeable.sol\":3232:3430  function upgradeTo(address newImplementation) public virtual onlyProxy {\r... */\n    tag_22:\n        /* \"upgradeContract/v2/openzeppelin_L/contracts/proxy/utils/UUPSUpgradeable.sol\":1709:1715  __self */\n      immutable(\"0x1509f8d8925c0545b6a426638c55dcb9de4e51c41f7349dd1e9c74f3cab7487d\")\n        /* \"upgradeContract/v2/openzeppelin_L/contracts/proxy/utils/UUPSUpgradeable.sol\":1692:1715  address(this) != __self */\n      0xffffffffffffffffffffffffffffffffffffffff\n      and\n        /* \"upgradeContract/v2/openzeppelin_L/contracts/proxy/utils/UUPSUpgradeable.sol\":1700:1704  this */\n      address\n        /* \"upgradeContract/v2/openzeppelin_L/contracts/proxy/utils/UUPSUpgradeable.sol\":1692:1715  address(this) != __self */\n      0xffffffffffffffffffffffffffffffffffffffff\n      and\n      eq\n      iszero\n        /* \"upgradeContract/v2/openzeppelin_L/contracts/proxy/utils/UUPSUpgradeable.sol\":1684:1764  require(address(this) != __self, \"Function must be called through delegatecall\") */\n      tag_65\n      jumpi\n      mload(0x40)\n      0x08c379a000000000000000000000000000000000000000000000000000000000\n      dup2\n      mstore\n      0x04\n      add\n      tag_66\n      swap1\n      tag_67\n      jump\t// in\n    tag_66:\n      mload(0x40)\n      dup1\n      swap2\n      sub\n      swap1\n      revert\n    tag_65:\n        /* \"upgradeContract/v2/openzeppelin_L/contracts/proxy/utils/UUPSUpgradeable.sol\":1807:1813  __self */\n      immutable(\"0x1509f8d8925c0545b6a426638c55dcb9de4e51c41f7349dd1e9c74f3cab7487d\")\n        /* \"upgradeContract/v2/openzeppelin_L/contracts/proxy/utils/UUPSUpgradeable.sol\":1783:1813  _getImplementation() == __self */\n      0xffffffffffffffffffffffffffffffffffffffff\n      and\n        /* \"upgradeContract/v2/openzeppelin_L/contracts/proxy/utils/UUPSUpgradeable.sol\":1783:1803  _getImplementation() */\n      tag_68\n        /* \"upgradeContract/v2/openzeppelin_L/contracts/proxy/utils/UUPSUpgradeable.sol\":1783:1801  _getImplementation */\n      tag_69\n        /* \"upgradeContract/v2/openzeppelin_L/contracts/proxy/utils/UUPSUpgradeable.sol\":1783:1803  _getImplementation() */\n      jump\t// in\n    tag_68:\n        /* \"upgradeContract/v2/openzeppelin_L/contracts/proxy/utils/UUPSUpgradeable.sol\":1783:1813  _getImplementation() == __self */\n      0xffffffffffffffffffffffffffffffffffffffff\n      and\n      eq\n        /* \"upgradeContract/v2/openzeppelin_L/contracts/proxy/utils/UUPSUpgradeable.sol\":1775:1862  require(_getImplementation() == __self, \"Function must be called through active proxy\") */\n      tag_70\n      jumpi\n      mload(0x40)\n      0x08c379a000000000000000000000000000000000000000000000000000000000\n      dup2\n      mstore\n      0x04\n      add\n      tag_71\n      swap1\n      tag_72\n      jump\t// in\n    tag_71:\n      mload(0x40)\n      dup1\n      swap2\n      sub\n      swap1\n      revert\n    tag_70:\n        /* \"upgradeContract/v2/openzeppelin_L/contracts/proxy/utils/UUPSUpgradeable.sol\":3314:3350  _authorizeUpgrade(newImplementation) */\n      tag_74\n        /* \"upgradeContract/v2/openzeppelin_L/contracts/proxy/utils/UUPSUpgradeable.sol\":3332:3349  newImplementation */\n      dup2\n        /* \"upgradeContract/v2/openzeppelin_L/contracts/proxy/utils/UUPSUpgradeable.sol\":3314:3331  _authorizeUpgrade */\n      tag_75\n        /* \"upgradeContract/v2/openzeppelin_L/contracts/proxy/utils/UUPSUpgradeable.sol\":3314:3350  _authorizeUpgrade(newImplementation) */\n      jump\t// in\n    tag_74:\n        /* \"upgradeContract/v2/openzeppelin_L/contracts/proxy/utils/UUPSUpgradeable.sol\":3361:3422  _upgradeToAndCallUUPS(newImplementation, new bytes(0), false) */\n      tag_76\n        /* \"upgradeContract/v2/openzeppelin_L/contracts/proxy/utils/UUPSUpgradeable.sol\":3383:3400  newImplementation */\n      dup2\n        /* \"upgradeContract/v2/openzeppelin_L/contracts/proxy/utils/UUPSUpgradeable.sol\":3412:3413  0 */\n      0x00\n        /* \"upgradeContract/v2/openzeppelin_L/contracts/proxy/utils/UUPSUpgradeable.sol\":3402:3414  new bytes(0) */\n      0xffffffffffffffff\n      dup2\n      gt\n      iszero\n      tag_77\n      jumpi\n      mstore(0x00, 0x4e487b7100000000000000000000000000000000000000000000000000000000)\n      mstore(0x04, 0x41)\n      revert(0x00, 0x24)\n    tag_77:\n      mload(0x40)\n      swap1\n      dup1\n      dup3\n      mstore\n      dup1\n      0x1f\n      add\n      not(0x1f)\n      and\n      0x20\n      add\n      dup3\n      add\n      0x40\n      mstore\n      dup1\n      iszero\n      tag_78\n      jumpi\n      dup2\n      0x20\n      add\n      0x01\n      dup3\n      mul\n      dup1\n      calldatasize\n      dup4\n      calldatacopy\n      dup1\n      dup3\n      add\n      swap2\n      pop\n      pop\n      swap1\n      pop\n    tag_78:\n      pop\n        /* \"upgradeContract/v2/openzeppelin_L/contracts/proxy/utils/UUPSUpgradeable.sol\":3416:3421  false */\n      0x00\n        /* \"upgradeContract/v2/openzeppelin_L/contracts/proxy/utils/UUPSUpgradeable.sol\":3361:3382  _upgradeToAndCallUUPS */\n      tag_79\n        /* \"upgradeContract/v2/openzeppelin_L/contracts/proxy/utils/UUPSUpgradeable.sol\":3361:3422  _upgradeToAndCallUUPS(newImplementation, new bytes(0), false) */\n      jump\t// in\n    tag_76:\n        /* \"upgradeContract/v2/openzeppelin_L/contracts/proxy/utils/UUPSUpgradeable.sol\":3232:3430  function upgradeTo(address newImplementation) public virtual onlyProxy {\r... */\n      pop\n      jump\t// out\n        /* \"upgradeContract/v2/openzeppelin_L/contracts/proxy/utils/UUPSUpgradeable.sol\":3760:3983  function upgradeToAndCall(address newImplementation, bytes memory data) public payable virtual onlyProxy {\r... */\n    tag_26:\n        /* \"upgradeContract/v2/openzeppelin_L/contracts/proxy/utils/UUPSUpgradeable.sol\":1709:1715  __self */\n      immutable(\"0x1509f8d8925c0545b6a426638c55dcb9de4e51c41f7349dd1e9c74f3cab7487d\")\n        /* \"upgradeContract/v2/openzeppelin_L/contracts/proxy/utils/UUPSUpgradeable.sol\":1692:1715  address(this) != __self */\n      0xffffffffffffffffffffffffffffffffffffffff\n      and\n        /* \"upgradeContract/v2/openzeppelin_L/contracts/proxy/utils/UUPSUpgradeable.sol\":1700:1704  this */\n      address\n        /* \"upgradeContract/v2/openzeppelin_L/contracts/proxy/utils/UUPSUpgradeable.sol\":1692:1715  address(this) != __self */\n      0xffffffffffffffffffffffffffffffffffffffff\n      and\n      eq\n      iszero\n        /* \"upgradeContract/v2/openzeppelin_L/contracts/proxy/utils/UUPSUpgradeable.sol\":1684:1764  require(address(this) != __self, \"Function must be called through delegatecall\") */\n      tag_81\n      jumpi\n      mload(0x40)\n      0x08c379a000000000000000000000000000000000000000000000000000000000\n      dup2\n      mstore\n      0x04\n      add\n      tag_82\n      swap1\n      tag_67\n      jump\t// in\n    tag_82:\n      mload(0x40)\n      dup1\n      swap2\n      sub\n      swap1\n      revert\n    tag_81:\n        /* \"upgradeContract/v2/openzeppelin_L/contracts/proxy/utils/UUPSUpgradeable.sol\":1807:1813  __self */\n      immutable(\"0x1509f8d8925c0545b6a426638c55dcb9de4e51c41f7349dd1e9c74f3cab7487d\")\n        /* \"upgradeContract/v2/openzeppelin_L/contracts/proxy/utils/UUPSUpgradeable.sol\":1783:1813  _getImplementation() == __self */\n      0xffffffffffffffffffffffffffffffffffffffff\n      and\n        /* \"upgradeContract/v2/openzeppelin_L/contracts/proxy/utils/UUPSUpgradeable.sol\":1783:1803  _getImplementation() */\n      tag_83\n        /* \"upgradeContract/v2/openzeppelin_L/contracts/proxy/utils/UUPSUpgradeable.sol\":1783:1801  _getImplementation */\n      tag_69\n        /* \"upgradeContract/v2/openzeppelin_L/contracts/proxy/utils/UUPSUpgradeable.sol\":1783:1803  _getImplementation() */\n      jump\t// in\n    tag_83:\n        /* \"upgradeContract/v2/openzeppelin_L/contracts/proxy/utils/UUPSUpgradeable.sol\":1783:1813  _getImplementation() == __self */\n      0xffffffffffffffffffffffffffffffffffffffff\n      and\n      eq\n        /* \"upgradeContract/v2/openzeppelin_L/contracts/proxy/utils/UUPSUpgradeable.sol\":1775:1862  require(_getImplementation() == __self, \"Function must be called through active proxy\") */\n      tag_84\n      jumpi\n      mload(0x40)\n      0x08c379a000000000000000000000000000000000000000000000000000000000\n      dup2\n      mstore\n      0x04\n      add\n      tag_85\n      swap1\n      tag_72\n      jump\t// in\n    tag_85:\n      mload(0x40)\n      dup1\n      swap2\n      sub\n      swap1\n      revert\n    tag_84:\n        /* \"upgradeContract/v2/openzeppelin_L/contracts/proxy/utils/UUPSUpgradeable.sol\":3876:3912  _authorizeUpgrade(newImplementation) */\n      tag_87\n        /* \"upgradeContract/v2/openzeppelin_L/contracts/proxy/utils/UUPSUpgradeable.sol\":3894:3911  newImplementation */\n      dup3\n        /* \"upgradeContract/v2/openzeppelin_L/contracts/proxy/utils/UUPSUpgradeable.sol\":3876:3893  _authorizeUpgrade */\n      tag_75\n        /* \"upgradeContract/v2/openzeppelin_L/contracts/proxy/utils/UUPSUpgradeable.sol\":3876:3912  _authorizeUpgrade(newImplementation) */\n      jump\t// in\n    tag_87:\n        /* \"upgradeContract/v2/openzeppelin_L/contracts/proxy/utils/UUPSUpgradeable.sol\":3923:3975  _upgradeToAndCallUUPS(newImplementation, data, true) */\n      tag_88\n        /* \"upgradeContract/v2/openzeppelin_L/contracts/proxy/utils/UUPSUpgradeable.sol\":3945:3962  newImplementation */\n      dup3\n        /* \"upgradeContract/v2/openzeppelin_L/contracts/proxy/utils/UUPSUpgradeable.sol\":3964:3968  data */\n      dup3\n        /* \"upgradeContract/v2/openzeppelin_L/contracts/proxy/utils/UUPSUpgradeable.sol\":3970:3974  true */\n      0x01\n        /* \"upgradeContract/v2/openzeppelin_L/contracts/proxy/utils/UUPSUpgradeable.sol\":3923:3944  _upgradeToAndCallUUPS */\n      tag_79\n        /* \"upgradeContract/v2/openzeppelin_L/contracts/proxy/utils/UUPSUpgradeable.sol\":3923:3975  _upgradeToAndCallUUPS(newImplementation, data, true) */\n      jump\t// in\n    tag_88:\n        /* \"upgradeContract/v2/openzeppelin_L/contracts/proxy/utils/UUPSUpgradeable.sol\":3760:3983  function upgradeToAndCall(address newImplementation, bytes memory data) public payable virtual onlyProxy {\r... */\n      pop\n      pop\n      jump\t// out\n        /* \"upgradeContract/v2/v1.sol\":1437:1559  function setValue() public {\r... */\n    tag_29:\n        /* \"upgradeContract/v2/v1.sol\":1475:1499  MyTokenStorage storage $ */\n      0x00\n        /* \"upgradeContract/v2/v1.sol\":1502:1522  _getMyTokenStorage() */\n      tag_90\n        /* \"upgradeContract/v2/v1.sol\":1502:1520  _getMyTokenStorage */\n      tag_57\n        /* \"upgradeContract/v2/v1.sol\":1502:1522  _getMyTokenStorage() */\n      jump\t// in\n    tag_90:\n        /* \"upgradeContract/v2/v1.sol\":1475:1522  MyTokenStorage storage $ = _getMyTokenStorage() */\n      swap1\n      pop\n        /* \"upgradeContract/v2/v1.sol\":1533:1534  $ */\n      dup1\n        /* \"upgradeContract/v2/v1.sol\":1533:1547  $._nextTokenId */\n      0x01\n      add\n      0x00\n        /* \"upgradeContract/v2/v1.sol\":1533:1550  $._nextTokenId ++ */\n      dup2\n      sload\n      dup1\n      swap3\n      swap2\n      swap1\n      tag_91\n      swap1\n      tag_92\n      jump\t// in\n    tag_91:\n      swap2\n      swap1\n      pop\n      sstore\n      pop\n        /* \"upgradeContract/v2/v1.sol\":1437:1559  function setValue() public {\r... */\n      pop\n      jump\t// out\n        /* \"upgradeContract/v2/openzeppelin_L/contracts/proxy/utils/UUPSUpgradeable.sol\":2839:2972  function proxiableUUID() external view virtual override notDelegated returns (bytes32) {\r... */\n    tag_32:\n        /* \"upgradeContract/v2/openzeppelin_L/contracts/proxy/utils/UUPSUpgradeable.sol\":2917:2924  bytes32 */\n      0x00\n        /* \"upgradeContract/v2/openzeppelin_L/contracts/proxy/utils/UUPSUpgradeable.sol\":2154:2160  __self */\n      immutable(\"0x1509f8d8925c0545b6a426638c55dcb9de4e51c41f7349dd1e9c74f3cab7487d\")\n        /* \"upgradeContract/v2/openzeppelin_L/contracts/proxy/utils/UUPSUpgradeable.sol\":2137:2160  address(this) == __self */\n      0xffffffffffffffffffffffffffffffffffffffff\n      and\n        /* \"upgradeContract/v2/openzeppelin_L/contracts/proxy/utils/UUPSUpgradeable.sol\":2145:2149  this */\n      address\n        /* \"upgradeContract/v2/openzeppelin_L/contracts/proxy/utils/UUPSUpgradeable.sol\":2137:2160  address(this) == __self */\n      0xffffffffffffffffffffffffffffffffffffffff\n      and\n      eq\n        /* \"upgradeContract/v2/openzeppelin_L/contracts/proxy/utils/UUPSUpgradeable.sol\":2129:2221  require(address(this) == __self, \"UUPSUpgradeable: must not be called through delegatecall\") */\n      tag_94\n      jumpi\n      mload(0x40)\n      0x08c379a000000000000000000000000000000000000000000000000000000000\n      dup2\n      mstore\n      0x04\n      add\n      tag_95\n      swap1\n      tag_96\n      jump\t// in\n    tag_95:\n      mload(0x40)\n      dup1\n      swap2\n      sub\n      swap1\n      revert\n    tag_94:\n        /* \"upgradeContract/v2/openzeppelin_L/contracts/proxy/ERC1967/ERC1967Upgrade.sol\":1213:1279  0x360894a13ba1a3210667c828492db98dca3e2076cc3735a920a3ca505d382bbc */\n      0x360894a13ba1a3210667c828492db98dca3e2076cc3735a920a3ca505d382bbc\n        /* \"upgradeContract/v2/openzeppelin_L/contracts/proxy/utils/UUPSUpgradeable.sol\":2944:2964  _IMPLEMENTATION_SLOT */\n      0x00\n      shl\n        /* \"upgradeContract/v2/openzeppelin_L/contracts/proxy/utils/UUPSUpgradeable.sol\":2937:2964  return _IMPLEMENTATION_SLOT */\n      swap1\n      pop\n        /* \"upgradeContract/v2/openzeppelin_L/contracts/proxy/utils/UUPSUpgradeable.sol\":2839:2972  function proxiableUUID() external view virtual override notDelegated returns (bytes32) {\r... */\n      swap1\n      jump\t// out\n        /* \"upgradeContract/v2/openzeppelin_L/contracts-upgradeable/access/OwnableUpgradeable.sol\":2150:2253  function renounceOwnership() public virtual onlyOwner {\r... */\n    tag_37:\n        /* \"upgradeContract/v2/openzeppelin_L/contracts-upgradeable/access/OwnableUpgradeable.sol\":1395:1408  _checkOwner() */\n      tag_99\n        /* \"upgradeContract/v2/openzeppelin_L/contracts-upgradeable/access/OwnableUpgradeable.sol\":1395:1406  _checkOwner */\n      tag_100\n        /* \"upgradeContract/v2/openzeppelin_L/contracts-upgradeable/access/OwnableUpgradeable.sol\":1395:1408  _checkOwner() */\n      jump\t// in\n    tag_99:\n        /* \"upgradeContract/v2/openzeppelin_L/contracts-upgradeable/access/OwnableUpgradeable.sol\":2215:2245  _transferOwnership(address(0)) */\n      tag_102\n        /* \"upgradeContract/v2/openzeppelin_L/contracts-upgradeable/access/OwnableUpgradeable.sol\":2242:2243  0 */\n      0x00\n        /* \"upgradeContract/v2/openzeppelin_L/contracts-upgradeable/access/OwnableUpgradeable.sol\":2215:2233  _transferOwnership */\n      tag_103\n        /* \"upgradeContract/v2/openzeppelin_L/contracts-upgradeable/access/OwnableUpgradeable.sol\":2215:2245  _transferOwnership(address(0)) */\n      jump\t// in\n    tag_102:\n        /* \"upgradeContract/v2/openzeppelin_L/contracts-upgradeable/access/OwnableUpgradeable.sol\":2150:2253  function renounceOwnership() public virtual onlyOwner {\r... */\n      jump\t// out\n        /* \"upgradeContract/v2/v1.sol\":1353:1429  function initialize() public initializer {\r... */\n    tag_40:\n        /* \"upgradeContract/v2/openzeppelin_L/contracts-upgradeable/proxy/utils/Initializable.sol\":2507:2520  _initializing */\n      0x00\n      0x01\n      swap1\n      sload\n      swap1\n      0x0100\n      exp\n      swap1\n      div\n      0xff\n      and\n        /* \"upgradeContract/v2/openzeppelin_L/contracts-upgradeable/proxy/utils/Initializable.sol\":2507:2558  _initializing ? _isConstructor() : _initialized < 1 */\n      tag_105\n      jumpi\n        /* \"upgradeContract/v2/openzeppelin_L/contracts-upgradeable/proxy/utils/Initializable.sol\":2557:2558  1 */\n      0x01\n        /* \"upgradeContract/v2/openzeppelin_L/contracts-upgradeable/proxy/utils/Initializable.sol\":2542:2554  _initialized */\n      0x00\n      dup1\n      sload\n      swap1\n      0x0100\n      exp\n      swap1\n      div\n      0xff\n      and\n        /* \"upgradeContract/v2/openzeppelin_L/contracts-upgradeable/proxy/utils/Initializable.sol\":2542:2558  _initialized < 1 */\n      0xff\n      and\n      lt\n        /* \"upgradeContract/v2/openzeppelin_L/contracts-upgradeable/proxy/utils/Initializable.sol\":2507:2558  _initializing ? _isConstructor() : _initialized < 1 */\n      jump(tag_106)\n    tag_105:\n        /* \"upgradeContract/v2/openzeppelin_L/contracts-upgradeable/proxy/utils/Initializable.sol\":2523:2539  _isConstructor() */\n      tag_107\n        /* \"upgradeContract/v2/openzeppelin_L/contracts-upgradeable/proxy/utils/Initializable.sol\":2523:2537  _isConstructor */\n      tag_108\n        /* \"upgradeContract/v2/openzeppelin_L/contracts-upgradeable/proxy/utils/Initializable.sol\":2523:2539  _isConstructor() */\n      jump\t// in\n    tag_107:\n        /* \"upgradeContract/v2/openzeppelin_L/contracts-upgradeable/proxy/utils/Initializable.sol\":2507:2558  _initializing ? _isConstructor() : _initialized < 1 */\n    tag_106:\n        /* \"upgradeContract/v2/openzeppelin_L/contracts-upgradeable/proxy/utils/Initializable.sol\":2499:2609  require(_initializing ? _isConstructor() : _initialized < 1, \"Initializable: contract is already initialized\") */\n      tag_109\n      jumpi\n      mload(0x40)\n      0x08c379a000000000000000000000000000000000000000000000000000000000\n      dup2\n      mstore\n      0x04\n      add\n      tag_110\n      swap1\n      tag_111\n      jump\t// in\n    tag_110:\n      mload(0x40)\n      dup1\n      swap2\n      sub\n      swap1\n      revert\n    tag_109:\n        /* \"upgradeContract/v2/openzeppelin_L/contracts-upgradeable/proxy/utils/Initializable.sol\":2622:2641  bool isTopLevelCall */\n      0x00\n        /* \"upgradeContract/v2/openzeppelin_L/contracts-upgradeable/proxy/utils/Initializable.sol\":2645:2658  _initializing */\n      dup1\n      0x01\n      swap1\n      sload\n      swap1\n      0x0100\n      exp\n      swap1\n      div\n      0xff\n      and\n        /* \"upgradeContract/v2/openzeppelin_L/contracts-upgradeable/proxy/utils/Initializable.sol\":2644:2658  !_initializing */\n      iszero\n        /* \"upgradeContract/v2/openzeppelin_L/contracts-upgradeable/proxy/utils/Initializable.sol\":2622:2658  bool isTopLevelCall = !_initializing */\n      swap1\n      pop\n        /* \"upgradeContract/v2/openzeppelin_L/contracts-upgradeable/proxy/utils/Initializable.sol\":2684:2685  1 */\n      0x01\n        /* \"upgradeContract/v2/openzeppelin_L/contracts-upgradeable/proxy/utils/Initializable.sol\":2669:2681  _initialized */\n      0x00\n      dup1\n        /* \"upgradeContract/v2/openzeppelin_L/contracts-upgradeable/proxy/utils/Initializable.sol\":2669:2685  _initialized = 1 */\n      0x0100\n      exp\n      dup2\n      sload\n      dup2\n      0xff\n      mul\n      not\n      and\n      swap1\n      dup4\n      0xff\n      and\n      mul\n      or\n      swap1\n      sstore\n      pop\n        /* \"upgradeContract/v2/openzeppelin_L/contracts-upgradeable/proxy/utils/Initializable.sol\":2700:2714  isTopLevelCall */\n      dup1\n        /* \"upgradeContract/v2/openzeppelin_L/contracts-upgradeable/proxy/utils/Initializable.sol\":2696:2763  if (isTopLevelCall) {\r... */\n      iszero\n      tag_112\n      jumpi\n        /* \"upgradeContract/v2/openzeppelin_L/contracts-upgradeable/proxy/utils/Initializable.sol\":2747:2751  true */\n      0x01\n        /* \"upgradeContract/v2/openzeppelin_L/contracts-upgradeable/proxy/utils/Initializable.sol\":2731:2744  _initializing */\n      0x00\n      0x01\n        /* \"upgradeContract/v2/openzeppelin_L/contracts-upgradeable/proxy/utils/Initializable.sol\":2731:2751  _initializing = true */\n      0x0100\n      exp\n      dup2\n      sload\n      dup2\n      0xff\n      mul\n      not\n      and\n      swap1\n      dup4\n      iszero\n      iszero\n      mul\n      or\n      swap1\n      sstore\n      pop\n        /* \"upgradeContract/v2/openzeppelin_L/contracts-upgradeable/proxy/utils/Initializable.sol\":2696:2763  if (isTopLevelCall) {\r... */\n    tag_112:\n        /* \"upgradeContract/v2/v1.sol\":1405:1421  __Ownable_init() */\n      tag_114\n        /* \"upgradeContract/v2/v1.sol\":1405:1419  __Ownable_init */\n      tag_115\n        /* \"upgradeContract/v2/v1.sol\":1405:1421  __Ownable_init() */\n      jump\t// in\n    tag_114:\n        /* \"upgradeContract/v2/openzeppelin_L/contracts-upgradeable/proxy/utils/Initializable.sol\":2793:2807  isTopLevelCall */\n      dup1\n        /* \"upgradeContract/v2/openzeppelin_L/contracts-upgradeable/proxy/utils/Initializable.sol\":2789:2857  if (isTopLevelCall) {\r... */\n      iszero\n      tag_116\n      jumpi\n        /* \"upgradeContract/v2/openzeppelin_L/contracts-upgradeable/proxy/utils/Initializable.sol\":2840:2845  false */\n      0x00\n        /* \"upgradeContract/v2/openzeppelin_L/contracts-upgradeable/proxy/utils/Initializable.sol\":2824:2837  _initializing */\n      dup1\n      0x01\n        /* \"upgradeContract/v2/openzeppelin_L/contracts-upgradeable/proxy/utils/Initializable.sol\":2824:2845  _initializing = false */\n      0x0100\n      exp\n      dup2\n      sload\n      dup2\n      0xff\n      mul\n      not\n      and\n      swap1\n      dup4\n      iszero\n      iszero\n      mul\n      or\n      swap1\n      sstore\n      pop\n        /* \"upgradeContract/v2/openzeppelin_L/contracts-upgradeable/proxy/utils/Initializable.sol\":2789:2857  if (isTopLevelCall) {\r... */\n    tag_116:\n        /* \"upgradeContract/v2/v1.sol\":1353:1429  function initialize() public initializer {\r... */\n      pop\n      jump\t// out\n        /* \"upgradeContract/v2/v1.sol\":1722:1875  function getTokenName() public pure returns(string memory){\r... */\n    tag_43:\n        /* \"upgradeContract/v2/v1.sol\":1766:1779  string memory */\n      0x60\n        /* \"upgradeContract/v2/v1.sol\":1791:1814  MyTokenStorage memory $ */\n      0x00\n        /* \"upgradeContract/v2/v1.sol\":1817:1837  _getMyTokenStorage() */\n      tag_118\n        /* \"upgradeContract/v2/v1.sol\":1817:1835  _getMyTokenStorage */\n      tag_57\n        /* \"upgradeContract/v2/v1.sol\":1817:1837  _getMyTokenStorage() */\n      jump\t// in\n    tag_118:\n        /* \"upgradeContract/v2/v1.sol\":1791:1837  MyTokenStorage memory $ = _getMyTokenStorage() */\n      mload(0x40)\n      dup1\n      0x40\n      add\n      0x40\n      mstore\n      swap1\n      dup2\n      0x00\n      dup3\n      add\n      dup1\n      sload\n      tag_119\n      swap1\n      tag_59\n      jump\t// in\n    tag_119:\n      dup1\n      0x1f\n      add\n      0x20\n      dup1\n      swap2\n      div\n      mul\n      0x20\n      add\n      mload(0x40)\n      swap1\n      dup2\n      add\n      0x40\n      mstore\n      dup1\n      swap3\n      swap2\n      swap1\n      dup2\n      dup2\n      mstore\n      0x20\n      add\n      dup3\n      dup1\n      sload\n      tag_120\n      swap1\n      tag_59\n      jump\t// in\n    tag_120:\n      dup1\n      iszero\n      tag_121\n      jumpi\n      dup1\n      0x1f\n      lt\n      tag_122\n      jumpi\n      0x0100\n      dup1\n      dup4\n      sload\n      div\n      mul\n      dup4\n      mstore\n      swap2\n      0x20\n      add\n      swap2\n      jump(tag_121)\n    tag_122:\n      dup3\n      add\n      swap2\n      swap1\n      0x00\n      mstore\n      keccak256(0x00, 0x20)\n      swap1\n    tag_123:\n      dup2\n      sload\n      dup2\n      mstore\n      swap1\n      0x01\n      add\n      swap1\n      0x20\n      add\n      dup1\n      dup4\n      gt\n      tag_123\n      jumpi\n      dup3\n      swap1\n      sub\n      0x1f\n      and\n      dup3\n      add\n      swap2\n    tag_121:\n      pop\n      pop\n      pop\n      pop\n      pop\n      dup2\n      mstore\n      0x20\n      add\n      0x01\n      dup3\n      add\n      sload\n      dup2\n      mstore\n      pop\n      pop\n      swap1\n      pop\n        /* \"upgradeContract/v2/v1.sol\":1855:1856  $ */\n      dup1\n        /* \"upgradeContract/v2/v1.sol\":1855:1867  $._tokenName */\n      0x00\n      add\n      mload\n        /* \"upgradeContract/v2/v1.sol\":1848:1867  return $._tokenName */\n      swap2\n      pop\n      pop\n        /* \"upgradeContract/v2/v1.sol\":1722:1875  function getTokenName() public pure returns(string memory){\r... */\n      swap1\n      jump\t// out\n        /* \"upgradeContract/v2/openzeppelin_L/contracts-upgradeable/access/OwnableUpgradeable.sol\":1509:1596  function owner() public view virtual returns (address) {\r... */\n    tag_48:\n        /* \"upgradeContract/v2/openzeppelin_L/contracts-upgradeable/access/OwnableUpgradeable.sol\":1555:1562  address */\n      0x00\n        /* \"upgradeContract/v2/openzeppelin_L/contracts-upgradeable/access/OwnableUpgradeable.sol\":1582:1588  _owner */\n      0x33\n      0x00\n      swap1\n      sload\n      swap1\n      0x0100\n      exp\n      swap1\n      div\n      0xffffffffffffffffffffffffffffffffffffffff\n      and\n        /* \"upgradeContract/v2/openzeppelin_L/contracts-upgradeable/access/OwnableUpgradeable.sol\":1575:1588  return _owner */\n      swap1\n      pop\n        /* \"upgradeContract/v2/openzeppelin_L/contracts-upgradeable/access/OwnableUpgradeable.sol\":1509:1596  function owner() public view virtual returns (address) {\r... */\n      swap1\n      jump\t// out\n        /* \"upgradeContract/v2/openzeppelin_L/contracts-upgradeable/access/OwnableUpgradeable.sol\":2408:2609  function transferOwnership(address newOwner) public virtual onlyOwner {\r... */\n    tag_54:\n        /* \"upgradeContract/v2/openzeppelin_L/contracts-upgradeable/access/OwnableUpgradeable.sol\":1395:1408  _checkOwner() */\n      tag_126\n        /* \"upgradeContract/v2/openzeppelin_L/contracts-upgradeable/access/OwnableUpgradeable.sol\":1395:1406  _checkOwner */\n      tag_100\n        /* \"upgradeContract/v2/openzeppelin_L/contracts-upgradeable/access/OwnableUpgradeable.sol\":1395:1408  _checkOwner() */\n      jump\t// in\n    tag_126:\n        /* \"upgradeContract/v2/openzeppelin_L/contracts-upgradeable/access/OwnableUpgradeable.sol\":2517:2518  0 */\n      0x00\n        /* \"upgradeContract/v2/openzeppelin_L/contracts-upgradeable/access/OwnableUpgradeable.sol\":2497:2519  newOwner != address(0) */\n      0xffffffffffffffffffffffffffffffffffffffff\n      and\n        /* \"upgradeContract/v2/openzeppelin_L/contracts-upgradeable/access/OwnableUpgradeable.sol\":2497:2505  newOwner */\n      dup2\n        /* \"upgradeContract/v2/openzeppelin_L/contracts-upgradeable/access/OwnableUpgradeable.sol\":2497:2519  newOwner != address(0) */\n      0xffffffffffffffffffffffffffffffffffffffff\n      and\n      eq\n      iszero\n        /* \"upgradeContract/v2/openzeppelin_L/contracts-upgradeable/access/OwnableUpgradeable.sol\":2489:2562  require(newOwner != address(0), \"Ownable: new owner is the zero address\") */\n      tag_128\n      jumpi\n      mload(0x40)\n      0x08c379a000000000000000000000000000000000000000000000000000000000\n      dup2\n      mstore\n      0x04\n      add\n      tag_129\n      swap1\n      tag_130\n      jump\t// in\n    tag_129:\n      mload(0x40)\n      dup1\n      swap2\n      sub\n      swap1\n      revert\n    tag_128:\n        /* \"upgradeContract/v2/openzeppelin_L/contracts-upgradeable/access/OwnableUpgradeable.sol\":2573:2601  _transferOwnership(newOwner) */\n      tag_131\n        /* \"upgradeContract/v2/openzeppelin_L/contracts-upgradeable/access/OwnableUpgradeable.sol\":2592:2600  newOwner */\n      dup2\n        /* \"upgradeContract/v2/openzeppelin_L/contracts-upgradeable/access/OwnableUpgradeable.sol\":2573:2591  _transferOwnership */\n      tag_103\n        /* \"upgradeContract/v2/openzeppelin_L/contracts-upgradeable/access/OwnableUpgradeable.sol\":2573:2601  _transferOwnership(newOwner) */\n      jump\t// in\n    tag_131:\n        /* \"upgradeContract/v2/openzeppelin_L/contracts-upgradeable/access/OwnableUpgradeable.sol\":2408:2609  function transferOwnership(address newOwner) public virtual onlyOwner {\r... */\n      pop\n      jump\t// out\n        /* \"upgradeContract/v2/v1.sol\":1883:2026  function _getMyTokenStorage() private pure returns (MyTokenStorage storage $) {\r... */\n    tag_57:\n        /* \"upgradeContract/v2/v1.sol\":1935:1959  MyTokenStorage storage $ */\n      0x00\n        /* \"upgradeContract/v2/v1.sol\":1993:2017  MYTOKEN_STORAGE_LOCATION */\n      0xfbb7c9e4123fcf4b1aad53c70358f7b1c1d7cf28092f5178b53e55db565e9200\n        /* \"upgradeContract/v2/v1.sol\":1983:2017  $.slot := MYTOKEN_STORAGE_LOCATION */\n      swap1\n      pop\n        /* \"upgradeContract/v2/v1.sol\":1981:2019  { $.slot := MYTOKEN_STORAGE_LOCATION } */\n      swap1\n      jump\t// out\n        /* \"upgradeContract/v2/openzeppelin_L/contracts/proxy/ERC1967/ERC1967Upgrade.sol\":1363:1505  function _getImplementation() internal view returns (address) {\r... */\n    tag_69:\n        /* \"upgradeContract/v2/openzeppelin_L/contracts/proxy/ERC1967/ERC1967Upgrade.sol\":1416:1423  address */\n      0x00\n        /* \"upgradeContract/v2/openzeppelin_L/contracts/proxy/ERC1967/ERC1967Upgrade.sol\":1443:1491  StorageSlot.getAddressSlot(_IMPLEMENTATION_SLOT) */\n      tag_134\n        /* \"upgradeContract/v2/openzeppelin_L/contracts/proxy/ERC1967/ERC1967Upgrade.sol\":1213:1279  0x360894a13ba1a3210667c828492db98dca3e2076cc3735a920a3ca505d382bbc */\n      0x360894a13ba1a3210667c828492db98dca3e2076cc3735a920a3ca505d382bbc\n        /* \"upgradeContract/v2/openzeppelin_L/contracts/proxy/ERC1967/ERC1967Upgrade.sol\":1470:1490  _IMPLEMENTATION_SLOT */\n      0x00\n      shl\n        /* \"upgradeContract/v2/openzeppelin_L/contracts/proxy/ERC1967/ERC1967Upgrade.sol\":1443:1469  StorageSlot.getAddressSlot */\n      tag_135\n        /* \"upgradeContract/v2/openzeppelin_L/contracts/proxy/ERC1967/ERC1967Upgrade.sol\":1443:1491  StorageSlot.getAddressSlot(_IMPLEMENTATION_SLOT) */\n      jump\t// in\n    tag_134:\n        /* \"upgradeContract/v2/openzeppelin_L/contracts/proxy/ERC1967/ERC1967Upgrade.sol\":1443:1497  StorageSlot.getAddressSlot(_IMPLEMENTATION_SLOT).value */\n      0x00\n      add\n      0x00\n      swap1\n      sload\n      swap1\n      0x0100\n      exp\n      swap1\n      div\n      0xffffffffffffffffffffffffffffffffffffffff\n      and\n        /* \"upgradeContract/v2/openzeppelin_L/contracts/proxy/ERC1967/ERC1967Upgrade.sol\":1436:1497  return StorageSlot.getAddressSlot(_IMPLEMENTATION_SLOT).value */\n      swap1\n      pop\n        /* \"upgradeContract/v2/openzeppelin_L/contracts/proxy/ERC1967/ERC1967Upgrade.sol\":1363:1505  function _getImplementation() internal view returns (address) {\r... */\n      swap1\n      jump\t// out\n        /* \"upgradeContract/v2/v1.sol\":2034:2150  function _authorizeUpgrade(address newImplementation)\r... */\n    tag_75:\n        /* \"upgradeContract/v2/openzeppelin_L/contracts-upgradeable/access/OwnableUpgradeable.sol\":1395:1408  _checkOwner() */\n      tag_137\n        /* \"upgradeContract/v2/openzeppelin_L/contracts-upgradeable/access/OwnableUpgradeable.sol\":1395:1406  _checkOwner */\n      tag_100\n        /* \"upgradeContract/v2/openzeppelin_L/contracts-upgradeable/access/OwnableUpgradeable.sol\":1395:1408  _checkOwner() */\n      jump\t// in\n    tag_137:\n        /* \"upgradeContract/v2/v1.sol\":2034:2150  function _authorizeUpgrade(address newImplementation)\r... */\n      pop\n      jump\t// out\n        /* \"upgradeContract/v2/openzeppelin_L/contracts/proxy/ERC1967/ERC1967Upgrade.sol\":2721:3657  function _upgradeToAndCallUUPS(address newImplementation, bytes memory data, bool forceCall) internal {\r... */\n    tag_79:\n        /* \"upgradeContract/v2/openzeppelin_L/contracts/proxy/ERC1967/ERC1967Upgrade.sol\":3141:3183  StorageSlot.getBooleanSlot(_ROLLBACK_SLOT) */\n      tag_140\n        /* \"upgradeContract/v2/openzeppelin_L/contracts/proxy/ERC1967/ERC1967Upgrade.sol\":865:931  0x4910fdfa16fed3260ed0e7147f7cc6da11a60208b5b9406d12a635614ffd9143 */\n      0x4910fdfa16fed3260ed0e7147f7cc6da11a60208b5b9406d12a635614ffd9143\n        /* \"upgradeContract/v2/openzeppelin_L/contracts/proxy/ERC1967/ERC1967Upgrade.sol\":3168:3182  _ROLLBACK_SLOT */\n      0x00\n      shl\n        /* \"upgradeContract/v2/openzeppelin_L/contracts/proxy/ERC1967/ERC1967Upgrade.sol\":3141:3167  StorageSlot.getBooleanSlot */\n      tag_141\n        /* \"upgradeContract/v2/openzeppelin_L/contracts/proxy/ERC1967/ERC1967Upgrade.sol\":3141:3183  StorageSlot.getBooleanSlot(_ROLLBACK_SLOT) */\n      jump\t// in\n    tag_140:\n        /* \"upgradeContract/v2/openzeppelin_L/contracts/proxy/ERC1967/ERC1967Upgrade.sol\":3141:3189  StorageSlot.getBooleanSlot(_ROLLBACK_SLOT).value */\n      0x00\n      add\n      0x00\n      swap1\n      sload\n      swap1\n      0x0100\n      exp\n      swap1\n      div\n      0xff\n      and\n        /* \"upgradeContract/v2/openzeppelin_L/contracts/proxy/ERC1967/ERC1967Upgrade.sol\":3137:3650  if (StorageSlot.getBooleanSlot(_ROLLBACK_SLOT).value) {\r... */\n      iszero\n      tag_142\n      jumpi\n        /* \"upgradeContract/v2/openzeppelin_L/contracts/proxy/ERC1967/ERC1967Upgrade.sol\":3206:3243  _setImplementation(newImplementation) */\n      tag_143\n        /* \"upgradeContract/v2/openzeppelin_L/contracts/proxy/ERC1967/ERC1967Upgrade.sol\":3225:3242  newImplementation */\n      dup4\n        /* \"upgradeContract/v2/openzeppelin_L/contracts/proxy/ERC1967/ERC1967Upgrade.sol\":3206:3224  _setImplementation */\n      tag_144\n        /* \"upgradeContract/v2/openzeppelin_L/contracts/proxy/ERC1967/ERC1967Upgrade.sol\":3206:3243  _setImplementation(newImplementation) */\n      jump\t// in\n    tag_143:\n        /* \"upgradeContract/v2/openzeppelin_L/contracts/proxy/ERC1967/ERC1967Upgrade.sol\":3137:3650  if (StorageSlot.getBooleanSlot(_ROLLBACK_SLOT).value) {\r... */\n      jump(tag_145)\n    tag_142:\n        /* \"upgradeContract/v2/openzeppelin_L/contracts/proxy/ERC1967/ERC1967Upgrade.sol\":3298:3315  newImplementation */\n      dup3\n        /* \"upgradeContract/v2/openzeppelin_L/contracts/proxy/ERC1967/ERC1967Upgrade.sol\":3280:3330  IERC1822Proxiable(newImplementation).proxiableUUID */\n      0xffffffffffffffffffffffffffffffffffffffff\n      and\n      0x52d1902d\n        /* \"upgradeContract/v2/openzeppelin_L/contracts/proxy/ERC1967/ERC1967Upgrade.sol\":3280:3332  IERC1822Proxiable(newImplementation).proxiableUUID() */\n      mload(0x40)\n      dup2\n      0xffffffff\n      and\n      0xe0\n      shl\n      dup2\n      mstore\n      0x04\n      add\n      0x20\n      mload(0x40)\n      dup1\n      dup4\n      sub\n      dup2\n      dup7\n      dup1\n      extcodesize\n      iszero\n      dup1\n      iszero\n      tag_146\n      jumpi\n      0x00\n      dup1\n      revert\n    tag_146:\n      pop\n      gas\n      staticcall\n      swap3\n      pop\n      pop\n      pop\n      dup1\n      iszero\n      tag_147\n      jumpi\n      pop\n      mload(0x40)\n      returndatasize\n      not(0x1f)\n      0x1f\n      dup3\n      add\n      and\n      dup3\n      add\n      dup1\n      0x40\n      mstore\n      pop\n      dup2\n      add\n      swap1\n      tag_148\n      swap2\n      swap1\n      tag_149\n      jump\t// in\n    tag_148:\n      0x01\n    tag_147:\n        /* \"upgradeContract/v2/openzeppelin_L/contracts/proxy/ERC1967/ERC1967Upgrade.sol\":3276:3571  try IERC1822Proxiable(newImplementation).proxiableUUID() returns (bytes32 slot) {\r... */\n      tag_150\n      jumpi\n        /* \"upgradeContract/v2/openzeppelin_L/contracts/proxy/ERC1967/ERC1967Upgrade.sol\":3499:3555  revert(\"ERC1967Upgrade: new implementation is not UUPS\") */\n      mload(0x40)\n      0x08c379a000000000000000000000000000000000000000000000000000000000\n      dup2\n      mstore\n      0x04\n      add\n      tag_154\n      swap1\n      tag_155\n      jump\t// in\n    tag_154:\n      mload(0x40)\n      dup1\n      swap2\n      sub\n      swap1\n      revert\n        /* \"upgradeContract/v2/openzeppelin_L/contracts/proxy/ERC1967/ERC1967Upgrade.sol\":3276:3571  try IERC1822Proxiable(newImplementation).proxiableUUID() returns (bytes32 slot) {\r... */\n    tag_150:\n        /* \"upgradeContract/v2/openzeppelin_L/contracts/proxy/ERC1967/ERC1967Upgrade.sol\":1213:1279  0x360894a13ba1a3210667c828492db98dca3e2076cc3735a920a3ca505d382bbc */\n      0x360894a13ba1a3210667c828492db98dca3e2076cc3735a920a3ca505d382bbc\n        /* \"upgradeContract/v2/openzeppelin_L/contracts/proxy/ERC1967/ERC1967Upgrade.sol\":3391:3411  _IMPLEMENTATION_SLOT */\n      0x00\n      shl\n        /* \"upgradeContract/v2/openzeppelin_L/contracts/proxy/ERC1967/ERC1967Upgrade.sol\":3383:3387  slot */\n      dup2\n        /* \"upgradeContract/v2/openzeppelin_L/contracts/proxy/ERC1967/ERC1967Upgrade.sol\":3383:3411  slot == _IMPLEMENTATION_SLOT */\n      eq\n        /* \"upgradeContract/v2/openzeppelin_L/contracts/proxy/ERC1967/ERC1967Upgrade.sol\":3375:3457  require(slot == _IMPLEMENTATION_SLOT, \"ERC1967Upgrade: unsupported proxiableUUID\") */\n      tag_157\n      jumpi\n      mload(0x40)\n      0x08c379a000000000000000000000000000000000000000000000000000000000\n      dup2\n      mstore\n      0x04\n      add\n      tag_158\n      swap1\n      tag_159\n      jump\t// in\n    tag_158:\n      mload(0x40)\n      dup1\n      swap2\n      sub\n      swap1\n      revert\n    tag_157:\n        /* \"upgradeContract/v2/openzeppelin_L/contracts/proxy/ERC1967/ERC1967Upgrade.sol\":3333:3473  returns (bytes32 slot) {\r... */\n      pop\n        /* \"upgradeContract/v2/openzeppelin_L/contracts/proxy/ERC1967/ERC1967Upgrade.sol\":3585:3638  _upgradeToAndCall(newImplementation, data, forceCall) */\n      tag_160\n        /* \"upgradeContract/v2/openzeppelin_L/contracts/proxy/ERC1967/ERC1967Upgrade.sol\":3603:3620  newImplementation */\n      dup4\n        /* \"upgradeContract/v2/openzeppelin_L/contracts/proxy/ERC1967/ERC1967Upgrade.sol\":3622:3626  data */\n      dup4\n        /* \"upgradeContract/v2/openzeppelin_L/contracts/proxy/ERC1967/ERC1967Upgrade.sol\":3628:3637  forceCall */\n      dup4\n        /* \"upgradeContract/v2/openzeppelin_L/contracts/proxy/ERC1967/ERC1967Upgrade.sol\":3585:3602  _upgradeToAndCall */\n      tag_161\n        /* \"upgradeContract/v2/openzeppelin_L/contracts/proxy/ERC1967/ERC1967Upgrade.sol\":3585:3638  _upgradeToAndCall(newImplementation, data, forceCall) */\n      jump\t// in\n    tag_160:\n        /* \"upgradeContract/v2/openzeppelin_L/contracts/proxy/ERC1967/ERC1967Upgrade.sol\":3137:3650  if (StorageSlot.getBooleanSlot(_ROLLBACK_SLOT).value) {\r... */\n    tag_145:\n        /* \"upgradeContract/v2/openzeppelin_L/contracts/proxy/ERC1967/ERC1967Upgrade.sol\":2721:3657  function _upgradeToAndCallUUPS(address newImplementation, bytes memory data, bool forceCall) internal {\r... */\n      pop\n      pop\n      pop\n      jump\t// out\n        /* \"upgradeContract/v2/openzeppelin_L/contracts-upgradeable/access/OwnableUpgradeable.sol\":1674:1806  function _checkOwner() internal view virtual {\r... */\n    tag_100:\n        /* \"upgradeContract/v2/openzeppelin_L/contracts-upgradeable/access/OwnableUpgradeable.sol\":1749:1761  _msgSender() */\n      tag_163\n        /* \"upgradeContract/v2/openzeppelin_L/contracts-upgradeable/access/OwnableUpgradeable.sol\":1749:1759  _msgSender */\n      tag_164\n        /* \"upgradeContract/v2/openzeppelin_L/contracts-upgradeable/access/OwnableUpgradeable.sol\":1749:1761  _msgSender() */\n      jump\t// in\n    tag_163:\n        /* \"upgradeContract/v2/openzeppelin_L/contracts-upgradeable/access/OwnableUpgradeable.sol\":1738:1761  owner() == _msgSender() */\n      0xffffffffffffffffffffffffffffffffffffffff\n      and\n        /* \"upgradeContract/v2/openzeppelin_L/contracts-upgradeable/access/OwnableUpgradeable.sol\":1738:1745  owner() */\n      tag_165\n        /* \"upgradeContract/v2/openzeppelin_L/contracts-upgradeable/access/OwnableUpgradeable.sol\":1738:1743  owner */\n      tag_48\n        /* \"upgradeContract/v2/openzeppelin_L/contracts-upgradeable/access/OwnableUpgradeable.sol\":1738:1745  owner() */\n      jump\t// in\n    tag_165:\n        /* \"upgradeContract/v2/openzeppelin_L/contracts-upgradeable/access/OwnableUpgradeable.sol\":1738:1761  owner() == _msgSender() */\n      0xffffffffffffffffffffffffffffffffffffffff\n      and\n      eq\n        /* \"upgradeContract/v2/openzeppelin_L/contracts-upgradeable/access/OwnableUpgradeable.sol\":1730:1798  require(owner() == _msgSender(), \"Ownable: caller is not the owner\") */\n      tag_166\n      jumpi\n      mload(0x40)\n      0x08c379a000000000000000000000000000000000000000000000000000000000\n      dup2\n      mstore\n      0x04\n      add\n      tag_167\n      swap1\n      tag_168\n      jump\t// in\n    tag_167:\n      mload(0x40)\n      dup1\n      swap2\n      sub\n      swap1\n      revert\n    tag_166:\n        /* \"upgradeContract/v2/openzeppelin_L/contracts-upgradeable/access/OwnableUpgradeable.sol\":1674:1806  function _checkOwner() internal view virtual {\r... */\n      jump\t// out\n        /* \"upgradeContract/v2/openzeppelin_L/contracts-upgradeable/access/OwnableUpgradeable.sol\":2769:2960  function _transferOwnership(address newOwner) internal virtual {\r... */\n    tag_103:\n        /* \"upgradeContract/v2/openzeppelin_L/contracts-upgradeable/access/OwnableUpgradeable.sol\":2843:2859  address oldOwner */\n      0x00\n        /* \"upgradeContract/v2/openzeppelin_L/contracts-upgradeable/access/OwnableUpgradeable.sol\":2862:2868  _owner */\n      0x33\n      0x00\n      swap1\n      sload\n      swap1\n      0x0100\n      exp\n      swap1\n      div\n      0xffffffffffffffffffffffffffffffffffffffff\n      and\n        /* \"upgradeContract/v2/openzeppelin_L/contracts-upgradeable/access/OwnableUpgradeable.sol\":2843:2868  address oldOwner = _owner */\n      swap1\n      pop\n        /* \"upgradeContract/v2/openzeppelin_L/contracts-upgradeable/access/OwnableUpgradeable.sol\":2888:2896  newOwner */\n      dup2\n        /* \"upgradeContract/v2/openzeppelin_L/contracts-upgradeable/access/OwnableUpgradeable.sol\":2879:2885  _owner */\n      0x33\n      0x00\n        /* \"upgradeContract/v2/openzeppelin_L/contracts-upgradeable/access/OwnableUpgradeable.sol\":2879:2896  _owner = newOwner */\n      0x0100\n      exp\n      dup2\n      sload\n      dup2\n      0xffffffffffffffffffffffffffffffffffffffff\n      mul\n      not\n      and\n      swap1\n      dup4\n      0xffffffffffffffffffffffffffffffffffffffff\n      and\n      mul\n      or\n      swap1\n      sstore\n      pop\n        /* \"upgradeContract/v2/openzeppelin_L/contracts-upgradeable/access/OwnableUpgradeable.sol\":2943:2951  newOwner */\n      dup2\n        /* \"upgradeContract/v2/openzeppelin_L/contracts-upgradeable/access/OwnableUpgradeable.sol\":2912:2952  OwnershipTransferred(oldOwner, newOwner) */\n      0xffffffffffffffffffffffffffffffffffffffff\n      and\n        /* \"upgradeContract/v2/openzeppelin_L/contracts-upgradeable/access/OwnableUpgradeable.sol\":2933:2941  oldOwner */\n      dup2\n        /* \"upgradeContract/v2/openzeppelin_L/contracts-upgradeable/access/OwnableUpgradeable.sol\":2912:2952  OwnershipTransferred(oldOwner, newOwner) */\n      0xffffffffffffffffffffffffffffffffffffffff\n      and\n      0x8be0079c531659141344cd1fd0a4f28419497f9722a3daafe3b4186f6b6457e0\n      mload(0x40)\n      mload(0x40)\n      dup1\n      swap2\n      sub\n      swap1\n      log3\n        /* \"upgradeContract/v2/openzeppelin_L/contracts-upgradeable/access/OwnableUpgradeable.sol\":2769:2960  function _transferOwnership(address newOwner) internal virtual {\r... */\n      pop\n      pop\n      jump\t// out\n        /* \"upgradeContract/v2/openzeppelin_L/contracts-upgradeable/proxy/utils/Initializable.sol\":4015:4182  function _isConstructor() private view returns (bool) {\r... */\n    tag_108:\n        /* \"upgradeContract/v2/openzeppelin_L/contracts-upgradeable/proxy/utils/Initializable.sol\":4063:4067  bool */\n      0x00\n        /* \"upgradeContract/v2/openzeppelin_L/contracts-upgradeable/proxy/utils/Initializable.sol\":4117:4118  0 */\n      dup1\n        /* \"upgradeContract/v2/openzeppelin_L/contracts-upgradeable/proxy/utils/Initializable.sol\":4097:4101  this */\n      address\n        /* \"upgradeContract/v2/openzeppelin_L/contracts-upgradeable/proxy/utils/Initializable.sol\":4089:4114  address(this).code.length */\n      0xffffffffffffffffffffffffffffffffffffffff\n      and\n      extcodesize\n        /* \"upgradeContract/v2/openzeppelin_L/contracts-upgradeable/proxy/utils/Initializable.sol\":4089:4118  address(this).code.length > 0 */\n      gt\n        /* \"upgradeContract/v2/openzeppelin_L/contracts-upgradeable/proxy/utils/Initializable.sol\":4087:4119  !(address(this).code.length > 0) */\n      iszero\n        /* \"upgradeContract/v2/openzeppelin_L/contracts-upgradeable/proxy/utils/Initializable.sol\":4080:4119  return !(address(this).code.length > 0) */\n      swap1\n      pop\n        /* \"upgradeContract/v2/openzeppelin_L/contracts-upgradeable/proxy/utils/Initializable.sol\":4015:4182  function _isConstructor() private view returns (bool) {\r... */\n      swap1\n      jump\t// out\n        /* \"upgradeContract/v2/openzeppelin_L/contracts-upgradeable/access/OwnableUpgradeable.sol\":1052:1149  function __Ownable_init() internal onlyInitializing {\r... */\n    tag_115:\n        /* \"upgradeContract/v2/openzeppelin_L/contracts-upgradeable/proxy/utils/Initializable.sol\":3923:3936  _initializing */\n      0x00\n      0x01\n      swap1\n      sload\n      swap1\n      0x0100\n      exp\n      swap1\n      div\n      0xff\n      and\n        /* \"upgradeContract/v2/openzeppelin_L/contracts-upgradeable/proxy/utils/Initializable.sol\":3915:3984  require(_initializing, \"Initializable: contract is not initializing\") */\n      tag_172\n      jumpi\n      mload(0x40)\n      0x08c379a000000000000000000000000000000000000000000000000000000000\n      dup2\n      mstore\n      0x04\n      add\n      tag_173\n      swap1\n      tag_174\n      jump\t// in\n    tag_173:\n      mload(0x40)\n      dup1\n      swap2\n      sub\n      swap1\n      revert\n    tag_172:\n        /* \"upgradeContract/v2/openzeppelin_L/contracts-upgradeable/access/OwnableUpgradeable.sol\":1115:1141  __Ownable_init_unchained() */\n      tag_176\n        /* \"upgradeContract/v2/openzeppelin_L/contracts-upgradeable/access/OwnableUpgradeable.sol\":1115:1139  __Ownable_init_unchained */\n      tag_177\n        /* \"upgradeContract/v2/openzeppelin_L/contracts-upgradeable/access/OwnableUpgradeable.sol\":1115:1141  __Ownable_init_unchained() */\n      jump\t// in\n    tag_176:\n        /* \"upgradeContract/v2/openzeppelin_L/contracts-upgradeable/access/OwnableUpgradeable.sol\":1052:1149  function __Ownable_init() internal onlyInitializing {\r... */\n      jump\t// out\n        /* \"@openzeppelin/contracts@4.9.6/utils/StorageSlot.sol\":1859:2049  function getAddressSlot(bytes32 slot) internal pure returns (AddressSlot storage r) {... */\n    tag_135:\n        /* \"@openzeppelin/contracts@4.9.6/utils/StorageSlot.sol\":1920:1941  AddressSlot storage r */\n      0x00\n        /* \"@openzeppelin/contracts@4.9.6/utils/StorageSlot.sol\":2029:2033  slot */\n      dup2\n        /* \"@openzeppelin/contracts@4.9.6/utils/StorageSlot.sol\":2019:2033  r.slot := slot */\n      swap1\n      pop\n        /* \"@openzeppelin/contracts@4.9.6/utils/StorageSlot.sol\":2005:2043  {... */\n      swap2\n      swap1\n      pop\n      jump\t// out\n        /* \"@openzeppelin/contracts@4.9.6/utils/StorageSlot.sol\":2147:2337  function getBooleanSlot(bytes32 slot) internal pure returns (BooleanSlot storage r) {... */\n    tag_141:\n        /* \"@openzeppelin/contracts@4.9.6/utils/StorageSlot.sol\":2208:2229  BooleanSlot storage r */\n      0x00\n        /* \"@openzeppelin/contracts@4.9.6/utils/StorageSlot.sol\":2317:2321  slot */\n      dup2\n        /* \"@openzeppelin/contracts@4.9.6/utils/StorageSlot.sol\":2307:2321  r.slot := slot */\n      swap1\n      pop\n        /* \"@openzeppelin/contracts@4.9.6/utils/StorageSlot.sol\":2293:2331  {... */\n      swap2\n      swap1\n      pop\n      jump\t// out\n        /* \"upgradeContract/v2/openzeppelin_L/contracts/proxy/ERC1967/ERC1967Upgrade.sol\":1601:1863  function _setImplementation(address newImplementation) private {\r... */\n    tag_144:\n        /* \"upgradeContract/v2/openzeppelin_L/contracts/proxy/ERC1967/ERC1967Upgrade.sol\":1683:1720  Address.isContract(newImplementation) */\n      tag_181\n        /* \"upgradeContract/v2/openzeppelin_L/contracts/proxy/ERC1967/ERC1967Upgrade.sol\":1702:1719  newImplementation */\n      dup2\n        /* \"upgradeContract/v2/openzeppelin_L/contracts/proxy/ERC1967/ERC1967Upgrade.sol\":1683:1701  Address.isContract */\n      tag_182\n        /* \"upgradeContract/v2/openzeppelin_L/contracts/proxy/ERC1967/ERC1967Upgrade.sol\":1683:1720  Address.isContract(newImplementation) */\n      jump\t// in\n    tag_181:\n        /* \"upgradeContract/v2/openzeppelin_L/contracts/proxy/ERC1967/ERC1967Upgrade.sol\":1675:1770  require(Address.isContract(newImplementation), \"ERC1967: new implementation is not a contract\") */\n      tag_183\n      jumpi\n      mload(0x40)\n      0x08c379a000000000000000000000000000000000000000000000000000000000\n      dup2\n      mstore\n      0x04\n      add\n      tag_184\n      swap1\n      tag_185\n      jump\t// in\n    tag_184:\n      mload(0x40)\n      dup1\n      swap2\n      sub\n      swap1\n      revert\n    tag_183:\n        /* \"upgradeContract/v2/openzeppelin_L/contracts/proxy/ERC1967/ERC1967Upgrade.sol\":1838:1855  newImplementation */\n      dup1\n        /* \"upgradeContract/v2/openzeppelin_L/contracts/proxy/ERC1967/ERC1967Upgrade.sol\":1781:1829  StorageSlot.getAddressSlot(_IMPLEMENTATION_SLOT) */\n      tag_186\n        /* \"upgradeContract/v2/openzeppelin_L/contracts/proxy/ERC1967/ERC1967Upgrade.sol\":1213:1279  0x360894a13ba1a3210667c828492db98dca3e2076cc3735a920a3ca505d382bbc */\n      0x360894a13ba1a3210667c828492db98dca3e2076cc3735a920a3ca505d382bbc\n        /* \"upgradeContract/v2/openzeppelin_L/contracts/proxy/ERC1967/ERC1967Upgrade.sol\":1808:1828  _IMPLEMENTATION_SLOT */\n      0x00\n      shl\n        /* \"upgradeContract/v2/openzeppelin_L/contracts/proxy/ERC1967/ERC1967Upgrade.sol\":1781:1807  StorageSlot.getAddressSlot */\n      tag_135\n        /* \"upgradeContract/v2/openzeppelin_L/contracts/proxy/ERC1967/ERC1967Upgrade.sol\":1781:1829  StorageSlot.getAddressSlot(_IMPLEMENTATION_SLOT) */\n      jump\t// in\n    tag_186:\n        /* \"upgradeContract/v2/openzeppelin_L/contracts/proxy/ERC1967/ERC1967Upgrade.sol\":1781:1835  StorageSlot.getAddressSlot(_IMPLEMENTATION_SLOT).value */\n      0x00\n      add\n      0x00\n        /* \"upgradeContract/v2/openzeppelin_L/contracts/proxy/ERC1967/ERC1967Upgrade.sol\":1781:1855  StorageSlot.getAddressSlot(_IMPLEMENTATION_SLOT).value = newImplementation */\n      0x0100\n      exp\n      dup2\n      sload\n      dup2\n      0xffffffffffffffffffffffffffffffffffffffff\n      mul\n      not\n      and\n      swap1\n      dup4\n      0xffffffffffffffffffffffffffffffffffffffff\n      and\n      mul\n      or\n      swap1\n      sstore\n      pop\n        /* \"upgradeContract/v2/openzeppelin_L/contracts/proxy/ERC1967/ERC1967Upgrade.sol\":1601:1863  function _setImplementation(address newImplementation) private {\r... */\n      pop\n      jump\t// out\n        /* \"upgradeContract/v2/openzeppelin_L/contracts/proxy/ERC1967/ERC1967Upgrade.sol\":2272:2542  function _upgradeToAndCall(address newImplementation, bytes memory data, bool forceCall) internal {\r... */\n    tag_161:\n        /* \"upgradeContract/v2/openzeppelin_L/contracts/proxy/ERC1967/ERC1967Upgrade.sol\":2381:2410  _upgradeTo(newImplementation) */\n      tag_188\n        /* \"upgradeContract/v2/openzeppelin_L/contracts/proxy/ERC1967/ERC1967Upgrade.sol\":2392:2409  newImplementation */\n      dup4\n        /* \"upgradeContract/v2/openzeppelin_L/contracts/proxy/ERC1967/ERC1967Upgrade.sol\":2381:2391  _upgradeTo */\n      tag_189\n        /* \"upgradeContract/v2/openzeppelin_L/contracts/proxy/ERC1967/ERC1967Upgrade.sol\":2381:2410  _upgradeTo(newImplementation) */\n      jump\t// in\n    tag_188:\n        /* \"upgradeContract/v2/openzeppelin_L/contracts/proxy/ERC1967/ERC1967Upgrade.sol\":2439:2440  0 */\n      0x00\n        /* \"upgradeContract/v2/openzeppelin_L/contracts/proxy/ERC1967/ERC1967Upgrade.sol\":2425:2429  data */\n      dup3\n        /* \"upgradeContract/v2/openzeppelin_L/contracts/proxy/ERC1967/ERC1967Upgrade.sol\":2425:2436  data.length */\n      mload\n        /* \"upgradeContract/v2/openzeppelin_L/contracts/proxy/ERC1967/ERC1967Upgrade.sol\":2425:2440  data.length > 0 */\n      gt\n        /* \"upgradeContract/v2/openzeppelin_L/contracts/proxy/ERC1967/ERC1967Upgrade.sol\":2425:2453  data.length > 0 || forceCall */\n      dup1\n      tag_190\n      jumpi\n      pop\n        /* \"upgradeContract/v2/openzeppelin_L/contracts/proxy/ERC1967/ERC1967Upgrade.sol\":2444:2453  forceCall */\n      dup1\n        /* \"upgradeContract/v2/openzeppelin_L/contracts/proxy/ERC1967/ERC1967Upgrade.sol\":2425:2453  data.length > 0 || forceCall */\n    tag_190:\n        /* \"upgradeContract/v2/openzeppelin_L/contracts/proxy/ERC1967/ERC1967Upgrade.sol\":2421:2535  if (data.length > 0 || forceCall) {\r... */\n      iszero\n      tag_191\n      jumpi\n        /* \"upgradeContract/v2/openzeppelin_L/contracts/proxy/ERC1967/ERC1967Upgrade.sol\":2470:2523  Address.functionDelegateCall(newImplementation, data) */\n      tag_192\n        /* \"upgradeContract/v2/openzeppelin_L/contracts/proxy/ERC1967/ERC1967Upgrade.sol\":2499:2516  newImplementation */\n      dup4\n        /* \"upgradeContract/v2/openzeppelin_L/contracts/proxy/ERC1967/ERC1967Upgrade.sol\":2518:2522  data */\n      dup4\n        /* \"upgradeContract/v2/openzeppelin_L/contracts/proxy/ERC1967/ERC1967Upgrade.sol\":2470:2498  Address.functionDelegateCall */\n      tag_193\n        /* \"upgradeContract/v2/openzeppelin_L/contracts/proxy/ERC1967/ERC1967Upgrade.sol\":2470:2523  Address.functionDelegateCall(newImplementation, data) */\n      jump\t// in\n    tag_192:\n      pop\n        /* \"upgradeContract/v2/openzeppelin_L/contracts/proxy/ERC1967/ERC1967Upgrade.sol\":2421:2535  if (data.length > 0 || forceCall) {\r... */\n    tag_191:\n        /* \"upgradeContract/v2/openzeppelin_L/contracts/proxy/ERC1967/ERC1967Upgrade.sol\":2272:2542  function _upgradeToAndCall(address newImplementation, bytes memory data, bool forceCall) internal {\r... */\n      pop\n      pop\n      pop\n      jump\t// out\n        /* \"upgradeContract/v2/openzeppelin_L/contracts-upgradeable/utils/ContextUpgradeable.sol\":908:1006  function _msgSender() internal view virtual returns (address) {\r... */\n    tag_164:\n        /* \"upgradeContract/v2/openzeppelin_L/contracts-upgradeable/utils/ContextUpgradeable.sol\":961:968  address */\n      0x00\n        /* \"upgradeContract/v2/openzeppelin_L/contracts-upgradeable/utils/ContextUpgradeable.sol\":988:998  msg.sender */\n      caller\n        /* \"upgradeContract/v2/openzeppelin_L/contracts-upgradeable/utils/ContextUpgradeable.sol\":981:998  return msg.sender */\n      swap1\n      pop\n        /* \"upgradeContract/v2/openzeppelin_L/contracts-upgradeable/utils/ContextUpgradeable.sol\":908:1006  function _msgSender() internal view virtual returns (address) {\r... */\n      swap1\n      jump\t// out\n        /* \"upgradeContract/v2/openzeppelin_L/contracts-upgradeable/access/OwnableUpgradeable.sol\":1157:1270  function __Ownable_init_unchained() internal onlyInitializing {\r... */\n    tag_177:\n        /* \"upgradeContract/v2/openzeppelin_L/contracts-upgradeable/proxy/utils/Initializable.sol\":3923:3936  _initializing */\n      0x00\n      0x01\n      swap1\n      sload\n      swap1\n      0x0100\n      exp\n      swap1\n      div\n      0xff\n      and\n        /* \"upgradeContract/v2/openzeppelin_L/contracts-upgradeable/proxy/utils/Initializable.sol\":3915:3984  require(_initializing, \"Initializable: contract is not initializing\") */\n      tag_196\n      jumpi\n      mload(0x40)\n      0x08c379a000000000000000000000000000000000000000000000000000000000\n      dup2\n      mstore\n      0x04\n      add\n      tag_197\n      swap1\n      tag_174\n      jump\t// in\n    tag_197:\n      mload(0x40)\n      dup1\n      swap2\n      sub\n      swap1\n      revert\n    tag_196:\n        /* \"upgradeContract/v2/openzeppelin_L/contracts-upgradeable/access/OwnableUpgradeable.sol\":1230:1262  _transferOwnership(_msgSender()) */\n      tag_199\n        /* \"upgradeContract/v2/openzeppelin_L/contracts-upgradeable/access/OwnableUpgradeable.sol\":1249:1261  _msgSender() */\n      tag_200\n        /* \"upgradeContract/v2/openzeppelin_L/contracts-upgradeable/access/OwnableUpgradeable.sol\":1249:1259  _msgSender */\n      tag_164\n        /* \"upgradeContract/v2/openzeppelin_L/contracts-upgradeable/access/OwnableUpgradeable.sol\":1249:1261  _msgSender() */\n      jump\t// in\n    tag_200:\n        /* \"upgradeContract/v2/openzeppelin_L/contracts-upgradeable/access/OwnableUpgradeable.sol\":1230:1248  _transferOwnership */\n      tag_103\n        /* \"upgradeContract/v2/openzeppelin_L/contracts-upgradeable/access/OwnableUpgradeable.sol\":1230:1262  _transferOwnership(_msgSender()) */\n      jump\t// in\n    tag_199:\n        /* \"upgradeContract/v2/openzeppelin_L/contracts-upgradeable/access/OwnableUpgradeable.sol\":1157:1270  function __Ownable_init_unchained() internal onlyInitializing {\r... */\n      jump\t// out\n        /* \"@openzeppelin/contracts@4.9.6/utils/Address.sol\":1412:1732  function isContract(address account) internal view returns (bool) {... */\n    tag_182:\n        /* \"@openzeppelin/contracts@4.9.6/utils/Address.sol\":1472:1476  bool */\n      0x00\n        /* \"@openzeppelin/contracts@4.9.6/utils/Address.sol\":1724:1725  0 */\n      dup1\n        /* \"@openzeppelin/contracts@4.9.6/utils/Address.sol\":1702:1709  account */\n      dup3\n        /* \"@openzeppelin/contracts@4.9.6/utils/Address.sol\":1702:1721  account.code.length */\n      0xffffffffffffffffffffffffffffffffffffffff\n      and\n      extcodesize\n        /* \"@openzeppelin/contracts@4.9.6/utils/Address.sol\":1702:1725  account.code.length > 0 */\n      gt\n        /* \"@openzeppelin/contracts@4.9.6/utils/Address.sol\":1695:1725  return account.code.length > 0 */\n      swap1\n      pop\n        /* \"@openzeppelin/contracts@4.9.6/utils/Address.sol\":1412:1732  function isContract(address account) internal view returns (bool) {... */\n      swap2\n      swap1\n      pop\n      jump\t// out\n        /* \"upgradeContract/v2/openzeppelin_L/contracts/proxy/ERC1967/ERC1967Upgrade.sol\":1976:2131  function _upgradeTo(address newImplementation) internal {\r... */\n    tag_189:\n        /* \"upgradeContract/v2/openzeppelin_L/contracts/proxy/ERC1967/ERC1967Upgrade.sol\":2043:2080  _setImplementation(newImplementation) */\n      tag_203\n        /* \"upgradeContract/v2/openzeppelin_L/contracts/proxy/ERC1967/ERC1967Upgrade.sol\":2062:2079  newImplementation */\n      dup2\n        /* \"upgradeContract/v2/openzeppelin_L/contracts/proxy/ERC1967/ERC1967Upgrade.sol\":2043:2061  _setImplementation */\n      tag_144\n        /* \"upgradeContract/v2/openzeppelin_L/contracts/proxy/ERC1967/ERC1967Upgrade.sol\":2043:2080  _setImplementation(newImplementation) */\n      jump\t// in\n    tag_203:\n        /* \"upgradeContract/v2/openzeppelin_L/contracts/proxy/ERC1967/ERC1967Upgrade.sol\":2105:2122  newImplementation */\n      dup1\n        /* \"upgradeContract/v2/openzeppelin_L/contracts/proxy/ERC1967/ERC1967Upgrade.sol\":2096:2123  Upgraded(newImplementation) */\n      0xffffffffffffffffffffffffffffffffffffffff\n      and\n      0xbc7cd75a20ee27fd9adebab32041f755214dbc6bffa90cc0225b39da2e5c2d3b\n      mload(0x40)\n      mload(0x40)\n      dup1\n      swap2\n      sub\n      swap1\n      log2\n        /* \"upgradeContract/v2/openzeppelin_L/contracts/proxy/ERC1967/ERC1967Upgrade.sol\":1976:2131  function _upgradeTo(address newImplementation) internal {\r... */\n      pop\n      jump\t// out\n        /* \"@openzeppelin/contracts@4.9.6/utils/Address.sol\":6674:6872  function functionDelegateCall(address target, bytes memory data) internal returns (bytes memory) {... */\n    tag_193:\n        /* \"@openzeppelin/contracts@4.9.6/utils/Address.sol\":6757:6769  bytes memory */\n      0x60\n        /* \"@openzeppelin/contracts@4.9.6/utils/Address.sol\":6788:6865  functionDelegateCall(target, data, \"Address: low-level delegate call failed\") */\n      tag_205\n        /* \"@openzeppelin/contracts@4.9.6/utils/Address.sol\":6809:6815  target */\n      dup4\n        /* \"@openzeppelin/contracts@4.9.6/utils/Address.sol\":6817:6821  data */\n      dup4\n        /* \"@openzeppelin/contracts@4.9.6/utils/Address.sol\":6788:6865  functionDelegateCall(target, data, \"Address: low-level delegate call failed\") */\n      mload(0x40)\n      dup1\n      0x60\n      add\n      0x40\n      mstore\n      dup1\n      0x27\n      dup2\n      mstore\n      0x20\n      add\n      data_9fdcd12e4b726339b32a442b0a448365d5d85c96b2d2cff917b4f66c63110398\n      0x27\n      swap2\n      codecopy\n        /* \"@openzeppelin/contracts@4.9.6/utils/Address.sol\":6788:6808  functionDelegateCall */\n      tag_206\n        /* \"@openzeppelin/contracts@4.9.6/utils/Address.sol\":6788:6865  functionDelegateCall(target, data, \"Address: low-level delegate call failed\") */\n      jump\t// in\n    tag_205:\n        /* \"@openzeppelin/contracts@4.9.6/utils/Address.sol\":6781:6865  return functionDelegateCall(target, data, \"Address: low-level delegate call failed\") */\n      swap1\n      pop\n        /* \"@openzeppelin/contracts@4.9.6/utils/Address.sol\":6674:6872  function functionDelegateCall(address target, bytes memory data) internal returns (bytes memory) {... */\n      swap3\n      swap2\n      pop\n      pop\n      jump\t// out\n        /* \"@openzeppelin/contracts@4.9.6/utils/Address.sol\":7058:7383  function functionDelegateCall(... */\n    tag_206:\n        /* \"@openzeppelin/contracts@4.9.6/utils/Address.sol\":7199:7211  bytes memory */\n      0x60\n        /* \"@openzeppelin/contracts@4.9.6/utils/Address.sol\":7224:7236  bool success */\n      0x00\n        /* \"@openzeppelin/contracts@4.9.6/utils/Address.sol\":7238:7261  bytes memory returndata */\n      dup1\n        /* \"@openzeppelin/contracts@4.9.6/utils/Address.sol\":7265:7271  target */\n      dup6\n        /* \"@openzeppelin/contracts@4.9.6/utils/Address.sol\":7265:7284  target.delegatecall */\n      0xffffffffffffffffffffffffffffffffffffffff\n      and\n        /* \"@openzeppelin/contracts@4.9.6/utils/Address.sol\":7285:7289  data */\n      dup6\n        /* \"@openzeppelin/contracts@4.9.6/utils/Address.sol\":7265:7290  target.delegatecall(data) */\n      mload(0x40)\n      tag_208\n      swap2\n      swap1\n      tag_209\n      jump\t// in\n    tag_208:\n      0x00\n      mload(0x40)\n      dup1\n      dup4\n      sub\n      dup2\n      dup6\n      gas\n      delegatecall\n      swap2\n      pop\n      pop\n      returndatasize\n      dup1\n      0x00\n      dup2\n      eq\n      tag_212\n      jumpi\n      mload(0x40)\n      swap2\n      pop\n      and(add(returndatasize, 0x3f), not(0x1f))\n      dup3\n      add\n      0x40\n      mstore\n      returndatasize\n      dup3\n      mstore\n      returndatasize\n      0x00\n      0x20\n      dup5\n      add\n      returndatacopy\n      jump(tag_211)\n    tag_212:\n      0x60\n      swap2\n      pop\n    tag_211:\n      pop\n        /* \"@openzeppelin/contracts@4.9.6/utils/Address.sol\":7223:7290  (bool success, bytes memory returndata) = target.delegatecall(data) */\n      swap2\n      pop\n      swap2\n      pop\n        /* \"@openzeppelin/contracts@4.9.6/utils/Address.sol\":7307:7376  verifyCallResultFromTarget(target, success, returndata, errorMessage) */\n      tag_213\n        /* \"@openzeppelin/contracts@4.9.6/utils/Address.sol\":7334:7340  target */\n      dup7\n        /* \"@openzeppelin/contracts@4.9.6/utils/Address.sol\":7342:7349  success */\n      dup4\n        /* \"@openzeppelin/contracts@4.9.6/utils/Address.sol\":7351:7361  returndata */\n      dup4\n        /* \"@openzeppelin/contracts@4.9.6/utils/Address.sol\":7363:7375  errorMessage */\n      dup8\n        /* \"@openzeppelin/contracts@4.9.6/utils/Address.sol\":7307:7333  verifyCallResultFromTarget */\n      tag_214\n        /* \"@openzeppelin/contracts@4.9.6/utils/Address.sol\":7307:7376  verifyCallResultFromTarget(target, success, returndata, errorMessage) */\n      jump\t// in\n    tag_213:\n        /* \"@openzeppelin/contracts@4.9.6/utils/Address.sol\":7300:7376  return verifyCallResultFromTarget(target, success, returndata, errorMessage) */\n      swap3\n      pop\n      pop\n      pop\n        /* \"@openzeppelin/contracts@4.9.6/utils/Address.sol\":7058:7383  function functionDelegateCall(... */\n      swap4\n      swap3\n      pop\n      pop\n      pop\n      jump\t// out\n        /* \"@openzeppelin/contracts@4.9.6/utils/Address.sol\":7671:8299  function verifyCallResultFromTarget(... */\n    tag_214:\n        /* \"@openzeppelin/contracts@4.9.6/utils/Address.sol\":7851:7863  bytes memory */\n      0x60\n        /* \"@openzeppelin/contracts@4.9.6/utils/Address.sol\":7879:7886  success */\n      dup4\n        /* \"@openzeppelin/contracts@4.9.6/utils/Address.sol\":7875:8293  if (success) {... */\n      iszero\n      tag_216\n      jumpi\n        /* \"@openzeppelin/contracts@4.9.6/utils/Address.sol\":7927:7928  0 */\n      0x00\n        /* \"@openzeppelin/contracts@4.9.6/utils/Address.sol\":7906:7916  returndata */\n      dup4\n        /* \"@openzeppelin/contracts@4.9.6/utils/Address.sol\":7906:7923  returndata.length */\n      mload\n        /* \"@openzeppelin/contracts@4.9.6/utils/Address.sol\":7906:7928  returndata.length == 0 */\n      eq\n        /* \"@openzeppelin/contracts@4.9.6/utils/Address.sol\":7902:8188  if (returndata.length == 0) {... */\n      iszero\n      tag_217\n      jumpi\n        /* \"@openzeppelin/contracts@4.9.6/utils/Address.sol\":8121:8139  isContract(target) */\n      tag_218\n        /* \"@openzeppelin/contracts@4.9.6/utils/Address.sol\":8132:8138  target */\n      dup6\n        /* \"@openzeppelin/contracts@4.9.6/utils/Address.sol\":8121:8131  isContract */\n      tag_182\n        /* \"@openzeppelin/contracts@4.9.6/utils/Address.sol\":8121:8139  isContract(target) */\n      jump\t// in\n    tag_218:\n        /* \"@openzeppelin/contracts@4.9.6/utils/Address.sol\":8113:8173  require(isContract(target), \"Address: call to non-contract\") */\n      tag_219\n      jumpi\n      mload(0x40)\n      0x08c379a000000000000000000000000000000000000000000000000000000000\n      dup2\n      mstore\n      0x04\n      add\n      tag_220\n      swap1\n      tag_221\n      jump\t// in\n    tag_220:\n      mload(0x40)\n      dup1\n      swap2\n      sub\n      swap1\n      revert\n    tag_219:\n        /* \"@openzeppelin/contracts@4.9.6/utils/Address.sol\":7902:8188  if (returndata.length == 0) {... */\n    tag_217:\n        /* \"@openzeppelin/contracts@4.9.6/utils/Address.sol\":8208:8218  returndata */\n      dup3\n        /* \"@openzeppelin/contracts@4.9.6/utils/Address.sol\":8201:8218  return returndata */\n      swap1\n      pop\n      jump(tag_215)\n        /* \"@openzeppelin/contracts@4.9.6/utils/Address.sol\":7875:8293  if (success) {... */\n    tag_216:\n        /* \"@openzeppelin/contracts@4.9.6/utils/Address.sol\":8249:8282  _revert(returndata, errorMessage) */\n      tag_223\n        /* \"@openzeppelin/contracts@4.9.6/utils/Address.sol\":8257:8267  returndata */\n      dup4\n        /* \"@openzeppelin/contracts@4.9.6/utils/Address.sol\":8269:8281  errorMessage */\n      dup4\n        /* \"@openzeppelin/contracts@4.9.6/utils/Address.sol\":8249:8256  _revert */\n      tag_224\n        /* \"@openzeppelin/contracts@4.9.6/utils/Address.sol\":8249:8282  _revert(returndata, errorMessage) */\n      jump\t// in\n    tag_223:\n        /* \"@openzeppelin/contracts@4.9.6/utils/Address.sol\":7671:8299  function verifyCallResultFromTarget(... */\n    tag_215:\n      swap5\n      swap4\n      pop\n      pop\n      pop\n      pop\n      jump\t// out\n        /* \"@openzeppelin/contracts@4.9.6/utils/Address.sol\":8821:9361  function _revert(bytes memory returndata, string memory errorMessage) private pure {... */\n    tag_224:\n        /* \"@openzeppelin/contracts@4.9.6/utils/Address.sol\":9000:9001  0 */\n      0x00\n        /* \"@openzeppelin/contracts@4.9.6/utils/Address.sol\":8980:8990  returndata */\n      dup3\n        /* \"@openzeppelin/contracts@4.9.6/utils/Address.sol\":8980:8997  returndata.length */\n      mload\n        /* \"@openzeppelin/contracts@4.9.6/utils/Address.sol\":8980:9001  returndata.length > 0 */\n      gt\n        /* \"@openzeppelin/contracts@4.9.6/utils/Address.sol\":8976:9355  if (returndata.length > 0) {... */\n      iszero\n      tag_226\n      jumpi\n        /* \"@openzeppelin/contracts@4.9.6/utils/Address.sol\":9208:9218  returndata */\n      dup2\n        /* \"@openzeppelin/contracts@4.9.6/utils/Address.sol\":9202:9219  mload(returndata) */\n      mload\n        /* \"@openzeppelin/contracts@4.9.6/utils/Address.sol\":9264:9279  returndata_size */\n      dup1\n        /* \"@openzeppelin/contracts@4.9.6/utils/Address.sol\":9251:9261  returndata */\n      dup4\n        /* \"@openzeppelin/contracts@4.9.6/utils/Address.sol\":9247:9249  32 */\n      0x20\n        /* \"@openzeppelin/contracts@4.9.6/utils/Address.sol\":9243:9262  add(32, returndata) */\n      add\n        /* \"@openzeppelin/contracts@4.9.6/utils/Address.sol\":9236:9280  revert(add(32, returndata), returndata_size) */\n      revert\n        /* \"@openzeppelin/contracts@4.9.6/utils/Address.sol\":9161:9294  {... */\n    tag_226:\n        /* \"@openzeppelin/contracts@4.9.6/utils/Address.sol\":9331:9343  errorMessage */\n      dup1\n        /* \"@openzeppelin/contracts@4.9.6/utils/Address.sol\":9324:9344  revert(errorMessage) */\n      mload(0x40)\n      0x08c379a000000000000000000000000000000000000000000000000000000000\n      dup2\n      mstore\n      0x04\n      add\n      tag_228\n      swap2\n      swap1\n      tag_45\n      jump\t// in\n    tag_228:\n      mload(0x40)\n      dup1\n      swap2\n      sub\n      swap1\n      revert\n        /* \"#utility.yul\":7:350   */\n    tag_230:\n      0x00\n        /* \"#utility.yul\":109:174   */\n      tag_232\n        /* \"#utility.yul\":125:173   */\n      tag_233\n        /* \"#utility.yul\":166:172   */\n      dup5\n        /* \"#utility.yul\":125:173   */\n      tag_234\n      jump\t// in\n    tag_233:\n        /* \"#utility.yul\":109:174   */\n      tag_235\n      jump\t// in\n    tag_232:\n        /* \"#utility.yul\":100:174   */\n      swap1\n      pop\n        /* \"#utility.yul\":197:203   */\n      dup3\n        /* \"#utility.yul\":190:195   */\n      dup2\n        /* \"#utility.yul\":183:204   */\n      mstore\n        /* \"#utility.yul\":235:239   */\n      0x20\n        /* \"#utility.yul\":228:233   */\n      dup2\n        /* \"#utility.yul\":224:240   */\n      add\n        /* \"#utility.yul\":273:276   */\n      dup5\n        /* \"#utility.yul\":264:270   */\n      dup5\n        /* \"#utility.yul\":259:262   */\n      dup5\n        /* \"#utility.yul\":255:271   */\n      add\n        /* \"#utility.yul\":252:277   */\n      gt\n        /* \"#utility.yul\":249:251   */\n      iszero\n      tag_236\n      jumpi\n        /* \"#utility.yul\":290:291   */\n      0x00\n        /* \"#utility.yul\":287:288   */\n      dup1\n        /* \"#utility.yul\":280:292   */\n      revert\n        /* \"#utility.yul\":249:251   */\n    tag_236:\n        /* \"#utility.yul\":303:344   */\n      tag_237\n        /* \"#utility.yul\":337:343   */\n      dup5\n        /* \"#utility.yul\":332:335   */\n      dup3\n        /* \"#utility.yul\":327:330   */\n      dup6\n        /* \"#utility.yul\":303:344   */\n      tag_238\n      jump\t// in\n    tag_237:\n        /* \"#utility.yul\":90:350   */\n      pop\n      swap4\n      swap3\n      pop\n      pop\n      pop\n      jump\t// out\n        /* \"#utility.yul\":356:495   */\n    tag_239:\n      0x00\n        /* \"#utility.yul\":440:446   */\n      dup2\n        /* \"#utility.yul\":427:447   */\n      calldataload\n        /* \"#utility.yul\":418:447   */\n      swap1\n      pop\n        /* \"#utility.yul\":456:489   */\n      tag_241\n        /* \"#utility.yul\":483:488   */\n      dup2\n        /* \"#utility.yul\":456:489   */\n      tag_242\n      jump\t// in\n    tag_241:\n        /* \"#utility.yul\":408:495   */\n      swap3\n      swap2\n      pop\n      pop\n      jump\t// out\n        /* \"#utility.yul\":501:644   */\n    tag_243:\n      0x00\n        /* \"#utility.yul\":589:595   */\n      dup2\n        /* \"#utility.yul\":583:596   */\n      mload\n        /* \"#utility.yul\":574:596   */\n      swap1\n      pop\n        /* \"#utility.yul\":605:638   */\n      tag_245\n        /* \"#utility.yul\":632:637   */\n      dup2\n        /* \"#utility.yul\":605:638   */\n      tag_246\n      jump\t// in\n    tag_245:\n        /* \"#utility.yul\":564:644   */\n      swap3\n      swap2\n      pop\n      pop\n      jump\t// out\n        /* \"#utility.yul\":663:934   */\n    tag_247:\n      0x00\n        /* \"#utility.yul\":767:770   */\n      dup3\n        /* \"#utility.yul\":760:764   */\n      0x1f\n        /* \"#utility.yul\":752:758   */\n      dup4\n        /* \"#utility.yul\":748:765   */\n      add\n        /* \"#utility.yul\":744:771   */\n      slt\n        /* \"#utility.yul\":734:736   */\n      tag_249\n      jumpi\n        /* \"#utility.yul\":785:786   */\n      0x00\n        /* \"#utility.yul\":782:783   */\n      dup1\n        /* \"#utility.yul\":775:787   */\n      revert\n        /* \"#utility.yul\":734:736   */\n    tag_249:\n        /* \"#utility.yul\":825:831   */\n      dup2\n        /* \"#utility.yul\":812:832   */\n      calldataload\n        /* \"#utility.yul\":850:928   */\n      tag_250\n        /* \"#utility.yul\":924:927   */\n      dup5\n        /* \"#utility.yul\":916:922   */\n      dup3\n        /* \"#utility.yul\":909:913   */\n      0x20\n        /* \"#utility.yul\":901:907   */\n      dup7\n        /* \"#utility.yul\":897:914   */\n      add\n        /* \"#utility.yul\":850:928   */\n      tag_230\n      jump\t// in\n    tag_250:\n        /* \"#utility.yul\":841:928   */\n      swap2\n      pop\n        /* \"#utility.yul\":724:934   */\n      pop\n      swap3\n      swap2\n      pop\n      pop\n      jump\t// out\n        /* \"#utility.yul\":940:1202   */\n    tag_21:\n      0x00\n        /* \"#utility.yul\":1048:1050   */\n      0x20\n        /* \"#utility.yul\":1036:1045   */\n      dup3\n        /* \"#utility.yul\":1027:1034   */\n      dup5\n        /* \"#utility.yul\":1023:1046   */\n      sub\n        /* \"#utility.yul\":1019:1051   */\n      slt\n        /* \"#utility.yul\":1016:1018   */\n      iszero\n      tag_252\n      jumpi\n        /* \"#utility.yul\":1064:1065   */\n      0x00\n        /* \"#utility.yul\":1061:1062   */\n      dup1\n        /* \"#utility.yul\":1054:1066   */\n      revert\n        /* \"#utility.yul\":1016:1018   */\n    tag_252:\n        /* \"#utility.yul\":1107:1108   */\n      0x00\n        /* \"#utility.yul\":1132:1185   */\n      tag_253\n        /* \"#utility.yul\":1177:1184   */\n      dup5\n        /* \"#utility.yul\":1168:1174   */\n      dup3\n        /* \"#utility.yul\":1157:1166   */\n      dup6\n        /* \"#utility.yul\":1153:1175   */\n      add\n        /* \"#utility.yul\":1132:1185   */\n      tag_239\n      jump\t// in\n    tag_253:\n        /* \"#utility.yul\":1122:1185   */\n      swap2\n      pop\n        /* \"#utility.yul\":1078:1195   */\n      pop\n        /* \"#utility.yul\":1006:1202   */\n      swap3\n      swap2\n      pop\n      pop\n      jump\t// out\n        /* \"#utility.yul\":1208:1726   */\n    tag_25:\n      0x00\n      dup1\n        /* \"#utility.yul\":1342:1344   */\n      0x40\n        /* \"#utility.yul\":1330:1339   */\n      dup4\n        /* \"#utility.yul\":1321:1328   */\n      dup6\n        /* \"#utility.yul\":1317:1340   */\n      sub\n        /* \"#utility.yul\":1313:1345   */\n      slt\n        /* \"#utility.yul\":1310:1312   */\n      iszero\n      tag_255\n      jumpi\n        /* \"#utility.yul\":1358:1359   */\n      0x00\n        /* \"#utility.yul\":1355:1356   */\n      dup1\n        /* \"#utility.yul\":1348:1360   */\n      revert\n        /* \"#utility.yul\":1310:1312   */\n    tag_255:\n        /* \"#utility.yul\":1401:1402   */\n      0x00\n        /* \"#utility.yul\":1426:1479   */\n      tag_256\n        /* \"#utility.yul\":1471:1478   */\n      dup6\n        /* \"#utility.yul\":1462:1468   */\n      dup3\n        /* \"#utility.yul\":1451:1460   */\n      dup7\n        /* \"#utility.yul\":1447:1469   */\n      add\n        /* \"#utility.yul\":1426:1479   */\n      tag_239\n      jump\t// in\n    tag_256:\n        /* \"#utility.yul\":1416:1479   */\n      swap3\n      pop\n        /* \"#utility.yul\":1372:1489   */\n      pop\n        /* \"#utility.yul\":1556:1558   */\n      0x20\n        /* \"#utility.yul\":1545:1554   */\n      dup4\n        /* \"#utility.yul\":1541:1559   */\n      add\n        /* \"#utility.yul\":1528:1560   */\n      calldataload\n        /* \"#utility.yul\":1587:1605   */\n      0xffffffffffffffff\n        /* \"#utility.yul\":1579:1585   */\n      dup2\n        /* \"#utility.yul\":1576:1606   */\n      gt\n        /* \"#utility.yul\":1573:1575   */\n      iszero\n      tag_257\n      jumpi\n        /* \"#utility.yul\":1619:1620   */\n      0x00\n        /* \"#utility.yul\":1616:1617   */\n      dup1\n        /* \"#utility.yul\":1609:1621   */\n      revert\n        /* \"#utility.yul\":1573:1575   */\n    tag_257:\n        /* \"#utility.yul\":1647:1709   */\n      tag_258\n        /* \"#utility.yul\":1701:1708   */\n      dup6\n        /* \"#utility.yul\":1692:1698   */\n      dup3\n        /* \"#utility.yul\":1681:1690   */\n      dup7\n        /* \"#utility.yul\":1677:1699   */\n      add\n        /* \"#utility.yul\":1647:1709   */\n      tag_247\n      jump\t// in\n    tag_258:\n        /* \"#utility.yul\":1637:1709   */\n      swap2\n      pop\n        /* \"#utility.yul\":1499:1719   */\n      pop\n        /* \"#utility.yul\":1300:1726   */\n      swap3\n      pop\n      swap3\n      swap1\n      pop\n      jump\t// out\n        /* \"#utility.yul\":1732:2016   */\n    tag_149:\n      0x00\n        /* \"#utility.yul\":1851:1853   */\n      0x20\n        /* \"#utility.yul\":1839:1848   */\n      dup3\n        /* \"#utility.yul\":1830:1837   */\n      dup5\n        /* \"#utility.yul\":1826:1849   */\n      sub\n        /* \"#utility.yul\":1822:1854   */\n      slt\n        /* \"#utility.yul\":1819:1821   */\n      iszero\n      tag_260\n      jumpi\n        /* \"#utility.yul\":1867:1868   */\n      0x00\n        /* \"#utility.yul\":1864:1865   */\n      dup1\n        /* \"#utility.yul\":1857:1869   */\n      revert\n        /* \"#utility.yul\":1819:1821   */\n    tag_260:\n        /* \"#utility.yul\":1910:1911   */\n      0x00\n        /* \"#utility.yul\":1935:1999   */\n      tag_261\n        /* \"#utility.yul\":1991:1998   */\n      dup5\n        /* \"#utility.yul\":1982:1988   */\n      dup3\n        /* \"#utility.yul\":1971:1980   */\n      dup6\n        /* \"#utility.yul\":1967:1989   */\n      add\n        /* \"#utility.yul\":1935:1999   */\n      tag_243\n      jump\t// in\n    tag_261:\n        /* \"#utility.yul\":1925:1999   */\n      swap2\n      pop\n        /* \"#utility.yul\":1881:2009   */\n      pop\n        /* \"#utility.yul\":1809:2016   */\n      swap3\n      swap2\n      pop\n      pop\n      jump\t// out\n        /* \"#utility.yul\":2022:2140   */\n    tag_262:\n        /* \"#utility.yul\":2109:2133   */\n      tag_264\n        /* \"#utility.yul\":2127:2132   */\n      dup2\n        /* \"#utility.yul\":2109:2133   */\n      tag_265\n      jump\t// in\n    tag_264:\n        /* \"#utility.yul\":2104:2107   */\n      dup3\n        /* \"#utility.yul\":2097:2134   */\n      mstore\n        /* \"#utility.yul\":2087:2140   */\n      pop\n      pop\n      jump\t// out\n        /* \"#utility.yul\":2146:2264   */\n    tag_266:\n        /* \"#utility.yul\":2233:2257   */\n      tag_268\n        /* \"#utility.yul\":2251:2256   */\n      dup2\n        /* \"#utility.yul\":2233:2257   */\n      tag_269\n      jump\t// in\n    tag_268:\n        /* \"#utility.yul\":2228:2231   */\n      dup3\n        /* \"#utility.yul\":2221:2258   */\n      mstore\n        /* \"#utility.yul\":2211:2264   */\n      pop\n      pop\n      jump\t// out\n        /* \"#utility.yul\":2270:2643   */\n    tag_270:\n      0x00\n        /* \"#utility.yul\":2402:2440   */\n      tag_272\n        /* \"#utility.yul\":2434:2439   */\n      dup3\n        /* \"#utility.yul\":2402:2440   */\n      tag_273\n      jump\t// in\n    tag_272:\n        /* \"#utility.yul\":2456:2544   */\n      tag_274\n        /* \"#utility.yul\":2537:2543   */\n      dup2\n        /* \"#utility.yul\":2532:2535   */\n      dup6\n        /* \"#utility.yul\":2456:2544   */\n      tag_275\n      jump\t// in\n    tag_274:\n        /* \"#utility.yul\":2449:2544   */\n      swap4\n      pop\n        /* \"#utility.yul\":2553:2605   */\n      tag_276\n        /* \"#utility.yul\":2598:2604   */\n      dup2\n        /* \"#utility.yul\":2593:2596   */\n      dup6\n        /* \"#utility.yul\":2586:2590   */\n      0x20\n        /* \"#utility.yul\":2579:2584   */\n      dup7\n        /* \"#utility.yul\":2575:2591   */\n      add\n        /* \"#utility.yul\":2553:2605   */\n      tag_277\n      jump\t// in\n    tag_276:\n        /* \"#utility.yul\":2630:2636   */\n      dup1\n        /* \"#utility.yul\":2625:2628   */\n      dup5\n        /* \"#utility.yul\":2621:2637   */\n      add\n        /* \"#utility.yul\":2614:2637   */\n      swap2\n      pop\n        /* \"#utility.yul\":2378:2643   */\n      pop\n      swap3\n      swap2\n      pop\n      pop\n      jump\t// out\n        /* \"#utility.yul\":2649:3013   */\n    tag_278:\n      0x00\n        /* \"#utility.yul\":2765:2804   */\n      tag_280\n        /* \"#utility.yul\":2798:2803   */\n      dup3\n        /* \"#utility.yul\":2765:2804   */\n      tag_281\n      jump\t// in\n    tag_280:\n        /* \"#utility.yul\":2820:2891   */\n      tag_282\n        /* \"#utility.yul\":2884:2890   */\n      dup2\n        /* \"#utility.yul\":2879:2882   */\n      dup6\n        /* \"#utility.yul\":2820:2891   */\n      tag_283\n      jump\t// in\n    tag_282:\n        /* \"#utility.yul\":2813:2891   */\n      swap4\n      pop\n        /* \"#utility.yul\":2900:2952   */\n      tag_284\n        /* \"#utility.yul\":2945:2951   */\n      dup2\n        /* \"#utility.yul\":2940:2943   */\n      dup6\n        /* \"#utility.yul\":2933:2937   */\n      0x20\n        /* \"#utility.yul\":2926:2931   */\n      dup7\n        /* \"#utility.yul\":2922:2938   */\n      add\n        /* \"#utility.yul\":2900:2952   */\n      tag_277\n      jump\t// in\n    tag_284:\n        /* \"#utility.yul\":2977:3006   */\n      tag_285\n        /* \"#utility.yul\":2999:3005   */\n      dup2\n        /* \"#utility.yul\":2977:3006   */\n      tag_286\n      jump\t// in\n    tag_285:\n        /* \"#utility.yul\":2972:2975   */\n      dup5\n        /* \"#utility.yul\":2968:3007   */\n      add\n        /* \"#utility.yul\":2961:3007   */\n      swap2\n      pop\n        /* \"#utility.yul\":2741:3013   */\n      pop\n      swap3\n      swap2\n      pop\n      pop\n      jump\t// out\n        /* \"#utility.yul\":3019:3385   */\n    tag_287:\n      0x00\n        /* \"#utility.yul\":3182:3249   */\n      tag_289\n        /* \"#utility.yul\":3246:3248   */\n      0x26\n        /* \"#utility.yul\":3241:3244   */\n      dup4\n        /* \"#utility.yul\":3182:3249   */\n      tag_283\n      jump\t// in\n    tag_289:\n        /* \"#utility.yul\":3175:3249   */\n      swap2\n      pop\n        /* \"#utility.yul\":3258:3351   */\n      tag_290\n        /* \"#utility.yul\":3347:3350   */\n      dup3\n        /* \"#utility.yul\":3258:3351   */\n      tag_291\n      jump\t// in\n    tag_290:\n        /* \"#utility.yul\":3376:3378   */\n      0x40\n        /* \"#utility.yul\":3371:3374   */\n      dup3\n        /* \"#utility.yul\":3367:3379   */\n      add\n        /* \"#utility.yul\":3360:3379   */\n      swap1\n      pop\n        /* \"#utility.yul\":3165:3385   */\n      swap2\n      swap1\n      pop\n      jump\t// out\n        /* \"#utility.yul\":3391:3757   */\n    tag_292:\n      0x00\n        /* \"#utility.yul\":3554:3621   */\n      tag_294\n        /* \"#utility.yul\":3618:3620   */\n      0x2c\n        /* \"#utility.yul\":3613:3616   */\n      dup4\n        /* \"#utility.yul\":3554:3621   */\n      tag_283\n      jump\t// in\n    tag_294:\n        /* \"#utility.yul\":3547:3621   */\n      swap2\n      pop\n        /* \"#utility.yul\":3630:3723   */\n      tag_295\n        /* \"#utility.yul\":3719:3722   */\n      dup3\n        /* \"#utility.yul\":3630:3723   */\n      tag_296\n      jump\t// in\n    tag_295:\n        /* \"#utility.yul\":3748:3750   */\n      0x40\n        /* \"#utility.yul\":3743:3746   */\n      dup3\n        /* \"#utility.yul\":3739:3751   */\n      add\n        /* \"#utility.yul\":3732:3751   */\n      swap1\n      pop\n        /* \"#utility.yul\":3537:3757   */\n      swap2\n      swap1\n      pop\n      jump\t// out\n        /* \"#utility.yul\":3763:4129   */\n    tag_297:\n      0x00\n        /* \"#utility.yul\":3926:3993   */\n      tag_299\n        /* \"#utility.yul\":3990:3992   */\n      0x2c\n        /* \"#utility.yul\":3985:3988   */\n      dup4\n        /* \"#utility.yul\":3926:3993   */\n      tag_283\n      jump\t// in\n    tag_299:\n        /* \"#utility.yul\":3919:3993   */\n      swap2\n      pop\n        /* \"#utility.yul\":4002:4095   */\n      tag_300\n        /* \"#utility.yul\":4091:4094   */\n      dup3\n        /* \"#utility.yul\":4002:4095   */\n      tag_301\n      jump\t// in\n    tag_300:\n        /* \"#utility.yul\":4120:4122   */\n      0x40\n        /* \"#utility.yul\":4115:4118   */\n      dup3\n        /* \"#utility.yul\":4111:4123   */\n      add\n        /* \"#utility.yul\":4104:4123   */\n      swap1\n      pop\n        /* \"#utility.yul\":3909:4129   */\n      swap2\n      swap1\n      pop\n      jump\t// out\n        /* \"#utility.yul\":4135:4501   */\n    tag_302:\n      0x00\n        /* \"#utility.yul\":4298:4365   */\n      tag_304\n        /* \"#utility.yul\":4362:4364   */\n      0x38\n        /* \"#utility.yul\":4357:4360   */\n      dup4\n        /* \"#utility.yul\":4298:4365   */\n      tag_283\n      jump\t// in\n    tag_304:\n        /* \"#utility.yul\":4291:4365   */\n      swap2\n      pop\n        /* \"#utility.yul\":4374:4467   */\n      tag_305\n        /* \"#utility.yul\":4463:4466   */\n      dup3\n        /* \"#utility.yul\":4374:4467   */\n      tag_306\n      jump\t// in\n    tag_305:\n        /* \"#utility.yul\":4492:4494   */\n      0x40\n        /* \"#utility.yul\":4487:4490   */\n      dup3\n        /* \"#utility.yul\":4483:4495   */\n      add\n        /* \"#utility.yul\":4476:4495   */\n      swap1\n      pop\n        /* \"#utility.yul\":4281:4501   */\n      swap2\n      swap1\n      pop\n      jump\t// out\n        /* \"#utility.yul\":4507:4873   */\n    tag_307:\n      0x00\n        /* \"#utility.yul\":4670:4737   */\n      tag_309\n        /* \"#utility.yul\":4734:4736   */\n      0x29\n        /* \"#utility.yul\":4729:4732   */\n      dup4\n        /* \"#utility.yul\":4670:4737   */\n      tag_283\n      jump\t// in\n    tag_309:\n        /* \"#utility.yul\":4663:4737   */\n      swap2\n      pop\n        /* \"#utility.yul\":4746:4839   */\n      tag_310\n        /* \"#utility.yul\":4835:4838   */\n      dup3\n        /* \"#utility.yul\":4746:4839   */\n      tag_311\n      jump\t// in\n    tag_310:\n        /* \"#utility.yul\":4864:4866   */\n      0x40\n        /* \"#utility.yul\":4859:4862   */\n      dup3\n        /* \"#utility.yul\":4855:4867   */\n      add\n        /* \"#utility.yul\":4848:4867   */\n      swap1\n      pop\n        /* \"#utility.yul\":4653:4873   */\n      swap2\n      swap1\n      pop\n      jump\t// out\n        /* \"#utility.yul\":4879:5245   */\n    tag_312:\n      0x00\n        /* \"#utility.yul\":5042:5109   */\n      tag_314\n        /* \"#utility.yul\":5106:5108   */\n      0x2e\n        /* \"#utility.yul\":5101:5104   */\n      dup4\n        /* \"#utility.yul\":5042:5109   */\n      tag_283\n      jump\t// in\n    tag_314:\n        /* \"#utility.yul\":5035:5109   */\n      swap2\n      pop\n        /* \"#utility.yul\":5118:5211   */\n      tag_315\n        /* \"#utility.yul\":5207:5210   */\n      dup3\n        /* \"#utility.yul\":5118:5211   */\n      tag_316\n      jump\t// in\n    tag_315:\n        /* \"#utility.yul\":5236:5238   */\n      0x40\n        /* \"#utility.yul\":5231:5234   */\n      dup3\n        /* \"#utility.yul\":5227:5239   */\n      add\n        /* \"#utility.yul\":5220:5239   */\n      swap1\n      pop\n        /* \"#utility.yul\":5025:5245   */\n      swap2\n      swap1\n      pop\n      jump\t// out\n        /* \"#utility.yul\":5251:5617   */\n    tag_317:\n      0x00\n        /* \"#utility.yul\":5414:5481   */\n      tag_319\n        /* \"#utility.yul\":5478:5480   */\n      0x2e\n        /* \"#utility.yul\":5473:5476   */\n      dup4\n        /* \"#utility.yul\":5414:5481   */\n      tag_283\n      jump\t// in\n    tag_319:\n        /* \"#utility.yul\":5407:5481   */\n      swap2\n      pop\n        /* \"#utility.yul\":5490:5583   */\n      tag_320\n        /* \"#utility.yul\":5579:5582   */\n      dup3\n        /* \"#utility.yul\":5490:5583   */\n      tag_321\n      jump\t// in\n    tag_320:\n        /* \"#utility.yul\":5608:5610   */\n      0x40\n        /* \"#utility.yul\":5603:5606   */\n      dup3\n        /* \"#utility.yul\":5599:5611   */\n      add\n        /* \"#utility.yul\":5592:5611   */\n      swap1\n      pop\n        /* \"#utility.yul\":5397:5617   */\n      swap2\n      swap1\n      pop\n      jump\t// out\n        /* \"#utility.yul\":5623:5989   */\n    tag_322:\n      0x00\n        /* \"#utility.yul\":5786:5853   */\n      tag_324\n        /* \"#utility.yul\":5850:5852   */\n      0x2d\n        /* \"#utility.yul\":5845:5848   */\n      dup4\n        /* \"#utility.yul\":5786:5853   */\n      tag_283\n      jump\t// in\n    tag_324:\n        /* \"#utility.yul\":5779:5853   */\n      swap2\n      pop\n        /* \"#utility.yul\":5862:5955   */\n      tag_325\n        /* \"#utility.yul\":5951:5954   */\n      dup3\n        /* \"#utility.yul\":5862:5955   */\n      tag_326\n      jump\t// in\n    tag_325:\n        /* \"#utility.yul\":5980:5982   */\n      0x40\n        /* \"#utility.yul\":5975:5978   */\n      dup3\n        /* \"#utility.yul\":5971:5983   */\n      add\n        /* \"#utility.yul\":5964:5983   */\n      swap1\n      pop\n        /* \"#utility.yul\":5769:5989   */\n      swap2\n      swap1\n      pop\n      jump\t// out\n        /* \"#utility.yul\":5995:6361   */\n    tag_327:\n      0x00\n        /* \"#utility.yul\":6158:6225   */\n      tag_329\n        /* \"#utility.yul\":6222:6224   */\n      0x20\n        /* \"#utility.yul\":6217:6220   */\n      dup4\n        /* \"#utility.yul\":6158:6225   */\n      tag_283\n      jump\t// in\n    tag_329:\n        /* \"#utility.yul\":6151:6225   */\n      swap2\n      pop\n        /* \"#utility.yul\":6234:6327   */\n      tag_330\n        /* \"#utility.yul\":6323:6326   */\n      dup3\n        /* \"#utility.yul\":6234:6327   */\n      tag_331\n      jump\t// in\n    tag_330:\n        /* \"#utility.yul\":6352:6354   */\n      0x20\n        /* \"#utility.yul\":6347:6350   */\n      dup3\n        /* \"#utility.yul\":6343:6355   */\n      add\n        /* \"#utility.yul\":6336:6355   */\n      swap1\n      pop\n        /* \"#utility.yul\":6141:6361   */\n      swap2\n      swap1\n      pop\n      jump\t// out\n        /* \"#utility.yul\":6367:6733   */\n    tag_332:\n      0x00\n        /* \"#utility.yul\":6530:6597   */\n      tag_334\n        /* \"#utility.yul\":6594:6596   */\n      0x1d\n        /* \"#utility.yul\":6589:6592   */\n      dup4\n        /* \"#utility.yul\":6530:6597   */\n      tag_283\n      jump\t// in\n    tag_334:\n        /* \"#utility.yul\":6523:6597   */\n      swap2\n      pop\n        /* \"#utility.yul\":6606:6699   */\n      tag_335\n        /* \"#utility.yul\":6695:6698   */\n      dup3\n        /* \"#utility.yul\":6606:6699   */\n      tag_336\n      jump\t// in\n    tag_335:\n        /* \"#utility.yul\":6724:6726   */\n      0x20\n        /* \"#utility.yul\":6719:6722   */\n      dup3\n        /* \"#utility.yul\":6715:6727   */\n      add\n        /* \"#utility.yul\":6708:6727   */\n      swap1\n      pop\n        /* \"#utility.yul\":6513:6733   */\n      swap2\n      swap1\n      pop\n      jump\t// out\n        /* \"#utility.yul\":6739:7105   */\n    tag_337:\n      0x00\n        /* \"#utility.yul\":6902:6969   */\n      tag_339\n        /* \"#utility.yul\":6966:6968   */\n      0x2b\n        /* \"#utility.yul\":6961:6964   */\n      dup4\n        /* \"#utility.yul\":6902:6969   */\n      tag_283\n      jump\t// in\n    tag_339:\n        /* \"#utility.yul\":6895:6969   */\n      swap2\n      pop\n        /* \"#utility.yul\":6978:7071   */\n      tag_340\n        /* \"#utility.yul\":7067:7070   */\n      dup3\n        /* \"#utility.yul\":6978:7071   */\n      tag_341\n      jump\t// in\n    tag_340:\n        /* \"#utility.yul\":7096:7098   */\n      0x40\n        /* \"#utility.yul\":7091:7094   */\n      dup3\n        /* \"#utility.yul\":7087:7099   */\n      add\n        /* \"#utility.yul\":7080:7099   */\n      swap1\n      pop\n        /* \"#utility.yul\":6885:7105   */\n      swap2\n      swap1\n      pop\n      jump\t// out\n        /* \"#utility.yul\":7111:7229   */\n    tag_342:\n        /* \"#utility.yul\":7198:7222   */\n      tag_344\n        /* \"#utility.yul\":7216:7221   */\n      dup2\n        /* \"#utility.yul\":7198:7222   */\n      tag_345\n      jump\t// in\n    tag_344:\n        /* \"#utility.yul\":7193:7196   */\n      dup3\n        /* \"#utility.yul\":7186:7223   */\n      mstore\n        /* \"#utility.yul\":7176:7229   */\n      pop\n      pop\n      jump\t// out\n        /* \"#utility.yul\":7235:7506   */\n    tag_209:\n      0x00\n        /* \"#utility.yul\":7387:7480   */\n      tag_347\n        /* \"#utility.yul\":7476:7479   */\n      dup3\n        /* \"#utility.yul\":7467:7473   */\n      dup5\n        /* \"#utility.yul\":7387:7480   */\n      tag_270\n      jump\t// in\n    tag_347:\n        /* \"#utility.yul\":7380:7480   */\n      swap2\n      pop\n        /* \"#utility.yul\":7497:7500   */\n      dup2\n        /* \"#utility.yul\":7490:7500   */\n      swap1\n      pop\n        /* \"#utility.yul\":7369:7506   */\n      swap3\n      swap2\n      pop\n      pop\n      jump\t// out\n        /* \"#utility.yul\":7512:7734   */\n    tag_50:\n      0x00\n        /* \"#utility.yul\":7643:7645   */\n      0x20\n        /* \"#utility.yul\":7632:7641   */\n      dup3\n        /* \"#utility.yul\":7628:7646   */\n      add\n        /* \"#utility.yul\":7620:7646   */\n      swap1\n      pop\n        /* \"#utility.yul\":7656:7727   */\n      tag_349\n        /* \"#utility.yul\":7724:7725   */\n      0x00\n        /* \"#utility.yul\":7713:7722   */\n      dup4\n        /* \"#utility.yul\":7709:7726   */\n      add\n        /* \"#utility.yul\":7700:7706   */\n      dup5\n        /* \"#utility.yul\":7656:7727   */\n      tag_262\n      jump\t// in\n    tag_349:\n        /* \"#utility.yul\":7610:7734   */\n      swap3\n      swap2\n      pop\n      pop\n      jump\t// out\n        /* \"#utility.yul\":7740:7962   */\n    tag_34:\n      0x00\n        /* \"#utility.yul\":7871:7873   */\n      0x20\n        /* \"#utility.yul\":7860:7869   */\n      dup3\n        /* \"#utility.yul\":7856:7874   */\n      add\n        /* \"#utility.yul\":7848:7874   */\n      swap1\n      pop\n        /* \"#utility.yul\":7884:7955   */\n      tag_351\n        /* \"#utility.yul\":7952:7953   */\n      0x00\n        /* \"#utility.yul\":7941:7950   */\n      dup4\n        /* \"#utility.yul\":7937:7954   */\n      add\n        /* \"#utility.yul\":7928:7934   */\n      dup5\n        /* \"#utility.yul\":7884:7955   */\n      tag_266\n      jump\t// in\n    tag_351:\n        /* \"#utility.yul\":7838:7962   */\n      swap3\n      swap2\n      pop\n      pop\n      jump\t// out\n        /* \"#utility.yul\":7968:8281   */\n    tag_45:\n      0x00\n        /* \"#utility.yul\":8119:8121   */\n      0x20\n        /* \"#utility.yul\":8108:8117   */\n      dup3\n        /* \"#utility.yul\":8104:8122   */\n      add\n        /* \"#utility.yul\":8096:8122   */\n      swap1\n      pop\n        /* \"#utility.yul\":8168:8177   */\n      dup2\n        /* \"#utility.yul\":8162:8166   */\n      dup2\n        /* \"#utility.yul\":8158:8178   */\n      sub\n        /* \"#utility.yul\":8154:8155   */\n      0x00\n        /* \"#utility.yul\":8143:8152   */\n      dup4\n        /* \"#utility.yul\":8139:8156   */\n      add\n        /* \"#utility.yul\":8132:8179   */\n      mstore\n        /* \"#utility.yul\":8196:8274   */\n      tag_353\n        /* \"#utility.yul\":8269:8273   */\n      dup2\n        /* \"#utility.yul\":8260:8266   */\n      dup5\n        /* \"#utility.yul\":8196:8274   */\n      tag_278\n      jump\t// in\n    tag_353:\n        /* \"#utility.yul\":8188:8274   */\n      swap1\n      pop\n        /* \"#utility.yul\":8086:8281   */\n      swap3\n      swap2\n      pop\n      pop\n      jump\t// out\n        /* \"#utility.yul\":8287:8706   */\n    tag_130:\n      0x00\n        /* \"#utility.yul\":8491:8493   */\n      0x20\n        /* \"#utility.yul\":8480:8489   */\n      dup3\n        /* \"#utility.yul\":8476:8494   */\n      add\n        /* \"#utility.yul\":8468:8494   */\n      swap1\n      pop\n        /* \"#utility.yul\":8540:8549   */\n      dup2\n        /* \"#utility.yul\":8534:8538   */\n      dup2\n        /* \"#utility.yul\":8530:8550   */\n      sub\n        /* \"#utility.yul\":8526:8527   */\n      0x00\n        /* \"#utility.yul\":8515:8524   */\n      dup4\n        /* \"#utility.yul\":8511:8528   */\n      add\n        /* \"#utility.yul\":8504:8551   */\n      mstore\n        /* \"#utility.yul\":8568:8699   */\n      tag_355\n        /* \"#utility.yul\":8694:8698   */\n      dup2\n        /* \"#utility.yul\":8568:8699   */\n      tag_287\n      jump\t// in\n    tag_355:\n        /* \"#utility.yul\":8560:8699   */\n      swap1\n      pop\n        /* \"#utility.yul\":8458:8706   */\n      swap2\n      swap1\n      pop\n      jump\t// out\n        /* \"#utility.yul\":8712:9131   */\n    tag_67:\n      0x00\n        /* \"#utility.yul\":8916:8918   */\n      0x20\n        /* \"#utility.yul\":8905:8914   */\n      dup3\n        /* \"#utility.yul\":8901:8919   */\n      add\n        /* \"#utility.yul\":8893:8919   */\n      swap1\n      pop\n        /* \"#utility.yul\":8965:8974   */\n      dup2\n        /* \"#utility.yul\":8959:8963   */\n      dup2\n        /* \"#utility.yul\":8955:8975   */\n      sub\n        /* \"#utility.yul\":8951:8952   */\n      0x00\n        /* \"#utility.yul\":8940:8949   */\n      dup4\n        /* \"#utility.yul\":8936:8953   */\n      add\n        /* \"#utility.yul\":8929:8976   */\n      mstore\n        /* \"#utility.yul\":8993:9124   */\n      tag_357\n        /* \"#utility.yul\":9119:9123   */\n      dup2\n        /* \"#utility.yul\":8993:9124   */\n      tag_292\n      jump\t// in\n    tag_357:\n        /* \"#utility.yul\":8985:9124   */\n      swap1\n      pop\n        /* \"#utility.yul\":8883:9131   */\n      swap2\n      swap1\n      pop\n      jump\t// out\n        /* \"#utility.yul\":9137:9556   */\n    tag_72:\n      0x00\n        /* \"#utility.yul\":9341:9343   */\n      0x20\n        /* \"#utility.yul\":9330:9339   */\n      dup3\n        /* \"#utility.yul\":9326:9344   */\n      add\n        /* \"#utility.yul\":9318:9344   */\n      swap1\n      pop\n        /* \"#utility.yul\":9390:9399   */\n      dup2\n        /* \"#utility.yul\":9384:9388   */\n      dup2\n        /* \"#utility.yul\":9380:9400   */\n      sub\n        /* \"#utility.yul\":9376:9377   */\n      0x00\n        /* \"#utility.yul\":9365:9374   */\n      dup4\n        /* \"#utility.yul\":9361:9378   */\n      add\n        /* \"#utility.yul\":9354:9401   */\n      mstore\n        /* \"#utility.yul\":9418:9549   */\n      tag_359\n        /* \"#utility.yul\":9544:9548   */\n      dup2\n        /* \"#utility.yul\":9418:9549   */\n      tag_297\n      jump\t// in\n    tag_359:\n        /* \"#utility.yul\":9410:9549   */\n      swap1\n      pop\n        /* \"#utility.yul\":9308:9556   */\n      swap2\n      swap1\n      pop\n      jump\t// out\n        /* \"#utility.yul\":9562:9981   */\n    tag_96:\n      0x00\n        /* \"#utility.yul\":9766:9768   */\n      0x20\n        /* \"#utility.yul\":9755:9764   */\n      dup3\n        /* \"#utility.yul\":9751:9769   */\n      add\n        /* \"#utility.yul\":9743:9769   */\n      swap1\n      pop\n        /* \"#utility.yul\":9815:9824   */\n      dup2\n        /* \"#utility.yul\":9809:9813   */\n      dup2\n        /* \"#utility.yul\":9805:9825   */\n      sub\n        /* \"#utility.yul\":9801:9802   */\n      0x00\n        /* \"#utility.yul\":9790:9799   */\n      dup4\n        /* \"#utility.yul\":9786:9803   */\n      add\n        /* \"#utility.yul\":9779:9826   */\n      mstore\n        /* \"#utility.yul\":9843:9974   */\n      tag_361\n        /* \"#utility.yul\":9969:9973   */\n      dup2\n        /* \"#utility.yul\":9843:9974   */\n      tag_302\n      jump\t// in\n    tag_361:\n        /* \"#utility.yul\":9835:9974   */\n      swap1\n      pop\n        /* \"#utility.yul\":9733:9981   */\n      swap2\n      swap1\n      pop\n      jump\t// out\n        /* \"#utility.yul\":9987:10406   */\n    tag_159:\n      0x00\n        /* \"#utility.yul\":10191:10193   */\n      0x20\n        /* \"#utility.yul\":10180:10189   */\n      dup3\n        /* \"#utility.yul\":10176:10194   */\n      add\n        /* \"#utility.yul\":10168:10194   */\n      swap1\n      pop\n        /* \"#utility.yul\":10240:10249   */\n      dup2\n        /* \"#utility.yul\":10234:10238   */\n      dup2\n        /* \"#utility.yul\":10230:10250   */\n      sub\n        /* \"#utility.yul\":10226:10227   */\n      0x00\n        /* \"#utility.yul\":10215:10224   */\n      dup4\n        /* \"#utility.yul\":10211:10228   */\n      add\n        /* \"#utility.yul\":10204:10251   */\n      mstore\n        /* \"#utility.yul\":10268:10399   */\n      tag_363\n        /* \"#utility.yul\":10394:10398   */\n      dup2\n        /* \"#utility.yul\":10268:10399   */\n      tag_307\n      jump\t// in\n    tag_363:\n        /* \"#utility.yul\":10260:10399   */\n      swap1\n      pop\n        /* \"#utility.yul\":10158:10406   */\n      swap2\n      swap1\n      pop\n      jump\t// out\n        /* \"#utility.yul\":10412:10831   */\n    tag_111:\n      0x00\n        /* \"#utility.yul\":10616:10618   */\n      0x20\n        /* \"#utility.yul\":10605:10614   */\n      dup3\n        /* \"#utility.yul\":10601:10619   */\n      add\n        /* \"#utility.yul\":10593:10619   */\n      swap1\n      pop\n        /* \"#utility.yul\":10665:10674   */\n      dup2\n        /* \"#utility.yul\":10659:10663   */\n      dup2\n        /* \"#utility.yul\":10655:10675   */\n      sub\n        /* \"#utility.yul\":10651:10652   */\n      0x00\n        /* \"#utility.yul\":10640:10649   */\n      dup4\n        /* \"#utility.yul\":10636:10653   */\n      add\n        /* \"#utility.yul\":10629:10676   */\n      mstore\n        /* \"#utility.yul\":10693:10824   */\n      tag_365\n        /* \"#utility.yul\":10819:10823   */\n      dup2\n        /* \"#utility.yul\":10693:10824   */\n      tag_312\n      jump\t// in\n    tag_365:\n        /* \"#utility.yul\":10685:10824   */\n      swap1\n      pop\n        /* \"#utility.yul\":10583:10831   */\n      swap2\n      swap1\n      pop\n      jump\t// out\n        /* \"#utility.yul\":10837:11256   */\n    tag_155:\n      0x00\n        /* \"#utility.yul\":11041:11043   */\n      0x20\n        /* \"#utility.yul\":11030:11039   */\n      dup3\n        /* \"#utility.yul\":11026:11044   */\n      add\n        /* \"#utility.yul\":11018:11044   */\n      swap1\n      pop\n        /* \"#utility.yul\":11090:11099   */\n      dup2\n        /* \"#utility.yul\":11084:11088   */\n      dup2\n        /* \"#utility.yul\":11080:11100   */\n      sub\n        /* \"#utility.yul\":11076:11077   */\n      0x00\n        /* \"#utility.yul\":11065:11074   */\n      dup4\n        /* \"#utility.yul\":11061:11078   */\n      add\n        /* \"#utility.yul\":11054:11101   */\n      mstore\n        /* \"#utility.yul\":11118:11249   */\n      tag_367\n        /* \"#utility.yul\":11244:11248   */\n      dup2\n        /* \"#utility.yul\":11118:11249   */\n      tag_317\n      jump\t// in\n    tag_367:\n        /* \"#utility.yul\":11110:11249   */\n      swap1\n      pop\n        /* \"#utility.yul\":11008:11256   */\n      swap2\n      swap1\n      pop\n      jump\t// out\n        /* \"#utility.yul\":11262:11681   */\n    tag_185:\n      0x00\n        /* \"#utility.yul\":11466:11468   */\n      0x20\n        /* \"#utility.yul\":11455:11464   */\n      dup3\n        /* \"#utility.yul\":11451:11469   */\n      add\n        /* \"#utility.yul\":11443:11469   */\n      swap1\n      pop\n        /* \"#utility.yul\":11515:11524   */\n      dup2\n        /* \"#utility.yul\":11509:11513   */\n      dup2\n        /* \"#utility.yul\":11505:11525   */\n      sub\n        /* \"#utility.yul\":11501:11502   */\n      0x00\n        /* \"#utility.yul\":11490:11499   */\n      dup4\n        /* \"#utility.yul\":11486:11503   */\n      add\n        /* \"#utility.yul\":11479:11526   */\n      mstore\n        /* \"#utility.yul\":11543:11674   */\n      tag_369\n        /* \"#utility.yul\":11669:11673   */\n      dup2\n        /* \"#utility.yul\":11543:11674   */\n      tag_322\n      jump\t// in\n    tag_369:\n        /* \"#utility.yul\":11535:11674   */\n      swap1\n      pop\n        /* \"#utility.yul\":11433:11681   */\n      swap2\n      swap1\n      pop\n      jump\t// out\n        /* \"#utility.yul\":11687:12106   */\n    tag_168:\n      0x00\n        /* \"#utility.yul\":11891:11893   */\n      0x20\n        /* \"#utility.yul\":11880:11889   */\n      dup3\n        /* \"#utility.yul\":11876:11894   */\n      add\n        /* \"#utility.yul\":11868:11894   */\n      swap1\n      pop\n        /* \"#utility.yul\":11940:11949   */\n      dup2\n        /* \"#utility.yul\":11934:11938   */\n      dup2\n        /* \"#utility.yul\":11930:11950   */\n      sub\n        /* \"#utility.yul\":11926:11927   */\n      0x00\n        /* \"#utility.yul\":11915:11924   */\n      dup4\n        /* \"#utility.yul\":11911:11928   */\n      add\n        /* \"#utility.yul\":11904:11951   */\n      mstore\n        /* \"#utility.yul\":11968:12099   */\n      tag_371\n        /* \"#utility.yul\":12094:12098   */\n      dup2\n        /* \"#utility.yul\":11968:12099   */\n      tag_327\n      jump\t// in\n    tag_371:\n        /* \"#utility.yul\":11960:12099   */\n      swap1\n      pop\n        /* \"#utility.yul\":11858:12106   */\n      swap2\n      swap1\n      pop\n      jump\t// out\n        /* \"#utility.yul\":12112:12531   */\n    tag_221:\n      0x00\n        /* \"#utility.yul\":12316:12318   */\n      0x20\n        /* \"#utility.yul\":12305:12314   */\n      dup3\n        /* \"#utility.yul\":12301:12319   */\n      add\n        /* \"#utility.yul\":12293:12319   */\n      swap1\n      pop\n        /* \"#utility.yul\":12365:12374   */\n      dup2\n        /* \"#utility.yul\":12359:12363   */\n      dup2\n        /* \"#utility.yul\":12355:12375   */\n      sub\n        /* \"#utility.yul\":12351:12352   */\n      0x00\n        /* \"#utility.yul\":12340:12349   */\n      dup4\n        /* \"#utility.yul\":12336:12353   */\n      add\n        /* \"#utility.yul\":12329:12376   */\n      mstore\n        /* \"#utility.yul\":12393:12524   */\n      tag_373\n        /* \"#utility.yul\":12519:12523   */\n      dup2\n        /* \"#utility.yul\":12393:12524   */\n      tag_332\n      jump\t// in\n    tag_373:\n        /* \"#utility.yul\":12385:12524   */\n      swap1\n      pop\n        /* \"#utility.yul\":12283:12531   */\n      swap2\n      swap1\n      pop\n      jump\t// out\n        /* \"#utility.yul\":12537:12956   */\n    tag_174:\n      0x00\n        /* \"#utility.yul\":12741:12743   */\n      0x20\n        /* \"#utility.yul\":12730:12739   */\n      dup3\n        /* \"#utility.yul\":12726:12744   */\n      add\n        /* \"#utility.yul\":12718:12744   */\n      swap1\n      pop\n        /* \"#utility.yul\":12790:12799   */\n      dup2\n        /* \"#utility.yul\":12784:12788   */\n      dup2\n        /* \"#utility.yul\":12780:12800   */\n      sub\n        /* \"#utility.yul\":12776:12777   */\n      0x00\n        /* \"#utility.yul\":12765:12774   */\n      dup4\n        /* \"#utility.yul\":12761:12778   */\n      add\n        /* \"#utility.yul\":12754:12801   */\n      mstore\n        /* \"#utility.yul\":12818:12949   */\n      tag_375\n        /* \"#utility.yul\":12944:12948   */\n      dup2\n        /* \"#utility.yul\":12818:12949   */\n      tag_337\n      jump\t// in\n    tag_375:\n        /* \"#utility.yul\":12810:12949   */\n      swap1\n      pop\n        /* \"#utility.yul\":12708:12956   */\n      swap2\n      swap1\n      pop\n      jump\t// out\n        /* \"#utility.yul\":12962:13184   */\n    tag_17:\n      0x00\n        /* \"#utility.yul\":13093:13095   */\n      0x20\n        /* \"#utility.yul\":13082:13091   */\n      dup3\n        /* \"#utility.yul\":13078:13096   */\n      add\n        /* \"#utility.yul\":13070:13096   */\n      swap1\n      pop\n        /* \"#utility.yul\":13106:13177   */\n      tag_377\n        /* \"#utility.yul\":13174:13175   */\n      0x00\n        /* \"#utility.yul\":13163:13172   */\n      dup4\n        /* \"#utility.yul\":13159:13176   */\n      add\n        /* \"#utility.yul\":13150:13156   */\n      dup5\n        /* \"#utility.yul\":13106:13177   */\n      tag_342\n      jump\t// in\n    tag_377:\n        /* \"#utility.yul\":13060:13184   */\n      swap3\n      swap2\n      pop\n      pop\n      jump\t// out\n        /* \"#utility.yul\":13190:13319   */\n    tag_235:\n      0x00\n        /* \"#utility.yul\":13251:13271   */\n      tag_379\n      tag_380\n      jump\t// in\n    tag_379:\n        /* \"#utility.yul\":13241:13271   */\n      swap1\n      pop\n        /* \"#utility.yul\":13280:13313   */\n      tag_381\n        /* \"#utility.yul\":13308:13312   */\n      dup3\n        /* \"#utility.yul\":13300:13306   */\n      dup3\n        /* \"#utility.yul\":13280:13313   */\n      tag_382\n      jump\t// in\n    tag_381:\n        /* \"#utility.yul\":13231:13319   */\n      swap2\n      swap1\n      pop\n      jump\t// out\n        /* \"#utility.yul\":13325:13400   */\n    tag_380:\n      0x00\n        /* \"#utility.yul\":13391:13393   */\n      0x40\n        /* \"#utility.yul\":13385:13394   */\n      mload\n        /* \"#utility.yul\":13375:13394   */\n      swap1\n      pop\n        /* \"#utility.yul\":13365:13400   */\n      swap1\n      jump\t// out\n        /* \"#utility.yul\":13406:13713   */\n    tag_234:\n      0x00\n        /* \"#utility.yul\":13557:13575   */\n      0xffffffffffffffff\n        /* \"#utility.yul\":13549:13555   */\n      dup3\n        /* \"#utility.yul\":13546:13576   */\n      gt\n        /* \"#utility.yul\":13543:13545   */\n      iszero\n      tag_385\n      jumpi\n        /* \"#utility.yul\":13579:13597   */\n      tag_386\n      tag_387\n      jump\t// in\n    tag_386:\n        /* \"#utility.yul\":13543:13545   */\n    tag_385:\n        /* \"#utility.yul\":13617:13646   */\n      tag_388\n        /* \"#utility.yul\":13639:13645   */\n      dup3\n        /* \"#utility.yul\":13617:13646   */\n      tag_286\n      jump\t// in\n    tag_388:\n        /* \"#utility.yul\":13609:13646   */\n      swap1\n      pop\n        /* \"#utility.yul\":13701:13705   */\n      0x20\n        /* \"#utility.yul\":13695:13699   */\n      dup2\n        /* \"#utility.yul\":13691:13706   */\n      add\n        /* \"#utility.yul\":13683:13706   */\n      swap1\n      pop\n        /* \"#utility.yul\":13472:13713   */\n      swap2\n      swap1\n      pop\n      jump\t// out\n        /* \"#utility.yul\":13719:13817   */\n    tag_273:\n      0x00\n        /* \"#utility.yul\":13804:13809   */\n      dup2\n        /* \"#utility.yul\":13798:13810   */\n      mload\n        /* \"#utility.yul\":13788:13810   */\n      swap1\n      pop\n        /* \"#utility.yul\":13777:13817   */\n      swap2\n      swap1\n      pop\n      jump\t// out\n        /* \"#utility.yul\":13823:13922   */\n    tag_281:\n      0x00\n        /* \"#utility.yul\":13909:13914   */\n      dup2\n        /* \"#utility.yul\":13903:13915   */\n      mload\n        /* \"#utility.yul\":13893:13915   */\n      swap1\n      pop\n        /* \"#utility.yul\":13882:13922   */\n      swap2\n      swap1\n      pop\n      jump\t// out\n        /* \"#utility.yul\":13928:14075   */\n    tag_275:\n      0x00\n        /* \"#utility.yul\":14066:14069   */\n      dup2\n        /* \"#utility.yul\":14051:14069   */\n      swap1\n      pop\n        /* \"#utility.yul\":14041:14075   */\n      swap3\n      swap2\n      pop\n      pop\n      jump\t// out\n        /* \"#utility.yul\":14081:14250   */\n    tag_283:\n      0x00\n        /* \"#utility.yul\":14199:14205   */\n      dup3\n        /* \"#utility.yul\":14194:14197   */\n      dup3\n        /* \"#utility.yul\":14187:14206   */\n      mstore\n        /* \"#utility.yul\":14239:14243   */\n      0x20\n        /* \"#utility.yul\":14234:14237   */\n      dup3\n        /* \"#utility.yul\":14230:14244   */\n      add\n        /* \"#utility.yul\":14215:14244   */\n      swap1\n      pop\n        /* \"#utility.yul\":14177:14250   */\n      swap3\n      swap2\n      pop\n      pop\n      jump\t// out\n        /* \"#utility.yul\":14256:14352   */\n    tag_265:\n      0x00\n        /* \"#utility.yul\":14322:14346   */\n      tag_394\n        /* \"#utility.yul\":14340:14345   */\n      dup3\n        /* \"#utility.yul\":14322:14346   */\n      tag_395\n      jump\t// in\n    tag_394:\n        /* \"#utility.yul\":14311:14346   */\n      swap1\n      pop\n        /* \"#utility.yul\":14301:14352   */\n      swap2\n      swap1\n      pop\n      jump\t// out\n        /* \"#utility.yul\":14358:14435   */\n    tag_269:\n      0x00\n        /* \"#utility.yul\":14424:14429   */\n      dup2\n        /* \"#utility.yul\":14413:14429   */\n      swap1\n      pop\n        /* \"#utility.yul\":14403:14435   */\n      swap2\n      swap1\n      pop\n      jump\t// out\n        /* \"#utility.yul\":14441:14567   */\n    tag_395:\n      0x00\n        /* \"#utility.yul\":14518:14560   */\n      0xffffffffffffffffffffffffffffffffffffffff\n        /* \"#utility.yul\":14511:14516   */\n      dup3\n        /* \"#utility.yul\":14507:14561   */\n      and\n        /* \"#utility.yul\":14496:14561   */\n      swap1\n      pop\n        /* \"#utility.yul\":14486:14567   */\n      swap2\n      swap1\n      pop\n      jump\t// out\n        /* \"#utility.yul\":14573:14650   */\n    tag_345:\n      0x00\n        /* \"#utility.yul\":14639:14644   */\n      dup2\n        /* \"#utility.yul\":14628:14644   */\n      swap1\n      pop\n        /* \"#utility.yul\":14618:14650   */\n      swap2\n      swap1\n      pop\n      jump\t// out\n        /* \"#utility.yul\":14656:14810   */\n    tag_238:\n        /* \"#utility.yul\":14740:14746   */\n      dup3\n        /* \"#utility.yul\":14735:14738   */\n      dup2\n        /* \"#utility.yul\":14730:14733   */\n      dup4\n        /* \"#utility.yul\":14717:14747   */\n      calldatacopy\n        /* \"#utility.yul\":14802:14803   */\n      0x00\n        /* \"#utility.yul\":14793:14799   */\n      dup4\n        /* \"#utility.yul\":14788:14791   */\n      dup4\n        /* \"#utility.yul\":14784:14800   */\n      add\n        /* \"#utility.yul\":14777:14804   */\n      mstore\n        /* \"#utility.yul\":14707:14810   */\n      pop\n      pop\n      pop\n      jump\t// out\n        /* \"#utility.yul\":14816:15123   */\n    tag_277:\n        /* \"#utility.yul\":14884:14885   */\n      0x00\n        /* \"#utility.yul\":14894:15007   */\n    tag_401:\n        /* \"#utility.yul\":14908:14914   */\n      dup4\n        /* \"#utility.yul\":14905:14906   */\n      dup2\n        /* \"#utility.yul\":14902:14915   */\n      lt\n        /* \"#utility.yul\":14894:15007   */\n      iszero\n      tag_403\n      jumpi\n        /* \"#utility.yul\":14993:14994   */\n      dup1\n        /* \"#utility.yul\":14988:14991   */\n      dup3\n        /* \"#utility.yul\":14984:14995   */\n      add\n        /* \"#utility.yul\":14978:14996   */\n      mload\n        /* \"#utility.yul\":14974:14975   */\n      dup2\n        /* \"#utility.yul\":14969:14972   */\n      dup5\n        /* \"#utility.yul\":14965:14976   */\n      add\n        /* \"#utility.yul\":14958:14997   */\n      mstore\n        /* \"#utility.yul\":14930:14932   */\n      0x20\n        /* \"#utility.yul\":14927:14928   */\n      dup2\n        /* \"#utility.yul\":14923:14933   */\n      add\n        /* \"#utility.yul\":14918:14933   */\n      swap1\n      pop\n        /* \"#utility.yul\":14894:15007   */\n      jump(tag_401)\n    tag_403:\n        /* \"#utility.yul\":15025:15031   */\n      dup4\n        /* \"#utility.yul\":15022:15023   */\n      dup2\n        /* \"#utility.yul\":15019:15032   */\n      gt\n        /* \"#utility.yul\":15016:15018   */\n      iszero\n      tag_404\n      jumpi\n        /* \"#utility.yul\":15105:15106   */\n      0x00\n        /* \"#utility.yul\":15096:15102   */\n      dup5\n        /* \"#utility.yul\":15091:15094   */\n      dup5\n        /* \"#utility.yul\":15087:15103   */\n      add\n        /* \"#utility.yul\":15080:15107   */\n      mstore\n        /* \"#utility.yul\":15016:15018   */\n    tag_404:\n        /* \"#utility.yul\":14865:15123   */\n      pop\n      pop\n      pop\n      pop\n      jump\t// out\n        /* \"#utility.yul\":15129:15449   */\n    tag_59:\n      0x00\n        /* \"#utility.yul\":15210:15211   */\n      0x02\n        /* \"#utility.yul\":15204:15208   */\n      dup3\n        /* \"#utility.yul\":15200:15212   */\n      div\n        /* \"#utility.yul\":15190:15212   */\n      swap1\n      pop\n        /* \"#utility.yul\":15257:15258   */\n      0x01\n        /* \"#utility.yul\":15251:15255   */\n      dup3\n        /* \"#utility.yul\":15247:15259   */\n      and\n        /* \"#utility.yul\":15278:15296   */\n      dup1\n        /* \"#utility.yul\":15268:15270   */\n      tag_406\n      jumpi\n        /* \"#utility.yul\":15334:15338   */\n      0x7f\n        /* \"#utility.yul\":15326:15332   */\n      dup3\n        /* \"#utility.yul\":15322:15339   */\n      and\n        /* \"#utility.yul\":15312:15339   */\n      swap2\n      pop\n        /* \"#utility.yul\":15268:15270   */\n    tag_406:\n        /* \"#utility.yul\":15396:15398   */\n      0x20\n        /* \"#utility.yul\":15388:15394   */\n      dup3\n        /* \"#utility.yul\":15385:15399   */\n      lt\n        /* \"#utility.yul\":15365:15383   */\n      dup2\n        /* \"#utility.yul\":15362:15400   */\n      eq\n        /* \"#utility.yul\":15359:15361   */\n      iszero\n      tag_407\n      jumpi\n        /* \"#utility.yul\":15415:15433   */\n      tag_408\n      tag_409\n      jump\t// in\n    tag_408:\n        /* \"#utility.yul\":15359:15361   */\n    tag_407:\n        /* \"#utility.yul\":15180:15449   */\n      pop\n      swap2\n      swap1\n      pop\n      jump\t// out\n        /* \"#utility.yul\":15455:15736   */\n    tag_382:\n        /* \"#utility.yul\":15538:15565   */\n      tag_411\n        /* \"#utility.yul\":15560:15564   */\n      dup3\n        /* \"#utility.yul\":15538:15565   */\n      tag_286\n      jump\t// in\n    tag_411:\n        /* \"#utility.yul\":15530:15536   */\n      dup2\n        /* \"#utility.yul\":15526:15566   */\n      add\n        /* \"#utility.yul\":15668:15674   */\n      dup2\n        /* \"#utility.yul\":15656:15666   */\n      dup2\n        /* \"#utility.yul\":15653:15675   */\n      lt\n        /* \"#utility.yul\":15632:15650   */\n      0xffffffffffffffff\n        /* \"#utility.yul\":15620:15630   */\n      dup3\n        /* \"#utility.yul\":15617:15651   */\n      gt\n        /* \"#utility.yul\":15614:15676   */\n      or\n        /* \"#utility.yul\":15611:15613   */\n      iszero\n      tag_412\n      jumpi\n        /* \"#utility.yul\":15679:15697   */\n      tag_413\n      tag_387\n      jump\t// in\n    tag_413:\n        /* \"#utility.yul\":15611:15613   */\n    tag_412:\n        /* \"#utility.yul\":15719:15729   */\n      dup1\n        /* \"#utility.yul\":15715:15717   */\n      0x40\n        /* \"#utility.yul\":15708:15730   */\n      mstore\n        /* \"#utility.yul\":15498:15736   */\n      pop\n      pop\n      pop\n      jump\t// out\n        /* \"#utility.yul\":15742:15975   */\n    tag_92:\n      0x00\n        /* \"#utility.yul\":15804:15828   */\n      tag_415\n        /* \"#utility.yul\":15822:15827   */\n      dup3\n        /* \"#utility.yul\":15804:15828   */\n      tag_345\n      jump\t// in\n    tag_415:\n        /* \"#utility.yul\":15795:15828   */\n      swap2\n      pop\n        /* \"#utility.yul\":15850:15916   */\n      0xffffffffffffffffffffffffffffffffffffffffffffffffffffffffffffffff\n        /* \"#utility.yul\":15843:15848   */\n      dup3\n        /* \"#utility.yul\":15840:15917   */\n      eq\n        /* \"#utility.yul\":15837:15839   */\n      iszero\n      tag_416\n      jumpi\n        /* \"#utility.yul\":15920:15938   */\n      tag_417\n      tag_418\n      jump\t// in\n    tag_417:\n        /* \"#utility.yul\":15837:15839   */\n    tag_416:\n        /* \"#utility.yul\":15967:15968   */\n      0x01\n        /* \"#utility.yul\":15960:15965   */\n      dup3\n        /* \"#utility.yul\":15956:15969   */\n      add\n        /* \"#utility.yul\":15949:15969   */\n      swap1\n      pop\n        /* \"#utility.yul\":15785:15975   */\n      swap2\n      swap1\n      pop\n      jump\t// out\n        /* \"#utility.yul\":15981:16161   */\n    tag_418:\n        /* \"#utility.yul\":16029:16106   */\n      0x4e487b7100000000000000000000000000000000000000000000000000000000\n        /* \"#utility.yul\":16026:16027   */\n      0x00\n        /* \"#utility.yul\":16019:16107   */\n      mstore\n        /* \"#utility.yul\":16126:16130   */\n      0x11\n        /* \"#utility.yul\":16123:16124   */\n      0x04\n        /* \"#utility.yul\":16116:16131   */\n      mstore\n        /* \"#utility.yul\":16150:16154   */\n      0x24\n        /* \"#utility.yul\":16147:16148   */\n      0x00\n        /* \"#utility.yul\":16140:16155   */\n      revert\n        /* \"#utility.yul\":16167:16347   */\n    tag_409:\n        /* \"#utility.yul\":16215:16292   */\n      0x4e487b7100000000000000000000000000000000000000000000000000000000\n        /* \"#utility.yul\":16212:16213   */\n      0x00\n        /* \"#utility.yul\":16205:16293   */\n      mstore\n        /* \"#utility.yul\":16312:16316   */\n      0x22\n        /* \"#utility.yul\":16309:16310   */\n      0x04\n        /* \"#utility.yul\":16302:16317   */\n      mstore\n        /* \"#utility.yul\":16336:16340   */\n      0x24\n        /* \"#utility.yul\":16333:16334   */\n      0x00\n        /* \"#utility.yul\":16326:16341   */\n      revert\n        /* \"#utility.yul\":16353:16533   */\n    tag_387:\n        /* \"#utility.yul\":16401:16478   */\n      0x4e487b7100000000000000000000000000000000000000000000000000000000\n        /* \"#utility.yul\":16398:16399   */\n      0x00\n        /* \"#utility.yul\":16391:16479   */\n      mstore\n        /* \"#utility.yul\":16498:16502   */\n      0x41\n        /* \"#utility.yul\":16495:16496   */\n      0x04\n        /* \"#utility.yul\":16488:16503   */\n      mstore\n        /* \"#utility.yul\":16522:16526   */\n      0x24\n        /* \"#utility.yul\":16519:16520   */\n      0x00\n        /* \"#utility.yul\":16512:16527   */\n      revert\n        /* \"#utility.yul\":16539:16641   */\n    tag_286:\n      0x00\n        /* \"#utility.yul\":16631:16633   */\n      0x1f\n        /* \"#utility.yul\":16627:16634   */\n      not\n        /* \"#utility.yul\":16622:16624   */\n      0x1f\n        /* \"#utility.yul\":16615:16620   */\n      dup4\n        /* \"#utility.yul\":16611:16625   */\n      add\n        /* \"#utility.yul\":16607:16635   */\n      and\n        /* \"#utility.yul\":16597:16635   */\n      swap1\n      pop\n        /* \"#utility.yul\":16587:16641   */\n      swap2\n      swap1\n      pop\n      jump\t// out\n        /* \"#utility.yul\":16647:16872   */\n    tag_291:\n        /* \"#utility.yul\":16787:16821   */\n      0x4f776e61626c653a206e6577206f776e657220697320746865207a65726f2061\n        /* \"#utility.yul\":16783:16784   */\n      0x00\n        /* \"#utility.yul\":16775:16781   */\n      dup3\n        /* \"#utility.yul\":16771:16785   */\n      add\n        /* \"#utility.yul\":16764:16822   */\n      mstore\n        /* \"#utility.yul\":16856:16864   */\n      0x6464726573730000000000000000000000000000000000000000000000000000\n        /* \"#utility.yul\":16851:16853   */\n      0x20\n        /* \"#utility.yul\":16843:16849   */\n      dup3\n        /* \"#utility.yul\":16839:16854   */\n      add\n        /* \"#utility.yul\":16832:16865   */\n      mstore\n        /* \"#utility.yul\":16753:16872   */\n      pop\n      jump\t// out\n        /* \"#utility.yul\":16878:17109   */\n    tag_296:\n        /* \"#utility.yul\":17018:17052   */\n      0x46756e6374696f6e206d7573742062652063616c6c6564207468726f75676820\n        /* \"#utility.yul\":17014:17015   */\n      0x00\n        /* \"#utility.yul\":17006:17012   */\n      dup3\n        /* \"#utility.yul\":17002:17016   */\n      add\n        /* \"#utility.yul\":16995:17053   */\n      mstore\n        /* \"#utility.yul\":17087:17101   */\n      0x64656c656761746563616c6c0000000000000000000000000000000000000000\n        /* \"#utility.yul\":17082:17084   */\n      0x20\n        /* \"#utility.yul\":17074:17080   */\n      dup3\n        /* \"#utility.yul\":17070:17085   */\n      add\n        /* \"#utility.yul\":17063:17102   */\n      mstore\n        /* \"#utility.yul\":16984:17109   */\n      pop\n      jump\t// out\n        /* \"#utility.yul\":17115:17346   */\n    tag_301:\n        /* \"#utility.yul\":17255:17289   */\n      0x46756e6374696f6e206d7573742062652063616c6c6564207468726f75676820\n        /* \"#utility.yul\":17251:17252   */\n      0x00\n        /* \"#utility.yul\":17243:17249   */\n      dup3\n        /* \"#utility.yul\":17239:17253   */\n      add\n        /* \"#utility.yul\":17232:17290   */\n      mstore\n        /* \"#utility.yul\":17324:17338   */\n      0x6163746976652070726f78790000000000000000000000000000000000000000\n        /* \"#utility.yul\":17319:17321   */\n      0x20\n        /* \"#utility.yul\":17311:17317   */\n      dup3\n        /* \"#utility.yul\":17307:17322   */\n      add\n        /* \"#utility.yul\":17300:17339   */\n      mstore\n        /* \"#utility.yul\":17221:17346   */\n      pop\n      jump\t// out\n        /* \"#utility.yul\":17352:17595   */\n    tag_306:\n        /* \"#utility.yul\":17492:17526   */\n      0x555550535570677261646561626c653a206d757374206e6f742062652063616c\n        /* \"#utility.yul\":17488:17489   */\n      0x00\n        /* \"#utility.yul\":17480:17486   */\n      dup3\n        /* \"#utility.yul\":17476:17490   */\n      add\n        /* \"#utility.yul\":17469:17527   */\n      mstore\n        /* \"#utility.yul\":17561:17587   */\n      0x6c6564207468726f7567682064656c656761746563616c6c0000000000000000\n        /* \"#utility.yul\":17556:17558   */\n      0x20\n        /* \"#utility.yul\":17548:17554   */\n      dup3\n        /* \"#utility.yul\":17544:17559   */\n      add\n        /* \"#utility.yul\":17537:17588   */\n      mstore\n        /* \"#utility.yul\":17458:17595   */\n      pop\n      jump\t// out\n        /* \"#utility.yul\":17601:17829   */\n    tag_311:\n        /* \"#utility.yul\":17741:17775   */\n      0x45524331393637557067726164653a20756e737570706f727465642070726f78\n        /* \"#utility.yul\":17737:17738   */\n      0x00\n        /* \"#utility.yul\":17729:17735   */\n      dup3\n        /* \"#utility.yul\":17725:17739   */\n      add\n        /* \"#utility.yul\":17718:17776   */\n      mstore\n        /* \"#utility.yul\":17810:17821   */\n      0x6961626c65555549440000000000000000000000000000000000000000000000\n        /* \"#utility.yul\":17805:17807   */\n      0x20\n        /* \"#utility.yul\":17797:17803   */\n      dup3\n        /* \"#utility.yul\":17793:17808   */\n      add\n        /* \"#utility.yul\":17786:17822   */\n      mstore\n        /* \"#utility.yul\":17707:17829   */\n      pop\n      jump\t// out\n        /* \"#utility.yul\":17835:18068   */\n    tag_316:\n        /* \"#utility.yul\":17975:18009   */\n      0x496e697469616c697a61626c653a20636f6e747261637420697320616c726561\n        /* \"#utility.yul\":17971:17972   */\n      0x00\n        /* \"#utility.yul\":17963:17969   */\n      dup3\n        /* \"#utility.yul\":17959:17973   */\n      add\n        /* \"#utility.yul\":17952:18010   */\n      mstore\n        /* \"#utility.yul\":18044:18060   */\n      0x647920696e697469616c697a6564000000000000000000000000000000000000\n        /* \"#utility.yul\":18039:18041   */\n      0x20\n        /* \"#utility.yul\":18031:18037   */\n      dup3\n        /* \"#utility.yul\":18027:18042   */\n      add\n        /* \"#utility.yul\":18020:18061   */\n      mstore\n        /* \"#utility.yul\":17941:18068   */\n      pop\n      jump\t// out\n        /* \"#utility.yul\":18074:18307   */\n    tag_321:\n        /* \"#utility.yul\":18214:18248   */\n      0x45524331393637557067726164653a206e657720696d706c656d656e74617469\n        /* \"#utility.yul\":18210:18211   */\n      0x00\n        /* \"#utility.yul\":18202:18208   */\n      dup3\n        /* \"#utility.yul\":18198:18212   */\n      add\n        /* \"#utility.yul\":18191:18249   */\n      mstore\n        /* \"#utility.yul\":18283:18299   */\n      0x6f6e206973206e6f742055555053000000000000000000000000000000000000\n        /* \"#utility.yul\":18278:18280   */\n      0x20\n        /* \"#utility.yul\":18270:18276   */\n      dup3\n        /* \"#utility.yul\":18266:18281   */\n      add\n        /* \"#utility.yul\":18259:18300   */\n      mstore\n        /* \"#utility.yul\":18180:18307   */\n      pop\n      jump\t// out\n        /* \"#utility.yul\":18313:18545   */\n    tag_326:\n        /* \"#utility.yul\":18453:18487   */\n      0x455243313936373a206e657720696d706c656d656e746174696f6e206973206e\n        /* \"#utility.yul\":18449:18450   */\n      0x00\n        /* \"#utility.yul\":18441:18447   */\n      dup3\n        /* \"#utility.yul\":18437:18451   */\n      add\n        /* \"#utility.yul\":18430:18488   */\n      mstore\n        /* \"#utility.yul\":18522:18537   */\n      0x6f74206120636f6e747261637400000000000000000000000000000000000000\n        /* \"#utility.yul\":18517:18519   */\n      0x20\n        /* \"#utility.yul\":18509:18515   */\n      dup3\n        /* \"#utility.yul\":18505:18520   */\n      add\n        /* \"#utility.yul\":18498:18538   */\n      mstore\n        /* \"#utility.yul\":18419:18545   */\n      pop\n      jump\t// out\n        /* \"#utility.yul\":18551:18733   */\n    tag_331:\n        /* \"#utility.yul\":18691:18725   */\n      0x4f776e61626c653a2063616c6c6572206973206e6f7420746865206f776e6572\n        /* \"#utility.yul\":18687:18688   */\n      0x00\n        /* \"#utility.yul\":18679:18685   */\n      dup3\n        /* \"#utility.yul\":18675:18689   */\n      add\n        /* \"#utility.yul\":18668:18726   */\n      mstore\n        /* \"#utility.yul\":18657:18733   */\n      pop\n      jump\t// out\n        /* \"#utility.yul\":18739:18918   */\n    tag_336:\n        /* \"#utility.yul\":18879:18910   */\n      0x416464726573733a2063616c6c20746f206e6f6e2d636f6e7472616374000000\n        /* \"#utility.yul\":18875:18876   */\n      0x00\n        /* \"#utility.yul\":18867:18873   */\n      dup3\n        /* \"#utility.yul\":18863:18877   */\n      add\n        /* \"#utility.yul\":18856:18911   */\n      mstore\n        /* \"#utility.yul\":18845:18918   */\n      pop\n      jump\t// out\n        /* \"#utility.yul\":18924:19154   */\n    tag_341:\n        /* \"#utility.yul\":19064:19098   */\n      0x496e697469616c697a61626c653a20636f6e7472616374206973206e6f742069\n        /* \"#utility.yul\":19060:19061   */\n      0x00\n        /* \"#utility.yul\":19052:19058   */\n      dup3\n        /* \"#utility.yul\":19048:19062   */\n      add\n        /* \"#utility.yul\":19041:19099   */\n      mstore\n        /* \"#utility.yul\":19133:19146   */\n      0x6e697469616c697a696e67000000000000000000000000000000000000000000\n        /* \"#utility.yul\":19128:19130   */\n      0x20\n        /* \"#utility.yul\":19120:19126   */\n      dup3\n        /* \"#utility.yul\":19116:19131   */\n      add\n        /* \"#utility.yul\":19109:19147   */\n      mstore\n        /* \"#utility.yul\":19030:19154   */\n      pop\n      jump\t// out\n        /* \"#utility.yul\":19160:19282   */\n    tag_242:\n        /* \"#utility.yul\":19233:19257   */\n      tag_435\n        /* \"#utility.yul\":19251:19256   */\n      dup2\n        /* \"#utility.yul\":19233:19257   */\n      tag_265\n      jump\t// in\n    tag_435:\n        /* \"#utility.yul\":19226:19231   */\n      dup2\n        /* \"#utility.yul\":19223:19258   */\n      eq\n        /* \"#utility.yul\":19213:19215   */\n      tag_436\n      jumpi\n        /* \"#utility.yul\":19272:19273   */\n      0x00\n        /* \"#utility.yul\":19269:19270   */\n      dup1\n        /* \"#utility.yul\":19262:19274   */\n      revert\n        /* \"#utility.yul\":19213:19215   */\n    tag_436:\n        /* \"#utility.yul\":19203:19282   */\n      pop\n      jump\t// out\n        /* \"#utility.yul\":19288:19410   */\n    tag_246:\n        /* \"#utility.yul\":19361:19385   */\n      tag_438\n        /* \"#utility.yul\":19379:19384   */\n      dup2\n        /* \"#utility.yul\":19361:19385   */\n      tag_269\n      jump\t// in\n    tag_438:\n        /* \"#utility.yul\":19354:19359   */\n      dup2\n        /* \"#utility.yul\":19351:19386   */\n      eq\n        /* \"#utility.yul\":19341:19343   */\n      tag_439\n      jumpi\n        /* \"#utility.yul\":19400:19401   */\n      0x00\n        /* \"#utility.yul\":19397:19398   */\n      dup1\n        /* \"#utility.yul\":19390:19402   */\n      revert\n        /* \"#utility.yul\":19341:19343   */\n    tag_439:\n        /* \"#utility.yul\":19331:19410   */\n      pop\n      jump\t// out\n    stop\n    data_9fdcd12e4b726339b32a442b0a448365d5d85c96b2d2cff917b4f66c63110398 416464726573733a206c6f772d6c6576656c2064656c65676174652063616c6c206661696c6564\n\n    auxdata: 0xa264697066735822122081f5eaa3cfe21f4041710c9ee834092595019e70cadf9d23d0caa89c20bd7a3164736f6c63430008010033\n}\n",
				"bytecode": {
					"linkReferences": {},
					"object": "60a06040523073ffffffffffffffffffffffffffffffffffffffff1660809073ffffffffffffffffffffffffffffffffffffffff1660601b8152503480156200004757600080fd5b50620000586200005e60201b60201c565b62000193565b600060019054906101000a900460ff1615620000b1576040517f08c379a0000000000000000000000000000000000000000000000000000000008152600401620000a89062000111565b60405180910390fd5b60ff801660008054906101000a900460ff1660ff1614620000e85760ff6000806101000a81548160ff021916908360ff1602179055505b565b6000620000f960278362000133565b9150620001068262000144565b604082019050919050565b600060208201905081810360008301526200012c81620000ea565b9050919050565b600082825260208201905092915050565b7f496e697469616c697a61626c653a20636f6e747261637420697320696e69746960008201527f616c697a696e6700000000000000000000000000000000000000000000000000602082015250565b60805160601c611b41620001ce600039600081816102b60152818161034501528181610465015281816104f401526105cd0152611b416000f3fe6080604052600436106100915760003560e01c8063715018a611610059578063715018a6146101485780638129fc1c1461015f578063862b092b146101765780638da5cb5b146101a1578063f2fde38b146101cc57610091565b8063010a38f5146100965780633659cfe6146100c15780634f1ef286146100ea5780634fa519fa1461010657806352d1902d1461011d575b600080fd5b3480156100a257600080fd5b506100ab6101f5565b6040516100b89190611528565b60405180910390f35b3480156100cd57600080fd5b506100e860048036038101906100e3919061109b565b6102b4565b005b61010460048036038101906100ff91906110c4565b610463565b005b34801561011257600080fd5b5061011b6105a0565b005b34801561012957600080fd5b506101326105c9565b60405161013f919061138b565b60405180910390f35b34801561015457600080fd5b5061015d610682565b005b34801561016b57600080fd5b50610174610696565b005b34801561018257600080fd5b5061018b610788565b60405161019891906113a6565b60405180910390f35b3480156101ad57600080fd5b506101b6610848565b6040516101c39190611370565b60405180910390f35b3480156101d857600080fd5b506101f360048036038101906101ee919061109b565b610872565b005b6000806102006108f6565b60405180604001604052908160008201805461021b90611653565b80601f016020809104026020016040519081016040528092919081815260200182805461024790611653565b80156102945780601f1061026957610100808354040283529160200191610294565b820191906000526020600020905b81548152906001019060200180831161027757829003601f168201915b505050505081526020016001820154815250509050806020015191505090565b7f000000000000000000000000000000000000000000000000000000000000000073ffffffffffffffffffffffffffffffffffffffff163073ffffffffffffffffffffffffffffffffffffffff161415610343576040517f08c379a000000000000000000000000000000000000000000000000000000000815260040161033a906113e8565b60405180910390fd5b7f000000000000000000000000000000000000000000000000000000000000000073ffffffffffffffffffffffffffffffffffffffff1661038261091e565b73ffffffffffffffffffffffffffffffffffffffff16146103d8576040517f08c379a00000000000000000000000000000000000000000000000000000000081526004016103cf90611408565b60405180910390fd5b6103e181610975565b61046081600067ffffffffffffffff811115610426577f4e487b7100000000000000000000000000000000000000000000000000000000600052604160045260246000fd5b6040519080825280601f01601f1916602001820160405280156104585781602001600182028036833780820191505090505b506000610980565b50565b7f000000000000000000000000000000000000000000000000000000000000000073ffffffffffffffffffffffffffffffffffffffff163073ffffffffffffffffffffffffffffffffffffffff1614156104f2576040517f08c379a00000000000000000000000000000000000000000000000000000000081526004016104e9906113e8565b60405180910390fd5b7f000000000000000000000000000000000000000000000000000000000000000073ffffffffffffffffffffffffffffffffffffffff1661053161091e565b73ffffffffffffffffffffffffffffffffffffffff1614610587576040517f08c379a000000000000000000000000000000000000000000000000000000000815260040161057e90611408565b60405180910390fd5b61059082610975565b61059c82826001610980565b5050565b60006105aa6108f6565b90508060010160008154809291906105c1906116b6565b919050555050565b60007f000000000000000000000000000000000000000000000000000000000000000073ffffffffffffffffffffffffffffffffffffffff163073ffffffffffffffffffffffffffffffffffffffff1614610659576040517f08c379a000000000000000000000000000000000000000000000000000000000815260040161065090611428565b60405180910390fd5b7f360894a13ba1a3210667c828492db98dca3e2076cc3735a920a3ca505d382bbc60001b905090565b61068a610afd565b6106946000610b7b565b565b600060019054906101000a900460ff166106c357600160008054906101000a900460ff1660ff16106106cc565b6106cb610c41565b5b61070b576040517f08c379a000000000000000000000000000000000000000000000000000000000815260040161070290611468565b60405180910390fd5b60008060019054906101000a900460ff1615905060016000806101000a81548160ff021916908360ff160217905550801561075c576001600060016101000a81548160ff0219169083151502179055505b610764610c63565b80156107855760008060016101000a81548160ff0219169083151502179055505b50565b606060006107946108f6565b6040518060400160405290816000820180546107af90611653565b80601f01602080910402602001604051908101604052809291908181526020018280546107db90611653565b80156108285780601f106107fd57610100808354040283529160200191610828565b820191906000526020600020905b81548152906001019060200180831161080b57829003601f168201915b505050505081526020016001820154815250509050806000015191505090565b6000603360009054906101000a900473ffffffffffffffffffffffffffffffffffffffff16905090565b61087a610afd565b600073ffffffffffffffffffffffffffffffffffffffff168173ffffffffffffffffffffffffffffffffffffffff1614156108ea576040517f08c379a00000000000000000000000000000000000000000000000000000000081526004016108e1906113c8565b60405180910390fd5b6108f381610b7b565b50565b60007ffbb7c9e4123fcf4b1aad53c70358f7b1c1d7cf28092f5178b53e55db565e9200905090565b600061094c7f360894a13ba1a3210667c828492db98dca3e2076cc3735a920a3ca505d382bbc60001b610cbc565b60000160009054906101000a900473ffffffffffffffffffffffffffffffffffffffff16905090565b61097d610afd565b50565b6109ac7f4910fdfa16fed3260ed0e7147f7cc6da11a60208b5b9406d12a635614ffd914360001b610cc6565b60000160009054906101000a900460ff16156109d0576109cb83610cd0565b610af8565b8273ffffffffffffffffffffffffffffffffffffffff166352d1902d6040518163ffffffff1660e01b815260040160206040518083038186803b158015610a1657600080fd5b505afa925050508015610a4757506040513d601f19601f82011682018060405250810190610a449190611118565b60015b610a86576040517f08c379a0000000000000000000000000000000000000000000000000000000008152600401610a7d90611488565b60405180910390fd5b7f360894a13ba1a3210667c828492db98dca3e2076cc3735a920a3ca505d382bbc60001b8114610aeb576040517f08c379a0000000000000000000000000000000000000000000000000000000008152600401610ae290611448565b60405180910390fd5b50610af7838383610d89565b5b505050565b610b05610db5565b73ffffffffffffffffffffffffffffffffffffffff16610b23610848565b73ffffffffffffffffffffffffffffffffffffffff1614610b79576040517f08c379a0000000000000000000000000000000000000000000000000000000008152600401610b70906114c8565b60405180910390fd5b565b6000603360009054906101000a900473ffffffffffffffffffffffffffffffffffffffff16905081603360006101000a81548173ffffffffffffffffffffffffffffffffffffffff021916908373ffffffffffffffffffffffffffffffffffffffff1602179055508173ffffffffffffffffffffffffffffffffffffffff168173ffffffffffffffffffffffffffffffffffffffff167f8be0079c531659141344cd1fd0a4f28419497f9722a3daafe3b4186f6b6457e060405160405180910390a35050565b6000803073ffffffffffffffffffffffffffffffffffffffff163b1115905090565b600060019054906101000a900460ff16610cb2576040517f08c379a0000000000000000000000000000000000000000000000000000000008152600401610ca990611508565b60405180910390fd5b610cba610dbd565b565b6000819050919050565b6000819050919050565b610cd981610e1e565b610d18576040517f08c379a0000000000000000000000000000000000000000000000000000000008152600401610d0f906114a8565b60405180910390fd5b80610d457f360894a13ba1a3210667c828492db98dca3e2076cc3735a920a3ca505d382bbc60001b610cbc565b60000160006101000a81548173ffffffffffffffffffffffffffffffffffffffff021916908373ffffffffffffffffffffffffffffffffffffffff16021790555050565b610d9283610e41565b600082511180610d9f5750805b15610db057610dae8383610e90565b505b505050565b600033905090565b600060019054906101000a900460ff16610e0c576040517f08c379a0000000000000000000000000000000000000000000000000000000008152600401610e0390611508565b60405180910390fd5b610e1c610e17610db5565b610b7b565b565b6000808273ffffffffffffffffffffffffffffffffffffffff163b119050919050565b610e4a81610cd0565b8073ffffffffffffffffffffffffffffffffffffffff167fbc7cd75a20ee27fd9adebab32041f755214dbc6bffa90cc0225b39da2e5c2d3b60405160405180910390a250565b6060610eb58383604051806060016040528060278152602001611ae560279139610ebd565b905092915050565b60606000808573ffffffffffffffffffffffffffffffffffffffff1685604051610ee79190611359565b600060405180830381855af49150503d8060008114610f22576040519150601f19603f3d011682016040523d82523d6000602084013e610f27565b606091505b5091509150610f3886838387610f43565b925050509392505050565b60608315610fa657600083511415610f9e57610f5e85610e1e565b610f9d576040517f08c379a0000000000000000000000000000000000000000000000000000000008152600401610f94906114e8565b60405180910390fd5b5b829050610fb1565b610fb08383610fb9565b5b949350505050565b600082511115610fcc5781518083602001fd5b806040517f08c379a000000000000000000000000000000000000000000000000000000000815260040161100091906113a6565b60405180910390fd5b600061101c61101784611568565b611543565b90508281526020810184848401111561103457600080fd5b61103f848285611611565b509392505050565b60008135905061105681611ab6565b92915050565b60008151905061106b81611acd565b92915050565b600082601f83011261108257600080fd5b8135611092848260208601611009565b91505092915050565b6000602082840312156110ad57600080fd5b60006110bb84828501611047565b91505092915050565b600080604083850312156110d757600080fd5b60006110e585828601611047565b925050602083013567ffffffffffffffff81111561110257600080fd5b61110e85828601611071565b9150509250929050565b60006020828403121561112a57600080fd5b60006111388482850161105c565b91505092915050565b61114a816115cb565b82525050565b611159816115dd565b82525050565b600061116a82611599565b61117481856115af565b9350611184818560208601611620565b80840191505092915050565b600061119b826115a4565b6111a581856115ba565b93506111b5818560208601611620565b6111be8161178c565b840191505092915050565b60006111d66026836115ba565b91506111e18261179d565b604082019050919050565b60006111f9602c836115ba565b9150611204826117ec565b604082019050919050565b600061121c602c836115ba565b91506112278261183b565b604082019050919050565b600061123f6038836115ba565b915061124a8261188a565b604082019050919050565b60006112626029836115ba565b915061126d826118d9565b604082019050919050565b6000611285602e836115ba565b915061129082611928565b604082019050919050565b60006112a8602e836115ba565b91506112b382611977565b604082019050919050565b60006112cb602d836115ba565b91506112d6826119c6565b604082019050919050565b60006112ee6020836115ba565b91506112f982611a15565b602082019050919050565b6000611311601d836115ba565b915061131c82611a3e565b602082019050919050565b6000611334602b836115ba565b915061133f82611a67565b604082019050919050565b61135381611607565b82525050565b6000611365828461115f565b915081905092915050565b60006020820190506113856000830184611141565b92915050565b60006020820190506113a06000830184611150565b92915050565b600060208201905081810360008301526113c08184611190565b905092915050565b600060208201905081810360008301526113e1816111c9565b9050919050565b60006020820190508181036000830152611401816111ec565b9050919050565b600060208201905081810360008301526114218161120f565b9050919050565b6000602082019050818103600083015261144181611232565b9050919050565b6000602082019050818103600083015261146181611255565b9050919050565b6000602082019050818103600083015261148181611278565b9050919050565b600060208201905081810360008301526114a18161129b565b9050919050565b600060208201905081810360008301526114c1816112be565b9050919050565b600060208201905081810360008301526114e1816112e1565b9050919050565b6000602082019050818103600083015261150181611304565b9050919050565b6000602082019050818103600083015261152181611327565b9050919050565b600060208201905061153d600083018461134a565b92915050565b600061154d61155e565b90506115598282611685565b919050565b6000604051905090565b600067ffffffffffffffff8211156115835761158261175d565b5b61158c8261178c565b9050602081019050919050565b600081519050919050565b600081519050919050565b600081905092915050565b600082825260208201905092915050565b60006115d6826115e7565b9050919050565b6000819050919050565b600073ffffffffffffffffffffffffffffffffffffffff82169050919050565b6000819050919050565b82818337600083830152505050565b60005b8381101561163e578082015181840152602081019050611623565b8381111561164d576000848401525b50505050565b6000600282049050600182168061166b57607f821691505b6020821081141561167f5761167e61172e565b5b50919050565b61168e8261178c565b810181811067ffffffffffffffff821117156116ad576116ac61175d565b5b80604052505050565b60006116c182611607565b91507fffffffffffffffffffffffffffffffffffffffffffffffffffffffffffffffff8214156116f4576116f36116ff565b5b600182019050919050565b7f4e487b7100000000000000000000000000000000000000000000000000000000600052601160045260246000fd5b7f4e487b7100000000000000000000000000000000000000000000000000000000600052602260045260246000fd5b7f4e487b7100000000000000000000000000000000000000000000000000000000600052604160045260246000fd5b6000601f19601f8301169050919050565b7f4f776e61626c653a206e6577206f776e657220697320746865207a65726f206160008201527f6464726573730000000000000000000000000000000000000000000000000000602082015250565b7f46756e6374696f6e206d7573742062652063616c6c6564207468726f7567682060008201527f64656c656761746563616c6c0000000000000000000000000000000000000000602082015250565b7f46756e6374696f6e206d7573742062652063616c6c6564207468726f7567682060008201527f6163746976652070726f78790000000000000000000000000000000000000000602082015250565b7f555550535570677261646561626c653a206d757374206e6f742062652063616c60008201527f6c6564207468726f7567682064656c656761746563616c6c0000000000000000602082015250565b7f45524331393637557067726164653a20756e737570706f727465642070726f7860008201527f6961626c65555549440000000000000000000000000000000000000000000000602082015250565b7f496e697469616c697a61626c653a20636f6e747261637420697320616c72656160008201527f647920696e697469616c697a6564000000000000000000000000000000000000602082015250565b7f45524331393637557067726164653a206e657720696d706c656d656e7461746960008201527f6f6e206973206e6f742055555053000000000000000000000000000000000000602082015250565b7f455243313936373a206e657720696d706c656d656e746174696f6e206973206e60008201527f6f74206120636f6e747261637400000000000000000000000000000000000000602082015250565b7f4f776e61626c653a2063616c6c6572206973206e6f7420746865206f776e6572600082015250565b7f416464726573733a2063616c6c20746f206e6f6e2d636f6e7472616374000000600082015250565b7f496e697469616c697a61626c653a20636f6e7472616374206973206e6f74206960008201527f6e697469616c697a696e67000000000000000000000000000000000000000000602082015250565b611abf816115cb565b8114611aca57600080fd5b50565b611ad6816115dd565b8114611ae157600080fd5b5056fe416464726573733a206c6f772d6c6576656c2064656c65676174652063616c6c206661696c6564a264697066735822122081f5eaa3cfe21f4041710c9ee834092595019e70cadf9d23d0caa89c20bd7a3164736f6c63430008010033",
					"opcodes": "PUSH1 0xA0 PUSH1 0x40 MSTORE ADDRESS PUSH20 0xFFFFFFFFFFFFFFFFFFFFFFFFFFFFFFFFFFFFFFFF AND PUSH1 0x80 SWAP1 PUSH20 0xFFFFFFFFFFFFFFFFFFFFFFFFFFFFFFFFFFFFFFFF AND PUSH1 0x60 SHL DUP2 MSTORE POP CALLVALUE DUP1 ISZERO PUSH3 0x47 JUMPI PUSH1 0x0 DUP1 REVERT JUMPDEST POP PUSH3 0x58 PUSH3 0x5E PUSH1 0x20 SHL PUSH1 0x20 SHR JUMP JUMPDEST PUSH3 0x193 JUMP JUMPDEST PUSH1 0x0 PUSH1 0x1 SWAP1 SLOAD SWAP1 PUSH2 0x100 EXP SWAP1 DIV PUSH1 0xFF AND ISZERO PUSH3 0xB1 JUMPI PUSH1 0x40 MLOAD PUSH32 0x8C379A000000000000000000000000000000000000000000000000000000000 DUP2 MSTORE PUSH1 0x4 ADD PUSH3 0xA8 SWAP1 PUSH3 0x111 JUMP JUMPDEST PUSH1 0x40 MLOAD DUP1 SWAP2 SUB SWAP1 REVERT JUMPDEST PUSH1 0xFF DUP1 AND PUSH1 0x0 DUP1 SLOAD SWAP1 PUSH2 0x100 EXP SWAP1 DIV PUSH1 0xFF AND PUSH1 0xFF AND EQ PUSH3 0xE8 JUMPI PUSH1 0xFF PUSH1 0x0 DUP1 PUSH2 0x100 EXP DUP2 SLOAD DUP2 PUSH1 0xFF MUL NOT AND SWAP1 DUP4 PUSH1 0xFF AND MUL OR SWAP1 SSTORE POP JUMPDEST JUMP JUMPDEST PUSH1 0x0 PUSH3 0xF9 PUSH1 0x27 DUP4 PUSH3 0x133 JUMP JUMPDEST SWAP2 POP PUSH3 0x106 DUP3 PUSH3 0x144 JUMP JUMPDEST PUSH1 0x40 DUP3 ADD SWAP1 POP SWAP2 SWAP1 POP JUMP JUMPDEST PUSH1 0x0 PUSH1 0x20 DUP3 ADD SWAP1 POP DUP2 DUP2 SUB PUSH1 0x0 DUP4 ADD MSTORE PUSH3 0x12C DUP2 PUSH3 0xEA JUMP JUMPDEST SWAP1 POP SWAP2 SWAP1 POP JUMP JUMPDEST PUSH1 0x0 DUP3 DUP3 MSTORE PUSH1 0x20 DUP3 ADD SWAP1 POP SWAP3 SWAP2 POP POP JUMP JUMPDEST PUSH32 0x496E697469616C697A61626C653A20636F6E747261637420697320696E697469 PUSH1 0x0 DUP3 ADD MSTORE PUSH32 0x616C697A696E6700000000000000000000000000000000000000000000000000 PUSH1 0x20 DUP3 ADD MSTORE POP JUMP JUMPDEST PUSH1 0x80 MLOAD PUSH1 0x60 SHR PUSH2 0x1B41 PUSH3 0x1CE PUSH1 0x0 CODECOPY PUSH1 0x0 DUP2 DUP2 PUSH2 0x2B6 ADD MSTORE DUP2 DUP2 PUSH2 0x345 ADD MSTORE DUP2 DUP2 PUSH2 0x465 ADD MSTORE DUP2 DUP2 PUSH2 0x4F4 ADD MSTORE PUSH2 0x5CD ADD MSTORE PUSH2 0x1B41 PUSH1 0x0 RETURN INVALID PUSH1 0x80 PUSH1 0x40 MSTORE PUSH1 0x4 CALLDATASIZE LT PUSH2 0x91 JUMPI PUSH1 0x0 CALLDATALOAD PUSH1 0xE0 SHR DUP1 PUSH4 0x715018A6 GT PUSH2 0x59 JUMPI DUP1 PUSH4 0x715018A6 EQ PUSH2 0x148 JUMPI DUP1 PUSH4 0x8129FC1C EQ PUSH2 0x15F JUMPI DUP1 PUSH4 0x862B092B EQ PUSH2 0x176 JUMPI DUP1 PUSH4 0x8DA5CB5B EQ PUSH2 0x1A1 JUMPI DUP1 PUSH4 0xF2FDE38B EQ PUSH2 0x1CC JUMPI PUSH2 0x91 JUMP JUMPDEST DUP1 PUSH4 0x10A38F5 EQ PUSH2 0x96 JUMPI DUP1 PUSH4 0x3659CFE6 EQ PUSH2 0xC1 JUMPI DUP1 PUSH4 0x4F1EF286 EQ PUSH2 0xEA JUMPI DUP1 PUSH4 0x4FA519FA EQ PUSH2 0x106 JUMPI DUP1 PUSH4 0x52D1902D EQ PUSH2 0x11D JUMPI JUMPDEST PUSH1 0x0 DUP1 REVERT JUMPDEST CALLVALUE DUP1 ISZERO PUSH2 0xA2 JUMPI PUSH1 0x0 DUP1 REVERT JUMPDEST POP PUSH2 0xAB PUSH2 0x1F5 JUMP JUMPDEST PUSH1 0x40 MLOAD PUSH2 0xB8 SWAP2 SWAP1 PUSH2 0x1528 JUMP JUMPDEST PUSH1 0x40 MLOAD DUP1 SWAP2 SUB SWAP1 RETURN JUMPDEST CALLVALUE DUP1 ISZERO PUSH2 0xCD JUMPI PUSH1 0x0 DUP1 REVERT JUMPDEST POP PUSH2 0xE8 PUSH1 0x4 DUP1 CALLDATASIZE SUB DUP2 ADD SWAP1 PUSH2 0xE3 SWAP2 SWAP1 PUSH2 0x109B JUMP JUMPDEST PUSH2 0x2B4 JUMP JUMPDEST STOP JUMPDEST PUSH2 0x104 PUSH1 0x4 DUP1 CALLDATASIZE SUB DUP2 ADD SWAP1 PUSH2 0xFF SWAP2 SWAP1 PUSH2 0x10C4 JUMP JUMPDEST PUSH2 0x463 JUMP JUMPDEST STOP JUMPDEST CALLVALUE DUP1 ISZERO PUSH2 0x112 JUMPI PUSH1 0x0 DUP1 REVERT JUMPDEST POP PUSH2 0x11B PUSH2 0x5A0 JUMP JUMPDEST STOP JUMPDEST CALLVALUE DUP1 ISZERO PUSH2 0x129 JUMPI PUSH1 0x0 DUP1 REVERT JUMPDEST POP PUSH2 0x132 PUSH2 0x5C9 JUMP JUMPDEST PUSH1 0x40 MLOAD PUSH2 0x13F SWAP2 SWAP1 PUSH2 0x138B JUMP JUMPDEST PUSH1 0x40 MLOAD DUP1 SWAP2 SUB SWAP1 RETURN JUMPDEST CALLVALUE DUP1 ISZERO PUSH2 0x154 JUMPI PUSH1 0x0 DUP1 REVERT JUMPDEST POP PUSH2 0x15D PUSH2 0x682 JUMP JUMPDEST STOP JUMPDEST CALLVALUE DUP1 ISZERO PUSH2 0x16B JUMPI PUSH1 0x0 DUP1 REVERT JUMPDEST POP PUSH2 0x174 PUSH2 0x696 JUMP JUMPDEST STOP JUMPDEST CALLVALUE DUP1 ISZERO PUSH2 0x182 JUMPI PUSH1 0x0 DUP1 REVERT JUMPDEST POP PUSH2 0x18B PUSH2 0x788 JUMP JUMPDEST PUSH1 0x40 MLOAD PUSH2 0x198 SWAP2 SWAP1 PUSH2 0x13A6 JUMP JUMPDEST PUSH1 0x40 MLOAD DUP1 SWAP2 SUB SWAP1 RETURN JUMPDEST CALLVALUE DUP1 ISZERO PUSH2 0x1AD JUMPI PUSH1 0x0 DUP1 REVERT JUMPDEST POP PUSH2 0x1B6 PUSH2 0x848 JUMP JUMPDEST PUSH1 0x40 MLOAD PUSH2 0x1C3 SWAP2 SWAP1 PUSH2 0x1370 JUMP JUMPDEST PUSH1 0x40 MLOAD DUP1 SWAP2 SUB SWAP1 RETURN JUMPDEST CALLVALUE DUP1 ISZERO PUSH2 0x1D8 JUMPI PUSH1 0x0 DUP1 REVERT JUMPDEST POP PUSH2 0x1F3 PUSH1 0x4 DUP1 CALLDATASIZE SUB DUP2 ADD SWAP1 PUSH2 0x1EE SWAP2 SWAP1 PUSH2 0x109B JUMP JUMPDEST PUSH2 0x872 JUMP JUMPDEST STOP JUMPDEST PUSH1 0x0 DUP1 PUSH2 0x200 PUSH2 0x8F6 JUMP JUMPDEST PUSH1 0x40 MLOAD DUP1 PUSH1 0x40 ADD PUSH1 0x40 MSTORE SWAP1 DUP2 PUSH1 0x0 DUP3 ADD DUP1 SLOAD PUSH2 0x21B SWAP1 PUSH2 0x1653 JUMP JUMPDEST DUP1 PUSH1 0x1F ADD PUSH1 0x20 DUP1 SWAP2 DIV MUL PUSH1 0x20 ADD PUSH1 0x40 MLOAD SWAP1 DUP2 ADD PUSH1 0x40 MSTORE DUP1 SWAP3 SWAP2 SWAP1 DUP2 DUP2 MSTORE PUSH1 0x20 ADD DUP3 DUP1 SLOAD PUSH2 0x247 SWAP1 PUSH2 0x1653 JUMP JUMPDEST DUP1 ISZERO PUSH2 0x294 JUMPI DUP1 PUSH1 0x1F LT PUSH2 0x269 JUMPI PUSH2 0x100 DUP1 DUP4 SLOAD DIV MUL DUP4 MSTORE SWAP2 PUSH1 0x20 ADD SWAP2 PUSH2 0x294 JUMP JUMPDEST DUP3 ADD SWAP2 SWAP1 PUSH1 0x0 MSTORE PUSH1 0x20 PUSH1 0x0 KECCAK256 SWAP1 JUMPDEST DUP2 SLOAD DUP2 MSTORE SWAP1 PUSH1 0x1 ADD SWAP1 PUSH1 0x20 ADD DUP1 DUP4 GT PUSH2 0x277 JUMPI DUP3 SWAP1 SUB PUSH1 0x1F AND DUP3 ADD SWAP2 JUMPDEST POP POP POP POP POP DUP2 MSTORE PUSH1 0x20 ADD PUSH1 0x1 DUP3 ADD SLOAD DUP2 MSTORE POP POP SWAP1 POP DUP1 PUSH1 0x20 ADD MLOAD SWAP2 POP POP SWAP1 JUMP JUMPDEST PUSH32 0x0 PUSH20 0xFFFFFFFFFFFFFFFFFFFFFFFFFFFFFFFFFFFFFFFF AND ADDRESS PUSH20 0xFFFFFFFFFFFFFFFFFFFFFFFFFFFFFFFFFFFFFFFF AND EQ ISZERO PUSH2 0x343 JUMPI PUSH1 0x40 MLOAD PUSH32 0x8C379A000000000000000000000000000000000000000000000000000000000 DUP2 MSTORE PUSH1 0x4 ADD PUSH2 0x33A SWAP1 PUSH2 0x13E8 JUMP JUMPDEST PUSH1 0x40 MLOAD DUP1 SWAP2 SUB SWAP1 REVERT JUMPDEST PUSH32 0x0 PUSH20 0xFFFFFFFFFFFFFFFFFFFFFFFFFFFFFFFFFFFFFFFF AND PUSH2 0x382 PUSH2 0x91E JUMP JUMPDEST PUSH20 0xFFFFFFFFFFFFFFFFFFFFFFFFFFFFFFFFFFFFFFFF AND EQ PUSH2 0x3D8 JUMPI PUSH1 0x40 MLOAD PUSH32 0x8C379A000000000000000000000000000000000000000000000000000000000 DUP2 MSTORE PUSH1 0x4 ADD PUSH2 0x3CF SWAP1 PUSH2 0x1408 JUMP JUMPDEST PUSH1 0x40 MLOAD DUP1 SWAP2 SUB SWAP1 REVERT JUMPDEST PUSH2 0x3E1 DUP2 PUSH2 0x975 JUMP JUMPDEST PUSH2 0x460 DUP2 PUSH1 0x0 PUSH8 0xFFFFFFFFFFFFFFFF DUP2 GT ISZERO PUSH2 0x426 JUMPI PUSH32 0x4E487B7100000000000000000000000000000000000000000000000000000000 PUSH1 0x0 MSTORE PUSH1 0x41 PUSH1 0x4 MSTORE PUSH1 0x24 PUSH1 0x0 REVERT JUMPDEST PUSH1 0x40 MLOAD SWAP1 DUP1 DUP3 MSTORE DUP1 PUSH1 0x1F ADD PUSH1 0x1F NOT AND PUSH1 0x20 ADD DUP3 ADD PUSH1 0x40 MSTORE DUP1 ISZERO PUSH2 0x458 JUMPI DUP2 PUSH1 0x20 ADD PUSH1 0x1 DUP3 MUL DUP1 CALLDATASIZE DUP4 CALLDATACOPY DUP1 DUP3 ADD SWAP2 POP POP SWAP1 POP JUMPDEST POP PUSH1 0x0 PUSH2 0x980 JUMP JUMPDEST POP JUMP JUMPDEST PUSH32 0x0 PUSH20 0xFFFFFFFFFFFFFFFFFFFFFFFFFFFFFFFFFFFFFFFF AND ADDRESS PUSH20 0xFFFFFFFFFFFFFFFFFFFFFFFFFFFFFFFFFFFFFFFF AND EQ ISZERO PUSH2 0x4F2 JUMPI PUSH1 0x40 MLOAD PUSH32 0x8C379A000000000000000000000000000000000000000000000000000000000 DUP2 MSTORE PUSH1 0x4 ADD PUSH2 0x4E9 SWAP1 PUSH2 0x13E8 JUMP JUMPDEST PUSH1 0x40 MLOAD DUP1 SWAP2 SUB SWAP1 REVERT JUMPDEST PUSH32 0x0 PUSH20 0xFFFFFFFFFFFFFFFFFFFFFFFFFFFFFFFFFFFFFFFF AND PUSH2 0x531 PUSH2 0x91E JUMP JUMPDEST PUSH20 0xFFFFFFFFFFFFFFFFFFFFFFFFFFFFFFFFFFFFFFFF AND EQ PUSH2 0x587 JUMPI PUSH1 0x40 MLOAD PUSH32 0x8C379A000000000000000000000000000000000000000000000000000000000 DUP2 MSTORE PUSH1 0x4 ADD PUSH2 0x57E SWAP1 PUSH2 0x1408 JUMP JUMPDEST PUSH1 0x40 MLOAD DUP1 SWAP2 SUB SWAP1 REVERT JUMPDEST PUSH2 0x590 DUP3 PUSH2 0x975 JUMP JUMPDEST PUSH2 0x59C DUP3 DUP3 PUSH1 0x1 PUSH2 0x980 JUMP JUMPDEST POP POP JUMP JUMPDEST PUSH1 0x0 PUSH2 0x5AA PUSH2 0x8F6 JUMP JUMPDEST SWAP1 POP DUP1 PUSH1 0x1 ADD PUSH1 0x0 DUP2 SLOAD DUP1 SWAP3 SWAP2 SWAP1 PUSH2 0x5C1 SWAP1 PUSH2 0x16B6 JUMP JUMPDEST SWAP2 SWAP1 POP SSTORE POP POP JUMP JUMPDEST PUSH1 0x0 PUSH32 0x0 PUSH20 0xFFFFFFFFFFFFFFFFFFFFFFFFFFFFFFFFFFFFFFFF AND ADDRESS PUSH20 0xFFFFFFFFFFFFFFFFFFFFFFFFFFFFFFFFFFFFFFFF AND EQ PUSH2 0x659 JUMPI PUSH1 0x40 MLOAD PUSH32 0x8C379A000000000000000000000000000000000000000000000000000000000 DUP2 MSTORE PUSH1 0x4 ADD PUSH2 0x650 SWAP1 PUSH2 0x1428 JUMP JUMPDEST PUSH1 0x40 MLOAD DUP1 SWAP2 SUB SWAP1 REVERT JUMPDEST PUSH32 0x360894A13BA1A3210667C828492DB98DCA3E2076CC3735A920A3CA505D382BBC PUSH1 0x0 SHL SWAP1 POP SWAP1 JUMP JUMPDEST PUSH2 0x68A PUSH2 0xAFD JUMP JUMPDEST PUSH2 0x694 PUSH1 0x0 PUSH2 0xB7B JUMP JUMPDEST JUMP JUMPDEST PUSH1 0x0 PUSH1 0x1 SWAP1 SLOAD SWAP1 PUSH2 0x100 EXP SWAP1 DIV PUSH1 0xFF AND PUSH2 0x6C3 JUMPI PUSH1 0x1 PUSH1 0x0 DUP1 SLOAD SWAP1 PUSH2 0x100 EXP SWAP1 DIV PUSH1 0xFF AND PUSH1 0xFF AND LT PUSH2 0x6CC JUMP JUMPDEST PUSH2 0x6CB PUSH2 0xC41 JUMP JUMPDEST JUMPDEST PUSH2 0x70B JUMPI PUSH1 0x40 MLOAD PUSH32 0x8C379A000000000000000000000000000000000000000000000000000000000 DUP2 MSTORE PUSH1 0x4 ADD PUSH2 0x702 SWAP1 PUSH2 0x1468 JUMP JUMPDEST PUSH1 0x40 MLOAD DUP1 SWAP2 SUB SWAP1 REVERT JUMPDEST PUSH1 0x0 DUP1 PUSH1 0x1 SWAP1 SLOAD SWAP1 PUSH2 0x100 EXP SWAP1 DIV PUSH1 0xFF AND ISZERO SWAP1 POP PUSH1 0x1 PUSH1 0x0 DUP1 PUSH2 0x100 EXP DUP2 SLOAD DUP2 PUSH1 0xFF MUL NOT AND SWAP1 DUP4 PUSH1 0xFF AND MUL OR SWAP1 SSTORE POP DUP1 ISZERO PUSH2 0x75C JUMPI PUSH1 0x1 PUSH1 0x0 PUSH1 0x1 PUSH2 0x100 EXP DUP2 SLOAD DUP2 PUSH1 0xFF MUL NOT AND SWAP1 DUP4 ISZERO ISZERO MUL OR SWAP1 SSTORE POP JUMPDEST PUSH2 0x764 PUSH2 0xC63 JUMP JUMPDEST DUP1 ISZERO PUSH2 0x785 JUMPI PUSH1 0x0 DUP1 PUSH1 0x1 PUSH2 0x100 EXP DUP2 SLOAD DUP2 PUSH1 0xFF MUL NOT AND SWAP1 DUP4 ISZERO ISZERO MUL OR SWAP1 SSTORE POP JUMPDEST POP JUMP JUMPDEST PUSH1 0x60 PUSH1 0x0 PUSH2 0x794 PUSH2 0x8F6 JUMP JUMPDEST PUSH1 0x40 MLOAD DUP1 PUSH1 0x40 ADD PUSH1 0x40 MSTORE SWAP1 DUP2 PUSH1 0x0 DUP3 ADD DUP1 SLOAD PUSH2 0x7AF SWAP1 PUSH2 0x1653 JUMP JUMPDEST DUP1 PUSH1 0x1F ADD PUSH1 0x20 DUP1 SWAP2 DIV MUL PUSH1 0x20 ADD PUSH1 0x40 MLOAD SWAP1 DUP2 ADD PUSH1 0x40 MSTORE DUP1 SWAP3 SWAP2 SWAP1 DUP2 DUP2 MSTORE PUSH1 0x20 ADD DUP3 DUP1 SLOAD PUSH2 0x7DB SWAP1 PUSH2 0x1653 JUMP JUMPDEST DUP1 ISZERO PUSH2 0x828 JUMPI DUP1 PUSH1 0x1F LT PUSH2 0x7FD JUMPI PUSH2 0x100 DUP1 DUP4 SLOAD DIV MUL DUP4 MSTORE SWAP2 PUSH1 0x20 ADD SWAP2 PUSH2 0x828 JUMP JUMPDEST DUP3 ADD SWAP2 SWAP1 PUSH1 0x0 MSTORE PUSH1 0x20 PUSH1 0x0 KECCAK256 SWAP1 JUMPDEST DUP2 SLOAD DUP2 MSTORE SWAP1 PUSH1 0x1 ADD SWAP1 PUSH1 0x20 ADD DUP1 DUP4 GT PUSH2 0x80B JUMPI DUP3 SWAP1 SUB PUSH1 0x1F AND DUP3 ADD SWAP2 JUMPDEST POP POP POP POP POP DUP2 MSTORE PUSH1 0x20 ADD PUSH1 0x1 DUP3 ADD SLOAD DUP2 MSTORE POP POP SWAP1 POP DUP1 PUSH1 0x0 ADD MLOAD SWAP2 POP POP SWAP1 JUMP JUMPDEST PUSH1 0x0 PUSH1 0x33 PUSH1 0x0 SWAP1 SLOAD SWAP1 PUSH2 0x100 EXP SWAP1 DIV PUSH20 0xFFFFFFFFFFFFFFFFFFFFFFFFFFFFFFFFFFFFFFFF AND SWAP1 POP SWAP1 JUMP JUMPDEST PUSH2 0x87A PUSH2 0xAFD JUMP JUMPDEST PUSH1 0x0 PUSH20 0xFFFFFFFFFFFFFFFFFFFFFFFFFFFFFFFFFFFFFFFF AND DUP2 PUSH20 0xFFFFFFFFFFFFFFFFFFFFFFFFFFFFFFFFFFFFFFFF AND EQ ISZERO PUSH2 0x8EA JUMPI PUSH1 0x40 MLOAD PUSH32 0x8C379A000000000000000000000000000000000000000000000000000000000 DUP2 MSTORE PUSH1 0x4 ADD PUSH2 0x8E1 SWAP1 PUSH2 0x13C8 JUMP JUMPDEST PUSH1 0x40 MLOAD DUP1 SWAP2 SUB SWAP1 REVERT JUMPDEST PUSH2 0x8F3 DUP2 PUSH2 0xB7B JUMP JUMPDEST POP JUMP JUMPDEST PUSH1 0x0 PUSH32 0xFBB7C9E4123FCF4B1AAD53C70358F7B1C1D7CF28092F5178B53E55DB565E9200 SWAP1 POP SWAP1 JUMP JUMPDEST PUSH1 0x0 PUSH2 0x94C PUSH32 0x360894A13BA1A3210667C828492DB98DCA3E2076CC3735A920A3CA505D382BBC PUSH1 0x0 SHL PUSH2 0xCBC JUMP JUMPDEST PUSH1 0x0 ADD PUSH1 0x0 SWAP1 SLOAD SWAP1 PUSH2 0x100 EXP SWAP1 DIV PUSH20 0xFFFFFFFFFFFFFFFFFFFFFFFFFFFFFFFFFFFFFFFF AND SWAP1 POP SWAP1 JUMP JUMPDEST PUSH2 0x97D PUSH2 0xAFD JUMP JUMPDEST POP JUMP JUMPDEST PUSH2 0x9AC PUSH32 0x4910FDFA16FED3260ED0E7147F7CC6DA11A60208B5B9406D12A635614FFD9143 PUSH1 0x0 SHL PUSH2 0xCC6 JUMP JUMPDEST PUSH1 0x0 ADD PUSH1 0x0 SWAP1 SLOAD SWAP1 PUSH2 0x100 EXP SWAP1 DIV PUSH1 0xFF AND ISZERO PUSH2 0x9D0 JUMPI PUSH2 0x9CB DUP4 PUSH2 0xCD0 JUMP JUMPDEST PUSH2 0xAF8 JUMP JUMPDEST DUP3 PUSH20 0xFFFFFFFFFFFFFFFFFFFFFFFFFFFFFFFFFFFFFFFF AND PUSH4 0x52D1902D PUSH1 0x40 MLOAD DUP2 PUSH4 0xFFFFFFFF AND PUSH1 0xE0 SHL DUP2 MSTORE PUSH1 0x4 ADD PUSH1 0x20 PUSH1 0x40 MLOAD DUP1 DUP4 SUB DUP2 DUP7 DUP1 EXTCODESIZE ISZERO DUP1 ISZERO PUSH2 0xA16 JUMPI PUSH1 0x0 DUP1 REVERT JUMPDEST POP GAS STATICCALL SWAP3 POP POP POP DUP1 ISZERO PUSH2 0xA47 JUMPI POP PUSH1 0x40 MLOAD RETURNDATASIZE PUSH1 0x1F NOT PUSH1 0x1F DUP3 ADD AND DUP3 ADD DUP1 PUSH1 0x40 MSTORE POP DUP2 ADD SWAP1 PUSH2 0xA44 SWAP2 SWAP1 PUSH2 0x1118 JUMP JUMPDEST PUSH1 0x1 JUMPDEST PUSH2 0xA86 JUMPI PUSH1 0x40 MLOAD PUSH32 0x8C379A000000000000000000000000000000000000000000000000000000000 DUP2 MSTORE PUSH1 0x4 ADD PUSH2 0xA7D SWAP1 PUSH2 0x1488 JUMP JUMPDEST PUSH1 0x40 MLOAD DUP1 SWAP2 SUB SWAP1 REVERT JUMPDEST PUSH32 0x360894A13BA1A3210667C828492DB98DCA3E2076CC3735A920A3CA505D382BBC PUSH1 0x0 SHL DUP2 EQ PUSH2 0xAEB JUMPI PUSH1 0x40 MLOAD PUSH32 0x8C379A000000000000000000000000000000000000000000000000000000000 DUP2 MSTORE PUSH1 0x4 ADD PUSH2 0xAE2 SWAP1 PUSH2 0x1448 JUMP JUMPDEST PUSH1 0x40 MLOAD DUP1 SWAP2 SUB SWAP1 REVERT JUMPDEST POP PUSH2 0xAF7 DUP4 DUP4 DUP4 PUSH2 0xD89 JUMP JUMPDEST JUMPDEST POP POP POP JUMP JUMPDEST PUSH2 0xB05 PUSH2 0xDB5 JUMP JUMPDEST PUSH20 0xFFFFFFFFFFFFFFFFFFFFFFFFFFFFFFFFFFFFFFFF AND PUSH2 0xB23 PUSH2 0x848 JUMP JUMPDEST PUSH20 0xFFFFFFFFFFFFFFFFFFFFFFFFFFFFFFFFFFFFFFFF AND EQ PUSH2 0xB79 JUMPI PUSH1 0x40 MLOAD PUSH32 0x8C379A000000000000000000000000000000000000000000000000000000000 DUP2 MSTORE PUSH1 0x4 ADD PUSH2 0xB70 SWAP1 PUSH2 0x14C8 JUMP JUMPDEST PUSH1 0x40 MLOAD DUP1 SWAP2 SUB SWAP1 REVERT JUMPDEST JUMP JUMPDEST PUSH1 0x0 PUSH1 0x33 PUSH1 0x0 SWAP1 SLOAD SWAP1 PUSH2 0x100 EXP SWAP1 DIV PUSH20 0xFFFFFFFFFFFFFFFFFFFFFFFFFFFFFFFFFFFFFFFF AND SWAP1 POP DUP2 PUSH1 0x33 PUSH1 0x0 PUSH2 0x100 EXP DUP2 SLOAD DUP2 PUSH20 0xFFFFFFFFFFFFFFFFFFFFFFFFFFFFFFFFFFFFFFFF MUL NOT AND SWAP1 DUP4 PUSH20 0xFFFFFFFFFFFFFFFFFFFFFFFFFFFFFFFFFFFFFFFF AND MUL OR SWAP1 SSTORE POP DUP2 PUSH20 0xFFFFFFFFFFFFFFFFFFFFFFFFFFFFFFFFFFFFFFFF AND DUP2 PUSH20 0xFFFFFFFFFFFFFFFFFFFFFFFFFFFFFFFFFFFFFFFF AND PUSH32 0x8BE0079C531659141344CD1FD0A4F28419497F9722A3DAAFE3B4186F6B6457E0 PUSH1 0x40 MLOAD PUSH1 0x40 MLOAD DUP1 SWAP2 SUB SWAP1 LOG3 POP POP JUMP JUMPDEST PUSH1 0x0 DUP1 ADDRESS PUSH20 0xFFFFFFFFFFFFFFFFFFFFFFFFFFFFFFFFFFFFFFFF AND EXTCODESIZE GT ISZERO SWAP1 POP SWAP1 JUMP JUMPDEST PUSH1 0x0 PUSH1 0x1 SWAP1 SLOAD SWAP1 PUSH2 0x100 EXP SWAP1 DIV PUSH1 0xFF AND PUSH2 0xCB2 JUMPI PUSH1 0x40 MLOAD PUSH32 0x8C379A000000000000000000000000000000000000000000000000000000000 DUP2 MSTORE PUSH1 0x4 ADD PUSH2 0xCA9 SWAP1 PUSH2 0x1508 JUMP JUMPDEST PUSH1 0x40 MLOAD DUP1 SWAP2 SUB SWAP1 REVERT JUMPDEST PUSH2 0xCBA PUSH2 0xDBD JUMP JUMPDEST JUMP JUMPDEST PUSH1 0x0 DUP2 SWAP1 POP SWAP2 SWAP1 POP JUMP JUMPDEST PUSH1 0x0 DUP2 SWAP1 POP SWAP2 SWAP1 POP JUMP JUMPDEST PUSH2 0xCD9 DUP2 PUSH2 0xE1E JUMP JUMPDEST PUSH2 0xD18 JUMPI PUSH1 0x40 MLOAD PUSH32 0x8C379A000000000000000000000000000000000000000000000000000000000 DUP2 MSTORE PUSH1 0x4 ADD PUSH2 0xD0F SWAP1 PUSH2 0x14A8 JUMP JUMPDEST PUSH1 0x40 MLOAD DUP1 SWAP2 SUB SWAP1 REVERT JUMPDEST DUP1 PUSH2 0xD45 PUSH32 0x360894A13BA1A3210667C828492DB98DCA3E2076CC3735A920A3CA505D382BBC PUSH1 0x0 SHL PUSH2 0xCBC JUMP JUMPDEST PUSH1 0x0 ADD PUSH1 0x0 PUSH2 0x100 EXP DUP2 SLOAD DUP2 PUSH20 0xFFFFFFFFFFFFFFFFFFFFFFFFFFFFFFFFFFFFFFFF MUL NOT AND SWAP1 DUP4 PUSH20 0xFFFFFFFFFFFFFFFFFFFFFFFFFFFFFFFFFFFFFFFF AND MUL OR SWAP1 SSTORE POP POP JUMP JUMPDEST PUSH2 0xD92 DUP4 PUSH2 0xE41 JUMP JUMPDEST PUSH1 0x0 DUP3 MLOAD GT DUP1 PUSH2 0xD9F JUMPI POP DUP1 JUMPDEST ISZERO PUSH2 0xDB0 JUMPI PUSH2 0xDAE DUP4 DUP4 PUSH2 0xE90 JUMP JUMPDEST POP JUMPDEST POP POP POP JUMP JUMPDEST PUSH1 0x0 CALLER SWAP1 POP SWAP1 JUMP JUMPDEST PUSH1 0x0 PUSH1 0x1 SWAP1 SLOAD SWAP1 PUSH2 0x100 EXP SWAP1 DIV PUSH1 0xFF AND PUSH2 0xE0C JUMPI PUSH1 0x40 MLOAD PUSH32 0x8C379A000000000000000000000000000000000000000000000000000000000 DUP2 MSTORE PUSH1 0x4 ADD PUSH2 0xE03 SWAP1 PUSH2 0x1508 JUMP JUMPDEST PUSH1 0x40 MLOAD DUP1 SWAP2 SUB SWAP1 REVERT JUMPDEST PUSH2 0xE1C PUSH2 0xE17 PUSH2 0xDB5 JUMP JUMPDEST PUSH2 0xB7B JUMP JUMPDEST JUMP JUMPDEST PUSH1 0x0 DUP1 DUP3 PUSH20 0xFFFFFFFFFFFFFFFFFFFFFFFFFFFFFFFFFFFFFFFF AND EXTCODESIZE GT SWAP1 POP SWAP2 SWAP1 POP JUMP JUMPDEST PUSH2 0xE4A DUP2 PUSH2 0xCD0 JUMP JUMPDEST DUP1 PUSH20 0xFFFFFFFFFFFFFFFFFFFFFFFFFFFFFFFFFFFFFFFF AND PUSH32 0xBC7CD75A20EE27FD9ADEBAB32041F755214DBC6BFFA90CC0225B39DA2E5C2D3B PUSH1 0x40 MLOAD PUSH1 0x40 MLOAD DUP1 SWAP2 SUB SWAP1 LOG2 POP JUMP JUMPDEST PUSH1 0x60 PUSH2 0xEB5 DUP4 DUP4 PUSH1 0x40 MLOAD DUP1 PUSH1 0x60 ADD PUSH1 0x40 MSTORE DUP1 PUSH1 0x27 DUP2 MSTORE PUSH1 0x20 ADD PUSH2 0x1AE5 PUSH1 0x27 SWAP2 CODECOPY PUSH2 0xEBD JUMP JUMPDEST SWAP1 POP SWAP3 SWAP2 POP POP JUMP JUMPDEST PUSH1 0x60 PUSH1 0x0 DUP1 DUP6 PUSH20 0xFFFFFFFFFFFFFFFFFFFFFFFFFFFFFFFFFFFFFFFF AND DUP6 PUSH1 0x40 MLOAD PUSH2 0xEE7 SWAP2 SWAP1 PUSH2 0x1359 JUMP JUMPDEST PUSH1 0x0 PUSH1 0x40 MLOAD DUP1 DUP4 SUB DUP2 DUP6 GAS DELEGATECALL SWAP2 POP POP RETURNDATASIZE DUP1 PUSH1 0x0 DUP2 EQ PUSH2 0xF22 JUMPI PUSH1 0x40 MLOAD SWAP2 POP PUSH1 0x1F NOT PUSH1 0x3F RETURNDATASIZE ADD AND DUP3 ADD PUSH1 0x40 MSTORE RETURNDATASIZE DUP3 MSTORE RETURNDATASIZE PUSH1 0x0 PUSH1 0x20 DUP5 ADD RETURNDATACOPY PUSH2 0xF27 JUMP JUMPDEST PUSH1 0x60 SWAP2 POP JUMPDEST POP SWAP2 POP SWAP2 POP PUSH2 0xF38 DUP7 DUP4 DUP4 DUP8 PUSH2 0xF43 JUMP JUMPDEST SWAP3 POP POP POP SWAP4 SWAP3 POP POP POP JUMP JUMPDEST PUSH1 0x60 DUP4 ISZERO PUSH2 0xFA6 JUMPI PUSH1 0x0 DUP4 MLOAD EQ ISZERO PUSH2 0xF9E JUMPI PUSH2 0xF5E DUP6 PUSH2 0xE1E JUMP JUMPDEST PUSH2 0xF9D JUMPI PUSH1 0x40 MLOAD PUSH32 0x8C379A000000000000000000000000000000000000000000000000000000000 DUP2 MSTORE PUSH1 0x4 ADD PUSH2 0xF94 SWAP1 PUSH2 0x14E8 JUMP JUMPDEST PUSH1 0x40 MLOAD DUP1 SWAP2 SUB SWAP1 REVERT JUMPDEST JUMPDEST DUP3 SWAP1 POP PUSH2 0xFB1 JUMP JUMPDEST PUSH2 0xFB0 DUP4 DUP4 PUSH2 0xFB9 JUMP JUMPDEST JUMPDEST SWAP5 SWAP4 POP POP POP POP JUMP JUMPDEST PUSH1 0x0 DUP3 MLOAD GT ISZERO PUSH2 0xFCC JUMPI DUP2 MLOAD DUP1 DUP4 PUSH1 0x20 ADD REVERT JUMPDEST DUP1 PUSH1 0x40 MLOAD PUSH32 0x8C379A000000000000000000000000000000000000000000000000000000000 DUP2 MSTORE PUSH1 0x4 ADD PUSH2 0x1000 SWAP2 SWAP1 PUSH2 0x13A6 JUMP JUMPDEST PUSH1 0x40 MLOAD DUP1 SWAP2 SUB SWAP1 REVERT JUMPDEST PUSH1 0x0 PUSH2 0x101C PUSH2 0x1017 DUP5 PUSH2 0x1568 JUMP JUMPDEST PUSH2 0x1543 JUMP JUMPDEST SWAP1 POP DUP3 DUP2 MSTORE PUSH1 0x20 DUP2 ADD DUP5 DUP5 DUP5 ADD GT ISZERO PUSH2 0x1034 JUMPI PUSH1 0x0 DUP1 REVERT JUMPDEST PUSH2 0x103F DUP5 DUP3 DUP6 PUSH2 0x1611 JUMP JUMPDEST POP SWAP4 SWAP3 POP POP POP JUMP JUMPDEST PUSH1 0x0 DUP2 CALLDATALOAD SWAP1 POP PUSH2 0x1056 DUP2 PUSH2 0x1AB6 JUMP JUMPDEST SWAP3 SWAP2 POP POP JUMP JUMPDEST PUSH1 0x0 DUP2 MLOAD SWAP1 POP PUSH2 0x106B DUP2 PUSH2 0x1ACD JUMP JUMPDEST SWAP3 SWAP2 POP POP JUMP JUMPDEST PUSH1 0x0 DUP3 PUSH1 0x1F DUP4 ADD SLT PUSH2 0x1082 JUMPI PUSH1 0x0 DUP1 REVERT JUMPDEST DUP2 CALLDATALOAD PUSH2 0x1092 DUP5 DUP3 PUSH1 0x20 DUP7 ADD PUSH2 0x1009 JUMP JUMPDEST SWAP2 POP POP SWAP3 SWAP2 POP POP JUMP JUMPDEST PUSH1 0x0 PUSH1 0x20 DUP3 DUP5 SUB SLT ISZERO PUSH2 0x10AD JUMPI PUSH1 0x0 DUP1 REVERT JUMPDEST PUSH1 0x0 PUSH2 0x10BB DUP5 DUP3 DUP6 ADD PUSH2 0x1047 JUMP JUMPDEST SWAP2 POP POP SWAP3 SWAP2 POP POP JUMP JUMPDEST PUSH1 0x0 DUP1 PUSH1 0x40 DUP4 DUP6 SUB SLT ISZERO PUSH2 0x10D7 JUMPI PUSH1 0x0 DUP1 REVERT JUMPDEST PUSH1 0x0 PUSH2 0x10E5 DUP6 DUP3 DUP7 ADD PUSH2 0x1047 JUMP JUMPDEST SWAP3 POP POP PUSH1 0x20 DUP4 ADD CALLDATALOAD PUSH8 0xFFFFFFFFFFFFFFFF DUP2 GT ISZERO PUSH2 0x1102 JUMPI PUSH1 0x0 DUP1 REVERT JUMPDEST PUSH2 0x110E DUP6 DUP3 DUP7 ADD PUSH2 0x1071 JUMP JUMPDEST SWAP2 POP POP SWAP3 POP SWAP3 SWAP1 POP JUMP JUMPDEST PUSH1 0x0 PUSH1 0x20 DUP3 DUP5 SUB SLT ISZERO PUSH2 0x112A JUMPI PUSH1 0x0 DUP1 REVERT JUMPDEST PUSH1 0x0 PUSH2 0x1138 DUP5 DUP3 DUP6 ADD PUSH2 0x105C JUMP JUMPDEST SWAP2 POP POP SWAP3 SWAP2 POP POP JUMP JUMPDEST PUSH2 0x114A DUP2 PUSH2 0x15CB JUMP JUMPDEST DUP3 MSTORE POP POP JUMP JUMPDEST PUSH2 0x1159 DUP2 PUSH2 0x15DD JUMP JUMPDEST DUP3 MSTORE POP POP JUMP JUMPDEST PUSH1 0x0 PUSH2 0x116A DUP3 PUSH2 0x1599 JUMP JUMPDEST PUSH2 0x1174 DUP2 DUP6 PUSH2 0x15AF JUMP JUMPDEST SWAP4 POP PUSH2 0x1184 DUP2 DUP6 PUSH1 0x20 DUP7 ADD PUSH2 0x1620 JUMP JUMPDEST DUP1 DUP5 ADD SWAP2 POP POP SWAP3 SWAP2 POP POP JUMP JUMPDEST PUSH1 0x0 PUSH2 0x119B DUP3 PUSH2 0x15A4 JUMP JUMPDEST PUSH2 0x11A5 DUP2 DUP6 PUSH2 0x15BA JUMP JUMPDEST SWAP4 POP PUSH2 0x11B5 DUP2 DUP6 PUSH1 0x20 DUP7 ADD PUSH2 0x1620 JUMP JUMPDEST PUSH2 0x11BE DUP2 PUSH2 0x178C JUMP JUMPDEST DUP5 ADD SWAP2 POP POP SWAP3 SWAP2 POP POP JUMP JUMPDEST PUSH1 0x0 PUSH2 0x11D6 PUSH1 0x26 DUP4 PUSH2 0x15BA JUMP JUMPDEST SWAP2 POP PUSH2 0x11E1 DUP3 PUSH2 0x179D JUMP JUMPDEST PUSH1 0x40 DUP3 ADD SWAP1 POP SWAP2 SWAP1 POP JUMP JUMPDEST PUSH1 0x0 PUSH2 0x11F9 PUSH1 0x2C DUP4 PUSH2 0x15BA JUMP JUMPDEST SWAP2 POP PUSH2 0x1204 DUP3 PUSH2 0x17EC JUMP JUMPDEST PUSH1 0x40 DUP3 ADD SWAP1 POP SWAP2 SWAP1 POP JUMP JUMPDEST PUSH1 0x0 PUSH2 0x121C PUSH1 0x2C DUP4 PUSH2 0x15BA JUMP JUMPDEST SWAP2 POP PUSH2 0x1227 DUP3 PUSH2 0x183B JUMP JUMPDEST PUSH1 0x40 DUP3 ADD SWAP1 POP SWAP2 SWAP1 POP JUMP JUMPDEST PUSH1 0x0 PUSH2 0x123F PUSH1 0x38 DUP4 PUSH2 0x15BA JUMP JUMPDEST SWAP2 POP PUSH2 0x124A DUP3 PUSH2 0x188A JUMP JUMPDEST PUSH1 0x40 DUP3 ADD SWAP1 POP SWAP2 SWAP1 POP JUMP JUMPDEST PUSH1 0x0 PUSH2 0x1262 PUSH1 0x29 DUP4 PUSH2 0x15BA JUMP JUMPDEST SWAP2 POP PUSH2 0x126D DUP3 PUSH2 0x18D9 JUMP JUMPDEST PUSH1 0x40 DUP3 ADD SWAP1 POP SWAP2 SWAP1 POP JUMP JUMPDEST PUSH1 0x0 PUSH2 0x1285 PUSH1 0x2E DUP4 PUSH2 0x15BA JUMP JUMPDEST SWAP2 POP PUSH2 0x1290 DUP3 PUSH2 0x1928 JUMP JUMPDEST PUSH1 0x40 DUP3 ADD SWAP1 POP SWAP2 SWAP1 POP JUMP JUMPDEST PUSH1 0x0 PUSH2 0x12A8 PUSH1 0x2E DUP4 PUSH2 0x15BA JUMP JUMPDEST SWAP2 POP PUSH2 0x12B3 DUP3 PUSH2 0x1977 JUMP JUMPDEST PUSH1 0x40 DUP3 ADD SWAP1 POP SWAP2 SWAP1 POP JUMP JUMPDEST PUSH1 0x0 PUSH2 0x12CB PUSH1 0x2D DUP4 PUSH2 0x15BA JUMP JUMPDEST SWAP2 POP PUSH2 0x12D6 DUP3 PUSH2 0x19C6 JUMP JUMPDEST PUSH1 0x40 DUP3 ADD SWAP1 POP SWAP2 SWAP1 POP JUMP JUMPDEST PUSH1 0x0 PUSH2 0x12EE PUSH1 0x20 DUP4 PUSH2 0x15BA JUMP JUMPDEST SWAP2 POP PUSH2 0x12F9 DUP3 PUSH2 0x1A15 JUMP JUMPDEST PUSH1 0x20 DUP3 ADD SWAP1 POP SWAP2 SWAP1 POP JUMP JUMPDEST PUSH1 0x0 PUSH2 0x1311 PUSH1 0x1D DUP4 PUSH2 0x15BA JUMP JUMPDEST SWAP2 POP PUSH2 0x131C DUP3 PUSH2 0x1A3E JUMP JUMPDEST PUSH1 0x20 DUP3 ADD SWAP1 POP SWAP2 SWAP1 POP JUMP JUMPDEST PUSH1 0x0 PUSH2 0x1334 PUSH1 0x2B DUP4 PUSH2 0x15BA JUMP JUMPDEST SWAP2 POP PUSH2 0x133F DUP3 PUSH2 0x1A67 JUMP JUMPDEST PUSH1 0x40 DUP3 ADD SWAP1 POP SWAP2 SWAP1 POP JUMP JUMPDEST PUSH2 0x1353 DUP2 PUSH2 0x1607 JUMP JUMPDEST DUP3 MSTORE POP POP JUMP JUMPDEST PUSH1 0x0 PUSH2 0x1365 DUP3 DUP5 PUSH2 0x115F JUMP JUMPDEST SWAP2 POP DUP2 SWAP1 POP SWAP3 SWAP2 POP POP JUMP JUMPDEST PUSH1 0x0 PUSH1 0x20 DUP3 ADD SWAP1 POP PUSH2 0x1385 PUSH1 0x0 DUP4 ADD DUP5 PUSH2 0x1141 JUMP JUMPDEST SWAP3 SWAP2 POP POP JUMP JUMPDEST PUSH1 0x0 PUSH1 0x20 DUP3 ADD SWAP1 POP PUSH2 0x13A0 PUSH1 0x0 DUP4 ADD DUP5 PUSH2 0x1150 JUMP JUMPDEST SWAP3 SWAP2 POP POP JUMP JUMPDEST PUSH1 0x0 PUSH1 0x20 DUP3 ADD SWAP1 POP DUP2 DUP2 SUB PUSH1 0x0 DUP4 ADD MSTORE PUSH2 0x13C0 DUP2 DUP5 PUSH2 0x1190 JUMP JUMPDEST SWAP1 POP SWAP3 SWAP2 POP POP JUMP JUMPDEST PUSH1 0x0 PUSH1 0x20 DUP3 ADD SWAP1 POP DUP2 DUP2 SUB PUSH1 0x0 DUP4 ADD MSTORE PUSH2 0x13E1 DUP2 PUSH2 0x11C9 JUMP JUMPDEST SWAP1 POP SWAP2 SWAP1 POP JUMP JUMPDEST PUSH1 0x0 PUSH1 0x20 DUP3 ADD SWAP1 POP DUP2 DUP2 SUB PUSH1 0x0 DUP4 ADD MSTORE PUSH2 0x1401 DUP2 PUSH2 0x11EC JUMP JUMPDEST SWAP1 POP SWAP2 SWAP1 POP JUMP JUMPDEST PUSH1 0x0 PUSH1 0x20 DUP3 ADD SWAP1 POP DUP2 DUP2 SUB PUSH1 0x0 DUP4 ADD MSTORE PUSH2 0x1421 DUP2 PUSH2 0x120F JUMP JUMPDEST SWAP1 POP SWAP2 SWAP1 POP JUMP JUMPDEST PUSH1 0x0 PUSH1 0x20 DUP3 ADD SWAP1 POP DUP2 DUP2 SUB PUSH1 0x0 DUP4 ADD MSTORE PUSH2 0x1441 DUP2 PUSH2 0x1232 JUMP JUMPDEST SWAP1 POP SWAP2 SWAP1 POP JUMP JUMPDEST PUSH1 0x0 PUSH1 0x20 DUP3 ADD SWAP1 POP DUP2 DUP2 SUB PUSH1 0x0 DUP4 ADD MSTORE PUSH2 0x1461 DUP2 PUSH2 0x1255 JUMP JUMPDEST SWAP1 POP SWAP2 SWAP1 POP JUMP JUMPDEST PUSH1 0x0 PUSH1 0x20 DUP3 ADD SWAP1 POP DUP2 DUP2 SUB PUSH1 0x0 DUP4 ADD MSTORE PUSH2 0x1481 DUP2 PUSH2 0x1278 JUMP JUMPDEST SWAP1 POP SWAP2 SWAP1 POP JUMP JUMPDEST PUSH1 0x0 PUSH1 0x20 DUP3 ADD SWAP1 POP DUP2 DUP2 SUB PUSH1 0x0 DUP4 ADD MSTORE PUSH2 0x14A1 DUP2 PUSH2 0x129B JUMP JUMPDEST SWAP1 POP SWAP2 SWAP1 POP JUMP JUMPDEST PUSH1 0x0 PUSH1 0x20 DUP3 ADD SWAP1 POP DUP2 DUP2 SUB PUSH1 0x0 DUP4 ADD MSTORE PUSH2 0x14C1 DUP2 PUSH2 0x12BE JUMP JUMPDEST SWAP1 POP SWAP2 SWAP1 POP JUMP JUMPDEST PUSH1 0x0 PUSH1 0x20 DUP3 ADD SWAP1 POP DUP2 DUP2 SUB PUSH1 0x0 DUP4 ADD MSTORE PUSH2 0x14E1 DUP2 PUSH2 0x12E1 JUMP JUMPDEST SWAP1 POP SWAP2 SWAP1 POP JUMP JUMPDEST PUSH1 0x0 PUSH1 0x20 DUP3 ADD SWAP1 POP DUP2 DUP2 SUB PUSH1 0x0 DUP4 ADD MSTORE PUSH2 0x1501 DUP2 PUSH2 0x1304 JUMP JUMPDEST SWAP1 POP SWAP2 SWAP1 POP JUMP JUMPDEST PUSH1 0x0 PUSH1 0x20 DUP3 ADD SWAP1 POP DUP2 DUP2 SUB PUSH1 0x0 DUP4 ADD MSTORE PUSH2 0x1521 DUP2 PUSH2 0x1327 JUMP JUMPDEST SWAP1 POP SWAP2 SWAP1 POP JUMP JUMPDEST PUSH1 0x0 PUSH1 0x20 DUP3 ADD SWAP1 POP PUSH2 0x153D PUSH1 0x0 DUP4 ADD DUP5 PUSH2 0x134A JUMP JUMPDEST SWAP3 SWAP2 POP POP JUMP JUMPDEST PUSH1 0x0 PUSH2 0x154D PUSH2 0x155E JUMP JUMPDEST SWAP1 POP PUSH2 0x1559 DUP3 DUP3 PUSH2 0x1685 JUMP JUMPDEST SWAP2 SWAP1 POP JUMP JUMPDEST PUSH1 0x0 PUSH1 0x40 MLOAD SWAP1 POP SWAP1 JUMP JUMPDEST PUSH1 0x0 PUSH8 0xFFFFFFFFFFFFFFFF DUP3 GT ISZERO PUSH2 0x1583 JUMPI PUSH2 0x1582 PUSH2 0x175D JUMP JUMPDEST JUMPDEST PUSH2 0x158C DUP3 PUSH2 0x178C JUMP JUMPDEST SWAP1 POP PUSH1 0x20 DUP2 ADD SWAP1 POP SWAP2 SWAP1 POP JUMP JUMPDEST PUSH1 0x0 DUP2 MLOAD SWAP1 POP SWAP2 SWAP1 POP JUMP JUMPDEST PUSH1 0x0 DUP2 MLOAD SWAP1 POP SWAP2 SWAP1 POP JUMP JUMPDEST PUSH1 0x0 DUP2 SWAP1 POP SWAP3 SWAP2 POP POP JUMP JUMPDEST PUSH1 0x0 DUP3 DUP3 MSTORE PUSH1 0x20 DUP3 ADD SWAP1 POP SWAP3 SWAP2 POP POP JUMP JUMPDEST PUSH1 0x0 PUSH2 0x15D6 DUP3 PUSH2 0x15E7 JUMP JUMPDEST SWAP1 POP SWAP2 SWAP1 POP JUMP JUMPDEST PUSH1 0x0 DUP2 SWAP1 POP SWAP2 SWAP1 POP JUMP JUMPDEST PUSH1 0x0 PUSH20 0xFFFFFFFFFFFFFFFFFFFFFFFFFFFFFFFFFFFFFFFF DUP3 AND SWAP1 POP SWAP2 SWAP1 POP JUMP JUMPDEST PUSH1 0x0 DUP2 SWAP1 POP SWAP2 SWAP1 POP JUMP JUMPDEST DUP3 DUP2 DUP4 CALLDATACOPY PUSH1 0x0 DUP4 DUP4 ADD MSTORE POP POP POP JUMP JUMPDEST PUSH1 0x0 JUMPDEST DUP4 DUP2 LT ISZERO PUSH2 0x163E JUMPI DUP1 DUP3 ADD MLOAD DUP2 DUP5 ADD MSTORE PUSH1 0x20 DUP2 ADD SWAP1 POP PUSH2 0x1623 JUMP JUMPDEST DUP4 DUP2 GT ISZERO PUSH2 0x164D JUMPI PUSH1 0x0 DUP5 DUP5 ADD MSTORE JUMPDEST POP POP POP POP JUMP JUMPDEST PUSH1 0x0 PUSH1 0x2 DUP3 DIV SWAP1 POP PUSH1 0x1 DUP3 AND DUP1 PUSH2 0x166B JUMPI PUSH1 0x7F DUP3 AND SWAP2 POP JUMPDEST PUSH1 0x20 DUP3 LT DUP2 EQ ISZERO PUSH2 0x167F JUMPI PUSH2 0x167E PUSH2 0x172E JUMP JUMPDEST JUMPDEST POP SWAP2 SWAP1 POP JUMP JUMPDEST PUSH2 0x168E DUP3 PUSH2 0x178C JUMP JUMPDEST DUP2 ADD DUP2 DUP2 LT PUSH8 0xFFFFFFFFFFFFFFFF DUP3 GT OR ISZERO PUSH2 0x16AD JUMPI PUSH2 0x16AC PUSH2 0x175D JUMP JUMPDEST JUMPDEST DUP1 PUSH1 0x40 MSTORE POP POP POP JUMP JUMPDEST PUSH1 0x0 PUSH2 0x16C1 DUP3 PUSH2 0x1607 JUMP JUMPDEST SWAP2 POP PUSH32 0xFFFFFFFFFFFFFFFFFFFFFFFFFFFFFFFFFFFFFFFFFFFFFFFFFFFFFFFFFFFFFFFF DUP3 EQ ISZERO PUSH2 0x16F4 JUMPI PUSH2 0x16F3 PUSH2 0x16FF JUMP JUMPDEST JUMPDEST PUSH1 0x1 DUP3 ADD SWAP1 POP SWAP2 SWAP1 POP JUMP JUMPDEST PUSH32 0x4E487B7100000000000000000000000000000000000000000000000000000000 PUSH1 0x0 MSTORE PUSH1 0x11 PUSH1 0x4 MSTORE PUSH1 0x24 PUSH1 0x0 REVERT JUMPDEST PUSH32 0x4E487B7100000000000000000000000000000000000000000000000000000000 PUSH1 0x0 MSTORE PUSH1 0x22 PUSH1 0x4 MSTORE PUSH1 0x24 PUSH1 0x0 REVERT JUMPDEST PUSH32 0x4E487B7100000000000000000000000000000000000000000000000000000000 PUSH1 0x0 MSTORE PUSH1 0x41 PUSH1 0x4 MSTORE PUSH1 0x24 PUSH1 0x0 REVERT JUMPDEST PUSH1 0x0 PUSH1 0x1F NOT PUSH1 0x1F DUP4 ADD AND SWAP1 POP SWAP2 SWAP1 POP JUMP JUMPDEST PUSH32 0x4F776E61626C653A206E6577206F776E657220697320746865207A65726F2061 PUSH1 0x0 DUP3 ADD MSTORE PUSH32 0x6464726573730000000000000000000000000000000000000000000000000000 PUSH1 0x20 DUP3 ADD MSTORE POP JUMP JUMPDEST PUSH32 0x46756E6374696F6E206D7573742062652063616C6C6564207468726F75676820 PUSH1 0x0 DUP3 ADD MSTORE PUSH32 0x64656C656761746563616C6C0000000000000000000000000000000000000000 PUSH1 0x20 DUP3 ADD MSTORE POP JUMP JUMPDEST PUSH32 0x46756E6374696F6E206D7573742062652063616C6C6564207468726F75676820 PUSH1 0x0 DUP3 ADD MSTORE PUSH32 0x6163746976652070726F78790000000000000000000000000000000000000000 PUSH1 0x20 DUP3 ADD MSTORE POP JUMP JUMPDEST PUSH32 0x555550535570677261646561626C653A206D757374206E6F742062652063616C PUSH1 0x0 DUP3 ADD MSTORE PUSH32 0x6C6564207468726F7567682064656C656761746563616C6C0000000000000000 PUSH1 0x20 DUP3 ADD MSTORE POP JUMP JUMPDEST PUSH32 0x45524331393637557067726164653A20756E737570706F727465642070726F78 PUSH1 0x0 DUP3 ADD MSTORE PUSH32 0x6961626C65555549440000000000000000000000000000000000000000000000 PUSH1 0x20 DUP3 ADD MSTORE POP JUMP JUMPDEST PUSH32 0x496E697469616C697A61626C653A20636F6E747261637420697320616C726561 PUSH1 0x0 DUP3 ADD MSTORE PUSH32 0x647920696E697469616C697A6564000000000000000000000000000000000000 PUSH1 0x20 DUP3 ADD MSTORE POP JUMP JUMPDEST PUSH32 0x45524331393637557067726164653A206E657720696D706C656D656E74617469 PUSH1 0x0 DUP3 ADD MSTORE PUSH32 0x6F6E206973206E6F742055555053000000000000000000000000000000000000 PUSH1 0x20 DUP3 ADD MSTORE POP JUMP JUMPDEST PUSH32 0x455243313936373A206E657720696D706C656D656E746174696F6E206973206E PUSH1 0x0 DUP3 ADD MSTORE PUSH32 0x6F74206120636F6E747261637400000000000000000000000000000000000000 PUSH1 0x20 DUP3 ADD MSTORE POP JUMP JUMPDEST PUSH32 0x4F776E61626C653A2063616C6C6572206973206E6F7420746865206F776E6572 PUSH1 0x0 DUP3 ADD MSTORE POP JUMP JUMPDEST PUSH32 0x416464726573733A2063616C6C20746F206E6F6E2D636F6E7472616374000000 PUSH1 0x0 DUP3 ADD MSTORE POP JUMP JUMPDEST PUSH32 0x496E697469616C697A61626C653A20636F6E7472616374206973206E6F742069 PUSH1 0x0 DUP3 ADD MSTORE PUSH32 0x6E697469616C697A696E67000000000000000000000000000000000000000000 PUSH1 0x20 DUP3 ADD MSTORE POP JUMP JUMPDEST PUSH2 0x1ABF DUP2 PUSH2 0x15CB JUMP JUMPDEST DUP2 EQ PUSH2 0x1ACA JUMPI PUSH1 0x0 DUP1 REVERT JUMPDEST POP JUMP JUMPDEST PUSH2 0x1AD6 DUP2 PUSH2 0x15DD JUMP JUMPDEST DUP2 EQ PUSH2 0x1AE1 JUMPI PUSH1 0x0 DUP1 REVERT JUMPDEST POP JUMP INVALID COINBASE PUSH5 0x6472657373 GASPRICE KECCAK256 PUSH13 0x6F772D6C6576656C2064656C65 PUSH8 0x6174652063616C6C KECCAK256 PUSH7 0x61696C6564A264 PUSH10 0x7066735822122081F5EA LOG3 0xCF 0xE2 0x1F BLOCKHASH COINBASE PUSH18 0xC9EE834092595019E70CADF9D23D0CAA89C KECCAK256 0xBD PUSH27 0x3164736F6C63430008010033000000000000000000000000000000 "
				},
				"gasEstimates": {
					"creation": {
						"codeDepositCost": "1395400",
						"executionCost": "infinite",
						"totalCost": "infinite"
					},
					"external": {
						"getTokenId()": "infinite",
						"getTokenName()": "infinite",
						"initialize()": "90763",
						"owner()": "1288",
						"proxiableUUID()": "infinite",
						"renounceOwnership()": "24398",
						"setValue()": "21225",
						"transferOwnership(address)": "24835",
						"upgradeTo(address)": "infinite",
						"upgradeToAndCall(address,bytes)": "infinite"
					},
					"internal": {
						"_authorizeUpgrade(address)": "infinite",
						"_getMyTokenStorage()": "23"
					}
				},
				"methodIdentifiers": {
					"getTokenId()": "010a38f5",
					"getTokenName()": "862b092b",
					"initialize()": "8129fc1c",
					"owner()": "8da5cb5b",
					"proxiableUUID()": "52d1902d",
					"renounceOwnership()": "715018a6",
					"setValue()": "4fa519fa",
					"transferOwnership(address)": "f2fde38b",
					"upgradeTo(address)": "3659cfe6",
					"upgradeToAndCall(address,bytes)": "4f1ef286"
				}
			},
			"storageLayout": {
				"storage": [
					{
						"astId": 618,
						"contract": "upgradeContract/v2/v1.sol:MyToken",
						"label": "_initialized",
						"offset": 0,
						"slot": "0",
						"type": "t_uint8"
					},
					{
						"astId": 621,
						"contract": "upgradeContract/v2/v1.sol:MyToken",
						"label": "_initializing",
						"offset": 1,
						"slot": "0",
						"type": "t_bool"
					},
					{
						"astId": 766,
						"contract": "upgradeContract/v2/v1.sol:MyToken",
						"label": "__gap",
						"offset": 0,
						"slot": "1",
						"type": "t_array(t_uint256)50_storage"
					},
					{
						"astId": 492,
						"contract": "upgradeContract/v2/v1.sol:MyToken",
						"label": "_owner",
						"offset": 0,
						"slot": "51",
						"type": "t_address"
					},
					{
						"astId": 612,
						"contract": "upgradeContract/v2/v1.sol:MyToken",
						"label": "__gap",
						"offset": 0,
						"slot": "52",
						"type": "t_array(t_uint256)49_storage"
					}
				],
				"types": {
					"t_address": {
						"encoding": "inplace",
						"label": "address",
						"numberOfBytes": "20"
					},
					"t_array(t_uint256)49_storage": {
						"base": "t_uint256",
						"encoding": "inplace",
						"label": "uint256[49]",
						"numberOfBytes": "1568"
					},
					"t_array(t_uint256)50_storage": {
						"base": "t_uint256",
						"encoding": "inplace",
						"label": "uint256[50]",
						"numberOfBytes": "1600"
					},
					"t_bool": {
						"encoding": "inplace",
						"label": "bool",
						"numberOfBytes": "1"
					},
					"t_uint256": {
						"encoding": "inplace",
						"label": "uint256",
						"numberOfBytes": "32"
					},
					"t_uint8": {
						"encoding": "inplace",
						"label": "uint8",
						"numberOfBytes": "1"
					}
				}
			},
			"userdoc": {
				"kind": "user",
				"methods": {},
				"version": 1
			}
		}
	}
}