{
	"upgradeContract/v1/v1.sol": {
		"MyToken": {
			"abi": [
				{
					"inputs": [],
					"stateMutability": "nonpayable",
					"type": "constructor"
				},
				{
					"inputs": [
						{
							"internalType": "address",
							"name": "target",
							"type": "address"
						}
					],
					"name": "AddressEmptyCode",
					"type": "error"
				},
				{
					"inputs": [
						{
							"internalType": "address",
							"name": "implementation",
							"type": "address"
						}
					],
					"name": "ERC1967InvalidImplementation",
					"type": "error"
				},
				{
					"inputs": [],
					"name": "ERC1967NonPayable",
					"type": "error"
				},
				{
					"inputs": [],
					"name": "FailedCall",
					"type": "error"
				},
				{
					"inputs": [],
					"name": "InvalidInitialization",
					"type": "error"
				},
				{
					"inputs": [],
					"name": "NotInitializing",
					"type": "error"
				},
				{
					"inputs": [
						{
							"internalType": "address",
							"name": "owner",
							"type": "address"
						}
					],
					"name": "OwnableInvalidOwner",
					"type": "error"
				},
				{
					"inputs": [
						{
							"internalType": "address",
							"name": "account",
							"type": "address"
						}
					],
					"name": "OwnableUnauthorizedAccount",
					"type": "error"
				},
				{
					"inputs": [],
					"name": "UUPSUnauthorizedCallContext",
					"type": "error"
				},
				{
					"inputs": [
						{
							"internalType": "bytes32",
							"name": "slot",
							"type": "bytes32"
						}
					],
					"name": "UUPSUnsupportedProxiableUUID",
					"type": "error"
				},
				{
					"anonymous": false,
					"inputs": [
						{
							"indexed": false,
							"internalType": "uint64",
							"name": "version",
							"type": "uint64"
						}
					],
					"name": "Initialized",
					"type": "event"
				},
				{
					"anonymous": false,
					"inputs": [
						{
							"indexed": true,
							"internalType": "address",
							"name": "previousOwner",
							"type": "address"
						},
						{
							"indexed": true,
							"internalType": "address",
							"name": "newOwner",
							"type": "address"
						}
					],
					"name": "OwnershipTransferred",
					"type": "event"
				},
				{
					"anonymous": false,
					"inputs": [
						{
							"indexed": true,
							"internalType": "address",
							"name": "implementation",
							"type": "address"
						}
					],
					"name": "Upgraded",
					"type": "event"
				},
				{
					"inputs": [],
					"name": "UPGRADE_INTERFACE_VERSION",
					"outputs": [
						{
							"internalType": "string",
							"name": "",
							"type": "string"
						}
					],
					"stateMutability": "view",
					"type": "function"
				},
				{
					"inputs": [],
					"name": "getValue",
					"outputs": [
						{
							"internalType": "uint256",
							"name": "",
							"type": "uint256"
						}
					],
					"stateMutability": "pure",
					"type": "function"
				},
				{
					"inputs": [
						{
							"internalType": "address",
							"name": "initialOwner",
							"type": "address"
						}
					],
					"name": "initialize",
					"outputs": [],
					"stateMutability": "nonpayable",
					"type": "function"
				},
				{
					"inputs": [],
					"name": "owner",
					"outputs": [
						{
							"internalType": "address",
							"name": "",
							"type": "address"
						}
					],
					"stateMutability": "view",
					"type": "function"
				},
				{
					"inputs": [],
					"name": "proxiableUUID",
					"outputs": [
						{
							"internalType": "bytes32",
							"name": "",
							"type": "bytes32"
						}
					],
					"stateMutability": "view",
					"type": "function"
				},
				{
					"inputs": [],
					"name": "renounceOwnership",
					"outputs": [],
					"stateMutability": "nonpayable",
					"type": "function"
				},
				{
					"inputs": [],
					"name": "setValue",
					"outputs": [],
					"stateMutability": "nonpayable",
					"type": "function"
				},
				{
					"inputs": [
						{
							"internalType": "address",
							"name": "newOwner",
							"type": "address"
						}
					],
					"name": "transferOwnership",
					"outputs": [],
					"stateMutability": "nonpayable",
					"type": "function"
				},
				{
					"inputs": [
						{
							"internalType": "address",
							"name": "newImplementation",
							"type": "address"
						},
						{
							"internalType": "bytes",
							"name": "data",
							"type": "bytes"
						}
					],
					"name": "upgradeToAndCall",
					"outputs": [],
					"stateMutability": "payable",
					"type": "function"
				}
			],
			"devdoc": {
				"errors": {
					"AddressEmptyCode(address)": [
						{
							"details": "There's no code at `target` (it is not a contract)."
						}
					],
					"ERC1967InvalidImplementation(address)": [
						{
							"details": "The `implementation` of the proxy is invalid."
						}
					],
					"ERC1967NonPayable()": [
						{
							"details": "An upgrade function sees `msg.value > 0` that may be lost."
						}
					],
					"FailedCall()": [
						{
							"details": "A call to an address target failed. The target may have reverted."
						}
					],
					"InvalidInitialization()": [
						{
							"details": "The contract is already initialized."
						}
					],
					"NotInitializing()": [
						{
							"details": "The contract is not initializing."
						}
					],
					"OwnableInvalidOwner(address)": [
						{
							"details": "The owner is not a valid owner account. (eg. `address(0)`)"
						}
					],
					"OwnableUnauthorizedAccount(address)": [
						{
							"details": "The caller account is not authorized to perform an operation."
						}
					],
					"UUPSUnauthorizedCallContext()": [
						{
							"details": "The call is from an unauthorized context."
						}
					],
					"UUPSUnsupportedProxiableUUID(bytes32)": [
						{
							"details": "The storage `slot` is unsupported as a UUID."
						}
					]
				},
				"events": {
					"Initialized(uint64)": {
						"details": "Triggered when the contract has been initialized or reinitialized."
					},
					"Upgraded(address)": {
						"details": "Emitted when the implementation is upgraded."
					}
				},
				"kind": "dev",
				"methods": {
					"constructor": {
						"custom:oz-upgrades-unsafe-allow": "constructor"
					},
					"owner()": {
						"details": "Returns the address of the current owner."
					},
					"proxiableUUID()": {
						"details": "Implementation of the ERC-1822 {proxiableUUID} function. This returns the storage slot used by the implementation. It is used to validate the implementation's compatibility when performing an upgrade. IMPORTANT: A proxy pointing at a proxiable contract should not be considered proxiable itself, because this risks bricking a proxy that upgrades to it, by delegating to itself until out of gas. Thus it is critical that this function revert if invoked through a proxy. This is guaranteed by the `notDelegated` modifier."
					},
					"renounceOwnership()": {
						"details": "Leaves the contract without owner. It will not be possible to call `onlyOwner` functions. Can only be called by the current owner. NOTE: Renouncing ownership will leave the contract without an owner, thereby disabling any functionality that is only available to the owner."
					},
					"transferOwnership(address)": {
						"details": "Transfers ownership of the contract to a new account (`newOwner`). Can only be called by the current owner."
					},
					"upgradeToAndCall(address,bytes)": {
						"custom:oz-upgrades-unsafe-allow-reachable": "delegatecall",
						"details": "Upgrade the implementation of the proxy to `newImplementation`, and subsequently execute the function call encoded in `data`. Calls {_authorizeUpgrade}. Emits an {Upgraded} event."
					}
				},
				"version": 1
			},
			"evm": {
				"assembly": "    /* \"upgradeContract/v1/v1.sol\":867:2324  contract MyToken is OwnableUpgradeable, UUPSUpgradeable {... */\n  mstore(0x40, 0xa0)\n    /* \"@openzeppelin/contracts@5.5.0/proxy/utils/UUPSUpgradeable.sol\":1084:1088  this */\n  address\n    /* \"@openzeppelin/contracts@5.5.0/proxy/utils/UUPSUpgradeable.sol\":1041:1089  address private immutable __self = address(this) */\n  0xffffffffffffffffffffffffffffffffffffffff\n  and\n  0x80\n  swap1\n  0xffffffffffffffffffffffffffffffffffffffff\n  and\n  dup2\n  mstore\n  pop\n    /* \"upgradeContract/v1/v1.sol\":1350:1556  constructor() {... */\n  callvalue\n  dup1\n  iszero\n  tag_1\n  jumpi\n  revert(0x00, 0x00)\ntag_1:\n  pop\n    /* \"upgradeContract/v1/v1.sol\":1526:1548  _disableInitializers() */\n  tag_4\n    /* \"upgradeContract/v1/v1.sol\":1526:1546  _disableInitializers */\n  shl(0x20, tag_5)\n    /* \"upgradeContract/v1/v1.sol\":1526:1548  _disableInitializers() */\n  0x20\n  shr\n  jump\t// in\ntag_4:\n    /* \"upgradeContract/v1/v1.sol\":867:2324  contract MyToken is OwnableUpgradeable, UUPSUpgradeable {... */\n  jump(tag_6)\n    /* \"@openzeppelin/contracts/proxy/utils/Initializable.sol\":7709:8131  function _disableInitializers() internal virtual {... */\ntag_5:\n    /* \"@openzeppelin/contracts/proxy/utils/Initializable.sol\":7824:7854  InitializableStorage storage $ */\n  0x00\n    /* \"@openzeppelin/contracts/proxy/utils/Initializable.sol\":7857:7883  _getInitializableStorage() */\n  tag_8\n    /* \"@openzeppelin/contracts/proxy/utils/Initializable.sol\":7857:7881  _getInitializableStorage */\n  shl(0x20, tag_9)\n    /* \"@openzeppelin/contracts/proxy/utils/Initializable.sol\":7857:7883  _getInitializableStorage() */\n  0x20\n  shr\n  jump\t// in\ntag_8:\n    /* \"@openzeppelin/contracts/proxy/utils/Initializable.sol\":7824:7883  InitializableStorage storage $ = _getInitializableStorage() */\n  swap1\n  pop\n    /* \"@openzeppelin/contracts/proxy/utils/Initializable.sol\":7898:7899  $ */\n  dup1\n    /* \"@openzeppelin/contracts/proxy/utils/Initializable.sol\":7898:7913  $._initializing */\n  0x00\n  add\n  0x08\n  swap1\n  sload\n  swap1\n  0x0100\n  exp\n  swap1\n  div\n  0xff\n  and\n    /* \"@openzeppelin/contracts/proxy/utils/Initializable.sol\":7894:7970  if ($._initializing) {... */\n  iszero\n  tag_10\n  jumpi\n    /* \"@openzeppelin/contracts/proxy/utils/Initializable.sol\":7936:7959  InvalidInitialization() */\n  mload(0x40)\n  0xf92ee8a900000000000000000000000000000000000000000000000000000000\n  dup2\n  mstore\n  0x04\n  add\n  mload(0x40)\n  dup1\n  swap2\n  sub\n  swap1\n  revert\n    /* \"@openzeppelin/contracts/proxy/utils/Initializable.sol\":7894:7970  if ($._initializing) {... */\ntag_10:\n    /* \"@openzeppelin/contracts/proxy/utils/Initializable.sol\":8001:8017  type(uint64).max */\n  0xffffffffffffffff\n    /* \"@openzeppelin/contracts/proxy/utils/Initializable.sol\":7983:8017  $._initialized != type(uint64).max */\n  dup1\n  and\n    /* \"@openzeppelin/contracts/proxy/utils/Initializable.sol\":7983:7984  $ */\n  dup2\n    /* \"@openzeppelin/contracts/proxy/utils/Initializable.sol\":7983:7997  $._initialized */\n  0x00\n  add\n  0x00\n  swap1\n  sload\n  swap1\n  0x0100\n  exp\n  swap1\n  div\n  0xffffffffffffffff\n  and\n    /* \"@openzeppelin/contracts/proxy/utils/Initializable.sol\":7983:8017  $._initialized != type(uint64).max */\n  0xffffffffffffffff\n  and\n  eq\n    /* \"@openzeppelin/contracts/proxy/utils/Initializable.sol\":7979:8125  if ($._initialized != type(uint64).max) {... */\n  tag_11\n  jumpi\n    /* \"@openzeppelin/contracts/proxy/utils/Initializable.sol\":8050:8066  type(uint64).max */\n  0xffffffffffffffff\n    /* \"@openzeppelin/contracts/proxy/utils/Initializable.sol\":8033:8034  $ */\n  dup2\n    /* \"@openzeppelin/contracts/proxy/utils/Initializable.sol\":8033:8047  $._initialized */\n  0x00\n  add\n  0x00\n    /* \"@openzeppelin/contracts/proxy/utils/Initializable.sol\":8033:8066  $._initialized = type(uint64).max */\n  0x0100\n  exp\n  dup2\n  sload\n  dup2\n  0xffffffffffffffff\n  mul\n  not\n  and\n  swap1\n  dup4\n  0xffffffffffffffff\n  and\n  mul\n  or\n  swap1\n  sstore\n  pop\n    /* \"@openzeppelin/contracts/proxy/utils/Initializable.sol\":8085:8114  Initialized(type(uint64).max) */\n  0xc7f505b2f371ae2175ee4913f4499e1f2633a7b5936321eed1cdaeb6115181d2\n    /* \"@openzeppelin/contracts/proxy/utils/Initializable.sol\":8097:8113  type(uint64).max */\n  0xffffffffffffffff\n    /* \"@openzeppelin/contracts/proxy/utils/Initializable.sol\":8085:8114  Initialized(type(uint64).max) */\n  mload(0x40)\n  tag_12\n  swap2\n  swap1\n  tag_13\n  jump\t// in\ntag_12:\n  mload(0x40)\n  dup1\n  swap2\n  sub\n  swap1\n  log1\n    /* \"@openzeppelin/contracts/proxy/utils/Initializable.sol\":7979:8125  if ($._initialized != type(uint64).max) {... */\ntag_11:\n    /* \"@openzeppelin/contracts/proxy/utils/Initializable.sol\":7758:8131  {... */\n  pop\n    /* \"@openzeppelin/contracts/proxy/utils/Initializable.sol\":7709:8131  function _disableInitializers() internal virtual {... */\n  jump\t// out\n    /* \"@openzeppelin/contracts/proxy/utils/Initializable.sol\":9071:9276  function _getInitializableStorage() private pure returns (InitializableStorage storage $) {... */\ntag_9:\n    /* \"@openzeppelin/contracts/proxy/utils/Initializable.sol\":9129:9159  InitializableStorage storage $ */\n  0x00\n    /* \"@openzeppelin/contracts/proxy/utils/Initializable.sol\":9171:9183  bytes32 slot */\n  0x00\n    /* \"@openzeppelin/contracts/proxy/utils/Initializable.sol\":9186:9213  _initializableStorageSlot() */\n  tag_15\n    /* \"@openzeppelin/contracts/proxy/utils/Initializable.sol\":9186:9211  _initializableStorageSlot */\n  shl(0x20, tag_16)\n    /* \"@openzeppelin/contracts/proxy/utils/Initializable.sol\":9186:9213  _initializableStorageSlot() */\n  0x20\n  shr\n  jump\t// in\ntag_15:\n    /* \"@openzeppelin/contracts/proxy/utils/Initializable.sol\":9171:9213  bytes32 slot = _initializableStorageSlot() */\n  swap1\n  pop\n    /* \"@openzeppelin/contracts/proxy/utils/Initializable.sol\":9256:9260  slot */\n  dup1\n    /* \"@openzeppelin/contracts/proxy/utils/Initializable.sol\":9246:9260  $.slot := slot */\n  swap2\n  pop\n    /* \"@openzeppelin/contracts/proxy/utils/Initializable.sol\":9232:9270  {... */\n  pop\n    /* \"@openzeppelin/contracts/proxy/utils/Initializable.sol\":9071:9276  function _getInitializableStorage() private pure returns (InitializableStorage storage $) {... */\n  swap1\n  jump\t// out\n    /* \"@openzeppelin/contracts/proxy/utils/Initializable.sol\":8819:8941  function _initializableStorageSlot() internal pure virtual returns (bytes32) {... */\ntag_16:\n    /* \"@openzeppelin/contracts/proxy/utils/Initializable.sol\":8887:8894  bytes32 */\n  0x00\n    /* \"@openzeppelin/contracts/proxy/utils/Initializable.sol\":3147:3213  0xf0c57e16840df040f15088dc2f81fe391c3923bec73e23a9662efc9c229c6a00 */\n  0xf0c57e16840df040f15088dc2f81fe391c3923bec73e23a9662efc9c229c6a00\n    /* \"@openzeppelin/contracts/proxy/utils/Initializable.sol\":8913:8934  INITIALIZABLE_STORAGE */\n  0x00\n  shl\n    /* \"@openzeppelin/contracts/proxy/utils/Initializable.sol\":8906:8934  return INITIALIZABLE_STORAGE */\n  swap1\n  pop\n    /* \"@openzeppelin/contracts/proxy/utils/Initializable.sol\":8819:8941  function _initializableStorageSlot() internal pure virtual returns (bytes32) {... */\n  swap1\n  jump\t// out\n    /* \"#utility.yul\":7:108   */\ntag_18:\n    /* \"#utility.yul\":43:50   */\n  0x00\n    /* \"#utility.yul\":83:101   */\n  0xffffffffffffffff\n    /* \"#utility.yul\":76:81   */\n  dup3\n    /* \"#utility.yul\":72:102   */\n  and\n    /* \"#utility.yul\":61:102   */\n  swap1\n  pop\n    /* \"#utility.yul\":7:108   */\n  swap2\n  swap1\n  pop\n  jump\t// out\n    /* \"#utility.yul\":114:229   */\ntag_19:\n    /* \"#utility.yul\":199:222   */\n  tag_23\n    /* \"#utility.yul\":216:221   */\n  dup2\n    /* \"#utility.yul\":199:222   */\n  tag_18\n  jump\t// in\ntag_23:\n    /* \"#utility.yul\":194:197   */\n  dup3\n    /* \"#utility.yul\":187:223   */\n  mstore\n    /* \"#utility.yul\":114:229   */\n  pop\n  pop\n  jump\t// out\n    /* \"#utility.yul\":235:453   */\ntag_13:\n    /* \"#utility.yul\":326:330   */\n  0x00\n    /* \"#utility.yul\":364:366   */\n  0x20\n    /* \"#utility.yul\":353:362   */\n  dup3\n    /* \"#utility.yul\":349:367   */\n  add\n    /* \"#utility.yul\":341:367   */\n  swap1\n  pop\n    /* \"#utility.yul\":377:446   */\n  tag_25\n    /* \"#utility.yul\":443:444   */\n  0x00\n    /* \"#utility.yul\":432:441   */\n  dup4\n    /* \"#utility.yul\":428:445   */\n  add\n    /* \"#utility.yul\":419:425   */\n  dup5\n    /* \"#utility.yul\":377:446   */\n  tag_19\n  jump\t// in\ntag_25:\n    /* \"#utility.yul\":235:453   */\n  swap3\n  swap2\n  pop\n  pop\n  jump\t// out\n    /* \"upgradeContract/v1/v1.sol\":867:2324  contract MyToken is OwnableUpgradeable, UUPSUpgradeable {... */\ntag_6:\n  mload(0x80)\n  codecopy(0x00, dataOffset(sub_0), dataSize(sub_0))\n  0x00\n  assignImmutable(\"0x0319e5f17deaab03eb469de3f67cd82168d841004ce6d744c9f5a7f9bc83511e\")\n  return(0x00, dataSize(sub_0))\nstop\n\nsub_0: assembly {\n        /* \"upgradeContract/v1/v1.sol\":867:2324  contract MyToken is OwnableUpgradeable, UUPSUpgradeable {... */\n      mstore(0x40, 0x80)\n      jumpi(tag_1, lt(calldatasize, 0x04))\n      shr(0xe0, calldataload(0x00))\n      dup1\n      0x715018a6\n      gt\n      tag_11\n      jumpi\n      dup1\n      0x715018a6\n      eq\n      tag_6\n      jumpi\n      dup1\n      0x8da5cb5b\n      eq\n      tag_7\n      jumpi\n      dup1\n      0xad3cb1cc\n      eq\n      tag_8\n      jumpi\n      dup1\n      0xc4d66de8\n      eq\n      tag_9\n      jumpi\n      dup1\n      0xf2fde38b\n      eq\n      tag_10\n      jumpi\n      jump(tag_1)\n    tag_11:\n      dup1\n      0x20965255\n      eq\n      tag_2\n      jumpi\n      dup1\n      0x4f1ef286\n      eq\n      tag_3\n      jumpi\n      dup1\n      0x4fa519fa\n      eq\n      tag_4\n      jumpi\n      dup1\n      0x52d1902d\n      eq\n      tag_5\n      jumpi\n    tag_1:\n      revert(0x00, 0x00)\n        /* \"upgradeContract/v1/v1.sol\":1861:2008  function getValue() public pure returns (uint256) {... */\n    tag_2:\n      callvalue\n      dup1\n      iszero\n      tag_12\n      jumpi\n      revert(0x00, 0x00)\n    tag_12:\n      pop\n      tag_13\n      tag_14\n      jump\t// in\n    tag_13:\n      mload(0x40)\n      tag_15\n      swap2\n      swap1\n      tag_16\n      jump\t// in\n    tag_15:\n      mload(0x40)\n      dup1\n      swap2\n      sub\n      swap1\n      return\n        /* \"@openzeppelin/contracts@5.5.0/proxy/utils/UUPSUpgradeable.sol\":3911:4125  function upgradeToAndCall(address newImplementation, bytes memory data) public payable virtual onlyProxy {... */\n    tag_3:\n      tag_17\n      0x04\n      dup1\n      calldatasize\n      sub\n      dup2\n      add\n      swap1\n      tag_18\n      swap2\n      swap1\n      tag_19\n      jump\t// in\n    tag_18:\n      tag_20\n      jump\t// in\n    tag_17:\n      stop\n        /* \"upgradeContract/v1/v1.sol\":1733:1853  function setValue() public {... */\n    tag_4:\n      callvalue\n      dup1\n      iszero\n      tag_21\n      jumpi\n      revert(0x00, 0x00)\n    tag_21:\n      pop\n      tag_22\n      tag_23\n      jump\t// in\n    tag_22:\n      stop\n        /* \"@openzeppelin/contracts@5.5.0/proxy/utils/UUPSUpgradeable.sol\":3466:3592  function proxiableUUID() external view notDelegated returns (bytes32) {... */\n    tag_5:\n      callvalue\n      dup1\n      iszero\n      tag_24\n      jumpi\n      revert(0x00, 0x00)\n    tag_24:\n      pop\n      tag_25\n      tag_26\n      jump\t// in\n    tag_25:\n      mload(0x40)\n      tag_27\n      swap2\n      swap1\n      tag_28\n      jump\t// in\n    tag_27:\n      mload(0x40)\n      dup1\n      swap2\n      sub\n      swap1\n      return\n        /* \"@openzeppelin/contracts-upgradeable@5.5.0/access/OwnableUpgradeable.sol\":3176:3277  function renounceOwnership() public virtual onlyOwner {... */\n    tag_6:\n      callvalue\n      dup1\n      iszero\n      tag_29\n      jumpi\n      revert(0x00, 0x00)\n    tag_29:\n      pop\n      tag_30\n      tag_31\n      jump\t// in\n    tag_30:\n      stop\n        /* \"@openzeppelin/contracts-upgradeable@5.5.0/access/OwnableUpgradeable.sol\":2462:2606  function owner() public view virtual returns (address) {... */\n    tag_7:\n      callvalue\n      dup1\n      iszero\n      tag_32\n      jumpi\n      revert(0x00, 0x00)\n    tag_32:\n      pop\n      tag_33\n      tag_34\n      jump\t// in\n    tag_33:\n      mload(0x40)\n      tag_35\n      swap2\n      swap1\n      tag_36\n      jump\t// in\n    tag_35:\n      mload(0x40)\n      dup1\n      swap2\n      sub\n      swap1\n      return\n        /* \"@openzeppelin/contracts@5.5.0/proxy/utils/UUPSUpgradeable.sol\":1732:1790  string public constant UPGRADE_INTERFACE_VERSION = \"5.0.0\" */\n    tag_8:\n      callvalue\n      dup1\n      iszero\n      tag_37\n      jumpi\n      revert(0x00, 0x00)\n    tag_37:\n      pop\n      tag_38\n      tag_39\n      jump\t// in\n    tag_38:\n      mload(0x40)\n      tag_40\n      swap2\n      swap1\n      tag_41\n      jump\t// in\n    tag_40:\n      mload(0x40)\n      dup1\n      swap2\n      sub\n      swap1\n      return\n        /* \"upgradeContract/v1/v1.sol\":1617:1725  function initialize(address initialOwner) public initializer {... */\n    tag_9:\n      callvalue\n      dup1\n      iszero\n      tag_42\n      jumpi\n      revert(0x00, 0x00)\n    tag_42:\n      pop\n      tag_43\n      0x04\n      dup1\n      calldatasize\n      sub\n      dup2\n      add\n      swap1\n      tag_44\n      swap2\n      swap1\n      tag_45\n      jump\t// in\n    tag_44:\n      tag_46\n      jump\t// in\n    tag_43:\n      stop\n        /* \"@openzeppelin/contracts-upgradeable@5.5.0/access/OwnableUpgradeable.sol\":3426:3641  function transferOwnership(address newOwner) public virtual onlyOwner {... */\n    tag_10:\n      callvalue\n      dup1\n      iszero\n      tag_47\n      jumpi\n      revert(0x00, 0x00)\n    tag_47:\n      pop\n      tag_48\n      0x04\n      dup1\n      calldatasize\n      sub\n      dup2\n      add\n      swap1\n      tag_49\n      swap2\n      swap1\n      tag_45\n      jump\t// in\n    tag_49:\n      tag_50\n      jump\t// in\n    tag_48:\n      stop\n        /* \"upgradeContract/v1/v1.sol\":1861:2008  function getValue() public pure returns (uint256) {... */\n    tag_14:\n        /* \"upgradeContract/v1/v1.sol\":1902:1909  uint256 */\n      0x00\n        /* \"upgradeContract/v1/v1.sol\":1922:1945  MyTokenStorage memory $ */\n      0x00\n        /* \"upgradeContract/v1/v1.sol\":1948:1968  _getMyTokenStorage() */\n      tag_52\n        /* \"upgradeContract/v1/v1.sol\":1948:1966  _getMyTokenStorage */\n      tag_53\n        /* \"upgradeContract/v1/v1.sol\":1948:1968  _getMyTokenStorage() */\n      jump\t// in\n    tag_52:\n        /* \"upgradeContract/v1/v1.sol\":1922:1968  MyTokenStorage memory $ = _getMyTokenStorage() */\n      mload(0x40)\n      dup1\n      0x20\n      add\n      0x40\n      mstore\n      swap1\n      dup2\n      0x00\n      dup3\n      add\n      sload\n      dup2\n      mstore\n      pop\n      pop\n      swap1\n      pop\n        /* \"upgradeContract/v1/v1.sol\":1986:1987  $ */\n      dup1\n        /* \"upgradeContract/v1/v1.sol\":1986:2000  $._nextTokenId */\n      0x00\n      add\n      mload\n        /* \"upgradeContract/v1/v1.sol\":1979:2000  return $._nextTokenId */\n      swap2\n      pop\n      pop\n        /* \"upgradeContract/v1/v1.sol\":1861:2008  function getValue() public pure returns (uint256) {... */\n      swap1\n      jump\t// out\n        /* \"@openzeppelin/contracts@5.5.0/proxy/utils/UUPSUpgradeable.sol\":3911:4125  function upgradeToAndCall(address newImplementation, bytes memory data) public payable virtual onlyProxy {... */\n    tag_20:\n        /* \"@openzeppelin/contracts@5.5.0/proxy/utils/UUPSUpgradeable.sol\":2568:2581  _checkProxy() */\n      tag_55\n        /* \"@openzeppelin/contracts@5.5.0/proxy/utils/UUPSUpgradeable.sol\":2568:2579  _checkProxy */\n      tag_56\n        /* \"@openzeppelin/contracts@5.5.0/proxy/utils/UUPSUpgradeable.sol\":2568:2581  _checkProxy() */\n      jump\t// in\n    tag_55:\n        /* \"@openzeppelin/contracts@5.5.0/proxy/utils/UUPSUpgradeable.sol\":4026:4062  _authorizeUpgrade(newImplementation) */\n      tag_58\n        /* \"@openzeppelin/contracts@5.5.0/proxy/utils/UUPSUpgradeable.sol\":4044:4061  newImplementation */\n      dup3\n        /* \"@openzeppelin/contracts@5.5.0/proxy/utils/UUPSUpgradeable.sol\":4026:4043  _authorizeUpgrade */\n      tag_59\n        /* \"@openzeppelin/contracts@5.5.0/proxy/utils/UUPSUpgradeable.sol\":4026:4062  _authorizeUpgrade(newImplementation) */\n      jump\t// in\n    tag_58:\n        /* \"@openzeppelin/contracts@5.5.0/proxy/utils/UUPSUpgradeable.sol\":4072:4118  _upgradeToAndCallUUPS(newImplementation, data) */\n      tag_60\n        /* \"@openzeppelin/contracts@5.5.0/proxy/utils/UUPSUpgradeable.sol\":4094:4111  newImplementation */\n      dup3\n        /* \"@openzeppelin/contracts@5.5.0/proxy/utils/UUPSUpgradeable.sol\":4113:4117  data */\n      dup3\n        /* \"@openzeppelin/contracts@5.5.0/proxy/utils/UUPSUpgradeable.sol\":4072:4093  _upgradeToAndCallUUPS */\n      tag_61\n        /* \"@openzeppelin/contracts@5.5.0/proxy/utils/UUPSUpgradeable.sol\":4072:4118  _upgradeToAndCallUUPS(newImplementation, data) */\n      jump\t// in\n    tag_60:\n        /* \"@openzeppelin/contracts@5.5.0/proxy/utils/UUPSUpgradeable.sol\":3911:4125  function upgradeToAndCall(address newImplementation, bytes memory data) public payable virtual onlyProxy {... */\n      pop\n      pop\n      jump\t// out\n        /* \"upgradeContract/v1/v1.sol\":1733:1853  function setValue() public {... */\n    tag_23:\n        /* \"upgradeContract/v1/v1.sol\":1771:1795  MyTokenStorage storage $ */\n      0x00\n        /* \"upgradeContract/v1/v1.sol\":1798:1818  _getMyTokenStorage() */\n      tag_63\n        /* \"upgradeContract/v1/v1.sol\":1798:1816  _getMyTokenStorage */\n      tag_53\n        /* \"upgradeContract/v1/v1.sol\":1798:1818  _getMyTokenStorage() */\n      jump\t// in\n    tag_63:\n        /* \"upgradeContract/v1/v1.sol\":1771:1818  MyTokenStorage storage $ = _getMyTokenStorage() */\n      swap1\n      pop\n        /* \"upgradeContract/v1/v1.sol\":1829:1830  $ */\n      dup1\n        /* \"upgradeContract/v1/v1.sol\":1829:1843  $._nextTokenId */\n      0x00\n      add\n      0x00\n        /* \"upgradeContract/v1/v1.sol\":1829:1845  $._nextTokenId++ */\n      dup2\n      sload\n      dup1\n      swap3\n      swap2\n      swap1\n      tag_64\n      swap1\n      tag_65\n      jump\t// in\n    tag_64:\n      swap2\n      swap1\n      pop\n      sstore\n      pop\n        /* \"upgradeContract/v1/v1.sol\":1760:1853  {... */\n      pop\n        /* \"upgradeContract/v1/v1.sol\":1733:1853  function setValue() public {... */\n      jump\t// out\n        /* \"@openzeppelin/contracts@5.5.0/proxy/utils/UUPSUpgradeable.sol\":3466:3592  function proxiableUUID() external view notDelegated returns (bytes32) {... */\n    tag_26:\n        /* \"@openzeppelin/contracts@5.5.0/proxy/utils/UUPSUpgradeable.sol\":3527:3534  bytes32 */\n      0x00\n        /* \"@openzeppelin/contracts@5.5.0/proxy/utils/UUPSUpgradeable.sol\":2839:2859  _checkNotDelegated() */\n      tag_67\n        /* \"@openzeppelin/contracts@5.5.0/proxy/utils/UUPSUpgradeable.sol\":2839:2857  _checkNotDelegated */\n      tag_68\n        /* \"@openzeppelin/contracts@5.5.0/proxy/utils/UUPSUpgradeable.sol\":2839:2859  _checkNotDelegated() */\n      jump\t// in\n    tag_67:\n        /* \"@openzeppelin/contracts@5.5.0/proxy/ERC1967/ERC1967Utils.sol\":811:877  0x360894a13ba1a3210667c828492db98dca3e2076cc3735a920a3ca505d382bbc */\n      0x360894a13ba1a3210667c828492db98dca3e2076cc3735a920a3ca505d382bbc\n        /* \"@openzeppelin/contracts@5.5.0/proxy/utils/UUPSUpgradeable.sol\":3553:3585  ERC1967Utils.IMPLEMENTATION_SLOT */\n      0x00\n      shl\n        /* \"@openzeppelin/contracts@5.5.0/proxy/utils/UUPSUpgradeable.sol\":3546:3585  return ERC1967Utils.IMPLEMENTATION_SLOT */\n      swap1\n      pop\n        /* \"@openzeppelin/contracts@5.5.0/proxy/utils/UUPSUpgradeable.sol\":3466:3592  function proxiableUUID() external view notDelegated returns (bytes32) {... */\n      swap1\n      jump\t// out\n        /* \"@openzeppelin/contracts-upgradeable@5.5.0/access/OwnableUpgradeable.sol\":3176:3277  function renounceOwnership() public virtual onlyOwner {... */\n    tag_31:\n        /* \"@openzeppelin/contracts-upgradeable@5.5.0/access/OwnableUpgradeable.sol\":2355:2368  _checkOwner() */\n      tag_71\n        /* \"@openzeppelin/contracts-upgradeable@5.5.0/access/OwnableUpgradeable.sol\":2355:2366  _checkOwner */\n      tag_72\n        /* \"@openzeppelin/contracts-upgradeable@5.5.0/access/OwnableUpgradeable.sol\":2355:2368  _checkOwner() */\n      jump\t// in\n    tag_71:\n        /* \"@openzeppelin/contracts-upgradeable@5.5.0/access/OwnableUpgradeable.sol\":3240:3270  _transferOwnership(address(0)) */\n      tag_74\n        /* \"@openzeppelin/contracts-upgradeable@5.5.0/access/OwnableUpgradeable.sol\":3267:3268  0 */\n      0x00\n        /* \"@openzeppelin/contracts-upgradeable@5.5.0/access/OwnableUpgradeable.sol\":3240:3258  _transferOwnership */\n      tag_75\n        /* \"@openzeppelin/contracts-upgradeable@5.5.0/access/OwnableUpgradeable.sol\":3240:3270  _transferOwnership(address(0)) */\n      jump\t// in\n    tag_74:\n        /* \"@openzeppelin/contracts-upgradeable@5.5.0/access/OwnableUpgradeable.sol\":3176:3277  function renounceOwnership() public virtual onlyOwner {... */\n      jump\t// out\n        /* \"@openzeppelin/contracts-upgradeable@5.5.0/access/OwnableUpgradeable.sol\":2462:2606  function owner() public view virtual returns (address) {... */\n    tag_34:\n        /* \"@openzeppelin/contracts-upgradeable@5.5.0/access/OwnableUpgradeable.sol\":2508:2515  address */\n      0x00\n        /* \"@openzeppelin/contracts-upgradeable@5.5.0/access/OwnableUpgradeable.sol\":2527:2551  OwnableStorage storage $ */\n      0x00\n        /* \"@openzeppelin/contracts-upgradeable@5.5.0/access/OwnableUpgradeable.sol\":2554:2574  _getOwnableStorage() */\n      tag_77\n        /* \"@openzeppelin/contracts-upgradeable@5.5.0/access/OwnableUpgradeable.sol\":2554:2572  _getOwnableStorage */\n      tag_78\n        /* \"@openzeppelin/contracts-upgradeable@5.5.0/access/OwnableUpgradeable.sol\":2554:2574  _getOwnableStorage() */\n      jump\t// in\n    tag_77:\n        /* \"@openzeppelin/contracts-upgradeable@5.5.0/access/OwnableUpgradeable.sol\":2527:2574  OwnableStorage storage $ = _getOwnableStorage() */\n      swap1\n      pop\n        /* \"@openzeppelin/contracts-upgradeable@5.5.0/access/OwnableUpgradeable.sol\":2591:2592  $ */\n      dup1\n        /* \"@openzeppelin/contracts-upgradeable@5.5.0/access/OwnableUpgradeable.sol\":2591:2599  $._owner */\n      0x00\n      add\n      0x00\n      swap1\n      sload\n      swap1\n      0x0100\n      exp\n      swap1\n      div\n      0xffffffffffffffffffffffffffffffffffffffff\n      and\n        /* \"@openzeppelin/contracts-upgradeable@5.5.0/access/OwnableUpgradeable.sol\":2584:2599  return $._owner */\n      swap2\n      pop\n      pop\n        /* \"@openzeppelin/contracts-upgradeable@5.5.0/access/OwnableUpgradeable.sol\":2462:2606  function owner() public view virtual returns (address) {... */\n      swap1\n      jump\t// out\n        /* \"@openzeppelin/contracts@5.5.0/proxy/utils/UUPSUpgradeable.sol\":1732:1790  string public constant UPGRADE_INTERFACE_VERSION = \"5.0.0\" */\n    tag_39:\n      mload(0x40)\n      dup1\n      0x40\n      add\n      0x40\n      mstore\n      dup1\n      0x05\n      dup2\n      mstore\n      0x20\n      add\n      0x352e302e30000000000000000000000000000000000000000000000000000000\n      dup2\n      mstore\n      pop\n      dup2\n      jump\t// out\n        /* \"upgradeContract/v1/v1.sol\":1617:1725  function initialize(address initialOwner) public initializer {... */\n    tag_46:\n        /* \"@openzeppelin/contracts/proxy/utils/Initializable.sol\":4158:4188  InitializableStorage storage $ */\n      0x00\n        /* \"@openzeppelin/contracts/proxy/utils/Initializable.sol\":4191:4217  _getInitializableStorage() */\n      tag_80\n        /* \"@openzeppelin/contracts/proxy/utils/Initializable.sol\":4191:4215  _getInitializableStorage */\n      tag_81\n        /* \"@openzeppelin/contracts/proxy/utils/Initializable.sol\":4191:4217  _getInitializableStorage() */\n      jump\t// in\n    tag_80:\n        /* \"@openzeppelin/contracts/proxy/utils/Initializable.sol\":4158:4217  InitializableStorage storage $ = _getInitializableStorage() */\n      swap1\n      pop\n        /* \"@openzeppelin/contracts/proxy/utils/Initializable.sol\":4279:4298  bool isTopLevelCall */\n      0x00\n        /* \"@openzeppelin/contracts/proxy/utils/Initializable.sol\":4302:4303  $ */\n      dup2\n        /* \"@openzeppelin/contracts/proxy/utils/Initializable.sol\":4302:4317  $._initializing */\n      0x00\n      add\n      0x08\n      swap1\n      sload\n      swap1\n      0x0100\n      exp\n      swap1\n      div\n      0xff\n      and\n        /* \"@openzeppelin/contracts/proxy/utils/Initializable.sol\":4301:4317  !$._initializing */\n      iszero\n        /* \"@openzeppelin/contracts/proxy/utils/Initializable.sol\":4279:4317  bool isTopLevelCall = !$._initializing */\n      swap1\n      pop\n        /* \"@openzeppelin/contracts/proxy/utils/Initializable.sol\":4327:4345  uint64 initialized */\n      0x00\n        /* \"@openzeppelin/contracts/proxy/utils/Initializable.sol\":4348:4349  $ */\n      dup3\n        /* \"@openzeppelin/contracts/proxy/utils/Initializable.sol\":4348:4362  $._initialized */\n      0x00\n      add\n      0x00\n      swap1\n      sload\n      swap1\n      0x0100\n      exp\n      swap1\n      div\n      0xffffffffffffffff\n      and\n        /* \"@openzeppelin/contracts/proxy/utils/Initializable.sol\":4327:4362  uint64 initialized = $._initialized */\n      swap1\n      pop\n        /* \"@openzeppelin/contracts/proxy/utils/Initializable.sol\":4704:4721  bool initialSetup */\n      0x00\n        /* \"@openzeppelin/contracts/proxy/utils/Initializable.sol\":4739:4740  0 */\n      0x00\n        /* \"@openzeppelin/contracts/proxy/utils/Initializable.sol\":4724:4735  initialized */\n      dup3\n        /* \"@openzeppelin/contracts/proxy/utils/Initializable.sol\":4724:4740  initialized == 0 */\n      0xffffffffffffffff\n      and\n      eq\n        /* \"@openzeppelin/contracts/proxy/utils/Initializable.sol\":4724:4758  initialized == 0 && isTopLevelCall */\n      dup1\n      iszero\n      tag_82\n      jumpi\n      pop\n        /* \"@openzeppelin/contracts/proxy/utils/Initializable.sol\":4744:4758  isTopLevelCall */\n      dup3\n        /* \"@openzeppelin/contracts/proxy/utils/Initializable.sol\":4724:4758  initialized == 0 && isTopLevelCall */\n    tag_82:\n        /* \"@openzeppelin/contracts/proxy/utils/Initializable.sol\":4704:4758  bool initialSetup = initialized == 0 && isTopLevelCall */\n      swap1\n      pop\n        /* \"@openzeppelin/contracts/proxy/utils/Initializable.sol\":4768:4785  bool construction */\n      0x00\n        /* \"@openzeppelin/contracts/proxy/utils/Initializable.sol\":4803:4804  1 */\n      0x01\n        /* \"@openzeppelin/contracts/proxy/utils/Initializable.sol\":4788:4799  initialized */\n      dup4\n        /* \"@openzeppelin/contracts/proxy/utils/Initializable.sol\":4788:4804  initialized == 1 */\n      0xffffffffffffffff\n      and\n      eq\n        /* \"@openzeppelin/contracts/proxy/utils/Initializable.sol\":4788:4838  initialized == 1 && address(this).code.length == 0 */\n      dup1\n      iszero\n      tag_83\n      jumpi\n      pop\n        /* \"@openzeppelin/contracts/proxy/utils/Initializable.sol\":4837:4838  0 */\n      0x00\n        /* \"@openzeppelin/contracts/proxy/utils/Initializable.sol\":4816:4820  this */\n      address\n        /* \"@openzeppelin/contracts/proxy/utils/Initializable.sol\":4808:4833  address(this).code.length */\n      0xffffffffffffffffffffffffffffffffffffffff\n      and\n      extcodesize\n        /* \"@openzeppelin/contracts/proxy/utils/Initializable.sol\":4808:4838  address(this).code.length == 0 */\n      eq\n        /* \"@openzeppelin/contracts/proxy/utils/Initializable.sol\":4788:4838  initialized == 1 && address(this).code.length == 0 */\n    tag_83:\n        /* \"@openzeppelin/contracts/proxy/utils/Initializable.sol\":4768:4838  bool construction = initialized == 1 && address(this).code.length == 0 */\n      swap1\n      pop\n        /* \"@openzeppelin/contracts/proxy/utils/Initializable.sol\":4854:4866  initialSetup */\n      dup2\n        /* \"@openzeppelin/contracts/proxy/utils/Initializable.sol\":4853:4866  !initialSetup */\n      iszero\n        /* \"@openzeppelin/contracts/proxy/utils/Initializable.sol\":4853:4883  !initialSetup && !construction */\n      dup1\n      iszero\n      tag_84\n      jumpi\n      pop\n        /* \"@openzeppelin/contracts/proxy/utils/Initializable.sol\":4871:4883  construction */\n      dup1\n        /* \"@openzeppelin/contracts/proxy/utils/Initializable.sol\":4870:4883  !construction */\n      iszero\n        /* \"@openzeppelin/contracts/proxy/utils/Initializable.sol\":4853:4883  !initialSetup && !construction */\n    tag_84:\n        /* \"@openzeppelin/contracts/proxy/utils/Initializable.sol\":4849:4940  if (!initialSetup && !construction) {... */\n      iszero\n      tag_85\n      jumpi\n        /* \"@openzeppelin/contracts/proxy/utils/Initializable.sol\":4906:4929  InvalidInitialization() */\n      mload(0x40)\n      0xf92ee8a900000000000000000000000000000000000000000000000000000000\n      dup2\n      mstore\n      0x04\n      add\n      mload(0x40)\n      dup1\n      swap2\n      sub\n      swap1\n      revert\n        /* \"@openzeppelin/contracts/proxy/utils/Initializable.sol\":4849:4940  if (!initialSetup && !construction) {... */\n    tag_85:\n        /* \"@openzeppelin/contracts/proxy/utils/Initializable.sol\":4966:4967  1 */\n      0x01\n        /* \"@openzeppelin/contracts/proxy/utils/Initializable.sol\":4949:4950  $ */\n      dup6\n        /* \"@openzeppelin/contracts/proxy/utils/Initializable.sol\":4949:4963  $._initialized */\n      0x00\n      add\n      0x00\n        /* \"@openzeppelin/contracts/proxy/utils/Initializable.sol\":4949:4967  $._initialized = 1 */\n      0x0100\n      exp\n      dup2\n      sload\n      dup2\n      0xffffffffffffffff\n      mul\n      not\n      and\n      swap1\n      dup4\n      0xffffffffffffffff\n      and\n      mul\n      or\n      swap1\n      sstore\n      pop\n        /* \"@openzeppelin/contracts/proxy/utils/Initializable.sol\":4981:4995  isTopLevelCall */\n      dup4\n        /* \"@openzeppelin/contracts/proxy/utils/Initializable.sol\":4977:5044  if (isTopLevelCall) {... */\n      iszero\n      tag_86\n      jumpi\n        /* \"@openzeppelin/contracts/proxy/utils/Initializable.sol\":5029:5033  true */\n      0x01\n        /* \"@openzeppelin/contracts/proxy/utils/Initializable.sol\":5011:5012  $ */\n      dup6\n        /* \"@openzeppelin/contracts/proxy/utils/Initializable.sol\":5011:5026  $._initializing */\n      0x00\n      add\n      0x08\n        /* \"@openzeppelin/contracts/proxy/utils/Initializable.sol\":5011:5033  $._initializing = true */\n      0x0100\n      exp\n      dup2\n      sload\n      dup2\n      0xff\n      mul\n      not\n      and\n      swap1\n      dup4\n      iszero\n      iszero\n      mul\n      or\n      swap1\n      sstore\n      pop\n        /* \"@openzeppelin/contracts/proxy/utils/Initializable.sol\":4977:5044  if (isTopLevelCall) {... */\n    tag_86:\n        /* \"upgradeContract/v1/v1.sol\":1689:1717  __Ownable_init(initialOwner) */\n      tag_88\n        /* \"upgradeContract/v1/v1.sol\":1704:1716  initialOwner */\n      dup7\n        /* \"upgradeContract/v1/v1.sol\":1689:1703  __Ownable_init */\n      tag_89\n        /* \"upgradeContract/v1/v1.sol\":1689:1717  __Ownable_init(initialOwner) */\n      jump\t// in\n    tag_88:\n        /* \"@openzeppelin/contracts/proxy/utils/Initializable.sol\":5068:5082  isTopLevelCall */\n      dup4\n        /* \"@openzeppelin/contracts/proxy/utils/Initializable.sol\":5064:5165  if (isTopLevelCall) {... */\n      iszero\n      tag_90\n      jumpi\n        /* \"@openzeppelin/contracts/proxy/utils/Initializable.sol\":5116:5121  false */\n      0x00\n        /* \"@openzeppelin/contracts/proxy/utils/Initializable.sol\":5098:5099  $ */\n      dup6\n        /* \"@openzeppelin/contracts/proxy/utils/Initializable.sol\":5098:5113  $._initializing */\n      0x00\n      add\n      0x08\n        /* \"@openzeppelin/contracts/proxy/utils/Initializable.sol\":5098:5121  $._initializing = false */\n      0x0100\n      exp\n      dup2\n      sload\n      dup2\n      0xff\n      mul\n      not\n      and\n      swap1\n      dup4\n      iszero\n      iszero\n      mul\n      or\n      swap1\n      sstore\n      pop\n        /* \"@openzeppelin/contracts/proxy/utils/Initializable.sol\":5140:5154  Initialized(1) */\n      0xc7f505b2f371ae2175ee4913f4499e1f2633a7b5936321eed1cdaeb6115181d2\n        /* \"@openzeppelin/contracts/proxy/utils/Initializable.sol\":5152:5153  1 */\n      0x01\n        /* \"@openzeppelin/contracts/proxy/utils/Initializable.sol\":5140:5154  Initialized(1) */\n      mload(0x40)\n      tag_91\n      swap2\n      swap1\n      tag_92\n      jump\t// in\n    tag_91:\n      mload(0x40)\n      dup1\n      swap2\n      sub\n      swap1\n      log1\n        /* \"@openzeppelin/contracts/proxy/utils/Initializable.sol\":5064:5165  if (isTopLevelCall) {... */\n    tag_90:\n        /* \"@openzeppelin/contracts/proxy/utils/Initializable.sol\":4092:5171  {... */\n      pop\n      pop\n      pop\n      pop\n      pop\n        /* \"upgradeContract/v1/v1.sol\":1617:1725  function initialize(address initialOwner) public initializer {... */\n      pop\n      jump\t// out\n        /* \"@openzeppelin/contracts-upgradeable@5.5.0/access/OwnableUpgradeable.sol\":3426:3641  function transferOwnership(address newOwner) public virtual onlyOwner {... */\n    tag_50:\n        /* \"@openzeppelin/contracts-upgradeable@5.5.0/access/OwnableUpgradeable.sol\":2355:2368  _checkOwner() */\n      tag_94\n        /* \"@openzeppelin/contracts-upgradeable@5.5.0/access/OwnableUpgradeable.sol\":2355:2366  _checkOwner */\n      tag_72\n        /* \"@openzeppelin/contracts-upgradeable@5.5.0/access/OwnableUpgradeable.sol\":2355:2368  _checkOwner() */\n      jump\t// in\n    tag_94:\n        /* \"@openzeppelin/contracts-upgradeable@5.5.0/access/OwnableUpgradeable.sol\":3530:3531  0 */\n      0x00\n        /* \"@openzeppelin/contracts-upgradeable@5.5.0/access/OwnableUpgradeable.sol\":3510:3532  newOwner == address(0) */\n      0xffffffffffffffffffffffffffffffffffffffff\n      and\n        /* \"@openzeppelin/contracts-upgradeable@5.5.0/access/OwnableUpgradeable.sol\":3510:3518  newOwner */\n      dup2\n        /* \"@openzeppelin/contracts-upgradeable@5.5.0/access/OwnableUpgradeable.sol\":3510:3532  newOwner == address(0) */\n      0xffffffffffffffffffffffffffffffffffffffff\n      and\n      sub\n        /* \"@openzeppelin/contracts-upgradeable@5.5.0/access/OwnableUpgradeable.sol\":3506:3597  if (newOwner == address(0)) {... */\n      tag_96\n      jumpi\n        /* \"@openzeppelin/contracts-upgradeable@5.5.0/access/OwnableUpgradeable.sol\":3583:3584  0 */\n      0x00\n        /* \"@openzeppelin/contracts-upgradeable@5.5.0/access/OwnableUpgradeable.sol\":3555:3586  OwnableInvalidOwner(address(0)) */\n      mload(0x40)\n      0x1e4fbdf700000000000000000000000000000000000000000000000000000000\n      dup2\n      mstore\n      0x04\n      add\n      tag_97\n      swap2\n      swap1\n      tag_36\n      jump\t// in\n    tag_97:\n      mload(0x40)\n      dup1\n      swap2\n      sub\n      swap1\n      revert\n        /* \"@openzeppelin/contracts-upgradeable@5.5.0/access/OwnableUpgradeable.sol\":3506:3597  if (newOwner == address(0)) {... */\n    tag_96:\n        /* \"@openzeppelin/contracts-upgradeable@5.5.0/access/OwnableUpgradeable.sol\":3606:3634  _transferOwnership(newOwner) */\n      tag_98\n        /* \"@openzeppelin/contracts-upgradeable@5.5.0/access/OwnableUpgradeable.sol\":3625:3633  newOwner */\n      dup2\n        /* \"@openzeppelin/contracts-upgradeable@5.5.0/access/OwnableUpgradeable.sol\":3606:3624  _transferOwnership */\n      tag_75\n        /* \"@openzeppelin/contracts-upgradeable@5.5.0/access/OwnableUpgradeable.sol\":3606:3634  _transferOwnership(newOwner) */\n      jump\t// in\n    tag_98:\n        /* \"@openzeppelin/contracts-upgradeable@5.5.0/access/OwnableUpgradeable.sol\":3426:3641  function transferOwnership(address newOwner) public virtual onlyOwner {... */\n      pop\n      jump\t// out\n        /* \"upgradeContract/v1/v1.sol\":2016:2213  function _getMyTokenStorage()... */\n    tag_53:\n        /* \"upgradeContract/v1/v1.sol\":2095:2119  MyTokenStorage storage $ */\n      0x00\n        /* \"upgradeContract/v1/v1.sol\":2171:2195  MYTOKEN_STORAGE_LOCATION */\n      0xfbb7c9e4123fcf4b1aad53c70358f7b1c1d7cf28092f5178b53e55db565e9200\n        /* \"upgradeContract/v1/v1.sol\":2161:2195  $.slot := MYTOKEN_STORAGE_LOCATION */\n      swap1\n      pop\n        /* \"upgradeContract/v1/v1.sol\":2016:2213  function _getMyTokenStorage()... */\n      swap1\n      jump\t// out\n        /* \"@openzeppelin/contracts@5.5.0/proxy/utils/UUPSUpgradeable.sol\":4328:4640  function _checkProxy() internal view virtual {... */\n    tag_56:\n        /* \"@openzeppelin/contracts@5.5.0/proxy/utils/UUPSUpgradeable.sol\":4417:4423  __self */\n      immutable(\"0x0319e5f17deaab03eb469de3f67cd82168d841004ce6d744c9f5a7f9bc83511e\")\n        /* \"@openzeppelin/contracts@5.5.0/proxy/utils/UUPSUpgradeable.sol\":4400:4423  address(this) == __self */\n      0xffffffffffffffffffffffffffffffffffffffff\n      and\n        /* \"@openzeppelin/contracts@5.5.0/proxy/utils/UUPSUpgradeable.sol\":4408:4412  this */\n      address\n        /* \"@openzeppelin/contracts@5.5.0/proxy/utils/UUPSUpgradeable.sol\":4400:4423  address(this) == __self */\n      0xffffffffffffffffffffffffffffffffffffffff\n      and\n      eq\n        /* \"@openzeppelin/contracts@5.5.0/proxy/utils/UUPSUpgradeable.sol\":4400:4520  address(this) == __self || // Must be called through delegatecall... */\n      dup1\n      tag_101\n      jumpi\n      pop\n        /* \"@openzeppelin/contracts@5.5.0/proxy/utils/UUPSUpgradeable.sol\":4514:4520  __self */\n      immutable(\"0x0319e5f17deaab03eb469de3f67cd82168d841004ce6d744c9f5a7f9bc83511e\")\n        /* \"@openzeppelin/contracts@5.5.0/proxy/utils/UUPSUpgradeable.sol\":4478:4520  ERC1967Utils.getImplementation() != __self */\n      0xffffffffffffffffffffffffffffffffffffffff\n      and\n        /* \"@openzeppelin/contracts@5.5.0/proxy/utils/UUPSUpgradeable.sol\":4478:4510  ERC1967Utils.getImplementation() */\n      tag_102\n        /* \"@openzeppelin/contracts@5.5.0/proxy/utils/UUPSUpgradeable.sol\":4478:4508  ERC1967Utils.getImplementation */\n      tag_103\n        /* \"@openzeppelin/contracts@5.5.0/proxy/utils/UUPSUpgradeable.sol\":4478:4510  ERC1967Utils.getImplementation() */\n      jump\t// in\n    tag_102:\n        /* \"@openzeppelin/contracts@5.5.0/proxy/utils/UUPSUpgradeable.sol\":4478:4520  ERC1967Utils.getImplementation() != __self */\n      0xffffffffffffffffffffffffffffffffffffffff\n      and\n      eq\n      iszero\n        /* \"@openzeppelin/contracts@5.5.0/proxy/utils/UUPSUpgradeable.sol\":4400:4520  address(this) == __self || // Must be called through delegatecall... */\n    tag_101:\n        /* \"@openzeppelin/contracts@5.5.0/proxy/utils/UUPSUpgradeable.sol\":4383:4634  if (... */\n      iszero\n      tag_104\n      jumpi\n        /* \"@openzeppelin/contracts@5.5.0/proxy/utils/UUPSUpgradeable.sol\":4594:4623  UUPSUnauthorizedCallContext() */\n      mload(0x40)\n      0xe07c8dba00000000000000000000000000000000000000000000000000000000\n      dup2\n      mstore\n      0x04\n      add\n      mload(0x40)\n      dup1\n      swap2\n      sub\n      swap1\n      revert\n        /* \"@openzeppelin/contracts@5.5.0/proxy/utils/UUPSUpgradeable.sol\":4383:4634  if (... */\n    tag_104:\n        /* \"@openzeppelin/contracts@5.5.0/proxy/utils/UUPSUpgradeable.sol\":4328:4640  function _checkProxy() internal view virtual {... */\n      jump\t// out\n        /* \"upgradeContract/v1/v1.sol\":2221:2321  function _authorizeUpgrade(... */\n    tag_59:\n        /* \"@openzeppelin/contracts-upgradeable@5.5.0/access/OwnableUpgradeable.sol\":2355:2368  _checkOwner() */\n      tag_106\n        /* \"@openzeppelin/contracts-upgradeable@5.5.0/access/OwnableUpgradeable.sol\":2355:2366  _checkOwner */\n      tag_72\n        /* \"@openzeppelin/contracts-upgradeable@5.5.0/access/OwnableUpgradeable.sol\":2355:2368  _checkOwner() */\n      jump\t// in\n    tag_106:\n        /* \"upgradeContract/v1/v1.sol\":2221:2321  function _authorizeUpgrade(... */\n      pop\n      jump\t// out\n        /* \"@openzeppelin/contracts@5.5.0/proxy/utils/UUPSUpgradeable.sol\":5782:6320  function _upgradeToAndCallUUPS(address newImplementation, bytes memory data) private {... */\n    tag_61:\n        /* \"@openzeppelin/contracts@5.5.0/proxy/utils/UUPSUpgradeable.sol\":5899:5916  newImplementation */\n      dup2\n        /* \"@openzeppelin/contracts@5.5.0/proxy/utils/UUPSUpgradeable.sol\":5881:5931  IERC1822Proxiable(newImplementation).proxiableUUID */\n      0xffffffffffffffffffffffffffffffffffffffff\n      and\n      0x52d1902d\n        /* \"@openzeppelin/contracts@5.5.0/proxy/utils/UUPSUpgradeable.sol\":5881:5933  IERC1822Proxiable(newImplementation).proxiableUUID() */\n      mload(0x40)\n      dup2\n      0xffffffff\n      and\n      0xe0\n      shl\n      dup2\n      mstore\n      0x04\n      add\n      0x20\n      mload(0x40)\n      dup1\n      dup4\n      sub\n      dup2\n      dup7\n      gas\n      staticcall\n      swap3\n      pop\n      pop\n      pop\n      dup1\n      iszero\n      tag_109\n      jumpi\n      pop\n      mload(0x40)\n      returndatasize\n      not(0x1f)\n      0x1f\n      dup3\n      add\n      and\n      dup3\n      add\n      dup1\n      0x40\n      mstore\n      pop\n      dup2\n      add\n      swap1\n      tag_110\n      swap2\n      swap1\n      tag_111\n      jump\t// in\n    tag_110:\n      0x01\n    tag_109:\n        /* \"@openzeppelin/contracts@5.5.0/proxy/utils/UUPSUpgradeable.sol\":5877:6314  try IERC1822Proxiable(newImplementation).proxiableUUID() returns (bytes32 slot) {... */\n      tag_112\n      jumpi\n        /* \"@openzeppelin/contracts@5.5.0/proxy/utils/UUPSUpgradeable.sol\":6285:6302  newImplementation */\n      dup2\n        /* \"@openzeppelin/contracts@5.5.0/proxy/utils/UUPSUpgradeable.sol\":6243:6303  ERC1967Utils.ERC1967InvalidImplementation(newImplementation) */\n      mload(0x40)\n      0x4c9c8ce300000000000000000000000000000000000000000000000000000000\n      dup2\n      mstore\n      0x04\n      add\n      tag_116\n      swap2\n      swap1\n      tag_36\n      jump\t// in\n    tag_116:\n      mload(0x40)\n      dup1\n      swap2\n      sub\n      swap1\n      revert\n        /* \"@openzeppelin/contracts@5.5.0/proxy/utils/UUPSUpgradeable.sol\":5877:6314  try IERC1822Proxiable(newImplementation).proxiableUUID() returns (bytes32 slot) {... */\n    tag_112:\n        /* \"@openzeppelin/contracts@5.5.0/proxy/ERC1967/ERC1967Utils.sol\":811:877  0x360894a13ba1a3210667c828492db98dca3e2076cc3735a920a3ca505d382bbc */\n      0x360894a13ba1a3210667c828492db98dca3e2076cc3735a920a3ca505d382bbc\n        /* \"@openzeppelin/contracts@5.5.0/proxy/utils/UUPSUpgradeable.sol\":5983:6015  ERC1967Utils.IMPLEMENTATION_SLOT */\n      0x00\n      shl\n        /* \"@openzeppelin/contracts@5.5.0/proxy/utils/UUPSUpgradeable.sol\":5975:5979  slot */\n      dup2\n        /* \"@openzeppelin/contracts@5.5.0/proxy/utils/UUPSUpgradeable.sol\":5975:6015  slot != ERC1967Utils.IMPLEMENTATION_SLOT */\n      eq\n        /* \"@openzeppelin/contracts@5.5.0/proxy/utils/UUPSUpgradeable.sol\":5971:6091  if (slot != ERC1967Utils.IMPLEMENTATION_SLOT) {... */\n      tag_118\n      jumpi\n        /* \"@openzeppelin/contracts@5.5.0/proxy/utils/UUPSUpgradeable.sol\":6071:6075  slot */\n      dup1\n        /* \"@openzeppelin/contracts@5.5.0/proxy/utils/UUPSUpgradeable.sol\":6042:6076  UUPSUnsupportedProxiableUUID(slot) */\n      mload(0x40)\n      0xaa1d49a400000000000000000000000000000000000000000000000000000000\n      dup2\n      mstore\n      0x04\n      add\n      tag_119\n      swap2\n      swap1\n      tag_28\n      jump\t// in\n    tag_119:\n      mload(0x40)\n      dup1\n      swap2\n      sub\n      swap1\n      revert\n        /* \"@openzeppelin/contracts@5.5.0/proxy/utils/UUPSUpgradeable.sol\":5971:6091  if (slot != ERC1967Utils.IMPLEMENTATION_SLOT) {... */\n    tag_118:\n        /* \"@openzeppelin/contracts@5.5.0/proxy/utils/UUPSUpgradeable.sol\":6104:6158  ERC1967Utils.upgradeToAndCall(newImplementation, data) */\n      tag_120\n        /* \"@openzeppelin/contracts@5.5.0/proxy/utils/UUPSUpgradeable.sol\":6134:6151  newImplementation */\n      dup4\n        /* \"@openzeppelin/contracts@5.5.0/proxy/utils/UUPSUpgradeable.sol\":6153:6157  data */\n      dup4\n        /* \"@openzeppelin/contracts@5.5.0/proxy/utils/UUPSUpgradeable.sol\":6104:6133  ERC1967Utils.upgradeToAndCall */\n      tag_121\n        /* \"@openzeppelin/contracts@5.5.0/proxy/utils/UUPSUpgradeable.sol\":6104:6158  ERC1967Utils.upgradeToAndCall(newImplementation, data) */\n      jump\t// in\n    tag_120:\n        /* \"@openzeppelin/contracts@5.5.0/proxy/utils/UUPSUpgradeable.sol\":5934:6169  returns (bytes32 slot) {... */\n      pop\n        /* \"@openzeppelin/contracts@5.5.0/proxy/utils/UUPSUpgradeable.sol\":5782:6320  function _upgradeToAndCallUUPS(address newImplementation, bytes memory data) private {... */\n      pop\n      pop\n      jump\t// out\n        /* \"@openzeppelin/contracts@5.5.0/proxy/utils/UUPSUpgradeable.sol\":4757:4970  function _checkNotDelegated() internal view virtual {... */\n    tag_68:\n        /* \"@openzeppelin/contracts@5.5.0/proxy/utils/UUPSUpgradeable.sol\":4840:4846  __self */\n      immutable(\"0x0319e5f17deaab03eb469de3f67cd82168d841004ce6d744c9f5a7f9bc83511e\")\n        /* \"@openzeppelin/contracts@5.5.0/proxy/utils/UUPSUpgradeable.sol\":4823:4846  address(this) != __self */\n      0xffffffffffffffffffffffffffffffffffffffff\n      and\n        /* \"@openzeppelin/contracts@5.5.0/proxy/utils/UUPSUpgradeable.sol\":4831:4835  this */\n      address\n        /* \"@openzeppelin/contracts@5.5.0/proxy/utils/UUPSUpgradeable.sol\":4823:4846  address(this) != __self */\n      0xffffffffffffffffffffffffffffffffffffffff\n      and\n      eq\n        /* \"@openzeppelin/contracts@5.5.0/proxy/utils/UUPSUpgradeable.sol\":4819:4964  if (address(this) != __self) {... */\n      tag_123\n      jumpi\n        /* \"@openzeppelin/contracts@5.5.0/proxy/utils/UUPSUpgradeable.sol\":4924:4953  UUPSUnauthorizedCallContext() */\n      mload(0x40)\n      0xe07c8dba00000000000000000000000000000000000000000000000000000000\n      dup2\n      mstore\n      0x04\n      add\n      mload(0x40)\n      dup1\n      swap2\n      sub\n      swap1\n      revert\n        /* \"@openzeppelin/contracts@5.5.0/proxy/utils/UUPSUpgradeable.sol\":4819:4964  if (address(this) != __self) {... */\n    tag_123:\n        /* \"@openzeppelin/contracts@5.5.0/proxy/utils/UUPSUpgradeable.sol\":4757:4970  function _checkNotDelegated() internal view virtual {... */\n      jump\t// out\n        /* \"@openzeppelin/contracts-upgradeable@5.5.0/access/OwnableUpgradeable.sol\":2679:2841  function _checkOwner() internal view virtual {... */\n    tag_72:\n        /* \"@openzeppelin/contracts-upgradeable@5.5.0/access/OwnableUpgradeable.sol\":2749:2761  _msgSender() */\n      tag_125\n        /* \"@openzeppelin/contracts-upgradeable@5.5.0/access/OwnableUpgradeable.sol\":2749:2759  _msgSender */\n      tag_126\n        /* \"@openzeppelin/contracts-upgradeable@5.5.0/access/OwnableUpgradeable.sol\":2749:2761  _msgSender() */\n      jump\t// in\n    tag_125:\n        /* \"@openzeppelin/contracts-upgradeable@5.5.0/access/OwnableUpgradeable.sol\":2738:2761  owner() != _msgSender() */\n      0xffffffffffffffffffffffffffffffffffffffff\n      and\n        /* \"@openzeppelin/contracts-upgradeable@5.5.0/access/OwnableUpgradeable.sol\":2738:2745  owner() */\n      tag_127\n        /* \"@openzeppelin/contracts-upgradeable@5.5.0/access/OwnableUpgradeable.sol\":2738:2743  owner */\n      tag_34\n        /* \"@openzeppelin/contracts-upgradeable@5.5.0/access/OwnableUpgradeable.sol\":2738:2745  owner() */\n      jump\t// in\n    tag_127:\n        /* \"@openzeppelin/contracts-upgradeable@5.5.0/access/OwnableUpgradeable.sol\":2738:2761  owner() != _msgSender() */\n      0xffffffffffffffffffffffffffffffffffffffff\n      and\n      eq\n        /* \"@openzeppelin/contracts-upgradeable@5.5.0/access/OwnableUpgradeable.sol\":2734:2835  if (owner() != _msgSender()) {... */\n      tag_128\n      jumpi\n        /* \"@openzeppelin/contracts-upgradeable@5.5.0/access/OwnableUpgradeable.sol\":2811:2823  _msgSender() */\n      tag_129\n        /* \"@openzeppelin/contracts-upgradeable@5.5.0/access/OwnableUpgradeable.sol\":2811:2821  _msgSender */\n      tag_126\n        /* \"@openzeppelin/contracts-upgradeable@5.5.0/access/OwnableUpgradeable.sol\":2811:2823  _msgSender() */\n      jump\t// in\n    tag_129:\n        /* \"@openzeppelin/contracts-upgradeable@5.5.0/access/OwnableUpgradeable.sol\":2784:2824  OwnableUnauthorizedAccount(_msgSender()) */\n      mload(0x40)\n      0x118cdaa700000000000000000000000000000000000000000000000000000000\n      dup2\n      mstore\n      0x04\n      add\n      tag_130\n      swap2\n      swap1\n      tag_36\n      jump\t// in\n    tag_130:\n      mload(0x40)\n      dup1\n      swap2\n      sub\n      swap1\n      revert\n        /* \"@openzeppelin/contracts-upgradeable@5.5.0/access/OwnableUpgradeable.sol\":2734:2835  if (owner() != _msgSender()) {... */\n    tag_128:\n        /* \"@openzeppelin/contracts-upgradeable@5.5.0/access/OwnableUpgradeable.sol\":2679:2841  function _checkOwner() internal view virtual {... */\n      jump\t// out\n        /* \"@openzeppelin/contracts-upgradeable@5.5.0/access/OwnableUpgradeable.sol\":3795:4043  function _transferOwnership(address newOwner) internal virtual {... */\n    tag_75:\n        /* \"@openzeppelin/contracts-upgradeable@5.5.0/access/OwnableUpgradeable.sol\":3868:3892  OwnableStorage storage $ */\n      0x00\n        /* \"@openzeppelin/contracts-upgradeable@5.5.0/access/OwnableUpgradeable.sol\":3895:3915  _getOwnableStorage() */\n      tag_132\n        /* \"@openzeppelin/contracts-upgradeable@5.5.0/access/OwnableUpgradeable.sol\":3895:3913  _getOwnableStorage */\n      tag_78\n        /* \"@openzeppelin/contracts-upgradeable@5.5.0/access/OwnableUpgradeable.sol\":3895:3915  _getOwnableStorage() */\n      jump\t// in\n    tag_132:\n        /* \"@openzeppelin/contracts-upgradeable@5.5.0/access/OwnableUpgradeable.sol\":3868:3915  OwnableStorage storage $ = _getOwnableStorage() */\n      swap1\n      pop\n        /* \"@openzeppelin/contracts-upgradeable@5.5.0/access/OwnableUpgradeable.sol\":3925:3941  address oldOwner */\n      0x00\n        /* \"@openzeppelin/contracts-upgradeable@5.5.0/access/OwnableUpgradeable.sol\":3944:3945  $ */\n      dup2\n        /* \"@openzeppelin/contracts-upgradeable@5.5.0/access/OwnableUpgradeable.sol\":3944:3952  $._owner */\n      0x00\n      add\n      0x00\n      swap1\n      sload\n      swap1\n      0x0100\n      exp\n      swap1\n      div\n      0xffffffffffffffffffffffffffffffffffffffff\n      and\n        /* \"@openzeppelin/contracts-upgradeable@5.5.0/access/OwnableUpgradeable.sol\":3925:3952  address oldOwner = $._owner */\n      swap1\n      pop\n        /* \"@openzeppelin/contracts-upgradeable@5.5.0/access/OwnableUpgradeable.sol\":3973:3981  newOwner */\n      dup3\n        /* \"@openzeppelin/contracts-upgradeable@5.5.0/access/OwnableUpgradeable.sol\":3962:3963  $ */\n      dup3\n        /* \"@openzeppelin/contracts-upgradeable@5.5.0/access/OwnableUpgradeable.sol\":3962:3970  $._owner */\n      0x00\n      add\n      0x00\n        /* \"@openzeppelin/contracts-upgradeable@5.5.0/access/OwnableUpgradeable.sol\":3962:3981  $._owner = newOwner */\n      0x0100\n      exp\n      dup2\n      sload\n      dup2\n      0xffffffffffffffffffffffffffffffffffffffff\n      mul\n      not\n      and\n      swap1\n      dup4\n      0xffffffffffffffffffffffffffffffffffffffff\n      and\n      mul\n      or\n      swap1\n      sstore\n      pop\n        /* \"@openzeppelin/contracts-upgradeable@5.5.0/access/OwnableUpgradeable.sol\":4027:4035  newOwner */\n      dup3\n        /* \"@openzeppelin/contracts-upgradeable@5.5.0/access/OwnableUpgradeable.sol\":3996:4036  OwnershipTransferred(oldOwner, newOwner) */\n      0xffffffffffffffffffffffffffffffffffffffff\n      and\n        /* \"@openzeppelin/contracts-upgradeable@5.5.0/access/OwnableUpgradeable.sol\":4017:4025  oldOwner */\n      dup2\n        /* \"@openzeppelin/contracts-upgradeable@5.5.0/access/OwnableUpgradeable.sol\":3996:4036  OwnershipTransferred(oldOwner, newOwner) */\n      0xffffffffffffffffffffffffffffffffffffffff\n      and\n      0x8be0079c531659141344cd1fd0a4f28419497f9722a3daafe3b4186f6b6457e0\n      mload(0x40)\n      mload(0x40)\n      dup1\n      swap2\n      sub\n      swap1\n      log3\n        /* \"@openzeppelin/contracts-upgradeable@5.5.0/access/OwnableUpgradeable.sol\":3858:4043  {... */\n      pop\n      pop\n        /* \"@openzeppelin/contracts-upgradeable@5.5.0/access/OwnableUpgradeable.sol\":3795:4043  function _transferOwnership(address newOwner) internal virtual {... */\n      pop\n      jump\t// out\n        /* \"@openzeppelin/contracts-upgradeable@5.5.0/access/OwnableUpgradeable.sol\":1213:1372  function _getOwnableStorage() private pure returns (OwnableStorage storage $) {... */\n    tag_78:\n        /* \"@openzeppelin/contracts-upgradeable@5.5.0/access/OwnableUpgradeable.sol\":1265:1289  OwnableStorage storage $ */\n      0x00\n        /* \"@openzeppelin/contracts-upgradeable@5.5.0/access/OwnableUpgradeable.sol\":1334:1356  OwnableStorageLocation */\n      0x9016d09d72d40fdae2fd8ceac6b6234c7706214fd39c1cd1e609a0528c199300\n        /* \"@openzeppelin/contracts-upgradeable@5.5.0/access/OwnableUpgradeable.sol\":1324:1356  $.slot := OwnableStorageLocation */\n      swap1\n      pop\n        /* \"@openzeppelin/contracts-upgradeable@5.5.0/access/OwnableUpgradeable.sol\":1213:1372  function _getOwnableStorage() private pure returns (OwnableStorage storage $) {... */\n      swap1\n      jump\t// out\n        /* \"@openzeppelin/contracts/proxy/utils/Initializable.sol\":9071:9276  function _getInitializableStorage() private pure returns (InitializableStorage storage $) {... */\n    tag_81:\n        /* \"@openzeppelin/contracts/proxy/utils/Initializable.sol\":9129:9159  InitializableStorage storage $ */\n      0x00\n        /* \"@openzeppelin/contracts/proxy/utils/Initializable.sol\":9171:9183  bytes32 slot */\n      0x00\n        /* \"@openzeppelin/contracts/proxy/utils/Initializable.sol\":9186:9213  _initializableStorageSlot() */\n      tag_135\n        /* \"@openzeppelin/contracts/proxy/utils/Initializable.sol\":9186:9211  _initializableStorageSlot */\n      tag_136\n        /* \"@openzeppelin/contracts/proxy/utils/Initializable.sol\":9186:9213  _initializableStorageSlot() */\n      jump\t// in\n    tag_135:\n        /* \"@openzeppelin/contracts/proxy/utils/Initializable.sol\":9171:9213  bytes32 slot = _initializableStorageSlot() */\n      swap1\n      pop\n        /* \"@openzeppelin/contracts/proxy/utils/Initializable.sol\":9256:9260  slot */\n      dup1\n        /* \"@openzeppelin/contracts/proxy/utils/Initializable.sol\":9246:9260  $.slot := slot */\n      swap2\n      pop\n        /* \"@openzeppelin/contracts/proxy/utils/Initializable.sol\":9232:9270  {... */\n      pop\n        /* \"@openzeppelin/contracts/proxy/utils/Initializable.sol\":9071:9276  function _getInitializableStorage() private pure returns (InitializableStorage storage $) {... */\n      swap1\n      jump\t// out\n        /* \"@openzeppelin/contracts-upgradeable@5.5.0/access/OwnableUpgradeable.sol\":1868:1995  function __Ownable_init(address initialOwner) internal onlyInitializing {... */\n    tag_89:\n        /* \"@openzeppelin/contracts/proxy/utils/Initializable.sol\":6929:6949  _checkInitializing() */\n      tag_138\n        /* \"@openzeppelin/contracts/proxy/utils/Initializable.sol\":6929:6947  _checkInitializing */\n      tag_139\n        /* \"@openzeppelin/contracts/proxy/utils/Initializable.sol\":6929:6949  _checkInitializing() */\n      jump\t// in\n    tag_138:\n        /* \"@openzeppelin/contracts-upgradeable@5.5.0/access/OwnableUpgradeable.sol\":1950:1988  __Ownable_init_unchained(initialOwner) */\n      tag_141\n        /* \"@openzeppelin/contracts-upgradeable@5.5.0/access/OwnableUpgradeable.sol\":1975:1987  initialOwner */\n      dup2\n        /* \"@openzeppelin/contracts-upgradeable@5.5.0/access/OwnableUpgradeable.sol\":1950:1974  __Ownable_init_unchained */\n      tag_142\n        /* \"@openzeppelin/contracts-upgradeable@5.5.0/access/OwnableUpgradeable.sol\":1950:1988  __Ownable_init_unchained(initialOwner) */\n      jump\t// in\n    tag_141:\n        /* \"@openzeppelin/contracts-upgradeable@5.5.0/access/OwnableUpgradeable.sol\":1868:1995  function __Ownable_init(address initialOwner) internal onlyInitializing {... */\n      pop\n      jump\t// out\n        /* \"@openzeppelin/contracts@5.5.0/proxy/ERC1967/ERC1967Utils.sol\":1441:1579  function getImplementation() internal view returns (address) {... */\n    tag_103:\n        /* \"@openzeppelin/contracts@5.5.0/proxy/ERC1967/ERC1967Utils.sol\":1493:1500  address */\n      0x00\n        /* \"@openzeppelin/contracts@5.5.0/proxy/ERC1967/ERC1967Utils.sol\":1519:1566  StorageSlot.getAddressSlot(IMPLEMENTATION_SLOT) */\n      tag_144\n        /* \"@openzeppelin/contracts@5.5.0/proxy/ERC1967/ERC1967Utils.sol\":811:877  0x360894a13ba1a3210667c828492db98dca3e2076cc3735a920a3ca505d382bbc */\n      0x360894a13ba1a3210667c828492db98dca3e2076cc3735a920a3ca505d382bbc\n        /* \"@openzeppelin/contracts@5.5.0/proxy/ERC1967/ERC1967Utils.sol\":1546:1565  IMPLEMENTATION_SLOT */\n      0x00\n      shl\n        /* \"@openzeppelin/contracts@5.5.0/proxy/ERC1967/ERC1967Utils.sol\":1519:1545  StorageSlot.getAddressSlot */\n      tag_145\n        /* \"@openzeppelin/contracts@5.5.0/proxy/ERC1967/ERC1967Utils.sol\":1519:1566  StorageSlot.getAddressSlot(IMPLEMENTATION_SLOT) */\n      jump\t// in\n    tag_144:\n        /* \"@openzeppelin/contracts@5.5.0/proxy/ERC1967/ERC1967Utils.sol\":1519:1572  StorageSlot.getAddressSlot(IMPLEMENTATION_SLOT).value */\n      0x00\n      add\n      0x00\n      swap1\n      sload\n      swap1\n      0x0100\n      exp\n      swap1\n      div\n      0xffffffffffffffffffffffffffffffffffffffff\n      and\n        /* \"@openzeppelin/contracts@5.5.0/proxy/ERC1967/ERC1967Utils.sol\":1512:1572  return StorageSlot.getAddressSlot(IMPLEMENTATION_SLOT).value */\n      swap1\n      pop\n        /* \"@openzeppelin/contracts@5.5.0/proxy/ERC1967/ERC1967Utils.sol\":1441:1579  function getImplementation() internal view returns (address) {... */\n      swap1\n      jump\t// out\n        /* \"@openzeppelin/contracts@5.5.0/proxy/ERC1967/ERC1967Utils.sol\":2264:2608  function upgradeToAndCall(address newImplementation, bytes memory data) internal {... */\n    tag_121:\n        /* \"@openzeppelin/contracts@5.5.0/proxy/ERC1967/ERC1967Utils.sol\":2355:2392  _setImplementation(newImplementation) */\n      tag_147\n        /* \"@openzeppelin/contracts@5.5.0/proxy/ERC1967/ERC1967Utils.sol\":2374:2391  newImplementation */\n      dup3\n        /* \"@openzeppelin/contracts@5.5.0/proxy/ERC1967/ERC1967Utils.sol\":2355:2373  _setImplementation */\n      tag_148\n        /* \"@openzeppelin/contracts@5.5.0/proxy/ERC1967/ERC1967Utils.sol\":2355:2392  _setImplementation(newImplementation) */\n      jump\t// in\n    tag_147:\n        /* \"@openzeppelin/contracts@5.5.0/proxy/ERC1967/ERC1967Utils.sol\":2425:2442  newImplementation */\n      dup2\n        /* \"@openzeppelin/contracts@5.5.0/proxy/ERC1967/ERC1967Utils.sol\":2407:2443  IERC1967.Upgraded(newImplementation) */\n      0xffffffffffffffffffffffffffffffffffffffff\n      and\n      0xbc7cd75a20ee27fd9adebab32041f755214dbc6bffa90cc0225b39da2e5c2d3b\n      mload(0x40)\n      mload(0x40)\n      dup1\n      swap2\n      sub\n      swap1\n      log2\n        /* \"@openzeppelin/contracts@5.5.0/proxy/ERC1967/ERC1967Utils.sol\":2472:2473  0 */\n      0x00\n        /* \"@openzeppelin/contracts@5.5.0/proxy/ERC1967/ERC1967Utils.sol\":2458:2462  data */\n      dup2\n        /* \"@openzeppelin/contracts@5.5.0/proxy/ERC1967/ERC1967Utils.sol\":2458:2469  data.length */\n      mload\n        /* \"@openzeppelin/contracts@5.5.0/proxy/ERC1967/ERC1967Utils.sol\":2458:2473  data.length > 0 */\n      gt\n        /* \"@openzeppelin/contracts@5.5.0/proxy/ERC1967/ERC1967Utils.sol\":2454:2602  if (data.length > 0) {... */\n      iszero\n      tag_149\n      jumpi\n        /* \"@openzeppelin/contracts@5.5.0/proxy/ERC1967/ERC1967Utils.sol\":2489:2542  Address.functionDelegateCall(newImplementation, data) */\n      tag_150\n        /* \"@openzeppelin/contracts@5.5.0/proxy/ERC1967/ERC1967Utils.sol\":2518:2535  newImplementation */\n      dup3\n        /* \"@openzeppelin/contracts@5.5.0/proxy/ERC1967/ERC1967Utils.sol\":2537:2541  data */\n      dup3\n        /* \"@openzeppelin/contracts@5.5.0/proxy/ERC1967/ERC1967Utils.sol\":2489:2517  Address.functionDelegateCall */\n      tag_151\n        /* \"@openzeppelin/contracts@5.5.0/proxy/ERC1967/ERC1967Utils.sol\":2489:2542  Address.functionDelegateCall(newImplementation, data) */\n      jump\t// in\n    tag_150:\n      pop\n        /* \"@openzeppelin/contracts@5.5.0/proxy/ERC1967/ERC1967Utils.sol\":2454:2602  if (data.length > 0) {... */\n      jump(tag_152)\n    tag_149:\n        /* \"@openzeppelin/contracts@5.5.0/proxy/ERC1967/ERC1967Utils.sol\":2573:2591  _checkNonPayable() */\n      tag_153\n        /* \"@openzeppelin/contracts@5.5.0/proxy/ERC1967/ERC1967Utils.sol\":2573:2589  _checkNonPayable */\n      tag_154\n        /* \"@openzeppelin/contracts@5.5.0/proxy/ERC1967/ERC1967Utils.sol\":2573:2591  _checkNonPayable() */\n      jump\t// in\n    tag_153:\n        /* \"@openzeppelin/contracts@5.5.0/proxy/ERC1967/ERC1967Utils.sol\":2454:2602  if (data.length > 0) {... */\n    tag_152:\n        /* \"@openzeppelin/contracts@5.5.0/proxy/ERC1967/ERC1967Utils.sol\":2264:2608  function upgradeToAndCall(address newImplementation, bytes memory data) internal {... */\n      pop\n      pop\n      jump\t// out\n        /* \"@openzeppelin/contracts-upgradeable@5.5.0/utils/ContextUpgradeable.sol\":908:1004  function _msgSender() internal view virtual returns (address) {... */\n    tag_126:\n        /* \"@openzeppelin/contracts-upgradeable@5.5.0/utils/ContextUpgradeable.sol\":961:968  address */\n      0x00\n        /* \"@openzeppelin/contracts-upgradeable@5.5.0/utils/ContextUpgradeable.sol\":987:997  msg.sender */\n      caller\n        /* \"@openzeppelin/contracts-upgradeable@5.5.0/utils/ContextUpgradeable.sol\":980:997  return msg.sender */\n      swap1\n      pop\n        /* \"@openzeppelin/contracts-upgradeable@5.5.0/utils/ContextUpgradeable.sol\":908:1004  function _msgSender() internal view virtual returns (address) {... */\n      swap1\n      jump\t// out\n        /* \"@openzeppelin/contracts/proxy/utils/Initializable.sol\":8819:8941  function _initializableStorageSlot() internal pure virtual returns (bytes32) {... */\n    tag_136:\n        /* \"@openzeppelin/contracts/proxy/utils/Initializable.sol\":8887:8894  bytes32 */\n      0x00\n        /* \"@openzeppelin/contracts/proxy/utils/Initializable.sol\":3147:3213  0xf0c57e16840df040f15088dc2f81fe391c3923bec73e23a9662efc9c229c6a00 */\n      0xf0c57e16840df040f15088dc2f81fe391c3923bec73e23a9662efc9c229c6a00\n        /* \"@openzeppelin/contracts/proxy/utils/Initializable.sol\":8913:8934  INITIALIZABLE_STORAGE */\n      0x00\n      shl\n        /* \"@openzeppelin/contracts/proxy/utils/Initializable.sol\":8906:8934  return INITIALIZABLE_STORAGE */\n      swap1\n      pop\n        /* \"@openzeppelin/contracts/proxy/utils/Initializable.sol\":8819:8941  function _initializableStorageSlot() internal pure virtual returns (bytes32) {... */\n      swap1\n      jump\t// out\n        /* \"@openzeppelin/contracts/proxy/utils/Initializable.sol\":7082:7223  function _checkInitializing() internal view virtual {... */\n    tag_139:\n        /* \"@openzeppelin/contracts/proxy/utils/Initializable.sol\":7149:7166  _isInitializing() */\n      tag_158\n        /* \"@openzeppelin/contracts/proxy/utils/Initializable.sol\":7149:7164  _isInitializing */\n      tag_159\n        /* \"@openzeppelin/contracts/proxy/utils/Initializable.sol\":7149:7166  _isInitializing() */\n      jump\t// in\n    tag_158:\n        /* \"@openzeppelin/contracts/proxy/utils/Initializable.sol\":7144:7217  if (!_isInitializing()) {... */\n      tag_160\n      jumpi\n        /* \"@openzeppelin/contracts/proxy/utils/Initializable.sol\":7189:7206  NotInitializing() */\n      mload(0x40)\n      0xd7e6bcf800000000000000000000000000000000000000000000000000000000\n      dup2\n      mstore\n      0x04\n      add\n      mload(0x40)\n      dup1\n      swap2\n      sub\n      swap1\n      revert\n        /* \"@openzeppelin/contracts/proxy/utils/Initializable.sol\":7144:7217  if (!_isInitializing()) {... */\n    tag_160:\n        /* \"@openzeppelin/contracts/proxy/utils/Initializable.sol\":7082:7223  function _checkInitializing() internal view virtual {... */\n      jump\t// out\n        /* \"@openzeppelin/contracts-upgradeable@5.5.0/access/OwnableUpgradeable.sol\":2001:2236  function __Ownable_init_unchained(address initialOwner) internal onlyInitializing {... */\n    tag_142:\n        /* \"@openzeppelin/contracts/proxy/utils/Initializable.sol\":6929:6949  _checkInitializing() */\n      tag_162\n        /* \"@openzeppelin/contracts/proxy/utils/Initializable.sol\":6929:6947  _checkInitializing */\n      tag_139\n        /* \"@openzeppelin/contracts/proxy/utils/Initializable.sol\":6929:6949  _checkInitializing() */\n      jump\t// in\n    tag_162:\n        /* \"@openzeppelin/contracts-upgradeable@5.5.0/access/OwnableUpgradeable.sol\":2121:2122  0 */\n      0x00\n        /* \"@openzeppelin/contracts-upgradeable@5.5.0/access/OwnableUpgradeable.sol\":2097:2123  initialOwner == address(0) */\n      0xffffffffffffffffffffffffffffffffffffffff\n      and\n        /* \"@openzeppelin/contracts-upgradeable@5.5.0/access/OwnableUpgradeable.sol\":2097:2109  initialOwner */\n      dup2\n        /* \"@openzeppelin/contracts-upgradeable@5.5.0/access/OwnableUpgradeable.sol\":2097:2123  initialOwner == address(0) */\n      0xffffffffffffffffffffffffffffffffffffffff\n      and\n      sub\n        /* \"@openzeppelin/contracts-upgradeable@5.5.0/access/OwnableUpgradeable.sol\":2093:2188  if (initialOwner == address(0)) {... */\n      tag_164\n      jumpi\n        /* \"@openzeppelin/contracts-upgradeable@5.5.0/access/OwnableUpgradeable.sol\":2174:2175  0 */\n      0x00\n        /* \"@openzeppelin/contracts-upgradeable@5.5.0/access/OwnableUpgradeable.sol\":2146:2177  OwnableInvalidOwner(address(0)) */\n      mload(0x40)\n      0x1e4fbdf700000000000000000000000000000000000000000000000000000000\n      dup2\n      mstore\n      0x04\n      add\n      tag_165\n      swap2\n      swap1\n      tag_36\n      jump\t// in\n    tag_165:\n      mload(0x40)\n      dup1\n      swap2\n      sub\n      swap1\n      revert\n        /* \"@openzeppelin/contracts-upgradeable@5.5.0/access/OwnableUpgradeable.sol\":2093:2188  if (initialOwner == address(0)) {... */\n    tag_164:\n        /* \"@openzeppelin/contracts-upgradeable@5.5.0/access/OwnableUpgradeable.sol\":2197:2229  _transferOwnership(initialOwner) */\n      tag_166\n        /* \"@openzeppelin/contracts-upgradeable@5.5.0/access/OwnableUpgradeable.sol\":2216:2228  initialOwner */\n      dup2\n        /* \"@openzeppelin/contracts-upgradeable@5.5.0/access/OwnableUpgradeable.sol\":2197:2215  _transferOwnership */\n      tag_75\n        /* \"@openzeppelin/contracts-upgradeable@5.5.0/access/OwnableUpgradeable.sol\":2197:2229  _transferOwnership(initialOwner) */\n      jump\t// in\n    tag_166:\n        /* \"@openzeppelin/contracts-upgradeable@5.5.0/access/OwnableUpgradeable.sol\":2001:2236  function __Ownable_init_unchained(address initialOwner) internal onlyInitializing {... */\n      pop\n      jump\t// out\n        /* \"@openzeppelin/contracts@5.5.0/utils/StorageSlot.sol\":1899:2062  function getAddressSlot(bytes32 slot) internal pure returns (AddressSlot storage r) {... */\n    tag_145:\n        /* \"@openzeppelin/contracts@5.5.0/utils/StorageSlot.sol\":1960:1981  AddressSlot storage r */\n      0x00\n        /* \"@openzeppelin/contracts@5.5.0/utils/StorageSlot.sol\":2042:2046  slot */\n      dup2\n        /* \"@openzeppelin/contracts@5.5.0/utils/StorageSlot.sol\":2032:2046  r.slot := slot */\n      swap1\n      pop\n        /* \"@openzeppelin/contracts@5.5.0/utils/StorageSlot.sol\":1899:2062  function getAddressSlot(bytes32 slot) internal pure returns (AddressSlot storage r) {... */\n      swap2\n      swap1\n      pop\n      jump\t// out\n        /* \"@openzeppelin/contracts@5.5.0/proxy/ERC1967/ERC1967Utils.sol\":1671:1952  function _setImplementation(address newImplementation) private {... */\n    tag_148:\n        /* \"@openzeppelin/contracts@5.5.0/proxy/ERC1967/ERC1967Utils.sol\":1781:1782  0 */\n      0x00\n        /* \"@openzeppelin/contracts@5.5.0/proxy/ERC1967/ERC1967Utils.sol\":1748:1765  newImplementation */\n      dup2\n        /* \"@openzeppelin/contracts@5.5.0/proxy/ERC1967/ERC1967Utils.sol\":1748:1777  newImplementation.code.length */\n      0xffffffffffffffffffffffffffffffffffffffff\n      and\n      extcodesize\n        /* \"@openzeppelin/contracts@5.5.0/proxy/ERC1967/ERC1967Utils.sol\":1748:1782  newImplementation.code.length == 0 */\n      sub\n        /* \"@openzeppelin/contracts@5.5.0/proxy/ERC1967/ERC1967Utils.sol\":1744:1863  if (newImplementation.code.length == 0) {... */\n      tag_169\n      jumpi\n        /* \"@openzeppelin/contracts@5.5.0/proxy/ERC1967/ERC1967Utils.sol\":1834:1851  newImplementation */\n      dup1\n        /* \"@openzeppelin/contracts@5.5.0/proxy/ERC1967/ERC1967Utils.sol\":1805:1852  ERC1967InvalidImplementation(newImplementation) */\n      mload(0x40)\n      0x4c9c8ce300000000000000000000000000000000000000000000000000000000\n      dup2\n      mstore\n      0x04\n      add\n      tag_170\n      swap2\n      swap1\n      tag_36\n      jump\t// in\n    tag_170:\n      mload(0x40)\n      dup1\n      swap2\n      sub\n      swap1\n      revert\n        /* \"@openzeppelin/contracts@5.5.0/proxy/ERC1967/ERC1967Utils.sol\":1744:1863  if (newImplementation.code.length == 0) {... */\n    tag_169:\n        /* \"@openzeppelin/contracts@5.5.0/proxy/ERC1967/ERC1967Utils.sol\":1928:1945  newImplementation */\n      dup1\n        /* \"@openzeppelin/contracts@5.5.0/proxy/ERC1967/ERC1967Utils.sol\":1872:1919  StorageSlot.getAddressSlot(IMPLEMENTATION_SLOT) */\n      tag_171\n        /* \"@openzeppelin/contracts@5.5.0/proxy/ERC1967/ERC1967Utils.sol\":811:877  0x360894a13ba1a3210667c828492db98dca3e2076cc3735a920a3ca505d382bbc */\n      0x360894a13ba1a3210667c828492db98dca3e2076cc3735a920a3ca505d382bbc\n        /* \"@openzeppelin/contracts@5.5.0/proxy/ERC1967/ERC1967Utils.sol\":1899:1918  IMPLEMENTATION_SLOT */\n      0x00\n      shl\n        /* \"@openzeppelin/contracts@5.5.0/proxy/ERC1967/ERC1967Utils.sol\":1872:1898  StorageSlot.getAddressSlot */\n      tag_145\n        /* \"@openzeppelin/contracts@5.5.0/proxy/ERC1967/ERC1967Utils.sol\":1872:1919  StorageSlot.getAddressSlot(IMPLEMENTATION_SLOT) */\n      jump\t// in\n    tag_171:\n        /* \"@openzeppelin/contracts@5.5.0/proxy/ERC1967/ERC1967Utils.sol\":1872:1925  StorageSlot.getAddressSlot(IMPLEMENTATION_SLOT).value */\n      0x00\n      add\n      0x00\n        /* \"@openzeppelin/contracts@5.5.0/proxy/ERC1967/ERC1967Utils.sol\":1872:1945  StorageSlot.getAddressSlot(IMPLEMENTATION_SLOT).value = newImplementation */\n      0x0100\n      exp\n      dup2\n      sload\n      dup2\n      0xffffffffffffffffffffffffffffffffffffffff\n      mul\n      not\n      and\n      swap1\n      dup4\n      0xffffffffffffffffffffffffffffffffffffffff\n      and\n      mul\n      or\n      swap1\n      sstore\n      pop\n        /* \"@openzeppelin/contracts@5.5.0/proxy/ERC1967/ERC1967Utils.sol\":1671:1952  function _setImplementation(address newImplementation) private {... */\n      pop\n      jump\t// out\n        /* \"@openzeppelin/contracts@5.5.0/utils/Address.sol\":4691:5240  function functionDelegateCall(address target, bytes memory data) internal returns (bytes memory) {... */\n    tag_151:\n        /* \"@openzeppelin/contracts@5.5.0/utils/Address.sol\":4774:4786  bytes memory */\n      0x60\n        /* \"@openzeppelin/contracts@5.5.0/utils/Address.sol\":4798:4810  bool success */\n      0x00\n        /* \"@openzeppelin/contracts@5.5.0/utils/Address.sol\":4813:4860  LowLevelCall.delegatecallNoReturn(target, data) */\n      tag_173\n        /* \"@openzeppelin/contracts@5.5.0/utils/Address.sol\":4847:4853  target */\n      dup5\n        /* \"@openzeppelin/contracts@5.5.0/utils/Address.sol\":4855:4859  data */\n      dup5\n        /* \"@openzeppelin/contracts@5.5.0/utils/Address.sol\":4813:4846  LowLevelCall.delegatecallNoReturn */\n      tag_174\n        /* \"@openzeppelin/contracts@5.5.0/utils/Address.sol\":4813:4860  LowLevelCall.delegatecallNoReturn(target, data) */\n      jump\t// in\n    tag_173:\n        /* \"@openzeppelin/contracts@5.5.0/utils/Address.sol\":4798:4860  bool success = LowLevelCall.delegatecallNoReturn(target, data) */\n      swap1\n      pop\n        /* \"@openzeppelin/contracts@5.5.0/utils/Address.sol\":4874:4881  success */\n      dup1\n        /* \"@openzeppelin/contracts@5.5.0/utils/Address.sol\":4874:4946  success && (LowLevelCall.returnDataSize() > 0 || target.code.length > 0) */\n      dup1\n      iszero\n      tag_175\n      jumpi\n      pop\n        /* \"@openzeppelin/contracts@5.5.0/utils/Address.sol\":4918:4919  0 */\n      0x00\n        /* \"@openzeppelin/contracts@5.5.0/utils/Address.sol\":4886:4915  LowLevelCall.returnDataSize() */\n      tag_176\n        /* \"@openzeppelin/contracts@5.5.0/utils/Address.sol\":4886:4913  LowLevelCall.returnDataSize */\n      tag_177\n        /* \"@openzeppelin/contracts@5.5.0/utils/Address.sol\":4886:4915  LowLevelCall.returnDataSize() */\n      jump\t// in\n    tag_176:\n        /* \"@openzeppelin/contracts@5.5.0/utils/Address.sol\":4886:4919  LowLevelCall.returnDataSize() > 0 */\n      gt\n        /* \"@openzeppelin/contracts@5.5.0/utils/Address.sol\":4886:4945  LowLevelCall.returnDataSize() > 0 || target.code.length > 0 */\n      dup1\n      tag_178\n      jumpi\n      pop\n        /* \"@openzeppelin/contracts@5.5.0/utils/Address.sol\":4944:4945  0 */\n      0x00\n        /* \"@openzeppelin/contracts@5.5.0/utils/Address.sol\":4923:4929  target */\n      dup5\n        /* \"@openzeppelin/contracts@5.5.0/utils/Address.sol\":4923:4941  target.code.length */\n      0xffffffffffffffffffffffffffffffffffffffff\n      and\n      extcodesize\n        /* \"@openzeppelin/contracts@5.5.0/utils/Address.sol\":4923:4945  target.code.length > 0 */\n      gt\n        /* \"@openzeppelin/contracts@5.5.0/utils/Address.sol\":4886:4945  LowLevelCall.returnDataSize() > 0 || target.code.length > 0 */\n    tag_178:\n        /* \"@openzeppelin/contracts@5.5.0/utils/Address.sol\":4874:4946  success && (LowLevelCall.returnDataSize() > 0 || target.code.length > 0) */\n    tag_175:\n        /* \"@openzeppelin/contracts@5.5.0/utils/Address.sol\":4870:5234  if (success && (LowLevelCall.returnDataSize() > 0 || target.code.length > 0)) {... */\n      iszero\n      tag_179\n      jumpi\n        /* \"@openzeppelin/contracts@5.5.0/utils/Address.sol\":4969:4994  LowLevelCall.returnData() */\n      tag_180\n        /* \"@openzeppelin/contracts@5.5.0/utils/Address.sol\":4969:4992  LowLevelCall.returnData */\n      tag_181\n        /* \"@openzeppelin/contracts@5.5.0/utils/Address.sol\":4969:4994  LowLevelCall.returnData() */\n      jump\t// in\n    tag_180:\n        /* \"@openzeppelin/contracts@5.5.0/utils/Address.sol\":4962:4994  return LowLevelCall.returnData() */\n      swap2\n      pop\n      pop\n      jump(tag_172)\n        /* \"@openzeppelin/contracts@5.5.0/utils/Address.sol\":4870:5234  if (success && (LowLevelCall.returnDataSize() > 0 || target.code.length > 0)) {... */\n    tag_179:\n        /* \"@openzeppelin/contracts@5.5.0/utils/Address.sol\":5015:5022  success */\n      dup1\n        /* \"@openzeppelin/contracts@5.5.0/utils/Address.sol\":5011:5234  if (success) {... */\n      iszero\n      tag_183\n      jumpi\n        /* \"@openzeppelin/contracts@5.5.0/utils/Address.sol\":5062:5068  target */\n      dup4\n        /* \"@openzeppelin/contracts@5.5.0/utils/Address.sol\":5045:5069  AddressEmptyCode(target) */\n      mload(0x40)\n      0x9996b31500000000000000000000000000000000000000000000000000000000\n      dup2\n      mstore\n      0x04\n      add\n      tag_184\n      swap2\n      swap1\n      tag_36\n      jump\t// in\n    tag_184:\n      mload(0x40)\n      dup1\n      swap2\n      sub\n      swap1\n      revert\n        /* \"@openzeppelin/contracts@5.5.0/utils/Address.sol\":5011:5234  if (success) {... */\n    tag_183:\n        /* \"@openzeppelin/contracts@5.5.0/utils/Address.sol\":5122:5123  0 */\n      0x00\n        /* \"@openzeppelin/contracts@5.5.0/utils/Address.sol\":5090:5119  LowLevelCall.returnDataSize() */\n      tag_186\n        /* \"@openzeppelin/contracts@5.5.0/utils/Address.sol\":5090:5117  LowLevelCall.returnDataSize */\n      tag_177\n        /* \"@openzeppelin/contracts@5.5.0/utils/Address.sol\":5090:5119  LowLevelCall.returnDataSize() */\n      jump\t// in\n    tag_186:\n        /* \"@openzeppelin/contracts@5.5.0/utils/Address.sol\":5090:5123  LowLevelCall.returnDataSize() > 0 */\n      gt\n        /* \"@openzeppelin/contracts@5.5.0/utils/Address.sol\":5086:5234  if (LowLevelCall.returnDataSize() > 0) {... */\n      iszero\n      tag_187\n      jumpi\n        /* \"@openzeppelin/contracts@5.5.0/utils/Address.sol\":5139:5166  LowLevelCall.bubbleRevert() */\n      tag_188\n        /* \"@openzeppelin/contracts@5.5.0/utils/Address.sol\":5139:5164  LowLevelCall.bubbleRevert */\n      tag_189\n        /* \"@openzeppelin/contracts@5.5.0/utils/Address.sol\":5139:5166  LowLevelCall.bubbleRevert() */\n      jump\t// in\n    tag_188:\n        /* \"@openzeppelin/contracts@5.5.0/utils/Address.sol\":5086:5234  if (LowLevelCall.returnDataSize() > 0) {... */\n      jump(tag_190)\n    tag_187:\n        /* \"@openzeppelin/contracts@5.5.0/utils/Address.sol\":5204:5223  Errors.FailedCall() */\n      mload(0x40)\n      0xd6bda27500000000000000000000000000000000000000000000000000000000\n      dup2\n      mstore\n      0x04\n      add\n      mload(0x40)\n      dup1\n      swap2\n      sub\n      swap1\n      revert\n        /* \"@openzeppelin/contracts@5.5.0/utils/Address.sol\":5086:5234  if (LowLevelCall.returnDataSize() > 0) {... */\n    tag_190:\n        /* \"@openzeppelin/contracts@5.5.0/utils/Address.sol\":4788:5240  {... */\n      pop\n        /* \"@openzeppelin/contracts@5.5.0/utils/Address.sol\":4691:5240  function functionDelegateCall(address target, bytes memory data) internal returns (bytes memory) {... */\n    tag_172:\n      swap3\n      swap2\n      pop\n      pop\n      jump\t// out\n        /* \"@openzeppelin/contracts@5.5.0/proxy/ERC1967/ERC1967Utils.sol\":6113:6235  function _checkNonPayable() private {... */\n    tag_154:\n        /* \"@openzeppelin/contracts@5.5.0/proxy/ERC1967/ERC1967Utils.sol\":6175:6176  0 */\n      0x00\n        /* \"@openzeppelin/contracts@5.5.0/proxy/ERC1967/ERC1967Utils.sol\":6163:6172  msg.value */\n      callvalue\n        /* \"@openzeppelin/contracts@5.5.0/proxy/ERC1967/ERC1967Utils.sol\":6163:6176  msg.value > 0 */\n      gt\n        /* \"@openzeppelin/contracts@5.5.0/proxy/ERC1967/ERC1967Utils.sol\":6159:6229  if (msg.value > 0) {... */\n      iszero\n      tag_192\n      jumpi\n        /* \"@openzeppelin/contracts@5.5.0/proxy/ERC1967/ERC1967Utils.sol\":6199:6218  ERC1967NonPayable() */\n      mload(0x40)\n      0xb398979f00000000000000000000000000000000000000000000000000000000\n      dup2\n      mstore\n      0x04\n      add\n      mload(0x40)\n      dup1\n      swap2\n      sub\n      swap1\n      revert\n        /* \"@openzeppelin/contracts@5.5.0/proxy/ERC1967/ERC1967Utils.sol\":6159:6229  if (msg.value > 0) {... */\n    tag_192:\n        /* \"@openzeppelin/contracts@5.5.0/proxy/ERC1967/ERC1967Utils.sol\":6113:6235  function _checkNonPayable() private {... */\n      jump\t// out\n        /* \"@openzeppelin/contracts/proxy/utils/Initializable.sol\":8485:8605  function _isInitializing() internal view returns (bool) {... */\n    tag_159:\n        /* \"@openzeppelin/contracts/proxy/utils/Initializable.sol\":8535:8539  bool */\n      0x00\n        /* \"@openzeppelin/contracts/proxy/utils/Initializable.sol\":8558:8584  _getInitializableStorage() */\n      tag_194\n        /* \"@openzeppelin/contracts/proxy/utils/Initializable.sol\":8558:8582  _getInitializableStorage */\n      tag_81\n        /* \"@openzeppelin/contracts/proxy/utils/Initializable.sol\":8558:8584  _getInitializableStorage() */\n      jump\t// in\n    tag_194:\n        /* \"@openzeppelin/contracts/proxy/utils/Initializable.sol\":8558:8598  _getInitializableStorage()._initializing */\n      0x00\n      add\n      0x08\n      swap1\n      sload\n      swap1\n      0x0100\n      exp\n      swap1\n      div\n      0xff\n      and\n        /* \"@openzeppelin/contracts/proxy/utils/Initializable.sol\":8551:8598  return _getInitializableStorage()._initializing */\n      swap1\n      pop\n        /* \"@openzeppelin/contracts/proxy/utils/Initializable.sol\":8485:8605  function _isInitializing() internal view returns (bool) {... */\n      swap1\n      jump\t// out\n        /* \"@openzeppelin/contracts@5.5.0/utils/LowLevelCall.sol\":3383:3625  function delegatecallNoReturn(address target, bytes memory data) internal returns (bool success) {... */\n    tag_174:\n        /* \"@openzeppelin/contracts@5.5.0/utils/LowLevelCall.sol\":3466:3478  bool success */\n      0x00\n        /* \"@openzeppelin/contracts@5.5.0/utils/LowLevelCall.sol\":3604:3608  0x00 */\n      0x00\n        /* \"@openzeppelin/contracts@5.5.0/utils/LowLevelCall.sol\":3598:3602  0x00 */\n      0x00\n        /* \"@openzeppelin/contracts@5.5.0/utils/LowLevelCall.sol\":3591:3595  data */\n      dup4\n        /* \"@openzeppelin/contracts@5.5.0/utils/LowLevelCall.sol\":3585:3596  mload(data) */\n      mload\n        /* \"@openzeppelin/contracts@5.5.0/utils/LowLevelCall.sol\":3578:3582  0x20 */\n      0x20\n        /* \"@openzeppelin/contracts@5.5.0/utils/LowLevelCall.sol\":3572:3576  data */\n      dup6\n        /* \"@openzeppelin/contracts@5.5.0/utils/LowLevelCall.sol\":3568:3583  add(data, 0x20) */\n      add\n        /* \"@openzeppelin/contracts@5.5.0/utils/LowLevelCall.sol\":3560:3566  target */\n      dup7\n        /* \"@openzeppelin/contracts@5.5.0/utils/LowLevelCall.sol\":3553:3558  gas() */\n      gas\n        /* \"@openzeppelin/contracts@5.5.0/utils/LowLevelCall.sol\":3540:3609  delegatecall(gas(), target, add(data, 0x20), mload(data), 0x00, 0x00) */\n      delegatecall\n        /* \"@openzeppelin/contracts@5.5.0/utils/LowLevelCall.sol\":3529:3609  success := delegatecall(gas(), target, add(data, 0x20), mload(data), 0x00, 0x00) */\n      swap1\n      pop\n        /* \"@openzeppelin/contracts@5.5.0/utils/LowLevelCall.sol\":3383:3625  function delegatecallNoReturn(address target, bytes memory data) internal returns (bool success) {... */\n      swap3\n      swap2\n      pop\n      pop\n      jump\t// out\n        /* \"@openzeppelin/contracts@5.5.0/utils/LowLevelCall.sol\":4463:4615  function returnDataSize() internal pure returns (uint256 size) {... */\n    tag_177:\n        /* \"@openzeppelin/contracts@5.5.0/utils/LowLevelCall.sol\":4512:4524  uint256 size */\n      0x00\n        /* \"@openzeppelin/contracts@5.5.0/utils/LowLevelCall.sol\":4583:4599  returndatasize() */\n      returndatasize\n        /* \"@openzeppelin/contracts@5.5.0/utils/LowLevelCall.sol\":4575:4599  size := returndatasize() */\n      swap1\n      pop\n        /* \"@openzeppelin/contracts@5.5.0/utils/LowLevelCall.sol\":4463:4615  function returnDataSize() internal pure returns (uint256 size) {... */\n      swap1\n      jump\t// out\n        /* \"@openzeppelin/contracts@5.5.0/utils/LowLevelCall.sol\":4698:5032  function returnData() internal pure returns (bytes memory result) {... */\n    tag_181:\n        /* \"@openzeppelin/contracts@5.5.0/utils/LowLevelCall.sol\":4743:4762  bytes memory result */\n      0x60\n        /* \"@openzeppelin/contracts@5.5.0/utils/LowLevelCall.sol\":4829:4833  0x40 */\n      0x40\n        /* \"@openzeppelin/contracts@5.5.0/utils/LowLevelCall.sol\":4823:4834  mload(0x40) */\n      mload\n        /* \"@openzeppelin/contracts@5.5.0/utils/LowLevelCall.sol\":4813:4834  result := mload(0x40) */\n      swap1\n      pop\n        /* \"@openzeppelin/contracts@5.5.0/utils/LowLevelCall.sol\":4862:4878  returndatasize() */\n      returndatasize\n        /* \"@openzeppelin/contracts@5.5.0/utils/LowLevelCall.sol\":4854:4860  result */\n      dup2\n        /* \"@openzeppelin/contracts@5.5.0/utils/LowLevelCall.sol\":4847:4879  mstore(result, returndatasize()) */\n      mstore\n        /* \"@openzeppelin/contracts@5.5.0/utils/LowLevelCall.sol\":4932:4948  returndatasize() */\n      returndatasize\n        /* \"@openzeppelin/contracts@5.5.0/utils/LowLevelCall.sol\":4926:4930  0x00 */\n      0x00\n        /* \"@openzeppelin/contracts@5.5.0/utils/LowLevelCall.sol\":4919:4923  0x20 */\n      0x20\n        /* \"@openzeppelin/contracts@5.5.0/utils/LowLevelCall.sol\":4911:4917  result */\n      dup4\n        /* \"@openzeppelin/contracts@5.5.0/utils/LowLevelCall.sol\":4907:4924  add(result, 0x20) */\n      add\n        /* \"@openzeppelin/contracts@5.5.0/utils/LowLevelCall.sol\":4892:4949  returndatacopy(add(result, 0x20), 0x00, returndatasize()) */\n      returndatacopy\n        /* \"@openzeppelin/contracts@5.5.0/utils/LowLevelCall.sol\":4997:5013  returndatasize() */\n      returndatasize\n        /* \"@openzeppelin/contracts@5.5.0/utils/LowLevelCall.sol\":4991:4995  0x20 */\n      0x20\n        /* \"@openzeppelin/contracts@5.5.0/utils/LowLevelCall.sol\":4987:5014  add(0x20, returndatasize()) */\n      add\n        /* \"@openzeppelin/contracts@5.5.0/utils/LowLevelCall.sol\":4979:4985  result */\n      dup2\n        /* \"@openzeppelin/contracts@5.5.0/utils/LowLevelCall.sol\":4975:5015  add(result, add(0x20, returndatasize())) */\n      add\n        /* \"@openzeppelin/contracts@5.5.0/utils/LowLevelCall.sol\":4969:4973  0x40 */\n      0x40\n        /* \"@openzeppelin/contracts@5.5.0/utils/LowLevelCall.sol\":4962:5016  mstore(0x40, add(result, add(0x20, returndatasize()))) */\n      mstore\n        /* \"@openzeppelin/contracts@5.5.0/utils/LowLevelCall.sol\":4698:5032  function returnData() internal pure returns (bytes memory result) {... */\n      swap1\n      jump\t// out\n        /* \"@openzeppelin/contracts@5.5.0/utils/LowLevelCall.sol\":5099:5322  function bubbleRevert() internal pure {... */\n    tag_189:\n        /* \"@openzeppelin/contracts@5.5.0/utils/LowLevelCall.sol\":5203:5207  0x40 */\n      0x40\n        /* \"@openzeppelin/contracts@5.5.0/utils/LowLevelCall.sol\":5197:5208  mload(0x40) */\n      mload\n        /* \"@openzeppelin/contracts@5.5.0/utils/LowLevelCall.sol\":5247:5263  returndatasize() */\n      returndatasize\n        /* \"@openzeppelin/contracts@5.5.0/utils/LowLevelCall.sol\":5241:5245  0x00 */\n      0x00\n        /* \"@openzeppelin/contracts@5.5.0/utils/LowLevelCall.sol\":5236:5239  fmp */\n      dup3\n        /* \"@openzeppelin/contracts@5.5.0/utils/LowLevelCall.sol\":5221:5264  returndatacopy(fmp, 0x00, returndatasize()) */\n      returndatacopy\n        /* \"@openzeppelin/contracts@5.5.0/utils/LowLevelCall.sol\":5289:5305  returndatasize() */\n      returndatasize\n        /* \"@openzeppelin/contracts@5.5.0/utils/LowLevelCall.sol\":5284:5287  fmp */\n      dup2\n        /* \"@openzeppelin/contracts@5.5.0/utils/LowLevelCall.sol\":5277:5306  revert(fmp, returndatasize()) */\n      revert\n        /* \"#utility.yul\":7:84   */\n    tag_199:\n        /* \"#utility.yul\":44:51   */\n      0x00\n        /* \"#utility.yul\":73:78   */\n      dup2\n        /* \"#utility.yul\":62:78   */\n      swap1\n      pop\n        /* \"#utility.yul\":7:84   */\n      swap2\n      swap1\n      pop\n      jump\t// out\n        /* \"#utility.yul\":90:208   */\n    tag_200:\n        /* \"#utility.yul\":177:201   */\n      tag_236\n        /* \"#utility.yul\":195:200   */\n      dup2\n        /* \"#utility.yul\":177:201   */\n      tag_199\n      jump\t// in\n    tag_236:\n        /* \"#utility.yul\":172:175   */\n      dup3\n        /* \"#utility.yul\":165:202   */\n      mstore\n        /* \"#utility.yul\":90:208   */\n      pop\n      pop\n      jump\t// out\n        /* \"#utility.yul\":214:436   */\n    tag_16:\n        /* \"#utility.yul\":307:311   */\n      0x00\n        /* \"#utility.yul\":345:347   */\n      0x20\n        /* \"#utility.yul\":334:343   */\n      dup3\n        /* \"#utility.yul\":330:348   */\n      add\n        /* \"#utility.yul\":322:348   */\n      swap1\n      pop\n        /* \"#utility.yul\":358:429   */\n      tag_238\n        /* \"#utility.yul\":426:427   */\n      0x00\n        /* \"#utility.yul\":415:424   */\n      dup4\n        /* \"#utility.yul\":411:428   */\n      add\n        /* \"#utility.yul\":402:408   */\n      dup5\n        /* \"#utility.yul\":358:429   */\n      tag_200\n      jump\t// in\n    tag_238:\n        /* \"#utility.yul\":214:436   */\n      swap3\n      swap2\n      pop\n      pop\n      jump\t// out\n        /* \"#utility.yul\":442:517   */\n    tag_201:\n        /* \"#utility.yul\":475:481   */\n      0x00\n        /* \"#utility.yul\":508:510   */\n      0x40\n        /* \"#utility.yul\":502:511   */\n      mload\n        /* \"#utility.yul\":492:511   */\n      swap1\n      pop\n        /* \"#utility.yul\":442:517   */\n      swap1\n      jump\t// out\n        /* \"#utility.yul\":523:640   */\n    tag_202:\n        /* \"#utility.yul\":632:633   */\n      0x00\n        /* \"#utility.yul\":629:630   */\n      0x00\n        /* \"#utility.yul\":622:634   */\n      revert\n        /* \"#utility.yul\":646:763   */\n    tag_203:\n        /* \"#utility.yul\":755:756   */\n      0x00\n        /* \"#utility.yul\":752:753   */\n      0x00\n        /* \"#utility.yul\":745:757   */\n      revert\n        /* \"#utility.yul\":769:895   */\n    tag_204:\n        /* \"#utility.yul\":806:813   */\n      0x00\n        /* \"#utility.yul\":846:888   */\n      0xffffffffffffffffffffffffffffffffffffffff\n        /* \"#utility.yul\":839:844   */\n      dup3\n        /* \"#utility.yul\":835:889   */\n      and\n        /* \"#utility.yul\":824:889   */\n      swap1\n      pop\n        /* \"#utility.yul\":769:895   */\n      swap2\n      swap1\n      pop\n      jump\t// out\n        /* \"#utility.yul\":901:997   */\n    tag_205:\n        /* \"#utility.yul\":938:945   */\n      0x00\n        /* \"#utility.yul\":967:991   */\n      tag_244\n        /* \"#utility.yul\":985:990   */\n      dup3\n        /* \"#utility.yul\":967:991   */\n      tag_204\n      jump\t// in\n    tag_244:\n        /* \"#utility.yul\":956:991   */\n      swap1\n      pop\n        /* \"#utility.yul\":901:997   */\n      swap2\n      swap1\n      pop\n      jump\t// out\n        /* \"#utility.yul\":1003:1125   */\n    tag_206:\n        /* \"#utility.yul\":1076:1100   */\n      tag_246\n        /* \"#utility.yul\":1094:1099   */\n      dup2\n        /* \"#utility.yul\":1076:1100   */\n      tag_205\n      jump\t// in\n    tag_246:\n        /* \"#utility.yul\":1069:1074   */\n      dup2\n        /* \"#utility.yul\":1066:1101   */\n      eq\n        /* \"#utility.yul\":1056:1119   */\n      tag_247\n      jumpi\n        /* \"#utility.yul\":1115:1116   */\n      0x00\n        /* \"#utility.yul\":1112:1113   */\n      0x00\n        /* \"#utility.yul\":1105:1117   */\n      revert\n        /* \"#utility.yul\":1056:1119   */\n    tag_247:\n        /* \"#utility.yul\":1003:1125   */\n      pop\n      jump\t// out\n        /* \"#utility.yul\":1131:1270   */\n    tag_207:\n        /* \"#utility.yul\":1177:1182   */\n      0x00\n        /* \"#utility.yul\":1215:1221   */\n      dup2\n        /* \"#utility.yul\":1202:1222   */\n      calldataload\n        /* \"#utility.yul\":1193:1222   */\n      swap1\n      pop\n        /* \"#utility.yul\":1231:1264   */\n      tag_249\n        /* \"#utility.yul\":1258:1263   */\n      dup2\n        /* \"#utility.yul\":1231:1264   */\n      tag_206\n      jump\t// in\n    tag_249:\n        /* \"#utility.yul\":1131:1270   */\n      swap3\n      swap2\n      pop\n      pop\n      jump\t// out\n        /* \"#utility.yul\":1276:1393   */\n    tag_208:\n        /* \"#utility.yul\":1385:1386   */\n      0x00\n        /* \"#utility.yul\":1382:1383   */\n      0x00\n        /* \"#utility.yul\":1375:1387   */\n      revert\n        /* \"#utility.yul\":1399:1516   */\n    tag_209:\n        /* \"#utility.yul\":1508:1509   */\n      0x00\n        /* \"#utility.yul\":1505:1506   */\n      0x00\n        /* \"#utility.yul\":1498:1510   */\n      revert\n        /* \"#utility.yul\":1522:1624   */\n    tag_210:\n        /* \"#utility.yul\":1563:1569   */\n      0x00\n        /* \"#utility.yul\":1614:1616   */\n      0x1f\n        /* \"#utility.yul\":1610:1617   */\n      not\n        /* \"#utility.yul\":1605:1607   */\n      0x1f\n        /* \"#utility.yul\":1598:1603   */\n      dup4\n        /* \"#utility.yul\":1594:1608   */\n      add\n        /* \"#utility.yul\":1590:1618   */\n      and\n        /* \"#utility.yul\":1580:1618   */\n      swap1\n      pop\n        /* \"#utility.yul\":1522:1624   */\n      swap2\n      swap1\n      pop\n      jump\t// out\n        /* \"#utility.yul\":1630:1810   */\n    tag_211:\n        /* \"#utility.yul\":1678:1755   */\n      0x4e487b7100000000000000000000000000000000000000000000000000000000\n        /* \"#utility.yul\":1675:1676   */\n      0x00\n        /* \"#utility.yul\":1668:1756   */\n      mstore\n        /* \"#utility.yul\":1775:1779   */\n      0x41\n        /* \"#utility.yul\":1772:1773   */\n      0x04\n        /* \"#utility.yul\":1765:1780   */\n      mstore\n        /* \"#utility.yul\":1799:1803   */\n      0x24\n        /* \"#utility.yul\":1796:1797   */\n      0x00\n        /* \"#utility.yul\":1789:1804   */\n      revert\n        /* \"#utility.yul\":1816:2097   */\n    tag_212:\n        /* \"#utility.yul\":1899:1926   */\n      tag_255\n        /* \"#utility.yul\":1921:1925   */\n      dup3\n        /* \"#utility.yul\":1899:1926   */\n      tag_210\n      jump\t// in\n    tag_255:\n        /* \"#utility.yul\":1891:1897   */\n      dup2\n        /* \"#utility.yul\":1887:1927   */\n      add\n        /* \"#utility.yul\":2029:2035   */\n      dup2\n        /* \"#utility.yul\":2017:2027   */\n      dup2\n        /* \"#utility.yul\":2014:2036   */\n      lt\n        /* \"#utility.yul\":1993:2011   */\n      0xffffffffffffffff\n        /* \"#utility.yul\":1981:1991   */\n      dup3\n        /* \"#utility.yul\":1978:2012   */\n      gt\n        /* \"#utility.yul\":1975:2037   */\n      or\n        /* \"#utility.yul\":1972:2060   */\n      iszero\n      tag_256\n      jumpi\n        /* \"#utility.yul\":2040:2058   */\n      tag_257\n      tag_211\n      jump\t// in\n    tag_257:\n        /* \"#utility.yul\":1972:2060   */\n    tag_256:\n        /* \"#utility.yul\":2080:2090   */\n      dup1\n        /* \"#utility.yul\":2076:2078   */\n      0x40\n        /* \"#utility.yul\":2069:2091   */\n      mstore\n        /* \"#utility.yul\":1859:2097   */\n      pop\n        /* \"#utility.yul\":1816:2097   */\n      pop\n      pop\n      jump\t// out\n        /* \"#utility.yul\":2103:2232   */\n    tag_213:\n        /* \"#utility.yul\":2137:2143   */\n      0x00\n        /* \"#utility.yul\":2164:2184   */\n      tag_259\n      tag_201\n      jump\t// in\n    tag_259:\n        /* \"#utility.yul\":2154:2184   */\n      swap1\n      pop\n        /* \"#utility.yul\":2193:2226   */\n      tag_260\n        /* \"#utility.yul\":2221:2225   */\n      dup3\n        /* \"#utility.yul\":2213:2219   */\n      dup3\n        /* \"#utility.yul\":2193:2226   */\n      tag_212\n      jump\t// in\n    tag_260:\n        /* \"#utility.yul\":2103:2232   */\n      swap2\n      swap1\n      pop\n      jump\t// out\n        /* \"#utility.yul\":2238:2545   */\n    tag_214:\n        /* \"#utility.yul\":2299:2303   */\n      0x00\n        /* \"#utility.yul\":2389:2407   */\n      0xffffffffffffffff\n        /* \"#utility.yul\":2381:2387   */\n      dup3\n        /* \"#utility.yul\":2378:2408   */\n      gt\n        /* \"#utility.yul\":2375:2431   */\n      iszero\n      tag_262\n      jumpi\n        /* \"#utility.yul\":2411:2429   */\n      tag_263\n      tag_211\n      jump\t// in\n    tag_263:\n        /* \"#utility.yul\":2375:2431   */\n    tag_262:\n        /* \"#utility.yul\":2449:2478   */\n      tag_264\n        /* \"#utility.yul\":2471:2477   */\n      dup3\n        /* \"#utility.yul\":2449:2478   */\n      tag_210\n      jump\t// in\n    tag_264:\n        /* \"#utility.yul\":2441:2478   */\n      swap1\n      pop\n        /* \"#utility.yul\":2533:2537   */\n      0x20\n        /* \"#utility.yul\":2527:2531   */\n      dup2\n        /* \"#utility.yul\":2523:2538   */\n      add\n        /* \"#utility.yul\":2515:2538   */\n      swap1\n      pop\n        /* \"#utility.yul\":2238:2545   */\n      swap2\n      swap1\n      pop\n      jump\t// out\n        /* \"#utility.yul\":2551:2699   */\n    tag_215:\n        /* \"#utility.yul\":2649:2655   */\n      dup3\n        /* \"#utility.yul\":2644:2647   */\n      dup2\n        /* \"#utility.yul\":2639:2642   */\n      dup4\n        /* \"#utility.yul\":2626:2656   */\n      calldatacopy\n        /* \"#utility.yul\":2690:2691   */\n      0x00\n        /* \"#utility.yul\":2681:2687   */\n      dup4\n        /* \"#utility.yul\":2676:2679   */\n      dup4\n        /* \"#utility.yul\":2672:2688   */\n      add\n        /* \"#utility.yul\":2665:2692   */\n      mstore\n        /* \"#utility.yul\":2551:2699   */\n      pop\n      pop\n      pop\n      jump\t// out\n        /* \"#utility.yul\":2705:3128   */\n    tag_216:\n        /* \"#utility.yul\":2782:2787   */\n      0x00\n        /* \"#utility.yul\":2807:2872   */\n      tag_267\n        /* \"#utility.yul\":2823:2871   */\n      tag_268\n        /* \"#utility.yul\":2864:2870   */\n      dup5\n        /* \"#utility.yul\":2823:2871   */\n      tag_214\n      jump\t// in\n    tag_268:\n        /* \"#utility.yul\":2807:2872   */\n      tag_213\n      jump\t// in\n    tag_267:\n        /* \"#utility.yul\":2798:2872   */\n      swap1\n      pop\n        /* \"#utility.yul\":2895:2901   */\n      dup3\n        /* \"#utility.yul\":2888:2893   */\n      dup2\n        /* \"#utility.yul\":2881:2902   */\n      mstore\n        /* \"#utility.yul\":2933:2937   */\n      0x20\n        /* \"#utility.yul\":2926:2931   */\n      dup2\n        /* \"#utility.yul\":2922:2938   */\n      add\n        /* \"#utility.yul\":2971:2974   */\n      dup5\n        /* \"#utility.yul\":2962:2968   */\n      dup5\n        /* \"#utility.yul\":2957:2960   */\n      dup5\n        /* \"#utility.yul\":2953:2969   */\n      add\n        /* \"#utility.yul\":2950:2975   */\n      gt\n        /* \"#utility.yul\":2947:3059   */\n      iszero\n      tag_269\n      jumpi\n        /* \"#utility.yul\":2978:3057   */\n      tag_270\n      tag_209\n      jump\t// in\n    tag_270:\n        /* \"#utility.yul\":2947:3059   */\n    tag_269:\n        /* \"#utility.yul\":3068:3122   */\n      tag_271\n        /* \"#utility.yul\":3115:3121   */\n      dup5\n        /* \"#utility.yul\":3110:3113   */\n      dup3\n        /* \"#utility.yul\":3105:3108   */\n      dup6\n        /* \"#utility.yul\":3068:3122   */\n      tag_215\n      jump\t// in\n    tag_271:\n        /* \"#utility.yul\":2788:3128   */\n      pop\n        /* \"#utility.yul\":2705:3128   */\n      swap4\n      swap3\n      pop\n      pop\n      pop\n      jump\t// out\n        /* \"#utility.yul\":3147:3485   */\n    tag_217:\n        /* \"#utility.yul\":3202:3207   */\n      0x00\n        /* \"#utility.yul\":3251:3254   */\n      dup3\n        /* \"#utility.yul\":3244:3248   */\n      0x1f\n        /* \"#utility.yul\":3236:3242   */\n      dup4\n        /* \"#utility.yul\":3232:3249   */\n      add\n        /* \"#utility.yul\":3228:3255   */\n      slt\n        /* \"#utility.yul\":3218:3340   */\n      tag_273\n      jumpi\n        /* \"#utility.yul\":3259:3338   */\n      tag_274\n      tag_208\n      jump\t// in\n    tag_274:\n        /* \"#utility.yul\":3218:3340   */\n    tag_273:\n        /* \"#utility.yul\":3376:3382   */\n      dup2\n        /* \"#utility.yul\":3363:3383   */\n      calldataload\n        /* \"#utility.yul\":3401:3479   */\n      tag_275\n        /* \"#utility.yul\":3475:3478   */\n      dup5\n        /* \"#utility.yul\":3467:3473   */\n      dup3\n        /* \"#utility.yul\":3460:3464   */\n      0x20\n        /* \"#utility.yul\":3452:3458   */\n      dup7\n        /* \"#utility.yul\":3448:3465   */\n      add\n        /* \"#utility.yul\":3401:3479   */\n      tag_216\n      jump\t// in\n    tag_275:\n        /* \"#utility.yul\":3392:3479   */\n      swap2\n      pop\n        /* \"#utility.yul\":3208:3485   */\n      pop\n        /* \"#utility.yul\":3147:3485   */\n      swap3\n      swap2\n      pop\n      pop\n      jump\t// out\n        /* \"#utility.yul\":3491:4143   */\n    tag_19:\n        /* \"#utility.yul\":3568:3574   */\n      0x00\n        /* \"#utility.yul\":3576:3582   */\n      0x00\n        /* \"#utility.yul\":3625:3627   */\n      0x40\n        /* \"#utility.yul\":3613:3622   */\n      dup4\n        /* \"#utility.yul\":3604:3611   */\n      dup6\n        /* \"#utility.yul\":3600:3623   */\n      sub\n        /* \"#utility.yul\":3596:3628   */\n      slt\n        /* \"#utility.yul\":3593:3712   */\n      iszero\n      tag_277\n      jumpi\n        /* \"#utility.yul\":3631:3710   */\n      tag_278\n      tag_202\n      jump\t// in\n    tag_278:\n        /* \"#utility.yul\":3593:3712   */\n    tag_277:\n        /* \"#utility.yul\":3751:3752   */\n      0x00\n        /* \"#utility.yul\":3776:3829   */\n      tag_279\n        /* \"#utility.yul\":3821:3828   */\n      dup6\n        /* \"#utility.yul\":3812:3818   */\n      dup3\n        /* \"#utility.yul\":3801:3810   */\n      dup7\n        /* \"#utility.yul\":3797:3819   */\n      add\n        /* \"#utility.yul\":3776:3829   */\n      tag_207\n      jump\t// in\n    tag_279:\n        /* \"#utility.yul\":3766:3829   */\n      swap3\n      pop\n        /* \"#utility.yul\":3722:3839   */\n      pop\n        /* \"#utility.yul\":3906:3908   */\n      0x20\n        /* \"#utility.yul\":3895:3904   */\n      dup4\n        /* \"#utility.yul\":3891:3909   */\n      add\n        /* \"#utility.yul\":3878:3910   */\n      calldataload\n        /* \"#utility.yul\":3937:3955   */\n      0xffffffffffffffff\n        /* \"#utility.yul\":3929:3935   */\n      dup2\n        /* \"#utility.yul\":3926:3956   */\n      gt\n        /* \"#utility.yul\":3923:4040   */\n      iszero\n      tag_280\n      jumpi\n        /* \"#utility.yul\":3959:4038   */\n      tag_281\n      tag_203\n      jump\t// in\n    tag_281:\n        /* \"#utility.yul\":3923:4040   */\n    tag_280:\n        /* \"#utility.yul\":4064:4126   */\n      tag_282\n        /* \"#utility.yul\":4118:4125   */\n      dup6\n        /* \"#utility.yul\":4109:4115   */\n      dup3\n        /* \"#utility.yul\":4098:4107   */\n      dup7\n        /* \"#utility.yul\":4094:4116   */\n      add\n        /* \"#utility.yul\":4064:4126   */\n      tag_217\n      jump\t// in\n    tag_282:\n        /* \"#utility.yul\":4054:4126   */\n      swap2\n      pop\n        /* \"#utility.yul\":3849:4136   */\n      pop\n        /* \"#utility.yul\":3491:4143   */\n      swap3\n      pop\n      swap3\n      swap1\n      pop\n      jump\t// out\n        /* \"#utility.yul\":4149:4226   */\n    tag_218:\n        /* \"#utility.yul\":4186:4193   */\n      0x00\n        /* \"#utility.yul\":4215:4220   */\n      dup2\n        /* \"#utility.yul\":4204:4220   */\n      swap1\n      pop\n        /* \"#utility.yul\":4149:4226   */\n      swap2\n      swap1\n      pop\n      jump\t// out\n        /* \"#utility.yul\":4232:4350   */\n    tag_219:\n        /* \"#utility.yul\":4319:4343   */\n      tag_285\n        /* \"#utility.yul\":4337:4342   */\n      dup2\n        /* \"#utility.yul\":4319:4343   */\n      tag_218\n      jump\t// in\n    tag_285:\n        /* \"#utility.yul\":4314:4317   */\n      dup3\n        /* \"#utility.yul\":4307:4344   */\n      mstore\n        /* \"#utility.yul\":4232:4350   */\n      pop\n      pop\n      jump\t// out\n        /* \"#utility.yul\":4356:4578   */\n    tag_28:\n        /* \"#utility.yul\":4449:4453   */\n      0x00\n        /* \"#utility.yul\":4487:4489   */\n      0x20\n        /* \"#utility.yul\":4476:4485   */\n      dup3\n        /* \"#utility.yul\":4472:4490   */\n      add\n        /* \"#utility.yul\":4464:4490   */\n      swap1\n      pop\n        /* \"#utility.yul\":4500:4571   */\n      tag_287\n        /* \"#utility.yul\":4568:4569   */\n      0x00\n        /* \"#utility.yul\":4557:4566   */\n      dup4\n        /* \"#utility.yul\":4553:4570   */\n      add\n        /* \"#utility.yul\":4544:4550   */\n      dup5\n        /* \"#utility.yul\":4500:4571   */\n      tag_219\n      jump\t// in\n    tag_287:\n        /* \"#utility.yul\":4356:4578   */\n      swap3\n      swap2\n      pop\n      pop\n      jump\t// out\n        /* \"#utility.yul\":4584:4702   */\n    tag_220:\n        /* \"#utility.yul\":4671:4695   */\n      tag_289\n        /* \"#utility.yul\":4689:4694   */\n      dup2\n        /* \"#utility.yul\":4671:4695   */\n      tag_205\n      jump\t// in\n    tag_289:\n        /* \"#utility.yul\":4666:4669   */\n      dup3\n        /* \"#utility.yul\":4659:4696   */\n      mstore\n        /* \"#utility.yul\":4584:4702   */\n      pop\n      pop\n      jump\t// out\n        /* \"#utility.yul\":4708:4930   */\n    tag_36:\n        /* \"#utility.yul\":4801:4805   */\n      0x00\n        /* \"#utility.yul\":4839:4841   */\n      0x20\n        /* \"#utility.yul\":4828:4837   */\n      dup3\n        /* \"#utility.yul\":4824:4842   */\n      add\n        /* \"#utility.yul\":4816:4842   */\n      swap1\n      pop\n        /* \"#utility.yul\":4852:4923   */\n      tag_291\n        /* \"#utility.yul\":4920:4921   */\n      0x00\n        /* \"#utility.yul\":4909:4918   */\n      dup4\n        /* \"#utility.yul\":4905:4922   */\n      add\n        /* \"#utility.yul\":4896:4902   */\n      dup5\n        /* \"#utility.yul\":4852:4923   */\n      tag_220\n      jump\t// in\n    tag_291:\n        /* \"#utility.yul\":4708:4930   */\n      swap3\n      swap2\n      pop\n      pop\n      jump\t// out\n        /* \"#utility.yul\":4936:5035   */\n    tag_221:\n        /* \"#utility.yul\":4988:4994   */\n      0x00\n        /* \"#utility.yul\":5022:5027   */\n      dup2\n        /* \"#utility.yul\":5016:5028   */\n      mload\n        /* \"#utility.yul\":5006:5028   */\n      swap1\n      pop\n        /* \"#utility.yul\":4936:5035   */\n      swap2\n      swap1\n      pop\n      jump\t// out\n        /* \"#utility.yul\":5041:5210   */\n    tag_222:\n        /* \"#utility.yul\":5125:5136   */\n      0x00\n        /* \"#utility.yul\":5159:5165   */\n      dup3\n        /* \"#utility.yul\":5154:5157   */\n      dup3\n        /* \"#utility.yul\":5147:5166   */\n      mstore\n        /* \"#utility.yul\":5199:5203   */\n      0x20\n        /* \"#utility.yul\":5194:5197   */\n      dup3\n        /* \"#utility.yul\":5190:5204   */\n      add\n        /* \"#utility.yul\":5175:5204   */\n      swap1\n      pop\n        /* \"#utility.yul\":5041:5210   */\n      swap3\n      swap2\n      pop\n      pop\n      jump\t// out\n        /* \"#utility.yul\":5216:5355   */\n    tag_223:\n        /* \"#utility.yul\":5305:5311   */\n      dup3\n        /* \"#utility.yul\":5300:5303   */\n      dup2\n        /* \"#utility.yul\":5295:5298   */\n      dup4\n        /* \"#utility.yul\":5289:5312   */\n      mcopy\n        /* \"#utility.yul\":5346:5347   */\n      0x00\n        /* \"#utility.yul\":5337:5343   */\n      dup4\n        /* \"#utility.yul\":5332:5335   */\n      dup4\n        /* \"#utility.yul\":5328:5344   */\n      add\n        /* \"#utility.yul\":5321:5348   */\n      mstore\n        /* \"#utility.yul\":5216:5355   */\n      pop\n      pop\n      pop\n      jump\t// out\n        /* \"#utility.yul\":5361:5738   */\n    tag_224:\n        /* \"#utility.yul\":5449:5452   */\n      0x00\n        /* \"#utility.yul\":5477:5516   */\n      tag_296\n        /* \"#utility.yul\":5510:5515   */\n      dup3\n        /* \"#utility.yul\":5477:5516   */\n      tag_221\n      jump\t// in\n    tag_296:\n        /* \"#utility.yul\":5532:5603   */\n      tag_297\n        /* \"#utility.yul\":5596:5602   */\n      dup2\n        /* \"#utility.yul\":5591:5594   */\n      dup6\n        /* \"#utility.yul\":5532:5603   */\n      tag_222\n      jump\t// in\n    tag_297:\n        /* \"#utility.yul\":5525:5603   */\n      swap4\n      pop\n        /* \"#utility.yul\":5612:5677   */\n      tag_298\n        /* \"#utility.yul\":5670:5676   */\n      dup2\n        /* \"#utility.yul\":5665:5668   */\n      dup6\n        /* \"#utility.yul\":5658:5662   */\n      0x20\n        /* \"#utility.yul\":5651:5656   */\n      dup7\n        /* \"#utility.yul\":5647:5663   */\n      add\n        /* \"#utility.yul\":5612:5677   */\n      tag_223\n      jump\t// in\n    tag_298:\n        /* \"#utility.yul\":5702:5731   */\n      tag_299\n        /* \"#utility.yul\":5724:5730   */\n      dup2\n        /* \"#utility.yul\":5702:5731   */\n      tag_210\n      jump\t// in\n    tag_299:\n        /* \"#utility.yul\":5697:5700   */\n      dup5\n        /* \"#utility.yul\":5693:5732   */\n      add\n        /* \"#utility.yul\":5686:5732   */\n      swap2\n      pop\n        /* \"#utility.yul\":5453:5738   */\n      pop\n        /* \"#utility.yul\":5361:5738   */\n      swap3\n      swap2\n      pop\n      pop\n      jump\t// out\n        /* \"#utility.yul\":5744:6057   */\n    tag_41:\n        /* \"#utility.yul\":5857:5861   */\n      0x00\n        /* \"#utility.yul\":5895:5897   */\n      0x20\n        /* \"#utility.yul\":5884:5893   */\n      dup3\n        /* \"#utility.yul\":5880:5898   */\n      add\n        /* \"#utility.yul\":5872:5898   */\n      swap1\n      pop\n        /* \"#utility.yul\":5944:5953   */\n      dup2\n        /* \"#utility.yul\":5938:5942   */\n      dup2\n        /* \"#utility.yul\":5934:5954   */\n      sub\n        /* \"#utility.yul\":5930:5931   */\n      0x00\n        /* \"#utility.yul\":5919:5928   */\n      dup4\n        /* \"#utility.yul\":5915:5932   */\n      add\n        /* \"#utility.yul\":5908:5955   */\n      mstore\n        /* \"#utility.yul\":5972:6050   */\n      tag_301\n        /* \"#utility.yul\":6045:6049   */\n      dup2\n        /* \"#utility.yul\":6036:6042   */\n      dup5\n        /* \"#utility.yul\":5972:6050   */\n      tag_224\n      jump\t// in\n    tag_301:\n        /* \"#utility.yul\":5964:6050   */\n      swap1\n      pop\n        /* \"#utility.yul\":5744:6057   */\n      swap3\n      swap2\n      pop\n      pop\n      jump\t// out\n        /* \"#utility.yul\":6063:6392   */\n    tag_45:\n        /* \"#utility.yul\":6122:6128   */\n      0x00\n        /* \"#utility.yul\":6171:6173   */\n      0x20\n        /* \"#utility.yul\":6159:6168   */\n      dup3\n        /* \"#utility.yul\":6150:6157   */\n      dup5\n        /* \"#utility.yul\":6146:6169   */\n      sub\n        /* \"#utility.yul\":6142:6174   */\n      slt\n        /* \"#utility.yul\":6139:6258   */\n      iszero\n      tag_303\n      jumpi\n        /* \"#utility.yul\":6177:6256   */\n      tag_304\n      tag_202\n      jump\t// in\n    tag_304:\n        /* \"#utility.yul\":6139:6258   */\n    tag_303:\n        /* \"#utility.yul\":6297:6298   */\n      0x00\n        /* \"#utility.yul\":6322:6375   */\n      tag_305\n        /* \"#utility.yul\":6367:6374   */\n      dup5\n        /* \"#utility.yul\":6358:6364   */\n      dup3\n        /* \"#utility.yul\":6347:6356   */\n      dup6\n        /* \"#utility.yul\":6343:6365   */\n      add\n        /* \"#utility.yul\":6322:6375   */\n      tag_207\n      jump\t// in\n    tag_305:\n        /* \"#utility.yul\":6312:6375   */\n      swap2\n      pop\n        /* \"#utility.yul\":6268:6385   */\n      pop\n        /* \"#utility.yul\":6063:6392   */\n      swap3\n      swap2\n      pop\n      pop\n      jump\t// out\n        /* \"#utility.yul\":6398:6578   */\n    tag_225:\n        /* \"#utility.yul\":6446:6523   */\n      0x4e487b7100000000000000000000000000000000000000000000000000000000\n        /* \"#utility.yul\":6443:6444   */\n      0x00\n        /* \"#utility.yul\":6436:6524   */\n      mstore\n        /* \"#utility.yul\":6543:6547   */\n      0x11\n        /* \"#utility.yul\":6540:6541   */\n      0x04\n        /* \"#utility.yul\":6533:6548   */\n      mstore\n        /* \"#utility.yul\":6567:6571   */\n      0x24\n        /* \"#utility.yul\":6564:6565   */\n      0x00\n        /* \"#utility.yul\":6557:6572   */\n      revert\n        /* \"#utility.yul\":6584:6817   */\n    tag_65:\n        /* \"#utility.yul\":6623:6626   */\n      0x00\n        /* \"#utility.yul\":6646:6670   */\n      tag_308\n        /* \"#utility.yul\":6664:6669   */\n      dup3\n        /* \"#utility.yul\":6646:6670   */\n      tag_199\n      jump\t// in\n    tag_308:\n        /* \"#utility.yul\":6637:6670   */\n      swap2\n      pop\n        /* \"#utility.yul\":6692:6758   */\n      0xffffffffffffffffffffffffffffffffffffffffffffffffffffffffffffffff\n        /* \"#utility.yul\":6685:6690   */\n      dup3\n        /* \"#utility.yul\":6682:6759   */\n      sub\n        /* \"#utility.yul\":6679:6782   */\n      tag_309\n      jumpi\n        /* \"#utility.yul\":6762:6780   */\n      tag_310\n      tag_225\n      jump\t// in\n    tag_310:\n        /* \"#utility.yul\":6679:6782   */\n    tag_309:\n        /* \"#utility.yul\":6809:6810   */\n      0x01\n        /* \"#utility.yul\":6802:6807   */\n      dup3\n        /* \"#utility.yul\":6798:6811   */\n      add\n        /* \"#utility.yul\":6791:6811   */\n      swap1\n      pop\n        /* \"#utility.yul\":6584:6817   */\n      swap2\n      swap1\n      pop\n      jump\t// out\n        /* \"#utility.yul\":6823:6908   */\n    tag_226:\n        /* \"#utility.yul\":6868:6875   */\n      0x00\n        /* \"#utility.yul\":6897:6902   */\n      dup2\n        /* \"#utility.yul\":6886:6902   */\n      swap1\n      pop\n        /* \"#utility.yul\":6823:6908   */\n      swap2\n      swap1\n      pop\n      jump\t// out\n        /* \"#utility.yul\":6914:7015   */\n    tag_227:\n        /* \"#utility.yul\":6950:6957   */\n      0x00\n        /* \"#utility.yul\":6990:7008   */\n      0xffffffffffffffff\n        /* \"#utility.yul\":6983:6988   */\n      dup3\n        /* \"#utility.yul\":6979:7009   */\n      and\n        /* \"#utility.yul\":6968:7009   */\n      swap1\n      pop\n        /* \"#utility.yul\":6914:7015   */\n      swap2\n      swap1\n      pop\n      jump\t// out\n        /* \"#utility.yul\":7021:7081   */\n    tag_228:\n        /* \"#utility.yul\":7049:7052   */\n      0x00\n        /* \"#utility.yul\":7070:7075   */\n      dup2\n        /* \"#utility.yul\":7063:7075   */\n      swap1\n      pop\n        /* \"#utility.yul\":7021:7081   */\n      swap2\n      swap1\n      pop\n      jump\t// out\n        /* \"#utility.yul\":7087:7243   */\n    tag_229:\n        /* \"#utility.yul\":7144:7153   */\n      0x00\n        /* \"#utility.yul\":7177:7237   */\n      tag_315\n        /* \"#utility.yul\":7194:7236   */\n      tag_316\n        /* \"#utility.yul\":7203:7235   */\n      tag_317\n        /* \"#utility.yul\":7229:7234   */\n      dup5\n        /* \"#utility.yul\":7203:7235   */\n      tag_226\n      jump\t// in\n    tag_317:\n        /* \"#utility.yul\":7194:7236   */\n      tag_228\n      jump\t// in\n    tag_316:\n        /* \"#utility.yul\":7177:7237   */\n      tag_227\n      jump\t// in\n    tag_315:\n        /* \"#utility.yul\":7164:7237   */\n      swap1\n      pop\n        /* \"#utility.yul\":7087:7243   */\n      swap2\n      swap1\n      pop\n      jump\t// out\n        /* \"#utility.yul\":7249:7394   */\n    tag_230:\n        /* \"#utility.yul\":7343:7387   */\n      tag_319\n        /* \"#utility.yul\":7381:7386   */\n      dup2\n        /* \"#utility.yul\":7343:7387   */\n      tag_229\n      jump\t// in\n    tag_319:\n        /* \"#utility.yul\":7338:7341   */\n      dup3\n        /* \"#utility.yul\":7331:7388   */\n      mstore\n        /* \"#utility.yul\":7249:7394   */\n      pop\n      pop\n      jump\t// out\n        /* \"#utility.yul\":7400:7636   */\n    tag_92:\n        /* \"#utility.yul\":7500:7504   */\n      0x00\n        /* \"#utility.yul\":7538:7540   */\n      0x20\n        /* \"#utility.yul\":7527:7536   */\n      dup3\n        /* \"#utility.yul\":7523:7541   */\n      add\n        /* \"#utility.yul\":7515:7541   */\n      swap1\n      pop\n        /* \"#utility.yul\":7551:7629   */\n      tag_321\n        /* \"#utility.yul\":7626:7627   */\n      0x00\n        /* \"#utility.yul\":7615:7624   */\n      dup4\n        /* \"#utility.yul\":7611:7628   */\n      add\n        /* \"#utility.yul\":7602:7608   */\n      dup5\n        /* \"#utility.yul\":7551:7629   */\n      tag_230\n      jump\t// in\n    tag_321:\n        /* \"#utility.yul\":7400:7636   */\n      swap3\n      swap2\n      pop\n      pop\n      jump\t// out\n        /* \"#utility.yul\":7642:7764   */\n    tag_231:\n        /* \"#utility.yul\":7715:7739   */\n      tag_323\n        /* \"#utility.yul\":7733:7738   */\n      dup2\n        /* \"#utility.yul\":7715:7739   */\n      tag_218\n      jump\t// in\n    tag_323:\n        /* \"#utility.yul\":7708:7713   */\n      dup2\n        /* \"#utility.yul\":7705:7740   */\n      eq\n        /* \"#utility.yul\":7695:7758   */\n      tag_324\n      jumpi\n        /* \"#utility.yul\":7754:7755   */\n      0x00\n        /* \"#utility.yul\":7751:7752   */\n      0x00\n        /* \"#utility.yul\":7744:7756   */\n      revert\n        /* \"#utility.yul\":7695:7758   */\n    tag_324:\n        /* \"#utility.yul\":7642:7764   */\n      pop\n      jump\t// out\n        /* \"#utility.yul\":7770:7913   */\n    tag_232:\n        /* \"#utility.yul\":7827:7832   */\n      0x00\n        /* \"#utility.yul\":7858:7864   */\n      dup2\n        /* \"#utility.yul\":7852:7865   */\n      mload\n        /* \"#utility.yul\":7843:7865   */\n      swap1\n      pop\n        /* \"#utility.yul\":7874:7907   */\n      tag_326\n        /* \"#utility.yul\":7901:7906   */\n      dup2\n        /* \"#utility.yul\":7874:7907   */\n      tag_231\n      jump\t// in\n    tag_326:\n        /* \"#utility.yul\":7770:7913   */\n      swap3\n      swap2\n      pop\n      pop\n      jump\t// out\n        /* \"#utility.yul\":7919:8270   */\n    tag_111:\n        /* \"#utility.yul\":7989:7995   */\n      0x00\n        /* \"#utility.yul\":8038:8040   */\n      0x20\n        /* \"#utility.yul\":8026:8035   */\n      dup3\n        /* \"#utility.yul\":8017:8024   */\n      dup5\n        /* \"#utility.yul\":8013:8036   */\n      sub\n        /* \"#utility.yul\":8009:8041   */\n      slt\n        /* \"#utility.yul\":8006:8125   */\n      iszero\n      tag_328\n      jumpi\n        /* \"#utility.yul\":8044:8123   */\n      tag_329\n      tag_202\n      jump\t// in\n    tag_329:\n        /* \"#utility.yul\":8006:8125   */\n    tag_328:\n        /* \"#utility.yul\":8164:8165   */\n      0x00\n        /* \"#utility.yul\":8189:8253   */\n      tag_330\n        /* \"#utility.yul\":8245:8252   */\n      dup5\n        /* \"#utility.yul\":8236:8242   */\n      dup3\n        /* \"#utility.yul\":8225:8234   */\n      dup6\n        /* \"#utility.yul\":8221:8243   */\n      add\n        /* \"#utility.yul\":8189:8253   */\n      tag_232\n      jump\t// in\n    tag_330:\n        /* \"#utility.yul\":8179:8253   */\n      swap2\n      pop\n        /* \"#utility.yul\":8135:8263   */\n      pop\n        /* \"#utility.yul\":7919:8270   */\n      swap3\n      swap2\n      pop\n      pop\n      jump\t// out\n\n    auxdata: 0xa264697066735822122031720f54df861247dc924e24b17a04e250ea2e3bd01ca5e8cc58466bf1cc0ad564736f6c634300081e0033\n}\n",
				"bytecode": {
					"linkReferences": {},
					"object": "60a06040523073ffffffffffffffffffffffffffffffffffffffff1660809073ffffffffffffffffffffffffffffffffffffffff16815250348015610042575f5ffd5b5061005161005660201b60201c565b6101d1565b5f61006561015460201b60201c565b9050805f0160089054906101000a900460ff16156100af576040517ff92ee8a900000000000000000000000000000000000000000000000000000000815260040160405180910390fd5b67ffffffffffffffff8016815f015f9054906101000a900467ffffffffffffffff1667ffffffffffffffff16146101515767ffffffffffffffff815f015f6101000a81548167ffffffffffffffff021916908367ffffffffffffffff1602179055507fc7f505b2f371ae2175ee4913f4499e1f2633a7b5936321eed1cdaeb6115181d267ffffffffffffffff60405161014891906101b8565b60405180910390a15b50565b5f5f61016461016d60201b60201c565b90508091505090565b5f7ff0c57e16840df040f15088dc2f81fe391c3923bec73e23a9662efc9c229c6a005f1b905090565b5f67ffffffffffffffff82169050919050565b6101b281610196565b82525050565b5f6020820190506101cb5f8301846101a9565b92915050565b60805161120e6101f75f395f81816105180152818161056d0152610727015261120e5ff3fe608060405260043610610085575f3560e01c8063715018a611610058578063715018a61461010f5780638da5cb5b14610125578063ad3cb1cc1461014f578063c4d66de814610179578063f2fde38b146101a157610085565b806320965255146100895780634f1ef286146100b35780634fa519fa146100cf57806352d1902d146100e5575b5f5ffd5b348015610094575f5ffd5b5061009d6101c9565b6040516100aa9190610d83565b60405180910390f35b6100cd60048036038101906100c89190610f43565b6101f3565b005b3480156100da575f5ffd5b506100e3610212565b005b3480156100f0575f5ffd5b506100f9610238565b6040516101069190610fb5565b60405180910390f35b34801561011a575f5ffd5b50610123610269565b005b348015610130575f5ffd5b5061013961027c565b6040516101469190610fdd565b60405180910390f35b34801561015a575f5ffd5b506101636102b1565b6040516101709190611056565b60405180910390f35b348015610184575f5ffd5b5061019f600480360381019061019a9190611076565b6102ea565b005b3480156101ac575f5ffd5b506101c760048036038101906101c29190611076565b61046b565b005b5f5f6101d36104ef565b6040518060200160405290815f820154815250509050805f015191505090565b6101fb610516565b610204826105fc565b61020e8282610607565b5050565b5f61021b6104ef565b9050805f015f815480929190610230906110ce565b919050555050565b5f610241610725565b7f360894a13ba1a3210667c828492db98dca3e2076cc3735a920a3ca505d382bbc5f1b905090565b6102716107ac565b61027a5f610833565b565b5f5f610286610904565b9050805f015f9054906101000a900473ffffffffffffffffffffffffffffffffffffffff1691505090565b6040518060400160405280600581526020017f352e302e3000000000000000000000000000000000000000000000000000000081525081565b5f6102f361092b565b90505f815f0160089054906101000a900460ff161590505f825f015f9054906101000a900467ffffffffffffffff1690505f5f8267ffffffffffffffff1614801561033b5750825b90505f60018367ffffffffffffffff1614801561036e57505f3073ffffffffffffffffffffffffffffffffffffffff163b145b90508115801561037c575080155b156103b3576040517ff92ee8a900000000000000000000000000000000000000000000000000000000815260040160405180910390fd5b6001855f015f6101000a81548167ffffffffffffffff021916908367ffffffffffffffff1602179055508315610400576001855f0160086101000a81548160ff0219169083151502179055505b6104098661093e565b8315610463575f855f0160086101000a81548160ff0219169083151502179055507fc7f505b2f371ae2175ee4913f4499e1f2633a7b5936321eed1cdaeb6115181d2600160405161045a919061116a565b60405180910390a15b505050505050565b6104736107ac565b5f73ffffffffffffffffffffffffffffffffffffffff168173ffffffffffffffffffffffffffffffffffffffff16036104e3575f6040517f1e4fbdf70000000000000000000000000000000000000000000000000000000081526004016104da9190610fdd565b60405180910390fd5b6104ec81610833565b50565b5f7ffbb7c9e4123fcf4b1aad53c70358f7b1c1d7cf28092f5178b53e55db565e9200905090565b7f000000000000000000000000000000000000000000000000000000000000000073ffffffffffffffffffffffffffffffffffffffff163073ffffffffffffffffffffffffffffffffffffffff1614806105c357507f000000000000000000000000000000000000000000000000000000000000000073ffffffffffffffffffffffffffffffffffffffff166105aa610952565b73ffffffffffffffffffffffffffffffffffffffff1614155b156105fa576040517fe07c8dba00000000000000000000000000000000000000000000000000000000815260040160405180910390fd5b565b6106046107ac565b50565b8173ffffffffffffffffffffffffffffffffffffffff166352d1902d6040518163ffffffff1660e01b8152600401602060405180830381865afa92505050801561066f57506040513d601f19601f8201168201806040525081019061066c91906111ad565b60015b6106b057816040517f4c9c8ce30000000000000000000000000000000000000000000000000000000081526004016106a79190610fdd565b60405180910390fd5b7f360894a13ba1a3210667c828492db98dca3e2076cc3735a920a3ca505d382bbc5f1b811461071657806040517faa1d49a400000000000000000000000000000000000000000000000000000000815260040161070d9190610fb5565b60405180910390fd5b61072083836109a5565b505050565b7f000000000000000000000000000000000000000000000000000000000000000073ffffffffffffffffffffffffffffffffffffffff163073ffffffffffffffffffffffffffffffffffffffff16146107aa576040517fe07c8dba00000000000000000000000000000000000000000000000000000000815260040160405180910390fd5b565b6107b4610a17565b73ffffffffffffffffffffffffffffffffffffffff166107d261027c565b73ffffffffffffffffffffffffffffffffffffffff1614610831576107f5610a17565b6040517f118cdaa70000000000000000000000000000000000000000000000000000000081526004016108289190610fdd565b60405180910390fd5b565b5f61083c610904565b90505f815f015f9054906101000a900473ffffffffffffffffffffffffffffffffffffffff16905082825f015f6101000a81548173ffffffffffffffffffffffffffffffffffffffff021916908373ffffffffffffffffffffffffffffffffffffffff1602179055508273ffffffffffffffffffffffffffffffffffffffff168173ffffffffffffffffffffffffffffffffffffffff167f8be0079c531659141344cd1fd0a4f28419497f9722a3daafe3b4186f6b6457e060405160405180910390a3505050565b5f7f9016d09d72d40fdae2fd8ceac6b6234c7706214fd39c1cd1e609a0528c199300905090565b5f5f610935610a1e565b90508091505090565b610946610a47565b61094f81610a87565b50565b5f61097e7f360894a13ba1a3210667c828492db98dca3e2076cc3735a920a3ca505d382bbc5f1b610b0b565b5f015f9054906101000a900473ffffffffffffffffffffffffffffffffffffffff16905090565b6109ae82610b14565b8173ffffffffffffffffffffffffffffffffffffffff167fbc7cd75a20ee27fd9adebab32041f755214dbc6bffa90cc0225b39da2e5c2d3b60405160405180910390a25f81511115610a0a57610a048282610bdd565b50610a13565b610a12610cce565b5b5050565b5f33905090565b5f7ff0c57e16840df040f15088dc2f81fe391c3923bec73e23a9662efc9c229c6a005f1b905090565b610a4f610d0a565b610a85576040517fd7e6bcf800000000000000000000000000000000000000000000000000000000815260040160405180910390fd5b565b610a8f610a47565b5f73ffffffffffffffffffffffffffffffffffffffff168173ffffffffffffffffffffffffffffffffffffffff1603610aff575f6040517f1e4fbdf7000000000000000000000000000000000000000000000000000000008152600401610af69190610fdd565b60405180910390fd5b610b0881610833565b50565b5f819050919050565b5f8173ffffffffffffffffffffffffffffffffffffffff163b03610b6f57806040517f4c9c8ce3000000000000000000000000000000000000000000000000000000008152600401610b669190610fdd565b60405180910390fd5b80610b9b7f360894a13ba1a3210667c828492db98dca3e2076cc3735a920a3ca505d382bbc5f1b610b0b565b5f015f6101000a81548173ffffffffffffffffffffffffffffffffffffffff021916908373ffffffffffffffffffffffffffffffffffffffff16021790555050565b60605f610bea8484610d28565b9050808015610c2057505f610bfd610d3c565b1180610c1f57505f8473ffffffffffffffffffffffffffffffffffffffff163b115b5b15610c3557610c2d610d43565b915050610cc8565b8015610c7857836040517f9996b315000000000000000000000000000000000000000000000000000000008152600401610c6f9190610fdd565b60405180910390fd5b5f610c81610d3c565b1115610c9457610c8f610d60565b610cc6565b6040517fd6bda27500000000000000000000000000000000000000000000000000000000815260040160405180910390fd5b505b92915050565b5f341115610d08576040517fb398979f00000000000000000000000000000000000000000000000000000000815260040160405180910390fd5b565b5f610d1361092b565b5f0160089054906101000a900460ff16905090565b5f5f5f835160208501865af4905092915050565b5f3d905090565b606060405190503d81523d5f602083013e3d602001810160405290565b6040513d5f823e3d81fd5b5f819050919050565b610d7d81610d6b565b82525050565b5f602082019050610d965f830184610d74565b92915050565b5f604051905090565b5f5ffd5b5f5ffd5b5f73ffffffffffffffffffffffffffffffffffffffff82169050919050565b5f610dd682610dad565b9050919050565b610de681610dcc565b8114610df0575f5ffd5b50565b5f81359050610e0181610ddd565b92915050565b5f5ffd5b5f5ffd5b5f601f19601f8301169050919050565b7f4e487b71000000000000000000000000000000000000000000000000000000005f52604160045260245ffd5b610e5582610e0f565b810181811067ffffffffffffffff82111715610e7457610e73610e1f565b5b80604052505050565b5f610e86610d9c565b9050610e928282610e4c565b919050565b5f67ffffffffffffffff821115610eb157610eb0610e1f565b5b610eba82610e0f565b9050602081019050919050565b828183375f83830152505050565b5f610ee7610ee284610e97565b610e7d565b905082815260208101848484011115610f0357610f02610e0b565b5b610f0e848285610ec7565b509392505050565b5f82601f830112610f2a57610f29610e07565b5b8135610f3a848260208601610ed5565b91505092915050565b5f5f60408385031215610f5957610f58610da5565b5b5f610f6685828601610df3565b925050602083013567ffffffffffffffff811115610f8757610f86610da9565b5b610f9385828601610f16565b9150509250929050565b5f819050919050565b610faf81610f9d565b82525050565b5f602082019050610fc85f830184610fa6565b92915050565b610fd781610dcc565b82525050565b5f602082019050610ff05f830184610fce565b92915050565b5f81519050919050565b5f82825260208201905092915050565b8281835e5f83830152505050565b5f61102882610ff6565b6110328185611000565b9350611042818560208601611010565b61104b81610e0f565b840191505092915050565b5f6020820190508181035f83015261106e818461101e565b905092915050565b5f6020828403121561108b5761108a610da5565b5b5f61109884828501610df3565b91505092915050565b7f4e487b71000000000000000000000000000000000000000000000000000000005f52601160045260245ffd5b5f6110d882610d6b565b91507fffffffffffffffffffffffffffffffffffffffffffffffffffffffffffffffff820361110a576111096110a1565b5b600182019050919050565b5f819050919050565b5f67ffffffffffffffff82169050919050565b5f819050919050565b5f61115461114f61114a84611115565b611131565b61111e565b9050919050565b6111648161113a565b82525050565b5f60208201905061117d5f83018461115b565b92915050565b61118c81610f9d565b8114611196575f5ffd5b50565b5f815190506111a781611183565b92915050565b5f602082840312156111c2576111c1610da5565b5b5f6111cf84828501611199565b9150509291505056fea264697066735822122031720f54df861247dc924e24b17a04e250ea2e3bd01ca5e8cc58466bf1cc0ad564736f6c634300081e0033",
					"opcodes": "PUSH1 0xA0 PUSH1 0x40 MSTORE ADDRESS PUSH20 0xFFFFFFFFFFFFFFFFFFFFFFFFFFFFFFFFFFFFFFFF AND PUSH1 0x80 SWAP1 PUSH20 0xFFFFFFFFFFFFFFFFFFFFFFFFFFFFFFFFFFFFFFFF AND DUP2 MSTORE POP CALLVALUE DUP1 ISZERO PUSH2 0x42 JUMPI PUSH0 PUSH0 REVERT JUMPDEST POP PUSH2 0x51 PUSH2 0x56 PUSH1 0x20 SHL PUSH1 0x20 SHR JUMP JUMPDEST PUSH2 0x1D1 JUMP JUMPDEST PUSH0 PUSH2 0x65 PUSH2 0x154 PUSH1 0x20 SHL PUSH1 0x20 SHR JUMP JUMPDEST SWAP1 POP DUP1 PUSH0 ADD PUSH1 0x8 SWAP1 SLOAD SWAP1 PUSH2 0x100 EXP SWAP1 DIV PUSH1 0xFF AND ISZERO PUSH2 0xAF JUMPI PUSH1 0x40 MLOAD PUSH32 0xF92EE8A900000000000000000000000000000000000000000000000000000000 DUP2 MSTORE PUSH1 0x4 ADD PUSH1 0x40 MLOAD DUP1 SWAP2 SUB SWAP1 REVERT JUMPDEST PUSH8 0xFFFFFFFFFFFFFFFF DUP1 AND DUP2 PUSH0 ADD PUSH0 SWAP1 SLOAD SWAP1 PUSH2 0x100 EXP SWAP1 DIV PUSH8 0xFFFFFFFFFFFFFFFF AND PUSH8 0xFFFFFFFFFFFFFFFF AND EQ PUSH2 0x151 JUMPI PUSH8 0xFFFFFFFFFFFFFFFF DUP2 PUSH0 ADD PUSH0 PUSH2 0x100 EXP DUP2 SLOAD DUP2 PUSH8 0xFFFFFFFFFFFFFFFF MUL NOT AND SWAP1 DUP4 PUSH8 0xFFFFFFFFFFFFFFFF AND MUL OR SWAP1 SSTORE POP PUSH32 0xC7F505B2F371AE2175EE4913F4499E1F2633A7B5936321EED1CDAEB6115181D2 PUSH8 0xFFFFFFFFFFFFFFFF PUSH1 0x40 MLOAD PUSH2 0x148 SWAP2 SWAP1 PUSH2 0x1B8 JUMP JUMPDEST PUSH1 0x40 MLOAD DUP1 SWAP2 SUB SWAP1 LOG1 JUMPDEST POP JUMP JUMPDEST PUSH0 PUSH0 PUSH2 0x164 PUSH2 0x16D PUSH1 0x20 SHL PUSH1 0x20 SHR JUMP JUMPDEST SWAP1 POP DUP1 SWAP2 POP POP SWAP1 JUMP JUMPDEST PUSH0 PUSH32 0xF0C57E16840DF040F15088DC2F81FE391C3923BEC73E23A9662EFC9C229C6A00 PUSH0 SHL SWAP1 POP SWAP1 JUMP JUMPDEST PUSH0 PUSH8 0xFFFFFFFFFFFFFFFF DUP3 AND SWAP1 POP SWAP2 SWAP1 POP JUMP JUMPDEST PUSH2 0x1B2 DUP2 PUSH2 0x196 JUMP JUMPDEST DUP3 MSTORE POP POP JUMP JUMPDEST PUSH0 PUSH1 0x20 DUP3 ADD SWAP1 POP PUSH2 0x1CB PUSH0 DUP4 ADD DUP5 PUSH2 0x1A9 JUMP JUMPDEST SWAP3 SWAP2 POP POP JUMP JUMPDEST PUSH1 0x80 MLOAD PUSH2 0x120E PUSH2 0x1F7 PUSH0 CODECOPY PUSH0 DUP2 DUP2 PUSH2 0x518 ADD MSTORE DUP2 DUP2 PUSH2 0x56D ADD MSTORE PUSH2 0x727 ADD MSTORE PUSH2 0x120E PUSH0 RETURN INVALID PUSH1 0x80 PUSH1 0x40 MSTORE PUSH1 0x4 CALLDATASIZE LT PUSH2 0x85 JUMPI PUSH0 CALLDATALOAD PUSH1 0xE0 SHR DUP1 PUSH4 0x715018A6 GT PUSH2 0x58 JUMPI DUP1 PUSH4 0x715018A6 EQ PUSH2 0x10F JUMPI DUP1 PUSH4 0x8DA5CB5B EQ PUSH2 0x125 JUMPI DUP1 PUSH4 0xAD3CB1CC EQ PUSH2 0x14F JUMPI DUP1 PUSH4 0xC4D66DE8 EQ PUSH2 0x179 JUMPI DUP1 PUSH4 0xF2FDE38B EQ PUSH2 0x1A1 JUMPI PUSH2 0x85 JUMP JUMPDEST DUP1 PUSH4 0x20965255 EQ PUSH2 0x89 JUMPI DUP1 PUSH4 0x4F1EF286 EQ PUSH2 0xB3 JUMPI DUP1 PUSH4 0x4FA519FA EQ PUSH2 0xCF JUMPI DUP1 PUSH4 0x52D1902D EQ PUSH2 0xE5 JUMPI JUMPDEST PUSH0 PUSH0 REVERT JUMPDEST CALLVALUE DUP1 ISZERO PUSH2 0x94 JUMPI PUSH0 PUSH0 REVERT JUMPDEST POP PUSH2 0x9D PUSH2 0x1C9 JUMP JUMPDEST PUSH1 0x40 MLOAD PUSH2 0xAA SWAP2 SWAP1 PUSH2 0xD83 JUMP JUMPDEST PUSH1 0x40 MLOAD DUP1 SWAP2 SUB SWAP1 RETURN JUMPDEST PUSH2 0xCD PUSH1 0x4 DUP1 CALLDATASIZE SUB DUP2 ADD SWAP1 PUSH2 0xC8 SWAP2 SWAP1 PUSH2 0xF43 JUMP JUMPDEST PUSH2 0x1F3 JUMP JUMPDEST STOP JUMPDEST CALLVALUE DUP1 ISZERO PUSH2 0xDA JUMPI PUSH0 PUSH0 REVERT JUMPDEST POP PUSH2 0xE3 PUSH2 0x212 JUMP JUMPDEST STOP JUMPDEST CALLVALUE DUP1 ISZERO PUSH2 0xF0 JUMPI PUSH0 PUSH0 REVERT JUMPDEST POP PUSH2 0xF9 PUSH2 0x238 JUMP JUMPDEST PUSH1 0x40 MLOAD PUSH2 0x106 SWAP2 SWAP1 PUSH2 0xFB5 JUMP JUMPDEST PUSH1 0x40 MLOAD DUP1 SWAP2 SUB SWAP1 RETURN JUMPDEST CALLVALUE DUP1 ISZERO PUSH2 0x11A JUMPI PUSH0 PUSH0 REVERT JUMPDEST POP PUSH2 0x123 PUSH2 0x269 JUMP JUMPDEST STOP JUMPDEST CALLVALUE DUP1 ISZERO PUSH2 0x130 JUMPI PUSH0 PUSH0 REVERT JUMPDEST POP PUSH2 0x139 PUSH2 0x27C JUMP JUMPDEST PUSH1 0x40 MLOAD PUSH2 0x146 SWAP2 SWAP1 PUSH2 0xFDD JUMP JUMPDEST PUSH1 0x40 MLOAD DUP1 SWAP2 SUB SWAP1 RETURN JUMPDEST CALLVALUE DUP1 ISZERO PUSH2 0x15A JUMPI PUSH0 PUSH0 REVERT JUMPDEST POP PUSH2 0x163 PUSH2 0x2B1 JUMP JUMPDEST PUSH1 0x40 MLOAD PUSH2 0x170 SWAP2 SWAP1 PUSH2 0x1056 JUMP JUMPDEST PUSH1 0x40 MLOAD DUP1 SWAP2 SUB SWAP1 RETURN JUMPDEST CALLVALUE DUP1 ISZERO PUSH2 0x184 JUMPI PUSH0 PUSH0 REVERT JUMPDEST POP PUSH2 0x19F PUSH1 0x4 DUP1 CALLDATASIZE SUB DUP2 ADD SWAP1 PUSH2 0x19A SWAP2 SWAP1 PUSH2 0x1076 JUMP JUMPDEST PUSH2 0x2EA JUMP JUMPDEST STOP JUMPDEST CALLVALUE DUP1 ISZERO PUSH2 0x1AC JUMPI PUSH0 PUSH0 REVERT JUMPDEST POP PUSH2 0x1C7 PUSH1 0x4 DUP1 CALLDATASIZE SUB DUP2 ADD SWAP1 PUSH2 0x1C2 SWAP2 SWAP1 PUSH2 0x1076 JUMP JUMPDEST PUSH2 0x46B JUMP JUMPDEST STOP JUMPDEST PUSH0 PUSH0 PUSH2 0x1D3 PUSH2 0x4EF JUMP JUMPDEST PUSH1 0x40 MLOAD DUP1 PUSH1 0x20 ADD PUSH1 0x40 MSTORE SWAP1 DUP2 PUSH0 DUP3 ADD SLOAD DUP2 MSTORE POP POP SWAP1 POP DUP1 PUSH0 ADD MLOAD SWAP2 POP POP SWAP1 JUMP JUMPDEST PUSH2 0x1FB PUSH2 0x516 JUMP JUMPDEST PUSH2 0x204 DUP3 PUSH2 0x5FC JUMP JUMPDEST PUSH2 0x20E DUP3 DUP3 PUSH2 0x607 JUMP JUMPDEST POP POP JUMP JUMPDEST PUSH0 PUSH2 0x21B PUSH2 0x4EF JUMP JUMPDEST SWAP1 POP DUP1 PUSH0 ADD PUSH0 DUP2 SLOAD DUP1 SWAP3 SWAP2 SWAP1 PUSH2 0x230 SWAP1 PUSH2 0x10CE JUMP JUMPDEST SWAP2 SWAP1 POP SSTORE POP POP JUMP JUMPDEST PUSH0 PUSH2 0x241 PUSH2 0x725 JUMP JUMPDEST PUSH32 0x360894A13BA1A3210667C828492DB98DCA3E2076CC3735A920A3CA505D382BBC PUSH0 SHL SWAP1 POP SWAP1 JUMP JUMPDEST PUSH2 0x271 PUSH2 0x7AC JUMP JUMPDEST PUSH2 0x27A PUSH0 PUSH2 0x833 JUMP JUMPDEST JUMP JUMPDEST PUSH0 PUSH0 PUSH2 0x286 PUSH2 0x904 JUMP JUMPDEST SWAP1 POP DUP1 PUSH0 ADD PUSH0 SWAP1 SLOAD SWAP1 PUSH2 0x100 EXP SWAP1 DIV PUSH20 0xFFFFFFFFFFFFFFFFFFFFFFFFFFFFFFFFFFFFFFFF AND SWAP2 POP POP SWAP1 JUMP JUMPDEST PUSH1 0x40 MLOAD DUP1 PUSH1 0x40 ADD PUSH1 0x40 MSTORE DUP1 PUSH1 0x5 DUP2 MSTORE PUSH1 0x20 ADD PUSH32 0x352E302E30000000000000000000000000000000000000000000000000000000 DUP2 MSTORE POP DUP2 JUMP JUMPDEST PUSH0 PUSH2 0x2F3 PUSH2 0x92B JUMP JUMPDEST SWAP1 POP PUSH0 DUP2 PUSH0 ADD PUSH1 0x8 SWAP1 SLOAD SWAP1 PUSH2 0x100 EXP SWAP1 DIV PUSH1 0xFF AND ISZERO SWAP1 POP PUSH0 DUP3 PUSH0 ADD PUSH0 SWAP1 SLOAD SWAP1 PUSH2 0x100 EXP SWAP1 DIV PUSH8 0xFFFFFFFFFFFFFFFF AND SWAP1 POP PUSH0 PUSH0 DUP3 PUSH8 0xFFFFFFFFFFFFFFFF AND EQ DUP1 ISZERO PUSH2 0x33B JUMPI POP DUP3 JUMPDEST SWAP1 POP PUSH0 PUSH1 0x1 DUP4 PUSH8 0xFFFFFFFFFFFFFFFF AND EQ DUP1 ISZERO PUSH2 0x36E JUMPI POP PUSH0 ADDRESS PUSH20 0xFFFFFFFFFFFFFFFFFFFFFFFFFFFFFFFFFFFFFFFF AND EXTCODESIZE EQ JUMPDEST SWAP1 POP DUP2 ISZERO DUP1 ISZERO PUSH2 0x37C JUMPI POP DUP1 ISZERO JUMPDEST ISZERO PUSH2 0x3B3 JUMPI PUSH1 0x40 MLOAD PUSH32 0xF92EE8A900000000000000000000000000000000000000000000000000000000 DUP2 MSTORE PUSH1 0x4 ADD PUSH1 0x40 MLOAD DUP1 SWAP2 SUB SWAP1 REVERT JUMPDEST PUSH1 0x1 DUP6 PUSH0 ADD PUSH0 PUSH2 0x100 EXP DUP2 SLOAD DUP2 PUSH8 0xFFFFFFFFFFFFFFFF MUL NOT AND SWAP1 DUP4 PUSH8 0xFFFFFFFFFFFFFFFF AND MUL OR SWAP1 SSTORE POP DUP4 ISZERO PUSH2 0x400 JUMPI PUSH1 0x1 DUP6 PUSH0 ADD PUSH1 0x8 PUSH2 0x100 EXP DUP2 SLOAD DUP2 PUSH1 0xFF MUL NOT AND SWAP1 DUP4 ISZERO ISZERO MUL OR SWAP1 SSTORE POP JUMPDEST PUSH2 0x409 DUP7 PUSH2 0x93E JUMP JUMPDEST DUP4 ISZERO PUSH2 0x463 JUMPI PUSH0 DUP6 PUSH0 ADD PUSH1 0x8 PUSH2 0x100 EXP DUP2 SLOAD DUP2 PUSH1 0xFF MUL NOT AND SWAP1 DUP4 ISZERO ISZERO MUL OR SWAP1 SSTORE POP PUSH32 0xC7F505B2F371AE2175EE4913F4499E1F2633A7B5936321EED1CDAEB6115181D2 PUSH1 0x1 PUSH1 0x40 MLOAD PUSH2 0x45A SWAP2 SWAP1 PUSH2 0x116A JUMP JUMPDEST PUSH1 0x40 MLOAD DUP1 SWAP2 SUB SWAP1 LOG1 JUMPDEST POP POP POP POP POP POP JUMP JUMPDEST PUSH2 0x473 PUSH2 0x7AC JUMP JUMPDEST PUSH0 PUSH20 0xFFFFFFFFFFFFFFFFFFFFFFFFFFFFFFFFFFFFFFFF AND DUP2 PUSH20 0xFFFFFFFFFFFFFFFFFFFFFFFFFFFFFFFFFFFFFFFF AND SUB PUSH2 0x4E3 JUMPI PUSH0 PUSH1 0x40 MLOAD PUSH32 0x1E4FBDF700000000000000000000000000000000000000000000000000000000 DUP2 MSTORE PUSH1 0x4 ADD PUSH2 0x4DA SWAP2 SWAP1 PUSH2 0xFDD JUMP JUMPDEST PUSH1 0x40 MLOAD DUP1 SWAP2 SUB SWAP1 REVERT JUMPDEST PUSH2 0x4EC DUP2 PUSH2 0x833 JUMP JUMPDEST POP JUMP JUMPDEST PUSH0 PUSH32 0xFBB7C9E4123FCF4B1AAD53C70358F7B1C1D7CF28092F5178B53E55DB565E9200 SWAP1 POP SWAP1 JUMP JUMPDEST PUSH32 0x0 PUSH20 0xFFFFFFFFFFFFFFFFFFFFFFFFFFFFFFFFFFFFFFFF AND ADDRESS PUSH20 0xFFFFFFFFFFFFFFFFFFFFFFFFFFFFFFFFFFFFFFFF AND EQ DUP1 PUSH2 0x5C3 JUMPI POP PUSH32 0x0 PUSH20 0xFFFFFFFFFFFFFFFFFFFFFFFFFFFFFFFFFFFFFFFF AND PUSH2 0x5AA PUSH2 0x952 JUMP JUMPDEST PUSH20 0xFFFFFFFFFFFFFFFFFFFFFFFFFFFFFFFFFFFFFFFF AND EQ ISZERO JUMPDEST ISZERO PUSH2 0x5FA JUMPI PUSH1 0x40 MLOAD PUSH32 0xE07C8DBA00000000000000000000000000000000000000000000000000000000 DUP2 MSTORE PUSH1 0x4 ADD PUSH1 0x40 MLOAD DUP1 SWAP2 SUB SWAP1 REVERT JUMPDEST JUMP JUMPDEST PUSH2 0x604 PUSH2 0x7AC JUMP JUMPDEST POP JUMP JUMPDEST DUP2 PUSH20 0xFFFFFFFFFFFFFFFFFFFFFFFFFFFFFFFFFFFFFFFF AND PUSH4 0x52D1902D PUSH1 0x40 MLOAD DUP2 PUSH4 0xFFFFFFFF AND PUSH1 0xE0 SHL DUP2 MSTORE PUSH1 0x4 ADD PUSH1 0x20 PUSH1 0x40 MLOAD DUP1 DUP4 SUB DUP2 DUP7 GAS STATICCALL SWAP3 POP POP POP DUP1 ISZERO PUSH2 0x66F JUMPI POP PUSH1 0x40 MLOAD RETURNDATASIZE PUSH1 0x1F NOT PUSH1 0x1F DUP3 ADD AND DUP3 ADD DUP1 PUSH1 0x40 MSTORE POP DUP2 ADD SWAP1 PUSH2 0x66C SWAP2 SWAP1 PUSH2 0x11AD JUMP JUMPDEST PUSH1 0x1 JUMPDEST PUSH2 0x6B0 JUMPI DUP2 PUSH1 0x40 MLOAD PUSH32 0x4C9C8CE300000000000000000000000000000000000000000000000000000000 DUP2 MSTORE PUSH1 0x4 ADD PUSH2 0x6A7 SWAP2 SWAP1 PUSH2 0xFDD JUMP JUMPDEST PUSH1 0x40 MLOAD DUP1 SWAP2 SUB SWAP1 REVERT JUMPDEST PUSH32 0x360894A13BA1A3210667C828492DB98DCA3E2076CC3735A920A3CA505D382BBC PUSH0 SHL DUP2 EQ PUSH2 0x716 JUMPI DUP1 PUSH1 0x40 MLOAD PUSH32 0xAA1D49A400000000000000000000000000000000000000000000000000000000 DUP2 MSTORE PUSH1 0x4 ADD PUSH2 0x70D SWAP2 SWAP1 PUSH2 0xFB5 JUMP JUMPDEST PUSH1 0x40 MLOAD DUP1 SWAP2 SUB SWAP1 REVERT JUMPDEST PUSH2 0x720 DUP4 DUP4 PUSH2 0x9A5 JUMP JUMPDEST POP POP POP JUMP JUMPDEST PUSH32 0x0 PUSH20 0xFFFFFFFFFFFFFFFFFFFFFFFFFFFFFFFFFFFFFFFF AND ADDRESS PUSH20 0xFFFFFFFFFFFFFFFFFFFFFFFFFFFFFFFFFFFFFFFF AND EQ PUSH2 0x7AA JUMPI PUSH1 0x40 MLOAD PUSH32 0xE07C8DBA00000000000000000000000000000000000000000000000000000000 DUP2 MSTORE PUSH1 0x4 ADD PUSH1 0x40 MLOAD DUP1 SWAP2 SUB SWAP1 REVERT JUMPDEST JUMP JUMPDEST PUSH2 0x7B4 PUSH2 0xA17 JUMP JUMPDEST PUSH20 0xFFFFFFFFFFFFFFFFFFFFFFFFFFFFFFFFFFFFFFFF AND PUSH2 0x7D2 PUSH2 0x27C JUMP JUMPDEST PUSH20 0xFFFFFFFFFFFFFFFFFFFFFFFFFFFFFFFFFFFFFFFF AND EQ PUSH2 0x831 JUMPI PUSH2 0x7F5 PUSH2 0xA17 JUMP JUMPDEST PUSH1 0x40 MLOAD PUSH32 0x118CDAA700000000000000000000000000000000000000000000000000000000 DUP2 MSTORE PUSH1 0x4 ADD PUSH2 0x828 SWAP2 SWAP1 PUSH2 0xFDD JUMP JUMPDEST PUSH1 0x40 MLOAD DUP1 SWAP2 SUB SWAP1 REVERT JUMPDEST JUMP JUMPDEST PUSH0 PUSH2 0x83C PUSH2 0x904 JUMP JUMPDEST SWAP1 POP PUSH0 DUP2 PUSH0 ADD PUSH0 SWAP1 SLOAD SWAP1 PUSH2 0x100 EXP SWAP1 DIV PUSH20 0xFFFFFFFFFFFFFFFFFFFFFFFFFFFFFFFFFFFFFFFF AND SWAP1 POP DUP3 DUP3 PUSH0 ADD PUSH0 PUSH2 0x100 EXP DUP2 SLOAD DUP2 PUSH20 0xFFFFFFFFFFFFFFFFFFFFFFFFFFFFFFFFFFFFFFFF MUL NOT AND SWAP1 DUP4 PUSH20 0xFFFFFFFFFFFFFFFFFFFFFFFFFFFFFFFFFFFFFFFF AND MUL OR SWAP1 SSTORE POP DUP3 PUSH20 0xFFFFFFFFFFFFFFFFFFFFFFFFFFFFFFFFFFFFFFFF AND DUP2 PUSH20 0xFFFFFFFFFFFFFFFFFFFFFFFFFFFFFFFFFFFFFFFF AND PUSH32 0x8BE0079C531659141344CD1FD0A4F28419497F9722A3DAAFE3B4186F6B6457E0 PUSH1 0x40 MLOAD PUSH1 0x40 MLOAD DUP1 SWAP2 SUB SWAP1 LOG3 POP POP POP JUMP JUMPDEST PUSH0 PUSH32 0x9016D09D72D40FDAE2FD8CEAC6B6234C7706214FD39C1CD1E609A0528C199300 SWAP1 POP SWAP1 JUMP JUMPDEST PUSH0 PUSH0 PUSH2 0x935 PUSH2 0xA1E JUMP JUMPDEST SWAP1 POP DUP1 SWAP2 POP POP SWAP1 JUMP JUMPDEST PUSH2 0x946 PUSH2 0xA47 JUMP JUMPDEST PUSH2 0x94F DUP2 PUSH2 0xA87 JUMP JUMPDEST POP JUMP JUMPDEST PUSH0 PUSH2 0x97E PUSH32 0x360894A13BA1A3210667C828492DB98DCA3E2076CC3735A920A3CA505D382BBC PUSH0 SHL PUSH2 0xB0B JUMP JUMPDEST PUSH0 ADD PUSH0 SWAP1 SLOAD SWAP1 PUSH2 0x100 EXP SWAP1 DIV PUSH20 0xFFFFFFFFFFFFFFFFFFFFFFFFFFFFFFFFFFFFFFFF AND SWAP1 POP SWAP1 JUMP JUMPDEST PUSH2 0x9AE DUP3 PUSH2 0xB14 JUMP JUMPDEST DUP2 PUSH20 0xFFFFFFFFFFFFFFFFFFFFFFFFFFFFFFFFFFFFFFFF AND PUSH32 0xBC7CD75A20EE27FD9ADEBAB32041F755214DBC6BFFA90CC0225B39DA2E5C2D3B PUSH1 0x40 MLOAD PUSH1 0x40 MLOAD DUP1 SWAP2 SUB SWAP1 LOG2 PUSH0 DUP2 MLOAD GT ISZERO PUSH2 0xA0A JUMPI PUSH2 0xA04 DUP3 DUP3 PUSH2 0xBDD JUMP JUMPDEST POP PUSH2 0xA13 JUMP JUMPDEST PUSH2 0xA12 PUSH2 0xCCE JUMP JUMPDEST JUMPDEST POP POP JUMP JUMPDEST PUSH0 CALLER SWAP1 POP SWAP1 JUMP JUMPDEST PUSH0 PUSH32 0xF0C57E16840DF040F15088DC2F81FE391C3923BEC73E23A9662EFC9C229C6A00 PUSH0 SHL SWAP1 POP SWAP1 JUMP JUMPDEST PUSH2 0xA4F PUSH2 0xD0A JUMP JUMPDEST PUSH2 0xA85 JUMPI PUSH1 0x40 MLOAD PUSH32 0xD7E6BCF800000000000000000000000000000000000000000000000000000000 DUP2 MSTORE PUSH1 0x4 ADD PUSH1 0x40 MLOAD DUP1 SWAP2 SUB SWAP1 REVERT JUMPDEST JUMP JUMPDEST PUSH2 0xA8F PUSH2 0xA47 JUMP JUMPDEST PUSH0 PUSH20 0xFFFFFFFFFFFFFFFFFFFFFFFFFFFFFFFFFFFFFFFF AND DUP2 PUSH20 0xFFFFFFFFFFFFFFFFFFFFFFFFFFFFFFFFFFFFFFFF AND SUB PUSH2 0xAFF JUMPI PUSH0 PUSH1 0x40 MLOAD PUSH32 0x1E4FBDF700000000000000000000000000000000000000000000000000000000 DUP2 MSTORE PUSH1 0x4 ADD PUSH2 0xAF6 SWAP2 SWAP1 PUSH2 0xFDD JUMP JUMPDEST PUSH1 0x40 MLOAD DUP1 SWAP2 SUB SWAP1 REVERT JUMPDEST PUSH2 0xB08 DUP2 PUSH2 0x833 JUMP JUMPDEST POP JUMP JUMPDEST PUSH0 DUP2 SWAP1 POP SWAP2 SWAP1 POP JUMP JUMPDEST PUSH0 DUP2 PUSH20 0xFFFFFFFFFFFFFFFFFFFFFFFFFFFFFFFFFFFFFFFF AND EXTCODESIZE SUB PUSH2 0xB6F JUMPI DUP1 PUSH1 0x40 MLOAD PUSH32 0x4C9C8CE300000000000000000000000000000000000000000000000000000000 DUP2 MSTORE PUSH1 0x4 ADD PUSH2 0xB66 SWAP2 SWAP1 PUSH2 0xFDD JUMP JUMPDEST PUSH1 0x40 MLOAD DUP1 SWAP2 SUB SWAP1 REVERT JUMPDEST DUP1 PUSH2 0xB9B PUSH32 0x360894A13BA1A3210667C828492DB98DCA3E2076CC3735A920A3CA505D382BBC PUSH0 SHL PUSH2 0xB0B JUMP JUMPDEST PUSH0 ADD PUSH0 PUSH2 0x100 EXP DUP2 SLOAD DUP2 PUSH20 0xFFFFFFFFFFFFFFFFFFFFFFFFFFFFFFFFFFFFFFFF MUL NOT AND SWAP1 DUP4 PUSH20 0xFFFFFFFFFFFFFFFFFFFFFFFFFFFFFFFFFFFFFFFF AND MUL OR SWAP1 SSTORE POP POP JUMP JUMPDEST PUSH1 0x60 PUSH0 PUSH2 0xBEA DUP5 DUP5 PUSH2 0xD28 JUMP JUMPDEST SWAP1 POP DUP1 DUP1 ISZERO PUSH2 0xC20 JUMPI POP PUSH0 PUSH2 0xBFD PUSH2 0xD3C JUMP JUMPDEST GT DUP1 PUSH2 0xC1F JUMPI POP PUSH0 DUP5 PUSH20 0xFFFFFFFFFFFFFFFFFFFFFFFFFFFFFFFFFFFFFFFF AND EXTCODESIZE GT JUMPDEST JUMPDEST ISZERO PUSH2 0xC35 JUMPI PUSH2 0xC2D PUSH2 0xD43 JUMP JUMPDEST SWAP2 POP POP PUSH2 0xCC8 JUMP JUMPDEST DUP1 ISZERO PUSH2 0xC78 JUMPI DUP4 PUSH1 0x40 MLOAD PUSH32 0x9996B31500000000000000000000000000000000000000000000000000000000 DUP2 MSTORE PUSH1 0x4 ADD PUSH2 0xC6F SWAP2 SWAP1 PUSH2 0xFDD JUMP JUMPDEST PUSH1 0x40 MLOAD DUP1 SWAP2 SUB SWAP1 REVERT JUMPDEST PUSH0 PUSH2 0xC81 PUSH2 0xD3C JUMP JUMPDEST GT ISZERO PUSH2 0xC94 JUMPI PUSH2 0xC8F PUSH2 0xD60 JUMP JUMPDEST PUSH2 0xCC6 JUMP JUMPDEST PUSH1 0x40 MLOAD PUSH32 0xD6BDA27500000000000000000000000000000000000000000000000000000000 DUP2 MSTORE PUSH1 0x4 ADD PUSH1 0x40 MLOAD DUP1 SWAP2 SUB SWAP1 REVERT JUMPDEST POP JUMPDEST SWAP3 SWAP2 POP POP JUMP JUMPDEST PUSH0 CALLVALUE GT ISZERO PUSH2 0xD08 JUMPI PUSH1 0x40 MLOAD PUSH32 0xB398979F00000000000000000000000000000000000000000000000000000000 DUP2 MSTORE PUSH1 0x4 ADD PUSH1 0x40 MLOAD DUP1 SWAP2 SUB SWAP1 REVERT JUMPDEST JUMP JUMPDEST PUSH0 PUSH2 0xD13 PUSH2 0x92B JUMP JUMPDEST PUSH0 ADD PUSH1 0x8 SWAP1 SLOAD SWAP1 PUSH2 0x100 EXP SWAP1 DIV PUSH1 0xFF AND SWAP1 POP SWAP1 JUMP JUMPDEST PUSH0 PUSH0 PUSH0 DUP4 MLOAD PUSH1 0x20 DUP6 ADD DUP7 GAS DELEGATECALL SWAP1 POP SWAP3 SWAP2 POP POP JUMP JUMPDEST PUSH0 RETURNDATASIZE SWAP1 POP SWAP1 JUMP JUMPDEST PUSH1 0x60 PUSH1 0x40 MLOAD SWAP1 POP RETURNDATASIZE DUP2 MSTORE RETURNDATASIZE PUSH0 PUSH1 0x20 DUP4 ADD RETURNDATACOPY RETURNDATASIZE PUSH1 0x20 ADD DUP2 ADD PUSH1 0x40 MSTORE SWAP1 JUMP JUMPDEST PUSH1 0x40 MLOAD RETURNDATASIZE PUSH0 DUP3 RETURNDATACOPY RETURNDATASIZE DUP2 REVERT JUMPDEST PUSH0 DUP2 SWAP1 POP SWAP2 SWAP1 POP JUMP JUMPDEST PUSH2 0xD7D DUP2 PUSH2 0xD6B JUMP JUMPDEST DUP3 MSTORE POP POP JUMP JUMPDEST PUSH0 PUSH1 0x20 DUP3 ADD SWAP1 POP PUSH2 0xD96 PUSH0 DUP4 ADD DUP5 PUSH2 0xD74 JUMP JUMPDEST SWAP3 SWAP2 POP POP JUMP JUMPDEST PUSH0 PUSH1 0x40 MLOAD SWAP1 POP SWAP1 JUMP JUMPDEST PUSH0 PUSH0 REVERT JUMPDEST PUSH0 PUSH0 REVERT JUMPDEST PUSH0 PUSH20 0xFFFFFFFFFFFFFFFFFFFFFFFFFFFFFFFFFFFFFFFF DUP3 AND SWAP1 POP SWAP2 SWAP1 POP JUMP JUMPDEST PUSH0 PUSH2 0xDD6 DUP3 PUSH2 0xDAD JUMP JUMPDEST SWAP1 POP SWAP2 SWAP1 POP JUMP JUMPDEST PUSH2 0xDE6 DUP2 PUSH2 0xDCC JUMP JUMPDEST DUP2 EQ PUSH2 0xDF0 JUMPI PUSH0 PUSH0 REVERT JUMPDEST POP JUMP JUMPDEST PUSH0 DUP2 CALLDATALOAD SWAP1 POP PUSH2 0xE01 DUP2 PUSH2 0xDDD JUMP JUMPDEST SWAP3 SWAP2 POP POP JUMP JUMPDEST PUSH0 PUSH0 REVERT JUMPDEST PUSH0 PUSH0 REVERT JUMPDEST PUSH0 PUSH1 0x1F NOT PUSH1 0x1F DUP4 ADD AND SWAP1 POP SWAP2 SWAP1 POP JUMP JUMPDEST PUSH32 0x4E487B7100000000000000000000000000000000000000000000000000000000 PUSH0 MSTORE PUSH1 0x41 PUSH1 0x4 MSTORE PUSH1 0x24 PUSH0 REVERT JUMPDEST PUSH2 0xE55 DUP3 PUSH2 0xE0F JUMP JUMPDEST DUP2 ADD DUP2 DUP2 LT PUSH8 0xFFFFFFFFFFFFFFFF DUP3 GT OR ISZERO PUSH2 0xE74 JUMPI PUSH2 0xE73 PUSH2 0xE1F JUMP JUMPDEST JUMPDEST DUP1 PUSH1 0x40 MSTORE POP POP POP JUMP JUMPDEST PUSH0 PUSH2 0xE86 PUSH2 0xD9C JUMP JUMPDEST SWAP1 POP PUSH2 0xE92 DUP3 DUP3 PUSH2 0xE4C JUMP JUMPDEST SWAP2 SWAP1 POP JUMP JUMPDEST PUSH0 PUSH8 0xFFFFFFFFFFFFFFFF DUP3 GT ISZERO PUSH2 0xEB1 JUMPI PUSH2 0xEB0 PUSH2 0xE1F JUMP JUMPDEST JUMPDEST PUSH2 0xEBA DUP3 PUSH2 0xE0F JUMP JUMPDEST SWAP1 POP PUSH1 0x20 DUP2 ADD SWAP1 POP SWAP2 SWAP1 POP JUMP JUMPDEST DUP3 DUP2 DUP4 CALLDATACOPY PUSH0 DUP4 DUP4 ADD MSTORE POP POP POP JUMP JUMPDEST PUSH0 PUSH2 0xEE7 PUSH2 0xEE2 DUP5 PUSH2 0xE97 JUMP JUMPDEST PUSH2 0xE7D JUMP JUMPDEST SWAP1 POP DUP3 DUP2 MSTORE PUSH1 0x20 DUP2 ADD DUP5 DUP5 DUP5 ADD GT ISZERO PUSH2 0xF03 JUMPI PUSH2 0xF02 PUSH2 0xE0B JUMP JUMPDEST JUMPDEST PUSH2 0xF0E DUP5 DUP3 DUP6 PUSH2 0xEC7 JUMP JUMPDEST POP SWAP4 SWAP3 POP POP POP JUMP JUMPDEST PUSH0 DUP3 PUSH1 0x1F DUP4 ADD SLT PUSH2 0xF2A JUMPI PUSH2 0xF29 PUSH2 0xE07 JUMP JUMPDEST JUMPDEST DUP2 CALLDATALOAD PUSH2 0xF3A DUP5 DUP3 PUSH1 0x20 DUP7 ADD PUSH2 0xED5 JUMP JUMPDEST SWAP2 POP POP SWAP3 SWAP2 POP POP JUMP JUMPDEST PUSH0 PUSH0 PUSH1 0x40 DUP4 DUP6 SUB SLT ISZERO PUSH2 0xF59 JUMPI PUSH2 0xF58 PUSH2 0xDA5 JUMP JUMPDEST JUMPDEST PUSH0 PUSH2 0xF66 DUP6 DUP3 DUP7 ADD PUSH2 0xDF3 JUMP JUMPDEST SWAP3 POP POP PUSH1 0x20 DUP4 ADD CALLDATALOAD PUSH8 0xFFFFFFFFFFFFFFFF DUP2 GT ISZERO PUSH2 0xF87 JUMPI PUSH2 0xF86 PUSH2 0xDA9 JUMP JUMPDEST JUMPDEST PUSH2 0xF93 DUP6 DUP3 DUP7 ADD PUSH2 0xF16 JUMP JUMPDEST SWAP2 POP POP SWAP3 POP SWAP3 SWAP1 POP JUMP JUMPDEST PUSH0 DUP2 SWAP1 POP SWAP2 SWAP1 POP JUMP JUMPDEST PUSH2 0xFAF DUP2 PUSH2 0xF9D JUMP JUMPDEST DUP3 MSTORE POP POP JUMP JUMPDEST PUSH0 PUSH1 0x20 DUP3 ADD SWAP1 POP PUSH2 0xFC8 PUSH0 DUP4 ADD DUP5 PUSH2 0xFA6 JUMP JUMPDEST SWAP3 SWAP2 POP POP JUMP JUMPDEST PUSH2 0xFD7 DUP2 PUSH2 0xDCC JUMP JUMPDEST DUP3 MSTORE POP POP JUMP JUMPDEST PUSH0 PUSH1 0x20 DUP3 ADD SWAP1 POP PUSH2 0xFF0 PUSH0 DUP4 ADD DUP5 PUSH2 0xFCE JUMP JUMPDEST SWAP3 SWAP2 POP POP JUMP JUMPDEST PUSH0 DUP2 MLOAD SWAP1 POP SWAP2 SWAP1 POP JUMP JUMPDEST PUSH0 DUP3 DUP3 MSTORE PUSH1 0x20 DUP3 ADD SWAP1 POP SWAP3 SWAP2 POP POP JUMP JUMPDEST DUP3 DUP2 DUP4 MCOPY PUSH0 DUP4 DUP4 ADD MSTORE POP POP POP JUMP JUMPDEST PUSH0 PUSH2 0x1028 DUP3 PUSH2 0xFF6 JUMP JUMPDEST PUSH2 0x1032 DUP2 DUP6 PUSH2 0x1000 JUMP JUMPDEST SWAP4 POP PUSH2 0x1042 DUP2 DUP6 PUSH1 0x20 DUP7 ADD PUSH2 0x1010 JUMP JUMPDEST PUSH2 0x104B DUP2 PUSH2 0xE0F JUMP JUMPDEST DUP5 ADD SWAP2 POP POP SWAP3 SWAP2 POP POP JUMP JUMPDEST PUSH0 PUSH1 0x20 DUP3 ADD SWAP1 POP DUP2 DUP2 SUB PUSH0 DUP4 ADD MSTORE PUSH2 0x106E DUP2 DUP5 PUSH2 0x101E JUMP JUMPDEST SWAP1 POP SWAP3 SWAP2 POP POP JUMP JUMPDEST PUSH0 PUSH1 0x20 DUP3 DUP5 SUB SLT ISZERO PUSH2 0x108B JUMPI PUSH2 0x108A PUSH2 0xDA5 JUMP JUMPDEST JUMPDEST PUSH0 PUSH2 0x1098 DUP5 DUP3 DUP6 ADD PUSH2 0xDF3 JUMP JUMPDEST SWAP2 POP POP SWAP3 SWAP2 POP POP JUMP JUMPDEST PUSH32 0x4E487B7100000000000000000000000000000000000000000000000000000000 PUSH0 MSTORE PUSH1 0x11 PUSH1 0x4 MSTORE PUSH1 0x24 PUSH0 REVERT JUMPDEST PUSH0 PUSH2 0x10D8 DUP3 PUSH2 0xD6B JUMP JUMPDEST SWAP2 POP PUSH32 0xFFFFFFFFFFFFFFFFFFFFFFFFFFFFFFFFFFFFFFFFFFFFFFFFFFFFFFFFFFFFFFFF DUP3 SUB PUSH2 0x110A JUMPI PUSH2 0x1109 PUSH2 0x10A1 JUMP JUMPDEST JUMPDEST PUSH1 0x1 DUP3 ADD SWAP1 POP SWAP2 SWAP1 POP JUMP JUMPDEST PUSH0 DUP2 SWAP1 POP SWAP2 SWAP1 POP JUMP JUMPDEST PUSH0 PUSH8 0xFFFFFFFFFFFFFFFF DUP3 AND SWAP1 POP SWAP2 SWAP1 POP JUMP JUMPDEST PUSH0 DUP2 SWAP1 POP SWAP2 SWAP1 POP JUMP JUMPDEST PUSH0 PUSH2 0x1154 PUSH2 0x114F PUSH2 0x114A DUP5 PUSH2 0x1115 JUMP JUMPDEST PUSH2 0x1131 JUMP JUMPDEST PUSH2 0x111E JUMP JUMPDEST SWAP1 POP SWAP2 SWAP1 POP JUMP JUMPDEST PUSH2 0x1164 DUP2 PUSH2 0x113A JUMP JUMPDEST DUP3 MSTORE POP POP JUMP JUMPDEST PUSH0 PUSH1 0x20 DUP3 ADD SWAP1 POP PUSH2 0x117D PUSH0 DUP4 ADD DUP5 PUSH2 0x115B JUMP JUMPDEST SWAP3 SWAP2 POP POP JUMP JUMPDEST PUSH2 0x118C DUP2 PUSH2 0xF9D JUMP JUMPDEST DUP2 EQ PUSH2 0x1196 JUMPI PUSH0 PUSH0 REVERT JUMPDEST POP JUMP JUMPDEST PUSH0 DUP2 MLOAD SWAP1 POP PUSH2 0x11A7 DUP2 PUSH2 0x1183 JUMP JUMPDEST SWAP3 SWAP2 POP POP JUMP JUMPDEST PUSH0 PUSH1 0x20 DUP3 DUP5 SUB SLT ISZERO PUSH2 0x11C2 JUMPI PUSH2 0x11C1 PUSH2 0xDA5 JUMP JUMPDEST JUMPDEST PUSH0 PUSH2 0x11CF DUP5 DUP3 DUP6 ADD PUSH2 0x1199 JUMP JUMPDEST SWAP2 POP POP SWAP3 SWAP2 POP POP JUMP INVALID LOG2 PUSH5 0x6970667358 0x22 SLT KECCAK256 BALANCE PUSH19 0xF54DF861247DC924E24B17A04E250EA2E3BD0 SHR 0xA5 0xE8 0xCC PC CHAINID PUSH12 0xF1CC0AD564736F6C63430008 0x1E STOP CALLER "
				},
				"gasEstimates": {
					"creation": {
						"codeDepositCost": "924400",
						"executionCost": "infinite",
						"totalCost": "infinite"
					},
					"external": {
						"UPGRADE_INTERFACE_VERSION()": "infinite",
						"getValue()": "2535",
						"initialize(address)": "infinite",
						"owner()": "2588",
						"proxiableUUID()": "infinite",
						"renounceOwnership()": "infinite",
						"setValue()": "24593",
						"transferOwnership(address)": "infinite",
						"upgradeToAndCall(address,bytes)": "infinite"
					},
					"internal": {
						"_authorizeUpgrade(address)": "infinite",
						"_getMyTokenStorage()": "22"
					}
				},
				"methodIdentifiers": {
					"UPGRADE_INTERFACE_VERSION()": "ad3cb1cc",
					"getValue()": "20965255",
					"initialize(address)": "c4d66de8",
					"owner()": "8da5cb5b",
					"proxiableUUID()": "52d1902d",
					"renounceOwnership()": "715018a6",
					"setValue()": "4fa519fa",
					"transferOwnership(address)": "f2fde38b",
					"upgradeToAndCall(address,bytes)": "4f1ef286"
				}
			},
			"storageLayout": {
				"storage": [],
				"types": null
			},
			"userdoc": {
				"kind": "user",
				"methods": {},
				"version": 1
			}
		}
	}
}