{
	"testExample.sol": {
		"sampleContract": {
			"abi": [
				{
					"inputs": [],
					"name": "getValue",
					"outputs": [
						{
							"internalType": "uint256",
							"name": "",
							"type": "uint256"
						}
					],
					"stateMutability": "view",
					"type": "function"
				},
				{
					"inputs": [
						{
							"internalType": "uint256",
							"name": "_value",
							"type": "uint256"
						}
					],
					"name": "setValue",
					"outputs": [],
					"stateMutability": "nonpayable",
					"type": "function"
				}
			],
			"devdoc": {
				"kind": "dev",
				"methods": {},
				"version": 1
			},
			"evm": {
				"assembly": "    /* \"testExample.sol\":82:331  contract sampleContract {\r... */\n  mstore(0x40, 0x80)\n    /* \"testExample.sol\":130:133  100 */\n  0x64\n    /* \"testExample.sol\":113:133  uint256 number = 100 */\n  0x00\n  sstore\n    /* \"testExample.sol\":82:331  contract sampleContract {\r... */\n  callvalue\n  dup1\n  iszero\n  tag_1\n  jumpi\n  0x00\n  dup1\n  revert\ntag_1:\n  pop\n  dataSize(sub_0)\n  dup1\n  dataOffset(sub_0)\n  0x00\n  codecopy\n  0x00\n  return\nstop\n\nsub_0: assembly {\n        /* \"testExample.sol\":82:331  contract sampleContract {\r... */\n      mstore(0x40, 0x80)\n      callvalue\n      dup1\n      iszero\n      tag_1\n      jumpi\n      0x00\n      dup1\n      revert\n    tag_1:\n      pop\n      jumpi(tag_2, lt(calldatasize, 0x04))\n      shr(0xe0, calldataload(0x00))\n      dup1\n      0x20965255\n      eq\n      tag_3\n      jumpi\n      dup1\n      0x55241077\n      eq\n      tag_4\n      jumpi\n    tag_2:\n      0x00\n      dup1\n      revert\n        /* \"testExample.sol\":142:222  function getValue() public view returns(uint256){\r... */\n    tag_3:\n      tag_5\n      tag_6\n      jump\t// in\n    tag_5:\n      mload(0x40)\n      tag_7\n      swap2\n      swap1\n      tag_8\n      jump\t// in\n    tag_7:\n      mload(0x40)\n      dup1\n      swap2\n      sub\n      swap1\n      return\n        /* \"testExample.sol\":230:328  function setValue(uint256 _value)public {\r... */\n    tag_4:\n      tag_9\n      0x04\n      dup1\n      calldatasize\n      sub\n      dup2\n      add\n      swap1\n      tag_10\n      swap2\n      swap1\n      tag_11\n      jump\t// in\n    tag_10:\n      tag_12\n      jump\t// in\n    tag_9:\n      stop\n        /* \"testExample.sol\":142:222  function getValue() public view returns(uint256){\r... */\n    tag_6:\n        /* \"testExample.sol\":182:189  uint256 */\n      0x00\n        /* \"testExample.sol\":208:214  number */\n      dup1\n      sload\n        /* \"testExample.sol\":201:214  return number */\n      swap1\n      pop\n        /* \"testExample.sol\":142:222  function getValue() public view returns(uint256){\r... */\n      swap1\n      jump\t// out\n        /* \"testExample.sol\":230:328  function setValue(uint256 _value)public {\r... */\n    tag_12:\n        /* \"testExample.sol\":289:295  number */\n      sload(0x00)\n        /* \"testExample.sol\":281:287  number */\n      0x00\n      dup1\n        /* \"testExample.sol\":281:295  number-=number */\n      dup3\n      dup3\n      sload\n      tag_15\n      swap2\n      swap1\n      tag_16\n      jump\t// in\n    tag_15:\n      swap3\n      pop\n      pop\n      dup2\n      swap1\n      sstore\n      pop\n        /* \"testExample.sol\":314:320  _value */\n      dup1\n        /* \"testExample.sol\":306:312  number */\n      0x00\n        /* \"testExample.sol\":306:320  number= _value */\n      dup2\n      swap1\n      sstore\n      pop\n        /* \"testExample.sol\":230:328  function setValue(uint256 _value)public {\r... */\n      pop\n      jump\t// out\n        /* \"#utility.yul\":7:146   */\n    tag_18:\n      0x00\n        /* \"#utility.yul\":91:97   */\n      dup2\n        /* \"#utility.yul\":78:98   */\n      calldataload\n        /* \"#utility.yul\":69:98   */\n      swap1\n      pop\n        /* \"#utility.yul\":107:140   */\n      tag_20\n        /* \"#utility.yul\":134:139   */\n      dup2\n        /* \"#utility.yul\":107:140   */\n      tag_21\n      jump\t// in\n    tag_20:\n        /* \"#utility.yul\":59:146   */\n      swap3\n      swap2\n      pop\n      pop\n      jump\t// out\n        /* \"#utility.yul\":152:414   */\n    tag_11:\n      0x00\n        /* \"#utility.yul\":260:262   */\n      0x20\n        /* \"#utility.yul\":248:257   */\n      dup3\n        /* \"#utility.yul\":239:246   */\n      dup5\n        /* \"#utility.yul\":235:258   */\n      sub\n        /* \"#utility.yul\":231:263   */\n      slt\n        /* \"#utility.yul\":228:230   */\n      iszero\n      tag_23\n      jumpi\n        /* \"#utility.yul\":276:277   */\n      0x00\n        /* \"#utility.yul\":273:274   */\n      dup1\n        /* \"#utility.yul\":266:278   */\n      revert\n        /* \"#utility.yul\":228:230   */\n    tag_23:\n        /* \"#utility.yul\":319:320   */\n      0x00\n        /* \"#utility.yul\":344:397   */\n      tag_24\n        /* \"#utility.yul\":389:396   */\n      dup5\n        /* \"#utility.yul\":380:386   */\n      dup3\n        /* \"#utility.yul\":369:378   */\n      dup6\n        /* \"#utility.yul\":365:387   */\n      add\n        /* \"#utility.yul\":344:397   */\n      tag_18\n      jump\t// in\n    tag_24:\n        /* \"#utility.yul\":334:397   */\n      swap2\n      pop\n        /* \"#utility.yul\":290:407   */\n      pop\n        /* \"#utility.yul\":218:414   */\n      swap3\n      swap2\n      pop\n      pop\n      jump\t// out\n        /* \"#utility.yul\":420:538   */\n    tag_25:\n        /* \"#utility.yul\":507:531   */\n      tag_27\n        /* \"#utility.yul\":525:530   */\n      dup2\n        /* \"#utility.yul\":507:531   */\n      tag_28\n      jump\t// in\n    tag_27:\n        /* \"#utility.yul\":502:505   */\n      dup3\n        /* \"#utility.yul\":495:532   */\n      mstore\n        /* \"#utility.yul\":485:538   */\n      pop\n      pop\n      jump\t// out\n        /* \"#utility.yul\":544:766   */\n    tag_8:\n      0x00\n        /* \"#utility.yul\":675:677   */\n      0x20\n        /* \"#utility.yul\":664:673   */\n      dup3\n        /* \"#utility.yul\":660:678   */\n      add\n        /* \"#utility.yul\":652:678   */\n      swap1\n      pop\n        /* \"#utility.yul\":688:759   */\n      tag_30\n        /* \"#utility.yul\":756:757   */\n      0x00\n        /* \"#utility.yul\":745:754   */\n      dup4\n        /* \"#utility.yul\":741:758   */\n      add\n        /* \"#utility.yul\":732:738   */\n      dup5\n        /* \"#utility.yul\":688:759   */\n      tag_25\n      jump\t// in\n    tag_30:\n        /* \"#utility.yul\":642:766   */\n      swap3\n      swap2\n      pop\n      pop\n      jump\t// out\n        /* \"#utility.yul\":772:963   */\n    tag_16:\n      0x00\n        /* \"#utility.yul\":832:852   */\n      tag_32\n        /* \"#utility.yul\":850:851   */\n      dup3\n        /* \"#utility.yul\":832:852   */\n      tag_28\n      jump\t// in\n    tag_32:\n        /* \"#utility.yul\":827:852   */\n      swap2\n      pop\n        /* \"#utility.yul\":866:886   */\n      tag_33\n        /* \"#utility.yul\":884:885   */\n      dup4\n        /* \"#utility.yul\":866:886   */\n      tag_28\n      jump\t// in\n    tag_33:\n        /* \"#utility.yul\":861:886   */\n      swap3\n      pop\n        /* \"#utility.yul\":905:906   */\n      dup3\n        /* \"#utility.yul\":902:903   */\n      dup3\n        /* \"#utility.yul\":899:907   */\n      lt\n        /* \"#utility.yul\":896:898   */\n      iszero\n      tag_34\n      jumpi\n        /* \"#utility.yul\":910:928   */\n      tag_35\n      tag_36\n      jump\t// in\n    tag_35:\n        /* \"#utility.yul\":896:898   */\n    tag_34:\n        /* \"#utility.yul\":955:956   */\n      dup3\n        /* \"#utility.yul\":952:953   */\n      dup3\n        /* \"#utility.yul\":948:957   */\n      sub\n        /* \"#utility.yul\":940:957   */\n      swap1\n      pop\n        /* \"#utility.yul\":817:963   */\n      swap3\n      swap2\n      pop\n      pop\n      jump\t// out\n        /* \"#utility.yul\":969:1046   */\n    tag_28:\n      0x00\n        /* \"#utility.yul\":1035:1040   */\n      dup2\n        /* \"#utility.yul\":1024:1040   */\n      swap1\n      pop\n        /* \"#utility.yul\":1014:1046   */\n      swap2\n      swap1\n      pop\n      jump\t// out\n        /* \"#utility.yul\":1052:1232   */\n    tag_36:\n        /* \"#utility.yul\":1100:1177   */\n      0x4e487b7100000000000000000000000000000000000000000000000000000000\n        /* \"#utility.yul\":1097:1098   */\n      0x00\n        /* \"#utility.yul\":1090:1178   */\n      mstore\n        /* \"#utility.yul\":1197:1201   */\n      0x11\n        /* \"#utility.yul\":1194:1195   */\n      0x04\n        /* \"#utility.yul\":1187:1202   */\n      mstore\n        /* \"#utility.yul\":1221:1225   */\n      0x24\n        /* \"#utility.yul\":1218:1219   */\n      0x00\n        /* \"#utility.yul\":1211:1226   */\n      revert\n        /* \"#utility.yul\":1238:1360   */\n    tag_21:\n        /* \"#utility.yul\":1311:1335   */\n      tag_40\n        /* \"#utility.yul\":1329:1334   */\n      dup2\n        /* \"#utility.yul\":1311:1335   */\n      tag_28\n      jump\t// in\n    tag_40:\n        /* \"#utility.yul\":1304:1309   */\n      dup2\n        /* \"#utility.yul\":1301:1336   */\n      eq\n        /* \"#utility.yul\":1291:1293   */\n      tag_41\n      jumpi\n        /* \"#utility.yul\":1350:1351   */\n      0x00\n        /* \"#utility.yul\":1347:1348   */\n      dup1\n        /* \"#utility.yul\":1340:1352   */\n      revert\n        /* \"#utility.yul\":1291:1293   */\n    tag_41:\n        /* \"#utility.yul\":1281:1360   */\n      pop\n      jump\t// out\n\n    auxdata: 0xa2646970667358221220dee9b602535c89f88561195408dc2a529a2979aa3ea1ad0766e3ec833273860964736f6c63430008010033\n}\n",
				"bytecode": {
					"linkReferences": {},
					"object": "6080604052606460005534801561001557600080fd5b506101c4806100256000396000f3fe608060405234801561001057600080fd5b50600436106100365760003560e01c8063209652551461003b5780635524107714610059575b600080fd5b610043610075565b60405161005091906100ef565b60405180910390f35b610073600480360381019061006e91906100b7565b61007e565b005b60008054905090565b600054600080828254610091919061010a565b925050819055508060008190555050565b6000813590506100b181610177565b92915050565b6000602082840312156100c957600080fd5b60006100d7848285016100a2565b91505092915050565b6100e98161013e565b82525050565b600060208201905061010460008301846100e0565b92915050565b60006101158261013e565b91506101208361013e565b92508282101561013357610132610148565b5b828203905092915050565b6000819050919050565b7f4e487b7100000000000000000000000000000000000000000000000000000000600052601160045260246000fd5b6101808161013e565b811461018b57600080fd5b5056fea2646970667358221220dee9b602535c89f88561195408dc2a529a2979aa3ea1ad0766e3ec833273860964736f6c63430008010033",
					"opcodes": "PUSH1 0x80 PUSH1 0x40 MSTORE PUSH1 0x64 PUSH1 0x0 SSTORE CALLVALUE DUP1 ISZERO PUSH2 0x15 JUMPI PUSH1 0x0 DUP1 REVERT JUMPDEST POP PUSH2 0x1C4 DUP1 PUSH2 0x25 PUSH1 0x0 CODECOPY PUSH1 0x0 RETURN INVALID PUSH1 0x80 PUSH1 0x40 MSTORE CALLVALUE DUP1 ISZERO PUSH2 0x10 JUMPI PUSH1 0x0 DUP1 REVERT JUMPDEST POP PUSH1 0x4 CALLDATASIZE LT PUSH2 0x36 JUMPI PUSH1 0x0 CALLDATALOAD PUSH1 0xE0 SHR DUP1 PUSH4 0x20965255 EQ PUSH2 0x3B JUMPI DUP1 PUSH4 0x55241077 EQ PUSH2 0x59 JUMPI JUMPDEST PUSH1 0x0 DUP1 REVERT JUMPDEST PUSH2 0x43 PUSH2 0x75 JUMP JUMPDEST PUSH1 0x40 MLOAD PUSH2 0x50 SWAP2 SWAP1 PUSH2 0xEF JUMP JUMPDEST PUSH1 0x40 MLOAD DUP1 SWAP2 SUB SWAP1 RETURN JUMPDEST PUSH2 0x73 PUSH1 0x4 DUP1 CALLDATASIZE SUB DUP2 ADD SWAP1 PUSH2 0x6E SWAP2 SWAP1 PUSH2 0xB7 JUMP JUMPDEST PUSH2 0x7E JUMP JUMPDEST STOP JUMPDEST PUSH1 0x0 DUP1 SLOAD SWAP1 POP SWAP1 JUMP JUMPDEST PUSH1 0x0 SLOAD PUSH1 0x0 DUP1 DUP3 DUP3 SLOAD PUSH2 0x91 SWAP2 SWAP1 PUSH2 0x10A JUMP JUMPDEST SWAP3 POP POP DUP2 SWAP1 SSTORE POP DUP1 PUSH1 0x0 DUP2 SWAP1 SSTORE POP POP JUMP JUMPDEST PUSH1 0x0 DUP2 CALLDATALOAD SWAP1 POP PUSH2 0xB1 DUP2 PUSH2 0x177 JUMP JUMPDEST SWAP3 SWAP2 POP POP JUMP JUMPDEST PUSH1 0x0 PUSH1 0x20 DUP3 DUP5 SUB SLT ISZERO PUSH2 0xC9 JUMPI PUSH1 0x0 DUP1 REVERT JUMPDEST PUSH1 0x0 PUSH2 0xD7 DUP5 DUP3 DUP6 ADD PUSH2 0xA2 JUMP JUMPDEST SWAP2 POP POP SWAP3 SWAP2 POP POP JUMP JUMPDEST PUSH2 0xE9 DUP2 PUSH2 0x13E JUMP JUMPDEST DUP3 MSTORE POP POP JUMP JUMPDEST PUSH1 0x0 PUSH1 0x20 DUP3 ADD SWAP1 POP PUSH2 0x104 PUSH1 0x0 DUP4 ADD DUP5 PUSH2 0xE0 JUMP JUMPDEST SWAP3 SWAP2 POP POP JUMP JUMPDEST PUSH1 0x0 PUSH2 0x115 DUP3 PUSH2 0x13E JUMP JUMPDEST SWAP2 POP PUSH2 0x120 DUP4 PUSH2 0x13E JUMP JUMPDEST SWAP3 POP DUP3 DUP3 LT ISZERO PUSH2 0x133 JUMPI PUSH2 0x132 PUSH2 0x148 JUMP JUMPDEST JUMPDEST DUP3 DUP3 SUB SWAP1 POP SWAP3 SWAP2 POP POP JUMP JUMPDEST PUSH1 0x0 DUP2 SWAP1 POP SWAP2 SWAP1 POP JUMP JUMPDEST PUSH32 0x4E487B7100000000000000000000000000000000000000000000000000000000 PUSH1 0x0 MSTORE PUSH1 0x11 PUSH1 0x4 MSTORE PUSH1 0x24 PUSH1 0x0 REVERT JUMPDEST PUSH2 0x180 DUP2 PUSH2 0x13E JUMP JUMPDEST DUP2 EQ PUSH2 0x18B JUMPI PUSH1 0x0 DUP1 REVERT JUMPDEST POP JUMP INVALID LOG2 PUSH5 0x6970667358 0x22 SLT KECCAK256 0xDE 0xE9 0xB6 MUL MSTORE8 0x5C DUP10 0xF8 DUP6 PUSH2 0x1954 ADDMOD 0xDC 0x2A MSTORE SWAP11 0x29 PUSH26 0xAA3EA1AD0766E3EC833273860964736F6C634300080100330000 "
				},
				"gasEstimates": {
					"creation": {
						"codeDepositCost": "90400",
						"executionCost": "20147",
						"totalCost": "110547"
					},
					"external": {
						"getValue()": "1115",
						"setValue(uint256)": "infinite"
					}
				},
				"methodIdentifiers": {
					"getValue()": "20965255",
					"setValue(uint256)": "55241077"
				}
			},
			"storageLayout": {
				"storage": [
					{
						"astId": 4,
						"contract": "testExample.sol:sampleContract",
						"label": "number",
						"offset": 0,
						"slot": "0",
						"type": "t_uint256"
					}
				],
				"types": {
					"t_uint256": {
						"encoding": "inplace",
						"label": "uint256",
						"numberOfBytes": "32"
					}
				}
			},
			"userdoc": {
				"kind": "user",
				"methods": {},
				"version": 1
			}
		}
	}
}