{
	"test_solidity.sol": {
		"sampleContract": {
			"abi": [
				{
					"inputs": [],
					"name": "point",
					"outputs": [
						{
							"internalType": "bytes32",
							"name": "",
							"type": "bytes32"
						}
					],
					"stateMutability": "pure",
					"type": "function"
				}
			],
			"devdoc": {
				"kind": "dev",
				"methods": {},
				"version": 1
			},
			"evm": {
				"assembly": "    /* \"test_solidity.sol\":162:376  contract sampleContract {\r... */\n  mstore(0x40, 0x80)\n  callvalue\n  dup1\n  iszero\n  tag_1\n  jumpi\n  0x00\n  dup1\n  revert\ntag_1:\n  pop\n  dataSize(sub_0)\n  dup1\n  dataOffset(sub_0)\n  0x00\n  codecopy\n  0x00\n  return\nstop\n\nsub_0: assembly {\n        /* \"test_solidity.sol\":162:376  contract sampleContract {\r... */\n      mstore(0x40, 0x80)\n      callvalue\n      dup1\n      iszero\n      tag_1\n      jumpi\n      0x00\n      dup1\n      revert\n    tag_1:\n      pop\n      jumpi(tag_2, lt(calldatasize, 0x04))\n      shr(0xe0, calldataload(0x00))\n      dup1\n      0x2ba9fcd5\n      eq\n      tag_3\n      jumpi\n    tag_2:\n      0x00\n      dup1\n      revert\n        /* \"test_solidity.sol\":193:373  function point() public pure  returns(bytes32){\r... */\n    tag_3:\n      tag_4\n      tag_5\n      jump\t// in\n    tag_4:\n      mload(0x40)\n      tag_6\n      swap2\n      swap1\n      tag_7\n      jump\t// in\n    tag_6:\n      mload(0x40)\n      dup1\n      swap2\n      sub\n      swap1\n      return\n    tag_5:\n        /* \"test_solidity.sol\":231:238  bytes32 */\n      0x00\n        /* \"test_solidity.sol\":359:363  0xff */\n      0xff\n        /* \"test_solidity.sol\":343:365  bytes32(uint256(0xff)) */\n      0x00\n      shl\n        /* \"test_solidity.sol\":342:365  ~bytes32(uint256(0xff)) */\n      not\n        /* \"test_solidity.sol\":336:337  1 */\n      0x01\n        /* \"test_solidity.sol\":286:332  keccak256(\"openzeppelin.storage.ProxyOwnable\") */\n      0xb6efe819b96a628120d4c6d5c6c1a91c52e692f73ae9a8017106a5d8cad894f8\n        /* \"test_solidity.sol\":278:333  uint256(keccak256(\"openzeppelin.storage.ProxyOwnable\")) */\n      0x00\n      shr\n        /* \"test_solidity.sol\":278:337  uint256(keccak256(\"openzeppelin.storage.ProxyOwnable\")) - 1 */\n      tag_9\n      swap2\n      swap1\n      tag_10\n      jump\t// in\n    tag_9:\n        /* \"test_solidity.sol\":267:338  abi.encode(uint256(keccak256(\"openzeppelin.storage.ProxyOwnable\")) - 1) */\n      add(0x20, mload(0x40))\n      tag_11\n      swap2\n      swap1\n      tag_12\n      jump\t// in\n    tag_11:\n      mload(0x40)\n      0x20\n      dup2\n      dup4\n      sub\n      sub\n      dup2\n      mstore\n      swap1\n      0x40\n      mstore\n        /* \"test_solidity.sol\":257:339  keccak256(abi.encode(uint256(keccak256(\"openzeppelin.storage.ProxyOwnable\")) - 1)) */\n      dup1\n      mload\n      swap1\n      0x20\n      add\n      keccak256\n        /* \"test_solidity.sol\":257:365  keccak256(abi.encode(uint256(keccak256(\"openzeppelin.storage.ProxyOwnable\")) - 1)) & ~bytes32(uint256(0xff)) */\n      and\n        /* \"test_solidity.sol\":250:365  return keccak256(abi.encode(uint256(keccak256(\"openzeppelin.storage.ProxyOwnable\")) - 1)) & ~bytes32(uint256(0xff)) */\n      swap1\n      pop\n        /* \"test_solidity.sol\":193:373  function point() public pure  returns(bytes32){\r... */\n      swap1\n      jump\t// out\n        /* \"#utility.yul\":7:125   */\n    tag_14:\n        /* \"#utility.yul\":94:118   */\n      tag_16\n        /* \"#utility.yul\":112:117   */\n      dup2\n        /* \"#utility.yul\":94:118   */\n      tag_17\n      jump\t// in\n    tag_16:\n        /* \"#utility.yul\":89:92   */\n      dup3\n        /* \"#utility.yul\":82:119   */\n      mstore\n        /* \"#utility.yul\":72:125   */\n      pop\n      pop\n      jump\t// out\n        /* \"#utility.yul\":131:249   */\n    tag_18:\n        /* \"#utility.yul\":218:242   */\n      tag_20\n        /* \"#utility.yul\":236:241   */\n      dup2\n        /* \"#utility.yul\":218:242   */\n      tag_21\n      jump\t// in\n    tag_20:\n        /* \"#utility.yul\":213:216   */\n      dup3\n        /* \"#utility.yul\":206:243   */\n      mstore\n        /* \"#utility.yul\":196:249   */\n      pop\n      pop\n      jump\t// out\n        /* \"#utility.yul\":255:477   */\n    tag_7:\n      0x00\n        /* \"#utility.yul\":386:388   */\n      0x20\n        /* \"#utility.yul\":375:384   */\n      dup3\n        /* \"#utility.yul\":371:389   */\n      add\n        /* \"#utility.yul\":363:389   */\n      swap1\n      pop\n        /* \"#utility.yul\":399:470   */\n      tag_23\n        /* \"#utility.yul\":467:468   */\n      0x00\n        /* \"#utility.yul\":456:465   */\n      dup4\n        /* \"#utility.yul\":452:469   */\n      add\n        /* \"#utility.yul\":443:449   */\n      dup5\n        /* \"#utility.yul\":399:470   */\n      tag_14\n      jump\t// in\n    tag_23:\n        /* \"#utility.yul\":353:477   */\n      swap3\n      swap2\n      pop\n      pop\n      jump\t// out\n        /* \"#utility.yul\":483:705   */\n    tag_12:\n      0x00\n        /* \"#utility.yul\":614:616   */\n      0x20\n        /* \"#utility.yul\":603:612   */\n      dup3\n        /* \"#utility.yul\":599:617   */\n      add\n        /* \"#utility.yul\":591:617   */\n      swap1\n      pop\n        /* \"#utility.yul\":627:698   */\n      tag_25\n        /* \"#utility.yul\":695:696   */\n      0x00\n        /* \"#utility.yul\":684:693   */\n      dup4\n        /* \"#utility.yul\":680:697   */\n      add\n        /* \"#utility.yul\":671:677   */\n      dup5\n        /* \"#utility.yul\":627:698   */\n      tag_18\n      jump\t// in\n    tag_25:\n        /* \"#utility.yul\":581:705   */\n      swap3\n      swap2\n      pop\n      pop\n      jump\t// out\n        /* \"#utility.yul\":711:902   */\n    tag_10:\n      0x00\n        /* \"#utility.yul\":771:791   */\n      tag_27\n        /* \"#utility.yul\":789:790   */\n      dup3\n        /* \"#utility.yul\":771:791   */\n      tag_21\n      jump\t// in\n    tag_27:\n        /* \"#utility.yul\":766:791   */\n      swap2\n      pop\n        /* \"#utility.yul\":805:825   */\n      tag_28\n        /* \"#utility.yul\":823:824   */\n      dup4\n        /* \"#utility.yul\":805:825   */\n      tag_21\n      jump\t// in\n    tag_28:\n        /* \"#utility.yul\":800:825   */\n      swap3\n      pop\n        /* \"#utility.yul\":844:845   */\n      dup3\n        /* \"#utility.yul\":841:842   */\n      dup3\n        /* \"#utility.yul\":838:846   */\n      lt\n        /* \"#utility.yul\":835:837   */\n      iszero\n      tag_29\n      jumpi\n        /* \"#utility.yul\":849:867   */\n      tag_30\n      tag_31\n      jump\t// in\n    tag_30:\n        /* \"#utility.yul\":835:837   */\n    tag_29:\n        /* \"#utility.yul\":894:895   */\n      dup3\n        /* \"#utility.yul\":891:892   */\n      dup3\n        /* \"#utility.yul\":887:896   */\n      sub\n        /* \"#utility.yul\":879:896   */\n      swap1\n      pop\n        /* \"#utility.yul\":756:902   */\n      swap3\n      swap2\n      pop\n      pop\n      jump\t// out\n        /* \"#utility.yul\":908:985   */\n    tag_17:\n      0x00\n        /* \"#utility.yul\":974:979   */\n      dup2\n        /* \"#utility.yul\":963:979   */\n      swap1\n      pop\n        /* \"#utility.yul\":953:985   */\n      swap2\n      swap1\n      pop\n      jump\t// out\n        /* \"#utility.yul\":991:1068   */\n    tag_21:\n      0x00\n        /* \"#utility.yul\":1057:1062   */\n      dup2\n        /* \"#utility.yul\":1046:1062   */\n      swap1\n      pop\n        /* \"#utility.yul\":1036:1068   */\n      swap2\n      swap1\n      pop\n      jump\t// out\n        /* \"#utility.yul\":1074:1254   */\n    tag_31:\n        /* \"#utility.yul\":1122:1199   */\n      0x4e487b7100000000000000000000000000000000000000000000000000000000\n        /* \"#utility.yul\":1119:1120   */\n      0x00\n        /* \"#utility.yul\":1112:1200   */\n      mstore\n        /* \"#utility.yul\":1219:1223   */\n      0x11\n        /* \"#utility.yul\":1216:1217   */\n      0x04\n        /* \"#utility.yul\":1209:1224   */\n      mstore\n        /* \"#utility.yul\":1243:1247   */\n      0x24\n        /* \"#utility.yul\":1240:1241   */\n      0x00\n        /* \"#utility.yul\":1233:1248   */\n      revert\n\n    auxdata: 0xa26469706673582212207d28078da444d8ad2ee6771b829f8961463e737e0f5acfbd4c0156578312205b64736f6c63430008010033\n}\n",
				"bytecode": {
					"linkReferences": {},
					"object": "608060405234801561001057600080fd5b506101b3806100206000396000f3fe608060405234801561001057600080fd5b506004361061002b5760003560e01c80632ba9fcd514610030575b600080fd5b61003861004e565b60405161004591906100d0565b60405180910390f35b600060ff60001b1960017fb6efe819b96a628120d4c6d5c6c1a91c52e692f73ae9a8017106a5d8cad894f860001c6100869190610106565b60405160200161009691906100eb565b6040516020818303038152906040528051906020012016905090565b6100bb8161013a565b82525050565b6100ca81610144565b82525050565b60006020820190506100e560008301846100b2565b92915050565b600060208201905061010060008301846100c1565b92915050565b600061011182610144565b915061011c83610144565b92508282101561012f5761012e61014e565b5b828203905092915050565b6000819050919050565b6000819050919050565b7f4e487b7100000000000000000000000000000000000000000000000000000000600052601160045260246000fdfea26469706673582212207d28078da444d8ad2ee6771b829f8961463e737e0f5acfbd4c0156578312205b64736f6c63430008010033",
					"opcodes": "PUSH1 0x80 PUSH1 0x40 MSTORE CALLVALUE DUP1 ISZERO PUSH2 0x10 JUMPI PUSH1 0x0 DUP1 REVERT JUMPDEST POP PUSH2 0x1B3 DUP1 PUSH2 0x20 PUSH1 0x0 CODECOPY PUSH1 0x0 RETURN INVALID PUSH1 0x80 PUSH1 0x40 MSTORE CALLVALUE DUP1 ISZERO PUSH2 0x10 JUMPI PUSH1 0x0 DUP1 REVERT JUMPDEST POP PUSH1 0x4 CALLDATASIZE LT PUSH2 0x2B JUMPI PUSH1 0x0 CALLDATALOAD PUSH1 0xE0 SHR DUP1 PUSH4 0x2BA9FCD5 EQ PUSH2 0x30 JUMPI JUMPDEST PUSH1 0x0 DUP1 REVERT JUMPDEST PUSH2 0x38 PUSH2 0x4E JUMP JUMPDEST PUSH1 0x40 MLOAD PUSH2 0x45 SWAP2 SWAP1 PUSH2 0xD0 JUMP JUMPDEST PUSH1 0x40 MLOAD DUP1 SWAP2 SUB SWAP1 RETURN JUMPDEST PUSH1 0x0 PUSH1 0xFF PUSH1 0x0 SHL NOT PUSH1 0x1 PUSH32 0xB6EFE819B96A628120D4C6D5C6C1A91C52E692F73AE9A8017106A5D8CAD894F8 PUSH1 0x0 SHR PUSH2 0x86 SWAP2 SWAP1 PUSH2 0x106 JUMP JUMPDEST PUSH1 0x40 MLOAD PUSH1 0x20 ADD PUSH2 0x96 SWAP2 SWAP1 PUSH2 0xEB JUMP JUMPDEST PUSH1 0x40 MLOAD PUSH1 0x20 DUP2 DUP4 SUB SUB DUP2 MSTORE SWAP1 PUSH1 0x40 MSTORE DUP1 MLOAD SWAP1 PUSH1 0x20 ADD KECCAK256 AND SWAP1 POP SWAP1 JUMP JUMPDEST PUSH2 0xBB DUP2 PUSH2 0x13A JUMP JUMPDEST DUP3 MSTORE POP POP JUMP JUMPDEST PUSH2 0xCA DUP2 PUSH2 0x144 JUMP JUMPDEST DUP3 MSTORE POP POP JUMP JUMPDEST PUSH1 0x0 PUSH1 0x20 DUP3 ADD SWAP1 POP PUSH2 0xE5 PUSH1 0x0 DUP4 ADD DUP5 PUSH2 0xB2 JUMP JUMPDEST SWAP3 SWAP2 POP POP JUMP JUMPDEST PUSH1 0x0 PUSH1 0x20 DUP3 ADD SWAP1 POP PUSH2 0x100 PUSH1 0x0 DUP4 ADD DUP5 PUSH2 0xC1 JUMP JUMPDEST SWAP3 SWAP2 POP POP JUMP JUMPDEST PUSH1 0x0 PUSH2 0x111 DUP3 PUSH2 0x144 JUMP JUMPDEST SWAP2 POP PUSH2 0x11C DUP4 PUSH2 0x144 JUMP JUMPDEST SWAP3 POP DUP3 DUP3 LT ISZERO PUSH2 0x12F JUMPI PUSH2 0x12E PUSH2 0x14E JUMP JUMPDEST JUMPDEST DUP3 DUP3 SUB SWAP1 POP SWAP3 SWAP2 POP POP JUMP JUMPDEST PUSH1 0x0 DUP2 SWAP1 POP SWAP2 SWAP1 POP JUMP JUMPDEST PUSH1 0x0 DUP2 SWAP1 POP SWAP2 SWAP1 POP JUMP JUMPDEST PUSH32 0x4E487B7100000000000000000000000000000000000000000000000000000000 PUSH1 0x0 MSTORE PUSH1 0x11 PUSH1 0x4 MSTORE PUSH1 0x24 PUSH1 0x0 REVERT INVALID LOG2 PUSH5 0x6970667358 0x22 SLT KECCAK256 PUSH30 0x28078DA444D8AD2EE6771B829F8961463E737E0F5ACFBD4C015657831220 JUMPDEST PUSH5 0x736F6C6343 STOP ADDMOD ADD STOP CALLER "
				},
				"gasEstimates": {
					"creation": {
						"codeDepositCost": "87000",
						"executionCost": "135",
						"totalCost": "87135"
					},
					"external": {
						"point()": "infinite"
					}
				},
				"methodIdentifiers": {
					"point()": "2ba9fcd5"
				}
			},
			"storageLayout": {
				"storage": [],
				"types": null
			},
			"userdoc": {
				"kind": "user",
				"methods": {},
				"version": 1
			}
		}
	}
}