{
	"paramenter_bytes.sol": {
		"sampleContract": {
			"abi": [
				{
					"inputs": [],
					"name": "point",
					"outputs": [
						{
							"internalType": "bytes32",
							"name": "",
							"type": "bytes32"
						}
					],
					"stateMutability": "pure",
					"type": "function"
				}
			],
			"devdoc": {
				"kind": "dev",
				"methods": {},
				"version": 1
			},
			"evm": {
				"assembly": "    /* \"paramenter_bytes.sol\":162:376  contract sampleContract {... */\n  mstore(0x40, 0x80)\n  callvalue\n  dup1\n  iszero\n  tag_1\n  jumpi\n  revert(0x00, 0x00)\ntag_1:\n  pop\n  dataSize(sub_0)\n  dup1\n  dataOffset(sub_0)\n  0x00\n  codecopy\n  0x00\n  return\nstop\n\nsub_0: assembly {\n        /* \"paramenter_bytes.sol\":162:376  contract sampleContract {... */\n      mstore(0x40, 0x80)\n      callvalue\n      dup1\n      iszero\n      tag_1\n      jumpi\n      revert(0x00, 0x00)\n    tag_1:\n      pop\n      jumpi(tag_2, lt(calldatasize, 0x04))\n      shr(0xe0, calldataload(0x00))\n      dup1\n      0x2ba9fcd5\n      eq\n      tag_3\n      jumpi\n    tag_2:\n      revert(0x00, 0x00)\n        /* \"paramenter_bytes.sol\":193:373  function point() public pure  returns(bytes32){... */\n    tag_3:\n      tag_4\n      tag_5\n      jump\t// in\n    tag_4:\n      mload(0x40)\n      tag_6\n      swap2\n      swap1\n      tag_7\n      jump\t// in\n    tag_6:\n      mload(0x40)\n      dup1\n      swap2\n      sub\n      swap1\n      return\n    tag_5:\n        /* \"paramenter_bytes.sol\":231:238  bytes32 */\n      0x00\n        /* \"paramenter_bytes.sol\":359:363  0xff */\n      0xff\n        /* \"paramenter_bytes.sol\":343:365  bytes32(uint256(0xff)) */\n      0x00\n      shl\n        /* \"paramenter_bytes.sol\":342:365  ~bytes32(uint256(0xff)) */\n      not\n        /* \"paramenter_bytes.sol\":336:337  1 */\n      0x01\n        /* \"paramenter_bytes.sol\":286:332  keccak256(\"openzeppelin.storage.ProxyOwnable\") */\n      0xb6efe819b96a628120d4c6d5c6c1a91c52e692f73ae9a8017106a5d8cad894f8\n        /* \"paramenter_bytes.sol\":278:333  uint256(keccak256(\"openzeppelin.storage.ProxyOwnable\")) */\n      0x00\n      shr\n        /* \"paramenter_bytes.sol\":278:337  uint256(keccak256(\"openzeppelin.storage.ProxyOwnable\")) - 1 */\n      tag_9\n      swap2\n      swap1\n      tag_10\n      jump\t// in\n    tag_9:\n        /* \"paramenter_bytes.sol\":267:338  abi.encode(uint256(keccak256(\"openzeppelin.storage.ProxyOwnable\")) - 1) */\n      add(0x20, mload(0x40))\n      tag_11\n      swap2\n      swap1\n      tag_12\n      jump\t// in\n    tag_11:\n      mload(0x40)\n      0x20\n      dup2\n      dup4\n      sub\n      sub\n      dup2\n      mstore\n      swap1\n      0x40\n      mstore\n        /* \"paramenter_bytes.sol\":257:339  keccak256(abi.encode(uint256(keccak256(\"openzeppelin.storage.ProxyOwnable\")) - 1)) */\n      dup1\n      mload\n      swap1\n      0x20\n      add\n      keccak256\n        /* \"paramenter_bytes.sol\":257:365  keccak256(abi.encode(uint256(keccak256(\"openzeppelin.storage.ProxyOwnable\")) - 1)) & ~bytes32(uint256(0xff)) */\n      and\n        /* \"paramenter_bytes.sol\":250:365  return keccak256(abi.encode(uint256(keccak256(\"openzeppelin.storage.ProxyOwnable\")) - 1)) & ~bytes32(uint256(0xff)) */\n      swap1\n      pop\n        /* \"paramenter_bytes.sol\":193:373  function point() public pure  returns(bytes32){... */\n      swap1\n      jump\t// out\n        /* \"#utility.yul\":7:84   */\n    tag_13:\n        /* \"#utility.yul\":44:51   */\n      0x00\n        /* \"#utility.yul\":73:78   */\n      dup2\n        /* \"#utility.yul\":62:78   */\n      swap1\n      pop\n        /* \"#utility.yul\":7:84   */\n      swap2\n      swap1\n      pop\n      jump\t// out\n        /* \"#utility.yul\":90:208   */\n    tag_14:\n        /* \"#utility.yul\":177:201   */\n      tag_21\n        /* \"#utility.yul\":195:200   */\n      dup2\n        /* \"#utility.yul\":177:201   */\n      tag_13\n      jump\t// in\n    tag_21:\n        /* \"#utility.yul\":172:175   */\n      dup3\n        /* \"#utility.yul\":165:202   */\n      mstore\n        /* \"#utility.yul\":90:208   */\n      pop\n      pop\n      jump\t// out\n        /* \"#utility.yul\":214:436   */\n    tag_7:\n        /* \"#utility.yul\":307:311   */\n      0x00\n        /* \"#utility.yul\":345:347   */\n      0x20\n        /* \"#utility.yul\":334:343   */\n      dup3\n        /* \"#utility.yul\":330:348   */\n      add\n        /* \"#utility.yul\":322:348   */\n      swap1\n      pop\n        /* \"#utility.yul\":358:429   */\n      tag_23\n        /* \"#utility.yul\":426:427   */\n      0x00\n        /* \"#utility.yul\":415:424   */\n      dup4\n        /* \"#utility.yul\":411:428   */\n      add\n        /* \"#utility.yul\":402:408   */\n      dup5\n        /* \"#utility.yul\":358:429   */\n      tag_14\n      jump\t// in\n    tag_23:\n        /* \"#utility.yul\":214:436   */\n      swap3\n      swap2\n      pop\n      pop\n      jump\t// out\n        /* \"#utility.yul\":442:519   */\n    tag_15:\n        /* \"#utility.yul\":479:486   */\n      0x00\n        /* \"#utility.yul\":508:513   */\n      dup2\n        /* \"#utility.yul\":497:513   */\n      swap1\n      pop\n        /* \"#utility.yul\":442:519   */\n      swap2\n      swap1\n      pop\n      jump\t// out\n        /* \"#utility.yul\":525:705   */\n    tag_16:\n        /* \"#utility.yul\":573:650   */\n      0x4e487b7100000000000000000000000000000000000000000000000000000000\n        /* \"#utility.yul\":570:571   */\n      0x00\n        /* \"#utility.yul\":563:651   */\n      mstore\n        /* \"#utility.yul\":670:674   */\n      0x11\n        /* \"#utility.yul\":667:668   */\n      0x04\n        /* \"#utility.yul\":660:675   */\n      mstore\n        /* \"#utility.yul\":694:698   */\n      0x24\n        /* \"#utility.yul\":691:692   */\n      0x00\n        /* \"#utility.yul\":684:699   */\n      revert\n        /* \"#utility.yul\":711:905   */\n    tag_10:\n        /* \"#utility.yul\":751:755   */\n      0x00\n        /* \"#utility.yul\":771:791   */\n      tag_27\n        /* \"#utility.yul\":789:790   */\n      dup3\n        /* \"#utility.yul\":771:791   */\n      tag_15\n      jump\t// in\n    tag_27:\n        /* \"#utility.yul\":766:791   */\n      swap2\n      pop\n        /* \"#utility.yul\":805:825   */\n      tag_28\n        /* \"#utility.yul\":823:824   */\n      dup4\n        /* \"#utility.yul\":805:825   */\n      tag_15\n      jump\t// in\n    tag_28:\n        /* \"#utility.yul\":800:825   */\n      swap3\n      pop\n        /* \"#utility.yul\":849:850   */\n      dup3\n        /* \"#utility.yul\":846:847   */\n      dup3\n        /* \"#utility.yul\":842:851   */\n      sub\n        /* \"#utility.yul\":834:851   */\n      swap1\n      pop\n        /* \"#utility.yul\":873:874   */\n      dup2\n        /* \"#utility.yul\":867:871   */\n      dup2\n        /* \"#utility.yul\":864:875   */\n      gt\n        /* \"#utility.yul\":861:898   */\n      iszero\n      tag_29\n      jumpi\n        /* \"#utility.yul\":878:896   */\n      tag_30\n      tag_16\n      jump\t// in\n    tag_30:\n        /* \"#utility.yul\":861:898   */\n    tag_29:\n        /* \"#utility.yul\":711:905   */\n      swap3\n      swap2\n      pop\n      pop\n      jump\t// out\n        /* \"#utility.yul\":911:1029   */\n    tag_17:\n        /* \"#utility.yul\":998:1022   */\n      tag_32\n        /* \"#utility.yul\":1016:1021   */\n      dup2\n        /* \"#utility.yul\":998:1022   */\n      tag_15\n      jump\t// in\n    tag_32:\n        /* \"#utility.yul\":993:996   */\n      dup3\n        /* \"#utility.yul\":986:1023   */\n      mstore\n        /* \"#utility.yul\":911:1029   */\n      pop\n      pop\n      jump\t// out\n        /* \"#utility.yul\":1035:1257   */\n    tag_12:\n        /* \"#utility.yul\":1128:1132   */\n      0x00\n        /* \"#utility.yul\":1166:1168   */\n      0x20\n        /* \"#utility.yul\":1155:1164   */\n      dup3\n        /* \"#utility.yul\":1151:1169   */\n      add\n        /* \"#utility.yul\":1143:1169   */\n      swap1\n      pop\n        /* \"#utility.yul\":1179:1250   */\n      tag_34\n        /* \"#utility.yul\":1247:1248   */\n      0x00\n        /* \"#utility.yul\":1236:1245   */\n      dup4\n        /* \"#utility.yul\":1232:1249   */\n      add\n        /* \"#utility.yul\":1223:1229   */\n      dup5\n        /* \"#utility.yul\":1179:1250   */\n      tag_17\n      jump\t// in\n    tag_34:\n        /* \"#utility.yul\":1035:1257   */\n      swap3\n      swap2\n      pop\n      pop\n      jump\t// out\n\n    auxdata: 0xa2646970667358221220c46085f44e84c462cc7c23c20586e85919304fd9657db4e45510000d536d65e964736f6c634300081e0033\n}\n",
				"bytecode": {
					"linkReferences": {},
					"object": "6080604052348015600e575f5ffd5b506101a48061001c5f395ff3fe608060405234801561000f575f5ffd5b5060043610610029575f3560e01c80632ba9fcd51461002d575b5f5ffd5b61003561004b565b60405161004291906100c4565b60405180910390f35b5f60ff5f1b1960017fb6efe819b96a628120d4c6d5c6c1a91c52e692f73ae9a8017106a5d8cad894f85f1c6100809190610113565b6040516020016100909190610155565b6040516020818303038152906040528051906020012016905090565b5f819050919050565b6100be816100ac565b82525050565b5f6020820190506100d75f8301846100b5565b92915050565b5f819050919050565b7f4e487b71000000000000000000000000000000000000000000000000000000005f52601160045260245ffd5b5f61011d826100dd565b9150610128836100dd565b92508282039050818111156101405761013f6100e6565b5b92915050565b61014f816100dd565b82525050565b5f6020820190506101685f830184610146565b9291505056fea2646970667358221220c46085f44e84c462cc7c23c20586e85919304fd9657db4e45510000d536d65e964736f6c634300081e0033",
					"opcodes": "PUSH1 0x80 PUSH1 0x40 MSTORE CALLVALUE DUP1 ISZERO PUSH1 0xE JUMPI PUSH0 PUSH0 REVERT JUMPDEST POP PUSH2 0x1A4 DUP1 PUSH2 0x1C PUSH0 CODECOPY PUSH0 RETURN INVALID PUSH1 0x80 PUSH1 0x40 MSTORE CALLVALUE DUP1 ISZERO PUSH2 0xF JUMPI PUSH0 PUSH0 REVERT JUMPDEST POP PUSH1 0x4 CALLDATASIZE LT PUSH2 0x29 JUMPI PUSH0 CALLDATALOAD PUSH1 0xE0 SHR DUP1 PUSH4 0x2BA9FCD5 EQ PUSH2 0x2D JUMPI JUMPDEST PUSH0 PUSH0 REVERT JUMPDEST PUSH2 0x35 PUSH2 0x4B JUMP JUMPDEST PUSH1 0x40 MLOAD PUSH2 0x42 SWAP2 SWAP1 PUSH2 0xC4 JUMP JUMPDEST PUSH1 0x40 MLOAD DUP1 SWAP2 SUB SWAP1 RETURN JUMPDEST PUSH0 PUSH1 0xFF PUSH0 SHL NOT PUSH1 0x1 PUSH32 0xB6EFE819B96A628120D4C6D5C6C1A91C52E692F73AE9A8017106A5D8CAD894F8 PUSH0 SHR PUSH2 0x80 SWAP2 SWAP1 PUSH2 0x113 JUMP JUMPDEST PUSH1 0x40 MLOAD PUSH1 0x20 ADD PUSH2 0x90 SWAP2 SWAP1 PUSH2 0x155 JUMP JUMPDEST PUSH1 0x40 MLOAD PUSH1 0x20 DUP2 DUP4 SUB SUB DUP2 MSTORE SWAP1 PUSH1 0x40 MSTORE DUP1 MLOAD SWAP1 PUSH1 0x20 ADD KECCAK256 AND SWAP1 POP SWAP1 JUMP JUMPDEST PUSH0 DUP2 SWAP1 POP SWAP2 SWAP1 POP JUMP JUMPDEST PUSH2 0xBE DUP2 PUSH2 0xAC JUMP JUMPDEST DUP3 MSTORE POP POP JUMP JUMPDEST PUSH0 PUSH1 0x20 DUP3 ADD SWAP1 POP PUSH2 0xD7 PUSH0 DUP4 ADD DUP5 PUSH2 0xB5 JUMP JUMPDEST SWAP3 SWAP2 POP POP JUMP JUMPDEST PUSH0 DUP2 SWAP1 POP SWAP2 SWAP1 POP JUMP JUMPDEST PUSH32 0x4E487B7100000000000000000000000000000000000000000000000000000000 PUSH0 MSTORE PUSH1 0x11 PUSH1 0x4 MSTORE PUSH1 0x24 PUSH0 REVERT JUMPDEST PUSH0 PUSH2 0x11D DUP3 PUSH2 0xDD JUMP JUMPDEST SWAP2 POP PUSH2 0x128 DUP4 PUSH2 0xDD JUMP JUMPDEST SWAP3 POP DUP3 DUP3 SUB SWAP1 POP DUP2 DUP2 GT ISZERO PUSH2 0x140 JUMPI PUSH2 0x13F PUSH2 0xE6 JUMP JUMPDEST JUMPDEST SWAP3 SWAP2 POP POP JUMP JUMPDEST PUSH2 0x14F DUP2 PUSH2 0xDD JUMP JUMPDEST DUP3 MSTORE POP POP JUMP JUMPDEST PUSH0 PUSH1 0x20 DUP3 ADD SWAP1 POP PUSH2 0x168 PUSH0 DUP4 ADD DUP5 PUSH2 0x146 JUMP JUMPDEST SWAP3 SWAP2 POP POP JUMP INVALID LOG2 PUSH5 0x6970667358 0x22 SLT KECCAK256 0xC4 PUSH1 0x85 DELEGATECALL 0x4E DUP5 0xC4 PUSH3 0xCC7C23 0xC2 SDIV DUP7 0xE8 MSIZE NOT ADDRESS 0x4F 0xD9 PUSH6 0x7DB4E4551000 0xD MSTORE8 PUSH14 0x65E964736F6C634300081E003300 "
				},
				"gasEstimates": {
					"creation": {
						"codeDepositCost": "84000",
						"executionCost": "133",
						"totalCost": "84133"
					},
					"external": {
						"point()": "infinite"
					}
				},
				"methodIdentifiers": {
					"point()": "2ba9fcd5"
				}
			},
			"storageLayout": {
				"storage": [],
				"types": null
			},
			"userdoc": {
				"kind": "user",
				"methods": {},
				"version": 1
			}
		}
	}
}