{
  "address": "0x8a791620dd6260079bf849dc5567adc3f2fdc318",
  "abi": [
    {
      "anonymous": false,
      "inputs": [
        {
          "indexed": true,
          "internalType": "address",
          "name": "claimant",
          "type": "address"
        },
        {
          "indexed": false,
          "internalType": "uint256",
          "name": "amount",
          "type": "uint256"
        }
      ],
      "name": "AirdropClaimed",
      "type": "event"
    },
    {
      "anonymous": false,
      "inputs": [
        {
          "indexed": true,
          "internalType": "address",
          "name": "previousOwner",
          "type": "address"
        },
        {
          "indexed": true,
          "internalType": "address",
          "name": "newOwner",
          "type": "address"
        }
      ],
      "name": "OwnershipTransferred",
      "type": "event"
    },
    {
      "anonymous": false,
      "inputs": [
        {
          "indexed": true,
          "internalType": "address",
          "name": "operator",
          "type": "address"
        },
        {
          "indexed": false,
          "internalType": "uint256",
          "name": "amount",
          "type": "uint256"
        }
      ],
      "name": "RemainingTokenWithdrawn",
      "type": "event"
    },
    {
      "inputs": [],
      "name": "airdropTotalAmount",
      "outputs": [
        {
          "internalType": "uint256",
          "name": "",
          "type": "uint256"
        }
      ],
      "stateMutability": "view",
      "type": "function"
    },
    {
      "inputs": [],
      "name": "claimDeadline",
      "outputs": [
        {
          "internalType": "uint64",
          "name": "",
          "type": "uint64"
        }
      ],
      "stateMutability": "view",
      "type": "function"
    },
    {
      "inputs": [],
      "name": "claimForNFT",
      "outputs": [],
      "stateMutability": "nonpayable",
      "type": "function"
    },
    {
      "inputs": [],
      "name": "claimStartline",
      "outputs": [
        {
          "internalType": "uint64",
          "name": "",
          "type": "uint64"
        }
      ],
      "stateMutability": "view",
      "type": "function"
    },
    {
      "inputs": [
        {
          "internalType": "address",
          "name": "_account",
          "type": "address"
        }
      ],
      "name": "getClaimableReward",
      "outputs": [
        {
          "internalType": "uint256",
          "name": "",
          "type": "uint256"
        }
      ],
      "stateMutability": "view",
      "type": "function"
    },
    {
      "inputs": [],
      "name": "getReferenceRewardAmount",
      "outputs": [
        {
          "internalType": "uint256",
          "name": "totalReward",
          "type": "uint256"
        }
      ],
      "stateMutability": "view",
      "type": "function"
    },
    {
      "inputs": [
        {
          "internalType": "uint256",
          "name": "_tokenId",
          "type": "uint256"
        }
      ],
      "name": "getRewardPerNFT",
      "outputs": [
        {
          "internalType": "uint256",
          "name": "",
          "type": "uint256"
        }
      ],
      "stateMutability": "view",
      "type": "function"
    },
    {
      "inputs": [
        {
          "internalType": "address",
          "name": "_rewardToken",
          "type": "address"
        },
        {
          "internalType": "address",
          "name": "_nftContract",
          "type": "address"
        },
        {
          "internalType": "uint256[6]",
          "name": "_rewardPerNFT",
          "type": "uint256[6]"
        },
        {
          "internalType": "uint64",
          "name": "_claimStartline",
          "type": "uint64"
        },
        {
          "internalType": "uint64",
          "name": "_claimDeadline",
          "type": "uint64"
        },
        {
          "internalType": "uint256",
          "name": "_airdropTotalAmount",
          "type": "uint256"
        }
      ],
      "name": "initialize",
      "outputs": [],
      "stateMutability": "nonpayable",
      "type": "function"
    },
    {
      "inputs": [],
      "name": "isInitialized",
      "outputs": [
        {
          "internalType": "bool",
          "name": "",
          "type": "bool"
        }
      ],
      "stateMutability": "view",
      "type": "function"
    },
    {
      "inputs": [],
      "name": "nftContract",
      "outputs": [
        {
          "internalType": "address",
          "name": "",
          "type": "address"
        }
      ],
      "stateMutability": "view",
      "type": "function"
    },
    {
      "inputs": [],
      "name": "owner",
      "outputs": [
        {
          "internalType": "address",
          "name": "",
          "type": "address"
        }
      ],
      "stateMutability": "view",
      "type": "function"
    },
    {
      "inputs": [],
      "name": "renounceOwnership",
      "outputs": [],
      "stateMutability": "nonpayable",
      "type": "function"
    },
    {
      "inputs": [],
      "name": "rewardToken",
      "outputs": [
        {
          "internalType": "address",
          "name": "",
          "type": "address"
        }
      ],
      "stateMutability": "view",
      "type": "function"
    },
    {
      "inputs": [
        {
          "internalType": "address",
          "name": "newOwner",
          "type": "address"
        }
      ],
      "name": "transferOwnership",
      "outputs": [],
      "stateMutability": "nonpayable",
      "type": "function"
    },
    {
      "inputs": [],
      "name": "withdrawRemainingToken",
      "outputs": [],
      "stateMutability": "nonpayable",
      "type": "function"
    }
  ],
  "contractName": "Airdrop",
  "sourceName": "contracts/airdrop/airdrop.sol",
  "bytecode": "0x608060405260058054600160401b600160801b03196001600160401b03199091166001600160401b0317166fffffffffffffffff000000000000000017905534801561004a57600080fd5b5061005b610056610064565b610068565b600180556100b8565b3390565b600080546001600160a01b038381166001600160a01b0319831681178455604051919092169283917f8be0079c531659141344cd1fd0a4f28419497f9722a3daafe3b4186f6b6457e09190a35050565b611880806100c76000396000f3fe608060405234801561001057600080fd5b50600436106100f55760003560e01c80637c480cb411610097578063d56d229d11610066578063d56d229d146101a7578063f2fde38b146101af578063f7c618c1146101c2578063fa001963146101ca576100f5565b80637c480cb41461017a5780638da5cb5b146101825780639a08ee9514610197578063d34ae0861461019f576100f5565b80634e65e2be116100d35780634e65e2be146101425780635ff329af1461014a578063634d4e471461015d578063715018a614610172576100f5565b80632499f61c146100fa578063392e53cd146101185780633ba86c441461012d575b600080fd5b6101026101dd565b60405161010f9190611768565b60405180910390f35b6101206101e3565b60405161010f919061119e565b6101356101f6565b60405161010f9190611771565b610135610205565b610102610158366004610fac565b61021b565b61017061016b366004610fc6565b61034e565b005b61017061055c565b610170610570565b61018a610647565b60405161010f9190611171565b610170610656565b6101026108ba565b61018a6109af565b6101706101bd366004610fac565b6109be565b61018a6109f8565b6101026101d8366004611141565b610a07565b60065481565b600554600160801b900460ff1660011490565b6005546001600160401b031681565b600554600160401b90046001600160401b031681565b600554600090600160801b900460ff166001146102535760405162461bcd60e51b815260040161024a906112f8565b60405180910390fd5b6000805b60068110156103455760035460009061027b9086906001600160a01b031684610a68565b90506000805b82518110156103035760008382815181106102ac57634e487b7160e01b600052603260045260246000fd5b6020908102919091018101516000878152600783526040808220838352909352919091205490915060ff16156102e257506102f1565b6102ed6001846117b5565b9250505b806102fb81611803565b915050610281565b5080156103305760008381526004602052604090205461032390826117cd565b61032d90856117b5565b93505b5050808061033d90611803565b915050610257565b5090505b919050565b610356610b82565b600554600160801b900460ff16156103805760405162461bcd60e51b815260040161024a906111ef565b6001600160a01b0386163b6103a75760405162461bcd60e51b815260040161024a90611226565b6001600160a01b0385163b6103ce5760405162461bcd60e51b815260040161024a90611720565b600081116103ee5760405162461bcd60e51b815260040161024a906115d2565b42826001600160401b0316116104165760405162461bcd60e51b815260040161024a90611555565b816001600160401b0316836001600160401b0316106104475760405162461bcd60e51b815260040161024a9061164d565b60006104533088610bc1565b9050818110156104755760405162461bcd60e51b815260040161024a9061132f565b60068290556005805460ff60801b1916600160801b179055600280546001600160a01b03808a166001600160a01b031992831617909255600380549289169290911691909117905560005b6006811015610515578581600681106104e957634e487b7160e01b600052603260045260246000fd5b60209081029190910151600083815260049092526040909120558061050d81611803565b9150506104c0565b5050600580546fffffffffffffffff00000000000000001916600160401b6001600160401b03958616021767ffffffffffffffff1916929093169190911790915550505050565b610564610b82565b61056e6000610cb0565b565b610578610b82565b600554600160801b900460ff166001146105a45760405162461bcd60e51b815260040161024a906112f8565b6005546001600160401b031642116105ce5760405162461bcd60e51b815260040161024a906113d2565b6002546000906105e89030906001600160a01b0316610bc1565b6002549091506106039033906001600160a01b031683610d00565b336001600160a01b03167fdebbf1e4687cc44fbd006ec621687eb6cab0c4c96c9253fd4db87dc7180f4d3a8260405161063c9190611768565b60405180910390a250565b6000546001600160a01b031690565b61065e610e5b565b600554600160801b900460ff1660011461068a5760405162461bcd60e51b815260040161024a906112f8565b600554600160401b90046001600160401b03164210156106bc5760405162461bcd60e51b815260040161024a906114b0565b6005546001600160401b03164211156106e75760405162461bcd60e51b815260040161024a90611409565b6000805b60068110156107fe5760035460009061070f9033906001600160a01b031684610a68565b90506000805b82518110156107bc57600083828151811061074057634e487b7160e01b600052603260045260246000fd5b6020908102919091018101516000878152600783526040808220838352909352919091205490915060ff161561077657506107aa565b6107816001846117b5565b600086815260076020908152604080832094835293905291909120805460ff1916600117905591505b806107b481611803565b915050610715565b5080156107e9576000838152600460205260409020546107dc90826117cd565b6107e690856117b5565b93505b505080806107f690611803565b9150506106eb565b506000811161081f5760405162461bcd60e51b815260040161024a906114e7565b6006548111156108415760405162461bcd60e51b815260040161024a90611437565b806006600082825461085391906117ec565b90915550506002546108709033906001600160a01b031683610d00565b336001600160a01b03167f650e45f04ef8a0c267b2f78d983913f69ae3a353b2b32de5429307522be0ab55826040516108a99190611768565b60405180910390a25061056e610e85565b600554600090600160801b900460ff166001146108e95760405162461bcd60e51b815260040161024a906112f8565b506000805b60068110156109ab57600354600090610910906001600160a01b031683610e8b565b90506000805b8281101561096057600084815260076020908152604080832084845290915290205460ff161561094e5761094b6001836117b5565b91505b8061095881611803565b915050610916565b50600061096d82846117ec565b60008581526004602052604090205490915061098990826117cd565b61099390866117b5565b945050505080806109a390611803565b9150506108ee565b5090565b6003546001600160a01b031681565b6109c6610b82565b6001600160a01b0381166109ec5760405162461bcd60e51b815260040161024a9061126e565b6109f581610cb0565b50565b6002546001600160a01b031681565b600060068210610a295760405162461bcd60e51b815260040161024a9061151e565b600554600160801b900460ff16600114610a555760405162461bcd60e51b815260040161024a906112f8565b5060009081526004602052604090205490565b60606001600160a01b0383163b610a915760405162461bcd60e51b815260040161024a906111a9565b604051635bc4490760e11b81526001600160a01b0384169063b788920e90610abf9087908690600401611185565b60006040518083038186803b158015610ad757600080fd5b505afa925050508015610b0c57506040513d6000823e601f3d908101601f19168201604052610b09919081019061107b565b60015b610b66573d808015610b3a576040519150601f19603f3d011682016040523d82523d6000602084013e610b3f565b606091505b508051610b5e5760405162461bcd60e51b815260040161024a906112b4565b805160208201fd5b809150600082511115610b795750610b7b565b505b9392505050565b610b8a610f7a565b6001600160a01b0316610b9b610647565b6001600160a01b03161461056e5760405162461bcd60e51b815260040161024a9061147b565b60006001600160a01b0382163b610bea5760405162461bcd60e51b815260040161024a90611625565b6040516370a0823160e01b81526001600160a01b038316906370a0823190610c16908690600401611171565b60206040518083038186803b158015610c2e57600080fd5b505afa925050508015610c5e575060408051601f3d908101601f19168201909252610c5b91810190611159565b60015b610b7b573d808015610c8c576040519150601f19603f3d011682016040523d82523d6000602084013e610c91565b606091505b508051610b5e5760405162461bcd60e51b815260040161024a90611366565b600080546001600160a01b038381166001600160a01b0319831681178455604051919092169283917f8be0079c531659141344cd1fd0a4f28419497f9722a3daafe3b4186f6b6457e09190a35050565b6001600160a01b0382163b610d275760405162461bcd60e51b815260040161024a906116da565b60405163a9059cbb60e01b81526001600160a01b0383169063a9059cbb90610d559086908590600401611185565b602060405180830381600087803b158015610d6f57600080fd5b505af1925050508015610d9f575060408051601f3d908101601f19168201909252610d9c91810190611121565b60015b610df1573d808015610dcd576040519150601f19603f3d011682016040523d82523d6000602084013e610dd2565b606091505b508051610b5e5760405162461bcd60e51b815260040161024a906115a2565b8015610e3d57336001600160a01b03167f650e45f04ef8a0c267b2f78d983913f69ae3a353b2b32de5429307522be0ab5583604051610e309190611768565b60405180910390a2610e55565b60405162461bcd60e51b815260040161024a906115a2565b50505050565b60026001541415610e7e5760405162461bcd60e51b815260040161024a906116a3565b6002600155565b60018055565b60006001600160a01b0383163b610eb45760405162461bcd60e51b815260040161024a906111a9565b60405163bd85b03960e01b81526001600160a01b0384169063bd85b03990610ee0908590600401611768565b60206040518083038186803b158015610ef857600080fd5b505afa925050508015610f28575060408051601f3d908101601f19168201909252610f2591810190611159565b60015b610b7b573d808015610f56576040519150601f19603f3d011682016040523d82523d6000602084013e610f5b565b606091505b508051610b5e5760405162461bcd60e51b815260040161024a9061139d565b3390565b80356001600160a01b038116811461034957600080fd5b80356001600160401b038116811461034957600080fd5b600060208284031215610fbd578081fd5b610b7b82610f7e565b6000806000806000806101608789031215610fdf578182fd5b610fe887610f7e565b95506020610ff7818901610f7e565b955088605f890112611007578283fd5b61101160c0611785565b8060408a016101008b018c811115611027578687fd5b865b600681101561104657823585529385019391850191600101611029565b5082985061105381610f95565b975050505050506110676101208801610f95565b915061014087013590509295509295509295565b6000602080838503121561108d578182fd5b82516001600160401b03808211156110a3578384fd5b818501915085601f8301126110b6578384fd5b8151818111156110c8576110c8611834565b83810291506110d8848301611785565b8181528481019084860184860187018a10156110f2578788fd5b8795505b838610156111145780518352600195909501949186019186016110f6565b5098975050505050505050565b600060208284031215611132578081fd5b81518015158114610b7b578182fd5b600060208284031215611152578081fd5b5035919050565b60006020828403121561116a578081fd5b5051919050565b6001600160a01b0391909116815260200190565b6001600160a01b03929092168252602082015260400190565b901515815260200190565b60208082526026908201527f41697264726f705574696c733a207472616e7366657220746f206e6f6e2d636f6040820152651b9d1c9858dd60d21b606082015260800190565b6020808252601d908201527f41697264726f703a20686173206265656e20696e697469616c697a6564000000604082015260600190565b60208082526028908201527f41697264726f703a2072657761726420746f6b656e206d75737420626520612060408201526718dbdb9d1c9858dd60c21b606082015260800190565b60208082526026908201527f4f776e61626c653a206e6577206f776e657220697320746865207a65726f206160408201526564647265737360d01b606082015260800190565b60208082526024908201527f41697264726f705574696c733a2067657455736572546f6b656e4964732066616040820152631a5b195960e21b606082015260800190565b60208082526018908201527f41697264726f703a206e6f7420696e697469616c697a65640000000000000000604082015260600190565b6020808252601d908201527f41697264726f703a20696e73756666696369656e742062616c616e6365000000604082015260600190565b6020808252601e908201527f41697264726f705574696c733a2062616c616e63654f66206661696c65640000604082015260600190565b6020808252818101527f41697264726f705574696c733a20746f74616c537570706c79206661696c6564604082015260600190565b60208082526018908201527f41697264726f703a20436c61696d206e6f7420656e6465640000000000000000604082015260600190565b602080825260149082015273105a5c991c9bdc0e8810db185a5b48195b99195960621b604082015260600190565b60208082526024908201527f41697264726f703a2045786365656420746f74616c2061697264726f7020616d6040820152631bdd5b9d60e21b606082015260800190565b6020808252818101527f4f776e61626c653a2063616c6c6572206973206e6f7420746865206f776e6572604082015260600190565b6020808252601a908201527f41697264726f703a20436c61696d206e6f742073746172746564000000000000604082015260600190565b6020808252601c908201527f41697264726f703a204e6f207265776172647320746f20636c61696d00000000604082015260600190565b6020808252601d908201527f41697264726f703a20746f6b656e4964206f7574206f662072616e6765000000604082015260600190565b6020808252602d908201527f41697264726f703a20636c61696d20646561646c696e65206d7573742062652060408201526c696e207468652066757475726560981b606082015260800190565b60208082526016908201527514995dd85c99081d1c985b9cd9995c8819985a5b195960521b604082015260600190565b60208082526033908201527f41697264726f703a205f61697264726f70546f74616c416d6f756e74206d75736040820152720742062652067726561746572207468616e203606c1b606082015260800190565b6020808252600e908201526d020b4b9323937b82aba34b6399d160951b604082015260600190565b60208082526036908201527f41697264726f703a20636c61696d2073746172746c696e65206d757374206265604082015275206265666f726520636c61696d20646561646c696e6560501b606082015260800190565b6020808252601f908201527f5265656e7472616e637947756172643a207265656e7472616e742063616c6c00604082015260600190565b60208082526026908201527f41697264726f705574696c733a20726577617264546f6b656e206e6f6e2d636f6040820152651b9d1c9858dd60d21b606082015260800190565b60208082526028908201527f41697264726f703a206e667420636f6e7472616374206d75737420626520612060408201526718dbdb9d1c9858dd60c21b606082015260800190565b90815260200190565b6001600160401b0391909116815260200190565b604051601f8201601f191681016001600160401b03811182821017156117ad576117ad611834565b604052919050565b600082198211156117c8576117c861181e565b500190565b60008160001904831182151516156117e7576117e761181e565b500290565b6000828210156117fe576117fe61181e565b500390565b60006000198214156118175761181761181e565b5060010190565b634e487b7160e01b600052601160045260246000fd5b634e487b7160e01b600052604160045260246000fdfea2646970667358221220d30bd1f333e9d3cad7d372629d5c271639eb5ad577ef26234eccf15b7a6a515f64736f6c63430008010033",
  "linkReferences": {},
  "deployedLinkReferences": {},
  "immutableReferences": {},
  "inputSourceName": "project/contracts/airdrop/airdrop.sol",
  "devdoc": {
    "kind": "dev",
    "methods": {
      "owner()": {
        "details": "Returns the address of the current owner."
      },
      "renounceOwnership()": {
        "details": "Leaves the contract without owner. It will not be possible to call `onlyOwner` functions. Can only be called by the current owner. NOTE: Renouncing ownership will leave the contract without an owner, thereby disabling any functionality that is only available to the owner."
      },
      "transferOwnership(address)": {
        "details": "Transfers ownership of the contract to a new account (`newOwner`). Can only be called by the current owner."
      }
    },
    "version": 1
  },
  "evm": {
    "gasEstimates": {
      "creation": {
        "codeDepositCost": "1254400",
        "executionCost": "64663",
        "totalCost": "1319063"
      },
      "external": {
        "airdropTotalAmount()": "1052",
        "claimDeadline()": "1138",
        "claimForNFT()": "infinite",
        "claimStartline()": "1110",
        "getClaimableReward(address)": "infinite",
        "getReferenceRewardAmount()": "infinite",
        "getRewardPerNFT(uint256)": "2133",
        "initialize(address,address,uint256[6],uint64,uint64,uint256)": "infinite",
        "isInitialized()": "1109",
        "nftContract()": "1092",
        "owner()": "1115",
        "renounceOwnership()": "infinite",
        "rewardToken()": "1136",
        "transferOwnership(address)": "23767",
        "withdrawRemainingToken()": "infinite"
      }
    }
  },
  "storageLayout": {
    "storage": [
      {
        "astId": 5015,
        "contract": "project/contracts/airdrop/airdrop.sol:Airdrop",
        "label": "_owner",
        "offset": 0,
        "slot": "0",
        "type": "t_address"
      },
      {
        "astId": 5257,
        "contract": "project/contracts/airdrop/airdrop.sol:Airdrop",
        "label": "_status",
        "offset": 0,
        "slot": "1",
        "type": "t_uint256"
      },
      {
        "astId": 649,
        "contract": "project/contracts/airdrop/airdrop.sol:Airdrop",
        "label": "rewardToken",
        "offset": 0,
        "slot": "2",
        "type": "t_address"
      },
      {
        "astId": 651,
        "contract": "project/contracts/airdrop/airdrop.sol:Airdrop",
        "label": "nftContract",
        "offset": 0,
        "slot": "3",
        "type": "t_address"
      },
      {
        "astId": 655,
        "contract": "project/contracts/airdrop/airdrop.sol:Airdrop",
        "label": "rewardPerNFT",
        "offset": 0,
        "slot": "4",
        "type": "t_mapping(t_uint256,t_uint256)"
      },
      {
        "astId": 665,
        "contract": "project/contracts/airdrop/airdrop.sol:Airdrop",
        "label": "claimDeadline",
        "offset": 0,
        "slot": "5",
        "type": "t_uint64"
      },
      {
        "astId": 675,
        "contract": "project/contracts/airdrop/airdrop.sol:Airdrop",
        "label": "claimStartline",
        "offset": 8,
        "slot": "5",
        "type": "t_uint64"
      },
      {
        "astId": 677,
        "contract": "project/contracts/airdrop/airdrop.sol:Airdrop",
        "label": "claimTime_initialized",
        "offset": 16,
        "slot": "5",
        "type": "t_uint8"
      },
      {
        "astId": 679,
        "contract": "project/contracts/airdrop/airdrop.sol:Airdrop",
        "label": "airdropTotalAmount",
        "offset": 0,
        "slot": "6",
        "type": "t_uint256"
      },
      {
        "astId": 685,
        "contract": "project/contracts/airdrop/airdrop.sol:Airdrop",
        "label": "tokenClaimed",
        "offset": 0,
        "slot": "7",
        "type": "t_mapping(t_uint256,t_mapping(t_uint256,t_bool))"
      }
    ],
    "types": {
      "t_address": {
        "encoding": "inplace",
        "label": "address",
        "numberOfBytes": "20"
      },
      "t_bool": {
        "encoding": "inplace",
        "label": "bool",
        "numberOfBytes": "1"
      },
      "t_mapping(t_uint256,t_bool)": {
        "encoding": "mapping",
        "key": "t_uint256",
        "label": "mapping(uint256 => bool)",
        "numberOfBytes": "32",
        "value": "t_bool"
      },
      "t_mapping(t_uint256,t_mapping(t_uint256,t_bool))": {
        "encoding": "mapping",
        "key": "t_uint256",
        "label": "mapping(uint256 => mapping(uint256 => bool))",
        "numberOfBytes": "32",
        "value": "t_mapping(t_uint256,t_bool)"
      },
      "t_mapping(t_uint256,t_uint256)": {
        "encoding": "mapping",
        "key": "t_uint256",
        "label": "mapping(uint256 => uint256)",
        "numberOfBytes": "32",
        "value": "t_uint256"
      },
      "t_uint256": {
        "encoding": "inplace",
        "label": "uint256",
        "numberOfBytes": "32"
      },
      "t_uint64": {
        "encoding": "inplace",
        "label": "uint64",
        "numberOfBytes": "8"
      },
      "t_uint8": {
        "encoding": "inplace",
        "label": "uint8",
        "numberOfBytes": "1"
      }
    }
  },
  "userdoc": {
    "kind": "user",
    "methods": {},
    "version": 1
  },
  "argsData": "0x",
  "transaction": {
    "hash": "0x86b61434202e96172d5a49bb00c996d1d629866774e133abda56a1bb9ac27485",
    "nonce": "0x9",
    "origin": "0xf39fd6e51aad88f6f4ce6ab8827279cfffb92266"
  }
}