{
  "address": "0x0165878a594ca255338adfa4d48449f69242eb8f",
  "abi": [
    {
      "anonymous": false,
      "inputs": [
        {
          "indexed": true,
          "internalType": "address",
          "name": "owner",
          "type": "address"
        },
        {
          "indexed": true,
          "internalType": "address",
          "name": "spender",
          "type": "address"
        },
        {
          "indexed": false,
          "internalType": "uint256",
          "name": "value",
          "type": "uint256"
        }
      ],
      "name": "Approval",
      "type": "event"
    },
    {
      "anonymous": false,
      "inputs": [
        {
          "indexed": true,
          "internalType": "address",
          "name": "from",
          "type": "address"
        },
        {
          "indexed": true,
          "internalType": "address",
          "name": "to",
          "type": "address"
        },
        {
          "indexed": false,
          "internalType": "uint256",
          "name": "value",
          "type": "uint256"
        }
      ],
      "name": "Transfer",
      "type": "event"
    },
    {
      "inputs": [
        {
          "internalType": "address",
          "name": "to",
          "type": "address"
        },
        {
          "internalType": "uint256",
          "name": "amount",
          "type": "uint256"
        }
      ],
      "name": "_mintExample",
      "outputs": [],
      "stateMutability": "nonpayable",
      "type": "function"
    },
    {
      "inputs": [
        {
          "internalType": "address",
          "name": "owner",
          "type": "address"
        },
        {
          "internalType": "address",
          "name": "spender",
          "type": "address"
        }
      ],
      "name": "allowance",
      "outputs": [
        {
          "internalType": "uint256",
          "name": "",
          "type": "uint256"
        }
      ],
      "stateMutability": "view",
      "type": "function"
    },
    {
      "inputs": [
        {
          "internalType": "address",
          "name": "spender",
          "type": "address"
        },
        {
          "internalType": "uint256",
          "name": "amount",
          "type": "uint256"
        }
      ],
      "name": "approve",
      "outputs": [
        {
          "internalType": "bool",
          "name": "",
          "type": "bool"
        }
      ],
      "stateMutability": "nonpayable",
      "type": "function"
    },
    {
      "inputs": [
        {
          "internalType": "address",
          "name": "",
          "type": "address"
        },
        {
          "internalType": "uint256",
          "name": "",
          "type": "uint256"
        }
      ],
      "name": "approveAndCall",
      "outputs": [
        {
          "internalType": "bool",
          "name": "",
          "type": "bool"
        }
      ],
      "stateMutability": "pure",
      "type": "function"
    },
    {
      "inputs": [
        {
          "internalType": "address",
          "name": "",
          "type": "address"
        },
        {
          "internalType": "uint256",
          "name": "",
          "type": "uint256"
        },
        {
          "internalType": "bytes",
          "name": "",
          "type": "bytes"
        }
      ],
      "name": "approveAndCall",
      "outputs": [
        {
          "internalType": "bool",
          "name": "",
          "type": "bool"
        }
      ],
      "stateMutability": "pure",
      "type": "function"
    },
    {
      "inputs": [
        {
          "internalType": "address",
          "name": "account",
          "type": "address"
        }
      ],
      "name": "balanceOf",
      "outputs": [
        {
          "internalType": "uint256",
          "name": "",
          "type": "uint256"
        }
      ],
      "stateMutability": "view",
      "type": "function"
    },
    {
      "inputs": [],
      "name": "decimals",
      "outputs": [
        {
          "internalType": "uint8",
          "name": "",
          "type": "uint8"
        }
      ],
      "stateMutability": "view",
      "type": "function"
    },
    {
      "inputs": [
        {
          "internalType": "address",
          "name": "spender",
          "type": "address"
        },
        {
          "internalType": "uint256",
          "name": "subtractedValue",
          "type": "uint256"
        }
      ],
      "name": "decreaseAllowance",
      "outputs": [
        {
          "internalType": "bool",
          "name": "",
          "type": "bool"
        }
      ],
      "stateMutability": "nonpayable",
      "type": "function"
    },
    {
      "inputs": [
        {
          "internalType": "address",
          "name": "spender",
          "type": "address"
        },
        {
          "internalType": "uint256",
          "name": "addedValue",
          "type": "uint256"
        }
      ],
      "name": "increaseAllowance",
      "outputs": [
        {
          "internalType": "bool",
          "name": "",
          "type": "bool"
        }
      ],
      "stateMutability": "nonpayable",
      "type": "function"
    },
    {
      "inputs": [],
      "name": "name",
      "outputs": [
        {
          "internalType": "string",
          "name": "",
          "type": "string"
        }
      ],
      "stateMutability": "view",
      "type": "function"
    },
    {
      "inputs": [
        {
          "internalType": "bytes4",
          "name": "interfaceId",
          "type": "bytes4"
        }
      ],
      "name": "supportsInterface",
      "outputs": [
        {
          "internalType": "bool",
          "name": "",
          "type": "bool"
        }
      ],
      "stateMutability": "view",
      "type": "function"
    },
    {
      "inputs": [],
      "name": "symbol",
      "outputs": [
        {
          "internalType": "string",
          "name": "",
          "type": "string"
        }
      ],
      "stateMutability": "view",
      "type": "function"
    },
    {
      "inputs": [],
      "name": "totalSupply",
      "outputs": [
        {
          "internalType": "uint256",
          "name": "",
          "type": "uint256"
        }
      ],
      "stateMutability": "view",
      "type": "function"
    },
    {
      "inputs": [
        {
          "internalType": "address",
          "name": "to",
          "type": "address"
        },
        {
          "internalType": "uint256",
          "name": "amount",
          "type": "uint256"
        }
      ],
      "name": "transfer",
      "outputs": [
        {
          "internalType": "bool",
          "name": "",
          "type": "bool"
        }
      ],
      "stateMutability": "nonpayable",
      "type": "function"
    },
    {
      "inputs": [
        {
          "internalType": "address",
          "name": "",
          "type": "address"
        },
        {
          "internalType": "uint256",
          "name": "",
          "type": "uint256"
        }
      ],
      "name": "transferAndCall",
      "outputs": [
        {
          "internalType": "bool",
          "name": "",
          "type": "bool"
        }
      ],
      "stateMutability": "pure",
      "type": "function"
    },
    {
      "inputs": [
        {
          "internalType": "address",
          "name": "to",
          "type": "address"
        },
        {
          "internalType": "uint256",
          "name": "value",
          "type": "uint256"
        },
        {
          "internalType": "bytes",
          "name": "data",
          "type": "bytes"
        }
      ],
      "name": "transferAndCall",
      "outputs": [
        {
          "internalType": "bool",
          "name": "",
          "type": "bool"
        }
      ],
      "stateMutability": "nonpayable",
      "type": "function"
    },
    {
      "inputs": [
        {
          "internalType": "address",
          "name": "from",
          "type": "address"
        },
        {
          "internalType": "address",
          "name": "to",
          "type": "address"
        },
        {
          "internalType": "uint256",
          "name": "amount",
          "type": "uint256"
        }
      ],
      "name": "transferFrom",
      "outputs": [
        {
          "internalType": "bool",
          "name": "",
          "type": "bool"
        }
      ],
      "stateMutability": "nonpayable",
      "type": "function"
    },
    {
      "inputs": [
        {
          "internalType": "address",
          "name": "",
          "type": "address"
        },
        {
          "internalType": "address",
          "name": "",
          "type": "address"
        },
        {
          "internalType": "uint256",
          "name": "",
          "type": "uint256"
        },
        {
          "internalType": "bytes",
          "name": "",
          "type": "bytes"
        }
      ],
      "name": "transferFromAndCall",
      "outputs": [
        {
          "internalType": "bool",
          "name": "",
          "type": "bool"
        }
      ],
      "stateMutability": "pure",
      "type": "function"
    },
    {
      "inputs": [
        {
          "internalType": "address",
          "name": "",
          "type": "address"
        },
        {
          "internalType": "address",
          "name": "",
          "type": "address"
        },
        {
          "internalType": "uint256",
          "name": "",
          "type": "uint256"
        }
      ],
      "name": "transferFromAndCall",
      "outputs": [
        {
          "internalType": "bool",
          "name": "",
          "type": "bool"
        }
      ],
      "stateMutability": "pure",
      "type": "function"
    }
  ],
  "contractName": "ERC1363Example",
  "sourceName": "contracts/test/ERC1363Example.sol",
  "bytecode": "0x608060405234801561001057600080fd5b50611048806100206000396000f3fe608060405234801561001057600080fd5b50600436106101215760003560e01c80634000aea0116100ad578063a9059cbb11610071578063a9059cbb14610230578063c1d34b8914610243578063cae9ca5114610251578063d8fbe9941461025f578063dd62ed3e1461026d57610121565b80634000aea0146101da57806370a08231146101ed57806395d89b4114610200578063998df48814610208578063a457c2d71461021d57610121565b806318160ddd116100f457806318160ddd1461018a57806323b872dd1461019f578063313ce567146101b25780633177029f1461017757806339509351146101c757610121565b806301ffc9a71461012657806306fdde031461014f578063095ea7b3146101645780631296ee6214610177575b600080fd5b610139610134366004610b60565b610280565b6040516101469190610c20565b60405180910390f35b6101576102ad565b6040516101469190610c2b565b610139610172366004610ae2565b61033f565b610139610185366004610ae2565b610361565b610192610384565b6040516101469190610f6d565b6101396101ad366004610a41565b61038a565b6101ba6103b8565b6040516101469190610f76565b6101396101d5366004610ae2565b6103bd565b6101396101e8366004610b0b565b6103e9565b6101926101fb3660046109ee565b61044d565b610157610468565b61021b610216366004610ae2565b610477565b005b61013961022b366004610ae2565b610485565b61013961023e366004610ae2565b6104cd565b610139610185366004610a7c565b610139610185366004610b0b565b610139610185366004610a41565b61019261027b366004610a0f565b6104e5565b60006001600160e01b0319821663b0202a1160e01b14806102a557506102a582610510565b90505b919050565b6060600480546102bc90610fa8565b80601f01602080910402602001604051908101604052809291908181526020018280546102e890610fa8565b80156103355780601f1061030a57610100808354040283529160200191610335565b820191906000526020600020905b81548152906001019060200180831161031857829003601f168201915b5050505050905090565b60008061034a610550565b9050610357818585610554565b5060019392505050565b600060405162461bcd60e51b815260040161037b90610d77565b60405180910390fd5b60035490565b600080610395610550565b90506103a2858285610608565b6103ad858585610652565b506001949350505050565b600990565b6000806103c8610550565b90506103578185856103da85896104e5565b6103e49190610f84565b610554565b6000815160401461040c5760405162461bcd60e51b815260040161037b90610c81565b61041684846104cd565b6104325760405162461bcd60e51b815260040161037b90610eba565b61035761043d610550565b610445610550565b868686610753565b6001600160a01b031660009081526001602052604090205490565b6060600580546102bc90610fa8565b6104818282610888565b5050565b600080610490610550565b9050600061049e82866104e5565b9050838110156104c05760405162461bcd60e51b815260040161037b90610ef1565b6103ad8286868403610554565b6000806104d8610550565b9050610357818585610652565b6001600160a01b03918216600090815260026020908152604080832093909416825291909152205490565b60006001600160e01b031982166336372b0760e01b148061054157506001600160e01b0319821663a219a02560e01b145b806102a557506102a582610932565b3390565b6001600160a01b03831661057a5760405162461bcd60e51b815260040161037b90610e76565b6001600160a01b0382166105a05760405162461bcd60e51b815260040161037b90610cb8565b6001600160a01b0380841660008181526002602090815260408083209487168084529490915290819020849055517f8c5be1e5ebec7d5bd14f71427d1e84f3dd0314c0f7b2291e5b200ac8c7c3b925906105fb908590610f6d565b60405180910390a3505050565b600061061484846104e5565b9050600019811461064c578181101561063f5760405162461bcd60e51b815260040161037b90610cfa565b61064c8484848403610554565b50505050565b6001600160a01b0383166106785760405162461bcd60e51b815260040161037b90610e31565b6001600160a01b03821661069e5760405162461bcd60e51b815260040161037b90610c3e565b6106a983838361094b565b6001600160a01b038316600090815260016020526040902054818110156106e25760405162461bcd60e51b815260040161037b90610d31565b6001600160a01b0380851660008181526001602052604080822086860390559286168082529083902080548601905591517fddf252ad1be2c89b69c2b068fc378daa952ba7f163c4a11628f55a4df523b3ef90610740908690610f6d565b60405180910390a361064c84848461094b565b6001600160a01b0383163b61077a5760405162461bcd60e51b815260040161037b90610dae565b604051632229f29760e21b81526001600160a01b038416906388a7ca5c906107ac908890889087908790600401610be3565b602060405180830381600087803b1580156107c657600080fd5b505af19250505080156107f6575060408051601f3d908101601f191682019092526107f391810190610b7c565b60015b610850573d808015610824576040519150601f19603f3d011682016040523d82523d6000602084013e610829565b606091505b5080516108485760405162461bcd60e51b815260040161037b90610def565b805160208201fd5b6001600160e01b03198116632229f29760e21b146108805760405162461bcd60e51b815260040161037b90610def565b505050505050565b6001600160a01b0382166108ae5760405162461bcd60e51b815260040161037b90610f36565b6108ba6000838361094b565b80600360008282546108cc9190610f84565b90915550506001600160a01b038216600081815260016020526040808220805485019055517fddf252ad1be2c89b69c2b068fc378daa952ba7f163c4a11628f55a4df523b3ef9061091e908590610f6d565b60405180910390a36104816000838361094b565b6001600160e01b031981166301ffc9a760e01b14919050565b505050565b80356001600160a01b03811681146102a857600080fd5b600082601f830112610977578081fd5b813567ffffffffffffffff8082111561099257610992610fe3565b604051601f8301601f19908116603f011681019082821181831017156109ba576109ba610fe3565b816040528381528660208588010111156109d2578485fd5b8360208701602083013792830160200193909352509392505050565b6000602082840312156109ff578081fd5b610a0882610950565b9392505050565b60008060408385031215610a21578081fd5b610a2a83610950565b9150610a3860208401610950565b90509250929050565b600080600060608486031215610a55578081fd5b610a5e84610950565b9250610a6c60208501610950565b9150604084013590509250925092565b60008060008060808587031215610a91578081fd5b610a9a85610950565b9350610aa860208601610950565b925060408501359150606085013567ffffffffffffffff811115610aca578182fd5b610ad687828801610967565b91505092959194509250565b60008060408385031215610af4578182fd5b610afd83610950565b946020939093013593505050565b600080600060608486031215610b1f578283fd5b610b2884610950565b925060208401359150604084013567ffffffffffffffff811115610b4a578182fd5b610b5686828701610967565b9150509250925092565b600060208284031215610b71578081fd5b8135610a0881610ff9565b600060208284031215610b8d578081fd5b8151610a0881610ff9565b60008151808452815b81811015610bbd57602081850181015186830182015201610ba1565b81811115610bce5782602083870101525b50601f01601f19169290920160200192915050565b6001600160a01b0385811682528416602082015260408101839052608060608201819052600090610c1690830184610b98565b9695505050505050565b901515815260200190565b600060208252610a086020830184610b98565b60208082526023908201527f45524332303a207472616e7366657220746f20746865207a65726f206164647260408201526265737360e81b606082015260800190565b6020808252601c908201527f455243313336333a20696e76616c6964206461746120666f726d617400000000604082015260600190565b60208082526022908201527f45524332303a20617070726f766520746f20746865207a65726f206164647265604082015261737360f01b606082015260800190565b6020808252601d908201527f45524332303a20696e73756666696369656e7420616c6c6f77616e6365000000604082015260600190565b60208082526026908201527f45524332303a207472616e7366657220616d6f756e7420657863656564732062604082015265616c616e636560d01b606082015260800190565b60208082526019908201527f4e6f7420616c6c6f77656420746f20626520696e766f6b656400000000000000604082015260600190565b60208082526021908201527f455243313336333a207472616e7366657220746f206e6f6e2d636f6e747261636040820152601d60fa1b606082015260800190565b60208082526022908201527f455243313336333a20746f206973206120696e636f7272656374206164647265604082015261737360f01b606082015260800190565b60208082526025908201527f45524332303a207472616e736665722066726f6d20746865207a65726f206164604082015264647265737360d81b606082015260800190565b60208082526024908201527f45524332303a20617070726f76652066726f6d20746865207a65726f206164646040820152637265737360e01b606082015260800190565b60208082526018908201527f455243313336333a207472616e73666572206661696c65640000000000000000604082015260600190565b60208082526025908201527f45524332303a2064656372656173656420616c6c6f77616e63652062656c6f77604082015264207a65726f60d81b606082015260800190565b6020808252601f908201527f45524332303a206d696e7420746f20746865207a65726f206164647265737300604082015260600190565b90815260200190565b60ff91909116815260200190565b60008219821115610fa357634e487b7160e01b81526011600452602481fd5b500190565b600281046001821680610fbc57607f821691505b60208210811415610fdd57634e487b7160e01b600052602260045260246000fd5b50919050565b634e487b7160e01b600052604160045260246000fd5b6001600160e01b03198116811461100f57600080fd5b5056fea26469706673582212203e45b72c09abe71dab76cd0078aef2ec91b7b7709818993b15a44f8981c8425e64736f6c63430008010033",
  "linkReferences": {},
  "deployedLinkReferences": {},
  "immutableReferences": {},
  "inputSourceName": "project/contracts/test/ERC1363Example.sol",
  "devdoc": {
    "kind": "dev",
    "methods": {
      "allowance(address,address)": {
        "details": "See {IERC20-allowance}."
      },
      "approve(address,uint256)": {
        "details": "See {IERC20-approve}. NOTE: If `amount` is the maximum `uint256`, the allowance is not updated on `transferFrom`. This is semantically equivalent to an infinite approval. Requirements: - `spender` cannot be the zero address."
      },
      "approveAndCall(address,uint256)": {
        "details": "Sets a `value` amount of tokens as the allowance of `spender` over the caller's tokens and then calls {IERC1363Spender-onApprovalReceived} on `spender`. Returns a flag that indicates if the call succeeded. 没有实现 Requirements: - The target has code (i.e. is a contract). - The target `spender` must implement the {IERC1363Spender} interface. - The target must return the {IERC1363Spender-onApprovalReceived} selector to accept the approval. - The internal {approve} must succeed (returned `true`)."
      },
      "approveAndCall(address,uint256,bytes)": {
        "details": "Variant of {approveAndCall} that accepts an additional `data` parameter with no specified format. 没有实现"
      },
      "balanceOf(address)": {
        "details": "See {IERC20-balanceOf}."
      },
      "decimals()": {
        "details": "Returns the number of decimals used to get its user representation. For example, if `decimals` equals `2`, a balance of `505` tokens should be displayed to a user as `5.05` (`505 / 10 ** 2`). Tokens usually opt for a value of 18, imitating the relationship between Ether and Wei. This is the default value returned by this function, unless it's overridden. NOTE: This information is only used for _display_ purposes: it in no way affects any of the arithmetic of the contract, including {IERC20-balanceOf} and {IERC20-transfer}."
      },
      "decreaseAllowance(address,uint256)": {
        "details": "Atomically decreases the allowance granted to `spender` by the caller. This is an alternative to {approve} that can be used as a mitigation for problems described in {IERC20-approve}. Emits an {Approval} event indicating the updated allowance. Requirements: - `spender` cannot be the zero address. - `spender` must have allowance for the caller of at least `subtractedValue`."
      },
      "increaseAllowance(address,uint256)": {
        "details": "Atomically increases the allowance granted to `spender` by the caller. This is an alternative to {approve} that can be used as a mitigation for problems described in {IERC20-approve}. Emits an {Approval} event indicating the updated allowance. Requirements: - `spender` cannot be the zero address."
      },
      "name()": {
        "details": "Returns the name of the token."
      },
      "symbol()": {
        "details": "Returns the symbol of the token, usually a shorter version of the name."
      },
      "totalSupply()": {
        "details": "See {IERC20-totalSupply}."
      },
      "transfer(address,uint256)": {
        "details": "See {IERC20-transfer}. Requirements: - `to` cannot be the zero address. - the caller must have a balance of at least `amount`."
      },
      "transferAndCall(address,uint256)": {
        "details": "Moves a `value` amount of tokens from the caller's account to `to` and then calls {IERC1363Receiver-onTransferReceived} on `to`. Returns a flag that indicates if the call succeeded. Requirements: - The target has code (i.e. is a contract). - The target `to` must implement the {IERC1363Receiver} interface. - The target must return the {IERC1363Receiver-onTransferReceived} selector to accept the transfer. - The internal {transfer} must succeed (returned `true`)."
      },
      "transferAndCall(address,uint256,bytes)": {
        "details": "Variant of {transferAndCall} that accepts an additional `data` parameter with no specified format.",
        "params": {
          "data": "tokenID + buyAmount (each uint256), 64 bytes total",
          "to": "NFT合约的地址，花费value的token购买“buyAmount”数量的NFT",
          "value": "花费的token数量"
        }
      },
      "transferFrom(address,address,uint256)": {
        "details": "See {IERC20-transferFrom}. Emits an {Approval} event indicating the updated allowance. This is not required by the EIP. See the note at the beginning of {ERC20}. NOTE: Does not update the allowance if the current allowance is the maximum `uint256`. Requirements: - `from` and `to` cannot be the zero address. - `from` must have a balance of at least `amount`. - the caller must have allowance for ``from``'s tokens of at least `amount`."
      },
      "transferFromAndCall(address,address,uint256)": {
        "details": "Moves a `value` amount of tokens from `from` to `to` using the allowance mechanism and then calls {IERC1363Receiver-onTransferReceived} on `to`. Returns a flag that indicates if the call succeeded. 没有实现 Requirements: - The target has code (i.e. is a contract). - The target `to` must implement the {IERC1363Receiver} interface. - The target must return the {IERC1363Receiver-onTransferReceived} selector to accept the transfer. - The internal {transferFrom} must succeed (returned `true`)."
      },
      "transferFromAndCall(address,address,uint256,bytes)": {
        "details": "Variant of {transferFromAndCall} that accepts an additional `data` parameter with no specified format. 没有实现"
      }
    },
    "version": 1
  },
  "evm": {
    "gasEstimates": {
      "creation": {
        "codeDepositCost": "833600",
        "executionCost": "870",
        "totalCost": "834470"
      },
      "external": {
        "_mintExample(address,uint256)": "infinite",
        "allowance(address,address)": "infinite",
        "approve(address,uint256)": "22664",
        "approveAndCall(address,uint256)": "544",
        "approveAndCall(address,uint256,bytes)": "infinite",
        "balanceOf(address)": "1315",
        "decimals()": "307",
        "decreaseAllowance(address,uint256)": "23756",
        "increaseAllowance(address,uint256)": "23784",
        "name()": "infinite",
        "supportsInterface(bytes4)": "infinite",
        "symbol()": "infinite",
        "totalSupply()": "1051",
        "transfer(address,uint256)": "infinite",
        "transferAndCall(address,uint256)": "545",
        "transferAndCall(address,uint256,bytes)": "infinite",
        "transferFrom(address,address,uint256)": "infinite",
        "transferFromAndCall(address,address,uint256)": "infinite",
        "transferFromAndCall(address,address,uint256,bytes)": "infinite"
      }
    }
  },
  "storageLayout": {
    "storage": [
      {
        "astId": 3012,
        "contract": "project/contracts/test/ERC1363Example.sol:ERC1363Example",
        "label": "_initialized",
        "offset": 0,
        "slot": "0",
        "type": "t_bool"
      },
      {
        "astId": 3015,
        "contract": "project/contracts/test/ERC1363Example.sol:ERC1363Example",
        "label": "_initializing",
        "offset": 1,
        "slot": "0",
        "type": "t_bool"
      },
      {
        "astId": 3280,
        "contract": "project/contracts/test/ERC1363Example.sol:ERC1363Example",
        "label": "_balances",
        "offset": 0,
        "slot": "1",
        "type": "t_mapping(t_address,t_uint256)"
      },
      {
        "astId": 3286,
        "contract": "project/contracts/test/ERC1363Example.sol:ERC1363Example",
        "label": "_allowances",
        "offset": 0,
        "slot": "2",
        "type": "t_mapping(t_address,t_mapping(t_address,t_uint256))"
      },
      {
        "astId": 3288,
        "contract": "project/contracts/test/ERC1363Example.sol:ERC1363Example",
        "label": "_totalSupply",
        "offset": 0,
        "slot": "3",
        "type": "t_uint256"
      },
      {
        "astId": 3290,
        "contract": "project/contracts/test/ERC1363Example.sol:ERC1363Example",
        "label": "_name",
        "offset": 0,
        "slot": "4",
        "type": "t_string_storage"
      },
      {
        "astId": 3292,
        "contract": "project/contracts/test/ERC1363Example.sol:ERC1363Example",
        "label": "_symbol",
        "offset": 0,
        "slot": "5",
        "type": "t_string_storage"
      }
    ],
    "types": {
      "t_address": {
        "encoding": "inplace",
        "label": "address",
        "numberOfBytes": "20"
      },
      "t_bool": {
        "encoding": "inplace",
        "label": "bool",
        "numberOfBytes": "1"
      },
      "t_mapping(t_address,t_mapping(t_address,t_uint256))": {
        "encoding": "mapping",
        "key": "t_address",
        "label": "mapping(address => mapping(address => uint256))",
        "numberOfBytes": "32",
        "value": "t_mapping(t_address,t_uint256)"
      },
      "t_mapping(t_address,t_uint256)": {
        "encoding": "mapping",
        "key": "t_address",
        "label": "mapping(address => uint256)",
        "numberOfBytes": "32",
        "value": "t_uint256"
      },
      "t_string_storage": {
        "encoding": "bytes",
        "label": "string",
        "numberOfBytes": "32"
      },
      "t_uint256": {
        "encoding": "inplace",
        "label": "uint256",
        "numberOfBytes": "32"
      }
    }
  },
  "userdoc": {
    "kind": "user",
    "methods": {},
    "version": 1
  },
  "argsData": "0x",
  "transaction": {
    "hash": "0x1270274bf77ff120ae7316c1e65007e7418727f045ef0b8b5d581cba852e8f73",
    "nonce": "0x6",
    "origin": "0xf39fd6e51aad88f6f4ce6ab8827279cfffb92266"
  }
}