{
  "address": "0xa513e6e4b8f2a923d98304ec87f64353c4d5c853",
  "abi": [
    {
      "anonymous": false,
      "inputs": [
        {
          "indexed": true,
          "internalType": "address",
          "name": "owner",
          "type": "address"
        },
        {
          "indexed": true,
          "internalType": "address",
          "name": "spender",
          "type": "address"
        },
        {
          "indexed": false,
          "internalType": "uint256",
          "name": "value",
          "type": "uint256"
        }
      ],
      "name": "Approval",
      "type": "event"
    },
    {
      "anonymous": false,
      "inputs": [
        {
          "indexed": true,
          "internalType": "address",
          "name": "previousOwner",
          "type": "address"
        },
        {
          "indexed": true,
          "internalType": "address",
          "name": "newOwner",
          "type": "address"
        }
      ],
      "name": "OwnershipTransferred",
      "type": "event"
    },
    {
      "anonymous": false,
      "inputs": [
        {
          "indexed": true,
          "internalType": "address",
          "name": "from",
          "type": "address"
        },
        {
          "indexed": true,
          "internalType": "address",
          "name": "to",
          "type": "address"
        },
        {
          "indexed": false,
          "internalType": "uint256",
          "name": "value",
          "type": "uint256"
        }
      ],
      "name": "Transfer",
      "type": "event"
    },
    {
      "inputs": [
        {
          "internalType": "address",
          "name": "owner",
          "type": "address"
        },
        {
          "internalType": "address",
          "name": "spender",
          "type": "address"
        }
      ],
      "name": "allowance",
      "outputs": [
        {
          "internalType": "uint256",
          "name": "",
          "type": "uint256"
        }
      ],
      "stateMutability": "view",
      "type": "function"
    },
    {
      "inputs": [
        {
          "internalType": "address",
          "name": "spender",
          "type": "address"
        },
        {
          "internalType": "uint256",
          "name": "amount",
          "type": "uint256"
        }
      ],
      "name": "approve",
      "outputs": [
        {
          "internalType": "bool",
          "name": "",
          "type": "bool"
        }
      ],
      "stateMutability": "nonpayable",
      "type": "function"
    },
    {
      "inputs": [
        {
          "internalType": "address",
          "name": "account",
          "type": "address"
        }
      ],
      "name": "balanceOf",
      "outputs": [
        {
          "internalType": "uint256",
          "name": "",
          "type": "uint256"
        }
      ],
      "stateMutability": "view",
      "type": "function"
    },
    {
      "inputs": [],
      "name": "decimals",
      "outputs": [
        {
          "internalType": "uint8",
          "name": "",
          "type": "uint8"
        }
      ],
      "stateMutability": "view",
      "type": "function"
    },
    {
      "inputs": [
        {
          "internalType": "address",
          "name": "spender",
          "type": "address"
        },
        {
          "internalType": "uint256",
          "name": "subtractedValue",
          "type": "uint256"
        }
      ],
      "name": "decreaseAllowance",
      "outputs": [
        {
          "internalType": "bool",
          "name": "",
          "type": "bool"
        }
      ],
      "stateMutability": "nonpayable",
      "type": "function"
    },
    {
      "inputs": [],
      "name": "getDeadAddress",
      "outputs": [
        {
          "internalType": "address",
          "name": "",
          "type": "address"
        }
      ],
      "stateMutability": "pure",
      "type": "function"
    },
    {
      "inputs": [
        {
          "internalType": "address",
          "name": "spender",
          "type": "address"
        },
        {
          "internalType": "uint256",
          "name": "addedValue",
          "type": "uint256"
        }
      ],
      "name": "increaseAllowance",
      "outputs": [
        {
          "internalType": "bool",
          "name": "",
          "type": "bool"
        }
      ],
      "stateMutability": "nonpayable",
      "type": "function"
    },
    {
      "inputs": [
        {
          "internalType": "address",
          "name": "to",
          "type": "address"
        },
        {
          "internalType": "uint256",
          "name": "amount",
          "type": "uint256"
        }
      ],
      "name": "mint",
      "outputs": [],
      "stateMutability": "nonpayable",
      "type": "function"
    },
    {
      "inputs": [],
      "name": "name",
      "outputs": [
        {
          "internalType": "string",
          "name": "",
          "type": "string"
        }
      ],
      "stateMutability": "view",
      "type": "function"
    },
    {
      "inputs": [],
      "name": "owner",
      "outputs": [
        {
          "internalType": "address",
          "name": "",
          "type": "address"
        }
      ],
      "stateMutability": "view",
      "type": "function"
    },
    {
      "inputs": [],
      "name": "renounceOwnership",
      "outputs": [],
      "stateMutability": "nonpayable",
      "type": "function"
    },
    {
      "inputs": [
        {
          "internalType": "bytes4",
          "name": "interfaceId",
          "type": "bytes4"
        }
      ],
      "name": "supportsInterface",
      "outputs": [
        {
          "internalType": "bool",
          "name": "",
          "type": "bool"
        }
      ],
      "stateMutability": "view",
      "type": "function"
    },
    {
      "inputs": [],
      "name": "symbol",
      "outputs": [
        {
          "internalType": "string",
          "name": "",
          "type": "string"
        }
      ],
      "stateMutability": "view",
      "type": "function"
    },
    {
      "inputs": [],
      "name": "totalSupply",
      "outputs": [
        {
          "internalType": "uint256",
          "name": "",
          "type": "uint256"
        }
      ],
      "stateMutability": "view",
      "type": "function"
    },
    {
      "inputs": [
        {
          "internalType": "address",
          "name": "to",
          "type": "address"
        },
        {
          "internalType": "uint256",
          "name": "amount",
          "type": "uint256"
        }
      ],
      "name": "transfer",
      "outputs": [
        {
          "internalType": "bool",
          "name": "",
          "type": "bool"
        }
      ],
      "stateMutability": "nonpayable",
      "type": "function"
    },
    {
      "inputs": [
        {
          "internalType": "address",
          "name": "from",
          "type": "address"
        },
        {
          "internalType": "address",
          "name": "to",
          "type": "address"
        },
        {
          "internalType": "uint256",
          "name": "amount",
          "type": "uint256"
        }
      ],
      "name": "transferFrom",
      "outputs": [
        {
          "internalType": "bool",
          "name": "",
          "type": "bool"
        }
      ],
      "stateMutability": "nonpayable",
      "type": "function"
    },
    {
      "inputs": [
        {
          "internalType": "address",
          "name": "newOwner",
          "type": "address"
        }
      ],
      "name": "transferOwnership",
      "outputs": [],
      "stateMutability": "nonpayable",
      "type": "function"
    }
  ],
  "contractName": "RewardContract",
  "sourceName": "contracts/airdrop/rewardContract.sol",
  "bytecode": "0x60806040526000805462ff00001916905534801561001c57600080fd5b5061002d610028610032565b610036565b610088565b3390565b600680546001600160a01b038381166001600160a01b0319831681179093556040519116919082907f8be0079c531659141344cd1fd0a4f28419497f9722a3daafe3b4186f6b6457e090600090a35050565b610d65806100976000396000f3fe608060405234801561001057600080fd5b506004361061010b5760003560e01c806370a08231116100a2578063a457c2d711610071578063a457c2d7146101fe578063a9059cbb14610211578063b0feb13014610224578063dd62ed3e1461022c578063f2fde38b1461023f5761010b565b806370a08231146101c6578063715018a6146101d95780638da5cb5b146101e157806395d89b41146101f65761010b565b806323b872dd116100de57806323b872dd14610176578063313ce56714610189578063395093511461019e57806340c10f19146101b15761010b565b806301ffc9a71461011057806306fdde0314610139578063095ea7b31461014e57806318160ddd14610161575b600080fd5b61012361011e366004610959565b610252565b6040516101309190610995565b60405180910390f35b61014161029a565b60405161013091906109a0565b61012361015c366004610930565b61032c565b61016961034e565b6040516101309190610cb9565b6101236101843660046108f5565b610354565b6101916103ab565b6040516101309190610cc2565b6101236101ac366004610930565b6103b0565b6101c46101bf366004610930565b6103dc565b005b6101696101d43660046108a2565b6103f2565b6101c461040d565b6101e9610421565b6040516101309190610981565b610141610430565b61012361020c366004610930565b61043f565b61012361021f366004610930565b610487565b6101e961049f565b61016961023a3660046108c3565b6104a5565b6101c461024d3660046108a2565b6104d0565b60006001600160e01b031982166336372b0760e01b148061028357506001600160e01b0319821663a219a02560e01b145b8061029257506102928261050a565b90505b919050565b6060600480546102a990610cf4565b80601f01602080910402602001604051908101604052809291908181526020018280546102d590610cf4565b80156103225780601f106102f757610100808354040283529160200191610322565b820191906000526020600020905b81548152906001019060200180831161030557829003601f168201915b5050505050905090565b600080610337610523565b9050610344818585610527565b5060019392505050565b60035490565b600080821161037e5760405162461bcd60e51b815260040161037590610a36565b60405180910390fd5b6000610388610523565b90506103958582856105e9565b6103a0858585610633565b506001949350505050565b600990565b6000806103bb610523565b90506103448185856103cd85896104a5565b6103d79190610cd0565b610527565b6103e4610740565b6103ee828261077f565b5050565b6001600160a01b031660009081526001602052604090205490565b610415610740565b61041f6000610834565b565b6006546001600160a01b031690565b6060600580546102a990610cf4565b60008061044a610523565b9050600061045882866104a5565b90508381101561047a5760405162461bcd60e51b815260040161037590610c3d565b6103a08286868403610527565b600080610492610523565b9050610344818585610633565b61dead90565b6001600160a01b03918216600090815260026020908152604080832093909416825291909152205490565b6104d8610740565b6001600160a01b0381166104fe5760405162461bcd60e51b815260040161037590610a7a565b61050781610834565b50565b6001600160e01b031981166301ffc9a760e01b14919050565b3390565b6001600160a01b03831661054d5760405162461bcd60e51b815260040161037590610bf9565b6001600160a01b0382166105735760405162461bcd60e51b815260040161037590610ac0565b6000805462ff0000191681556001600160a01b03808516808352600260209081526040808520938716808652939091529283902084905591519091907f8c5be1e5ebec7d5bd14f71427d1e84f3dd0314c0f7b2291e5b200ac8c7c3b925906105dc908590610cb9565b60405180910390a3505050565b60006105f584846104a5565b9050600019811461062d57818110156106205760405162461bcd60e51b815260040161037590610b02565b61062d8484848403610527565b50505050565b6001600160a01b0383166106595760405162461bcd60e51b815260040161037590610bb4565b6001600160a01b03821661067f5760405162461bcd60e51b8152600401610375906109f3565b6000805462ff000019169055610696838383610886565b6001600160a01b038316600090815260016020526040902054818110156106cf5760405162461bcd60e51b815260040161037590610b39565b6001600160a01b0380851660008181526001602052604080822086860390559286168082529083902080548601905591517fddf252ad1be2c89b69c2b068fc378daa952ba7f163c4a11628f55a4df523b3ef9061072d908690610cb9565b60405180910390a361062d848484610886565b610748610523565b6001600160a01b0316610759610421565b6001600160a01b03161461041f5760405162461bcd60e51b815260040161037590610b7f565b6001600160a01b0382166107a55760405162461bcd60e51b815260040161037590610c82565b6000805462ff0000191681556107bc908383610886565b80600360008282546107ce9190610cd0565b90915550506001600160a01b038216600081815260016020526040808220805485019055517fddf252ad1be2c89b69c2b068fc378daa952ba7f163c4a11628f55a4df523b3ef90610820908590610cb9565b60405180910390a36103ee60008383610886565b600680546001600160a01b038381166001600160a01b0319831681179093556040519116919082907f8be0079c531659141344cd1fd0a4f28419497f9722a3daafe3b4186f6b6457e090600090a35050565b505050565b80356001600160a01b038116811461029557600080fd5b6000602082840312156108b3578081fd5b6108bc8261088b565b9392505050565b600080604083850312156108d5578081fd5b6108de8361088b565b91506108ec6020840161088b565b90509250929050565b600080600060608486031215610909578081fd5b6109128461088b565b92506109206020850161088b565b9150604084013590509250925092565b60008060408385031215610942578182fd5b61094b8361088b565b946020939093013593505050565b60006020828403121561096a578081fd5b81356001600160e01b0319811681146108bc578182fd5b6001600160a01b0391909116815260200190565b901515815260200190565b6000602080835283518082850152825b818110156109cc578581018301518582016040015282016109b0565b818111156109dd5783604083870101525b50601f01601f1916929092016040019392505050565b60208082526023908201527f45524332303a207472616e7366657220746f20746865207a65726f206164647260408201526265737360e81b606082015260800190565b60208082526024908201527f45524332303a20416d6f756e74206d75737420626520677265617465722074686040820152630616e20360e41b606082015260800190565b60208082526026908201527f4f776e61626c653a206e6577206f776e657220697320746865207a65726f206160408201526564647265737360d01b606082015260800190565b60208082526022908201527f45524332303a20617070726f766520746f20746865207a65726f206164647265604082015261737360f01b606082015260800190565b6020808252601d908201527f45524332303a20696e73756666696369656e7420616c6c6f77616e6365000000604082015260600190565b60208082526026908201527f45524332303a207472616e7366657220616d6f756e7420657863656564732062604082015265616c616e636560d01b606082015260800190565b6020808252818101527f4f776e61626c653a2063616c6c6572206973206e6f7420746865206f776e6572604082015260600190565b60208082526025908201527f45524332303a207472616e736665722066726f6d20746865207a65726f206164604082015264647265737360d81b606082015260800190565b60208082526024908201527f45524332303a20617070726f76652066726f6d20746865207a65726f206164646040820152637265737360e01b606082015260800190565b60208082526025908201527f45524332303a2064656372656173656420616c6c6f77616e63652062656c6f77604082015264207a65726f60d81b606082015260800190565b6020808252601f908201527f45524332303a206d696e7420746f20746865207a65726f206164647265737300604082015260600190565b90815260200190565b60ff91909116815260200190565b60008219821115610cef57634e487b7160e01b81526011600452602481fd5b500190565b600281046001821680610d0857607f821691505b60208210811415610d2957634e487b7160e01b600052602260045260246000fd5b5091905056fea264697066735822122014964823e71b54235c0e44981434926b1f040b039268bb3b3ccdfb77f858234c64736f6c63430008010033",
  "linkReferences": {},
  "deployedLinkReferences": {},
  "immutableReferences": {},
  "inputSourceName": "project/contracts/airdrop/rewardContract.sol",
  "devdoc": {
    "kind": "dev",
    "methods": {
      "allowance(address,address)": {
        "details": "See {IERC20-allowance}."
      },
      "approve(address,uint256)": {
        "details": "See {IERC20-approve}. NOTE: If `amount` is the maximum `uint256`, the allowance is not updated on `transferFrom`. This is semantically equivalent to an infinite approval. Requirements: - `spender` cannot be the zero address."
      },
      "balanceOf(address)": {
        "details": "See {IERC20-balanceOf}."
      },
      "decimals()": {
        "details": "Returns the number of decimals used to get its user representation. For example, if `decimals` equals `2`, a balance of `505` tokens should be displayed to a user as `5.05` (`505 / 10 ** 2`). Tokens usually opt for a value of 18, imitating the relationship between Ether and Wei. This is the default value returned by this function, unless it's overridden. NOTE: This information is only used for _display_ purposes: it in no way affects any of the arithmetic of the contract, including {IERC20-balanceOf} and {IERC20-transfer}."
      },
      "decreaseAllowance(address,uint256)": {
        "details": "Atomically decreases the allowance granted to `spender` by the caller. This is an alternative to {approve} that can be used as a mitigation for problems described in {IERC20-approve}. Emits an {Approval} event indicating the updated allowance. Requirements: - `spender` cannot be the zero address. - `spender` must have allowance for the caller of at least `subtractedValue`."
      },
      "increaseAllowance(address,uint256)": {
        "details": "Atomically increases the allowance granted to `spender` by the caller. This is an alternative to {approve} that can be used as a mitigation for problems described in {IERC20-approve}. Emits an {Approval} event indicating the updated allowance. Requirements: - `spender` cannot be the zero address."
      },
      "name()": {
        "details": "Returns the name of the token."
      },
      "owner()": {
        "details": "Returns the address of the current owner."
      },
      "renounceOwnership()": {
        "details": "Leaves the contract without owner. It will not be possible to call `onlyOwner` functions. Can only be called by the current owner. NOTE: Renouncing ownership will leave the contract without an owner, thereby disabling any functionality that is only available to the owner."
      },
      "supportsInterface(bytes4)": {
        "details": "See {IERC165-supportsInterface}."
      },
      "symbol()": {
        "details": "Returns the symbol of the token, usually a shorter version of the name."
      },
      "totalSupply()": {
        "details": "See {IERC20-totalSupply}."
      },
      "transfer(address,uint256)": {
        "details": "See {IERC20-transfer}. Requirements: - `to` cannot be the zero address. - the caller must have a balance of at least `amount`."
      },
      "transferFrom(address,address,uint256)": {
        "details": "See {IERC20-transferFrom}. Emits an {Approval} event indicating the updated allowance. This is not required by the EIP. See the note at the beginning of {ERC20}. NOTE: Does not update the allowance if the current allowance is the maximum `uint256`. Requirements: - `from` and `to` cannot be the zero address. - `from` must have a balance of at least `amount`. - the caller must have allowance for ``from``'s tokens of at least `amount`."
      },
      "transferOwnership(address)": {
        "details": "Transfers ownership of the contract to a new account (`newOwner`). Can only be called by the current owner."
      }
    },
    "version": 1
  },
  "evm": {
    "gasEstimates": {
      "creation": {
        "codeDepositCost": "685800",
        "executionCost": "44010",
        "totalCost": "729810"
      },
      "external": {
        "allowance(address,address)": "infinite",
        "approve(address,uint256)": "43491",
        "balanceOf(address)": "1293",
        "decimals()": "285",
        "decreaseAllowance(address,uint256)": "44494",
        "getDeadAddress()": "318",
        "increaseAllowance(address,uint256)": "44567",
        "mint(address,uint256)": "infinite",
        "name()": "infinite",
        "owner()": "1137",
        "renounceOwnership()": "infinite",
        "supportsInterface(bytes4)": "575",
        "symbol()": "infinite",
        "totalSupply()": "1118",
        "transfer(address,uint256)": "infinite",
        "transferFrom(address,address,uint256)": "infinite",
        "transferOwnership(address)": "23836"
      }
    }
  },
  "storageLayout": {
    "storage": [
      {
        "astId": 1269,
        "contract": "project/contracts/airdrop/rewardContract.sol:RewardContract",
        "label": "_initialized",
        "offset": 0,
        "slot": "0",
        "type": "t_bool"
      },
      {
        "astId": 1272,
        "contract": "project/contracts/airdrop/rewardContract.sol:RewardContract",
        "label": "_initializing",
        "offset": 1,
        "slot": "0",
        "type": "t_bool"
      },
      {
        "astId": 1531,
        "contract": "project/contracts/airdrop/rewardContract.sol:RewardContract",
        "label": "troubleshoot",
        "offset": 2,
        "slot": "0",
        "type": "t_bytes1"
      },
      {
        "astId": 1535,
        "contract": "project/contracts/airdrop/rewardContract.sol:RewardContract",
        "label": "_balances",
        "offset": 0,
        "slot": "1",
        "type": "t_mapping(t_address,t_uint256)"
      },
      {
        "astId": 1541,
        "contract": "project/contracts/airdrop/rewardContract.sol:RewardContract",
        "label": "_allowances",
        "offset": 0,
        "slot": "2",
        "type": "t_mapping(t_address,t_mapping(t_address,t_uint256))"
      },
      {
        "astId": 1543,
        "contract": "project/contracts/airdrop/rewardContract.sol:RewardContract",
        "label": "_totalSupply",
        "offset": 0,
        "slot": "3",
        "type": "t_uint256"
      },
      {
        "astId": 1545,
        "contract": "project/contracts/airdrop/rewardContract.sol:RewardContract",
        "label": "_name",
        "offset": 0,
        "slot": "4",
        "type": "t_string_storage"
      },
      {
        "astId": 1547,
        "contract": "project/contracts/airdrop/rewardContract.sol:RewardContract",
        "label": "_symbol",
        "offset": 0,
        "slot": "5",
        "type": "t_string_storage"
      },
      {
        "astId": 1053,
        "contract": "project/contracts/airdrop/rewardContract.sol:RewardContract",
        "label": "_owner",
        "offset": 0,
        "slot": "6",
        "type": "t_address"
      }
    ],
    "types": {
      "t_address": {
        "encoding": "inplace",
        "label": "address",
        "numberOfBytes": "20"
      },
      "t_bool": {
        "encoding": "inplace",
        "label": "bool",
        "numberOfBytes": "1"
      },
      "t_bytes1": {
        "encoding": "inplace",
        "label": "bytes1",
        "numberOfBytes": "1"
      },
      "t_mapping(t_address,t_mapping(t_address,t_uint256))": {
        "encoding": "mapping",
        "key": "t_address",
        "label": "mapping(address => mapping(address => uint256))",
        "numberOfBytes": "32",
        "value": "t_mapping(t_address,t_uint256)"
      },
      "t_mapping(t_address,t_uint256)": {
        "encoding": "mapping",
        "key": "t_address",
        "label": "mapping(address => uint256)",
        "numberOfBytes": "32",
        "value": "t_uint256"
      },
      "t_string_storage": {
        "encoding": "bytes",
        "label": "string",
        "numberOfBytes": "32"
      },
      "t_uint256": {
        "encoding": "inplace",
        "label": "uint256",
        "numberOfBytes": "32"
      }
    }
  },
  "userdoc": {
    "kind": "user",
    "methods": {},
    "version": 1
  },
  "argsData": "0x",
  "transaction": {
    "hash": "0x94db137ab03151c1622f8e70b2a9d7f556a255c650d677fc598baf4c0afe685b",
    "nonce": "0x7",
    "origin": "0xf39fd6e51aad88f6f4ce6ab8827279cfffb92266"
  }
}