{
  "address": "0xa513e6e4b8f2a923d98304ec87f64353c4d5c853",
  "abi": [
    {
      "anonymous": false,
      "inputs": [
        {
          "indexed": true,
          "internalType": "address",
          "name": "from",
          "type": "address"
        },
        {
          "indexed": false,
          "internalType": "uint256",
          "name": "value",
          "type": "uint256"
        },
        {
          "indexed": false,
          "internalType": "bytes",
          "name": "data",
          "type": "bytes"
        }
      ],
      "name": "TokensReceived",
      "type": "event"
    },
    {
      "inputs": [
        {
          "internalType": "address",
          "name": "",
          "type": "address"
        }
      ],
      "name": "deposited",
      "outputs": [
        {
          "internalType": "uint256",
          "name": "",
          "type": "uint256"
        }
      ],
      "stateMutability": "view",
      "type": "function"
    },
    {
      "inputs": [
        {
          "internalType": "address",
          "name": "operator",
          "type": "address"
        },
        {
          "internalType": "address",
          "name": "from",
          "type": "address"
        },
        {
          "internalType": "uint256",
          "name": "value",
          "type": "uint256"
        },
        {
          "internalType": "bytes",
          "name": "data",
          "type": "bytes"
        }
      ],
      "name": "onTransferReceived",
      "outputs": [
        {
          "internalType": "bytes4",
          "name": "",
          "type": "bytes4"
        }
      ],
      "stateMutability": "nonpayable",
      "type": "function"
    },
    {
      "inputs": [
        {
          "internalType": "bytes4",
          "name": "interfaceId",
          "type": "bytes4"
        }
      ],
      "name": "supportsInterface",
      "outputs": [
        {
          "internalType": "bool",
          "name": "",
          "type": "bool"
        }
      ],
      "stateMutability": "view",
      "type": "function"
    },
    {
      "inputs": [],
      "name": "tokenAddress",
      "outputs": [
        {
          "internalType": "address",
          "name": "",
          "type": "address"
        }
      ],
      "stateMutability": "view",
      "type": "function"
    },
    {
      "inputs": [
        {
          "internalType": "address",
          "name": "token",
          "type": "address"
        },
        {
          "internalType": "uint256",
          "name": "amount",
          "type": "uint256"
        }
      ],
      "name": "withdraw",
      "outputs": [],
      "stateMutability": "nonpayable",
      "type": "function"
    }
  ],
  "contractName": "SimpleTokenReceiver",
  "sourceName": "contracts/test/SimpleTokenReceiver.sol",
  "bytecode": "0x608060405234801561001057600080fd5b506105c0806100206000396000f3fe608060405234801561001057600080fd5b50600436106100575760003560e01c806301ffc9a71461005c57806388a7ca5c146100855780639d76ea58146100a5578063cb13cddb146100ba578063f3fef3a3146100da575b600080fd5b61006f61006a366004610401565b6100ef565b60405161007c919061048f565b60405180910390f35b610098610093366004610342565b61011c565b60405161007c919061049a565b6100ad6101b6565b60405161007c9190610462565b6100cd6100c8366004610321565b6101c5565b60405161007c9190610506565b6100ed6100e83660046103d8565b6101d7565b005b60006001600160e01b03198216632229f29760e21b14806101145750610114826102f1565b90505b919050565b6001600160a01b038416600090815260208190526040812080548591908390610146908490610545565b9091555050600180546001600160a01b031916331790556040516001600160a01b038616907f0f611859dc94a66d9bec0e66c7485098c0d5e4662896ff2f523c47f962a7abef9061019c9087908790879061050f565b60405180910390a250632229f29760e21b95945050505050565b6001546001600160a01b031681565b60006020819052908152604090205481565b3360009081526020819052604090205481111561020f5760405162461bcd60e51b8152600401610206906104d8565b60405180910390fd5b336000908152602081905260408120805483929061022e90849061055d565b925050819055506000826001600160a01b03163383604051602401610254929190610476565b60408051601f198184030181529181526020820180516001600160e01b031663a9059cbb60e01b179052516102899190610429565b6000604051808303816000865af19150503d80600081146102c6576040519150601f19603f3d011682016040523d82523d6000602084013e6102cb565b606091505b50509050806102ec5760405162461bcd60e51b8152600401610206906104af565b505050565b6001600160e01b031981166301ffc9a760e01b14919050565b80356001600160a01b038116811461011757600080fd5b600060208284031215610332578081fd5b61033b8261030a565b9392505050565b600080600080600060808688031215610359578081fd5b6103628661030a565b94506103706020870161030a565b935060408601359250606086013567ffffffffffffffff80821115610393578283fd5b818801915088601f8301126103a6578283fd5b8135818111156103b4578384fd5b8960208285010111156103c5578384fd5b9699959850939650602001949392505050565b600080604083850312156103ea578182fd5b6103f38361030a565b946020939093013593505050565b600060208284031215610412578081fd5b81356001600160e01b03198116811461033b578182fd5b60008251815b81811015610449576020818601810151858301520161042f565b818111156104575782828501525b509190910192915050565b6001600160a01b0391909116815260200190565b6001600160a01b03929092168252602082015260400190565b901515815260200190565b6001600160e01b031991909116815260200190565b6020808252600f908201526e151c985b9cd9995c8819985a5b1959608a1b604082015260600190565b602080825260149082015273125b9cdd59999a58da595b9d0819195c1bdcda5d60621b604082015260600190565b90815260200190565b60008482526040602083015282604083015282846060840137818301606090810191909152601f909201601f1916010192915050565b6000821982111561055857610558610574565b500190565b60008282101561056f5761056f610574565b500390565b634e487b7160e01b600052601160045260246000fdfea2646970667358221220fe1c28ae73f951eaf652aed6d57eb52b35d14a3b8e165834a65f379c8c32a98064736f6c63430008010033",
  "linkReferences": {},
  "deployedLinkReferences": {},
  "immutableReferences": {},
  "inputSourceName": "project/contracts/test/SimpleTokenReceiver.sol",
  "devdoc": {
    "kind": "dev",
    "methods": {
      "supportsInterface(bytes4)": {
        "details": "See {IERC165-supportsInterface}."
      }
    },
    "version": 1
  },
  "evm": {
    "gasEstimates": {
      "creation": {
        "codeDepositCost": "294400",
        "executionCost": "331",
        "totalCost": "294731"
      },
      "external": {
        "deposited(address)": "1299",
        "onTransferReceived(address,address,uint256,bytes)": "infinite",
        "supportsInterface(bytes4)": "474",
        "tokenAddress()": "1092",
        "withdraw(address,uint256)": "infinite"
      }
    }
  },
  "storageLayout": {
    "storage": [
      {
        "astId": 4555,
        "contract": "project/contracts/test/SimpleTokenReceiver.sol:SimpleTokenReceiver",
        "label": "deposited",
        "offset": 0,
        "slot": "0",
        "type": "t_mapping(t_address,t_uint256)"
      },
      {
        "astId": 4557,
        "contract": "project/contracts/test/SimpleTokenReceiver.sol:SimpleTokenReceiver",
        "label": "tokenAddress",
        "offset": 0,
        "slot": "1",
        "type": "t_address"
      }
    ],
    "types": {
      "t_address": {
        "encoding": "inplace",
        "label": "address",
        "numberOfBytes": "20"
      },
      "t_mapping(t_address,t_uint256)": {
        "encoding": "mapping",
        "key": "t_address",
        "label": "mapping(address => uint256)",
        "numberOfBytes": "32",
        "value": "t_uint256"
      },
      "t_uint256": {
        "encoding": "inplace",
        "label": "uint256",
        "numberOfBytes": "32"
      }
    }
  },
  "userdoc": {
    "kind": "user",
    "methods": {},
    "version": 1
  },
  "argsData": "0x",
  "transaction": {
    "hash": "0x98b187d074a8d68491043e8cf8fcc39682dfa6c96ef4503863a02345a8164bef",
    "nonce": "0x7",
    "origin": "0xf39fd6e51aad88f6f4ce6ab8827279cfffb92266"
  }
}