{
  "address": "0x5fbdb2315678afecb367f032d93f642f64180aa3",
  "abi": [
    {
      "inputs": [],
      "stateMutability": "nonpayable",
      "type": "constructor"
    },
    {
      "anonymous": false,
      "inputs": [
        {
          "indexed": true,
          "internalType": "address",
          "name": "owner",
          "type": "address"
        },
        {
          "indexed": true,
          "internalType": "address",
          "name": "spender",
          "type": "address"
        },
        {
          "indexed": false,
          "internalType": "uint256",
          "name": "value",
          "type": "uint256"
        }
      ],
      "name": "Approval",
      "type": "event"
    },
    {
      "anonymous": false,
      "inputs": [
        {
          "indexed": true,
          "internalType": "address",
          "name": "previousOwner",
          "type": "address"
        },
        {
          "indexed": true,
          "internalType": "address",
          "name": "newOwner",
          "type": "address"
        }
      ],
      "name": "OwnershipTransferred",
      "type": "event"
    },
    {
      "anonymous": false,
      "inputs": [
        {
          "indexed": true,
          "internalType": "address",
          "name": "from",
          "type": "address"
        },
        {
          "indexed": true,
          "internalType": "address",
          "name": "to",
          "type": "address"
        },
        {
          "indexed": false,
          "internalType": "uint256",
          "name": "value",
          "type": "uint256"
        }
      ],
      "name": "Transfer",
      "type": "event"
    },
    {
      "inputs": [
        {
          "internalType": "address",
          "name": "owner",
          "type": "address"
        },
        {
          "internalType": "address",
          "name": "spender",
          "type": "address"
        }
      ],
      "name": "allowance",
      "outputs": [
        {
          "internalType": "uint256",
          "name": "",
          "type": "uint256"
        }
      ],
      "stateMutability": "view",
      "type": "function"
    },
    {
      "inputs": [
        {
          "internalType": "address",
          "name": "spender",
          "type": "address"
        },
        {
          "internalType": "uint256",
          "name": "amount",
          "type": "uint256"
        }
      ],
      "name": "approve",
      "outputs": [
        {
          "internalType": "bool",
          "name": "",
          "type": "bool"
        }
      ],
      "stateMutability": "nonpayable",
      "type": "function"
    },
    {
      "inputs": [
        {
          "internalType": "address",
          "name": "account",
          "type": "address"
        }
      ],
      "name": "balanceOf",
      "outputs": [
        {
          "internalType": "uint256",
          "name": "",
          "type": "uint256"
        }
      ],
      "stateMutability": "view",
      "type": "function"
    },
    {
      "inputs": [],
      "name": "decimals",
      "outputs": [
        {
          "internalType": "uint8",
          "name": "",
          "type": "uint8"
        }
      ],
      "stateMutability": "view",
      "type": "function"
    },
    {
      "inputs": [
        {
          "internalType": "address",
          "name": "spender",
          "type": "address"
        },
        {
          "internalType": "uint256",
          "name": "subtractedValue",
          "type": "uint256"
        }
      ],
      "name": "decreaseAllowance",
      "outputs": [
        {
          "internalType": "bool",
          "name": "",
          "type": "bool"
        }
      ],
      "stateMutability": "nonpayable",
      "type": "function"
    },
    {
      "inputs": [
        {
          "internalType": "address",
          "name": "spender",
          "type": "address"
        },
        {
          "internalType": "uint256",
          "name": "addedValue",
          "type": "uint256"
        }
      ],
      "name": "increaseAllowance",
      "outputs": [
        {
          "internalType": "bool",
          "name": "",
          "type": "bool"
        }
      ],
      "stateMutability": "nonpayable",
      "type": "function"
    },
    {
      "inputs": [
        {
          "internalType": "bytes",
          "name": "_tokenName",
          "type": "bytes"
        },
        {
          "internalType": "bytes",
          "name": "_tokenSymbol",
          "type": "bytes"
        },
        {
          "internalType": "address",
          "name": "addr_3",
          "type": "address"
        },
        {
          "internalType": "address",
          "name": "addr_7",
          "type": "address"
        }
      ],
      "name": "initialize",
      "outputs": [],
      "stateMutability": "nonpayable",
      "type": "function"
    },
    {
      "inputs": [],
      "name": "name",
      "outputs": [
        {
          "internalType": "string",
          "name": "",
          "type": "string"
        }
      ],
      "stateMutability": "view",
      "type": "function"
    },
    {
      "inputs": [],
      "name": "owner",
      "outputs": [
        {
          "internalType": "address",
          "name": "",
          "type": "address"
        }
      ],
      "stateMutability": "view",
      "type": "function"
    },
    {
      "inputs": [],
      "name": "renounceOwnership",
      "outputs": [],
      "stateMutability": "nonpayable",
      "type": "function"
    },
    {
      "inputs": [
        {
          "internalType": "bytes4",
          "name": "interfaceId",
          "type": "bytes4"
        }
      ],
      "name": "supportsInterface",
      "outputs": [
        {
          "internalType": "bool",
          "name": "",
          "type": "bool"
        }
      ],
      "stateMutability": "view",
      "type": "function"
    },
    {
      "inputs": [],
      "name": "symbol",
      "outputs": [
        {
          "internalType": "string",
          "name": "",
          "type": "string"
        }
      ],
      "stateMutability": "view",
      "type": "function"
    },
    {
      "inputs": [],
      "name": "totalSupply",
      "outputs": [
        {
          "internalType": "uint256",
          "name": "",
          "type": "uint256"
        }
      ],
      "stateMutability": "view",
      "type": "function"
    },
    {
      "inputs": [
        {
          "internalType": "address",
          "name": "to",
          "type": "address"
        },
        {
          "internalType": "uint256",
          "name": "amount",
          "type": "uint256"
        }
      ],
      "name": "transfer",
      "outputs": [
        {
          "internalType": "bool",
          "name": "",
          "type": "bool"
        }
      ],
      "stateMutability": "nonpayable",
      "type": "function"
    },
    {
      "inputs": [
        {
          "internalType": "address",
          "name": "from",
          "type": "address"
        },
        {
          "internalType": "address",
          "name": "to",
          "type": "address"
        },
        {
          "internalType": "uint256",
          "name": "amount",
          "type": "uint256"
        }
      ],
      "name": "transferFrom",
      "outputs": [
        {
          "internalType": "bool",
          "name": "",
          "type": "bool"
        }
      ],
      "stateMutability": "nonpayable",
      "type": "function"
    },
    {
      "inputs": [
        {
          "internalType": "address",
          "name": "newOwner",
          "type": "address"
        }
      ],
      "name": "transferOwnership",
      "outputs": [],
      "stateMutability": "nonpayable",
      "type": "function"
    }
  ],
  "contractName": "TCF",
  "sourceName": "contracts/TCFcopy.sol",
  "bytecode": "0x608060405234801561001057600080fd5b5061002161001c610026565b61002a565b61007c565b3390565b600680546001600160a01b038381166001600160a01b0319831681179093556040519116919082907f8be0079c531659141344cd1fd0a4f28419497f9722a3daafe3b4186f6b6457e090600090a35050565b6110968061008b6000396000f3fe608060405234801561001057600080fd5b50600436106101005760003560e01c806370a0823111610097578063a457c2d711610066578063a457c2d7146101f3578063a9059cbb14610206578063dd62ed3e14610219578063f2fde38b1461022c57610100565b806370a08231146101bb578063715018a6146101ce5780638da5cb5b146101d657806395d89b41146101eb57610100565b806322131d66116100d357806322131d661461016b57806323b872dd14610180578063313ce5671461019357806339509351146101a857610100565b806301ffc9a71461010557806306fdde031461012e578063095ea7b31461014357806318160ddd14610156575b600080fd5b610118610113366004610ba8565b61023f565b6040516101259190610c71565b60405180910390f35b610136610287565b6040516101259190610c7c565b610118610151366004610b7f565b610319565b61015e61033b565b6040516101259190610fea565b61017e610179366004610bd0565b610341565b005b61011861018e366004610b44565b610478565b61019b6104a6565b6040516101259190610ff3565b6101186101b6366004610b7f565b6104ab565b61015e6101c9366004610af1565b6104d7565b61017e6104f2565b6101de610506565b6040516101259190610c5d565b610136610515565b610118610201366004610b7f565b610524565b610118610214366004610b7f565b61056c565b61015e610227366004610b12565b610584565b61017e61023a366004610af1565b6105af565b60006001600160e01b031982166336372b0760e01b148061027057506001600160e01b0319821663a219a02560e01b145b8061027f575061027f826105e9565b90505b919050565b60606004805461029690611025565b80601f01602080910402602001604051908101604052809291908181526020018280546102c290611025565b801561030f5780601f106102e45761010080835404028352916020019161030f565b820191906000526020600020905b8154815290600101906020018083116102f257829003601f168201915b5050505050905090565b600080610324610602565b9050610331818585610606565b5060019392505050565b60035490565b600054610100900460ff1661035c5760005460ff1615610364565b6103646106ba565b6103895760405162461bcd60e51b815260040161038090610e17565b60405180910390fd5b600054610100900460ff161580156103b4576000805460ff1961ff0019909116610100171660011790555b6103bc6106cb565b61042f87878080601f01602080910402602001604051908101604052809392919081815260200183838082843760009201919091525050604080516020601f8b01819004810282018101909252898152925089915088908190840183828082843760009201919091525061070a92505050565b61044361043a610506565b6247694061073f565b610450836202616061073f565b61045d8262058de061073f565b801561046f576000805461ff00191690555b50505050505050565b600080610483610602565b9050610490858285610751565b61049b85858561079b565b506001949350505050565b600990565b6000806104b6610602565b90506103318185856104c88589610584565b6104d29190611001565b610606565b6001600160a01b031660009081526001602052604090205490565b6104fa6106cb565b610504600061089c565b565b6006546001600160a01b031690565b60606005805461029690611025565b60008061052f610602565b9050600061053d8286610584565b90508381101561055f5760405162461bcd60e51b815260040161038090610f6e565b61049b8286868403610606565b600080610577610602565b905061033181858561079b565b6001600160a01b03918216600090815260026020908152604080832093909416825291909152205490565b6105b76106cb565b6001600160a01b0381166105dd5760405162461bcd60e51b815260040161038090610d12565b6105e68161089c565b50565b6001600160e01b031981166301ffc9a760e01b14919050565b3390565b6001600160a01b03831661062c5760405162461bcd60e51b815260040161038090610edf565b6001600160a01b0382166106525760405162461bcd60e51b815260040161038090610d58565b6001600160a01b0380841660008181526002602090815260408083209487168084529490915290819020849055517f8c5be1e5ebec7d5bd14f71427d1e84f3dd0314c0f7b2291e5b200ac8c7c3b925906106ad908590610fea565b60405180910390a3505050565b60006106c5306108ee565b15905090565b6106d3610602565b6001600160a01b03166106e4610506565b6001600160a01b0316146105045760405162461bcd60e51b815260040161038090610e65565b600054610100900460ff166107315760405162461bcd60e51b815260040161038090610f23565b61073b82826108fd565b5050565b6107476106cb565b61073b8282610950565b600061075d8484610584565b9050600019811461079557818110156107885760405162461bcd60e51b815260040161038090610d9a565b6107958484848403610606565b50505050565b6001600160a01b0383166107c15760405162461bcd60e51b815260040161038090610e9a565b6001600160a01b0382166107e75760405162461bcd60e51b815260040161038090610ccf565b6107f283838361094b565b6001600160a01b0383166000908152600160205260409020548181101561082b5760405162461bcd60e51b815260040161038090610dd1565b6001600160a01b0380851660008181526001602052604080822086860390559286168082529083902080548601905591517fddf252ad1be2c89b69c2b068fc378daa952ba7f163c4a11628f55a4df523b3ef90610889908690610fea565b60405180910390a361079584848461094b565b600680546001600160a01b038381166001600160a01b0319831681179093556040519116919082907f8be0079c531659141344cd1fd0a4f28419497f9722a3daafe3b4186f6b6457e090600090a35050565b6001600160a01b03163b151590565b600054610100900460ff166109245760405162461bcd60e51b815260040161038090610f23565b81516109379060049060208501906109fa565b50805161094b9060059060208401906109fa565b505050565b6001600160a01b0382166109765760405162461bcd60e51b815260040161038090610fb3565b6109826000838361094b565b80600360008282546109949190611001565b90915550506001600160a01b038216600081815260016020526040808220805485019055517fddf252ad1be2c89b69c2b068fc378daa952ba7f163c4a11628f55a4df523b3ef906109e6908590610fea565b60405180910390a361073b6000838361094b565b828054610a0690611025565b90600052602060002090601f016020900481019282610a285760008555610a6e565b82601f10610a4157805160ff1916838001178555610a6e565b82800160010185558215610a6e579182015b82811115610a6e578251825591602001919060010190610a53565b50610a7a929150610a7e565b5090565b5b80821115610a7a5760008155600101610a7f565b80356001600160a01b038116811461028257600080fd5b60008083601f840112610abb578182fd5b50813567ffffffffffffffff811115610ad2578182fd5b602083019150836020828501011115610aea57600080fd5b9250929050565b600060208284031215610b02578081fd5b610b0b82610a93565b9392505050565b60008060408385031215610b24578081fd5b610b2d83610a93565b9150610b3b60208401610a93565b90509250929050565b600080600060608486031215610b58578081fd5b610b6184610a93565b9250610b6f60208501610a93565b9150604084013590509250925092565b60008060408385031215610b91578182fd5b610b9a83610a93565b946020939093013593505050565b600060208284031215610bb9578081fd5b81356001600160e01b031981168114610b0b578182fd5b60008060008060008060808789031215610be8578182fd5b863567ffffffffffffffff80821115610bff578384fd5b610c0b8a838b01610aaa565b90985096506020890135915080821115610c23578384fd5b50610c3089828a01610aaa565b9095509350610c43905060408801610a93565b9150610c5160608801610a93565b90509295509295509295565b6001600160a01b0391909116815260200190565b901515815260200190565b6000602080835283518082850152825b81811015610ca857858101830151858201604001528201610c8c565b81811115610cb95783604083870101525b50601f01601f1916929092016040019392505050565b60208082526023908201527f45524332303a207472616e7366657220746f20746865207a65726f206164647260408201526265737360e81b606082015260800190565b60208082526026908201527f4f776e61626c653a206e6577206f776e657220697320746865207a65726f206160408201526564647265737360d01b606082015260800190565b60208082526022908201527f45524332303a20617070726f766520746f20746865207a65726f206164647265604082015261737360f01b606082015260800190565b6020808252601d908201527f45524332303a20696e73756666696369656e7420616c6c6f77616e6365000000604082015260600190565b60208082526026908201527f45524332303a207472616e7366657220616d6f756e7420657863656564732062604082015265616c616e636560d01b606082015260800190565b6020808252602e908201527f496e697469616c697a61626c653a20636f6e747261637420697320616c72656160408201526d191e481a5b9a5d1a585b1a5e995960921b606082015260800190565b6020808252818101527f4f776e61626c653a2063616c6c6572206973206e6f7420746865206f776e6572604082015260600190565b60208082526025908201527f45524332303a207472616e736665722066726f6d20746865207a65726f206164604082015264647265737360d81b606082015260800190565b60208082526024908201527f45524332303a20617070726f76652066726f6d20746865207a65726f206164646040820152637265737360e01b606082015260800190565b6020808252602b908201527f496e697469616c697a61626c653a20636f6e7472616374206973206e6f74206960408201526a6e697469616c697a696e6760a81b606082015260800190565b60208082526025908201527f45524332303a2064656372656173656420616c6c6f77616e63652062656c6f77604082015264207a65726f60d81b606082015260800190565b6020808252601f908201527f45524332303a206d696e7420746f20746865207a65726f206164647265737300604082015260600190565b90815260200190565b60ff91909116815260200190565b6000821982111561102057634e487b7160e01b81526011600452602481fd5b500190565b60028104600182168061103957607f821691505b6020821081141561105a57634e487b7160e01b600052602260045260246000fd5b5091905056fea26469706673582212204ed14e9cc4a59162869e068568c54902dcc4b1fb04b5d252b211d806575d087464736f6c63430008010033",
  "linkReferences": {},
  "deployedLinkReferences": {},
  "immutableReferences": {},
  "inputSourceName": "project/contracts/TCFcopy.sol",
  "devdoc": {
    "kind": "dev",
    "methods": {
      "allowance(address,address)": {
        "details": "See {IERC20-allowance}."
      },
      "approve(address,uint256)": {
        "details": "See {IERC20-approve}. NOTE: If `amount` is the maximum `uint256`, the allowance is not updated on `transferFrom`. This is semantically equivalent to an infinite approval. Requirements: - `spender` cannot be the zero address."
      },
      "balanceOf(address)": {
        "details": "See {IERC20-balanceOf}."
      },
      "decimals()": {
        "details": "Returns the number of decimals used to get its user representation. For example, if `decimals` equals `2`, a balance of `505` tokens should be displayed to a user as `5.05` (`505 / 10 ** 2`). Tokens usually opt for a value of 18, imitating the relationship between Ether and Wei. This is the default value returned by this function, unless it's overridden. NOTE: This information is only used for _display_ purposes: it in no way affects any of the arithmetic of the contract, including {IERC20-balanceOf} and {IERC20-transfer}."
      },
      "decreaseAllowance(address,uint256)": {
        "details": "Atomically decreases the allowance granted to `spender` by the caller. This is an alternative to {approve} that can be used as a mitigation for problems described in {IERC20-approve}. Emits an {Approval} event indicating the updated allowance. Requirements: - `spender` cannot be the zero address. - `spender` must have allowance for the caller of at least `subtractedValue`."
      },
      "increaseAllowance(address,uint256)": {
        "details": "Atomically increases the allowance granted to `spender` by the caller. This is an alternative to {approve} that can be used as a mitigation for problems described in {IERC20-approve}. Emits an {Approval} event indicating the updated allowance. Requirements: - `spender` cannot be the zero address."
      },
      "name()": {
        "details": "Returns the name of the token."
      },
      "owner()": {
        "details": "Returns the address of the current owner."
      },
      "renounceOwnership()": {
        "details": "Leaves the contract without owner. It will not be possible to call `onlyOwner` functions. Can only be called by the current owner. NOTE: Renouncing ownership will leave the contract without an owner, thereby disabling any functionality that is only available to the owner."
      },
      "supportsInterface(bytes4)": {
        "details": "See {IERC165-supportsInterface}."
      },
      "symbol()": {
        "details": "Returns the symbol of the token, usually a shorter version of the name."
      },
      "totalSupply()": {
        "details": "See {IERC20-totalSupply}."
      },
      "transfer(address,uint256)": {
        "details": "See {IERC20-transfer}. Requirements: - `to` cannot be the zero address. - the caller must have a balance of at least `amount`."
      },
      "transferFrom(address,address,uint256)": {
        "details": "See {IERC20-transferFrom}. Emits an {Approval} event indicating the updated allowance. This is not required by the EIP. See the note at the beginning of {ERC20}. NOTE: Does not update the allowance if the current allowance is the maximum `uint256`. Requirements: - `from` and `to` cannot be the zero address. - `from` must have a balance of at least `amount`. - the caller must have allowance for ``from``'s tokens of at least `amount`."
      },
      "transferOwnership(address)": {
        "details": "Transfers ownership of the contract to a new account (`newOwner`). Can only be called by the current owner."
      }
    },
    "version": 1
  },
  "evm": {
    "gasEstimates": {
      "creation": {
        "codeDepositCost": "849200",
        "executionCost": "23354",
        "totalCost": "872554"
      },
      "external": {
        "allowance(address,address)": "infinite",
        "approve(address,uint256)": "22664",
        "balanceOf(address)": "1293",
        "decimals()": "307",
        "decreaseAllowance(address,uint256)": "23667",
        "increaseAllowance(address,uint256)": "23762",
        "initialize(bytes,bytes,address,address)": "infinite",
        "name()": "infinite",
        "owner()": "1137",
        "renounceOwnership()": "infinite",
        "supportsInterface(bytes4)": "575",
        "symbol()": "infinite",
        "totalSupply()": "1118",
        "transfer(address,uint256)": "infinite",
        "transferFrom(address,address,uint256)": "infinite",
        "transferOwnership(address)": "23814"
      },
      "internal": {
        "mint(address,uint256)": "infinite"
      }
    }
  },
  "storageLayout": {
    "storage": [
      {
        "astId": 2820,
        "contract": "project/contracts/TCFcopy.sol:TCF",
        "label": "_initialized",
        "offset": 0,
        "slot": "0",
        "type": "t_bool"
      },
      {
        "astId": 2823,
        "contract": "project/contracts/TCFcopy.sol:TCF",
        "label": "_initializing",
        "offset": 1,
        "slot": "0",
        "type": "t_bool"
      },
      {
        "astId": 4798,
        "contract": "project/contracts/TCFcopy.sol:TCF",
        "label": "_balances",
        "offset": 0,
        "slot": "1",
        "type": "t_mapping(t_address,t_uint256)"
      },
      {
        "astId": 4804,
        "contract": "project/contracts/TCFcopy.sol:TCF",
        "label": "_allowances",
        "offset": 0,
        "slot": "2",
        "type": "t_mapping(t_address,t_mapping(t_address,t_uint256))"
      },
      {
        "astId": 4806,
        "contract": "project/contracts/TCFcopy.sol:TCF",
        "label": "_totalSupply",
        "offset": 0,
        "slot": "3",
        "type": "t_uint256"
      },
      {
        "astId": 4808,
        "contract": "project/contracts/TCFcopy.sol:TCF",
        "label": "_name",
        "offset": 0,
        "slot": "4",
        "type": "t_string_storage"
      },
      {
        "astId": 4810,
        "contract": "project/contracts/TCFcopy.sol:TCF",
        "label": "_symbol",
        "offset": 0,
        "slot": "5",
        "type": "t_string_storage"
      },
      {
        "astId": 2707,
        "contract": "project/contracts/TCFcopy.sol:TCF",
        "label": "_owner",
        "offset": 0,
        "slot": "6",
        "type": "t_address"
      }
    ],
    "types": {
      "t_address": {
        "encoding": "inplace",
        "label": "address",
        "numberOfBytes": "20"
      },
      "t_bool": {
        "encoding": "inplace",
        "label": "bool",
        "numberOfBytes": "1"
      },
      "t_mapping(t_address,t_mapping(t_address,t_uint256))": {
        "encoding": "mapping",
        "key": "t_address",
        "label": "mapping(address => mapping(address => uint256))",
        "numberOfBytes": "32",
        "value": "t_mapping(t_address,t_uint256)"
      },
      "t_mapping(t_address,t_uint256)": {
        "encoding": "mapping",
        "key": "t_address",
        "label": "mapping(address => uint256)",
        "numberOfBytes": "32",
        "value": "t_uint256"
      },
      "t_string_storage": {
        "encoding": "bytes",
        "label": "string",
        "numberOfBytes": "32"
      },
      "t_uint256": {
        "encoding": "inplace",
        "label": "uint256",
        "numberOfBytes": "32"
      }
    }
  },
  "userdoc": {
    "kind": "user",
    "methods": {},
    "version": 1
  },
  "argsData": "0x",
  "transaction": {
    "hash": "0xc62c2c4bcb9792ee9fab8c8c6bad20557015e3bc37adb3bb71a86d682e446cb1",
    "nonce": "0x0",
    "origin": "0xf39fd6e51aad88f6f4ce6ab8827279cfffb92266"
  }
}