{
  "address": "0x5fbdb2315678afecb367f032d93f642f64180aa3",
  "abi": [
    {
      "inputs": [],
      "stateMutability": "nonpayable",
      "type": "constructor"
    },
    {
      "anonymous": false,
      "inputs": [
        {
          "indexed": true,
          "internalType": "address",
          "name": "owner",
          "type": "address"
        },
        {
          "indexed": true,
          "internalType": "address",
          "name": "spender",
          "type": "address"
        },
        {
          "indexed": false,
          "internalType": "uint256",
          "name": "value",
          "type": "uint256"
        }
      ],
      "name": "Approval",
      "type": "event"
    },
    {
      "anonymous": false,
      "inputs": [
        {
          "indexed": true,
          "internalType": "address",
          "name": "operator",
          "type": "address"
        },
        {
          "indexed": false,
          "internalType": "uint256",
          "name": "timeStamp",
          "type": "uint256"
        }
      ],
      "name": "DailyTokensReleased",
      "type": "event"
    },
    {
      "anonymous": false,
      "inputs": [
        {
          "indexed": true,
          "internalType": "address",
          "name": "previousOwner",
          "type": "address"
        },
        {
          "indexed": true,
          "internalType": "address",
          "name": "newOwner",
          "type": "address"
        }
      ],
      "name": "OwnershipTransferred",
      "type": "event"
    },
    {
      "anonymous": false,
      "inputs": [
        {
          "indexed": false,
          "internalType": "address",
          "name": "account",
          "type": "address"
        }
      ],
      "name": "Paused",
      "type": "event"
    },
    {
      "anonymous": false,
      "inputs": [
        {
          "indexed": true,
          "internalType": "address",
          "name": "token",
          "type": "address"
        },
        {
          "indexed": true,
          "internalType": "address",
          "name": "from",
          "type": "address"
        },
        {
          "indexed": true,
          "internalType": "address",
          "name": "to",
          "type": "address"
        },
        {
          "indexed": false,
          "internalType": "uint256",
          "name": "amount",
          "type": "uint256"
        }
      ],
      "name": "TokensWithdrawn",
      "type": "event"
    },
    {
      "anonymous": false,
      "inputs": [
        {
          "indexed": true,
          "internalType": "address",
          "name": "from",
          "type": "address"
        },
        {
          "indexed": true,
          "internalType": "address",
          "name": "to",
          "type": "address"
        },
        {
          "indexed": false,
          "internalType": "uint256",
          "name": "value",
          "type": "uint256"
        }
      ],
      "name": "Transfer",
      "type": "event"
    },
    {
      "anonymous": false,
      "inputs": [
        {
          "indexed": false,
          "internalType": "address",
          "name": "account",
          "type": "address"
        }
      ],
      "name": "Unpaused",
      "type": "event"
    },
    {
      "inputs": [
        {
          "internalType": "address",
          "name": "owner",
          "type": "address"
        },
        {
          "internalType": "address",
          "name": "spender",
          "type": "address"
        }
      ],
      "name": "allowance",
      "outputs": [
        {
          "internalType": "uint256",
          "name": "",
          "type": "uint256"
        }
      ],
      "stateMutability": "view",
      "type": "function"
    },
    {
      "inputs": [
        {
          "internalType": "address",
          "name": "spender",
          "type": "address"
        },
        {
          "internalType": "uint256",
          "name": "amount",
          "type": "uint256"
        }
      ],
      "name": "approve",
      "outputs": [
        {
          "internalType": "bool",
          "name": "",
          "type": "bool"
        }
      ],
      "stateMutability": "nonpayable",
      "type": "function"
    },
    {
      "inputs": [
        {
          "internalType": "address",
          "name": "",
          "type": "address"
        },
        {
          "internalType": "uint256",
          "name": "",
          "type": "uint256"
        }
      ],
      "name": "approveAndCall",
      "outputs": [
        {
          "internalType": "bool",
          "name": "",
          "type": "bool"
        }
      ],
      "stateMutability": "pure",
      "type": "function"
    },
    {
      "inputs": [
        {
          "internalType": "address",
          "name": "",
          "type": "address"
        },
        {
          "internalType": "uint256",
          "name": "",
          "type": "uint256"
        },
        {
          "internalType": "bytes",
          "name": "",
          "type": "bytes"
        }
      ],
      "name": "approveAndCall",
      "outputs": [
        {
          "internalType": "bool",
          "name": "",
          "type": "bool"
        }
      ],
      "stateMutability": "pure",
      "type": "function"
    },
    {
      "inputs": [
        {
          "internalType": "address",
          "name": "account",
          "type": "address"
        }
      ],
      "name": "balanceOf",
      "outputs": [
        {
          "internalType": "uint256",
          "name": "",
          "type": "uint256"
        }
      ],
      "stateMutability": "view",
      "type": "function"
    },
    {
      "inputs": [],
      "name": "decimals",
      "outputs": [
        {
          "internalType": "uint8",
          "name": "",
          "type": "uint8"
        }
      ],
      "stateMutability": "view",
      "type": "function"
    },
    {
      "inputs": [
        {
          "internalType": "address",
          "name": "spender",
          "type": "address"
        },
        {
          "internalType": "uint256",
          "name": "subtractedValue",
          "type": "uint256"
        }
      ],
      "name": "decreaseAllowance",
      "outputs": [
        {
          "internalType": "bool",
          "name": "",
          "type": "bool"
        }
      ],
      "stateMutability": "nonpayable",
      "type": "function"
    },
    {
      "inputs": [],
      "name": "dynamicVault",
      "outputs": [
        {
          "internalType": "contract vault",
          "name": "",
          "type": "address"
        }
      ],
      "stateMutability": "view",
      "type": "function"
    },
    {
      "inputs": [
        {
          "internalType": "address",
          "name": "spender",
          "type": "address"
        },
        {
          "internalType": "uint256",
          "name": "addedValue",
          "type": "uint256"
        }
      ],
      "name": "increaseAllowance",
      "outputs": [
        {
          "internalType": "bool",
          "name": "",
          "type": "bool"
        }
      ],
      "stateMutability": "nonpayable",
      "type": "function"
    },
    {
      "inputs": [
        {
          "internalType": "address",
          "name": "addr_3",
          "type": "address"
        },
        {
          "internalType": "address",
          "name": "addr_7",
          "type": "address"
        }
      ],
      "name": "initialize",
      "outputs": [],
      "stateMutability": "nonpayable",
      "type": "function"
    },
    {
      "inputs": [],
      "name": "name",
      "outputs": [
        {
          "internalType": "string",
          "name": "",
          "type": "string"
        }
      ],
      "stateMutability": "view",
      "type": "function"
    },
    {
      "inputs": [],
      "name": "owner",
      "outputs": [
        {
          "internalType": "address",
          "name": "",
          "type": "address"
        }
      ],
      "stateMutability": "view",
      "type": "function"
    },
    {
      "inputs": [],
      "name": "pause",
      "outputs": [],
      "stateMutability": "nonpayable",
      "type": "function"
    },
    {
      "inputs": [],
      "name": "paused",
      "outputs": [
        {
          "internalType": "bool",
          "name": "",
          "type": "bool"
        }
      ],
      "stateMutability": "view",
      "type": "function"
    },
    {
      "inputs": [],
      "name": "releaseDailyTokens",
      "outputs": [],
      "stateMutability": "nonpayable",
      "type": "function"
    },
    {
      "inputs": [],
      "name": "renounceOwnership",
      "outputs": [],
      "stateMutability": "nonpayable",
      "type": "function"
    },
    {
      "inputs": [],
      "name": "staticVault",
      "outputs": [
        {
          "internalType": "contract vault",
          "name": "",
          "type": "address"
        }
      ],
      "stateMutability": "view",
      "type": "function"
    },
    {
      "inputs": [
        {
          "internalType": "bytes4",
          "name": "interfaceId",
          "type": "bytes4"
        }
      ],
      "name": "supportsInterface",
      "outputs": [
        {
          "internalType": "bool",
          "name": "",
          "type": "bool"
        }
      ],
      "stateMutability": "view",
      "type": "function"
    },
    {
      "inputs": [],
      "name": "symbol",
      "outputs": [
        {
          "internalType": "string",
          "name": "",
          "type": "string"
        }
      ],
      "stateMutability": "view",
      "type": "function"
    },
    {
      "inputs": [],
      "name": "totalSupply",
      "outputs": [
        {
          "internalType": "uint256",
          "name": "",
          "type": "uint256"
        }
      ],
      "stateMutability": "view",
      "type": "function"
    },
    {
      "inputs": [
        {
          "internalType": "address",
          "name": "to",
          "type": "address"
        },
        {
          "internalType": "uint256",
          "name": "amount",
          "type": "uint256"
        }
      ],
      "name": "transfer",
      "outputs": [
        {
          "internalType": "bool",
          "name": "",
          "type": "bool"
        }
      ],
      "stateMutability": "nonpayable",
      "type": "function"
    },
    {
      "inputs": [
        {
          "internalType": "address",
          "name": "",
          "type": "address"
        },
        {
          "internalType": "uint256",
          "name": "",
          "type": "uint256"
        }
      ],
      "name": "transferAndCall",
      "outputs": [
        {
          "internalType": "bool",
          "name": "",
          "type": "bool"
        }
      ],
      "stateMutability": "pure",
      "type": "function"
    },
    {
      "inputs": [
        {
          "internalType": "address",
          "name": "to",
          "type": "address"
        },
        {
          "internalType": "uint256",
          "name": "value",
          "type": "uint256"
        },
        {
          "internalType": "bytes",
          "name": "data",
          "type": "bytes"
        }
      ],
      "name": "transferAndCall",
      "outputs": [
        {
          "internalType": "bool",
          "name": "",
          "type": "bool"
        }
      ],
      "stateMutability": "nonpayable",
      "type": "function"
    },
    {
      "inputs": [
        {
          "internalType": "address",
          "name": "from",
          "type": "address"
        },
        {
          "internalType": "address",
          "name": "to",
          "type": "address"
        },
        {
          "internalType": "uint256",
          "name": "amount",
          "type": "uint256"
        }
      ],
      "name": "transferFrom",
      "outputs": [
        {
          "internalType": "bool",
          "name": "",
          "type": "bool"
        }
      ],
      "stateMutability": "nonpayable",
      "type": "function"
    },
    {
      "inputs": [
        {
          "internalType": "address",
          "name": "",
          "type": "address"
        },
        {
          "internalType": "address",
          "name": "",
          "type": "address"
        },
        {
          "internalType": "uint256",
          "name": "",
          "type": "uint256"
        },
        {
          "internalType": "bytes",
          "name": "",
          "type": "bytes"
        }
      ],
      "name": "transferFromAndCall",
      "outputs": [
        {
          "internalType": "bool",
          "name": "",
          "type": "bool"
        }
      ],
      "stateMutability": "pure",
      "type": "function"
    },
    {
      "inputs": [
        {
          "internalType": "address",
          "name": "",
          "type": "address"
        },
        {
          "internalType": "address",
          "name": "",
          "type": "address"
        },
        {
          "internalType": "uint256",
          "name": "",
          "type": "uint256"
        }
      ],
      "name": "transferFromAndCall",
      "outputs": [
        {
          "internalType": "bool",
          "name": "",
          "type": "bool"
        }
      ],
      "stateMutability": "pure",
      "type": "function"
    },
    {
      "inputs": [
        {
          "internalType": "address",
          "name": "newOwner",
          "type": "address"
        }
      ],
      "name": "transferOwnership",
      "outputs": [],
      "stateMutability": "nonpayable",
      "type": "function"
    },
    {
      "inputs": [],
      "name": "unpause",
      "outputs": [],
      "stateMutability": "nonpayable",
      "type": "function"
    },
    {
      "inputs": [
        {
          "internalType": "address",
          "name": "to",
          "type": "address"
        },
        {
          "internalType": "uint256",
          "name": "dynamicAmount",
          "type": "uint256"
        }
      ],
      "name": "withdrawFromDynamicVault",
      "outputs": [],
      "stateMutability": "nonpayable",
      "type": "function"
    },
    {
      "inputs": [
        {
          "internalType": "address",
          "name": "to",
          "type": "address"
        },
        {
          "internalType": "uint256",
          "name": "staticAmount",
          "type": "uint256"
        }
      ],
      "name": "withdrawFromStaticVault",
      "outputs": [],
      "stateMutability": "nonpayable",
      "type": "function"
    }
  ],
  "contractName": "TCF",
  "sourceName": "contracts/TCF.sol",
  "bytecode": "0x60806040523480156200001157600080fd5b50620000266200002062000117565b6200011b565b6006805460ff60a01b19169055604051620000419062000241565b604051809103906000f0801580156200005e573d6000803e3d6000fd5b50600780546001600160a01b0319166001600160a01b03929092169190911790556040516200008d9062000241565b604051809103906000f080158015620000aa573d6000803e3d6000fd5b50600880546001600160a01b0319166001600160a01b03928316179055600754620000e89116620000da6200016d565b6606a692f70500006200017c565b60085462000111906001600160a01b0316620001036200016d565b6609f9dc728780006200017c565b620002de565b3390565b600680546001600160a01b038381166001600160a01b0319831681179093556040519116919082907f8be0079c531659141344cd1fd0a4f28419497f9722a3daafe3b4186f6b6457e090600090a35050565b6006546001600160a01b031690565b6001600160a01b038316620001ae5760405162461bcd60e51b8152600401620001a59062000291565b60405180910390fd5b6001600160a01b038216620001d75760405162461bcd60e51b8152600401620001a5906200024f565b6001600160a01b0380841660008181526002602090815260408083209487168084529490915290819020849055517f8c5be1e5ebec7d5bd14f71427d1e84f3dd0314c0f7b2291e5b200ac8c7c3b9259062000234908590620002d5565b60405180910390a3505050565b61045e8062001d4083390190565b60208082526022908201527f45524332303a20617070726f766520746f20746865207a65726f206164647265604082015261737360f01b606082015260800190565b60208082526024908201527f45524332303a20617070726f76652066726f6d20746865207a65726f206164646040820152637265737360e01b606082015260800190565b90815260200190565b611a5280620002ee6000396000f3fe608060405234801561001057600080fd5b50600436106101da5760003560e01c8063715018a611610104578063a9059cbb116100a2578063d215ae6911610071578063d215ae6914610383578063d8fbe9941461038b578063dd62ed3e14610399578063f2fde38b146103ac576101da565b8063a9059cbb14610341578063c1d34b8914610354578063c92df35714610362578063cae9ca5114610375576101da565b80638da5cb5b116100de5780638da5cb5b14610316578063916c9a8f1461031e57806395d89b4114610326578063a457c2d71461032e576101da565b8063715018a6146102f35780638456cb59146102fb57806385a3879914610303576101da565b80633177029f1161017c57806344df5a401161014b57806344df5a40146102b0578063485cc955146102c55780635c975abb146102d857806370a08231146102e0576101da565b80633177029f1461023057806339509351146102805780633f4ba83a146102935780634000aea01461029d576101da565b80631296ee62116101b85780631296ee621461023057806318160ddd1461024357806323b872dd14610258578063313ce5671461026b576101da565b806301ffc9a7146101df57806306fdde0314610208578063095ea7b31461021d575b600080fd5b6101f26101ed36600461134b565b6103bf565b6040516101ff919061141f565b60405180910390f35b6102106103ec565b6040516101ff919061142a565b6101f261022b3660046112cd565b61047e565b6101f261023e3660046112cd565b6104a0565b61024b6104c3565b6040516101ff919061197a565b6101f261026636600461122c565b6104c9565b6102736104f7565b6040516101ff9190611983565b6101f261028e3660046112cd565b6104fc565b61029b610528565b005b6101f26102ab3660046112f6565b610571565b6102b8610586565b6040516101ff91906113ce565b61029b6102d33660046111fa565b610595565b6101f26106dc565b61024b6102ee3660046111d9565b6106ec565b61029b610707565b61029b61071b565b61029b6103113660046112cd565b61075a565b6102b86107f1565b61029b610800565b61021061088d565b6101f261033c3660046112cd565b61089c565b6101f261034f3660046112cd565b6108e4565b6101f261023e366004611267565b61029b6103703660046112cd565b6108fc565b6101f261023e3660046112f6565b6102b8610987565b6101f261023e36600461122c565b61024b6103a73660046111fa565b610996565b61029b6103ba3660046111d9565b6109c1565b60006001600160e01b0319821663b0202a1160e01b14806103e457506103e4826109fb565b90505b919050565b6060600480546103fb906119b5565b80601f0160208091040260200160405190810160405280929190818152602001828054610427906119b5565b80156104745780601f1061044957610100808354040283529160200191610474565b820191906000526020600020905b81548152906001019060200180831161045757829003601f168201915b5050505050905090565b600080610489610a3b565b9050610496818585610a3f565b5060019392505050565b600060405162461bcd60e51b81526004016104ba906118d5565b60405180910390fd5b60035490565b6000806104d4610a3b565b90506104e1858285610af3565b6104ec858585610b3d565b506001949350505050565b600990565b600080610507610a3b565b90506104968185856105198589610996565b6105239190611991565b610a3f565b610530610c3e565b610538610c7d565b7f5db9ee0a495bf2e6ff9c91a7834c1ba4fdd244a5e8aa4e537bd38aeae4b073aa3360405161056791906113ce565b60405180910390a1565b600061057b610cc8565b6104ec848484610ced565b6008546001600160a01b031681565b600054610100900460ff166105b05760005460ff16156105b8565b6105b8610d51565b6105d45760405162461bcd60e51b81526004016104ba9061164b565b600054610100900460ff161580156105ff576000805460ff1961ff0019909116610100171660011790555b610607610c3e565b6001600160a01b03831661062d5760405162461bcd60e51b81526004016104ba9061181c565b6001600160a01b0382166106535760405162461bcd60e51b81526004016104ba906115ea565b610693604051806040016040528060038152602001622221a360e91b815250604051806040016040528060038152602001622221a360e91b815250610d62565b6106a4306610a06f698c8000610d97565b6106b483658de19495c000610d97565b6106c58266014b0e5ab2c000610d97565b80156106d7576000805461ff00191690555b505050565b600654600160a01b900460ff1690565b6001600160a01b031660009081526001602052604090205490565b61070f610c3e565b6107196000610e41565b565b610723610c3e565b61072b610e93565b7f62e78cea01bee320cd4e420270b5ea74000d11b0c9f74754ebdbfc544b05a2583360405161056791906113ce565b610762610c3e565b61076a610cc8565b6000811161078a5760405162461bcd60e51b81526004016104ba906116ce565b6007546107a1906001600160a01b031683836104c9565b506007546040516001600160a01b0380851692169030907fedf7bea45e16025d7f82902171a24376f5f3a2c06d9d8c2be4d41bbc7292f74a906107e590869061197a565b60405180910390a45050565b6006546001600160a01b031690565b610808610c3e565b610810610cc8565b60075461082d9030906001600160a01b03166409502f9000610b3d565b60085461084a9030906001600160a01b0316640df8475800610b3d565b336001600160a01b03167f2421571eafb2fcaed0a2b16c08c2e8db174c28b79ab50f5cba317bdb3fc20bd842604051610883919061197a565b60405180910390a2565b6060600580546103fb906119b5565b6000806108a7610a3b565b905060006108b58286610996565b9050838110156108d75760405162461bcd60e51b81526004016104ba906118fe565b6104ec8286868403610a3f565b6000806108ef610a3b565b9050610496818585610b3d565b610904610c3e565b61090c610cc8565b6000811161092c5760405162461bcd60e51b81526004016104ba906116ce565b600854610943906001600160a01b031683836104c9565b506008546040516001600160a01b0380851692169030907fedf7bea45e16025d7f82902171a24376f5f3a2c06d9d8c2be4d41bbc7292f74a906107e590869061197a565b6007546001600160a01b031681565b6001600160a01b03918216600090815260026020908152604080832093909416825291909152205490565b6109c9610c3e565b6001600160a01b0381166109ef5760405162461bcd60e51b81526004016104ba906114e5565b6109f881610e41565b50565b60006001600160e01b031982166336372b0760e01b1480610a2c57506001600160e01b0319821663a219a02560e01b145b806103e457506103e482610ed7565b3390565b6001600160a01b038316610a655760405162461bcd60e51b81526004016104ba906117d8565b6001600160a01b038216610a8b5760405162461bcd60e51b81526004016104ba9061152b565b6001600160a01b0380841660008181526002602090815260408083209487168084529490915290819020849055517f8c5be1e5ebec7d5bd14f71427d1e84f3dd0314c0f7b2291e5b200ac8c7c3b92590610ae690859061197a565b60405180910390a3505050565b6000610aff8484610996565b90506000198114610b375781811015610b2a5760405162461bcd60e51b81526004016104ba9061156d565b610b378484848403610a3f565b50505050565b6001600160a01b038316610b635760405162461bcd60e51b81526004016104ba90611793565b6001600160a01b038216610b895760405162461bcd60e51b81526004016104ba9061143d565b610b948383836106d7565b6001600160a01b03831660009081526001602052604090205481811015610bcd5760405162461bcd60e51b81526004016104ba906115a4565b6001600160a01b0380851660008181526001602052604080822086860390559286168082529083902080548601905591517fddf252ad1be2c89b69c2b068fc378daa952ba7f163c4a11628f55a4df523b3ef90610c2b90869061197a565b60405180910390a3610b378484846106d7565b610c46610a3b565b6001600160a01b0316610c576107f1565b6001600160a01b0316146107195760405162461bcd60e51b81526004016104ba90611699565b610c85610ef0565b6006805460ff60a01b191690557f5db9ee0a495bf2e6ff9c91a7834c1ba4fdd244a5e8aa4e537bd38aeae4b073aa610cbb610a3b565b60405161056791906113ce565b610cd06106dc565b156107195760405162461bcd60e51b81526004016104ba90611621565b60008151604014610d105760405162461bcd60e51b81526004016104ba906114ae565b610d1a84846108e4565b610d365760405162461bcd60e51b81526004016104ba9061189e565b610496610d41610a3b565b610d49610a3b565b868686610f14565b6000610d5c30611049565b15905090565b600054610100900460ff16610d895760405162461bcd60e51b81526004016104ba90611853565b610d938282611058565b5050565b6001600160a01b038216610dbd5760405162461bcd60e51b81526004016104ba90611943565b610dc9600083836106d7565b8060036000828254610ddb9190611991565b90915550506001600160a01b038216600081815260016020526040808220805485019055517fddf252ad1be2c89b69c2b068fc378daa952ba7f163c4a11628f55a4df523b3ef90610e2d90859061197a565b60405180910390a3610d93600083836106d7565b600680546001600160a01b038381166001600160a01b0319831681179093556040519116919082907f8be0079c531659141344cd1fd0a4f28419497f9722a3daafe3b4186f6b6457e090600090a35050565b610e9b610cc8565b6006805460ff60a01b1916600160a01b1790557f62e78cea01bee320cd4e420270b5ea74000d11b0c9f74754ebdbfc544b05a258610cbb610a3b565b6001600160e01b031981166301ffc9a760e01b14919050565b610ef86106dc565b6107195760405162461bcd60e51b81526004016104ba90611480565b6001600160a01b0383163b610f3b5760405162461bcd60e51b81526004016104ba90611710565b604051632229f29760e21b81526001600160a01b038416906388a7ca5c90610f6d9088908890879087906004016113e2565b602060405180830381600087803b158015610f8757600080fd5b505af1925050508015610fb7575060408051601f3d908101601f19168201909252610fb491810190611367565b60015b611011573d808015610fe5576040519150601f19603f3d011682016040523d82523d6000602084013e610fea565b606091505b5080516110095760405162461bcd60e51b81526004016104ba90611751565b805160208201fd5b6001600160e01b03198116632229f29760e21b146110415760405162461bcd60e51b81526004016104ba90611751565b505050505050565b6001600160a01b03163b151590565b600054610100900460ff1661107f5760405162461bcd60e51b81526004016104ba90611853565b81516110929060049060208501906110a2565b5080516106d79060059060208401905b8280546110ae906119b5565b90600052602060002090601f0160209004810192826110d05760008555611116565b82601f106110e957805160ff1916838001178555611116565b82800160010185558215611116579182015b828111156111165782518255916020019190600101906110fb565b50611122929150611126565b5090565b5b808211156111225760008155600101611127565b80356001600160a01b03811681146103e757600080fd5b600082601f830112611162578081fd5b813567ffffffffffffffff8082111561117d5761117d6119f0565b604051601f8301601f19908116603f011681019082821181831017156111a5576111a56119f0565b816040528381528660208588010111156111bd578485fd5b8360208701602083013792830160200193909352509392505050565b6000602082840312156111ea578081fd5b6111f38261113b565b9392505050565b6000806040838503121561120c578081fd5b6112158361113b565b91506112236020840161113b565b90509250929050565b600080600060608486031215611240578081fd5b6112498461113b565b92506112576020850161113b565b9150604084013590509250925092565b6000806000806080858703121561127c578081fd5b6112858561113b565b93506112936020860161113b565b925060408501359150606085013567ffffffffffffffff8111156112b5578182fd5b6112c187828801611152565b91505092959194509250565b600080604083850312156112df578182fd5b6112e88361113b565b946020939093013593505050565b60008060006060848603121561130a578283fd5b6113138461113b565b925060208401359150604084013567ffffffffffffffff811115611335578182fd5b61134186828701611152565b9150509250925092565b60006020828403121561135c578081fd5b81356111f381611a06565b600060208284031215611378578081fd5b81516111f381611a06565b60008151808452815b818110156113a85760208185018101518683018201520161138c565b818111156113b95782602083870101525b50601f01601f19169290920160200192915050565b6001600160a01b0391909116815260200190565b6001600160a01b038581168252841660208201526040810183905260806060820181905260009061141590830184611383565b9695505050505050565b901515815260200190565b6000602082526111f36020830184611383565b60208082526023908201527f45524332303a207472616e7366657220746f20746865207a65726f206164647260408201526265737360e81b606082015260800190565b60208082526014908201527314185d5cd8589b194e881b9bdd081c185d5cd95960621b604082015260600190565b6020808252601c908201527f455243313336333a20696e76616c6964206461746120666f726d617400000000604082015260600190565b60208082526026908201527f4f776e61626c653a206e6577206f776e657220697320746865207a65726f206160408201526564647265737360d01b606082015260800190565b60208082526022908201527f45524332303a20617070726f766520746f20746865207a65726f206164647265604082015261737360f01b606082015260800190565b6020808252601d908201527f45524332303a20696e73756666696369656e7420616c6c6f77616e6365000000604082015260600190565b60208082526026908201527f45524332303a207472616e7366657220616d6f756e7420657863656564732062604082015265616c616e636560d01b606082015260800190565b6020808252601f908201527f5443463a20616464725f3720697320746865207a65726f206164647265737300604082015260600190565b60208082526010908201526f14185d5cd8589b194e881c185d5cd95960821b604082015260600190565b6020808252602e908201527f496e697469616c697a61626c653a20636f6e747261637420697320616c72656160408201526d191e481a5b9a5d1a585b1a5e995960921b606082015260800190565b6020808252818101527f4f776e61626c653a2063616c6c6572206973206e6f7420746865206f776e6572604082015260600190565b60208082526022908201527f5443463a20416d6f756e74206d7573742062652067726561746572207468616e604082015261020360f41b606082015260800190565b60208082526021908201527f455243313336333a207472616e7366657220746f206e6f6e2d636f6e747261636040820152601d60fa1b606082015260800190565b60208082526022908201527f455243313336333a20746f206973206120696e636f7272656374206164647265604082015261737360f01b606082015260800190565b60208082526025908201527f45524332303a207472616e736665722066726f6d20746865207a65726f206164604082015264647265737360d81b606082015260800190565b60208082526024908201527f45524332303a20617070726f76652066726f6d20746865207a65726f206164646040820152637265737360e01b606082015260800190565b6020808252601f908201527f5443463a20616464725f3320697320746865207a65726f206164647265737300604082015260600190565b6020808252602b908201527f496e697469616c697a61626c653a20636f6e7472616374206973206e6f74206960408201526a6e697469616c697a696e6760a81b606082015260800190565b60208082526018908201527f455243313336333a207472616e73666572206661696c65640000000000000000604082015260600190565b6020808252600f908201526e1393d517d253541311535153951151608a1b604082015260600190565b60208082526025908201527f45524332303a2064656372656173656420616c6c6f77616e63652062656c6f77604082015264207a65726f60d81b606082015260800190565b6020808252601f908201527f45524332303a206d696e7420746f20746865207a65726f206164647265737300604082015260600190565b90815260200190565b60ff91909116815260200190565b600082198211156119b057634e487b7160e01b81526011600452602481fd5b500190565b6002810460018216806119c957607f821691505b602082108114156119ea57634e487b7160e01b600052602260045260246000fd5b50919050565b634e487b7160e01b600052604160045260246000fd5b6001600160e01b0319811681146109f857600080fdfea2646970667358221220efbf3a97faa51df2a348db72f2825566b84123826afc03e0f3d4ed2eb4b0b53664736f6c63430008010033608060405234801561001057600080fd5b5061002161001c61002a565b61002e565b6001805561007e565b3390565b600080546001600160a01b038381166001600160a01b0319831681178455604051919092169283917f8be0079c531659141344cd1fd0a4f28419497f9722a3daafe3b4186f6b6457e09190a35050565b6103d18061008d6000396000f3fe6080604052600436106100435760003560e01c8063715018a61461006e5780638da5cb5b14610085578063f2fde38b146100b0578063f8b2cb4f146100d057610069565b366100695760405162461bcd60e51b815260040161006090610307565b60405180910390fd5b600080fd5b34801561007a57600080fd5b506100836100fd565b005b34801561009157600080fd5b5061009a610111565b6040516100a791906102ad565b60405180910390f35b3480156100bc57600080fd5b506100836100cb366004610272565b610120565b3480156100dc57600080fd5b506100f06100eb366004610272565b61015a565b6040516100a7919061037d565b6101056101df565b61010f600061021e565b565b6000546001600160a01b031690565b6101286101df565b6001600160a01b03811661014e5760405162461bcd60e51b8152600401610060906102c1565b6101578161021e565b50565b6040516370a0823160e01b81526000906001600160a01b038316906370a08231906101899030906004016102ad565b60206040518083038186803b1580156101a157600080fd5b505afa1580156101b5573d6000803e3d6000fd5b505050506040513d601f19601f820116820180604052508101906101d99190610295565b92915050565b6101e761026e565b6001600160a01b03166101f8610111565b6001600160a01b03161461010f5760405162461bcd60e51b815260040161006090610348565b600080546001600160a01b038381166001600160a01b0319831681178455604051919092169283917f8be0079c531659141344cd1fd0a4f28419497f9722a3daafe3b4186f6b6457e09190a35050565b3390565b600060208284031215610283578081fd5b813561028e81610386565b9392505050565b6000602082840312156102a6578081fd5b5051919050565b6001600160a01b0391909116815260200190565b60208082526026908201527f4f776e61626c653a206e6577206f776e657220697320746865207a65726f206160408201526564647265737360d01b606082015260800190565b60208082526021908201527f5468697320636f6e747261637420646f6573206e6f74206163636570742045546040820152600960fb1b606082015260800190565b6020808252818101527f4f776e61626c653a2063616c6c6572206973206e6f7420746865206f776e6572604082015260600190565b90815260200190565b6001600160a01b038116811461015757600080fdfea26469706673582212208dd49d187d16712fbc32c4ee747d8282ad400353eb2258d699a460c84510a9f664736f6c63430008010033",
  "linkReferences": {},
  "deployedLinkReferences": {},
  "immutableReferences": {},
  "inputSourceName": "project/contracts/TCF.sol",
  "devdoc": {
    "kind": "dev",
    "methods": {
      "allowance(address,address)": {
        "details": "See {IERC20-allowance}."
      },
      "approve(address,uint256)": {
        "details": "See {IERC20-approve}. NOTE: If `amount` is the maximum `uint256`, the allowance is not updated on `transferFrom`. This is semantically equivalent to an infinite approval. Requirements: - `spender` cannot be the zero address."
      },
      "approveAndCall(address,uint256)": {
        "details": "Sets a `value` amount of tokens as the allowance of `spender` over the caller's tokens and then calls {IERC1363Spender-onApprovalReceived} on `spender`. Returns a flag that indicates if the call succeeded. 没有实现 Requirements: - The target has code (i.e. is a contract). - The target `spender` must implement the {IERC1363Spender} interface. - The target must return the {IERC1363Spender-onApprovalReceived} selector to accept the approval. - The internal {approve} must succeed (returned `true`)."
      },
      "approveAndCall(address,uint256,bytes)": {
        "details": "Variant of {approveAndCall} that accepts an additional `data` parameter with no specified format. 没有实现"
      },
      "balanceOf(address)": {
        "details": "See {IERC20-balanceOf}."
      },
      "decimals()": {
        "details": "Returns the number of decimals used to get its user representation. For example, if `decimals` equals `2`, a balance of `505` tokens should be displayed to a user as `5.05` (`505 / 10 ** 2`). Tokens usually opt for a value of 18, imitating the relationship between Ether and Wei. This is the default value returned by this function, unless it's overridden. NOTE: This information is only used for _display_ purposes: it in no way affects any of the arithmetic of the contract, including {IERC20-balanceOf} and {IERC20-transfer}."
      },
      "decreaseAllowance(address,uint256)": {
        "details": "Atomically decreases the allowance granted to `spender` by the caller. This is an alternative to {approve} that can be used as a mitigation for problems described in {IERC20-approve}. Emits an {Approval} event indicating the updated allowance. Requirements: - `spender` cannot be the zero address. - `spender` must have allowance for the caller of at least `subtractedValue`."
      },
      "increaseAllowance(address,uint256)": {
        "details": "Atomically increases the allowance granted to `spender` by the caller. This is an alternative to {approve} that can be used as a mitigation for problems described in {IERC20-approve}. Emits an {Approval} event indicating the updated allowance. Requirements: - `spender` cannot be the zero address."
      },
      "name()": {
        "details": "Returns the name of the token."
      },
      "owner()": {
        "details": "Returns the address of the current owner."
      },
      "paused()": {
        "details": "Returns true if the contract is paused, and false otherwise."
      },
      "renounceOwnership()": {
        "details": "Leaves the contract without owner. It will not be possible to call `onlyOwner` functions. Can only be called by the current owner. NOTE: Renouncing ownership will leave the contract without an owner, thereby disabling any functionality that is only available to the owner."
      },
      "symbol()": {
        "details": "Returns the symbol of the token, usually a shorter version of the name."
      },
      "totalSupply()": {
        "details": "See {IERC20-totalSupply}."
      },
      "transfer(address,uint256)": {
        "details": "See {IERC20-transfer}. Requirements: - `to` cannot be the zero address. - the caller must have a balance of at least `amount`."
      },
      "transferAndCall(address,uint256)": {
        "details": "Moves a `value` amount of tokens from the caller's account to `to` and then calls {IERC1363Receiver-onTransferReceived} on `to`. Returns a flag that indicates if the call succeeded. Requirements: - The target has code (i.e. is a contract). - The target `to` must implement the {IERC1363Receiver} interface. - The target must return the {IERC1363Receiver-onTransferReceived} selector to accept the transfer. - The internal {transfer} must succeed (returned `true`)."
      },
      "transferAndCall(address,uint256,bytes)": {
        "details": "Variant of {transferAndCall} that accepts an additional `data` parameter with no specified format. 用户调用transferAndCall函数，使用DCF购买NFT时，最后一个参数需要传入 tokenID + buyAmount 的hex格式 （tokenID和buyAmount 都是uint256类型），前缀为0x，总共长度为66字节。",
        "params": {
          "data": "tokenID + buyAmount (each uint256), 64 bytes total",
          "to": "NFT合约的地址，花费value的token购买“buyAmount”数量的NFT",
          "value": "花费的token数量,单位是最小单位,花费1个token,则value=1*10^9"
        }
      },
      "transferFrom(address,address,uint256)": {
        "details": "See {IERC20-transferFrom}. Emits an {Approval} event indicating the updated allowance. This is not required by the EIP. See the note at the beginning of {ERC20}. NOTE: Does not update the allowance if the current allowance is the maximum `uint256`. Requirements: - `from` and `to` cannot be the zero address. - `from` must have a balance of at least `amount`. - the caller must have allowance for ``from``'s tokens of at least `amount`."
      },
      "transferFromAndCall(address,address,uint256)": {
        "details": "Moves a `value` amount of tokens from `from` to `to` using the allowance mechanism and then calls {IERC1363Receiver-onTransferReceived} on `to`. Returns a flag that indicates if the call succeeded. 没有实现 Requirements: - The target has code (i.e. is a contract). - The target `to` must implement the {IERC1363Receiver} interface. - The target must return the {IERC1363Receiver-onTransferReceived} selector to accept the transfer. - The internal {transferFrom} must succeed (returned `true`)."
      },
      "transferFromAndCall(address,address,uint256,bytes)": {
        "details": "Variant of {transferFromAndCall} that accepts an additional `data` parameter with no specified format. 没有实现"
      },
      "transferOwnership(address)": {
        "details": "Transfers ownership of the contract to a new account (`newOwner`). Can only be called by the current owner."
      }
    },
    "version": 1
  },
  "evm": {
    "gasEstimates": {
      "creation": {
        "codeDepositCost": "1347600",
        "executionCost": "infinite",
        "totalCost": "infinite"
      },
      "external": {
        "allowance(address,address)": "infinite",
        "approve(address,uint256)": "22687",
        "approveAndCall(address,uint256)": "507",
        "approveAndCall(address,uint256,bytes)": "infinite",
        "balanceOf(address)": "1381",
        "decimals()": "352",
        "decreaseAllowance(address,uint256)": "23756",
        "dynamicVault()": "1115",
        "increaseAllowance(address,uint256)": "23741",
        "initialize(address,address)": "infinite",
        "name()": "infinite",
        "owner()": "1115",
        "pause()": "infinite",
        "paused()": "1146",
        "releaseDailyTokens()": "infinite",
        "renounceOwnership()": "infinite",
        "staticVault()": "1114",
        "supportsInterface(bytes4)": "infinite",
        "symbol()": "infinite",
        "totalSupply()": "1096",
        "transfer(address,uint256)": "infinite",
        "transferAndCall(address,uint256)": "507",
        "transferAndCall(address,uint256,bytes)": "infinite",
        "transferFrom(address,address,uint256)": "infinite",
        "transferFromAndCall(address,address,uint256)": "infinite",
        "transferFromAndCall(address,address,uint256,bytes)": "infinite",
        "transferOwnership(address)": "23836",
        "unpause()": "infinite",
        "withdrawFromDynamicVault(address,uint256)": "infinite",
        "withdrawFromStaticVault(address,uint256)": "infinite"
      }
    }
  },
  "storageLayout": {
    "storage": [
      {
        "astId": 694,
        "contract": "project/contracts/TCF.sol:TCF",
        "label": "_initialized",
        "offset": 0,
        "slot": "0",
        "type": "t_bool"
      },
      {
        "astId": 697,
        "contract": "project/contracts/TCF.sol:TCF",
        "label": "_initializing",
        "offset": 1,
        "slot": "0",
        "type": "t_bool"
      },
      {
        "astId": 957,
        "contract": "project/contracts/TCF.sol:TCF",
        "label": "_balances",
        "offset": 0,
        "slot": "1",
        "type": "t_mapping(t_address,t_uint256)"
      },
      {
        "astId": 963,
        "contract": "project/contracts/TCF.sol:TCF",
        "label": "_allowances",
        "offset": 0,
        "slot": "2",
        "type": "t_mapping(t_address,t_mapping(t_address,t_uint256))"
      },
      {
        "astId": 965,
        "contract": "project/contracts/TCF.sol:TCF",
        "label": "_totalSupply",
        "offset": 0,
        "slot": "3",
        "type": "t_uint256"
      },
      {
        "astId": 967,
        "contract": "project/contracts/TCF.sol:TCF",
        "label": "_name",
        "offset": 0,
        "slot": "4",
        "type": "t_string_storage"
      },
      {
        "astId": 969,
        "contract": "project/contracts/TCF.sol:TCF",
        "label": "_symbol",
        "offset": 0,
        "slot": "5",
        "type": "t_string_storage"
      },
      {
        "astId": 478,
        "contract": "project/contracts/TCF.sol:TCF",
        "label": "_owner",
        "offset": 0,
        "slot": "6",
        "type": "t_address"
      },
      {
        "astId": 779,
        "contract": "project/contracts/TCF.sol:TCF",
        "label": "_paused",
        "offset": 20,
        "slot": "6",
        "type": "t_bool"
      },
      {
        "astId": 77,
        "contract": "project/contracts/TCF.sol:TCF",
        "label": "staticVault",
        "offset": 0,
        "slot": "7",
        "type": "t_contract(vault)470"
      },
      {
        "astId": 80,
        "contract": "project/contracts/TCF.sol:TCF",
        "label": "dynamicVault",
        "offset": 0,
        "slot": "8",
        "type": "t_contract(vault)470"
      }
    ],
    "types": {
      "t_address": {
        "encoding": "inplace",
        "label": "address",
        "numberOfBytes": "20"
      },
      "t_bool": {
        "encoding": "inplace",
        "label": "bool",
        "numberOfBytes": "1"
      },
      "t_contract(vault)470": {
        "encoding": "inplace",
        "label": "contract vault",
        "numberOfBytes": "20"
      },
      "t_mapping(t_address,t_mapping(t_address,t_uint256))": {
        "encoding": "mapping",
        "key": "t_address",
        "label": "mapping(address => mapping(address => uint256))",
        "numberOfBytes": "32",
        "value": "t_mapping(t_address,t_uint256)"
      },
      "t_mapping(t_address,t_uint256)": {
        "encoding": "mapping",
        "key": "t_address",
        "label": "mapping(address => uint256)",
        "numberOfBytes": "32",
        "value": "t_uint256"
      },
      "t_string_storage": {
        "encoding": "bytes",
        "label": "string",
        "numberOfBytes": "32"
      },
      "t_uint256": {
        "encoding": "inplace",
        "label": "uint256",
        "numberOfBytes": "32"
      }
    }
  },
  "userdoc": {
    "kind": "user",
    "methods": {},
    "version": 1
  },
  "argsData": "0x",
  "transaction": {
    "hash": "0x38bca2bae698fc1e493e0cdfd6803cd0db330a5fbb1f6b97f9baed335c4c4acc",
    "nonce": "0x0",
    "origin": "0xf39fd6e51aad88f6f4ce6ab8827279cfffb92266"
  }
}