{
  "address": "0x5fbdb2315678afecb367f032d93f642f64180aa3",
  "abi": [
    {
      "inputs": [],
      "stateMutability": "nonpayable",
      "type": "constructor"
    },
    {
      "anonymous": false,
      "inputs": [
        {
          "indexed": true,
          "internalType": "address",
          "name": "owner",
          "type": "address"
        },
        {
          "indexed": true,
          "internalType": "address",
          "name": "spender",
          "type": "address"
        },
        {
          "indexed": false,
          "internalType": "uint256",
          "name": "value",
          "type": "uint256"
        }
      ],
      "name": "Approval",
      "type": "event"
    },
    {
      "anonymous": false,
      "inputs": [
        {
          "indexed": true,
          "internalType": "address",
          "name": "previousOwner",
          "type": "address"
        },
        {
          "indexed": true,
          "internalType": "address",
          "name": "newOwner",
          "type": "address"
        }
      ],
      "name": "OwnershipTransferred",
      "type": "event"
    },
    {
      "anonymous": false,
      "inputs": [
        {
          "indexed": true,
          "internalType": "address",
          "name": "from",
          "type": "address"
        },
        {
          "indexed": true,
          "internalType": "address",
          "name": "to",
          "type": "address"
        },
        {
          "indexed": false,
          "internalType": "uint256",
          "name": "value",
          "type": "uint256"
        }
      ],
      "name": "Transfer",
      "type": "event"
    },
    {
      "inputs": [
        {
          "internalType": "address",
          "name": "owner",
          "type": "address"
        },
        {
          "internalType": "address",
          "name": "spender",
          "type": "address"
        }
      ],
      "name": "allowance",
      "outputs": [
        {
          "internalType": "uint256",
          "name": "",
          "type": "uint256"
        }
      ],
      "stateMutability": "view",
      "type": "function"
    },
    {
      "inputs": [
        {
          "internalType": "address",
          "name": "spender",
          "type": "address"
        },
        {
          "internalType": "uint256",
          "name": "amount",
          "type": "uint256"
        }
      ],
      "name": "approve",
      "outputs": [
        {
          "internalType": "bool",
          "name": "",
          "type": "bool"
        }
      ],
      "stateMutability": "nonpayable",
      "type": "function"
    },
    {
      "inputs": [
        {
          "internalType": "address",
          "name": "account",
          "type": "address"
        }
      ],
      "name": "balanceOf",
      "outputs": [
        {
          "internalType": "uint256",
          "name": "",
          "type": "uint256"
        }
      ],
      "stateMutability": "view",
      "type": "function"
    },
    {
      "inputs": [],
      "name": "decimals",
      "outputs": [
        {
          "internalType": "uint8",
          "name": "",
          "type": "uint8"
        }
      ],
      "stateMutability": "view",
      "type": "function"
    },
    {
      "inputs": [
        {
          "internalType": "address",
          "name": "spender",
          "type": "address"
        },
        {
          "internalType": "uint256",
          "name": "subtractedValue",
          "type": "uint256"
        }
      ],
      "name": "decreaseAllowance",
      "outputs": [
        {
          "internalType": "bool",
          "name": "",
          "type": "bool"
        }
      ],
      "stateMutability": "nonpayable",
      "type": "function"
    },
    {
      "inputs": [
        {
          "internalType": "address",
          "name": "spender",
          "type": "address"
        },
        {
          "internalType": "uint256",
          "name": "addedValue",
          "type": "uint256"
        }
      ],
      "name": "increaseAllowance",
      "outputs": [
        {
          "internalType": "bool",
          "name": "",
          "type": "bool"
        }
      ],
      "stateMutability": "nonpayable",
      "type": "function"
    },
    {
      "inputs": [
        {
          "internalType": "bytes",
          "name": "_tokenName",
          "type": "bytes"
        },
        {
          "internalType": "bytes",
          "name": "_tokenSymbol",
          "type": "bytes"
        },
        {
          "internalType": "address",
          "name": "addr_3",
          "type": "address"
        },
        {
          "internalType": "address",
          "name": "addr_7",
          "type": "address"
        }
      ],
      "name": "initialize",
      "outputs": [],
      "stateMutability": "nonpayable",
      "type": "function"
    },
    {
      "inputs": [],
      "name": "name",
      "outputs": [
        {
          "internalType": "string",
          "name": "",
          "type": "string"
        }
      ],
      "stateMutability": "view",
      "type": "function"
    },
    {
      "inputs": [],
      "name": "owner",
      "outputs": [
        {
          "internalType": "address",
          "name": "",
          "type": "address"
        }
      ],
      "stateMutability": "view",
      "type": "function"
    },
    {
      "inputs": [],
      "name": "renounceOwnership",
      "outputs": [],
      "stateMutability": "nonpayable",
      "type": "function"
    },
    {
      "inputs": [],
      "name": "symbol",
      "outputs": [
        {
          "internalType": "string",
          "name": "",
          "type": "string"
        }
      ],
      "stateMutability": "view",
      "type": "function"
    },
    {
      "inputs": [],
      "name": "totalSupply",
      "outputs": [
        {
          "internalType": "uint256",
          "name": "",
          "type": "uint256"
        }
      ],
      "stateMutability": "view",
      "type": "function"
    },
    {
      "inputs": [
        {
          "internalType": "address",
          "name": "to",
          "type": "address"
        },
        {
          "internalType": "uint256",
          "name": "amount",
          "type": "uint256"
        }
      ],
      "name": "transfer",
      "outputs": [
        {
          "internalType": "bool",
          "name": "",
          "type": "bool"
        }
      ],
      "stateMutability": "nonpayable",
      "type": "function"
    },
    {
      "inputs": [
        {
          "internalType": "address",
          "name": "from",
          "type": "address"
        },
        {
          "internalType": "address",
          "name": "to",
          "type": "address"
        },
        {
          "internalType": "uint256",
          "name": "amount",
          "type": "uint256"
        }
      ],
      "name": "transferFrom",
      "outputs": [
        {
          "internalType": "bool",
          "name": "",
          "type": "bool"
        }
      ],
      "stateMutability": "nonpayable",
      "type": "function"
    },
    {
      "inputs": [
        {
          "internalType": "address",
          "name": "newOwner",
          "type": "address"
        }
      ],
      "name": "transferOwnership",
      "outputs": [],
      "stateMutability": "nonpayable",
      "type": "function"
    }
  ],
  "contractName": "TCF",
  "sourceName": "contracts/TCF.sol",
  "bytecode": "0x608060405234801561001057600080fd5b5061002d61002261003260201b60201c565b61003a60201b60201c565b610100565b600033905090565b6000600660009054906101000a900473ffffffffffffffffffffffffffffffffffffffff16905081600660006101000a81548173ffffffffffffffffffffffffffffffffffffffff021916908373ffffffffffffffffffffffffffffffffffffffff1602179055508173ffffffffffffffffffffffffffffffffffffffff168173ffffffffffffffffffffffffffffffffffffffff167f8be0079c531659141344cd1fd0a4f28419497f9722a3daafe3b4186f6b6457e060405160405180910390a35050565b611d728061010f6000396000f3fe608060405234801561001057600080fd5b50600436106100f55760003560e01c806370a0823111610097578063a457c2d711610066578063a457c2d714610276578063a9059cbb146102a6578063dd62ed3e146102d6578063f2fde38b14610306576100f5565b806370a0823114610200578063715018a6146102305780638da5cb5b1461023a57806395d89b4114610258576100f5565b806322131d66116100d357806322131d661461016657806323b872dd14610182578063313ce567146101b257806339509351146101d0576100f5565b806306fdde03146100fa578063095ea7b31461011857806318160ddd14610148575b600080fd5b610102610322565b60405161010f9190611659565b60405180910390f35b610132600480360381019061012d9190611333565b6103b4565b60405161013f919061163e565b60405180910390f35b6101506103d7565b60405161015d91906117fb565b60405180910390f35b610180600480360381019061017b919061136f565b6103e1565b005b61019c600480360381019061019791906112e4565b610593565b6040516101a9919061163e565b60405180910390f35b6101ba6105c2565b6040516101c79190611816565b60405180910390f35b6101ea60048036038101906101e59190611333565b6105cb565b6040516101f7919061163e565b60405180910390f35b61021a6004803603810190610215919061127f565b610602565b60405161022791906117fb565b60405180910390f35b61023861064b565b005b61024261065f565b60405161024f9190611623565b60405180910390f35b610260610689565b60405161026d9190611659565b60405180910390f35b610290600480360381019061028b9190611333565b61071b565b60405161029d919061163e565b60405180910390f35b6102c060048036038101906102bb9190611333565b610792565b6040516102cd919061163e565b60405180910390f35b6102f060048036038101906102eb91906112a8565b6107b5565b6040516102fd91906117fb565b60405180910390f35b610320600480360381019061031b919061127f565b61083c565b005b6060600480546103319061192b565b80601f016020809104026020016040519081016040528092919081815260200182805461035d9061192b565b80156103aa5780601f1061037f576101008083540402835291602001916103aa565b820191906000526020600020905b81548152906001019060200180831161038d57829003601f168201915b5050505050905090565b6000806103bf6108c0565b90506103cc8185856108c8565b600191505092915050565b6000600354905090565b600060019054906101000a900460ff166104095760008054906101000a900460ff1615610412565b610411610a93565b5b610451576040517f08c379a00000000000000000000000000000000000000000000000000000000081526004016104489061171b565b60405180910390fd5b60008060019054906101000a900460ff1615905080156104a1576001600060016101000a81548160ff02191690831515021790555060016000806101000a81548160ff0219169083151502179055505b6104a9610aa4565b61053b87878080601f016020809104026020016040519081016040528093929190818152602001838380828437600081840152601f19601f8201169050808301925050505050505086868080601f016020809104026020016040519081016040528093929190818152602001838380828437600081840152601f19601f82011690508083019250505050505050610b22565b61054f61054661065f565b62476940610b7f565b61055c8362026160610b7f565b6105698262058de0610b7f565b801561058a5760008060016101000a81548160ff0219169083151502179055505b50505050505050565b60008061059e6108c0565b90506105ab858285610b95565b6105b6858585610c21565b60019150509392505050565b60006009905090565b6000806105d66108c0565b90506105f78185856105e885896107b5565b6105f2919061184d565b6108c8565b600191505092915050565b6000600160008373ffffffffffffffffffffffffffffffffffffffff1673ffffffffffffffffffffffffffffffffffffffff168152602001908152602001600020549050919050565b610653610aa4565b61065d6000610e9c565b565b6000600660009054906101000a900473ffffffffffffffffffffffffffffffffffffffff16905090565b6060600580546106989061192b565b80601f01602080910402602001604051908101604052809291908181526020018280546106c49061192b565b80156107115780601f106106e657610100808354040283529160200191610711565b820191906000526020600020905b8154815290600101906020018083116106f457829003601f168201915b5050505050905090565b6000806107266108c0565b9050600061073482866107b5565b905083811015610779576040517f08c379a0000000000000000000000000000000000000000000000000000000008152600401610770906117bb565b60405180910390fd5b61078682868684036108c8565b60019250505092915050565b60008061079d6108c0565b90506107aa818585610c21565b600191505092915050565b6000600260008473ffffffffffffffffffffffffffffffffffffffff1673ffffffffffffffffffffffffffffffffffffffff16815260200190815260200160002060008373ffffffffffffffffffffffffffffffffffffffff1673ffffffffffffffffffffffffffffffffffffffff16815260200190815260200160002054905092915050565b610844610aa4565b600073ffffffffffffffffffffffffffffffffffffffff168173ffffffffffffffffffffffffffffffffffffffff1614156108b4576040517f08c379a00000000000000000000000000000000000000000000000000000000081526004016108ab9061169b565b60405180910390fd5b6108bd81610e9c565b50565b600033905090565b600073ffffffffffffffffffffffffffffffffffffffff168373ffffffffffffffffffffffffffffffffffffffff161415610938576040517f08c379a000000000000000000000000000000000000000000000000000000000815260040161092f9061177b565b60405180910390fd5b600073ffffffffffffffffffffffffffffffffffffffff168273ffffffffffffffffffffffffffffffffffffffff1614156109a8576040517f08c379a000000000000000000000000000000000000000000000000000000000815260040161099f906116bb565b60405180910390fd5b80600260008573ffffffffffffffffffffffffffffffffffffffff1673ffffffffffffffffffffffffffffffffffffffff16815260200190815260200160002060008473ffffffffffffffffffffffffffffffffffffffff1673ffffffffffffffffffffffffffffffffffffffff168152602001908152602001600020819055508173ffffffffffffffffffffffffffffffffffffffff168373ffffffffffffffffffffffffffffffffffffffff167f8c5be1e5ebec7d5bd14f71427d1e84f3dd0314c0f7b2291e5b200ac8c7c3b92583604051610a8691906117fb565b60405180910390a3505050565b6000610a9e30610f62565b15905090565b610aac6108c0565b73ffffffffffffffffffffffffffffffffffffffff16610aca61065f565b73ffffffffffffffffffffffffffffffffffffffff1614610b20576040517f08c379a0000000000000000000000000000000000000000000000000000000008152600401610b179061173b565b60405180910390fd5b565b600060019054906101000a900460ff16610b71576040517f08c379a0000000000000000000000000000000000000000000000000000000008152600401610b689061179b565b60405180910390fd5b610b7b8282610f85565b5050565b610b87610aa4565b610b918282611006565b5050565b6000610ba184846107b5565b90507fffffffffffffffffffffffffffffffffffffffffffffffffffffffffffffffff8114610c1b5781811015610c0d576040517f08c379a0000000000000000000000000000000000000000000000000000000008152600401610c04906116db565b60405180910390fd5b610c1a84848484036108c8565b5b50505050565b600073ffffffffffffffffffffffffffffffffffffffff168373ffffffffffffffffffffffffffffffffffffffff161415610c91576040517f08c379a0000000000000000000000000000000000000000000000000000000008152600401610c889061175b565b60405180910390fd5b600073ffffffffffffffffffffffffffffffffffffffff168273ffffffffffffffffffffffffffffffffffffffff161415610d01576040517f08c379a0000000000000000000000000000000000000000000000000000000008152600401610cf89061167b565b60405180910390fd5b610d0c83838361115e565b6000600160008573ffffffffffffffffffffffffffffffffffffffff1673ffffffffffffffffffffffffffffffffffffffff16815260200190815260200160002054905081811015610d93576040517f08c379a0000000000000000000000000000000000000000000000000000000008152600401610d8a906116fb565b60405180910390fd5b818103600160008673ffffffffffffffffffffffffffffffffffffffff1673ffffffffffffffffffffffffffffffffffffffff1681526020019081526020016000208190555081600160008573ffffffffffffffffffffffffffffffffffffffff1673ffffffffffffffffffffffffffffffffffffffff168152602001908152602001600020600082825401925050819055508273ffffffffffffffffffffffffffffffffffffffff168473ffffffffffffffffffffffffffffffffffffffff167fddf252ad1be2c89b69c2b068fc378daa952ba7f163c4a11628f55a4df523b3ef84604051610e8391906117fb565b60405180910390a3610e96848484611163565b50505050565b6000600660009054906101000a900473ffffffffffffffffffffffffffffffffffffffff16905081600660006101000a81548173ffffffffffffffffffffffffffffffffffffffff021916908373ffffffffffffffffffffffffffffffffffffffff1602179055508173ffffffffffffffffffffffffffffffffffffffff168173ffffffffffffffffffffffffffffffffffffffff167f8be0079c531659141344cd1fd0a4f28419497f9722a3daafe3b4186f6b6457e060405160405180910390a35050565b6000808273ffffffffffffffffffffffffffffffffffffffff163b119050919050565b600060019054906101000a900460ff16610fd4576040517f08c379a0000000000000000000000000000000000000000000000000000000008152600401610fcb9061179b565b60405180910390fd5b8160049080519060200190610fea929190611168565b508060059080519060200190611001929190611168565b505050565b600073ffffffffffffffffffffffffffffffffffffffff168273ffffffffffffffffffffffffffffffffffffffff161415611076576040517f08c379a000000000000000000000000000000000000000000000000000000000815260040161106d906117db565b60405180910390fd5b6110826000838361115e565b8060036000828254611094919061184d565b9250508190555080600160008473ffffffffffffffffffffffffffffffffffffffff1673ffffffffffffffffffffffffffffffffffffffff168152602001908152602001600020600082825401925050819055508173ffffffffffffffffffffffffffffffffffffffff16600073ffffffffffffffffffffffffffffffffffffffff167fddf252ad1be2c89b69c2b068fc378daa952ba7f163c4a11628f55a4df523b3ef8360405161114691906117fb565b60405180910390a361115a60008383611163565b5050565b505050565b505050565b8280546111749061192b565b90600052602060002090601f01602090048101928261119657600085556111dd565b82601f106111af57805160ff19168380011785556111dd565b828001600101855582156111dd579182015b828111156111dc5782518255916020019190600101906111c1565b5b5090506111ea91906111ee565b5090565b5b808211156112075760008160009055506001016111ef565b5090565b60008135905061121a81611d0e565b92915050565b60008083601f84011261123257600080fd5b8235905067ffffffffffffffff81111561124b57600080fd5b60208301915083600182028301111561126357600080fd5b9250929050565b60008135905061127981611d25565b92915050565b60006020828403121561129157600080fd5b600061129f8482850161120b565b91505092915050565b600080604083850312156112bb57600080fd5b60006112c98582860161120b565b92505060206112da8582860161120b565b9150509250929050565b6000806000606084860312156112f957600080fd5b60006113078682870161120b565b93505060206113188682870161120b565b92505060406113298682870161126a565b9150509250925092565b6000806040838503121561134657600080fd5b60006113548582860161120b565b92505060206113658582860161126a565b9150509250929050565b6000806000806000806080878903121561138857600080fd5b600087013567ffffffffffffffff8111156113a257600080fd5b6113ae89828a01611220565b9650965050602087013567ffffffffffffffff8111156113cd57600080fd5b6113d989828a01611220565b945094505060406113ec89828a0161120b565b92505060606113fd89828a0161120b565b9150509295509295509295565b611413816118a3565b82525050565b611422816118b5565b82525050565b600061143382611831565b61143d818561183c565b935061144d8185602086016118f8565b611456816119bb565b840191505092915050565b600061146e60238361183c565b9150611479826119cc565b604082019050919050565b600061149160268361183c565b915061149c82611a1b565b604082019050919050565b60006114b460228361183c565b91506114bf82611a6a565b604082019050919050565b60006114d7601d8361183c565b91506114e282611ab9565b602082019050919050565b60006114fa60268361183c565b915061150582611ae2565b604082019050919050565b600061151d602e8361183c565b915061152882611b31565b604082019050919050565b600061154060208361183c565b915061154b82611b80565b602082019050919050565b600061156360258361183c565b915061156e82611ba9565b604082019050919050565b600061158660248361183c565b915061159182611bf8565b604082019050919050565b60006115a9602b8361183c565b91506115b482611c47565b604082019050919050565b60006115cc60258361183c565b91506115d782611c96565b604082019050919050565b60006115ef601f8361183c565b91506115fa82611ce5565b602082019050919050565b61160e816118e1565b82525050565b61161d816118eb565b82525050565b6000602082019050611638600083018461140a565b92915050565b60006020820190506116536000830184611419565b92915050565b600060208201905081810360008301526116738184611428565b905092915050565b6000602082019050818103600083015261169481611461565b9050919050565b600060208201905081810360008301526116b481611484565b9050919050565b600060208201905081810360008301526116d4816114a7565b9050919050565b600060208201905081810360008301526116f4816114ca565b9050919050565b60006020820190508181036000830152611714816114ed565b9050919050565b6000602082019050818103600083015261173481611510565b9050919050565b6000602082019050818103600083015261175481611533565b9050919050565b6000602082019050818103600083015261177481611556565b9050919050565b6000602082019050818103600083015261179481611579565b9050919050565b600060208201905081810360008301526117b48161159c565b9050919050565b600060208201905081810360008301526117d4816115bf565b9050919050565b600060208201905081810360008301526117f4816115e2565b9050919050565b60006020820190506118106000830184611605565b92915050565b600060208201905061182b6000830184611614565b92915050565b600081519050919050565b600082825260208201905092915050565b6000611858826118e1565b9150611863836118e1565b9250827fffffffffffffffffffffffffffffffffffffffffffffffffffffffffffffffff038211156118985761189761195d565b5b828201905092915050565b60006118ae826118c1565b9050919050565b60008115159050919050565b600073ffffffffffffffffffffffffffffffffffffffff82169050919050565b6000819050919050565b600060ff82169050919050565b60005b838110156119165780820151818401526020810190506118fb565b83811115611925576000848401525b50505050565b6000600282049050600182168061194357607f821691505b602082108114156119575761195661198c565b5b50919050565b7f4e487b7100000000000000000000000000000000000000000000000000000000600052601160045260246000fd5b7f4e487b7100000000000000000000000000000000000000000000000000000000600052602260045260246000fd5b6000601f19601f8301169050919050565b7f45524332303a207472616e7366657220746f20746865207a65726f206164647260008201527f6573730000000000000000000000000000000000000000000000000000000000602082015250565b7f4f776e61626c653a206e6577206f776e657220697320746865207a65726f206160008201527f6464726573730000000000000000000000000000000000000000000000000000602082015250565b7f45524332303a20617070726f766520746f20746865207a65726f20616464726560008201527f7373000000000000000000000000000000000000000000000000000000000000602082015250565b7f45524332303a20696e73756666696369656e7420616c6c6f77616e6365000000600082015250565b7f45524332303a207472616e7366657220616d6f756e742065786365656473206260008201527f616c616e63650000000000000000000000000000000000000000000000000000602082015250565b7f496e697469616c697a61626c653a20636f6e747261637420697320616c72656160008201527f647920696e697469616c697a6564000000000000000000000000000000000000602082015250565b7f4f776e61626c653a2063616c6c6572206973206e6f7420746865206f776e6572600082015250565b7f45524332303a207472616e736665722066726f6d20746865207a65726f20616460008201527f6472657373000000000000000000000000000000000000000000000000000000602082015250565b7f45524332303a20617070726f76652066726f6d20746865207a65726f2061646460008201527f7265737300000000000000000000000000000000000000000000000000000000602082015250565b7f496e697469616c697a61626c653a20636f6e7472616374206973206e6f74206960008201527f6e697469616c697a696e67000000000000000000000000000000000000000000602082015250565b7f45524332303a2064656372656173656420616c6c6f77616e63652062656c6f7760008201527f207a65726f000000000000000000000000000000000000000000000000000000602082015250565b7f45524332303a206d696e7420746f20746865207a65726f206164647265737300600082015250565b611d17816118a3565b8114611d2257600080fd5b50565b611d2e816118e1565b8114611d3957600080fd5b5056fea2646970667358221220418b0b9c66bd565808e4249b77d2d4482905e62f869ab86fc9a72c782875e77164736f6c63430008010033",
  "linkReferences": {},
  "deployedLinkReferences": {},
  "immutableReferences": {},
  "inputSourceName": "project/contracts/TCF.sol",
  "devdoc": {
    "kind": "dev",
    "methods": {
      "allowance(address,address)": {
        "details": "See {IERC20-allowance}."
      },
      "approve(address,uint256)": {
        "details": "See {IERC20-approve}. NOTE: If `amount` is the maximum `uint256`, the allowance is not updated on `transferFrom`. This is semantically equivalent to an infinite approval. Requirements: - `spender` cannot be the zero address."
      },
      "balanceOf(address)": {
        "details": "See {IERC20-balanceOf}."
      },
      "decimals()": {
        "details": "Returns the number of decimals used to get its user representation. For example, if `decimals` equals `2`, a balance of `505` tokens should be displayed to a user as `5.05` (`505 / 10 ** 2`). Tokens usually opt for a value of 18, imitating the relationship between Ether and Wei. This is the default value returned by this function, unless it's overridden. NOTE: This information is only used for _display_ purposes: it in no way affects any of the arithmetic of the contract, including {IERC20-balanceOf} and {IERC20-transfer}."
      },
      "decreaseAllowance(address,uint256)": {
        "details": "Atomically decreases the allowance granted to `spender` by the caller. This is an alternative to {approve} that can be used as a mitigation for problems described in {IERC20-approve}. Emits an {Approval} event indicating the updated allowance. Requirements: - `spender` cannot be the zero address. - `spender` must have allowance for the caller of at least `subtractedValue`."
      },
      "increaseAllowance(address,uint256)": {
        "details": "Atomically increases the allowance granted to `spender` by the caller. This is an alternative to {approve} that can be used as a mitigation for problems described in {IERC20-approve}. Emits an {Approval} event indicating the updated allowance. Requirements: - `spender` cannot be the zero address."
      },
      "name()": {
        "details": "Returns the name of the token."
      },
      "owner()": {
        "details": "Returns the address of the current owner."
      },
      "renounceOwnership()": {
        "details": "Leaves the contract without owner. It will not be possible to call `onlyOwner` functions. Can only be called by the current owner. NOTE: Renouncing ownership will leave the contract without an owner, thereby disabling any functionality that is only available to the owner."
      },
      "symbol()": {
        "details": "Returns the symbol of the token, usually a shorter version of the name."
      },
      "totalSupply()": {
        "details": "See {IERC20-totalSupply}."
      },
      "transfer(address,uint256)": {
        "details": "See {IERC20-transfer}. Requirements: - `to` cannot be the zero address. - the caller must have a balance of at least `amount`."
      },
      "transferFrom(address,address,uint256)": {
        "details": "See {IERC20-transferFrom}. Emits an {Approval} event indicating the updated allowance. This is not required by the EIP. See the note at the beginning of {ERC20}. NOTE: Does not update the allowance if the current allowance is the maximum `uint256`. Requirements: - `from` and `to` cannot be the zero address. - `from` must have a balance of at least `amount`. - the caller must have allowance for ``from``'s tokens of at least `amount`."
      },
      "transferOwnership(address)": {
        "details": "Transfers ownership of the contract to a new account (`newOwner`). Can only be called by the current owner."
      }
    },
    "version": 1
  },
  "evm": {
    "gasEstimates": {
      "creation": {
        "codeDepositCost": "1507600",
        "executionCost": "infinite",
        "totalCost": "infinite"
      },
      "external": {
        "allowance(address,address)": "infinite",
        "approve(address,uint256)": "infinite",
        "balanceOf(address)": "1564",
        "decimals()": "410",
        "decreaseAllowance(address,uint256)": "infinite",
        "increaseAllowance(address,uint256)": "infinite",
        "initialize(bytes,bytes,address,address)": "infinite",
        "name()": "infinite",
        "owner()": "1289",
        "renounceOwnership()": "24443",
        "symbol()": "infinite",
        "totalSupply()": "1205",
        "transfer(address,uint256)": "infinite",
        "transferFrom(address,address,uint256)": "infinite",
        "transferOwnership(address)": "24835"
      },
      "internal": {
        "mint(address,uint256)": "infinite"
      }
    }
  },
  "storageLayout": {
    "storage": [
      {
        "astId": 782,
        "contract": "project/contracts/TCF.sol:TCF",
        "label": "_initialized",
        "offset": 0,
        "slot": "0",
        "type": "t_bool"
      },
      {
        "astId": 785,
        "contract": "project/contracts/TCF.sol:TCF",
        "label": "_initializing",
        "offset": 1,
        "slot": "0",
        "type": "t_bool"
      },
      {
        "astId": 2756,
        "contract": "project/contracts/TCF.sol:TCF",
        "label": "_balances",
        "offset": 0,
        "slot": "1",
        "type": "t_mapping(t_address,t_uint256)"
      },
      {
        "astId": 2762,
        "contract": "project/contracts/TCF.sol:TCF",
        "label": "_allowances",
        "offset": 0,
        "slot": "2",
        "type": "t_mapping(t_address,t_mapping(t_address,t_uint256))"
      },
      {
        "astId": 2764,
        "contract": "project/contracts/TCF.sol:TCF",
        "label": "_totalSupply",
        "offset": 0,
        "slot": "3",
        "type": "t_uint256"
      },
      {
        "astId": 2766,
        "contract": "project/contracts/TCF.sol:TCF",
        "label": "_name",
        "offset": 0,
        "slot": "4",
        "type": "t_string_storage"
      },
      {
        "astId": 2768,
        "contract": "project/contracts/TCF.sol:TCF",
        "label": "_symbol",
        "offset": 0,
        "slot": "5",
        "type": "t_string_storage"
      },
      {
        "astId": 669,
        "contract": "project/contracts/TCF.sol:TCF",
        "label": "_owner",
        "offset": 0,
        "slot": "6",
        "type": "t_address"
      }
    ],
    "types": {
      "t_address": {
        "encoding": "inplace",
        "label": "address",
        "numberOfBytes": "20"
      },
      "t_bool": {
        "encoding": "inplace",
        "label": "bool",
        "numberOfBytes": "1"
      },
      "t_mapping(t_address,t_mapping(t_address,t_uint256))": {
        "encoding": "mapping",
        "key": "t_address",
        "label": "mapping(address => mapping(address => uint256))",
        "numberOfBytes": "32",
        "value": "t_mapping(t_address,t_uint256)"
      },
      "t_mapping(t_address,t_uint256)": {
        "encoding": "mapping",
        "key": "t_address",
        "label": "mapping(address => uint256)",
        "numberOfBytes": "32",
        "value": "t_uint256"
      },
      "t_string_storage": {
        "encoding": "bytes",
        "label": "string",
        "numberOfBytes": "32"
      },
      "t_uint256": {
        "encoding": "inplace",
        "label": "uint256",
        "numberOfBytes": "32"
      }
    }
  },
  "userdoc": {
    "kind": "user",
    "methods": {},
    "version": 1
  },
  "argsData": "0x",
  "transaction": {
    "hash": "0x8e7506ec4c137720089a6d19cabc29a75c2f9a4821ce6fc8e0bc35eacf9d8246",
    "nonce": "0x0",
    "origin": "0xf39fd6e51aad88f6f4ce6ab8827279cfffb92266"
  }
}