{
  "address": "0xdc64a140aa3e981100a9beca4e685f962f0cf6c9",
  "abi": [
    {
      "anonymous": false,
      "inputs": [
        {
          "indexed": true,
          "internalType": "address",
          "name": "account",
          "type": "address"
        },
        {
          "indexed": true,
          "internalType": "address",
          "name": "operator",
          "type": "address"
        },
        {
          "indexed": false,
          "internalType": "bool",
          "name": "approved",
          "type": "bool"
        }
      ],
      "name": "ApprovalForAll",
      "type": "event"
    },
    {
      "anonymous": false,
      "inputs": [
        {
          "indexed": true,
          "internalType": "uint256",
          "name": "tokenID",
          "type": "uint256"
        },
        {
          "indexed": false,
          "internalType": "uint8",
          "name": "previousRatio",
          "type": "uint8"
        },
        {
          "indexed": false,
          "internalType": "uint8",
          "name": "newRatio",
          "type": "uint8"
        }
      ],
      "name": "DynamicRatioChanged",
      "type": "event"
    },
    {
      "anonymous": false,
      "inputs": [
        {
          "indexed": true,
          "internalType": "uint256",
          "name": "tokenID",
          "type": "uint256"
        },
        {
          "indexed": true,
          "internalType": "address",
          "name": "paymentToken",
          "type": "address"
        },
        {
          "indexed": false,
          "internalType": "uint256",
          "name": "oldPrice",
          "type": "uint256"
        },
        {
          "indexed": false,
          "internalType": "uint256",
          "name": "newPrice",
          "type": "uint256"
        }
      ],
      "name": "NFTPriceChanged",
      "type": "event"
    },
    {
      "anonymous": false,
      "inputs": [
        {
          "indexed": true,
          "internalType": "address",
          "name": "buyer",
          "type": "address"
        },
        {
          "indexed": true,
          "internalType": "uint256",
          "name": "tokenId",
          "type": "uint256"
        },
        {
          "indexed": false,
          "internalType": "uint256",
          "name": "amount",
          "type": "uint256"
        },
        {
          "indexed": false,
          "internalType": "uint256",
          "name": "pricePerUnit",
          "type": "uint256"
        }
      ],
      "name": "NFTPurchasedWithTC",
      "type": "event"
    },
    {
      "anonymous": false,
      "inputs": [
        {
          "indexed": true,
          "internalType": "address",
          "name": "buyer",
          "type": "address"
        },
        {
          "indexed": true,
          "internalType": "address",
          "name": "paymentToken",
          "type": "address"
        },
        {
          "indexed": true,
          "internalType": "uint256",
          "name": "tokenId",
          "type": "uint256"
        },
        {
          "indexed": false,
          "internalType": "uint256",
          "name": "amount",
          "type": "uint256"
        },
        {
          "indexed": false,
          "internalType": "uint256",
          "name": "pricePerUnit",
          "type": "uint256"
        }
      ],
      "name": "NFTPurchasedWithToken",
      "type": "event"
    },
    {
      "anonymous": false,
      "inputs": [
        {
          "indexed": true,
          "internalType": "address",
          "name": "node",
          "type": "address"
        },
        {
          "indexed": true,
          "internalType": "address",
          "name": "parent",
          "type": "address"
        },
        {
          "indexed": true,
          "internalType": "address",
          "name": "recommender",
          "type": "address"
        },
        {
          "indexed": false,
          "internalType": "bool",
          "name": "isLeft",
          "type": "bool"
        }
      ],
      "name": "NodeInserted",
      "type": "event"
    },
    {
      "anonymous": false,
      "inputs": [
        {
          "indexed": true,
          "internalType": "address",
          "name": "previousOwner",
          "type": "address"
        },
        {
          "indexed": true,
          "internalType": "address",
          "name": "newOwner",
          "type": "address"
        }
      ],
      "name": "OwnershipTransferred",
      "type": "event"
    },
    {
      "anonymous": false,
      "inputs": [
        {
          "indexed": false,
          "internalType": "address",
          "name": "account",
          "type": "address"
        }
      ],
      "name": "Paused",
      "type": "event"
    },
    {
      "anonymous": false,
      "inputs": [
        {
          "indexed": true,
          "internalType": "address",
          "name": "root",
          "type": "address"
        }
      ],
      "name": "RootInitialized",
      "type": "event"
    },
    {
      "anonymous": false,
      "inputs": [
        {
          "indexed": true,
          "internalType": "address",
          "name": "to",
          "type": "address"
        },
        {
          "indexed": true,
          "internalType": "uint256",
          "name": "tokenId",
          "type": "uint256"
        },
        {
          "indexed": false,
          "internalType": "uint256",
          "name": "editionId",
          "type": "uint256"
        },
        {
          "indexed": false,
          "internalType": "uint64",
          "name": "mintedAt",
          "type": "uint64"
        }
      ],
      "name": "TokenEditionMinted",
      "type": "event"
    },
    {
      "anonymous": false,
      "inputs": [
        {
          "indexed": true,
          "internalType": "address",
          "name": "operator",
          "type": "address"
        },
        {
          "indexed": true,
          "internalType": "address",
          "name": "from",
          "type": "address"
        },
        {
          "indexed": true,
          "internalType": "address",
          "name": "to",
          "type": "address"
        },
        {
          "indexed": false,
          "internalType": "uint256[]",
          "name": "ids",
          "type": "uint256[]"
        },
        {
          "indexed": false,
          "internalType": "uint256[]",
          "name": "values",
          "type": "uint256[]"
        }
      ],
      "name": "TransferBatch",
      "type": "event"
    },
    {
      "anonymous": false,
      "inputs": [
        {
          "indexed": true,
          "internalType": "address",
          "name": "operator",
          "type": "address"
        },
        {
          "indexed": true,
          "internalType": "address",
          "name": "from",
          "type": "address"
        },
        {
          "indexed": true,
          "internalType": "address",
          "name": "to",
          "type": "address"
        },
        {
          "indexed": false,
          "internalType": "uint256",
          "name": "id",
          "type": "uint256"
        },
        {
          "indexed": false,
          "internalType": "uint256",
          "name": "value",
          "type": "uint256"
        }
      ],
      "name": "TransferSingle",
      "type": "event"
    },
    {
      "anonymous": false,
      "inputs": [
        {
          "indexed": false,
          "internalType": "string",
          "name": "value",
          "type": "string"
        },
        {
          "indexed": true,
          "internalType": "uint256",
          "name": "id",
          "type": "uint256"
        }
      ],
      "name": "URI",
      "type": "event"
    },
    {
      "anonymous": false,
      "inputs": [
        {
          "indexed": false,
          "internalType": "address",
          "name": "account",
          "type": "address"
        }
      ],
      "name": "Unpaused",
      "type": "event"
    },
    {
      "anonymous": false,
      "inputs": [
        {
          "indexed": true,
          "internalType": "address",
          "name": "operator",
          "type": "address"
        },
        {
          "indexed": true,
          "internalType": "address",
          "name": "previousAddress",
          "type": "address"
        },
        {
          "indexed": true,
          "internalType": "address",
          "name": "newAddress",
          "type": "address"
        }
      ],
      "name": "WithdrawAddressUpdated",
      "type": "event"
    },
    {
      "inputs": [
        {
          "internalType": "address",
          "name": "from",
          "type": "address"
        },
        {
          "internalType": "address",
          "name": "to",
          "type": "address"
        },
        {
          "internalType": "uint256",
          "name": "id",
          "type": "uint256"
        },
        {
          "internalType": "uint256[]",
          "name": "indexes",
          "type": "uint256[]"
        },
        {
          "internalType": "bytes",
          "name": "data",
          "type": "bytes"
        }
      ],
      "name": "ESafeTransferFrom",
      "outputs": [],
      "stateMutability": "nonpayable",
      "type": "function"
    },
    {
      "inputs": [
        {
          "internalType": "uint256",
          "name": "tokenId",
          "type": "uint256"
        }
      ],
      "name": "Euri",
      "outputs": [
        {
          "internalType": "string",
          "name": "",
          "type": "string"
        }
      ],
      "stateMutability": "view",
      "type": "function"
    },
    {
      "inputs": [],
      "name": "NFTPrice_initialized",
      "outputs": [
        {
          "internalType": "uint8",
          "name": "",
          "type": "uint8"
        }
      ],
      "stateMutability": "view",
      "type": "function"
    },
    {
      "inputs": [],
      "name": "_initializedURIStorage",
      "outputs": [
        {
          "internalType": "uint8",
          "name": "",
          "type": "uint8"
        }
      ],
      "stateMutability": "view",
      "type": "function"
    },
    {
      "inputs": [
        {
          "internalType": "address",
          "name": "_tokenAddress",
          "type": "address"
        }
      ],
      "name": "addSupportedToken",
      "outputs": [],
      "stateMutability": "nonpayable",
      "type": "function"
    },
    {
      "inputs": [
        {
          "internalType": "address",
          "name": "account",
          "type": "address"
        },
        {
          "internalType": "uint256",
          "name": "id",
          "type": "uint256"
        }
      ],
      "name": "balanceOf",
      "outputs": [
        {
          "internalType": "uint256",
          "name": "",
          "type": "uint256"
        }
      ],
      "stateMutability": "view",
      "type": "function"
    },
    {
      "inputs": [
        {
          "internalType": "address[]",
          "name": "",
          "type": "address[]"
        },
        {
          "internalType": "uint256[]",
          "name": "",
          "type": "uint256[]"
        }
      ],
      "name": "balanceOfBatch",
      "outputs": [
        {
          "internalType": "uint256[]",
          "name": "",
          "type": "uint256[]"
        }
      ],
      "stateMutability": "view",
      "type": "function"
    },
    {
      "inputs": [
        {
          "internalType": "uint256",
          "name": "id",
          "type": "uint256"
        },
        {
          "internalType": "uint256",
          "name": "buyAmount",
          "type": "uint256"
        }
      ],
      "name": "buyNFTByTC",
      "outputs": [],
      "stateMutability": "payable",
      "type": "function"
    },
    {
      "inputs": [
        {
          "internalType": "uint256",
          "name": "tokenID",
          "type": "uint256"
        },
        {
          "internalType": "uint8",
          "name": "newRatio",
          "type": "uint8"
        }
      ],
      "name": "changeDynamicRatio",
      "outputs": [],
      "stateMutability": "nonpayable",
      "type": "function"
    },
    {
      "inputs": [
        {
          "internalType": "uint256",
          "name": "tokenID",
          "type": "uint256"
        },
        {
          "internalType": "address",
          "name": "tokenAddress",
          "type": "address"
        },
        {
          "internalType": "uint256",
          "name": "amount",
          "type": "uint256"
        }
      ],
      "name": "changeNFTPrice",
      "outputs": [],
      "stateMutability": "nonpayable",
      "type": "function"
    },
    {
      "inputs": [
        {
          "components": [
            {
              "internalType": "address",
              "name": "tokenAddress",
              "type": "address"
            },
            {
              "internalType": "uint256",
              "name": "amount",
              "type": "uint256"
            }
          ],
          "internalType": "struct TCF_NFTPrice.priceTypeAndAomut[][6]",
          "name": "prices",
          "type": "tuple[][6]"
        }
      ],
      "name": "checkInitPricesParams",
      "outputs": [
        {
          "internalType": "string",
          "name": "",
          "type": "string"
        }
      ],
      "stateMutability": "view",
      "type": "function"
    },
    {
      "inputs": [
        {
          "internalType": "address",
          "name": "node",
          "type": "address"
        }
      ],
      "name": "getChildren",
      "outputs": [
        {
          "internalType": "address",
          "name": "left",
          "type": "address"
        },
        {
          "internalType": "address",
          "name": "right",
          "type": "address"
        }
      ],
      "stateMutability": "view",
      "type": "function"
    },
    {
      "inputs": [
        {
          "internalType": "uint256",
          "name": "tokenID",
          "type": "uint256"
        }
      ],
      "name": "getNFTEquityDetails",
      "outputs": [
        {
          "internalType": "uint8",
          "name": "ratio",
          "type": "uint8"
        },
        {
          "internalType": "uint32",
          "name": "indate",
          "type": "uint32"
        }
      ],
      "stateMutability": "view",
      "type": "function"
    },
    {
      "inputs": [
        {
          "internalType": "uint256",
          "name": "tokenID",
          "type": "uint256"
        },
        {
          "internalType": "address",
          "name": "_tokenAddress",
          "type": "address"
        }
      ],
      "name": "getNFTPrice",
      "outputs": [
        {
          "internalType": "string",
          "name": "",
          "type": "string"
        },
        {
          "internalType": "uint256",
          "name": "",
          "type": "uint256"
        }
      ],
      "stateMutability": "view",
      "type": "function"
    },
    {
      "inputs": [
        {
          "internalType": "uint256",
          "name": "tokenId",
          "type": "uint256"
        },
        {
          "internalType": "uint256",
          "name": "editionId",
          "type": "uint256"
        }
      ],
      "name": "getNftMintTime",
      "outputs": [
        {
          "internalType": "uint64",
          "name": "",
          "type": "uint64"
        }
      ],
      "stateMutability": "view",
      "type": "function"
    },
    {
      "inputs": [
        {
          "internalType": "address",
          "name": "node",
          "type": "address"
        }
      ],
      "name": "getNodeBalance",
      "outputs": [
        {
          "internalType": "uint256",
          "name": "",
          "type": "uint256"
        }
      ],
      "stateMutability": "view",
      "type": "function"
    },
    {
      "inputs": [
        {
          "internalType": "address",
          "name": "node",
          "type": "address"
        }
      ],
      "name": "getParent",
      "outputs": [
        {
          "internalType": "address",
          "name": "",
          "type": "address"
        }
      ],
      "stateMutability": "view",
      "type": "function"
    },
    {
      "inputs": [
        {
          "internalType": "address",
          "name": "recommender",
          "type": "address"
        }
      ],
      "name": "getRecommendedParent",
      "outputs": [
        {
          "internalType": "address",
          "name": "parent",
          "type": "address"
        },
        {
          "internalType": "bool",
          "name": "isLeftBranch",
          "type": "bool"
        }
      ],
      "stateMutability": "view",
      "type": "function"
    },
    {
      "inputs": [
        {
          "internalType": "address",
          "name": "node",
          "type": "address"
        }
      ],
      "name": "getRecommender",
      "outputs": [
        {
          "internalType": "address",
          "name": "",
          "type": "address"
        }
      ],
      "stateMutability": "view",
      "type": "function"
    },
    {
      "inputs": [
        {
          "internalType": "address",
          "name": "owner",
          "type": "address"
        }
      ],
      "name": "getTotalNFTWorth",
      "outputs": [
        {
          "internalType": "uint256",
          "name": "",
          "type": "uint256"
        }
      ],
      "stateMutability": "view",
      "type": "function"
    },
    {
      "inputs": [
        {
          "internalType": "address",
          "name": "account",
          "type": "address"
        },
        {
          "internalType": "uint256",
          "name": "tokenId",
          "type": "uint256"
        }
      ],
      "name": "getUserTokenIds",
      "outputs": [
        {
          "internalType": "uint256[]",
          "name": "",
          "type": "uint256[]"
        }
      ],
      "stateMutability": "view",
      "type": "function"
    },
    {
      "inputs": [],
      "name": "getWithdrawAddress",
      "outputs": [
        {
          "internalType": "address",
          "name": "",
          "type": "address"
        }
      ],
      "stateMutability": "view",
      "type": "function"
    },
    {
      "inputs": [
        {
          "components": [
            {
              "internalType": "address",
              "name": "tokenAddress",
              "type": "address"
            },
            {
              "internalType": "uint256",
              "name": "amount",
              "type": "uint256"
            }
          ],
          "internalType": "struct TCF_NFTPrice.priceTypeAndAomut[][6]",
          "name": "prices",
          "type": "tuple[][6]"
        }
      ],
      "name": "initPrice",
      "outputs": [],
      "stateMutability": "nonpayable",
      "type": "function"
    },
    {
      "inputs": [
        {
          "internalType": "address",
          "name": "rootAddress",
          "type": "address"
        }
      ],
      "name": "initRoot",
      "outputs": [],
      "stateMutability": "nonpayable",
      "type": "function"
    },
    {
      "inputs": [
        {
          "internalType": "address",
          "name": "node",
          "type": "address"
        },
        {
          "internalType": "address",
          "name": "parent",
          "type": "address"
        },
        {
          "internalType": "address",
          "name": "recommender",
          "type": "address"
        },
        {
          "internalType": "bool",
          "name": "isLeft",
          "type": "bool"
        }
      ],
      "name": "insert",
      "outputs": [],
      "stateMutability": "nonpayable",
      "type": "function"
    },
    {
      "inputs": [
        {
          "internalType": "address",
          "name": "account",
          "type": "address"
        },
        {
          "internalType": "address",
          "name": "operator",
          "type": "address"
        }
      ],
      "name": "isApprovedForAll",
      "outputs": [
        {
          "internalType": "bool",
          "name": "",
          "type": "bool"
        }
      ],
      "stateMutability": "view",
      "type": "function"
    },
    {
      "inputs": [
        {
          "internalType": "address",
          "name": "node",
          "type": "address"
        }
      ],
      "name": "isExist",
      "outputs": [
        {
          "internalType": "bool",
          "name": "",
          "type": "bool"
        }
      ],
      "stateMutability": "view",
      "type": "function"
    },
    {
      "inputs": [
        {
          "internalType": "address",
          "name": "token",
          "type": "address"
        }
      ],
      "name": "isSupported",
      "outputs": [
        {
          "internalType": "uint8",
          "name": "",
          "type": "uint8"
        }
      ],
      "stateMutability": "view",
      "type": "function"
    },
    {
      "inputs": [
        {
          "internalType": "address",
          "name": "node",
          "type": "address"
        }
      ],
      "name": "minChildSubtreeBalance",
      "outputs": [
        {
          "internalType": "uint256",
          "name": "",
          "type": "uint256"
        }
      ],
      "stateMutability": "view",
      "type": "function"
    },
    {
      "inputs": [
        {
          "internalType": "address",
          "name": "",
          "type": "address"
        },
        {
          "internalType": "address",
          "name": "from",
          "type": "address"
        },
        {
          "internalType": "uint256",
          "name": "amount",
          "type": "uint256"
        },
        {
          "internalType": "bytes",
          "name": "data",
          "type": "bytes"
        }
      ],
      "name": "onTransferReceived",
      "outputs": [
        {
          "internalType": "bytes4",
          "name": "",
          "type": "bytes4"
        }
      ],
      "stateMutability": "nonpayable",
      "type": "function"
    },
    {
      "inputs": [],
      "name": "owner",
      "outputs": [
        {
          "internalType": "address",
          "name": "",
          "type": "address"
        }
      ],
      "stateMutability": "view",
      "type": "function"
    },
    {
      "inputs": [
        {
          "internalType": "uint256",
          "name": "tokenId",
          "type": "uint256"
        },
        {
          "internalType": "uint256",
          "name": "editionId",
          "type": "uint256"
        }
      ],
      "name": "ownerOf",
      "outputs": [
        {
          "internalType": "address",
          "name": "",
          "type": "address"
        }
      ],
      "stateMutability": "view",
      "type": "function"
    },
    {
      "inputs": [],
      "name": "pause",
      "outputs": [],
      "stateMutability": "nonpayable",
      "type": "function"
    },
    {
      "inputs": [],
      "name": "paused",
      "outputs": [
        {
          "internalType": "bool",
          "name": "",
          "type": "bool"
        }
      ],
      "stateMutability": "view",
      "type": "function"
    },
    {
      "inputs": [],
      "name": "renounceOwnership",
      "outputs": [],
      "stateMutability": "nonpayable",
      "type": "function"
    },
    {
      "inputs": [],
      "name": "root",
      "outputs": [
        {
          "internalType": "address",
          "name": "",
          "type": "address"
        }
      ],
      "stateMutability": "view",
      "type": "function"
    },
    {
      "inputs": [],
      "name": "rootInitialized",
      "outputs": [
        {
          "internalType": "bool",
          "name": "",
          "type": "bool"
        }
      ],
      "stateMutability": "view",
      "type": "function"
    },
    {
      "inputs": [
        {
          "internalType": "address",
          "name": "",
          "type": "address"
        },
        {
          "internalType": "address",
          "name": "",
          "type": "address"
        },
        {
          "internalType": "uint256[]",
          "name": "",
          "type": "uint256[]"
        },
        {
          "internalType": "uint256[]",
          "name": "",
          "type": "uint256[]"
        },
        {
          "internalType": "bytes",
          "name": "",
          "type": "bytes"
        }
      ],
      "name": "safeBatchTransferFrom",
      "outputs": [],
      "stateMutability": "nonpayable",
      "type": "function"
    },
    {
      "inputs": [
        {
          "internalType": "address",
          "name": "",
          "type": "address"
        },
        {
          "internalType": "address",
          "name": "",
          "type": "address"
        },
        {
          "internalType": "uint256",
          "name": "",
          "type": "uint256"
        },
        {
          "internalType": "uint256",
          "name": "",
          "type": "uint256"
        },
        {
          "internalType": "bytes",
          "name": "",
          "type": "bytes"
        }
      ],
      "name": "safeTransferFrom",
      "outputs": [],
      "stateMutability": "nonpayable",
      "type": "function"
    },
    {
      "inputs": [
        {
          "internalType": "address",
          "name": "operator",
          "type": "address"
        },
        {
          "internalType": "bool",
          "name": "approved",
          "type": "bool"
        }
      ],
      "name": "setApprovalForAll",
      "outputs": [],
      "stateMutability": "nonpayable",
      "type": "function"
    },
    {
      "inputs": [
        {
          "internalType": "bytes[6]",
          "name": "baseURI",
          "type": "bytes[6]"
        }
      ],
      "name": "setBaseURI",
      "outputs": [],
      "stateMutability": "nonpayable",
      "type": "function"
    },
    {
      "inputs": [
        {
          "internalType": "address",
          "name": "addr",
          "type": "address"
        }
      ],
      "name": "setWithdrawAddress",
      "outputs": [],
      "stateMutability": "nonpayable",
      "type": "function"
    },
    {
      "inputs": [
        {
          "internalType": "address",
          "name": "node",
          "type": "address"
        }
      ],
      "name": "subtreeBalance",
      "outputs": [
        {
          "internalType": "uint256",
          "name": "",
          "type": "uint256"
        }
      ],
      "stateMutability": "view",
      "type": "function"
    },
    {
      "inputs": [],
      "name": "supportedTokenAmount",
      "outputs": [
        {
          "internalType": "uint256",
          "name": "",
          "type": "uint256"
        }
      ],
      "stateMutability": "view",
      "type": "function"
    },
    {
      "inputs": [
        {
          "internalType": "bytes4",
          "name": "interfaceId",
          "type": "bytes4"
        }
      ],
      "name": "supportsInterface",
      "outputs": [
        {
          "internalType": "bool",
          "name": "",
          "type": "bool"
        }
      ],
      "stateMutability": "view",
      "type": "function"
    },
    {
      "inputs": [
        {
          "internalType": "uint256",
          "name": "",
          "type": "uint256"
        }
      ],
      "name": "tokenAddress_array",
      "outputs": [
        {
          "internalType": "address",
          "name": "",
          "type": "address"
        }
      ],
      "stateMutability": "view",
      "type": "function"
    },
    {
      "inputs": [],
      "name": "totalTreeBalance",
      "outputs": [
        {
          "internalType": "uint256",
          "name": "",
          "type": "uint256"
        }
      ],
      "stateMutability": "view",
      "type": "function"
    },
    {
      "inputs": [
        {
          "internalType": "address",
          "name": "newOwner",
          "type": "address"
        }
      ],
      "name": "transferOwnership",
      "outputs": [],
      "stateMutability": "nonpayable",
      "type": "function"
    },
    {
      "inputs": [],
      "name": "unpause",
      "outputs": [],
      "stateMutability": "nonpayable",
      "type": "function"
    },
    {
      "inputs": [
        {
          "internalType": "uint256",
          "name": "",
          "type": "uint256"
        }
      ],
      "name": "uri",
      "outputs": [
        {
          "internalType": "string",
          "name": "",
          "type": "string"
        }
      ],
      "stateMutability": "view",
      "type": "function"
    },
    {
      "inputs": [],
      "name": "withdrawAddress_initialized",
      "outputs": [
        {
          "internalType": "uint8",
          "name": "",
          "type": "uint8"
        }
      ],
      "stateMutability": "view",
      "type": "function"
    }
  ],
  "contractName": "TCF_NFT",
  "sourceName": "contracts/TCF_NFT.sol",
  "bytecode": "0x60806040523480156200001157600080fd5b506200002662000020620000b1565b620000b5565b60126020527f71a67924699a20698523213e55fe499d539379d7769cd5567e2c45d583f815a38054600160ff1991821681179092556014805480840182556000919091527fce6d7b5282bd9a3661ae061feed1dbda4e52ab073b1f9285be6e155d9c38d4ec0180546001600160a01b03191683179055601391909155601b8054909116905562000107565b3390565b600980546001600160a01b038381166001600160a01b0319831681179093556040519116919082907f8be0079c531659141344cd1fd0a4f28419497f9722a3daafe3b4186f6b6457e090600090a35050565b614f2380620001176000396000f3fe6080604052600436106102e25760003560e01c80636d69fcaf11610190578063a0b77afa116100dc578063d9dad80d11610095578063e985e9c51161006f578063e985e9c5146108e1578063ebf0c71714610901578063f242432a14610916578063f2fde38b14610936576102e2565b8063d9dad80d1461088c578063e5030adc146108ac578063e8e7f800146108cc576102e2565b8063a0b77afa146107ca578063a15113d1146107f7578063a22cb4651461080c578063a94059231461082c578063b788920e1461084c578063d3ab74431461086c576102e2565b80638456cb59116101495780638da5cb5b116101235780638da5cb5b1461076057806392aeff48146107755780639da879b4146107955780639f2980db146107aa576102e2565b80638456cb59146106f057806386ff91131461070557806388a7ca5c14610733576102e2565b80636d69fcaf146106535780636e30263214610673578063715018a6146106865780637a915fde1461069b5780637c8e2da7146106b057806383023c88146106d0576102e2565b80632fedbf3c1161024f5780634e1273f411610208578063598c27bc116101e2578063598c27bc146105db5780635c975abb146105fb578063651583ee146106105780636999fa4514610625576102e2565b80634e1273f41461056e5780634f129c531461059b57806355826313146105bb576102e2565b80632fedbf3c146104a95780633a4d2d3a146104c95780633ab1a494146104e95780633f257599146105095780633f4ba83a146105375780634c8cb6721461054c576102e2565b8063153154fd116102a1578063153154fd146103e557806319d62e57146104125780631f3fd6181461043257806323361283146104525780632653335a146104675780632eb2c2d614610487576102e2565b806213eb4b146102e7578062fdd58e1461031d57806301ffc9a71461034a57806306198b981461036a57806307f241ce146103985780630e89341c146103b8575b600080fd5b3480156102f357600080fd5b50610307610302366004613d4b565b610956565b6040516103149190614510565b60405180910390f35b34801561032957600080fd5b5061033d61033836600461403b565b6109b4565b6040516103149190614bcf565b34801561035657600080fd5b506103076103653660046141e1565b6109c9565b34801561037657600080fd5b5061038a6103853660046142d4565b6109ee565b604051610314929190614c1f565b3480156103a457600080fd5b5061033d6103b3366004613d4b565b610a66565b3480156103c457600080fd5b506103d86103d33660046142d4565b610ab1565b6040516103149190614530565b3480156103f157600080fd5b50610405610400366004613d4b565b610acb565b604051610314919061443e565b34801561041e57600080fd5b5061040561042d3660046142d4565b610b2f565b34801561043e57600080fd5b506103d861044d36600461412c565b610b59565b34801561045e57600080fd5b5061033d610e69565b34801561047357600080fd5b5061033d610482366004613d4b565b610e6f565b34801561049357600080fd5b506104a76104a2366004613dea565b610f75565b005b3480156104b557600080fd5b506104a76104c4366004614163565b610f8d565b3480156104d557600080fd5b506104a76104e436600461412c565b61101f565b3480156104f557600080fd5b506104a7610504366004613d4b565b61131f565b34801561051557600080fd5b50610529610524366004613d4b565b611402565b6040516103149291906144b1565b34801561054357600080fd5b506104a7611551565b34801561055857600080fd5b50610561611563565b6040516103149190614c11565b34801561057a57600080fd5b5061058e610589366004614064565b611571565b60405161031491906144cc565b3480156105a757600080fd5b506105616105b6366004613d4b565b61158b565b3480156105c757600080fd5b506104a76105d636600461430e565b6115bf565b3480156105e757600080fd5b506104a76105f6366004613e8f565b611677565b34801561060757600080fd5b506103076116d7565b34801561061c57600080fd5b506103076116e1565b34801561063157600080fd5b50610645610640366004613d4b565b6116f1565b604051610314929190614452565b34801561065f57600080fd5b506104a761066e366004613d4b565b611764565b6104a7610681366004614342565b61184d565b34801561069257600080fd5b506104a7611a86565b3480156106a757600080fd5b50610561611a98565b3480156106bc57600080fd5b5061033d6106cb366004613d4b565b611aa1565b3480156106dc57600080fd5b506104a76106eb366004614386565b611b18565b3480156106fc57600080fd5b506104a7611bd1565b34801561071157600080fd5b506107256107203660046142ec565b611be1565b604051610314929190614543565b34801561073f57600080fd5b5061075361074e366004613f4b565b611c8e565b604051610314919061451b565b34801561076c57600080fd5b50610405611eb8565b34801561078157600080fd5b506104a7610790366004613d4b565b611ec7565b3480156107a157600080fd5b50610561611fb3565b3480156107b657600080fd5b506104a76107c5366004613d97565b611fc3565b3480156107d657600080fd5b506107ea6107e5366004614342565b6122d2565b6040516103149190614bfd565b34801561080357600080fd5b5061033d61231b565b34801561081857600080fd5b506104a7610827366004614012565b612361565b34801561083857600080fd5b50610405610847366004613d4b565b612377565b34801561085857600080fd5b5061058e61086736600461403b565b6123d8565b34801561087857600080fd5b506103d86108873660046142d4565b61246d565b34801561089857600080fd5b506104056108a7366004614342565b612567565b3480156108b857600080fd5b5061033d6108c7366004613d4b565b6125b0565b3480156108d857600080fd5b5061040561275f565b3480156108ed57600080fd5b506103076108fc366004613d65565b6127aa565b34801561090d57600080fd5b506104056127d8565b34801561092257600080fd5b506104a7610931366004613fb0565b6127e7565b34801561094257600080fd5b506104a7610951366004613d4b565b6127ff565b60006001600160a01b0382166109875760405162461bcd60e51b815260040161097e90614845565b60405180910390fd5b506001600160a01b0381166000908152601a6020526040902060030154600160a01b900460ff165b919050565b60006109c08383612839565b90505b92915050565b60006001600160e01b03198216632229f29760e21b14806109c357506109c3826128a9565b601554600090819060ff61010090910416600114610a1e5760405162461bcd60e51b815260040161097e90614ab3565b60068310610a3e5760405162461bcd60e51b815260040161097e906146fa565b505060009081526016602052604090206001015460ff81169161010090910463ffffffff1690565b6001600160a01b0381166000908152601a6020526040812060030154600160a01b900460ff16610aa85760405162461bcd60e51b815260040161097e90614ba6565b6109c3826125b0565b606060405162461bcd60e51b815260040161097e90614ae3565b6001600160a01b0381166000908152601a6020526040812060030154600160a01b900460ff16610b0d5760405162461bcd60e51b815260040161097e90614ba6565b506001600160a01b039081166000908152601a60205260409020600301541690565b60148181548110610b3f57600080fd5b6000918252602090912001546001600160a01b0316905081565b606060005b6006811015610e5357601354838260068110610b8a57634e487b7160e01b600052603260045260246000fd5b602002810190610b9a9190614c4c565b905014610bc957505060408051808201909152600a815269282924a1a2a9afa622a760b11b60208201526109af565b6000806000858460068110610bee57634e487b7160e01b600052603260045260246000fd5b602002810190610bfe9190614c4c565b808060200260200160405190810160405280939291908181526020016000905b82821015610c4a57610c3b60408302860136819003810190614296565b81526020019060010190610c1e565b5050505050905060005b601354811015610dc5576000828281518110610c8057634e487b7160e01b600052603260045260246000fd5b60209081029190910101515190506001600160a01b038116610ca55760019450610caa565b600193505b60006001600160a01b0316838381518110610cd557634e487b7160e01b600052603260045260246000fd5b6020026020010151600001516001600160a01b031614158015610d44575060126000848481518110610d1757634e487b7160e01b600052603260045260246000fd5b602090810291909101810151516001600160a01b031682528101919091526040016000205460ff16600114155b15610db457610da7838381518110610d6c57634e487b7160e01b600052603260045260246000fd5b602002602001015160000151604051806040016040528060118152602001701513d2d15397d55394d5541413d4951151607a1b8152506128e9565b96505050505050506109af565b50610dbe81614de8565b9050610c54565b5082610e0257604051806040016040528060138152602001721510d7d4149250d157d35554d517d1561254d5606a1b8152509450505050506109af565b81610e3f57604051806040016040528060148152602001731110d197d4149250d157d35554d517d1561254d560621b8152509450505050506109af565b50505080610e4c90614de8565b9050610b5e565b5050604080516020810190915260008152919050565b60135481565b601954600090600160a01b900460ff16610e9b5760405162461bcd60e51b815260040161097e906147ed565b6001600160a01b0382166000908152601a6020526040902060030154600160a01b900460ff16610edd5760405162461bcd60e51b815260040161097e90614ba6565b6001600160a01b038083166000908152601a60205260408120600181015490921615610f1f576001820154610f1a906001600160a01b031661291d565b610f22565b60005b60028301549091506000906001600160a01b031615610f57576002830154610f52906001600160a01b031661291d565b610f5a565b60005b905080821115610f6a5780610f6c565b815b95945050505050565b60405162461bcd60e51b815260040161097e90614b32565b610f956129bc565b60005b600681101561100e57818160068110610fc157634e487b7160e01b600052603260045260246000fd5b6020020151600a8260068110610fe757634e487b7160e01b600052603260045260246000fd5b019080519060200190610ffb929190613bc2565b508061100681614de8565b915050610f98565b50506010805460ff19166001179055565b6110276129bc565b60155460ff1660011461104c5760405162461bcd60e51b815260040161097e90614a84565b601554610100900460ff16156110745760405162461bcd60e51b815260040161097e906148eb565b600061107f82610b59565b905080516000146110a4578060405162461bcd60e51b815260040161097e9190614530565b6040805160c0808201835260018252600260208084019190915260038385015263017124006060808501919091526005608080860191909152600660a0808701919091528651948501875260288552603293850193909352603c95840195909552605090830152605a9382019390935260649281019290925290600061112a8580614c4c565b9050905060005b60068110156113085783816006811061115a57634e487b7160e01b600052603260045260246000fd5b60200201516016600083815260200190815260200160002060010160016101000a81548163ffffffff021916908363ffffffff1602179055508281600681106111b357634e487b7160e01b600052603260045260246000fd5b602090810291909101516000838152601690925260408220600101805460ff191660ff9092169190911790555b828110156112f757600087836006811061120a57634e487b7160e01b600052603260045260246000fd5b60200281019061121a9190614c4c565b8381811061123857634e487b7160e01b600052603260045260246000fd5b61124e9260206040909202019081019150613d4b565b90506001600160a01b038116611262575060015b87836006811061128257634e487b7160e01b600052603260045260246000fd5b6020028101906112929190614c4c565b838181106112b057634e487b7160e01b600052603260045260246000fd5b60008681526016602090815260408083206001600160a01b0397909716835295815290859020919094029290920190920135905550806112ef81614de8565b9150506111e0565b5061130181614de8565b9050611131565b50506015805461ff00191661010017905550505050565b6113276129bc565b6001600160a01b03811661134d5760405162461bcd60e51b815260040161097e90614845565b6001600160a01b0381163b156113755760405162461bcd60e51b815260040161097e90614b05565b601b80546001600160a01b03838116610100908102610100600160a81b031984161793849055909104169060ff600160a81b909104166113c357601b805460ff60a81b1916600160a81b1790555b6040516001600160a01b03808416919083169033907facf3042cca6ca3830bf91869d4343cead97657cc9e8973fdbd665b55c3e1f49890600090a45050565b6019546000908190600160a01b900460ff166114305760405162461bcd60e51b815260040161097e906147ed565b6001600160a01b0383166000908152601a6020526040902060030154600160a01b900460ff166114725760405162461bcd60e51b815260040161097e906149d3565b825b6001600160a01b038082166000908152601a602052604081206001810154909216156114b65760018201546114b1906001600160a01b031661291d565b6114b9565b60005b60028301549091506000906001600160a01b0316156114ee5760028301546114e9906001600160a01b031661291d565b6114f1565b60005b9050808211156000816115115760028501546001600160a01b0316611520565b60018501546001600160a01b03165b90506001600160a01b038116611540575093955092935061154c92505050565b94506114749350505050565b915091565b6115596129bc565b6115616129fb565b565b601554610100900460ff1681565b606060405162461bcd60e51b815260040161097e90614b32565b60006001600160a01b0382166115a057600191505b506001600160a01b031660009081526012602052604090205460ff1690565b6115c76129bc565b60006115d38484612a4d565b905080516000146115f8578060405162461bcd60e51b815260040161097e9190614530565b6001600160a01b03831661160b57600192505b60008481526016602090815260408083206001600160a01b038716808552925291829020805490859055915186907f8747a56dd6a09ab1378db3a842a4724d75642265b104e31a28fa736ce71912b3906116689085908890614bd8565b60405180910390a35050505050565b61167f612b4f565b6001600160a01b0316866001600160a01b031614806116a557506116a5866108fc612b4f565b6116c15760405162461bcd60e51b815260040161097e90614664565b6116cf868686868686612b53565b505050505050565b601b5460ff165b90565b601954600160a01b900460ff1681565b6001600160a01b0381166000908152601a60205260408120600301548190600160a01b900460ff166117355760405162461bcd60e51b815260040161097e90614ba6565b50506001600160a01b039081166000908152601a60205260409020600181015460029091015490821692911690565b61176c6129bc565b60155460ff161561178f5760405162461bcd60e51b815260040161097e906145bc565b600061179a82612b70565b905080516000146117bf578060405162461bcd60e51b815260040161097e9190614530565b6001600160a01b0382166000818152601260205260408120805460ff191660019081179091556014805480830182559083527fce6d7b5282bd9a3661ae061feed1dbda4e52ab073b1f9285be6e155d9c38d4ec0180546001600160a01b03191690931790925560138054909190611837908490614cdc565b90915550506015805460ff191660011790555050565b611855612d55565b601b54600160a81b900460ff166001146118815760405162461bcd60e51b815260040161097e906147b6565b601954600160a01b900460ff166118aa5760405162461bcd60e51b815260040161097e906147ed565b60155460ff610100909104166001146118d55760405162461bcd60e51b815260040161097e90614ab3565b60105460ff166001146118fa5760405162461bcd60e51b815260040161097e90614917565b611905610302612b4f565b6119215760405162461bcd60e51b815260040161097e90614ba6565b60008061192f846000611be1565b91509150815160001482906119575760405162461bcd60e51b815260040161097e9190614530565b506119628382614d1f565b341480156119705750600083115b61198c5760405162461bcd60e51b815260040161097e90614a02565b6119ae611997612b4f565b858560405180602001604052806000815250612d7a565b836119b7612b4f565b6001600160a01b03167f5fce8741d2fa2920f00e6fda1be1ede8d7a2d1379bc099f79aa3b438a86de29785846040516119f1929190614bd8565b60405180910390a3601b5460405160009161010090046001600160a01b0316903490611a1c906116de565b60006040518083038185875af1925050503d8060008114611a59576040519150601f19603f3d011682016040523d82523d6000602084013e611a5e565b606091505b5050905080611a7f5760405162461bcd60e51b815260040161097e906148bf565b5050505050565b611a8e6129bc565b6115616000612d8c565b60105460ff1681565b601954600090600160a01b900460ff16611acd5760405162461bcd60e51b815260040161097e906147ed565b6001600160a01b0382166000908152601a6020526040902060030154600160a01b900460ff16611b0f5760405162461bcd60e51b815260040161097e90614ba6565b6109c38261291d565b611b206129bc565b60155460ff61010090910416600114611b4b5760405162461bcd60e51b815260040161097e90614ab3565b60068210611b6b5760405162461bcd60e51b815260040161097e906146fa565b60008281526016602052604090819020600101805460ff84811660ff19831617909255915191169083907f902e8f79c4772541ba59982b7a572dfdb4a0c003843ec5cfafc727966528895490611bc49084908690614c38565b60405180910390a2505050565b611bd96129bc565b611561612dde565b6060600080611bf08585612a4d565b90508051600014611c0657915060009050611c87565b6001600160a01b038416611c1957600193505b60008581526016602090815260408083206001600160a01b038816845290915290205480611c7257505060408051808201909152600d81526c14149250d157d393d517d4d155609a1b6020820152915060009050611c87565b60408051602081019091526000815293509150505b9250929050565b6000611c98612d55565b601b54600160a81b900460ff16600114611cc45760405162461bcd60e51b815260040161097e906147b6565b601954600160a01b900460ff16611ced5760405162461bcd60e51b815260040161097e906147ed565b60155460ff61010090910416600114611d185760405162461bcd60e51b815260040161097e90614ab3565b60105460ff16600114611d3d5760405162461bcd60e51b815260040161097e90614917565b611d4684610956565b611d625760405162461bcd60e51b815260040161097e90614ba6565b3360008181526012602052604090205460ff16600114611d945760405162461bcd60e51b815260040161097e90614973565b60008084806020019051810190611dab9190614363565b9150915060068210611dcf5760405162461bcd60e51b815260040161097e906146fa565b600080611ddc8486611be1565b9150915081516000148290611e045760405162461bcd60e51b815260040161097e9190614530565b50611e0f8382614d1f565b88148015611e1d5750600083115b611e395760405162461bcd60e51b815260040161097e90614a02565b611e5489858560405180602001604052806000815250612d7a565b83856001600160a01b03168a6001600160a01b03167fc32800b3f198f1d50532ecd2e22d4fea8d5e5e9236fb2d2796a6710f9c14f1548685604051611e9a929190614bd8565b60405180910390a450632229f29760e21b9998505050505050505050565b6009546001600160a01b031690565b611ecf6129bc565b601954600160a01b900460ff1615611ef95760405162461bcd60e51b815260040161097e9061469b565b6001600160a01b038116611f1f5760405162461bcd60e51b815260040161097e90614845565b601980546001600160a01b0383166001600160a01b031960ff60a01b19928316600160a01b908117821683179094556000828152601a602052604080822060038101805482548616835560018301805487169055600283018054871690559096169096179092169093555190917fbeec1fc786857549cbe9ae8717fa0fbdea9bb7386027cbad8197404a3c94421091a25050565b601b54600160a81b900460ff1681565b601954600160a01b900460ff16611fec5760405162461bcd60e51b815260040161097e906147ed565b6001600160a01b0384161580159061200c57506001600160a01b03831615155b801561202057506001600160a01b03821615155b61203c5760405162461bcd60e51b815260040161097e90614845565b6001600160a01b0384166000908152601a6020526040902060030154600160a01b900460ff161561207f5760405162461bcd60e51b815260040161097e9061494e565b6001600160a01b0383166000908152601a6020526040902060030154600160a01b900460ff166120c15760405162461bcd60e51b815260040161097e90614a2b565b6001600160a01b0382166000908152601a6020526040902060030154600160a01b900460ff166121035760405162461bcd60e51b815260040161097e906149d3565b61210d8284612e1c565b6121295760405162461bcd60e51b815260040161097e90614758565b6001600160a01b038084166000908152601a6020526040902060018101549091161580612161575060028101546001600160a01b0316155b61217d5760405162461bcd60e51b815260040161097e9061462d565b81156121da5760018101546001600160a01b03166121b7576001810180546001600160a01b0319166001600160a01b0387161790556121d5565b6002810180546001600160a01b0319166001600160a01b0387161790555b61222c565b60028101546001600160a01b031661220e576002810180546001600160a01b0319166001600160a01b03871617905561222c565b6001810180546001600160a01b0319166001600160a01b0387161790555b6001600160a01b038086166000818152601a60205260409081902060038101805482548a87166001600160a01b0319918216811785556001850180548316905560028501805483169055968a1660ff60a01b19909216600160a01b17168117909155915190939192907fb7de7526072e4403cbc0296462672a10ed96d94c4169dc8b84b07515e949013d906122c2908890614510565b60405180910390a4505050505050565b6000600683106122f45760405162461bcd60e51b815260040161097e906146fa565b5060009182526018602090815260408084209284529190529020546001600160401b031690565b601954600090600160a01b900460ff166123475760405162461bcd60e51b815260040161097e906147ed565b60195461235c906001600160a01b031661291d565b905090565b61237361236c612b4f565b8383612e7d565b5050565b6001600160a01b0381166000908152601a6020526040812060030154600160a01b900460ff166123b95760405162461bcd60e51b815260040161097e90614ba6565b506001600160a01b039081166000908152601a60205260409020541690565b6060600682106123fa5760405162461bcd60e51b815260040161097e906146fa565b6001600160a01b03831660009081526017602090815260408083208584528252918290208054835181840281018401909452808452909183018282801561246057602002820191906000526020600020905b81548152602001906001019080831161244c575b5050505050905092915050565b60105460609060ff166001146124955760405162461bcd60e51b815260040161097e90614917565b600682106124b55760405162461bcd60e51b815260040161097e906146fa565b600a82600681106124d657634e487b7160e01b600052603260045260246000fd5b0180546124e290614d81565b80601f016020809104026020016040519081016040528092919081815260200182805461250e90614d81565b801561255b5780601f106125305761010080835404028352916020019161255b565b820191906000526020600020905b81548152906001019060200180831161253e57829003601f168201915b50505050509050919050565b6000600683106125895760405162461bcd60e51b815260040161097e906146fa565b5060009182526006602090815260408084209284529190529020546001600160a01b031690565b60006001600160a01b0382166125d85760405162461bcd60e51b815260040161097e90614845565b6000805b6006811015612758576001600160a01b038416600090815260176020908152604080832084845282528083208054825181850281018501909352808352919290919083018282801561264d57602002820191906000526020600020905b815481526020019060010190808311612639575b5050505050905060005b815181101561274357600082828151811061268257634e487b7160e01b600052603260045260246000fd5b6020908102919091018101516000868152601883526040808220838352909352918220549092506001600160401b0316906126bc866109ee565b91506126d0905063ffffffff821683614cf4565b6001600160401b03164211156126e857505050612731565b6000806126f6886000611be1565b915091508151600014829061271e5760405162461bcd60e51b815260040161097e9190614530565b50612729818a614cdc565b985050505050505b8061273b81614de8565b915050612657565b5050808061275090614de8565b9150506125dc565b5092915050565b60006127696129bc565b601b54600160a81b900460ff166001146127955760405162461bcd60e51b815260040161097e906147b6565b50601b5461010090046001600160a01b031690565b6001600160a01b03918216600090815260086020908152604080832093909416825291909152205460ff1690565b6019546001600160a01b031681565b60405162461bcd60e51b815260040161097e90614a55565b6128076129bc565b6001600160a01b03811661282d5760405162461bcd60e51b815260040161097e906145e7565b61283681612d8c565b50565b60006001600160a01b0383166128615760405162461bcd60e51b815260040161097e90614845565b600682106128815760405162461bcd60e51b815260040161097e90614894565b5060009081526007602090815260408083206001600160a01b03949094168352929052205490565b60006001600160e01b03198216636cdb3d1360e11b14806128da57506001600160e01b031982166303a24d0760e21b145b806109c357506109c382612f20565b6060816128f584612f39565b604051602001612906929190614402565b604051602081830303815290604052905092915050565b60006001600160a01b038216612935575060006109af565b6001600160a01b0382166000908152601a602052604090206003810154600160a01b900460ff1661296a5760009150506109af565b6002810154612981906001600160a01b031661291d565b6001820154612998906001600160a01b031661291d565b6129a1856125b0565b6129ab9190614cdc565b6129b59190614cdc565b9392505050565b6129c4612b4f565b6001600160a01b03166129d5611eb8565b6001600160a01b0316146115615760405162461bcd60e51b815260040161097e9061499e565b612a03613128565b601b805460ff191690557f5db9ee0a495bf2e6ff9c91a7834c1ba4fdd244a5e8aa4e537bd38aeae4b073aa612a36612b4f565b604051612a43919061443e565b60405180910390a1565b60155460609060ff61010090910416600114612a96575060408051808201909152601681527514149250d154d7d393d517d25392551250531256915160521b60208201526109c3565b6005831115612ac9575060408051808201909152600d81526c544f4b454e49445f52414e474560981b60208201526109c3565b6001600160a01b038216612adc57600191505b6001600160a01b03821660009081526012602052604090205460ff16600114612b3957612b3282604051806040016040528060118152602001701513d2d15397d55394d5541413d4951151607a1b8152506128e9565b90506109c3565b5060408051602081019091526000815292915050565b3390565b6116cf86868686866040518060200160405280600081525061314c565b6001600160a01b03811660009081526012602052604090205460609060ff1660011415612bcb57612bc4826040518060400160405280600b81526020016a414444525f45584953545360a81b8152506128e9565b90506109af565b60408051600481526024810182526020810180516001600160e01b03166395d89b4160e01b179052905160009081906001600160a01b03861690612c109085906143e6565b600060405180830381855afa9150503d8060008114612c4b576040519150601f19603f3d011682016040523d82523d6000602084013e612c50565b606091505b5091509150818015612c63575060008151115b15612d0a57600081806020019051810190612c7e9190614219565b80516020808301919091206040805180820190915260038152622221a360e91b9201919091529091507f580e4ba285e7e1134de91e671c33b0ab748bee7126d5d2e4d0845e6ad176e7eb8114612d0357612cf787604051806040016040528060078152602001662727aa2fa221a360c91b8152506128e9565b955050505050506109af565b5050612d3d565b612d3385604051806040016040528060078152602001662727aa2fa221a360c91b8152506128e9565b93505050506109af565b50506040805160208101909152600081529392505050565b612d5d6116d7565b156115615760405162461bcd60e51b815260040161097e9061481b565b612d868484848461344d565b50505050565b600980546001600160a01b038381166001600160a01b0319831681179093556040519116919082907f8be0079c531659141344cd1fd0a4f28419497f9722a3daafe3b4186f6b6457e090600090a35050565b612de6612d55565b601b805460ff191660011790557f62e78cea01bee320cd4e420270b5ea74000d11b0c9f74754ebdbfc544b05a258612a36612b4f565b6000815b6001600160a01b03811615612e7357836001600160a01b0316816001600160a01b03161415612e535760019150506109c3565b6001600160a01b039081166000908152601a602052604090205416612e20565b5060009392505050565b816001600160a01b0316836001600160a01b03161415612eaf5760405162461bcd60e51b815260040161097e9061478f565b6001600160a01b0383811660008181526008602090815260408083209487168084529490915290819020805460ff1916851515179055517f17307eab39ab6107e8899845ad3d59bd9653f200f220920489ca2b5937696c3190612f13908590614510565b60405180910390a3505050565b6001600160e01b031981166301ffc9a760e01b14919050565b60408051602a808252606082810190935283831b916f181899199a1a9b1b9c1cb0b131b232b360811b9160009190602082018180368337019050509050600360fc1b81600081518110612f9c57634e487b7160e01b600052603260045260246000fd5b60200101906001600160f81b031916908160001a905350600f60fb1b81600181518110612fd957634e487b7160e01b600052603260045260246000fd5b60200101906001600160f81b031916908160001a90535060005b601481101561311f57600084826014811061301e57634e487b7160e01b600052603260045260246000fd5b1a905083600482901c60ff166010811061304857634e487b7160e01b600052603260045260246000fd5b1a60f81b83613058846002614d1f565b613063906002614cdc565b8151811061308157634e487b7160e01b600052603260045260246000fd5b60200101906001600160f81b031916908160001a90535083600f8216601081106130bb57634e487b7160e01b600052603260045260246000fd5b1a60f81b836130cb846002614d1f565b6130d6906003614cdc565b815181106130f457634e487b7160e01b600052603260045260246000fd5b60200101906001600160f81b031916908160001a90535050808061311790614de8565b915050612ff3565b50949350505050565b6131306116d7565b6115615760405162461bcd60e51b815260040161097e9061458e565b6001600160a01b0385166131725760405162461bcd60e51b815260040161097e90614845565b600684106131925760405162461bcd60e51b815260040161097e906146fa565b60005b8281101561343e5760008484838181106131bf57634e487b7160e01b600052603260045260246000fd5b60008981526018602090815260408083209382029590950135808352929052928320549093506001600160401b03169190506131fa886109ee565b915050896001600160a01b03166132118985612567565b6001600160a01b0316146132375760405162461bcd60e51b815260040161097e9061486b565b6001600160a01b03808b1660009081526017602081815260408084208d85528252808420948e1684529181528183208c845290528120909190825b82548110156132c8578683828154811061329c57634e487b7160e01b600052603260045260246000fd5b906000526020600020015414156132b657600193506132c8565b806132c081614de8565b915050613272565b50826132e65760405162461bcd60e51b815260040161097e90614565565b6132f663ffffffff851686614cf4565b6001600160401b0316421161331d5760405162461bcd60e51b815260040161097e906146d2565b60005b825481101561340d578683828154811061334a57634e487b7160e01b600052603260045260246000fd5b906000526020600020015414156133fb578254839061336b90600190614d3e565b8154811061338957634e487b7160e01b600052603260045260246000fd5b90600052602060002001548382815481106133b457634e487b7160e01b600052603260045260246000fd5b9060005260206000200181905550828054806133e057634e487b7160e01b600052603160045260246000fd5b6001900381819060005260206000200160009055905561340d565b8061340581614de8565b915050613320565b508054600181018255600091825260209091200194909455508392506134369150829050614de8565b915050613195565b506116cf86868686868661354a565b4260005b8381101561353d576000816000876006811061347d57634e487b7160e01b600052603260045260246000fd5b01546134899190614cdc565b60008781526018602090815260408083208484528252808320805467ffffffffffffffff19166001600160401b0389161790556001600160a01b038b16808452601783528184208b855283528184208054600181018255908552929093209091018390555191925087917fa0fe61afe1ffd5e83d09a64b67ad6e6511a42b3876aea9ba71288026e8a29b69906135229085908890614be6565b60405180910390a3508061353581614de8565b915050613451565b50611a7f85858585613842565b6001600160a01b0385166135705760405162461bcd60e51b815260040161097e90614845565b600684106135905760405162461bcd60e51b815260040161097e906146fa565b60005b828110156136265760008581526006602052604081206001600160a01b038916918686858181106135d457634e487b7160e01b600052603260045260246000fd5b60209081029290920135835250810191909152604001600020546001600160a01b0316146136145760405162461bcd60e51b815260040161097e9061486b565b8061361e81614de8565b915050613593565b506000613631612b4f565b9050600061363e86613a3d565b9050600061364b85613a3d565b905061365b838a8a858589613a96565b60005b858110156136f15760008881526006602052604081206001600160a01b038c169189898581811061369f57634e487b7160e01b600052603260045260246000fd5b60209081029290920135835250810191909152604001600020546001600160a01b0316146136df5760405162461bcd60e51b815260040161097e9061486b565b806136e981614de8565b91505061365e565b5060008781526007602090815260408083206001600160a01b038d16845290915281208054878103909155905b868110156137955760008981526006602052604081208b918a8a8581811061375657634e487b7160e01b600052603260045260246000fd5b6020908102929092013583525081019190915260400160002080546001600160a01b0319166001600160a01b039290921691909117905560010161371e565b5060008881526007602090815260408083206001600160a01b038d168452909152812080548892906137c8908490614cdc565b90915550506040516001600160a01b03808b16918c8216918716907fc3d58168c5ae7397731d063d5bbf3d657854427343f4c083240f7aacaa2d0f6290613812908d908c90614bd8565b60405180910390a4613828848b8b86868a6116cf565b613836848b8b8b8a8a613aa4565b50505050505050505050565b600683106138625760405162461bcd60e51b815260040161097e906146fa565b6001600160a01b0384166138885760405162461bcd60e51b815260040161097e90614845565b6000613892612b4f565b9050600061389f85613a3d565b905060006138ac85613a3d565b90506138bd83600089858589613a96565b60008681526007602090815260408083206001600160a01b038b168452909152812080548792906138ef908490614cdc565b90915550600090505b8581101561398457876006600089815260200190815260200160002060008360008b6006811061393857634e487b7160e01b600052603260045260246000fd5b01546139449190614cdc565b8152602081019190915260400160002080546001600160a01b0319166001600160a01b03929092169190911790558061397c81614de8565b9150506138f8565b5084600087600681106139a757634e487b7160e01b600052603260045260246000fd5b0160008282546139b79190614cdc565b92505081905550866001600160a01b031660006001600160a01b0316846001600160a01b03167fc3d58168c5ae7397731d063d5bbf3d657854427343f4c083240f7aacaa2d0f628989604051613a0e929190614bd8565b60405180910390a4613a25836000898585896116cf565b613a3483600089898989613aa4565b50505050505050565b60408051600180825281830190925260609160009190602080830190803683370190505090508281600081518110613a8557634e487b7160e01b600052603260045260246000fd5b602090810291909101015292915050565b6116cf8686868686866116cf565b6001600160a01b0384163b156116cf5760405163f23a6e6160e01b81526001600160a01b0385169063f23a6e6190613ae8908990899088908890889060040161446c565b602060405180830381600087803b158015613b0257600080fd5b505af1925050508015613b32575060408051601f3d908101601f19168201909252613b2f918101906141fd565b60015b613b9257613b3e614e2f565b806308c379a01415613b785750613b53614e46565b80613b5e5750613b7a565b8060405162461bcd60e51b815260040161097e9190614530565b505b60405162461bcd60e51b815260040161097e90614b5b565b6001600160e01b0319811663f23a6e6160e01b14613a345760405162461bcd60e51b815260040161097e90614721565b828054613bce90614d81565b90600052602060002090601f016020900481019282613bf05760008555613c36565b82601f10613c0957805160ff1916838001178555613c36565b82800160010185558215613c36579182015b82811115613c36578251825591602001919060010190613c1b565b50613c42929150613c46565b5090565b5b80821115613c425760008155600101613c47565b80356001600160a01b03811681146109af57600080fd5b600082601f830112613c82578081fd5b81356020613c8f82614c92565b604051613c9c8282614dbc565b838152828101915085830183850287018401881015613cb9578586fd5b855b85811015613cd757813584529284019290840190600101613cbb565b5090979650505050505050565b803580151581146109af57600080fd5b600082601f830112613d04578081fd5b8135613d0f81614cb5565b604051613d1c8282614dbc565b828152856020848701011115613d30578384fd5b82602086016020830137918201602001929092529392505050565b600060208284031215613d5c578081fd5b6109c082613c5b565b60008060408385031215613d77578081fd5b613d8083613c5b565b9150613d8e60208401613c5b565b90509250929050565b60008060008060808587031215613dac578182fd5b613db585613c5b565b9350613dc360208601613c5b565b9250613dd160408601613c5b565b9150613ddf60608601613ce4565b905092959194509250565b600080600080600060a08688031215613e01578081fd5b613e0a86613c5b565b9450613e1860208701613c5b565b935060408601356001600160401b0380821115613e33578283fd5b613e3f89838a01613c72565b94506060880135915080821115613e54578283fd5b613e6089838a01613c72565b93506080880135915080821115613e75578283fd5b50613e8288828901613cf4565b9150509295509295909350565b60008060008060008060a08789031215613ea7578384fd5b613eb087613c5b565b9550613ebe60208801613c5b565b94506040870135935060608701356001600160401b0380821115613ee0578283fd5b818901915089601f830112613ef3578283fd5b813581811115613f01578384fd5b8a60208083028501011115613f14578384fd5b602083019550809450506080890135915080821115613f31578283fd5b50613f3e89828a01613cf4565b9150509295509295509295565b60008060008060808587031215613f60578182fd5b613f6985613c5b565b9350613f7760208601613c5b565b92506040850135915060608501356001600160401b03811115613f98578182fd5b613fa487828801613cf4565b91505092959194509250565b600080600080600060a08688031215613fc7578283fd5b613fd086613c5b565b9450613fde60208701613c5b565b9350604086013592506060860135915060808601356001600160401b03811115614006578182fd5b613e8288828901613cf4565b60008060408385031215614024578182fd5b61402d83613c5b565b9150613d8e60208401613ce4565b6000806040838503121561404d578182fd5b61405683613c5b565b946020939093013593505050565b60008060408385031215614076578182fd5b82356001600160401b038082111561408c578384fd5b818501915085601f83011261409f578384fd5b813560206140ac82614c92565b6040516140b98282614dbc565b8381528281019150858301838502870184018b10156140d6578889fd5b8896505b848710156140ff576140eb81613c5b565b8352600196909601959183019183016140da565b5096505086013592505080821115614115578283fd5b5061412285828601613c72565b9150509250929050565b60006020828403121561413d578081fd5b81356001600160401b03811115614152578182fd5b820160c081018410156129b5578182fd5b60006020808385031215614175578182fd5b82356001600160401b0381111561418a578283fd5b8301601f8101851361419a578283fd5b6040516141a860c082614dbc565b8082855b60068110156141d4576141c28983358701613cf4565b835291850191908501906001016141ac565b5091979650505050505050565b6000602082840312156141f2578081fd5b81356129b581614ed7565b60006020828403121561420e578081fd5b81516129b581614ed7565b60006020828403121561422a578081fd5b81516001600160401b0381111561423f578182fd5b8201601f8101841361424f578182fd5b805161425a81614cb5565b6040516142678282614dbc565b82815286602084860101111561427b578485fd5b61428c836020830160208701614d55565b9695505050505050565b6000604082840312156142a7578081fd5b6040516142b5604082614dbc565b6142be83613c5b565b8152602083013560208201528091505092915050565b6000602082840312156142e5578081fd5b5035919050565b600080604083850312156142fe578182fd5b82359150613d8e60208401613c5b565b600080600060608486031215614322578081fd5b8335925061433260208501613c5b565b9150604084013590509250925092565b60008060408385031215614354578182fd5b50508035926020909101359150565b60008060408385031215614375578182fd5b505080516020909101519092909150565b60008060408385031215614398578182fd5b82359150602083013560ff811681146143af578182fd5b809150509250929050565b600081518084526143d2816020860160208601614d55565b601f01601f19169290920160200192915050565b600082516143f8818460208701614d55565b9190910192915050565b60008351614414818460208801614d55565b600160fd1b9083019081528351614432816001840160208801614d55565b01600101949350505050565b6001600160a01b0391909116815260200190565b6001600160a01b0392831681529116602082015260400190565b6001600160a01b03868116825285166020820152604081018490526060810183905260a0608082018190526000906144a6908301846143ba565b979650505050505050565b6001600160a01b039290921682521515602082015260400190565b6020808252825182820181905260009190848201906040850190845b81811015614504578351835292840192918401916001016144e8565b50909695505050505050565b901515815260200190565b6001600160e01b031991909116815260200190565b6000602082526109c060208301846143ba565b60006040825261455660408301856143ba565b90508260208301529392505050565b6020808252600f908201526e125391115617d393d517d3d5d39151608a1b604082015260600190565b60208082526014908201527314185d5cd8589b194e881b9bdd081c185d5cd95960621b604082015260600190565b6020808252601190820152701513d2d15397d253925512505312569151607a1b604082015260600190565b60208082526026908201527f4f776e61626c653a206e6577206f776e657220697320746865207a65726f206160408201526564647265737360d01b606082015260800190565b60208082526017908201527f504152454e545f4841535f54574f5f4348494c4452454e000000000000000000604082015260600190565b60208082526019908201527f43414c4c45525f4e4f545f4f574e45525f415050524f56454400000000000000604082015260600190565b60208082526018908201527f524f4f545f414c52454144595f494e495449414c495a45440000000000000000604082015260600190565b6020808252600e908201526d14d1539117d59053125117d3919560921b604082015260600190565b6020808252600d908201526c544f4b454e49445f52414e474560981b604082015260600190565b6020808252601f908201527f4552433131353552454345495645525f52454a45435445445f544f4b454e5300604082015260600190565b6020808252601e908201527f504152454e545f4e4f545f5245434f4d4d454e4445525f535542545245450000604082015260600190565b6020808252600d908201526c20a8282927ab20a62fa9a2a62360991b604082015260600190565b6020808252601d908201527f57495448445241575f414444525f4e4f545f494e495449414c495a4544000000604082015260600190565b6020808252601490820152731493d3d517d393d517d25392551250531256915160621b604082015260600190565b60208082526010908201526f14185d5cd8589b194e881c185d5cd95960821b604082015260600190565b6020808252600c908201526b5a45524f5f4144445245535360a01b604082015260600190565b6020808252600f908201526e1513d2d15397d393d517d3d5d39151608a1b604082015260600190565b6020808252601190820152704552525f544f4b454e49445f52414e474560781b604082015260600190565b6020808252601290820152711510d7d514905394d1915497d1905253115160721b604082015260600190565b60208082526012908201527114149250d154d7d25392551250531256915160721b604082015260600190565b60208082526017908201527f424153455552495f4e4f545f494e495449414c495a4544000000000000000000604082015260600190565b6020808252600b908201526a4e4f44455f45584953545360a81b604082015260600190565b6020808252601190820152701513d2d15397d55394d5541413d4951151607a1b604082015260600190565b6020808252818101527f4f776e61626c653a2063616c6c6572206973206e6f7420746865206f776e6572604082015260600190565b602080825260159082015274149150d3d353515391115497d393d517d1561254d5605a1b604082015260600190565b6020808252600f908201526e494e434f52524543545f46554e445360881b604082015260600190565b60208082526010908201526f14105491539517d393d517d1561254d560821b604082015260600190565b6020808252601590820152745553455f45536166655472616e7366657246726f6d60581b604082015260600190565b6020808252601590820152741513d2d15397d393d517d253925512505312569151605a1b604082015260600190565b60208082526016908201527514149250d154d7d393d517d25392551250531256915160521b604082015260600190565b6020808252600890820152675553455f4575726960c01b604082015260600190565b602080825260139082015272105111149154d4d7d254d7d0d3d395149050d5606a1b604082015260600190565b6020808252600f908201526e1393d517d253541311535153951151608a1b604082015260600190565b6020808252602b908201527f7472616e736665725f746f5f6e6f6e2d4552433131353552656365697665725f60408201526a34b6b83632b6b2b73a32b960a91b606082015260800190565b6020808252600f908201526e4e4f44455f4e4f545f45584953545360881b604082015260600190565b90815260200190565b918252602082015260400190565b9182526001600160401b0316602082015260400190565b6001600160401b0391909116815260200190565b60ff91909116815260200190565b60ff92909216825263ffffffff16602082015260400190565b60ff92831681529116602082015260400190565b6000808335601e19843603018112614c62578283fd5b8301803591506001600160401b03821115614c7b578283fd5b6020019150604081023603821315611c8757600080fd5b60006001600160401b03821115614cab57614cab614e19565b5060209081020190565b60006001600160401b03821115614cce57614cce614e19565b50601f01601f191660200190565b60008219821115614cef57614cef614e03565b500190565b60006001600160401b03808316818516808303821115614d1657614d16614e03565b01949350505050565b6000816000190483118215151615614d3957614d39614e03565b500290565b600082821015614d5057614d50614e03565b500390565b60005b83811015614d70578181015183820152602001614d58565b83811115612d865750506000910152565b600281046001821680614d9557607f821691505b60208210811415614db657634e487b7160e01b600052602260045260246000fd5b50919050565b601f8201601f191681016001600160401b0381118282101715614de157614de1614e19565b6040525050565b6000600019821415614dfc57614dfc614e03565b5060010190565b634e487b7160e01b600052601160045260246000fd5b634e487b7160e01b600052604160045260246000fd5b600060033d11156116de57600481823e5160e01c90565b600060443d1015614e56576116de565b6040516003193d81016004833e81513d6001600160401b038160248401118184111715614e875750505050506116de565b8285019150815181811115614ea1575050505050506116de565b843d8701016020828501011115614ebd575050505050506116de565b614ecc60208286010187614dbc565b509094505050505090565b6001600160e01b03198116811461283657600080fdfea26469706673582212204e6dbcb0e6c6017777d06ce5ee4dca5238c40fad82ca8b8c22d169328071a92c64736f6c63430008010033",
  "linkReferences": {},
  "deployedLinkReferences": {},
  "immutableReferences": {},
  "inputSourceName": "project/contracts/TCF_NFT.sol",
  "devdoc": {
    "kind": "dev",
    "methods": {
      "ESafeTransferFrom(address,address,uint256,uint256[],bytes)": {
        "details": "安全转移无效的token，可以删除，因为后面会在TCF_NFT中实现",
        "params": {
          "indexes": "无效token在mintTimes数组中的位置"
        }
      },
      "addSupportedToken(address)": {
        "details": "添加支持的代币地址列表（原生代币不需要传入地址）。构造函数中已经添加了原生代币TC。 如果项目只支持TC，则不需要调用这个函数。",
        "params": {
          "_tokenAddress": "代币合约地址"
        }
      },
      "balanceOf(address,uint256)": {
        "details": "See {IERC1155-balanceOf}. Requirements: - `account` cannot be the zero address."
      },
      "balanceOfBatch(address[],uint256[])": {
        "details": "See {IERC1155-balanceOfBatch}.没有实现 Requirements: - `accounts` and `ids` must have the same length."
      },
      "changeNFTPrice(uint256,address,uint256)": {
        "details": "修改单个NFT价格",
        "params": {
          "amount": "新价格",
          "tokenAddress": "支付代币地址；原生代币传入address(0)",
          "tokenID": "NFT类型/ID（0-5）"
        }
      },
      "checkInitPricesParams((address,uint256)[][6])": {
        "details": "初始化价格参数检查：长度、代币是否在支持列表内等。",
        "params": {
          "prices": "6种NFT的价格参数（每种NFT包含 supportedTokenAmount 个价格项）"
        },
        "returns": {
          "_0": "错误码/错误信息；成功时为空字符串"
        }
      },
      "getNFTPrice(uint256,address)": {
        "details": "获取某个NFT在某种支付方式下的价格。",
        "params": {
          "_tokenAddress": "支付代币地址；原生代币传入address(0)",
          "tokenID": "NFT类型/ID（0-5）"
        },
        "returns": {
          "_0": "errorMessage 错误码/错误信息；成功时为空字符串",
          "_1": "price 价格；当errorMessage非空时为0"
        }
      },
      "getRecommendedParent(address)": {
        "details": "从 recommender 开始：每一步比较左右子树（left/right）余额总和，选择更小的分叉继续向下。      如果本次选择的分叉为空（子节点地址为 0），则无法继续下探，此时返回当前节点作为最终父节点。      该返回值可用于后续插入新节点时的 parent 参数。",
        "params": {
          "recommender": "推荐人地址（必须已在树中）"
        },
        "returns": {
          "isLeftBranch": "推荐在 parent 下应选择的分支：true=left，false=right",
          "parent": "推荐得到的最终父节点地址"
        }
      },
      "initPrice((address,uint256)[][6])": {
        "details": "初始化价格.TC代币的地址设为0",
        "params": {
          "prices": "6种NFT,每中NFT的三类价格"
        }
      },
      "initRoot(address)": {
        "params": {
          "rootAddress": "根节点地址"
        }
      },
      "insert(address,address,address,bool)": {
        "details": "约束：  - parent 必须已存在。  - recommender 必须已存在。  - 若 recommender 推荐该 node，则 parent 必须在 recommender 的子树内（含 recommender 本人）。",
        "params": {
          "isLeft": "true=插入为 parent.left；false=插入为 parent.right。  如果isLeft未true，优先放在父节点的左子树下，如果左子树下有节点，则放在右子树下；反之亦然。  我什么存在：因为如果使用推荐节点，推荐函数将返回一个父节点和isLeft参数，这样插入函数就可以直接使用。",
          "node": "新节点地址",
          "parent": "父节点地址",
          "recommender": "推荐人地址（必须是当前树中的某个地址）"
        }
      },
      "isApprovedForAll(address,address)": {
        "details": "See {IERC1155-isApprovedForAll}."
      },
      "minChildSubtreeBalance(address)": {
        "details": "若某侧子节点为空，则该侧子树余额视为 0。"
      },
      "owner()": {
        "details": "Returns the address of the current owner."
      },
      "paused()": {
        "details": "Returns true if the contract is paused, and false otherwise."
      },
      "renounceOwnership()": {
        "details": "Leaves the contract without owner. It will not be possible to call `onlyOwner` functions. Can only be called by the current owner. NOTE: Renouncing ownership will leave the contract without an owner, thereby disabling any functionality that is only available to the owner."
      },
      "safeBatchTransferFrom(address,address,uint256[],uint256[],bytes)": {
        "details": "See {IERC1155-safeBatchTransferFrom}."
      },
      "safeTransferFrom(address,address,uint256,uint256,bytes)": {
        "details": "See {IERC1155-safeTransferFrom}.没有实现"
      },
      "setApprovalForAll(address,bool)": {
        "details": "See {IERC1155-setApprovalForAll}."
      },
      "setBaseURI(bytes[6])": {
        "details": "Sets `baseURI` as the `_baseURI` for all tokens Only callable by the owner.可以被设置多次"
      },
      "supportsInterface(bytes4)": {
        "details": "See {IERC165-supportsInterface}."
      },
      "totalTreeBalance()": {
        "details": "注意：树很大时可能消耗较多 gas（即使 view 调用也有计算开销）。"
      },
      "transferOwnership(address)": {
        "details": "Transfers ownership of the contract to a new account (`newOwner`). Can only be called by the current owner."
      }
    },
    "version": 1
  },
  "evm": {
    "gasEstimates": {
      "creation": {
        "codeDepositCost": "4051800",
        "executionCost": "130458",
        "totalCost": "4182258"
      },
      "external": {
        "ESafeTransferFrom(address,address,uint256,uint256[],bytes)": "infinite",
        "Euri(uint256)": "infinite",
        "NFTPrice_initialized()": "1213",
        "_initializedURIStorage()": "1158",
        "addSupportedToken(address)": "infinite",
        "balanceOf(address,uint256)": "1547",
        "balanceOfBatch(address[],uint256[])": "infinite",
        "buyNFTByTC(uint256,uint256)": "infinite",
        "changeDynamicRatio(uint256,uint8)": "24960",
        "changeNFTPrice(uint256,address,uint256)": "infinite",
        "checkInitPricesParams((address,uint256)[][6])": "infinite",
        "getChildren(address)": "3240",
        "getNFTEquityDetails(uint256)": "2240",
        "getNFTPrice(uint256,address)": "infinite",
        "getNftMintTime(uint256,uint256)": "1381",
        "getNodeBalance(address)": "infinite",
        "getParent(address)": "2353",
        "getRecommendedParent(address)": "infinite",
        "getRecommender(address)": "2294",
        "getTotalNFTWorth(address)": "infinite",
        "getUserTokenIds(address,uint256)": "infinite",
        "getWithdrawAddress()": "2997",
        "initPrice((address,uint256)[][6])": "infinite",
        "initRoot(address)": "107644",
        "insert(address,address,address,bool)": "infinite",
        "isApprovedForAll(address,address)": "infinite",
        "isExist(address)": "infinite",
        "isSupported(address)": "1430",
        "minChildSubtreeBalance(address)": "infinite",
        "onTransferReceived(address,address,uint256,bytes)": "infinite",
        "owner()": "1137",
        "ownerOf(uint256,uint256)": "1403",
        "pause()": "infinite",
        "paused()": "1130",
        "renounceOwnership()": "infinite",
        "root()": "1158",
        "rootInitialized()": "1168",
        "safeBatchTransferFrom(address,address,uint256[],uint256[],bytes)": "infinite",
        "safeTransferFrom(address,address,uint256,uint256,bytes)": "infinite",
        "setApprovalForAll(address,bool)": "infinite",
        "setBaseURI(bytes[6])": "infinite",
        "setWithdrawAddress(address)": "45837",
        "subtreeBalance(address)": "infinite",
        "supportedTokenAmount()": "1140",
        "supportsInterface(bytes4)": "infinite",
        "tokenAddress_array(uint256)": "2106",
        "totalTreeBalance()": "infinite",
        "transferOwnership(address)": "23862",
        "unpause()": "infinite",
        "uri(uint256)": "516",
        "withdrawAddress_initialized()": "1174"
      },
      "internal": {
        "_beforeTokenTransfer(address,address,address,uint256[] memory,uint256[] memory,bytes memory)": "infinite",
        "_mint(address,uint256,uint256,bytes memory)": "infinite",
        "_safeTransferFrom(address,address,uint256,uint256[] calldata,bytes memory)": "infinite"
      }
    }
  },
  "storageLayout": {
    "storage": [
      {
        "astId": 535,
        "contract": "project/contracts/TCF_NFT.sol:TCF_NFT",
        "label": "_nextTokenId",
        "offset": 0,
        "slot": "0",
        "type": "t_array(t_uint256)6_storage"
      },
      {
        "astId": 541,
        "contract": "project/contracts/TCF_NFT.sol:TCF_NFT",
        "label": "_owners",
        "offset": 0,
        "slot": "6",
        "type": "t_mapping(t_uint256,t_mapping(t_uint256,t_address))"
      },
      {
        "astId": 547,
        "contract": "project/contracts/TCF_NFT.sol:TCF_NFT",
        "label": "_balances",
        "offset": 0,
        "slot": "7",
        "type": "t_mapping(t_uint256,t_mapping(t_address,t_uint256))"
      },
      {
        "astId": 553,
        "contract": "project/contracts/TCF_NFT.sol:TCF_NFT",
        "label": "_operatorApprovals",
        "offset": 0,
        "slot": "8",
        "type": "t_mapping(t_address,t_mapping(t_address,t_bool))"
      },
      {
        "astId": 3647,
        "contract": "project/contracts/TCF_NFT.sol:TCF_NFT",
        "label": "_owner",
        "offset": 0,
        "slot": "9",
        "type": "t_address"
      },
      {
        "astId": 1876,
        "contract": "project/contracts/TCF_NFT.sol:TCF_NFT",
        "label": "_baseURI",
        "offset": 0,
        "slot": "10",
        "type": "t_array(t_string_storage)6_storage"
      },
      {
        "astId": 1878,
        "contract": "project/contracts/TCF_NFT.sol:TCF_NFT",
        "label": "_initializedURIStorage",
        "offset": 0,
        "slot": "16",
        "type": "t_uint8"
      },
      {
        "astId": 1884,
        "contract": "project/contracts/TCF_NFT.sol:TCF_NFT",
        "label": "_tokenURIs",
        "offset": 0,
        "slot": "17",
        "type": "t_mapping(t_uint256,t_mapping(t_uint256,t_string_storage))"
      },
      {
        "astId": 1964,
        "contract": "project/contracts/TCF_NFT.sol:TCF_NFT",
        "label": "supportTokenType",
        "offset": 0,
        "slot": "18",
        "type": "t_mapping(t_address,t_uint8)"
      },
      {
        "astId": 1966,
        "contract": "project/contracts/TCF_NFT.sol:TCF_NFT",
        "label": "supportedTokenAmount",
        "offset": 0,
        "slot": "19",
        "type": "t_uint256"
      },
      {
        "astId": 1969,
        "contract": "project/contracts/TCF_NFT.sol:TCF_NFT",
        "label": "tokenAddress_array",
        "offset": 0,
        "slot": "20",
        "type": "t_array(t_address)dyn_storage"
      },
      {
        "astId": 1971,
        "contract": "project/contracts/TCF_NFT.sol:TCF_NFT",
        "label": "initedTokenAddress",
        "offset": 0,
        "slot": "21",
        "type": "t_uint8"
      },
      {
        "astId": 1973,
        "contract": "project/contracts/TCF_NFT.sol:TCF_NFT",
        "label": "NFTPrice_initialized",
        "offset": 1,
        "slot": "21",
        "type": "t_uint8"
      },
      {
        "astId": 1992,
        "contract": "project/contracts/TCF_NFT.sol:TCF_NFT",
        "label": "NFTS",
        "offset": 0,
        "slot": "22",
        "type": "t_mapping(t_uint256,t_struct(equities_store)1987_storage)"
      },
      {
        "astId": 1406,
        "contract": "project/contracts/TCF_NFT.sol:TCF_NFT",
        "label": "_ownedTokenIds",
        "offset": 0,
        "slot": "23",
        "type": "t_mapping(t_address,t_mapping(t_uint256,t_array(t_uint256)dyn_storage))"
      },
      {
        "astId": 1412,
        "contract": "project/contracts/TCF_NFT.sol:TCF_NFT",
        "label": "_mintTimes",
        "offset": 0,
        "slot": "24",
        "type": "t_mapping(t_uint256,t_mapping(t_uint256,t_uint64))"
      },
      {
        "astId": 2917,
        "contract": "project/contracts/TCF_NFT.sol:TCF_NFT",
        "label": "root",
        "offset": 0,
        "slot": "25",
        "type": "t_address"
      },
      {
        "astId": 2919,
        "contract": "project/contracts/TCF_NFT.sol:TCF_NFT",
        "label": "rootInitialized",
        "offset": 20,
        "slot": "25",
        "type": "t_bool"
      },
      {
        "astId": 2924,
        "contract": "project/contracts/TCF_NFT.sol:TCF_NFT",
        "label": "_nodes",
        "offset": 0,
        "slot": "26",
        "type": "t_mapping(t_address,t_struct(Node)2914_storage)"
      },
      {
        "astId": 3788,
        "contract": "project/contracts/TCF_NFT.sol:TCF_NFT",
        "label": "_paused",
        "offset": 0,
        "slot": "27",
        "type": "t_bool"
      },
      {
        "astId": 23,
        "contract": "project/contracts/TCF_NFT.sol:TCF_NFT",
        "label": "withdrawAddress",
        "offset": 1,
        "slot": "27",
        "type": "t_address"
      },
      {
        "astId": 25,
        "contract": "project/contracts/TCF_NFT.sol:TCF_NFT",
        "label": "withdrawAddress_initialized",
        "offset": 21,
        "slot": "27",
        "type": "t_uint8"
      }
    ],
    "types": {
      "t_address": {
        "encoding": "inplace",
        "label": "address",
        "numberOfBytes": "20"
      },
      "t_array(t_address)dyn_storage": {
        "base": "t_address",
        "encoding": "dynamic_array",
        "label": "address[]",
        "numberOfBytes": "32"
      },
      "t_array(t_string_storage)6_storage": {
        "base": "t_string_storage",
        "encoding": "inplace",
        "label": "string[6]",
        "numberOfBytes": "192"
      },
      "t_array(t_uint256)6_storage": {
        "base": "t_uint256",
        "encoding": "inplace",
        "label": "uint256[6]",
        "numberOfBytes": "192"
      },
      "t_array(t_uint256)dyn_storage": {
        "base": "t_uint256",
        "encoding": "dynamic_array",
        "label": "uint256[]",
        "numberOfBytes": "32"
      },
      "t_bool": {
        "encoding": "inplace",
        "label": "bool",
        "numberOfBytes": "1"
      },
      "t_mapping(t_address,t_bool)": {
        "encoding": "mapping",
        "key": "t_address",
        "label": "mapping(address => bool)",
        "numberOfBytes": "32",
        "value": "t_bool"
      },
      "t_mapping(t_address,t_mapping(t_address,t_bool))": {
        "encoding": "mapping",
        "key": "t_address",
        "label": "mapping(address => mapping(address => bool))",
        "numberOfBytes": "32",
        "value": "t_mapping(t_address,t_bool)"
      },
      "t_mapping(t_address,t_mapping(t_uint256,t_array(t_uint256)dyn_storage))": {
        "encoding": "mapping",
        "key": "t_address",
        "label": "mapping(address => mapping(uint256 => uint256[]))",
        "numberOfBytes": "32",
        "value": "t_mapping(t_uint256,t_array(t_uint256)dyn_storage)"
      },
      "t_mapping(t_address,t_struct(Node)2914_storage)": {
        "encoding": "mapping",
        "key": "t_address",
        "label": "mapping(address => struct BinaryTree.Node)",
        "numberOfBytes": "32",
        "value": "t_struct(Node)2914_storage"
      },
      "t_mapping(t_address,t_uint256)": {
        "encoding": "mapping",
        "key": "t_address",
        "label": "mapping(address => uint256)",
        "numberOfBytes": "32",
        "value": "t_uint256"
      },
      "t_mapping(t_address,t_uint8)": {
        "encoding": "mapping",
        "key": "t_address",
        "label": "mapping(address => uint8)",
        "numberOfBytes": "32",
        "value": "t_uint8"
      },
      "t_mapping(t_uint256,t_address)": {
        "encoding": "mapping",
        "key": "t_uint256",
        "label": "mapping(uint256 => address)",
        "numberOfBytes": "32",
        "value": "t_address"
      },
      "t_mapping(t_uint256,t_array(t_uint256)dyn_storage)": {
        "encoding": "mapping",
        "key": "t_uint256",
        "label": "mapping(uint256 => uint256[])",
        "numberOfBytes": "32",
        "value": "t_array(t_uint256)dyn_storage"
      },
      "t_mapping(t_uint256,t_mapping(t_address,t_uint256))": {
        "encoding": "mapping",
        "key": "t_uint256",
        "label": "mapping(uint256 => mapping(address => uint256))",
        "numberOfBytes": "32",
        "value": "t_mapping(t_address,t_uint256)"
      },
      "t_mapping(t_uint256,t_mapping(t_uint256,t_address))": {
        "encoding": "mapping",
        "key": "t_uint256",
        "label": "mapping(uint256 => mapping(uint256 => address))",
        "numberOfBytes": "32",
        "value": "t_mapping(t_uint256,t_address)"
      },
      "t_mapping(t_uint256,t_mapping(t_uint256,t_string_storage))": {
        "encoding": "mapping",
        "key": "t_uint256",
        "label": "mapping(uint256 => mapping(uint256 => string))",
        "numberOfBytes": "32",
        "value": "t_mapping(t_uint256,t_string_storage)"
      },
      "t_mapping(t_uint256,t_mapping(t_uint256,t_uint64))": {
        "encoding": "mapping",
        "key": "t_uint256",
        "label": "mapping(uint256 => mapping(uint256 => uint64))",
        "numberOfBytes": "32",
        "value": "t_mapping(t_uint256,t_uint64)"
      },
      "t_mapping(t_uint256,t_string_storage)": {
        "encoding": "mapping",
        "key": "t_uint256",
        "label": "mapping(uint256 => string)",
        "numberOfBytes": "32",
        "value": "t_string_storage"
      },
      "t_mapping(t_uint256,t_struct(equities_store)1987_storage)": {
        "encoding": "mapping",
        "key": "t_uint256",
        "label": "mapping(uint256 => struct TCF_NFTPrice.equities_store)",
        "numberOfBytes": "32",
        "value": "t_struct(equities_store)1987_storage"
      },
      "t_mapping(t_uint256,t_uint64)": {
        "encoding": "mapping",
        "key": "t_uint256",
        "label": "mapping(uint256 => uint64)",
        "numberOfBytes": "32",
        "value": "t_uint64"
      },
      "t_string_storage": {
        "encoding": "bytes",
        "label": "string",
        "numberOfBytes": "32"
      },
      "t_struct(Node)2914_storage": {
        "encoding": "inplace",
        "label": "struct BinaryTree.Node",
        "members": [
          {
            "astId": 2905,
            "contract": "project/contracts/TCF_NFT.sol:TCF_NFT",
            "label": "parent",
            "offset": 0,
            "slot": "0",
            "type": "t_address"
          },
          {
            "astId": 2907,
            "contract": "project/contracts/TCF_NFT.sol:TCF_NFT",
            "label": "left",
            "offset": 0,
            "slot": "1",
            "type": "t_address"
          },
          {
            "astId": 2909,
            "contract": "project/contracts/TCF_NFT.sol:TCF_NFT",
            "label": "right",
            "offset": 0,
            "slot": "2",
            "type": "t_address"
          },
          {
            "astId": 2911,
            "contract": "project/contracts/TCF_NFT.sol:TCF_NFT",
            "label": "recommender",
            "offset": 0,
            "slot": "3",
            "type": "t_address"
          },
          {
            "astId": 2913,
            "contract": "project/contracts/TCF_NFT.sol:TCF_NFT",
            "label": "exists",
            "offset": 20,
            "slot": "3",
            "type": "t_bool"
          }
        ],
        "numberOfBytes": "128"
      },
      "t_struct(equities_store)1987_storage": {
        "encoding": "inplace",
        "label": "struct TCF_NFTPrice.equities_store",
        "members": [
          {
            "astId": 1982,
            "contract": "project/contracts/TCF_NFT.sol:TCF_NFT",
            "label": "prices",
            "offset": 0,
            "slot": "0",
            "type": "t_mapping(t_address,t_uint256)"
          },
          {
            "astId": 1984,
            "contract": "project/contracts/TCF_NFT.sol:TCF_NFT",
            "label": "ratio",
            "offset": 0,
            "slot": "1",
            "type": "t_uint8"
          },
          {
            "astId": 1986,
            "contract": "project/contracts/TCF_NFT.sol:TCF_NFT",
            "label": "indate",
            "offset": 1,
            "slot": "1",
            "type": "t_uint32"
          }
        ],
        "numberOfBytes": "64"
      },
      "t_uint256": {
        "encoding": "inplace",
        "label": "uint256",
        "numberOfBytes": "32"
      },
      "t_uint32": {
        "encoding": "inplace",
        "label": "uint32",
        "numberOfBytes": "4"
      },
      "t_uint64": {
        "encoding": "inplace",
        "label": "uint64",
        "numberOfBytes": "8"
      },
      "t_uint8": {
        "encoding": "inplace",
        "label": "uint8",
        "numberOfBytes": "1"
      }
    }
  },
  "userdoc": {
    "kind": "user",
    "methods": {
      "getChildren(address)": {
        "notice": "查询某个节点的子节点地址（left, right）"
      },
      "getNodeBalance(address)": {
        "notice": "查询某个节点余额"
      },
      "getParent(address)": {
        "notice": "查询某个节点的父节点地址"
      },
      "getRecommendedParent(address)": {
        "notice": "获取“推荐的父节点”"
      },
      "getRecommender(address)": {
        "notice": "查询某个节点的推荐人地址"
      },
      "initPrice((address,uint256)[][6])": {
        "notice": "只能调用一次，调用前必须确保支持的代币地址已经初始化，不需要检查token地址是否初始化，因为在构造函数中，初始化了TC"
      },
      "initRoot(address)": {
        "notice": "初始化根节点（只能执行一次，且只能由合约部署者/owner 调用）"
      },
      "insert(address,address,address,bool)": {
        "notice": "插入节点"
      },
      "isExist(address)": {
        "notice": "判断某个地址是否已在树中"
      },
      "minChildSubtreeBalance(address)": {
        "notice": "计算某个节点下两条子树（left/right）中，余额总和更少的那一条子树的余额总和"
      },
      "root()": {
        "notice": "根节点地址（初始化后不可更改）"
      },
      "subtreeBalance(address)": {
        "notice": "返回某个节点子树（含该节点）余额总和"
      },
      "totalTreeBalance()": {
        "notice": "遍历整颗二叉树，返回所有节点余额总和"
      }
    },
    "version": 1
  },
  "argsData": "0x",
  "transaction": {
    "hash": "0x0c2e22e2f647b10dcc501bd63dd1b32c3a07e5049f783bf49d37676f96e02df5",
    "nonce": "0x4",
    "origin": "0xf39fd6e51aad88f6f4ce6ab8827279cfffb92266"
  }
}