{
  "address": "0x9fe46736679d2d9a65f0992f2272de9f3c7fa6e0",
  "abi": [
    {
      "inputs": [],
      "stateMutability": "nonpayable",
      "type": "constructor"
    },
    {
      "anonymous": false,
      "inputs": [
        {
          "indexed": true,
          "internalType": "address",
          "name": "account",
          "type": "address"
        },
        {
          "indexed": true,
          "internalType": "address",
          "name": "operator",
          "type": "address"
        },
        {
          "indexed": false,
          "internalType": "bool",
          "name": "approved",
          "type": "bool"
        }
      ],
      "name": "ApprovalForAll",
      "type": "event"
    },
    {
      "anonymous": false,
      "inputs": [
        {
          "indexed": true,
          "internalType": "address",
          "name": "previousOwner",
          "type": "address"
        },
        {
          "indexed": true,
          "internalType": "address",
          "name": "newOwner",
          "type": "address"
        }
      ],
      "name": "OwnershipTransferred",
      "type": "event"
    },
    {
      "anonymous": false,
      "inputs": [
        {
          "indexed": true,
          "internalType": "address",
          "name": "operator",
          "type": "address"
        },
        {
          "indexed": true,
          "internalType": "address",
          "name": "from",
          "type": "address"
        },
        {
          "indexed": true,
          "internalType": "address",
          "name": "to",
          "type": "address"
        },
        {
          "indexed": false,
          "internalType": "uint256[]",
          "name": "ids",
          "type": "uint256[]"
        },
        {
          "indexed": false,
          "internalType": "uint256[]",
          "name": "values",
          "type": "uint256[]"
        }
      ],
      "name": "TransferBatch",
      "type": "event"
    },
    {
      "anonymous": false,
      "inputs": [
        {
          "indexed": true,
          "internalType": "address",
          "name": "operator",
          "type": "address"
        },
        {
          "indexed": true,
          "internalType": "address",
          "name": "from",
          "type": "address"
        },
        {
          "indexed": true,
          "internalType": "address",
          "name": "to",
          "type": "address"
        },
        {
          "indexed": false,
          "internalType": "uint256",
          "name": "id",
          "type": "uint256"
        },
        {
          "indexed": false,
          "internalType": "uint256",
          "name": "value",
          "type": "uint256"
        }
      ],
      "name": "TransferSingle",
      "type": "event"
    },
    {
      "anonymous": false,
      "inputs": [
        {
          "indexed": false,
          "internalType": "string",
          "name": "value",
          "type": "string"
        },
        {
          "indexed": true,
          "internalType": "uint256",
          "name": "id",
          "type": "uint256"
        }
      ],
      "name": "URI",
      "type": "event"
    },
    {
      "inputs": [],
      "name": "NFTPrice_initialized",
      "outputs": [
        {
          "internalType": "uint8",
          "name": "",
          "type": "uint8"
        }
      ],
      "stateMutability": "view",
      "type": "function"
    },
    {
      "inputs": [
        {
          "internalType": "uint256",
          "name": "",
          "type": "uint256"
        }
      ],
      "name": "NFTS",
      "outputs": [
        {
          "internalType": "uint8",
          "name": "ratio",
          "type": "uint8"
        },
        {
          "internalType": "uint32",
          "name": "indate",
          "type": "uint32"
        }
      ],
      "stateMutability": "view",
      "type": "function"
    },
    {
      "inputs": [
        {
          "internalType": "address[]",
          "name": "tokenAddresses",
          "type": "address[]"
        }
      ],
      "name": "addSupportedToken",
      "outputs": [],
      "stateMutability": "nonpayable",
      "type": "function"
    },
    {
      "inputs": [
        {
          "internalType": "address",
          "name": "account",
          "type": "address"
        },
        {
          "internalType": "uint256",
          "name": "id",
          "type": "uint256"
        }
      ],
      "name": "balanceOf",
      "outputs": [
        {
          "internalType": "uint256",
          "name": "",
          "type": "uint256"
        }
      ],
      "stateMutability": "view",
      "type": "function"
    },
    {
      "inputs": [
        {
          "internalType": "address[]",
          "name": "accounts",
          "type": "address[]"
        },
        {
          "internalType": "uint256[]",
          "name": "ids",
          "type": "uint256[]"
        }
      ],
      "name": "balanceOfBatch",
      "outputs": [
        {
          "internalType": "uint256[]",
          "name": "",
          "type": "uint256[]"
        }
      ],
      "stateMutability": "view",
      "type": "function"
    },
    {
      "inputs": [
        {
          "internalType": "uint256",
          "name": "tokenID",
          "type": "uint256"
        },
        {
          "internalType": "address",
          "name": "tokenAddress",
          "type": "address"
        },
        {
          "internalType": "uint256",
          "name": "amount",
          "type": "uint256"
        }
      ],
      "name": "changeNFTPrice",
      "outputs": [],
      "stateMutability": "nonpayable",
      "type": "function"
    },
    {
      "inputs": [
        {
          "components": [
            {
              "internalType": "address",
              "name": "tokenAddress",
              "type": "address"
            },
            {
              "internalType": "uint256",
              "name": "amount",
              "type": "uint256"
            }
          ],
          "internalType": "struct TCF_NFTPrice.priceTypeAndAomut[][6]",
          "name": "prices",
          "type": "tuple[][6]"
        }
      ],
      "name": "checkInitPricesParams",
      "outputs": [
        {
          "internalType": "string",
          "name": "",
          "type": "string"
        }
      ],
      "stateMutability": "view",
      "type": "function"
    },
    {
      "inputs": [
        {
          "internalType": "address[]",
          "name": "_tokenAddresses",
          "type": "address[]"
        }
      ],
      "name": "checkTokenAddressesCode",
      "outputs": [
        {
          "internalType": "string",
          "name": "",
          "type": "string"
        }
      ],
      "stateMutability": "view",
      "type": "function"
    },
    {
      "inputs": [
        {
          "internalType": "address",
          "name": "oldTokenAddress",
          "type": "address"
        }
      ],
      "name": "deleteSupportedToken",
      "outputs": [],
      "stateMutability": "nonpayable",
      "type": "function"
    },
    {
      "inputs": [
        {
          "internalType": "uint256",
          "name": "tokenID",
          "type": "uint256"
        },
        {
          "internalType": "address",
          "name": "_tokenAddress",
          "type": "address"
        }
      ],
      "name": "getNFTPrice",
      "outputs": [
        {
          "internalType": "string",
          "name": "",
          "type": "string"
        },
        {
          "internalType": "uint256",
          "name": "",
          "type": "uint256"
        }
      ],
      "stateMutability": "view",
      "type": "function"
    },
    {
      "inputs": [
        {
          "components": [
            {
              "internalType": "address",
              "name": "tokenAddress",
              "type": "address"
            },
            {
              "internalType": "uint256",
              "name": "amount",
              "type": "uint256"
            }
          ],
          "internalType": "struct TCF_NFTPrice.priceTypeAndAomut[][6]",
          "name": "prices",
          "type": "tuple[][6]"
        }
      ],
      "name": "initPrice",
      "outputs": [],
      "stateMutability": "nonpayable",
      "type": "function"
    },
    {
      "inputs": [
        {
          "internalType": "address",
          "name": "account",
          "type": "address"
        },
        {
          "internalType": "address",
          "name": "operator",
          "type": "address"
        }
      ],
      "name": "isApprovedForAll",
      "outputs": [
        {
          "internalType": "bool",
          "name": "",
          "type": "bool"
        }
      ],
      "stateMutability": "view",
      "type": "function"
    },
    {
      "inputs": [
        {
          "internalType": "address",
          "name": "token",
          "type": "address"
        }
      ],
      "name": "isSupported",
      "outputs": [
        {
          "internalType": "uint8",
          "name": "",
          "type": "uint8"
        }
      ],
      "stateMutability": "view",
      "type": "function"
    },
    {
      "inputs": [],
      "name": "owner",
      "outputs": [
        {
          "internalType": "address",
          "name": "",
          "type": "address"
        }
      ],
      "stateMutability": "view",
      "type": "function"
    },
    {
      "inputs": [
        {
          "internalType": "uint256",
          "name": "tokenId",
          "type": "uint256"
        },
        {
          "internalType": "uint256",
          "name": "editionId",
          "type": "uint256"
        }
      ],
      "name": "ownerOf",
      "outputs": [
        {
          "internalType": "address",
          "name": "",
          "type": "address"
        }
      ],
      "stateMutability": "view",
      "type": "function"
    },
    {
      "inputs": [],
      "name": "renounceOwnership",
      "outputs": [],
      "stateMutability": "nonpayable",
      "type": "function"
    },
    {
      "inputs": [
        {
          "internalType": "address",
          "name": "from",
          "type": "address"
        },
        {
          "internalType": "address",
          "name": "to",
          "type": "address"
        },
        {
          "internalType": "uint256[]",
          "name": "ids",
          "type": "uint256[]"
        },
        {
          "internalType": "uint256[]",
          "name": "amounts",
          "type": "uint256[]"
        },
        {
          "internalType": "bytes",
          "name": "data",
          "type": "bytes"
        }
      ],
      "name": "safeBatchTransferFrom",
      "outputs": [],
      "stateMutability": "nonpayable",
      "type": "function"
    },
    {
      "inputs": [
        {
          "internalType": "address",
          "name": "from",
          "type": "address"
        },
        {
          "internalType": "address",
          "name": "to",
          "type": "address"
        },
        {
          "internalType": "uint256",
          "name": "id",
          "type": "uint256"
        },
        {
          "internalType": "uint256",
          "name": "amount",
          "type": "uint256"
        },
        {
          "internalType": "bytes",
          "name": "data",
          "type": "bytes"
        }
      ],
      "name": "safeTransferFrom",
      "outputs": [],
      "stateMutability": "nonpayable",
      "type": "function"
    },
    {
      "inputs": [
        {
          "internalType": "address",
          "name": "operator",
          "type": "address"
        },
        {
          "internalType": "bool",
          "name": "approved",
          "type": "bool"
        }
      ],
      "name": "setApprovalForAll",
      "outputs": [],
      "stateMutability": "nonpayable",
      "type": "function"
    },
    {
      "inputs": [],
      "name": "supportedTokenAmount",
      "outputs": [
        {
          "internalType": "uint256",
          "name": "",
          "type": "uint256"
        }
      ],
      "stateMutability": "view",
      "type": "function"
    },
    {
      "inputs": [
        {
          "internalType": "bytes4",
          "name": "interfaceId",
          "type": "bytes4"
        }
      ],
      "name": "supportsInterface",
      "outputs": [
        {
          "internalType": "bool",
          "name": "",
          "type": "bool"
        }
      ],
      "stateMutability": "view",
      "type": "function"
    },
    {
      "inputs": [
        {
          "internalType": "address",
          "name": "from",
          "type": "address"
        },
        {
          "internalType": "address",
          "name": "to",
          "type": "address"
        },
        {
          "internalType": "uint256",
          "name": "id",
          "type": "uint256"
        },
        {
          "internalType": "uint256[]",
          "name": "indexes",
          "type": "uint256[]"
        },
        {
          "internalType": "bytes",
          "name": "data",
          "type": "bytes"
        }
      ],
      "name": "test_SafeTransferFrom",
      "outputs": [],
      "stateMutability": "nonpayable",
      "type": "function"
    },
    {
      "inputs": [
        {
          "internalType": "uint256",
          "name": "",
          "type": "uint256"
        }
      ],
      "name": "tokenAddress_array",
      "outputs": [
        {
          "internalType": "address",
          "name": "",
          "type": "address"
        }
      ],
      "stateMutability": "view",
      "type": "function"
    },
    {
      "inputs": [
        {
          "internalType": "address",
          "name": "newOwner",
          "type": "address"
        }
      ],
      "name": "transferOwnership",
      "outputs": [],
      "stateMutability": "nonpayable",
      "type": "function"
    },
    {
      "inputs": [
        {
          "internalType": "uint256",
          "name": "",
          "type": "uint256"
        }
      ],
      "name": "uri",
      "outputs": [
        {
          "internalType": "string",
          "name": "",
          "type": "string"
        }
      ],
      "stateMutability": "view",
      "type": "function"
    }
  ],
  "contractName": "TCF_NFTPrice",
  "sourceName": "contracts/extensions/ERC1155/TCF_NFTPrice.sol",
  "bytecode": "0x60806040523480156200001157600080fd5b506200002662000020620000a4565b620000a8565b600a6020527fbbc70db1b6c7afd11e79c0fb0051300458f1a3acb8ee9789d9b6b26c61ad9bc7805460ff19166001908117909155600c805480830182556000919091527fdf6966c971051c3d54ec59162606531493a51404a002842f56009d7e5cf4a8c70180546001600160a01b03191682179055600b55620000fa565b3390565b600980546001600160a01b038381166001600160a01b0319831681179093556040519116919082907f8be0079c531659141344cd1fd0a4f28419497f9722a3daafe3b4186f6b6457e090600090a35050565b612a14806200010a6000396000f3fe608060405234801561001057600080fd5b50600436106101725760003560e01c806355826313116100de578063d9dad80d11610097578063e985e9c511610071578063e985e9c51461034f578063f1adfd1914610362578063f242432a14610375578063f2fde38b1461038357610172565b8063d9dad80d14610316578063db891c1014610329578063e05409971461033c57610172565b8063558263131461029e578063715018a6146102b157806386ff9113146102b95780638da5cb5b146102da578063a22cb465146102e2578063c9b6b485146102f557610172565b80632eb2c2d6116101305780632eb2c2d61461021b578063333cc85d146102305780633a4d2d3a146102435780634c8cb672146102565780634e1273f41461026b5780634f129c531461028b57610172565b8062fdd58e1461017757806301ffc9a7146101a05780630e89341c146101c057806319d62e57146101e05780631f3fd618146102005780632336128314610213575b600080fd5b61018a6101853660046120f4565b610396565b604051610197919061275c565b60405180910390f35b6101b36101ae3660046121f1565b610438565b6040516101979190612495565b6101d36101ce3660046122e5565b610480565b60405161019791906124a0565b6101f36101ee3660046122e5565b610493565b60405161019791906123f8565b6101d361020e3660046121b9565b6104bd565b61018a6106ff565b61022e610229366004611ef4565b610705565b005b61022e61023e366004611ea1565b61070c565b61022e6102513660046121b9565b61095d565b61025e610c72565b6040516101979190612773565b61027e610279366004612158565b610c80565b6040516101979190612451565b61025e610299366004611ea1565b610c88565b61022e6102ac36600461231f565b610cbc565b61022e610d2f565b6102cc6102c73660046122fd565b610d43565b6040516101979291906124b3565b6101f3610db5565b61022e6102f03660046120ba565b610dc5565b6103086103033660046122e5565b610ddb565b604051610197929190612781565b6101f3610324366004612353565b610e00565b61022e61033736600461211d565b610e72565b6101d361034a36600461211d565b610fa9565b6101b361035d366004611ec2565b610fb4565b61022e610370366004611f9a565b610fe2565b61022e610229366004612057565b61022e610391366004611ea1565b611042565b60006001600160a01b0383166103c75760405162461bcd60e51b81526004016103be906125ad565b60405180910390fd5b60408051808201909152600d81526c544f4b454e49445f52414e474560981b60208201526006831061040c5760405162461bcd60e51b81526004016103be91906124a0565b505060008181526007602090815260408083206001600160a01b03861684529091529020545b92915050565b60006001600160e01b03198216636cdb3d1360e11b148061046957506001600160e01b031982166303a24d0760e21b145b8061047857506104788261107c565b90505b919050565b5060408051602081019091526000815290565b600c81815481106104a357600080fd5b6000918252602090912001546001600160a01b0316905081565b606060005b60068110156106e957600b548382600681106104ee57634e487b7160e01b600052603260045260246000fd5b6020028101906104fe919061279a565b90501461052d57505060408051808201909152600a815269282924a1a2a9afa622a760b11b602082015261047b565b600083826006811061054f57634e487b7160e01b600052603260045260246000fd5b60200281019061055f919061279a565b808060200260200160405190810160405280939291908181526020016000905b828210156105ab5761059c604083028601368190038101906122a7565b8152602001906001019061057f565b5050505050905060005b600b548110156106d65760006001600160a01b03168282815181106105ea57634e487b7160e01b600052603260045260246000fd5b6020026020010151600001516001600160a01b0316141580156106595750600a600083838151811061062c57634e487b7160e01b600052603260045260246000fd5b602090810291909101810151516001600160a01b031682528101919091526040016000205460ff16600114155b156106c6576106bc82828151811061068157634e487b7160e01b600052603260045260246000fd5b602002602001015160000151604051806040016040528060118152602001701513d2d15397d55394d5541413d4951151607a1b815250611095565b935050505061047b565b6106cf816128d8565b90506105b5565b5050806106e2906128d8565b90506104c2565b5050604080516020810190915260008152919050565b600b5481565b5050505050565b6107146110c9565b60408051808201909152601081526f13905515549157d513d2d15397d1115360821b60208201526001600160a01b0382166107625760405162461bcd60e51b81526004016103be91906124a0565b506001600160a01b0381166000908152600a602090815260409182902054825180840190935260118352701513d2d15397d55394d5541413d4951151607a1b9183019190915260ff16600114906107ba908390611095565b906107d85760405162461bcd60e51b81526004016103be91906124a0565b506001600160a01b0381166000908152600a60205260408120805460ff191690555b6001600b546108099190612864565b81101561094157816001600160a01b0316600c828154811061083b57634e487b7160e01b600052603260045260246000fd5b6000918252602090912001546001600160a01b0316141561092f57600c6002600b546108679190612864565b8154811061088557634e487b7160e01b600052603260045260246000fd5b600091825260209091200154600c80546001600160a01b0390921691839081106108bf57634e487b7160e01b600052603260045260246000fd5b9060005260206000200160006101000a8154816001600160a01b0302191690836001600160a01b03160217905550600c80548061090c57634e487b7160e01b600052603160045260246000fd5b600082815260209020810160001990810180546001600160a01b03191690550190555b80610939816128d8565b9150506107fa565b506001600b60008282546109559190612864565b909155505050565b6109656110c9565b600d5460408051808201909152601281527114149250d154d7d25392551250531256915160721b602082015290610100900460ff16156109b85760405162461bcd60e51b81526004016103be91906124a0565b5060006109c4826104bd565b905080516000146109e9578060405162461bcd60e51b81526004016103be91906124a0565b6040805160c0808201835262ed4e008252630107ac0060208084019190915263013c68008385015263017124006060808501919091526301a5e0006080808601919091526301da9c0060a0808701919091528651948501875260288552603293850193909352603c95840195909552605090830152605a93820193909352606492810192909252906000610a7d858061279a565b9050905060005b6006811015610c5b57838160068110610aad57634e487b7160e01b600052603260045260246000fd5b6020020151600e600083815260200190815260200160002060010160016101000a81548163ffffffff021916908363ffffffff160217905550828160068110610b0657634e487b7160e01b600052603260045260246000fd5b602090810291909101516000838152600e90925260408220600101805460ff191660ff9092169190911790555b82811015610c4a576000878360068110610b5d57634e487b7160e01b600052603260045260246000fd5b602002810190610b6d919061279a565b83818110610b8b57634e487b7160e01b600052603260045260246000fd5b610ba19260206040909202019081019150611ea1565b90506001600160a01b038116610bb5575060015b878360068110610bd557634e487b7160e01b600052603260045260246000fd5b602002810190610be5919061279a565b83818110610c0357634e487b7160e01b600052603260045260246000fd5b6000868152600e602090815260408083206001600160a01b039790971683529581529085902091909402929092019092013590555080610c42816128d8565b915050610b33565b50610c54816128d8565b9050610a84565b5050600d805461ff00191661010017905550505050565b600d54610100900460ff1681565b606092915050565b60006001600160a01b038216610c9d57600191505b506001600160a01b03166000908152600a602052604090205460ff1690565b610cc46110c9565b6000610cd08484611108565b90508051600014610cf5578060405162461bcd60e51b81526004016103be91906124a0565b6001600160a01b038316610d0857600192505b506000928352600e602090815260408085206001600160a01b039094168552929052912055565b610d376110c9565b610d41600061120a565b565b6060600080610d528585611108565b90508051600014610d6857915060009050610dae565b6001600160a01b038416610d7b57600193505b5050506000828152600e602090815260408083206001600160a01b03851684528252808320548151928301909152918152905b9250929050565b6009546001600160a01b03165b90565b610dd7610dd061125c565b8383611260565b5050565b600e6020526000908152604090206001015460ff811690610100900463ffffffff1682565b6000600683106040518060400160405280600d81526020016c544f4b454e49445f52414e474560981b81525090610e4a5760405162461bcd60e51b81526004016103be91906124a0565b505060009182526006602090815260408084209284529190529020546001600160a01b031690565b610e7a6110c9565b6000610e8582611303565b90508051600014610eaa578060405162461bcd60e51b81526004016103be91906124a0565b815160005b81811015610f8c576001600a6000868481518110610edd57634e487b7160e01b600052603260045260246000fd5b60200260200101516001600160a01b03166001600160a01b0316815260200190815260200160002060006101000a81548160ff021916908360ff160217905550600c848281518110610f3f57634e487b7160e01b600052603260045260246000fd5b60209081029190910181015182546001810184556000938452919092200180546001600160a01b0319166001600160a01b0390921691909117905580610f84816128d8565b915050610eaf565b5080600b6000828254610f9f919061282d565b9091555050505050565b606061047882611303565b6001600160a01b03918216600090815260086020908152604080832093909416825291909152205460ff1690565b610fea61125c565b6001600160a01b0316866001600160a01b0316148061101057506110108661035d61125c565b61102c5760405162461bcd60e51b81526004016103be906125f7565b61103a8686868686866116c8565b505050505050565b61104a6110c9565b6001600160a01b0381166110705760405162461bcd60e51b81526004016103be9061251d565b6110798161120a565b50565b6001600160e01b031981166301ffc9a760e01b14919050565b6060816110a1846119e6565b6040516020016110b29291906123bc565b604051602081830303815290604052905092915050565b6110d161125c565b6001600160a01b03166110e2610db5565b6001600160a01b031614610d415760405162461bcd60e51b81526004016103be9061268a565b600d5460609060ff61010090910416600114611151575060408051808201909152601681527514149250d154d7d393d517d25392551250531256915160521b6020820152610432565b6005831115611184575060408051808201909152600d81526c544f4b454e49445f52414e474560981b6020820152610432565b6001600160a01b03821661119757600191505b6001600160a01b0382166000908152600a602052604090205460ff166001146111f4576111ed82604051806040016040528060118152602001701513d2d15397d55394d5541413d4951151607a1b815250611095565b9050610432565b5060408051602081019091526000815292915050565b600980546001600160a01b038381166001600160a01b0319831681179093556040519116919082907f8be0079c531659141344cd1fd0a4f28419497f9722a3daafe3b4186f6b6457e090600090a35050565b3390565b816001600160a01b0316836001600160a01b031614156112925760405162461bcd60e51b81526004016103be906126bf565b6001600160a01b0383811660008181526008602090815260408083209487168084529490915290819020805460ff1916851515179055517f17307eab39ab6107e8899845ad3d59bd9653f200f220920489ca2b5937696c31906112f6908590612495565b60405180910390a3505050565b8051606090600080805b838110156116af57600a600087838151811061133957634e487b7160e01b600052603260045260246000fd5b6020908102919091018101516001600160a01b031682528101919091526040016000205460ff16600114156113c7576113bc86828151811061138b57634e487b7160e01b600052603260045260246000fd5b60200260200101516040518060400160405280600b81526020016a414444525f45584953545360a81b815250611095565b94505050505061047b565b6040805160048152602481019091526020810180516001600160e01b03166395d89b4160e01b1790528651600090819089908590811061141757634e487b7160e01b600052603260045260246000fd5b60200260200101516001600160a01b03168360405161143691906123a0565b600060405180830381855afa9150503d8060008114611471576040519150601f19603f3d011682016040523d82523d6000602084013e611476565b606091505b5091509150818015611489575060008151115b15611668576000818060200190518101906114a49190612229565b80516020808301919091206040805180820190915260038152622221a360e91b9201919091529091507f580e4ba285e7e1134de91e671c33b0ab748bee7126d5d2e4d0845e6ad176e7eb811480159061153957506040805180820190915260048152631554d11560e21b6020909101527f8b1a1d9c2b109e527c9134b25b1a1833b16b6594f92daa9f6d9b7a6024bce9d08114155b156115a3576115938b878151811061156157634e487b7160e01b600052603260045260246000fd5b60200260200101516040518060400160405280600c81526020016b1393d517d110d197d554d11560a21b815250611095565b995050505050505050505061047b565b6040805180820190915260038152622221a360e91b6020909101527f580e4ba285e7e1134de91e671c33b0ab748bee7126d5d2e4d0845e6ad176e7eb81141561162557871561161c5760405180604001604052806007815260200166222aa82fa221a360c91b815250995050505050505050505061047b565b60019750611661565b861561165c576040518060400160405280600881526020016711155417d554d11560c21b815250995050505050505050505061047b565b600196505b5050611699565b61168b89858151811061156157634e487b7160e01b600052603260045260246000fd5b97505050505050505061047b565b50505080806116a7906128d8565b91505061130d565b5050604080516020810190915260008152949350505050565b6001600160a01b0385166116ee5760405162461bcd60e51b81526004016103be90612645565b60408051808201909152600d81526c544f4b454e49445f52414e474560981b6020820152600685106117335760405162461bcd60e51b81526004016103be91906124a0565b5060005b828110156117ca5760008581526006602052604081206001600160a01b0389169186868581811061177857634e487b7160e01b600052603260045260246000fd5b60209081029290920135835250810191909152604001600020546001600160a01b0316146117b85760405162461bcd60e51b81526004016103be90612563565b806117c2816128d8565b915050611737565b5060006117d561125c565b905060006117e286611bd5565b905060006117ef85611bd5565b90506117ff838a8a85858961103a565b60005b858110156118955760008881526006602052604081206001600160a01b038c169189898581811061184357634e487b7160e01b600052603260045260246000fd5b60209081029290920135835250810191909152604001600020546001600160a01b0316146118835760405162461bcd60e51b81526004016103be90612563565b8061188d816128d8565b915050611802565b5060008781526007602090815260408083206001600160a01b038d16845290915281208054878103909155905b868110156119395760008981526006602052604081208b918a8a858181106118fa57634e487b7160e01b600052603260045260246000fd5b6020908102929092013583525081019190915260400160002080546001600160a01b0319166001600160a01b03929092169190911790556001016118c2565b5060008881526007602090815260408083206001600160a01b038d1684529091528120805488929061196c90849061282d565b90915550506040516001600160a01b03808b16918c8216918716907fc3d58168c5ae7397731d063d5bbf3d657854427343f4c083240f7aacaa2d0f62906119b6908d908c90612765565b60405180910390a46119cc848b8b86868a61103a565b6119da848b8b8b8a8a611c2e565b50505050505050505050565b60408051602a808252606082810190935283831b916f181899199a1a9b1b9c1cb0b131b232b360811b9160009190602082018180368337019050509050600360fc1b81600081518110611a4957634e487b7160e01b600052603260045260246000fd5b60200101906001600160f81b031916908160001a905350600f60fb1b81600181518110611a8657634e487b7160e01b600052603260045260246000fd5b60200101906001600160f81b031916908160001a90535060005b6014811015611bcc576000848260148110611acb57634e487b7160e01b600052603260045260246000fd5b1a905083600482901c60ff1660108110611af557634e487b7160e01b600052603260045260246000fd5b1a60f81b83611b05846002612845565b611b1090600261282d565b81518110611b2e57634e487b7160e01b600052603260045260246000fd5b60200101906001600160f81b031916908160001a90535083600f821660108110611b6857634e487b7160e01b600052603260045260246000fd5b1a60f81b83611b78846002612845565b611b8390600361282d565b81518110611ba157634e487b7160e01b600052603260045260246000fd5b60200101906001600160f81b031916908160001a905350508080611bc4906128d8565b915050611aa0565b50949350505050565b60408051600180825281830190925260609160009190602080830190803683370190505090508281600081518110611c1d57634e487b7160e01b600052603260045260246000fd5b602090810291909101015292915050565b6001600160a01b0384163b1561103a5760405163f23a6e6160e01b81526001600160a01b0385169063f23a6e6190611c72908990899088908890889060040161240c565b602060405180830381600087803b158015611c8c57600080fd5b505af1925050508015611cbc575060408051601f3d908101601f19168201909252611cb99181019061220d565b60015b611d1c57611cc861291f565b806308c379a01415611d025750611cdd612936565b80611ce85750611d04565b8060405162461bcd60e51b81526004016103be91906124a0565b505b60405162461bcd60e51b81526004016103be90612708565b6001600160e01b0319811663f23a6e6160e01b14611d4c5760405162461bcd60e51b81526004016103be906124d5565b50505050505050565b80356001600160a01b038116811461047b57600080fd5b600082601f830112611d7c578081fd5b81356020611d89826127e1565b604051611d9682826128ab565b838152828101915085830183850287018401881015611db3578586fd5b855b85811015611dd857611dc682611d55565b84529284019290840190600101611db5565b5090979650505050505050565b600082601f830112611df5578081fd5b81356020611e02826127e1565b604051611e0f82826128ab565b838152828101915085830183850287018401881015611e2c578586fd5b855b85811015611dd857813584529284019290840190600101611e2e565b600082601f830112611e5a578081fd5b8135611e6581612805565b604051611e7282826128ab565b828152856020848701011115611e86578384fd5b82602086016020830137918201602001929092529392505050565b600060208284031215611eb2578081fd5b611ebb82611d55565b9392505050565b60008060408385031215611ed4578081fd5b611edd83611d55565b9150611eeb60208401611d55565b90509250929050565b600080600080600060a08688031215611f0b578081fd5b611f1486611d55565b9450611f2260208701611d55565b9350604086013567ffffffffffffffff80821115611f3e578283fd5b611f4a89838a01611de5565b94506060880135915080821115611f5f578283fd5b611f6b89838a01611de5565b93506080880135915080821115611f80578283fd5b50611f8d88828901611e4a565b9150509295509295909350565b60008060008060008060a08789031215611fb2578081fd5b611fbb87611d55565b9550611fc960208801611d55565b945060408701359350606087013567ffffffffffffffff80821115611fec578283fd5b818901915089601f830112611fff578283fd5b81358181111561200d578384fd5b8a60208083028501011115612020578384fd5b60208301955080945050608089013591508082111561203d578283fd5b5061204a89828a01611e4a565b9150509295509295509295565b600080600080600060a0868803121561206e578081fd5b61207786611d55565b945061208560208701611d55565b93506040860135925060608601359150608086013567ffffffffffffffff8111156120ae578182fd5b611f8d88828901611e4a565b600080604083850312156120cc578182fd5b6120d583611d55565b9150602083013580151581146120e9578182fd5b809150509250929050565b60008060408385031215612106578182fd5b61210f83611d55565b946020939093013593505050565b60006020828403121561212e578081fd5b813567ffffffffffffffff811115612144578182fd5b61215084828501611d6c565b949350505050565b6000806040838503121561216a578182fd5b823567ffffffffffffffff80821115612181578384fd5b61218d86838701611d6c565b935060208501359150808211156121a2578283fd5b506121af85828601611de5565b9150509250929050565b6000602082840312156121ca578081fd5b813567ffffffffffffffff8111156121e0578182fd5b820160c08101841015611ebb578182fd5b600060208284031215612202578081fd5b8135611ebb816129c8565b60006020828403121561221e578081fd5b8151611ebb816129c8565b60006020828403121561223a578081fd5b815167ffffffffffffffff811115612250578182fd5b8201601f81018413612260578182fd5b805161226b81612805565b60405161227882826128ab565b82815286602084860101111561228c578485fd5b61229d83602083016020870161287b565b9695505050505050565b6000604082840312156122b8578081fd5b6040516122c66040826128ab565b6122cf83611d55565b8152602083013560208201528091505092915050565b6000602082840312156122f6578081fd5b5035919050565b6000806040838503121561230f578182fd5b82359150611eeb60208401611d55565b600080600060608486031215612333578081fd5b8335925061234360208501611d55565b9150604084013590509250925092565b60008060408385031215612365578182fd5b50508035926020909101359150565b6000815180845261238c81602086016020860161287b565b601f01601f19169290920160200192915050565b600082516123b281846020870161287b565b9190910192915050565b600083516123ce81846020880161287b565b600160fd1b90830190815283516123ec81600184016020880161287b565b01600101949350505050565b6001600160a01b0391909116815260200190565b6001600160a01b03868116825285166020820152604081018490526060810183905260a06080820181905260009061244690830184612374565b979650505050505050565b6020808252825182820181905260009190848201906040850190845b818110156124895783518352928401929184019160010161246d565b50909695505050505050565b901515815260200190565b600060208252611ebb6020830184612374565b6000604082526124c66040830185612374565b90508260208301529392505050565b60208082526028908201527f455243313135353a204552433131353552656365697665722072656a656374656040820152676420746f6b656e7360c01b606082015260800190565b60208082526026908201527f4f776e61626c653a206e6577206f776e657220697320746865207a65726f206160408201526564647265737360d01b606082015260800190565b6020808252602a908201527f455243313135353a207472616e73666572206f6620746f6b656e20746861742060408201526934b9903737ba1037bbb760b11b606082015260800190565b6020808252602a908201527f455243313135353a2061646472657373207a65726f206973206e6f742061207660408201526930b634b21037bbb732b960b11b606082015260800190565b6020808252602e908201527f455243313135353a2063616c6c6572206973206e6f7420746f6b656e206f776e60408201526d195c881bdc88185c1c1c9bdd995960921b606082015260800190565b60208082526025908201527f455243313135353a207472616e7366657220746f20746865207a65726f206164604082015264647265737360d81b606082015260800190565b6020808252818101527f4f776e61626c653a2063616c6c6572206973206e6f7420746865206f776e6572604082015260600190565b60208082526029908201527f455243313135353a2073657474696e6720617070726f76616c20737461747573604082015268103337b91039b2b63360b91b606082015260800190565b60208082526034908201527f455243313135353a207472616e7366657220746f206e6f6e2d455243313135356040820152732932b1b2b4bb32b91034b6b83632b6b2b73a32b960611b606082015260800190565b90815260200190565b918252602082015260400190565b60ff91909116815260200190565b60ff92909216825263ffffffff16602082015260400190565b6000808335601e198436030181126127b0578283fd5b83018035915067ffffffffffffffff8211156127ca578283fd5b6020019150604081023603821315610dae57600080fd5b600067ffffffffffffffff8211156127fb576127fb612909565b5060209081020190565b600067ffffffffffffffff82111561281f5761281f612909565b50601f01601f191660200190565b60008219821115612840576128406128f3565b500190565b600081600019048311821515161561285f5761285f6128f3565b500290565b600082821015612876576128766128f3565b500390565b60005b8381101561289657818101518382015260200161287e565b838111156128a5576000848401525b50505050565b601f8201601f1916810167ffffffffffffffff811182821017156128d1576128d1612909565b6040525050565b60006000198214156128ec576128ec6128f3565b5060010190565b634e487b7160e01b600052601160045260246000fd5b634e487b7160e01b600052604160045260246000fd5b600060033d1115610dc257600481823e5160e01c90565b600060443d101561294657610dc2565b6040516003193d81016004833e81513d67ffffffffffffffff8160248401118184111715612978575050505050610dc2565b828501915081518181111561299257505050505050610dc2565b843d87010160208285010111156129ae57505050505050610dc2565b6129bd602082860101876128ab565b509094505050505090565b6001600160e01b03198116811461107957600080fdfea2646970667358221220fa57f93e197def470da94f5cb7b34a834c995cde1cbab5d0700fb3e37b4a015f64736f6c63430008010033",
  "linkReferences": {},
  "deployedLinkReferences": {},
  "immutableReferences": {},
  "inputSourceName": "project/contracts/extensions/ERC1155/TCF_NFTPrice.sol",
  "devdoc": {
    "details": "tcfnfttoken",
    "kind": "dev",
    "methods": {
      "addSupportedToken(address[])": {
        "details": "TC TC",
        "params": {
          "tokenAddresses": "DCFUSDT"
        }
      },
      "balanceOf(address,uint256)": {
        "details": "See {IERC1155-balanceOf}. Requirements: - `account` cannot be the zero address."
      },
      "balanceOfBatch(address[],uint256[])": {
        "details": "See {IERC1155-balanceOfBatch}. Requirements: - `accounts` and `ids` must have the same length."
      },
      "changeNFTPrice(uint256,address,uint256)": {
        "details": "NFT",
        "params": {
          "amount": "",
          "tokenAddress": "address(0)",
          "tokenID": "NFT/ID0-5"
        }
      },
      "checkInitPricesParams((address,uint256)[][6])": {
        "details": "",
        "params": {
          "prices": "6NFTNFT supportedTokenAmount "
        },
        "returns": {
          "_0": "/"
        }
      },
      "checkTokenAddressesCode(address[])": {
        "details": "DCF/USDT",
        "params": {
          "_tokenAddresses": ""
        },
        "returns": {
          "_0": "/"
        }
      },
      "deleteSupportedToken(address)": {
        "details": "",
        "params": {
          "oldTokenAddress": ""
        }
      },
      "getNFTPrice(uint256,address)": {
        "details": "NFT",
        "params": {
          "_tokenAddress": "address(0)",
          "tokenID": "NFT/ID0-5"
        },
        "returns": {
          "_0": "errorMessage /",
          "_1": "price errorMessage0"
        }
      },
      "initPrice((address,uint256)[][6])": {
        "details": ".TC0",
        "params": {
          "prices": "6NFT,NFT"
        }
      },
      "isApprovedForAll(address,address)": {
        "details": "See {IERC1155-isApprovedForAll}."
      },
      "owner()": {
        "details": "Returns the address of the current owner."
      },
      "renounceOwnership()": {
        "details": "Leaves the contract without owner. It will not be possible to call `onlyOwner` functions. Can only be called by the current owner. NOTE: Renouncing ownership will leave the contract without an owner, thereby disabling any functionality that is only available to the owner."
      },
      "safeBatchTransferFrom(address,address,uint256[],uint256[],bytes)": {
        "details": "See {IERC1155-safeBatchTransferFrom}."
      },
      "safeTransferFrom(address,address,uint256,uint256,bytes)": {
        "details": "See {IERC1155-safeTransferFrom}."
      },
      "setApprovalForAll(address,bool)": {
        "details": "See {IERC1155-setApprovalForAll}."
      },
      "supportsInterface(bytes4)": {
        "details": "See {IERC165-supportsInterface}."
      },
      "test_SafeTransferFrom(address,address,uint256,uint256[],bytes)": {
        "details": "tokenTCF_NFT",
        "params": {
          "indexes": "tokenmintTimes"
        }
      },
      "transferOwnership(address)": {
        "details": "Transfers ownership of the contract to a new account (`newOwner`). Can only be called by the current owner."
      },
      "uri(uint256)": {
        "details": "See {IERC1155MetadataURI-uri}. This implementation returns the same URI for *all* token types. It relies on the token type ID substitution mechanism https://eips.ethereum.org/EIPS/eip-1155#metadata[defined in the EIP]. Clients calling this function must replace the `\\{id\\}` substring with the actual token type ID."
      }
    },
    "version": 1
  },
  "evm": {
    "gasEstimates": {
      "creation": {
        "codeDepositCost": "2154400",
        "executionCost": "107282",
        "totalCost": "2261682"
      },
      "external": {
        "NFTPrice_initialized()": "1146",
        "NFTS(uint256)": "1375",
        "addSupportedToken(address[])": "infinite",
        "balanceOf(address,uint256)": "infinite",
        "balanceOfBatch(address[],uint256[])": "infinite",
        "changeNFTPrice(uint256,address,uint256)": "infinite",
        "checkInitPricesParams((address,uint256)[][6])": "infinite",
        "checkTokenAddressesCode(address[])": "infinite",
        "deleteSupportedToken(address)": "infinite",
        "getNFTPrice(uint256,address)": "infinite",
        "initPrice((address,uint256)[][6])": "infinite",
        "isApprovedForAll(address,address)": "infinite",
        "isSupported(address)": "1469",
        "owner()": "1160",
        "ownerOf(uint256,uint256)": "infinite",
        "renounceOwnership()": "infinite",
        "safeBatchTransferFrom(address,address,uint256[],uint256[],bytes)": "infinite",
        "safeTransferFrom(address,address,uint256,uint256,bytes)": "infinite",
        "setApprovalForAll(address,bool)": "23460",
        "supportedTokenAmount()": "1162",
        "supportsInterface(bytes4)": "626",
        "test_SafeTransferFrom(address,address,uint256,uint256[],bytes)": "infinite",
        "tokenAddress_array(uint256)": "2128",
        "transferOwnership(address)": "23837",
        "uri(uint256)": "626"
      },
      "internal": {
        "_checkAccessPriceDetail(uint256,address)": "infinite",
        "_checkTokenAddressesCode(address[] memory)": "infinite",
        "_detailAddr(address,string memory)": "infinite",
        "_toHexString(address)": "infinite"
      }
    }
  },
  "storageLayout": {
    "storage": [
      {
        "astId": 358,
        "contract": "project/contracts/extensions/ERC1155/TCF_NFTPrice.sol:TCF_NFTPrice",
        "label": "_nextTokenId",
        "offset": 0,
        "slot": "0",
        "type": "t_array(t_uint256)6_storage"
      },
      {
        "astId": 364,
        "contract": "project/contracts/extensions/ERC1155/TCF_NFTPrice.sol:TCF_NFTPrice",
        "label": "_owners",
        "offset": 0,
        "slot": "6",
        "type": "t_mapping(t_uint256,t_mapping(t_uint256,t_address))"
      },
      {
        "astId": 370,
        "contract": "project/contracts/extensions/ERC1155/TCF_NFTPrice.sol:TCF_NFTPrice",
        "label": "_balances",
        "offset": 0,
        "slot": "7",
        "type": "t_mapping(t_uint256,t_mapping(t_address,t_uint256))"
      },
      {
        "astId": 376,
        "contract": "project/contracts/extensions/ERC1155/TCF_NFTPrice.sol:TCF_NFTPrice",
        "label": "_operatorApprovals",
        "offset": 0,
        "slot": "8",
        "type": "t_mapping(t_address,t_mapping(t_address,t_bool))"
      },
      {
        "astId": 3579,
        "contract": "project/contracts/extensions/ERC1155/TCF_NFTPrice.sol:TCF_NFTPrice",
        "label": "_owner",
        "offset": 0,
        "slot": "9",
        "type": "t_address"
      },
      {
        "astId": 1846,
        "contract": "project/contracts/extensions/ERC1155/TCF_NFTPrice.sol:TCF_NFTPrice",
        "label": "supportTokenType",
        "offset": 0,
        "slot": "10",
        "type": "t_mapping(t_address,t_uint8)"
      },
      {
        "astId": 1848,
        "contract": "project/contracts/extensions/ERC1155/TCF_NFTPrice.sol:TCF_NFTPrice",
        "label": "supportedTokenAmount",
        "offset": 0,
        "slot": "11",
        "type": "t_uint256"
      },
      {
        "astId": 1851,
        "contract": "project/contracts/extensions/ERC1155/TCF_NFTPrice.sol:TCF_NFTPrice",
        "label": "tokenAddress_array",
        "offset": 0,
        "slot": "12",
        "type": "t_array(t_address)dyn_storage"
      },
      {
        "astId": 1853,
        "contract": "project/contracts/extensions/ERC1155/TCF_NFTPrice.sol:TCF_NFTPrice",
        "label": "initedTokenAddress",
        "offset": 0,
        "slot": "13",
        "type": "t_uint8"
      },
      {
        "astId": 1855,
        "contract": "project/contracts/extensions/ERC1155/TCF_NFTPrice.sol:TCF_NFTPrice",
        "label": "NFTPrice_initialized",
        "offset": 1,
        "slot": "13",
        "type": "t_uint8"
      },
      {
        "astId": 1874,
        "contract": "project/contracts/extensions/ERC1155/TCF_NFTPrice.sol:TCF_NFTPrice",
        "label": "NFTS",
        "offset": 0,
        "slot": "14",
        "type": "t_mapping(t_uint256,t_struct(equities_store)1869_storage)"
      }
    ],
    "types": {
      "t_address": {
        "encoding": "inplace",
        "label": "address",
        "numberOfBytes": "20"
      },
      "t_array(t_address)dyn_storage": {
        "base": "t_address",
        "encoding": "dynamic_array",
        "label": "address[]",
        "numberOfBytes": "32"
      },
      "t_array(t_uint256)6_storage": {
        "base": "t_uint256",
        "encoding": "inplace",
        "label": "uint256[6]",
        "numberOfBytes": "192"
      },
      "t_bool": {
        "encoding": "inplace",
        "label": "bool",
        "numberOfBytes": "1"
      },
      "t_mapping(t_address,t_bool)": {
        "encoding": "mapping",
        "key": "t_address",
        "label": "mapping(address => bool)",
        "numberOfBytes": "32",
        "value": "t_bool"
      },
      "t_mapping(t_address,t_mapping(t_address,t_bool))": {
        "encoding": "mapping",
        "key": "t_address",
        "label": "mapping(address => mapping(address => bool))",
        "numberOfBytes": "32",
        "value": "t_mapping(t_address,t_bool)"
      },
      "t_mapping(t_address,t_uint256)": {
        "encoding": "mapping",
        "key": "t_address",
        "label": "mapping(address => uint256)",
        "numberOfBytes": "32",
        "value": "t_uint256"
      },
      "t_mapping(t_address,t_uint8)": {
        "encoding": "mapping",
        "key": "t_address",
        "label": "mapping(address => uint8)",
        "numberOfBytes": "32",
        "value": "t_uint8"
      },
      "t_mapping(t_uint256,t_address)": {
        "encoding": "mapping",
        "key": "t_uint256",
        "label": "mapping(uint256 => address)",
        "numberOfBytes": "32",
        "value": "t_address"
      },
      "t_mapping(t_uint256,t_mapping(t_address,t_uint256))": {
        "encoding": "mapping",
        "key": "t_uint256",
        "label": "mapping(uint256 => mapping(address => uint256))",
        "numberOfBytes": "32",
        "value": "t_mapping(t_address,t_uint256)"
      },
      "t_mapping(t_uint256,t_mapping(t_uint256,t_address))": {
        "encoding": "mapping",
        "key": "t_uint256",
        "label": "mapping(uint256 => mapping(uint256 => address))",
        "numberOfBytes": "32",
        "value": "t_mapping(t_uint256,t_address)"
      },
      "t_mapping(t_uint256,t_struct(equities_store)1869_storage)": {
        "encoding": "mapping",
        "key": "t_uint256",
        "label": "mapping(uint256 => struct TCF_NFTPrice.equities_store)",
        "numberOfBytes": "32",
        "value": "t_struct(equities_store)1869_storage"
      },
      "t_struct(equities_store)1869_storage": {
        "encoding": "inplace",
        "label": "struct TCF_NFTPrice.equities_store",
        "members": [
          {
            "astId": 1864,
            "contract": "project/contracts/extensions/ERC1155/TCF_NFTPrice.sol:TCF_NFTPrice",
            "label": "prices",
            "offset": 0,
            "slot": "0",
            "type": "t_mapping(t_address,t_uint256)"
          },
          {
            "astId": 1866,
            "contract": "project/contracts/extensions/ERC1155/TCF_NFTPrice.sol:TCF_NFTPrice",
            "label": "ratio",
            "offset": 0,
            "slot": "1",
            "type": "t_uint8"
          },
          {
            "astId": 1868,
            "contract": "project/contracts/extensions/ERC1155/TCF_NFTPrice.sol:TCF_NFTPrice",
            "label": "indate",
            "offset": 1,
            "slot": "1",
            "type": "t_uint32"
          }
        ],
        "numberOfBytes": "64"
      },
      "t_uint256": {
        "encoding": "inplace",
        "label": "uint256",
        "numberOfBytes": "32"
      },
      "t_uint32": {
        "encoding": "inplace",
        "label": "uint32",
        "numberOfBytes": "4"
      },
      "t_uint8": {
        "encoding": "inplace",
        "label": "uint8",
        "numberOfBytes": "1"
      }
    }
  },
  "userdoc": {
    "kind": "user",
    "methods": {
      "initPrice((address,uint256)[][6])": {
        "notice": "tokenTC"
      }
    },
    "version": 1
  },
  "argsData": "0x",
  "transaction": {
    "hash": "0xfc63b64db4fa009bb381fad68a5ea257b0f8c9a0a9f937964151561fa2eb78ee",
    "nonce": "0x2",
    "origin": "0xf39fd6e51aad88f6f4ce6ab8827279cfffb92266"
  }
}