{
  "address": "0x9fe46736679d2d9a65f0992f2272de9f3c7fa6e0",
  "abi": [
    {
      "inputs": [],
      "stateMutability": "nonpayable",
      "type": "constructor"
    },
    {
      "anonymous": false,
      "inputs": [
        {
          "indexed": true,
          "internalType": "address",
          "name": "account",
          "type": "address"
        },
        {
          "indexed": true,
          "internalType": "address",
          "name": "operator",
          "type": "address"
        },
        {
          "indexed": false,
          "internalType": "bool",
          "name": "approved",
          "type": "bool"
        }
      ],
      "name": "ApprovalForAll",
      "type": "event"
    },
    {
      "anonymous": false,
      "inputs": [
        {
          "indexed": true,
          "internalType": "uint256",
          "name": "tokenID",
          "type": "uint256"
        },
        {
          "indexed": false,
          "internalType": "uint8",
          "name": "previousRatio",
          "type": "uint8"
        },
        {
          "indexed": false,
          "internalType": "uint8",
          "name": "newRatio",
          "type": "uint8"
        }
      ],
      "name": "DynamicRatioChanged",
      "type": "event"
    },
    {
      "anonymous": false,
      "inputs": [
        {
          "indexed": true,
          "internalType": "uint256",
          "name": "tokenID",
          "type": "uint256"
        },
        {
          "indexed": true,
          "internalType": "address",
          "name": "paymentToken",
          "type": "address"
        },
        {
          "indexed": false,
          "internalType": "uint256",
          "name": "oldPrice",
          "type": "uint256"
        },
        {
          "indexed": false,
          "internalType": "uint256",
          "name": "newPrice",
          "type": "uint256"
        }
      ],
      "name": "NFTPriceChanged",
      "type": "event"
    },
    {
      "anonymous": false,
      "inputs": [
        {
          "indexed": true,
          "internalType": "address",
          "name": "previousOwner",
          "type": "address"
        },
        {
          "indexed": true,
          "internalType": "address",
          "name": "newOwner",
          "type": "address"
        }
      ],
      "name": "OwnershipTransferred",
      "type": "event"
    },
    {
      "anonymous": false,
      "inputs": [
        {
          "indexed": true,
          "internalType": "address",
          "name": "operator",
          "type": "address"
        },
        {
          "indexed": true,
          "internalType": "address",
          "name": "from",
          "type": "address"
        },
        {
          "indexed": true,
          "internalType": "address",
          "name": "to",
          "type": "address"
        },
        {
          "indexed": false,
          "internalType": "uint256[]",
          "name": "ids",
          "type": "uint256[]"
        },
        {
          "indexed": false,
          "internalType": "uint256[]",
          "name": "values",
          "type": "uint256[]"
        }
      ],
      "name": "TransferBatch",
      "type": "event"
    },
    {
      "anonymous": false,
      "inputs": [
        {
          "indexed": true,
          "internalType": "address",
          "name": "operator",
          "type": "address"
        },
        {
          "indexed": true,
          "internalType": "address",
          "name": "from",
          "type": "address"
        },
        {
          "indexed": true,
          "internalType": "address",
          "name": "to",
          "type": "address"
        },
        {
          "indexed": false,
          "internalType": "uint256",
          "name": "id",
          "type": "uint256"
        },
        {
          "indexed": false,
          "internalType": "uint256",
          "name": "value",
          "type": "uint256"
        }
      ],
      "name": "TransferSingle",
      "type": "event"
    },
    {
      "anonymous": false,
      "inputs": [
        {
          "indexed": false,
          "internalType": "string",
          "name": "value",
          "type": "string"
        },
        {
          "indexed": true,
          "internalType": "uint256",
          "name": "id",
          "type": "uint256"
        }
      ],
      "name": "URI",
      "type": "event"
    },
    {
      "inputs": [
        {
          "internalType": "address",
          "name": "from",
          "type": "address"
        },
        {
          "internalType": "address",
          "name": "to",
          "type": "address"
        },
        {
          "internalType": "uint256",
          "name": "id",
          "type": "uint256"
        },
        {
          "internalType": "uint256[]",
          "name": "indexes",
          "type": "uint256[]"
        },
        {
          "internalType": "bytes",
          "name": "data",
          "type": "bytes"
        }
      ],
      "name": "ESafeTransferFrom",
      "outputs": [],
      "stateMutability": "nonpayable",
      "type": "function"
    },
    {
      "inputs": [],
      "name": "NFTPrice_initialized",
      "outputs": [
        {
          "internalType": "uint8",
          "name": "",
          "type": "uint8"
        }
      ],
      "stateMutability": "view",
      "type": "function"
    },
    {
      "inputs": [
        {
          "internalType": "address",
          "name": "_tokenAddress",
          "type": "address"
        }
      ],
      "name": "addSupportedToken",
      "outputs": [],
      "stateMutability": "nonpayable",
      "type": "function"
    },
    {
      "inputs": [
        {
          "internalType": "address",
          "name": "account",
          "type": "address"
        },
        {
          "internalType": "uint256",
          "name": "id",
          "type": "uint256"
        }
      ],
      "name": "balanceOf",
      "outputs": [
        {
          "internalType": "uint256",
          "name": "",
          "type": "uint256"
        }
      ],
      "stateMutability": "view",
      "type": "function"
    },
    {
      "inputs": [
        {
          "internalType": "address[]",
          "name": "",
          "type": "address[]"
        },
        {
          "internalType": "uint256[]",
          "name": "",
          "type": "uint256[]"
        }
      ],
      "name": "balanceOfBatch",
      "outputs": [
        {
          "internalType": "uint256[]",
          "name": "",
          "type": "uint256[]"
        }
      ],
      "stateMutability": "view",
      "type": "function"
    },
    {
      "inputs": [
        {
          "internalType": "uint256",
          "name": "tokenID",
          "type": "uint256"
        },
        {
          "internalType": "uint8",
          "name": "newRatio",
          "type": "uint8"
        }
      ],
      "name": "changeDynamicRatio",
      "outputs": [],
      "stateMutability": "nonpayable",
      "type": "function"
    },
    {
      "inputs": [
        {
          "internalType": "uint256",
          "name": "tokenID",
          "type": "uint256"
        },
        {
          "internalType": "address",
          "name": "tokenAddress",
          "type": "address"
        },
        {
          "internalType": "uint256",
          "name": "amount",
          "type": "uint256"
        }
      ],
      "name": "changeNFTPrice",
      "outputs": [],
      "stateMutability": "nonpayable",
      "type": "function"
    },
    {
      "inputs": [
        {
          "components": [
            {
              "internalType": "address",
              "name": "tokenAddress",
              "type": "address"
            },
            {
              "internalType": "uint256",
              "name": "amount",
              "type": "uint256"
            }
          ],
          "internalType": "struct TCF_NFTPrice.priceTypeAndAomut[][6]",
          "name": "prices",
          "type": "tuple[][6]"
        }
      ],
      "name": "checkInitPricesParams",
      "outputs": [
        {
          "internalType": "string",
          "name": "",
          "type": "string"
        }
      ],
      "stateMutability": "view",
      "type": "function"
    },
    {
      "inputs": [
        {
          "internalType": "uint256",
          "name": "tokenID",
          "type": "uint256"
        }
      ],
      "name": "getNFTEquityDetails",
      "outputs": [
        {
          "internalType": "uint8",
          "name": "ratio",
          "type": "uint8"
        },
        {
          "internalType": "uint32",
          "name": "indate",
          "type": "uint32"
        }
      ],
      "stateMutability": "view",
      "type": "function"
    },
    {
      "inputs": [
        {
          "internalType": "uint256",
          "name": "tokenID",
          "type": "uint256"
        },
        {
          "internalType": "address",
          "name": "_tokenAddress",
          "type": "address"
        }
      ],
      "name": "getNFTPrice",
      "outputs": [
        {
          "internalType": "string",
          "name": "",
          "type": "string"
        },
        {
          "internalType": "uint256",
          "name": "",
          "type": "uint256"
        }
      ],
      "stateMutability": "view",
      "type": "function"
    },
    {
      "inputs": [
        {
          "components": [
            {
              "internalType": "address",
              "name": "tokenAddress",
              "type": "address"
            },
            {
              "internalType": "uint256",
              "name": "amount",
              "type": "uint256"
            }
          ],
          "internalType": "struct TCF_NFTPrice.priceTypeAndAomut[][6]",
          "name": "prices",
          "type": "tuple[][6]"
        }
      ],
      "name": "initPrice",
      "outputs": [],
      "stateMutability": "nonpayable",
      "type": "function"
    },
    {
      "inputs": [
        {
          "internalType": "address",
          "name": "account",
          "type": "address"
        },
        {
          "internalType": "address",
          "name": "operator",
          "type": "address"
        }
      ],
      "name": "isApprovedForAll",
      "outputs": [
        {
          "internalType": "bool",
          "name": "",
          "type": "bool"
        }
      ],
      "stateMutability": "view",
      "type": "function"
    },
    {
      "inputs": [
        {
          "internalType": "address",
          "name": "token",
          "type": "address"
        }
      ],
      "name": "isSupported",
      "outputs": [
        {
          "internalType": "uint8",
          "name": "",
          "type": "uint8"
        }
      ],
      "stateMutability": "view",
      "type": "function"
    },
    {
      "inputs": [],
      "name": "owner",
      "outputs": [
        {
          "internalType": "address",
          "name": "",
          "type": "address"
        }
      ],
      "stateMutability": "view",
      "type": "function"
    },
    {
      "inputs": [
        {
          "internalType": "uint256",
          "name": "tokenId",
          "type": "uint256"
        },
        {
          "internalType": "uint256",
          "name": "editionId",
          "type": "uint256"
        }
      ],
      "name": "ownerOf",
      "outputs": [
        {
          "internalType": "address",
          "name": "",
          "type": "address"
        }
      ],
      "stateMutability": "view",
      "type": "function"
    },
    {
      "inputs": [],
      "name": "renounceOwnership",
      "outputs": [],
      "stateMutability": "nonpayable",
      "type": "function"
    },
    {
      "inputs": [
        {
          "internalType": "address",
          "name": "",
          "type": "address"
        },
        {
          "internalType": "address",
          "name": "",
          "type": "address"
        },
        {
          "internalType": "uint256[]",
          "name": "",
          "type": "uint256[]"
        },
        {
          "internalType": "uint256[]",
          "name": "",
          "type": "uint256[]"
        },
        {
          "internalType": "bytes",
          "name": "",
          "type": "bytes"
        }
      ],
      "name": "safeBatchTransferFrom",
      "outputs": [],
      "stateMutability": "nonpayable",
      "type": "function"
    },
    {
      "inputs": [
        {
          "internalType": "address",
          "name": "",
          "type": "address"
        },
        {
          "internalType": "address",
          "name": "",
          "type": "address"
        },
        {
          "internalType": "uint256",
          "name": "",
          "type": "uint256"
        },
        {
          "internalType": "uint256",
          "name": "",
          "type": "uint256"
        },
        {
          "internalType": "bytes",
          "name": "",
          "type": "bytes"
        }
      ],
      "name": "safeTransferFrom",
      "outputs": [],
      "stateMutability": "nonpayable",
      "type": "function"
    },
    {
      "inputs": [
        {
          "internalType": "address",
          "name": "operator",
          "type": "address"
        },
        {
          "internalType": "bool",
          "name": "approved",
          "type": "bool"
        }
      ],
      "name": "setApprovalForAll",
      "outputs": [],
      "stateMutability": "nonpayable",
      "type": "function"
    },
    {
      "inputs": [],
      "name": "supportedTokenAmount",
      "outputs": [
        {
          "internalType": "uint256",
          "name": "",
          "type": "uint256"
        }
      ],
      "stateMutability": "view",
      "type": "function"
    },
    {
      "inputs": [
        {
          "internalType": "bytes4",
          "name": "interfaceId",
          "type": "bytes4"
        }
      ],
      "name": "supportsInterface",
      "outputs": [
        {
          "internalType": "bool",
          "name": "",
          "type": "bool"
        }
      ],
      "stateMutability": "view",
      "type": "function"
    },
    {
      "inputs": [
        {
          "internalType": "uint256",
          "name": "",
          "type": "uint256"
        }
      ],
      "name": "tokenAddress_array",
      "outputs": [
        {
          "internalType": "address",
          "name": "",
          "type": "address"
        }
      ],
      "stateMutability": "view",
      "type": "function"
    },
    {
      "inputs": [
        {
          "internalType": "address",
          "name": "newOwner",
          "type": "address"
        }
      ],
      "name": "transferOwnership",
      "outputs": [],
      "stateMutability": "nonpayable",
      "type": "function"
    },
    {
      "inputs": [
        {
          "internalType": "uint256",
          "name": "",
          "type": "uint256"
        }
      ],
      "name": "uri",
      "outputs": [
        {
          "internalType": "string",
          "name": "",
          "type": "string"
        }
      ],
      "stateMutability": "view",
      "type": "function"
    }
  ],
  "contractName": "TCF_NFTPrice",
  "sourceName": "contracts/extensions/ERC1155/TCF_NFTPrice.sol",
  "bytecode": "0x60806040523480156200001157600080fd5b506200002662000020620000a4565b620000a8565b600a6020527fbbc70db1b6c7afd11e79c0fb0051300458f1a3acb8ee9789d9b6b26c61ad9bc7805460ff19166001908117909155600c805480830182556000919091527fdf6966c971051c3d54ec59162606531493a51404a002842f56009d7e5cf4a8c70180546001600160a01b03191682179055600b55620000fa565b3390565b600980546001600160a01b038381166001600160a01b0319831681179093556040519116919082907f8be0079c531659141344cd1fd0a4f28419497f9722a3daafe3b4186f6b6457e090600090a35050565b6127ff806200010a6000396000f3fe608060405234801561001057600080fd5b50600436106101575760003560e01c806355826313116100c35780638da5cb5b1161007c5780638da5cb5b14610306578063a22cb4651461030e578063d9dad80d14610321578063e985e9c514610334578063f242432a14610347578063f2fde38b1461035a57610157565b80635582631314610291578063598c27bc146102a45780636d69fcaf146102b7578063715018a6146102ca57806383023c88146102d257806386ff9113146102e557610157565b8063233612831161011557806323361283146102195780632eb2c2d6146102215780633a4d2d3a146102365780634c8cb672146102495780634e1273f41461025e5780634f129c531461027e57610157565b8062fdd58e1461015c57806301ffc9a71461018557806306198b98146101a55780630e89341c146101c657806319d62e57146101e65780631f3fd61814610206575b600080fd5b61016f61016a366004611de7565b61036d565b60405161017c919061254a565b60405180910390f35b610198610193366004611f11565b6103e9565b60405161017c91906121de565b6101b86101b3366004612005565b610431565b60405161017c92919061256f565b6101d96101d4366004612005565b6104a9565b60405161017c91906121e9565b6101f96101f4366004612005565b6104c3565b60405161017c9190612141565b6101d9610214366004611ed9565b6104ed565b61016f6107fd565b61023461022f366004611be7565b610803565b005b610234610244366004611ed9565b61081b565b610251610b1b565b60405161017c9190612561565b61027161026c366004611e10565b610b29565b60405161017c919061219a565b61025161028c366004611b94565b610b43565b61023461029f36600461203f565b610b77565b6102346102b2366004611c8d565b610c2f565b6102346102c5366004611b94565b610c8f565b610234610d78565b6102346102e0366004612094565b610d8c565b6102f86102f336600461201d565b610e45565b60405161017c9291906121fc565b6101f9610ef2565b61023461031c366004611dad565b610f02565b6101f961032f366004612073565b610f18565b610198610342366004611bb5565b610f61565b610234610355366004611d4a565b610f8f565b610234610368366004611b94565b610fa7565b60006001600160a01b03831661039e5760405162461bcd60e51b81526004016103959061234b565b60405180910390fd5b600682106103be5760405162461bcd60e51b81526004016103959061239a565b5060008181526007602090815260408083206001600160a01b03861684529091529020545b92915050565b60006001600160e01b03198216636cdb3d1360e11b148061041a57506001600160e01b031982166303a24d0760e21b145b80610429575061042982610fe1565b90505b919050565b600d54600090819060ff610100909104166001146104615760405162461bcd60e51b815260040161039590612484565b600683106104815760405162461bcd60e51b8152600401610395906122c6565b50506000908152600e602052604090206001015460ff81169161010090910463ffffffff1690565b606060405162461bcd60e51b8152600401610395906124b4565b600c81815481106104d357600080fd5b6000918252602090912001546001600160a01b0316905081565b606060005b60068110156107e757600b5483826006811061051e57634e487b7160e01b600052603260045260246000fd5b60200281019061052e919061259c565b90501461055d57505060408051808201909152600a815269282924a1a2a9afa622a760b11b602082015261042c565b600080600085846006811061058257634e487b7160e01b600052603260045260246000fd5b602002810190610592919061259c565b808060200260200160405190810160405280939291908181526020016000905b828210156105de576105cf60408302860136819003810190611fc7565b815260200190600101906105b2565b5050505050905060005b600b5481101561075957600082828151811061061457634e487b7160e01b600052603260045260246000fd5b60209081029190910101515190506001600160a01b038116610639576001945061063e565b600193505b60006001600160a01b031683838151811061066957634e487b7160e01b600052603260045260246000fd5b6020026020010151600001516001600160a01b0316141580156106d85750600a60008484815181106106ab57634e487b7160e01b600052603260045260246000fd5b602090810291909101810151516001600160a01b031682528101919091526040016000205460ff16600114155b156107485761073b83838151811061070057634e487b7160e01b600052603260045260246000fd5b602002602001015160000151604051806040016040528060118152602001701513d2d15397d55394d5541413d4951151607a1b815250610ffa565b965050505050505061042c565b50610752816126c3565b90506105e8565b508261079657604051806040016040528060138152602001721510d7d4149250d157d35554d517d1561254d5606a1b81525094505050505061042c565b816107d357604051806040016040528060148152602001731110d197d4149250d157d35554d517d1561254d560621b81525094505050505061042c565b505050806107e0906126c3565b90506104f2565b5050604080516020810190915260008152919050565b600b5481565b60405162461bcd60e51b8152600401610395906124d6565b61082361102e565b600d5460ff166001146108485760405162461bcd60e51b815260040161039590612455565b600d54610100900460ff16156108705760405162461bcd60e51b8152600401610395906123c5565b600061087b826104ed565b905080516000146108a0578060405162461bcd60e51b815260040161039591906121e9565b6040805160c0808201835260018252600260208084019190915260038385015263017124006060808501919091526005608080860191909152600660a0808701919091528651948501875260288552603293850193909352603c95840195909552605090830152605a93820193909352606492810192909252906000610926858061259c565b9050905060005b6006811015610b045783816006811061095657634e487b7160e01b600052603260045260246000fd5b6020020151600e600083815260200190815260200160002060010160016101000a81548163ffffffff021916908363ffffffff1602179055508281600681106109af57634e487b7160e01b600052603260045260246000fd5b602090810291909101516000838152600e90925260408220600101805460ff191660ff9092169190911790555b82811015610af3576000878360068110610a0657634e487b7160e01b600052603260045260246000fd5b602002810190610a16919061259c565b83818110610a3457634e487b7160e01b600052603260045260246000fd5b610a4a9260206040909202019081019150611b94565b90506001600160a01b038116610a5e575060015b878360068110610a7e57634e487b7160e01b600052603260045260246000fd5b602002810190610a8e919061259c565b83818110610aac57634e487b7160e01b600052603260045260246000fd5b6000868152600e602090815260408083206001600160a01b039790971683529581529085902091909402929092019092013590555080610aeb816126c3565b9150506109dc565b50610afd816126c3565b905061092d565b5050600d805461ff00191661010017905550505050565b600d54610100900460ff1681565b606060405162461bcd60e51b8152600401610395906124d6565b60006001600160a01b038216610b5857600191505b506001600160a01b03166000908152600a602052604090205460ff1690565b610b7f61102e565b6000610b8b848461106d565b90508051600014610bb0578060405162461bcd60e51b815260040161039591906121e9565b6001600160a01b038316610bc357600192505b6000848152600e602090815260408083206001600160a01b038716808552925291829020805490859055915186907f8747a56dd6a09ab1378db3a842a4724d75642265b104e31a28fa736ce71912b390610c209085908890612553565b60405180910390a35050505050565b610c3761116f565b6001600160a01b0316866001600160a01b03161480610c5d5750610c5d8661034261116f565b610c795760405162461bcd60e51b81526004016103959061228f565b610c87868686868686611173565b505050505050565b610c9761102e565b600d5460ff1615610cba5760405162461bcd60e51b81526004016103959061221e565b6000610cc58261146b565b90508051600014610cea578060405162461bcd60e51b815260040161039591906121e9565b6001600160a01b0382166000818152600a60205260408120805460ff19166001908117909155600c805480830182559083527fdf6966c971051c3d54ec59162606531493a51404a002842f56009d7e5cf4a8c70180546001600160a01b031916909317909255600b8054909190610d6290849061262f565b9091555050600d805460ff191660011790555050565b610d8061102e565b610d8a6000611650565b565b610d9461102e565b600d5460ff61010090910416600114610dbf5760405162461bcd60e51b815260040161039590612484565b60068210610ddf5760405162461bcd60e51b8152600401610395906122c6565b6000828152600e602052604090819020600101805460ff84811660ff19831617909255915191169083907f902e8f79c4772541ba59982b7a572dfdb4a0c003843ec5cfafc727966528895490610e389084908690612588565b60405180910390a2505050565b6060600080610e54858561106d565b90508051600014610e6a57915060009050610eeb565b6001600160a01b038416610e7d57600193505b6000858152600e602090815260408083206001600160a01b038816845290915290205480610ed657505060408051808201909152600d81526c14149250d157d393d517d4d155609a1b6020820152915060009050610eeb565b60408051602081019091526000815293509150505b9250929050565b6009546001600160a01b03165b90565b610f14610f0d61116f565b83836116a2565b5050565b600060068310610f3a5760405162461bcd60e51b8152600401610395906122c6565b5060009182526006602090815260408084209284529190529020546001600160a01b031690565b6001600160a01b03918216600090815260086020908152604080832093909416825291909152205460ff1690565b60405162461bcd60e51b815260040161039590612426565b610faf61102e565b6001600160a01b038116610fd55760405162461bcd60e51b815260040161039590612249565b610fde81611650565b50565b6001600160e01b031981166301ffc9a760e01b14919050565b60608161100684611745565b604051602001611017929190612105565b604051602081830303815290604052905092915050565b61103661116f565b6001600160a01b0316611047610ef2565b6001600160a01b031614610d8a5760405162461bcd60e51b8152600401610395906123f1565b600d5460609060ff610100909104166001146110b6575060408051808201909152601681527514149250d154d7d393d517d25392551250531256915160521b60208201526103e3565b60058311156110e9575060408051808201909152600d81526c544f4b454e49445f52414e474560981b60208201526103e3565b6001600160a01b0382166110fc57600191505b6001600160a01b0382166000908152600a602052604090205460ff166001146111595761115282604051806040016040528060118152602001701513d2d15397d55394d5541413d4951151607a1b815250610ffa565b90506103e3565b5060408051602081019091526000815292915050565b3390565b6001600160a01b0385166111995760405162461bcd60e51b81526004016103959061234b565b600684106111b95760405162461bcd60e51b8152600401610395906122c6565b60005b8281101561124f5760008581526006602052604081206001600160a01b038916918686858181106111fd57634e487b7160e01b600052603260045260246000fd5b60209081029290920135835250810191909152604001600020546001600160a01b03161461123d5760405162461bcd60e51b815260040161039590612371565b80611247816126c3565b9150506111bc565b50600061125a61116f565b9050600061126786611934565b9050600061127485611934565b9050611284838a8a858589610c87565b60005b8581101561131a5760008881526006602052604081206001600160a01b038c16918989858181106112c857634e487b7160e01b600052603260045260246000fd5b60209081029290920135835250810191909152604001600020546001600160a01b0316146113085760405162461bcd60e51b815260040161039590612371565b80611312816126c3565b915050611287565b5060008781526007602090815260408083206001600160a01b038d16845290915281208054878103909155905b868110156113be5760008981526006602052604081208b918a8a8581811061137f57634e487b7160e01b600052603260045260246000fd5b6020908102929092013583525081019190915260400160002080546001600160a01b0319166001600160a01b0392909216919091179055600101611347565b5060008881526007602090815260408083206001600160a01b038d168452909152812080548892906113f190849061262f565b90915550506040516001600160a01b03808b16918c8216918716907fc3d58168c5ae7397731d063d5bbf3d657854427343f4c083240f7aacaa2d0f629061143b908d908c90612553565b60405180910390a4611451848b8b86868a610c87565b61145f848b8b8b8a8a61198d565b50505050505050505050565b6001600160a01b0381166000908152600a602052604090205460609060ff16600114156114c6576114bf826040518060400160405280600b81526020016a414444525f45584953545360a81b815250610ffa565b905061042c565b60408051600481526024810182526020810180516001600160e01b03166395d89b4160e01b179052905160009081906001600160a01b0386169061150b9085906120e9565b600060405180830381855afa9150503d8060008114611546576040519150601f19603f3d011682016040523d82523d6000602084013e61154b565b606091505b509150915081801561155e575060008151115b15611605576000818060200190518101906115799190611f49565b80516020808301919091206040805180820190915260038152622221a360e91b9201919091529091507f580e4ba285e7e1134de91e671c33b0ab748bee7126d5d2e4d0845e6ad176e7eb81146115fe576115f287604051806040016040528060078152602001662727aa2fa221a360c91b815250610ffa565b9550505050505061042c565b5050611638565b61162e85604051806040016040528060078152602001662727aa2fa221a360c91b815250610ffa565b935050505061042c565b50506040805160208101909152600081529392505050565b600980546001600160a01b038381166001600160a01b0319831681179093556040519116919082907f8be0079c531659141344cd1fd0a4f28419497f9722a3daafe3b4186f6b6457e090600090a35050565b816001600160a01b0316836001600160a01b031614156116d45760405162461bcd60e51b815260040161039590612324565b6001600160a01b0383811660008181526008602090815260408083209487168084529490915290819020805460ff1916851515179055517f17307eab39ab6107e8899845ad3d59bd9653f200f220920489ca2b5937696c31906117389085906121de565b60405180910390a3505050565b60408051602a808252606082810190935283831b916f181899199a1a9b1b9c1cb0b131b232b360811b9160009190602082018180368337019050509050600360fc1b816000815181106117a857634e487b7160e01b600052603260045260246000fd5b60200101906001600160f81b031916908160001a905350600f60fb1b816001815181106117e557634e487b7160e01b600052603260045260246000fd5b60200101906001600160f81b031916908160001a90535060005b601481101561192b57600084826014811061182a57634e487b7160e01b600052603260045260246000fd5b1a905083600482901c60ff166010811061185457634e487b7160e01b600052603260045260246000fd5b1a60f81b83611864846002612647565b61186f90600261262f565b8151811061188d57634e487b7160e01b600052603260045260246000fd5b60200101906001600160f81b031916908160001a90535083600f8216601081106118c757634e487b7160e01b600052603260045260246000fd5b1a60f81b836118d7846002612647565b6118e290600361262f565b8151811061190057634e487b7160e01b600052603260045260246000fd5b60200101906001600160f81b031916908160001a905350508080611923906126c3565b9150506117ff565b50949350505050565b6040805160018082528183019092526060916000919060208083019080368337019050509050828160008151811061197c57634e487b7160e01b600052603260045260246000fd5b602090810291909101015292915050565b6001600160a01b0384163b15610c875760405163f23a6e6160e01b81526001600160a01b0385169063f23a6e61906119d19089908990889088908890600401612155565b602060405180830381600087803b1580156119eb57600080fd5b505af1925050508015611a1b575060408051601f3d908101601f19168201909252611a1891810190611f2d565b60015b611a7b57611a2761270a565b806308c379a01415611a615750611a3c612721565b80611a475750611a63565b8060405162461bcd60e51b815260040161039591906121e9565b505b60405162461bcd60e51b8152600401610395906124ff565b6001600160e01b0319811663f23a6e6160e01b14611aab5760405162461bcd60e51b8152600401610395906122ed565b50505050505050565b80356001600160a01b038116811461042c57600080fd5b600082601f830112611adb578081fd5b81356020611ae8826125e3565b604051611af58282612696565b838152828101915085830183850287018401881015611b12578586fd5b855b85811015611b3057813584529284019290840190600101611b14565b5090979650505050505050565b600082601f830112611b4d578081fd5b8135611b5881612607565b604051611b658282612696565b828152856020848701011115611b79578384fd5b82602086016020830137918201602001929092529392505050565b600060208284031215611ba5578081fd5b611bae82611ab4565b9392505050565b60008060408385031215611bc7578081fd5b611bd083611ab4565b9150611bde60208401611ab4565b90509250929050565b600080600080600060a08688031215611bfe578081fd5b611c0786611ab4565b9450611c1560208701611ab4565b9350604086013567ffffffffffffffff80821115611c31578283fd5b611c3d89838a01611acb565b94506060880135915080821115611c52578283fd5b611c5e89838a01611acb565b93506080880135915080821115611c73578283fd5b50611c8088828901611b3d565b9150509295509295909350565b60008060008060008060a08789031215611ca5578081fd5b611cae87611ab4565b9550611cbc60208801611ab4565b945060408701359350606087013567ffffffffffffffff80821115611cdf578283fd5b818901915089601f830112611cf2578283fd5b813581811115611d00578384fd5b8a60208083028501011115611d13578384fd5b602083019550809450506080890135915080821115611d30578283fd5b50611d3d89828a01611b3d565b9150509295509295509295565b600080600080600060a08688031215611d61578081fd5b611d6a86611ab4565b9450611d7860208701611ab4565b93506040860135925060608601359150608086013567ffffffffffffffff811115611da1578182fd5b611c8088828901611b3d565b60008060408385031215611dbf578182fd5b611dc883611ab4565b915060208301358015158114611ddc578182fd5b809150509250929050565b60008060408385031215611df9578182fd5b611e0283611ab4565b946020939093013593505050565b60008060408385031215611e22578182fd5b823567ffffffffffffffff80821115611e39578384fd5b818501915085601f830112611e4c578384fd5b81356020611e59826125e3565b604051611e668282612696565b8381528281019150858301838502870184018b1015611e83578889fd5b8896505b84871015611eac57611e9881611ab4565b835260019690960195918301918301611e87565b5096505086013592505080821115611ec2578283fd5b50611ecf85828601611acb565b9150509250929050565b600060208284031215611eea578081fd5b813567ffffffffffffffff811115611f00578182fd5b820160c08101841015611bae578182fd5b600060208284031215611f22578081fd5b8135611bae816127b3565b600060208284031215611f3e578081fd5b8151611bae816127b3565b600060208284031215611f5a578081fd5b815167ffffffffffffffff811115611f70578182fd5b8201601f81018413611f80578182fd5b8051611f8b81612607565b604051611f988282612696565b828152866020848601011115611fac578485fd5b611fbd836020830160208701612666565b9695505050505050565b600060408284031215611fd8578081fd5b604051611fe6604082612696565b611fef83611ab4565b8152602083013560208201528091505092915050565b600060208284031215612016578081fd5b5035919050565b6000806040838503121561202f578182fd5b82359150611bde60208401611ab4565b600080600060608486031215612053578081fd5b8335925061206360208501611ab4565b9150604084013590509250925092565b60008060408385031215612085578182fd5b50508035926020909101359150565b600080604083850312156120a6578182fd5b82359150602083013560ff81168114611ddc578182fd5b600081518084526120d5816020860160208601612666565b601f01601f19169290920160200192915050565b600082516120fb818460208701612666565b9190910192915050565b60008351612117818460208801612666565b600160fd1b9083019081528351612135816001840160208801612666565b01600101949350505050565b6001600160a01b0391909116815260200190565b6001600160a01b03868116825285166020820152604081018490526060810183905260a06080820181905260009061218f908301846120bd565b979650505050505050565b6020808252825182820181905260009190848201906040850190845b818110156121d2578351835292840192918401916001016121b6565b50909695505050505050565b901515815260200190565b600060208252611bae60208301846120bd565b60006040825261220f60408301856120bd565b90508260208301529392505050565b6020808252601190820152701513d2d15397d253925512505312569151607a1b604082015260600190565b60208082526026908201527f4f776e61626c653a206e6577206f776e657220697320746865207a65726f206160408201526564647265737360d01b606082015260800190565b60208082526019908201527f43414c4c45525f4e4f545f4f574e45525f415050524f56454400000000000000604082015260600190565b6020808252600d908201526c544f4b454e49445f52414e474560981b604082015260600190565b6020808252601f908201527f4552433131353552454345495645525f52454a45435445445f544f4b454e5300604082015260600190565b6020808252600d908201526c20a8282927ab20a62fa9a2a62360991b604082015260600190565b6020808252600c908201526b5a45524f5f4144445245535360a01b604082015260600190565b6020808252600f908201526e1513d2d15397d393d517d3d5d39151608a1b604082015260600190565b6020808252601190820152704552525f544f4b454e49445f52414e474560781b604082015260600190565b60208082526012908201527114149250d154d7d25392551250531256915160721b604082015260600190565b6020808252818101527f4f776e61626c653a2063616c6c6572206973206e6f7420746865206f776e6572604082015260600190565b6020808252601590820152745553455f45536166655472616e7366657246726f6d60581b604082015260600190565b6020808252601590820152741513d2d15397d393d517d253925512505312569151605a1b604082015260600190565b60208082526016908201527514149250d154d7d393d517d25392551250531256915160521b604082015260600190565b6020808252600890820152675553455f4575726960c01b604082015260600190565b6020808252600f908201526e1393d517d253541311535153951151608a1b604082015260600190565b6020808252602b908201527f7472616e736665725f746f5f6e6f6e2d4552433131353552656365697665725f60408201526a34b6b83632b6b2b73a32b960a91b606082015260800190565b90815260200190565b918252602082015260400190565b60ff91909116815260200190565b60ff92909216825263ffffffff16602082015260400190565b60ff92831681529116602082015260400190565b6000808335601e198436030181126125b2578283fd5b83018035915067ffffffffffffffff8211156125cc578283fd5b6020019150604081023603821315610eeb57600080fd5b600067ffffffffffffffff8211156125fd576125fd6126f4565b5060209081020190565b600067ffffffffffffffff821115612621576126216126f4565b50601f01601f191660200190565b60008219821115612642576126426126de565b500190565b6000816000190483118215151615612661576126616126de565b500290565b60005b83811015612681578181015183820152602001612669565b83811115612690576000848401525b50505050565b601f8201601f1916810167ffffffffffffffff811182821017156126bc576126bc6126f4565b6040525050565b60006000198214156126d7576126d76126de565b5060010190565b634e487b7160e01b600052601160045260246000fd5b634e487b7160e01b600052604160045260246000fd5b600060033d1115610eff57600481823e5160e01c90565b600060443d101561273157610eff565b6040516003193d81016004833e81513d67ffffffffffffffff8160248401118184111715612763575050505050610eff565b828501915081518181111561277d57505050505050610eff565b843d870101602082850101111561279957505050505050610eff565b6127a860208286010187612696565b509094505050505090565b6001600160e01b031981168114610fde57600080fdfea26469706673582212203ebb79839d0d83a29634c7acc5c3aa29a62ff93dc489a6272c43214d9b7c7ae464736f6c63430008010033",
  "linkReferences": {},
  "deployedLinkReferences": {},
  "immutableReferences": {},
  "inputSourceName": "project/contracts/extensions/ERC1155/TCF_NFTPrice.sol",
  "devdoc": {
    "details": "管理tcf——nft的价格，比例，有效时长，支持的token地址",
    "kind": "dev",
    "methods": {
      "ESafeTransferFrom(address,address,uint256,uint256[],bytes)": {
        "details": "安全转移无效的token，可以删除，因为后面会在TCF_NFT中实现",
        "params": {
          "indexes": "无效token在mintTimes数组中的位置"
        }
      },
      "addSupportedToken(address)": {
        "details": "添加支持的代币地址列表（原生代币不需要传入地址）。构造函数中已经添加了原生代币TC。 如果项目只支持TC，则不需要调用这个函数。",
        "params": {
          "_tokenAddress": "代币合约地址"
        }
      },
      "balanceOf(address,uint256)": {
        "details": "See {IERC1155-balanceOf}. Requirements: - `account` cannot be the zero address."
      },
      "balanceOfBatch(address[],uint256[])": {
        "details": "See {IERC1155-balanceOfBatch}.没有实现 Requirements: - `accounts` and `ids` must have the same length."
      },
      "changeNFTPrice(uint256,address,uint256)": {
        "details": "修改单个NFT价格",
        "params": {
          "amount": "新价格",
          "tokenAddress": "支付代币地址；原生代币传入address(0)",
          "tokenID": "NFT类型/ID（0-5）"
        }
      },
      "checkInitPricesParams((address,uint256)[][6])": {
        "details": "初始化价格参数检查：长度、代币是否在支持列表内等。",
        "params": {
          "prices": "6种NFT的价格参数（每种NFT包含 supportedTokenAmount 个价格项）"
        },
        "returns": {
          "_0": "错误码/错误信息；成功时为空字符串"
        }
      },
      "getNFTPrice(uint256,address)": {
        "details": "获取某个NFT在某种支付方式下的价格。",
        "params": {
          "_tokenAddress": "支付代币地址；原生代币传入address(0)",
          "tokenID": "NFT类型/ID（0-5）"
        },
        "returns": {
          "_0": "errorMessage 错误码/错误信息；成功时为空字符串",
          "_1": "price 价格；当errorMessage非空时为0"
        }
      },
      "initPrice((address,uint256)[][6])": {
        "details": "初始化价格.TC代币的地址设为0",
        "params": {
          "prices": "6种NFT,每中NFT的三类价格"
        }
      },
      "isApprovedForAll(address,address)": {
        "details": "See {IERC1155-isApprovedForAll}."
      },
      "owner()": {
        "details": "Returns the address of the current owner."
      },
      "renounceOwnership()": {
        "details": "Leaves the contract without owner. It will not be possible to call `onlyOwner` functions. Can only be called by the current owner. NOTE: Renouncing ownership will leave the contract without an owner, thereby disabling any functionality that is only available to the owner."
      },
      "safeBatchTransferFrom(address,address,uint256[],uint256[],bytes)": {
        "details": "See {IERC1155-safeBatchTransferFrom}."
      },
      "safeTransferFrom(address,address,uint256,uint256,bytes)": {
        "details": "See {IERC1155-safeTransferFrom}.没有实现"
      },
      "setApprovalForAll(address,bool)": {
        "details": "See {IERC1155-setApprovalForAll}."
      },
      "supportsInterface(bytes4)": {
        "details": "See {IERC165-supportsInterface}."
      },
      "transferOwnership(address)": {
        "details": "Transfers ownership of the contract to a new account (`newOwner`). Can only be called by the current owner."
      }
    },
    "version": 1
  },
  "evm": {
    "gasEstimates": {
      "creation": {
        "codeDepositCost": "2047800",
        "executionCost": "107159",
        "totalCost": "2154959"
      },
      "external": {
        "ESafeTransferFrom(address,address,uint256,uint256[],bytes)": "infinite",
        "NFTPrice_initialized()": "1146",
        "addSupportedToken(address)": "infinite",
        "balanceOf(address,uint256)": "1458",
        "balanceOfBatch(address[],uint256[])": "infinite",
        "changeDynamicRatio(uint256,uint8)": "24916",
        "changeNFTPrice(uint256,address,uint256)": "infinite",
        "checkInitPricesParams((address,uint256)[][6])": "infinite",
        "getNFTEquityDetails(uint256)": "2195",
        "getNFTPrice(uint256,address)": "infinite",
        "initPrice((address,uint256)[][6])": "infinite",
        "isApprovedForAll(address,address)": "infinite",
        "isSupported(address)": "1469",
        "owner()": "1093",
        "ownerOf(uint256,uint256)": "1402",
        "renounceOwnership()": "infinite",
        "safeBatchTransferFrom(address,address,uint256[],uint256[],bytes)": "infinite",
        "safeTransferFrom(address,address,uint256,uint256,bytes)": "infinite",
        "setApprovalForAll(address,bool)": "23393",
        "supportedTokenAmount()": "1051",
        "supportsInterface(bytes4)": "626",
        "tokenAddress_array(uint256)": "2150",
        "transferOwnership(address)": "23859",
        "uri(uint256)": "449"
      },
      "internal": {
        "_checkAccessPriceDetail(uint256,address)": "infinite",
        "_checkTokenAddressesCode(address)": "infinite",
        "_detailAddr(address,string memory)": "infinite",
        "_toHexString(address)": "infinite"
      }
    }
  },
  "storageLayout": {
    "storage": [
      {
        "astId": 535,
        "contract": "project/contracts/extensions/ERC1155/TCF_NFTPrice.sol:TCF_NFTPrice",
        "label": "_nextTokenId",
        "offset": 0,
        "slot": "0",
        "type": "t_array(t_uint256)6_storage"
      },
      {
        "astId": 541,
        "contract": "project/contracts/extensions/ERC1155/TCF_NFTPrice.sol:TCF_NFTPrice",
        "label": "_owners",
        "offset": 0,
        "slot": "6",
        "type": "t_mapping(t_uint256,t_mapping(t_uint256,t_address))"
      },
      {
        "astId": 547,
        "contract": "project/contracts/extensions/ERC1155/TCF_NFTPrice.sol:TCF_NFTPrice",
        "label": "_balances",
        "offset": 0,
        "slot": "7",
        "type": "t_mapping(t_uint256,t_mapping(t_address,t_uint256))"
      },
      {
        "astId": 553,
        "contract": "project/contracts/extensions/ERC1155/TCF_NFTPrice.sol:TCF_NFTPrice",
        "label": "_operatorApprovals",
        "offset": 0,
        "slot": "8",
        "type": "t_mapping(t_address,t_mapping(t_address,t_bool))"
      },
      {
        "astId": 3647,
        "contract": "project/contracts/extensions/ERC1155/TCF_NFTPrice.sol:TCF_NFTPrice",
        "label": "_owner",
        "offset": 0,
        "slot": "9",
        "type": "t_address"
      },
      {
        "astId": 1964,
        "contract": "project/contracts/extensions/ERC1155/TCF_NFTPrice.sol:TCF_NFTPrice",
        "label": "supportTokenType",
        "offset": 0,
        "slot": "10",
        "type": "t_mapping(t_address,t_uint8)"
      },
      {
        "astId": 1966,
        "contract": "project/contracts/extensions/ERC1155/TCF_NFTPrice.sol:TCF_NFTPrice",
        "label": "supportedTokenAmount",
        "offset": 0,
        "slot": "11",
        "type": "t_uint256"
      },
      {
        "astId": 1969,
        "contract": "project/contracts/extensions/ERC1155/TCF_NFTPrice.sol:TCF_NFTPrice",
        "label": "tokenAddress_array",
        "offset": 0,
        "slot": "12",
        "type": "t_array(t_address)dyn_storage"
      },
      {
        "astId": 1971,
        "contract": "project/contracts/extensions/ERC1155/TCF_NFTPrice.sol:TCF_NFTPrice",
        "label": "initedTokenAddress",
        "offset": 0,
        "slot": "13",
        "type": "t_uint8"
      },
      {
        "astId": 1973,
        "contract": "project/contracts/extensions/ERC1155/TCF_NFTPrice.sol:TCF_NFTPrice",
        "label": "NFTPrice_initialized",
        "offset": 1,
        "slot": "13",
        "type": "t_uint8"
      },
      {
        "astId": 1992,
        "contract": "project/contracts/extensions/ERC1155/TCF_NFTPrice.sol:TCF_NFTPrice",
        "label": "NFTS",
        "offset": 0,
        "slot": "14",
        "type": "t_mapping(t_uint256,t_struct(equities_store)1987_storage)"
      }
    ],
    "types": {
      "t_address": {
        "encoding": "inplace",
        "label": "address",
        "numberOfBytes": "20"
      },
      "t_array(t_address)dyn_storage": {
        "base": "t_address",
        "encoding": "dynamic_array",
        "label": "address[]",
        "numberOfBytes": "32"
      },
      "t_array(t_uint256)6_storage": {
        "base": "t_uint256",
        "encoding": "inplace",
        "label": "uint256[6]",
        "numberOfBytes": "192"
      },
      "t_bool": {
        "encoding": "inplace",
        "label": "bool",
        "numberOfBytes": "1"
      },
      "t_mapping(t_address,t_bool)": {
        "encoding": "mapping",
        "key": "t_address",
        "label": "mapping(address => bool)",
        "numberOfBytes": "32",
        "value": "t_bool"
      },
      "t_mapping(t_address,t_mapping(t_address,t_bool))": {
        "encoding": "mapping",
        "key": "t_address",
        "label": "mapping(address => mapping(address => bool))",
        "numberOfBytes": "32",
        "value": "t_mapping(t_address,t_bool)"
      },
      "t_mapping(t_address,t_uint256)": {
        "encoding": "mapping",
        "key": "t_address",
        "label": "mapping(address => uint256)",
        "numberOfBytes": "32",
        "value": "t_uint256"
      },
      "t_mapping(t_address,t_uint8)": {
        "encoding": "mapping",
        "key": "t_address",
        "label": "mapping(address => uint8)",
        "numberOfBytes": "32",
        "value": "t_uint8"
      },
      "t_mapping(t_uint256,t_address)": {
        "encoding": "mapping",
        "key": "t_uint256",
        "label": "mapping(uint256 => address)",
        "numberOfBytes": "32",
        "value": "t_address"
      },
      "t_mapping(t_uint256,t_mapping(t_address,t_uint256))": {
        "encoding": "mapping",
        "key": "t_uint256",
        "label": "mapping(uint256 => mapping(address => uint256))",
        "numberOfBytes": "32",
        "value": "t_mapping(t_address,t_uint256)"
      },
      "t_mapping(t_uint256,t_mapping(t_uint256,t_address))": {
        "encoding": "mapping",
        "key": "t_uint256",
        "label": "mapping(uint256 => mapping(uint256 => address))",
        "numberOfBytes": "32",
        "value": "t_mapping(t_uint256,t_address)"
      },
      "t_mapping(t_uint256,t_struct(equities_store)1987_storage)": {
        "encoding": "mapping",
        "key": "t_uint256",
        "label": "mapping(uint256 => struct TCF_NFTPrice.equities_store)",
        "numberOfBytes": "32",
        "value": "t_struct(equities_store)1987_storage"
      },
      "t_struct(equities_store)1987_storage": {
        "encoding": "inplace",
        "label": "struct TCF_NFTPrice.equities_store",
        "members": [
          {
            "astId": 1982,
            "contract": "project/contracts/extensions/ERC1155/TCF_NFTPrice.sol:TCF_NFTPrice",
            "label": "prices",
            "offset": 0,
            "slot": "0",
            "type": "t_mapping(t_address,t_uint256)"
          },
          {
            "astId": 1984,
            "contract": "project/contracts/extensions/ERC1155/TCF_NFTPrice.sol:TCF_NFTPrice",
            "label": "ratio",
            "offset": 0,
            "slot": "1",
            "type": "t_uint8"
          },
          {
            "astId": 1986,
            "contract": "project/contracts/extensions/ERC1155/TCF_NFTPrice.sol:TCF_NFTPrice",
            "label": "indate",
            "offset": 1,
            "slot": "1",
            "type": "t_uint32"
          }
        ],
        "numberOfBytes": "64"
      },
      "t_uint256": {
        "encoding": "inplace",
        "label": "uint256",
        "numberOfBytes": "32"
      },
      "t_uint32": {
        "encoding": "inplace",
        "label": "uint32",
        "numberOfBytes": "4"
      },
      "t_uint8": {
        "encoding": "inplace",
        "label": "uint8",
        "numberOfBytes": "1"
      }
    }
  },
  "userdoc": {
    "kind": "user",
    "methods": {
      "initPrice((address,uint256)[][6])": {
        "notice": "只能调用一次，调用前必须确保支持的代币地址已经初始化，不需要检查token地址是否初始化，因为在构造函数中，初始化了TC"
      }
    },
    "version": 1
  },
  "argsData": "0x",
  "transaction": {
    "hash": "0x66a1000e84bfc8ddf3a60a0c041606aa6b700fc8d6b2fa265b117da01096757c",
    "nonce": "0x2",
    "origin": "0xf39fd6e51aad88f6f4ce6ab8827279cfffb92266"
  }
}