{
  "address": "0xdc64a140aa3e981100a9beca4e685f962f0cf6c9",
  "abi": [
    {
      "anonymous": false,
      "inputs": [
        {
          "indexed": true,
          "internalType": "address",
          "name": "account",
          "type": "address"
        },
        {
          "indexed": true,
          "internalType": "address",
          "name": "operator",
          "type": "address"
        },
        {
          "indexed": false,
          "internalType": "bool",
          "name": "approved",
          "type": "bool"
        }
      ],
      "name": "ApprovalForAll",
      "type": "event"
    },
    {
      "anonymous": false,
      "inputs": [
        {
          "indexed": true,
          "internalType": "uint256",
          "name": "tokenID",
          "type": "uint256"
        },
        {
          "indexed": false,
          "internalType": "uint8",
          "name": "previousRatio",
          "type": "uint8"
        },
        {
          "indexed": false,
          "internalType": "uint8",
          "name": "newRatio",
          "type": "uint8"
        }
      ],
      "name": "DynamicRatioChanged",
      "type": "event"
    },
    {
      "anonymous": false,
      "inputs": [
        {
          "indexed": true,
          "internalType": "uint256",
          "name": "tokenID",
          "type": "uint256"
        },
        {
          "indexed": true,
          "internalType": "address",
          "name": "paymentToken",
          "type": "address"
        },
        {
          "indexed": false,
          "internalType": "uint256",
          "name": "oldPrice",
          "type": "uint256"
        },
        {
          "indexed": false,
          "internalType": "uint256",
          "name": "newPrice",
          "type": "uint256"
        }
      ],
      "name": "NFTPriceChanged",
      "type": "event"
    },
    {
      "anonymous": false,
      "inputs": [
        {
          "indexed": true,
          "internalType": "address",
          "name": "buyer",
          "type": "address"
        },
        {
          "indexed": true,
          "internalType": "uint256",
          "name": "tokenId",
          "type": "uint256"
        },
        {
          "indexed": false,
          "internalType": "uint256",
          "name": "amount",
          "type": "uint256"
        },
        {
          "indexed": false,
          "internalType": "uint256",
          "name": "pricePerUnit",
          "type": "uint256"
        }
      ],
      "name": "NFTPurchasedWithTC",
      "type": "event"
    },
    {
      "anonymous": false,
      "inputs": [
        {
          "indexed": true,
          "internalType": "address",
          "name": "buyer",
          "type": "address"
        },
        {
          "indexed": true,
          "internalType": "address",
          "name": "paymentToken",
          "type": "address"
        },
        {
          "indexed": true,
          "internalType": "uint256",
          "name": "tokenId",
          "type": "uint256"
        },
        {
          "indexed": false,
          "internalType": "uint256",
          "name": "amount",
          "type": "uint256"
        },
        {
          "indexed": false,
          "internalType": "uint256",
          "name": "pricePerUnit",
          "type": "uint256"
        }
      ],
      "name": "NFTPurchasedWithToken",
      "type": "event"
    },
    {
      "anonymous": false,
      "inputs": [
        {
          "indexed": true,
          "internalType": "address",
          "name": "node",
          "type": "address"
        },
        {
          "indexed": true,
          "internalType": "address",
          "name": "parent",
          "type": "address"
        },
        {
          "indexed": true,
          "internalType": "address",
          "name": "recommender",
          "type": "address"
        },
        {
          "indexed": false,
          "internalType": "bool",
          "name": "isLeft",
          "type": "bool"
        }
      ],
      "name": "NodeInserted",
      "type": "event"
    },
    {
      "anonymous": false,
      "inputs": [
        {
          "indexed": true,
          "internalType": "address",
          "name": "previousOwner",
          "type": "address"
        },
        {
          "indexed": true,
          "internalType": "address",
          "name": "newOwner",
          "type": "address"
        }
      ],
      "name": "OwnershipTransferred",
      "type": "event"
    },
    {
      "anonymous": false,
      "inputs": [
        {
          "indexed": false,
          "internalType": "address",
          "name": "account",
          "type": "address"
        }
      ],
      "name": "Paused",
      "type": "event"
    },
    {
      "anonymous": false,
      "inputs": [
        {
          "indexed": true,
          "internalType": "address",
          "name": "root",
          "type": "address"
        }
      ],
      "name": "RootInitialized",
      "type": "event"
    },
    {
      "anonymous": false,
      "inputs": [
        {
          "indexed": true,
          "internalType": "address",
          "name": "to",
          "type": "address"
        },
        {
          "indexed": true,
          "internalType": "uint256",
          "name": "tokenId",
          "type": "uint256"
        },
        {
          "indexed": false,
          "internalType": "uint256",
          "name": "editionId",
          "type": "uint256"
        },
        {
          "indexed": false,
          "internalType": "uint64",
          "name": "mintedAt",
          "type": "uint64"
        }
      ],
      "name": "TokenEditionMinted",
      "type": "event"
    },
    {
      "anonymous": false,
      "inputs": [
        {
          "indexed": true,
          "internalType": "address",
          "name": "operator",
          "type": "address"
        },
        {
          "indexed": true,
          "internalType": "address",
          "name": "from",
          "type": "address"
        },
        {
          "indexed": true,
          "internalType": "address",
          "name": "to",
          "type": "address"
        },
        {
          "indexed": false,
          "internalType": "uint256[]",
          "name": "ids",
          "type": "uint256[]"
        },
        {
          "indexed": false,
          "internalType": "uint256[]",
          "name": "values",
          "type": "uint256[]"
        }
      ],
      "name": "TransferBatch",
      "type": "event"
    },
    {
      "anonymous": false,
      "inputs": [
        {
          "indexed": true,
          "internalType": "address",
          "name": "operator",
          "type": "address"
        },
        {
          "indexed": true,
          "internalType": "address",
          "name": "from",
          "type": "address"
        },
        {
          "indexed": true,
          "internalType": "address",
          "name": "to",
          "type": "address"
        },
        {
          "indexed": false,
          "internalType": "uint256",
          "name": "id",
          "type": "uint256"
        },
        {
          "indexed": false,
          "internalType": "uint256",
          "name": "value",
          "type": "uint256"
        }
      ],
      "name": "TransferSingle",
      "type": "event"
    },
    {
      "anonymous": false,
      "inputs": [
        {
          "indexed": false,
          "internalType": "string",
          "name": "value",
          "type": "string"
        },
        {
          "indexed": true,
          "internalType": "uint256",
          "name": "id",
          "type": "uint256"
        }
      ],
      "name": "URI",
      "type": "event"
    },
    {
      "anonymous": false,
      "inputs": [
        {
          "indexed": false,
          "internalType": "address",
          "name": "account",
          "type": "address"
        }
      ],
      "name": "Unpaused",
      "type": "event"
    },
    {
      "anonymous": false,
      "inputs": [
        {
          "indexed": true,
          "internalType": "address",
          "name": "operator",
          "type": "address"
        },
        {
          "indexed": true,
          "internalType": "address",
          "name": "previousAddress",
          "type": "address"
        },
        {
          "indexed": true,
          "internalType": "address",
          "name": "newAddress",
          "type": "address"
        }
      ],
      "name": "WithdrawAddressUpdated",
      "type": "event"
    },
    {
      "inputs": [
        {
          "internalType": "address",
          "name": "from",
          "type": "address"
        },
        {
          "internalType": "address",
          "name": "to",
          "type": "address"
        },
        {
          "internalType": "uint256",
          "name": "tokenId",
          "type": "uint256"
        },
        {
          "internalType": "uint256[]",
          "name": "indexes",
          "type": "uint256[]"
        },
        {
          "internalType": "bytes",
          "name": "data",
          "type": "bytes"
        }
      ],
      "name": "ESafeTransferFrom",
      "outputs": [],
      "stateMutability": "nonpayable",
      "type": "function"
    },
    {
      "inputs": [
        {
          "internalType": "uint256",
          "name": "tokenId",
          "type": "uint256"
        }
      ],
      "name": "Euri",
      "outputs": [
        {
          "internalType": "string",
          "name": "",
          "type": "string"
        }
      ],
      "stateMutability": "view",
      "type": "function"
    },
    {
      "inputs": [],
      "name": "NFTPrice_initialized",
      "outputs": [
        {
          "internalType": "uint8",
          "name": "",
          "type": "uint8"
        }
      ],
      "stateMutability": "view",
      "type": "function"
    },
    {
      "inputs": [],
      "name": "_initializedURIStorage",
      "outputs": [
        {
          "internalType": "uint8",
          "name": "",
          "type": "uint8"
        }
      ],
      "stateMutability": "view",
      "type": "function"
    },
    {
      "inputs": [
        {
          "internalType": "address",
          "name": "_tokenAddress",
          "type": "address"
        }
      ],
      "name": "addSupportedToken",
      "outputs": [],
      "stateMutability": "nonpayable",
      "type": "function"
    },
    {
      "inputs": [
        {
          "internalType": "address",
          "name": "account",
          "type": "address"
        },
        {
          "internalType": "uint256",
          "name": "tokenId",
          "type": "uint256"
        }
      ],
      "name": "balanceOf",
      "outputs": [
        {
          "internalType": "uint256",
          "name": "",
          "type": "uint256"
        }
      ],
      "stateMutability": "view",
      "type": "function"
    },
    {
      "inputs": [
        {
          "internalType": "address[]",
          "name": "",
          "type": "address[]"
        },
        {
          "internalType": "uint256[]",
          "name": "",
          "type": "uint256[]"
        }
      ],
      "name": "balanceOfBatch",
      "outputs": [
        {
          "internalType": "uint256[]",
          "name": "",
          "type": "uint256[]"
        }
      ],
      "stateMutability": "view",
      "type": "function"
    },
    {
      "inputs": [
        {
          "internalType": "uint256",
          "name": "tokenId",
          "type": "uint256"
        },
        {
          "internalType": "uint256",
          "name": "buyAmount",
          "type": "uint256"
        }
      ],
      "name": "buyNFTByTC",
      "outputs": [],
      "stateMutability": "payable",
      "type": "function"
    },
    {
      "inputs": [
        {
          "internalType": "uint256",
          "name": "tokenId",
          "type": "uint256"
        },
        {
          "internalType": "uint8",
          "name": "newRatio",
          "type": "uint8"
        }
      ],
      "name": "changeDynamicRatio",
      "outputs": [],
      "stateMutability": "nonpayable",
      "type": "function"
    },
    {
      "inputs": [
        {
          "internalType": "uint256",
          "name": "tokenId",
          "type": "uint256"
        },
        {
          "internalType": "address",
          "name": "tokenAddress",
          "type": "address"
        },
        {
          "internalType": "uint256",
          "name": "amount",
          "type": "uint256"
        }
      ],
      "name": "changeNFTPrice",
      "outputs": [],
      "stateMutability": "nonpayable",
      "type": "function"
    },
    {
      "inputs": [
        {
          "components": [
            {
              "internalType": "address",
              "name": "tokenAddress",
              "type": "address"
            },
            {
              "internalType": "uint256",
              "name": "amount",
              "type": "uint256"
            }
          ],
          "internalType": "struct TCF_NFTPrice.priceTypeAndAomut[2][6]",
          "name": "prices",
          "type": "tuple[2][6]"
        }
      ],
      "name": "checkInitPricesParams",
      "outputs": [
        {
          "internalType": "string",
          "name": "",
          "type": "string"
        }
      ],
      "stateMutability": "view",
      "type": "function"
    },
    {
      "inputs": [
        {
          "internalType": "uint256",
          "name": "id",
          "type": "uint256"
        }
      ],
      "name": "exists",
      "outputs": [
        {
          "internalType": "bool",
          "name": "",
          "type": "bool"
        }
      ],
      "stateMutability": "view",
      "type": "function"
    },
    {
      "inputs": [
        {
          "internalType": "address",
          "name": "node",
          "type": "address"
        }
      ],
      "name": "getChildren",
      "outputs": [
        {
          "internalType": "address",
          "name": "left",
          "type": "address"
        },
        {
          "internalType": "address",
          "name": "right",
          "type": "address"
        }
      ],
      "stateMutability": "view",
      "type": "function"
    },
    {
      "inputs": [
        {
          "internalType": "uint256",
          "name": "tokenId",
          "type": "uint256"
        }
      ],
      "name": "getNFTEquityDetails",
      "outputs": [
        {
          "internalType": "uint8",
          "name": "ratio",
          "type": "uint8"
        },
        {
          "internalType": "uint56",
          "name": "indate",
          "type": "uint56"
        }
      ],
      "stateMutability": "view",
      "type": "function"
    },
    {
      "inputs": [
        {
          "internalType": "uint256",
          "name": "tokenId",
          "type": "uint256"
        },
        {
          "internalType": "address",
          "name": "_tokenAddress",
          "type": "address"
        }
      ],
      "name": "getNFTPrice",
      "outputs": [
        {
          "internalType": "string",
          "name": "",
          "type": "string"
        },
        {
          "internalType": "uint256",
          "name": "",
          "type": "uint256"
        }
      ],
      "stateMutability": "view",
      "type": "function"
    },
    {
      "inputs": [
        {
          "internalType": "uint256",
          "name": "tokenId",
          "type": "uint256"
        },
        {
          "internalType": "uint256",
          "name": "editionId",
          "type": "uint256"
        }
      ],
      "name": "getNftMintTime",
      "outputs": [
        {
          "internalType": "uint64",
          "name": "",
          "type": "uint64"
        }
      ],
      "stateMutability": "view",
      "type": "function"
    },
    {
      "inputs": [
        {
          "internalType": "address",
          "name": "node",
          "type": "address"
        }
      ],
      "name": "getNodeWorth",
      "outputs": [
        {
          "internalType": "uint256",
          "name": "",
          "type": "uint256"
        }
      ],
      "stateMutability": "view",
      "type": "function"
    },
    {
      "inputs": [
        {
          "internalType": "address",
          "name": "recommender",
          "type": "address"
        },
        {
          "internalType": "address",
          "name": "excludeNode",
          "type": "address"
        }
      ],
      "name": "getOptimalParent",
      "outputs": [
        {
          "internalType": "address",
          "name": "parent",
          "type": "address"
        },
        {
          "internalType": "bool",
          "name": "isLeftBranch",
          "type": "bool"
        }
      ],
      "stateMutability": "view",
      "type": "function"
    },
    {
      "inputs": [
        {
          "internalType": "address",
          "name": "node",
          "type": "address"
        }
      ],
      "name": "getParent",
      "outputs": [
        {
          "internalType": "address",
          "name": "",
          "type": "address"
        }
      ],
      "stateMutability": "view",
      "type": "function"
    },
    {
      "inputs": [
        {
          "internalType": "address",
          "name": "node",
          "type": "address"
        }
      ],
      "name": "getRecommender",
      "outputs": [
        {
          "internalType": "address",
          "name": "",
          "type": "address"
        }
      ],
      "stateMutability": "view",
      "type": "function"
    },
    {
      "inputs": [
        {
          "internalType": "address",
          "name": "account",
          "type": "address"
        },
        {
          "internalType": "uint256",
          "name": "tokenId",
          "type": "uint256"
        }
      ],
      "name": "getUserTokenIds",
      "outputs": [
        {
          "internalType": "uint256[]",
          "name": "",
          "type": "uint256[]"
        }
      ],
      "stateMutability": "view",
      "type": "function"
    },
    {
      "inputs": [],
      "name": "getWithdrawAddress",
      "outputs": [
        {
          "internalType": "address",
          "name": "",
          "type": "address"
        }
      ],
      "stateMutability": "view",
      "type": "function"
    },
    {
      "inputs": [
        {
          "components": [
            {
              "internalType": "address",
              "name": "tokenAddress",
              "type": "address"
            },
            {
              "internalType": "uint256",
              "name": "amount",
              "type": "uint256"
            }
          ],
          "internalType": "struct TCF_NFTPrice.priceTypeAndAomut[2][6]",
          "name": "prices",
          "type": "tuple[2][6]"
        }
      ],
      "name": "initPrice",
      "outputs": [],
      "stateMutability": "nonpayable",
      "type": "function"
    },
    {
      "inputs": [
        {
          "internalType": "address",
          "name": "rootAddress",
          "type": "address"
        }
      ],
      "name": "initRoot",
      "outputs": [],
      "stateMutability": "nonpayable",
      "type": "function"
    },
    {
      "inputs": [
        {
          "internalType": "address",
          "name": "parent",
          "type": "address"
        },
        {
          "internalType": "address",
          "name": "recommender",
          "type": "address"
        },
        {
          "internalType": "bool",
          "name": "isLeft",
          "type": "bool"
        }
      ],
      "name": "insert",
      "outputs": [],
      "stateMutability": "nonpayable",
      "type": "function"
    },
    {
      "inputs": [
        {
          "internalType": "address",
          "name": "account",
          "type": "address"
        },
        {
          "internalType": "address",
          "name": "operator",
          "type": "address"
        }
      ],
      "name": "isApprovedForAll",
      "outputs": [
        {
          "internalType": "bool",
          "name": "",
          "type": "bool"
        }
      ],
      "stateMutability": "view",
      "type": "function"
    },
    {
      "inputs": [
        {
          "internalType": "address",
          "name": "node",
          "type": "address"
        }
      ],
      "name": "isExist",
      "outputs": [
        {
          "internalType": "bool",
          "name": "",
          "type": "bool"
        }
      ],
      "stateMutability": "view",
      "type": "function"
    },
    {
      "inputs": [
        {
          "internalType": "address",
          "name": "token",
          "type": "address"
        }
      ],
      "name": "isSupported",
      "outputs": [
        {
          "internalType": "uint8",
          "name": "",
          "type": "uint8"
        }
      ],
      "stateMutability": "view",
      "type": "function"
    },
    {
      "inputs": [
        {
          "internalType": "address",
          "name": "",
          "type": "address"
        },
        {
          "internalType": "address",
          "name": "from",
          "type": "address"
        },
        {
          "internalType": "uint256",
          "name": "amount",
          "type": "uint256"
        },
        {
          "internalType": "bytes",
          "name": "data",
          "type": "bytes"
        }
      ],
      "name": "onTransferReceived",
      "outputs": [
        {
          "internalType": "bytes4",
          "name": "",
          "type": "bytes4"
        }
      ],
      "stateMutability": "nonpayable",
      "type": "function"
    },
    {
      "inputs": [],
      "name": "owner",
      "outputs": [
        {
          "internalType": "address",
          "name": "",
          "type": "address"
        }
      ],
      "stateMutability": "view",
      "type": "function"
    },
    {
      "inputs": [
        {
          "internalType": "uint256",
          "name": "tokenId",
          "type": "uint256"
        },
        {
          "internalType": "uint256",
          "name": "editionId",
          "type": "uint256"
        }
      ],
      "name": "ownerOf",
      "outputs": [
        {
          "internalType": "address",
          "name": "",
          "type": "address"
        }
      ],
      "stateMutability": "view",
      "type": "function"
    },
    {
      "inputs": [],
      "name": "pause",
      "outputs": [],
      "stateMutability": "nonpayable",
      "type": "function"
    },
    {
      "inputs": [],
      "name": "paused",
      "outputs": [
        {
          "internalType": "bool",
          "name": "",
          "type": "bool"
        }
      ],
      "stateMutability": "view",
      "type": "function"
    },
    {
      "inputs": [],
      "name": "renounceOwnership",
      "outputs": [],
      "stateMutability": "nonpayable",
      "type": "function"
    },
    {
      "inputs": [],
      "name": "root",
      "outputs": [
        {
          "internalType": "address",
          "name": "",
          "type": "address"
        }
      ],
      "stateMutability": "view",
      "type": "function"
    },
    {
      "inputs": [],
      "name": "rootInitialized",
      "outputs": [
        {
          "internalType": "bool",
          "name": "",
          "type": "bool"
        }
      ],
      "stateMutability": "view",
      "type": "function"
    },
    {
      "inputs": [
        {
          "internalType": "address",
          "name": "",
          "type": "address"
        },
        {
          "internalType": "address",
          "name": "",
          "type": "address"
        },
        {
          "internalType": "uint256[]",
          "name": "",
          "type": "uint256[]"
        },
        {
          "internalType": "uint256[]",
          "name": "",
          "type": "uint256[]"
        },
        {
          "internalType": "bytes",
          "name": "",
          "type": "bytes"
        }
      ],
      "name": "safeBatchTransferFrom",
      "outputs": [],
      "stateMutability": "nonpayable",
      "type": "function"
    },
    {
      "inputs": [
        {
          "internalType": "address",
          "name": "from",
          "type": "address"
        },
        {
          "internalType": "address",
          "name": "to",
          "type": "address"
        },
        {
          "internalType": "uint256",
          "name": "tokenId",
          "type": "uint256"
        },
        {
          "internalType": "uint256",
          "name": "amount",
          "type": "uint256"
        },
        {
          "internalType": "bytes",
          "name": "data",
          "type": "bytes"
        }
      ],
      "name": "safeTransferFrom",
      "outputs": [],
      "stateMutability": "nonpayable",
      "type": "function"
    },
    {
      "inputs": [
        {
          "internalType": "address",
          "name": "operator",
          "type": "address"
        },
        {
          "internalType": "bool",
          "name": "approved",
          "type": "bool"
        }
      ],
      "name": "setApprovalForAll",
      "outputs": [],
      "stateMutability": "nonpayable",
      "type": "function"
    },
    {
      "inputs": [
        {
          "internalType": "bytes[6]",
          "name": "baseURI",
          "type": "bytes[6]"
        }
      ],
      "name": "setBaseURI",
      "outputs": [],
      "stateMutability": "nonpayable",
      "type": "function"
    },
    {
      "inputs": [
        {
          "internalType": "address",
          "name": "addr",
          "type": "address"
        }
      ],
      "name": "setWithdrawAddress",
      "outputs": [],
      "stateMutability": "nonpayable",
      "type": "function"
    },
    {
      "inputs": [
        {
          "internalType": "address",
          "name": "node",
          "type": "address"
        }
      ],
      "name": "subtreeWorth",
      "outputs": [
        {
          "internalType": "uint256",
          "name": "",
          "type": "uint256"
        }
      ],
      "stateMutability": "view",
      "type": "function"
    },
    {
      "inputs": [],
      "name": "supportedTokenAmount",
      "outputs": [
        {
          "internalType": "uint256",
          "name": "",
          "type": "uint256"
        }
      ],
      "stateMutability": "view",
      "type": "function"
    },
    {
      "inputs": [
        {
          "internalType": "bytes4",
          "name": "interfaceId",
          "type": "bytes4"
        }
      ],
      "name": "supportsInterface",
      "outputs": [
        {
          "internalType": "bool",
          "name": "",
          "type": "bool"
        }
      ],
      "stateMutability": "view",
      "type": "function"
    },
    {
      "inputs": [
        {
          "internalType": "uint256",
          "name": "",
          "type": "uint256"
        }
      ],
      "name": "tokenAddress_array",
      "outputs": [
        {
          "internalType": "address",
          "name": "",
          "type": "address"
        }
      ],
      "stateMutability": "view",
      "type": "function"
    },
    {
      "inputs": [
        {
          "internalType": "uint256",
          "name": "id",
          "type": "uint256"
        }
      ],
      "name": "totalSupply",
      "outputs": [
        {
          "internalType": "uint256",
          "name": "",
          "type": "uint256"
        }
      ],
      "stateMutability": "view",
      "type": "function"
    },
    {
      "inputs": [],
      "name": "totalTreeWorth",
      "outputs": [
        {
          "internalType": "uint256",
          "name": "",
          "type": "uint256"
        }
      ],
      "stateMutability": "view",
      "type": "function"
    },
    {
      "inputs": [
        {
          "internalType": "address",
          "name": "newOwner",
          "type": "address"
        }
      ],
      "name": "transferOwnership",
      "outputs": [],
      "stateMutability": "nonpayable",
      "type": "function"
    },
    {
      "inputs": [],
      "name": "unpause",
      "outputs": [],
      "stateMutability": "nonpayable",
      "type": "function"
    },
    {
      "inputs": [
        {
          "internalType": "uint256",
          "name": "",
          "type": "uint256"
        }
      ],
      "name": "uri",
      "outputs": [
        {
          "internalType": "string",
          "name": "",
          "type": "string"
        }
      ],
      "stateMutability": "view",
      "type": "function"
    },
    {
      "inputs": [],
      "name": "withdrawAddress_initialized",
      "outputs": [
        {
          "internalType": "uint8",
          "name": "",
          "type": "uint8"
        }
      ],
      "stateMutability": "view",
      "type": "function"
    }
  ],
  "contractName": "TCF_NFT",
  "sourceName": "contracts/TCF_NFT.sol",
  "bytecode": "0x60806040523480156200001157600080fd5b506200002662000020620000b1565b620000b5565b60136020527f4155c2f711f2cdd34f8262ab8fb9b7020a700fe7b6948222152f7670d1fdf34d8054600160ff1991821681179092556015805480840182556000919091527f55f448fdea98c4d29eb340757ef0a66cd03dbb9538908a6a81d96026b71ec4750180546001600160a01b03191683179055601491909155601c8054909116905562000107565b3390565b600a80546001600160a01b038381166001600160a01b0319831681179093556040519116919082907f8be0079c531659141344cd1fd0a4f28419497f9722a3daafe3b4186f6b6457e090600090a35050565b6154fe80620001176000396000f3fe6080604052600436106102e25760003560e01c80636d69fcaf11610190578063a22cb465116100dc578063d3ab744311610095578063e985e9c51161006f578063e985e9c5146108e1578063ebf0c71714610901578063f242432a14610916578063f2fde38b14610936576102e2565b8063d3ab74431461088c578063d9dad80d146108ac578063e8e7f800146108cc576102e2565b8063a22cb465146107be578063a9405923146107de578063b24661ac146107fe578063b788920e1461081e578063ba322b3f1461083e578063bd85b0391461086c576102e2565b806386ff91131161014957806392aeff481161012357806392aeff481461073c5780639da879b41461075c5780639e29efce14610771578063a0b77afa14610791576102e2565b806386ff9113146106cc57806388a7ca5c146106fa5780638da5cb5b14610727576102e2565b80636d69fcaf1461063a5780636e3026321461065a578063715018a61461066d5780637a915fde1461068257806383023c88146106975780638456cb59146106b7576102e2565b80632fedbf3c1161024f5780634f129c5311610208578063598c27bc116101e2578063598c27bc146105c25780635c975abb146105e2578063651583ee146105f75780636999fa451461060c576102e2565b80634f129c53146105625780634f558e791461058257806355826313146105a2576102e2565b80632fedbf3c1461049e57806337823179146104be5780633ab1a494146104de5780633f4ba83a146104fe5780634c8cb672146105135780634e1273f414610535576102e2565b80630e89341c116102a15780630e89341c146103da578063153154fd146103fa57806319d62e57146104275780631c49f47b1461044757806323361283146104675780632eb2c2d61461047c576102e2565b806213eb4b146102e7578062fdd58e1461031d57806301ffc9a71461034a5780630572a9951461036a57806306198b981461037f57806307759696146103ad575b600080fd5b3480156102f357600080fd5b50610307610302366004614322565b610956565b6040516103149190614a5c565b60405180910390f35b34801561032957600080fd5b5061033d610338366004614595565b6109b4565b60405161031491906151ed565b34801561035657600080fd5b5061030761036536600461472d565b6109c9565b34801561037657600080fd5b5061033d6109ee565b34801561038b57600080fd5b5061039f61039a366004614820565b610a35565b60405161031492919061523d565b3480156103b957600080fd5b506103cd6103c8366004614686565b610ab0565b6040516103149190614a7c565b3480156103e657600080fd5b506103cd6103f5366004614820565b610d7f565b34801561040657600080fd5b5061041a610415366004614322565b610d99565b604051610314919061498a565b34801561043357600080fd5b5061041a610442366004614820565b610dfd565b34801561045357600080fd5b5061033d610462366004614322565b610e27565b34801561047357600080fd5b5061033d610e9e565b34801561048857600080fd5b5061049c61049736600461436e565b610ea4565b005b3480156104aa57600080fd5b5061049c6104b93660046146af565b610ebc565b3480156104ca57600080fd5b5061049c6104d9366004614413565b610f4e565b3480156104ea57600080fd5b5061049c6104f9366004614322565b61129b565b34801561050a57600080fd5b5061049c61137e565b34801561051f57600080fd5b50610528611390565b604051610314919061522f565b34801561054157600080fd5b506105556105503660046145be565b61139e565b6040516103149190614a18565b34801561056e57600080fd5b5061052861057d366004614322565b6113b8565b34801561058e57600080fd5b5061030761059d366004614820565b6113ec565b3480156105ae57600080fd5b5061049c6105bd36600461485a565b6113ff565b3480156105ce57600080fd5b5061049c6105dd366004614455565b6114b7565b3480156105ee57600080fd5b506103076114d3565b34801561060357600080fd5b506103076114dc565b34801561061857600080fd5b5061062c610627366004614322565b6114ec565b60405161031492919061499e565b34801561064657600080fd5b5061049c610655366004614322565b61155f565b61049c61066836600461488e565b611648565b34801561067957600080fd5b5061049c61187a565b34801561068e57600080fd5b5061052861188c565b3480156106a357600080fd5b5061049c6106b23660046148d2565b611895565b3480156106c357600080fd5b5061049c61194e565b3480156106d857600080fd5b506106ec6106e7366004614838565b61195e565b604051610314929190614a8f565b34801561070657600080fd5b5061071a6107153660046144a5565b611a0b565b6040516103149190614a67565b34801561073357600080fd5b5061041a611c35565b34801561074857600080fd5b5061049c610757366004614322565b611c44565b34801561076857600080fd5b50610528611d58565b34801561077d57600080fd5b5061033d61078c366004614322565b611d68565b34801561079d57600080fd5b506107b16107ac36600461488e565b611db3565b604051610314919061521b565b3480156107ca57600080fd5b5061049c6107d936600461456c565b611dfc565b3480156107ea57600080fd5b5061041a6107f9366004614322565b611e12565b34801561080a57600080fd5b5061049c610819366004614686565b611e73565b34801561082a57600080fd5b50610555610839366004614595565b612175565b34801561084a57600080fd5b5061085e61085936600461433c565b612230565b6040516103149291906149fd565b34801561087857600080fd5b5061033d610887366004614820565b6122de565b34801561089857600080fd5b506103cd6108a7366004614820565b6122f0565b3480156108b857600080fd5b5061041a6108c736600461488e565b6123ea565b3480156108d857600080fd5b5061041a612433565b3480156108ed57600080fd5b506103076108fc36600461433c565b61247e565b34801561090d57600080fd5b5061041a6124ac565b34801561092257600080fd5b5061049c61093136600461450a565b6124bb565b34801561094257600080fd5b5061049c610951366004614322565b6125b9565b60006001600160a01b0382166109875760405162461bcd60e51b815260040161097e90614e45565b60405180910390fd5b506001600160a01b0381166000908152601b6020526040902060030154600160a01b900460ff165b919050565b60006109c083836125f3565b90505b92915050565b60006001600160e01b03198216632229f29760e21b14806109c357506109c382612663565b601a54600090600160a01b900460ff16610a1a5760405162461bcd60e51b815260040161097e90614dc2565b601a54610a2f906001600160a01b03166126a3565b90505b90565b601654600090819060ff61010090910416600114610a655760405162461bcd60e51b815260040161097e906150d1565b60068310610a855760405162461bcd60e51b815260040161097e90614c98565b505060009081526017602052604090206001015460ff81169161010090910466ffffffffffffff1690565b606060005b6006811015610d6957601454838260068110610ae157634e487b7160e01b600052603260045260246000fd5b5050600214610b1257505060408051808201909152600a815269282924a1a2a9afa622a760b11b60208201526109af565b6000806000858460068110610b3757634e487b7160e01b600052603260045260246000fd5b60408051808201909152916080919091020160026000835b82821015610b7b57610b6c604083028501368190038101906147e2565b81526020019060010190610b4f565b50505050905060005b601454811015610cdb576000828260028110610bb057634e487b7160e01b600052603260045260246000fd5b60200201515190506001600160a01b038116610bcf5760019450610bd4565b600193505b6000838360028110610bf657634e487b7160e01b600052603260045260246000fd5b6020020151516001600160a01b031614801590610c5d575060136000848460028110610c3257634e487b7160e01b600052603260045260246000fd5b60209081029190910151516001600160a01b031682528101919091526040016000205460ff16600114155b15610cca57610cbd838360028110610c8557634e487b7160e01b600052603260045260246000fd5b602002015160000151604051806040016040528060118152602001701513d2d15397d55394d5541413d4951151607a1b815250612742565b96505050505050506109af565b50610cd4816153c3565b9050610b84565b5082610d1857604051806040016040528060138152602001721510d7d4149250d157d35554d517d1561254d5606a1b8152509450505050506109af565b81610d5557604051806040016040528060148152602001731110d197d4149250d157d35554d517d1561254d560621b8152509450505050506109af565b50505080610d62906153c3565b9050610ab5565b5050604080516020810190915260008152919050565b606060405162461bcd60e51b815260040161097e90615101565b6001600160a01b0381166000908152601b6020526040812060030154600160a01b900460ff16610ddb5760405162461bcd60e51b815260040161097e906151c4565b506001600160a01b039081166000908152601b60205260409020600301541690565b60158181548110610e0d57600080fd5b6000918252602090912001546001600160a01b0316905081565b601a54600090600160a01b900460ff16610e535760405162461bcd60e51b815260040161097e90614dc2565b6001600160a01b0382166000908152601b6020526040902060030154600160a01b900460ff16610e955760405162461bcd60e51b815260040161097e906151c4565b6109c3826126a3565b60145481565b60405162461bcd60e51b815260040161097e90615150565b610ec4612776565b60005b6006811015610f3d57818160068110610ef057634e487b7160e01b600052603260045260246000fd5b6020020151600b8260068110610f1657634e487b7160e01b600052603260045260246000fd5b019080519060200190610f2a929190614199565b5080610f35816153c3565b915050610ec7565b50506011805460ff19166001179055565b601a54600160a01b900460ff16610f775760405162461bcd60e51b815260040161097e90614dc2565b6001600160a01b03831615801590610f9757506001600160a01b03821615155b610fb35760405162461bcd60e51b815260040161097e90614e45565b336000818152601b6020526040902060030154600160a01b900460ff1615610fed5760405162461bcd60e51b815260040161097e90614f23565b6001600160a01b0384166000908152601b6020526040902060030154600160a01b900460ff1661102f5760405162461bcd60e51b815260040161097e90615078565b6001600160a01b0383166000908152601b6020526040902060030154600160a01b900460ff166110715760405162461bcd60e51b815260040161097e90615020565b60005b60068110156110cb57600061108986836109b4565b9050801561109757506110cb565b81600514156110b85760405162461bcd60e51b815260040161097e90614e1a565b50806110c3816153c3565b915050611074565b506110d683856127b5565b6110f25760405162461bcd60e51b815260040161097e90614d2d565b6001600160a01b038085166000908152601b602052604090206001810154909116158061112a575060028101546001600160a01b0316155b6111465760405162461bcd60e51b815260040161097e90614bcb565b82156111a35760018101546001600160a01b0316611180576001810180546001600160a01b0319166001600160a01b03841617905561119e565b6002810180546001600160a01b0319166001600160a01b0384161790555b6111f5565b60028101546001600160a01b03166111d7576002810180546001600160a01b0319166001600160a01b0384161790556111f5565b6001810180546001600160a01b0319166001600160a01b0384161790555b6001600160a01b038083166000818152601b60205260409081902060038101805482548b87166001600160a01b0319918216811785556001850180548316905560028501805483169055968b1660ff60a01b19909216600160a01b17168117909155915190939192907fb7de7526072e4403cbc0296462672a10ed96d94c4169dc8b84b07515e949013d9061128b908990614a5c565b60405180910390a4505050505050565b6112a3612776565b6001600160a01b0381166112c95760405162461bcd60e51b815260040161097e90614e45565b6001600160a01b0381163b156112f15760405162461bcd60e51b815260040161097e90615123565b601c80546001600160a01b03838116610100908102610100600160a81b031984161793849055909104169060ff600160a81b9091041661133f57601c805460ff60a81b1916600160a81b1790555b6040516001600160a01b03808416919083169033907facf3042cca6ca3830bf91869d4343cead97657cc9e8973fdbd665b55c3e1f49890600090a45050565b611386612776565b61138e612816565b565b601654610100900460ff1681565b606060405162461bcd60e51b815260040161097e90615150565b60006001600160a01b0382166113cd57600191505b506001600160a01b031660009081526013602052604090205460ff1690565b6000806113f8836122de565b1192915050565b611407612776565b60006114138484612868565b90508051600014611438578060405162461bcd60e51b815260040161097e9190614a7c565b6001600160a01b03831661144b57600192505b60008481526017602090815260408083206001600160a01b038716808552925291829020805490859055915186907f8747a56dd6a09ab1378db3a842a4724d75642265b104e31a28fa736ce71912b3906114a890859088906151f6565b60405180910390a35050505050565b6114bf61296a565b6114cc858585858561298f565b5050505050565b601c5460ff1690565b601a54600160a01b900460ff1681565b6001600160a01b0381166000908152601b60205260408120600301548190600160a01b900460ff166115305760405162461bcd60e51b815260040161097e906151c4565b50506001600160a01b039081166000908152601b60205260409020600181015460029091015490821692911690565b611567612776565b60165460ff161561158a5760405162461bcd60e51b815260040161097e90614b5a565b6000611595826129e6565b905080516000146115ba578060405162461bcd60e51b815260040161097e9190614a7c565b6001600160a01b0382166000818152601360205260408120805460ff191660019081179091556015805480830182559083527f55f448fdea98c4d29eb340757ef0a66cd03dbb9538908a6a81d96026b71ec4750180546001600160a01b031916909317909255601480549091906116329084906152b7565b90915550506016805460ff191660011790555050565b61165061296a565b601c54600160a81b900460ff1660011461167c5760405162461bcd60e51b815260040161097e90614d8b565b601a54600160a01b900460ff166116a55760405162461bcd60e51b815260040161097e90614dc2565b60165460ff610100909104166001146116d05760405162461bcd60e51b815260040161097e906150d1565b60115460ff166001146116f55760405162461bcd60e51b815260040161097e90614eec565b611700610302612bcb565b61171c5760405162461bcd60e51b815260040161097e906151c4565b60008061172a84600061195e565b91509150815160001482906117525760405162461bcd60e51b815260040161097e9190614a7c565b5061175d83826152fa565b3414801561176b5750600083115b6117875760405162461bcd60e51b815260040161097e9061504f565b6117a9611792612bcb565b858560405180602001604052806000815250612bcf565b836117b2612bcb565b6001600160a01b03167f5fce8741d2fa2920f00e6fda1be1ede8d7a2d1379bc099f79aa3b438a86de29785846040516117ec9291906151f6565b60405180910390a3601c5460405160009161010090046001600160a01b031690349061181790610a32565b60006040518083038185875af1925050503d8060008114611854576040519150601f19603f3d011682016040523d82523d6000602084013e611859565b606091505b50509050806114cc5760405162461bcd60e51b815260040161097e90614e94565b611882612776565b61138e6000612be1565b60115460ff1681565b61189d612776565b60165460ff610100909104166001146118c85760405162461bcd60e51b815260040161097e906150d1565b600682106118e85760405162461bcd60e51b815260040161097e90614c98565b60008281526017602052604090819020600101805460ff84811660ff19831617909255915191169083907f902e8f79c4772541ba59982b7a572dfdb4a0c003843ec5cfafc7279665288954906119419084908690615259565b60405180910390a2505050565b611956612776565b61138e612c33565b606060008061196d8585612868565b9050805160001461198357915060009050611a04565b6001600160a01b03841661199657600193505b60008581526017602090815260408083206001600160a01b0388168452909152902054806119ef57505060408051808201909152600d81526c14149250d157d393d517d4d155609a1b6020820152915060009050611a04565b60408051602081019091526000815293509150505b9250929050565b6000611a1561296a565b601c54600160a81b900460ff16600114611a415760405162461bcd60e51b815260040161097e90614d8b565b601a54600160a01b900460ff16611a6a5760405162461bcd60e51b815260040161097e90614dc2565b60165460ff61010090910416600114611a955760405162461bcd60e51b815260040161097e906150d1565b60115460ff16600114611aba5760405162461bcd60e51b815260040161097e90614eec565b611ac384610956565b611adf5760405162461bcd60e51b815260040161097e906151c4565b3360008181526013602052604090205460ff16600114611b115760405162461bcd60e51b815260040161097e90614f48565b60008084806020019051810190611b2891906148af565b9150915060068210611b4c5760405162461bcd60e51b815260040161097e90614c98565b600080611b59848661195e565b9150915081516000148290611b815760405162461bcd60e51b815260040161097e9190614a7c565b50611b8c83826152fa565b88148015611b9a5750600083115b611bb65760405162461bcd60e51b815260040161097e9061504f565b611bd189858560405180602001604052806000815250612bcf565b83856001600160a01b03168a6001600160a01b03167fc32800b3f198f1d50532ecd2e22d4fea8d5e5e9236fb2d2796a6710f9c14f1548685604051611c179291906151f6565b60405180910390a450632229f29760e21b9998505050505050505050565b600a546001600160a01b031690565b611c4c612776565b601a54600160a01b900460ff1615611c765760405162461bcd60e51b815260040161097e90614c39565b6001600160a01b0381163b15611c9e5760405162461bcd60e51b815260040161097e90614cbf565b6001600160a01b038116611cc45760405162461bcd60e51b815260040161097e90614e45565b601a80546001600160a01b0383166001600160a01b031960ff60a01b19928316600160a01b908117821683179094556000828152601b602052604080822060038101805482548616835560018301805487169055600283018054871690559096169096179092169093555190917fbeec1fc786857549cbe9ae8717fa0fbdea9bb7386027cbad8197404a3c94421091a25050565b601c54600160a81b900460ff1681565b6001600160a01b0381166000908152601b6020526040812060030154600160a01b900460ff16611daa5760405162461bcd60e51b815260040161097e906151c4565b6109c382612c71565b600060068310611dd55760405162461bcd60e51b815260040161097e90614c98565b5060009182526019602090815260408084209284529190529020546001600160401b031690565b611e0e611e07612bcb565b8383612e23565b5050565b6001600160a01b0381166000908152601b6020526040812060030154600160a01b900460ff16611e545760405162461bcd60e51b815260040161097e906151c4565b506001600160a01b039081166000908152601b60205260409020541690565b611e7b612776565b60165460ff16600114611ea05760405162461bcd60e51b815260040161097e906150a2565b601654610100900460ff1615611ec85760405162461bcd60e51b815260040161097e90614ec0565b6000611ed382610ab0565b90508051600014611ef8578060405162461bcd60e51b815260040161097e9190614a7c565b6040805160c08082018352663740762b8c00008252663d641185b800006020808401919091526649ab483a100000838501526655f27eee680000606080850191909152666239b5a2c00000608080860191909152666e80ec5718000060a0808701919091528651948501875260288552603293850193909352603c95840195909552605090830152605a9382019390935260649281019290925290600260005b600681101561215e57838160068110611fc157634e487b7160e01b600052603260045260246000fd5b60200201516017600083815260200190815260200160002060010160016101000a81548166ffffffffffffff021916908366ffffffffffffff16021790555082816006811061202057634e487b7160e01b600052603260045260246000fd5b602090810291909101516000838152601790925260408220600101805460ff191660ff9092169190911790555b8281101561214d57600087836006811061207757634e487b7160e01b600052603260045260246000fd5b60800201826002811061209a57634e487b7160e01b600052603260045260246000fd5b6040020160000160208101906120b09190614322565b90506001600160a01b0381166120c4575060015b8783600681106120e457634e487b7160e01b600052603260045260246000fd5b60800201826002811061210757634e487b7160e01b600052603260045260246000fd5b60008581526017602090815260408083206001600160a01b0390961683529481529084902091909302919091019190910135905580612145816153c3565b91505061204d565b50612157816153c3565b9050611f98565b50506016805461ff00191661010017905550505050565b60606001600160a01b03831661219d5760405162461bcd60e51b815260040161097e90614e45565b600682106121bd5760405162461bcd60e51b815260040161097e90614c98565b6001600160a01b03831660009081526018602090815260408083208584528252918290208054835181840281018401909452808452909183018282801561222357602002820191906000526020600020905b81548152602001906001019080831161220f575b5050505050905092915050565b601a546000908190600160a01b900460ff1661225e5760405162461bcd60e51b815260040161097e90614dc2565b6001600160a01b0384166000908152601b6020526040902060030154600160a01b900460ff166122a05760405162461bcd60e51b815260040161097e90615020565b60008060006122af8787612ec6565b925092509250806122d25760405162461bcd60e51b815260040161097e90614b2d565b50909590945092505050565b60009081526009602052604090205490565b60115460609060ff166001146123185760405162461bcd60e51b815260040161097e90614eec565b600682106123385760405162461bcd60e51b815260040161097e90614c98565b600b826006811061235957634e487b7160e01b600052603260045260246000fd5b0180546123659061535c565b80601f01602080910402602001604051908101604052809291908181526020018280546123919061535c565b80156123de5780601f106123b3576101008083540402835291602001916123de565b820191906000526020600020905b8154815290600101906020018083116123c157829003601f168201915b50505050509050919050565b60006006831061240c5760405162461bcd60e51b815260040161097e90614c98565b5060009182526006602090815260408084209284529190529020546001600160a01b031690565b600061243d612776565b601c54600160a81b900460ff166001146124695760405162461bcd60e51b815260040161097e90614d8b565b50601c5461010090046001600160a01b031690565b6001600160a01b03918216600090815260086020908152604080832093909416825291909152205460ff1690565b601a546001600160a01b031681565b6124c361296a565b6124cb612bcb565b6001600160a01b0316856001600160a01b031614806124f157506124f1856108fc612bcb565b61250d5760405162461bcd60e51b815260040161097e90614c02565b6001600160a01b0384166125335760405162461bcd60e51b815260040161097e90614e45565b600082116125535760405162461bcd60e51b815260040161097e90614b08565b600683106125735760405162461bcd60e51b815260040161097e90614c98565b60006125808685856130cc565b90508051600014156125a45760405162461bcd60e51b815260040161097e90614fa8565b6125b18686868486613306565b505050505050565b6125c1612776565b6001600160a01b0381166125e75760405162461bcd60e51b815260040161097e90614b85565b6125f081612be1565b50565b60006001600160a01b03831661261b5760405162461bcd60e51b815260040161097e90614e45565b6006821061263b5760405162461bcd60e51b815260040161097e90614c98565b5060009081526007602090815260408083206001600160a01b03949094168352929052205490565b60006001600160e01b03198216636cdb3d1360e11b148061269457506001600160e01b031982166303a24d0760e21b145b806109c357506109c382613313565b60006001600160a01b0382166126bb575060006109af565b6001600160a01b0382166000908152601b602052604090206003810154600160a01b900460ff166126f05760009150506109af565b6002810154612707906001600160a01b03166126a3565b600182015461271e906001600160a01b03166126a3565b61272785612c71565b61273191906152b7565b61273b91906152b7565b9392505050565b60608161274e8461332c565b60405160200161275f92919061494e565b604051602081830303815290604052905092915050565b61277e612bcb565b6001600160a01b031661278f611c35565b6001600160a01b03161461138e5760405162461bcd60e51b815260040161097e90614f73565b6000815b6001600160a01b0381161561280c57836001600160a01b0316816001600160a01b031614156127ec5760019150506109c3565b6001600160a01b039081166000908152601b6020526040902054166127b9565b5060009392505050565b61281e61351b565b601c805460ff191690557f5db9ee0a495bf2e6ff9c91a7834c1ba4fdd244a5e8aa4e537bd38aeae4b073aa612851612bcb565b60405161285e919061498a565b60405180910390a1565b60165460609060ff610100909104166001146128b1575060408051808201909152601681527514149250d154d7d393d517d25392551250531256915160521b60208201526109c3565b60058311156128e4575060408051808201909152600d81526c544f4b454e49445f52414e474560981b60208201526109c3565b6001600160a01b0382166128f757600191505b6001600160a01b03821660009081526013602052604090205460ff166001146129545761294d82604051806040016040528060118152602001701513d2d15397d55394d5541413d4951151607a1b815250612742565b90506109c3565b5060408051602081019091526000815292915050565b6129726114d3565b1561138e5760405162461bcd60e51b815260040161097e90614df0565b612997612bcb565b6001600160a01b0316856001600160a01b031614806129bd57506129bd856108fc612bcb565b6129d95760405162461bcd60e51b815260040161097e90614c02565b6114cc8585858585613306565b6001600160a01b03811660009081526013602052604090205460609060ff1660011415612a4157612a3a826040518060400160405280600b81526020016a414444525f45584953545360a81b815250612742565b90506109af565b60408051600481526024810182526020810180516001600160e01b03166395d89b4160e01b179052905160009081906001600160a01b03861690612a86908590614932565b600060405180830381855afa9150503d8060008114612ac1576040519150601f19603f3d011682016040523d82523d6000602084013e612ac6565b606091505b5091509150818015612ad9575060008151115b15612b8057600081806020019051810190612af49190614765565b80516020808301919091206040805180820190915260038152622221a360e91b9201919091529091507f580e4ba285e7e1134de91e671c33b0ab748bee7126d5d2e4d0845e6ad176e7eb8114612b7957612b6d87604051806040016040528060078152602001662727aa2fa221a360c91b815250612742565b955050505050506109af565b5050612bb3565b612ba985604051806040016040528060078152602001662727aa2fa221a360c91b815250612742565b93505050506109af565b50506040805160208101909152600081529392505050565b3390565b612bdb8484848461353f565b50505050565b600a80546001600160a01b038381166001600160a01b0319831681179093556040519116919082907f8be0079c531659141344cd1fd0a4f28419497f9722a3daafe3b4186f6b6457e090600090a35050565b612c3b61296a565b601c805460ff191660011790557f62e78cea01bee320cd4e420270b5ea74000d11b0c9f74754ebdbfc544b05a258612851612bcb565b60006001600160a01b038216612c995760405162461bcd60e51b815260040161097e90614e45565b6000805b6006811015612e1c576001600160a01b0384166000908152601860209081526040808320848452825280832080548251818502810185019093528083529192909190830182828015612d0e57602002820191906000526020600020905b815481526020019060010190808311612cfa575b5050505050905060005b8151811015612e07576000828281518110612d4357634e487b7160e01b600052603260045260246000fd5b6020908102919091018101516000868152601983526040808220838352909352918220549092506001600160401b031690612d7d86610a35565b9150612d94905066ffffffffffffff8216836152cf565b6001600160401b0316421115612dac57505050612df5565b600080612dba88600061195e565b9150915081516000148290612de25760405162461bcd60e51b815260040161097e9190614a7c565b50612ded818a6152b7565b985050505050505b80612dff816153c3565b915050612d18565b50508080612e14906153c3565b915050612c9d565b5092915050565b816001600160a01b0316836001600160a01b03161415612e555760405162461bcd60e51b815260040161097e90614d64565b6001600160a01b0383811660008181526008602090815260408083209487168084529490915290819020805460ff1916851515179055517f17307eab39ab6107e8899845ad3d59bd9653f200f220920489ca2b5937696c3190612eb9908590614a5c565b60405180910390a3505050565b600080806001600160a01b0385161580612ef15750836001600160a01b0316856001600160a01b0316145b15612f04575060009150819050806130c5565b6001600160a01b0385166000908152601b602052604090206003810154600160a01b900460ff16612f40576000806000935093509350506130c5565b60018101546000906001600160a01b031615612f72576001820154612f6d906001600160a01b03166126a3565b612f75565b60005b60028301549091506000906001600160a01b031615612faa576002830154612fa5906001600160a01b03166126a3565b612fad565b60005b905080821115600081612fcd5760028501546001600160a01b0316612fdc565b60018501546001600160a01b03165b90506001600160a01b03811661301257612ff58a61363c565b1561300d57508896509450600193506130c592505050565b613038565b61301c818a612ec6565b9199509750955085156130385750600194506130c59350505050565b6000826130525760018601546001600160a01b0316613061565b60028601546001600160a01b03165b905082156001600160a01b0382166130ad5761307c8c61363c565b15613096578b99509750600196506130c595505050505050565b6000806000995099509950505050505050506130c5565b6130b7828c612ec6565b995099509950505050505050505b9250925092565b60606001600160a01b0384166130f45760405162461bcd60e51b815260040161097e90614e45565b600683106131145760405162461bcd60e51b815260040161097e90614c98565b6000826001600160401b0381111561313c57634e487b7160e01b600052604160045260246000fd5b604051908082528060200260200182016040528015613165578160200160208202803683370190505b506001600160a01b0386166000908152601860209081526040808320888452825280832080548251818502810185019093528083529495509293849391928301828280156131d257602002820191906000526020600020905b8154815260200190600101908083116131be575b5050505050905060006131e487610a35565b91505060005b82518110156132ec576000888152601960205260408120845166ffffffffffffff8516929086908590811061322f57634e487b7160e01b600052603260045260246000fd5b60209081029190910181015182528101919091526040016000205461325d91906001600160401b03166152cf565b6001600160401b03164211156132da5782818151811061328d57634e487b7160e01b600052603260045260246000fd5b60200260200101518585806132a1906153c3565b9650815181106132c157634e487b7160e01b600052603260045260246000fd5b602002602001018181525050868414156132da576132ec565b806132e4816153c3565b9150506131ea565b50858310156132fa57600084525b50919695505050505050565b6114cc8585858585613680565b6001600160e01b031981166301ffc9a760e01b14919050565b60408051602a808252606082810190935283831b916f181899199a1a9b1b9c1cb0b131b232b360811b9160009190602082018180368337019050509050600360fc1b8160008151811061338f57634e487b7160e01b600052603260045260246000fd5b60200101906001600160f81b031916908160001a905350600f60fb1b816001815181106133cc57634e487b7160e01b600052603260045260246000fd5b60200101906001600160f81b031916908160001a90535060005b601481101561351257600084826014811061341157634e487b7160e01b600052603260045260246000fd5b1a905083600482901c60ff166010811061343b57634e487b7160e01b600052603260045260246000fd5b1a60f81b8361344b8460026152fa565b6134569060026152b7565b8151811061347457634e487b7160e01b600052603260045260246000fd5b60200101906001600160f81b031916908160001a90535083600f8216601081106134ae57634e487b7160e01b600052603260045260246000fd5b1a60f81b836134be8460026152fa565b6134c99060036152b7565b815181106134e757634e487b7160e01b600052603260045260246000fd5b60200101906001600160f81b031916908160001a90535050808061350a906153c3565b9150506133e6565b50949350505050565b6135236114d3565b61138e5760405162461bcd60e51b815260040161097e90614ada565b4260005b8381101561362f576000816000876006811061356f57634e487b7160e01b600052603260045260246000fd5b015461357b91906152b7565b60008781526019602090815260408083208484528252808320805467ffffffffffffffff19166001600160401b0389161790556001600160a01b038b16808452601883528184208b855283528184208054600181018255908552929093209091018390555191925087917fa0fe61afe1ffd5e83d09a64b67ad6e6511a42b3876aea9ba71288026e8a29b69906136149085908890615204565b60405180910390a35080613627816153c3565b915050613543565b506114cc85858585613983565b6000805b600681101561367757600061365584836109b4565b11156136655760019150506109af565b8061366f816153c3565b915050613640565b50600092915050565b6001600160a01b0384166136a65760405162461bcd60e51b815260040161097e90614e45565b600683106136c65760405162461bcd60e51b815260040161097e90614c98565b60005b82518110156139755760008382815181106136f457634e487b7160e01b600052603260045260246000fd5b6020908102919091018101516000878152601983526040808220838352909352918220549092506001600160401b03169061372e87610a35565b915050886001600160a01b031661374588856123ea565b6001600160a01b03161461376b5760405162461bcd60e51b815260040161097e90614e6b565b6001600160a01b03808a1660009081526018602081815260408084208c85528252808420948d1684529181528183208b845290528120909190825b82548110156137fc57868382815481106137d057634e487b7160e01b600052603260045260246000fd5b906000526020600020015414156137ea57600193506137fc565b806137f4816153c3565b9150506137a6565b508261381a5760405162461bcd60e51b815260040161097e90614ab1565b61382d66ffffffffffffff8516866152cf565b6001600160401b031642116138545760405162461bcd60e51b815260040161097e90614c70565b60005b8254811015613944578683828154811061388157634e487b7160e01b600052603260045260246000fd5b9060005260206000200154141561393257825483906138a290600190615319565b815481106138c057634e487b7160e01b600052603260045260246000fd5b90600052602060002001548382815481106138eb57634e487b7160e01b600052603260045260246000fd5b90600052602060002001819055508280548061391757634e487b7160e01b600052603160045260246000fd5b60019003818190600052602060002001600090559055613944565b8061393c816153c3565b915050613857565b5080546001810182556000918252602090912001949094555083925061396d91508290506153c3565b9150506136c9565b506114cc8585858585613b7e565b600683106139a35760405162461bcd60e51b815260040161097e90614c98565b6001600160a01b0384166139c95760405162461bcd60e51b815260040161097e90614e45565b60006139d3612bcb565b905060006139e085613e96565b905060006139ed85613e96565b90506139fe83600089858589613eef565b60008681526007602090815260408083206001600160a01b038b16845290915281208054879290613a309084906152b7565b90915550600090505b85811015613ac557876006600089815260200190815260200160002060008360008b60068110613a7957634e487b7160e01b600052603260045260246000fd5b0154613a8591906152b7565b8152602081019190915260400160002080546001600160a01b0319166001600160a01b039290921691909117905580613abd816153c3565b915050613a39565b508460008760068110613ae857634e487b7160e01b600052603260045260246000fd5b016000828254613af891906152b7565b92505081905550866001600160a01b031660006001600160a01b0316846001600160a01b03167fc3d58168c5ae7397731d063d5bbf3d657854427343f4c083240f7aacaa2d0f628989604051613b4f9291906151f6565b60405180910390a4613b66836000898585896125b1565b613b7583600089898989613efd565b50505050505050565b6001600160a01b038416613ba45760405162461bcd60e51b815260040161097e90614e45565b60068310613bc45760405162461bcd60e51b815260040161097e90614c98565b60005b8251811015613c5f57600084815260066020526040812084516001600160a01b0389169290869085908110613c0c57634e487b7160e01b600052603260045260246000fd5b6020908102919091018101518252810191909152604001600020546001600160a01b031614613c4d5760405162461bcd60e51b815260040161097e90614e6b565b80613c57816153c3565b915050613bc7565b506000613c6a612bcb565b90506000613c7785613e96565b90506000613c858551613e96565b9050613c95838989858589613eef565b60005b8551811015613d3057600087815260066020526040812087516001600160a01b038c169290899085908110613cdd57634e487b7160e01b600052603260045260246000fd5b6020908102919091018101518252810191909152604001600020546001600160a01b031614613d1e5760405162461bcd60e51b815260040161097e90614e6b565b80613d28816153c3565b915050613c98565b5060008681526007602090815260408083206001600160a01b038c1684529091528120805487518103909155905b8651811015613dda57600088815260066020526040812088518b92908a9085908110613d9a57634e487b7160e01b600052603260045260246000fd5b602090810291909101810151825281019190915260400160002080546001600160a01b0319166001600160a01b0392909216919091179055600101613d5e565b50855160008881526007602090815260408083206001600160a01b038d16845290915281208054909190613e0f9084906152b7565b92505081905550876001600160a01b0316896001600160a01b0316856001600160a01b03167fc3d58168c5ae7397731d063d5bbf3d657854427343f4c083240f7aacaa2d0f628a8a51604051613e669291906151f6565b60405180910390a4613e7c848a8a86868a6125b1565b613e8b848a8a8a8a518a613efd565b505050505050505050565b60408051600180825281830190925260609160009190602080830190803683370190505090508281600081518110613ede57634e487b7160e01b600052603260045260246000fd5b602090810291909101015292915050565b6125b186868686868661401b565b6001600160a01b0384163b156125b15760405163f23a6e6160e01b81526001600160a01b0385169063f23a6e6190613f4190899089908890889088906004016149b8565b602060405180830381600087803b158015613f5b57600080fd5b505af1925050508015613f8b575060408051601f3d908101601f19168201909252613f8891810190614749565b60015b613feb57613f9761540a565b806308c379a01415613fd15750613fac615421565b80613fb75750613fd3565b8060405162461bcd60e51b815260040161097e9190614a7c565b505b60405162461bcd60e51b815260040161097e90615179565b6001600160e01b0319811663f23a6e6160e01b14613b755760405162461bcd60e51b815260040161097e90614cf6565b6140298686868686866125b1565b6001600160a01b0385166140cc5760005b83518110156140ca5782818151811061406357634e487b7160e01b600052603260045260246000fd5b60200260200101516009600086848151811061408f57634e487b7160e01b600052603260045260246000fd5b6020026020010151815260200190815260200160002060008282546140b491906152b7565b909155506140c39050816153c3565b905061403a565b505b6001600160a01b0384166125b15760005b8351811015613b7557600084828151811061410857634e487b7160e01b600052603260045260246000fd5b60200260200101519050600084838151811061413457634e487b7160e01b600052603260045260246000fd5b60200260200101519050600060096000848152602001908152602001600020549050818110156141765760405162461bcd60e51b815260040161097e90614fd8565b60009283526009602052604090922091039055614192816153c3565b90506140dd565b8280546141a59061535c565b90600052602060002090601f0160209004810192826141c7576000855561420d565b82601f106141e057805160ff191683800117855561420d565b8280016001018555821561420d579182015b8281111561420d5782518255916020019190600101906141f2565b5061421992915061421d565b5090565b5b80821115614219576000815560010161421e565b80356001600160a01b03811681146109af57600080fd5b600082601f830112614259578081fd5b813560206142668261526d565b6040516142738282615397565b838152828101915085830183850287018401881015614290578586fd5b855b858110156142ae57813584529284019290840190600101614292565b5090979650505050505050565b803580151581146109af57600080fd5b600082601f8301126142db578081fd5b81356142e681615290565b6040516142f38282615397565b828152856020848701011115614307578384fd5b82602086016020830137918201602001929092529392505050565b600060208284031215614333578081fd5b6109c082614232565b6000806040838503121561434e578081fd5b61435783614232565b915061436560208401614232565b90509250929050565b600080600080600060a08688031215614385578081fd5b61438e86614232565b945061439c60208701614232565b935060408601356001600160401b03808211156143b7578283fd5b6143c389838a01614249565b945060608801359150808211156143d8578283fd5b6143e489838a01614249565b935060808801359150808211156143f9578283fd5b50614406888289016142cb565b9150509295509295909350565b600080600060608486031215614427578283fd5b61443084614232565b925061443e60208501614232565b915061444c604085016142bb565b90509250925092565b600080600080600060a0868803121561446c578283fd5b61447586614232565b945061448360208701614232565b93506040860135925060608601356001600160401b03808211156143d8578283fd5b600080600080608085870312156144ba578182fd5b6144c385614232565b93506144d160208601614232565b92506040850135915060608501356001600160401b038111156144f2578182fd5b6144fe878288016142cb565b91505092959194509250565b600080600080600060a08688031215614521578283fd5b61452a86614232565b945061453860208701614232565b9350604086013592506060860135915060808601356001600160401b03811115614560578182fd5b614406888289016142cb565b6000806040838503121561457e578182fd5b61458783614232565b9150614365602084016142bb565b600080604083850312156145a7578182fd5b6145b083614232565b946020939093013593505050565b600080604083850312156145d0578182fd5b82356001600160401b03808211156145e6578384fd5b818501915085601f8301126145f9578384fd5b813560206146068261526d565b6040516146138282615397565b8381528281019150858301838502870184018b1015614630578889fd5b8896505b848710156146595761464581614232565b835260019690960195918301918301614634565b509650508601359250508082111561466f578283fd5b5061467c85828601614249565b9150509250929050565b6000610300808385031215614699578182fd5b8381840111156146a7578182fd5b509092915050565b600060208083850312156146c1578182fd5b82356001600160401b038111156146d6578283fd5b8301601f810185136146e6578283fd5b6040516146f460c082615397565b8082855b60068110156147205761470e89833587016142cb565b835291850191908501906001016146f8565b5091979650505050505050565b60006020828403121561473e578081fd5b813561273b816154b2565b60006020828403121561475a578081fd5b815161273b816154b2565b600060208284031215614776578081fd5b81516001600160401b0381111561478b578182fd5b8201601f8101841361479b578182fd5b80516147a681615290565b6040516147b38282615397565b8281528660208486010111156147c7578485fd5b6147d8836020830160208701615330565b9695505050505050565b6000604082840312156147f3578081fd5b604051614801604082615397565b61480a83614232565b8152602083013560208201528091505092915050565b600060208284031215614831578081fd5b5035919050565b6000806040838503121561484a578182fd5b8235915061436560208401614232565b60008060006060848603121561486e578081fd5b8335925061487e60208501614232565b9150604084013590509250925092565b600080604083850312156148a0578182fd5b50508035926020909101359150565b600080604083850312156148c1578182fd5b505080516020909101519092909150565b600080604083850312156148e4578182fd5b82359150602083013560ff811681146148fb578182fd5b809150509250929050565b6000815180845261491e816020860160208601615330565b601f01601f19169290920160200192915050565b60008251614944818460208701615330565b9190910192915050565b60008351614960818460208801615330565b600160fd1b908301908152835161497e816001840160208801615330565b01600101949350505050565b6001600160a01b0391909116815260200190565b6001600160a01b0392831681529116602082015260400190565b6001600160a01b03868116825285166020820152604081018490526060810183905260a0608082018190526000906149f290830184614906565b979650505050505050565b6001600160a01b039290921682521515602082015260400190565b6020808252825182820181905260009190848201906040850190845b81811015614a5057835183529284019291840191600101614a34565b50909695505050505050565b901515815260200190565b6001600160e01b031991909116815260200190565b6000602082526109c06020830184614906565b600060408252614aa26040830185614906565b90508260208301529392505050565b6020808252600f908201526e125391115617d393d517d3d5d39151608a1b604082015260600190565b60208082526014908201527314185d5cd8589b194e881b9bdd081c185d5cd95960621b604082015260600190565b6020808252600b908201526a414d4f554e545f5a45524f60a81b604082015260600190565b6020808252601390820152721393d7d0559052531050931157d41054915395606a1b604082015260600190565b6020808252601190820152701513d2d15397d253925512505312569151607a1b604082015260600190565b60208082526026908201527f4f776e61626c653a206e6577206f776e657220697320746865207a65726f206160408201526564647265737360d01b606082015260800190565b60208082526017908201527f504152454e545f4841535f54574f5f4348494c4452454e000000000000000000604082015260600190565b60208082526019908201527f43414c4c45525f4e4f545f4f574e45525f415050524f56454400000000000000604082015260600190565b60208082526018908201527f524f4f545f414c52454144595f494e495449414c495a45440000000000000000604082015260600190565b6020808252600e908201526d14d1539117d59053125117d3919560921b604082015260600190565b6020808252600d908201526c544f4b454e49445f52414e474560981b604082015260600190565b60208082526017908201527f524f4f545f43414e4e4f545f42455f434f4e5452414354000000000000000000604082015260600190565b6020808252601f908201527f4552433131353552454345495645525f52454a45435445445f544f4b454e5300604082015260600190565b6020808252601e908201527f504152454e545f4e4f545f5245434f4d4d454e4445525f535542545245450000604082015260600190565b6020808252600d908201526c20a8282927ab20a62fa9a2a62360991b604082015260600190565b6020808252601d908201527f57495448445241575f414444525f4e4f545f494e495449414c495a4544000000604082015260600190565b6020808252601490820152731493d3d517d393d517d25392551250531256915160621b604082015260600190565b60208082526010908201526f14185d5cd8589b194e881c185d5cd95960821b604082015260600190565b60208082526011908201527014105491539517d21054d7d393d7d39195607a1b604082015260600190565b6020808252600c908201526b5a45524f5f4144445245535360a01b604082015260600190565b6020808252600f908201526e1513d2d15397d393d517d3d5d39151608a1b604082015260600190565b6020808252601290820152711510d7d514905394d1915497d1905253115160721b604082015260600190565b60208082526012908201527114149250d154d7d25392551250531256915160721b604082015260600190565b60208082526017908201527f424153455552495f4e4f545f494e495449414c495a4544000000000000000000604082015260600190565b6020808252600b908201526a4e4f44455f45584953545360a81b604082015260600190565b6020808252601190820152701513d2d15397d55394d5541413d4951151607a1b604082015260600190565b6020808252818101527f4f776e61626c653a2063616c6c6572206973206e6f7420746865206f776e6572604082015260600190565b6020808252601690820152751393d517d15393d551d217d156141254915117d3919560521b604082015260600190565b60208082526028908201527f455243313135353a206275726e20616d6f756e74206578636565647320746f74604082015267616c537570706c7960c01b606082015260800190565b602080825260159082015274149150d3d353515391115497d393d517d1561254d5605a1b604082015260600190565b6020808252600f908201526e494e434f52524543545f46554e445360881b604082015260600190565b60208082526010908201526f14105491539517d393d517d1561254d560821b604082015260600190565b6020808252601590820152741513d2d15397d393d517d253925512505312569151605a1b604082015260600190565b60208082526016908201527514149250d154d7d393d517d25392551250531256915160521b604082015260600190565b6020808252600890820152675553455f4575726960c01b604082015260600190565b602080825260139082015272105111149154d4d7d254d7d0d3d395149050d5606a1b604082015260600190565b6020808252600f908201526e1393d517d253541311535153951151608a1b604082015260600190565b6020808252602b908201527f7472616e736665725f746f5f6e6f6e2d4552433131353552656365697665725f60408201526a34b6b83632b6b2b73a32b960a91b606082015260800190565b6020808252600f908201526e4e4f44455f4e4f545f45584953545360881b604082015260600190565b90815260200190565b918252602082015260400190565b9182526001600160401b0316602082015260400190565b6001600160401b0391909116815260200190565b60ff91909116815260200190565b60ff92909216825266ffffffffffffff16602082015260400190565b60ff92831681529116602082015260400190565b60006001600160401b03821115615286576152866153f4565b5060209081020190565b60006001600160401b038211156152a9576152a96153f4565b50601f01601f191660200190565b600082198211156152ca576152ca6153de565b500190565b60006001600160401b038083168185168083038211156152f1576152f16153de565b01949350505050565b6000816000190483118215151615615314576153146153de565b500290565b60008282101561532b5761532b6153de565b500390565b60005b8381101561534b578181015183820152602001615333565b83811115612bdb5750506000910152565b60028104600182168061537057607f821691505b6020821081141561539157634e487b7160e01b600052602260045260246000fd5b50919050565b601f8201601f191681016001600160401b03811182821017156153bc576153bc6153f4565b6040525050565b60006000198214156153d7576153d76153de565b5060010190565b634e487b7160e01b600052601160045260246000fd5b634e487b7160e01b600052604160045260246000fd5b600060033d1115610a3257600481823e5160e01c90565b600060443d101561543157610a32565b6040516003193d81016004833e81513d6001600160401b038160248401118184111715615462575050505050610a32565b828501915081518181111561547c57505050505050610a32565b843d870101602082850101111561549857505050505050610a32565b6154a760208286010187615397565b509094505050505090565b6001600160e01b0319811681146125f057600080fdfea26469706673582212207afac24b728ca72a65503cf645ab8223dd7a51de681b72e2c4441d89d8acb07464736f6c63430008010033",
  "linkReferences": {},
  "deployedLinkReferences": {},
  "immutableReferences": {},
  "inputSourceName": "project/contracts/TCF_NFT.sol",
  "devdoc": {
    "kind": "dev",
    "methods": {
      "addSupportedToken(address)": {
        "details": "添加支持的代币地址列表（原生代币不需要传入地址）。构造函数中已经添加了原生代币TC。 如果项目只支持TC，则不需要调用这个函数。",
        "params": {
          "_tokenAddress": "代币合约地址"
        }
      },
      "balanceOfBatch(address[],uint256[])": {
        "details": "See {IERC1155-balanceOfBatch}.没有实现 Requirements: - `accounts` and `ids` must have the same length."
      },
      "changeNFTPrice(uint256,address,uint256)": {
        "details": "修改单个NFT价格",
        "params": {
          "amount": "新价格",
          "tokenAddress": "支付代币地址；原生代币传入address(0)",
          "tokenId": "NFT类型/ID（0-5）"
        }
      },
      "checkInitPricesParams((address,uint256)[2][6])": {
        "details": "初始化价格参数检查：长度、代币是否在支持列表内等。",
        "params": {
          "prices": "6种NFT的价格参数（每种NFT包含 supportedTokenAmount 个价格项）"
        },
        "returns": {
          "_0": "错误码/错误信息；成功时为空字符串"
        }
      },
      "exists(uint256)": {
        "details": "Indicates whether any token exist with a given id, or not."
      },
      "getNFTPrice(uint256,address)": {
        "details": "获取某个NFT在某种支付方式下的价格。",
        "params": {
          "_tokenAddress": "支付代币地址；原生代币传入address(0)",
          "tokenId": "NFT类型/ID（0-5）"
        },
        "returns": {
          "_0": "errorMessage 错误码/错误信息；成功时为空字符串",
          "_1": "price 价格；当errorMessage非空时为0"
        }
      },
      "getOptimalParent(address,address)": {
        "details": "从 recommender 出发：      1) 对当前节点比较左右子树价值（空子树视为 0），优先走价值更小的一侧（相等则优先 left）。      2) 若优先侧为空，说明当前节点在该侧有空位；若当前节点买过 NFT，则返回该节点作为父节点。      3) 若当前节点没有买过 NFT，则该节点不能作为父节点，需要继续查找；         若这条路径最终找不到可用父节点，则回退尝试另一侧（等价于排除上一条路径）。      4) 整个查找过程中会跳过 excludeNode（通常是当前要插入的节点），避免推荐自己。",
        "params": {
          "excludeNode": "在推荐父节点时排除掉这个节点（通常是当前要插入的节点），避免出现推荐自己作为父节点的情况",
          "recommender": "推荐人地址（必须已在树中）"
        },
        "returns": {
          "isLeftBranch": "推荐在 parent 下应选择的分支：true=left，false=right",
          "parent": "推荐得到的最终父节点地址"
        }
      },
      "initPrice((address,uint256)[2][6])": {
        "details": "初始化价格.TC代币的地址设为0",
        "params": {
          "prices": "6种NFT,每中NFT的三类价格"
        }
      },
      "initRoot(address)": {
        "params": {
          "rootAddress": "根节点地址"
        }
      },
      "insert(address,address,bool)": {
        "details": "约束：  - parent 必须已存在。  - recommender 必须已存在。  - 若 recommender 推荐该 node，则 parent 必须在 recommender 的子树内（含 recommender 本人）。",
        "params": {
          "isLeft": "true=插入为 parent.left；false=插入为 parent.right。  如果isLeft未true，优先放在父节点的左子树下，如果左子树下有节点，则放在右子树下；反之亦然。  我什么存在：因为如果使用推荐节点，推荐函数将返回一个父节点和isLeft参数，这样插入函数就可以直接使用。",
          "parent": "父节点地址",
          "recommender": "推荐人地址（必须是当前树中的某个地址）"
        }
      },
      "isApprovedForAll(address,address)": {
        "details": "See {IERC1155-isApprovedForAll}."
      },
      "owner()": {
        "details": "Returns the address of the current owner."
      },
      "paused()": {
        "details": "Returns true if the contract is paused, and false otherwise."
      },
      "renounceOwnership()": {
        "details": "Leaves the contract without owner. It will not be possible to call `onlyOwner` functions. Can only be called by the current owner. NOTE: Renouncing ownership will leave the contract without an owner, thereby disabling any functionality that is only available to the owner."
      },
      "safeBatchTransferFrom(address,address,uint256[],uint256[],bytes)": {
        "details": "See {IERC1155-safeBatchTransferFrom}."
      },
      "setApprovalForAll(address,bool)": {
        "details": "See {IERC1155-setApprovalForAll}."
      },
      "setBaseURI(bytes[6])": {
        "details": "Sets `baseURI` as the `_baseURI` for all tokens Only callable by the owner.可以被设置多次"
      },
      "supportsInterface(bytes4)": {
        "details": "See {IERC165-supportsInterface}."
      },
      "totalSupply(uint256)": {
        "details": "Total amount of tokens in with a given id."
      },
      "totalTreeWorth()": {
        "details": "注意：树很大时可能消耗较多 gas（即使 view 调用也有计算开销）。"
      },
      "transferOwnership(address)": {
        "details": "Transfers ownership of the contract to a new account (`newOwner`). Can only be called by the current owner."
      }
    },
    "version": 1
  },
  "evm": {
    "gasEstimates": {
      "creation": {
        "codeDepositCost": "4351600",
        "executionCost": "130852",
        "totalCost": "4482452"
      },
      "external": {
        "ESafeTransferFrom(address,address,uint256,uint256[],bytes)": "infinite",
        "Euri(uint256)": "infinite",
        "NFTPrice_initialized()": "1191",
        "_initializedURIStorage()": "1158",
        "addSupportedToken(address)": "infinite",
        "balanceOf(address,uint256)": "1547",
        "balanceOfBatch(address[],uint256[])": "infinite",
        "buyNFTByTC(uint256,uint256)": "infinite",
        "changeDynamicRatio(uint256,uint8)": "24938",
        "changeNFTPrice(uint256,address,uint256)": "infinite",
        "checkInitPricesParams((address,uint256)[2][6])": "infinite",
        "exists(uint256)": "1313",
        "getChildren(address)": "3240",
        "getNFTEquityDetails(uint256)": "2262",
        "getNFTPrice(uint256,address)": "infinite",
        "getNftMintTime(uint256,uint256)": "1469",
        "getNodeWorth(address)": "infinite",
        "getOptimalParent(address,address)": "infinite",
        "getParent(address)": "2309",
        "getRecommender(address)": "2316",
        "getUserTokenIds(address,uint256)": "infinite",
        "getWithdrawAddress()": "2997",
        "initPrice((address,uint256)[2][6])": "infinite",
        "initRoot(address)": "108360",
        "insert(address,address,bool)": "infinite",
        "isApprovedForAll(address,address)": "infinite",
        "isExist(address)": "infinite",
        "isSupported(address)": "1408",
        "onTransferReceived(address,address,uint256,bytes)": "infinite",
        "owner()": "1182",
        "ownerOf(uint256,uint256)": "1425",
        "pause()": "infinite",
        "paused()": "1129",
        "renounceOwnership()": "infinite",
        "root()": "1158",
        "rootInitialized()": "1168",
        "safeBatchTransferFrom(address,address,uint256[],uint256[],bytes)": "infinite",
        "safeTransferFrom(address,address,uint256,uint256,bytes)": "infinite",
        "setApprovalForAll(address,bool)": "infinite",
        "setBaseURI(bytes[6])": "infinite",
        "setWithdrawAddress(address)": "45837",
        "subtreeWorth(address)": "infinite",
        "supportedTokenAmount()": "1162",
        "supportsInterface(bytes4)": "infinite",
        "tokenAddress_array(uint256)": "2128",
        "totalSupply(uint256)": "1326",
        "totalTreeWorth()": "infinite",
        "transferOwnership(address)": "23862",
        "unpause()": "infinite",
        "uri(uint256)": "405",
        "withdrawAddress_initialized()": "1152"
      },
      "internal": {
        "_beforeTokenTransfer(address,address,address,uint256[] memory,uint256[] memory,bytes memory)": "infinite",
        "_mint(address,uint256,uint256,bytes memory)": "infinite",
        "_safeTransferFrom(address,address,uint256,uint256[] memory,bytes memory)": "infinite"
      }
    }
  },
  "storageLayout": {
    "storage": [
      {
        "astId": 1652,
        "contract": "project/contracts/TCF_NFT.sol:TCF_NFT",
        "label": "_nextTokenId",
        "offset": 0,
        "slot": "0",
        "type": "t_array(t_uint256)6_storage"
      },
      {
        "astId": 1658,
        "contract": "project/contracts/TCF_NFT.sol:TCF_NFT",
        "label": "_owners",
        "offset": 0,
        "slot": "6",
        "type": "t_mapping(t_uint256,t_mapping(t_uint256,t_address))"
      },
      {
        "astId": 1664,
        "contract": "project/contracts/TCF_NFT.sol:TCF_NFT",
        "label": "_balances",
        "offset": 0,
        "slot": "7",
        "type": "t_mapping(t_uint256,t_mapping(t_address,t_uint256))"
      },
      {
        "astId": 1670,
        "contract": "project/contracts/TCF_NFT.sol:TCF_NFT",
        "label": "_operatorApprovals",
        "offset": 0,
        "slot": "8",
        "type": "t_mapping(t_address,t_mapping(t_address,t_bool))"
      },
      {
        "astId": 1486,
        "contract": "project/contracts/TCF_NFT.sol:TCF_NFT",
        "label": "_totalSupply",
        "offset": 0,
        "slot": "9",
        "type": "t_mapping(t_uint256,t_uint256)"
      },
      {
        "astId": 5015,
        "contract": "project/contracts/TCF_NFT.sol:TCF_NFT",
        "label": "_owner",
        "offset": 0,
        "slot": "10",
        "type": "t_address"
      },
      {
        "astId": 3110,
        "contract": "project/contracts/TCF_NFT.sol:TCF_NFT",
        "label": "_baseURI",
        "offset": 0,
        "slot": "11",
        "type": "t_array(t_string_storage)6_storage"
      },
      {
        "astId": 3112,
        "contract": "project/contracts/TCF_NFT.sol:TCF_NFT",
        "label": "_initializedURIStorage",
        "offset": 0,
        "slot": "17",
        "type": "t_uint8"
      },
      {
        "astId": 3118,
        "contract": "project/contracts/TCF_NFT.sol:TCF_NFT",
        "label": "_tokenURIs",
        "offset": 0,
        "slot": "18",
        "type": "t_mapping(t_uint256,t_mapping(t_uint256,t_string_storage))"
      },
      {
        "astId": 3198,
        "contract": "project/contracts/TCF_NFT.sol:TCF_NFT",
        "label": "supportTokenType",
        "offset": 0,
        "slot": "19",
        "type": "t_mapping(t_address,t_uint8)"
      },
      {
        "astId": 3200,
        "contract": "project/contracts/TCF_NFT.sol:TCF_NFT",
        "label": "supportedTokenAmount",
        "offset": 0,
        "slot": "20",
        "type": "t_uint256"
      },
      {
        "astId": 3203,
        "contract": "project/contracts/TCF_NFT.sol:TCF_NFT",
        "label": "tokenAddress_array",
        "offset": 0,
        "slot": "21",
        "type": "t_array(t_address)dyn_storage"
      },
      {
        "astId": 3205,
        "contract": "project/contracts/TCF_NFT.sol:TCF_NFT",
        "label": "initedTokenAddress",
        "offset": 0,
        "slot": "22",
        "type": "t_uint8"
      },
      {
        "astId": 3207,
        "contract": "project/contracts/TCF_NFT.sol:TCF_NFT",
        "label": "NFTPrice_initialized",
        "offset": 1,
        "slot": "22",
        "type": "t_uint8"
      },
      {
        "astId": 3226,
        "contract": "project/contracts/TCF_NFT.sol:TCF_NFT",
        "label": "NFTS",
        "offset": 0,
        "slot": "23",
        "type": "t_mapping(t_uint256,t_struct(equities_store)3221_storage)"
      },
      {
        "astId": 2519,
        "contract": "project/contracts/TCF_NFT.sol:TCF_NFT",
        "label": "_ownedTokenIds",
        "offset": 0,
        "slot": "24",
        "type": "t_mapping(t_address,t_mapping(t_uint256,t_array(t_uint256)dyn_storage))"
      },
      {
        "astId": 2525,
        "contract": "project/contracts/TCF_NFT.sol:TCF_NFT",
        "label": "_mintTimes",
        "offset": 0,
        "slot": "25",
        "type": "t_mapping(t_uint256,t_mapping(t_uint256,t_uint64))"
      },
      {
        "astId": 4154,
        "contract": "project/contracts/TCF_NFT.sol:TCF_NFT",
        "label": "root",
        "offset": 0,
        "slot": "26",
        "type": "t_address"
      },
      {
        "astId": 4156,
        "contract": "project/contracts/TCF_NFT.sol:TCF_NFT",
        "label": "rootInitialized",
        "offset": 20,
        "slot": "26",
        "type": "t_bool"
      },
      {
        "astId": 4161,
        "contract": "project/contracts/TCF_NFT.sol:TCF_NFT",
        "label": "_nodes",
        "offset": 0,
        "slot": "27",
        "type": "t_mapping(t_address,t_struct(Node)4151_storage)"
      },
      {
        "astId": 5156,
        "contract": "project/contracts/TCF_NFT.sol:TCF_NFT",
        "label": "_paused",
        "offset": 0,
        "slot": "28",
        "type": "t_bool"
      },
      {
        "astId": 27,
        "contract": "project/contracts/TCF_NFT.sol:TCF_NFT",
        "label": "withdrawAddress",
        "offset": 1,
        "slot": "28",
        "type": "t_address"
      },
      {
        "astId": 29,
        "contract": "project/contracts/TCF_NFT.sol:TCF_NFT",
        "label": "withdrawAddress_initialized",
        "offset": 21,
        "slot": "28",
        "type": "t_uint8"
      }
    ],
    "types": {
      "t_address": {
        "encoding": "inplace",
        "label": "address",
        "numberOfBytes": "20"
      },
      "t_array(t_address)dyn_storage": {
        "base": "t_address",
        "encoding": "dynamic_array",
        "label": "address[]",
        "numberOfBytes": "32"
      },
      "t_array(t_string_storage)6_storage": {
        "base": "t_string_storage",
        "encoding": "inplace",
        "label": "string[6]",
        "numberOfBytes": "192"
      },
      "t_array(t_uint256)6_storage": {
        "base": "t_uint256",
        "encoding": "inplace",
        "label": "uint256[6]",
        "numberOfBytes": "192"
      },
      "t_array(t_uint256)dyn_storage": {
        "base": "t_uint256",
        "encoding": "dynamic_array",
        "label": "uint256[]",
        "numberOfBytes": "32"
      },
      "t_bool": {
        "encoding": "inplace",
        "label": "bool",
        "numberOfBytes": "1"
      },
      "t_mapping(t_address,t_bool)": {
        "encoding": "mapping",
        "key": "t_address",
        "label": "mapping(address => bool)",
        "numberOfBytes": "32",
        "value": "t_bool"
      },
      "t_mapping(t_address,t_mapping(t_address,t_bool))": {
        "encoding": "mapping",
        "key": "t_address",
        "label": "mapping(address => mapping(address => bool))",
        "numberOfBytes": "32",
        "value": "t_mapping(t_address,t_bool)"
      },
      "t_mapping(t_address,t_mapping(t_uint256,t_array(t_uint256)dyn_storage))": {
        "encoding": "mapping",
        "key": "t_address",
        "label": "mapping(address => mapping(uint256 => uint256[]))",
        "numberOfBytes": "32",
        "value": "t_mapping(t_uint256,t_array(t_uint256)dyn_storage)"
      },
      "t_mapping(t_address,t_struct(Node)4151_storage)": {
        "encoding": "mapping",
        "key": "t_address",
        "label": "mapping(address => struct BinaryTree.Node)",
        "numberOfBytes": "32",
        "value": "t_struct(Node)4151_storage"
      },
      "t_mapping(t_address,t_uint256)": {
        "encoding": "mapping",
        "key": "t_address",
        "label": "mapping(address => uint256)",
        "numberOfBytes": "32",
        "value": "t_uint256"
      },
      "t_mapping(t_address,t_uint8)": {
        "encoding": "mapping",
        "key": "t_address",
        "label": "mapping(address => uint8)",
        "numberOfBytes": "32",
        "value": "t_uint8"
      },
      "t_mapping(t_uint256,t_address)": {
        "encoding": "mapping",
        "key": "t_uint256",
        "label": "mapping(uint256 => address)",
        "numberOfBytes": "32",
        "value": "t_address"
      },
      "t_mapping(t_uint256,t_array(t_uint256)dyn_storage)": {
        "encoding": "mapping",
        "key": "t_uint256",
        "label": "mapping(uint256 => uint256[])",
        "numberOfBytes": "32",
        "value": "t_array(t_uint256)dyn_storage"
      },
      "t_mapping(t_uint256,t_mapping(t_address,t_uint256))": {
        "encoding": "mapping",
        "key": "t_uint256",
        "label": "mapping(uint256 => mapping(address => uint256))",
        "numberOfBytes": "32",
        "value": "t_mapping(t_address,t_uint256)"
      },
      "t_mapping(t_uint256,t_mapping(t_uint256,t_address))": {
        "encoding": "mapping",
        "key": "t_uint256",
        "label": "mapping(uint256 => mapping(uint256 => address))",
        "numberOfBytes": "32",
        "value": "t_mapping(t_uint256,t_address)"
      },
      "t_mapping(t_uint256,t_mapping(t_uint256,t_string_storage))": {
        "encoding": "mapping",
        "key": "t_uint256",
        "label": "mapping(uint256 => mapping(uint256 => string))",
        "numberOfBytes": "32",
        "value": "t_mapping(t_uint256,t_string_storage)"
      },
      "t_mapping(t_uint256,t_mapping(t_uint256,t_uint64))": {
        "encoding": "mapping",
        "key": "t_uint256",
        "label": "mapping(uint256 => mapping(uint256 => uint64))",
        "numberOfBytes": "32",
        "value": "t_mapping(t_uint256,t_uint64)"
      },
      "t_mapping(t_uint256,t_string_storage)": {
        "encoding": "mapping",
        "key": "t_uint256",
        "label": "mapping(uint256 => string)",
        "numberOfBytes": "32",
        "value": "t_string_storage"
      },
      "t_mapping(t_uint256,t_struct(equities_store)3221_storage)": {
        "encoding": "mapping",
        "key": "t_uint256",
        "label": "mapping(uint256 => struct TCF_NFTPrice.equities_store)",
        "numberOfBytes": "32",
        "value": "t_struct(equities_store)3221_storage"
      },
      "t_mapping(t_uint256,t_uint256)": {
        "encoding": "mapping",
        "key": "t_uint256",
        "label": "mapping(uint256 => uint256)",
        "numberOfBytes": "32",
        "value": "t_uint256"
      },
      "t_mapping(t_uint256,t_uint64)": {
        "encoding": "mapping",
        "key": "t_uint256",
        "label": "mapping(uint256 => uint64)",
        "numberOfBytes": "32",
        "value": "t_uint64"
      },
      "t_string_storage": {
        "encoding": "bytes",
        "label": "string",
        "numberOfBytes": "32"
      },
      "t_struct(Node)4151_storage": {
        "encoding": "inplace",
        "label": "struct BinaryTree.Node",
        "members": [
          {
            "astId": 4142,
            "contract": "project/contracts/TCF_NFT.sol:TCF_NFT",
            "label": "parent",
            "offset": 0,
            "slot": "0",
            "type": "t_address"
          },
          {
            "astId": 4144,
            "contract": "project/contracts/TCF_NFT.sol:TCF_NFT",
            "label": "left",
            "offset": 0,
            "slot": "1",
            "type": "t_address"
          },
          {
            "astId": 4146,
            "contract": "project/contracts/TCF_NFT.sol:TCF_NFT",
            "label": "right",
            "offset": 0,
            "slot": "2",
            "type": "t_address"
          },
          {
            "astId": 4148,
            "contract": "project/contracts/TCF_NFT.sol:TCF_NFT",
            "label": "recommender",
            "offset": 0,
            "slot": "3",
            "type": "t_address"
          },
          {
            "astId": 4150,
            "contract": "project/contracts/TCF_NFT.sol:TCF_NFT",
            "label": "exists",
            "offset": 20,
            "slot": "3",
            "type": "t_bool"
          }
        ],
        "numberOfBytes": "128"
      },
      "t_struct(equities_store)3221_storage": {
        "encoding": "inplace",
        "label": "struct TCF_NFTPrice.equities_store",
        "members": [
          {
            "astId": 3216,
            "contract": "project/contracts/TCF_NFT.sol:TCF_NFT",
            "label": "prices",
            "offset": 0,
            "slot": "0",
            "type": "t_mapping(t_address,t_uint256)"
          },
          {
            "astId": 3218,
            "contract": "project/contracts/TCF_NFT.sol:TCF_NFT",
            "label": "ratio",
            "offset": 0,
            "slot": "1",
            "type": "t_uint8"
          },
          {
            "astId": 3220,
            "contract": "project/contracts/TCF_NFT.sol:TCF_NFT",
            "label": "indate",
            "offset": 1,
            "slot": "1",
            "type": "t_uint56"
          }
        ],
        "numberOfBytes": "64"
      },
      "t_uint256": {
        "encoding": "inplace",
        "label": "uint256",
        "numberOfBytes": "32"
      },
      "t_uint56": {
        "encoding": "inplace",
        "label": "uint56",
        "numberOfBytes": "7"
      },
      "t_uint64": {
        "encoding": "inplace",
        "label": "uint64",
        "numberOfBytes": "8"
      },
      "t_uint8": {
        "encoding": "inplace",
        "label": "uint8",
        "numberOfBytes": "1"
      }
    }
  },
  "userdoc": {
    "kind": "user",
    "methods": {
      "getChildren(address)": {
        "notice": "查询某个节点的子节点地址（left, right）"
      },
      "getNodeWorth(address)": {
        "notice": "查询某个节点余额"
      },
      "getOptimalParent(address,address)": {
        "notice": "获取“推荐的父节点”（小区最小策略：优先走子树价值更小的一侧）"
      },
      "getParent(address)": {
        "notice": "查询某个节点的父节点地址"
      },
      "getRecommender(address)": {
        "notice": "查询某个节点的推荐人地址"
      },
      "initPrice((address,uint256)[2][6])": {
        "notice": "只能调用一次，调用前必须确保支持的代币地址已经初始化，不需要检查token地址是否初始化，因为在构造函数中，初始化了TC"
      },
      "initRoot(address)": {
        "notice": "初始化根节点（只能执行一次，且只能由合约部署者/owner 调用）"
      },
      "insert(address,address,bool)": {
        "notice": "插入节点"
      },
      "isExist(address)": {
        "notice": "判断某个地址是否已在树中"
      },
      "root()": {
        "notice": "根节点地址（初始化后不可更改）"
      },
      "subtreeWorth(address)": {
        "notice": "返回某个节点子树（含该节点）余额总和，用于计算某个节点及其左右子树的有效NFT总价值"
      },
      "totalTreeWorth()": {
        "notice": "遍历整颗二叉树，返回所有节点余额总和"
      }
    },
    "version": 1
  },
  "argsData": "0x",
  "transaction": {
    "hash": "0x80f1b1fd5c3ca8d2de5161753eb4fa2217515a2836eedc9daed742df92db5f8b",
    "nonce": "0x4",
    "origin": "0xf39fd6e51aad88f6f4ce6ab8827279cfffb92266"
  }
}