{
  "address": "0xdc64a140aa3e981100a9beca4e685f962f0cf6c9",
  "abi": [
    {
      "anonymous": false,
      "inputs": [
        {
          "indexed": true,
          "internalType": "address",
          "name": "account",
          "type": "address"
        },
        {
          "indexed": true,
          "internalType": "address",
          "name": "operator",
          "type": "address"
        },
        {
          "indexed": false,
          "internalType": "bool",
          "name": "approved",
          "type": "bool"
        }
      ],
      "name": "ApprovalForAll",
      "type": "event"
    },
    {
      "anonymous": false,
      "inputs": [
        {
          "indexed": true,
          "internalType": "uint256",
          "name": "tokenID",
          "type": "uint256"
        },
        {
          "indexed": false,
          "internalType": "uint8",
          "name": "previousRatio",
          "type": "uint8"
        },
        {
          "indexed": false,
          "internalType": "uint8",
          "name": "newRatio",
          "type": "uint8"
        }
      ],
      "name": "DynamicRatioChanged",
      "type": "event"
    },
    {
      "anonymous": false,
      "inputs": [
        {
          "indexed": true,
          "internalType": "uint256",
          "name": "tokenID",
          "type": "uint256"
        },
        {
          "indexed": true,
          "internalType": "address",
          "name": "paymentToken",
          "type": "address"
        },
        {
          "indexed": false,
          "internalType": "uint256",
          "name": "oldPrice",
          "type": "uint256"
        },
        {
          "indexed": false,
          "internalType": "uint256",
          "name": "newPrice",
          "type": "uint256"
        }
      ],
      "name": "NFTPriceChanged",
      "type": "event"
    },
    {
      "anonymous": false,
      "inputs": [
        {
          "indexed": true,
          "internalType": "address",
          "name": "buyer",
          "type": "address"
        },
        {
          "indexed": true,
          "internalType": "uint256",
          "name": "tokenId",
          "type": "uint256"
        },
        {
          "indexed": false,
          "internalType": "uint256",
          "name": "amount",
          "type": "uint256"
        },
        {
          "indexed": false,
          "internalType": "uint256",
          "name": "pricePerUnit",
          "type": "uint256"
        }
      ],
      "name": "NFTPurchasedWithTC",
      "type": "event"
    },
    {
      "anonymous": false,
      "inputs": [
        {
          "indexed": true,
          "internalType": "address",
          "name": "buyer",
          "type": "address"
        },
        {
          "indexed": true,
          "internalType": "address",
          "name": "paymentToken",
          "type": "address"
        },
        {
          "indexed": true,
          "internalType": "uint256",
          "name": "tokenId",
          "type": "uint256"
        },
        {
          "indexed": false,
          "internalType": "uint256",
          "name": "amount",
          "type": "uint256"
        },
        {
          "indexed": false,
          "internalType": "uint256",
          "name": "pricePerUnit",
          "type": "uint256"
        }
      ],
      "name": "NFTPurchasedWithToken",
      "type": "event"
    },
    {
      "anonymous": false,
      "inputs": [
        {
          "indexed": true,
          "internalType": "address",
          "name": "node",
          "type": "address"
        },
        {
          "indexed": true,
          "internalType": "address",
          "name": "parent",
          "type": "address"
        },
        {
          "indexed": true,
          "internalType": "address",
          "name": "recommender",
          "type": "address"
        },
        {
          "indexed": false,
          "internalType": "bool",
          "name": "isLeft",
          "type": "bool"
        }
      ],
      "name": "NodeInserted",
      "type": "event"
    },
    {
      "anonymous": false,
      "inputs": [
        {
          "indexed": true,
          "internalType": "address",
          "name": "previousOwner",
          "type": "address"
        },
        {
          "indexed": true,
          "internalType": "address",
          "name": "newOwner",
          "type": "address"
        }
      ],
      "name": "OwnershipTransferred",
      "type": "event"
    },
    {
      "anonymous": false,
      "inputs": [
        {
          "indexed": false,
          "internalType": "address",
          "name": "account",
          "type": "address"
        }
      ],
      "name": "Paused",
      "type": "event"
    },
    {
      "anonymous": false,
      "inputs": [
        {
          "indexed": true,
          "internalType": "address",
          "name": "root",
          "type": "address"
        }
      ],
      "name": "RootInitialized",
      "type": "event"
    },
    {
      "anonymous": false,
      "inputs": [
        {
          "indexed": true,
          "internalType": "address",
          "name": "to",
          "type": "address"
        },
        {
          "indexed": true,
          "internalType": "uint256",
          "name": "tokenId",
          "type": "uint256"
        },
        {
          "indexed": false,
          "internalType": "uint256",
          "name": "editionId",
          "type": "uint256"
        },
        {
          "indexed": false,
          "internalType": "uint256",
          "name": "mintedAt",
          "type": "uint256"
        }
      ],
      "name": "TokenEditionMinted",
      "type": "event"
    },
    {
      "anonymous": false,
      "inputs": [
        {
          "indexed": true,
          "internalType": "address",
          "name": "operator",
          "type": "address"
        },
        {
          "indexed": true,
          "internalType": "address",
          "name": "from",
          "type": "address"
        },
        {
          "indexed": true,
          "internalType": "address",
          "name": "to",
          "type": "address"
        },
        {
          "indexed": false,
          "internalType": "uint256[]",
          "name": "ids",
          "type": "uint256[]"
        },
        {
          "indexed": false,
          "internalType": "uint256[]",
          "name": "values",
          "type": "uint256[]"
        }
      ],
      "name": "TransferBatch",
      "type": "event"
    },
    {
      "anonymous": false,
      "inputs": [
        {
          "indexed": true,
          "internalType": "address",
          "name": "operator",
          "type": "address"
        },
        {
          "indexed": true,
          "internalType": "address",
          "name": "from",
          "type": "address"
        },
        {
          "indexed": true,
          "internalType": "address",
          "name": "to",
          "type": "address"
        },
        {
          "indexed": false,
          "internalType": "uint256",
          "name": "id",
          "type": "uint256"
        },
        {
          "indexed": false,
          "internalType": "uint256",
          "name": "value",
          "type": "uint256"
        }
      ],
      "name": "TransferSingle",
      "type": "event"
    },
    {
      "anonymous": false,
      "inputs": [
        {
          "indexed": false,
          "internalType": "string",
          "name": "value",
          "type": "string"
        },
        {
          "indexed": true,
          "internalType": "uint256",
          "name": "id",
          "type": "uint256"
        }
      ],
      "name": "URI",
      "type": "event"
    },
    {
      "anonymous": false,
      "inputs": [
        {
          "indexed": false,
          "internalType": "address",
          "name": "account",
          "type": "address"
        }
      ],
      "name": "Unpaused",
      "type": "event"
    },
    {
      "anonymous": false,
      "inputs": [
        {
          "indexed": true,
          "internalType": "address",
          "name": "operator",
          "type": "address"
        },
        {
          "indexed": true,
          "internalType": "address",
          "name": "previousAddress",
          "type": "address"
        },
        {
          "indexed": true,
          "internalType": "address",
          "name": "newAddress",
          "type": "address"
        }
      ],
      "name": "WithdrawAddressUpdated",
      "type": "event"
    },
    {
      "inputs": [
        {
          "internalType": "address",
          "name": "from",
          "type": "address"
        },
        {
          "internalType": "address",
          "name": "to",
          "type": "address"
        },
        {
          "internalType": "uint256",
          "name": "id",
          "type": "uint256"
        },
        {
          "internalType": "uint256[]",
          "name": "indexes",
          "type": "uint256[]"
        },
        {
          "internalType": "bytes",
          "name": "data",
          "type": "bytes"
        }
      ],
      "name": "ESafeTransferFrom",
      "outputs": [],
      "stateMutability": "nonpayable",
      "type": "function"
    },
    {
      "inputs": [
        {
          "internalType": "uint256",
          "name": "tokenId",
          "type": "uint256"
        }
      ],
      "name": "Euri",
      "outputs": [
        {
          "internalType": "string",
          "name": "",
          "type": "string"
        }
      ],
      "stateMutability": "view",
      "type": "function"
    },
    {
      "inputs": [],
      "name": "NFTPrice_initialized",
      "outputs": [
        {
          "internalType": "uint8",
          "name": "",
          "type": "uint8"
        }
      ],
      "stateMutability": "view",
      "type": "function"
    },
    {
      "inputs": [
        {
          "internalType": "uint256",
          "name": "",
          "type": "uint256"
        }
      ],
      "name": "NFTS",
      "outputs": [
        {
          "internalType": "uint8",
          "name": "ratio",
          "type": "uint8"
        },
        {
          "internalType": "uint32",
          "name": "indate",
          "type": "uint32"
        }
      ],
      "stateMutability": "view",
      "type": "function"
    },
    {
      "inputs": [],
      "name": "_initializedURIStorage",
      "outputs": [
        {
          "internalType": "uint8",
          "name": "",
          "type": "uint8"
        }
      ],
      "stateMutability": "view",
      "type": "function"
    },
    {
      "inputs": [
        {
          "internalType": "address",
          "name": "_tokenAddress",
          "type": "address"
        }
      ],
      "name": "addSupportedToken",
      "outputs": [],
      "stateMutability": "nonpayable",
      "type": "function"
    },
    {
      "inputs": [
        {
          "internalType": "address",
          "name": "account",
          "type": "address"
        },
        {
          "internalType": "uint256",
          "name": "id",
          "type": "uint256"
        }
      ],
      "name": "balanceOf",
      "outputs": [
        {
          "internalType": "uint256",
          "name": "",
          "type": "uint256"
        }
      ],
      "stateMutability": "view",
      "type": "function"
    },
    {
      "inputs": [
        {
          "internalType": "address[]",
          "name": "",
          "type": "address[]"
        },
        {
          "internalType": "uint256[]",
          "name": "",
          "type": "uint256[]"
        }
      ],
      "name": "balanceOfBatch",
      "outputs": [
        {
          "internalType": "uint256[]",
          "name": "",
          "type": "uint256[]"
        }
      ],
      "stateMutability": "view",
      "type": "function"
    },
    {
      "inputs": [
        {
          "internalType": "address",
          "name": "account",
          "type": "address"
        },
        {
          "internalType": "uint256",
          "name": "id",
          "type": "uint256"
        },
        {
          "internalType": "uint256",
          "name": "buyAmount",
          "type": "uint256"
        }
      ],
      "name": "buyNFTByTC",
      "outputs": [],
      "stateMutability": "payable",
      "type": "function"
    },
    {
      "inputs": [
        {
          "internalType": "uint256",
          "name": "tokenID",
          "type": "uint256"
        },
        {
          "internalType": "uint8",
          "name": "newRatio",
          "type": "uint8"
        }
      ],
      "name": "changeDynamicRatio",
      "outputs": [],
      "stateMutability": "nonpayable",
      "type": "function"
    },
    {
      "inputs": [
        {
          "internalType": "uint256",
          "name": "tokenID",
          "type": "uint256"
        },
        {
          "internalType": "address",
          "name": "tokenAddress",
          "type": "address"
        },
        {
          "internalType": "uint256",
          "name": "amount",
          "type": "uint256"
        }
      ],
      "name": "changeNFTPrice",
      "outputs": [],
      "stateMutability": "nonpayable",
      "type": "function"
    },
    {
      "inputs": [
        {
          "components": [
            {
              "internalType": "address",
              "name": "tokenAddress",
              "type": "address"
            },
            {
              "internalType": "uint256",
              "name": "amount",
              "type": "uint256"
            }
          ],
          "internalType": "struct TCF_NFTPrice.priceTypeAndAomut[][6]",
          "name": "prices",
          "type": "tuple[][6]"
        }
      ],
      "name": "checkInitPricesParams",
      "outputs": [
        {
          "internalType": "string",
          "name": "",
          "type": "string"
        }
      ],
      "stateMutability": "view",
      "type": "function"
    },
    {
      "inputs": [
        {
          "internalType": "address",
          "name": "node",
          "type": "address"
        }
      ],
      "name": "getChildren",
      "outputs": [
        {
          "internalType": "address",
          "name": "left",
          "type": "address"
        },
        {
          "internalType": "address",
          "name": "right",
          "type": "address"
        }
      ],
      "stateMutability": "view",
      "type": "function"
    },
    {
      "inputs": [
        {
          "internalType": "uint256",
          "name": "tokenID",
          "type": "uint256"
        },
        {
          "internalType": "address",
          "name": "_tokenAddress",
          "type": "address"
        }
      ],
      "name": "getNFTPrice",
      "outputs": [
        {
          "internalType": "string",
          "name": "",
          "type": "string"
        },
        {
          "internalType": "uint256",
          "name": "",
          "type": "uint256"
        }
      ],
      "stateMutability": "view",
      "type": "function"
    },
    {
      "inputs": [
        {
          "internalType": "uint256",
          "name": "tokenId",
          "type": "uint256"
        },
        {
          "internalType": "address",
          "name": "account",
          "type": "address"
        },
        {
          "internalType": "uint256",
          "name": "editionId",
          "type": "uint256"
        }
      ],
      "name": "getNftMintTime",
      "outputs": [
        {
          "internalType": "uint256",
          "name": "",
          "type": "uint256"
        }
      ],
      "stateMutability": "view",
      "type": "function"
    },
    {
      "inputs": [
        {
          "internalType": "address",
          "name": "node",
          "type": "address"
        }
      ],
      "name": "getNodeBalance",
      "outputs": [
        {
          "internalType": "uint256",
          "name": "",
          "type": "uint256"
        }
      ],
      "stateMutability": "view",
      "type": "function"
    },
    {
      "inputs": [
        {
          "internalType": "address",
          "name": "node",
          "type": "address"
        }
      ],
      "name": "getParent",
      "outputs": [
        {
          "internalType": "address",
          "name": "",
          "type": "address"
        }
      ],
      "stateMutability": "view",
      "type": "function"
    },
    {
      "inputs": [
        {
          "internalType": "address",
          "name": "recommender",
          "type": "address"
        }
      ],
      "name": "getRecommendedParent",
      "outputs": [
        {
          "internalType": "address",
          "name": "parent",
          "type": "address"
        },
        {
          "internalType": "bool",
          "name": "isLeftBranch",
          "type": "bool"
        }
      ],
      "stateMutability": "view",
      "type": "function"
    },
    {
      "inputs": [
        {
          "internalType": "address",
          "name": "node",
          "type": "address"
        }
      ],
      "name": "getRecommender",
      "outputs": [
        {
          "internalType": "address",
          "name": "",
          "type": "address"
        }
      ],
      "stateMutability": "view",
      "type": "function"
    },
    {
      "inputs": [
        {
          "internalType": "address",
          "name": "owner",
          "type": "address"
        }
      ],
      "name": "getTotalNFTWorth",
      "outputs": [
        {
          "internalType": "uint256",
          "name": "",
          "type": "uint256"
        }
      ],
      "stateMutability": "view",
      "type": "function"
    },
    {
      "inputs": [
        {
          "internalType": "address",
          "name": "account",
          "type": "address"
        },
        {
          "internalType": "uint256",
          "name": "tokenId",
          "type": "uint256"
        }
      ],
      "name": "getUserTokenIds",
      "outputs": [
        {
          "internalType": "uint256[]",
          "name": "",
          "type": "uint256[]"
        }
      ],
      "stateMutability": "view",
      "type": "function"
    },
    {
      "inputs": [
        {
          "components": [
            {
              "internalType": "address",
              "name": "tokenAddress",
              "type": "address"
            },
            {
              "internalType": "uint256",
              "name": "amount",
              "type": "uint256"
            }
          ],
          "internalType": "struct TCF_NFTPrice.priceTypeAndAomut[][6]",
          "name": "prices",
          "type": "tuple[][6]"
        }
      ],
      "name": "initPrice",
      "outputs": [],
      "stateMutability": "nonpayable",
      "type": "function"
    },
    {
      "inputs": [
        {
          "internalType": "address",
          "name": "rootAddress",
          "type": "address"
        }
      ],
      "name": "initRoot",
      "outputs": [],
      "stateMutability": "nonpayable",
      "type": "function"
    },
    {
      "inputs": [
        {
          "internalType": "address",
          "name": "node",
          "type": "address"
        },
        {
          "internalType": "address",
          "name": "parent",
          "type": "address"
        },
        {
          "internalType": "address",
          "name": "recommender",
          "type": "address"
        },
        {
          "internalType": "bool",
          "name": "isLeft",
          "type": "bool"
        }
      ],
      "name": "insert",
      "outputs": [],
      "stateMutability": "nonpayable",
      "type": "function"
    },
    {
      "inputs": [
        {
          "internalType": "address",
          "name": "account",
          "type": "address"
        },
        {
          "internalType": "address",
          "name": "operator",
          "type": "address"
        }
      ],
      "name": "isApprovedForAll",
      "outputs": [
        {
          "internalType": "bool",
          "name": "",
          "type": "bool"
        }
      ],
      "stateMutability": "view",
      "type": "function"
    },
    {
      "inputs": [
        {
          "internalType": "address",
          "name": "node",
          "type": "address"
        }
      ],
      "name": "isExist",
      "outputs": [
        {
          "internalType": "bool",
          "name": "",
          "type": "bool"
        }
      ],
      "stateMutability": "view",
      "type": "function"
    },
    {
      "inputs": [
        {
          "internalType": "address",
          "name": "token",
          "type": "address"
        }
      ],
      "name": "isSupported",
      "outputs": [
        {
          "internalType": "uint8",
          "name": "",
          "type": "uint8"
        }
      ],
      "stateMutability": "view",
      "type": "function"
    },
    {
      "inputs": [
        {
          "internalType": "address",
          "name": "node",
          "type": "address"
        }
      ],
      "name": "minChildSubtreeBalance",
      "outputs": [
        {
          "internalType": "uint256",
          "name": "",
          "type": "uint256"
        }
      ],
      "stateMutability": "view",
      "type": "function"
    },
    {
      "inputs": [
        {
          "internalType": "address",
          "name": "",
          "type": "address"
        },
        {
          "internalType": "address",
          "name": "from",
          "type": "address"
        },
        {
          "internalType": "uint256",
          "name": "amount",
          "type": "uint256"
        },
        {
          "internalType": "bytes",
          "name": "data",
          "type": "bytes"
        }
      ],
      "name": "onTransferReceived",
      "outputs": [
        {
          "internalType": "bytes4",
          "name": "",
          "type": "bytes4"
        }
      ],
      "stateMutability": "nonpayable",
      "type": "function"
    },
    {
      "inputs": [],
      "name": "owner",
      "outputs": [
        {
          "internalType": "address",
          "name": "",
          "type": "address"
        }
      ],
      "stateMutability": "view",
      "type": "function"
    },
    {
      "inputs": [
        {
          "internalType": "uint256",
          "name": "tokenId",
          "type": "uint256"
        },
        {
          "internalType": "uint256",
          "name": "editionId",
          "type": "uint256"
        }
      ],
      "name": "ownerOf",
      "outputs": [
        {
          "internalType": "address",
          "name": "",
          "type": "address"
        }
      ],
      "stateMutability": "view",
      "type": "function"
    },
    {
      "inputs": [],
      "name": "pause",
      "outputs": [],
      "stateMutability": "nonpayable",
      "type": "function"
    },
    {
      "inputs": [],
      "name": "paused",
      "outputs": [
        {
          "internalType": "bool",
          "name": "",
          "type": "bool"
        }
      ],
      "stateMutability": "view",
      "type": "function"
    },
    {
      "inputs": [],
      "name": "renounceOwnership",
      "outputs": [],
      "stateMutability": "nonpayable",
      "type": "function"
    },
    {
      "inputs": [],
      "name": "root",
      "outputs": [
        {
          "internalType": "address",
          "name": "",
          "type": "address"
        }
      ],
      "stateMutability": "view",
      "type": "function"
    },
    {
      "inputs": [],
      "name": "rootInitialized",
      "outputs": [
        {
          "internalType": "bool",
          "name": "",
          "type": "bool"
        }
      ],
      "stateMutability": "view",
      "type": "function"
    },
    {
      "inputs": [
        {
          "internalType": "address",
          "name": "",
          "type": "address"
        },
        {
          "internalType": "address",
          "name": "",
          "type": "address"
        },
        {
          "internalType": "uint256[]",
          "name": "",
          "type": "uint256[]"
        },
        {
          "internalType": "uint256[]",
          "name": "",
          "type": "uint256[]"
        },
        {
          "internalType": "bytes",
          "name": "",
          "type": "bytes"
        }
      ],
      "name": "safeBatchTransferFrom",
      "outputs": [],
      "stateMutability": "nonpayable",
      "type": "function"
    },
    {
      "inputs": [
        {
          "internalType": "address",
          "name": "",
          "type": "address"
        },
        {
          "internalType": "address",
          "name": "",
          "type": "address"
        },
        {
          "internalType": "uint256",
          "name": "",
          "type": "uint256"
        },
        {
          "internalType": "uint256",
          "name": "",
          "type": "uint256"
        },
        {
          "internalType": "bytes",
          "name": "",
          "type": "bytes"
        }
      ],
      "name": "safeTransferFrom",
      "outputs": [],
      "stateMutability": "nonpayable",
      "type": "function"
    },
    {
      "inputs": [
        {
          "internalType": "address",
          "name": "operator",
          "type": "address"
        },
        {
          "internalType": "bool",
          "name": "approved",
          "type": "bool"
        }
      ],
      "name": "setApprovalForAll",
      "outputs": [],
      "stateMutability": "nonpayable",
      "type": "function"
    },
    {
      "inputs": [
        {
          "internalType": "bytes[6]",
          "name": "baseURI",
          "type": "bytes[6]"
        }
      ],
      "name": "setBaseURI",
      "outputs": [],
      "stateMutability": "nonpayable",
      "type": "function"
    },
    {
      "inputs": [
        {
          "internalType": "address",
          "name": "addr",
          "type": "address"
        }
      ],
      "name": "setWithdrawAddress",
      "outputs": [],
      "stateMutability": "nonpayable",
      "type": "function"
    },
    {
      "inputs": [
        {
          "internalType": "address",
          "name": "node",
          "type": "address"
        }
      ],
      "name": "subtreeBalance",
      "outputs": [
        {
          "internalType": "uint256",
          "name": "",
          "type": "uint256"
        }
      ],
      "stateMutability": "view",
      "type": "function"
    },
    {
      "inputs": [],
      "name": "supportedTokenAmount",
      "outputs": [
        {
          "internalType": "uint256",
          "name": "",
          "type": "uint256"
        }
      ],
      "stateMutability": "view",
      "type": "function"
    },
    {
      "inputs": [
        {
          "internalType": "bytes4",
          "name": "interfaceId",
          "type": "bytes4"
        }
      ],
      "name": "supportsInterface",
      "outputs": [
        {
          "internalType": "bool",
          "name": "",
          "type": "bool"
        }
      ],
      "stateMutability": "view",
      "type": "function"
    },
    {
      "inputs": [
        {
          "internalType": "uint256",
          "name": "",
          "type": "uint256"
        }
      ],
      "name": "tokenAddress_array",
      "outputs": [
        {
          "internalType": "address",
          "name": "",
          "type": "address"
        }
      ],
      "stateMutability": "view",
      "type": "function"
    },
    {
      "inputs": [],
      "name": "totalTreeBalance",
      "outputs": [
        {
          "internalType": "uint256",
          "name": "",
          "type": "uint256"
        }
      ],
      "stateMutability": "view",
      "type": "function"
    },
    {
      "inputs": [
        {
          "internalType": "address",
          "name": "newOwner",
          "type": "address"
        }
      ],
      "name": "transferOwnership",
      "outputs": [],
      "stateMutability": "nonpayable",
      "type": "function"
    },
    {
      "inputs": [],
      "name": "unpause",
      "outputs": [],
      "stateMutability": "nonpayable",
      "type": "function"
    },
    {
      "inputs": [
        {
          "internalType": "uint256",
          "name": "",
          "type": "uint256"
        }
      ],
      "name": "uri",
      "outputs": [
        {
          "internalType": "string",
          "name": "",
          "type": "string"
        }
      ],
      "stateMutability": "view",
      "type": "function"
    },
    {
      "inputs": [],
      "name": "withdrawAddress",
      "outputs": [
        {
          "internalType": "address",
          "name": "",
          "type": "address"
        }
      ],
      "stateMutability": "view",
      "type": "function"
    },
    {
      "inputs": [],
      "name": "withdrawAddress_initialized",
      "outputs": [
        {
          "internalType": "uint8",
          "name": "",
          "type": "uint8"
        }
      ],
      "stateMutability": "view",
      "type": "function"
    }
  ],
  "contractName": "TCF_NFT",
  "sourceName": "contracts/TCF_NFT.sol",
  "bytecode": "0x60806040523480156200001157600080fd5b506200002662000020620000b1565b620000b5565b60126020527f71a67924699a20698523213e55fe499d539379d7769cd5567e2c45d583f815a38054600160ff1991821681179092556014805480840182556000919091527fce6d7b5282bd9a3661ae061feed1dbda4e52ab073b1f9285be6e155d9c38d4ec0180546001600160a01b03191683179055601391909155601b8054909116905562000107565b3390565b600980546001600160a01b038381166001600160a01b0319831681179093556040519116919082907f8be0079c531659141344cd1fd0a4f28419497f9722a3daafe3b4186f6b6457e090600090a35050565b614e0980620001176000396000f3fe6080604052600436106102e25760003560e01c80636999fa4511610190578063a15113d1116100dc578063d3ab744311610095578063e985e9c51161006f578063e985e9c5146108d4578063ebf0c717146108f4578063f242432a14610909578063f2fde38b14610929576102e2565b8063d3ab744314610874578063d9dad80d14610894578063e5030adc146108b4576102e2565b8063a15113d1146107b1578063a22cb465146107c6578063a9405923146107e6578063aa31281c14610806578063b788920e14610826578063c9b6b48514610846576102e2565b80638456cb59116101495780638da5cb5b116101235780638da5cb5b1461074757806392aeff481461075c5780639da879b41461077c5780639f2980db14610791576102e2565b80638456cb59146106d757806386ff9113146106ec57806388a7ca5c1461071a576102e2565b80636999fa451461061f5780636d69fcaf1461064d578063715018a61461066d5780637a915fde146106825780637c8e2da71461069757806383023c88146106b7576102e2565b80632fedbf3c1161024f5780634e1273f411610208578063598c27bc116101e2578063598c27bc146105c25780635c92dbd6146105e25780635c975abb146105f5578063651583ee1461060a576102e2565b80634e1273f4146105555780634f129c531461058257806355826313146105a2576102e2565b80632fedbf3c146104905780633a4d2d3a146104b05780633ab1a494146104d05780633f257599146104f05780633f4ba83a1461051e5780634c8cb67214610533576102e2565b80631581b600116102a15780631581b600146103e457806319d62e57146103f95780631f3fd6181461041957806323361283146104395780632653335a1461044e5780632eb2c2d61461046e576102e2565b806213eb4b146102e7578062fdd58e1461031d57806301ffc9a71461034a57806307f241ce1461036a5780630e89341c1461038a578063153154fd146103b7575b600080fd5b3480156102f357600080fd5b50610307610302366004613c7e565b610949565b6040516103149190614475565b60405180910390f35b34801561032957600080fd5b5061033d610338366004613f6e565b6109a7565b6040516103149190614b0b565b34801561035657600080fd5b50610307610365366004614146565b6109bc565b34801561037657600080fd5b5061033d610385366004613c7e565b6109e1565b34801561039657600080fd5b506103aa6103a5366004614239565b610a2c565b6040516103149190614495565b3480156103c357600080fd5b506103d76103d2366004613c7e565b610a46565b60405161031491906143a3565b3480156103f057600080fd5b506103d7610aaa565b34801561040557600080fd5b506103d7610414366004614239565b610abe565b34801561042557600080fd5b506103aa610434366004614091565b610ae8565b34801561044557600080fd5b5061033d610df8565b34801561045a57600080fd5b5061033d610469366004613c7e565b610dfe565b34801561047a57600080fd5b5061048e610489366004613d1d565b610f04565b005b34801561049c57600080fd5b5061048e6104ab3660046140c8565b610f1c565b3480156104bc57600080fd5b5061048e6104cb366004614091565b610fae565b3480156104dc57600080fd5b5061048e6104eb366004613c7e565b6112bc565b3480156104fc57600080fd5b5061051061050b366004613c7e565b61139f565b604051610314929190614416565b34801561052a57600080fd5b5061048e6114ee565b34801561053f57600080fd5b50610548611500565b6040516103149190614b22565b34801561056157600080fd5b50610575610570366004613fc9565b61150e565b6040516103149190614431565b34801561058e57600080fd5b5061054861059d366004613c7e565b611528565b3480156105ae57600080fd5b5061048e6105bd366004614273565b61155c565b3480156105ce57600080fd5b5061048e6105dd366004613dc2565b611614565b61048e6105f0366004613f97565b611674565b34801561060157600080fd5b50610307611896565b34801561061657600080fd5b506103076118a0565b34801561062b57600080fd5b5061063f61063a366004613c7e565b6118b0565b6040516103149291906143b7565b34801561065957600080fd5b5061048e610668366004613c7e565b611923565b34801561067957600080fd5b5061048e611a0c565b34801561068e57600080fd5b50610548611a1e565b3480156106a357600080fd5b5061033d6106b2366004613c7e565b611a27565b3480156106c357600080fd5b5061048e6106d23660046142eb565b611a9e565b3480156106e357600080fd5b5061048e611b57565b3480156106f857600080fd5b5061070c610707366004614251565b611b67565b6040516103149291906144a8565b34801561072657600080fd5b5061073a610735366004613e7e565b611c14565b6040516103149190614480565b34801561075357600080fd5b506103d7611e3e565b34801561076857600080fd5b5061048e610777366004613c7e565b611e4d565b34801561078857600080fd5b50610548611f39565b34801561079d57600080fd5b5061048e6107ac366004613cca565b611f49565b3480156107bd57600080fd5b5061033d612258565b3480156107d257600080fd5b5061048e6107e1366004613f45565b61229e565b3480156107f257600080fd5b506103d7610801366004613c7e565b6122b4565b34801561081257600080fd5b5061033d610821366004614273565b612315565b34801561083257600080fd5b50610575610841366004613f6e565b612367565b34801561085257600080fd5b50610866610861366004614239565b6123fc565b604051610314929190614b30565b34801561088057600080fd5b506103aa61088f366004614239565b612421565b3480156108a057600080fd5b506103d76108af3660046142a7565b61251b565b3480156108c057600080fd5b5061033d6108cf366004613c7e565b612564565b3480156108e057600080fd5b506103076108ef366004613c98565b612716565b34801561090057600080fd5b506103d7612744565b34801561091557600080fd5b5061048e610924366004613ee3565b612753565b34801561093557600080fd5b5061048e610944366004613c7e565b61276b565b60006001600160a01b03821661097a5760405162461bcd60e51b815260040161097190614781565b60405180910390fd5b506001600160a01b0381166000908152601a6020526040902060030154600160a01b900460ff165b919050565b60006109b383836127a5565b90505b92915050565b60006001600160e01b03198216632229f29760e21b14806109b657506109b682612815565b6001600160a01b0381166000908152601a6020526040812060030154600160a01b900460ff16610a235760405162461bcd60e51b815260040161097190614ae2565b6109b682612564565b606060405162461bcd60e51b815260040161097190614a1f565b6001600160a01b0381166000908152601a6020526040812060030154600160a01b900460ff16610a885760405162461bcd60e51b815260040161097190614ae2565b506001600160a01b039081166000908152601a60205260409020600301541690565b601b5461010090046001600160a01b031681565b60148181548110610ace57600080fd5b6000918252602090912001546001600160a01b0316905081565b606060005b6006811015610de257601354838260068110610b1957634e487b7160e01b600052603260045260246000fd5b602002810190610b299190614b5d565b905014610b5857505060408051808201909152600a815269282924a1a2a9afa622a760b11b60208201526109a2565b6000806000858460068110610b7d57634e487b7160e01b600052603260045260246000fd5b602002810190610b8d9190614b5d565b808060200260200160405190810160405280939291908181526020016000905b82821015610bd957610bca604083028601368190038101906141fb565b81526020019060010190610bad565b5050505050905060005b601354811015610d54576000828281518110610c0f57634e487b7160e01b600052603260045260246000fd5b60209081029190910101515190506001600160a01b038116610c345760019450610c39565b600193505b60006001600160a01b0316838381518110610c6457634e487b7160e01b600052603260045260246000fd5b6020026020010151600001516001600160a01b031614158015610cd3575060126000848481518110610ca657634e487b7160e01b600052603260045260246000fd5b602090810291909101810151516001600160a01b031682528101919091526040016000205460ff16600114155b15610d4357610d36838381518110610cfb57634e487b7160e01b600052603260045260246000fd5b602002602001015160000151604051806040016040528060118152602001701513d2d15397d55394d5541413d4951151607a1b815250612855565b96505050505050506109a2565b50610d4d81614cce565b9050610be3565b5082610d9157604051806040016040528060138152602001721510d7d4149250d157d35554d517d1561254d5606a1b8152509450505050506109a2565b81610dce57604051806040016040528060148152602001731110d197d4149250d157d35554d517d1561254d560621b8152509450505050506109a2565b50505080610ddb90614cce565b9050610aed565b5050604080516020810190915260008152919050565b60135481565b601954600090600160a01b900460ff16610e2a5760405162461bcd60e51b815260040161097190614729565b6001600160a01b0382166000908152601a6020526040902060030154600160a01b900460ff16610e6c5760405162461bcd60e51b815260040161097190614ae2565b6001600160a01b038083166000908152601a60205260408120600181015490921615610eae576001820154610ea9906001600160a01b0316612889565b610eb1565b60005b60028301549091506000906001600160a01b031615610ee6576002830154610ee1906001600160a01b0316612889565b610ee9565b60005b905080821115610ef95780610efb565b815b95945050505050565b60405162461bcd60e51b815260040161097190614a6e565b610f24612928565b60005b6006811015610f9d57818160068110610f5057634e487b7160e01b600052603260045260246000fd5b6020020151600a8260068110610f7657634e487b7160e01b600052603260045260246000fd5b019080519060200190610f8a929190613af5565b5080610f9581614cce565b915050610f27565b50506010805460ff19166001179055565b610fb6612928565b60155460ff16600114610fdb5760405162461bcd60e51b8152600401610971906149c0565b601554610100900460ff16156110035760405162461bcd60e51b815260040161097190614827565b600061100e82610ae8565b90508051600014611033578060405162461bcd60e51b81526004016109719190614495565b6040805160c0808201835262ed4e008252630107ac0060208084019190915263013c68008385015263017124006060808501919091526301a5e0006080808601919091526301da9c0060a0808701919091528651948501875260288552603293850193909352603c95840195909552605090830152605a938201939093526064928101929092529060006110c78580614b5d565b9050905060005b60068110156112a5578381600681106110f757634e487b7160e01b600052603260045260246000fd5b60200201516016600083815260200190815260200160002060010160016101000a81548163ffffffff021916908363ffffffff16021790555082816006811061115057634e487b7160e01b600052603260045260246000fd5b602090810291909101516000838152601690925260408220600101805460ff191660ff9092169190911790555b828110156112945760008783600681106111a757634e487b7160e01b600052603260045260246000fd5b6020028101906111b79190614b5d565b838181106111d557634e487b7160e01b600052603260045260246000fd5b6111eb9260206040909202019081019150613c7e565b90506001600160a01b0381166111ff575060015b87836006811061121f57634e487b7160e01b600052603260045260246000fd5b60200281019061122f9190614b5d565b8381811061124d57634e487b7160e01b600052603260045260246000fd5b60008681526016602090815260408083206001600160a01b03979097168352958152908590209190940292909201909201359055508061128c81614cce565b91505061117d565b5061129e81614cce565b90506110ce565b50506015805461ff00191661010017905550505050565b6112c4612928565b6001600160a01b0381166112ea5760405162461bcd60e51b815260040161097190614781565b6001600160a01b0381163b156113125760405162461bcd60e51b815260040161097190614a41565b601b80546001600160a01b03838116610100908102610100600160a81b031984161793849055909104169060ff600160a81b9091041661136057601b805460ff60a81b1916600160a81b1790555b6040516001600160a01b03808416919083169033907facf3042cca6ca3830bf91869d4343cead97657cc9e8973fdbd665b55c3e1f49890600090a45050565b6019546000908190600160a01b900460ff166113cd5760405162461bcd60e51b815260040161097190614729565b6001600160a01b0383166000908152601a6020526040902060030154600160a01b900460ff1661140f5760405162461bcd60e51b81526004016109719061490f565b825b6001600160a01b038082166000908152601a6020526040812060018101549092161561145357600182015461144e906001600160a01b0316612889565b611456565b60005b60028301549091506000906001600160a01b03161561148b576002830154611486906001600160a01b0316612889565b61148e565b60005b9050808211156000816114ae5760028501546001600160a01b03166114bd565b60018501546001600160a01b03165b90506001600160a01b0381166114dd57509395509293506114e992505050565b94506114119350505050565b915091565b6114f6612928565b6114fe612967565b565b601554610100900460ff1681565b606060405162461bcd60e51b815260040161097190614a6e565b60006001600160a01b03821661153d57600191505b506001600160a01b031660009081526012602052604090205460ff1690565b611564612928565b600061157084846129b9565b90508051600014611595578060405162461bcd60e51b81526004016109719190614495565b6001600160a01b0383166115a857600192505b60008481526016602090815260408083206001600160a01b038716808552925291829020805490859055915186907f8747a56dd6a09ab1378db3a842a4724d75642265b104e31a28fa736ce71912b3906116059085908890614b14565b60405180910390a35050505050565b61161c612abb565b6001600160a01b0316866001600160a01b031614806116425750611642866108ef612abb565b61165e5760405162461bcd60e51b8152600401610971906145a0565b61166c868686868686612abf565b505050505050565b61167c612adc565b601b54600160a81b900460ff166001146116a85760405162461bcd60e51b8152600401610971906146f2565b601954600160a01b900460ff166116d15760405162461bcd60e51b815260040161097190614729565b60155460ff610100909104166001146116fc5760405162461bcd60e51b8152600401610971906149ef565b60105460ff166001146117215760405162461bcd60e51b815260040161097190614853565b61172a83610949565b6117465760405162461bcd60e51b815260040161097190614ae2565b600080611754846000611b67565b915091508151600014829061177c5760405162461bcd60e51b81526004016109719190614495565b506117878382614c05565b341480156117955750600083115b6117b15760405162461bcd60e51b81526004016109719061493e565b6117cc85858560405180602001604052806000815250612b01565b83856001600160a01b03167f5fce8741d2fa2920f00e6fda1be1ede8d7a2d1379bc099f79aa3b438a86de2978584604051611808929190614b14565b60405180910390a3601b5460405160009161010090046001600160a01b03169034906118339061189d565b60006040518083038185875af1925050503d8060008114611870576040519150601f19603f3d011682016040523d82523d6000602084013e611875565b606091505b505090508061166c5760405162461bcd60e51b8152600401610971906147fb565b601b5460ff165b90565b601954600160a01b900460ff1681565b6001600160a01b0381166000908152601a60205260408120600301548190600160a01b900460ff166118f45760405162461bcd60e51b815260040161097190614ae2565b50506001600160a01b039081166000908152601a60205260409020600181015460029091015490821692911690565b61192b612928565b60155460ff161561194e5760405162461bcd60e51b8152600401610971906144f8565b600061195982612b13565b9050805160001461197e578060405162461bcd60e51b81526004016109719190614495565b6001600160a01b0382166000818152601260205260408120805460ff191660019081179091556014805480830182559083527fce6d7b5282bd9a3661ae061feed1dbda4e52ab073b1f9285be6e155d9c38d4ec0180546001600160a01b031916909317909255601380549091906119f6908490614bed565b90915550506015805460ff191660011790555050565b611a14612928565b6114fe6000612cf8565b60105460ff1681565b601954600090600160a01b900460ff16611a535760405162461bcd60e51b815260040161097190614729565b6001600160a01b0382166000908152601a6020526040902060030154600160a01b900460ff16611a955760405162461bcd60e51b815260040161097190614ae2565b6109b682612889565b611aa6612928565b60155460ff61010090910416600114611ad15760405162461bcd60e51b8152600401610971906149ef565b60068210611af15760405162461bcd60e51b815260040161097190614636565b60008281526016602052604090819020600101805460ff84811660ff19831617909255915191169083907f902e8f79c4772541ba59982b7a572dfdb4a0c003843ec5cfafc727966528895490611b4a9084908690614b49565b60405180910390a2505050565b611b5f612928565b6114fe612d4a565b6060600080611b7685856129b9565b90508051600014611b8c57915060009050611c0d565b6001600160a01b038416611b9f57600193505b60008581526016602090815260408083206001600160a01b038816845290915290205480611bf857505060408051808201909152600d81526c14149250d157d393d517d4d155609a1b6020820152915060009050611c0d565b60408051602081019091526000815293509150505b9250929050565b6000611c1e612adc565b601b54600160a81b900460ff16600114611c4a5760405162461bcd60e51b8152600401610971906146f2565b601954600160a01b900460ff16611c735760405162461bcd60e51b815260040161097190614729565b60155460ff61010090910416600114611c9e5760405162461bcd60e51b8152600401610971906149ef565b60105460ff16600114611cc35760405162461bcd60e51b815260040161097190614853565b611ccc84610949565b611ce85760405162461bcd60e51b815260040161097190614ae2565b3360008181526012602052604090205460ff16600114611d1a5760405162461bcd60e51b8152600401610971906148af565b60008084806020019051810190611d3191906142c8565b9150915060068210611d555760405162461bcd60e51b815260040161097190614636565b600080611d628486611b67565b9150915081516000148290611d8a5760405162461bcd60e51b81526004016109719190614495565b50611d958382614c05565b88148015611da35750600083115b611dbf5760405162461bcd60e51b81526004016109719061493e565b611dda89858560405180602001604052806000815250612b01565b83856001600160a01b03168a6001600160a01b03167fc32800b3f198f1d50532ecd2e22d4fea8d5e5e9236fb2d2796a6710f9c14f1548685604051611e20929190614b14565b60405180910390a450632229f29760e21b9998505050505050505050565b6009546001600160a01b031690565b611e55612928565b601954600160a01b900460ff1615611e7f5760405162461bcd60e51b8152600401610971906145d7565b6001600160a01b038116611ea55760405162461bcd60e51b815260040161097190614781565b601980546001600160a01b0383166001600160a01b031960ff60a01b19928316600160a01b908117821683179094556000828152601a602052604080822060038101805482548616835560018301805487169055600283018054871690559096169096179092169093555190917fbeec1fc786857549cbe9ae8717fa0fbdea9bb7386027cbad8197404a3c94421091a25050565b601b54600160a81b900460ff1681565b601954600160a01b900460ff16611f725760405162461bcd60e51b815260040161097190614729565b6001600160a01b03841615801590611f9257506001600160a01b03831615155b8015611fa657506001600160a01b03821615155b611fc25760405162461bcd60e51b815260040161097190614781565b6001600160a01b0384166000908152601a6020526040902060030154600160a01b900460ff16156120055760405162461bcd60e51b81526004016109719061488a565b6001600160a01b0383166000908152601a6020526040902060030154600160a01b900460ff166120475760405162461bcd60e51b815260040161097190614967565b6001600160a01b0382166000908152601a6020526040902060030154600160a01b900460ff166120895760405162461bcd60e51b81526004016109719061490f565b6120938284612d88565b6120af5760405162461bcd60e51b815260040161097190614694565b6001600160a01b038084166000908152601a60205260409020600181015490911615806120e7575060028101546001600160a01b0316155b6121035760405162461bcd60e51b815260040161097190614569565b81156121605760018101546001600160a01b031661213d576001810180546001600160a01b0319166001600160a01b03871617905561215b565b6002810180546001600160a01b0319166001600160a01b0387161790555b6121b2565b60028101546001600160a01b0316612194576002810180546001600160a01b0319166001600160a01b0387161790556121b2565b6001810180546001600160a01b0319166001600160a01b0387161790555b6001600160a01b038086166000818152601a60205260409081902060038101805482548a87166001600160a01b0319918216811785556001850180548316905560028501805483169055968a1660ff60a01b19909216600160a01b17168117909155915190939192907fb7de7526072e4403cbc0296462672a10ed96d94c4169dc8b84b07515e949013d90612248908890614475565b60405180910390a4505050505050565b601954600090600160a01b900460ff166122845760405162461bcd60e51b815260040161097190614729565b601954612299906001600160a01b0316612889565b905090565b6122b06122a9612abb565b8383612de9565b5050565b6001600160a01b0381166000908152601a6020526040812060030154600160a01b900460ff166122f65760405162461bcd60e51b815260040161097190614ae2565b506001600160a01b039081166000908152601a60205260409020541690565b6000600684106123375760405162461bcd60e51b815260040161097190614636565b5060009283526018602090815260408085206001600160a01b039490941685529281528284209184525290205490565b6060600682106123895760405162461bcd60e51b815260040161097190614636565b6001600160a01b0383166000908152601760209081526040808320858452825291829020805483518184028101840190945280845290918301828280156123ef57602002820191906000526020600020905b8154815260200190600101908083116123db575b5050505050905092915050565b60166020526000908152604090206001015460ff811690610100900463ffffffff1682565b60105460609060ff166001146124495760405162461bcd60e51b815260040161097190614853565b600682106124695760405162461bcd60e51b815260040161097190614636565b600a826006811061248a57634e487b7160e01b600052603260045260246000fd5b01805461249690614c67565b80601f01602080910402602001604051908101604052809291908181526020018280546124c290614c67565b801561250f5780601f106124e45761010080835404028352916020019161250f565b820191906000526020600020905b8154815290600101906020018083116124f257829003601f168201915b50505050509050919050565b60006006831061253d5760405162461bcd60e51b815260040161097190614636565b5060009182526006602090815260408084209284529190529020546001600160a01b031690565b60006001600160a01b03821661258c5760405162461bcd60e51b815260040161097190614781565b6000805b600681101561270f576001600160a01b038416600090815260176020908152604080832084845282528083208054825181850281018501909352808352919290919083018282801561260157602002820191906000526020600020905b8154815260200190600101908083116125ed575b5050505050905060005b81518110156126fa57600082828151811061263657634e487b7160e01b600052603260045260246000fd5b60209081029190910181015160008681526018835260408082206001600160a01b038c16835284528082208383528452808220548883526016909452902060010154909250610100900463ffffffff166126908183614bed565b42111561269f575050506126e8565b6000806126ad886000611b67565b91509150815160001482906126d55760405162461bcd60e51b81526004016109719190614495565b506126e0818a614bed565b985050505050505b806126f281614cce565b91505061260b565b5050808061270790614cce565b915050612590565b5092915050565b6001600160a01b03918216600090815260086020908152604080832093909416825291909152205460ff1690565b6019546001600160a01b031681565b60405162461bcd60e51b815260040161097190614991565b612773612928565b6001600160a01b0381166127995760405162461bcd60e51b815260040161097190614523565b6127a281612cf8565b50565b60006001600160a01b0383166127cd5760405162461bcd60e51b815260040161097190614781565b600682106127ed5760405162461bcd60e51b8152600401610971906147d0565b5060009081526007602090815260408083206001600160a01b03949094168352929052205490565b60006001600160e01b03198216636cdb3d1360e11b148061284657506001600160e01b031982166303a24d0760e21b145b806109b657506109b682612e8c565b60608161286184612ea5565b604051602001612872929190614367565b604051602081830303815290604052905092915050565b60006001600160a01b0382166128a1575060006109a2565b6001600160a01b0382166000908152601a602052604090206003810154600160a01b900460ff166128d65760009150506109a2565b60028101546128ed906001600160a01b0316612889565b6001820154612904906001600160a01b0316612889565b61290d85612564565b6129179190614bed565b6129219190614bed565b9392505050565b612930612abb565b6001600160a01b0316612941611e3e565b6001600160a01b0316146114fe5760405162461bcd60e51b8152600401610971906148da565b61296f613094565b601b805460ff191690557f5db9ee0a495bf2e6ff9c91a7834c1ba4fdd244a5e8aa4e537bd38aeae4b073aa6129a2612abb565b6040516129af91906143a3565b60405180910390a1565b60155460609060ff61010090910416600114612a02575060408051808201909152601681527514149250d154d7d393d517d25392551250531256915160521b60208201526109b6565b6005831115612a35575060408051808201909152600d81526c544f4b454e49445f52414e474560981b60208201526109b6565b6001600160a01b038216612a4857600191505b6001600160a01b03821660009081526012602052604090205460ff16600114612aa557612a9e82604051806040016040528060118152602001701513d2d15397d55394d5541413d4951151607a1b815250612855565b90506109b6565b5060408051602081019091526000815292915050565b3390565b61166c8686868686604051806020016040528060008152506130b8565b612ae4611896565b156114fe5760405162461bcd60e51b815260040161097190614757565b612b0d84848484613387565b50505050565b6001600160a01b03811660009081526012602052604090205460609060ff1660011415612b6e57612b67826040518060400160405280600b81526020016a414444525f45584953545360a81b815250612855565b90506109a2565b60408051600481526024810182526020810180516001600160e01b03166395d89b4160e01b179052905160009081906001600160a01b03861690612bb390859061434b565b600060405180830381855afa9150503d8060008114612bee576040519150601f19603f3d011682016040523d82523d6000602084013e612bf3565b606091505b5091509150818015612c06575060008151115b15612cad57600081806020019051810190612c21919061417e565b80516020808301919091206040805180820190915260038152622221a360e91b9201919091529091507f580e4ba285e7e1134de91e671c33b0ab748bee7126d5d2e4d0845e6ad176e7eb8114612ca657612c9a87604051806040016040528060078152602001662727aa2fa221a360c91b815250612855565b955050505050506109a2565b5050612ce0565b612cd685604051806040016040528060078152602001662727aa2fa221a360c91b815250612855565b93505050506109a2565b50506040805160208101909152600081529392505050565b600980546001600160a01b038381166001600160a01b0319831681179093556040519116919082907f8be0079c531659141344cd1fd0a4f28419497f9722a3daafe3b4186f6b6457e090600090a35050565b612d52612adc565b601b805460ff191660011790557f62e78cea01bee320cd4e420270b5ea74000d11b0c9f74754ebdbfc544b05a2586129a2612abb565b6000815b6001600160a01b03811615612ddf57836001600160a01b0316816001600160a01b03161415612dbf5760019150506109b6565b6001600160a01b039081166000908152601a602052604090205416612d8c565b5060009392505050565b816001600160a01b0316836001600160a01b03161415612e1b5760405162461bcd60e51b8152600401610971906146cb565b6001600160a01b0383811660008181526008602090815260408083209487168084529490915290819020805460ff1916851515179055517f17307eab39ab6107e8899845ad3d59bd9653f200f220920489ca2b5937696c3190612e7f908590614475565b60405180910390a3505050565b6001600160e01b031981166301ffc9a760e01b14919050565b60408051602a808252606082810190935283831b916f181899199a1a9b1b9c1cb0b131b232b360811b9160009190602082018180368337019050509050600360fc1b81600081518110612f0857634e487b7160e01b600052603260045260246000fd5b60200101906001600160f81b031916908160001a905350600f60fb1b81600181518110612f4557634e487b7160e01b600052603260045260246000fd5b60200101906001600160f81b031916908160001a90535060005b601481101561308b576000848260148110612f8a57634e487b7160e01b600052603260045260246000fd5b1a905083600482901c60ff1660108110612fb457634e487b7160e01b600052603260045260246000fd5b1a60f81b83612fc4846002614c05565b612fcf906002614bed565b81518110612fed57634e487b7160e01b600052603260045260246000fd5b60200101906001600160f81b031916908160001a90535083600f82166010811061302757634e487b7160e01b600052603260045260246000fd5b1a60f81b83613037846002614c05565b613042906003614bed565b8151811061306057634e487b7160e01b600052603260045260246000fd5b60200101906001600160f81b031916908160001a90535050808061308390614cce565b915050612f5f565b50949350505050565b61309c611896565b6114fe5760405162461bcd60e51b8152600401610971906144ca565b6001600160a01b0385166130de5760405162461bcd60e51b815260040161097190614781565b600684106130fe5760405162461bcd60e51b815260040161097190614636565b60005b8281101561337857600084848381811061312b57634e487b7160e01b600052603260045260246000fd5b60008981526018602090815260408083206001600160a01b038f168085529083528184209483029690960135808452938252808320548c84526016909252909120600101549194509261010090910463ffffffff16915061318c898561251b565b6001600160a01b0316146131b25760405162461bcd60e51b8152600401610971906147a7565b6131bc8183614bed565b42116131da5760405162461bcd60e51b81526004016109719061460e565b60008881526018602090815260408083206001600160a01b03808e1680865291845282852088865284528285208590558e16845260178084528285208d8652845282852091855283528184208c8552909252822090915b825481101561331e578583828154811061325b57634e487b7160e01b600052603260045260246000fd5b9060005260206000200154141561330c578254839061327c90600190614c24565b8154811061329a57634e487b7160e01b600052603260045260246000fd5b90600052602060002001548382815481106132c557634e487b7160e01b600052603260045260246000fd5b9060005260206000200181905550828054806132f157634e487b7160e01b600052603160045260246000fd5b6001900381819060005260206000200160009055905561331e565b8061331681614cce565b915050613231565b508054600181018255600091825260208083209091018690558a82526018815260408083206001600160a01b038f16845282528083209683529590529384209390935550829150613370905081614cce565b915050613101565b5061166c86868686868661347d565b4260005b8381101561346957600081600087600681106133b757634e487b7160e01b600052603260045260246000fd5b01546133c39190614bed565b60008781526018602090815260408083206001600160a01b038c168085529083528184208585528352818420889055808452601783528184208b855283528184208054600181018255908552929093209091018390555191925087917f15b3c203a18b1dd0bb11c2d40f29afa4b9b3a5db0a44561d23ebbfa02768d9ad9061344e9085908890614b14565b60405180910390a3508061346181614cce565b91505061338b565b5061347685858585613775565b5050505050565b6001600160a01b0385166134a35760405162461bcd60e51b815260040161097190614781565b600684106134c35760405162461bcd60e51b815260040161097190614636565b60005b828110156135595760008581526006602052604081206001600160a01b0389169186868581811061350757634e487b7160e01b600052603260045260246000fd5b60209081029290920135835250810191909152604001600020546001600160a01b0316146135475760405162461bcd60e51b8152600401610971906147a7565b8061355181614cce565b9150506134c6565b506000613564612abb565b9050600061357186613970565b9050600061357e85613970565b905061358e838a8a8585896139c9565b60005b858110156136245760008881526006602052604081206001600160a01b038c16918989858181106135d257634e487b7160e01b600052603260045260246000fd5b60209081029290920135835250810191909152604001600020546001600160a01b0316146136125760405162461bcd60e51b8152600401610971906147a7565b8061361c81614cce565b915050613591565b5060008781526007602090815260408083206001600160a01b038d16845290915281208054878103909155905b868110156136c85760008981526006602052604081208b918a8a8581811061368957634e487b7160e01b600052603260045260246000fd5b6020908102929092013583525081019190915260400160002080546001600160a01b0319166001600160a01b0392909216919091179055600101613651565b5060008881526007602090815260408083206001600160a01b038d168452909152812080548892906136fb908490614bed565b90915550506040516001600160a01b03808b16918c8216918716907fc3d58168c5ae7397731d063d5bbf3d657854427343f4c083240f7aacaa2d0f6290613745908d908c90614b14565b60405180910390a461375b848b8b86868a61166c565b613769848b8b8b8a8a6139d7565b50505050505050505050565b600683106137955760405162461bcd60e51b815260040161097190614636565b6001600160a01b0384166137bb5760405162461bcd60e51b815260040161097190614781565b60006137c5612abb565b905060006137d285613970565b905060006137df85613970565b90506137f0836000898585896139c9565b60008681526007602090815260408083206001600160a01b038b16845290915281208054879290613822908490614bed565b90915550600090505b858110156138b757876006600089815260200190815260200160002060008360008b6006811061386b57634e487b7160e01b600052603260045260246000fd5b01546138779190614bed565b8152602081019190915260400160002080546001600160a01b0319166001600160a01b0392909216919091179055806138af81614cce565b91505061382b565b5084600087600681106138da57634e487b7160e01b600052603260045260246000fd5b0160008282546138ea9190614bed565b92505081905550866001600160a01b031660006001600160a01b0316846001600160a01b03167fc3d58168c5ae7397731d063d5bbf3d657854427343f4c083240f7aacaa2d0f628989604051613941929190614b14565b60405180910390a46139588360008985858961166c565b613967836000898989896139d7565b50505050505050565b604080516001808252818301909252606091600091906020808301908036833701905050905082816000815181106139b857634e487b7160e01b600052603260045260246000fd5b602090810291909101015292915050565b61166c86868686868661166c565b6001600160a01b0384163b1561166c5760405163f23a6e6160e01b81526001600160a01b0385169063f23a6e6190613a1b90899089908890889088906004016143d1565b602060405180830381600087803b158015613a3557600080fd5b505af1925050508015613a65575060408051601f3d908101601f19168201909252613a6291810190614162565b60015b613ac557613a71614d15565b806308c379a01415613aab5750613a86614d2c565b80613a915750613aad565b8060405162461bcd60e51b81526004016109719190614495565b505b60405162461bcd60e51b815260040161097190614a97565b6001600160e01b0319811663f23a6e6160e01b146139675760405162461bcd60e51b81526004016109719061465d565b828054613b0190614c67565b90600052602060002090601f016020900481019282613b235760008555613b69565b82601f10613b3c57805160ff1916838001178555613b69565b82800160010185558215613b69579182015b82811115613b69578251825591602001919060010190613b4e565b50613b75929150613b79565b5090565b5b80821115613b755760008155600101613b7a565b80356001600160a01b03811681146109a257600080fd5b600082601f830112613bb5578081fd5b81356020613bc282614ba3565b604051613bcf8282614ca2565b838152828101915085830183850287018401881015613bec578586fd5b855b85811015613c0a57813584529284019290840190600101613bee565b5090979650505050505050565b803580151581146109a257600080fd5b600082601f830112613c37578081fd5b8135613c4281614bc6565b604051613c4f8282614ca2565b828152856020848701011115613c63578384fd5b82602086016020830137918201602001929092529392505050565b600060208284031215613c8f578081fd5b6109b382613b8e565b60008060408385031215613caa578081fd5b613cb383613b8e565b9150613cc160208401613b8e565b90509250929050565b60008060008060808587031215613cdf578182fd5b613ce885613b8e565b9350613cf660208601613b8e565b9250613d0460408601613b8e565b9150613d1260608601613c17565b905092959194509250565b600080600080600060a08688031215613d34578081fd5b613d3d86613b8e565b9450613d4b60208701613b8e565b935060408601356001600160401b0380821115613d66578283fd5b613d7289838a01613ba5565b94506060880135915080821115613d87578283fd5b613d9389838a01613ba5565b93506080880135915080821115613da8578283fd5b50613db588828901613c27565b9150509295509295909350565b60008060008060008060a08789031215613dda578384fd5b613de387613b8e565b9550613df160208801613b8e565b94506040870135935060608701356001600160401b0380821115613e13578283fd5b818901915089601f830112613e26578283fd5b813581811115613e34578384fd5b8a60208083028501011115613e47578384fd5b602083019550809450506080890135915080821115613e64578283fd5b50613e7189828a01613c27565b9150509295509295509295565b60008060008060808587031215613e93578182fd5b613e9c85613b8e565b9350613eaa60208601613b8e565b92506040850135915060608501356001600160401b03811115613ecb578182fd5b613ed787828801613c27565b91505092959194509250565b600080600080600060a08688031215613efa578283fd5b613f0386613b8e565b9450613f1160208701613b8e565b9350604086013592506060860135915060808601356001600160401b03811115613f39578182fd5b613db588828901613c27565b60008060408385031215613f57578182fd5b613f6083613b8e565b9150613cc160208401613c17565b60008060408385031215613f80578182fd5b613f8983613b8e565b946020939093013593505050565b600080600060608486031215613fab578081fd5b613fb484613b8e565b95602085013595506040909401359392505050565b60008060408385031215613fdb578182fd5b82356001600160401b0380821115613ff1578384fd5b818501915085601f830112614004578384fd5b8135602061401182614ba3565b60405161401e8282614ca2565b8381528281019150858301838502870184018b101561403b578889fd5b8896505b848710156140645761405081613b8e565b83526001969096019591830191830161403f565b509650508601359250508082111561407a578283fd5b5061408785828601613ba5565b9150509250929050565b6000602082840312156140a2578081fd5b81356001600160401b038111156140b7578182fd5b820160c08101841015612921578182fd5b600060208083850312156140da578182fd5b82356001600160401b038111156140ef578283fd5b8301601f810185136140ff578283fd5b60405161410d60c082614ca2565b8082855b6006811015614139576141278983358701613c27565b83529185019190850190600101614111565b5091979650505050505050565b600060208284031215614157578081fd5b813561292181614dbd565b600060208284031215614173578081fd5b815161292181614dbd565b60006020828403121561418f578081fd5b81516001600160401b038111156141a4578182fd5b8201601f810184136141b4578182fd5b80516141bf81614bc6565b6040516141cc8282614ca2565b8281528660208486010111156141e0578485fd5b6141f1836020830160208701614c3b565b9695505050505050565b60006040828403121561420c578081fd5b60405161421a604082614ca2565b61422383613b8e565b8152602083013560208201528091505092915050565b60006020828403121561424a578081fd5b5035919050565b60008060408385031215614263578182fd5b82359150613cc160208401613b8e565b600080600060608486031215614287578081fd5b8335925061429760208501613b8e565b9150604084013590509250925092565b600080604083850312156142b9578182fd5b50508035926020909101359150565b600080604083850312156142da578182fd5b505080516020909101519092909150565b600080604083850312156142fd578182fd5b82359150602083013560ff81168114614314578182fd5b809150509250929050565b60008151808452614337816020860160208601614c3b565b601f01601f19169290920160200192915050565b6000825161435d818460208701614c3b565b9190910192915050565b60008351614379818460208801614c3b565b600160fd1b9083019081528351614397816001840160208801614c3b565b01600101949350505050565b6001600160a01b0391909116815260200190565b6001600160a01b0392831681529116602082015260400190565b6001600160a01b03868116825285166020820152604081018490526060810183905260a06080820181905260009061440b9083018461431f565b979650505050505050565b6001600160a01b039290921682521515602082015260400190565b6020808252825182820181905260009190848201906040850190845b818110156144695783518352928401929184019160010161444d565b50909695505050505050565b901515815260200190565b6001600160e01b031991909116815260200190565b6000602082526109b3602083018461431f565b6000604082526144bb604083018561431f565b90508260208301529392505050565b60208082526014908201527314185d5cd8589b194e881b9bdd081c185d5cd95960621b604082015260600190565b6020808252601190820152701513d2d15397d253925512505312569151607a1b604082015260600190565b60208082526026908201527f4f776e61626c653a206e6577206f776e657220697320746865207a65726f206160408201526564647265737360d01b606082015260800190565b60208082526017908201527f504152454e545f4841535f54574f5f4348494c4452454e000000000000000000604082015260600190565b60208082526019908201527f43414c4c45525f4e4f545f4f574e45525f415050524f56454400000000000000604082015260600190565b60208082526018908201527f524f4f545f414c52454144595f494e495449414c495a45440000000000000000604082015260600190565b6020808252600e908201526d14d1539117d59053125117d3919560921b604082015260600190565b6020808252600d908201526c544f4b454e49445f52414e474560981b604082015260600190565b6020808252601f908201527f4552433131353552454345495645525f52454a45435445445f544f4b454e5300604082015260600190565b6020808252601e908201527f504152454e545f4e4f545f5245434f4d4d454e4445525f535542545245450000604082015260600190565b6020808252600d908201526c20a8282927ab20a62fa9a2a62360991b604082015260600190565b6020808252601d908201527f57495448445241575f414444525f4e4f545f494e495449414c495a4544000000604082015260600190565b6020808252601490820152731493d3d517d393d517d25392551250531256915160621b604082015260600190565b60208082526010908201526f14185d5cd8589b194e881c185d5cd95960821b604082015260600190565b6020808252600c908201526b5a45524f5f4144445245535360a01b604082015260600190565b6020808252600f908201526e1513d2d15397d393d517d3d5d39151608a1b604082015260600190565b6020808252601190820152704552525f544f4b454e49445f52414e474560781b604082015260600190565b6020808252601290820152711510d7d514905394d1915497d1905253115160721b604082015260600190565b60208082526012908201527114149250d154d7d25392551250531256915160721b604082015260600190565b60208082526017908201527f424153455552495f4e4f545f494e495449414c495a4544000000000000000000604082015260600190565b6020808252600b908201526a4e4f44455f45584953545360a81b604082015260600190565b6020808252601190820152701513d2d15397d55394d5541413d4951151607a1b604082015260600190565b6020808252818101527f4f776e61626c653a2063616c6c6572206973206e6f7420746865206f776e6572604082015260600190565b602080825260159082015274149150d3d353515391115497d393d517d1561254d5605a1b604082015260600190565b6020808252600f908201526e494e434f52524543545f46554e445360881b604082015260600190565b60208082526010908201526f14105491539517d393d517d1561254d560821b604082015260600190565b6020808252601590820152745553455f45536166655472616e7366657246726f6d60581b604082015260600190565b6020808252601590820152741513d2d15397d393d517d253925512505312569151605a1b604082015260600190565b60208082526016908201527514149250d154d7d393d517d25392551250531256915160521b604082015260600190565b6020808252600890820152675553455f4575726960c01b604082015260600190565b602080825260139082015272105111149154d4d7d254d7d0d3d395149050d5606a1b604082015260600190565b6020808252600f908201526e1393d517d253541311535153951151608a1b604082015260600190565b6020808252602b908201527f7472616e736665725f746f5f6e6f6e2d4552433131353552656365697665725f60408201526a34b6b83632b6b2b73a32b960a91b606082015260800190565b6020808252600f908201526e4e4f44455f4e4f545f45584953545360881b604082015260600190565b90815260200190565b918252602082015260400190565b60ff91909116815260200190565b60ff92909216825263ffffffff16602082015260400190565b60ff92831681529116602082015260400190565b6000808335601e19843603018112614b73578283fd5b8301803591506001600160401b03821115614b8c578283fd5b6020019150604081023603821315611c0d57600080fd5b60006001600160401b03821115614bbc57614bbc614cff565b5060209081020190565b60006001600160401b03821115614bdf57614bdf614cff565b50601f01601f191660200190565b60008219821115614c0057614c00614ce9565b500190565b6000816000190483118215151615614c1f57614c1f614ce9565b500290565b600082821015614c3657614c36614ce9565b500390565b60005b83811015614c56578181015183820152602001614c3e565b83811115612b0d5750506000910152565b600281046001821680614c7b57607f821691505b60208210811415614c9c57634e487b7160e01b600052602260045260246000fd5b50919050565b601f8201601f191681016001600160401b0381118282101715614cc757614cc7614cff565b6040525050565b6000600019821415614ce257614ce2614ce9565b5060010190565b634e487b7160e01b600052601160045260246000fd5b634e487b7160e01b600052604160045260246000fd5b600060033d111561189d57600481823e5160e01c90565b600060443d1015614d3c5761189d565b6040516003193d81016004833e81513d6001600160401b038160248401118184111715614d6d57505050505061189d565b8285019150815181811115614d875750505050505061189d565b843d8701016020828501011115614da35750505050505061189d565b614db260208286010187614ca2565b509094505050505090565b6001600160e01b0319811681146127a257600080fdfea2646970667358221220622d0d5d4521db35dda034bf94e09b76f1206823ceee6fbdddb3ccb39e21b26164736f6c63430008010033",
  "linkReferences": {},
  "deployedLinkReferences": {},
  "immutableReferences": {},
  "inputSourceName": "project/contracts/TCF_NFT.sol",
  "devdoc": {
    "kind": "dev",
    "methods": {
      "ESafeTransferFrom(address,address,uint256,uint256[],bytes)": {
        "details": "tokenTCF_NFT",
        "params": {
          "indexes": "tokenmintTimes"
        }
      },
      "addSupportedToken(address)": {
        "details": "TC TC",
        "params": {
          "_tokenAddress": ""
        }
      },
      "balanceOf(address,uint256)": {
        "details": "See {IERC1155-balanceOf}. Requirements: - `account` cannot be the zero address."
      },
      "balanceOfBatch(address[],uint256[])": {
        "details": "See {IERC1155-balanceOfBatch}. Requirements: - `accounts` and `ids` must have the same length."
      },
      "changeNFTPrice(uint256,address,uint256)": {
        "details": "NFT",
        "params": {
          "amount": "",
          "tokenAddress": "address(0)",
          "tokenID": "NFT/ID0-5"
        }
      },
      "checkInitPricesParams((address,uint256)[][6])": {
        "details": "",
        "params": {
          "prices": "6NFTNFT supportedTokenAmount "
        },
        "returns": {
          "_0": "/"
        }
      },
      "getNFTPrice(uint256,address)": {
        "details": "NFT",
        "params": {
          "_tokenAddress": "address(0)",
          "tokenID": "NFT/ID0-5"
        },
        "returns": {
          "_0": "errorMessage /",
          "_1": "price errorMessage0"
        }
      },
      "getRecommendedParent(address)": {
        "details": " recommender left/right       0       parent ",
        "params": {
          "recommender": ""
        },
        "returns": {
          "isLeftBranch": " parent true=leftfalse=right",
          "parent": ""
        }
      },
      "initPrice((address,uint256)[][6])": {
        "details": ".TC0",
        "params": {
          "prices": "6NFT,NFT"
        }
      },
      "initRoot(address)": {
        "params": {
          "rootAddress": ""
        }
      },
      "insert(address,address,address,bool)": {
        "details": "  - parent   - recommender   -  recommender  node parent  recommender  recommender ",
        "params": {
          "isLeft": "true= parent.leftfalse= parent.right  isLefttrue  isLeft",
          "node": "",
          "parent": "",
          "recommender": ""
        }
      },
      "isApprovedForAll(address,address)": {
        "details": "See {IERC1155-isApprovedForAll}."
      },
      "minChildSubtreeBalance(address)": {
        "details": " 0"
      },
      "owner()": {
        "details": "Returns the address of the current owner."
      },
      "paused()": {
        "details": "Returns true if the contract is paused, and false otherwise."
      },
      "renounceOwnership()": {
        "details": "Leaves the contract without owner. It will not be possible to call `onlyOwner` functions. Can only be called by the current owner. NOTE: Renouncing ownership will leave the contract without an owner, thereby disabling any functionality that is only available to the owner."
      },
      "safeBatchTransferFrom(address,address,uint256[],uint256[],bytes)": {
        "details": "See {IERC1155-safeBatchTransferFrom}."
      },
      "safeTransferFrom(address,address,uint256,uint256,bytes)": {
        "details": "See {IERC1155-safeTransferFrom}."
      },
      "setApprovalForAll(address,bool)": {
        "details": "See {IERC1155-setApprovalForAll}."
      },
      "setBaseURI(bytes[6])": {
        "details": "Sets `baseURI` as the `_baseURI` for all tokens Only callable by the owner."
      },
      "supportsInterface(bytes4)": {
        "details": "See {IERC165-supportsInterface}."
      },
      "totalTreeBalance()": {
        "details": " gas view "
      },
      "transferOwnership(address)": {
        "details": "Transfers ownership of the contract to a new account (`newOwner`). Can only be called by the current owner."
      }
    },
    "version": 1
  },
  "evm": {
    "gasEstimates": {
      "creation": {
        "codeDepositCost": "3995400",
        "executionCost": "130381",
        "totalCost": "4125781"
      },
      "external": {
        "ESafeTransferFrom(address,address,uint256,uint256[],bytes)": "infinite",
        "Euri(uint256)": "infinite",
        "NFTPrice_initialized()": "1213",
        "NFTS(uint256)": "1397",
        "_initializedURIStorage()": "1158",
        "addSupportedToken(address)": "infinite",
        "balanceOf(address,uint256)": "1547",
        "balanceOfBatch(address[],uint256[])": "infinite",
        "buyNFTByTC(address,uint256,uint256)": "infinite",
        "changeDynamicRatio(uint256,uint8)": "24960",
        "changeNFTPrice(uint256,address,uint256)": "infinite",
        "checkInitPricesParams((address,uint256)[][6])": "infinite",
        "getChildren(address)": "3153",
        "getNFTPrice(uint256,address)": "infinite",
        "getNftMintTime(uint256,address,uint256)": "1593",
        "getNodeBalance(address)": "infinite",
        "getParent(address)": "2331",
        "getRecommendedParent(address)": "infinite",
        "getRecommender(address)": "2405",
        "getTotalNFTWorth(address)": "infinite",
        "getUserTokenIds(address,uint256)": "infinite",
        "initPrice((address,uint256)[][6])": "infinite",
        "initRoot(address)": "107644",
        "insert(address,address,address,bool)": "infinite",
        "isApprovedForAll(address,address)": "infinite",
        "isExist(address)": "infinite",
        "isSupported(address)": "1430",
        "minChildSubtreeBalance(address)": "infinite",
        "onTransferReceived(address,address,uint256,bytes)": "infinite",
        "owner()": "1137",
        "ownerOf(uint256,uint256)": "1425",
        "pause()": "infinite",
        "paused()": "1152",
        "renounceOwnership()": "infinite",
        "root()": "1158",
        "rootInitialized()": "1190",
        "safeBatchTransferFrom(address,address,uint256[],uint256[],bytes)": "infinite",
        "safeTransferFrom(address,address,uint256,uint256,bytes)": "infinite",
        "setApprovalForAll(address,bool)": "infinite",
        "setBaseURI(bytes[6])": "infinite",
        "setWithdrawAddress(address)": "45837",
        "subtreeBalance(address)": "infinite",
        "supportedTokenAmount()": "1140",
        "supportsInterface(bytes4)": "infinite",
        "tokenAddress_array(uint256)": "2106",
        "totalTreeBalance()": "infinite",
        "transferOwnership(address)": "23862",
        "unpause()": "infinite",
        "uri(uint256)": "494",
        "withdrawAddress()": "1127",
        "withdrawAddress_initialized()": "1174"
      },
      "internal": {
        "_beforeTokenTransfer(address,address,address,uint256[] memory,uint256[] memory,bytes memory)": "infinite",
        "_mint(address,uint256,uint256,bytes memory)": "infinite",
        "_safeTransferFrom(address,address,uint256,uint256[] calldata,bytes memory)": "infinite"
      }
    }
  },
  "storageLayout": {
    "storage": [
      {
        "astId": 514,
        "contract": "project/contracts/TCF_NFT.sol:TCF_NFT",
        "label": "_nextTokenId",
        "offset": 0,
        "slot": "0",
        "type": "t_array(t_uint256)6_storage"
      },
      {
        "astId": 520,
        "contract": "project/contracts/TCF_NFT.sol:TCF_NFT",
        "label": "_owners",
        "offset": 0,
        "slot": "6",
        "type": "t_mapping(t_uint256,t_mapping(t_uint256,t_address))"
      },
      {
        "astId": 526,
        "contract": "project/contracts/TCF_NFT.sol:TCF_NFT",
        "label": "_balances",
        "offset": 0,
        "slot": "7",
        "type": "t_mapping(t_uint256,t_mapping(t_address,t_uint256))"
      },
      {
        "astId": 532,
        "contract": "project/contracts/TCF_NFT.sol:TCF_NFT",
        "label": "_operatorApprovals",
        "offset": 0,
        "slot": "8",
        "type": "t_mapping(t_address,t_mapping(t_address,t_bool))"
      },
      {
        "astId": 3586,
        "contract": "project/contracts/TCF_NFT.sol:TCF_NFT",
        "label": "_owner",
        "offset": 0,
        "slot": "9",
        "type": "t_address"
      },
      {
        "astId": 1853,
        "contract": "project/contracts/TCF_NFT.sol:TCF_NFT",
        "label": "_baseURI",
        "offset": 0,
        "slot": "10",
        "type": "t_array(t_string_storage)6_storage"
      },
      {
        "astId": 1855,
        "contract": "project/contracts/TCF_NFT.sol:TCF_NFT",
        "label": "_initializedURIStorage",
        "offset": 0,
        "slot": "16",
        "type": "t_uint8"
      },
      {
        "astId": 1861,
        "contract": "project/contracts/TCF_NFT.sol:TCF_NFT",
        "label": "_tokenURIs",
        "offset": 0,
        "slot": "17",
        "type": "t_mapping(t_uint256,t_mapping(t_uint256,t_string_storage))"
      },
      {
        "astId": 1941,
        "contract": "project/contracts/TCF_NFT.sol:TCF_NFT",
        "label": "supportTokenType",
        "offset": 0,
        "slot": "18",
        "type": "t_mapping(t_address,t_uint8)"
      },
      {
        "astId": 1943,
        "contract": "project/contracts/TCF_NFT.sol:TCF_NFT",
        "label": "supportedTokenAmount",
        "offset": 0,
        "slot": "19",
        "type": "t_uint256"
      },
      {
        "astId": 1946,
        "contract": "project/contracts/TCF_NFT.sol:TCF_NFT",
        "label": "tokenAddress_array",
        "offset": 0,
        "slot": "20",
        "type": "t_array(t_address)dyn_storage"
      },
      {
        "astId": 1948,
        "contract": "project/contracts/TCF_NFT.sol:TCF_NFT",
        "label": "initedTokenAddress",
        "offset": 0,
        "slot": "21",
        "type": "t_uint8"
      },
      {
        "astId": 1950,
        "contract": "project/contracts/TCF_NFT.sol:TCF_NFT",
        "label": "NFTPrice_initialized",
        "offset": 1,
        "slot": "21",
        "type": "t_uint8"
      },
      {
        "astId": 1969,
        "contract": "project/contracts/TCF_NFT.sol:TCF_NFT",
        "label": "NFTS",
        "offset": 0,
        "slot": "22",
        "type": "t_mapping(t_uint256,t_struct(equities_store)1964_storage)"
      },
      {
        "astId": 1385,
        "contract": "project/contracts/TCF_NFT.sol:TCF_NFT",
        "label": "_ownedTokenIds",
        "offset": 0,
        "slot": "23",
        "type": "t_mapping(t_address,t_mapping(t_uint256,t_array(t_uint256)dyn_storage))"
      },
      {
        "astId": 1393,
        "contract": "project/contracts/TCF_NFT.sol:TCF_NFT",
        "label": "_mintTimes",
        "offset": 0,
        "slot": "24",
        "type": "t_mapping(t_uint256,t_mapping(t_address,t_mapping(t_uint256,t_uint256)))"
      },
      {
        "astId": 2856,
        "contract": "project/contracts/TCF_NFT.sol:TCF_NFT",
        "label": "root",
        "offset": 0,
        "slot": "25",
        "type": "t_address"
      },
      {
        "astId": 2858,
        "contract": "project/contracts/TCF_NFT.sol:TCF_NFT",
        "label": "rootInitialized",
        "offset": 20,
        "slot": "25",
        "type": "t_bool"
      },
      {
        "astId": 2863,
        "contract": "project/contracts/TCF_NFT.sol:TCF_NFT",
        "label": "_nodes",
        "offset": 0,
        "slot": "26",
        "type": "t_mapping(t_address,t_struct(Node)2853_storage)"
      },
      {
        "astId": 3727,
        "contract": "project/contracts/TCF_NFT.sol:TCF_NFT",
        "label": "_paused",
        "offset": 0,
        "slot": "27",
        "type": "t_bool"
      },
      {
        "astId": 23,
        "contract": "project/contracts/TCF_NFT.sol:TCF_NFT",
        "label": "withdrawAddress",
        "offset": 1,
        "slot": "27",
        "type": "t_address"
      },
      {
        "astId": 25,
        "contract": "project/contracts/TCF_NFT.sol:TCF_NFT",
        "label": "withdrawAddress_initialized",
        "offset": 21,
        "slot": "27",
        "type": "t_uint8"
      }
    ],
    "types": {
      "t_address": {
        "encoding": "inplace",
        "label": "address",
        "numberOfBytes": "20"
      },
      "t_array(t_address)dyn_storage": {
        "base": "t_address",
        "encoding": "dynamic_array",
        "label": "address[]",
        "numberOfBytes": "32"
      },
      "t_array(t_string_storage)6_storage": {
        "base": "t_string_storage",
        "encoding": "inplace",
        "label": "string[6]",
        "numberOfBytes": "192"
      },
      "t_array(t_uint256)6_storage": {
        "base": "t_uint256",
        "encoding": "inplace",
        "label": "uint256[6]",
        "numberOfBytes": "192"
      },
      "t_array(t_uint256)dyn_storage": {
        "base": "t_uint256",
        "encoding": "dynamic_array",
        "label": "uint256[]",
        "numberOfBytes": "32"
      },
      "t_bool": {
        "encoding": "inplace",
        "label": "bool",
        "numberOfBytes": "1"
      },
      "t_mapping(t_address,t_bool)": {
        "encoding": "mapping",
        "key": "t_address",
        "label": "mapping(address => bool)",
        "numberOfBytes": "32",
        "value": "t_bool"
      },
      "t_mapping(t_address,t_mapping(t_address,t_bool))": {
        "encoding": "mapping",
        "key": "t_address",
        "label": "mapping(address => mapping(address => bool))",
        "numberOfBytes": "32",
        "value": "t_mapping(t_address,t_bool)"
      },
      "t_mapping(t_address,t_mapping(t_uint256,t_array(t_uint256)dyn_storage))": {
        "encoding": "mapping",
        "key": "t_address",
        "label": "mapping(address => mapping(uint256 => uint256[]))",
        "numberOfBytes": "32",
        "value": "t_mapping(t_uint256,t_array(t_uint256)dyn_storage)"
      },
      "t_mapping(t_address,t_mapping(t_uint256,t_uint256))": {
        "encoding": "mapping",
        "key": "t_address",
        "label": "mapping(address => mapping(uint256 => uint256))",
        "numberOfBytes": "32",
        "value": "t_mapping(t_uint256,t_uint256)"
      },
      "t_mapping(t_address,t_struct(Node)2853_storage)": {
        "encoding": "mapping",
        "key": "t_address",
        "label": "mapping(address => struct BinaryTree.Node)",
        "numberOfBytes": "32",
        "value": "t_struct(Node)2853_storage"
      },
      "t_mapping(t_address,t_uint256)": {
        "encoding": "mapping",
        "key": "t_address",
        "label": "mapping(address => uint256)",
        "numberOfBytes": "32",
        "value": "t_uint256"
      },
      "t_mapping(t_address,t_uint8)": {
        "encoding": "mapping",
        "key": "t_address",
        "label": "mapping(address => uint8)",
        "numberOfBytes": "32",
        "value": "t_uint8"
      },
      "t_mapping(t_uint256,t_address)": {
        "encoding": "mapping",
        "key": "t_uint256",
        "label": "mapping(uint256 => address)",
        "numberOfBytes": "32",
        "value": "t_address"
      },
      "t_mapping(t_uint256,t_array(t_uint256)dyn_storage)": {
        "encoding": "mapping",
        "key": "t_uint256",
        "label": "mapping(uint256 => uint256[])",
        "numberOfBytes": "32",
        "value": "t_array(t_uint256)dyn_storage"
      },
      "t_mapping(t_uint256,t_mapping(t_address,t_mapping(t_uint256,t_uint256)))": {
        "encoding": "mapping",
        "key": "t_uint256",
        "label": "mapping(uint256 => mapping(address => mapping(uint256 => uint256)))",
        "numberOfBytes": "32",
        "value": "t_mapping(t_address,t_mapping(t_uint256,t_uint256))"
      },
      "t_mapping(t_uint256,t_mapping(t_address,t_uint256))": {
        "encoding": "mapping",
        "key": "t_uint256",
        "label": "mapping(uint256 => mapping(address => uint256))",
        "numberOfBytes": "32",
        "value": "t_mapping(t_address,t_uint256)"
      },
      "t_mapping(t_uint256,t_mapping(t_uint256,t_address))": {
        "encoding": "mapping",
        "key": "t_uint256",
        "label": "mapping(uint256 => mapping(uint256 => address))",
        "numberOfBytes": "32",
        "value": "t_mapping(t_uint256,t_address)"
      },
      "t_mapping(t_uint256,t_mapping(t_uint256,t_string_storage))": {
        "encoding": "mapping",
        "key": "t_uint256",
        "label": "mapping(uint256 => mapping(uint256 => string))",
        "numberOfBytes": "32",
        "value": "t_mapping(t_uint256,t_string_storage)"
      },
      "t_mapping(t_uint256,t_string_storage)": {
        "encoding": "mapping",
        "key": "t_uint256",
        "label": "mapping(uint256 => string)",
        "numberOfBytes": "32",
        "value": "t_string_storage"
      },
      "t_mapping(t_uint256,t_struct(equities_store)1964_storage)": {
        "encoding": "mapping",
        "key": "t_uint256",
        "label": "mapping(uint256 => struct TCF_NFTPrice.equities_store)",
        "numberOfBytes": "32",
        "value": "t_struct(equities_store)1964_storage"
      },
      "t_mapping(t_uint256,t_uint256)": {
        "encoding": "mapping",
        "key": "t_uint256",
        "label": "mapping(uint256 => uint256)",
        "numberOfBytes": "32",
        "value": "t_uint256"
      },
      "t_string_storage": {
        "encoding": "bytes",
        "label": "string",
        "numberOfBytes": "32"
      },
      "t_struct(Node)2853_storage": {
        "encoding": "inplace",
        "label": "struct BinaryTree.Node",
        "members": [
          {
            "astId": 2844,
            "contract": "project/contracts/TCF_NFT.sol:TCF_NFT",
            "label": "parent",
            "offset": 0,
            "slot": "0",
            "type": "t_address"
          },
          {
            "astId": 2846,
            "contract": "project/contracts/TCF_NFT.sol:TCF_NFT",
            "label": "left",
            "offset": 0,
            "slot": "1",
            "type": "t_address"
          },
          {
            "astId": 2848,
            "contract": "project/contracts/TCF_NFT.sol:TCF_NFT",
            "label": "right",
            "offset": 0,
            "slot": "2",
            "type": "t_address"
          },
          {
            "astId": 2850,
            "contract": "project/contracts/TCF_NFT.sol:TCF_NFT",
            "label": "recommender",
            "offset": 0,
            "slot": "3",
            "type": "t_address"
          },
          {
            "astId": 2852,
            "contract": "project/contracts/TCF_NFT.sol:TCF_NFT",
            "label": "exists",
            "offset": 20,
            "slot": "3",
            "type": "t_bool"
          }
        ],
        "numberOfBytes": "128"
      },
      "t_struct(equities_store)1964_storage": {
        "encoding": "inplace",
        "label": "struct TCF_NFTPrice.equities_store",
        "members": [
          {
            "astId": 1959,
            "contract": "project/contracts/TCF_NFT.sol:TCF_NFT",
            "label": "prices",
            "offset": 0,
            "slot": "0",
            "type": "t_mapping(t_address,t_uint256)"
          },
          {
            "astId": 1961,
            "contract": "project/contracts/TCF_NFT.sol:TCF_NFT",
            "label": "ratio",
            "offset": 0,
            "slot": "1",
            "type": "t_uint8"
          },
          {
            "astId": 1963,
            "contract": "project/contracts/TCF_NFT.sol:TCF_NFT",
            "label": "indate",
            "offset": 1,
            "slot": "1",
            "type": "t_uint32"
          }
        ],
        "numberOfBytes": "64"
      },
      "t_uint256": {
        "encoding": "inplace",
        "label": "uint256",
        "numberOfBytes": "32"
      },
      "t_uint32": {
        "encoding": "inplace",
        "label": "uint32",
        "numberOfBytes": "4"
      },
      "t_uint8": {
        "encoding": "inplace",
        "label": "uint8",
        "numberOfBytes": "1"
      }
    }
  },
  "userdoc": {
    "kind": "user",
    "methods": {
      "getChildren(address)": {
        "notice": "left, right"
      },
      "getNodeBalance(address)": {
        "notice": ""
      },
      "getParent(address)": {
        "notice": ""
      },
      "getRecommendedParent(address)": {
        "notice": ""
      },
      "getRecommender(address)": {
        "notice": ""
      },
      "initPrice((address,uint256)[][6])": {
        "notice": "tokenTC"
      },
      "initRoot(address)": {
        "notice": "/owner "
      },
      "insert(address,address,address,bool)": {
        "notice": ""
      },
      "isExist(address)": {
        "notice": ""
      },
      "minChildSubtreeBalance(address)": {
        "notice": "left/right"
      },
      "root()": {
        "notice": ""
      },
      "subtreeBalance(address)": {
        "notice": ""
      },
      "totalTreeBalance()": {
        "notice": ""
      }
    },
    "version": 1
  },
  "argsData": "0x",
  "transaction": {
    "hash": "0xf99e6952fdde5cf1b2c27e6fdd414b3fd4e9e52611d0bc08a953da7c41e5feac",
    "nonce": "0x4",
    "origin": "0xf39fd6e51aad88f6f4ce6ab8827279cfffb92266"
  }
}