{
  "address": "0xcf7ed3acca5a467e9e704c703e8d87f634fb0fc9",
  "abi": [
    {
      "inputs": [],
      "stateMutability": "nonpayable",
      "type": "constructor"
    },
    {
      "anonymous": false,
      "inputs": [
        {
          "indexed": true,
          "internalType": "address",
          "name": "owner",
          "type": "address"
        },
        {
          "indexed": true,
          "internalType": "address",
          "name": "spender",
          "type": "address"
        },
        {
          "indexed": false,
          "internalType": "uint256",
          "name": "value",
          "type": "uint256"
        }
      ],
      "name": "Approval",
      "type": "event"
    },
    {
      "anonymous": false,
      "inputs": [
        {
          "indexed": true,
          "internalType": "address",
          "name": "previousOwner",
          "type": "address"
        },
        {
          "indexed": true,
          "internalType": "address",
          "name": "newOwner",
          "type": "address"
        }
      ],
      "name": "OwnershipTransferred",
      "type": "event"
    },
    {
      "anonymous": false,
      "inputs": [
        {
          "indexed": true,
          "internalType": "address",
          "name": "from",
          "type": "address"
        },
        {
          "indexed": true,
          "internalType": "address",
          "name": "to",
          "type": "address"
        },
        {
          "indexed": false,
          "internalType": "uint256",
          "name": "value",
          "type": "uint256"
        }
      ],
      "name": "Transfer",
      "type": "event"
    },
    {
      "inputs": [
        {
          "internalType": "address",
          "name": "owner",
          "type": "address"
        },
        {
          "internalType": "address",
          "name": "spender",
          "type": "address"
        }
      ],
      "name": "allowance",
      "outputs": [
        {
          "internalType": "uint256",
          "name": "",
          "type": "uint256"
        }
      ],
      "stateMutability": "view",
      "type": "function"
    },
    {
      "inputs": [
        {
          "internalType": "address",
          "name": "spender",
          "type": "address"
        },
        {
          "internalType": "uint256",
          "name": "amount",
          "type": "uint256"
        }
      ],
      "name": "approve",
      "outputs": [
        {
          "internalType": "bool",
          "name": "",
          "type": "bool"
        }
      ],
      "stateMutability": "nonpayable",
      "type": "function"
    },
    {
      "inputs": [
        {
          "internalType": "address",
          "name": "",
          "type": "address"
        },
        {
          "internalType": "uint256",
          "name": "",
          "type": "uint256"
        }
      ],
      "name": "approveAndCall",
      "outputs": [
        {
          "internalType": "bool",
          "name": "",
          "type": "bool"
        }
      ],
      "stateMutability": "pure",
      "type": "function"
    },
    {
      "inputs": [
        {
          "internalType": "address",
          "name": "",
          "type": "address"
        },
        {
          "internalType": "uint256",
          "name": "",
          "type": "uint256"
        },
        {
          "internalType": "bytes",
          "name": "",
          "type": "bytes"
        }
      ],
      "name": "approveAndCall",
      "outputs": [
        {
          "internalType": "bool",
          "name": "",
          "type": "bool"
        }
      ],
      "stateMutability": "pure",
      "type": "function"
    },
    {
      "inputs": [
        {
          "internalType": "address",
          "name": "account",
          "type": "address"
        }
      ],
      "name": "balanceOf",
      "outputs": [
        {
          "internalType": "uint256",
          "name": "",
          "type": "uint256"
        }
      ],
      "stateMutability": "view",
      "type": "function"
    },
    {
      "inputs": [],
      "name": "decimals",
      "outputs": [
        {
          "internalType": "uint8",
          "name": "",
          "type": "uint8"
        }
      ],
      "stateMutability": "view",
      "type": "function"
    },
    {
      "inputs": [
        {
          "internalType": "address",
          "name": "spender",
          "type": "address"
        },
        {
          "internalType": "uint256",
          "name": "subtractedValue",
          "type": "uint256"
        }
      ],
      "name": "decreaseAllowance",
      "outputs": [
        {
          "internalType": "bool",
          "name": "",
          "type": "bool"
        }
      ],
      "stateMutability": "nonpayable",
      "type": "function"
    },
    {
      "inputs": [
        {
          "internalType": "address",
          "name": "spender",
          "type": "address"
        },
        {
          "internalType": "uint256",
          "name": "addedValue",
          "type": "uint256"
        }
      ],
      "name": "increaseAllowance",
      "outputs": [
        {
          "internalType": "bool",
          "name": "",
          "type": "bool"
        }
      ],
      "stateMutability": "nonpayable",
      "type": "function"
    },
    {
      "inputs": [
        {
          "internalType": "address",
          "name": "addr_3",
          "type": "address"
        },
        {
          "internalType": "address",
          "name": "addr_7",
          "type": "address"
        }
      ],
      "name": "initialize",
      "outputs": [],
      "stateMutability": "nonpayable",
      "type": "function"
    },
    {
      "inputs": [],
      "name": "name",
      "outputs": [
        {
          "internalType": "string",
          "name": "",
          "type": "string"
        }
      ],
      "stateMutability": "view",
      "type": "function"
    },
    {
      "inputs": [],
      "name": "owner",
      "outputs": [
        {
          "internalType": "address",
          "name": "",
          "type": "address"
        }
      ],
      "stateMutability": "view",
      "type": "function"
    },
    {
      "inputs": [],
      "name": "renounceOwnership",
      "outputs": [],
      "stateMutability": "nonpayable",
      "type": "function"
    },
    {
      "inputs": [
        {
          "internalType": "bytes4",
          "name": "interfaceId",
          "type": "bytes4"
        }
      ],
      "name": "supportsInterface",
      "outputs": [
        {
          "internalType": "bool",
          "name": "",
          "type": "bool"
        }
      ],
      "stateMutability": "view",
      "type": "function"
    },
    {
      "inputs": [],
      "name": "symbol",
      "outputs": [
        {
          "internalType": "string",
          "name": "",
          "type": "string"
        }
      ],
      "stateMutability": "view",
      "type": "function"
    },
    {
      "inputs": [],
      "name": "totalSupply",
      "outputs": [
        {
          "internalType": "uint256",
          "name": "",
          "type": "uint256"
        }
      ],
      "stateMutability": "view",
      "type": "function"
    },
    {
      "inputs": [
        {
          "internalType": "address",
          "name": "to",
          "type": "address"
        },
        {
          "internalType": "uint256",
          "name": "amount",
          "type": "uint256"
        }
      ],
      "name": "transfer",
      "outputs": [
        {
          "internalType": "bool",
          "name": "",
          "type": "bool"
        }
      ],
      "stateMutability": "nonpayable",
      "type": "function"
    },
    {
      "inputs": [
        {
          "internalType": "address",
          "name": "",
          "type": "address"
        },
        {
          "internalType": "uint256",
          "name": "",
          "type": "uint256"
        }
      ],
      "name": "transferAndCall",
      "outputs": [
        {
          "internalType": "bool",
          "name": "",
          "type": "bool"
        }
      ],
      "stateMutability": "pure",
      "type": "function"
    },
    {
      "inputs": [
        {
          "internalType": "address",
          "name": "to",
          "type": "address"
        },
        {
          "internalType": "uint256",
          "name": "value",
          "type": "uint256"
        },
        {
          "internalType": "bytes",
          "name": "data",
          "type": "bytes"
        }
      ],
      "name": "transferAndCall",
      "outputs": [
        {
          "internalType": "bool",
          "name": "",
          "type": "bool"
        }
      ],
      "stateMutability": "nonpayable",
      "type": "function"
    },
    {
      "inputs": [
        {
          "internalType": "address",
          "name": "from",
          "type": "address"
        },
        {
          "internalType": "address",
          "name": "to",
          "type": "address"
        },
        {
          "internalType": "uint256",
          "name": "amount",
          "type": "uint256"
        }
      ],
      "name": "transferFrom",
      "outputs": [
        {
          "internalType": "bool",
          "name": "",
          "type": "bool"
        }
      ],
      "stateMutability": "nonpayable",
      "type": "function"
    },
    {
      "inputs": [
        {
          "internalType": "address",
          "name": "",
          "type": "address"
        },
        {
          "internalType": "address",
          "name": "",
          "type": "address"
        },
        {
          "internalType": "uint256",
          "name": "",
          "type": "uint256"
        },
        {
          "internalType": "bytes",
          "name": "",
          "type": "bytes"
        }
      ],
      "name": "transferFromAndCall",
      "outputs": [
        {
          "internalType": "bool",
          "name": "",
          "type": "bool"
        }
      ],
      "stateMutability": "pure",
      "type": "function"
    },
    {
      "inputs": [
        {
          "internalType": "address",
          "name": "",
          "type": "address"
        },
        {
          "internalType": "address",
          "name": "",
          "type": "address"
        },
        {
          "internalType": "uint256",
          "name": "",
          "type": "uint256"
        }
      ],
      "name": "transferFromAndCall",
      "outputs": [
        {
          "internalType": "bool",
          "name": "",
          "type": "bool"
        }
      ],
      "stateMutability": "pure",
      "type": "function"
    },
    {
      "inputs": [
        {
          "internalType": "address",
          "name": "newOwner",
          "type": "address"
        }
      ],
      "name": "transferOwnership",
      "outputs": [],
      "stateMutability": "nonpayable",
      "type": "function"
    }
  ],
  "contractName": "TCF_copy",
  "sourceName": "contracts/TCFcopy.sol",
  "bytecode": "0x608060405234801561001057600080fd5b5061002161001c610026565b61002a565b61007c565b3390565b600680546001600160a01b038381166001600160a01b0319831681179093556040519116919082907f8be0079c531659141344cd1fd0a4f28419497f9722a3daafe3b4186f6b6457e090600090a35050565b61161e8061008b6000396000f3fe608060405234801561001057600080fd5b50600436106101425760003560e01c806370a08231116100b8578063a9059cbb1161007c578063a9059cbb1461026e578063c1d34b8914610281578063cae9ca511461028f578063d8fbe9941461029d578063dd62ed3e146102ab578063f2fde38b146102be57610142565b806370a0823114610223578063715018a6146102365780638da5cb5b1461023e57806395d89b4114610253578063a457c2d71461025b57610142565b806323b872dd1161010a57806323b872dd146101c0578063313ce567146101d35780633177029f1461019857806339509351146101e85780634000aea0146101fb578063485cc9551461020e57610142565b806301ffc9a71461014757806306fdde0314610170578063095ea7b3146101855780631296ee621461019857806318160ddd146101ab575b600080fd5b61015a610155366004610f9c565b6102d1565b6040516101679190611070565b60405180910390f35b6101786102fe565b604051610167919061107b565b61015a610193366004610f1e565b610390565b61015a6101a6366004610f1e565b6103b2565b6101b36103d5565b6040516101679190611546565b61015a6101ce366004610e7d565b6103db565b6101db610409565b604051610167919061154f565b61015a6101f6366004610f1e565b61040e565b61015a610209366004610f47565b61043a565b61022161021c366004610e4b565b6104a8565b005b6101b3610231366004610e2a565b61059f565b6102216105ba565b6102466105ce565b604051610167919061101f565b6101786105dd565b61015a610269366004610f1e565b6105ec565b61015a61027c366004610f1e565b610634565b61015a6101a6366004610eb8565b61015a6101a6366004610f47565b61015a6101a6366004610e7d565b6101b36102b9366004610e4b565b61064c565b6102216102cc366004610e2a565b610677565b60006001600160e01b0319821663b0202a1160e01b14806102f657506102f6826106b1565b90505b919050565b60606004805461030d90611581565b80601f016020809104026020016040519081016040528092919081815260200182805461033990611581565b80156103865780601f1061035b57610100808354040283529160200191610386565b820191906000526020600020905b81548152906001019060200180831161036957829003601f168201915b5050505050905090565b60008061039b6106f1565b90506103a88185856106f5565b5060019392505050565b600060405162461bcd60e51b81526004016103cc906114a1565b60405180910390fd5b60035490565b6000806103e66106f1565b90506103f38582856107a9565b6103fe8585856107f3565b506001949350505050565b600990565b6000806104196106f1565b90506103a881858561042b858961064c565b610435919061155d565b6106f5565b6000815160401461045d5760405162461bcd60e51b81526004016103cc90611113565b6104678484610634565b6104835760405162461bcd60e51b81526004016103cc9061146a565b61049e61048e6106f1565b6104966106f1565b8686866108f4565b6103a88484610a29565b600054610100900460ff166104c35760005460ff16156104cb565b6104cb610b00565b6104e75760405162461bcd60e51b81526004016103cc9061124f565b600054610100900460ff16158015610512576000805460ff1961ff0019909116610100171660011790555b61051a610b11565b61055a604051806040016040528060038152602001622221a360e91b815250604051806040016040528060038152602001622221a360e91b815250610b50565b61056e6105656105ce565b62476940610b85565b61057b8362026160610b85565b6105888262058de0610b85565b801561059a576000805461ff00191690555b505050565b6001600160a01b031660009081526001602052604090205490565b6105c2610b11565b6105cc6000610c2f565b565b6006546001600160a01b031690565b60606005805461030d90611581565b6000806105f76106f1565b90506000610605828661064c565b9050838110156106275760405162461bcd60e51b81526004016103cc906114ca565b6103fe82868684036106f5565b60008061063f6106f1565b90506103a88185856107f3565b6001600160a01b03918216600090815260026020908152604080832093909416825291909152205490565b61067f610b11565b6001600160a01b0381166106a55760405162461bcd60e51b81526004016103cc9061114a565b6106ae81610c2f565b50565b60006001600160e01b031982166336372b0760e01b14806106e257506001600160e01b0319821663a219a02560e01b145b806102f657506102f682610c81565b3390565b6001600160a01b03831661071b5760405162461bcd60e51b81526004016103cc906113db565b6001600160a01b0382166107415760405162461bcd60e51b81526004016103cc90611190565b6001600160a01b0380841660008181526002602090815260408083209487168084529490915290819020849055517f8c5be1e5ebec7d5bd14f71427d1e84f3dd0314c0f7b2291e5b200ac8c7c3b9259061079c908590611546565b60405180910390a3505050565b60006107b5848461064c565b905060001981146107ed57818110156107e05760405162461bcd60e51b81526004016103cc906111d2565b6107ed84848484036106f5565b50505050565b6001600160a01b0383166108195760405162461bcd60e51b81526004016103cc90611396565b6001600160a01b03821661083f5760405162461bcd60e51b81526004016103cc9061108e565b61084a83838361059a565b6001600160a01b038316600090815260016020526040902054818110156108835760405162461bcd60e51b81526004016103cc90611209565b6001600160a01b0380851660008181526001602052604080822086860390559286168082529083902080548601905591517fddf252ad1be2c89b69c2b068fc378daa952ba7f163c4a11628f55a4df523b3ef906108e1908690611546565b60405180910390a36107ed84848461059a565b6001600160a01b0383163b61091b5760405162461bcd60e51b81526004016103cc90611313565b604051632229f29760e21b81526001600160a01b038416906388a7ca5c9061094d908890889087908790600401611033565b602060405180830381600087803b15801561096757600080fd5b505af1925050508015610997575060408051601f3d908101601f1916820190925261099491810190610fb8565b60015b6109f1573d8080156109c5576040519150601f19603f3d011682016040523d82523d6000602084013e6109ca565b606091505b5080516109e95760405162461bcd60e51b81526004016103cc90611354565b805160208201fd5b6001600160e01b03198116632229f29760e21b14610a215760405162461bcd60e51b81526004016103cc90611354565b505050505050565b6001600160a01b038216610a4f5760405162461bcd60e51b81526004016103cc906112d2565b610a5b8260008361059a565b6001600160a01b03821660009081526001602052604090205481811015610a945760405162461bcd60e51b81526004016103cc906110d1565b6001600160a01b0383166000818152600160205260408082208585039055600380548690039055519091907fddf252ad1be2c89b69c2b068fc378daa952ba7f163c4a11628f55a4df523b3ef90610aec908690611546565b60405180910390a361059a8360008461059a565b6000610b0b30610c9a565b15905090565b610b196106f1565b6001600160a01b0316610b2a6105ce565b6001600160a01b0316146105cc5760405162461bcd60e51b81526004016103cc9061129d565b600054610100900460ff16610b775760405162461bcd60e51b81526004016103cc9061141f565b610b818282610ca9565b5050565b6001600160a01b038216610bab5760405162461bcd60e51b81526004016103cc9061150f565b610bb76000838361059a565b8060036000828254610bc9919061155d565b90915550506001600160a01b038216600081815260016020526040808220805485019055517fddf252ad1be2c89b69c2b068fc378daa952ba7f163c4a11628f55a4df523b3ef90610c1b908590611546565b60405180910390a3610b816000838361059a565b600680546001600160a01b038381166001600160a01b0319831681179093556040519116919082907f8be0079c531659141344cd1fd0a4f28419497f9722a3daafe3b4186f6b6457e090600090a35050565b6001600160e01b031981166301ffc9a760e01b14919050565b6001600160a01b03163b151590565b600054610100900460ff16610cd05760405162461bcd60e51b81526004016103cc9061141f565b8151610ce3906004906020850190610cf3565b50805161059a9060059060208401905b828054610cff90611581565b90600052602060002090601f016020900481019282610d215760008555610d67565b82601f10610d3a57805160ff1916838001178555610d67565b82800160010185558215610d67579182015b82811115610d67578251825591602001919060010190610d4c565b50610d73929150610d77565b5090565b5b80821115610d735760008155600101610d78565b80356001600160a01b03811681146102f957600080fd5b600082601f830112610db3578081fd5b813567ffffffffffffffff80821115610dce57610dce6115bc565b604051601f8301601f19908116603f01168101908282118183101715610df657610df66115bc565b81604052838152866020858801011115610e0e578485fd5b8360208701602083013792830160200193909352509392505050565b600060208284031215610e3b578081fd5b610e4482610d8c565b9392505050565b60008060408385031215610e5d578081fd5b610e6683610d8c565b9150610e7460208401610d8c565b90509250929050565b600080600060608486031215610e91578081fd5b610e9a84610d8c565b9250610ea860208501610d8c565b9150604084013590509250925092565b60008060008060808587031215610ecd578081fd5b610ed685610d8c565b9350610ee460208601610d8c565b925060408501359150606085013567ffffffffffffffff811115610f06578182fd5b610f1287828801610da3565b91505092959194509250565b60008060408385031215610f30578182fd5b610f3983610d8c565b946020939093013593505050565b600080600060608486031215610f5b578283fd5b610f6484610d8c565b925060208401359150604084013567ffffffffffffffff811115610f86578182fd5b610f9286828701610da3565b9150509250925092565b600060208284031215610fad578081fd5b8135610e44816115d2565b600060208284031215610fc9578081fd5b8151610e44816115d2565b60008151808452815b81811015610ff957602081850181015186830182015201610fdd565b8181111561100a5782602083870101525b50601f01601f19169290920160200192915050565b6001600160a01b0391909116815260200190565b6001600160a01b038581168252841660208201526040810183905260806060820181905260009061106690830184610fd4565b9695505050505050565b901515815260200190565b600060208252610e446020830184610fd4565b60208082526023908201527f45524332303a207472616e7366657220746f20746865207a65726f206164647260408201526265737360e81b606082015260800190565b60208082526022908201527f45524332303a206275726e20616d6f756e7420657863656564732062616c616e604082015261636560f01b606082015260800190565b6020808252601c908201527f455243313336333a20696e76616c6964206461746120666f726d617400000000604082015260600190565b60208082526026908201527f4f776e61626c653a206e6577206f776e657220697320746865207a65726f206160408201526564647265737360d01b606082015260800190565b60208082526022908201527f45524332303a20617070726f766520746f20746865207a65726f206164647265604082015261737360f01b606082015260800190565b6020808252601d908201527f45524332303a20696e73756666696369656e7420616c6c6f77616e6365000000604082015260600190565b60208082526026908201527f45524332303a207472616e7366657220616d6f756e7420657863656564732062604082015265616c616e636560d01b606082015260800190565b6020808252602e908201527f496e697469616c697a61626c653a20636f6e747261637420697320616c72656160408201526d191e481a5b9a5d1a585b1a5e995960921b606082015260800190565b6020808252818101527f4f776e61626c653a2063616c6c6572206973206e6f7420746865206f776e6572604082015260600190565b60208082526021908201527f45524332303a206275726e2066726f6d20746865207a65726f206164647265736040820152607360f81b606082015260800190565b60208082526021908201527f455243313336333a207472616e7366657220746f206e6f6e2d636f6e747261636040820152601d60fa1b606082015260800190565b60208082526022908201527f455243313336333a20746f206973206120696e636f7272656374206164647265604082015261737360f01b606082015260800190565b60208082526025908201527f45524332303a207472616e736665722066726f6d20746865207a65726f206164604082015264647265737360d81b606082015260800190565b60208082526024908201527f45524332303a20617070726f76652066726f6d20746865207a65726f206164646040820152637265737360e01b606082015260800190565b6020808252602b908201527f496e697469616c697a61626c653a20636f6e7472616374206973206e6f74206960408201526a6e697469616c697a696e6760a81b606082015260800190565b60208082526018908201527f455243313336333a207472616e73666572206661696c65640000000000000000604082015260600190565b6020808252600f908201526e1393d517d253541311535153951151608a1b604082015260600190565b60208082526025908201527f45524332303a2064656372656173656420616c6c6f77616e63652062656c6f77604082015264207a65726f60d81b606082015260800190565b6020808252601f908201527f45524332303a206d696e7420746f20746865207a65726f206164647265737300604082015260600190565b90815260200190565b60ff91909116815260200190565b6000821982111561157c57634e487b7160e01b81526011600452602481fd5b500190565b60028104600182168061159557607f821691505b602082108114156115b657634e487b7160e01b600052602260045260246000fd5b50919050565b634e487b7160e01b600052604160045260246000fd5b6001600160e01b0319811681146106ae57600080fdfea2646970667358221220f21cf2e8f497d5195a5cb0702efccd9652f4484e866b15682b1e95e57cb4e5ca64736f6c63430008010033",
  "linkReferences": {},
  "deployedLinkReferences": {},
  "immutableReferences": {},
  "inputSourceName": "project/contracts/TCFcopy.sol",
  "devdoc": {
    "kind": "dev",
    "methods": {
      "allowance(address,address)": {
        "details": "See {IERC20-allowance}."
      },
      "approve(address,uint256)": {
        "details": "See {IERC20-approve}. NOTE: If `amount` is the maximum `uint256`, the allowance is not updated on `transferFrom`. This is semantically equivalent to an infinite approval. Requirements: - `spender` cannot be the zero address."
      },
      "approveAndCall(address,uint256)": {
        "details": "Sets a `value` amount of tokens as the allowance of `spender` over the caller's tokens and then calls {IERC1363Spender-onApprovalReceived} on `spender`. Returns a flag that indicates if the call succeeded. 没有实现 Requirements: - The target has code (i.e. is a contract). - The target `spender` must implement the {IERC1363Spender} interface. - The target must return the {IERC1363Spender-onApprovalReceived} selector to accept the approval. - The internal {approve} must succeed (returned `true`)."
      },
      "approveAndCall(address,uint256,bytes)": {
        "details": "Variant of {approveAndCall} that accepts an additional `data` parameter with no specified format. 没有实现"
      },
      "balanceOf(address)": {
        "details": "See {IERC20-balanceOf}."
      },
      "decimals()": {
        "details": "Returns the number of decimals used to get its user representation. For example, if `decimals` equals `2`, a balance of `505` tokens should be displayed to a user as `5.05` (`505 / 10 ** 2`). Tokens usually opt for a value of 18, imitating the relationship between Ether and Wei. This is the default value returned by this function, unless it's overridden. NOTE: This information is only used for _display_ purposes: it in no way affects any of the arithmetic of the contract, including {IERC20-balanceOf} and {IERC20-transfer}."
      },
      "decreaseAllowance(address,uint256)": {
        "details": "Atomically decreases the allowance granted to `spender` by the caller. This is an alternative to {approve} that can be used as a mitigation for problems described in {IERC20-approve}. Emits an {Approval} event indicating the updated allowance. Requirements: - `spender` cannot be the zero address. - `spender` must have allowance for the caller of at least `subtractedValue`."
      },
      "increaseAllowance(address,uint256)": {
        "details": "Atomically increases the allowance granted to `spender` by the caller. This is an alternative to {approve} that can be used as a mitigation for problems described in {IERC20-approve}. Emits an {Approval} event indicating the updated allowance. Requirements: - `spender` cannot be the zero address."
      },
      "name()": {
        "details": "Returns the name of the token."
      },
      "owner()": {
        "details": "Returns the address of the current owner."
      },
      "renounceOwnership()": {
        "details": "Leaves the contract without owner. It will not be possible to call `onlyOwner` functions. Can only be called by the current owner. NOTE: Renouncing ownership will leave the contract without an owner, thereby disabling any functionality that is only available to the owner."
      },
      "symbol()": {
        "details": "Returns the symbol of the token, usually a shorter version of the name."
      },
      "totalSupply()": {
        "details": "See {IERC20-totalSupply}."
      },
      "transfer(address,uint256)": {
        "details": "See {IERC20-transfer}. Requirements: - `to` cannot be the zero address. - the caller must have a balance of at least `amount`."
      },
      "transferAndCall(address,uint256)": {
        "details": "Moves a `value` amount of tokens from the caller's account to `to` and then calls {IERC1363Receiver-onTransferReceived} on `to`. Returns a flag that indicates if the call succeeded. Requirements: - The target has code (i.e. is a contract). - The target `to` must implement the {IERC1363Receiver} interface. - The target must return the {IERC1363Receiver-onTransferReceived} selector to accept the transfer. - The internal {transfer} must succeed (returned `true`)."
      },
      "transferAndCall(address,uint256,bytes)": {
        "details": "Variant of {transferAndCall} that accepts an additional `data` parameter with no specified format. 用户调用transferAndCall函数，使用DCF购买NFT时，最后一个参数需要传入 tokenID + buyAmount 的hex格式 （tokenID和buyAmount 都是uint256类型），前缀为0x，总共长度为66字节。",
        "params": {
          "data": "tokenID + buyAmount (each uint256), 64 bytes total",
          "to": "NFT合约的地址，花费value的token购买“buyAmount”数量的NFT",
          "value": "花费的token数量,单位是最小单位,花费1个token,则value=1*10^9"
        }
      },
      "transferFrom(address,address,uint256)": {
        "details": "See {IERC20-transferFrom}. Emits an {Approval} event indicating the updated allowance. This is not required by the EIP. See the note at the beginning of {ERC20}. NOTE: Does not update the allowance if the current allowance is the maximum `uint256`. Requirements: - `from` and `to` cannot be the zero address. - `from` must have a balance of at least `amount`. - the caller must have allowance for ``from``'s tokens of at least `amount`."
      },
      "transferFromAndCall(address,address,uint256)": {
        "details": "Moves a `value` amount of tokens from `from` to `to` using the allowance mechanism and then calls {IERC1363Receiver-onTransferReceived} on `to`. Returns a flag that indicates if the call succeeded. 没有实现 Requirements: - The target has code (i.e. is a contract). - The target `to` must implement the {IERC1363Receiver} interface. - The target must return the {IERC1363Receiver-onTransferReceived} selector to accept the transfer. - The internal {transferFrom} must succeed (returned `true`)."
      },
      "transferFromAndCall(address,address,uint256,bytes)": {
        "details": "Variant of {transferFromAndCall} that accepts an additional `data` parameter with no specified format. 没有实现"
      },
      "transferOwnership(address)": {
        "details": "Transfers ownership of the contract to a new account (`newOwner`). Can only be called by the current owner."
      }
    },
    "version": 1
  },
  "evm": {
    "gasEstimates": {
      "creation": {
        "codeDepositCost": "1132400",
        "executionCost": "23645",
        "totalCost": "1156045"
      },
      "external": {
        "allowance(address,address)": "infinite",
        "approve(address,uint256)": "22664",
        "approveAndCall(address,uint256)": "528",
        "approveAndCall(address,uint256,bytes)": "infinite",
        "balanceOf(address)": "1293",
        "decimals()": "285",
        "decreaseAllowance(address,uint256)": "23756",
        "increaseAllowance(address,uint256)": "23762",
        "initialize(address,address)": "infinite",
        "name()": "infinite",
        "owner()": "1137",
        "renounceOwnership()": "infinite",
        "supportsInterface(bytes4)": "infinite",
        "symbol()": "infinite",
        "totalSupply()": "1140",
        "transfer(address,uint256)": "infinite",
        "transferAndCall(address,uint256)": "551",
        "transferAndCall(address,uint256,bytes)": "infinite",
        "transferFrom(address,address,uint256)": "infinite",
        "transferFromAndCall(address,address,uint256)": "infinite",
        "transferFromAndCall(address,address,uint256,bytes)": "infinite",
        "transferOwnership(address)": "23858"
      }
    }
  },
  "storageLayout": {
    "storage": [
      {
        "astId": 750,
        "contract": "project/contracts/TCFcopy.sol:TCF_copy",
        "label": "_initialized",
        "offset": 0,
        "slot": "0",
        "type": "t_bool"
      },
      {
        "astId": 753,
        "contract": "project/contracts/TCFcopy.sol:TCF_copy",
        "label": "_initializing",
        "offset": 1,
        "slot": "0",
        "type": "t_bool"
      },
      {
        "astId": 1013,
        "contract": "project/contracts/TCFcopy.sol:TCF_copy",
        "label": "_balances",
        "offset": 0,
        "slot": "1",
        "type": "t_mapping(t_address,t_uint256)"
      },
      {
        "astId": 1019,
        "contract": "project/contracts/TCFcopy.sol:TCF_copy",
        "label": "_allowances",
        "offset": 0,
        "slot": "2",
        "type": "t_mapping(t_address,t_mapping(t_address,t_uint256))"
      },
      {
        "astId": 1021,
        "contract": "project/contracts/TCFcopy.sol:TCF_copy",
        "label": "_totalSupply",
        "offset": 0,
        "slot": "3",
        "type": "t_uint256"
      },
      {
        "astId": 1023,
        "contract": "project/contracts/TCFcopy.sol:TCF_copy",
        "label": "_name",
        "offset": 0,
        "slot": "4",
        "type": "t_string_storage"
      },
      {
        "astId": 1025,
        "contract": "project/contracts/TCFcopy.sol:TCF_copy",
        "label": "_symbol",
        "offset": 0,
        "slot": "5",
        "type": "t_string_storage"
      },
      {
        "astId": 534,
        "contract": "project/contracts/TCFcopy.sol:TCF_copy",
        "label": "_owner",
        "offset": 0,
        "slot": "6",
        "type": "t_address"
      }
    ],
    "types": {
      "t_address": {
        "encoding": "inplace",
        "label": "address",
        "numberOfBytes": "20"
      },
      "t_bool": {
        "encoding": "inplace",
        "label": "bool",
        "numberOfBytes": "1"
      },
      "t_mapping(t_address,t_mapping(t_address,t_uint256))": {
        "encoding": "mapping",
        "key": "t_address",
        "label": "mapping(address => mapping(address => uint256))",
        "numberOfBytes": "32",
        "value": "t_mapping(t_address,t_uint256)"
      },
      "t_mapping(t_address,t_uint256)": {
        "encoding": "mapping",
        "key": "t_address",
        "label": "mapping(address => uint256)",
        "numberOfBytes": "32",
        "value": "t_uint256"
      },
      "t_string_storage": {
        "encoding": "bytes",
        "label": "string",
        "numberOfBytes": "32"
      },
      "t_uint256": {
        "encoding": "inplace",
        "label": "uint256",
        "numberOfBytes": "32"
      }
    }
  },
  "userdoc": {
    "kind": "user",
    "methods": {},
    "version": 1
  },
  "argsData": "0x",
  "transaction": {
    "hash": "0xcb7157bef45b5e78fa57bfdc8068d3f5f1e34afde1c04f812cf107bc06cf8d00",
    "nonce": "0x3",
    "origin": "0xf39fd6e51aad88f6f4ce6ab8827279cfffb92266"
  }
}