{
  "address": "0xdc64a140aa3e981100a9beca4e685f962f0cf6c9",
  "abi": [
    {
      "anonymous": false,
      "inputs": [
        {
          "indexed": true,
          "internalType": "address",
          "name": "account",
          "type": "address"
        },
        {
          "indexed": true,
          "internalType": "address",
          "name": "operator",
          "type": "address"
        },
        {
          "indexed": false,
          "internalType": "bool",
          "name": "approved",
          "type": "bool"
        }
      ],
      "name": "ApprovalForAll",
      "type": "event"
    },
    {
      "anonymous": false,
      "inputs": [
        {
          "indexed": true,
          "internalType": "uint256",
          "name": "tokenID",
          "type": "uint256"
        },
        {
          "indexed": false,
          "internalType": "uint8",
          "name": "previousRatio",
          "type": "uint8"
        },
        {
          "indexed": false,
          "internalType": "uint8",
          "name": "newRatio",
          "type": "uint8"
        }
      ],
      "name": "DynamicRatioChanged",
      "type": "event"
    },
    {
      "anonymous": false,
      "inputs": [
        {
          "indexed": true,
          "internalType": "uint256",
          "name": "tokenID",
          "type": "uint256"
        },
        {
          "indexed": true,
          "internalType": "address",
          "name": "paymentToken",
          "type": "address"
        },
        {
          "indexed": false,
          "internalType": "uint256",
          "name": "oldPrice",
          "type": "uint256"
        },
        {
          "indexed": false,
          "internalType": "uint256",
          "name": "newPrice",
          "type": "uint256"
        }
      ],
      "name": "NFTPriceChanged",
      "type": "event"
    },
    {
      "anonymous": false,
      "inputs": [
        {
          "indexed": true,
          "internalType": "address",
          "name": "buyer",
          "type": "address"
        },
        {
          "indexed": true,
          "internalType": "uint256",
          "name": "tokenId",
          "type": "uint256"
        },
        {
          "indexed": false,
          "internalType": "uint256",
          "name": "amount",
          "type": "uint256"
        },
        {
          "indexed": false,
          "internalType": "uint256",
          "name": "pricePerUnit",
          "type": "uint256"
        }
      ],
      "name": "NFTPurchasedWithTC",
      "type": "event"
    },
    {
      "anonymous": false,
      "inputs": [
        {
          "indexed": true,
          "internalType": "address",
          "name": "buyer",
          "type": "address"
        },
        {
          "indexed": true,
          "internalType": "address",
          "name": "paymentToken",
          "type": "address"
        },
        {
          "indexed": true,
          "internalType": "uint256",
          "name": "tokenId",
          "type": "uint256"
        },
        {
          "indexed": false,
          "internalType": "uint256",
          "name": "amount",
          "type": "uint256"
        },
        {
          "indexed": false,
          "internalType": "uint256",
          "name": "pricePerUnit",
          "type": "uint256"
        }
      ],
      "name": "NFTPurchasedWithToken",
      "type": "event"
    },
    {
      "anonymous": false,
      "inputs": [
        {
          "indexed": true,
          "internalType": "address",
          "name": "node",
          "type": "address"
        },
        {
          "indexed": true,
          "internalType": "address",
          "name": "parent",
          "type": "address"
        },
        {
          "indexed": true,
          "internalType": "address",
          "name": "recommender",
          "type": "address"
        },
        {
          "indexed": false,
          "internalType": "bool",
          "name": "isLeft",
          "type": "bool"
        }
      ],
      "name": "NodeInserted",
      "type": "event"
    },
    {
      "anonymous": false,
      "inputs": [
        {
          "indexed": true,
          "internalType": "address",
          "name": "previousOwner",
          "type": "address"
        },
        {
          "indexed": true,
          "internalType": "address",
          "name": "newOwner",
          "type": "address"
        }
      ],
      "name": "OwnershipTransferred",
      "type": "event"
    },
    {
      "anonymous": false,
      "inputs": [
        {
          "indexed": false,
          "internalType": "address",
          "name": "account",
          "type": "address"
        }
      ],
      "name": "Paused",
      "type": "event"
    },
    {
      "anonymous": false,
      "inputs": [
        {
          "indexed": true,
          "internalType": "address",
          "name": "root",
          "type": "address"
        }
      ],
      "name": "RootInitialized",
      "type": "event"
    },
    {
      "anonymous": false,
      "inputs": [
        {
          "indexed": true,
          "internalType": "address",
          "name": "to",
          "type": "address"
        },
        {
          "indexed": true,
          "internalType": "uint256",
          "name": "tokenId",
          "type": "uint256"
        },
        {
          "indexed": false,
          "internalType": "uint256",
          "name": "editionId",
          "type": "uint256"
        },
        {
          "indexed": false,
          "internalType": "uint256",
          "name": "mintedAt",
          "type": "uint256"
        }
      ],
      "name": "TokenEditionMinted",
      "type": "event"
    },
    {
      "anonymous": false,
      "inputs": [
        {
          "indexed": true,
          "internalType": "address",
          "name": "operator",
          "type": "address"
        },
        {
          "indexed": true,
          "internalType": "address",
          "name": "from",
          "type": "address"
        },
        {
          "indexed": true,
          "internalType": "address",
          "name": "to",
          "type": "address"
        },
        {
          "indexed": false,
          "internalType": "uint256[]",
          "name": "ids",
          "type": "uint256[]"
        },
        {
          "indexed": false,
          "internalType": "uint256[]",
          "name": "values",
          "type": "uint256[]"
        }
      ],
      "name": "TransferBatch",
      "type": "event"
    },
    {
      "anonymous": false,
      "inputs": [
        {
          "indexed": true,
          "internalType": "address",
          "name": "operator",
          "type": "address"
        },
        {
          "indexed": true,
          "internalType": "address",
          "name": "from",
          "type": "address"
        },
        {
          "indexed": true,
          "internalType": "address",
          "name": "to",
          "type": "address"
        },
        {
          "indexed": false,
          "internalType": "uint256",
          "name": "id",
          "type": "uint256"
        },
        {
          "indexed": false,
          "internalType": "uint256",
          "name": "value",
          "type": "uint256"
        }
      ],
      "name": "TransferSingle",
      "type": "event"
    },
    {
      "anonymous": false,
      "inputs": [
        {
          "indexed": false,
          "internalType": "string",
          "name": "value",
          "type": "string"
        },
        {
          "indexed": true,
          "internalType": "uint256",
          "name": "id",
          "type": "uint256"
        }
      ],
      "name": "URI",
      "type": "event"
    },
    {
      "anonymous": false,
      "inputs": [
        {
          "indexed": false,
          "internalType": "address",
          "name": "account",
          "type": "address"
        }
      ],
      "name": "Unpaused",
      "type": "event"
    },
    {
      "anonymous": false,
      "inputs": [
        {
          "indexed": true,
          "internalType": "address",
          "name": "operator",
          "type": "address"
        },
        {
          "indexed": true,
          "internalType": "address",
          "name": "previousAddress",
          "type": "address"
        },
        {
          "indexed": true,
          "internalType": "address",
          "name": "newAddress",
          "type": "address"
        }
      ],
      "name": "WithdrawAddressUpdated",
      "type": "event"
    },
    {
      "inputs": [
        {
          "internalType": "address",
          "name": "from",
          "type": "address"
        },
        {
          "internalType": "address",
          "name": "to",
          "type": "address"
        },
        {
          "internalType": "uint256",
          "name": "id",
          "type": "uint256"
        },
        {
          "internalType": "uint256[]",
          "name": "indexes",
          "type": "uint256[]"
        },
        {
          "internalType": "bytes",
          "name": "data",
          "type": "bytes"
        }
      ],
      "name": "ESafeTransferFrom",
      "outputs": [],
      "stateMutability": "nonpayable",
      "type": "function"
    },
    {
      "inputs": [
        {
          "internalType": "uint256",
          "name": "tokenId",
          "type": "uint256"
        }
      ],
      "name": "Euri",
      "outputs": [
        {
          "internalType": "string",
          "name": "",
          "type": "string"
        }
      ],
      "stateMutability": "view",
      "type": "function"
    },
    {
      "inputs": [],
      "name": "NFTPrice_initialized",
      "outputs": [
        {
          "internalType": "uint8",
          "name": "",
          "type": "uint8"
        }
      ],
      "stateMutability": "view",
      "type": "function"
    },
    {
      "inputs": [],
      "name": "_initializedURIStorage",
      "outputs": [
        {
          "internalType": "uint8",
          "name": "",
          "type": "uint8"
        }
      ],
      "stateMutability": "view",
      "type": "function"
    },
    {
      "inputs": [
        {
          "internalType": "address",
          "name": "_tokenAddress",
          "type": "address"
        }
      ],
      "name": "addSupportedToken",
      "outputs": [],
      "stateMutability": "nonpayable",
      "type": "function"
    },
    {
      "inputs": [
        {
          "internalType": "address",
          "name": "account",
          "type": "address"
        },
        {
          "internalType": "uint256",
          "name": "id",
          "type": "uint256"
        }
      ],
      "name": "balanceOf",
      "outputs": [
        {
          "internalType": "uint256",
          "name": "",
          "type": "uint256"
        }
      ],
      "stateMutability": "view",
      "type": "function"
    },
    {
      "inputs": [
        {
          "internalType": "address[]",
          "name": "",
          "type": "address[]"
        },
        {
          "internalType": "uint256[]",
          "name": "",
          "type": "uint256[]"
        }
      ],
      "name": "balanceOfBatch",
      "outputs": [
        {
          "internalType": "uint256[]",
          "name": "",
          "type": "uint256[]"
        }
      ],
      "stateMutability": "view",
      "type": "function"
    },
    {
      "inputs": [
        {
          "internalType": "address",
          "name": "account",
          "type": "address"
        },
        {
          "internalType": "uint256",
          "name": "id",
          "type": "uint256"
        },
        {
          "internalType": "uint256",
          "name": "buyAmount",
          "type": "uint256"
        }
      ],
      "name": "buyNFTByTC",
      "outputs": [],
      "stateMutability": "payable",
      "type": "function"
    },
    {
      "inputs": [
        {
          "internalType": "uint256",
          "name": "tokenID",
          "type": "uint256"
        },
        {
          "internalType": "uint8",
          "name": "newRatio",
          "type": "uint8"
        }
      ],
      "name": "changeDynamicRatio",
      "outputs": [],
      "stateMutability": "nonpayable",
      "type": "function"
    },
    {
      "inputs": [
        {
          "internalType": "uint256",
          "name": "tokenID",
          "type": "uint256"
        },
        {
          "internalType": "address",
          "name": "tokenAddress",
          "type": "address"
        },
        {
          "internalType": "uint256",
          "name": "amount",
          "type": "uint256"
        }
      ],
      "name": "changeNFTPrice",
      "outputs": [],
      "stateMutability": "nonpayable",
      "type": "function"
    },
    {
      "inputs": [
        {
          "components": [
            {
              "internalType": "address",
              "name": "tokenAddress",
              "type": "address"
            },
            {
              "internalType": "uint256",
              "name": "amount",
              "type": "uint256"
            }
          ],
          "internalType": "struct TCF_NFTPrice.priceTypeAndAomut[][6]",
          "name": "prices",
          "type": "tuple[][6]"
        }
      ],
      "name": "checkInitPricesParams",
      "outputs": [
        {
          "internalType": "string",
          "name": "",
          "type": "string"
        }
      ],
      "stateMutability": "view",
      "type": "function"
    },
    {
      "inputs": [
        {
          "internalType": "address",
          "name": "node",
          "type": "address"
        }
      ],
      "name": "getChildren",
      "outputs": [
        {
          "internalType": "address",
          "name": "left",
          "type": "address"
        },
        {
          "internalType": "address",
          "name": "right",
          "type": "address"
        }
      ],
      "stateMutability": "view",
      "type": "function"
    },
    {
      "inputs": [
        {
          "internalType": "uint256",
          "name": "tokenID",
          "type": "uint256"
        }
      ],
      "name": "getNFTEquityDetails",
      "outputs": [
        {
          "internalType": "uint8",
          "name": "ratio",
          "type": "uint8"
        },
        {
          "internalType": "uint32",
          "name": "indate",
          "type": "uint32"
        }
      ],
      "stateMutability": "view",
      "type": "function"
    },
    {
      "inputs": [
        {
          "internalType": "uint256",
          "name": "tokenID",
          "type": "uint256"
        },
        {
          "internalType": "address",
          "name": "_tokenAddress",
          "type": "address"
        }
      ],
      "name": "getNFTPrice",
      "outputs": [
        {
          "internalType": "string",
          "name": "",
          "type": "string"
        },
        {
          "internalType": "uint256",
          "name": "",
          "type": "uint256"
        }
      ],
      "stateMutability": "view",
      "type": "function"
    },
    {
      "inputs": [
        {
          "internalType": "uint256",
          "name": "tokenId",
          "type": "uint256"
        },
        {
          "internalType": "address",
          "name": "account",
          "type": "address"
        },
        {
          "internalType": "uint256",
          "name": "editionId",
          "type": "uint256"
        }
      ],
      "name": "getNftMintTime",
      "outputs": [
        {
          "internalType": "uint256",
          "name": "",
          "type": "uint256"
        }
      ],
      "stateMutability": "view",
      "type": "function"
    },
    {
      "inputs": [
        {
          "internalType": "address",
          "name": "node",
          "type": "address"
        }
      ],
      "name": "getNodeBalance",
      "outputs": [
        {
          "internalType": "uint256",
          "name": "",
          "type": "uint256"
        }
      ],
      "stateMutability": "view",
      "type": "function"
    },
    {
      "inputs": [
        {
          "internalType": "address",
          "name": "node",
          "type": "address"
        }
      ],
      "name": "getParent",
      "outputs": [
        {
          "internalType": "address",
          "name": "",
          "type": "address"
        }
      ],
      "stateMutability": "view",
      "type": "function"
    },
    {
      "inputs": [
        {
          "internalType": "address",
          "name": "recommender",
          "type": "address"
        }
      ],
      "name": "getRecommendedParent",
      "outputs": [
        {
          "internalType": "address",
          "name": "parent",
          "type": "address"
        },
        {
          "internalType": "bool",
          "name": "isLeftBranch",
          "type": "bool"
        }
      ],
      "stateMutability": "view",
      "type": "function"
    },
    {
      "inputs": [
        {
          "internalType": "address",
          "name": "node",
          "type": "address"
        }
      ],
      "name": "getRecommender",
      "outputs": [
        {
          "internalType": "address",
          "name": "",
          "type": "address"
        }
      ],
      "stateMutability": "view",
      "type": "function"
    },
    {
      "inputs": [
        {
          "internalType": "address",
          "name": "owner",
          "type": "address"
        }
      ],
      "name": "getTotalNFTWorth",
      "outputs": [
        {
          "internalType": "uint256",
          "name": "",
          "type": "uint256"
        }
      ],
      "stateMutability": "view",
      "type": "function"
    },
    {
      "inputs": [
        {
          "internalType": "address",
          "name": "account",
          "type": "address"
        },
        {
          "internalType": "uint256",
          "name": "tokenId",
          "type": "uint256"
        }
      ],
      "name": "getUserTokenIds",
      "outputs": [
        {
          "internalType": "uint256[]",
          "name": "",
          "type": "uint256[]"
        }
      ],
      "stateMutability": "view",
      "type": "function"
    },
    {
      "inputs": [],
      "name": "getWithdrawAddress",
      "outputs": [
        {
          "internalType": "address",
          "name": "",
          "type": "address"
        }
      ],
      "stateMutability": "view",
      "type": "function"
    },
    {
      "inputs": [
        {
          "components": [
            {
              "internalType": "address",
              "name": "tokenAddress",
              "type": "address"
            },
            {
              "internalType": "uint256",
              "name": "amount",
              "type": "uint256"
            }
          ],
          "internalType": "struct TCF_NFTPrice.priceTypeAndAomut[][6]",
          "name": "prices",
          "type": "tuple[][6]"
        }
      ],
      "name": "initPrice",
      "outputs": [],
      "stateMutability": "nonpayable",
      "type": "function"
    },
    {
      "inputs": [
        {
          "internalType": "address",
          "name": "rootAddress",
          "type": "address"
        }
      ],
      "name": "initRoot",
      "outputs": [],
      "stateMutability": "nonpayable",
      "type": "function"
    },
    {
      "inputs": [
        {
          "internalType": "address",
          "name": "node",
          "type": "address"
        },
        {
          "internalType": "address",
          "name": "parent",
          "type": "address"
        },
        {
          "internalType": "address",
          "name": "recommender",
          "type": "address"
        },
        {
          "internalType": "bool",
          "name": "isLeft",
          "type": "bool"
        }
      ],
      "name": "insert",
      "outputs": [],
      "stateMutability": "nonpayable",
      "type": "function"
    },
    {
      "inputs": [
        {
          "internalType": "address",
          "name": "account",
          "type": "address"
        },
        {
          "internalType": "address",
          "name": "operator",
          "type": "address"
        }
      ],
      "name": "isApprovedForAll",
      "outputs": [
        {
          "internalType": "bool",
          "name": "",
          "type": "bool"
        }
      ],
      "stateMutability": "view",
      "type": "function"
    },
    {
      "inputs": [
        {
          "internalType": "address",
          "name": "node",
          "type": "address"
        }
      ],
      "name": "isExist",
      "outputs": [
        {
          "internalType": "bool",
          "name": "",
          "type": "bool"
        }
      ],
      "stateMutability": "view",
      "type": "function"
    },
    {
      "inputs": [
        {
          "internalType": "address",
          "name": "token",
          "type": "address"
        }
      ],
      "name": "isSupported",
      "outputs": [
        {
          "internalType": "uint8",
          "name": "",
          "type": "uint8"
        }
      ],
      "stateMutability": "view",
      "type": "function"
    },
    {
      "inputs": [
        {
          "internalType": "address",
          "name": "node",
          "type": "address"
        }
      ],
      "name": "minChildSubtreeBalance",
      "outputs": [
        {
          "internalType": "uint256",
          "name": "",
          "type": "uint256"
        }
      ],
      "stateMutability": "view",
      "type": "function"
    },
    {
      "inputs": [
        {
          "internalType": "address",
          "name": "",
          "type": "address"
        },
        {
          "internalType": "address",
          "name": "from",
          "type": "address"
        },
        {
          "internalType": "uint256",
          "name": "amount",
          "type": "uint256"
        },
        {
          "internalType": "bytes",
          "name": "data",
          "type": "bytes"
        }
      ],
      "name": "onTransferReceived",
      "outputs": [
        {
          "internalType": "bytes4",
          "name": "",
          "type": "bytes4"
        }
      ],
      "stateMutability": "nonpayable",
      "type": "function"
    },
    {
      "inputs": [],
      "name": "owner",
      "outputs": [
        {
          "internalType": "address",
          "name": "",
          "type": "address"
        }
      ],
      "stateMutability": "view",
      "type": "function"
    },
    {
      "inputs": [
        {
          "internalType": "uint256",
          "name": "tokenId",
          "type": "uint256"
        },
        {
          "internalType": "uint256",
          "name": "editionId",
          "type": "uint256"
        }
      ],
      "name": "ownerOf",
      "outputs": [
        {
          "internalType": "address",
          "name": "",
          "type": "address"
        }
      ],
      "stateMutability": "view",
      "type": "function"
    },
    {
      "inputs": [],
      "name": "pause",
      "outputs": [],
      "stateMutability": "nonpayable",
      "type": "function"
    },
    {
      "inputs": [],
      "name": "paused",
      "outputs": [
        {
          "internalType": "bool",
          "name": "",
          "type": "bool"
        }
      ],
      "stateMutability": "view",
      "type": "function"
    },
    {
      "inputs": [],
      "name": "renounceOwnership",
      "outputs": [],
      "stateMutability": "nonpayable",
      "type": "function"
    },
    {
      "inputs": [],
      "name": "root",
      "outputs": [
        {
          "internalType": "address",
          "name": "",
          "type": "address"
        }
      ],
      "stateMutability": "view",
      "type": "function"
    },
    {
      "inputs": [],
      "name": "rootInitialized",
      "outputs": [
        {
          "internalType": "bool",
          "name": "",
          "type": "bool"
        }
      ],
      "stateMutability": "view",
      "type": "function"
    },
    {
      "inputs": [
        {
          "internalType": "address",
          "name": "",
          "type": "address"
        },
        {
          "internalType": "address",
          "name": "",
          "type": "address"
        },
        {
          "internalType": "uint256[]",
          "name": "",
          "type": "uint256[]"
        },
        {
          "internalType": "uint256[]",
          "name": "",
          "type": "uint256[]"
        },
        {
          "internalType": "bytes",
          "name": "",
          "type": "bytes"
        }
      ],
      "name": "safeBatchTransferFrom",
      "outputs": [],
      "stateMutability": "nonpayable",
      "type": "function"
    },
    {
      "inputs": [
        {
          "internalType": "address",
          "name": "",
          "type": "address"
        },
        {
          "internalType": "address",
          "name": "",
          "type": "address"
        },
        {
          "internalType": "uint256",
          "name": "",
          "type": "uint256"
        },
        {
          "internalType": "uint256",
          "name": "",
          "type": "uint256"
        },
        {
          "internalType": "bytes",
          "name": "",
          "type": "bytes"
        }
      ],
      "name": "safeTransferFrom",
      "outputs": [],
      "stateMutability": "nonpayable",
      "type": "function"
    },
    {
      "inputs": [
        {
          "internalType": "address",
          "name": "operator",
          "type": "address"
        },
        {
          "internalType": "bool",
          "name": "approved",
          "type": "bool"
        }
      ],
      "name": "setApprovalForAll",
      "outputs": [],
      "stateMutability": "nonpayable",
      "type": "function"
    },
    {
      "inputs": [
        {
          "internalType": "bytes[6]",
          "name": "baseURI",
          "type": "bytes[6]"
        }
      ],
      "name": "setBaseURI",
      "outputs": [],
      "stateMutability": "nonpayable",
      "type": "function"
    },
    {
      "inputs": [
        {
          "internalType": "address",
          "name": "addr",
          "type": "address"
        }
      ],
      "name": "setWithdrawAddress",
      "outputs": [],
      "stateMutability": "nonpayable",
      "type": "function"
    },
    {
      "inputs": [
        {
          "internalType": "address",
          "name": "node",
          "type": "address"
        }
      ],
      "name": "subtreeBalance",
      "outputs": [
        {
          "internalType": "uint256",
          "name": "",
          "type": "uint256"
        }
      ],
      "stateMutability": "view",
      "type": "function"
    },
    {
      "inputs": [],
      "name": "supportedTokenAmount",
      "outputs": [
        {
          "internalType": "uint256",
          "name": "",
          "type": "uint256"
        }
      ],
      "stateMutability": "view",
      "type": "function"
    },
    {
      "inputs": [
        {
          "internalType": "bytes4",
          "name": "interfaceId",
          "type": "bytes4"
        }
      ],
      "name": "supportsInterface",
      "outputs": [
        {
          "internalType": "bool",
          "name": "",
          "type": "bool"
        }
      ],
      "stateMutability": "view",
      "type": "function"
    },
    {
      "inputs": [
        {
          "internalType": "uint256",
          "name": "",
          "type": "uint256"
        }
      ],
      "name": "tokenAddress_array",
      "outputs": [
        {
          "internalType": "address",
          "name": "",
          "type": "address"
        }
      ],
      "stateMutability": "view",
      "type": "function"
    },
    {
      "inputs": [],
      "name": "totalTreeBalance",
      "outputs": [
        {
          "internalType": "uint256",
          "name": "",
          "type": "uint256"
        }
      ],
      "stateMutability": "view",
      "type": "function"
    },
    {
      "inputs": [
        {
          "internalType": "address",
          "name": "newOwner",
          "type": "address"
        }
      ],
      "name": "transferOwnership",
      "outputs": [],
      "stateMutability": "nonpayable",
      "type": "function"
    },
    {
      "inputs": [],
      "name": "unpause",
      "outputs": [],
      "stateMutability": "nonpayable",
      "type": "function"
    },
    {
      "inputs": [
        {
          "internalType": "uint256",
          "name": "",
          "type": "uint256"
        }
      ],
      "name": "uri",
      "outputs": [
        {
          "internalType": "string",
          "name": "",
          "type": "string"
        }
      ],
      "stateMutability": "view",
      "type": "function"
    },
    {
      "inputs": [],
      "name": "withdrawAddress_initialized",
      "outputs": [
        {
          "internalType": "uint8",
          "name": "",
          "type": "uint8"
        }
      ],
      "stateMutability": "view",
      "type": "function"
    }
  ],
  "contractName": "TCF_NFT",
  "sourceName": "contracts/TCF_NFT.sol",
  "bytecode": "0x60806040523480156200001157600080fd5b506200002662000020620000b1565b620000b5565b60126020527f71a67924699a20698523213e55fe499d539379d7769cd5567e2c45d583f815a38054600160ff1991821681179092556014805480840182556000919091527fce6d7b5282bd9a3661ae061feed1dbda4e52ab073b1f9285be6e155d9c38d4ec0180546001600160a01b03191683179055601391909155601b8054909116905562000107565b3390565b600980546001600160a01b038381166001600160a01b0319831681179093556040519116919082907f8be0079c531659141344cd1fd0a4f28419497f9722a3daafe3b4186f6b6457e090600090a35050565b614e8e80620001176000396000f3fe6080604052600436106102e25760003560e01c80636999fa4511610190578063a15113d1116100dc578063d9dad80d11610095578063e985e9c51161006f578063e985e9c5146108d4578063ebf0c717146108f4578063f242432a14610909578063f2fde38b14610929576102e2565b8063d9dad80d1461087f578063e5030adc1461089f578063e8e7f800146108bf576102e2565b8063a15113d1146107ca578063a22cb465146107df578063a9405923146107ff578063aa31281c1461081f578063b788920e1461083f578063d3ab74431461085f576102e2565b80638456cb59116101495780638da5cb5b116101235780638da5cb5b1461076057806392aeff48146107755780639da879b4146107955780639f2980db146107aa576102e2565b80638456cb59146106f057806386ff91131461070557806388a7ca5c14610733576102e2565b80636999fa45146106385780636d69fcaf14610666578063715018a6146106865780637a915fde1461069b5780637c8e2da7146106b057806383023c88146106d0576102e2565b80632fedbf3c1161024f5780634e1273f411610208578063598c27bc116101e2578063598c27bc146105db5780635c92dbd6146105fb5780635c975abb1461060e578063651583ee14610623576102e2565b80634e1273f41461056e5780634f129c531461059b57806355826313146105bb576102e2565b80632fedbf3c146104a95780633a4d2d3a146104c95780633ab1a494146104e95780633f257599146105095780633f4ba83a146105375780634c8cb6721461054c576102e2565b8063153154fd116102a1578063153154fd146103e557806319d62e57146104125780631f3fd6181461043257806323361283146104525780632653335a146104675780632eb2c2d614610487576102e2565b806213eb4b146102e7578062fdd58e1461031d57806301ffc9a71461034a57806306198b981461036a57806307f241ce146103985780630e89341c146103b8575b600080fd5b3480156102f357600080fd5b50610307610302366004613d03565b610949565b60405161031491906144fa565b60405180910390f35b34801561032957600080fd5b5061033d610338366004613ff3565b6109a7565b6040516103149190614b90565b34801561035657600080fd5b506103076103653660046141cb565b6109bc565b34801561037657600080fd5b5061038a6103853660046142be565b6109e1565b604051610314929190614bb5565b3480156103a457600080fd5b5061033d6103b3366004613d03565b610a59565b3480156103c457600080fd5b506103d86103d33660046142be565b610aa4565b604051610314919061451a565b3480156103f157600080fd5b50610405610400366004613d03565b610abe565b6040516103149190614428565b34801561041e57600080fd5b5061040561042d3660046142be565b610b22565b34801561043e57600080fd5b506103d861044d366004614116565b610b4c565b34801561045e57600080fd5b5061033d610e5c565b34801561047357600080fd5b5061033d610482366004613d03565b610e62565b34801561049357600080fd5b506104a76104a2366004613da2565b610f68565b005b3480156104b557600080fd5b506104a76104c436600461414d565b610f80565b3480156104d557600080fd5b506104a76104e4366004614116565b611012565b3480156104f557600080fd5b506104a7610504366004613d03565b611320565b34801561051557600080fd5b50610529610524366004613d03565b611403565b60405161031492919061449b565b34801561054357600080fd5b506104a7611552565b34801561055857600080fd5b50610561611564565b6040516103149190614ba7565b34801561057a57600080fd5b5061058e61058936600461404e565b611572565b60405161031491906144b6565b3480156105a757600080fd5b506105616105b6366004613d03565b61158c565b3480156105c757600080fd5b506104a76105d63660046142f8565b6115c0565b3480156105e757600080fd5b506104a76105f6366004613e47565b611678565b6104a761060936600461401c565b6116d8565b34801561061a57600080fd5b506103076118fa565b34801561062f57600080fd5b50610307611904565b34801561064457600080fd5b50610658610653366004613d03565b611914565b60405161031492919061443c565b34801561067257600080fd5b506104a7610681366004613d03565b611987565b34801561069257600080fd5b506104a7611a70565b3480156106a757600080fd5b50610561611a82565b3480156106bc57600080fd5b5061033d6106cb366004613d03565b611a8b565b3480156106dc57600080fd5b506104a76106eb366004614370565b611b02565b3480156106fc57600080fd5b506104a7611bbb565b34801561071157600080fd5b506107256107203660046142d6565b611bcb565b60405161031492919061452d565b34801561073f57600080fd5b5061075361074e366004613f03565b611c78565b6040516103149190614505565b34801561076c57600080fd5b50610405611ea2565b34801561078157600080fd5b506104a7610790366004613d03565b611eb1565b3480156107a157600080fd5b50610561611f9d565b3480156107b657600080fd5b506104a76107c5366004613d4f565b611fad565b3480156107d657600080fd5b5061033d6122bc565b3480156107eb57600080fd5b506104a76107fa366004613fca565b612302565b34801561080b57600080fd5b5061040561081a366004613d03565b612318565b34801561082b57600080fd5b5061033d61083a3660046142f8565b612379565b34801561084b57600080fd5b5061058e61085a366004613ff3565b6123cb565b34801561086b57600080fd5b506103d861087a3660046142be565b612460565b34801561088b57600080fd5b5061040561089a36600461432c565b61255a565b3480156108ab57600080fd5b5061033d6108ba366004613d03565b6125a3565b3480156108cb57600080fd5b50610405612751565b3480156108e057600080fd5b506103076108ef366004613d1d565b61279c565b34801561090057600080fd5b506104056127ca565b34801561091557600080fd5b506104a7610924366004613f68565b6127d9565b34801561093557600080fd5b506104a7610944366004613d03565b6127f1565b60006001600160a01b03821661097a5760405162461bcd60e51b815260040161097190614806565b60405180910390fd5b506001600160a01b0381166000908152601a6020526040902060030154600160a01b900460ff165b919050565b60006109b3838361282b565b90505b92915050565b60006001600160e01b03198216632229f29760e21b14806109b657506109b68261289b565b601554600090819060ff61010090910416600114610a115760405162461bcd60e51b815260040161097190614a74565b60068310610a315760405162461bcd60e51b8152600401610971906146bb565b505060009081526016602052604090206001015460ff81169161010090910463ffffffff1690565b6001600160a01b0381166000908152601a6020526040812060030154600160a01b900460ff16610a9b5760405162461bcd60e51b815260040161097190614b67565b6109b6826125a3565b606060405162461bcd60e51b815260040161097190614aa4565b6001600160a01b0381166000908152601a6020526040812060030154600160a01b900460ff16610b005760405162461bcd60e51b815260040161097190614b67565b506001600160a01b039081166000908152601a60205260409020600301541690565b60148181548110610b3257600080fd5b6000918252602090912001546001600160a01b0316905081565b606060005b6006811015610e4657601354838260068110610b7d57634e487b7160e01b600052603260045260246000fd5b602002810190610b8d9190614be2565b905014610bbc57505060408051808201909152600a815269282924a1a2a9afa622a760b11b60208201526109a2565b6000806000858460068110610be157634e487b7160e01b600052603260045260246000fd5b602002810190610bf19190614be2565b808060200260200160405190810160405280939291908181526020016000905b82821015610c3d57610c2e60408302860136819003810190614280565b81526020019060010190610c11565b5050505050905060005b601354811015610db8576000828281518110610c7357634e487b7160e01b600052603260045260246000fd5b60209081029190910101515190506001600160a01b038116610c985760019450610c9d565b600193505b60006001600160a01b0316838381518110610cc857634e487b7160e01b600052603260045260246000fd5b6020026020010151600001516001600160a01b031614158015610d37575060126000848481518110610d0a57634e487b7160e01b600052603260045260246000fd5b602090810291909101810151516001600160a01b031682528101919091526040016000205460ff16600114155b15610da757610d9a838381518110610d5f57634e487b7160e01b600052603260045260246000fd5b602002602001015160000151604051806040016040528060118152602001701513d2d15397d55394d5541413d4951151607a1b8152506128db565b96505050505050506109a2565b50610db181614d53565b9050610c47565b5082610df557604051806040016040528060138152602001721510d7d4149250d157d35554d517d1561254d5606a1b8152509450505050506109a2565b81610e3257604051806040016040528060148152602001731110d197d4149250d157d35554d517d1561254d560621b8152509450505050506109a2565b50505080610e3f90614d53565b9050610b51565b5050604080516020810190915260008152919050565b60135481565b601954600090600160a01b900460ff16610e8e5760405162461bcd60e51b8152600401610971906147ae565b6001600160a01b0382166000908152601a6020526040902060030154600160a01b900460ff16610ed05760405162461bcd60e51b815260040161097190614b67565b6001600160a01b038083166000908152601a60205260408120600181015490921615610f12576001820154610f0d906001600160a01b031661290f565b610f15565b60005b60028301549091506000906001600160a01b031615610f4a576002830154610f45906001600160a01b031661290f565b610f4d565b60005b905080821115610f5d5780610f5f565b815b95945050505050565b60405162461bcd60e51b815260040161097190614af3565b610f886129ae565b60005b600681101561100157818160068110610fb457634e487b7160e01b600052603260045260246000fd5b6020020151600a8260068110610fda57634e487b7160e01b600052603260045260246000fd5b019080519060200190610fee929190613b7a565b5080610ff981614d53565b915050610f8b565b50506010805460ff19166001179055565b61101a6129ae565b60155460ff1660011461103f5760405162461bcd60e51b815260040161097190614a45565b601554610100900460ff16156110675760405162461bcd60e51b8152600401610971906148ac565b600061107282610b4c565b90508051600014611097578060405162461bcd60e51b8152600401610971919061451a565b6040805160c0808201835262ed4e008252630107ac0060208084019190915263013c68008385015263017124006060808501919091526301a5e0006080808601919091526301da9c0060a0808701919091528651948501875260288552603293850193909352603c95840195909552605090830152605a9382019390935260649281019290925290600061112b8580614be2565b9050905060005b60068110156113095783816006811061115b57634e487b7160e01b600052603260045260246000fd5b60200201516016600083815260200190815260200160002060010160016101000a81548163ffffffff021916908363ffffffff1602179055508281600681106111b457634e487b7160e01b600052603260045260246000fd5b602090810291909101516000838152601690925260408220600101805460ff191660ff9092169190911790555b828110156112f857600087836006811061120b57634e487b7160e01b600052603260045260246000fd5b60200281019061121b9190614be2565b8381811061123957634e487b7160e01b600052603260045260246000fd5b61124f9260206040909202019081019150613d03565b90506001600160a01b038116611263575060015b87836006811061128357634e487b7160e01b600052603260045260246000fd5b6020028101906112939190614be2565b838181106112b157634e487b7160e01b600052603260045260246000fd5b60008681526016602090815260408083206001600160a01b0397909716835295815290859020919094029290920190920135905550806112f081614d53565b9150506111e1565b5061130281614d53565b9050611132565b50506015805461ff00191661010017905550505050565b6113286129ae565b6001600160a01b03811661134e5760405162461bcd60e51b815260040161097190614806565b6001600160a01b0381163b156113765760405162461bcd60e51b815260040161097190614ac6565b601b80546001600160a01b03838116610100908102610100600160a81b031984161793849055909104169060ff600160a81b909104166113c457601b805460ff60a81b1916600160a81b1790555b6040516001600160a01b03808416919083169033907facf3042cca6ca3830bf91869d4343cead97657cc9e8973fdbd665b55c3e1f49890600090a45050565b6019546000908190600160a01b900460ff166114315760405162461bcd60e51b8152600401610971906147ae565b6001600160a01b0383166000908152601a6020526040902060030154600160a01b900460ff166114735760405162461bcd60e51b815260040161097190614994565b825b6001600160a01b038082166000908152601a602052604081206001810154909216156114b75760018201546114b2906001600160a01b031661290f565b6114ba565b60005b60028301549091506000906001600160a01b0316156114ef5760028301546114ea906001600160a01b031661290f565b6114f2565b60005b9050808211156000816115125760028501546001600160a01b0316611521565b60018501546001600160a01b03165b90506001600160a01b038116611541575093955092935061154d92505050565b94506114759350505050565b915091565b61155a6129ae565b6115626129ed565b565b601554610100900460ff1681565b606060405162461bcd60e51b815260040161097190614af3565b60006001600160a01b0382166115a157600191505b506001600160a01b031660009081526012602052604090205460ff1690565b6115c86129ae565b60006115d48484612a3f565b905080516000146115f9578060405162461bcd60e51b8152600401610971919061451a565b6001600160a01b03831661160c57600192505b60008481526016602090815260408083206001600160a01b038716808552925291829020805490859055915186907f8747a56dd6a09ab1378db3a842a4724d75642265b104e31a28fa736ce71912b3906116699085908890614b99565b60405180910390a35050505050565b611680612b41565b6001600160a01b0316866001600160a01b031614806116a657506116a6866108ef612b41565b6116c25760405162461bcd60e51b815260040161097190614625565b6116d0868686868686612b45565b505050505050565b6116e0612b62565b601b54600160a81b900460ff1660011461170c5760405162461bcd60e51b815260040161097190614777565b601954600160a01b900460ff166117355760405162461bcd60e51b8152600401610971906147ae565b60155460ff610100909104166001146117605760405162461bcd60e51b815260040161097190614a74565b60105460ff166001146117855760405162461bcd60e51b8152600401610971906148d8565b61178e83610949565b6117aa5760405162461bcd60e51b815260040161097190614b67565b6000806117b8846000611bcb565b91509150815160001482906117e05760405162461bcd60e51b8152600401610971919061451a565b506117eb8382614c8a565b341480156117f95750600083115b6118155760405162461bcd60e51b8152600401610971906149c3565b61183085858560405180602001604052806000815250612b87565b83856001600160a01b03167f5fce8741d2fa2920f00e6fda1be1ede8d7a2d1379bc099f79aa3b438a86de297858460405161186c929190614b99565b60405180910390a3601b5460405160009161010090046001600160a01b031690349061189790611901565b60006040518083038185875af1925050503d80600081146118d4576040519150601f19603f3d011682016040523d82523d6000602084013e6118d9565b606091505b50509050806116d05760405162461bcd60e51b815260040161097190614880565b601b5460ff165b90565b601954600160a01b900460ff1681565b6001600160a01b0381166000908152601a60205260408120600301548190600160a01b900460ff166119585760405162461bcd60e51b815260040161097190614b67565b50506001600160a01b039081166000908152601a60205260409020600181015460029091015490821692911690565b61198f6129ae565b60155460ff16156119b25760405162461bcd60e51b81526004016109719061457d565b60006119bd82612b99565b905080516000146119e2578060405162461bcd60e51b8152600401610971919061451a565b6001600160a01b0382166000818152601260205260408120805460ff191660019081179091556014805480830182559083527fce6d7b5282bd9a3661ae061feed1dbda4e52ab073b1f9285be6e155d9c38d4ec0180546001600160a01b03191690931790925560138054909190611a5a908490614c72565b90915550506015805460ff191660011790555050565b611a786129ae565b6115626000612d7e565b60105460ff1681565b601954600090600160a01b900460ff16611ab75760405162461bcd60e51b8152600401610971906147ae565b6001600160a01b0382166000908152601a6020526040902060030154600160a01b900460ff16611af95760405162461bcd60e51b815260040161097190614b67565b6109b68261290f565b611b0a6129ae565b60155460ff61010090910416600114611b355760405162461bcd60e51b815260040161097190614a74565b60068210611b555760405162461bcd60e51b8152600401610971906146bb565b60008281526016602052604090819020600101805460ff84811660ff19831617909255915191169083907f902e8f79c4772541ba59982b7a572dfdb4a0c003843ec5cfafc727966528895490611bae9084908690614bce565b60405180910390a2505050565b611bc36129ae565b611562612dd0565b6060600080611bda8585612a3f565b90508051600014611bf057915060009050611c71565b6001600160a01b038416611c0357600193505b60008581526016602090815260408083206001600160a01b038816845290915290205480611c5c57505060408051808201909152600d81526c14149250d157d393d517d4d155609a1b6020820152915060009050611c71565b60408051602081019091526000815293509150505b9250929050565b6000611c82612b62565b601b54600160a81b900460ff16600114611cae5760405162461bcd60e51b815260040161097190614777565b601954600160a01b900460ff16611cd75760405162461bcd60e51b8152600401610971906147ae565b60155460ff61010090910416600114611d025760405162461bcd60e51b815260040161097190614a74565b60105460ff16600114611d275760405162461bcd60e51b8152600401610971906148d8565b611d3084610949565b611d4c5760405162461bcd60e51b815260040161097190614b67565b3360008181526012602052604090205460ff16600114611d7e5760405162461bcd60e51b815260040161097190614934565b60008084806020019051810190611d95919061434d565b9150915060068210611db95760405162461bcd60e51b8152600401610971906146bb565b600080611dc68486611bcb565b9150915081516000148290611dee5760405162461bcd60e51b8152600401610971919061451a565b50611df98382614c8a565b88148015611e075750600083115b611e235760405162461bcd60e51b8152600401610971906149c3565b611e3e89858560405180602001604052806000815250612b87565b83856001600160a01b03168a6001600160a01b03167fc32800b3f198f1d50532ecd2e22d4fea8d5e5e9236fb2d2796a6710f9c14f1548685604051611e84929190614b99565b60405180910390a450632229f29760e21b9998505050505050505050565b6009546001600160a01b031690565b611eb96129ae565b601954600160a01b900460ff1615611ee35760405162461bcd60e51b81526004016109719061465c565b6001600160a01b038116611f095760405162461bcd60e51b815260040161097190614806565b601980546001600160a01b0383166001600160a01b031960ff60a01b19928316600160a01b908117821683179094556000828152601a602052604080822060038101805482548616835560018301805487169055600283018054871690559096169096179092169093555190917fbeec1fc786857549cbe9ae8717fa0fbdea9bb7386027cbad8197404a3c94421091a25050565b601b54600160a81b900460ff1681565b601954600160a01b900460ff16611fd65760405162461bcd60e51b8152600401610971906147ae565b6001600160a01b03841615801590611ff657506001600160a01b03831615155b801561200a57506001600160a01b03821615155b6120265760405162461bcd60e51b815260040161097190614806565b6001600160a01b0384166000908152601a6020526040902060030154600160a01b900460ff16156120695760405162461bcd60e51b81526004016109719061490f565b6001600160a01b0383166000908152601a6020526040902060030154600160a01b900460ff166120ab5760405162461bcd60e51b8152600401610971906149ec565b6001600160a01b0382166000908152601a6020526040902060030154600160a01b900460ff166120ed5760405162461bcd60e51b815260040161097190614994565b6120f78284612e0e565b6121135760405162461bcd60e51b815260040161097190614719565b6001600160a01b038084166000908152601a602052604090206001810154909116158061214b575060028101546001600160a01b0316155b6121675760405162461bcd60e51b8152600401610971906145ee565b81156121c45760018101546001600160a01b03166121a1576001810180546001600160a01b0319166001600160a01b0387161790556121bf565b6002810180546001600160a01b0319166001600160a01b0387161790555b612216565b60028101546001600160a01b03166121f8576002810180546001600160a01b0319166001600160a01b038716179055612216565b6001810180546001600160a01b0319166001600160a01b0387161790555b6001600160a01b038086166000818152601a60205260409081902060038101805482548a87166001600160a01b0319918216811785556001850180548316905560028501805483169055968a1660ff60a01b19909216600160a01b17168117909155915190939192907fb7de7526072e4403cbc0296462672a10ed96d94c4169dc8b84b07515e949013d906122ac9088906144fa565b60405180910390a4505050505050565b601954600090600160a01b900460ff166122e85760405162461bcd60e51b8152600401610971906147ae565b6019546122fd906001600160a01b031661290f565b905090565b61231461230d612b41565b8383612e6f565b5050565b6001600160a01b0381166000908152601a6020526040812060030154600160a01b900460ff1661235a5760405162461bcd60e51b815260040161097190614b67565b506001600160a01b039081166000908152601a60205260409020541690565b60006006841061239b5760405162461bcd60e51b8152600401610971906146bb565b5060009283526018602090815260408085206001600160a01b039490941685529281528284209184525290205490565b6060600682106123ed5760405162461bcd60e51b8152600401610971906146bb565b6001600160a01b03831660009081526017602090815260408083208584528252918290208054835181840281018401909452808452909183018282801561245357602002820191906000526020600020905b81548152602001906001019080831161243f575b5050505050905092915050565b60105460609060ff166001146124885760405162461bcd60e51b8152600401610971906148d8565b600682106124a85760405162461bcd60e51b8152600401610971906146bb565b600a82600681106124c957634e487b7160e01b600052603260045260246000fd5b0180546124d590614cec565b80601f016020809104026020016040519081016040528092919081815260200182805461250190614cec565b801561254e5780601f106125235761010080835404028352916020019161254e565b820191906000526020600020905b81548152906001019060200180831161253157829003601f168201915b50505050509050919050565b60006006831061257c5760405162461bcd60e51b8152600401610971906146bb565b5060009182526006602090815260408084209284529190529020546001600160a01b031690565b60006001600160a01b0382166125cb5760405162461bcd60e51b815260040161097190614806565b6000805b600681101561274a576001600160a01b038416600090815260176020908152604080832084845282528083208054825181850281018501909352808352919290919083018282801561264057602002820191906000526020600020905b81548152602001906001019080831161262c575b5050505050905060005b815181101561273557600082828151811061267557634e487b7160e01b600052603260045260246000fd5b60209081029190910181015160008681526018835260408082206001600160a01b038c168352845280822083835290935291822054909250906126b7866109e1565b91506126cb905063ffffffff821683614c72565b4211156126da57505050612723565b6000806126e8886000611bcb565b91509150815160001482906127105760405162461bcd60e51b8152600401610971919061451a565b5061271b818a614c72565b985050505050505b8061272d81614d53565b91505061264a565b5050808061274290614d53565b9150506125cf565b5092915050565b600061275b6129ae565b601b54600160a81b900460ff166001146127875760405162461bcd60e51b815260040161097190614777565b50601b5461010090046001600160a01b031690565b6001600160a01b03918216600090815260086020908152604080832093909416825291909152205460ff1690565b6019546001600160a01b031681565b60405162461bcd60e51b815260040161097190614a16565b6127f96129ae565b6001600160a01b03811661281f5760405162461bcd60e51b8152600401610971906145a8565b61282881612d7e565b50565b60006001600160a01b0383166128535760405162461bcd60e51b815260040161097190614806565b600682106128735760405162461bcd60e51b815260040161097190614855565b5060009081526007602090815260408083206001600160a01b03949094168352929052205490565b60006001600160e01b03198216636cdb3d1360e11b14806128cc57506001600160e01b031982166303a24d0760e21b145b806109b657506109b682612f12565b6060816128e784612f2b565b6040516020016128f89291906143ec565b604051602081830303815290604052905092915050565b60006001600160a01b038216612927575060006109a2565b6001600160a01b0382166000908152601a602052604090206003810154600160a01b900460ff1661295c5760009150506109a2565b6002810154612973906001600160a01b031661290f565b600182015461298a906001600160a01b031661290f565b612993856125a3565b61299d9190614c72565b6129a79190614c72565b9392505050565b6129b6612b41565b6001600160a01b03166129c7611ea2565b6001600160a01b0316146115625760405162461bcd60e51b81526004016109719061495f565b6129f561311a565b601b805460ff191690557f5db9ee0a495bf2e6ff9c91a7834c1ba4fdd244a5e8aa4e537bd38aeae4b073aa612a28612b41565b604051612a359190614428565b60405180910390a1565b60155460609060ff61010090910416600114612a88575060408051808201909152601681527514149250d154d7d393d517d25392551250531256915160521b60208201526109b6565b6005831115612abb575060408051808201909152600d81526c544f4b454e49445f52414e474560981b60208201526109b6565b6001600160a01b038216612ace57600191505b6001600160a01b03821660009081526012602052604090205460ff16600114612b2b57612b2482604051806040016040528060118152602001701513d2d15397d55394d5541413d4951151607a1b8152506128db565b90506109b6565b5060408051602081019091526000815292915050565b3390565b6116d086868686866040518060200160405280600081525061313e565b612b6a6118fa565b156115625760405162461bcd60e51b8152600401610971906147dc565b612b938484848461340c565b50505050565b6001600160a01b03811660009081526012602052604090205460609060ff1660011415612bf457612bed826040518060400160405280600b81526020016a414444525f45584953545360a81b8152506128db565b90506109a2565b60408051600481526024810182526020810180516001600160e01b03166395d89b4160e01b179052905160009081906001600160a01b03861690612c399085906143d0565b600060405180830381855afa9150503d8060008114612c74576040519150601f19603f3d011682016040523d82523d6000602084013e612c79565b606091505b5091509150818015612c8c575060008151115b15612d3357600081806020019051810190612ca79190614203565b80516020808301919091206040805180820190915260038152622221a360e91b9201919091529091507f580e4ba285e7e1134de91e671c33b0ab748bee7126d5d2e4d0845e6ad176e7eb8114612d2c57612d2087604051806040016040528060078152602001662727aa2fa221a360c91b8152506128db565b955050505050506109a2565b5050612d66565b612d5c85604051806040016040528060078152602001662727aa2fa221a360c91b8152506128db565b93505050506109a2565b50506040805160208101909152600081529392505050565b600980546001600160a01b038381166001600160a01b0319831681179093556040519116919082907f8be0079c531659141344cd1fd0a4f28419497f9722a3daafe3b4186f6b6457e090600090a35050565b612dd8612b62565b601b805460ff191660011790557f62e78cea01bee320cd4e420270b5ea74000d11b0c9f74754ebdbfc544b05a258612a28612b41565b6000815b6001600160a01b03811615612e6557836001600160a01b0316816001600160a01b03161415612e455760019150506109b6565b6001600160a01b039081166000908152601a602052604090205416612e12565b5060009392505050565b816001600160a01b0316836001600160a01b03161415612ea15760405162461bcd60e51b815260040161097190614750565b6001600160a01b0383811660008181526008602090815260408083209487168084529490915290819020805460ff1916851515179055517f17307eab39ab6107e8899845ad3d59bd9653f200f220920489ca2b5937696c3190612f059085906144fa565b60405180910390a3505050565b6001600160e01b031981166301ffc9a760e01b14919050565b60408051602a808252606082810190935283831b916f181899199a1a9b1b9c1cb0b131b232b360811b9160009190602082018180368337019050509050600360fc1b81600081518110612f8e57634e487b7160e01b600052603260045260246000fd5b60200101906001600160f81b031916908160001a905350600f60fb1b81600181518110612fcb57634e487b7160e01b600052603260045260246000fd5b60200101906001600160f81b031916908160001a90535060005b601481101561311157600084826014811061301057634e487b7160e01b600052603260045260246000fd5b1a905083600482901c60ff166010811061303a57634e487b7160e01b600052603260045260246000fd5b1a60f81b8361304a846002614c8a565b613055906002614c72565b8151811061307357634e487b7160e01b600052603260045260246000fd5b60200101906001600160f81b031916908160001a90535083600f8216601081106130ad57634e487b7160e01b600052603260045260246000fd5b1a60f81b836130bd846002614c8a565b6130c8906003614c72565b815181106130e657634e487b7160e01b600052603260045260246000fd5b60200101906001600160f81b031916908160001a90535050808061310990614d53565b915050612fe5565b50949350505050565b6131226118fa565b6115625760405162461bcd60e51b81526004016109719061454f565b6001600160a01b0385166131645760405162461bcd60e51b815260040161097190614806565b600684106131845760405162461bcd60e51b8152600401610971906146bb565b60005b828110156133fd5760008484838181106131b157634e487b7160e01b600052603260045260246000fd5b60008981526018602090815260408083206001600160a01b038f16845282528083209382029590950135808352929052928320549093509190506131f4886109e1565b915050896001600160a01b031661320b898561255a565b6001600160a01b0316146132315760405162461bcd60e51b81526004016109719061482c565b61324163ffffffff821683614c72565b421161325f5760405162461bcd60e51b815260040161097190614693565b60008881526018602090815260408083206001600160a01b03808e1680865291845282852088865284528285208590558e16845260178084528285208d8652845282852091855283528184208c8552909252822090915b82548110156133a357858382815481106132e057634e487b7160e01b600052603260045260246000fd5b90600052602060002001541415613391578254839061330190600190614ca9565b8154811061331f57634e487b7160e01b600052603260045260246000fd5b906000526020600020015483828154811061334a57634e487b7160e01b600052603260045260246000fd5b90600052602060002001819055508280548061337657634e487b7160e01b600052603160045260246000fd5b600190038181906000526020600020016000905590556133a3565b8061339b81614d53565b9150506132b6565b508054600181018255600091825260208083209091018690558a82526018815260408083206001600160a01b038f168452825280832096835295905293842093909355508291506133f5905081614d53565b915050613187565b506116d0868686868686613502565b4260005b838110156134ee576000816000876006811061343c57634e487b7160e01b600052603260045260246000fd5b01546134489190614c72565b60008781526018602090815260408083206001600160a01b038c168085529083528184208585528352818420889055808452601783528184208b855283528184208054600181018255908552929093209091018390555191925087917f15b3c203a18b1dd0bb11c2d40f29afa4b9b3a5db0a44561d23ebbfa02768d9ad906134d39085908890614b99565b60405180910390a350806134e681614d53565b915050613410565b506134fb858585856137fa565b5050505050565b6001600160a01b0385166135285760405162461bcd60e51b815260040161097190614806565b600684106135485760405162461bcd60e51b8152600401610971906146bb565b60005b828110156135de5760008581526006602052604081206001600160a01b0389169186868581811061358c57634e487b7160e01b600052603260045260246000fd5b60209081029290920135835250810191909152604001600020546001600160a01b0316146135cc5760405162461bcd60e51b81526004016109719061482c565b806135d681614d53565b91505061354b565b5060006135e9612b41565b905060006135f6866139f5565b90506000613603856139f5565b9050613613838a8a858589613a4e565b60005b858110156136a95760008881526006602052604081206001600160a01b038c169189898581811061365757634e487b7160e01b600052603260045260246000fd5b60209081029290920135835250810191909152604001600020546001600160a01b0316146136975760405162461bcd60e51b81526004016109719061482c565b806136a181614d53565b915050613616565b5060008781526007602090815260408083206001600160a01b038d16845290915281208054878103909155905b8681101561374d5760008981526006602052604081208b918a8a8581811061370e57634e487b7160e01b600052603260045260246000fd5b6020908102929092013583525081019190915260400160002080546001600160a01b0319166001600160a01b03929092169190911790556001016136d6565b5060008881526007602090815260408083206001600160a01b038d16845290915281208054889290613780908490614c72565b90915550506040516001600160a01b03808b16918c8216918716907fc3d58168c5ae7397731d063d5bbf3d657854427343f4c083240f7aacaa2d0f62906137ca908d908c90614b99565b60405180910390a46137e0848b8b86868a6116d0565b6137ee848b8b8b8a8a613a5c565b50505050505050505050565b6006831061381a5760405162461bcd60e51b8152600401610971906146bb565b6001600160a01b0384166138405760405162461bcd60e51b815260040161097190614806565b600061384a612b41565b90506000613857856139f5565b90506000613864856139f5565b905061387583600089858589613a4e565b60008681526007602090815260408083206001600160a01b038b168452909152812080548792906138a7908490614c72565b90915550600090505b8581101561393c57876006600089815260200190815260200160002060008360008b600681106138f057634e487b7160e01b600052603260045260246000fd5b01546138fc9190614c72565b8152602081019190915260400160002080546001600160a01b0319166001600160a01b03929092169190911790558061393481614d53565b9150506138b0565b50846000876006811061395f57634e487b7160e01b600052603260045260246000fd5b01600082825461396f9190614c72565b92505081905550866001600160a01b031660006001600160a01b0316846001600160a01b03167fc3d58168c5ae7397731d063d5bbf3d657854427343f4c083240f7aacaa2d0f6289896040516139c6929190614b99565b60405180910390a46139dd836000898585896116d0565b6139ec83600089898989613a5c565b50505050505050565b60408051600180825281830190925260609160009190602080830190803683370190505090508281600081518110613a3d57634e487b7160e01b600052603260045260246000fd5b602090810291909101015292915050565b6116d08686868686866116d0565b6001600160a01b0384163b156116d05760405163f23a6e6160e01b81526001600160a01b0385169063f23a6e6190613aa09089908990889088908890600401614456565b602060405180830381600087803b158015613aba57600080fd5b505af1925050508015613aea575060408051601f3d908101601f19168201909252613ae7918101906141e7565b60015b613b4a57613af6614d9a565b806308c379a01415613b305750613b0b614db1565b80613b165750613b32565b8060405162461bcd60e51b8152600401610971919061451a565b505b60405162461bcd60e51b815260040161097190614b1c565b6001600160e01b0319811663f23a6e6160e01b146139ec5760405162461bcd60e51b8152600401610971906146e2565b828054613b8690614cec565b90600052602060002090601f016020900481019282613ba85760008555613bee565b82601f10613bc157805160ff1916838001178555613bee565b82800160010185558215613bee579182015b82811115613bee578251825591602001919060010190613bd3565b50613bfa929150613bfe565b5090565b5b80821115613bfa5760008155600101613bff565b80356001600160a01b03811681146109a257600080fd5b600082601f830112613c3a578081fd5b81356020613c4782614c28565b604051613c548282614d27565b838152828101915085830183850287018401881015613c71578586fd5b855b85811015613c8f57813584529284019290840190600101613c73565b5090979650505050505050565b803580151581146109a257600080fd5b600082601f830112613cbc578081fd5b8135613cc781614c4b565b604051613cd48282614d27565b828152856020848701011115613ce8578384fd5b82602086016020830137918201602001929092529392505050565b600060208284031215613d14578081fd5b6109b382613c13565b60008060408385031215613d2f578081fd5b613d3883613c13565b9150613d4660208401613c13565b90509250929050565b60008060008060808587031215613d64578182fd5b613d6d85613c13565b9350613d7b60208601613c13565b9250613d8960408601613c13565b9150613d9760608601613c9c565b905092959194509250565b600080600080600060a08688031215613db9578081fd5b613dc286613c13565b9450613dd060208701613c13565b935060408601356001600160401b0380821115613deb578283fd5b613df789838a01613c2a565b94506060880135915080821115613e0c578283fd5b613e1889838a01613c2a565b93506080880135915080821115613e2d578283fd5b50613e3a88828901613cac565b9150509295509295909350565b60008060008060008060a08789031215613e5f578384fd5b613e6887613c13565b9550613e7660208801613c13565b94506040870135935060608701356001600160401b0380821115613e98578283fd5b818901915089601f830112613eab578283fd5b813581811115613eb9578384fd5b8a60208083028501011115613ecc578384fd5b602083019550809450506080890135915080821115613ee9578283fd5b50613ef689828a01613cac565b9150509295509295509295565b60008060008060808587031215613f18578182fd5b613f2185613c13565b9350613f2f60208601613c13565b92506040850135915060608501356001600160401b03811115613f50578182fd5b613f5c87828801613cac565b91505092959194509250565b600080600080600060a08688031215613f7f578283fd5b613f8886613c13565b9450613f9660208701613c13565b9350604086013592506060860135915060808601356001600160401b03811115613fbe578182fd5b613e3a88828901613cac565b60008060408385031215613fdc578182fd5b613fe583613c13565b9150613d4660208401613c9c565b60008060408385031215614005578182fd5b61400e83613c13565b946020939093013593505050565b600080600060608486031215614030578081fd5b61403984613c13565b95602085013595506040909401359392505050565b60008060408385031215614060578182fd5b82356001600160401b0380821115614076578384fd5b818501915085601f830112614089578384fd5b8135602061409682614c28565b6040516140a38282614d27565b8381528281019150858301838502870184018b10156140c0578889fd5b8896505b848710156140e9576140d581613c13565b8352600196909601959183019183016140c4565b50965050860135925050808211156140ff578283fd5b5061410c85828601613c2a565b9150509250929050565b600060208284031215614127578081fd5b81356001600160401b0381111561413c578182fd5b820160c081018410156129a7578182fd5b6000602080838503121561415f578182fd5b82356001600160401b03811115614174578283fd5b8301601f81018513614184578283fd5b60405161419260c082614d27565b8082855b60068110156141be576141ac8983358701613cac565b83529185019190850190600101614196565b5091979650505050505050565b6000602082840312156141dc578081fd5b81356129a781614e42565b6000602082840312156141f8578081fd5b81516129a781614e42565b600060208284031215614214578081fd5b81516001600160401b03811115614229578182fd5b8201601f81018413614239578182fd5b805161424481614c4b565b6040516142518282614d27565b828152866020848601011115614265578485fd5b614276836020830160208701614cc0565b9695505050505050565b600060408284031215614291578081fd5b60405161429f604082614d27565b6142a883613c13565b8152602083013560208201528091505092915050565b6000602082840312156142cf578081fd5b5035919050565b600080604083850312156142e8578182fd5b82359150613d4660208401613c13565b60008060006060848603121561430c578081fd5b8335925061431c60208501613c13565b9150604084013590509250925092565b6000806040838503121561433e578182fd5b50508035926020909101359150565b6000806040838503121561435f578182fd5b505080516020909101519092909150565b60008060408385031215614382578182fd5b82359150602083013560ff81168114614399578182fd5b809150509250929050565b600081518084526143bc816020860160208601614cc0565b601f01601f19169290920160200192915050565b600082516143e2818460208701614cc0565b9190910192915050565b600083516143fe818460208801614cc0565b600160fd1b908301908152835161441c816001840160208801614cc0565b01600101949350505050565b6001600160a01b0391909116815260200190565b6001600160a01b0392831681529116602082015260400190565b6001600160a01b03868116825285166020820152604081018490526060810183905260a060808201819052600090614490908301846143a4565b979650505050505050565b6001600160a01b039290921682521515602082015260400190565b6020808252825182820181905260009190848201906040850190845b818110156144ee578351835292840192918401916001016144d2565b50909695505050505050565b901515815260200190565b6001600160e01b031991909116815260200190565b6000602082526109b360208301846143a4565b60006040825261454060408301856143a4565b90508260208301529392505050565b60208082526014908201527314185d5cd8589b194e881b9bdd081c185d5cd95960621b604082015260600190565b6020808252601190820152701513d2d15397d253925512505312569151607a1b604082015260600190565b60208082526026908201527f4f776e61626c653a206e6577206f776e657220697320746865207a65726f206160408201526564647265737360d01b606082015260800190565b60208082526017908201527f504152454e545f4841535f54574f5f4348494c4452454e000000000000000000604082015260600190565b60208082526019908201527f43414c4c45525f4e4f545f4f574e45525f415050524f56454400000000000000604082015260600190565b60208082526018908201527f524f4f545f414c52454144595f494e495449414c495a45440000000000000000604082015260600190565b6020808252600e908201526d14d1539117d59053125117d3919560921b604082015260600190565b6020808252600d908201526c544f4b454e49445f52414e474560981b604082015260600190565b6020808252601f908201527f4552433131353552454345495645525f52454a45435445445f544f4b454e5300604082015260600190565b6020808252601e908201527f504152454e545f4e4f545f5245434f4d4d454e4445525f535542545245450000604082015260600190565b6020808252600d908201526c20a8282927ab20a62fa9a2a62360991b604082015260600190565b6020808252601d908201527f57495448445241575f414444525f4e4f545f494e495449414c495a4544000000604082015260600190565b6020808252601490820152731493d3d517d393d517d25392551250531256915160621b604082015260600190565b60208082526010908201526f14185d5cd8589b194e881c185d5cd95960821b604082015260600190565b6020808252600c908201526b5a45524f5f4144445245535360a01b604082015260600190565b6020808252600f908201526e1513d2d15397d393d517d3d5d39151608a1b604082015260600190565b6020808252601190820152704552525f544f4b454e49445f52414e474560781b604082015260600190565b6020808252601290820152711510d7d514905394d1915497d1905253115160721b604082015260600190565b60208082526012908201527114149250d154d7d25392551250531256915160721b604082015260600190565b60208082526017908201527f424153455552495f4e4f545f494e495449414c495a4544000000000000000000604082015260600190565b6020808252600b908201526a4e4f44455f45584953545360a81b604082015260600190565b6020808252601190820152701513d2d15397d55394d5541413d4951151607a1b604082015260600190565b6020808252818101527f4f776e61626c653a2063616c6c6572206973206e6f7420746865206f776e6572604082015260600190565b602080825260159082015274149150d3d353515391115497d393d517d1561254d5605a1b604082015260600190565b6020808252600f908201526e494e434f52524543545f46554e445360881b604082015260600190565b60208082526010908201526f14105491539517d393d517d1561254d560821b604082015260600190565b6020808252601590820152745553455f45536166655472616e7366657246726f6d60581b604082015260600190565b6020808252601590820152741513d2d15397d393d517d253925512505312569151605a1b604082015260600190565b60208082526016908201527514149250d154d7d393d517d25392551250531256915160521b604082015260600190565b6020808252600890820152675553455f4575726960c01b604082015260600190565b602080825260139082015272105111149154d4d7d254d7d0d3d395149050d5606a1b604082015260600190565b6020808252600f908201526e1393d517d253541311535153951151608a1b604082015260600190565b6020808252602b908201527f7472616e736665725f746f5f6e6f6e2d4552433131353552656365697665725f60408201526a34b6b83632b6b2b73a32b960a91b606082015260800190565b6020808252600f908201526e4e4f44455f4e4f545f45584953545360881b604082015260600190565b90815260200190565b918252602082015260400190565b60ff91909116815260200190565b60ff92909216825263ffffffff16602082015260400190565b60ff92831681529116602082015260400190565b6000808335601e19843603018112614bf8578283fd5b8301803591506001600160401b03821115614c11578283fd5b6020019150604081023603821315611c7157600080fd5b60006001600160401b03821115614c4157614c41614d84565b5060209081020190565b60006001600160401b03821115614c6457614c64614d84565b50601f01601f191660200190565b60008219821115614c8557614c85614d6e565b500190565b6000816000190483118215151615614ca457614ca4614d6e565b500290565b600082821015614cbb57614cbb614d6e565b500390565b60005b83811015614cdb578181015183820152602001614cc3565b83811115612b935750506000910152565b600281046001821680614d0057607f821691505b60208210811415614d2157634e487b7160e01b600052602260045260246000fd5b50919050565b601f8201601f191681016001600160401b0381118282101715614d4c57614d4c614d84565b6040525050565b6000600019821415614d6757614d67614d6e565b5060010190565b634e487b7160e01b600052601160045260246000fd5b634e487b7160e01b600052604160045260246000fd5b600060033d111561190157600481823e5160e01c90565b600060443d1015614dc157611901565b6040516003193d81016004833e81513d6001600160401b038160248401118184111715614df2575050505050611901565b8285019150815181811115614e0c57505050505050611901565b843d8701016020828501011115614e2857505050505050611901565b614e3760208286010187614d27565b509094505050505090565b6001600160e01b03198116811461282857600080fdfea26469706673582212204ac9a8a0d0312c5c502541f96c8596dfd0edb8b4f8505809a1fb6359fa73f1b264736f6c63430008010033",
  "linkReferences": {},
  "deployedLinkReferences": {},
  "immutableReferences": {},
  "inputSourceName": "project/contracts/TCF_NFT.sol",
  "devdoc": {
    "kind": "dev",
    "methods": {
      "ESafeTransferFrom(address,address,uint256,uint256[],bytes)": {
        "details": "安全转移无效的token，可以删除，因为后面会在TCF_NFT中实现",
        "params": {
          "indexes": "无效token在mintTimes数组中的位置"
        }
      },
      "addSupportedToken(address)": {
        "details": "添加支持的代币地址列表（原生代币不需要传入地址）。构造函数中已经添加了原生代币TC。 如果项目只支持TC，则不需要调用这个函数。",
        "params": {
          "_tokenAddress": "代币合约地址"
        }
      },
      "balanceOf(address,uint256)": {
        "details": "See {IERC1155-balanceOf}. Requirements: - `account` cannot be the zero address."
      },
      "balanceOfBatch(address[],uint256[])": {
        "details": "See {IERC1155-balanceOfBatch}.没有实现 Requirements: - `accounts` and `ids` must have the same length."
      },
      "changeNFTPrice(uint256,address,uint256)": {
        "details": "修改单个NFT价格",
        "params": {
          "amount": "新价格",
          "tokenAddress": "支付代币地址；原生代币传入address(0)",
          "tokenID": "NFT类型/ID（0-5）"
        }
      },
      "checkInitPricesParams((address,uint256)[][6])": {
        "details": "初始化价格参数检查：长度、代币是否在支持列表内等。",
        "params": {
          "prices": "6种NFT的价格参数（每种NFT包含 supportedTokenAmount 个价格项）"
        },
        "returns": {
          "_0": "错误码/错误信息；成功时为空字符串"
        }
      },
      "getNFTPrice(uint256,address)": {
        "details": "获取某个NFT在某种支付方式下的价格。",
        "params": {
          "_tokenAddress": "支付代币地址；原生代币传入address(0)",
          "tokenID": "NFT类型/ID（0-5）"
        },
        "returns": {
          "_0": "errorMessage 错误码/错误信息；成功时为空字符串",
          "_1": "price 价格；当errorMessage非空时为0"
        }
      },
      "getRecommendedParent(address)": {
        "details": "从 recommender 开始：每一步比较左右子树（left/right）余额总和，选择更小的分叉继续向下。      如果本次选择的分叉为空（子节点地址为 0），则无法继续下探，此时返回当前节点作为最终父节点。      该返回值可用于后续插入新节点时的 parent 参数。",
        "params": {
          "recommender": "推荐人地址（必须已在树中）"
        },
        "returns": {
          "isLeftBranch": "推荐在 parent 下应选择的分支：true=left，false=right",
          "parent": "推荐得到的最终父节点地址"
        }
      },
      "initPrice((address,uint256)[][6])": {
        "details": "初始化价格.TC代币的地址设为0",
        "params": {
          "prices": "6种NFT,每中NFT的三类价格"
        }
      },
      "initRoot(address)": {
        "params": {
          "rootAddress": "根节点地址"
        }
      },
      "insert(address,address,address,bool)": {
        "details": "约束：  - parent 必须已存在。  - recommender 必须已存在。  - 若 recommender 推荐该 node，则 parent 必须在 recommender 的子树内（含 recommender 本人）。",
        "params": {
          "isLeft": "true=插入为 parent.left；false=插入为 parent.right。  如果isLeft未true，优先放在父节点的左子树下，如果左子树下有节点，则放在右子树下；反之亦然。  我什么存在：因为如果使用推荐节点，推荐函数将返回一个父节点和isLeft参数，这样插入函数就可以直接使用。",
          "node": "新节点地址",
          "parent": "父节点地址",
          "recommender": "推荐人地址（必须是当前树中的某个地址）"
        }
      },
      "isApprovedForAll(address,address)": {
        "details": "See {IERC1155-isApprovedForAll}."
      },
      "minChildSubtreeBalance(address)": {
        "details": "若某侧子节点为空，则该侧子树余额视为 0。"
      },
      "owner()": {
        "details": "Returns the address of the current owner."
      },
      "paused()": {
        "details": "Returns true if the contract is paused, and false otherwise."
      },
      "renounceOwnership()": {
        "details": "Leaves the contract without owner. It will not be possible to call `onlyOwner` functions. Can only be called by the current owner. NOTE: Renouncing ownership will leave the contract without an owner, thereby disabling any functionality that is only available to the owner."
      },
      "safeBatchTransferFrom(address,address,uint256[],uint256[],bytes)": {
        "details": "See {IERC1155-safeBatchTransferFrom}."
      },
      "safeTransferFrom(address,address,uint256,uint256,bytes)": {
        "details": "See {IERC1155-safeTransferFrom}.没有实现"
      },
      "setApprovalForAll(address,bool)": {
        "details": "See {IERC1155-setApprovalForAll}."
      },
      "setBaseURI(bytes[6])": {
        "details": "Sets `baseURI` as the `_baseURI` for all tokens Only callable by the owner.可以被设置多次"
      },
      "supportsInterface(bytes4)": {
        "details": "See {IERC165-supportsInterface}."
      },
      "totalTreeBalance()": {
        "details": "注意：树很大时可能消耗较多 gas（即使 view 调用也有计算开销）。"
      },
      "transferOwnership(address)": {
        "details": "Transfers ownership of the contract to a new account (`newOwner`). Can only be called by the current owner."
      }
    },
    "version": 1
  },
  "evm": {
    "gasEstimates": {
      "creation": {
        "codeDepositCost": "4022000",
        "executionCost": "130415",
        "totalCost": "4152415"
      },
      "external": {
        "ESafeTransferFrom(address,address,uint256,uint256[],bytes)": "infinite",
        "Euri(uint256)": "infinite",
        "NFTPrice_initialized()": "1213",
        "_initializedURIStorage()": "1158",
        "addSupportedToken(address)": "infinite",
        "balanceOf(address,uint256)": "1547",
        "balanceOfBatch(address[],uint256[])": "infinite",
        "buyNFTByTC(address,uint256,uint256)": "infinite",
        "changeDynamicRatio(uint256,uint8)": "24960",
        "changeNFTPrice(uint256,address,uint256)": "infinite",
        "checkInitPricesParams((address,uint256)[][6])": "infinite",
        "getChildren(address)": "3153",
        "getNFTEquityDetails(uint256)": "2240",
        "getNFTPrice(uint256,address)": "infinite",
        "getNftMintTime(uint256,address,uint256)": "1593",
        "getNodeBalance(address)": "infinite",
        "getParent(address)": "2331",
        "getRecommendedParent(address)": "infinite",
        "getRecommender(address)": "2294",
        "getTotalNFTWorth(address)": "infinite",
        "getUserTokenIds(address,uint256)": "infinite",
        "getWithdrawAddress()": "2997",
        "initPrice((address,uint256)[][6])": "infinite",
        "initRoot(address)": "107644",
        "insert(address,address,address,bool)": "infinite",
        "isApprovedForAll(address,address)": "infinite",
        "isExist(address)": "infinite",
        "isSupported(address)": "1430",
        "minChildSubtreeBalance(address)": "infinite",
        "onTransferReceived(address,address,uint256,bytes)": "infinite",
        "owner()": "1137",
        "ownerOf(uint256,uint256)": "1403",
        "pause()": "infinite",
        "paused()": "1152",
        "renounceOwnership()": "infinite",
        "root()": "1158",
        "rootInitialized()": "1190",
        "safeBatchTransferFrom(address,address,uint256[],uint256[],bytes)": "infinite",
        "safeTransferFrom(address,address,uint256,uint256,bytes)": "infinite",
        "setApprovalForAll(address,bool)": "infinite",
        "setBaseURI(bytes[6])": "infinite",
        "setWithdrawAddress(address)": "45837",
        "subtreeBalance(address)": "infinite",
        "supportedTokenAmount()": "1140",
        "supportsInterface(bytes4)": "infinite",
        "tokenAddress_array(uint256)": "2106",
        "totalTreeBalance()": "infinite",
        "transferOwnership(address)": "23862",
        "unpause()": "infinite",
        "uri(uint256)": "516",
        "withdrawAddress_initialized()": "1174"
      },
      "internal": {
        "_beforeTokenTransfer(address,address,address,uint256[] memory,uint256[] memory,bytes memory)": "infinite",
        "_mint(address,uint256,uint256,bytes memory)": "infinite",
        "_safeTransferFrom(address,address,uint256,uint256[] calldata,bytes memory)": "infinite"
      }
    }
  },
  "storageLayout": {
    "storage": [
      {
        "astId": 531,
        "contract": "project/contracts/TCF_NFT.sol:TCF_NFT",
        "label": "_nextTokenId",
        "offset": 0,
        "slot": "0",
        "type": "t_array(t_uint256)6_storage"
      },
      {
        "astId": 537,
        "contract": "project/contracts/TCF_NFT.sol:TCF_NFT",
        "label": "_owners",
        "offset": 0,
        "slot": "6",
        "type": "t_mapping(t_uint256,t_mapping(t_uint256,t_address))"
      },
      {
        "astId": 543,
        "contract": "project/contracts/TCF_NFT.sol:TCF_NFT",
        "label": "_balances",
        "offset": 0,
        "slot": "7",
        "type": "t_mapping(t_uint256,t_mapping(t_address,t_uint256))"
      },
      {
        "astId": 549,
        "contract": "project/contracts/TCF_NFT.sol:TCF_NFT",
        "label": "_operatorApprovals",
        "offset": 0,
        "slot": "8",
        "type": "t_mapping(t_address,t_mapping(t_address,t_bool))"
      },
      {
        "astId": 3638,
        "contract": "project/contracts/TCF_NFT.sol:TCF_NFT",
        "label": "_owner",
        "offset": 0,
        "slot": "9",
        "type": "t_address"
      },
      {
        "astId": 1867,
        "contract": "project/contracts/TCF_NFT.sol:TCF_NFT",
        "label": "_baseURI",
        "offset": 0,
        "slot": "10",
        "type": "t_array(t_string_storage)6_storage"
      },
      {
        "astId": 1869,
        "contract": "project/contracts/TCF_NFT.sol:TCF_NFT",
        "label": "_initializedURIStorage",
        "offset": 0,
        "slot": "16",
        "type": "t_uint8"
      },
      {
        "astId": 1875,
        "contract": "project/contracts/TCF_NFT.sol:TCF_NFT",
        "label": "_tokenURIs",
        "offset": 0,
        "slot": "17",
        "type": "t_mapping(t_uint256,t_mapping(t_uint256,t_string_storage))"
      },
      {
        "astId": 1955,
        "contract": "project/contracts/TCF_NFT.sol:TCF_NFT",
        "label": "supportTokenType",
        "offset": 0,
        "slot": "18",
        "type": "t_mapping(t_address,t_uint8)"
      },
      {
        "astId": 1957,
        "contract": "project/contracts/TCF_NFT.sol:TCF_NFT",
        "label": "supportedTokenAmount",
        "offset": 0,
        "slot": "19",
        "type": "t_uint256"
      },
      {
        "astId": 1960,
        "contract": "project/contracts/TCF_NFT.sol:TCF_NFT",
        "label": "tokenAddress_array",
        "offset": 0,
        "slot": "20",
        "type": "t_array(t_address)dyn_storage"
      },
      {
        "astId": 1962,
        "contract": "project/contracts/TCF_NFT.sol:TCF_NFT",
        "label": "initedTokenAddress",
        "offset": 0,
        "slot": "21",
        "type": "t_uint8"
      },
      {
        "astId": 1964,
        "contract": "project/contracts/TCF_NFT.sol:TCF_NFT",
        "label": "NFTPrice_initialized",
        "offset": 1,
        "slot": "21",
        "type": "t_uint8"
      },
      {
        "astId": 1983,
        "contract": "project/contracts/TCF_NFT.sol:TCF_NFT",
        "label": "NFTS",
        "offset": 0,
        "slot": "22",
        "type": "t_mapping(t_uint256,t_struct(equities_store)1978_storage)"
      },
      {
        "astId": 1402,
        "contract": "project/contracts/TCF_NFT.sol:TCF_NFT",
        "label": "_ownedTokenIds",
        "offset": 0,
        "slot": "23",
        "type": "t_mapping(t_address,t_mapping(t_uint256,t_array(t_uint256)dyn_storage))"
      },
      {
        "astId": 1410,
        "contract": "project/contracts/TCF_NFT.sol:TCF_NFT",
        "label": "_mintTimes",
        "offset": 0,
        "slot": "24",
        "type": "t_mapping(t_uint256,t_mapping(t_address,t_mapping(t_uint256,t_uint256)))"
      },
      {
        "astId": 2908,
        "contract": "project/contracts/TCF_NFT.sol:TCF_NFT",
        "label": "root",
        "offset": 0,
        "slot": "25",
        "type": "t_address"
      },
      {
        "astId": 2910,
        "contract": "project/contracts/TCF_NFT.sol:TCF_NFT",
        "label": "rootInitialized",
        "offset": 20,
        "slot": "25",
        "type": "t_bool"
      },
      {
        "astId": 2915,
        "contract": "project/contracts/TCF_NFT.sol:TCF_NFT",
        "label": "_nodes",
        "offset": 0,
        "slot": "26",
        "type": "t_mapping(t_address,t_struct(Node)2905_storage)"
      },
      {
        "astId": 3779,
        "contract": "project/contracts/TCF_NFT.sol:TCF_NFT",
        "label": "_paused",
        "offset": 0,
        "slot": "27",
        "type": "t_bool"
      },
      {
        "astId": 23,
        "contract": "project/contracts/TCF_NFT.sol:TCF_NFT",
        "label": "withdrawAddress",
        "offset": 1,
        "slot": "27",
        "type": "t_address"
      },
      {
        "astId": 25,
        "contract": "project/contracts/TCF_NFT.sol:TCF_NFT",
        "label": "withdrawAddress_initialized",
        "offset": 21,
        "slot": "27",
        "type": "t_uint8"
      }
    ],
    "types": {
      "t_address": {
        "encoding": "inplace",
        "label": "address",
        "numberOfBytes": "20"
      },
      "t_array(t_address)dyn_storage": {
        "base": "t_address",
        "encoding": "dynamic_array",
        "label": "address[]",
        "numberOfBytes": "32"
      },
      "t_array(t_string_storage)6_storage": {
        "base": "t_string_storage",
        "encoding": "inplace",
        "label": "string[6]",
        "numberOfBytes": "192"
      },
      "t_array(t_uint256)6_storage": {
        "base": "t_uint256",
        "encoding": "inplace",
        "label": "uint256[6]",
        "numberOfBytes": "192"
      },
      "t_array(t_uint256)dyn_storage": {
        "base": "t_uint256",
        "encoding": "dynamic_array",
        "label": "uint256[]",
        "numberOfBytes": "32"
      },
      "t_bool": {
        "encoding": "inplace",
        "label": "bool",
        "numberOfBytes": "1"
      },
      "t_mapping(t_address,t_bool)": {
        "encoding": "mapping",
        "key": "t_address",
        "label": "mapping(address => bool)",
        "numberOfBytes": "32",
        "value": "t_bool"
      },
      "t_mapping(t_address,t_mapping(t_address,t_bool))": {
        "encoding": "mapping",
        "key": "t_address",
        "label": "mapping(address => mapping(address => bool))",
        "numberOfBytes": "32",
        "value": "t_mapping(t_address,t_bool)"
      },
      "t_mapping(t_address,t_mapping(t_uint256,t_array(t_uint256)dyn_storage))": {
        "encoding": "mapping",
        "key": "t_address",
        "label": "mapping(address => mapping(uint256 => uint256[]))",
        "numberOfBytes": "32",
        "value": "t_mapping(t_uint256,t_array(t_uint256)dyn_storage)"
      },
      "t_mapping(t_address,t_mapping(t_uint256,t_uint256))": {
        "encoding": "mapping",
        "key": "t_address",
        "label": "mapping(address => mapping(uint256 => uint256))",
        "numberOfBytes": "32",
        "value": "t_mapping(t_uint256,t_uint256)"
      },
      "t_mapping(t_address,t_struct(Node)2905_storage)": {
        "encoding": "mapping",
        "key": "t_address",
        "label": "mapping(address => struct BinaryTree.Node)",
        "numberOfBytes": "32",
        "value": "t_struct(Node)2905_storage"
      },
      "t_mapping(t_address,t_uint256)": {
        "encoding": "mapping",
        "key": "t_address",
        "label": "mapping(address => uint256)",
        "numberOfBytes": "32",
        "value": "t_uint256"
      },
      "t_mapping(t_address,t_uint8)": {
        "encoding": "mapping",
        "key": "t_address",
        "label": "mapping(address => uint8)",
        "numberOfBytes": "32",
        "value": "t_uint8"
      },
      "t_mapping(t_uint256,t_address)": {
        "encoding": "mapping",
        "key": "t_uint256",
        "label": "mapping(uint256 => address)",
        "numberOfBytes": "32",
        "value": "t_address"
      },
      "t_mapping(t_uint256,t_array(t_uint256)dyn_storage)": {
        "encoding": "mapping",
        "key": "t_uint256",
        "label": "mapping(uint256 => uint256[])",
        "numberOfBytes": "32",
        "value": "t_array(t_uint256)dyn_storage"
      },
      "t_mapping(t_uint256,t_mapping(t_address,t_mapping(t_uint256,t_uint256)))": {
        "encoding": "mapping",
        "key": "t_uint256",
        "label": "mapping(uint256 => mapping(address => mapping(uint256 => uint256)))",
        "numberOfBytes": "32",
        "value": "t_mapping(t_address,t_mapping(t_uint256,t_uint256))"
      },
      "t_mapping(t_uint256,t_mapping(t_address,t_uint256))": {
        "encoding": "mapping",
        "key": "t_uint256",
        "label": "mapping(uint256 => mapping(address => uint256))",
        "numberOfBytes": "32",
        "value": "t_mapping(t_address,t_uint256)"
      },
      "t_mapping(t_uint256,t_mapping(t_uint256,t_address))": {
        "encoding": "mapping",
        "key": "t_uint256",
        "label": "mapping(uint256 => mapping(uint256 => address))",
        "numberOfBytes": "32",
        "value": "t_mapping(t_uint256,t_address)"
      },
      "t_mapping(t_uint256,t_mapping(t_uint256,t_string_storage))": {
        "encoding": "mapping",
        "key": "t_uint256",
        "label": "mapping(uint256 => mapping(uint256 => string))",
        "numberOfBytes": "32",
        "value": "t_mapping(t_uint256,t_string_storage)"
      },
      "t_mapping(t_uint256,t_string_storage)": {
        "encoding": "mapping",
        "key": "t_uint256",
        "label": "mapping(uint256 => string)",
        "numberOfBytes": "32",
        "value": "t_string_storage"
      },
      "t_mapping(t_uint256,t_struct(equities_store)1978_storage)": {
        "encoding": "mapping",
        "key": "t_uint256",
        "label": "mapping(uint256 => struct TCF_NFTPrice.equities_store)",
        "numberOfBytes": "32",
        "value": "t_struct(equities_store)1978_storage"
      },
      "t_mapping(t_uint256,t_uint256)": {
        "encoding": "mapping",
        "key": "t_uint256",
        "label": "mapping(uint256 => uint256)",
        "numberOfBytes": "32",
        "value": "t_uint256"
      },
      "t_string_storage": {
        "encoding": "bytes",
        "label": "string",
        "numberOfBytes": "32"
      },
      "t_struct(Node)2905_storage": {
        "encoding": "inplace",
        "label": "struct BinaryTree.Node",
        "members": [
          {
            "astId": 2896,
            "contract": "project/contracts/TCF_NFT.sol:TCF_NFT",
            "label": "parent",
            "offset": 0,
            "slot": "0",
            "type": "t_address"
          },
          {
            "astId": 2898,
            "contract": "project/contracts/TCF_NFT.sol:TCF_NFT",
            "label": "left",
            "offset": 0,
            "slot": "1",
            "type": "t_address"
          },
          {
            "astId": 2900,
            "contract": "project/contracts/TCF_NFT.sol:TCF_NFT",
            "label": "right",
            "offset": 0,
            "slot": "2",
            "type": "t_address"
          },
          {
            "astId": 2902,
            "contract": "project/contracts/TCF_NFT.sol:TCF_NFT",
            "label": "recommender",
            "offset": 0,
            "slot": "3",
            "type": "t_address"
          },
          {
            "astId": 2904,
            "contract": "project/contracts/TCF_NFT.sol:TCF_NFT",
            "label": "exists",
            "offset": 20,
            "slot": "3",
            "type": "t_bool"
          }
        ],
        "numberOfBytes": "128"
      },
      "t_struct(equities_store)1978_storage": {
        "encoding": "inplace",
        "label": "struct TCF_NFTPrice.equities_store",
        "members": [
          {
            "astId": 1973,
            "contract": "project/contracts/TCF_NFT.sol:TCF_NFT",
            "label": "prices",
            "offset": 0,
            "slot": "0",
            "type": "t_mapping(t_address,t_uint256)"
          },
          {
            "astId": 1975,
            "contract": "project/contracts/TCF_NFT.sol:TCF_NFT",
            "label": "ratio",
            "offset": 0,
            "slot": "1",
            "type": "t_uint8"
          },
          {
            "astId": 1977,
            "contract": "project/contracts/TCF_NFT.sol:TCF_NFT",
            "label": "indate",
            "offset": 1,
            "slot": "1",
            "type": "t_uint32"
          }
        ],
        "numberOfBytes": "64"
      },
      "t_uint256": {
        "encoding": "inplace",
        "label": "uint256",
        "numberOfBytes": "32"
      },
      "t_uint32": {
        "encoding": "inplace",
        "label": "uint32",
        "numberOfBytes": "4"
      },
      "t_uint8": {
        "encoding": "inplace",
        "label": "uint8",
        "numberOfBytes": "1"
      }
    }
  },
  "userdoc": {
    "kind": "user",
    "methods": {
      "getChildren(address)": {
        "notice": "查询某个节点的子节点地址（left, right）"
      },
      "getNodeBalance(address)": {
        "notice": "查询某个节点余额"
      },
      "getParent(address)": {
        "notice": "查询某个节点的父节点地址"
      },
      "getRecommendedParent(address)": {
        "notice": "获取“推荐的父节点”"
      },
      "getRecommender(address)": {
        "notice": "查询某个节点的推荐人地址"
      },
      "initPrice((address,uint256)[][6])": {
        "notice": "只能调用一次，调用前必须确保支持的代币地址已经初始化，不需要检查token地址是否初始化，因为在构造函数中，初始化了TC"
      },
      "initRoot(address)": {
        "notice": "初始化根节点（只能执行一次，且只能由合约部署者/owner 调用）"
      },
      "insert(address,address,address,bool)": {
        "notice": "插入节点"
      },
      "isExist(address)": {
        "notice": "判断某个地址是否已在树中"
      },
      "minChildSubtreeBalance(address)": {
        "notice": "计算某个节点下两条子树（left/right）中，余额总和更少的那一条子树的余额总和"
      },
      "root()": {
        "notice": "根节点地址（初始化后不可更改）"
      },
      "subtreeBalance(address)": {
        "notice": "返回某个节点子树（含该节点）余额总和"
      },
      "totalTreeBalance()": {
        "notice": "遍历整颗二叉树，返回所有节点余额总和"
      }
    },
    "version": 1
  },
  "argsData": "0x",
  "transaction": {
    "hash": "0x6d3a7bb4c8d09a314435708307e045fecf941da93a1d1a522c26a4967b6f0813",
    "nonce": "0x4",
    "origin": "0xf39fd6e51aad88f6f4ce6ab8827279cfffb92266"
  }
}