{
  "address": "0xe7f1725e7734ce288f8367e1bb143e90bb3f0512",
  "abi": [
    {
      "anonymous": false,
      "inputs": [
        {
          "indexed": true,
          "internalType": "address",
          "name": "account",
          "type": "address"
        },
        {
          "indexed": true,
          "internalType": "address",
          "name": "operator",
          "type": "address"
        },
        {
          "indexed": false,
          "internalType": "bool",
          "name": "approved",
          "type": "bool"
        }
      ],
      "name": "ApprovalForAll",
      "type": "event"
    },
    {
      "anonymous": false,
      "inputs": [
        {
          "indexed": true,
          "internalType": "address",
          "name": "operator",
          "type": "address"
        },
        {
          "indexed": true,
          "internalType": "address",
          "name": "from",
          "type": "address"
        },
        {
          "indexed": true,
          "internalType": "address",
          "name": "to",
          "type": "address"
        },
        {
          "indexed": false,
          "internalType": "uint256[]",
          "name": "ids",
          "type": "uint256[]"
        },
        {
          "indexed": false,
          "internalType": "uint256[]",
          "name": "values",
          "type": "uint256[]"
        }
      ],
      "name": "TransferBatch",
      "type": "event"
    },
    {
      "anonymous": false,
      "inputs": [
        {
          "indexed": true,
          "internalType": "address",
          "name": "operator",
          "type": "address"
        },
        {
          "indexed": true,
          "internalType": "address",
          "name": "from",
          "type": "address"
        },
        {
          "indexed": true,
          "internalType": "address",
          "name": "to",
          "type": "address"
        },
        {
          "indexed": false,
          "internalType": "uint256",
          "name": "id",
          "type": "uint256"
        },
        {
          "indexed": false,
          "internalType": "uint256",
          "name": "value",
          "type": "uint256"
        }
      ],
      "name": "TransferSingle",
      "type": "event"
    },
    {
      "anonymous": false,
      "inputs": [
        {
          "indexed": false,
          "internalType": "string",
          "name": "value",
          "type": "string"
        },
        {
          "indexed": true,
          "internalType": "uint256",
          "name": "id",
          "type": "uint256"
        }
      ],
      "name": "URI",
      "type": "event"
    },
    {
      "inputs": [
        {
          "internalType": "address",
          "name": "account",
          "type": "address"
        },
        {
          "internalType": "uint256",
          "name": "id",
          "type": "uint256"
        }
      ],
      "name": "balanceOf",
      "outputs": [
        {
          "internalType": "uint256",
          "name": "",
          "type": "uint256"
        }
      ],
      "stateMutability": "view",
      "type": "function"
    },
    {
      "inputs": [
        {
          "internalType": "address[]",
          "name": "accounts",
          "type": "address[]"
        },
        {
          "internalType": "uint256[]",
          "name": "ids",
          "type": "uint256[]"
        }
      ],
      "name": "balanceOfBatch",
      "outputs": [
        {
          "internalType": "uint256[]",
          "name": "",
          "type": "uint256[]"
        }
      ],
      "stateMutability": "view",
      "type": "function"
    },
    {
      "inputs": [
        {
          "internalType": "address",
          "name": "account",
          "type": "address"
        },
        {
          "internalType": "address",
          "name": "operator",
          "type": "address"
        }
      ],
      "name": "isApprovedForAll",
      "outputs": [
        {
          "internalType": "bool",
          "name": "",
          "type": "bool"
        }
      ],
      "stateMutability": "view",
      "type": "function"
    },
    {
      "inputs": [
        {
          "internalType": "uint256",
          "name": "tokenId",
          "type": "uint256"
        },
        {
          "internalType": "uint256",
          "name": "editionId",
          "type": "uint256"
        }
      ],
      "name": "ownerOf",
      "outputs": [
        {
          "internalType": "address",
          "name": "",
          "type": "address"
        }
      ],
      "stateMutability": "view",
      "type": "function"
    },
    {
      "inputs": [
        {
          "internalType": "address",
          "name": "from",
          "type": "address"
        },
        {
          "internalType": "address",
          "name": "to",
          "type": "address"
        },
        {
          "internalType": "uint256[]",
          "name": "ids",
          "type": "uint256[]"
        },
        {
          "internalType": "uint256[]",
          "name": "amounts",
          "type": "uint256[]"
        },
        {
          "internalType": "bytes",
          "name": "data",
          "type": "bytes"
        }
      ],
      "name": "safeBatchTransferFrom",
      "outputs": [],
      "stateMutability": "nonpayable",
      "type": "function"
    },
    {
      "inputs": [
        {
          "internalType": "address",
          "name": "from",
          "type": "address"
        },
        {
          "internalType": "address",
          "name": "to",
          "type": "address"
        },
        {
          "internalType": "uint256",
          "name": "id",
          "type": "uint256"
        },
        {
          "internalType": "uint256",
          "name": "amount",
          "type": "uint256"
        },
        {
          "internalType": "bytes",
          "name": "data",
          "type": "bytes"
        }
      ],
      "name": "safeTransferFrom",
      "outputs": [],
      "stateMutability": "nonpayable",
      "type": "function"
    },
    {
      "inputs": [
        {
          "internalType": "address",
          "name": "operator",
          "type": "address"
        },
        {
          "internalType": "bool",
          "name": "approved",
          "type": "bool"
        }
      ],
      "name": "setApprovalForAll",
      "outputs": [],
      "stateMutability": "nonpayable",
      "type": "function"
    },
    {
      "inputs": [
        {
          "internalType": "bytes4",
          "name": "interfaceId",
          "type": "bytes4"
        }
      ],
      "name": "supportsInterface",
      "outputs": [
        {
          "internalType": "bool",
          "name": "",
          "type": "bool"
        }
      ],
      "stateMutability": "view",
      "type": "function"
    },
    {
      "inputs": [
        {
          "internalType": "address",
          "name": "from",
          "type": "address"
        },
        {
          "internalType": "address",
          "name": "to",
          "type": "address"
        },
        {
          "internalType": "uint256",
          "name": "id",
          "type": "uint256"
        },
        {
          "internalType": "uint256[]",
          "name": "indexes",
          "type": "uint256[]"
        },
        {
          "internalType": "bytes",
          "name": "data",
          "type": "bytes"
        }
      ],
      "name": "test_SafeTransferFrom",
      "outputs": [],
      "stateMutability": "nonpayable",
      "type": "function"
    },
    {
      "inputs": [
        {
          "internalType": "uint256",
          "name": "",
          "type": "uint256"
        }
      ],
      "name": "uri",
      "outputs": [
        {
          "internalType": "string",
          "name": "",
          "type": "string"
        }
      ],
      "stateMutability": "view",
      "type": "function"
    }
  ],
  "contractName": "TCF_ERC1155",
  "sourceName": "contracts/extensions/ERC1155/TCF_ERC1155.sol",
  "bytecode": "0x608060405234801561001057600080fd5b5061128a806100206000396000f3fe608060405234801561001057600080fd5b506004361061009d5760003560e01c8063a22cb46511610066578063a22cb46514610140578063d9dad80d14610153578063e985e9c514610173578063f1adfd1914610186578063f242432a146101995761009d565b8062fdd58e146100a257806301ffc9a7146100cb5780630e89341c146100eb5780632eb2c2d61461010b5780634e1273f414610120575b600080fd5b6100b56100b0366004610c4f565b6101a7565b6040516100c291906110cb565b60405180910390f35b6100de6100d9366004610d41565b610246565b6040516100c29190610ea1565b6100fe6100f9366004610d80565b61028e565b6040516100c29190610eac565b61011e610119366004610a4f565b6102a1565b005b61013361012e366004610c78565b6102a8565b6040516100c29190610e5d565b61011e61014e366004610c15565b6102b0565b610166610161366004610d98565b6102c6565b6040516100c29190610e04565b6100de610181366004610a1d565b610338565b61011e610194366004610af5565b610366565b61011e610119366004610bb2565b60006001600160a01b0383166101d85760405162461bcd60e51b81526004016101cf90610f51565b60405180910390fd5b60408051808201909152600d81526c544f4b454e49445f52414e474560981b60208201526006831061021d5760405162461bcd60e51b81526004016101cf9190610eac565b505060009081526007602090815260408083206001600160a01b03949094168352929052205490565b60006001600160e01b03198216636cdb3d1360e11b148061027757506001600160e01b031982166303a24d0760e21b145b806102865750610286826103c6565b90505b919050565b5060408051602081019091526000815290565b5050505050565b606092915050565b6102c26102bb6103df565b83836103e4565b5050565b6000600683106040518060400160405280600d81526020016c544f4b454e49445f52414e474560981b815250906103105760405162461bcd60e51b81526004016101cf9190610eac565b505060009182526006602090815260408084209284529190529020546001600160a01b031690565b6001600160a01b03918216600090815260086020908152604080832093909416825291909152205460ff1690565b61036e6103df565b6001600160a01b0316866001600160a01b031614806103945750610394866101816103df565b6103b05760405162461bcd60e51b81526004016101cf90610f9b565b6103be868686868686610487565b505050505050565b6001600160e01b031981166301ffc9a760e01b14919050565b335b90565b816001600160a01b0316836001600160a01b031614156104165760405162461bcd60e51b81526004016101cf9061102e565b6001600160a01b0383811660008181526008602090815260408083209487168084529490915290819020805460ff1916851515179055517f17307eab39ab6107e8899845ad3d59bd9653f200f220920489ca2b5937696c319061047a908590610ea1565b60405180910390a3505050565b6001600160a01b0385166104ad5760405162461bcd60e51b81526004016101cf90610fe9565b60408051808201909152600d81526c544f4b454e49445f52414e474560981b6020820152600685106104f25760405162461bcd60e51b81526004016101cf9190610eac565b5060005b828110156105895760008581526006602052604081206001600160a01b0389169186868581811061053757634e487b7160e01b600052603260045260246000fd5b60209081029290920135835250810191909152604001600020546001600160a01b0316146105775760405162461bcd60e51b81526004016101cf90610f07565b806105818161114b565b9150506104f6565b5060006105946103df565b905060006105a1866107a5565b905060006105ae856107a5565b90506105be838a8a8585896103be565b60005b858110156106545760008881526006602052604081206001600160a01b038c169189898581811061060257634e487b7160e01b600052603260045260246000fd5b60209081029290920135835250810191909152604001600020546001600160a01b0316146106425760405162461bcd60e51b81526004016101cf90610f07565b8061064c8161114b565b9150506105c1565b5060008781526007602090815260408083206001600160a01b038d16845290915281208054878103909155905b868110156106f85760008981526006602052604081208b918a8a858181106106b957634e487b7160e01b600052603260045260246000fd5b6020908102929092013583525081019190915260400160002080546001600160a01b0319166001600160a01b0392909216919091179055600101610681565b5060008881526007602090815260408083206001600160a01b038d1684529091528120805488929061072b908490611106565b90915550506040516001600160a01b03808b16918c8216918716907fc3d58168c5ae7397731d063d5bbf3d657854427343f4c083240f7aacaa2d0f6290610775908d908c906110d4565b60405180910390a461078b848b8b86868a6103be565b610799848b8b8b8a8a6107fe565b50505050505050505050565b604080516001808252818301909252606091600091906020808301908036833701905050905082816000815181106107ed57634e487b7160e01b600052603260045260246000fd5b602090810291909101015292915050565b6001600160a01b0384163b156103be5760405163f23a6e6160e01b81526001600160a01b0385169063f23a6e61906108429089908990889088908890600401610e18565b602060405180830381600087803b15801561085c57600080fd5b505af192505050801561088c575060408051601f3d908101601f1916820190925261088991810190610d64565b60015b6108ec57610898611192565b806308c379a014156108d257506108ad6111a9565b806108b857506108d4565b8060405162461bcd60e51b81526004016101cf9190610eac565b505b60405162461bcd60e51b81526004016101cf90611077565b6001600160e01b0319811663f23a6e6160e01b1461091c5760405162461bcd60e51b81526004016101cf90610ebf565b50505050505050565b80356001600160a01b038116811461028957600080fd5b600082601f83011261094c578081fd5b81356020610959826110e2565b604051610966828261111e565b838152828101915085830183850287018401881015610983578586fd5b855b858110156109a157813584529284019290840190600101610985565b5090979650505050505050565b600082601f8301126109be578081fd5b813567ffffffffffffffff8111156109d8576109d861117c565b6040516109ef601f8301601f19166020018261111e565b818152846020838601011115610a03578283fd5b816020850160208301379081016020019190915292915050565b60008060408385031215610a2f578182fd5b610a3883610925565b9150610a4660208401610925565b90509250929050565b600080600080600060a08688031215610a66578081fd5b610a6f86610925565b9450610a7d60208701610925565b9350604086013567ffffffffffffffff80821115610a99578283fd5b610aa589838a0161093c565b94506060880135915080821115610aba578283fd5b610ac689838a0161093c565b93506080880135915080821115610adb578283fd5b50610ae8888289016109ae565b9150509295509295909350565b60008060008060008060a08789031215610b0d578081fd5b610b1687610925565b9550610b2460208801610925565b945060408701359350606087013567ffffffffffffffff80821115610b47578283fd5b818901915089601f830112610b5a578283fd5b813581811115610b68578384fd5b8a60208083028501011115610b7b578384fd5b602083019550809450506080890135915080821115610b98578283fd5b50610ba589828a016109ae565b9150509295509295509295565b600080600080600060a08688031215610bc9578081fd5b610bd286610925565b9450610be060208701610925565b93506040860135925060608601359150608086013567ffffffffffffffff811115610c09578182fd5b610ae8888289016109ae565b60008060408385031215610c27578182fd5b610c3083610925565b915060208301358015158114610c44578182fd5b809150509250929050565b60008060408385031215610c61578182fd5b610c6a83610925565b946020939093013593505050565b60008060408385031215610c8a578182fd5b823567ffffffffffffffff80821115610ca1578384fd5b818501915085601f830112610cb4578384fd5b81356020610cc1826110e2565b604051610cce828261111e565b8381528281019150858301838502870184018b1015610ceb578889fd5b8896505b84871015610d1457610d0081610925565b835260019690960195918301918301610cef565b5096505086013592505080821115610d2a578283fd5b50610d378582860161093c565b9150509250929050565b600060208284031215610d52578081fd5b8135610d5d8161123b565b9392505050565b600060208284031215610d75578081fd5b8151610d5d8161123b565b600060208284031215610d91578081fd5b5035919050565b60008060408385031215610daa578182fd5b50508035926020909101359150565b60008151808452815b81811015610dde57602081850181015186830182015201610dc2565b81811115610def5782602083870101525b50601f01601f19169290920160200192915050565b6001600160a01b0391909116815260200190565b6001600160a01b03868116825285166020820152604081018490526060810183905260a060808201819052600090610e5290830184610db9565b979650505050505050565b6020808252825182820181905260009190848201906040850190845b81811015610e9557835183529284019291840191600101610e79565b50909695505050505050565b901515815260200190565b600060208252610d5d6020830184610db9565b60208082526028908201527f455243313135353a204552433131353552656365697665722072656a656374656040820152676420746f6b656e7360c01b606082015260800190565b6020808252602a908201527f455243313135353a207472616e73666572206f6620746f6b656e20746861742060408201526934b9903737ba1037bbb760b11b606082015260800190565b6020808252602a908201527f455243313135353a2061646472657373207a65726f206973206e6f742061207660408201526930b634b21037bbb732b960b11b606082015260800190565b6020808252602e908201527f455243313135353a2063616c6c6572206973206e6f7420746f6b656e206f776e60408201526d195c881bdc88185c1c1c9bdd995960921b606082015260800190565b60208082526025908201527f455243313135353a207472616e7366657220746f20746865207a65726f206164604082015264647265737360d81b606082015260800190565b60208082526029908201527f455243313135353a2073657474696e6720617070726f76616c20737461747573604082015268103337b91039b2b63360b91b606082015260800190565b60208082526034908201527f455243313135353a207472616e7366657220746f206e6f6e2d455243313135356040820152732932b1b2b4bb32b91034b6b83632b6b2b73a32b960611b606082015260800190565b90815260200190565b918252602082015260400190565b600067ffffffffffffffff8211156110fc576110fc61117c565b5060209081020190565b6000821982111561111957611119611166565b500190565b601f8201601f1916810167ffffffffffffffff811182821017156111445761114461117c565b6040525050565b600060001982141561115f5761115f611166565b5060010190565b634e487b7160e01b600052601160045260246000fd5b634e487b7160e01b600052604160045260246000fd5b600060033d11156103e157600481823e5160e01c90565b600060443d10156111b9576103e1565b6040516003193d81016004833e81513d67ffffffffffffffff81602484011181841117156111eb5750505050506103e1565b8285019150815181811115611205575050505050506103e1565b843d8701016020828501011115611221575050505050506103e1565b6112306020828601018761111e565b509094505050505090565b6001600160e01b03198116811461125157600080fd5b5056fea26469706673582212205ee080b6ef95b999aca785b53acf01b2f06690c1b6afb16951bf2008e4ba7c6664736f6c63430008010033",
  "linkReferences": {},
  "deployedLinkReferences": {},
  "immutableReferences": {},
  "inputSourceName": "project/contracts/extensions/ERC1155/TCF_ERC1155.sol",
  "devdoc": {
    "kind": "dev",
    "methods": {
      "balanceOf(address,uint256)": {
        "details": "See {IERC1155-balanceOf}. Requirements: - `account` cannot be the zero address."
      },
      "balanceOfBatch(address[],uint256[])": {
        "details": "See {IERC1155-balanceOfBatch}.没有实现 Requirements: - `accounts` and `ids` must have the same length."
      },
      "isApprovedForAll(address,address)": {
        "details": "See {IERC1155-isApprovedForAll}."
      },
      "safeBatchTransferFrom(address,address,uint256[],uint256[],bytes)": {
        "details": "See {IERC1155-safeBatchTransferFrom}."
      },
      "safeTransferFrom(address,address,uint256,uint256,bytes)": {
        "details": "See {IERC1155-safeTransferFrom}.没有实现"
      },
      "setApprovalForAll(address,bool)": {
        "details": "See {IERC1155-setApprovalForAll}."
      },
      "supportsInterface(bytes4)": {
        "details": "See {IERC165-supportsInterface}."
      },
      "test_SafeTransferFrom(address,address,uint256,uint256[],bytes)": {
        "details": "安全转移无效的token，可以删除，因为后面会在TCF_NFT中实现",
        "params": {
          "indexes": "无效token在mintTimes数组中的位置"
        }
      },
      "uri(uint256)": {
        "details": "See {IERC1155MetadataURI-uri}. This implementation returns the same URI for *all* token types. It relies on the token type ID substitution mechanism https://eips.ethereum.org/EIPS/eip-1155#metadata[defined in the EIP]. Clients calling this function must replace the `\\{id\\}` substring with the actual token type ID."
      }
    },
    "version": 1
  },
  "evm": {
    "gasEstimates": {
      "creation": {
        "codeDepositCost": "949200",
        "executionCost": "988",
        "totalCost": "950188"
      },
      "external": {
        "balanceOf(address,uint256)": "infinite",
        "balanceOfBatch(address[],uint256[])": "infinite",
        "isApprovedForAll(address,address)": "infinite",
        "ownerOf(uint256,uint256)": "infinite",
        "safeBatchTransferFrom(address,address,uint256[],uint256[],bytes)": "infinite",
        "safeTransferFrom(address,address,uint256,uint256,bytes)": "infinite",
        "setApprovalForAll(address,bool)": "23350",
        "supportsInterface(bytes4)": "603",
        "test_SafeTransferFrom(address,address,uint256,uint256[],bytes)": "infinite",
        "uri(uint256)": "552"
      },
      "internal": {
        "_afterTokenTransfer(address,address,address,uint256[] memory,uint256[] memory,bytes memory)": "infinite",
        "_asSingletonArray(uint256)": "infinite",
        "_beforeTokenTransfer(address,address,address,uint256[] memory,uint256[] memory,bytes memory)": "infinite",
        "_burn(address,uint256,uint256)": "infinite",
        "_burnBatch(address,uint256[] memory,uint256[] memory)": "infinite",
        "_doSafeBatchTransferAcceptanceCheck(address,address,address,uint256[] memory,uint256[] memory,bytes memory)": "infinite",
        "_doSafeTransferAcceptanceCheck(address,address,address,uint256,uint256,bytes memory)": "infinite",
        "_mint(address,uint256,uint256,bytes memory)": "infinite",
        "_mintBatch(address,uint256[] memory,uint256[] memory,bytes memory)": "infinite",
        "_safeBatchTransferFrom(address,address,uint256[] memory,uint256[] memory,bytes memory)": "infinite",
        "_safeTransferFrom(address,address,uint256,uint256[] calldata,bytes memory)": "infinite",
        "_setApprovalForAll(address,address,bool)": "infinite",
        "_setURI(string memory)": "infinite"
      }
    }
  },
  "storageLayout": {
    "storage": [
      {
        "astId": 358,
        "contract": "project/contracts/extensions/ERC1155/TCF_ERC1155.sol:TCF_ERC1155",
        "label": "_nextTokenId",
        "offset": 0,
        "slot": "0",
        "type": "t_array(t_uint256)6_storage"
      },
      {
        "astId": 364,
        "contract": "project/contracts/extensions/ERC1155/TCF_ERC1155.sol:TCF_ERC1155",
        "label": "_owners",
        "offset": 0,
        "slot": "6",
        "type": "t_mapping(t_uint256,t_mapping(t_uint256,t_address))"
      },
      {
        "astId": 370,
        "contract": "project/contracts/extensions/ERC1155/TCF_ERC1155.sol:TCF_ERC1155",
        "label": "_balances",
        "offset": 0,
        "slot": "7",
        "type": "t_mapping(t_uint256,t_mapping(t_address,t_uint256))"
      },
      {
        "astId": 376,
        "contract": "project/contracts/extensions/ERC1155/TCF_ERC1155.sol:TCF_ERC1155",
        "label": "_operatorApprovals",
        "offset": 0,
        "slot": "8",
        "type": "t_mapping(t_address,t_mapping(t_address,t_bool))"
      }
    ],
    "types": {
      "t_address": {
        "encoding": "inplace",
        "label": "address",
        "numberOfBytes": "20"
      },
      "t_array(t_uint256)6_storage": {
        "base": "t_uint256",
        "encoding": "inplace",
        "label": "uint256[6]",
        "numberOfBytes": "192"
      },
      "t_bool": {
        "encoding": "inplace",
        "label": "bool",
        "numberOfBytes": "1"
      },
      "t_mapping(t_address,t_bool)": {
        "encoding": "mapping",
        "key": "t_address",
        "label": "mapping(address => bool)",
        "numberOfBytes": "32",
        "value": "t_bool"
      },
      "t_mapping(t_address,t_mapping(t_address,t_bool))": {
        "encoding": "mapping",
        "key": "t_address",
        "label": "mapping(address => mapping(address => bool))",
        "numberOfBytes": "32",
        "value": "t_mapping(t_address,t_bool)"
      },
      "t_mapping(t_address,t_uint256)": {
        "encoding": "mapping",
        "key": "t_address",
        "label": "mapping(address => uint256)",
        "numberOfBytes": "32",
        "value": "t_uint256"
      },
      "t_mapping(t_uint256,t_address)": {
        "encoding": "mapping",
        "key": "t_uint256",
        "label": "mapping(uint256 => address)",
        "numberOfBytes": "32",
        "value": "t_address"
      },
      "t_mapping(t_uint256,t_mapping(t_address,t_uint256))": {
        "encoding": "mapping",
        "key": "t_uint256",
        "label": "mapping(uint256 => mapping(address => uint256))",
        "numberOfBytes": "32",
        "value": "t_mapping(t_address,t_uint256)"
      },
      "t_mapping(t_uint256,t_mapping(t_uint256,t_address))": {
        "encoding": "mapping",
        "key": "t_uint256",
        "label": "mapping(uint256 => mapping(uint256 => address))",
        "numberOfBytes": "32",
        "value": "t_mapping(t_uint256,t_address)"
      },
      "t_uint256": {
        "encoding": "inplace",
        "label": "uint256",
        "numberOfBytes": "32"
      }
    }
  },
  "userdoc": {
    "kind": "user",
    "methods": {},
    "version": 1
  },
  "argsData": "0x",
  "transaction": {
    "hash": "0xd2d0a244b42940a5a60310810d1af875b5ab2f0905a385da228d9924a05ec039",
    "nonce": "0x1",
    "origin": "0xf39fd6e51aad88f6f4ce6ab8827279cfffb92266"
  }
}