{
  "address": "0x9fe46736679d2d9a65f0992f2272de9f3c7fa6e0",
  "abi": [
    {
      "inputs": [],
      "stateMutability": "nonpayable",
      "type": "constructor"
    },
    {
      "anonymous": false,
      "inputs": [
        {
          "indexed": true,
          "internalType": "address",
          "name": "account",
          "type": "address"
        },
        {
          "indexed": true,
          "internalType": "address",
          "name": "operator",
          "type": "address"
        },
        {
          "indexed": false,
          "internalType": "bool",
          "name": "approved",
          "type": "bool"
        }
      ],
      "name": "ApprovalForAll",
      "type": "event"
    },
    {
      "anonymous": false,
      "inputs": [
        {
          "indexed": true,
          "internalType": "uint256",
          "name": "tokenID",
          "type": "uint256"
        },
        {
          "indexed": false,
          "internalType": "uint8",
          "name": "previousRatio",
          "type": "uint8"
        },
        {
          "indexed": false,
          "internalType": "uint8",
          "name": "newRatio",
          "type": "uint8"
        }
      ],
      "name": "DynamicRatioChanged",
      "type": "event"
    },
    {
      "anonymous": false,
      "inputs": [
        {
          "indexed": true,
          "internalType": "uint256",
          "name": "tokenID",
          "type": "uint256"
        },
        {
          "indexed": true,
          "internalType": "address",
          "name": "paymentToken",
          "type": "address"
        },
        {
          "indexed": false,
          "internalType": "uint256",
          "name": "oldPrice",
          "type": "uint256"
        },
        {
          "indexed": false,
          "internalType": "uint256",
          "name": "newPrice",
          "type": "uint256"
        }
      ],
      "name": "NFTPriceChanged",
      "type": "event"
    },
    {
      "anonymous": false,
      "inputs": [
        {
          "indexed": true,
          "internalType": "address",
          "name": "previousOwner",
          "type": "address"
        },
        {
          "indexed": true,
          "internalType": "address",
          "name": "newOwner",
          "type": "address"
        }
      ],
      "name": "OwnershipTransferred",
      "type": "event"
    },
    {
      "anonymous": false,
      "inputs": [
        {
          "indexed": true,
          "internalType": "address",
          "name": "operator",
          "type": "address"
        },
        {
          "indexed": true,
          "internalType": "address",
          "name": "from",
          "type": "address"
        },
        {
          "indexed": true,
          "internalType": "address",
          "name": "to",
          "type": "address"
        },
        {
          "indexed": false,
          "internalType": "uint256[]",
          "name": "ids",
          "type": "uint256[]"
        },
        {
          "indexed": false,
          "internalType": "uint256[]",
          "name": "values",
          "type": "uint256[]"
        }
      ],
      "name": "TransferBatch",
      "type": "event"
    },
    {
      "anonymous": false,
      "inputs": [
        {
          "indexed": true,
          "internalType": "address",
          "name": "operator",
          "type": "address"
        },
        {
          "indexed": true,
          "internalType": "address",
          "name": "from",
          "type": "address"
        },
        {
          "indexed": true,
          "internalType": "address",
          "name": "to",
          "type": "address"
        },
        {
          "indexed": false,
          "internalType": "uint256",
          "name": "id",
          "type": "uint256"
        },
        {
          "indexed": false,
          "internalType": "uint256",
          "name": "value",
          "type": "uint256"
        }
      ],
      "name": "TransferSingle",
      "type": "event"
    },
    {
      "anonymous": false,
      "inputs": [
        {
          "indexed": false,
          "internalType": "string",
          "name": "value",
          "type": "string"
        },
        {
          "indexed": true,
          "internalType": "uint256",
          "name": "id",
          "type": "uint256"
        }
      ],
      "name": "URI",
      "type": "event"
    },
    {
      "inputs": [
        {
          "internalType": "address",
          "name": "from",
          "type": "address"
        },
        {
          "internalType": "address",
          "name": "to",
          "type": "address"
        },
        {
          "internalType": "uint256",
          "name": "id",
          "type": "uint256"
        },
        {
          "internalType": "uint256[]",
          "name": "indexes",
          "type": "uint256[]"
        },
        {
          "internalType": "bytes",
          "name": "data",
          "type": "bytes"
        }
      ],
      "name": "ESafeTransferFrom",
      "outputs": [],
      "stateMutability": "nonpayable",
      "type": "function"
    },
    {
      "inputs": [],
      "name": "NFTPrice_initialized",
      "outputs": [
        {
          "internalType": "uint8",
          "name": "",
          "type": "uint8"
        }
      ],
      "stateMutability": "view",
      "type": "function"
    },
    {
      "inputs": [
        {
          "internalType": "address",
          "name": "_tokenAddress",
          "type": "address"
        }
      ],
      "name": "addSupportedToken",
      "outputs": [],
      "stateMutability": "nonpayable",
      "type": "function"
    },
    {
      "inputs": [
        {
          "internalType": "address",
          "name": "account",
          "type": "address"
        },
        {
          "internalType": "uint256",
          "name": "id",
          "type": "uint256"
        }
      ],
      "name": "balanceOf",
      "outputs": [
        {
          "internalType": "uint256",
          "name": "",
          "type": "uint256"
        }
      ],
      "stateMutability": "view",
      "type": "function"
    },
    {
      "inputs": [
        {
          "internalType": "address[]",
          "name": "",
          "type": "address[]"
        },
        {
          "internalType": "uint256[]",
          "name": "",
          "type": "uint256[]"
        }
      ],
      "name": "balanceOfBatch",
      "outputs": [
        {
          "internalType": "uint256[]",
          "name": "",
          "type": "uint256[]"
        }
      ],
      "stateMutability": "view",
      "type": "function"
    },
    {
      "inputs": [
        {
          "internalType": "uint256",
          "name": "tokenId",
          "type": "uint256"
        },
        {
          "internalType": "uint8",
          "name": "newRatio",
          "type": "uint8"
        }
      ],
      "name": "changeDynamicRatio",
      "outputs": [],
      "stateMutability": "nonpayable",
      "type": "function"
    },
    {
      "inputs": [
        {
          "internalType": "uint256",
          "name": "tokenId",
          "type": "uint256"
        },
        {
          "internalType": "address",
          "name": "tokenAddress",
          "type": "address"
        },
        {
          "internalType": "uint256",
          "name": "amount",
          "type": "uint256"
        }
      ],
      "name": "changeNFTPrice",
      "outputs": [],
      "stateMutability": "nonpayable",
      "type": "function"
    },
    {
      "inputs": [
        {
          "components": [
            {
              "internalType": "address",
              "name": "tokenAddress",
              "type": "address"
            },
            {
              "internalType": "uint256",
              "name": "amount",
              "type": "uint256"
            }
          ],
          "internalType": "struct TCF_NFTPrice.priceTypeAndAomut[2][6]",
          "name": "prices",
          "type": "tuple[2][6]"
        }
      ],
      "name": "checkInitPricesParams",
      "outputs": [
        {
          "internalType": "string",
          "name": "",
          "type": "string"
        }
      ],
      "stateMutability": "view",
      "type": "function"
    },
    {
      "inputs": [
        {
          "internalType": "uint256",
          "name": "tokenId",
          "type": "uint256"
        }
      ],
      "name": "getNFTEquityDetails",
      "outputs": [
        {
          "internalType": "uint8",
          "name": "ratio",
          "type": "uint8"
        },
        {
          "internalType": "uint56",
          "name": "indate",
          "type": "uint56"
        }
      ],
      "stateMutability": "view",
      "type": "function"
    },
    {
      "inputs": [
        {
          "internalType": "uint256",
          "name": "tokenId",
          "type": "uint256"
        },
        {
          "internalType": "address",
          "name": "_tokenAddress",
          "type": "address"
        }
      ],
      "name": "getNFTPrice",
      "outputs": [
        {
          "internalType": "string",
          "name": "",
          "type": "string"
        },
        {
          "internalType": "uint256",
          "name": "",
          "type": "uint256"
        }
      ],
      "stateMutability": "view",
      "type": "function"
    },
    {
      "inputs": [
        {
          "components": [
            {
              "internalType": "address",
              "name": "tokenAddress",
              "type": "address"
            },
            {
              "internalType": "uint256",
              "name": "amount",
              "type": "uint256"
            }
          ],
          "internalType": "struct TCF_NFTPrice.priceTypeAndAomut[2][6]",
          "name": "prices",
          "type": "tuple[2][6]"
        }
      ],
      "name": "initPrice",
      "outputs": [],
      "stateMutability": "nonpayable",
      "type": "function"
    },
    {
      "inputs": [
        {
          "internalType": "address",
          "name": "account",
          "type": "address"
        },
        {
          "internalType": "address",
          "name": "operator",
          "type": "address"
        }
      ],
      "name": "isApprovedForAll",
      "outputs": [
        {
          "internalType": "bool",
          "name": "",
          "type": "bool"
        }
      ],
      "stateMutability": "view",
      "type": "function"
    },
    {
      "inputs": [
        {
          "internalType": "address",
          "name": "token",
          "type": "address"
        }
      ],
      "name": "isSupported",
      "outputs": [
        {
          "internalType": "uint8",
          "name": "",
          "type": "uint8"
        }
      ],
      "stateMutability": "view",
      "type": "function"
    },
    {
      "inputs": [],
      "name": "owner",
      "outputs": [
        {
          "internalType": "address",
          "name": "",
          "type": "address"
        }
      ],
      "stateMutability": "view",
      "type": "function"
    },
    {
      "inputs": [
        {
          "internalType": "uint256",
          "name": "tokenId",
          "type": "uint256"
        },
        {
          "internalType": "uint256",
          "name": "editionId",
          "type": "uint256"
        }
      ],
      "name": "ownerOf",
      "outputs": [
        {
          "internalType": "address",
          "name": "",
          "type": "address"
        }
      ],
      "stateMutability": "view",
      "type": "function"
    },
    {
      "inputs": [],
      "name": "renounceOwnership",
      "outputs": [],
      "stateMutability": "nonpayable",
      "type": "function"
    },
    {
      "inputs": [
        {
          "internalType": "address",
          "name": "",
          "type": "address"
        },
        {
          "internalType": "address",
          "name": "",
          "type": "address"
        },
        {
          "internalType": "uint256[]",
          "name": "",
          "type": "uint256[]"
        },
        {
          "internalType": "uint256[]",
          "name": "",
          "type": "uint256[]"
        },
        {
          "internalType": "bytes",
          "name": "",
          "type": "bytes"
        }
      ],
      "name": "safeBatchTransferFrom",
      "outputs": [],
      "stateMutability": "nonpayable",
      "type": "function"
    },
    {
      "inputs": [
        {
          "internalType": "address",
          "name": "from",
          "type": "address"
        },
        {
          "internalType": "address",
          "name": "to",
          "type": "address"
        },
        {
          "internalType": "uint256",
          "name": "id",
          "type": "uint256"
        },
        {
          "internalType": "uint256",
          "name": "amount",
          "type": "uint256"
        },
        {
          "internalType": "bytes",
          "name": "data",
          "type": "bytes"
        }
      ],
      "name": "safeTransferFrom",
      "outputs": [],
      "stateMutability": "nonpayable",
      "type": "function"
    },
    {
      "inputs": [
        {
          "internalType": "address",
          "name": "operator",
          "type": "address"
        },
        {
          "internalType": "bool",
          "name": "approved",
          "type": "bool"
        }
      ],
      "name": "setApprovalForAll",
      "outputs": [],
      "stateMutability": "nonpayable",
      "type": "function"
    },
    {
      "inputs": [],
      "name": "supportedTokenAmount",
      "outputs": [
        {
          "internalType": "uint256",
          "name": "",
          "type": "uint256"
        }
      ],
      "stateMutability": "view",
      "type": "function"
    },
    {
      "inputs": [
        {
          "internalType": "bytes4",
          "name": "interfaceId",
          "type": "bytes4"
        }
      ],
      "name": "supportsInterface",
      "outputs": [
        {
          "internalType": "bool",
          "name": "",
          "type": "bool"
        }
      ],
      "stateMutability": "view",
      "type": "function"
    },
    {
      "inputs": [
        {
          "internalType": "uint256",
          "name": "",
          "type": "uint256"
        }
      ],
      "name": "tokenAddress_array",
      "outputs": [
        {
          "internalType": "address",
          "name": "",
          "type": "address"
        }
      ],
      "stateMutability": "view",
      "type": "function"
    },
    {
      "inputs": [
        {
          "internalType": "address",
          "name": "newOwner",
          "type": "address"
        }
      ],
      "name": "transferOwnership",
      "outputs": [],
      "stateMutability": "nonpayable",
      "type": "function"
    },
    {
      "inputs": [
        {
          "internalType": "uint256",
          "name": "",
          "type": "uint256"
        }
      ],
      "name": "uri",
      "outputs": [
        {
          "internalType": "string",
          "name": "",
          "type": "string"
        }
      ],
      "stateMutability": "view",
      "type": "function"
    }
  ],
  "contractName": "TCF_NFTPrice",
  "sourceName": "contracts/extensions/ERC1155/TCF_NFTPrice.sol",
  "bytecode": "0x60806040523480156200001157600080fd5b506200002662000020620000a4565b620000a8565b600a6020527fbbc70db1b6c7afd11e79c0fb0051300458f1a3acb8ee9789d9b6b26c61ad9bc7805460ff19166001908117909155600c805480830182556000919091527fdf6966c971051c3d54ec59162606531493a51404a002842f56009d7e5cf4a8c70180546001600160a01b03191682179055600b55620000fa565b3390565b600980546001600160a01b038381166001600160a01b0319831681179093556040519116919082907f8be0079c531659141344cd1fd0a4f28419497f9722a3daafe3b4186f6b6457e090600090a35050565b61268f806200010a6000396000f3fe608060405234801561001057600080fd5b50600436106101575760003560e01c8063598c27bc116100c3578063a22cb4651161007c578063a22cb465146102fb578063b24661ac1461030e578063d9dad80d14610321578063e985e9c514610334578063f242432a14610347578063f2fde38b1461035a57610157565b8063598c27bc146102915780636d69fcaf146102a4578063715018a6146102b757806383023c88146102bf57806386ff9113146102d25780638da5cb5b146102f357610157565b8063233612831161011557806323361283146102195780632eb2c2d6146102215780634c8cb672146102365780634e1273f41461024b5780634f129c531461026b578063558263131461027e57610157565b8062fdd58e1461015c57806301ffc9a71461018557806306198b98146101a557806307759696146101c65780630e89341c146101e657806319d62e57146101f9575b600080fd5b61016f61016a366004611d46565b61036d565b60405161017c919061241e565b60405180910390f35b610198610193366004611e61565b6103e9565b60405161017c919061212e565b6101b86101b3366004611f55565b610431565b60405161017c929190612443565b6101d96101d4366004611e38565b6104ac565b60405161017c9190612139565b6101d96101f4366004611f55565b61077b565b61020c610207366004611f55565b61078e565b60405161017c9190612091565b61016f6107b8565b61023461022f366004611bb2565b6107be565b005b61023e6107d6565b60405161017c9190612435565b61025e610259366004611d6f565b6107e4565b60405161017c91906120ea565b61023e610279366004611b5f565b6107fe565b61023461028c366004611f8f565b610832565b61023461029f366004611c58565b6108ea565b6102346102b2366004611b5f565b610948565b610234610a31565b6102346102cd366004611fe4565b610a45565b6102e56102e0366004611f6d565b610afe565b60405161017c92919061214c565b61020c610bab565b610234610309366004611d0c565b610bbb565b61023461031c366004611e38565b610bd1565b61020c61032f366004611fc3565b610ed3565b610198610342366004611b80565b610f1c565b610234610355366004611ca9565b610941565b610234610368366004611b5f565b610f4a565b60006001600160a01b03831661039e5760405162461bcd60e51b81526004016103959061229b565b60405180910390fd5b600682106103be5760405162461bcd60e51b815260040161039590612216565b5060008181526007602090815260408083206001600160a01b03861684529091529020545b92915050565b60006001600160e01b03198216636cdb3d1360e11b148061041a57506001600160e01b031982166303a24d0760e21b145b80610429575061042982610f84565b90505b919050565b600d54600090819060ff610100909104166001146104615760405162461bcd60e51b81526004016103959061237a565b600683106104815760405162461bcd60e51b815260040161039590612216565b50506000908152600e602052604090206001015460ff81169161010090910466ffffffffffffff1690565b606060005b600681101561076557600b548382600681106104dd57634e487b7160e01b600052603260045260246000fd5b505060021461050e57505060408051808201909152600a815269282924a1a2a9afa622a760b11b602082015261042c565b600080600085846006811061053357634e487b7160e01b600052603260045260246000fd5b60408051808201909152916080919091020160026000835b828210156105775761056860408302850136819003810190611f17565b8152602001906001019061054b565b50505050905060005b600b548110156106d75760008282600281106105ac57634e487b7160e01b600052603260045260246000fd5b60200201515190506001600160a01b0381166105cb57600194506105d0565b600193505b60008383600281106105f257634e487b7160e01b600052603260045260246000fd5b6020020151516001600160a01b0316148015906106595750600a600084846002811061062e57634e487b7160e01b600052603260045260246000fd5b60209081029190910151516001600160a01b031682528101919091526040016000205460ff16600114155b156106c6576106b983836002811061068157634e487b7160e01b600052603260045260246000fd5b602002015160000151604051806040016040528060118152602001701513d2d15397d55394d5541413d4951151607a1b815250610f9d565b965050505050505061042c565b506106d081612553565b9050610580565b508261071457604051806040016040528060138152602001721510d7d4149250d157d35554d517d1561254d5606a1b81525094505050505061042c565b8161075157604051806040016040528060148152602001731110d197d4149250d157d35554d517d1561254d560621b81525094505050505061042c565b5050508061075e90612553565b90506104b1565b5050604080516020810190915260008152919050565b5060408051602081019091526000815290565b600c818154811061079e57600080fd5b6000918252602090912001546001600160a01b0316905081565b600b5481565b60405162461bcd60e51b8152600401610395906123aa565b600d54610100900460ff1681565b606060405162461bcd60e51b8152600401610395906123aa565b60006001600160a01b03821661081357600191505b506001600160a01b03166000908152600a602052604090205460ff1690565b61083a610fd1565b60006108468484611010565b9050805160001461086b578060405162461bcd60e51b81526004016103959190612139565b6001600160a01b03831661087e57600192505b6000848152600e602090815260408083206001600160a01b038716808552925291829020805490859055915186907f8747a56dd6a09ab1378db3a842a4724d75642265b104e31a28fa736ce71912b3906108db9085908890612427565b60405180910390a35050505050565b6108f2611112565b6001600160a01b0316856001600160a01b03161480610918575061091885610342611112565b6109345760405162461bcd60e51b8152600401610395906121df565b6109418585858585611116565b5050505050565b610950610fd1565b600d5460ff16156109735760405162461bcd60e51b81526004016103959061216e565b600061097e8261142e565b905080516000146109a3578060405162461bcd60e51b81526004016103959190612139565b6001600160a01b0382166000818152600a60205260408120805460ff19166001908117909155600c805480830182559083527fdf6966c971051c3d54ec59162606531493a51404a002842f56009d7e5cf4a8c70180546001600160a01b031916909317909255600b8054909190610a1b9084906124bf565b9091555050600d805460ff191660011790555050565b610a39610fd1565b610a436000611613565b565b610a4d610fd1565b600d5460ff61010090910416600114610a785760405162461bcd60e51b81526004016103959061237a565b60068210610a985760405162461bcd60e51b815260040161039590612216565b6000828152600e602052604090819020600101805460ff84811660ff19831617909255915191169083907f902e8f79c4772541ba59982b7a572dfdb4a0c003843ec5cfafc727966528895490610af1908490869061245f565b60405180910390a2505050565b6060600080610b0d8585611010565b90508051600014610b2357915060009050610ba4565b6001600160a01b038416610b3657600193505b6000858152600e602090815260408083206001600160a01b038816845290915290205480610b8f57505060408051808201909152600d81526c14149250d157d393d517d4d155609a1b6020820152915060009050610ba4565b60408051602081019091526000815293509150505b9250929050565b6009546001600160a01b03165b90565b610bcd610bc6611112565b8383611665565b5050565b610bd9610fd1565b600d5460ff16600114610bfe5760405162461bcd60e51b81526004016103959061234b565b600d54610100900460ff1615610c265760405162461bcd60e51b8152600401610395906122ea565b6000610c31826104ac565b90508051600014610c56578060405162461bcd60e51b81526004016103959190612139565b6040805160c08082018352663740762b8c00008252663d641185b800006020808401919091526649ab483a100000838501526655f27eee680000606080850191909152666239b5a2c00000608080860191909152666e80ec5718000060a0808701919091528651948501875260288552603293850193909352603c95840195909552605090830152605a9382019390935260649281019290925290600260005b6006811015610ebc57838160068110610d1f57634e487b7160e01b600052603260045260246000fd5b6020020151600e600083815260200190815260200160002060010160016101000a81548166ffffffffffffff021916908366ffffffffffffff160217905550828160068110610d7e57634e487b7160e01b600052603260045260246000fd5b602090810291909101516000838152600e90925260408220600101805460ff191660ff9092169190911790555b82811015610eab576000878360068110610dd557634e487b7160e01b600052603260045260246000fd5b608002018260028110610df857634e487b7160e01b600052603260045260246000fd5b604002016000016020810190610e0e9190611b5f565b90506001600160a01b038116610e22575060015b878360068110610e4257634e487b7160e01b600052603260045260246000fd5b608002018260028110610e6557634e487b7160e01b600052603260045260246000fd5b6000858152600e602090815260408083206001600160a01b0390961683529481529084902091909302919091019190910135905580610ea381612553565b915050610dab565b50610eb581612553565b9050610cf6565b5050600d805461ff00191661010017905550505050565b600060068310610ef55760405162461bcd60e51b815260040161039590612216565b5060009182526006602090815260408084209284529190529020546001600160a01b031690565b6001600160a01b03918216600090815260086020908152604080832093909416825291909152205460ff1690565b610f52610fd1565b6001600160a01b038116610f785760405162461bcd60e51b815260040161039590612199565b610f8181611613565b50565b6001600160e01b031981166301ffc9a760e01b14919050565b606081610fa984611708565b604051602001610fba929190612055565b604051602081830303815290604052905092915050565b610fd9611112565b6001600160a01b0316610fea610bab565b6001600160a01b031614610a435760405162461bcd60e51b815260040161039590612316565b600d5460609060ff61010090910416600114611059575060408051808201909152601681527514149250d154d7d393d517d25392551250531256915160521b60208201526103e3565b600583111561108c575060408051808201909152600d81526c544f4b454e49445f52414e474560981b60208201526103e3565b6001600160a01b03821661109f57600191505b6001600160a01b0382166000908152600a602052604090205460ff166001146110fc576110f582604051806040016040528060118152602001701513d2d15397d55394d5541413d4951151607a1b815250610f9d565b90506103e3565b5060408051602081019091526000815292915050565b3390565b6001600160a01b03841661113c5760405162461bcd60e51b81526004016103959061229b565b6006831061115c5760405162461bcd60e51b815260040161039590612216565b60005b82518110156111f757600084815260066020526040812084516001600160a01b03891692908690859081106111a457634e487b7160e01b600052603260045260246000fd5b6020908102919091018101518252810191909152604001600020546001600160a01b0316146111e55760405162461bcd60e51b8152600401610395906122c1565b806111ef81612553565b91505061115f565b506000611202611112565b9050600061120f856118f7565b9050600061121d85516118f7565b905061122d838989858589611950565b60005b85518110156112c857600087815260066020526040812087516001600160a01b038c16929089908590811061127557634e487b7160e01b600052603260045260246000fd5b6020908102919091018101518252810191909152604001600020546001600160a01b0316146112b65760405162461bcd60e51b8152600401610395906122c1565b806112c081612553565b915050611230565b5060008681526007602090815260408083206001600160a01b038c1684529091528120805487518103909155905b865181101561137257600088815260066020526040812088518b92908a908590811061133257634e487b7160e01b600052603260045260246000fd5b602090810291909101810151825281019190915260400160002080546001600160a01b0319166001600160a01b03929092169190911790556001016112f6565b50855160008881526007602090815260408083206001600160a01b038d168452909152812080549091906113a79084906124bf565b92505081905550876001600160a01b0316896001600160a01b0316856001600160a01b03167fc3d58168c5ae7397731d063d5bbf3d657854427343f4c083240f7aacaa2d0f628a8a516040516113fe929190612427565b60405180910390a4611414848a8a86868a611950565b611423848a8a8a8a518a611958565b505050505050505050565b6001600160a01b0381166000908152600a602052604090205460609060ff166001141561148957611482826040518060400160405280600b81526020016a414444525f45584953545360a81b815250610f9d565b905061042c565b60408051600481526024810182526020810180516001600160e01b03166395d89b4160e01b179052905160009081906001600160a01b038616906114ce908590612039565b600060405180830381855afa9150503d8060008114611509576040519150601f19603f3d011682016040523d82523d6000602084013e61150e565b606091505b5091509150818015611521575060008151115b156115c85760008180602001905181019061153c9190611e99565b80516020808301919091206040805180820190915260038152622221a360e91b9201919091529091507f580e4ba285e7e1134de91e671c33b0ab748bee7126d5d2e4d0845e6ad176e7eb81146115c1576115b587604051806040016040528060078152602001662727aa2fa221a360c91b815250610f9d565b9550505050505061042c565b50506115fb565b6115f185604051806040016040528060078152602001662727aa2fa221a360c91b815250610f9d565b935050505061042c565b50506040805160208101909152600081529392505050565b600980546001600160a01b038381166001600160a01b0319831681179093556040519116919082907f8be0079c531659141344cd1fd0a4f28419497f9722a3daafe3b4186f6b6457e090600090a35050565b816001600160a01b0316836001600160a01b031614156116975760405162461bcd60e51b815260040161039590612274565b6001600160a01b0383811660008181526008602090815260408083209487168084529490915290819020805460ff1916851515179055517f17307eab39ab6107e8899845ad3d59bd9653f200f220920489ca2b5937696c31906116fb90859061212e565b60405180910390a3505050565b60408051602a808252606082810190935283831b916f181899199a1a9b1b9c1cb0b131b232b360811b9160009190602082018180368337019050509050600360fc1b8160008151811061176b57634e487b7160e01b600052603260045260246000fd5b60200101906001600160f81b031916908160001a905350600f60fb1b816001815181106117a857634e487b7160e01b600052603260045260246000fd5b60200101906001600160f81b031916908160001a90535060005b60148110156118ee5760008482601481106117ed57634e487b7160e01b600052603260045260246000fd5b1a905083600482901c60ff166010811061181757634e487b7160e01b600052603260045260246000fd5b1a60f81b836118278460026124d7565b6118329060026124bf565b8151811061185057634e487b7160e01b600052603260045260246000fd5b60200101906001600160f81b031916908160001a90535083600f82166010811061188a57634e487b7160e01b600052603260045260246000fd5b1a60f81b8361189a8460026124d7565b6118a59060036124bf565b815181106118c357634e487b7160e01b600052603260045260246000fd5b60200101906001600160f81b031916908160001a9053505080806118e690612553565b9150506117c2565b50949350505050565b6040805160018082528183019092526060916000919060208083019080368337019050509050828160008151811061193f57634e487b7160e01b600052603260045260246000fd5b602090810291909101015292915050565b505050505050565b6001600160a01b0384163b156119505760405163f23a6e6160e01b81526001600160a01b0385169063f23a6e619061199c90899089908890889088906004016120a5565b602060405180830381600087803b1580156119b657600080fd5b505af19250505080156119e6575060408051601f3d908101601f191682019092526119e391810190611e7d565b60015b611a46576119f261259a565b806308c379a01415611a2c5750611a076125b1565b80611a125750611a2e565b8060405162461bcd60e51b81526004016103959190612139565b505b60405162461bcd60e51b8152600401610395906123d3565b6001600160e01b0319811663f23a6e6160e01b14611a765760405162461bcd60e51b81526004016103959061223d565b50505050505050565b80356001600160a01b038116811461042c57600080fd5b600082601f830112611aa6578081fd5b81356020611ab382612473565b604051611ac08282612526565b838152828101915085830183850287018401881015611add578586fd5b855b85811015611afb57813584529284019290840190600101611adf565b5090979650505050505050565b600082601f830112611b18578081fd5b8135611b2381612497565b604051611b308282612526565b828152856020848701011115611b44578384fd5b82602086016020830137918201602001929092529392505050565b600060208284031215611b70578081fd5b611b7982611a7f565b9392505050565b60008060408385031215611b92578081fd5b611b9b83611a7f565b9150611ba960208401611a7f565b90509250929050565b600080600080600060a08688031215611bc9578081fd5b611bd286611a7f565b9450611be060208701611a7f565b9350604086013567ffffffffffffffff80821115611bfc578283fd5b611c0889838a01611a96565b94506060880135915080821115611c1d578283fd5b611c2989838a01611a96565b93506080880135915080821115611c3e578283fd5b50611c4b88828901611b08565b9150509295509295909350565b600080600080600060a08688031215611c6f578081fd5b611c7886611a7f565b9450611c8660208701611a7f565b935060408601359250606086013567ffffffffffffffff80821115611c1d578283fd5b600080600080600060a08688031215611cc0578081fd5b611cc986611a7f565b9450611cd760208701611a7f565b93506040860135925060608601359150608086013567ffffffffffffffff811115611d00578182fd5b611c4b88828901611b08565b60008060408385031215611d1e578182fd5b611d2783611a7f565b915060208301358015158114611d3b578182fd5b809150509250929050565b60008060408385031215611d58578182fd5b611d6183611a7f565b946020939093013593505050565b60008060408385031215611d81578182fd5b823567ffffffffffffffff80821115611d98578384fd5b818501915085601f830112611dab578384fd5b81356020611db882612473565b604051611dc58282612526565b8381528281019150858301838502870184018b1015611de2578889fd5b8896505b84871015611e0b57611df781611a7f565b835260019690960195918301918301611de6565b5096505086013592505080821115611e21578283fd5b50611e2e85828601611a96565b9150509250929050565b6000610300808385031215611e4b578182fd5b838184011115611e59578182fd5b509092915050565b600060208284031215611e72578081fd5b8135611b7981612643565b600060208284031215611e8e578081fd5b8151611b7981612643565b600060208284031215611eaa578081fd5b815167ffffffffffffffff811115611ec0578182fd5b8201601f81018413611ed0578182fd5b8051611edb81612497565b604051611ee88282612526565b828152866020848601011115611efc578485fd5b611f0d8360208301602087016124f6565b9695505050505050565b600060408284031215611f28578081fd5b604051611f36604082612526565b611f3f83611a7f565b8152602083013560208201528091505092915050565b600060208284031215611f66578081fd5b5035919050565b60008060408385031215611f7f578182fd5b82359150611ba960208401611a7f565b600080600060608486031215611fa3578081fd5b83359250611fb360208501611a7f565b9150604084013590509250925092565b60008060408385031215611fd5578182fd5b50508035926020909101359150565b60008060408385031215611ff6578182fd5b82359150602083013560ff81168114611d3b578182fd5b600081518084526120258160208601602086016124f6565b601f01601f19169290920160200192915050565b6000825161204b8184602087016124f6565b9190910192915050565b600083516120678184602088016124f6565b600160fd1b90830190815283516120858160018401602088016124f6565b01600101949350505050565b6001600160a01b0391909116815260200190565b6001600160a01b03868116825285166020820152604081018490526060810183905260a0608082018190526000906120df9083018461200d565b979650505050505050565b6020808252825182820181905260009190848201906040850190845b8181101561212257835183529284019291840191600101612106565b50909695505050505050565b901515815260200190565b600060208252611b79602083018461200d565b60006040825261215f604083018561200d565b90508260208301529392505050565b6020808252601190820152701513d2d15397d253925512505312569151607a1b604082015260600190565b60208082526026908201527f4f776e61626c653a206e6577206f776e657220697320746865207a65726f206160408201526564647265737360d01b606082015260800190565b60208082526019908201527f43414c4c45525f4e4f545f4f574e45525f415050524f56454400000000000000604082015260600190565b6020808252600d908201526c544f4b454e49445f52414e474560981b604082015260600190565b6020808252601f908201527f4552433131353552454345495645525f52454a45435445445f544f4b454e5300604082015260600190565b6020808252600d908201526c20a8282927ab20a62fa9a2a62360991b604082015260600190565b6020808252600c908201526b5a45524f5f4144445245535360a01b604082015260600190565b6020808252600f908201526e1513d2d15397d393d517d3d5d39151608a1b604082015260600190565b60208082526012908201527114149250d154d7d25392551250531256915160721b604082015260600190565b6020808252818101527f4f776e61626c653a2063616c6c6572206973206e6f7420746865206f776e6572604082015260600190565b6020808252601590820152741513d2d15397d393d517d253925512505312569151605a1b604082015260600190565b60208082526016908201527514149250d154d7d393d517d25392551250531256915160521b604082015260600190565b6020808252600f908201526e1393d517d253541311535153951151608a1b604082015260600190565b6020808252602b908201527f7472616e736665725f746f5f6e6f6e2d4552433131353552656365697665725f60408201526a34b6b83632b6b2b73a32b960a91b606082015260800190565b90815260200190565b918252602082015260400190565b60ff91909116815260200190565b60ff92909216825266ffffffffffffff16602082015260400190565b60ff92831681529116602082015260400190565b600067ffffffffffffffff82111561248d5761248d612584565b5060209081020190565b600067ffffffffffffffff8211156124b1576124b1612584565b50601f01601f191660200190565b600082198211156124d2576124d261256e565b500190565b60008160001904831182151516156124f1576124f161256e565b500290565b60005b838110156125115781810151838201526020016124f9565b83811115612520576000848401525b50505050565b601f8201601f1916810167ffffffffffffffff8111828210171561254c5761254c612584565b6040525050565b60006000198214156125675761256761256e565b5060010190565b634e487b7160e01b600052601160045260246000fd5b634e487b7160e01b600052604160045260246000fd5b600060033d1115610bb857600481823e5160e01c90565b600060443d10156125c157610bb8565b6040516003193d81016004833e81513d67ffffffffffffffff81602484011181841117156125f3575050505050610bb8565b828501915081518181111561260d57505050505050610bb8565b843d870101602082850101111561262957505050505050610bb8565b61263860208286010187612526565b509094505050505090565b6001600160e01b031981168114610f8157600080fdfea26469706673582212200e73932b1d1dda611ab6539f8faa6d093427105f8a23d3653928022315283e0764736f6c63430008010033",
  "linkReferences": {},
  "deployedLinkReferences": {},
  "immutableReferences": {},
  "inputSourceName": "project/contracts/extensions/ERC1155/TCF_NFTPrice.sol",
  "devdoc": {
    "details": "管理tcf——nft的价格，比例，有效时长，支持的token地址",
    "kind": "dev",
    "methods": {
      "ESafeTransferFrom(address,address,uint256,uint256[],bytes)": {
        "details": "安全转移无效的token，可以删除，因为后面会在TCF_NFT中实现",
        "params": {
          "indexes": "无效token在mintTimes数组中的位置"
        }
      },
      "addSupportedToken(address)": {
        "details": "添加支持的代币地址列表（原生代币不需要传入地址）。构造函数中已经添加了原生代币TC。 如果项目只支持TC，则不需要调用这个函数。",
        "params": {
          "_tokenAddress": "代币合约地址"
        }
      },
      "balanceOf(address,uint256)": {
        "details": "See {IERC1155-balanceOf}. Requirements: - `account` cannot be the zero address."
      },
      "balanceOfBatch(address[],uint256[])": {
        "details": "See {IERC1155-balanceOfBatch}.没有实现 Requirements: - `accounts` and `ids` must have the same length."
      },
      "changeNFTPrice(uint256,address,uint256)": {
        "details": "修改单个NFT价格",
        "params": {
          "amount": "新价格",
          "tokenAddress": "支付代币地址；原生代币传入address(0)",
          "tokenId": "NFT类型/ID（0-5）"
        }
      },
      "checkInitPricesParams((address,uint256)[2][6])": {
        "details": "初始化价格参数检查：长度、代币是否在支持列表内等。",
        "params": {
          "prices": "6种NFT的价格参数（每种NFT包含 supportedTokenAmount 个价格项）"
        },
        "returns": {
          "_0": "错误码/错误信息；成功时为空字符串"
        }
      },
      "getNFTPrice(uint256,address)": {
        "details": "获取某个NFT在某种支付方式下的价格。",
        "params": {
          "_tokenAddress": "支付代币地址；原生代币传入address(0)",
          "tokenId": "NFT类型/ID（0-5）"
        },
        "returns": {
          "_0": "errorMessage 错误码/错误信息；成功时为空字符串",
          "_1": "price 价格；当errorMessage非空时为0"
        }
      },
      "initPrice((address,uint256)[2][6])": {
        "details": "初始化价格.TC代币的地址设为0",
        "params": {
          "prices": "6种NFT,每中NFT的三类价格"
        }
      },
      "isApprovedForAll(address,address)": {
        "details": "See {IERC1155-isApprovedForAll}."
      },
      "owner()": {
        "details": "Returns the address of the current owner."
      },
      "renounceOwnership()": {
        "details": "Leaves the contract without owner. It will not be possible to call `onlyOwner` functions. Can only be called by the current owner. NOTE: Renouncing ownership will leave the contract without an owner, thereby disabling any functionality that is only available to the owner."
      },
      "safeBatchTransferFrom(address,address,uint256[],uint256[],bytes)": {
        "details": "See {IERC1155-safeBatchTransferFrom}."
      },
      "safeTransferFrom(address,address,uint256,uint256,bytes)": {
        "details": "See {IERC1155-safeTransferFrom}.没有实现 原erc1155的第四个参数是amount，但是我们这个合约中，每个tokenId对应的NFT是不同的，所以第四个参数改为某类NFT下的某个NFTid号"
      },
      "setApprovalForAll(address,bool)": {
        "details": "See {IERC1155-setApprovalForAll}."
      },
      "supportsInterface(bytes4)": {
        "details": "See {IERC165-supportsInterface}."
      },
      "transferOwnership(address)": {
        "details": "Transfers ownership of the contract to a new account (`newOwner`). Can only be called by the current owner."
      }
    },
    "version": 1
  },
  "evm": {
    "gasEstimates": {
      "creation": {
        "codeDepositCost": "1974200",
        "executionCost": "107079",
        "totalCost": "2081279"
      },
      "external": {
        "ESafeTransferFrom(address,address,uint256,uint256[],bytes)": "infinite",
        "NFTPrice_initialized()": "1124",
        "addSupportedToken(address)": "infinite",
        "balanceOf(address,uint256)": "1458",
        "balanceOfBatch(address[],uint256[])": "infinite",
        "changeDynamicRatio(uint256,uint8)": "24894",
        "changeNFTPrice(uint256,address,uint256)": "infinite",
        "checkInitPricesParams((address,uint256)[2][6])": "infinite",
        "getNFTEquityDetails(uint256)": "2195",
        "getNFTPrice(uint256,address)": "infinite",
        "initPrice((address,uint256)[2][6])": "infinite",
        "isApprovedForAll(address,address)": "infinite",
        "isSupported(address)": "1447",
        "owner()": "1204",
        "ownerOf(uint256,uint256)": "1402",
        "renounceOwnership()": "infinite",
        "safeBatchTransferFrom(address,address,uint256[],uint256[],bytes)": "infinite",
        "safeTransferFrom(address,address,uint256,uint256,bytes)": "infinite",
        "setApprovalForAll(address,bool)": "23371",
        "supportedTokenAmount()": "1051",
        "supportsInterface(bytes4)": "626",
        "tokenAddress_array(uint256)": "2172",
        "transferOwnership(address)": "23859",
        "uri(uint256)": "670"
      },
      "internal": {
        "_checkAccessPriceDetail(uint256,address)": "infinite",
        "_checkTokenAddressesCode(address)": "infinite",
        "_detailAddr(address,string memory)": "infinite",
        "_toHexString(address)": "infinite"
      }
    }
  },
  "storageLayout": {
    "storage": [
      {
        "astId": 1670,
        "contract": "project/contracts/extensions/ERC1155/TCF_NFTPrice.sol:TCF_NFTPrice",
        "label": "_nextTokenId",
        "offset": 0,
        "slot": "0",
        "type": "t_array(t_uint256)6_storage"
      },
      {
        "astId": 1676,
        "contract": "project/contracts/extensions/ERC1155/TCF_NFTPrice.sol:TCF_NFTPrice",
        "label": "_owners",
        "offset": 0,
        "slot": "6",
        "type": "t_mapping(t_uint256,t_mapping(t_uint256,t_address))"
      },
      {
        "astId": 1682,
        "contract": "project/contracts/extensions/ERC1155/TCF_NFTPrice.sol:TCF_NFTPrice",
        "label": "_balances",
        "offset": 0,
        "slot": "7",
        "type": "t_mapping(t_uint256,t_mapping(t_address,t_uint256))"
      },
      {
        "astId": 1688,
        "contract": "project/contracts/extensions/ERC1155/TCF_NFTPrice.sol:TCF_NFTPrice",
        "label": "_operatorApprovals",
        "offset": 0,
        "slot": "8",
        "type": "t_mapping(t_address,t_mapping(t_address,t_bool))"
      },
      {
        "astId": 5196,
        "contract": "project/contracts/extensions/ERC1155/TCF_NFTPrice.sol:TCF_NFTPrice",
        "label": "_owner",
        "offset": 0,
        "slot": "9",
        "type": "t_address"
      },
      {
        "astId": 3216,
        "contract": "project/contracts/extensions/ERC1155/TCF_NFTPrice.sol:TCF_NFTPrice",
        "label": "supportTokenType",
        "offset": 0,
        "slot": "10",
        "type": "t_mapping(t_address,t_uint8)"
      },
      {
        "astId": 3218,
        "contract": "project/contracts/extensions/ERC1155/TCF_NFTPrice.sol:TCF_NFTPrice",
        "label": "supportedTokenAmount",
        "offset": 0,
        "slot": "11",
        "type": "t_uint256"
      },
      {
        "astId": 3221,
        "contract": "project/contracts/extensions/ERC1155/TCF_NFTPrice.sol:TCF_NFTPrice",
        "label": "tokenAddress_array",
        "offset": 0,
        "slot": "12",
        "type": "t_array(t_address)dyn_storage"
      },
      {
        "astId": 3223,
        "contract": "project/contracts/extensions/ERC1155/TCF_NFTPrice.sol:TCF_NFTPrice",
        "label": "initedTokenAddress",
        "offset": 0,
        "slot": "13",
        "type": "t_uint8"
      },
      {
        "astId": 3225,
        "contract": "project/contracts/extensions/ERC1155/TCF_NFTPrice.sol:TCF_NFTPrice",
        "label": "NFTPrice_initialized",
        "offset": 1,
        "slot": "13",
        "type": "t_uint8"
      },
      {
        "astId": 3244,
        "contract": "project/contracts/extensions/ERC1155/TCF_NFTPrice.sol:TCF_NFTPrice",
        "label": "NFTS",
        "offset": 0,
        "slot": "14",
        "type": "t_mapping(t_uint256,t_struct(equities_store)3239_storage)"
      }
    ],
    "types": {
      "t_address": {
        "encoding": "inplace",
        "label": "address",
        "numberOfBytes": "20"
      },
      "t_array(t_address)dyn_storage": {
        "base": "t_address",
        "encoding": "dynamic_array",
        "label": "address[]",
        "numberOfBytes": "32"
      },
      "t_array(t_uint256)6_storage": {
        "base": "t_uint256",
        "encoding": "inplace",
        "label": "uint256[6]",
        "numberOfBytes": "192"
      },
      "t_bool": {
        "encoding": "inplace",
        "label": "bool",
        "numberOfBytes": "1"
      },
      "t_mapping(t_address,t_bool)": {
        "encoding": "mapping",
        "key": "t_address",
        "label": "mapping(address => bool)",
        "numberOfBytes": "32",
        "value": "t_bool"
      },
      "t_mapping(t_address,t_mapping(t_address,t_bool))": {
        "encoding": "mapping",
        "key": "t_address",
        "label": "mapping(address => mapping(address => bool))",
        "numberOfBytes": "32",
        "value": "t_mapping(t_address,t_bool)"
      },
      "t_mapping(t_address,t_uint256)": {
        "encoding": "mapping",
        "key": "t_address",
        "label": "mapping(address => uint256)",
        "numberOfBytes": "32",
        "value": "t_uint256"
      },
      "t_mapping(t_address,t_uint8)": {
        "encoding": "mapping",
        "key": "t_address",
        "label": "mapping(address => uint8)",
        "numberOfBytes": "32",
        "value": "t_uint8"
      },
      "t_mapping(t_uint256,t_address)": {
        "encoding": "mapping",
        "key": "t_uint256",
        "label": "mapping(uint256 => address)",
        "numberOfBytes": "32",
        "value": "t_address"
      },
      "t_mapping(t_uint256,t_mapping(t_address,t_uint256))": {
        "encoding": "mapping",
        "key": "t_uint256",
        "label": "mapping(uint256 => mapping(address => uint256))",
        "numberOfBytes": "32",
        "value": "t_mapping(t_address,t_uint256)"
      },
      "t_mapping(t_uint256,t_mapping(t_uint256,t_address))": {
        "encoding": "mapping",
        "key": "t_uint256",
        "label": "mapping(uint256 => mapping(uint256 => address))",
        "numberOfBytes": "32",
        "value": "t_mapping(t_uint256,t_address)"
      },
      "t_mapping(t_uint256,t_struct(equities_store)3239_storage)": {
        "encoding": "mapping",
        "key": "t_uint256",
        "label": "mapping(uint256 => struct TCF_NFTPrice.equities_store)",
        "numberOfBytes": "32",
        "value": "t_struct(equities_store)3239_storage"
      },
      "t_struct(equities_store)3239_storage": {
        "encoding": "inplace",
        "label": "struct TCF_NFTPrice.equities_store",
        "members": [
          {
            "astId": 3234,
            "contract": "project/contracts/extensions/ERC1155/TCF_NFTPrice.sol:TCF_NFTPrice",
            "label": "prices",
            "offset": 0,
            "slot": "0",
            "type": "t_mapping(t_address,t_uint256)"
          },
          {
            "astId": 3236,
            "contract": "project/contracts/extensions/ERC1155/TCF_NFTPrice.sol:TCF_NFTPrice",
            "label": "ratio",
            "offset": 0,
            "slot": "1",
            "type": "t_uint8"
          },
          {
            "astId": 3238,
            "contract": "project/contracts/extensions/ERC1155/TCF_NFTPrice.sol:TCF_NFTPrice",
            "label": "indate",
            "offset": 1,
            "slot": "1",
            "type": "t_uint56"
          }
        ],
        "numberOfBytes": "64"
      },
      "t_uint256": {
        "encoding": "inplace",
        "label": "uint256",
        "numberOfBytes": "32"
      },
      "t_uint56": {
        "encoding": "inplace",
        "label": "uint56",
        "numberOfBytes": "7"
      },
      "t_uint8": {
        "encoding": "inplace",
        "label": "uint8",
        "numberOfBytes": "1"
      }
    }
  },
  "userdoc": {
    "kind": "user",
    "methods": {
      "initPrice((address,uint256)[2][6])": {
        "notice": "只能调用一次，调用前必须确保支持的代币地址已经初始化，不需要检查token地址是否初始化，因为在构造函数中，初始化了TC"
      }
    },
    "version": 1
  },
  "argsData": "0x",
  "transaction": {
    "hash": "0x77891efc644570233d4f24989667a79df59666789a092ab0566a10b37e9c6451",
    "nonce": "0x2",
    "origin": "0xf39fd6e51aad88f6f4ce6ab8827279cfffb92266"
  }
}