{
  "address": "0xdc64a140aa3e981100a9beca4e685f962f0cf6c9",
  "abi": [
    {
      "anonymous": false,
      "inputs": [
        {
          "indexed": true,
          "internalType": "address",
          "name": "account",
          "type": "address"
        },
        {
          "indexed": true,
          "internalType": "address",
          "name": "operator",
          "type": "address"
        },
        {
          "indexed": false,
          "internalType": "bool",
          "name": "approved",
          "type": "bool"
        }
      ],
      "name": "ApprovalForAll",
      "type": "event"
    },
    {
      "anonymous": false,
      "inputs": [
        {
          "indexed": true,
          "internalType": "uint256",
          "name": "tokenID",
          "type": "uint256"
        },
        {
          "indexed": false,
          "internalType": "uint8",
          "name": "previousRatio",
          "type": "uint8"
        },
        {
          "indexed": false,
          "internalType": "uint8",
          "name": "newRatio",
          "type": "uint8"
        }
      ],
      "name": "DynamicRatioChanged",
      "type": "event"
    },
    {
      "anonymous": false,
      "inputs": [
        {
          "indexed": true,
          "internalType": "uint256",
          "name": "tokenID",
          "type": "uint256"
        },
        {
          "indexed": true,
          "internalType": "address",
          "name": "paymentToken",
          "type": "address"
        },
        {
          "indexed": false,
          "internalType": "uint256",
          "name": "oldPrice",
          "type": "uint256"
        },
        {
          "indexed": false,
          "internalType": "uint256",
          "name": "newPrice",
          "type": "uint256"
        }
      ],
      "name": "NFTPriceChanged",
      "type": "event"
    },
    {
      "anonymous": false,
      "inputs": [
        {
          "indexed": true,
          "internalType": "address",
          "name": "buyer",
          "type": "address"
        },
        {
          "indexed": true,
          "internalType": "uint256",
          "name": "tokenId",
          "type": "uint256"
        },
        {
          "indexed": false,
          "internalType": "uint256",
          "name": "amount",
          "type": "uint256"
        },
        {
          "indexed": false,
          "internalType": "uint256",
          "name": "pricePerUnit",
          "type": "uint256"
        }
      ],
      "name": "NFTPurchasedWithTC",
      "type": "event"
    },
    {
      "anonymous": false,
      "inputs": [
        {
          "indexed": true,
          "internalType": "address",
          "name": "buyer",
          "type": "address"
        },
        {
          "indexed": true,
          "internalType": "address",
          "name": "paymentToken",
          "type": "address"
        },
        {
          "indexed": true,
          "internalType": "uint256",
          "name": "tokenId",
          "type": "uint256"
        },
        {
          "indexed": false,
          "internalType": "uint256",
          "name": "amount",
          "type": "uint256"
        },
        {
          "indexed": false,
          "internalType": "uint256",
          "name": "pricePerUnit",
          "type": "uint256"
        }
      ],
      "name": "NFTPurchasedWithToken",
      "type": "event"
    },
    {
      "anonymous": false,
      "inputs": [
        {
          "indexed": true,
          "internalType": "address",
          "name": "node",
          "type": "address"
        },
        {
          "indexed": true,
          "internalType": "address",
          "name": "parent",
          "type": "address"
        },
        {
          "indexed": true,
          "internalType": "address",
          "name": "recommender",
          "type": "address"
        },
        {
          "indexed": false,
          "internalType": "bool",
          "name": "isOptimalRecommended",
          "type": "bool"
        },
        {
          "indexed": false,
          "internalType": "bool",
          "name": "isLeft",
          "type": "bool"
        }
      ],
      "name": "NodeInserted",
      "type": "event"
    },
    {
      "anonymous": false,
      "inputs": [
        {
          "indexed": true,
          "internalType": "address",
          "name": "previousOwner",
          "type": "address"
        },
        {
          "indexed": true,
          "internalType": "address",
          "name": "newOwner",
          "type": "address"
        }
      ],
      "name": "OwnershipTransferred",
      "type": "event"
    },
    {
      "anonymous": false,
      "inputs": [
        {
          "indexed": false,
          "internalType": "address",
          "name": "account",
          "type": "address"
        }
      ],
      "name": "Paused",
      "type": "event"
    },
    {
      "anonymous": false,
      "inputs": [
        {
          "indexed": true,
          "internalType": "address",
          "name": "root",
          "type": "address"
        }
      ],
      "name": "RootInitialized",
      "type": "event"
    },
    {
      "anonymous": false,
      "inputs": [
        {
          "indexed": true,
          "internalType": "address",
          "name": "to",
          "type": "address"
        },
        {
          "indexed": true,
          "internalType": "uint256",
          "name": "tokenId",
          "type": "uint256"
        },
        {
          "indexed": false,
          "internalType": "uint256",
          "name": "editionId",
          "type": "uint256"
        },
        {
          "indexed": false,
          "internalType": "uint64",
          "name": "mintedAt",
          "type": "uint64"
        }
      ],
      "name": "TokenEditionMinted",
      "type": "event"
    },
    {
      "anonymous": false,
      "inputs": [
        {
          "indexed": true,
          "internalType": "address",
          "name": "operator",
          "type": "address"
        },
        {
          "indexed": true,
          "internalType": "address",
          "name": "from",
          "type": "address"
        },
        {
          "indexed": true,
          "internalType": "address",
          "name": "to",
          "type": "address"
        },
        {
          "indexed": false,
          "internalType": "uint256[]",
          "name": "ids",
          "type": "uint256[]"
        },
        {
          "indexed": false,
          "internalType": "uint256[]",
          "name": "values",
          "type": "uint256[]"
        }
      ],
      "name": "TransferBatch",
      "type": "event"
    },
    {
      "anonymous": false,
      "inputs": [
        {
          "indexed": true,
          "internalType": "address",
          "name": "operator",
          "type": "address"
        },
        {
          "indexed": true,
          "internalType": "address",
          "name": "from",
          "type": "address"
        },
        {
          "indexed": true,
          "internalType": "address",
          "name": "to",
          "type": "address"
        },
        {
          "indexed": false,
          "internalType": "uint256",
          "name": "id",
          "type": "uint256"
        },
        {
          "indexed": false,
          "internalType": "uint256",
          "name": "value",
          "type": "uint256"
        }
      ],
      "name": "TransferSingle",
      "type": "event"
    },
    {
      "anonymous": false,
      "inputs": [
        {
          "indexed": false,
          "internalType": "string",
          "name": "value",
          "type": "string"
        },
        {
          "indexed": true,
          "internalType": "uint256",
          "name": "id",
          "type": "uint256"
        }
      ],
      "name": "URI",
      "type": "event"
    },
    {
      "anonymous": false,
      "inputs": [
        {
          "indexed": false,
          "internalType": "address",
          "name": "account",
          "type": "address"
        }
      ],
      "name": "Unpaused",
      "type": "event"
    },
    {
      "anonymous": false,
      "inputs": [
        {
          "indexed": true,
          "internalType": "address",
          "name": "operator",
          "type": "address"
        },
        {
          "indexed": true,
          "internalType": "address",
          "name": "previousAddress",
          "type": "address"
        },
        {
          "indexed": true,
          "internalType": "address",
          "name": "newAddress",
          "type": "address"
        }
      ],
      "name": "WithdrawAddressUpdated",
      "type": "event"
    },
    {
      "inputs": [
        {
          "internalType": "address",
          "name": "from",
          "type": "address"
        },
        {
          "internalType": "address",
          "name": "to",
          "type": "address"
        },
        {
          "internalType": "uint256",
          "name": "tokenId",
          "type": "uint256"
        },
        {
          "internalType": "uint256[]",
          "name": "indexes",
          "type": "uint256[]"
        },
        {
          "internalType": "bytes",
          "name": "data",
          "type": "bytes"
        }
      ],
      "name": "ESafeTransferFrom",
      "outputs": [],
      "stateMutability": "nonpayable",
      "type": "function"
    },
    {
      "inputs": [],
      "name": "NFTPrice_initialized",
      "outputs": [
        {
          "internalType": "uint8",
          "name": "",
          "type": "uint8"
        }
      ],
      "stateMutability": "view",
      "type": "function"
    },
    {
      "inputs": [],
      "name": "_initializedURIStorage",
      "outputs": [
        {
          "internalType": "uint8",
          "name": "",
          "type": "uint8"
        }
      ],
      "stateMutability": "view",
      "type": "function"
    },
    {
      "inputs": [
        {
          "internalType": "address",
          "name": "_tokenAddress",
          "type": "address"
        }
      ],
      "name": "addSupportedToken",
      "outputs": [],
      "stateMutability": "nonpayable",
      "type": "function"
    },
    {
      "inputs": [
        {
          "internalType": "address",
          "name": "account",
          "type": "address"
        },
        {
          "internalType": "uint256",
          "name": "tokenId",
          "type": "uint256"
        }
      ],
      "name": "balanceOf",
      "outputs": [
        {
          "internalType": "uint256",
          "name": "",
          "type": "uint256"
        }
      ],
      "stateMutability": "view",
      "type": "function"
    },
    {
      "inputs": [
        {
          "internalType": "address[]",
          "name": "",
          "type": "address[]"
        },
        {
          "internalType": "uint256[]",
          "name": "",
          "type": "uint256[]"
        }
      ],
      "name": "balanceOfBatch",
      "outputs": [
        {
          "internalType": "uint256[]",
          "name": "",
          "type": "uint256[]"
        }
      ],
      "stateMutability": "view",
      "type": "function"
    },
    {
      "inputs": [
        {
          "internalType": "uint256",
          "name": "tokenId",
          "type": "uint256"
        },
        {
          "internalType": "uint256",
          "name": "buyAmount",
          "type": "uint256"
        },
        {
          "internalType": "uint256",
          "name": "value",
          "type": "uint256"
        }
      ],
      "name": "buyNFTByTC",
      "outputs": [],
      "stateMutability": "payable",
      "type": "function"
    },
    {
      "inputs": [
        {
          "internalType": "uint256",
          "name": "tokenId",
          "type": "uint256"
        },
        {
          "internalType": "uint8",
          "name": "newRatio",
          "type": "uint8"
        }
      ],
      "name": "changeDynamicRatio",
      "outputs": [],
      "stateMutability": "nonpayable",
      "type": "function"
    },
    {
      "inputs": [
        {
          "internalType": "uint256",
          "name": "tokenId",
          "type": "uint256"
        },
        {
          "internalType": "address",
          "name": "tokenAddress",
          "type": "address"
        },
        {
          "internalType": "uint256",
          "name": "amount",
          "type": "uint256"
        }
      ],
      "name": "changeNFTPrice",
      "outputs": [],
      "stateMutability": "nonpayable",
      "type": "function"
    },
    {
      "inputs": [
        {
          "components": [
            {
              "internalType": "address",
              "name": "tokenAddress",
              "type": "address"
            },
            {
              "internalType": "uint256",
              "name": "amount",
              "type": "uint256"
            }
          ],
          "internalType": "struct TCF_NFTPrice.priceTypeAndAomut[2][6]",
          "name": "prices",
          "type": "tuple[2][6]"
        }
      ],
      "name": "checkInitPricesParams",
      "outputs": [
        {
          "internalType": "string",
          "name": "",
          "type": "string"
        }
      ],
      "stateMutability": "view",
      "type": "function"
    },
    {
      "inputs": [
        {
          "internalType": "uint256",
          "name": "id",
          "type": "uint256"
        }
      ],
      "name": "exists",
      "outputs": [
        {
          "internalType": "bool",
          "name": "",
          "type": "bool"
        }
      ],
      "stateMutability": "view",
      "type": "function"
    },
    {
      "inputs": [
        {
          "internalType": "address",
          "name": "node",
          "type": "address"
        }
      ],
      "name": "getChildren",
      "outputs": [
        {
          "internalType": "address",
          "name": "left",
          "type": "address"
        },
        {
          "internalType": "address",
          "name": "right",
          "type": "address"
        }
      ],
      "stateMutability": "view",
      "type": "function"
    },
    {
      "inputs": [
        {
          "internalType": "uint256",
          "name": "tokenId",
          "type": "uint256"
        }
      ],
      "name": "getNFTEquityDetails",
      "outputs": [
        {
          "internalType": "uint8",
          "name": "ratio",
          "type": "uint8"
        },
        {
          "internalType": "uint56",
          "name": "indate",
          "type": "uint56"
        }
      ],
      "stateMutability": "view",
      "type": "function"
    },
    {
      "inputs": [
        {
          "internalType": "uint256",
          "name": "tokenId",
          "type": "uint256"
        },
        {
          "internalType": "address",
          "name": "_tokenAddress",
          "type": "address"
        }
      ],
      "name": "getNFTPrice",
      "outputs": [
        {
          "internalType": "string",
          "name": "",
          "type": "string"
        },
        {
          "internalType": "uint256",
          "name": "",
          "type": "uint256"
        }
      ],
      "stateMutability": "view",
      "type": "function"
    },
    {
      "inputs": [
        {
          "internalType": "uint256",
          "name": "tokenId",
          "type": "uint256"
        },
        {
          "internalType": "uint256",
          "name": "editionId",
          "type": "uint256"
        }
      ],
      "name": "getNftMintTime",
      "outputs": [
        {
          "internalType": "uint64",
          "name": "",
          "type": "uint64"
        }
      ],
      "stateMutability": "view",
      "type": "function"
    },
    {
      "inputs": [
        {
          "internalType": "address",
          "name": "node",
          "type": "address"
        }
      ],
      "name": "getNodeWorth",
      "outputs": [
        {
          "internalType": "uint256",
          "name": "",
          "type": "uint256"
        }
      ],
      "stateMutability": "view",
      "type": "function"
    },
    {
      "inputs": [
        {
          "internalType": "address",
          "name": "recommender",
          "type": "address"
        },
        {
          "internalType": "address",
          "name": "excludeNode",
          "type": "address"
        }
      ],
      "name": "getOptimalParent",
      "outputs": [
        {
          "internalType": "address",
          "name": "parent",
          "type": "address"
        },
        {
          "internalType": "bool",
          "name": "isLeftBranch",
          "type": "bool"
        }
      ],
      "stateMutability": "view",
      "type": "function"
    },
    {
      "inputs": [
        {
          "internalType": "address",
          "name": "node",
          "type": "address"
        }
      ],
      "name": "getParent",
      "outputs": [
        {
          "internalType": "address",
          "name": "",
          "type": "address"
        }
      ],
      "stateMutability": "view",
      "type": "function"
    },
    {
      "inputs": [
        {
          "internalType": "address",
          "name": "node",
          "type": "address"
        }
      ],
      "name": "getRecommender",
      "outputs": [
        {
          "internalType": "address",
          "name": "",
          "type": "address"
        }
      ],
      "stateMutability": "view",
      "type": "function"
    },
    {
      "inputs": [
        {
          "internalType": "address",
          "name": "account",
          "type": "address"
        },
        {
          "internalType": "uint256",
          "name": "tokenId",
          "type": "uint256"
        }
      ],
      "name": "getUserTokenIds",
      "outputs": [
        {
          "internalType": "uint256[]",
          "name": "",
          "type": "uint256[]"
        }
      ],
      "stateMutability": "view",
      "type": "function"
    },
    {
      "inputs": [],
      "name": "getWithdrawAddress",
      "outputs": [
        {
          "internalType": "address",
          "name": "",
          "type": "address"
        }
      ],
      "stateMutability": "view",
      "type": "function"
    },
    {
      "inputs": [
        {
          "components": [
            {
              "internalType": "address",
              "name": "tokenAddress",
              "type": "address"
            },
            {
              "internalType": "uint256",
              "name": "amount",
              "type": "uint256"
            }
          ],
          "internalType": "struct TCF_NFTPrice.priceTypeAndAomut[2][6]",
          "name": "prices",
          "type": "tuple[2][6]"
        }
      ],
      "name": "initPrice",
      "outputs": [],
      "stateMutability": "nonpayable",
      "type": "function"
    },
    {
      "inputs": [
        {
          "internalType": "address",
          "name": "rootAddress",
          "type": "address"
        }
      ],
      "name": "initRoot",
      "outputs": [],
      "stateMutability": "nonpayable",
      "type": "function"
    },
    {
      "inputs": [
        {
          "internalType": "address",
          "name": "parent",
          "type": "address"
        },
        {
          "internalType": "address",
          "name": "recommender",
          "type": "address"
        },
        {
          "internalType": "bool",
          "name": "isLeft",
          "type": "bool"
        },
        {
          "internalType": "bool",
          "name": "isOptimalRecommended",
          "type": "bool"
        }
      ],
      "name": "insert",
      "outputs": [],
      "stateMutability": "nonpayable",
      "type": "function"
    },
    {
      "inputs": [
        {
          "internalType": "address",
          "name": "account",
          "type": "address"
        },
        {
          "internalType": "address",
          "name": "operator",
          "type": "address"
        }
      ],
      "name": "isApprovedForAll",
      "outputs": [
        {
          "internalType": "bool",
          "name": "",
          "type": "bool"
        }
      ],
      "stateMutability": "view",
      "type": "function"
    },
    {
      "inputs": [
        {
          "internalType": "address",
          "name": "node",
          "type": "address"
        }
      ],
      "name": "isExist",
      "outputs": [
        {
          "internalType": "bool",
          "name": "",
          "type": "bool"
        }
      ],
      "stateMutability": "view",
      "type": "function"
    },
    {
      "inputs": [
        {
          "internalType": "address",
          "name": "token",
          "type": "address"
        }
      ],
      "name": "isSupported",
      "outputs": [
        {
          "internalType": "uint8",
          "name": "",
          "type": "uint8"
        }
      ],
      "stateMutability": "view",
      "type": "function"
    },
    {
      "inputs": [
        {
          "internalType": "address",
          "name": "",
          "type": "address"
        },
        {
          "internalType": "address",
          "name": "from",
          "type": "address"
        },
        {
          "internalType": "uint256",
          "name": "amount",
          "type": "uint256"
        },
        {
          "internalType": "bytes",
          "name": "data",
          "type": "bytes"
        }
      ],
      "name": "onTransferReceived",
      "outputs": [
        {
          "internalType": "bytes4",
          "name": "",
          "type": "bytes4"
        }
      ],
      "stateMutability": "nonpayable",
      "type": "function"
    },
    {
      "inputs": [],
      "name": "owner",
      "outputs": [
        {
          "internalType": "address",
          "name": "",
          "type": "address"
        }
      ],
      "stateMutability": "view",
      "type": "function"
    },
    {
      "inputs": [
        {
          "internalType": "uint256",
          "name": "tokenId",
          "type": "uint256"
        },
        {
          "internalType": "uint256",
          "name": "editionId",
          "type": "uint256"
        }
      ],
      "name": "ownerOf",
      "outputs": [
        {
          "internalType": "address",
          "name": "",
          "type": "address"
        }
      ],
      "stateMutability": "view",
      "type": "function"
    },
    {
      "inputs": [],
      "name": "pause",
      "outputs": [],
      "stateMutability": "nonpayable",
      "type": "function"
    },
    {
      "inputs": [],
      "name": "paused",
      "outputs": [
        {
          "internalType": "bool",
          "name": "",
          "type": "bool"
        }
      ],
      "stateMutability": "view",
      "type": "function"
    },
    {
      "inputs": [],
      "name": "renounceOwnership",
      "outputs": [],
      "stateMutability": "nonpayable",
      "type": "function"
    },
    {
      "inputs": [],
      "name": "root",
      "outputs": [
        {
          "internalType": "address",
          "name": "",
          "type": "address"
        }
      ],
      "stateMutability": "view",
      "type": "function"
    },
    {
      "inputs": [],
      "name": "rootInitialized",
      "outputs": [
        {
          "internalType": "bool",
          "name": "",
          "type": "bool"
        }
      ],
      "stateMutability": "view",
      "type": "function"
    },
    {
      "inputs": [
        {
          "internalType": "address",
          "name": "",
          "type": "address"
        },
        {
          "internalType": "address",
          "name": "",
          "type": "address"
        },
        {
          "internalType": "uint256[]",
          "name": "",
          "type": "uint256[]"
        },
        {
          "internalType": "uint256[]",
          "name": "",
          "type": "uint256[]"
        },
        {
          "internalType": "bytes",
          "name": "",
          "type": "bytes"
        }
      ],
      "name": "safeBatchTransferFrom",
      "outputs": [],
      "stateMutability": "nonpayable",
      "type": "function"
    },
    {
      "inputs": [
        {
          "internalType": "address",
          "name": "from",
          "type": "address"
        },
        {
          "internalType": "address",
          "name": "to",
          "type": "address"
        },
        {
          "internalType": "uint256",
          "name": "tokenId",
          "type": "uint256"
        },
        {
          "internalType": "uint256",
          "name": "amount",
          "type": "uint256"
        },
        {
          "internalType": "bytes",
          "name": "data",
          "type": "bytes"
        }
      ],
      "name": "safeTransferFrom",
      "outputs": [],
      "stateMutability": "nonpayable",
      "type": "function"
    },
    {
      "inputs": [
        {
          "internalType": "address",
          "name": "operator",
          "type": "address"
        },
        {
          "internalType": "bool",
          "name": "approved",
          "type": "bool"
        }
      ],
      "name": "setApprovalForAll",
      "outputs": [],
      "stateMutability": "nonpayable",
      "type": "function"
    },
    {
      "inputs": [
        {
          "internalType": "bytes[6]",
          "name": "baseURI",
          "type": "bytes[6]"
        }
      ],
      "name": "setBaseURI",
      "outputs": [],
      "stateMutability": "nonpayable",
      "type": "function"
    },
    {
      "inputs": [
        {
          "internalType": "address",
          "name": "addr",
          "type": "address"
        }
      ],
      "name": "setWithdrawAddress",
      "outputs": [],
      "stateMutability": "nonpayable",
      "type": "function"
    },
    {
      "inputs": [
        {
          "internalType": "address",
          "name": "node",
          "type": "address"
        }
      ],
      "name": "subtreeWorth",
      "outputs": [
        {
          "internalType": "uint256",
          "name": "",
          "type": "uint256"
        }
      ],
      "stateMutability": "view",
      "type": "function"
    },
    {
      "inputs": [],
      "name": "supportedTokenAmount",
      "outputs": [
        {
          "internalType": "uint256",
          "name": "",
          "type": "uint256"
        }
      ],
      "stateMutability": "view",
      "type": "function"
    },
    {
      "inputs": [
        {
          "internalType": "bytes4",
          "name": "interfaceId",
          "type": "bytes4"
        }
      ],
      "name": "supportsInterface",
      "outputs": [
        {
          "internalType": "bool",
          "name": "",
          "type": "bool"
        }
      ],
      "stateMutability": "view",
      "type": "function"
    },
    {
      "inputs": [
        {
          "internalType": "uint256",
          "name": "",
          "type": "uint256"
        }
      ],
      "name": "tokenAddress_array",
      "outputs": [
        {
          "internalType": "address",
          "name": "",
          "type": "address"
        }
      ],
      "stateMutability": "view",
      "type": "function"
    },
    {
      "inputs": [
        {
          "internalType": "uint256",
          "name": "id",
          "type": "uint256"
        }
      ],
      "name": "totalSupply",
      "outputs": [
        {
          "internalType": "uint256",
          "name": "",
          "type": "uint256"
        }
      ],
      "stateMutability": "view",
      "type": "function"
    },
    {
      "inputs": [],
      "name": "totalTreeWorth",
      "outputs": [
        {
          "internalType": "uint256",
          "name": "",
          "type": "uint256"
        }
      ],
      "stateMutability": "view",
      "type": "function"
    },
    {
      "inputs": [
        {
          "internalType": "address",
          "name": "newOwner",
          "type": "address"
        }
      ],
      "name": "transferOwnership",
      "outputs": [],
      "stateMutability": "nonpayable",
      "type": "function"
    },
    {
      "inputs": [],
      "name": "unpause",
      "outputs": [],
      "stateMutability": "nonpayable",
      "type": "function"
    },
    {
      "inputs": [
        {
          "internalType": "uint256",
          "name": "tokenId",
          "type": "uint256"
        }
      ],
      "name": "uri",
      "outputs": [
        {
          "internalType": "string",
          "name": "",
          "type": "string"
        }
      ],
      "stateMutability": "view",
      "type": "function"
    },
    {
      "inputs": [],
      "name": "withdrawAddress_initialized",
      "outputs": [
        {
          "internalType": "uint8",
          "name": "",
          "type": "uint8"
        }
      ],
      "stateMutability": "view",
      "type": "function"
    }
  ],
  "contractName": "TCF_NFT",
  "sourceName": "contracts/TCF_NFT.sol",
  "bytecode": "0x60806040523480156200001157600080fd5b506200002662000020620000b1565b620000b5565b60136020527f4155c2f711f2cdd34f8262ab8fb9b7020a700fe7b6948222152f7670d1fdf34d8054600160ff1991821681179092556015805480840182556000919091527f55f448fdea98c4d29eb340757ef0a66cd03dbb9538908a6a81d96026b71ec4750180546001600160a01b03191683179055601491909155601c8054909116905562000107565b3390565b600a80546001600160a01b038381166001600160a01b0319831681179093556040519116919082907f8be0079c531659141344cd1fd0a4f28419497f9722a3daafe3b4186f6b6457e090600090a35050565b6157cb80620001176000396000f3fe6080604052600436106102c75760003560e01c8063715018a611610175578063a9405923116100dc578063d9dad80d11610095578063ebf0c7171161006f578063ebf0c717146108a6578063f242432a146108bb578063f2fde38b146108db578063fa8313e6146108fb576102c7565b8063d9dad80d14610851578063e8e7f80014610871578063e985e9c514610886576102c7565b8063a940592314610790578063b24661ac146107b0578063b4eb04de146107d0578063b788920e146107e3578063ba322b3f14610803578063bd85b03914610831576102c7565b80638da5cb5b1161012e5780638da5cb5b146106d957806392aeff48146106ee5780639da879b41461070e5780639e29efce14610723578063a0b77afa14610743578063a22cb46514610770576102c7565b8063715018a61461061f5780637a915fde1461063457806383023c88146106495780638456cb591461066957806386ff91131461067e57806388a7ca5c146106ac576102c7565b80632fedbf3c116102345780634f558e79116101ed5780635c975abb116101c75780635c975abb146105a7578063651583ee146105bc5780636999fa45146105d15780636d69fcaf146105ff576102c7565b80634f558e79146105475780635582631314610567578063598c27bc14610587576102c7565b80632fedbf3c146104835780633ab1a494146104a35780633f4ba83a146104c35780634c8cb672146104d85780634e1273f4146104fa5780634f129c5314610527576102c7565b80630e89341c116102865780630e89341c146103bf578063153154fd146103df57806319d62e571461040c5780631c49f47b1461042c578063233612831461044c5780632eb2c2d614610461576102c7565b806213eb4b146102cc578062fdd58e1461030257806301ffc9a71461032f5780630572a9951461034f57806306198b98146103645780630775969614610392575b600080fd5b3480156102d857600080fd5b506102ec6102e736600461454a565b61091b565b6040516102f99190614cc0565b60405180910390f35b34801561030e57600080fd5b5061032261031d3660046147ce565b610979565b6040516102f991906154ba565b34801561033b57600080fd5b506102ec61034a366004614966565b61098e565b34801561035b57600080fd5b506103226109b3565b34801561037057600080fd5b5061038461037f366004614a59565b6109fa565b6040516102f992919061550a565b34801561039e57600080fd5b506103b26103ad3660046148bf565b610a75565b6040516102f99190614cf2565b3480156103cb57600080fd5b506103b26103da366004614a59565b610d44565b3480156103eb57600080fd5b506103ff6103fa36600461454a565b610d4f565b6040516102f99190614bee565b34801561041857600080fd5b506103ff610427366004614a59565b610db3565b34801561043857600080fd5b5061032261044736600461454a565b610ddd565b34801561045857600080fd5b50610322610e54565b34801561046d57600080fd5b5061048161047c366004614596565b610e5a565b005b34801561048f57600080fd5b5061048161049e3660046148e8565b610e72565b3480156104af57600080fd5b506104816104be36600461454a565b610f04565b3480156104cf57600080fd5b50610481610fe7565b3480156104e457600080fd5b506104ed610ff9565b6040516102f991906154fc565b34801561050657600080fd5b5061051a6105153660046147f7565b611007565b6040516102f99190614c7c565b34801561053357600080fd5b506104ed61054236600461454a565b611021565b34801561055357600080fd5b506102ec610562366004614a59565b611055565b34801561057357600080fd5b50610481610582366004614a93565b611068565b34801561059357600080fd5b506104816105a236600461468e565b611120565b3480156105b357600080fd5b506102ec61113c565b3480156105c857600080fd5b506102ec611145565b3480156105dd57600080fd5b506105f16105ec36600461454a565b611155565b6040516102f9929190614c02565b34801561060b57600080fd5b5061048161061a36600461454a565b6111c8565b34801561062b57600080fd5b506104816112b1565b34801561064057600080fd5b506104ed6112c3565b34801561065557600080fd5b50610481610664366004614b36565b6112cc565b34801561067557600080fd5b50610481611385565b34801561068a57600080fd5b5061069e610699366004614a71565b611395565b6040516102f9929190614d05565b3480156106b857600080fd5b506106cc6106c73660046146de565b611442565b6040516102f99190614cdd565b3480156106e557600080fd5b506103ff61166c565b3480156106fa57600080fd5b5061048161070936600461454a565b61167b565b34801561071a57600080fd5b506104ed611796565b34801561072f57600080fd5b5061032261073e36600461454a565b6117a6565b34801561074f57600080fd5b5061076361075e366004614ac7565b6117f1565b6040516102f991906154e8565b34801561077c57600080fd5b5061048161078b3660046147a5565b61183a565b34801561079c57600080fd5b506103ff6107ab36600461454a565b611850565b3480156107bc57600080fd5b506104816107cb3660046148bf565b6118b1565b6104816107de366004614b0b565b611bb0565b3480156107ef57600080fd5b5061051a6107fe3660046147ce565b611dea565b34801561080f57600080fd5b5061082361081e366004614564565b611ea5565b6040516102f9929190614c61565b34801561083d57600080fd5b5061032261084c366004614a59565b611f53565b34801561085d57600080fd5b506103ff61086c366004614ac7565b611f65565b34801561087d57600080fd5b506103ff611fae565b34801561089257600080fd5b506102ec6108a1366004614564565b611ff9565b3480156108b257600080fd5b506103ff612027565b3480156108c757600080fd5b506104816108d6366004614743565b612036565b3480156108e757600080fd5b506104816108f636600461454a565b61212c565b34801561090757600080fd5b5061048161091636600461463b565b612166565b60006001600160a01b03821661094c5760405162461bcd60e51b8152600401610943906150bb565b60405180910390fd5b506001600160a01b0381166000908152601b6020526040902060030154600160a81b900460ff165b919050565b600061098583836125ba565b90505b92915050565b60006001600160e01b03198216632229f29760e21b148061098857506109888261262a565b601a54600090600160a01b900460ff166109df5760405162461bcd60e51b815260040161094390615038565b601a546109f4906001600160a01b031661266a565b90505b90565b601654600090819060ff61010090910416600114610a2a5760405162461bcd60e51b8152600401610943906153c0565b60068310610a4a5760405162461bcd60e51b815260040161094390614f0e565b505060009081526017602052604090206001015460ff81169161010090910466ffffffffffffff1690565b606060005b6006811015610d2e57601454838260068110610aa657634e487b7160e01b600052603260045260246000fd5b5050600214610ad757505060408051808201909152600a815269282924a1a2a9afa622a760b11b6020820152610974565b6000806000858460068110610afc57634e487b7160e01b600052603260045260246000fd5b60408051808201909152916080919091020160026000835b82821015610b4057610b3160408302850136819003810190614a1b565b81526020019060010190610b14565b50505050905060005b601454811015610ca0576000828260028110610b7557634e487b7160e01b600052603260045260246000fd5b60200201515190506001600160a01b038116610b945760019450610b99565b600193505b6000838360028110610bbb57634e487b7160e01b600052603260045260246000fd5b6020020151516001600160a01b031614801590610c22575060136000848460028110610bf757634e487b7160e01b600052603260045260246000fd5b60209081029190910151516001600160a01b031682528101919091526040016000205460ff16600114155b15610c8f57610c82838360028110610c4a57634e487b7160e01b600052603260045260246000fd5b602002015160000151604051806040016040528060118152602001701513d2d15397d55394d5541413d4951151607a1b815250612709565b9650505050505050610974565b50610c9981615690565b9050610b49565b5082610cdd57604051806040016040528060138152602001721510d7d4149250d157d35554d517d1561254d5606a1b815250945050505050610974565b81610d1a57604051806040016040528060148152602001731110d197d4149250d157d35554d517d1561254d560621b815250945050505050610974565b50505080610d2790615690565b9050610a7a565b5050604080516020810190915260008152919050565b60606109888261273d565b6001600160a01b0381166000908152601b6020526040812060030154600160a81b900460ff16610d915760405162461bcd60e51b815260040161094390615491565b506001600160a01b039081166000908152601b60205260409020600301541690565b60158181548110610dc357600080fd5b6000918252602090912001546001600160a01b0316905081565b601a54600090600160a01b900460ff16610e095760405162461bcd60e51b815260040161094390615038565b6001600160a01b0382166000908152601b6020526040902060030154600160a81b900460ff16610e4b5760405162461bcd60e51b815260040161094390615491565b6109888261266a565b60145481565b60405162461bcd60e51b81526004016109439061541d565b610e7a612837565b60005b6006811015610ef357818160068110610ea657634e487b7160e01b600052603260045260246000fd5b6020020151600b8260068110610ecc57634e487b7160e01b600052603260045260246000fd5b019080519060200190610ee09291906143c1565b5080610eeb81615690565b915050610e7d565b50506011805460ff19166001179055565b610f0c612837565b6001600160a01b038116610f325760405162461bcd60e51b8152600401610943906150bb565b6001600160a01b0381163b15610f5a5760405162461bcd60e51b8152600401610943906153f0565b601c80546001600160a01b03838116610100908102610100600160a81b031984161793849055909104169060ff600160a81b90910416610fa857601c805460ff60a81b1916600160a81b1790555b6040516001600160a01b03808416919083169033907facf3042cca6ca3830bf91869d4343cead97657cc9e8973fdbd665b55c3e1f49890600090a45050565b610fef612837565b610ff7612876565b565b601654610100900460ff1681565b606060405162461bcd60e51b81526004016109439061541d565b60006001600160a01b03821661103657600191505b506001600160a01b031660009081526013602052604090205460ff1690565b60008061106183611f53565b1192915050565b611070612837565b600061107c84846128c8565b905080516000146110a1578060405162461bcd60e51b81526004016109439190614cf2565b6001600160a01b0383166110b457600192505b60008481526017602090815260408083206001600160a01b038716808552925291829020805490859055915186907f8747a56dd6a09ab1378db3a842a4724d75642265b104e31a28fa736ce71912b39061111190859088906154c3565b60405180910390a35050505050565b6111286129ca565b61113585858585856129ef565b5050505050565b601c5460ff1690565b601a54600160a01b900460ff1681565b6001600160a01b0381166000908152601b60205260408120600301548190600160a81b900460ff166111995760405162461bcd60e51b815260040161094390615491565b50506001600160a01b039081166000908152601b60205260409020600181015460029091015490821692911690565b6111d0612837565b60165460ff16156111f35760405162461bcd60e51b815260040161094390614dd0565b60006111fe82612a46565b90508051600014611223578060405162461bcd60e51b81526004016109439190614cf2565b6001600160a01b0382166000818152601360205260408120805460ff191660019081179091556015805480830182559083527f55f448fdea98c4d29eb340757ef0a66cd03dbb9538908a6a81d96026b71ec4750180546001600160a01b0319169093179092556014805490919061129b908490615584565b90915550506016805460ff191660011790555050565b6112b9612837565b610ff76000612c2b565b60115460ff1681565b6112d4612837565b60165460ff610100909104166001146112ff5760405162461bcd60e51b8152600401610943906153c0565b6006821061131f5760405162461bcd60e51b815260040161094390614f0e565b60008281526017602052604090819020600101805460ff84811660ff19831617909255915191169083907f902e8f79c4772541ba59982b7a572dfdb4a0c003843ec5cfafc7279665288954906113789084908690615526565b60405180910390a2505050565b61138d612837565b610ff7612c7d565b60606000806113a485856128c8565b905080516000146113ba5791506000905061143b565b6001600160a01b0384166113cd57600193505b60008581526017602090815260408083206001600160a01b03881684529091529020548061142657505060408051808201909152600d81526c14149250d157d393d517d4d155609a1b602082015291506000905061143b565b60408051602081019091526000815293509150505b9250929050565b600061144c6129ca565b601c54600160a81b900460ff166001146114785760405162461bcd60e51b815260040161094390615001565b601a54600160a01b900460ff166114a15760405162461bcd60e51b815260040161094390615038565b60165460ff610100909104166001146114cc5760405162461bcd60e51b8152600401610943906153c0565b60115460ff166001146114f15760405162461bcd60e51b8152600401610943906151a4565b6114fa8461091b565b6115165760405162461bcd60e51b815260040161094390615491565b3360008181526013602052604090205460ff166001146115485760405162461bcd60e51b815260040161094390615200565b6000808480602001905181019061155f9190614ae8565b91509150600682106115835760405162461bcd60e51b815260040161094390614f0e565b6000806115908486611395565b91509150815160001482906115b85760405162461bcd60e51b81526004016109439190614cf2565b506115c383826155c7565b881480156115d15750600083115b6115ed5760405162461bcd60e51b815260040161094390615307565b61160889858560405180602001604052806000815250612cbb565b83856001600160a01b03168a6001600160a01b03167fc32800b3f198f1d50532ecd2e22d4fea8d5e5e9236fb2d2796a6710f9c14f154868560405161164e9291906154c3565b60405180910390a450632229f29760e21b9998505050505050505050565b600a546001600160a01b031690565b611683612837565b601a54600160a01b900460ff16156116ad5760405162461bcd60e51b815260040161094390614eaf565b6001600160a01b0381163b156116d55760405162461bcd60e51b815260040161094390614f35565b6001600160a01b0381166116fb5760405162461bcd60e51b8152600401610943906150bb565b601a80546001600160a01b0383166001600160a01b031960ff60a01b19909216600160a01b17821681179092556000828152601b6020526040808220600381018054825486168355600183018054871690556002830180548716905560ff60a81b1916600160a81b17909416909355519192917fbeec1fc786857549cbe9ae8717fa0fbdea9bb7386027cbad8197404a3c9442109190a25050565b601c54600160a81b900460ff1681565b6001600160a01b0381166000908152601b6020526040812060030154600160a81b900460ff166117e85760405162461bcd60e51b815260040161094390615491565b61098882612ccd565b6000600683106118135760405162461bcd60e51b815260040161094390614f0e565b5060009182526019602090815260408084209284529190529020546001600160401b031690565b61184c611845612e7f565b8383612e83565b5050565b6001600160a01b0381166000908152601b6020526040812060030154600160a81b900460ff166118925760405162461bcd60e51b815260040161094390615491565b506001600160a01b039081166000908152601b60205260409020541690565b6118b9612837565b60165460ff166001146118de5760405162461bcd60e51b815260040161094390615391565b601654610100900460ff16156119065760405162461bcd60e51b815260040161094390615178565b600061191182610a75565b90508051600014611936578060405162461bcd60e51b81526004016109439190614cf2565b6040805160c08082018352654e94914f00008252659d29229e000060208084019190915265ebbdb3ed00008385015266013a52453c0000606080850191909152660188e6d68b0000608080860191909152666e80ec5718000060a0808701919091528651948501875260288552603293850193909352603c95840195909552605090830152605a9382019390935260649281019290925290600260005b6006811015611b99578381600681106119fc57634e487b7160e01b600052603260045260246000fd5b60200201516017600083815260200190815260200160002060010160016101000a81548166ffffffffffffff021916908366ffffffffffffff160217905550828160068110611a5b57634e487b7160e01b600052603260045260246000fd5b602090810291909101516000838152601790925260408220600101805460ff191660ff9092169190911790555b82811015611b88576000878360068110611ab257634e487b7160e01b600052603260045260246000fd5b608002018260028110611ad557634e487b7160e01b600052603260045260246000fd5b604002016000016020810190611aeb919061454a565b90506001600160a01b038116611aff575060015b878360068110611b1f57634e487b7160e01b600052603260045260246000fd5b608002018260028110611b4257634e487b7160e01b600052603260045260246000fd5b60008581526017602090815260408083206001600160a01b0390961683529481529084902091909302919091019190910135905580611b8081615690565b915050611a88565b50611b9281615690565b90506119d3565b50506016805461ff00191661010017905550505050565b611bb86129ca565b601c54600160a81b900460ff16600114611be45760405162461bcd60e51b815260040161094390615001565b601a54600160a01b900460ff16611c0d5760405162461bcd60e51b815260040161094390615038565b60165460ff61010090910416600114611c385760405162461bcd60e51b8152600401610943906153c0565b60115460ff16600114611c5d5760405162461bcd60e51b8152600401610943906151a4565b611c686102e7612e7f565b611c845760405162461bcd60e51b815260040161094390615491565b600080611c92856000611395565b9150915081516000148290611cba5760405162461bcd60e51b81526004016109439190614cf2565b50611cc584826155c7565b34148015611cd35750600084115b611cef5760405162461bcd60e51b815260040161094390615307565b611d11611cfa612e7f565b868660405180602001604052806000815250612cbb565b84611d1a612e7f565b6001600160a01b03167f5fce8741d2fa2920f00e6fda1be1ede8d7a2d1379bc099f79aa3b438a86de2978684604051611d549291906154c3565b60405180910390a3601c5460405160009161010090046001600160a01b0316903490611d7f906109f7565b60006040518083038185875af1925050503d8060008114611dbc576040519150601f19603f3d011682016040523d82523d6000602084013e611dc1565b606091505b5050905080611de25760405162461bcd60e51b81526004016109439061510a565b505050505050565b60606001600160a01b038316611e125760405162461bcd60e51b8152600401610943906150bb565b60068210611e325760405162461bcd60e51b815260040161094390614f0e565b6001600160a01b038316600090815260186020908152604080832085845282529182902080548351818402810184019094528084529091830182828015611e9857602002820191906000526020600020905b815481526020019060010190808311611e84575b5050505050905092915050565b601a546000908190600160a01b900460ff16611ed35760405162461bcd60e51b815260040161094390615038565b6001600160a01b0384166000908152601b6020526040902060030154600160a81b900460ff16611f155760405162461bcd60e51b8152600401610943906152d8565b6000806000611f248787612f26565b92509250925080611f475760405162461bcd60e51b815260040161094390614da3565b50909590945092505050565b60009081526009602052604090205490565b600060068310611f875760405162461bcd60e51b815260040161094390614f0e565b5060009182526006602090815260408084209284529190529020546001600160a01b031690565b6000611fb8612837565b601c54600160a81b900460ff16600114611fe45760405162461bcd60e51b815260040161094390615001565b50601c5461010090046001600160a01b031690565b6001600160a01b03918216600090815260086020908152604080832093909416825291909152205460ff1690565b601a546001600160a01b031681565b61203e6129ca565b612046612e7f565b6001600160a01b0316856001600160a01b0316148061206c575061206c856108a1612e7f565b6120885760405162461bcd60e51b815260040161094390614e78565b6001600160a01b0384166120ae5760405162461bcd60e51b8152600401610943906150bb565b600082116120ce5760405162461bcd60e51b815260040161094390614d7e565b600683106120ee5760405162461bcd60e51b815260040161094390614f0e565b60006120fb868585613293565b905080516000141561211f5760405162461bcd60e51b815260040161094390615260565b611de286868684866134cd565b612134612837565b6001600160a01b03811661215a5760405162461bcd60e51b815260040161094390614dfb565b61216381612c2b565b50565b601a54600160a01b900460ff1661218f5760405162461bcd60e51b815260040161094390615038565b6001600160a01b038416158015906121af57506001600160a01b03831615155b6121cb5760405162461bcd60e51b8152600401610943906150bb565b336000818152601b6020526040902060030154600160a81b900460ff16156122055760405162461bcd60e51b8152600401610943906151db565b6001600160a01b0385166000908152601b6020526040902060030154600160a81b900460ff166122475760405162461bcd60e51b815260040161094390615367565b6001600160a01b0384166000908152601b6020526040902060030154600160a81b900460ff166122895760405162461bcd60e51b8152600401610943906152d8565b60005b60068110156122e35760006122a18783610979565b905080156122af57506122e3565b81600514156122d05760405162461bcd60e51b815260040161094390615090565b50806122db81615690565b91505061228c565b508115612396576001600160a01b0385166000908152601b6020526040902060030154600160a01b900460ff161561232d5760405162461bcd60e51b815260040161094390615136565b60008061233b866000611ea5565b91509150866001600160a01b0316826001600160a01b0316146123705760405162461bcd60e51b815260040161094390615330565b841515811515146123935760405162461bcd60e51b815260040161094390615330565b50505b6123a084866134da565b6123bc5760405162461bcd60e51b815260040161094390614fa3565b6001600160a01b038086166000908152601b60205260409020600181015490911615806123f4575060028101546001600160a01b0316155b6124105760405162461bcd60e51b815260040161094390614e41565b831561246d5760018101546001600160a01b031661244a576001810180546001600160a01b0319166001600160a01b038416179055612468565b6002810180546001600160a01b0319166001600160a01b0384161790555b6124bf565b60028101546001600160a01b03166124a1576002810180546001600160a01b0319166001600160a01b0384161790556124bf565b6001810180546001600160a01b0319166001600160a01b0384161790555b6001600160a01b038083166000908152601b6020526040902060038101805482548a85166001600160a01b0319918216178455600184018054821690556002840180548216905593891660ff60a81b19909116600160a81b179390931692909217909155831561255a576001600160a01b0387166000908152601b60205260409020600301805460ff60a01b1916600160a01b861515021790555b856001600160a01b0316876001600160a01b0316846001600160a01b03167fd68448e3828095f9e946493594c2e0b4637ef91f522c06b2e74f79fe02b02c1a87896040516125a9929190614ccb565b60405180910390a450505050505050565b60006001600160a01b0383166125e25760405162461bcd60e51b8152600401610943906150bb565b600682106126025760405162461bcd60e51b815260040161094390614f0e565b5060009081526007602090815260408083206001600160a01b03949094168352929052205490565b60006001600160e01b03198216636cdb3d1360e11b148061265b57506001600160e01b031982166303a24d0760e21b145b8061098857506109888261353b565b60006001600160a01b03821661268257506000610974565b6001600160a01b0382166000908152601b602052604090206003810154600160a81b900460ff166126b7576000915050610974565b60028101546126ce906001600160a01b031661266a565b60018201546126e5906001600160a01b031661266a565b6126ee85612ccd565b6126f89190615584565b6127029190615584565b9392505050565b60608161271584613554565b604051602001612726929190614bb2565b604051602081830303815290604052905092915050565b60115460609060ff166001146127655760405162461bcd60e51b8152600401610943906151a4565b600682106127855760405162461bcd60e51b815260040161094390614f0e565b600b82600681106127a657634e487b7160e01b600052603260045260246000fd5b0180546127b290615629565b80601f01602080910402602001604051908101604052809291908181526020018280546127de90615629565b801561282b5780601f106128005761010080835404028352916020019161282b565b820191906000526020600020905b81548152906001019060200180831161280e57829003601f168201915b50505050509050919050565b61283f612e7f565b6001600160a01b031661285061166c565b6001600160a01b031614610ff75760405162461bcd60e51b81526004016109439061522b565b61287e613743565b601c805460ff191690557f5db9ee0a495bf2e6ff9c91a7834c1ba4fdd244a5e8aa4e537bd38aeae4b073aa6128b1612e7f565b6040516128be9190614bee565b60405180910390a1565b60165460609060ff61010090910416600114612911575060408051808201909152601681527514149250d154d7d393d517d25392551250531256915160521b6020820152610988565b6005831115612944575060408051808201909152600d81526c544f4b454e49445f52414e474560981b6020820152610988565b6001600160a01b03821661295757600191505b6001600160a01b03821660009081526013602052604090205460ff166001146129b4576129ad82604051806040016040528060118152602001701513d2d15397d55394d5541413d4951151607a1b815250612709565b9050610988565b5060408051602081019091526000815292915050565b6129d261113c565b15610ff75760405162461bcd60e51b815260040161094390615066565b6129f7612e7f565b6001600160a01b0316856001600160a01b03161480612a1d5750612a1d856108a1612e7f565b612a395760405162461bcd60e51b815260040161094390614e78565b61113585858585856134cd565b6001600160a01b03811660009081526013602052604090205460609060ff1660011415612aa157612a9a826040518060400160405280600b81526020016a414444525f45584953545360a81b815250612709565b9050610974565b60408051600481526024810182526020810180516001600160e01b03166395d89b4160e01b179052905160009081906001600160a01b03861690612ae6908590614b96565b600060405180830381855afa9150503d8060008114612b21576040519150601f19603f3d011682016040523d82523d6000602084013e612b26565b606091505b5091509150818015612b39575060008151115b15612be057600081806020019051810190612b54919061499e565b80516020808301919091206040805180820190915260038152622221a360e91b9201919091529091507f580e4ba285e7e1134de91e671c33b0ab748bee7126d5d2e4d0845e6ad176e7eb8114612bd957612bcd87604051806040016040528060078152602001662727aa2fa221a360c91b815250612709565b95505050505050610974565b5050612c13565b612c0985604051806040016040528060078152602001662727aa2fa221a360c91b815250612709565b9350505050610974565b50506040805160208101909152600081529392505050565b600a80546001600160a01b038381166001600160a01b0319831681179093556040519116919082907f8be0079c531659141344cd1fd0a4f28419497f9722a3daafe3b4186f6b6457e090600090a35050565b612c856129ca565b601c805460ff191660011790557f62e78cea01bee320cd4e420270b5ea74000d11b0c9f74754ebdbfc544b05a2586128b1612e7f565b612cc784848484613767565b50505050565b60006001600160a01b038216612cf55760405162461bcd60e51b8152600401610943906150bb565b6000805b6006811015612e78576001600160a01b0384166000908152601860209081526040808320848452825280832080548251818502810185019093528083529192909190830182828015612d6a57602002820191906000526020600020905b815481526020019060010190808311612d56575b5050505050905060005b8151811015612e63576000828281518110612d9f57634e487b7160e01b600052603260045260246000fd5b6020908102919091018101516000868152601983526040808220838352909352918220549092506001600160401b031690612dd9866109fa565b9150612df0905066ffffffffffffff82168361559c565b6001600160401b0316421115612e0857505050612e51565b600080612e16886000611395565b9150915081516000148290612e3e5760405162461bcd60e51b81526004016109439190614cf2565b50612e49818a615584565b985050505050505b80612e5b81615690565b915050612d74565b50508080612e7090615690565b915050612cf9565b5092915050565b3390565b816001600160a01b0316836001600160a01b03161415612eb55760405162461bcd60e51b815260040161094390614fda565b6001600160a01b0383811660008181526008602090815260408083209487168084529490915290819020805460ff1916851515179055517f17307eab39ab6107e8899845ad3d59bd9653f200f220920489ca2b5937696c3190612f19908590614cc0565b60405180910390a3505050565b600080806001600160a01b038516612f465750600091508190508061328c565b6001600160a01b0385166000908152601b602052604090206003810154600160a81b900460ff16612f825760008060009350935093505061328c565b846001600160a01b0316866001600160a01b03161480612fc457506001600160a01b0386166000908152601b6020526040902060030154600160a01b900460ff165b156131075760018101546000906001600160a01b031615612ffb576001820154612ff6906001600160a01b031661266a565b612ffe565b60005b60028301549091506000906001600160a01b03161561303357600283015461302e906001600160a01b031661266a565b613036565b60005b9050808211156000816130565760028501546001600160a01b0316613065565b60018501546001600160a01b03165b90506001600160a01b0381161561309c57613080818a612f26565b91995097509550851561309c57506001945061328c9350505050565b6000826130b65760018601546001600160a01b03166130c5565b60028601546001600160a01b03165b90506001600160a01b038116156130f1576130e0818b612f26565b98509850985050505050505061328c565b600080600098509850985050505050505061328c565b60018101546000906001600160a01b031615613139576001820154613134906001600160a01b031661266a565b61313c565b60005b60028301549091506000906001600160a01b03161561317157600283015461316c906001600160a01b031661266a565b613174565b60005b9050808211156000816131945760028501546001600160a01b03166131a3565b60018501546001600160a01b03165b90506001600160a01b0381166131d9576131bc8a613864565b156131d4575088965094506001935061328c92505050565b6131ff565b6131e3818a612f26565b9199509750955085156131ff57506001945061328c9350505050565b6000826132195760018601546001600160a01b0316613228565b60028601546001600160a01b03165b905082156001600160a01b038216613274576132438c613864565b1561325d578b995097506001965061328c95505050505050565b60008060009950995099505050505050505061328c565b61327e828c612f26565b995099509950505050505050505b9250925092565b60606001600160a01b0384166132bb5760405162461bcd60e51b8152600401610943906150bb565b600683106132db5760405162461bcd60e51b815260040161094390614f0e565b6000826001600160401b0381111561330357634e487b7160e01b600052604160045260246000fd5b60405190808252806020026020018201604052801561332c578160200160208202803683370190505b506001600160a01b03861660009081526018602090815260408083208884528252808320805482518185028101850190935280835294955092938493919283018282801561339957602002820191906000526020600020905b815481526020019060010190808311613385575b5050505050905060006133ab876109fa565b91505060005b82518110156134b3576000888152601960205260408120845166ffffffffffffff851692908690859081106133f657634e487b7160e01b600052603260045260246000fd5b60209081029190910181015182528101919091526040016000205461342491906001600160401b031661559c565b6001600160401b03164211156134a15782818151811061345457634e487b7160e01b600052603260045260246000fd5b602002602001015185858061346890615690565b96508151811061348857634e487b7160e01b600052603260045260246000fd5b602002602001018181525050868414156134a1576134b3565b806134ab81615690565b9150506133b1565b50858310156134c157600084525b50919695505050505050565b61113585858585856138a8565b6000815b6001600160a01b0381161561353157836001600160a01b0316816001600160a01b03161415613511576001915050610988565b6001600160a01b039081166000908152601b6020526040902054166134de565b5060009392505050565b6001600160e01b031981166301ffc9a760e01b14919050565b60408051602a808252606082810190935283831b916f181899199a1a9b1b9c1cb0b131b232b360811b9160009190602082018180368337019050509050600360fc1b816000815181106135b757634e487b7160e01b600052603260045260246000fd5b60200101906001600160f81b031916908160001a905350600f60fb1b816001815181106135f457634e487b7160e01b600052603260045260246000fd5b60200101906001600160f81b031916908160001a90535060005b601481101561373a57600084826014811061363957634e487b7160e01b600052603260045260246000fd5b1a905083600482901c60ff166010811061366357634e487b7160e01b600052603260045260246000fd5b1a60f81b836136738460026155c7565b61367e906002615584565b8151811061369c57634e487b7160e01b600052603260045260246000fd5b60200101906001600160f81b031916908160001a90535083600f8216601081106136d657634e487b7160e01b600052603260045260246000fd5b1a60f81b836136e68460026155c7565b6136f1906003615584565b8151811061370f57634e487b7160e01b600052603260045260246000fd5b60200101906001600160f81b031916908160001a90535050808061373290615690565b91505061360e565b50949350505050565b61374b61113c565b610ff75760405162461bcd60e51b815260040161094390614d50565b4260005b83811015613857576000816000876006811061379757634e487b7160e01b600052603260045260246000fd5b01546137a39190615584565b60008781526019602090815260408083208484528252808320805467ffffffffffffffff19166001600160401b0389161790556001600160a01b038b16808452601883528184208b855283528184208054600181018255908552929093209091018390555191925087917fa0fe61afe1ffd5e83d09a64b67ad6e6511a42b3876aea9ba71288026e8a29b699061383c90859088906154d1565b60405180910390a3508061384f81615690565b91505061376b565b5061113585858585613bab565b6000805b600681101561389f57600061387d8483610979565b111561388d576001915050610974565b8061389781615690565b915050613868565b50600092915050565b6001600160a01b0384166138ce5760405162461bcd60e51b8152600401610943906150bb565b600683106138ee5760405162461bcd60e51b815260040161094390614f0e565b60005b8251811015613b9d57600083828151811061391c57634e487b7160e01b600052603260045260246000fd5b6020908102919091018101516000878152601983526040808220838352909352918220549092506001600160401b031690613956876109fa565b915050886001600160a01b031661396d8885611f65565b6001600160a01b0316146139935760405162461bcd60e51b8152600401610943906150e1565b6001600160a01b03808a1660009081526018602081815260408084208c85528252808420948d1684529181528183208b845290528120909190825b8254811015613a2457868382815481106139f857634e487b7160e01b600052603260045260246000fd5b90600052602060002001541415613a125760019350613a24565b80613a1c81615690565b9150506139ce565b5082613a425760405162461bcd60e51b815260040161094390614d27565b613a5566ffffffffffffff85168661559c565b6001600160401b03164211613a7c5760405162461bcd60e51b815260040161094390614ee6565b60005b8254811015613b6c5786838281548110613aa957634e487b7160e01b600052603260045260246000fd5b90600052602060002001541415613b5a5782548390613aca906001906155e6565b81548110613ae857634e487b7160e01b600052603260045260246000fd5b9060005260206000200154838281548110613b1357634e487b7160e01b600052603260045260246000fd5b906000526020600020018190555082805480613b3f57634e487b7160e01b600052603160045260246000fd5b60019003818190600052602060002001600090559055613b6c565b80613b6481615690565b915050613a7f565b50805460018101825560009182526020909120019490945550839250613b959150829050615690565b9150506138f1565b506111358585858585613da6565b60068310613bcb5760405162461bcd60e51b815260040161094390614f0e565b6001600160a01b038416613bf15760405162461bcd60e51b8152600401610943906150bb565b6000613bfb612e7f565b90506000613c08856140be565b90506000613c15856140be565b9050613c2683600089858589614117565b60008681526007602090815260408083206001600160a01b038b16845290915281208054879290613c58908490615584565b90915550600090505b85811015613ced57876006600089815260200190815260200160002060008360008b60068110613ca157634e487b7160e01b600052603260045260246000fd5b0154613cad9190615584565b8152602081019190915260400160002080546001600160a01b0319166001600160a01b039290921691909117905580613ce581615690565b915050613c61565b508460008760068110613d1057634e487b7160e01b600052603260045260246000fd5b016000828254613d209190615584565b92505081905550866001600160a01b031660006001600160a01b0316846001600160a01b03167fc3d58168c5ae7397731d063d5bbf3d657854427343f4c083240f7aacaa2d0f628989604051613d779291906154c3565b60405180910390a4613d8e83600089858589611de2565b613d9d83600089898989614125565b50505050505050565b6001600160a01b038416613dcc5760405162461bcd60e51b8152600401610943906150bb565b60068310613dec5760405162461bcd60e51b815260040161094390614f0e565b60005b8251811015613e8757600084815260066020526040812084516001600160a01b0389169290869085908110613e3457634e487b7160e01b600052603260045260246000fd5b6020908102919091018101518252810191909152604001600020546001600160a01b031614613e755760405162461bcd60e51b8152600401610943906150e1565b80613e7f81615690565b915050613def565b506000613e92612e7f565b90506000613e9f856140be565b90506000613ead85516140be565b9050613ebd838989858589614117565b60005b8551811015613f5857600087815260066020526040812087516001600160a01b038c169290899085908110613f0557634e487b7160e01b600052603260045260246000fd5b6020908102919091018101518252810191909152604001600020546001600160a01b031614613f465760405162461bcd60e51b8152600401610943906150e1565b80613f5081615690565b915050613ec0565b5060008681526007602090815260408083206001600160a01b038c1684529091528120805487518103909155905b865181101561400257600088815260066020526040812088518b92908a9085908110613fc257634e487b7160e01b600052603260045260246000fd5b602090810291909101810151825281019190915260400160002080546001600160a01b0319166001600160a01b0392909216919091179055600101613f86565b50855160008881526007602090815260408083206001600160a01b038d16845290915281208054909190614037908490615584565b92505081905550876001600160a01b0316896001600160a01b0316856001600160a01b03167fc3d58168c5ae7397731d063d5bbf3d657854427343f4c083240f7aacaa2d0f628a8a5160405161408e9291906154c3565b60405180910390a46140a4848a8a86868a611de2565b6140b3848a8a8a8a518a614125565b505050505050505050565b6040805160018082528183019092526060916000919060208083019080368337019050509050828160008151811061410657634e487b7160e01b600052603260045260246000fd5b602090810291909101015292915050565b611de2868686868686614243565b6001600160a01b0384163b15611de25760405163f23a6e6160e01b81526001600160a01b0385169063f23a6e61906141699089908990889088908890600401614c1c565b602060405180830381600087803b15801561418357600080fd5b505af19250505080156141b3575060408051601f3d908101601f191682019092526141b091810190614982565b60015b614213576141bf6156d7565b806308c379a014156141f957506141d46156ee565b806141df57506141fb565b8060405162461bcd60e51b81526004016109439190614cf2565b505b60405162461bcd60e51b815260040161094390615446565b6001600160e01b0319811663f23a6e6160e01b14613d9d5760405162461bcd60e51b815260040161094390614f6c565b614251868686868686611de2565b6001600160a01b0385166142f45760005b83518110156142f25782818151811061428b57634e487b7160e01b600052603260045260246000fd5b6020026020010151600960008684815181106142b757634e487b7160e01b600052603260045260246000fd5b6020026020010151815260200190815260200160002060008282546142dc9190615584565b909155506142eb905081615690565b9050614262565b505b6001600160a01b038416611de25760005b8351811015613d9d57600084828151811061433057634e487b7160e01b600052603260045260246000fd5b60200260200101519050600084838151811061435c57634e487b7160e01b600052603260045260246000fd5b602002602001015190506000600960008481526020019081526020016000205490508181101561439e5760405162461bcd60e51b815260040161094390615290565b600092835260096020526040909220910390556143ba81615690565b9050614305565b8280546143cd90615629565b90600052602060002090601f0160209004810192826143ef5760008555614435565b82601f1061440857805160ff1916838001178555614435565b82800160010185558215614435579182015b8281111561443557825182559160200191906001019061441a565b50614441929150614445565b5090565b5b808211156144415760008155600101614446565b80356001600160a01b038116811461097457600080fd5b600082601f830112614481578081fd5b8135602061448e8261553a565b60405161449b8282615664565b8381528281019150858301838502870184018810156144b8578586fd5b855b858110156144d6578135845292840192908401906001016144ba565b5090979650505050505050565b8035801515811461097457600080fd5b600082601f830112614503578081fd5b813561450e8161555d565b60405161451b8282615664565b82815285602084870101111561452f578384fd5b82602086016020830137918201602001929092529392505050565b60006020828403121561455b578081fd5b6109858261445a565b60008060408385031215614576578081fd5b61457f8361445a565b915061458d6020840161445a565b90509250929050565b600080600080600060a086880312156145ad578081fd5b6145b68661445a565b94506145c46020870161445a565b935060408601356001600160401b03808211156145df578283fd5b6145eb89838a01614471565b94506060880135915080821115614600578283fd5b61460c89838a01614471565b93506080880135915080821115614621578283fd5b5061462e888289016144f3565b9150509295509295909350565b60008060008060808587031215614650578384fd5b6146598561445a565b93506146676020860161445a565b9250614675604086016144e3565b9150614683606086016144e3565b905092959194509250565b600080600080600060a086880312156146a5578283fd5b6146ae8661445a565b94506146bc6020870161445a565b93506040860135925060608601356001600160401b0380821115614600578283fd5b600080600080608085870312156146f3578182fd5b6146fc8561445a565b935061470a6020860161445a565b92506040850135915060608501356001600160401b0381111561472b578182fd5b614737878288016144f3565b91505092959194509250565b600080600080600060a0868803121561475a578283fd5b6147638661445a565b94506147716020870161445a565b9350604086013592506060860135915060808601356001600160401b03811115614799578182fd5b61462e888289016144f3565b600080604083850312156147b7578182fd5b6147c08361445a565b915061458d602084016144e3565b600080604083850312156147e0578182fd5b6147e98361445a565b946020939093013593505050565b60008060408385031215614809578182fd5b82356001600160401b038082111561481f578384fd5b818501915085601f830112614832578384fd5b8135602061483f8261553a565b60405161484c8282615664565b8381528281019150858301838502870184018b1015614869578889fd5b8896505b848710156148925761487e8161445a565b83526001969096019591830191830161486d565b50965050860135925050808211156148a8578283fd5b506148b585828601614471565b9150509250929050565b60006103008083850312156148d2578182fd5b8381840111156148e0578182fd5b509092915050565b600060208083850312156148fa578182fd5b82356001600160401b0381111561490f578283fd5b8301601f8101851361491f578283fd5b60405161492d60c082615664565b8082855b60068110156149595761494789833587016144f3565b83529185019190850190600101614931565b5091979650505050505050565b600060208284031215614977578081fd5b81356127028161577f565b600060208284031215614993578081fd5b81516127028161577f565b6000602082840312156149af578081fd5b81516001600160401b038111156149c4578182fd5b8201601f810184136149d4578182fd5b80516149df8161555d565b6040516149ec8282615664565b828152866020848601011115614a00578485fd5b614a118360208301602087016155fd565b9695505050505050565b600060408284031215614a2c578081fd5b604051614a3a604082615664565b614a438361445a565b8152602083013560208201528091505092915050565b600060208284031215614a6a578081fd5b5035919050565b60008060408385031215614a83578182fd5b8235915061458d6020840161445a565b600080600060608486031215614aa7578081fd5b83359250614ab76020850161445a565b9150604084013590509250925092565b60008060408385031215614ad9578182fd5b50508035926020909101359150565b60008060408385031215614afa578182fd5b505080516020909101519092909150565b600080600060608486031215614b1f578081fd5b505081359360208301359350604090920135919050565b60008060408385031215614b48578182fd5b82359150602083013560ff81168114614b5f578182fd5b809150509250929050565b60008151808452614b828160208601602086016155fd565b601f01601f19169290920160200192915050565b60008251614ba88184602087016155fd565b9190910192915050565b60008351614bc48184602088016155fd565b600160fd1b9083019081528351614be28160018401602088016155fd565b01600101949350505050565b6001600160a01b0391909116815260200190565b6001600160a01b0392831681529116602082015260400190565b6001600160a01b03868116825285166020820152604081018490526060810183905260a060808201819052600090614c5690830184614b6a565b979650505050505050565b6001600160a01b039290921682521515602082015260400190565b6020808252825182820181905260009190848201906040850190845b81811015614cb457835183529284019291840191600101614c98565b50909695505050505050565b901515815260200190565b91151582521515602082015260400190565b6001600160e01b031991909116815260200190565b6000602082526109856020830184614b6a565b600060408252614d186040830185614b6a565b90508260208301529392505050565b6020808252600f908201526e125391115617d393d517d3d5d39151608a1b604082015260600190565b60208082526014908201527314185d5cd8589b194e881b9bdd081c185d5cd95960621b604082015260600190565b6020808252600b908201526a414d4f554e545f5a45524f60a81b604082015260600190565b6020808252601390820152721393d7d0559052531050931157d41054915395606a1b604082015260600190565b6020808252601190820152701513d2d15397d253925512505312569151607a1b604082015260600190565b60208082526026908201527f4f776e61626c653a206e6577206f776e657220697320746865207a65726f206160408201526564647265737360d01b606082015260800190565b60208082526017908201527f504152454e545f4841535f54574f5f4348494c4452454e000000000000000000604082015260600190565b60208082526019908201527f43414c4c45525f4e4f545f4f574e45525f415050524f56454400000000000000604082015260600190565b60208082526018908201527f524f4f545f414c52454144595f494e495449414c495a45440000000000000000604082015260600190565b6020808252600e908201526d14d1539117d59053125117d3919560921b604082015260600190565b6020808252600d908201526c544f4b454e49445f52414e474560981b604082015260600190565b60208082526017908201527f524f4f545f43414e4e4f545f42455f434f4e5452414354000000000000000000604082015260600190565b6020808252601f908201527f4552433131353552454345495645525f52454a45435445445f544f4b454e5300604082015260600190565b6020808252601e908201527f504152454e545f4e4f545f5245434f4d4d454e4445525f535542545245450000604082015260600190565b6020808252600d908201526c20a8282927ab20a62fa9a2a62360991b604082015260600190565b6020808252601d908201527f57495448445241575f414444525f4e4f545f494e495449414c495a4544000000604082015260600190565b6020808252601490820152731493d3d517d393d517d25392551250531256915160621b604082015260600190565b60208082526010908201526f14185d5cd8589b194e881c185d5cd95960821b604082015260600190565b60208082526011908201527014105491539517d21054d7d393d7d39195607a1b604082015260600190565b6020808252600c908201526b5a45524f5f4144445245535360a01b604082015260600190565b6020808252600f908201526e1513d2d15397d393d517d3d5d39151608a1b604082015260600190565b6020808252601290820152711510d7d514905394d1915497d1905253115160721b604082015260600190565b60208082526022908201527f504152454e545f414c52454144595f4f5054494d414c5f5245434f4d4d454e44604082015261115160f21b606082015260800190565b60208082526012908201527114149250d154d7d25392551250531256915160721b604082015260600190565b60208082526017908201527f424153455552495f4e4f545f494e495449414c495a4544000000000000000000604082015260600190565b6020808252600b908201526a4e4f44455f45584953545360a81b604082015260600190565b6020808252601190820152701513d2d15397d55394d5541413d4951151607a1b604082015260600190565b6020808252818101527f4f776e61626c653a2063616c6c6572206973206e6f7420746865206f776e6572604082015260600190565b6020808252601690820152751393d517d15393d551d217d156141254915117d3919560521b604082015260600190565b60208082526028908201527f455243313135353a206275726e20616d6f756e74206578636565647320746f74604082015267616c537570706c7960c01b606082015260800190565b602080825260159082015274149150d3d353515391115497d393d517d1561254d5605a1b604082015260600190565b6020808252600f908201526e494e434f52524543545f46554e445360881b604082015260600190565b60208082526017908201527f4e4f545f4f5054494d414c5f5245434f4d4d454e444552000000000000000000604082015260600190565b60208082526010908201526f14105491539517d393d517d1561254d560821b604082015260600190565b6020808252601590820152741513d2d15397d393d517d253925512505312569151605a1b604082015260600190565b60208082526016908201527514149250d154d7d393d517d25392551250531256915160521b604082015260600190565b602080825260139082015272105111149154d4d7d254d7d0d3d395149050d5606a1b604082015260600190565b6020808252600f908201526e1393d517d253541311535153951151608a1b604082015260600190565b6020808252602b908201527f7472616e736665725f746f5f6e6f6e2d4552433131353552656365697665725f60408201526a34b6b83632b6b2b73a32b960a91b606082015260800190565b6020808252600f908201526e4e4f44455f4e4f545f45584953545360881b604082015260600190565b90815260200190565b918252602082015260400190565b9182526001600160401b0316602082015260400190565b6001600160401b0391909116815260200190565b60ff91909116815260200190565b60ff92909216825266ffffffffffffff16602082015260400190565b60ff92831681529116602082015260400190565b60006001600160401b03821115615553576155536156c1565b5060209081020190565b60006001600160401b03821115615576576155766156c1565b50601f01601f191660200190565b60008219821115615597576155976156ab565b500190565b60006001600160401b038083168185168083038211156155be576155be6156ab565b01949350505050565b60008160001904831182151516156155e1576155e16156ab565b500290565b6000828210156155f8576155f86156ab565b500390565b60005b83811015615618578181015183820152602001615600565b83811115612cc75750506000910152565b60028104600182168061563d57607f821691505b6020821081141561565e57634e487b7160e01b600052602260045260246000fd5b50919050565b601f8201601f191681016001600160401b0381118282101715615689576156896156c1565b6040525050565b60006000198214156156a4576156a46156ab565b5060010190565b634e487b7160e01b600052601160045260246000fd5b634e487b7160e01b600052604160045260246000fd5b600060033d11156109f757600481823e5160e01c90565b600060443d10156156fe576109f7565b6040516003193d81016004833e81513d6001600160401b03816024840111818411171561572f5750505050506109f7565b8285019150815181811115615749575050505050506109f7565b843d8701016020828501011115615765575050505050506109f7565b61577460208286010187615664565b509094505050505090565b6001600160e01b03198116811461216357600080fdfea26469706673582212206fe6b79e6d900fc0bed38f2d03c34bf6099b07989b818b77f812f1723dac99f064736f6c63430008010033",
  "linkReferences": {},
  "deployedLinkReferences": {},
  "immutableReferences": {},
  "inputSourceName": "project/contracts/TCF_NFT.sol",
  "devdoc": {
    "kind": "dev",
    "methods": {
      "addSupportedToken(address)": {
        "details": "添加支持的代币地址列表（原生代币不需要传入地址）。构造函数中已经添加了原生代币TC。 如果项目只支持TC，则不需要调用这个函数。",
        "params": {
          "_tokenAddress": "代币合约地址"
        }
      },
      "balanceOfBatch(address[],uint256[])": {
        "details": "See {IERC1155-balanceOfBatch}.没有实现 Requirements: - `accounts` and `ids` must have the same length."
      },
      "changeNFTPrice(uint256,address,uint256)": {
        "details": "修改单个NFT价格",
        "params": {
          "amount": "新价格",
          "tokenAddress": "支付代币地址；原生代币传入address(0)",
          "tokenId": "NFT类型/ID（0-5）"
        }
      },
      "checkInitPricesParams((address,uint256)[2][6])": {
        "details": "初始化价格参数检查：长度、代币是否在支持列表内等。",
        "params": {
          "prices": "6种NFT的价格参数（每种NFT包含 supportedTokenAmount 个价格项）"
        },
        "returns": {
          "_0": "错误码/错误信息；成功时为空字符串"
        }
      },
      "exists(uint256)": {
        "details": "Indicates whether any token exist with a given id, or not."
      },
      "getNFTPrice(uint256,address)": {
        "details": "获取某个NFT在某种支付方式下的价格。",
        "params": {
          "_tokenAddress": "支付代币地址；原生代币传入address(0)",
          "tokenId": "NFT类型/ID（0-5）"
        },
        "returns": {
          "_0": "errorMessage 错误码/错误信息；成功时为空字符串",
          "_1": "price 价格；当errorMessage非空时为0"
        }
      },
      "getOptimalParent(address,address)": {
        "details": "从 recommender 出发：      1) 对当前节点比较左右子树价值（空子树视为 0），优先走价值更小的一侧（相等则优先 left）。      2) 若优先侧为空，说明当前节点在该侧有空位；若当前节点买过 NFT，则返回该节点作为父节点。      3) 若当前节点没有买过 NFT，则该节点不能作为父节点，需要继续查找；         若这条路径最终找不到可用父节点，则回退尝试另一侧（等价于排除上一条路径）。      4) 整个查找过程中会跳过 excludeNode（通常是当前要插入的节点），避免推荐自己。",
        "params": {
          "excludeNode": "在推荐父节点时排除掉这个节点（通常是当前要插入的节点），避免出现推荐自己作为父节点的情况",
          "recommender": "推荐人地址（必须已在树中）"
        },
        "returns": {
          "isLeftBranch": "推荐在 parent 下应选择的分支：true=left，false=right",
          "parent": "推荐得到的最终父节点地址"
        }
      },
      "initPrice((address,uint256)[2][6])": {
        "details": "初始化价格.TC代币的地址设为0",
        "params": {
          "prices": "6种NFT,每中NFT的三类价格"
        }
      },
      "initRoot(address)": {
        "params": {
          "rootAddress": "根节点地址"
        }
      },
      "insert(address,address,bool,bool)": {
        "details": "约束：  - parent 必须已存在。如果父节点已经接受过一次最优推荐了，就不能再接受推荐了，无法插入（防止某个节点什么也没做，也可以获取奖励，奖励获取方会死，查看白皮书文档）。 （可以将限制修改为：如果推荐人是父节点，那么这个限制将不起作用。现在不改，这是用户的要求。）  - recommender 必须已存在。  - 若 recommender 推荐该 node，则 parent 必须在 recommender 的子树内（含 recommender 本人）。",
        "params": {
          "isLeft": "true=插入为 parent.left；false=插入为 parent.right。  如果isLeft未true，优先放在父节点的左子树下，如果左子树下有节点，则放在右子树下；反之亦然。  我什么存在：因为如果使用推荐节点，推荐函数将返回一个父节点和isLeft参数，这样插入函数就可以直接使用。、",
          "isOptimalRecommended": "是否采用最优推荐",
          "parent": "父节点地址",
          "recommender": "推荐人地址（必须是当前树中的某个地址）"
        }
      },
      "isApprovedForAll(address,address)": {
        "details": "See {IERC1155-isApprovedForAll}."
      },
      "owner()": {
        "details": "Returns the address of the current owner."
      },
      "paused()": {
        "details": "Returns true if the contract is paused, and false otherwise."
      },
      "renounceOwnership()": {
        "details": "Leaves the contract without owner. It will not be possible to call `onlyOwner` functions. Can only be called by the current owner. NOTE: Renouncing ownership will leave the contract without an owner, thereby disabling any functionality that is only available to the owner."
      },
      "safeBatchTransferFrom(address,address,uint256[],uint256[],bytes)": {
        "details": "See {IERC1155-safeBatchTransferFrom}."
      },
      "setApprovalForAll(address,bool)": {
        "details": "See {IERC1155-setApprovalForAll}."
      },
      "setBaseURI(bytes[6])": {
        "details": "Sets `baseURI` as the `_baseURI` for all tokens Only callable by the owner.可以被设置多次"
      },
      "supportsInterface(bytes4)": {
        "details": "See {IERC165-supportsInterface}."
      },
      "totalSupply(uint256)": {
        "details": "Total amount of tokens in with a given id."
      },
      "totalTreeWorth()": {
        "details": "注意：树很大时可能消耗较多 gas（即使 view 调用也有计算开销）。"
      },
      "transferOwnership(address)": {
        "details": "Transfers ownership of the contract to a new account (`newOwner`). Can only be called by the current owner."
      }
    },
    "version": 1
  },
  "evm": {
    "gasEstimates": {
      "creation": {
        "codeDepositCost": "4495000",
        "executionCost": "131052",
        "totalCost": "4626052"
      },
      "external": {
        "ESafeTransferFrom(address,address,uint256,uint256[],bytes)": "infinite",
        "NFTPrice_initialized()": "1169",
        "_initializedURIStorage()": "1114",
        "addSupportedToken(address)": "infinite",
        "balanceOf(address,uint256)": "1547",
        "balanceOfBatch(address[],uint256[])": "infinite",
        "buyNFTByTC(uint256,uint256,uint256)": "infinite",
        "changeDynamicRatio(uint256,uint8)": "24894",
        "changeNFTPrice(uint256,address,uint256)": "infinite",
        "checkInitPricesParams((address,uint256)[2][6])": "infinite",
        "exists(uint256)": "1291",
        "getChildren(address)": "3218",
        "getNFTEquityDetails(uint256)": "2262",
        "getNFTPrice(uint256,address)": "infinite",
        "getNftMintTime(uint256,uint256)": "1469",
        "getNodeWorth(address)": "infinite",
        "getOptimalParent(address,address)": "infinite",
        "getParent(address)": "2287",
        "getRecommender(address)": "2316",
        "getUserTokenIds(address,uint256)": "infinite",
        "getWithdrawAddress()": "2975",
        "initPrice((address,uint256)[2][6])": "infinite",
        "initRoot(address)": "108369",
        "insert(address,address,bool,bool)": "infinite",
        "isApprovedForAll(address,address)": "infinite",
        "isExist(address)": "infinite",
        "isSupported(address)": "1496",
        "onTransferReceived(address,address,uint256,bytes)": "infinite",
        "owner()": "1115",
        "ownerOf(uint256,uint256)": "1403",
        "pause()": "infinite",
        "paused()": "1107",
        "renounceOwnership()": "infinite",
        "root()": "1136",
        "rootInitialized()": "1146",
        "safeBatchTransferFrom(address,address,uint256[],uint256[],bytes)": "infinite",
        "safeTransferFrom(address,address,uint256,uint256,bytes)": "infinite",
        "setApprovalForAll(address,bool)": "infinite",
        "setBaseURI(bytes[6])": "infinite",
        "setWithdrawAddress(address)": "45815",
        "subtreeWorth(address)": "infinite",
        "supportedTokenAmount()": "1162",
        "supportsInterface(bytes4)": "infinite",
        "tokenAddress_array(uint256)": "2128",
        "totalSupply(uint256)": "1326",
        "totalTreeWorth()": "infinite",
        "transferOwnership(address)": "23840",
        "unpause()": "infinite",
        "uri(uint256)": "infinite",
        "withdrawAddress_initialized()": "1152"
      },
      "internal": {
        "_beforeTokenTransfer(address,address,address,uint256[] memory,uint256[] memory,bytes memory)": "infinite",
        "_mint(address,uint256,uint256,bytes memory)": "infinite",
        "_safeTransferFrom(address,address,uint256,uint256[] memory,bytes memory)": "infinite"
      }
    }
  },
  "storageLayout": {
    "storage": [
      {
        "astId": 1670,
        "contract": "project/contracts/TCF_NFT.sol:TCF_NFT",
        "label": "_nextTokenId",
        "offset": 0,
        "slot": "0",
        "type": "t_array(t_uint256)6_storage"
      },
      {
        "astId": 1676,
        "contract": "project/contracts/TCF_NFT.sol:TCF_NFT",
        "label": "_owners",
        "offset": 0,
        "slot": "6",
        "type": "t_mapping(t_uint256,t_mapping(t_uint256,t_address))"
      },
      {
        "astId": 1682,
        "contract": "project/contracts/TCF_NFT.sol:TCF_NFT",
        "label": "_balances",
        "offset": 0,
        "slot": "7",
        "type": "t_mapping(t_uint256,t_mapping(t_address,t_uint256))"
      },
      {
        "astId": 1688,
        "contract": "project/contracts/TCF_NFT.sol:TCF_NFT",
        "label": "_operatorApprovals",
        "offset": 0,
        "slot": "8",
        "type": "t_mapping(t_address,t_mapping(t_address,t_bool))"
      },
      {
        "astId": 1504,
        "contract": "project/contracts/TCF_NFT.sol:TCF_NFT",
        "label": "_totalSupply",
        "offset": 0,
        "slot": "9",
        "type": "t_mapping(t_uint256,t_uint256)"
      },
      {
        "astId": 5196,
        "contract": "project/contracts/TCF_NFT.sol:TCF_NFT",
        "label": "_owner",
        "offset": 0,
        "slot": "10",
        "type": "t_address"
      },
      {
        "astId": 3126,
        "contract": "project/contracts/TCF_NFT.sol:TCF_NFT",
        "label": "_baseURI",
        "offset": 0,
        "slot": "11",
        "type": "t_array(t_string_storage)6_storage"
      },
      {
        "astId": 3128,
        "contract": "project/contracts/TCF_NFT.sol:TCF_NFT",
        "label": "_initializedURIStorage",
        "offset": 0,
        "slot": "17",
        "type": "t_uint8"
      },
      {
        "astId": 3134,
        "contract": "project/contracts/TCF_NFT.sol:TCF_NFT",
        "label": "_tokenURIs",
        "offset": 0,
        "slot": "18",
        "type": "t_mapping(t_uint256,t_mapping(t_uint256,t_string_storage))"
      },
      {
        "astId": 3216,
        "contract": "project/contracts/TCF_NFT.sol:TCF_NFT",
        "label": "supportTokenType",
        "offset": 0,
        "slot": "19",
        "type": "t_mapping(t_address,t_uint8)"
      },
      {
        "astId": 3218,
        "contract": "project/contracts/TCF_NFT.sol:TCF_NFT",
        "label": "supportedTokenAmount",
        "offset": 0,
        "slot": "20",
        "type": "t_uint256"
      },
      {
        "astId": 3221,
        "contract": "project/contracts/TCF_NFT.sol:TCF_NFT",
        "label": "tokenAddress_array",
        "offset": 0,
        "slot": "21",
        "type": "t_array(t_address)dyn_storage"
      },
      {
        "astId": 3223,
        "contract": "project/contracts/TCF_NFT.sol:TCF_NFT",
        "label": "initedTokenAddress",
        "offset": 0,
        "slot": "22",
        "type": "t_uint8"
      },
      {
        "astId": 3225,
        "contract": "project/contracts/TCF_NFT.sol:TCF_NFT",
        "label": "NFTPrice_initialized",
        "offset": 1,
        "slot": "22",
        "type": "t_uint8"
      },
      {
        "astId": 3244,
        "contract": "project/contracts/TCF_NFT.sol:TCF_NFT",
        "label": "NFTS",
        "offset": 0,
        "slot": "23",
        "type": "t_mapping(t_uint256,t_struct(equities_store)3239_storage)"
      },
      {
        "astId": 2535,
        "contract": "project/contracts/TCF_NFT.sol:TCF_NFT",
        "label": "_ownedTokenIds",
        "offset": 0,
        "slot": "24",
        "type": "t_mapping(t_address,t_mapping(t_uint256,t_array(t_uint256)dyn_storage))"
      },
      {
        "astId": 2541,
        "contract": "project/contracts/TCF_NFT.sol:TCF_NFT",
        "label": "_mintTimes",
        "offset": 0,
        "slot": "25",
        "type": "t_mapping(t_uint256,t_mapping(t_uint256,t_uint64))"
      },
      {
        "astId": 4174,
        "contract": "project/contracts/TCF_NFT.sol:TCF_NFT",
        "label": "root",
        "offset": 0,
        "slot": "26",
        "type": "t_address"
      },
      {
        "astId": 4176,
        "contract": "project/contracts/TCF_NFT.sol:TCF_NFT",
        "label": "rootInitialized",
        "offset": 20,
        "slot": "26",
        "type": "t_bool"
      },
      {
        "astId": 4181,
        "contract": "project/contracts/TCF_NFT.sol:TCF_NFT",
        "label": "_nodes",
        "offset": 0,
        "slot": "27",
        "type": "t_mapping(t_address,t_struct(Node)4171_storage)"
      },
      {
        "astId": 5337,
        "contract": "project/contracts/TCF_NFT.sol:TCF_NFT",
        "label": "_paused",
        "offset": 0,
        "slot": "28",
        "type": "t_bool"
      },
      {
        "astId": 27,
        "contract": "project/contracts/TCF_NFT.sol:TCF_NFT",
        "label": "withdrawAddress",
        "offset": 1,
        "slot": "28",
        "type": "t_address"
      },
      {
        "astId": 29,
        "contract": "project/contracts/TCF_NFT.sol:TCF_NFT",
        "label": "withdrawAddress_initialized",
        "offset": 21,
        "slot": "28",
        "type": "t_uint8"
      }
    ],
    "types": {
      "t_address": {
        "encoding": "inplace",
        "label": "address",
        "numberOfBytes": "20"
      },
      "t_array(t_address)dyn_storage": {
        "base": "t_address",
        "encoding": "dynamic_array",
        "label": "address[]",
        "numberOfBytes": "32"
      },
      "t_array(t_string_storage)6_storage": {
        "base": "t_string_storage",
        "encoding": "inplace",
        "label": "string[6]",
        "numberOfBytes": "192"
      },
      "t_array(t_uint256)6_storage": {
        "base": "t_uint256",
        "encoding": "inplace",
        "label": "uint256[6]",
        "numberOfBytes": "192"
      },
      "t_array(t_uint256)dyn_storage": {
        "base": "t_uint256",
        "encoding": "dynamic_array",
        "label": "uint256[]",
        "numberOfBytes": "32"
      },
      "t_bool": {
        "encoding": "inplace",
        "label": "bool",
        "numberOfBytes": "1"
      },
      "t_mapping(t_address,t_bool)": {
        "encoding": "mapping",
        "key": "t_address",
        "label": "mapping(address => bool)",
        "numberOfBytes": "32",
        "value": "t_bool"
      },
      "t_mapping(t_address,t_mapping(t_address,t_bool))": {
        "encoding": "mapping",
        "key": "t_address",
        "label": "mapping(address => mapping(address => bool))",
        "numberOfBytes": "32",
        "value": "t_mapping(t_address,t_bool)"
      },
      "t_mapping(t_address,t_mapping(t_uint256,t_array(t_uint256)dyn_storage))": {
        "encoding": "mapping",
        "key": "t_address",
        "label": "mapping(address => mapping(uint256 => uint256[]))",
        "numberOfBytes": "32",
        "value": "t_mapping(t_uint256,t_array(t_uint256)dyn_storage)"
      },
      "t_mapping(t_address,t_struct(Node)4171_storage)": {
        "encoding": "mapping",
        "key": "t_address",
        "label": "mapping(address => struct BinaryTree.Node)",
        "numberOfBytes": "32",
        "value": "t_struct(Node)4171_storage"
      },
      "t_mapping(t_address,t_uint256)": {
        "encoding": "mapping",
        "key": "t_address",
        "label": "mapping(address => uint256)",
        "numberOfBytes": "32",
        "value": "t_uint256"
      },
      "t_mapping(t_address,t_uint8)": {
        "encoding": "mapping",
        "key": "t_address",
        "label": "mapping(address => uint8)",
        "numberOfBytes": "32",
        "value": "t_uint8"
      },
      "t_mapping(t_uint256,t_address)": {
        "encoding": "mapping",
        "key": "t_uint256",
        "label": "mapping(uint256 => address)",
        "numberOfBytes": "32",
        "value": "t_address"
      },
      "t_mapping(t_uint256,t_array(t_uint256)dyn_storage)": {
        "encoding": "mapping",
        "key": "t_uint256",
        "label": "mapping(uint256 => uint256[])",
        "numberOfBytes": "32",
        "value": "t_array(t_uint256)dyn_storage"
      },
      "t_mapping(t_uint256,t_mapping(t_address,t_uint256))": {
        "encoding": "mapping",
        "key": "t_uint256",
        "label": "mapping(uint256 => mapping(address => uint256))",
        "numberOfBytes": "32",
        "value": "t_mapping(t_address,t_uint256)"
      },
      "t_mapping(t_uint256,t_mapping(t_uint256,t_address))": {
        "encoding": "mapping",
        "key": "t_uint256",
        "label": "mapping(uint256 => mapping(uint256 => address))",
        "numberOfBytes": "32",
        "value": "t_mapping(t_uint256,t_address)"
      },
      "t_mapping(t_uint256,t_mapping(t_uint256,t_string_storage))": {
        "encoding": "mapping",
        "key": "t_uint256",
        "label": "mapping(uint256 => mapping(uint256 => string))",
        "numberOfBytes": "32",
        "value": "t_mapping(t_uint256,t_string_storage)"
      },
      "t_mapping(t_uint256,t_mapping(t_uint256,t_uint64))": {
        "encoding": "mapping",
        "key": "t_uint256",
        "label": "mapping(uint256 => mapping(uint256 => uint64))",
        "numberOfBytes": "32",
        "value": "t_mapping(t_uint256,t_uint64)"
      },
      "t_mapping(t_uint256,t_string_storage)": {
        "encoding": "mapping",
        "key": "t_uint256",
        "label": "mapping(uint256 => string)",
        "numberOfBytes": "32",
        "value": "t_string_storage"
      },
      "t_mapping(t_uint256,t_struct(equities_store)3239_storage)": {
        "encoding": "mapping",
        "key": "t_uint256",
        "label": "mapping(uint256 => struct TCF_NFTPrice.equities_store)",
        "numberOfBytes": "32",
        "value": "t_struct(equities_store)3239_storage"
      },
      "t_mapping(t_uint256,t_uint256)": {
        "encoding": "mapping",
        "key": "t_uint256",
        "label": "mapping(uint256 => uint256)",
        "numberOfBytes": "32",
        "value": "t_uint256"
      },
      "t_mapping(t_uint256,t_uint64)": {
        "encoding": "mapping",
        "key": "t_uint256",
        "label": "mapping(uint256 => uint64)",
        "numberOfBytes": "32",
        "value": "t_uint64"
      },
      "t_string_storage": {
        "encoding": "bytes",
        "label": "string",
        "numberOfBytes": "32"
      },
      "t_struct(Node)4171_storage": {
        "encoding": "inplace",
        "label": "struct BinaryTree.Node",
        "members": [
          {
            "astId": 4160,
            "contract": "project/contracts/TCF_NFT.sol:TCF_NFT",
            "label": "parent",
            "offset": 0,
            "slot": "0",
            "type": "t_address"
          },
          {
            "astId": 4162,
            "contract": "project/contracts/TCF_NFT.sol:TCF_NFT",
            "label": "left",
            "offset": 0,
            "slot": "1",
            "type": "t_address"
          },
          {
            "astId": 4164,
            "contract": "project/contracts/TCF_NFT.sol:TCF_NFT",
            "label": "right",
            "offset": 0,
            "slot": "2",
            "type": "t_address"
          },
          {
            "astId": 4166,
            "contract": "project/contracts/TCF_NFT.sol:TCF_NFT",
            "label": "recommender",
            "offset": 0,
            "slot": "3",
            "type": "t_address"
          },
          {
            "astId": 4168,
            "contract": "project/contracts/TCF_NFT.sol:TCF_NFT",
            "label": "isOptimalRecommended",
            "offset": 20,
            "slot": "3",
            "type": "t_bool"
          },
          {
            "astId": 4170,
            "contract": "project/contracts/TCF_NFT.sol:TCF_NFT",
            "label": "exists",
            "offset": 21,
            "slot": "3",
            "type": "t_bool"
          }
        ],
        "numberOfBytes": "128"
      },
      "t_struct(equities_store)3239_storage": {
        "encoding": "inplace",
        "label": "struct TCF_NFTPrice.equities_store",
        "members": [
          {
            "astId": 3234,
            "contract": "project/contracts/TCF_NFT.sol:TCF_NFT",
            "label": "prices",
            "offset": 0,
            "slot": "0",
            "type": "t_mapping(t_address,t_uint256)"
          },
          {
            "astId": 3236,
            "contract": "project/contracts/TCF_NFT.sol:TCF_NFT",
            "label": "ratio",
            "offset": 0,
            "slot": "1",
            "type": "t_uint8"
          },
          {
            "astId": 3238,
            "contract": "project/contracts/TCF_NFT.sol:TCF_NFT",
            "label": "indate",
            "offset": 1,
            "slot": "1",
            "type": "t_uint56"
          }
        ],
        "numberOfBytes": "64"
      },
      "t_uint256": {
        "encoding": "inplace",
        "label": "uint256",
        "numberOfBytes": "32"
      },
      "t_uint56": {
        "encoding": "inplace",
        "label": "uint56",
        "numberOfBytes": "7"
      },
      "t_uint64": {
        "encoding": "inplace",
        "label": "uint64",
        "numberOfBytes": "8"
      },
      "t_uint8": {
        "encoding": "inplace",
        "label": "uint8",
        "numberOfBytes": "1"
      }
    }
  },
  "userdoc": {
    "kind": "user",
    "methods": {
      "getChildren(address)": {
        "notice": "查询某个节点的子节点地址（left, right）"
      },
      "getNodeWorth(address)": {
        "notice": "查询某个节点余额"
      },
      "getOptimalParent(address,address)": {
        "notice": "获取“推荐的父节点”（小区最小策略：优先走子树价值更小的一侧）"
      },
      "getParent(address)": {
        "notice": "查询某个节点的父节点地址"
      },
      "getRecommender(address)": {
        "notice": "查询某个节点的推荐人地址"
      },
      "initPrice((address,uint256)[2][6])": {
        "notice": "只能调用一次，调用前必须确保支持的代币地址已经初始化，不需要检查token地址是否初始化，因为在构造函数中，初始化了TC"
      },
      "initRoot(address)": {
        "notice": "初始化根节点（只能执行一次，且只能由合约部署者/owner 调用）"
      },
      "insert(address,address,bool,bool)": {
        "notice": "插入节点"
      },
      "isExist(address)": {
        "notice": "判断某个地址是否已在树中"
      },
      "root()": {
        "notice": "根节点地址（初始化后不可更改）"
      },
      "subtreeWorth(address)": {
        "notice": "返回某个节点子树（含该节点）余额总和，用于计算某个节点及其左右子树的有效NFT总价值"
      },
      "totalTreeWorth()": {
        "notice": "遍历整颗二叉树，返回所有节点余额总和"
      }
    },
    "version": 1
  },
  "argsData": "0x",
  "transaction": {
    "hash": "0x27e72cc43e0540344aef065eb353bb6e296bb5028021d2d4fa4e43f6ee85baf5",
    "nonce": "0x4",
    "origin": "0xf39fd6e51aad88f6f4ce6ab8827279cfffb92266"
  }
}