{
  "address": "0xdc64a140aa3e981100a9beca4e685f962f0cf6c9",
  "abi": [
    {
      "anonymous": false,
      "inputs": [
        {
          "indexed": true,
          "internalType": "address",
          "name": "account",
          "type": "address"
        },
        {
          "indexed": true,
          "internalType": "address",
          "name": "operator",
          "type": "address"
        },
        {
          "indexed": false,
          "internalType": "bool",
          "name": "approved",
          "type": "bool"
        }
      ],
      "name": "ApprovalForAll",
      "type": "event"
    },
    {
      "anonymous": false,
      "inputs": [
        {
          "indexed": true,
          "internalType": "uint256",
          "name": "tokenID",
          "type": "uint256"
        },
        {
          "indexed": false,
          "internalType": "uint8",
          "name": "previousRatio",
          "type": "uint8"
        },
        {
          "indexed": false,
          "internalType": "uint8",
          "name": "newRatio",
          "type": "uint8"
        }
      ],
      "name": "DynamicRatioChanged",
      "type": "event"
    },
    {
      "anonymous": false,
      "inputs": [
        {
          "indexed": true,
          "internalType": "uint256",
          "name": "tokenID",
          "type": "uint256"
        },
        {
          "indexed": true,
          "internalType": "address",
          "name": "paymentToken",
          "type": "address"
        },
        {
          "indexed": false,
          "internalType": "uint256",
          "name": "oldPrice",
          "type": "uint256"
        },
        {
          "indexed": false,
          "internalType": "uint256",
          "name": "newPrice",
          "type": "uint256"
        }
      ],
      "name": "NFTPriceChanged",
      "type": "event"
    },
    {
      "anonymous": false,
      "inputs": [
        {
          "indexed": true,
          "internalType": "address",
          "name": "buyer",
          "type": "address"
        },
        {
          "indexed": true,
          "internalType": "uint256",
          "name": "tokenId",
          "type": "uint256"
        },
        {
          "indexed": false,
          "internalType": "uint256",
          "name": "amount",
          "type": "uint256"
        },
        {
          "indexed": false,
          "internalType": "uint256",
          "name": "pricePerUnit",
          "type": "uint256"
        }
      ],
      "name": "NFTPurchasedWithTC",
      "type": "event"
    },
    {
      "anonymous": false,
      "inputs": [
        {
          "indexed": true,
          "internalType": "address",
          "name": "buyer",
          "type": "address"
        },
        {
          "indexed": true,
          "internalType": "address",
          "name": "paymentToken",
          "type": "address"
        },
        {
          "indexed": true,
          "internalType": "uint256",
          "name": "tokenId",
          "type": "uint256"
        },
        {
          "indexed": false,
          "internalType": "uint256",
          "name": "amount",
          "type": "uint256"
        },
        {
          "indexed": false,
          "internalType": "uint256",
          "name": "pricePerUnit",
          "type": "uint256"
        }
      ],
      "name": "NFTPurchasedWithToken",
      "type": "event"
    },
    {
      "anonymous": false,
      "inputs": [
        {
          "indexed": true,
          "internalType": "address",
          "name": "node",
          "type": "address"
        },
        {
          "indexed": true,
          "internalType": "address",
          "name": "parent",
          "type": "address"
        },
        {
          "indexed": true,
          "internalType": "address",
          "name": "recommender",
          "type": "address"
        },
        {
          "indexed": false,
          "internalType": "bool",
          "name": "isLeft",
          "type": "bool"
        }
      ],
      "name": "NodeInserted",
      "type": "event"
    },
    {
      "anonymous": false,
      "inputs": [
        {
          "indexed": true,
          "internalType": "address",
          "name": "previousOwner",
          "type": "address"
        },
        {
          "indexed": true,
          "internalType": "address",
          "name": "newOwner",
          "type": "address"
        }
      ],
      "name": "OwnershipTransferred",
      "type": "event"
    },
    {
      "anonymous": false,
      "inputs": [
        {
          "indexed": false,
          "internalType": "address",
          "name": "account",
          "type": "address"
        }
      ],
      "name": "Paused",
      "type": "event"
    },
    {
      "anonymous": false,
      "inputs": [
        {
          "indexed": true,
          "internalType": "address",
          "name": "root",
          "type": "address"
        }
      ],
      "name": "RootInitialized",
      "type": "event"
    },
    {
      "anonymous": false,
      "inputs": [
        {
          "indexed": true,
          "internalType": "address",
          "name": "to",
          "type": "address"
        },
        {
          "indexed": true,
          "internalType": "uint256",
          "name": "tokenId",
          "type": "uint256"
        },
        {
          "indexed": false,
          "internalType": "uint256",
          "name": "editionId",
          "type": "uint256"
        },
        {
          "indexed": false,
          "internalType": "uint64",
          "name": "mintedAt",
          "type": "uint64"
        }
      ],
      "name": "TokenEditionMinted",
      "type": "event"
    },
    {
      "anonymous": false,
      "inputs": [
        {
          "indexed": true,
          "internalType": "address",
          "name": "operator",
          "type": "address"
        },
        {
          "indexed": true,
          "internalType": "address",
          "name": "from",
          "type": "address"
        },
        {
          "indexed": true,
          "internalType": "address",
          "name": "to",
          "type": "address"
        },
        {
          "indexed": false,
          "internalType": "uint256[]",
          "name": "ids",
          "type": "uint256[]"
        },
        {
          "indexed": false,
          "internalType": "uint256[]",
          "name": "values",
          "type": "uint256[]"
        }
      ],
      "name": "TransferBatch",
      "type": "event"
    },
    {
      "anonymous": false,
      "inputs": [
        {
          "indexed": true,
          "internalType": "address",
          "name": "operator",
          "type": "address"
        },
        {
          "indexed": true,
          "internalType": "address",
          "name": "from",
          "type": "address"
        },
        {
          "indexed": true,
          "internalType": "address",
          "name": "to",
          "type": "address"
        },
        {
          "indexed": false,
          "internalType": "uint256",
          "name": "id",
          "type": "uint256"
        },
        {
          "indexed": false,
          "internalType": "uint256",
          "name": "value",
          "type": "uint256"
        }
      ],
      "name": "TransferSingle",
      "type": "event"
    },
    {
      "anonymous": false,
      "inputs": [
        {
          "indexed": false,
          "internalType": "string",
          "name": "value",
          "type": "string"
        },
        {
          "indexed": true,
          "internalType": "uint256",
          "name": "id",
          "type": "uint256"
        }
      ],
      "name": "URI",
      "type": "event"
    },
    {
      "anonymous": false,
      "inputs": [
        {
          "indexed": false,
          "internalType": "address",
          "name": "account",
          "type": "address"
        }
      ],
      "name": "Unpaused",
      "type": "event"
    },
    {
      "anonymous": false,
      "inputs": [
        {
          "indexed": true,
          "internalType": "address",
          "name": "operator",
          "type": "address"
        },
        {
          "indexed": true,
          "internalType": "address",
          "name": "previousAddress",
          "type": "address"
        },
        {
          "indexed": true,
          "internalType": "address",
          "name": "newAddress",
          "type": "address"
        }
      ],
      "name": "WithdrawAddressUpdated",
      "type": "event"
    },
    {
      "inputs": [
        {
          "internalType": "address",
          "name": "from",
          "type": "address"
        },
        {
          "internalType": "address",
          "name": "to",
          "type": "address"
        },
        {
          "internalType": "uint256",
          "name": "tokenId",
          "type": "uint256"
        },
        {
          "internalType": "uint256[]",
          "name": "indexes",
          "type": "uint256[]"
        },
        {
          "internalType": "bytes",
          "name": "data",
          "type": "bytes"
        }
      ],
      "name": "ESafeTransferFrom",
      "outputs": [],
      "stateMutability": "nonpayable",
      "type": "function"
    },
    {
      "inputs": [
        {
          "internalType": "uint256",
          "name": "tokenId",
          "type": "uint256"
        }
      ],
      "name": "Euri",
      "outputs": [
        {
          "internalType": "string",
          "name": "",
          "type": "string"
        }
      ],
      "stateMutability": "view",
      "type": "function"
    },
    {
      "inputs": [],
      "name": "NFTPrice_initialized",
      "outputs": [
        {
          "internalType": "uint8",
          "name": "",
          "type": "uint8"
        }
      ],
      "stateMutability": "view",
      "type": "function"
    },
    {
      "inputs": [],
      "name": "_initializedURIStorage",
      "outputs": [
        {
          "internalType": "uint8",
          "name": "",
          "type": "uint8"
        }
      ],
      "stateMutability": "view",
      "type": "function"
    },
    {
      "inputs": [
        {
          "internalType": "address",
          "name": "_tokenAddress",
          "type": "address"
        }
      ],
      "name": "addSupportedToken",
      "outputs": [],
      "stateMutability": "nonpayable",
      "type": "function"
    },
    {
      "inputs": [
        {
          "internalType": "address",
          "name": "account",
          "type": "address"
        },
        {
          "internalType": "uint256",
          "name": "tokenId",
          "type": "uint256"
        }
      ],
      "name": "balanceOf",
      "outputs": [
        {
          "internalType": "uint256",
          "name": "",
          "type": "uint256"
        }
      ],
      "stateMutability": "view",
      "type": "function"
    },
    {
      "inputs": [
        {
          "internalType": "address[]",
          "name": "",
          "type": "address[]"
        },
        {
          "internalType": "uint256[]",
          "name": "",
          "type": "uint256[]"
        }
      ],
      "name": "balanceOfBatch",
      "outputs": [
        {
          "internalType": "uint256[]",
          "name": "",
          "type": "uint256[]"
        }
      ],
      "stateMutability": "view",
      "type": "function"
    },
    {
      "inputs": [
        {
          "internalType": "uint256",
          "name": "tokenId",
          "type": "uint256"
        },
        {
          "internalType": "uint256",
          "name": "buyAmount",
          "type": "uint256"
        }
      ],
      "name": "buyNFTByTC",
      "outputs": [],
      "stateMutability": "payable",
      "type": "function"
    },
    {
      "inputs": [
        {
          "internalType": "uint256",
          "name": "tokenId",
          "type": "uint256"
        },
        {
          "internalType": "uint8",
          "name": "newRatio",
          "type": "uint8"
        }
      ],
      "name": "changeDynamicRatio",
      "outputs": [],
      "stateMutability": "nonpayable",
      "type": "function"
    },
    {
      "inputs": [
        {
          "internalType": "uint256",
          "name": "tokenId",
          "type": "uint256"
        },
        {
          "internalType": "address",
          "name": "tokenAddress",
          "type": "address"
        },
        {
          "internalType": "uint256",
          "name": "amount",
          "type": "uint256"
        }
      ],
      "name": "changeNFTPrice",
      "outputs": [],
      "stateMutability": "nonpayable",
      "type": "function"
    },
    {
      "inputs": [
        {
          "components": [
            {
              "internalType": "address",
              "name": "tokenAddress",
              "type": "address"
            },
            {
              "internalType": "uint256",
              "name": "amount",
              "type": "uint256"
            }
          ],
          "internalType": "struct TCF_NFTPrice.priceTypeAndAomut[2][6]",
          "name": "prices",
          "type": "tuple[2][6]"
        }
      ],
      "name": "checkInitPricesParams",
      "outputs": [
        {
          "internalType": "string",
          "name": "",
          "type": "string"
        }
      ],
      "stateMutability": "view",
      "type": "function"
    },
    {
      "inputs": [
        {
          "internalType": "address",
          "name": "node",
          "type": "address"
        }
      ],
      "name": "getChildren",
      "outputs": [
        {
          "internalType": "address",
          "name": "left",
          "type": "address"
        },
        {
          "internalType": "address",
          "name": "right",
          "type": "address"
        }
      ],
      "stateMutability": "view",
      "type": "function"
    },
    {
      "inputs": [
        {
          "internalType": "uint256",
          "name": "tokenId",
          "type": "uint256"
        }
      ],
      "name": "getNFTEquityDetails",
      "outputs": [
        {
          "internalType": "uint8",
          "name": "ratio",
          "type": "uint8"
        },
        {
          "internalType": "uint56",
          "name": "indate",
          "type": "uint56"
        }
      ],
      "stateMutability": "view",
      "type": "function"
    },
    {
      "inputs": [
        {
          "internalType": "uint256",
          "name": "tokenId",
          "type": "uint256"
        },
        {
          "internalType": "address",
          "name": "_tokenAddress",
          "type": "address"
        }
      ],
      "name": "getNFTPrice",
      "outputs": [
        {
          "internalType": "string",
          "name": "",
          "type": "string"
        },
        {
          "internalType": "uint256",
          "name": "",
          "type": "uint256"
        }
      ],
      "stateMutability": "view",
      "type": "function"
    },
    {
      "inputs": [
        {
          "internalType": "uint256",
          "name": "tokenId",
          "type": "uint256"
        },
        {
          "internalType": "uint256",
          "name": "editionId",
          "type": "uint256"
        }
      ],
      "name": "getNftMintTime",
      "outputs": [
        {
          "internalType": "uint64",
          "name": "",
          "type": "uint64"
        }
      ],
      "stateMutability": "view",
      "type": "function"
    },
    {
      "inputs": [
        {
          "internalType": "address",
          "name": "node",
          "type": "address"
        }
      ],
      "name": "getNodeWorth",
      "outputs": [
        {
          "internalType": "uint256",
          "name": "",
          "type": "uint256"
        }
      ],
      "stateMutability": "view",
      "type": "function"
    },
    {
      "inputs": [
        {
          "internalType": "address",
          "name": "recommender",
          "type": "address"
        },
        {
          "internalType": "address",
          "name": "excludeNode",
          "type": "address"
        }
      ],
      "name": "getOptimalParent",
      "outputs": [
        {
          "internalType": "address",
          "name": "parent",
          "type": "address"
        },
        {
          "internalType": "bool",
          "name": "isLeftBranch",
          "type": "bool"
        }
      ],
      "stateMutability": "view",
      "type": "function"
    },
    {
      "inputs": [
        {
          "internalType": "address",
          "name": "node",
          "type": "address"
        }
      ],
      "name": "getParent",
      "outputs": [
        {
          "internalType": "address",
          "name": "",
          "type": "address"
        }
      ],
      "stateMutability": "view",
      "type": "function"
    },
    {
      "inputs": [
        {
          "internalType": "address",
          "name": "node",
          "type": "address"
        }
      ],
      "name": "getRecommender",
      "outputs": [
        {
          "internalType": "address",
          "name": "",
          "type": "address"
        }
      ],
      "stateMutability": "view",
      "type": "function"
    },
    {
      "inputs": [
        {
          "internalType": "address",
          "name": "account",
          "type": "address"
        },
        {
          "internalType": "uint256",
          "name": "tokenId",
          "type": "uint256"
        }
      ],
      "name": "getUserTokenIds",
      "outputs": [
        {
          "internalType": "uint256[]",
          "name": "",
          "type": "uint256[]"
        }
      ],
      "stateMutability": "view",
      "type": "function"
    },
    {
      "inputs": [],
      "name": "getWithdrawAddress",
      "outputs": [
        {
          "internalType": "address",
          "name": "",
          "type": "address"
        }
      ],
      "stateMutability": "view",
      "type": "function"
    },
    {
      "inputs": [
        {
          "components": [
            {
              "internalType": "address",
              "name": "tokenAddress",
              "type": "address"
            },
            {
              "internalType": "uint256",
              "name": "amount",
              "type": "uint256"
            }
          ],
          "internalType": "struct TCF_NFTPrice.priceTypeAndAomut[2][6]",
          "name": "prices",
          "type": "tuple[2][6]"
        }
      ],
      "name": "initPrice",
      "outputs": [],
      "stateMutability": "nonpayable",
      "type": "function"
    },
    {
      "inputs": [
        {
          "internalType": "address",
          "name": "rootAddress",
          "type": "address"
        }
      ],
      "name": "initRoot",
      "outputs": [],
      "stateMutability": "nonpayable",
      "type": "function"
    },
    {
      "inputs": [
        {
          "internalType": "address",
          "name": "parent",
          "type": "address"
        },
        {
          "internalType": "address",
          "name": "recommender",
          "type": "address"
        },
        {
          "internalType": "bool",
          "name": "isLeft",
          "type": "bool"
        }
      ],
      "name": "insert",
      "outputs": [],
      "stateMutability": "nonpayable",
      "type": "function"
    },
    {
      "inputs": [
        {
          "internalType": "address",
          "name": "account",
          "type": "address"
        },
        {
          "internalType": "address",
          "name": "operator",
          "type": "address"
        }
      ],
      "name": "isApprovedForAll",
      "outputs": [
        {
          "internalType": "bool",
          "name": "",
          "type": "bool"
        }
      ],
      "stateMutability": "view",
      "type": "function"
    },
    {
      "inputs": [
        {
          "internalType": "address",
          "name": "node",
          "type": "address"
        }
      ],
      "name": "isExist",
      "outputs": [
        {
          "internalType": "bool",
          "name": "",
          "type": "bool"
        }
      ],
      "stateMutability": "view",
      "type": "function"
    },
    {
      "inputs": [
        {
          "internalType": "address",
          "name": "token",
          "type": "address"
        }
      ],
      "name": "isSupported",
      "outputs": [
        {
          "internalType": "uint8",
          "name": "",
          "type": "uint8"
        }
      ],
      "stateMutability": "view",
      "type": "function"
    },
    {
      "inputs": [
        {
          "internalType": "address",
          "name": "",
          "type": "address"
        },
        {
          "internalType": "address",
          "name": "from",
          "type": "address"
        },
        {
          "internalType": "uint256",
          "name": "amount",
          "type": "uint256"
        },
        {
          "internalType": "bytes",
          "name": "data",
          "type": "bytes"
        }
      ],
      "name": "onTransferReceived",
      "outputs": [
        {
          "internalType": "bytes4",
          "name": "",
          "type": "bytes4"
        }
      ],
      "stateMutability": "nonpayable",
      "type": "function"
    },
    {
      "inputs": [],
      "name": "owner",
      "outputs": [
        {
          "internalType": "address",
          "name": "",
          "type": "address"
        }
      ],
      "stateMutability": "view",
      "type": "function"
    },
    {
      "inputs": [
        {
          "internalType": "uint256",
          "name": "tokenId",
          "type": "uint256"
        },
        {
          "internalType": "uint256",
          "name": "editionId",
          "type": "uint256"
        }
      ],
      "name": "ownerOf",
      "outputs": [
        {
          "internalType": "address",
          "name": "",
          "type": "address"
        }
      ],
      "stateMutability": "view",
      "type": "function"
    },
    {
      "inputs": [],
      "name": "pause",
      "outputs": [],
      "stateMutability": "nonpayable",
      "type": "function"
    },
    {
      "inputs": [],
      "name": "paused",
      "outputs": [
        {
          "internalType": "bool",
          "name": "",
          "type": "bool"
        }
      ],
      "stateMutability": "view",
      "type": "function"
    },
    {
      "inputs": [],
      "name": "renounceOwnership",
      "outputs": [],
      "stateMutability": "nonpayable",
      "type": "function"
    },
    {
      "inputs": [],
      "name": "root",
      "outputs": [
        {
          "internalType": "address",
          "name": "",
          "type": "address"
        }
      ],
      "stateMutability": "view",
      "type": "function"
    },
    {
      "inputs": [],
      "name": "rootInitialized",
      "outputs": [
        {
          "internalType": "bool",
          "name": "",
          "type": "bool"
        }
      ],
      "stateMutability": "view",
      "type": "function"
    },
    {
      "inputs": [
        {
          "internalType": "address",
          "name": "",
          "type": "address"
        },
        {
          "internalType": "address",
          "name": "",
          "type": "address"
        },
        {
          "internalType": "uint256[]",
          "name": "",
          "type": "uint256[]"
        },
        {
          "internalType": "uint256[]",
          "name": "",
          "type": "uint256[]"
        },
        {
          "internalType": "bytes",
          "name": "",
          "type": "bytes"
        }
      ],
      "name": "safeBatchTransferFrom",
      "outputs": [],
      "stateMutability": "nonpayable",
      "type": "function"
    },
    {
      "inputs": [
        {
          "internalType": "address",
          "name": "",
          "type": "address"
        },
        {
          "internalType": "address",
          "name": "",
          "type": "address"
        },
        {
          "internalType": "uint256",
          "name": "",
          "type": "uint256"
        },
        {
          "internalType": "uint256",
          "name": "",
          "type": "uint256"
        },
        {
          "internalType": "bytes",
          "name": "",
          "type": "bytes"
        }
      ],
      "name": "safeTransferFrom",
      "outputs": [],
      "stateMutability": "nonpayable",
      "type": "function"
    },
    {
      "inputs": [
        {
          "internalType": "address",
          "name": "operator",
          "type": "address"
        },
        {
          "internalType": "bool",
          "name": "approved",
          "type": "bool"
        }
      ],
      "name": "setApprovalForAll",
      "outputs": [],
      "stateMutability": "nonpayable",
      "type": "function"
    },
    {
      "inputs": [
        {
          "internalType": "bytes[6]",
          "name": "baseURI",
          "type": "bytes[6]"
        }
      ],
      "name": "setBaseURI",
      "outputs": [],
      "stateMutability": "nonpayable",
      "type": "function"
    },
    {
      "inputs": [
        {
          "internalType": "address",
          "name": "addr",
          "type": "address"
        }
      ],
      "name": "setWithdrawAddress",
      "outputs": [],
      "stateMutability": "nonpayable",
      "type": "function"
    },
    {
      "inputs": [
        {
          "internalType": "address",
          "name": "node",
          "type": "address"
        }
      ],
      "name": "subtreeWorth",
      "outputs": [
        {
          "internalType": "uint256",
          "name": "",
          "type": "uint256"
        }
      ],
      "stateMutability": "view",
      "type": "function"
    },
    {
      "inputs": [],
      "name": "supportedTokenAmount",
      "outputs": [
        {
          "internalType": "uint256",
          "name": "",
          "type": "uint256"
        }
      ],
      "stateMutability": "view",
      "type": "function"
    },
    {
      "inputs": [
        {
          "internalType": "bytes4",
          "name": "interfaceId",
          "type": "bytes4"
        }
      ],
      "name": "supportsInterface",
      "outputs": [
        {
          "internalType": "bool",
          "name": "",
          "type": "bool"
        }
      ],
      "stateMutability": "view",
      "type": "function"
    },
    {
      "inputs": [
        {
          "internalType": "uint256",
          "name": "",
          "type": "uint256"
        }
      ],
      "name": "tokenAddress_array",
      "outputs": [
        {
          "internalType": "address",
          "name": "",
          "type": "address"
        }
      ],
      "stateMutability": "view",
      "type": "function"
    },
    {
      "inputs": [],
      "name": "totalTreeWorth",
      "outputs": [
        {
          "internalType": "uint256",
          "name": "",
          "type": "uint256"
        }
      ],
      "stateMutability": "view",
      "type": "function"
    },
    {
      "inputs": [
        {
          "internalType": "address",
          "name": "newOwner",
          "type": "address"
        }
      ],
      "name": "transferOwnership",
      "outputs": [],
      "stateMutability": "nonpayable",
      "type": "function"
    },
    {
      "inputs": [],
      "name": "unpause",
      "outputs": [],
      "stateMutability": "nonpayable",
      "type": "function"
    },
    {
      "inputs": [
        {
          "internalType": "uint256",
          "name": "",
          "type": "uint256"
        }
      ],
      "name": "uri",
      "outputs": [
        {
          "internalType": "string",
          "name": "",
          "type": "string"
        }
      ],
      "stateMutability": "view",
      "type": "function"
    },
    {
      "inputs": [],
      "name": "withdrawAddress_initialized",
      "outputs": [
        {
          "internalType": "uint8",
          "name": "",
          "type": "uint8"
        }
      ],
      "stateMutability": "view",
      "type": "function"
    }
  ],
  "contractName": "TCF_NFT",
  "sourceName": "contracts/TCF_NFT.sol",
  "bytecode": "0x60806040523480156200001157600080fd5b506200002662000020620000b1565b620000b5565b60126020527f71a67924699a20698523213e55fe499d539379d7769cd5567e2c45d583f815a38054600160ff1991821681179092556014805480840182556000919091527fce6d7b5282bd9a3661ae061feed1dbda4e52ab073b1f9285be6e155d9c38d4ec0180546001600160a01b03191683179055601391909155601b8054909116905562000107565b3390565b600980546001600160a01b038381166001600160a01b0319831681179093556040519116919082907f8be0079c531659141344cd1fd0a4f28419497f9722a3daafe3b4186f6b6457e090600090a35050565b614fb480620001176000396000f3fe6080604052600436106102ac5760003560e01c80636d69fcaf11610175578063a0b77afa116100dc578063d3ab744311610095578063e985e9c51161006f578063e985e9c51461086b578063ebf0c7171461088b578063f242432a146108a0578063f2fde38b146108c0576102ac565b8063d3ab744314610816578063d9dad80d14610836578063e8e7f80014610856576102ac565b8063a0b77afa1461073b578063a22cb46514610768578063a940592314610788578063b24661ac146107a8578063b788920e146107c8578063ba322b3f146107e8576102ac565b806386ff91131161012e57806386ff91131461067657806388a7ca5c146106a45780638da5cb5b146106d157806392aeff48146106e65780639da879b4146107065780639e29efce1461071b576102ac565b80636d69fcaf146105e45780636e30263214610604578063715018a6146106175780637a915fde1461062c57806383023c88146106415780638456cb5914610661576102ac565b80632fedbf3c116102195780634f129c53116101d25780634f129c531461052c578063558263131461054c578063598c27bc1461056c5780635c975abb1461058c578063651583ee146105a15780636999fa45146105b6576102ac565b80632fedbf3c1461046857806337823179146104885780633ab1a494146104a85780633f4ba83a146104c85780634c8cb672146104dd5780634e1273f4146104ff576102ac565b80630e89341c1161026b5780630e89341c146103a4578063153154fd146103c457806319d62e57146103f15780631c49f47b1461041157806323361283146104315780632eb2c2d614610446576102ac565b806213eb4b146102b1578062fdd58e146102e757806301ffc9a7146103145780630572a9951461033457806306198b98146103495780630775969614610377575b600080fd5b3480156102bd57600080fd5b506102d16102cc366004613dda565b6108e0565b6040516102de9190614580565b60405180910390f35b3480156102f357600080fd5b506103076103023660046140b9565b61093e565b6040516102de9190614ca3565b34801561032057600080fd5b506102d161032f366004614251565b610953565b34801561034057600080fd5b50610307610978565b34801561035557600080fd5b50610369610364366004614344565b6109bf565b6040516102de929190614cf3565b34801561038357600080fd5b506103976103923660046141aa565b610a3a565b6040516102de91906145a0565b3480156103b057600080fd5b506103976103bf366004614344565b610d09565b3480156103d057600080fd5b506103e46103df366004613dda565b610d23565b6040516102de91906144ae565b3480156103fd57600080fd5b506103e461040c366004614344565b610d87565b34801561041d57600080fd5b5061030761042c366004613dda565b610db1565b34801561043d57600080fd5b50610307610e28565b34801561045257600080fd5b50610466610461366004613e26565b610e2e565b005b34801561047457600080fd5b506104666104833660046141d3565b610e46565b34801561049457600080fd5b506104666104a3366004613ecb565b610ed8565b3480156104b457600080fd5b506104666104c3366004613dda565b611225565b3480156104d457600080fd5b50610466611308565b3480156104e957600080fd5b506104f261131a565b6040516102de9190614ce5565b34801561050b57600080fd5b5061051f61051a3660046140e2565b611328565b6040516102de919061453c565b34801561053857600080fd5b506104f2610547366004613dda565b611342565b34801561055857600080fd5b5061046661056736600461437e565b611376565b34801561057857600080fd5b50610466610587366004613f0d565b61142e565b34801561059857600080fd5b506102d161144c565b3480156105ad57600080fd5b506102d1611455565b3480156105c257600080fd5b506105d66105d1366004613dda565b611465565b6040516102de9291906144c2565b3480156105f057600080fd5b506104666105ff366004613dda565b6114d8565b6104666106123660046143b2565b6115c1565b34801561062357600080fd5b506104666117fa565b34801561063857600080fd5b506104f261180c565b34801561064d57600080fd5b5061046661065c3660046143f6565b611815565b34801561066d57600080fd5b506104666118ce565b34801561068257600080fd5b5061069661069136600461435c565b6118de565b6040516102de9291906145b3565b3480156106b057600080fd5b506106c46106bf366004613fc9565b61198b565b6040516102de919061458b565b3480156106dd57600080fd5b506103e4611bb5565b3480156106f257600080fd5b50610466610701366004613dda565b611bc4565b34801561071257600080fd5b506104f2611cd8565b34801561072757600080fd5b50610307610736366004613dda565b611ce8565b34801561074757600080fd5b5061075b6107563660046143b2565b611d33565b6040516102de9190614cd1565b34801561077457600080fd5b50610466610783366004614090565b611d7c565b34801561079457600080fd5b506103e46107a3366004613dda565b611d92565b3480156107b457600080fd5b506104666107c33660046141aa565b611df3565b3480156107d457600080fd5b5061051f6107e33660046140b9565b6120eb565b3480156107f457600080fd5b50610808610803366004613df4565b6121a6565b6040516102de929190614521565b34801561082257600080fd5b50610397610831366004614344565b612254565b34801561084257600080fd5b506103e46108513660046143b2565b61234e565b34801561086257600080fd5b506103e4612397565b34801561087757600080fd5b506102d1610886366004613df4565b6123e2565b34801561089757600080fd5b506103e4612410565b3480156108ac57600080fd5b506104666108bb36600461402e565b61241f565b3480156108cc57600080fd5b506104666108db366004613dda565b612437565b60006001600160a01b0382166109115760405162461bcd60e51b815260040161090890614944565b60405180910390fd5b506001600160a01b0381166000908152601a6020526040902060030154600160a01b900460ff165b919050565b600061094a8383612471565b90505b92915050565b60006001600160e01b03198216632229f29760e21b148061094d575061094d826124e1565b601954600090600160a01b900460ff166109a45760405162461bcd60e51b8152600401610908906148c1565b6019546109b9906001600160a01b0316612521565b90505b90565b601554600090819060ff610100909104166001146109ef5760405162461bcd60e51b815260040161090890614b87565b60068310610a0f5760405162461bcd60e51b815260040161090890614797565b505060009081526016602052604090206001015460ff81169161010090910466ffffffffffffff1690565b606060005b6006811015610cf357601354838260068110610a6b57634e487b7160e01b600052603260045260246000fd5b5050600214610a9c57505060408051808201909152600a815269282924a1a2a9afa622a760b11b6020820152610939565b6000806000858460068110610ac157634e487b7160e01b600052603260045260246000fd5b60408051808201909152916080919091020160026000835b82821015610b0557610af660408302850136819003810190614306565b81526020019060010190610ad9565b50505050905060005b601354811015610c65576000828260028110610b3a57634e487b7160e01b600052603260045260246000fd5b60200201515190506001600160a01b038116610b595760019450610b5e565b600193505b6000838360028110610b8057634e487b7160e01b600052603260045260246000fd5b6020020151516001600160a01b031614801590610be7575060126000848460028110610bbc57634e487b7160e01b600052603260045260246000fd5b60209081029190910151516001600160a01b031682528101919091526040016000205460ff16600114155b15610c5457610c47838360028110610c0f57634e487b7160e01b600052603260045260246000fd5b602002015160000151604051806040016040528060118152602001701513d2d15397d55394d5541413d4951151607a1b8152506125c0565b9650505050505050610939565b50610c5e81614e79565b9050610b0e565b5082610ca257604051806040016040528060138152602001721510d7d4149250d157d35554d517d1561254d5606a1b815250945050505050610939565b81610cdf57604051806040016040528060148152602001731110d197d4149250d157d35554d517d1561254d560621b815250945050505050610939565b50505080610cec90614e79565b9050610a3f565b5050604080516020810190915260008152919050565b606060405162461bcd60e51b815260040161090890614bb7565b6001600160a01b0381166000908152601a6020526040812060030154600160a01b900460ff16610d655760405162461bcd60e51b815260040161090890614c7a565b506001600160a01b039081166000908152601a60205260409020600301541690565b60148181548110610d9757600080fd5b6000918252602090912001546001600160a01b0316905081565b601954600090600160a01b900460ff16610ddd5760405162461bcd60e51b8152600401610908906148c1565b6001600160a01b0382166000908152601a6020526040902060030154600160a01b900460ff16610e1f5760405162461bcd60e51b815260040161090890614c7a565b61094d82612521565b60135481565b60405162461bcd60e51b815260040161090890614c06565b610e4e6125f4565b60005b6006811015610ec757818160068110610e7a57634e487b7160e01b600052603260045260246000fd5b6020020151600a8260068110610ea057634e487b7160e01b600052603260045260246000fd5b019080519060200190610eb4929190613c51565b5080610ebf81614e79565b915050610e51565b50506010805460ff19166001179055565b601954600160a01b900460ff16610f015760405162461bcd60e51b8152600401610908906148c1565b6001600160a01b03831615801590610f2157506001600160a01b03821615155b610f3d5760405162461bcd60e51b815260040161090890614944565b336000818152601a6020526040902060030154600160a01b900460ff1615610f775760405162461bcd60e51b815260040161090890614a22565b6001600160a01b0384166000908152601a6020526040902060030154600160a01b900460ff16610fb95760405162461bcd60e51b815260040161090890614aff565b6001600160a01b0383166000908152601a6020526040902060030154600160a01b900460ff16610ffb5760405162461bcd60e51b815260040161090890614aa7565b60005b6006811015611055576000611013868361093e565b905080156110215750611055565b81600514156110425760405162461bcd60e51b815260040161090890614919565b508061104d81614e79565b915050610ffe565b506110608385612633565b61107c5760405162461bcd60e51b81526004016109089061482c565b6001600160a01b038085166000908152601a60205260409020600181015490911615806110b4575060028101546001600160a01b0316155b6110d05760405162461bcd60e51b8152600401610908906146ca565b821561112d5760018101546001600160a01b031661110a576001810180546001600160a01b0319166001600160a01b038416179055611128565b6002810180546001600160a01b0319166001600160a01b0384161790555b61117f565b60028101546001600160a01b0316611161576002810180546001600160a01b0319166001600160a01b03841617905561117f565b6001810180546001600160a01b0319166001600160a01b0384161790555b6001600160a01b038083166000818152601a60205260409081902060038101805482548b87166001600160a01b0319918216811785556001850180548316905560028501805483169055968b1660ff60a01b19909216600160a01b17168117909155915190939192907fb7de7526072e4403cbc0296462672a10ed96d94c4169dc8b84b07515e949013d90611215908990614580565b60405180910390a4505050505050565b61122d6125f4565b6001600160a01b0381166112535760405162461bcd60e51b815260040161090890614944565b6001600160a01b0381163b1561127b5760405162461bcd60e51b815260040161090890614bd9565b601b80546001600160a01b03838116610100908102610100600160a81b031984161793849055909104169060ff600160a81b909104166112c957601b805460ff60a81b1916600160a81b1790555b6040516001600160a01b03808416919083169033907facf3042cca6ca3830bf91869d4343cead97657cc9e8973fdbd665b55c3e1f49890600090a45050565b6113106125f4565b611318612694565b565b601554610100900460ff1681565b606060405162461bcd60e51b815260040161090890614c06565b60006001600160a01b03821661135757600191505b506001600160a01b031660009081526012602052604090205460ff1690565b61137e6125f4565b600061138a84846126e6565b905080516000146113af578060405162461bcd60e51b815260040161090891906145a0565b6001600160a01b0383166113c257600192505b60008481526016602090815260408083206001600160a01b038716808552925291829020805490859055915186907f8747a56dd6a09ab1378db3a842a4724d75642265b104e31a28fa736ce71912b39061141f9085908890614cac565b60405180910390a35050505050565b6114366127e8565b61144486868686868661280d565b505050505050565b601b5460ff1690565b601954600160a01b900460ff1681565b6001600160a01b0381166000908152601a60205260408120600301548190600160a01b900460ff166114a95760405162461bcd60e51b815260040161090890614c7a565b50506001600160a01b039081166000908152601a60205260409020600181015460029091015490821692911690565b6114e06125f4565b60155460ff16156115035760405162461bcd60e51b815260040161090890614659565b600061150e82612865565b90508051600014611533578060405162461bcd60e51b815260040161090891906145a0565b6001600160a01b0382166000818152601260205260408120805460ff191660019081179091556014805480830182559083527fce6d7b5282bd9a3661ae061feed1dbda4e52ab073b1f9285be6e155d9c38d4ec0180546001600160a01b031916909317909255601380549091906115ab908490614d6d565b90915550506015805460ff191660011790555050565b6115c96127e8565b601b54600160a81b900460ff166001146115f55760405162461bcd60e51b81526004016109089061488a565b601954600160a01b900460ff1661161e5760405162461bcd60e51b8152600401610908906148c1565b60155460ff610100909104166001146116495760405162461bcd60e51b815260040161090890614b87565b60105460ff1660011461166e5760405162461bcd60e51b8152600401610908906149eb565b6116796102cc612a4a565b6116955760405162461bcd60e51b815260040161090890614c7a565b6000806116a38460006118de565b91509150815160001482906116cb5760405162461bcd60e51b815260040161090891906145a0565b506116d68382614db0565b341480156116e45750600083115b6117005760405162461bcd60e51b815260040161090890614ad6565b61172261170b612a4a565b858560405180602001604052806000815250612a4e565b8361172b612a4a565b6001600160a01b03167f5fce8741d2fa2920f00e6fda1be1ede8d7a2d1379bc099f79aa3b438a86de2978584604051611765929190614cac565b60405180910390a3601b5460405160009161010090046001600160a01b0316903490611790906109bc565b60006040518083038185875af1925050503d80600081146117cd576040519150601f19603f3d011682016040523d82523d6000602084013e6117d2565b606091505b50509050806117f35760405162461bcd60e51b815260040161090890614993565b5050505050565b6118026125f4565b6113186000612a60565b60105460ff1681565b61181d6125f4565b60155460ff610100909104166001146118485760405162461bcd60e51b815260040161090890614b87565b600682106118685760405162461bcd60e51b815260040161090890614797565b60008281526016602052604090819020600101805460ff84811660ff19831617909255915191169083907f902e8f79c4772541ba59982b7a572dfdb4a0c003843ec5cfafc7279665288954906118c19084908690614d0f565b60405180910390a2505050565b6118d66125f4565b611318612ab2565b60606000806118ed85856126e6565b9050805160001461190357915060009050611984565b6001600160a01b03841661191657600193505b60008581526016602090815260408083206001600160a01b03881684529091529020548061196f57505060408051808201909152600d81526c14149250d157d393d517d4d155609a1b6020820152915060009050611984565b60408051602081019091526000815293509150505b9250929050565b60006119956127e8565b601b54600160a81b900460ff166001146119c15760405162461bcd60e51b81526004016109089061488a565b601954600160a01b900460ff166119ea5760405162461bcd60e51b8152600401610908906148c1565b60155460ff61010090910416600114611a155760405162461bcd60e51b815260040161090890614b87565b60105460ff16600114611a3a5760405162461bcd60e51b8152600401610908906149eb565b611a43846108e0565b611a5f5760405162461bcd60e51b815260040161090890614c7a565b3360008181526012602052604090205460ff16600114611a915760405162461bcd60e51b815260040161090890614a47565b60008084806020019051810190611aa891906143d3565b9150915060068210611acc5760405162461bcd60e51b815260040161090890614797565b600080611ad984866118de565b9150915081516000148290611b015760405162461bcd60e51b815260040161090891906145a0565b50611b0c8382614db0565b88148015611b1a5750600083115b611b365760405162461bcd60e51b815260040161090890614ad6565b611b5189858560405180602001604052806000815250612a4e565b83856001600160a01b03168a6001600160a01b03167fc32800b3f198f1d50532ecd2e22d4fea8d5e5e9236fb2d2796a6710f9c14f1548685604051611b97929190614cac565b60405180910390a450632229f29760e21b9998505050505050505050565b6009546001600160a01b031690565b611bcc6125f4565b601954600160a01b900460ff1615611bf65760405162461bcd60e51b815260040161090890614738565b6001600160a01b0381163b15611c1e5760405162461bcd60e51b8152600401610908906147be565b6001600160a01b038116611c445760405162461bcd60e51b815260040161090890614944565b601980546001600160a01b0383166001600160a01b031960ff60a01b19928316600160a01b908117821683179094556000828152601a602052604080822060038101805482548616835560018301805487169055600283018054871690559096169096179092169093555190917fbeec1fc786857549cbe9ae8717fa0fbdea9bb7386027cbad8197404a3c94421091a25050565b601b54600160a81b900460ff1681565b6001600160a01b0381166000908152601a6020526040812060030154600160a01b900460ff16611d2a5760405162461bcd60e51b815260040161090890614c7a565b61094d82612af0565b600060068310611d555760405162461bcd60e51b815260040161090890614797565b5060009182526018602090815260408084209284529190529020546001600160401b031690565b611d8e611d87612a4a565b8383612ca2565b5050565b6001600160a01b0381166000908152601a6020526040812060030154600160a01b900460ff16611dd45760405162461bcd60e51b815260040161090890614c7a565b506001600160a01b039081166000908152601a60205260409020541690565b611dfb6125f4565b60155460ff16600114611e205760405162461bcd60e51b815260040161090890614b58565b601554610100900460ff1615611e485760405162461bcd60e51b8152600401610908906149bf565b6000611e5382610a3a565b90508051600014611e78578060405162461bcd60e51b815260040161090891906145a0565b6040805160c08082018352640df84758008252641bf08eb0006020808401919091526429e8d60800838501526437e11d60006060808501919091526445d964b800608080860191909152666e80ec5718000060a0808701919091528651948501875260288552603293850193909352603c95840195909552605090830152605a9382019390935260649281019290925290600260005b60068110156120d457838160068110611f3757634e487b7160e01b600052603260045260246000fd5b60200201516016600083815260200190815260200160002060010160016101000a81548166ffffffffffffff021916908366ffffffffffffff160217905550828160068110611f9657634e487b7160e01b600052603260045260246000fd5b602090810291909101516000838152601690925260408220600101805460ff191660ff9092169190911790555b828110156120c3576000878360068110611fed57634e487b7160e01b600052603260045260246000fd5b60800201826002811061201057634e487b7160e01b600052603260045260246000fd5b6040020160000160208101906120269190613dda565b90506001600160a01b03811661203a575060015b87836006811061205a57634e487b7160e01b600052603260045260246000fd5b60800201826002811061207d57634e487b7160e01b600052603260045260246000fd5b60008581526016602090815260408083206001600160a01b03909616835294815290849020919093029190910191909101359055806120bb81614e79565b915050611fc3565b506120cd81614e79565b9050611f0e565b50506015805461ff00191661010017905550505050565b60606001600160a01b0383166121135760405162461bcd60e51b815260040161090890614944565b600682106121335760405162461bcd60e51b815260040161090890614797565b6001600160a01b03831660009081526017602090815260408083208584528252918290208054835181840281018401909452808452909183018282801561219957602002820191906000526020600020905b815481526020019060010190808311612185575b5050505050905092915050565b6019546000908190600160a01b900460ff166121d45760405162461bcd60e51b8152600401610908906148c1565b6001600160a01b0384166000908152601a6020526040902060030154600160a01b900460ff166122165760405162461bcd60e51b815260040161090890614aa7565b60008060006122258787612d45565b925092509250806122485760405162461bcd60e51b81526004016109089061462c565b50909590945092505050565b60105460609060ff1660011461227c5760405162461bcd60e51b8152600401610908906149eb565b6006821061229c5760405162461bcd60e51b815260040161090890614797565b600a82600681106122bd57634e487b7160e01b600052603260045260246000fd5b0180546122c990614e12565b80601f01602080910402602001604051908101604052809291908181526020018280546122f590614e12565b80156123425780601f1061231757610100808354040283529160200191612342565b820191906000526020600020905b81548152906001019060200180831161232557829003601f168201915b50505050509050919050565b6000600683106123705760405162461bcd60e51b815260040161090890614797565b5060009182526006602090815260408084209284529190529020546001600160a01b031690565b60006123a16125f4565b601b54600160a81b900460ff166001146123cd5760405162461bcd60e51b81526004016109089061488a565b50601b5461010090046001600160a01b031690565b6001600160a01b03918216600090815260086020908152604080832093909416825291909152205460ff1690565b6019546001600160a01b031681565b60405162461bcd60e51b815260040161090890614b29565b61243f6125f4565b6001600160a01b0381166124655760405162461bcd60e51b815260040161090890614684565b61246e81612a60565b50565b60006001600160a01b0383166124995760405162461bcd60e51b815260040161090890614944565b600682106124b95760405162461bcd60e51b815260040161090890614797565b5060009081526007602090815260408083206001600160a01b03949094168352929052205490565b60006001600160e01b03198216636cdb3d1360e11b148061251257506001600160e01b031982166303a24d0760e21b145b8061094d575061094d82612f4b565b60006001600160a01b03821661253957506000610939565b6001600160a01b0382166000908152601a602052604090206003810154600160a01b900460ff1661256e576000915050610939565b6002810154612585906001600160a01b0316612521565b600182015461259c906001600160a01b0316612521565b6125a585612af0565b6125af9190614d6d565b6125b99190614d6d565b9392505050565b6060816125cc84612f64565b6040516020016125dd929190614472565b604051602081830303815290604052905092915050565b6125fc612a4a565b6001600160a01b031661260d611bb5565b6001600160a01b0316146113185760405162461bcd60e51b815260040161090890614a72565b6000815b6001600160a01b0381161561268a57836001600160a01b0316816001600160a01b0316141561266a57600191505061094d565b6001600160a01b039081166000908152601a602052604090205416612637565b5060009392505050565b61269c613153565b601b805460ff191690557f5db9ee0a495bf2e6ff9c91a7834c1ba4fdd244a5e8aa4e537bd38aeae4b073aa6126cf612a4a565b6040516126dc91906144ae565b60405180910390a1565b60155460609060ff6101009091041660011461272f575060408051808201909152601681527514149250d154d7d393d517d25392551250531256915160521b602082015261094d565b6005831115612762575060408051808201909152600d81526c544f4b454e49445f52414e474560981b602082015261094d565b6001600160a01b03821661277557600191505b6001600160a01b03821660009081526012602052604090205460ff166001146127d2576127cb82604051806040016040528060118152602001701513d2d15397d55394d5541413d4951151607a1b8152506125c0565b905061094d565b5060408051602081019091526000815292915050565b6127f061144c565b156113185760405162461bcd60e51b8152600401610908906148ef565b612815612a4a565b6001600160a01b0316866001600160a01b0316148061283b575061283b86610886612a4a565b6128575760405162461bcd60e51b815260040161090890614701565b611444868686868686613177565b6001600160a01b03811660009081526012602052604090205460609060ff16600114156128c0576128b9826040518060400160405280600b81526020016a414444525f45584953545360a81b8152506125c0565b9050610939565b60408051600481526024810182526020810180516001600160e01b03166395d89b4160e01b179052905160009081906001600160a01b03861690612905908590614456565b600060405180830381855afa9150503d8060008114612940576040519150601f19603f3d011682016040523d82523d6000602084013e612945565b606091505b5091509150818015612958575060008151115b156129ff576000818060200190518101906129739190614289565b80516020808301919091206040805180820190915260038152622221a360e91b9201919091529091507f580e4ba285e7e1134de91e671c33b0ab748bee7126d5d2e4d0845e6ad176e7eb81146129f8576129ec87604051806040016040528060078152602001662727aa2fa221a360c91b8152506125c0565b95505050505050610939565b5050612a32565b612a2885604051806040016040528060078152602001662727aa2fa221a360c91b8152506125c0565b9350505050610939565b50506040805160208101909152600081529392505050565b3390565b612a5a84848484613194565b50505050565b600980546001600160a01b038381166001600160a01b0319831681179093556040519116919082907f8be0079c531659141344cd1fd0a4f28419497f9722a3daafe3b4186f6b6457e090600090a35050565b612aba6127e8565b601b805460ff191660011790557f62e78cea01bee320cd4e420270b5ea74000d11b0c9f74754ebdbfc544b05a2586126cf612a4a565b60006001600160a01b038216612b185760405162461bcd60e51b815260040161090890614944565b6000805b6006811015612c9b576001600160a01b0384166000908152601760209081526040808320848452825280832080548251818502810185019093528083529192909190830182828015612b8d57602002820191906000526020600020905b815481526020019060010190808311612b79575b5050505050905060005b8151811015612c86576000828281518110612bc257634e487b7160e01b600052603260045260246000fd5b6020908102919091018101516000868152601883526040808220838352909352918220549092506001600160401b031690612bfc866109bf565b9150612c13905066ffffffffffffff821683614d85565b6001600160401b0316421115612c2b57505050612c74565b600080612c398860006118de565b9150915081516000148290612c615760405162461bcd60e51b815260040161090891906145a0565b50612c6c818a614d6d565b985050505050505b80612c7e81614e79565b915050612b97565b50508080612c9390614e79565b915050612b1c565b5092915050565b816001600160a01b0316836001600160a01b03161415612cd45760405162461bcd60e51b815260040161090890614863565b6001600160a01b0383811660008181526008602090815260408083209487168084529490915290819020805460ff1916851515179055517f17307eab39ab6107e8899845ad3d59bd9653f200f220920489ca2b5937696c3190612d38908590614580565b60405180910390a3505050565b600080806001600160a01b0385161580612d705750836001600160a01b0316856001600160a01b0316145b15612d8357506000915081905080612f44565b6001600160a01b0385166000908152601a602052604090206003810154600160a01b900460ff16612dbf57600080600093509350935050612f44565b60018101546000906001600160a01b031615612df1576001820154612dec906001600160a01b0316612521565b612df4565b60005b60028301549091506000906001600160a01b031615612e29576002830154612e24906001600160a01b0316612521565b612e2c565b60005b905080821115600081612e4c5760028501546001600160a01b0316612e5b565b60018501546001600160a01b03165b90506001600160a01b038116612e9157612e748a613291565b15612e8c5750889650945060019350612f4492505050565b612eb7565b612e9b818a612d45565b919950975095508515612eb7575060019450612f449350505050565b600082612ed15760018601546001600160a01b0316612ee0565b60028601546001600160a01b03165b905082156001600160a01b038216612f2c57612efb8c613291565b15612f15578b9950975060019650612f4495505050505050565b600080600099509950995050505050505050612f44565b612f36828c612d45565b995099509950505050505050505b9250925092565b6001600160e01b031981166301ffc9a760e01b14919050565b60408051602a808252606082810190935283831b916f181899199a1a9b1b9c1cb0b131b232b360811b9160009190602082018180368337019050509050600360fc1b81600081518110612fc757634e487b7160e01b600052603260045260246000fd5b60200101906001600160f81b031916908160001a905350600f60fb1b8160018151811061300457634e487b7160e01b600052603260045260246000fd5b60200101906001600160f81b031916908160001a90535060005b601481101561314a57600084826014811061304957634e487b7160e01b600052603260045260246000fd5b1a905083600482901c60ff166010811061307357634e487b7160e01b600052603260045260246000fd5b1a60f81b83613083846002614db0565b61308e906002614d6d565b815181106130ac57634e487b7160e01b600052603260045260246000fd5b60200101906001600160f81b031916908160001a90535083600f8216601081106130e657634e487b7160e01b600052603260045260246000fd5b1a60f81b836130f6846002614db0565b613101906003614d6d565b8151811061311f57634e487b7160e01b600052603260045260246000fd5b60200101906001600160f81b031916908160001a90535050808061314290614e79565b91505061301e565b50949350505050565b61315b61144c565b6113185760405162461bcd60e51b8152600401610908906145fe565b6114448686868686604051806020016040528060008152506132d5565b4260005b8381101561328457600081600087600681106131c457634e487b7160e01b600052603260045260246000fd5b01546131d09190614d6d565b60008781526018602090815260408083208484528252808320805467ffffffffffffffff19166001600160401b0389161790556001600160a01b038b16808452601783528184208b855283528184208054600181018255908552929093209091018390555191925087917fa0fe61afe1ffd5e83d09a64b67ad6e6511a42b3876aea9ba71288026e8a29b69906132699085908890614cba565b60405180910390a3508061327c81614e79565b915050613198565b506117f3858585856135d9565b6000805b60068110156132cc5760006132aa848361093e565b11156132ba576001915050610939565b806132c481614e79565b915050613295565b50600092915050565b6001600160a01b0385166132fb5760405162461bcd60e51b815260040161090890614944565b6006841061331b5760405162461bcd60e51b815260040161090890614797565b60005b828110156135ca57600084848381811061334857634e487b7160e01b600052603260045260246000fd5b60008981526018602090815260408083209382029590950135808352929052928320549093506001600160401b0316919050613383886109bf565b915050896001600160a01b031661339a898561234e565b6001600160a01b0316146133c05760405162461bcd60e51b81526004016109089061496a565b6001600160a01b03808b1660009081526017602081815260408084208d85528252808420948e1684529181528183208c845290528120909190825b8254811015613451578683828154811061342557634e487b7160e01b600052603260045260246000fd5b9060005260206000200154141561343f5760019350613451565b8061344981614e79565b9150506133fb565b508261346f5760405162461bcd60e51b8152600401610908906145d5565b61348266ffffffffffffff851686614d85565b6001600160401b031642116134a95760405162461bcd60e51b81526004016109089061476f565b60005b825481101561359957868382815481106134d657634e487b7160e01b600052603260045260246000fd5b9060005260206000200154141561358757825483906134f790600190614dcf565b8154811061351557634e487b7160e01b600052603260045260246000fd5b906000526020600020015483828154811061354057634e487b7160e01b600052603260045260246000fd5b90600052602060002001819055508280548061356c57634e487b7160e01b600052603160045260246000fd5b60019003818190600052602060002001600090559055613599565b8061359181614e79565b9150506134ac565b508054600181018255600091825260209091200194909455508392506135c29150829050614e79565b91505061331e565b506114448686868686866137d4565b600683106135f95760405162461bcd60e51b815260040161090890614797565b6001600160a01b03841661361f5760405162461bcd60e51b815260040161090890614944565b6000613629612a4a565b9050600061363685613acc565b9050600061364385613acc565b905061365483600089858589613b25565b60008681526007602090815260408083206001600160a01b038b16845290915281208054879290613686908490614d6d565b90915550600090505b8581101561371b57876006600089815260200190815260200160002060008360008b600681106136cf57634e487b7160e01b600052603260045260246000fd5b01546136db9190614d6d565b8152602081019190915260400160002080546001600160a01b0319166001600160a01b03929092169190911790558061371381614e79565b91505061368f565b50846000876006811061373e57634e487b7160e01b600052603260045260246000fd5b01600082825461374e9190614d6d565b92505081905550866001600160a01b031660006001600160a01b0316846001600160a01b03167fc3d58168c5ae7397731d063d5bbf3d657854427343f4c083240f7aacaa2d0f6289896040516137a5929190614cac565b60405180910390a46137bc83600089858589611444565b6137cb83600089898989613b33565b50505050505050565b6001600160a01b0385166137fa5760405162461bcd60e51b815260040161090890614944565b6006841061381a5760405162461bcd60e51b815260040161090890614797565b60005b828110156138b05760008581526006602052604081206001600160a01b0389169186868581811061385e57634e487b7160e01b600052603260045260246000fd5b60209081029290920135835250810191909152604001600020546001600160a01b03161461389e5760405162461bcd60e51b81526004016109089061496a565b806138a881614e79565b91505061381d565b5060006138bb612a4a565b905060006138c886613acc565b905060006138d585613acc565b90506138e5838a8a858589613b25565b60005b8581101561397b5760008881526006602052604081206001600160a01b038c169189898581811061392957634e487b7160e01b600052603260045260246000fd5b60209081029290920135835250810191909152604001600020546001600160a01b0316146139695760405162461bcd60e51b81526004016109089061496a565b8061397381614e79565b9150506138e8565b5060008781526007602090815260408083206001600160a01b038d16845290915281208054878103909155905b86811015613a1f5760008981526006602052604081208b918a8a858181106139e057634e487b7160e01b600052603260045260246000fd5b6020908102929092013583525081019190915260400160002080546001600160a01b0319166001600160a01b03929092169190911790556001016139a8565b5060008881526007602090815260408083206001600160a01b038d16845290915281208054889290613a52908490614d6d565b90915550506040516001600160a01b03808b16918c8216918716907fc3d58168c5ae7397731d063d5bbf3d657854427343f4c083240f7aacaa2d0f6290613a9c908d908c90614cac565b60405180910390a4613ab2848b8b86868a611444565b613ac0848b8b8b8a8a613b33565b50505050505050505050565b60408051600180825281830190925260609160009190602080830190803683370190505090508281600081518110613b1457634e487b7160e01b600052603260045260246000fd5b602090810291909101015292915050565b611444868686868686611444565b6001600160a01b0384163b156114445760405163f23a6e6160e01b81526001600160a01b0385169063f23a6e6190613b7790899089908890889088906004016144dc565b602060405180830381600087803b158015613b9157600080fd5b505af1925050508015613bc1575060408051601f3d908101601f19168201909252613bbe9181019061426d565b60015b613c2157613bcd614ec0565b806308c379a01415613c075750613be2614ed7565b80613bed5750613c09565b8060405162461bcd60e51b815260040161090891906145a0565b505b60405162461bcd60e51b815260040161090890614c2f565b6001600160e01b0319811663f23a6e6160e01b146137cb5760405162461bcd60e51b8152600401610908906147f5565b828054613c5d90614e12565b90600052602060002090601f016020900481019282613c7f5760008555613cc5565b82601f10613c9857805160ff1916838001178555613cc5565b82800160010185558215613cc5579182015b82811115613cc5578251825591602001919060010190613caa565b50613cd1929150613cd5565b5090565b5b80821115613cd15760008155600101613cd6565b80356001600160a01b038116811461093957600080fd5b600082601f830112613d11578081fd5b81356020613d1e82614d23565b604051613d2b8282614e4d565b838152828101915085830183850287018401881015613d48578586fd5b855b85811015613d6657813584529284019290840190600101613d4a565b5090979650505050505050565b8035801515811461093957600080fd5b600082601f830112613d93578081fd5b8135613d9e81614d46565b604051613dab8282614e4d565b828152856020848701011115613dbf578384fd5b82602086016020830137918201602001929092529392505050565b600060208284031215613deb578081fd5b61094a82613cea565b60008060408385031215613e06578081fd5b613e0f83613cea565b9150613e1d60208401613cea565b90509250929050565b600080600080600060a08688031215613e3d578081fd5b613e4686613cea565b9450613e5460208701613cea565b935060408601356001600160401b0380821115613e6f578283fd5b613e7b89838a01613d01565b94506060880135915080821115613e90578283fd5b613e9c89838a01613d01565b93506080880135915080821115613eb1578283fd5b50613ebe88828901613d83565b9150509295509295909350565b600080600060608486031215613edf578283fd5b613ee884613cea565b9250613ef660208501613cea565b9150613f0460408501613d73565b90509250925092565b60008060008060008060a08789031215613f25578384fd5b613f2e87613cea565b9550613f3c60208801613cea565b94506040870135935060608701356001600160401b0380821115613f5e578283fd5b818901915089601f830112613f71578283fd5b813581811115613f7f578384fd5b8a60208083028501011115613f92578384fd5b602083019550809450506080890135915080821115613faf578283fd5b50613fbc89828a01613d83565b9150509295509295509295565b60008060008060808587031215613fde578182fd5b613fe785613cea565b9350613ff560208601613cea565b92506040850135915060608501356001600160401b03811115614016578182fd5b61402287828801613d83565b91505092959194509250565b600080600080600060a08688031215614045578283fd5b61404e86613cea565b945061405c60208701613cea565b9350604086013592506060860135915060808601356001600160401b03811115614084578182fd5b613ebe88828901613d83565b600080604083850312156140a2578182fd5b6140ab83613cea565b9150613e1d60208401613d73565b600080604083850312156140cb578182fd5b6140d483613cea565b946020939093013593505050565b600080604083850312156140f4578182fd5b82356001600160401b038082111561410a578384fd5b818501915085601f83011261411d578384fd5b8135602061412a82614d23565b6040516141378282614e4d565b8381528281019150858301838502870184018b1015614154578889fd5b8896505b8487101561417d5761416981613cea565b835260019690960195918301918301614158565b5096505086013592505080821115614193578283fd5b506141a085828601613d01565b9150509250929050565b60006103008083850312156141bd578182fd5b8381840111156141cb578182fd5b509092915050565b600060208083850312156141e5578182fd5b82356001600160401b038111156141fa578283fd5b8301601f8101851361420a578283fd5b60405161421860c082614e4d565b8082855b6006811015614244576142328983358701613d83565b8352918501919085019060010161421c565b5091979650505050505050565b600060208284031215614262578081fd5b81356125b981614f68565b60006020828403121561427e578081fd5b81516125b981614f68565b60006020828403121561429a578081fd5b81516001600160401b038111156142af578182fd5b8201601f810184136142bf578182fd5b80516142ca81614d46565b6040516142d78282614e4d565b8281528660208486010111156142eb578485fd5b6142fc836020830160208701614de6565b9695505050505050565b600060408284031215614317578081fd5b604051614325604082614e4d565b61432e83613cea565b8152602083013560208201528091505092915050565b600060208284031215614355578081fd5b5035919050565b6000806040838503121561436e578182fd5b82359150613e1d60208401613cea565b600080600060608486031215614392578081fd5b833592506143a260208501613cea565b9150604084013590509250925092565b600080604083850312156143c4578182fd5b50508035926020909101359150565b600080604083850312156143e5578182fd5b505080516020909101519092909150565b60008060408385031215614408578182fd5b82359150602083013560ff8116811461441f578182fd5b809150509250929050565b60008151808452614442816020860160208601614de6565b601f01601f19169290920160200192915050565b60008251614468818460208701614de6565b9190910192915050565b60008351614484818460208801614de6565b600160fd1b90830190815283516144a2816001840160208801614de6565b01600101949350505050565b6001600160a01b0391909116815260200190565b6001600160a01b0392831681529116602082015260400190565b6001600160a01b03868116825285166020820152604081018490526060810183905260a0608082018190526000906145169083018461442a565b979650505050505050565b6001600160a01b039290921682521515602082015260400190565b6020808252825182820181905260009190848201906040850190845b8181101561457457835183529284019291840191600101614558565b50909695505050505050565b901515815260200190565b6001600160e01b031991909116815260200190565b60006020825261094a602083018461442a565b6000604082526145c6604083018561442a565b90508260208301529392505050565b6020808252600f908201526e125391115617d393d517d3d5d39151608a1b604082015260600190565b60208082526014908201527314185d5cd8589b194e881b9bdd081c185d5cd95960621b604082015260600190565b6020808252601390820152721393d7d0559052531050931157d41054915395606a1b604082015260600190565b6020808252601190820152701513d2d15397d253925512505312569151607a1b604082015260600190565b60208082526026908201527f4f776e61626c653a206e6577206f776e657220697320746865207a65726f206160408201526564647265737360d01b606082015260800190565b60208082526017908201527f504152454e545f4841535f54574f5f4348494c4452454e000000000000000000604082015260600190565b60208082526019908201527f43414c4c45525f4e4f545f4f574e45525f415050524f56454400000000000000604082015260600190565b60208082526018908201527f524f4f545f414c52454144595f494e495449414c495a45440000000000000000604082015260600190565b6020808252600e908201526d14d1539117d59053125117d3919560921b604082015260600190565b6020808252600d908201526c544f4b454e49445f52414e474560981b604082015260600190565b60208082526017908201527f524f4f545f43414e4e4f545f42455f434f4e5452414354000000000000000000604082015260600190565b6020808252601f908201527f4552433131353552454345495645525f52454a45435445445f544f4b454e5300604082015260600190565b6020808252601e908201527f504152454e545f4e4f545f5245434f4d4d454e4445525f535542545245450000604082015260600190565b6020808252600d908201526c20a8282927ab20a62fa9a2a62360991b604082015260600190565b6020808252601d908201527f57495448445241575f414444525f4e4f545f494e495449414c495a4544000000604082015260600190565b6020808252601490820152731493d3d517d393d517d25392551250531256915160621b604082015260600190565b60208082526010908201526f14185d5cd8589b194e881c185d5cd95960821b604082015260600190565b60208082526011908201527014105491539517d21054d7d393d7d39195607a1b604082015260600190565b6020808252600c908201526b5a45524f5f4144445245535360a01b604082015260600190565b6020808252600f908201526e1513d2d15397d393d517d3d5d39151608a1b604082015260600190565b6020808252601290820152711510d7d514905394d1915497d1905253115160721b604082015260600190565b60208082526012908201527114149250d154d7d25392551250531256915160721b604082015260600190565b60208082526017908201527f424153455552495f4e4f545f494e495449414c495a4544000000000000000000604082015260600190565b6020808252600b908201526a4e4f44455f45584953545360a81b604082015260600190565b6020808252601190820152701513d2d15397d55394d5541413d4951151607a1b604082015260600190565b6020808252818101527f4f776e61626c653a2063616c6c6572206973206e6f7420746865206f776e6572604082015260600190565b602080825260159082015274149150d3d353515391115497d393d517d1561254d5605a1b604082015260600190565b6020808252600f908201526e494e434f52524543545f46554e445360881b604082015260600190565b60208082526010908201526f14105491539517d393d517d1561254d560821b604082015260600190565b6020808252601590820152745553455f45536166655472616e7366657246726f6d60581b604082015260600190565b6020808252601590820152741513d2d15397d393d517d253925512505312569151605a1b604082015260600190565b60208082526016908201527514149250d154d7d393d517d25392551250531256915160521b604082015260600190565b6020808252600890820152675553455f4575726960c01b604082015260600190565b602080825260139082015272105111149154d4d7d254d7d0d3d395149050d5606a1b604082015260600190565b6020808252600f908201526e1393d517d253541311535153951151608a1b604082015260600190565b6020808252602b908201527f7472616e736665725f746f5f6e6f6e2d4552433131353552656365697665725f60408201526a34b6b83632b6b2b73a32b960a91b606082015260800190565b6020808252600f908201526e4e4f44455f4e4f545f45584953545360881b604082015260600190565b90815260200190565b918252602082015260400190565b9182526001600160401b0316602082015260400190565b6001600160401b0391909116815260200190565b60ff91909116815260200190565b60ff92909216825266ffffffffffffff16602082015260400190565b60ff92831681529116602082015260400190565b60006001600160401b03821115614d3c57614d3c614eaa565b5060209081020190565b60006001600160401b03821115614d5f57614d5f614eaa565b50601f01601f191660200190565b60008219821115614d8057614d80614e94565b500190565b60006001600160401b03808316818516808303821115614da757614da7614e94565b01949350505050565b6000816000190483118215151615614dca57614dca614e94565b500290565b600082821015614de157614de1614e94565b500390565b60005b83811015614e01578181015183820152602001614de9565b83811115612a5a5750506000910152565b600281046001821680614e2657607f821691505b60208210811415614e4757634e487b7160e01b600052602260045260246000fd5b50919050565b601f8201601f191681016001600160401b0381118282101715614e7257614e72614eaa565b6040525050565b6000600019821415614e8d57614e8d614e94565b5060010190565b634e487b7160e01b600052601160045260246000fd5b634e487b7160e01b600052604160045260246000fd5b600060033d11156109bc57600481823e5160e01c90565b600060443d1015614ee7576109bc565b6040516003193d81016004833e81513d6001600160401b038160248401118184111715614f185750505050506109bc565b8285019150815181811115614f32575050505050506109bc565b843d8701016020828501011115614f4e575050505050506109bc565b614f5d60208286010187614e4d565b509094505050505090565b6001600160e01b03198116811461246e57600080fdfea26469706673582212201f010e31e5d905ae0b7d2e736223e7654963f9d60adbbb4900c636a04b2d820e64736f6c63430008010033",
  "linkReferences": {},
  "deployedLinkReferences": {},
  "immutableReferences": {},
  "inputSourceName": "project/contracts/TCF_NFT.sol",
  "devdoc": {
    "kind": "dev",
    "methods": {
      "addSupportedToken(address)": {
        "details": "添加支持的代币地址列表（原生代币不需要传入地址）。构造函数中已经添加了原生代币TC。 如果项目只支持TC，则不需要调用这个函数。",
        "params": {
          "_tokenAddress": "代币合约地址"
        }
      },
      "balanceOfBatch(address[],uint256[])": {
        "details": "See {IERC1155-balanceOfBatch}.没有实现 Requirements: - `accounts` and `ids` must have the same length."
      },
      "changeNFTPrice(uint256,address,uint256)": {
        "details": "修改单个NFT价格",
        "params": {
          "amount": "新价格",
          "tokenAddress": "支付代币地址；原生代币传入address(0)",
          "tokenId": "NFT类型/ID（0-5）"
        }
      },
      "checkInitPricesParams((address,uint256)[2][6])": {
        "details": "初始化价格参数检查：长度、代币是否在支持列表内等。",
        "params": {
          "prices": "6种NFT的价格参数（每种NFT包含 supportedTokenAmount 个价格项）"
        },
        "returns": {
          "_0": "错误码/错误信息；成功时为空字符串"
        }
      },
      "getNFTPrice(uint256,address)": {
        "details": "获取某个NFT在某种支付方式下的价格。",
        "params": {
          "_tokenAddress": "支付代币地址；原生代币传入address(0)",
          "tokenId": "NFT类型/ID（0-5）"
        },
        "returns": {
          "_0": "errorMessage 错误码/错误信息；成功时为空字符串",
          "_1": "price 价格；当errorMessage非空时为0"
        }
      },
      "getOptimalParent(address,address)": {
        "details": "从 recommender 出发：      1) 对当前节点比较左右子树价值（空子树视为 0），优先走价值更小的一侧（相等则优先 left）。      2) 若优先侧为空，说明当前节点在该侧有空位；若当前节点买过 NFT，则返回该节点作为父节点。      3) 若当前节点没有买过 NFT，则该节点不能作为父节点，需要继续查找；         若这条路径最终找不到可用父节点，则回退尝试另一侧（等价于排除上一条路径）。      4) 整个查找过程中会跳过 excludeNode（通常是当前要插入的节点），避免推荐自己。",
        "params": {
          "excludeNode": "在推荐父节点时排除掉这个节点（通常是当前要插入的节点），避免出现推荐自己作为父节点的情况",
          "recommender": "推荐人地址（必须已在树中）"
        },
        "returns": {
          "isLeftBranch": "推荐在 parent 下应选择的分支：true=left，false=right",
          "parent": "推荐得到的最终父节点地址"
        }
      },
      "initPrice((address,uint256)[2][6])": {
        "details": "初始化价格.TC代币的地址设为0",
        "params": {
          "prices": "6种NFT,每中NFT的三类价格"
        }
      },
      "initRoot(address)": {
        "params": {
          "rootAddress": "根节点地址"
        }
      },
      "insert(address,address,bool)": {
        "details": "约束：  - parent 必须已存在。  - recommender 必须已存在。  - 若 recommender 推荐该 node，则 parent 必须在 recommender 的子树内（含 recommender 本人）。",
        "params": {
          "isLeft": "true=插入为 parent.left；false=插入为 parent.right。  如果isLeft未true，优先放在父节点的左子树下，如果左子树下有节点，则放在右子树下；反之亦然。  我什么存在：因为如果使用推荐节点，推荐函数将返回一个父节点和isLeft参数，这样插入函数就可以直接使用。",
          "parent": "父节点地址",
          "recommender": "推荐人地址（必须是当前树中的某个地址）"
        }
      },
      "isApprovedForAll(address,address)": {
        "details": "See {IERC1155-isApprovedForAll}."
      },
      "owner()": {
        "details": "Returns the address of the current owner."
      },
      "paused()": {
        "details": "Returns true if the contract is paused, and false otherwise."
      },
      "renounceOwnership()": {
        "details": "Leaves the contract without owner. It will not be possible to call `onlyOwner` functions. Can only be called by the current owner. NOTE: Renouncing ownership will leave the contract without an owner, thereby disabling any functionality that is only available to the owner."
      },
      "safeBatchTransferFrom(address,address,uint256[],uint256[],bytes)": {
        "details": "See {IERC1155-safeBatchTransferFrom}."
      },
      "safeTransferFrom(address,address,uint256,uint256,bytes)": {
        "details": "See {IERC1155-safeTransferFrom}.没有实现"
      },
      "setApprovalForAll(address,bool)": {
        "details": "See {IERC1155-setApprovalForAll}."
      },
      "setBaseURI(bytes[6])": {
        "details": "Sets `baseURI` as the `_baseURI` for all tokens Only callable by the owner.可以被设置多次"
      },
      "supportsInterface(bytes4)": {
        "details": "See {IERC165-supportsInterface}."
      },
      "totalTreeWorth()": {
        "details": "注意：树很大时可能消耗较多 gas（即使 view 调用也有计算开销）。"
      },
      "transferOwnership(address)": {
        "details": "Transfers ownership of the contract to a new account (`newOwner`). Can only be called by the current owner."
      }
    },
    "version": 1
  },
  "evm": {
    "gasEstimates": {
      "creation": {
        "codeDepositCost": "4080800",
        "executionCost": "130492",
        "totalCost": "4211292"
      },
      "external": {
        "ESafeTransferFrom(address,address,uint256,uint256[],bytes)": "infinite",
        "Euri(uint256)": "infinite",
        "NFTPrice_initialized()": "1191",
        "_initializedURIStorage()": "1158",
        "addSupportedToken(address)": "infinite",
        "balanceOf(address,uint256)": "1547",
        "balanceOfBatch(address[],uint256[])": "infinite",
        "buyNFTByTC(uint256,uint256)": "infinite",
        "changeDynamicRatio(uint256,uint8)": "24938",
        "changeNFTPrice(uint256,address,uint256)": "infinite",
        "checkInitPricesParams((address,uint256)[2][6])": "infinite",
        "getChildren(address)": "3262",
        "getNFTEquityDetails(uint256)": "2262",
        "getNFTPrice(uint256,address)": "infinite",
        "getNftMintTime(uint256,uint256)": "1381",
        "getNodeWorth(address)": "infinite",
        "getOptimalParent(address,address)": "infinite",
        "getParent(address)": "2331",
        "getRecommender(address)": "2316",
        "getUserTokenIds(address,uint256)": "infinite",
        "getWithdrawAddress()": "2997",
        "initPrice((address,uint256)[2][6])": "infinite",
        "initRoot(address)": "108404",
        "insert(address,address,bool)": "infinite",
        "isApprovedForAll(address,address)": "infinite",
        "isExist(address)": "infinite",
        "isSupported(address)": "1385",
        "onTransferReceived(address,address,uint256,bytes)": "infinite",
        "owner()": "1159",
        "ownerOf(uint256,uint256)": "1425",
        "pause()": "infinite",
        "paused()": "1151",
        "renounceOwnership()": "infinite",
        "root()": "1158",
        "rootInitialized()": "1190",
        "safeBatchTransferFrom(address,address,uint256[],uint256[],bytes)": "infinite",
        "safeTransferFrom(address,address,uint256,uint256,bytes)": "infinite",
        "setApprovalForAll(address,bool)": "infinite",
        "setBaseURI(bytes[6])": "infinite",
        "setWithdrawAddress(address)": "45837",
        "subtreeWorth(address)": "infinite",
        "supportedTokenAmount()": "1162",
        "supportsInterface(bytes4)": "infinite",
        "tokenAddress_array(uint256)": "2128",
        "totalTreeWorth()": "infinite",
        "transferOwnership(address)": "23862",
        "unpause()": "infinite",
        "uri(uint256)": "405",
        "withdrawAddress_initialized()": "1196"
      },
      "internal": {
        "_beforeTokenTransfer(address,address,address,uint256[] memory,uint256[] memory,bytes memory)": "infinite",
        "_mint(address,uint256,uint256,bytes memory)": "infinite",
        "_safeTransferFrom(address,address,uint256,uint256[] calldata,bytes memory)": "infinite"
      }
    }
  },
  "storageLayout": {
    "storage": [
      {
        "astId": 914,
        "contract": "project/contracts/TCF_NFT.sol:TCF_NFT",
        "label": "_nextTokenId",
        "offset": 0,
        "slot": "0",
        "type": "t_array(t_uint256)6_storage"
      },
      {
        "astId": 920,
        "contract": "project/contracts/TCF_NFT.sol:TCF_NFT",
        "label": "_owners",
        "offset": 0,
        "slot": "6",
        "type": "t_mapping(t_uint256,t_mapping(t_uint256,t_address))"
      },
      {
        "astId": 926,
        "contract": "project/contracts/TCF_NFT.sol:TCF_NFT",
        "label": "_balances",
        "offset": 0,
        "slot": "7",
        "type": "t_mapping(t_uint256,t_mapping(t_address,t_uint256))"
      },
      {
        "astId": 932,
        "contract": "project/contracts/TCF_NFT.sol:TCF_NFT",
        "label": "_operatorApprovals",
        "offset": 0,
        "slot": "8",
        "type": "t_mapping(t_address,t_mapping(t_address,t_bool))"
      },
      {
        "astId": 4170,
        "contract": "project/contracts/TCF_NFT.sol:TCF_NFT",
        "label": "_owner",
        "offset": 0,
        "slot": "9",
        "type": "t_address"
      },
      {
        "astId": 2265,
        "contract": "project/contracts/TCF_NFT.sol:TCF_NFT",
        "label": "_baseURI",
        "offset": 0,
        "slot": "10",
        "type": "t_array(t_string_storage)6_storage"
      },
      {
        "astId": 2267,
        "contract": "project/contracts/TCF_NFT.sol:TCF_NFT",
        "label": "_initializedURIStorage",
        "offset": 0,
        "slot": "16",
        "type": "t_uint8"
      },
      {
        "astId": 2273,
        "contract": "project/contracts/TCF_NFT.sol:TCF_NFT",
        "label": "_tokenURIs",
        "offset": 0,
        "slot": "17",
        "type": "t_mapping(t_uint256,t_mapping(t_uint256,t_string_storage))"
      },
      {
        "astId": 2353,
        "contract": "project/contracts/TCF_NFT.sol:TCF_NFT",
        "label": "supportTokenType",
        "offset": 0,
        "slot": "18",
        "type": "t_mapping(t_address,t_uint8)"
      },
      {
        "astId": 2355,
        "contract": "project/contracts/TCF_NFT.sol:TCF_NFT",
        "label": "supportedTokenAmount",
        "offset": 0,
        "slot": "19",
        "type": "t_uint256"
      },
      {
        "astId": 2358,
        "contract": "project/contracts/TCF_NFT.sol:TCF_NFT",
        "label": "tokenAddress_array",
        "offset": 0,
        "slot": "20",
        "type": "t_array(t_address)dyn_storage"
      },
      {
        "astId": 2360,
        "contract": "project/contracts/TCF_NFT.sol:TCF_NFT",
        "label": "initedTokenAddress",
        "offset": 0,
        "slot": "21",
        "type": "t_uint8"
      },
      {
        "astId": 2362,
        "contract": "project/contracts/TCF_NFT.sol:TCF_NFT",
        "label": "NFTPrice_initialized",
        "offset": 1,
        "slot": "21",
        "type": "t_uint8"
      },
      {
        "astId": 2381,
        "contract": "project/contracts/TCF_NFT.sol:TCF_NFT",
        "label": "NFTS",
        "offset": 0,
        "slot": "22",
        "type": "t_mapping(t_uint256,t_struct(equities_store)2376_storage)"
      },
      {
        "astId": 1785,
        "contract": "project/contracts/TCF_NFT.sol:TCF_NFT",
        "label": "_ownedTokenIds",
        "offset": 0,
        "slot": "23",
        "type": "t_mapping(t_address,t_mapping(t_uint256,t_array(t_uint256)dyn_storage))"
      },
      {
        "astId": 1791,
        "contract": "project/contracts/TCF_NFT.sol:TCF_NFT",
        "label": "_mintTimes",
        "offset": 0,
        "slot": "24",
        "type": "t_mapping(t_uint256,t_mapping(t_uint256,t_uint64))"
      },
      {
        "astId": 3309,
        "contract": "project/contracts/TCF_NFT.sol:TCF_NFT",
        "label": "root",
        "offset": 0,
        "slot": "25",
        "type": "t_address"
      },
      {
        "astId": 3311,
        "contract": "project/contracts/TCF_NFT.sol:TCF_NFT",
        "label": "rootInitialized",
        "offset": 20,
        "slot": "25",
        "type": "t_bool"
      },
      {
        "astId": 3316,
        "contract": "project/contracts/TCF_NFT.sol:TCF_NFT",
        "label": "_nodes",
        "offset": 0,
        "slot": "26",
        "type": "t_mapping(t_address,t_struct(Node)3306_storage)"
      },
      {
        "astId": 4311,
        "contract": "project/contracts/TCF_NFT.sol:TCF_NFT",
        "label": "_paused",
        "offset": 0,
        "slot": "27",
        "type": "t_bool"
      },
      {
        "astId": 23,
        "contract": "project/contracts/TCF_NFT.sol:TCF_NFT",
        "label": "withdrawAddress",
        "offset": 1,
        "slot": "27",
        "type": "t_address"
      },
      {
        "astId": 25,
        "contract": "project/contracts/TCF_NFT.sol:TCF_NFT",
        "label": "withdrawAddress_initialized",
        "offset": 21,
        "slot": "27",
        "type": "t_uint8"
      }
    ],
    "types": {
      "t_address": {
        "encoding": "inplace",
        "label": "address",
        "numberOfBytes": "20"
      },
      "t_array(t_address)dyn_storage": {
        "base": "t_address",
        "encoding": "dynamic_array",
        "label": "address[]",
        "numberOfBytes": "32"
      },
      "t_array(t_string_storage)6_storage": {
        "base": "t_string_storage",
        "encoding": "inplace",
        "label": "string[6]",
        "numberOfBytes": "192"
      },
      "t_array(t_uint256)6_storage": {
        "base": "t_uint256",
        "encoding": "inplace",
        "label": "uint256[6]",
        "numberOfBytes": "192"
      },
      "t_array(t_uint256)dyn_storage": {
        "base": "t_uint256",
        "encoding": "dynamic_array",
        "label": "uint256[]",
        "numberOfBytes": "32"
      },
      "t_bool": {
        "encoding": "inplace",
        "label": "bool",
        "numberOfBytes": "1"
      },
      "t_mapping(t_address,t_bool)": {
        "encoding": "mapping",
        "key": "t_address",
        "label": "mapping(address => bool)",
        "numberOfBytes": "32",
        "value": "t_bool"
      },
      "t_mapping(t_address,t_mapping(t_address,t_bool))": {
        "encoding": "mapping",
        "key": "t_address",
        "label": "mapping(address => mapping(address => bool))",
        "numberOfBytes": "32",
        "value": "t_mapping(t_address,t_bool)"
      },
      "t_mapping(t_address,t_mapping(t_uint256,t_array(t_uint256)dyn_storage))": {
        "encoding": "mapping",
        "key": "t_address",
        "label": "mapping(address => mapping(uint256 => uint256[]))",
        "numberOfBytes": "32",
        "value": "t_mapping(t_uint256,t_array(t_uint256)dyn_storage)"
      },
      "t_mapping(t_address,t_struct(Node)3306_storage)": {
        "encoding": "mapping",
        "key": "t_address",
        "label": "mapping(address => struct BinaryTree.Node)",
        "numberOfBytes": "32",
        "value": "t_struct(Node)3306_storage"
      },
      "t_mapping(t_address,t_uint256)": {
        "encoding": "mapping",
        "key": "t_address",
        "label": "mapping(address => uint256)",
        "numberOfBytes": "32",
        "value": "t_uint256"
      },
      "t_mapping(t_address,t_uint8)": {
        "encoding": "mapping",
        "key": "t_address",
        "label": "mapping(address => uint8)",
        "numberOfBytes": "32",
        "value": "t_uint8"
      },
      "t_mapping(t_uint256,t_address)": {
        "encoding": "mapping",
        "key": "t_uint256",
        "label": "mapping(uint256 => address)",
        "numberOfBytes": "32",
        "value": "t_address"
      },
      "t_mapping(t_uint256,t_array(t_uint256)dyn_storage)": {
        "encoding": "mapping",
        "key": "t_uint256",
        "label": "mapping(uint256 => uint256[])",
        "numberOfBytes": "32",
        "value": "t_array(t_uint256)dyn_storage"
      },
      "t_mapping(t_uint256,t_mapping(t_address,t_uint256))": {
        "encoding": "mapping",
        "key": "t_uint256",
        "label": "mapping(uint256 => mapping(address => uint256))",
        "numberOfBytes": "32",
        "value": "t_mapping(t_address,t_uint256)"
      },
      "t_mapping(t_uint256,t_mapping(t_uint256,t_address))": {
        "encoding": "mapping",
        "key": "t_uint256",
        "label": "mapping(uint256 => mapping(uint256 => address))",
        "numberOfBytes": "32",
        "value": "t_mapping(t_uint256,t_address)"
      },
      "t_mapping(t_uint256,t_mapping(t_uint256,t_string_storage))": {
        "encoding": "mapping",
        "key": "t_uint256",
        "label": "mapping(uint256 => mapping(uint256 => string))",
        "numberOfBytes": "32",
        "value": "t_mapping(t_uint256,t_string_storage)"
      },
      "t_mapping(t_uint256,t_mapping(t_uint256,t_uint64))": {
        "encoding": "mapping",
        "key": "t_uint256",
        "label": "mapping(uint256 => mapping(uint256 => uint64))",
        "numberOfBytes": "32",
        "value": "t_mapping(t_uint256,t_uint64)"
      },
      "t_mapping(t_uint256,t_string_storage)": {
        "encoding": "mapping",
        "key": "t_uint256",
        "label": "mapping(uint256 => string)",
        "numberOfBytes": "32",
        "value": "t_string_storage"
      },
      "t_mapping(t_uint256,t_struct(equities_store)2376_storage)": {
        "encoding": "mapping",
        "key": "t_uint256",
        "label": "mapping(uint256 => struct TCF_NFTPrice.equities_store)",
        "numberOfBytes": "32",
        "value": "t_struct(equities_store)2376_storage"
      },
      "t_mapping(t_uint256,t_uint64)": {
        "encoding": "mapping",
        "key": "t_uint256",
        "label": "mapping(uint256 => uint64)",
        "numberOfBytes": "32",
        "value": "t_uint64"
      },
      "t_string_storage": {
        "encoding": "bytes",
        "label": "string",
        "numberOfBytes": "32"
      },
      "t_struct(Node)3306_storage": {
        "encoding": "inplace",
        "label": "struct BinaryTree.Node",
        "members": [
          {
            "astId": 3297,
            "contract": "project/contracts/TCF_NFT.sol:TCF_NFT",
            "label": "parent",
            "offset": 0,
            "slot": "0",
            "type": "t_address"
          },
          {
            "astId": 3299,
            "contract": "project/contracts/TCF_NFT.sol:TCF_NFT",
            "label": "left",
            "offset": 0,
            "slot": "1",
            "type": "t_address"
          },
          {
            "astId": 3301,
            "contract": "project/contracts/TCF_NFT.sol:TCF_NFT",
            "label": "right",
            "offset": 0,
            "slot": "2",
            "type": "t_address"
          },
          {
            "astId": 3303,
            "contract": "project/contracts/TCF_NFT.sol:TCF_NFT",
            "label": "recommender",
            "offset": 0,
            "slot": "3",
            "type": "t_address"
          },
          {
            "astId": 3305,
            "contract": "project/contracts/TCF_NFT.sol:TCF_NFT",
            "label": "exists",
            "offset": 20,
            "slot": "3",
            "type": "t_bool"
          }
        ],
        "numberOfBytes": "128"
      },
      "t_struct(equities_store)2376_storage": {
        "encoding": "inplace",
        "label": "struct TCF_NFTPrice.equities_store",
        "members": [
          {
            "astId": 2371,
            "contract": "project/contracts/TCF_NFT.sol:TCF_NFT",
            "label": "prices",
            "offset": 0,
            "slot": "0",
            "type": "t_mapping(t_address,t_uint256)"
          },
          {
            "astId": 2373,
            "contract": "project/contracts/TCF_NFT.sol:TCF_NFT",
            "label": "ratio",
            "offset": 0,
            "slot": "1",
            "type": "t_uint8"
          },
          {
            "astId": 2375,
            "contract": "project/contracts/TCF_NFT.sol:TCF_NFT",
            "label": "indate",
            "offset": 1,
            "slot": "1",
            "type": "t_uint56"
          }
        ],
        "numberOfBytes": "64"
      },
      "t_uint256": {
        "encoding": "inplace",
        "label": "uint256",
        "numberOfBytes": "32"
      },
      "t_uint56": {
        "encoding": "inplace",
        "label": "uint56",
        "numberOfBytes": "7"
      },
      "t_uint64": {
        "encoding": "inplace",
        "label": "uint64",
        "numberOfBytes": "8"
      },
      "t_uint8": {
        "encoding": "inplace",
        "label": "uint8",
        "numberOfBytes": "1"
      }
    }
  },
  "userdoc": {
    "kind": "user",
    "methods": {
      "getChildren(address)": {
        "notice": "查询某个节点的子节点地址（left, right）"
      },
      "getNodeWorth(address)": {
        "notice": "查询某个节点余额"
      },
      "getOptimalParent(address,address)": {
        "notice": "获取“推荐的父节点”（小区最小策略：优先走子树价值更小的一侧）"
      },
      "getParent(address)": {
        "notice": "查询某个节点的父节点地址"
      },
      "getRecommender(address)": {
        "notice": "查询某个节点的推荐人地址"
      },
      "initPrice((address,uint256)[2][6])": {
        "notice": "只能调用一次，调用前必须确保支持的代币地址已经初始化，不需要检查token地址是否初始化，因为在构造函数中，初始化了TC"
      },
      "initRoot(address)": {
        "notice": "初始化根节点（只能执行一次，且只能由合约部署者/owner 调用）"
      },
      "insert(address,address,bool)": {
        "notice": "插入节点"
      },
      "isExist(address)": {
        "notice": "判断某个地址是否已在树中"
      },
      "root()": {
        "notice": "根节点地址（初始化后不可更改）"
      },
      "subtreeWorth(address)": {
        "notice": "返回某个节点子树（含该节点）余额总和，用于计算某个节点及其左右子树的有效NFT总价值"
      },
      "totalTreeWorth()": {
        "notice": "遍历整颗二叉树，返回所有节点余额总和"
      }
    },
    "version": 1
  },
  "argsData": "0x",
  "transaction": {
    "hash": "0x00a55c698891976c9b3ba36717f529395be824fb6e24cd4e5c0fae70b25c6fae",
    "nonce": "0x4",
    "origin": "0xf39fd6e51aad88f6f4ce6ab8827279cfffb92266"
  }
}