{
  "address": "0xe7f1725e7734ce288f8367e1bb143e90bb3f0512",
  "abi": [
    {
      "anonymous": false,
      "inputs": [
        {
          "indexed": true,
          "internalType": "address",
          "name": "account",
          "type": "address"
        },
        {
          "indexed": true,
          "internalType": "address",
          "name": "operator",
          "type": "address"
        },
        {
          "indexed": false,
          "internalType": "bool",
          "name": "approved",
          "type": "bool"
        }
      ],
      "name": "ApprovalForAll",
      "type": "event"
    },
    {
      "anonymous": false,
      "inputs": [
        {
          "indexed": true,
          "internalType": "address",
          "name": "previousOwner",
          "type": "address"
        },
        {
          "indexed": true,
          "internalType": "address",
          "name": "newOwner",
          "type": "address"
        }
      ],
      "name": "OwnershipTransferred",
      "type": "event"
    },
    {
      "anonymous": false,
      "inputs": [
        {
          "indexed": true,
          "internalType": "address",
          "name": "operator",
          "type": "address"
        },
        {
          "indexed": true,
          "internalType": "address",
          "name": "from",
          "type": "address"
        },
        {
          "indexed": true,
          "internalType": "address",
          "name": "to",
          "type": "address"
        },
        {
          "indexed": false,
          "internalType": "uint256[]",
          "name": "ids",
          "type": "uint256[]"
        },
        {
          "indexed": false,
          "internalType": "uint256[]",
          "name": "values",
          "type": "uint256[]"
        }
      ],
      "name": "TransferBatch",
      "type": "event"
    },
    {
      "anonymous": false,
      "inputs": [
        {
          "indexed": true,
          "internalType": "address",
          "name": "operator",
          "type": "address"
        },
        {
          "indexed": true,
          "internalType": "address",
          "name": "from",
          "type": "address"
        },
        {
          "indexed": true,
          "internalType": "address",
          "name": "to",
          "type": "address"
        },
        {
          "indexed": false,
          "internalType": "uint256",
          "name": "id",
          "type": "uint256"
        },
        {
          "indexed": false,
          "internalType": "uint256",
          "name": "value",
          "type": "uint256"
        }
      ],
      "name": "TransferSingle",
      "type": "event"
    },
    {
      "anonymous": false,
      "inputs": [
        {
          "indexed": false,
          "internalType": "string",
          "name": "value",
          "type": "string"
        },
        {
          "indexed": true,
          "internalType": "uint256",
          "name": "id",
          "type": "uint256"
        }
      ],
      "name": "URI",
      "type": "event"
    },
    {
      "inputs": [
        {
          "internalType": "uint256",
          "name": "",
          "type": "uint256"
        }
      ],
      "name": "NFTS",
      "outputs": [
        {
          "internalType": "uint8",
          "name": "ratio",
          "type": "uint8"
        },
        {
          "internalType": "uint32",
          "name": "indate",
          "type": "uint32"
        }
      ],
      "stateMutability": "view",
      "type": "function"
    },
    {
      "inputs": [
        {
          "internalType": "address[]",
          "name": "tokenAddresses",
          "type": "address[]"
        },
        {
          "internalType": "bool",
          "name": "checkParams",
          "type": "bool"
        }
      ],
      "name": "addSupportedToken",
      "outputs": [],
      "stateMutability": "nonpayable",
      "type": "function"
    },
    {
      "inputs": [
        {
          "internalType": "address",
          "name": "account",
          "type": "address"
        },
        {
          "internalType": "uint256",
          "name": "id",
          "type": "uint256"
        }
      ],
      "name": "balanceOf",
      "outputs": [
        {
          "internalType": "uint256",
          "name": "",
          "type": "uint256"
        }
      ],
      "stateMutability": "view",
      "type": "function"
    },
    {
      "inputs": [
        {
          "internalType": "address[]",
          "name": "accounts",
          "type": "address[]"
        },
        {
          "internalType": "uint256[]",
          "name": "ids",
          "type": "uint256[]"
        }
      ],
      "name": "balanceOfBatch",
      "outputs": [
        {
          "internalType": "uint256[]",
          "name": "",
          "type": "uint256[]"
        }
      ],
      "stateMutability": "view",
      "type": "function"
    },
    {
      "inputs": [
        {
          "internalType": "uint256",
          "name": "tokenID",
          "type": "uint256"
        },
        {
          "internalType": "address",
          "name": "tokenAddress",
          "type": "address"
        },
        {
          "internalType": "uint256",
          "name": "amount",
          "type": "uint256"
        }
      ],
      "name": "changeNFTPrice",
      "outputs": [],
      "stateMutability": "nonpayable",
      "type": "function"
    },
    {
      "inputs": [
        {
          "components": [
            {
              "internalType": "address",
              "name": "tokenAddress",
              "type": "address"
            },
            {
              "internalType": "uint256",
              "name": "amount",
              "type": "uint256"
            }
          ],
          "internalType": "struct TCF_NFTPrice.priceTypeAndAomut[][6]",
          "name": "prices",
          "type": "tuple[][6]"
        }
      ],
      "name": "checkInitPricesParams",
      "outputs": [
        {
          "internalType": "string",
          "name": "",
          "type": "string"
        }
      ],
      "stateMutability": "view",
      "type": "function"
    },
    {
      "inputs": [
        {
          "internalType": "address[]",
          "name": "_tokenAddresses",
          "type": "address[]"
        }
      ],
      "name": "checkTokenAddressesCode",
      "outputs": [
        {
          "internalType": "string",
          "name": "",
          "type": "string"
        }
      ],
      "stateMutability": "view",
      "type": "function"
    },
    {
      "inputs": [
        {
          "internalType": "address",
          "name": "oldTokenAddress",
          "type": "address"
        }
      ],
      "name": "deleteSupportedToken",
      "outputs": [],
      "stateMutability": "nonpayable",
      "type": "function"
    },
    {
      "inputs": [
        {
          "internalType": "uint256",
          "name": "id",
          "type": "uint256"
        }
      ],
      "name": "exists",
      "outputs": [
        {
          "internalType": "bool",
          "name": "",
          "type": "bool"
        }
      ],
      "stateMutability": "view",
      "type": "function"
    },
    {
      "inputs": [
        {
          "internalType": "uint256",
          "name": "tokenID",
          "type": "uint256"
        },
        {
          "internalType": "address",
          "name": "tokenAddress_",
          "type": "address"
        }
      ],
      "name": "getNFTPrice",
      "outputs": [
        {
          "internalType": "string",
          "name": "",
          "type": "string"
        },
        {
          "internalType": "uint256",
          "name": "",
          "type": "uint256"
        }
      ],
      "stateMutability": "view",
      "type": "function"
    },
    {
      "inputs": [
        {
          "components": [
            {
              "internalType": "address",
              "name": "tokenAddress",
              "type": "address"
            },
            {
              "internalType": "uint256",
              "name": "amount",
              "type": "uint256"
            }
          ],
          "internalType": "struct TCF_NFTPrice.priceTypeAndAomut[][6]",
          "name": "prices",
          "type": "tuple[][6]"
        },
        {
          "internalType": "bool",
          "name": "checkParams",
          "type": "bool"
        }
      ],
      "name": "initPrice",
      "outputs": [],
      "stateMutability": "nonpayable",
      "type": "function"
    },
    {
      "inputs": [],
      "name": "initedTokenAddress",
      "outputs": [
        {
          "internalType": "uint8",
          "name": "",
          "type": "uint8"
        }
      ],
      "stateMutability": "view",
      "type": "function"
    },
    {
      "inputs": [
        {
          "internalType": "address",
          "name": "account",
          "type": "address"
        },
        {
          "internalType": "address",
          "name": "operator",
          "type": "address"
        }
      ],
      "name": "isApprovedForAll",
      "outputs": [
        {
          "internalType": "bool",
          "name": "",
          "type": "bool"
        }
      ],
      "stateMutability": "view",
      "type": "function"
    },
    {
      "inputs": [
        {
          "internalType": "address",
          "name": "account",
          "type": "address"
        },
        {
          "internalType": "uint256",
          "name": "id",
          "type": "uint256"
        },
        {
          "internalType": "uint256",
          "name": "amount",
          "type": "uint256"
        },
        {
          "internalType": "bytes",
          "name": "data",
          "type": "bytes"
        }
      ],
      "name": "mint",
      "outputs": [],
      "stateMutability": "nonpayable",
      "type": "function"
    },
    {
      "inputs": [
        {
          "internalType": "address",
          "name": "to",
          "type": "address"
        },
        {
          "internalType": "uint256[]",
          "name": "ids",
          "type": "uint256[]"
        },
        {
          "internalType": "uint256[]",
          "name": "amounts",
          "type": "uint256[]"
        },
        {
          "internalType": "bytes",
          "name": "data",
          "type": "bytes"
        }
      ],
      "name": "mintBatch",
      "outputs": [],
      "stateMutability": "nonpayable",
      "type": "function"
    },
    {
      "inputs": [],
      "name": "owner",
      "outputs": [
        {
          "internalType": "address",
          "name": "",
          "type": "address"
        }
      ],
      "stateMutability": "view",
      "type": "function"
    },
    {
      "inputs": [],
      "name": "renounceOwnership",
      "outputs": [],
      "stateMutability": "nonpayable",
      "type": "function"
    },
    {
      "inputs": [
        {
          "internalType": "address",
          "name": "from",
          "type": "address"
        },
        {
          "internalType": "address",
          "name": "to",
          "type": "address"
        },
        {
          "internalType": "uint256[]",
          "name": "ids",
          "type": "uint256[]"
        },
        {
          "internalType": "uint256[]",
          "name": "amounts",
          "type": "uint256[]"
        },
        {
          "internalType": "bytes",
          "name": "data",
          "type": "bytes"
        }
      ],
      "name": "safeBatchTransferFrom",
      "outputs": [],
      "stateMutability": "nonpayable",
      "type": "function"
    },
    {
      "inputs": [
        {
          "internalType": "address",
          "name": "from",
          "type": "address"
        },
        {
          "internalType": "address",
          "name": "to",
          "type": "address"
        },
        {
          "internalType": "uint256",
          "name": "id",
          "type": "uint256"
        },
        {
          "internalType": "uint256",
          "name": "amount",
          "type": "uint256"
        },
        {
          "internalType": "bytes",
          "name": "data",
          "type": "bytes"
        }
      ],
      "name": "safeTransferFrom",
      "outputs": [],
      "stateMutability": "nonpayable",
      "type": "function"
    },
    {
      "inputs": [
        {
          "internalType": "address",
          "name": "operator",
          "type": "address"
        },
        {
          "internalType": "bool",
          "name": "approved",
          "type": "bool"
        }
      ],
      "name": "setApprovalForAll",
      "outputs": [],
      "stateMutability": "nonpayable",
      "type": "function"
    },
    {
      "inputs": [
        {
          "internalType": "uint256[]",
          "name": "tokenIds",
          "type": "uint256[]"
        },
        {
          "internalType": "bytes[]",
          "name": "URIs",
          "type": "bytes[]"
        }
      ],
      "name": "setTokenURI",
      "outputs": [],
      "stateMutability": "nonpayable",
      "type": "function"
    },
    {
      "inputs": [
        {
          "internalType": "address",
          "name": "",
          "type": "address"
        }
      ],
      "name": "supportTokenType",
      "outputs": [
        {
          "internalType": "uint8",
          "name": "",
          "type": "uint8"
        }
      ],
      "stateMutability": "view",
      "type": "function"
    },
    {
      "inputs": [],
      "name": "supportedTokenAmount",
      "outputs": [
        {
          "internalType": "uint256",
          "name": "",
          "type": "uint256"
        }
      ],
      "stateMutability": "view",
      "type": "function"
    },
    {
      "inputs": [
        {
          "internalType": "bytes4",
          "name": "interfaceId",
          "type": "bytes4"
        }
      ],
      "name": "supportsInterface",
      "outputs": [
        {
          "internalType": "bool",
          "name": "",
          "type": "bool"
        }
      ],
      "stateMutability": "view",
      "type": "function"
    },
    {
      "inputs": [
        {
          "internalType": "uint256",
          "name": "",
          "type": "uint256"
        }
      ],
      "name": "tokenAddress_array",
      "outputs": [
        {
          "internalType": "address",
          "name": "",
          "type": "address"
        }
      ],
      "stateMutability": "view",
      "type": "function"
    },
    {
      "inputs": [
        {
          "internalType": "uint256",
          "name": "id",
          "type": "uint256"
        }
      ],
      "name": "totalSupply",
      "outputs": [
        {
          "internalType": "uint256",
          "name": "",
          "type": "uint256"
        }
      ],
      "stateMutability": "view",
      "type": "function"
    },
    {
      "inputs": [
        {
          "internalType": "address",
          "name": "newOwner",
          "type": "address"
        }
      ],
      "name": "transferOwnership",
      "outputs": [],
      "stateMutability": "nonpayable",
      "type": "function"
    },
    {
      "inputs": [
        {
          "internalType": "uint256",
          "name": "tokenId",
          "type": "uint256"
        }
      ],
      "name": "uri",
      "outputs": [
        {
          "internalType": "string",
          "name": "",
          "type": "string"
        }
      ],
      "stateMutability": "view",
      "type": "function"
    }
  ],
  "contractName": "TCF_NFTPrice",
  "sourceName": "contracts/TCF_NFTPrice.sol",
  "bytecode": "0x60a06040819052600060808190526200001b916005916200009a565b503480156200002957600080fd5b506200003e6200003862000044565b62000048565b6200017d565b3390565b600480546001600160a01b038381166001600160a01b0319831681179093556040519116919082907f8be0079c531659141344cd1fd0a4f28419497f9722a3daafe3b4186f6b6457e090600090a35050565b828054620000a89062000140565b90600052602060002090601f016020900481019282620000cc576000855562000117565b82601f10620000e757805160ff191683800117855562000117565b8280016001018555821562000117579182015b8281111562000117578251825591602001919060010190620000fa565b506200012592915062000129565b5090565b5b808211156200012557600081556001016200012a565b6002810460018216806200015557607f821691505b602082108114156200017757634e487b7160e01b600052602260045260246000fd5b50919050565b613873806200018d6000396000f3fe608060405234801561001057600080fd5b50600436106101c35760003560e01c8063731133e9116100f9578063bd85b03911610097578063e054099711610071578063e0540997146103d9578063e985e9c5146103ec578063f242432a146103ff578063f2fde38b14610412576101c3565b8063bd85b0391461039d578063bf14b064146103b0578063c9b6b485146103b8576101c3565b806386ff9113116100d357806386ff91131461034e5780638da5cb5b1461036f578063a22cb46514610377578063ac5f8c581461038a576101c3565b8063731133e9146103155780637624b88b1461032857806378f91b9c1461033b576101c3565b80632eb2c2d6116101665780634e1273f4116101405780634e1273f4146102c75780634f558e79146102e757806355826313146102fa578063715018a61461030d576101c3565b80632eb2c2d614610281578063333cc85d1461029457806333f190ee146102a7576101c3565b806319d62e57116101a257806319d62e57146102315780631f3fd618146102515780631f7fdffa146102645780632336128314610279576101c3565b8062fdd58e146101c857806301ffc9a7146101f15780630e89341c14610211575b600080fd5b6101db6101d6366004612b1b565b610425565b6040516101e89190613539565b60405180910390f35b6102046101ff366004612d3f565b610481565b6040516101e8919061310f565b61022461021f366004612e32565b6104c9565b6040516101e8919061311a565b61024461023f366004612e32565b6104d4565b6040516101e89190613020565b61022461025f366004612c72565b6104fe565b610277610272366004612a5e565b610740565b005b6101db61075a565b61027761028f366004612957565b610760565b6102776102a236600461290b565b6107be565b6102ba6102b536600461290b565b610a0f565b6040516101e89190613550565b6102da6102d5366004612bd0565b610a24565b6040516101e891906130d7565b6102046102f5366004612e32565b610b43565b610277610308366004612e6c565b610b56565b610277610bc9565b610277610323366004612b44565b610bdd565b610277610336366004612c30565b610be9565b610277610349366004612cd7565b610d5b565b61036161035c366004612e4a565b610e3d565b6040516101e892919061312d565b610244610eaf565b610277610385366004612af2565b610ebf565b610277610398366004612ca4565b610ed5565b6101db6103ab366004612e32565b6111f2565b6102ba611204565b6103cb6103c6366004612e32565b61120d565b6040516101e892919061355e565b6102246103e7366004612b96565b611232565b6102046103fa366004612925565b61123d565b61027761040d3660046129fc565b61126b565b61027761042036600461290b565b6112c2565b60006001600160a01b0383166104565760405162461bcd60e51b815260040161044d906131dd565b60405180910390fd5b5060008181526001602090815260408083206001600160a01b03861684529091529020545b92915050565b60006001600160e01b03198216636cdb3d1360e11b14806104b257506001600160e01b031982166303a24d0760e21b145b806104c157506104c1826112fc565b90505b919050565b60606104c182611315565b600a81815481106104e457600080fd5b6000918252602090912001546001600160a01b0316905081565b606060005b600681101561072a5760095483826006811061052f57634e487b7160e01b600052603260045260246000fd5b60200281019061053f9190613577565b90501461056e57505060408051808201909152600a815269282924a1a2a9afa622a760b11b60208201526104c4565b600083826006811061059057634e487b7160e01b600052603260045260246000fd5b6020028101906105a09190613577565b808060200260200160405190810160405280939291908181526020016000905b828210156105ec576105dd60408302860136819003810190612df4565b815260200190600101906105c0565b5050505050905060005b6009548110156107175760006001600160a01b031682828151811061062b57634e487b7160e01b600052603260045260246000fd5b6020026020010151600001516001600160a01b03161415801561069a57506008600083838151811061066d57634e487b7160e01b600052603260045260246000fd5b602090810291909101810151516001600160a01b031682528101919091526040016000205460ff16600114155b15610707576106fd8282815181106106c257634e487b7160e01b600052603260045260246000fd5b602002602001015160000151604051806040016040528060118152602001701513d2d15397d55394d5541413d4951151607a1b8152506113f5565b93505050506104c4565b61071081613738565b90506105f6565b50508061072390613738565b9050610503565b5050604080516020810190915260008152919050565b610748611429565b61075484848484611468565b50505050565b60095481565b6107686115f9565b6001600160a01b0316856001600160a01b0316148061078e575061078e856103fa6115f9565b6107aa5760405162461bcd60e51b815260040161044d90613227565b6107b785858585856115fd565b5050505050565b6107c6611429565b60408051808201909152601081526f13905515549157d513d2d15397d1115360821b60208201526001600160a01b0382166108145760405162461bcd60e51b815260040161044d919061311a565b506001600160a01b03811660009081526008602090815260409182902054825180840190935260118352701513d2d15397d55394d5541413d4951151607a1b9183019190915260ff166001149061086c9083906113f5565b9061088a5760405162461bcd60e51b815260040161044d919061311a565b506001600160a01b0381166000908152600860205260408120805460ff191690555b60016009546108bb919061368e565b8110156109f357816001600160a01b0316600a82815481106108ed57634e487b7160e01b600052603260045260246000fd5b6000918252602090912001546001600160a01b031614156109e157600a6002600954610919919061368e565b8154811061093757634e487b7160e01b600052603260045260246000fd5b600091825260209091200154600a80546001600160a01b03909216918390811061097157634e487b7160e01b600052603260045260246000fd5b9060005260206000200160006101000a8154816001600160a01b0302191690836001600160a01b03160217905550600a8054806109be57634e487b7160e01b600052603160045260246000fd5b600082815260209020810160001990810180546001600160a01b03191690550190555b806109eb81613738565b9150506108ac565b50600160096000828254610a07919061368e565b909155505050565b60086020526000908152604090205460ff1681565b60608151835114610a475760405162461bcd60e51b815260040161044d90613413565b600083516001600160401b03811115610a7057634e487b7160e01b600052604160045260246000fd5b604051908082528060200260200182016040528015610a99578160200160208202803683370190505b50905060005b8451811015610b3b57610b00858281518110610acb57634e487b7160e01b600052603260045260246000fd5b6020026020010151858381518110610af357634e487b7160e01b600052603260045260246000fd5b6020026020010151610425565b828281518110610b2057634e487b7160e01b600052603260045260246000fd5b6020908102919091010152610b3481613738565b9050610a9f565b509392505050565b600080610b4f836111f2565b1192915050565b610b5e611429565b6000610b6a84846117d7565b90508051600014610b8f578060405162461bcd60e51b815260040161044d919061311a565b6001600160a01b038316610ba257600192505b506000928352600c602090815260408085206001600160a01b039094168552929052912055565b610bd1611429565b610bdb6000611895565b565b610754848484846118e7565b610bf1611429565b8015610c29576000610c02836119fa565b90508051600014610c27578060405162461bcd60e51b815260040161044d919061311a565b505b815160005b81811015610d0b57600160086000868481518110610c5c57634e487b7160e01b600052603260045260246000fd5b60200260200101516001600160a01b03166001600160a01b0316815260200190815260200160002060006101000a81548160ff021916908360ff160217905550600a848281518110610cbe57634e487b7160e01b600052603260045260246000fd5b60209081029190910181015182546001810184556000938452919092200180546001600160a01b0319166001600160a01b0390921691909117905580610d0381613738565b915050610c2e565b50600b5460ff1660011415610d37578060096000828254610d2c9190613657565b90915550610d569050565b600b805460ff19166001908117909155610d52908290613657565b6009555b505050565b610d63611429565b82811415610d835760405162461bcd60e51b815260040161044d90613381565b8260005b81811015610e3557610e25868683818110610db257634e487b7160e01b600052603260045260246000fd5b90506020020135858584818110610dd957634e487b7160e01b600052603260045260246000fd5b9050602002810190610deb91906135bd565b8080601f016020809104026020016040519081016040528093929190818152602001838380828437600092019190915250611def92505050565b610e2e81613738565b9050610d87565b505050505050565b6060600080610e4c85856117d7565b90508051600014610e6257915060009050610ea8565b6001600160a01b038416610e7557600193505b5050506000828152600c602090815260408083206001600160a01b03851684528252808320548151928301909152918152905b9250929050565b6004546001600160a01b03165b90565b610ed1610eca6115f9565b8383611e53565b5050565b610edd611429565b600b5460408051808201909152601281527114149250d154d7d25392551250531256915160721b602082015290610100900460ff1615610f305760405162461bcd60e51b815260040161044d919061311a565b508015610f69576000610f42836104fe565b90508051600014610f67578060405162461bcd60e51b815260040161044d919061311a565b505b6040805160c0808201835262ed4e008252630107ac0060208084019190915263013c68008385015263017124006060808501919091526301a5e0006080808601919091526301da9c0060a0808701919091528651948501875260288552603293850193909352603c95840195909552605090830152605a93820193909352606492810192909252906000610ffd8580613577565b9050905060005b60068110156111db5783816006811061102d57634e487b7160e01b600052603260045260246000fd5b6020020151600c600083815260200190815260200160002060010160016101000a81548163ffffffff021916908363ffffffff16021790555082816006811061108657634e487b7160e01b600052603260045260246000fd5b602090810291909101516000838152600c90925260408220600101805460ff191660ff9092169190911790555b828110156111ca5760008783600681106110dd57634e487b7160e01b600052603260045260246000fd5b6020028101906110ed9190613577565b8381811061110b57634e487b7160e01b600052603260045260246000fd5b611121926020604090920201908101915061290b565b90506001600160a01b038116611135575060015b87836006811061115557634e487b7160e01b600052603260045260246000fd5b6020028101906111659190613577565b8381811061118357634e487b7160e01b600052603260045260246000fd5b6000868152600c602090815260408083206001600160a01b0397909716835295815290859020919094029290920190920135905550806111c281613738565b9150506110b3565b506111d481613738565b9050611004565b5050600b805461ff00191661010017905550505050565b60009081526007602052604090205490565b600b5460ff1681565b600c6020526000908152604090206001015460ff811690610100900463ffffffff1682565b60606104c1826119fa565b6001600160a01b03918216600090815260026020908152604080832093909416825291909152205460ff1690565b6112736115f9565b6001600160a01b0316856001600160a01b031614806112995750611299856103fa6115f9565b6112b55760405162461bcd60e51b815260040161044d90613227565b6107b78585858585611ef6565b6112ca611429565b6001600160a01b0381166112f05760405162461bcd60e51b815260040161044d90613197565b6112f981611895565b50565b6001600160e01b031981166301ffc9a760e01b14919050565b600081815260066020526040812080546060929190611333906136d1565b80601f016020809104026020016040519081016040528092919081815260200182805461135f906136d1565b80156113ac5780601f10611381576101008083540402835291602001916113ac565b820191906000526020600020905b81548152906001019060200180831161138f57829003601f168201915b5050505050905060008151116113ca576113c583612057565b6113ee565b6005816040516020016113de929190612f7a565b6040516020818303038152906040525b9392505050565b606081611401846120eb565b604051602001611412929190612f3e565b604051602081830303815290604052905092915050565b6114316115f9565b6001600160a01b0316611442610eaf565b6001600160a01b031614610bdb5760405162461bcd60e51b815260040161044d90613304565b6001600160a01b03841661148e5760405162461bcd60e51b815260040161044d906134a4565b81518351146114af5760405162461bcd60e51b815260040161044d9061345c565b60006114b96115f9565b90506114ca816000878787876122da565b60005b8451811015611582578381815181106114f657634e487b7160e01b600052603260045260246000fd5b60200260200101516001600087848151811061152257634e487b7160e01b600052603260045260246000fd5b602002602001015181526020019081526020016000206000886001600160a01b03166001600160a01b03168152602001908152602001600020600082825461156a9190613657565b9091555081905061157a81613738565b9150506114cd565b50846001600160a01b031660006001600160a01b0316826001600160a01b03167f4a39dc06d4c0dbc64b70af90fd698a233a518aa5d07e595d983b8c0526c8f7fb87876040516115d39291906130ea565b60405180910390a46115ea81600087878787610e35565b6107b7816000878787876122e8565b3390565b815183511461161e5760405162461bcd60e51b815260040161044d9061345c565b6001600160a01b0384166116445760405162461bcd60e51b815260040161044d90613275565b600061164e6115f9565b905061165e8187878787876122da565b60005b845181101561176357600085828151811061168c57634e487b7160e01b600052603260045260246000fd5b6020026020010151905060008583815181106116b857634e487b7160e01b600052603260045260246000fd5b60209081029190910181015160008481526001835260408082206001600160a01b038e1683529093529190912054909150818110156117095760405162461bcd60e51b815260040161044d906132ba565b60008381526001602090815260408083206001600160a01b038e8116855292528083208585039055908b16825281208054849290611748908490613657565b925050819055505050508061175c90613738565b9050611661565b50846001600160a01b0316866001600160a01b0316826001600160a01b03167f4a39dc06d4c0dbc64b70af90fd698a233a518aa5d07e595d983b8c0526c8f7fb87876040516117b39291906130ea565b60405180910390a46117c9818787878787610e35565b610e358187878787876122e8565b6060600583111561180c575060408051808201909152600d81526c544f4b454e49445f52414e474560981b602082015261047b565b6001600160a01b0382161580159061184057506001600160a01b03821660009081526008602052604090205460ff16600114155b1561187f5761187882604051806040016040528060118152602001701513d2d15397d55394d5541413d4951151607a1b8152506113f5565b905061047b565b5060408051602081019091526000815292915050565b600480546001600160a01b038381166001600160a01b0319831681179093556040519116919082907f8be0079c531659141344cd1fd0a4f28419497f9722a3daafe3b4186f6b6457e090600090a35050565b6001600160a01b03841661190d5760405162461bcd60e51b815260040161044d906134a4565b60006119176115f9565b905060006119248561240d565b905060006119318561240d565b9050611942836000898585896122da565b60008681526001602090815260408083206001600160a01b038b16845290915281208054879290611974908490613657565b92505081905550866001600160a01b031660006001600160a01b0316846001600160a01b03167fc3d58168c5ae7397731d063d5bbf3d657854427343f4c083240f7aacaa2d0f6289896040516119cb929190613542565b60405180910390a46119e283600089858589610e35565b6119f183600089898989612466565b50505050505050565b80516060906002811115611a2e57505060408051808201909152600881526720a222292fa622a760c11b60208201526104c4565b60008060005b83811015611dd65760086000878381518110611a6057634e487b7160e01b600052603260045260246000fd5b6020908102919091018101516001600160a01b031682528101919091526040016000205460ff1660011415611aee57611ae3868281518110611ab257634e487b7160e01b600052603260045260246000fd5b60200260200101516040518060400160405280600b81526020016a414444525f45584953545360a81b8152506113f5565b9450505050506104c4565b6040805160048152602481019091526020810180516001600160e01b03166395d89b4160e01b17905286516000908190899085908110611b3e57634e487b7160e01b600052603260045260246000fd5b60200260200101516001600160a01b031683604051611b5d9190612f22565b600060405180830381855afa9150503d8060008114611b98576040519150601f19603f3d011682016040523d82523d6000602084013e611b9d565b606091505b5091509150818015611bb0575060008151115b15611d8f57600081806020019051810190611bcb9190612d77565b80516020808301919091206040805180820190915260038152622a21a360e91b9201919091529091507fbd85aed5ecc398febb2e1d42a0101e60c30b2f7eab752bfd852f51a42a4800728114801590611c6057506040805180820190915260048152631554d11560e21b6020909101527f8b1a1d9c2b109e527c9134b25b1a1833b16b6594f92daa9f6d9b7a6024bce9d08114155b15611cca57611cba8b8781518110611c8857634e487b7160e01b600052603260045260246000fd5b60200260200101516040518060400160405280600c81526020016b1393d517d510d197d554d11560a21b8152506113f5565b99505050505050505050506104c4565b6040805180820190915260038152622a21a360e91b6020909101527fbd85aed5ecc398febb2e1d42a0101e60c30b2f7eab752bfd852f51a42a480072811415611d4c578715611d435760405180604001604052806007815260200166222aa82faa21a360c91b81525099505050505050505050506104c4565b60019750611d88565b8615611d83576040518060400160405280600881526020016711155417d554d11560c21b81525099505050505050505050506104c4565b600196505b5050611dc0565b611db2898581518110611c8857634e487b7160e01b600052603260045260246000fd5b9750505050505050506104c4565b5050508080611dce90613738565b915050611a34565b5050604080516020810190915260008152949350505050565b60008281526006602090815260409091208251611e0e928401906126c4565b50817f6bb7ff708619ba0610cba295a58592e0451dee2622938c8755667688daf3529b611e3a846104c9565b604051611e47919061311a565b60405180910390a25050565b816001600160a01b0316836001600160a01b03161415611e855760405162461bcd60e51b815260040161044d906133ca565b6001600160a01b0383811660008181526002602090815260408083209487168084529490915290819020805460ff1916851515179055517f17307eab39ab6107e8899845ad3d59bd9653f200f220920489ca2b5937696c3190611ee990859061310f565b60405180910390a3505050565b6001600160a01b038416611f1c5760405162461bcd60e51b815260040161044d90613275565b6000611f266115f9565b90506000611f338561240d565b90506000611f408561240d565b9050611f508389898585896122da565b60008681526001602090815260408083206001600160a01b038c16845290915290205485811015611f935760405162461bcd60e51b815260040161044d906132ba565b60008781526001602090815260408083206001600160a01b038d8116855292528083208985039055908a16825281208054889290611fd2908490613657565b92505081905550876001600160a01b0316896001600160a01b0316856001600160a01b03167fc3d58168c5ae7397731d063d5bbf3d657854427343f4c083240f7aacaa2d0f628a8a604051612028929190613542565b60405180910390a461203e848a8a86868a610e35565b61204c848a8a8a8a8a612466565b505050505050505050565b606060038054612066906136d1565b80601f0160208091040260200160405190810160405280929190818152602001828054612092906136d1565b80156120df5780601f106120b4576101008083540402835291602001916120df565b820191906000526020600020905b8154815290600101906020018083116120c257829003601f168201915b50505050509050919050565b60408051602a808252606082810190935283831b916f181899199a1a9b1b9c1cb0b131b232b360811b9160009190602082018180368337019050509050600360fc1b8160008151811061214e57634e487b7160e01b600052603260045260246000fd5b60200101906001600160f81b031916908160001a905350600f60fb1b8160018151811061218b57634e487b7160e01b600052603260045260246000fd5b60200101906001600160f81b031916908160001a90535060005b60148110156122d15760008482601481106121d057634e487b7160e01b600052603260045260246000fd5b1a905083600482901c60ff16601081106121fa57634e487b7160e01b600052603260045260246000fd5b1a60f81b8361220a84600261366f565b612215906002613657565b8151811061223357634e487b7160e01b600052603260045260246000fd5b60200101906001600160f81b031916908160001a90535083600f82166010811061226d57634e487b7160e01b600052603260045260246000fd5b1a60f81b8361227d84600261366f565b612288906003613657565b815181106122a657634e487b7160e01b600052603260045260246000fd5b60200101906001600160f81b031916908160001a9053505080806122c990613738565b9150506121a5565b50949350505050565b610e35868686868686612537565b6122fa846001600160a01b03166126b5565b15610e355760405163bc197c8160e01b81526001600160a01b0385169063bc197c81906123339089908990889088908890600401613034565b602060405180830381600087803b15801561234d57600080fd5b505af192505050801561237d575060408051601f3d908101601f1916820190925261237a91810190612d5b565b60015b6123dd5761238961377f565b806308c379a014156123c3575061239e613796565b806123a957506123c5565b8060405162461bcd60e51b815260040161044d919061311a565b505b60405162461bcd60e51b815260040161044d906134e5565b6001600160e01b0319811663bc197c8160e01b146119f15760405162461bcd60e51b815260040161044d9061314f565b6040805160018082528183019092526060916000919060208083019080368337019050509050828160008151811061245557634e487b7160e01b600052603260045260246000fd5b602090810291909101015292915050565b612478846001600160a01b03166126b5565b15610e355760405163f23a6e6160e01b81526001600160a01b0385169063f23a6e61906124b19089908990889088908890600401613092565b602060405180830381600087803b1580156124cb57600080fd5b505af19250505080156124fb575060408051601f3d908101601f191682019092526124f891810190612d5b565b60015b6125075761238961377f565b6001600160e01b0319811663f23a6e6160e01b146119f15760405162461bcd60e51b815260040161044d9061314f565b612545868686868686610e35565b6001600160a01b0385166125e85760005b83518110156125e65782818151811061257f57634e487b7160e01b600052603260045260246000fd5b6020026020010151600760008684815181106125ab57634e487b7160e01b600052603260045260246000fd5b6020026020010151815260200190815260200160002060008282546125d09190613657565b909155506125df905081613738565b9050612556565b505b6001600160a01b038416610e355760005b83518110156119f157600084828151811061262457634e487b7160e01b600052603260045260246000fd5b60200260200101519050600084838151811061265057634e487b7160e01b600052603260045260246000fd5b60200260200101519050600060076000848152602001908152602001600020549050818110156126925760405162461bcd60e51b815260040161044d90613339565b600092835260076020526040909220910390556126ae81613738565b90506125f9565b6001600160a01b03163b151590565b8280546126d0906136d1565b90600052602060002090601f0160209004810192826126f25760008555612738565b82601f1061270b57805160ff1916838001178555612738565b82800160010185558215612738579182015b8281111561273857825182559160200191906001019061271d565b50612744929150612748565b5090565b5b808211156127445760008155600101612749565b80356001600160a01b03811681146104c457600080fd5b600082601f830112612784578081fd5b8135602061279182613601565b60405161279e828261370c565b8381528281019150858301838502870184018810156127bb578586fd5b855b858110156127e0576127ce8261275d565b845292840192908401906001016127bd565b5090979650505050505050565b8060c0810183101561047b57600080fd5b60008083601f84011261280f578182fd5b5081356001600160401b03811115612825578182fd5b6020830191508360208083028501011115610ea857600080fd5b600082601f83011261284f578081fd5b8135602061285c82613601565b604051612869828261370c565b838152828101915085830183850287018401881015612886578586fd5b855b858110156127e057813584529284019290840190600101612888565b803580151581146104c457600080fd5b600082601f8301126128c4578081fd5b81356128cf81613624565b6040516128dc828261370c565b8281528560208487010111156128f0578384fd5b82602086016020830137918201602001929092529392505050565b60006020828403121561291c578081fd5b6113ee8261275d565b60008060408385031215612937578081fd5b6129408361275d565b915061294e6020840161275d565b90509250929050565b600080600080600060a0868803121561296e578081fd5b6129778661275d565b94506129856020870161275d565b935060408601356001600160401b03808211156129a0578283fd5b6129ac89838a0161283f565b945060608801359150808211156129c1578283fd5b6129cd89838a0161283f565b935060808801359150808211156129e2578283fd5b506129ef888289016128b4565b9150509295509295909350565b600080600080600060a08688031215612a13578081fd5b612a1c8661275d565b9450612a2a6020870161275d565b9350604086013592506060860135915060808601356001600160401b03811115612a52578182fd5b6129ef888289016128b4565b60008060008060808587031215612a73578384fd5b612a7c8561275d565b935060208501356001600160401b0380821115612a97578485fd5b612aa38883890161283f565b94506040870135915080821115612ab8578384fd5b612ac48883890161283f565b93506060870135915080821115612ad9578283fd5b50612ae6878288016128b4565b91505092959194509250565b60008060408385031215612b04578182fd5b612b0d8361275d565b915061294e602084016128a4565b60008060408385031215612b2d578182fd5b612b368361275d565b946020939093013593505050565b60008060008060808587031215612b59578182fd5b612b628561275d565b9350602085013592506040850135915060608501356001600160401b03811115612b8a578182fd5b612ae6878288016128b4565b600060208284031215612ba7578081fd5b81356001600160401b03811115612bbc578182fd5b612bc884828501612774565b949350505050565b60008060408385031215612be2578182fd5b82356001600160401b0380821115612bf8578384fd5b612c0486838701612774565b93506020850135915080821115612c19578283fd5b50612c268582860161283f565b9150509250929050565b60008060408385031215612c42578182fd5b82356001600160401b03811115612c57578283fd5b612c6385828601612774565b92505061294e602084016128a4565b600060208284031215612c83578081fd5b81356001600160401b03811115612c98578182fd5b612bc8848285016127ed565b60008060408385031215612cb6578182fd5b82356001600160401b03811115612ccb578283fd5b612c63858286016127ed565b60008060008060408587031215612cec578182fd5b84356001600160401b0380821115612d02578384fd5b612d0e888389016127fe565b90965094506020870135915080821115612d26578384fd5b50612d33878288016127fe565b95989497509550505050565b600060208284031215612d50578081fd5b81356113ee81613827565b600060208284031215612d6c578081fd5b81516113ee81613827565b600060208284031215612d88578081fd5b81516001600160401b03811115612d9d578182fd5b8201601f81018413612dad578182fd5b8051612db881613624565b604051612dc5828261370c565b828152866020848601011115612dd9578485fd5b612dea8360208301602087016136a5565b9695505050505050565b600060408284031215612e05578081fd5b604051612e1360408261370c565b612e1c8361275d565b8152602083013560208201528091505092915050565b600060208284031215612e43578081fd5b5035919050565b60008060408385031215612e5c578182fd5b8235915061294e6020840161275d565b600080600060608486031215612e80578081fd5b83359250612e906020850161275d565b9150604084013590509250925092565b6000815180845260208085019450808401835b83811015612ecf57815187529582019590820190600101612eb3565b509495945050505050565b60008151808452612ef28160208601602086016136a5565b601f01601f19169290920160200192915050565b60008151612f188185602086016136a5565b9290920192915050565b60008251612f348184602087016136a5565b9190910192915050565b60008351612f508184602088016136a5565b600160fd1b9083019081528351612f6e8160018401602088016136a5565b01600101949350505050565b8254600090819060028104600180831680612f9657607f831692505b6020808410821415612fb657634e487b7160e01b87526022600452602487fd5b818015612fca5760018114612fdb57613007565b60ff19861689528489019650613007565b612fe48b61364b565b885b86811015612fff5781548b820152908501908301612fe6565b505084890196505b5050505050506130178185612f06565b95945050505050565b6001600160a01b0391909116815260200190565b6001600160a01b0386811682528516602082015260a06040820181905260009061306090830186612ea0565b82810360608401526130728186612ea0565b905082810360808401526130868185612eda565b98975050505050505050565b6001600160a01b03868116825285166020820152604081018490526060810183905260a0608082018190526000906130cc90830184612eda565b979650505050505050565b6000602082526113ee6020830184612ea0565b6000604082526130fd6040830185612ea0565b82810360208401526130178185612ea0565b901515815260200190565b6000602082526113ee6020830184612eda565b6000604082526131406040830185612eda565b90508260208301529392505050565b60208082526028908201527f455243313135353a204552433131353552656365697665722072656a656374656040820152676420746f6b656e7360c01b606082015260800190565b60208082526026908201527f4f776e61626c653a206e6577206f776e657220697320746865207a65726f206160408201526564647265737360d01b606082015260800190565b6020808252602a908201527f455243313135353a2061646472657373207a65726f206973206e6f742061207660408201526930b634b21037bbb732b960b11b606082015260800190565b6020808252602e908201527f455243313135353a2063616c6c6572206973206e6f7420746f6b656e206f776e60408201526d195c881bdc88185c1c1c9bdd995960921b606082015260800190565b60208082526025908201527f455243313135353a207472616e7366657220746f20746865207a65726f206164604082015264647265737360d81b606082015260800190565b6020808252602a908201527f455243313135353a20696e73756666696369656e742062616c616e636520666f60408201526939103a3930b739b332b960b11b606082015260800190565b6020808252818101527f4f776e61626c653a2063616c6c6572206973206e6f7420746865206f776e6572604082015260600190565b60208082526028908201527f455243313135353a206275726e20616d6f756e74206578636565647320746f74604082015267616c537570706c7960c01b606082015260800190565b60208082526029908201527f746f6b656e49647320616e6420555249732073686f756c6420686176652073616040820152680daca40d8cadccee8d60bb1b606082015260800190565b60208082526029908201527f455243313135353a2073657474696e6720617070726f76616c20737461747573604082015268103337b91039b2b63360b91b606082015260800190565b60208082526029908201527f455243313135353a206163636f756e747320616e6420696473206c656e677468604082015268040dad2e6dac2e8c6d60bb1b606082015260800190565b60208082526028908201527f455243313135353a2069647320616e6420616d6f756e7473206c656e677468206040820152670dad2e6dac2e8c6d60c31b606082015260800190565b60208082526021908201527f455243313135353a206d696e7420746f20746865207a65726f206164647265736040820152607360f81b606082015260800190565b60208082526034908201527f455243313135353a207472616e7366657220746f206e6f6e2d455243313135356040820152732932b1b2b4bb32b91034b6b83632b6b2b73a32b960611b606082015260800190565b90815260200190565b918252602082015260400190565b60ff91909116815260200190565b60ff92909216825263ffffffff16602082015260400190565b6000808335601e1984360301811261358d578283fd5b8301803591506001600160401b038211156135a6578283fd5b6020019150604081023603821315610ea857600080fd5b6000808335601e198436030181126135d3578283fd5b8301803591506001600160401b038211156135ec578283fd5b602001915036819003821315610ea857600080fd5b60006001600160401b0382111561361a5761361a613769565b5060209081020190565b60006001600160401b0382111561363d5761363d613769565b50601f01601f191660200190565b60009081526020902090565b6000821982111561366a5761366a613753565b500190565b600081600019048311821515161561368957613689613753565b500290565b6000828210156136a0576136a0613753565b500390565b60005b838110156136c05781810151838201526020016136a8565b838111156107545750506000910152565b6002810460018216806136e557607f821691505b6020821081141561370657634e487b7160e01b600052602260045260246000fd5b50919050565b601f8201601f191681016001600160401b038111828210171561373157613731613769565b6040525050565b600060001982141561374c5761374c613753565b5060010190565b634e487b7160e01b600052601160045260246000fd5b634e487b7160e01b600052604160045260246000fd5b600060033d1115610ebc57600481823e5160e01c90565b600060443d10156137a657610ebc565b6040516003193d81016004833e81513d6001600160401b0381602484011181841117156137d7575050505050610ebc565b82850191508151818111156137f157505050505050610ebc565b843d870101602082850101111561380d57505050505050610ebc565b61381c6020828601018761370c565b509094505050505090565b6001600160e01b0319811681146112f957600080fdfea26469706673582212202503a5070b9bd387ec88ff9f0a8873cbe1d34384b7dd3416027b45107dd281e164736f6c63430008010033",
  "linkReferences": {},
  "deployedLinkReferences": {},
  "immutableReferences": {},
  "inputSourceName": "project/contracts/TCF_NFTPrice.sol",
  "devdoc": {
    "kind": "dev",
    "methods": {
      "balanceOf(address,uint256)": {
        "details": "See {IERC1155-balanceOf}. Requirements: - `account` cannot be the zero address."
      },
      "balanceOfBatch(address[],uint256[])": {
        "details": "See {IERC1155-balanceOfBatch}. Requirements: - `accounts` and `ids` must have the same length."
      },
      "exists(uint256)": {
        "details": "Indicates whether any token exist with a given id, or not."
      },
      "isApprovedForAll(address,address)": {
        "details": "See {IERC1155-isApprovedForAll}."
      },
      "owner()": {
        "details": "Returns the address of the current owner."
      },
      "renounceOwnership()": {
        "details": "Leaves the contract without owner. It will not be possible to call `onlyOwner` functions. Can only be called by the current owner. NOTE: Renouncing ownership will leave the contract without an owner, thereby disabling any functionality that is only available to the owner."
      },
      "safeBatchTransferFrom(address,address,uint256[],uint256[],bytes)": {
        "details": "See {IERC1155-safeBatchTransferFrom}."
      },
      "safeTransferFrom(address,address,uint256,uint256,bytes)": {
        "details": "See {IERC1155-safeTransferFrom}."
      },
      "setApprovalForAll(address,bool)": {
        "details": "See {IERC1155-setApprovalForAll}."
      },
      "supportsInterface(bytes4)": {
        "details": "See {IERC165-supportsInterface}."
      },
      "totalSupply(uint256)": {
        "details": "Total amount of tokens in with a given id."
      },
      "transferOwnership(address)": {
        "details": "Transfers ownership of the contract to a new account (`newOwner`). Can only be called by the current owner."
      }
    },
    "version": 1
  },
  "evm": {
    "gasEstimates": {
      "creation": {
        "codeDepositCost": "2890200",
        "executionCost": "infinite",
        "totalCost": "infinite"
      },
      "external": {
        "NFTS(uint256)": "1331",
        "addSupportedToken(address[],bool)": "infinite",
        "balanceOf(address,uint256)": "1458",
        "balanceOfBatch(address[],uint256[])": "infinite",
        "changeNFTPrice(uint256,address,uint256)": "infinite",
        "checkInitPricesParams((address,uint256)[][6])": "infinite",
        "checkTokenAddressesCode(address[])": "infinite",
        "deleteSupportedToken(address)": "infinite",
        "exists(uint256)": "1290",
        "getNFTPrice(uint256,address)": "infinite",
        "initPrice((address,uint256)[][6],bool)": "infinite",
        "initedTokenAddress()": "1113",
        "isApprovedForAll(address,address)": "infinite",
        "mint(address,uint256,uint256,bytes)": "infinite",
        "mintBatch(address,uint256[],uint256[],bytes)": "infinite",
        "owner()": "1138",
        "renounceOwnership()": "infinite",
        "safeBatchTransferFrom(address,address,uint256[],uint256[],bytes)": "infinite",
        "safeTransferFrom(address,address,uint256,uint256,bytes)": "infinite",
        "setApprovalForAll(address,bool)": "infinite",
        "setTokenURI(uint256[],bytes[])": "infinite",
        "supportTokenType(address)": "1360",
        "supportedTokenAmount()": "1140",
        "supportsInterface(bytes4)": "649",
        "tokenAddress_array(uint256)": "2084",
        "totalSupply(uint256)": "1216",
        "transferOwnership(address)": "23837",
        "uri(uint256)": "infinite"
      },
      "internal": {
        "_checkAccessPriceDetail(uint256,address)": "infinite",
        "_checkTokenAddressesCode(address[] memory)": "infinite",
        "_detailAddr(address,string memory)": "infinite",
        "_toHexString(address)": "infinite"
      }
    }
  },
  "storageLayout": {
    "storage": [
      {
        "astId": 1211,
        "contract": "project/contracts/TCF_NFTPrice.sol:TCF_NFTPrice",
        "label": "_initialized",
        "offset": 0,
        "slot": "0",
        "type": "t_bool"
      },
      {
        "astId": 1214,
        "contract": "project/contracts/TCF_NFTPrice.sol:TCF_NFTPrice",
        "label": "_initializing",
        "offset": 1,
        "slot": "0",
        "type": "t_bool"
      },
      {
        "astId": 1307,
        "contract": "project/contracts/TCF_NFTPrice.sol:TCF_NFTPrice",
        "label": "_balances",
        "offset": 0,
        "slot": "1",
        "type": "t_mapping(t_uint256,t_mapping(t_address,t_uint256))"
      },
      {
        "astId": 1313,
        "contract": "project/contracts/TCF_NFTPrice.sol:TCF_NFTPrice",
        "label": "_operatorApprovals",
        "offset": 0,
        "slot": "2",
        "type": "t_mapping(t_address,t_mapping(t_address,t_bool))"
      },
      {
        "astId": 1315,
        "contract": "project/contracts/TCF_NFTPrice.sol:TCF_NFTPrice",
        "label": "_uri",
        "offset": 0,
        "slot": "3",
        "type": "t_string_storage"
      },
      {
        "astId": 1099,
        "contract": "project/contracts/TCF_NFTPrice.sol:TCF_NFTPrice",
        "label": "_owner",
        "offset": 0,
        "slot": "4",
        "type": "t_address"
      },
      {
        "astId": 2851,
        "contract": "project/contracts/TCF_NFTPrice.sol:TCF_NFTPrice",
        "label": "_baseURI",
        "offset": 0,
        "slot": "5",
        "type": "t_string_storage"
      },
      {
        "astId": 2855,
        "contract": "project/contracts/TCF_NFTPrice.sol:TCF_NFTPrice",
        "label": "_tokenURIs",
        "offset": 0,
        "slot": "6",
        "type": "t_mapping(t_uint256,t_string_storage)"
      },
      {
        "astId": 2691,
        "contract": "project/contracts/TCF_NFTPrice.sol:TCF_NFTPrice",
        "label": "_totalSupply",
        "offset": 0,
        "slot": "7",
        "type": "t_mapping(t_uint256,t_uint256)"
      },
      {
        "astId": 204,
        "contract": "project/contracts/TCF_NFTPrice.sol:TCF_NFTPrice",
        "label": "supportTokenType",
        "offset": 0,
        "slot": "8",
        "type": "t_mapping(t_address,t_uint8)"
      },
      {
        "astId": 206,
        "contract": "project/contracts/TCF_NFTPrice.sol:TCF_NFTPrice",
        "label": "supportedTokenAmount",
        "offset": 0,
        "slot": "9",
        "type": "t_uint256"
      },
      {
        "astId": 209,
        "contract": "project/contracts/TCF_NFTPrice.sol:TCF_NFTPrice",
        "label": "tokenAddress_array",
        "offset": 0,
        "slot": "10",
        "type": "t_array(t_address)dyn_storage"
      },
      {
        "astId": 211,
        "contract": "project/contracts/TCF_NFTPrice.sol:TCF_NFTPrice",
        "label": "initedTokenAddress",
        "offset": 0,
        "slot": "11",
        "type": "t_uint8"
      },
      {
        "astId": 213,
        "contract": "project/contracts/TCF_NFTPrice.sol:TCF_NFTPrice",
        "label": "NFTPrice_initialized",
        "offset": 1,
        "slot": "11",
        "type": "t_uint8"
      },
      {
        "astId": 232,
        "contract": "project/contracts/TCF_NFTPrice.sol:TCF_NFTPrice",
        "label": "NFTS",
        "offset": 0,
        "slot": "12",
        "type": "t_mapping(t_uint256,t_struct(equities_store)227_storage)"
      }
    ],
    "types": {
      "t_address": {
        "encoding": "inplace",
        "label": "address",
        "numberOfBytes": "20"
      },
      "t_array(t_address)dyn_storage": {
        "base": "t_address",
        "encoding": "dynamic_array",
        "label": "address[]",
        "numberOfBytes": "32"
      },
      "t_bool": {
        "encoding": "inplace",
        "label": "bool",
        "numberOfBytes": "1"
      },
      "t_mapping(t_address,t_bool)": {
        "encoding": "mapping",
        "key": "t_address",
        "label": "mapping(address => bool)",
        "numberOfBytes": "32",
        "value": "t_bool"
      },
      "t_mapping(t_address,t_mapping(t_address,t_bool))": {
        "encoding": "mapping",
        "key": "t_address",
        "label": "mapping(address => mapping(address => bool))",
        "numberOfBytes": "32",
        "value": "t_mapping(t_address,t_bool)"
      },
      "t_mapping(t_address,t_uint256)": {
        "encoding": "mapping",
        "key": "t_address",
        "label": "mapping(address => uint256)",
        "numberOfBytes": "32",
        "value": "t_uint256"
      },
      "t_mapping(t_address,t_uint8)": {
        "encoding": "mapping",
        "key": "t_address",
        "label": "mapping(address => uint8)",
        "numberOfBytes": "32",
        "value": "t_uint8"
      },
      "t_mapping(t_uint256,t_mapping(t_address,t_uint256))": {
        "encoding": "mapping",
        "key": "t_uint256",
        "label": "mapping(uint256 => mapping(address => uint256))",
        "numberOfBytes": "32",
        "value": "t_mapping(t_address,t_uint256)"
      },
      "t_mapping(t_uint256,t_string_storage)": {
        "encoding": "mapping",
        "key": "t_uint256",
        "label": "mapping(uint256 => string)",
        "numberOfBytes": "32",
        "value": "t_string_storage"
      },
      "t_mapping(t_uint256,t_struct(equities_store)227_storage)": {
        "encoding": "mapping",
        "key": "t_uint256",
        "label": "mapping(uint256 => struct TCF_NFTPrice.equities_store)",
        "numberOfBytes": "32",
        "value": "t_struct(equities_store)227_storage"
      },
      "t_mapping(t_uint256,t_uint256)": {
        "encoding": "mapping",
        "key": "t_uint256",
        "label": "mapping(uint256 => uint256)",
        "numberOfBytes": "32",
        "value": "t_uint256"
      },
      "t_string_storage": {
        "encoding": "bytes",
        "label": "string",
        "numberOfBytes": "32"
      },
      "t_struct(equities_store)227_storage": {
        "encoding": "inplace",
        "label": "struct TCF_NFTPrice.equities_store",
        "members": [
          {
            "astId": 222,
            "contract": "project/contracts/TCF_NFTPrice.sol:TCF_NFTPrice",
            "label": "prices",
            "offset": 0,
            "slot": "0",
            "type": "t_mapping(t_address,t_uint256)"
          },
          {
            "astId": 224,
            "contract": "project/contracts/TCF_NFTPrice.sol:TCF_NFTPrice",
            "label": "ratio",
            "offset": 0,
            "slot": "1",
            "type": "t_uint8"
          },
          {
            "astId": 226,
            "contract": "project/contracts/TCF_NFTPrice.sol:TCF_NFTPrice",
            "label": "indate",
            "offset": 1,
            "slot": "1",
            "type": "t_uint32"
          }
        ],
        "numberOfBytes": "64"
      },
      "t_uint256": {
        "encoding": "inplace",
        "label": "uint256",
        "numberOfBytes": "32"
      },
      "t_uint32": {
        "encoding": "inplace",
        "label": "uint32",
        "numberOfBytes": "4"
      },
      "t_uint8": {
        "encoding": "inplace",
        "label": "uint8",
        "numberOfBytes": "1"
      }
    }
  },
  "userdoc": {
    "kind": "user",
    "methods": {},
    "version": 1
  },
  "argsData": "0x",
  "transaction": {
    "hash": "0xaefebcb8292b6ce98961a6c8ad6fae838f05e169a0228f29506597b1ffe1f0f6",
    "nonce": "0x1",
    "origin": "0xf39fd6e51aad88f6f4ce6ab8827279cfffb92266"
  }
}