{
  "address": "0xe7f1725e7734ce288f8367e1bb143e90bb3f0512",
  "abi": [
    {
      "inputs": [],
      "stateMutability": "nonpayable",
      "type": "constructor"
    },
    {
      "anonymous": false,
      "inputs": [
        {
          "indexed": true,
          "internalType": "address",
          "name": "account",
          "type": "address"
        },
        {
          "indexed": true,
          "internalType": "address",
          "name": "operator",
          "type": "address"
        },
        {
          "indexed": false,
          "internalType": "bool",
          "name": "approved",
          "type": "bool"
        }
      ],
      "name": "ApprovalForAll",
      "type": "event"
    },
    {
      "anonymous": false,
      "inputs": [
        {
          "indexed": true,
          "internalType": "address",
          "name": "previousOwner",
          "type": "address"
        },
        {
          "indexed": true,
          "internalType": "address",
          "name": "newOwner",
          "type": "address"
        }
      ],
      "name": "OwnershipTransferred",
      "type": "event"
    },
    {
      "anonymous": false,
      "inputs": [
        {
          "indexed": false,
          "internalType": "address",
          "name": "account",
          "type": "address"
        }
      ],
      "name": "Paused",
      "type": "event"
    },
    {
      "anonymous": false,
      "inputs": [
        {
          "indexed": true,
          "internalType": "address",
          "name": "operator",
          "type": "address"
        },
        {
          "indexed": true,
          "internalType": "address",
          "name": "from",
          "type": "address"
        },
        {
          "indexed": true,
          "internalType": "address",
          "name": "to",
          "type": "address"
        },
        {
          "indexed": false,
          "internalType": "uint256[]",
          "name": "ids",
          "type": "uint256[]"
        },
        {
          "indexed": false,
          "internalType": "uint256[]",
          "name": "values",
          "type": "uint256[]"
        }
      ],
      "name": "TransferBatch",
      "type": "event"
    },
    {
      "anonymous": false,
      "inputs": [
        {
          "indexed": true,
          "internalType": "address",
          "name": "operator",
          "type": "address"
        },
        {
          "indexed": true,
          "internalType": "address",
          "name": "from",
          "type": "address"
        },
        {
          "indexed": true,
          "internalType": "address",
          "name": "to",
          "type": "address"
        },
        {
          "indexed": false,
          "internalType": "uint256",
          "name": "id",
          "type": "uint256"
        },
        {
          "indexed": false,
          "internalType": "uint256",
          "name": "value",
          "type": "uint256"
        }
      ],
      "name": "TransferSingle",
      "type": "event"
    },
    {
      "anonymous": false,
      "inputs": [
        {
          "indexed": false,
          "internalType": "string",
          "name": "value",
          "type": "string"
        },
        {
          "indexed": true,
          "internalType": "uint256",
          "name": "id",
          "type": "uint256"
        }
      ],
      "name": "URI",
      "type": "event"
    },
    {
      "anonymous": false,
      "inputs": [
        {
          "indexed": false,
          "internalType": "address",
          "name": "account",
          "type": "address"
        }
      ],
      "name": "Unpaused",
      "type": "event"
    },
    {
      "inputs": [
        {
          "internalType": "address",
          "name": "account",
          "type": "address"
        },
        {
          "internalType": "uint256",
          "name": "id",
          "type": "uint256"
        }
      ],
      "name": "balanceOf",
      "outputs": [
        {
          "internalType": "uint256",
          "name": "",
          "type": "uint256"
        }
      ],
      "stateMutability": "view",
      "type": "function"
    },
    {
      "inputs": [
        {
          "internalType": "address[]",
          "name": "accounts",
          "type": "address[]"
        },
        {
          "internalType": "uint256[]",
          "name": "ids",
          "type": "uint256[]"
        }
      ],
      "name": "balanceOfBatch",
      "outputs": [
        {
          "internalType": "uint256[]",
          "name": "",
          "type": "uint256[]"
        }
      ],
      "stateMutability": "view",
      "type": "function"
    },
    {
      "inputs": [
        {
          "internalType": "address",
          "name": "account",
          "type": "address"
        },
        {
          "internalType": "uint256",
          "name": "id",
          "type": "uint256"
        },
        {
          "internalType": "uint256",
          "name": "value",
          "type": "uint256"
        }
      ],
      "name": "burn",
      "outputs": [],
      "stateMutability": "nonpayable",
      "type": "function"
    },
    {
      "inputs": [
        {
          "internalType": "address",
          "name": "account",
          "type": "address"
        },
        {
          "internalType": "uint256[]",
          "name": "ids",
          "type": "uint256[]"
        },
        {
          "internalType": "uint256[]",
          "name": "values",
          "type": "uint256[]"
        }
      ],
      "name": "burnBatch",
      "outputs": [],
      "stateMutability": "nonpayable",
      "type": "function"
    },
    {
      "inputs": [
        {
          "internalType": "uint256",
          "name": "id",
          "type": "uint256"
        }
      ],
      "name": "exists",
      "outputs": [
        {
          "internalType": "bool",
          "name": "",
          "type": "bool"
        }
      ],
      "stateMutability": "view",
      "type": "function"
    },
    {
      "inputs": [
        {
          "internalType": "address",
          "name": "account",
          "type": "address"
        },
        {
          "internalType": "address",
          "name": "operator",
          "type": "address"
        }
      ],
      "name": "isApprovedForAll",
      "outputs": [
        {
          "internalType": "bool",
          "name": "",
          "type": "bool"
        }
      ],
      "stateMutability": "view",
      "type": "function"
    },
    {
      "inputs": [
        {
          "internalType": "address",
          "name": "account",
          "type": "address"
        },
        {
          "internalType": "uint256",
          "name": "id",
          "type": "uint256"
        },
        {
          "internalType": "uint256",
          "name": "amount",
          "type": "uint256"
        },
        {
          "internalType": "bytes",
          "name": "data",
          "type": "bytes"
        }
      ],
      "name": "mint",
      "outputs": [],
      "stateMutability": "nonpayable",
      "type": "function"
    },
    {
      "inputs": [
        {
          "internalType": "address",
          "name": "to",
          "type": "address"
        },
        {
          "internalType": "uint256[]",
          "name": "ids",
          "type": "uint256[]"
        },
        {
          "internalType": "uint256[]",
          "name": "amounts",
          "type": "uint256[]"
        },
        {
          "internalType": "bytes",
          "name": "data",
          "type": "bytes"
        }
      ],
      "name": "mintBatch",
      "outputs": [],
      "stateMutability": "nonpayable",
      "type": "function"
    },
    {
      "inputs": [],
      "name": "owner",
      "outputs": [
        {
          "internalType": "address",
          "name": "",
          "type": "address"
        }
      ],
      "stateMutability": "view",
      "type": "function"
    },
    {
      "inputs": [],
      "name": "pause",
      "outputs": [],
      "stateMutability": "nonpayable",
      "type": "function"
    },
    {
      "inputs": [],
      "name": "paused",
      "outputs": [
        {
          "internalType": "bool",
          "name": "",
          "type": "bool"
        }
      ],
      "stateMutability": "view",
      "type": "function"
    },
    {
      "inputs": [],
      "name": "renounceOwnership",
      "outputs": [],
      "stateMutability": "nonpayable",
      "type": "function"
    },
    {
      "inputs": [
        {
          "internalType": "address",
          "name": "from",
          "type": "address"
        },
        {
          "internalType": "address",
          "name": "to",
          "type": "address"
        },
        {
          "internalType": "uint256[]",
          "name": "ids",
          "type": "uint256[]"
        },
        {
          "internalType": "uint256[]",
          "name": "amounts",
          "type": "uint256[]"
        },
        {
          "internalType": "bytes",
          "name": "data",
          "type": "bytes"
        }
      ],
      "name": "safeBatchTransferFrom",
      "outputs": [],
      "stateMutability": "nonpayable",
      "type": "function"
    },
    {
      "inputs": [
        {
          "internalType": "address",
          "name": "from",
          "type": "address"
        },
        {
          "internalType": "address",
          "name": "to",
          "type": "address"
        },
        {
          "internalType": "uint256",
          "name": "id",
          "type": "uint256"
        },
        {
          "internalType": "uint256",
          "name": "amount",
          "type": "uint256"
        },
        {
          "internalType": "bytes",
          "name": "data",
          "type": "bytes"
        }
      ],
      "name": "safeTransferFrom",
      "outputs": [],
      "stateMutability": "nonpayable",
      "type": "function"
    },
    {
      "inputs": [
        {
          "internalType": "address",
          "name": "operator",
          "type": "address"
        },
        {
          "internalType": "bool",
          "name": "approved",
          "type": "bool"
        }
      ],
      "name": "setApprovalForAll",
      "outputs": [],
      "stateMutability": "nonpayable",
      "type": "function"
    },
    {
      "inputs": [
        {
          "internalType": "uint256[]",
          "name": "tokenIds",
          "type": "uint256[]"
        },
        {
          "internalType": "bytes[]",
          "name": "URIs",
          "type": "bytes[]"
        }
      ],
      "name": "setTokenURI",
      "outputs": [],
      "stateMutability": "nonpayable",
      "type": "function"
    },
    {
      "inputs": [
        {
          "internalType": "bytes4",
          "name": "interfaceId",
          "type": "bytes4"
        }
      ],
      "name": "supportsInterface",
      "outputs": [
        {
          "internalType": "bool",
          "name": "",
          "type": "bool"
        }
      ],
      "stateMutability": "view",
      "type": "function"
    },
    {
      "inputs": [
        {
          "internalType": "uint256",
          "name": "id",
          "type": "uint256"
        }
      ],
      "name": "totalSupply",
      "outputs": [
        {
          "internalType": "uint256",
          "name": "",
          "type": "uint256"
        }
      ],
      "stateMutability": "view",
      "type": "function"
    },
    {
      "inputs": [
        {
          "internalType": "address",
          "name": "newOwner",
          "type": "address"
        }
      ],
      "name": "transferOwnership",
      "outputs": [],
      "stateMutability": "nonpayable",
      "type": "function"
    },
    {
      "inputs": [],
      "name": "unpause",
      "outputs": [],
      "stateMutability": "nonpayable",
      "type": "function"
    },
    {
      "inputs": [
        {
          "internalType": "uint256",
          "name": "tokenId",
          "type": "uint256"
        }
      ],
      "name": "uri",
      "outputs": [
        {
          "internalType": "string",
          "name": "",
          "type": "string"
        }
      ],
      "stateMutability": "view",
      "type": "function"
    }
  ],
  "contractName": "TCF_NFT",
  "sourceName": "contracts/TCF_NFT.sol",
  "bytecode": "0x608060405260405180602001604052806000815250600590805190602001906200002b92919062000149565b503480156200003957600080fd5b506200005a6200004e6200007b60201b60201c565b6200008360201b60201c565b6000600760006101000a81548160ff0219169083151502179055506200025e565b600033905090565b6000600460009054906101000a900473ffffffffffffffffffffffffffffffffffffffff16905081600460006101000a81548173ffffffffffffffffffffffffffffffffffffffff021916908373ffffffffffffffffffffffffffffffffffffffff1602179055508173ffffffffffffffffffffffffffffffffffffffff168173ffffffffffffffffffffffffffffffffffffffff167f8be0079c531659141344cd1fd0a4f28419497f9722a3daafe3b4186f6b6457e060405160405180910390a35050565b8280546200015790620001f9565b90600052602060002090601f0160209004810192826200017b5760008555620001c7565b82601f106200019657805160ff1916838001178555620001c7565b82800160010185558215620001c7579182015b82811115620001c6578251825591602001919060010190620001a9565b5b509050620001d69190620001da565b5090565b5b80821115620001f5576000816000905550600101620001db565b5090565b600060028204905060018216806200021257607f821691505b602082108114156200022957620002286200022f565b5b50919050565b7f4e487b7100000000000000000000000000000000000000000000000000000000600052602260045260246000fd5b6146d0806200026e6000396000f3fe608060405234801561001057600080fd5b50600436106101365760003560e01c8063715018a6116100b8578063a22cb4651161007c578063a22cb46514610311578063bd85b0391461032d578063e985e9c51461035d578063f242432a1461038d578063f2fde38b146103a9578063f5298aca146103c557610136565b8063715018a6146102a7578063731133e9146102b157806378f91b9c146102cd5780638456cb59146102e95780638da5cb5b146102f357610136565b80633f4ba83a116100ff5780633f4ba83a146102035780634e1273f41461020d5780634f558e791461023d5780635c975abb1461026d5780636b20c4541461028b57610136565b8062fdd58e1461013b57806301ffc9a71461016b5780630e89341c1461019b5780631f7fdffa146101cb5780632eb2c2d6146101e7575b600080fd5b61015560048036038101906101509190613118565b6103e1565b6040516101629190613bde565b60405180910390f35b610185600480360381019061018091906132ff565b6104ab565b6040516101929190613941565b60405180910390f35b6101b560048036038101906101b09190613351565b61058d565b6040516101c2919061395c565b60405180910390f35b6101e560048036038101906101e09190613031565b61059f565b005b61020160048036038101906101fc9190612e64565b6105b9565b005b61020b61065a565b005b6102276004803603810190610222919061321e565b61066c565b60405161023491906138e8565b60405180910390f35b61025760048036038101906102529190613351565b61081d565b6040516102649190613941565b60405180910390f35b610275610831565b6040516102829190613941565b60405180910390f35b6102a560048036038101906102a09190612fb2565b610848565b005b6102af6108e5565b005b6102cb60048036038101906102c691906131a3565b6108f9565b005b6102e760048036038101906102e2919061328a565b61090b565b005b6102f1610a5e565b005b6102fb610a70565b604051610308919061380b565b60405180910390f35b61032b600480360381019061032691906130dc565b610a9a565b005b61034760048036038101906103429190613351565b610ab0565b6040516103549190613bde565b60405180910390f35b61037760048036038101906103729190612e28565b610acd565b6040516103849190613941565b60405180910390f35b6103a760048036038101906103a29190612f23565b610b61565b005b6103c360048036038101906103be9190612dff565b610c02565b005b6103df60048036038101906103da9190613154565b610c86565b005b60008073ffffffffffffffffffffffffffffffffffffffff168373ffffffffffffffffffffffffffffffffffffffff161415610452576040517f08c379a000000000000000000000000000000000000000000000000000000000815260040161044990613a1e565b60405180910390fd5b6001600083815260200190815260200160002060008473ffffffffffffffffffffffffffffffffffffffff1673ffffffffffffffffffffffffffffffffffffffff16815260200190815260200160002054905092915050565b60007fd9b67a26000000000000000000000000000000000000000000000000000000007bffffffffffffffffffffffffffffffffffffffffffffffffffffffff1916827bffffffffffffffffffffffffffffffffffffffffffffffffffffffff1916148061057657507f0e89341c000000000000000000000000000000000000000000000000000000007bffffffffffffffffffffffffffffffffffffffffffffffffffffffff1916827bffffffffffffffffffffffffffffffffffffffffffffffffffffffff1916145b80610586575061058582610d23565b5b9050919050565b606061059882610d8d565b9050919050565b6105a7610e72565b6105b384848484610ef0565b50505050565b6105c161116a565b73ffffffffffffffffffffffffffffffffffffffff168573ffffffffffffffffffffffffffffffffffffffff16148061060757506106068561060161116a565b610acd565b5b610646576040517f08c379a000000000000000000000000000000000000000000000000000000000815260040161063d90613a3e565b60405180910390fd5b6106538585858585611172565b5050505050565b610662610e72565b61066a6114e3565b565b606081518351146106b2576040517f08c379a00000000000000000000000000000000000000000000000000000000081526004016106a990613b5e565b60405180910390fd5b6000835167ffffffffffffffff8111156106f5577f4e487b7100000000000000000000000000000000000000000000000000000000600052604160045260246000fd5b6040519080825280602002602001820160405280156107235781602001602082028036833780820191505090505b50905060005b8451811015610812576107bc85828151811061076e577f4e487b7100000000000000000000000000000000000000000000000000000000600052603260045260246000fd5b60200260200101518583815181106107af577f4e487b7100000000000000000000000000000000000000000000000000000000600052603260045260246000fd5b60200260200101516103e1565b8282815181106107f5577f4e487b7100000000000000000000000000000000000000000000000000000000600052603260045260246000fd5b6020026020010181815250508061080b90613f27565b9050610729565b508091505092915050565b60008061082983610ab0565b119050919050565b6000600760009054906101000a900460ff16905090565b61085061116a565b73ffffffffffffffffffffffffffffffffffffffff168373ffffffffffffffffffffffffffffffffffffffff16148061089657506108958361089061116a565b610acd565b5b6108d5576040517f08c379a00000000000000000000000000000000000000000000000000000000081526004016108cc90613a3e565b60405180910390fd5b6108e0838383611546565b505050565b6108ed610e72565b6108f76000611863565b565b61090584848484611929565b50505050565b610913610e72565b8181905084849050141561095c576040517f08c379a000000000000000000000000000000000000000000000000000000000815260040161095390613b1e565b60405180910390fd5b600084849050905060005b81811015610a5657610a458686838181106109ab577f4e487b7100000000000000000000000000000000000000000000000000000000600052603260045260246000fd5b905060200201358585848181106109eb577f4e487b7100000000000000000000000000000000000000000000000000000000600052603260045260246000fd5b90506020028101906109fd9190613c22565b8080601f016020809104026020016040519081016040528093929190818152602001838380828437600081840152601f19601f82011690508083019250505050505050611adb565b80610a4f90613f27565b9050610967565b505050505050565b610a66610e72565b610a6e611b47565b565b6000600460009054906101000a900473ffffffffffffffffffffffffffffffffffffffff16905090565b610aac610aa561116a565b8383611baa565b5050565b600060086000838152602001908152602001600020549050919050565b6000600260008473ffffffffffffffffffffffffffffffffffffffff1673ffffffffffffffffffffffffffffffffffffffff16815260200190815260200160002060008373ffffffffffffffffffffffffffffffffffffffff1673ffffffffffffffffffffffffffffffffffffffff16815260200190815260200160002060009054906101000a900460ff16905092915050565b610b6961116a565b73ffffffffffffffffffffffffffffffffffffffff168573ffffffffffffffffffffffffffffffffffffffff161480610baf5750610bae85610ba961116a565b610acd565b5b610bee576040517f08c379a0000000000000000000000000000000000000000000000000000000008152600401610be590613a3e565b60405180910390fd5b610bfb8585858585611d17565b5050505050565b610c0a610e72565b600073ffffffffffffffffffffffffffffffffffffffff168173ffffffffffffffffffffffffffffffffffffffff161415610c7a576040517f08c379a0000000000000000000000000000000000000000000000000000000008152600401610c71906139be565b60405180910390fd5b610c8381611863565b50565b610c8e61116a565b73ffffffffffffffffffffffffffffffffffffffff168373ffffffffffffffffffffffffffffffffffffffff161480610cd45750610cd383610cce61116a565b610acd565b5b610d13576040517f08c379a0000000000000000000000000000000000000000000000000000000008152600401610d0a90613a3e565b60405180910390fd5b610d1e838383611fb6565b505050565b60007f01ffc9a7000000000000000000000000000000000000000000000000000000007bffffffffffffffffffffffffffffffffffffffffffffffffffffffff1916827bffffffffffffffffffffffffffffffffffffffffffffffffffffffff1916149050919050565b60606000600660008481526020019081526020016000208054610daf90613ec4565b80601f0160208091040260200160405190810160405280929190818152602001828054610ddb90613ec4565b8015610e285780601f10610dfd57610100808354040283529160200191610e28565b820191906000526020600020905b815481529060010190602001808311610e0b57829003601f168201915b505050505090506000815111610e4657610e41836121ff565b610e6a565b600581604051602001610e5a9291906137e7565b6040516020818303038152906040525b915050919050565b610e7a61116a565b73ffffffffffffffffffffffffffffffffffffffff16610e98610a70565b73ffffffffffffffffffffffffffffffffffffffff1614610eee576040517f08c379a0000000000000000000000000000000000000000000000000000000008152600401610ee590613ade565b60405180910390fd5b565b600073ffffffffffffffffffffffffffffffffffffffff168473ffffffffffffffffffffffffffffffffffffffff161415610f60576040517f08c379a0000000000000000000000000000000000000000000000000000000008152600401610f5790613b9e565b60405180910390fd5b8151835114610fa4576040517f08c379a0000000000000000000000000000000000000000000000000000000008152600401610f9b90613b7e565b60405180910390fd5b6000610fae61116a565b9050610fbf81600087878787612293565b60005b84518110156110c557838181518110611004577f4e487b7100000000000000000000000000000000000000000000000000000000600052603260045260246000fd5b602002602001015160016000878481518110611049577f4e487b7100000000000000000000000000000000000000000000000000000000600052603260045260246000fd5b6020026020010151815260200190815260200160002060008873ffffffffffffffffffffffffffffffffffffffff1673ffffffffffffffffffffffffffffffffffffffff16815260200190815260200160002060008282546110ab9190613db8565b9250508190555080806110bd90613f27565b915050610fc2565b508473ffffffffffffffffffffffffffffffffffffffff16600073ffffffffffffffffffffffffffffffffffffffff168273ffffffffffffffffffffffffffffffffffffffff167f4a39dc06d4c0dbc64b70af90fd698a233a518aa5d07e595d983b8c0526c8f7fb878760405161113d92919061390a565b60405180910390a4611154816000878787876122a9565b611163816000878787876122b1565b5050505050565b600033905090565b81518351146111b6576040517f08c379a00000000000000000000000000000000000000000000000000000000081526004016111ad90613b7e565b60405180910390fd5b600073ffffffffffffffffffffffffffffffffffffffff168473ffffffffffffffffffffffffffffffffffffffff161415611226576040517f08c379a000000000000000000000000000000000000000000000000000000000815260040161121d90613a7e565b60405180910390fd5b600061123061116a565b9050611240818787878787612293565b60005b8451811015611440576000858281518110611287577f4e487b7100000000000000000000000000000000000000000000000000000000600052603260045260246000fd5b6020026020010151905060008583815181106112cc577f4e487b7100000000000000000000000000000000000000000000000000000000600052603260045260246000fd5b6020026020010151905060006001600084815260200190815260200160002060008b73ffffffffffffffffffffffffffffffffffffffff1673ffffffffffffffffffffffffffffffffffffffff1681526020019081526020016000205490508181101561136e576040517f08c379a000000000000000000000000000000000000000000000000000000000815260040161136590613abe565b60405180910390fd5b8181036001600085815260200190815260200160002060008c73ffffffffffffffffffffffffffffffffffffffff1673ffffffffffffffffffffffffffffffffffffffff16815260200190815260200160002081905550816001600085815260200190815260200160002060008b73ffffffffffffffffffffffffffffffffffffffff1673ffffffffffffffffffffffffffffffffffffffff16815260200190815260200160002060008282546114259190613db8565b925050819055505050508061143990613f27565b9050611243565b508473ffffffffffffffffffffffffffffffffffffffff168673ffffffffffffffffffffffffffffffffffffffff168273ffffffffffffffffffffffffffffffffffffffff167f4a39dc06d4c0dbc64b70af90fd698a233a518aa5d07e595d983b8c0526c8f7fb87876040516114b792919061390a565b60405180910390a46114cd8187878787876122a9565b6114db8187878787876122b1565b505050505050565b6114eb612498565b6000600760006101000a81548160ff0219169083151502179055507f5db9ee0a495bf2e6ff9c91a7834c1ba4fdd244a5e8aa4e537bd38aeae4b073aa61152f61116a565b60405161153c919061380b565b60405180910390a1565b600073ffffffffffffffffffffffffffffffffffffffff168373ffffffffffffffffffffffffffffffffffffffff1614156115b6576040517f08c379a00000000000000000000000000000000000000000000000000000000081526004016115ad90613a9e565b60405180910390fd5b80518251146115fa576040517f08c379a00000000000000000000000000000000000000000000000000000000081526004016115f190613b7e565b60405180910390fd5b600061160461116a565b905061162481856000868660405180602001604052806000815250612293565b60005b83518110156117bf57600084828151811061166b577f4e487b7100000000000000000000000000000000000000000000000000000000600052603260045260246000fd5b6020026020010151905060008483815181106116b0577f4e487b7100000000000000000000000000000000000000000000000000000000600052603260045260246000fd5b6020026020010151905060006001600084815260200190815260200160002060008973ffffffffffffffffffffffffffffffffffffffff1673ffffffffffffffffffffffffffffffffffffffff16815260200190815260200160002054905081811015611752576040517f08c379a0000000000000000000000000000000000000000000000000000000008152600401611749906139de565b60405180910390fd5b8181036001600085815260200190815260200160002060008a73ffffffffffffffffffffffffffffffffffffffff1673ffffffffffffffffffffffffffffffffffffffff1681526020019081526020016000208190555050505080806117b790613f27565b915050611627565b50600073ffffffffffffffffffffffffffffffffffffffff168473ffffffffffffffffffffffffffffffffffffffff168273ffffffffffffffffffffffffffffffffffffffff167f4a39dc06d4c0dbc64b70af90fd698a233a518aa5d07e595d983b8c0526c8f7fb868660405161183792919061390a565b60405180910390a461185d818560008686604051806020016040528060008152506122a9565b50505050565b6000600460009054906101000a900473ffffffffffffffffffffffffffffffffffffffff16905081600460006101000a81548173ffffffffffffffffffffffffffffffffffffffff021916908373ffffffffffffffffffffffffffffffffffffffff1602179055508173ffffffffffffffffffffffffffffffffffffffff168173ffffffffffffffffffffffffffffffffffffffff167f8be0079c531659141344cd1fd0a4f28419497f9722a3daafe3b4186f6b6457e060405160405180910390a35050565b600073ffffffffffffffffffffffffffffffffffffffff168473ffffffffffffffffffffffffffffffffffffffff161415611999576040517f08c379a000000000000000000000000000000000000000000000000000000000815260040161199090613b9e565b60405180910390fd5b60006119a361116a565b905060006119b0856124e1565b905060006119bd856124e1565b90506119ce83600089858589612293565b846001600088815260200190815260200160002060008973ffffffffffffffffffffffffffffffffffffffff1673ffffffffffffffffffffffffffffffffffffffff1681526020019081526020016000206000828254611a2e9190613db8565b925050819055508673ffffffffffffffffffffffffffffffffffffffff16600073ffffffffffffffffffffffffffffffffffffffff168473ffffffffffffffffffffffffffffffffffffffff167fc3d58168c5ae7397731d063d5bbf3d657854427343f4c083240f7aacaa2d0f628989604051611aac929190613bf9565b60405180910390a4611ac3836000898585896122a9565b611ad2836000898989896125a7565b50505050505050565b80600660008481526020019081526020016000209080519060200190611b02929190612acb565b50817f6bb7ff708619ba0610cba295a58592e0451dee2622938c8755667688daf3529b611b2e8461058d565b604051611b3b919061395c565b60405180910390a25050565b611b4f61278e565b6001600760006101000a81548160ff0219169083151502179055507f62e78cea01bee320cd4e420270b5ea74000d11b0c9f74754ebdbfc544b05a258611b9361116a565b604051611ba0919061380b565b60405180910390a1565b8173ffffffffffffffffffffffffffffffffffffffff168373ffffffffffffffffffffffffffffffffffffffff161415611c19576040517f08c379a0000000000000000000000000000000000000000000000000000000008152600401611c1090613b3e565b60405180910390fd5b80600260008573ffffffffffffffffffffffffffffffffffffffff1673ffffffffffffffffffffffffffffffffffffffff16815260200190815260200160002060008473ffffffffffffffffffffffffffffffffffffffff1673ffffffffffffffffffffffffffffffffffffffff16815260200190815260200160002060006101000a81548160ff0219169083151502179055508173ffffffffffffffffffffffffffffffffffffffff168373ffffffffffffffffffffffffffffffffffffffff167f17307eab39ab6107e8899845ad3d59bd9653f200f220920489ca2b5937696c3183604051611d0a9190613941565b60405180910390a3505050565b600073ffffffffffffffffffffffffffffffffffffffff168473ffffffffffffffffffffffffffffffffffffffff161415611d87576040517f08c379a0000000000000000000000000000000000000000000000000000000008152600401611d7e90613a7e565b60405180910390fd5b6000611d9161116a565b90506000611d9e856124e1565b90506000611dab856124e1565b9050611dbb838989858589612293565b60006001600088815260200190815260200160002060008a73ffffffffffffffffffffffffffffffffffffffff1673ffffffffffffffffffffffffffffffffffffffff16815260200190815260200160002054905085811015611e53576040517f08c379a0000000000000000000000000000000000000000000000000000000008152600401611e4a90613abe565b60405180910390fd5b8581036001600089815260200190815260200160002060008b73ffffffffffffffffffffffffffffffffffffffff1673ffffffffffffffffffffffffffffffffffffffff16815260200190815260200160002081905550856001600089815260200190815260200160002060008a73ffffffffffffffffffffffffffffffffffffffff1673ffffffffffffffffffffffffffffffffffffffff1681526020019081526020016000206000828254611f0a9190613db8565b925050819055508773ffffffffffffffffffffffffffffffffffffffff168973ffffffffffffffffffffffffffffffffffffffff168573ffffffffffffffffffffffffffffffffffffffff167fc3d58168c5ae7397731d063d5bbf3d657854427343f4c083240f7aacaa2d0f628a8a604051611f87929190613bf9565b60405180910390a4611f9d848a8a86868a6122a9565b611fab848a8a8a8a8a6125a7565b505050505050505050565b600073ffffffffffffffffffffffffffffffffffffffff168373ffffffffffffffffffffffffffffffffffffffff161415612026576040517f08c379a000000000000000000000000000000000000000000000000000000000815260040161201d90613a9e565b60405180910390fd5b600061203061116a565b9050600061203d846124e1565b9050600061204a846124e1565b905061206a83876000858560405180602001604052806000815250612293565b60006001600087815260200190815260200160002060008873ffffffffffffffffffffffffffffffffffffffff1673ffffffffffffffffffffffffffffffffffffffff16815260200190815260200160002054905084811015612102576040517f08c379a00000000000000000000000000000000000000000000000000000000081526004016120f9906139de565b60405180910390fd5b8481036001600088815260200190815260200160002060008973ffffffffffffffffffffffffffffffffffffffff1673ffffffffffffffffffffffffffffffffffffffff16815260200190815260200160002081905550600073ffffffffffffffffffffffffffffffffffffffff168773ffffffffffffffffffffffffffffffffffffffff168573ffffffffffffffffffffffffffffffffffffffff167fc3d58168c5ae7397731d063d5bbf3d657854427343f4c083240f7aacaa2d0f6289896040516121d0929190613bf9565b60405180910390a46121f6848860008686604051806020016040528060008152506122a9565b50505050505050565b60606003805461220e90613ec4565b80601f016020809104026020016040519081016040528092919081815260200182805461223a90613ec4565b80156122875780601f1061225c57610100808354040283529160200191612287565b820191906000526020600020905b81548152906001019060200180831161226a57829003601f168201915b50505050509050919050565b6122a18686868686866127d8565b505050505050565b505050505050565b6122d08473ffffffffffffffffffffffffffffffffffffffff16612a42565b15612490578373ffffffffffffffffffffffffffffffffffffffff1663bc197c8187878686866040518663ffffffff1660e01b8152600401612316959493929190613826565b602060405180830381600087803b15801561233057600080fd5b505af192505050801561236157506040513d601f19601f8201168201806040525081019061235e9190613328565b60015b6124075761236d613ffd565b806308c379a014156123ca57506123826145a8565b8061238d57506123cc565b806040517f08c379a00000000000000000000000000000000000000000000000000000000081526004016123c1919061395c565b60405180910390fd5b505b6040517f08c379a00000000000000000000000000000000000000000000000000000000081526004016123fe90613bbe565b60405180910390fd5b63bc197c8160e01b7bffffffffffffffffffffffffffffffffffffffffffffffffffffffff1916817bffffffffffffffffffffffffffffffffffffffffffffffffffffffff19161461248e576040517f08c379a00000000000000000000000000000000000000000000000000000000081526004016124859061397e565b60405180910390fd5b505b505050505050565b6124a0610831565b6124df576040517f08c379a00000000000000000000000000000000000000000000000000000000081526004016124d69061399e565b60405180910390fd5b565b60606000600167ffffffffffffffff811115612526577f4e487b7100000000000000000000000000000000000000000000000000000000600052604160045260246000fd5b6040519080825280602002602001820160405280156125545781602001602082028036833780820191505090505b5090508281600081518110612592577f4e487b7100000000000000000000000000000000000000000000000000000000600052603260045260246000fd5b60200260200101818152505080915050919050565b6125c68473ffffffffffffffffffffffffffffffffffffffff16612a42565b15612786578373ffffffffffffffffffffffffffffffffffffffff1663f23a6e6187878686866040518663ffffffff1660e01b815260040161260c95949392919061388e565b602060405180830381600087803b15801561262657600080fd5b505af192505050801561265757506040513d601f19601f820116820180604052508101906126549190613328565b60015b6126fd57612663613ffd565b806308c379a014156126c057506126786145a8565b8061268357506126c2565b806040517f08c379a00000000000000000000000000000000000000000000000000000000081526004016126b7919061395c565b60405180910390fd5b505b6040517f08c379a00000000000000000000000000000000000000000000000000000000081526004016126f490613bbe565b60405180910390fd5b63f23a6e6160e01b7bffffffffffffffffffffffffffffffffffffffffffffffffffffffff1916817bffffffffffffffffffffffffffffffffffffffffffffffffffffffff191614612784576040517f08c379a000000000000000000000000000000000000000000000000000000000815260040161277b9061397e565b60405180910390fd5b505b505050505050565b612796610831565b156127d6576040517f08c379a00000000000000000000000000000000000000000000000000000000081526004016127cd90613a5e565b60405180910390fd5b565b6127e6868686868686612a65565b600073ffffffffffffffffffffffffffffffffffffffff168573ffffffffffffffffffffffffffffffffffffffff1614156128e45760005b83518110156128e257828181518110612860577f4e487b7100000000000000000000000000000000000000000000000000000000600052603260045260246000fd5b6020026020010151600860008684815181106128a5577f4e487b7100000000000000000000000000000000000000000000000000000000600052603260045260246000fd5b6020026020010151815260200190815260200160002060008282546128ca9190613db8565b92505081905550806128db90613f27565b905061281e565b505b600073ffffffffffffffffffffffffffffffffffffffff168473ffffffffffffffffffffffffffffffffffffffff161415612a3a5760005b8351811015612a38576000848281518110612960577f4e487b7100000000000000000000000000000000000000000000000000000000600052603260045260246000fd5b6020026020010151905060008483815181106129a5577f4e487b7100000000000000000000000000000000000000000000000000000000600052603260045260246000fd5b6020026020010151905060006008600084815260200190815260200160002054905081811015612a0a576040517f08c379a0000000000000000000000000000000000000000000000000000000008152600401612a0190613afe565b60405180910390fd5b818103600860008581526020019081526020016000208190555050505080612a3190613f27565b905061291c565b505b505050505050565b6000808273ffffffffffffffffffffffffffffffffffffffff163b119050919050565b612a73868686868686612ac3565b612a7b610831565b15612abb576040517f08c379a0000000000000000000000000000000000000000000000000000000008152600401612ab2906139fe565b60405180910390fd5b505050505050565b505050505050565b828054612ad790613ec4565b90600052602060002090601f016020900481019282612af95760008555612b40565b82601f10612b1257805160ff1916838001178555612b40565b82800160010185558215612b40579182015b82811115612b3f578251825591602001919060010190612b24565b5b509050612b4d9190612b51565b5090565b5b80821115612b6a576000816000905550600101612b52565b5090565b6000612b81612b7c84613c9e565b613c79565b90508083825260208201905082856020860282011115612ba057600080fd5b60005b85811015612bd05781612bb68882612c84565b845260208401935060208301925050600181019050612ba3565b5050509392505050565b6000612bed612be884613cca565b613c79565b90508083825260208201905082856020860282011115612c0c57600080fd5b60005b85811015612c3c5781612c228882612dea565b845260208401935060208301925050600181019050612c0f565b5050509392505050565b6000612c59612c5484613cf6565b613c79565b905082815260208101848484011115612c7157600080fd5b612c7c848285613e82565b509392505050565b600081359050612c938161463e565b92915050565b600082601f830112612caa57600080fd5b8135612cba848260208601612b6e565b91505092915050565b60008083601f840112612cd557600080fd5b8235905067ffffffffffffffff811115612cee57600080fd5b602083019150836020820283011115612d0657600080fd5b9250929050565b60008083601f840112612d1f57600080fd5b8235905067ffffffffffffffff811115612d3857600080fd5b602083019150836020820283011115612d5057600080fd5b9250929050565b600082601f830112612d6857600080fd5b8135612d78848260208601612bda565b91505092915050565b600081359050612d9081614655565b92915050565b600081359050612da58161466c565b92915050565b600081519050612dba8161466c565b92915050565b600082601f830112612dd157600080fd5b8135612de1848260208601612c46565b91505092915050565b600081359050612df981614683565b92915050565b600060208284031215612e1157600080fd5b6000612e1f84828501612c84565b91505092915050565b60008060408385031215612e3b57600080fd5b6000612e4985828601612c84565b9250506020612e5a85828601612c84565b9150509250929050565b600080600080600060a08688031215612e7c57600080fd5b6000612e8a88828901612c84565b9550506020612e9b88828901612c84565b945050604086013567ffffffffffffffff811115612eb857600080fd5b612ec488828901612d57565b935050606086013567ffffffffffffffff811115612ee157600080fd5b612eed88828901612d57565b925050608086013567ffffffffffffffff811115612f0a57600080fd5b612f1688828901612dc0565b9150509295509295909350565b600080600080600060a08688031215612f3b57600080fd5b6000612f4988828901612c84565b9550506020612f5a88828901612c84565b9450506040612f6b88828901612dea565b9350506060612f7c88828901612dea565b925050608086013567ffffffffffffffff811115612f9957600080fd5b612fa588828901612dc0565b9150509295509295909350565b600080600060608486031215612fc757600080fd5b6000612fd586828701612c84565b935050602084013567ffffffffffffffff811115612ff257600080fd5b612ffe86828701612d57565b925050604084013567ffffffffffffffff81111561301b57600080fd5b61302786828701612d57565b9150509250925092565b6000806000806080858703121561304757600080fd5b600061305587828801612c84565b945050602085013567ffffffffffffffff81111561307257600080fd5b61307e87828801612d57565b935050604085013567ffffffffffffffff81111561309b57600080fd5b6130a787828801612d57565b925050606085013567ffffffffffffffff8111156130c457600080fd5b6130d087828801612dc0565b91505092959194509250565b600080604083850312156130ef57600080fd5b60006130fd85828601612c84565b925050602061310e85828601612d81565b9150509250929050565b6000806040838503121561312b57600080fd5b600061313985828601612c84565b925050602061314a85828601612dea565b9150509250929050565b60008060006060848603121561316957600080fd5b600061317786828701612c84565b935050602061318886828701612dea565b925050604061319986828701612dea565b9150509250925092565b600080600080608085870312156131b957600080fd5b60006131c787828801612c84565b94505060206131d887828801612dea565b93505060406131e987828801612dea565b925050606085013567ffffffffffffffff81111561320657600080fd5b61321287828801612dc0565b91505092959194509250565b6000806040838503121561323157600080fd5b600083013567ffffffffffffffff81111561324b57600080fd5b61325785828601612c99565b925050602083013567ffffffffffffffff81111561327457600080fd5b61328085828601612d57565b9150509250929050565b600080600080604085870312156132a057600080fd5b600085013567ffffffffffffffff8111156132ba57600080fd5b6132c687828801612d0d565b9450945050602085013567ffffffffffffffff8111156132e557600080fd5b6132f187828801612cc3565b925092505092959194509250565b60006020828403121561331157600080fd5b600061331f84828501612d96565b91505092915050565b60006020828403121561333a57600080fd5b600061334884828501612dab565b91505092915050565b60006020828403121561336357600080fd5b600061337184828501612dea565b91505092915050565b600061338683836137c9565b60208301905092915050565b61339b81613e0e565b82525050565b60006133ac82613d4c565b6133b68185613d7a565b93506133c183613d27565b8060005b838110156133f25781516133d9888261337a565b97506133e483613d6d565b9250506001810190506133c5565b5085935050505092915050565b61340881613e20565b82525050565b600061341982613d57565b6134238185613d8b565b9350613433818560208601613e91565b61343c8161401f565b840191505092915050565b600061345282613d62565b61345c8185613d9c565b935061346c818560208601613e91565b6134758161401f565b840191505092915050565b600061348b82613d62565b6134958185613dad565b93506134a5818560208601613e91565b80840191505092915050565b600081546134be81613ec4565b6134c88186613dad565b945060018216600081146134e357600181146134f457613527565b60ff19831686528186019350613527565b6134fd85613d37565b60005b8381101561351f57815481890152600182019150602081019050613500565b838801955050505b50505092915050565b600061353d602883613d9c565b91506135488261403d565b604082019050919050565b6000613560601483613d9c565b915061356b8261408c565b602082019050919050565b6000613583602683613d9c565b915061358e826140b5565b604082019050919050565b60006135a6602483613d9c565b91506135b182614104565b604082019050919050565b60006135c9602c83613d9c565b91506135d482614153565b604082019050919050565b60006135ec602a83613d9c565b91506135f7826141a2565b604082019050919050565b600061360f602e83613d9c565b915061361a826141f1565b604082019050919050565b6000613632601083613d9c565b915061363d82614240565b602082019050919050565b6000613655602583613d9c565b915061366082614269565b604082019050919050565b6000613678602383613d9c565b9150613683826142b8565b604082019050919050565b600061369b602a83613d9c565b91506136a682614307565b604082019050919050565b60006136be602083613d9c565b91506136c982614356565b602082019050919050565b60006136e1602883613d9c565b91506136ec8261437f565b604082019050919050565b6000613704602983613d9c565b915061370f826143ce565b604082019050919050565b6000613727602983613d9c565b91506137328261441d565b604082019050919050565b600061374a602983613d9c565b91506137558261446c565b604082019050919050565b600061376d602883613d9c565b9150613778826144bb565b604082019050919050565b6000613790602183613d9c565b915061379b8261450a565b604082019050919050565b60006137b3603483613d9c565b91506137be82614559565b604082019050919050565b6137d281613e78565b82525050565b6137e181613e78565b82525050565b60006137f382856134b1565b91506137ff8284613480565b91508190509392505050565b60006020820190506138206000830184613392565b92915050565b600060a08201905061383b6000830188613392565b6138486020830187613392565b818103604083015261385a81866133a1565b9050818103606083015261386e81856133a1565b90508181036080830152613882818461340e565b90509695505050505050565b600060a0820190506138a36000830188613392565b6138b06020830187613392565b6138bd60408301866137d8565b6138ca60608301856137d8565b81810360808301526138dc818461340e565b90509695505050505050565b6000602082019050818103600083015261390281846133a1565b905092915050565b6000604082019050818103600083015261392481856133a1565b9050818103602083015261393881846133a1565b90509392505050565b600060208201905061395660008301846133ff565b92915050565b600060208201905081810360008301526139768184613447565b905092915050565b6000602082019050818103600083015261399781613530565b9050919050565b600060208201905081810360008301526139b781613553565b9050919050565b600060208201905081810360008301526139d781613576565b9050919050565b600060208201905081810360008301526139f781613599565b9050919050565b60006020820190508181036000830152613a17816135bc565b9050919050565b60006020820190508181036000830152613a37816135df565b9050919050565b60006020820190508181036000830152613a5781613602565b9050919050565b60006020820190508181036000830152613a7781613625565b9050919050565b60006020820190508181036000830152613a9781613648565b9050919050565b60006020820190508181036000830152613ab78161366b565b9050919050565b60006020820190508181036000830152613ad78161368e565b9050919050565b60006020820190508181036000830152613af7816136b1565b9050919050565b60006020820190508181036000830152613b17816136d4565b9050919050565b60006020820190508181036000830152613b37816136f7565b9050919050565b60006020820190508181036000830152613b578161371a565b9050919050565b60006020820190508181036000830152613b778161373d565b9050919050565b60006020820190508181036000830152613b9781613760565b9050919050565b60006020820190508181036000830152613bb781613783565b9050919050565b60006020820190508181036000830152613bd7816137a6565b9050919050565b6000602082019050613bf360008301846137d8565b92915050565b6000604082019050613c0e60008301856137d8565b613c1b60208301846137d8565b9392505050565b60008083356001602003843603038112613c3b57600080fd5b80840192508235915067ffffffffffffffff821115613c5957600080fd5b602083019250600182023603831315613c7157600080fd5b509250929050565b6000613c83613c94565b9050613c8f8282613ef6565b919050565b6000604051905090565b600067ffffffffffffffff821115613cb957613cb8613fce565b5b602082029050602081019050919050565b600067ffffffffffffffff821115613ce557613ce4613fce565b5b602082029050602081019050919050565b600067ffffffffffffffff821115613d1157613d10613fce565b5b613d1a8261401f565b9050602081019050919050565b6000819050602082019050919050565b60008190508160005260206000209050919050565b600081519050919050565b600081519050919050565b600081519050919050565b6000602082019050919050565b600082825260208201905092915050565b600082825260208201905092915050565b600082825260208201905092915050565b600081905092915050565b6000613dc382613e78565b9150613dce83613e78565b9250827fffffffffffffffffffffffffffffffffffffffffffffffffffffffffffffffff03821115613e0357613e02613f70565b5b828201905092915050565b6000613e1982613e58565b9050919050565b60008115159050919050565b60007fffffffff0000000000000000000000000000000000000000000000000000000082169050919050565b600073ffffffffffffffffffffffffffffffffffffffff82169050919050565b6000819050919050565b82818337600083830152505050565b60005b83811015613eaf578082015181840152602081019050613e94565b83811115613ebe576000848401525b50505050565b60006002820490506001821680613edc57607f821691505b60208210811415613ef057613eef613f9f565b5b50919050565b613eff8261401f565b810181811067ffffffffffffffff82111715613f1e57613f1d613fce565b5b80604052505050565b6000613f3282613e78565b91507fffffffffffffffffffffffffffffffffffffffffffffffffffffffffffffffff821415613f6557613f64613f70565b5b600182019050919050565b7f4e487b7100000000000000000000000000000000000000000000000000000000600052601160045260246000fd5b7f4e487b7100000000000000000000000000000000000000000000000000000000600052602260045260246000fd5b7f4e487b7100000000000000000000000000000000000000000000000000000000600052604160045260246000fd5b600060033d111561401c5760046000803e614019600051614030565b90505b90565b6000601f19601f8301169050919050565b60008160e01c9050919050565b7f455243313135353a204552433131353552656365697665722072656a6563746560008201527f6420746f6b656e73000000000000000000000000000000000000000000000000602082015250565b7f5061757361626c653a206e6f7420706175736564000000000000000000000000600082015250565b7f4f776e61626c653a206e6577206f776e657220697320746865207a65726f206160008201527f6464726573730000000000000000000000000000000000000000000000000000602082015250565b7f455243313135353a206275726e20616d6f756e7420657863656564732062616c60008201527f616e636500000000000000000000000000000000000000000000000000000000602082015250565b7f455243313135355061757361626c653a20746f6b656e207472616e736665722060008201527f7768696c65207061757365640000000000000000000000000000000000000000602082015250565b7f455243313135353a2061646472657373207a65726f206973206e6f742061207660008201527f616c6964206f776e657200000000000000000000000000000000000000000000602082015250565b7f455243313135353a2063616c6c6572206973206e6f7420746f6b656e206f776e60008201527f6572206f7220617070726f766564000000000000000000000000000000000000602082015250565b7f5061757361626c653a2070617573656400000000000000000000000000000000600082015250565b7f455243313135353a207472616e7366657220746f20746865207a65726f20616460008201527f6472657373000000000000000000000000000000000000000000000000000000602082015250565b7f455243313135353a206275726e2066726f6d20746865207a65726f206164647260008201527f6573730000000000000000000000000000000000000000000000000000000000602082015250565b7f455243313135353a20696e73756666696369656e742062616c616e636520666f60008201527f72207472616e7366657200000000000000000000000000000000000000000000602082015250565b7f4f776e61626c653a2063616c6c6572206973206e6f7420746865206f776e6572600082015250565b7f455243313135353a206275726e20616d6f756e74206578636565647320746f7460008201527f616c537570706c79000000000000000000000000000000000000000000000000602082015250565b7f746f6b656e49647320616e6420555249732073686f756c64206861766520736160008201527f6d65206c656e6774680000000000000000000000000000000000000000000000602082015250565b7f455243313135353a2073657474696e6720617070726f76616c2073746174757360008201527f20666f722073656c660000000000000000000000000000000000000000000000602082015250565b7f455243313135353a206163636f756e747320616e6420696473206c656e67746860008201527f206d69736d617463680000000000000000000000000000000000000000000000602082015250565b7f455243313135353a2069647320616e6420616d6f756e7473206c656e6774682060008201527f6d69736d61746368000000000000000000000000000000000000000000000000602082015250565b7f455243313135353a206d696e7420746f20746865207a65726f2061646472657360008201527f7300000000000000000000000000000000000000000000000000000000000000602082015250565b7f455243313135353a207472616e7366657220746f206e6f6e2d4552433131353560008201527f526563656976657220696d706c656d656e746572000000000000000000000000602082015250565b600060443d10156145b85761463b565b6145c0613c94565b60043d036004823e80513d602482011167ffffffffffffffff821117156145e857505061463b565b808201805167ffffffffffffffff811115614606575050505061463b565b80602083010160043d03850181111561462357505050505061463b565b61463282602001850186613ef6565b82955050505050505b90565b61464781613e0e565b811461465257600080fd5b50565b61465e81613e20565b811461466957600080fd5b50565b61467581613e2c565b811461468057600080fd5b50565b61468c81613e78565b811461469757600080fd5b5056fea264697066735822122047bda2fe8d0b78b7e5e415c141423f822241dd449b52f4d65ae18ce1e4ff7ba364736f6c63430008010033",
  "linkReferences": {},
  "deployedLinkReferences": {},
  "immutableReferences": {},
  "inputSourceName": "project/contracts/TCF_NFT.sol",
  "devdoc": {
    "kind": "dev",
    "methods": {
      "balanceOf(address,uint256)": {
        "details": "See {IERC1155-balanceOf}. Requirements: - `account` cannot be the zero address."
      },
      "balanceOfBatch(address[],uint256[])": {
        "details": "See {IERC1155-balanceOfBatch}. Requirements: - `accounts` and `ids` must have the same length."
      },
      "exists(uint256)": {
        "details": "Indicates whether any token exist with a given id, or not."
      },
      "isApprovedForAll(address,address)": {
        "details": "See {IERC1155-isApprovedForAll}."
      },
      "owner()": {
        "details": "Returns the address of the current owner."
      },
      "paused()": {
        "details": "Returns true if the contract is paused, and false otherwise."
      },
      "renounceOwnership()": {
        "details": "Leaves the contract without owner. It will not be possible to call `onlyOwner` functions. Can only be called by the current owner. NOTE: Renouncing ownership will leave the contract without an owner, thereby disabling any functionality that is only available to the owner."
      },
      "safeBatchTransferFrom(address,address,uint256[],uint256[],bytes)": {
        "details": "See {IERC1155-safeBatchTransferFrom}."
      },
      "safeTransferFrom(address,address,uint256,uint256,bytes)": {
        "details": "See {IERC1155-safeTransferFrom}."
      },
      "setApprovalForAll(address,bool)": {
        "details": "See {IERC1155-setApprovalForAll}."
      },
      "supportsInterface(bytes4)": {
        "details": "See {IERC165-supportsInterface}."
      },
      "totalSupply(uint256)": {
        "details": "Total amount of tokens in with a given id."
      },
      "transferOwnership(address)": {
        "details": "Transfers ownership of the contract to a new account (`newOwner`). Can only be called by the current owner."
      }
    },
    "version": 1
  },
  "evm": {
    "gasEstimates": {
      "creation": {
        "codeDepositCost": "3625600",
        "executionCost": "infinite",
        "totalCost": "infinite"
      },
      "external": {
        "balanceOf(address,uint256)": "infinite",
        "balanceOfBatch(address[],uint256[])": "infinite",
        "burn(address,uint256,uint256)": "infinite",
        "burnBatch(address,uint256[],uint256[])": "infinite",
        "exists(uint256)": "1602",
        "isApprovedForAll(address,address)": "infinite",
        "mint(address,uint256,uint256,bytes)": "infinite",
        "mintBatch(address,uint256[],uint256[],bytes)": "infinite",
        "owner()": "1333",
        "pause()": "infinite",
        "paused()": "1268",
        "renounceOwnership()": "24421",
        "safeBatchTransferFrom(address,address,uint256[],uint256[],bytes)": "infinite",
        "safeTransferFrom(address,address,uint256,uint256,bytes)": "infinite",
        "setApprovalForAll(address,bool)": "infinite",
        "setTokenURI(uint256[],bytes[])": "infinite",
        "supportsInterface(bytes4)": "819",
        "totalSupply(uint256)": "infinite",
        "transferOwnership(address)": "24857",
        "unpause()": "infinite",
        "uri(uint256)": "infinite"
      },
      "internal": {
        "_beforeTokenTransfer(address,address,address,uint256[] memory,uint256[] memory,bytes memory)": "infinite"
      }
    }
  },
  "storageLayout": {
    "storage": [
      {
        "astId": 782,
        "contract": "project/contracts/TCF_NFT.sol:TCF_NFT",
        "label": "_initialized",
        "offset": 0,
        "slot": "0",
        "type": "t_bool"
      },
      {
        "astId": 785,
        "contract": "project/contracts/TCF_NFT.sol:TCF_NFT",
        "label": "_initializing",
        "offset": 1,
        "slot": "0",
        "type": "t_bool"
      },
      {
        "astId": 986,
        "contract": "project/contracts/TCF_NFT.sol:TCF_NFT",
        "label": "_balances",
        "offset": 0,
        "slot": "1",
        "type": "t_mapping(t_uint256,t_mapping(t_address,t_uint256))"
      },
      {
        "astId": 992,
        "contract": "project/contracts/TCF_NFT.sol:TCF_NFT",
        "label": "_operatorApprovals",
        "offset": 0,
        "slot": "2",
        "type": "t_mapping(t_address,t_mapping(t_address,t_bool))"
      },
      {
        "astId": 994,
        "contract": "project/contracts/TCF_NFT.sol:TCF_NFT",
        "label": "_uri",
        "offset": 0,
        "slot": "3",
        "type": "t_string_storage"
      },
      {
        "astId": 669,
        "contract": "project/contracts/TCF_NFT.sol:TCF_NFT",
        "label": "_owner",
        "offset": 0,
        "slot": "4",
        "type": "t_address"
      },
      {
        "astId": 2647,
        "contract": "project/contracts/TCF_NFT.sol:TCF_NFT",
        "label": "_baseURI",
        "offset": 0,
        "slot": "5",
        "type": "t_string_storage"
      },
      {
        "astId": 2651,
        "contract": "project/contracts/TCF_NFT.sol:TCF_NFT",
        "label": "_tokenURIs",
        "offset": 0,
        "slot": "6",
        "type": "t_mapping(t_uint256,t_string_storage)"
      },
      {
        "astId": 867,
        "contract": "project/contracts/TCF_NFT.sol:TCF_NFT",
        "label": "_paused",
        "offset": 0,
        "slot": "7",
        "type": "t_bool"
      },
      {
        "astId": 2487,
        "contract": "project/contracts/TCF_NFT.sol:TCF_NFT",
        "label": "_totalSupply",
        "offset": 0,
        "slot": "8",
        "type": "t_mapping(t_uint256,t_uint256)"
      }
    ],
    "types": {
      "t_address": {
        "encoding": "inplace",
        "label": "address",
        "numberOfBytes": "20"
      },
      "t_bool": {
        "encoding": "inplace",
        "label": "bool",
        "numberOfBytes": "1"
      },
      "t_mapping(t_address,t_bool)": {
        "encoding": "mapping",
        "key": "t_address",
        "label": "mapping(address => bool)",
        "numberOfBytes": "32",
        "value": "t_bool"
      },
      "t_mapping(t_address,t_mapping(t_address,t_bool))": {
        "encoding": "mapping",
        "key": "t_address",
        "label": "mapping(address => mapping(address => bool))",
        "numberOfBytes": "32",
        "value": "t_mapping(t_address,t_bool)"
      },
      "t_mapping(t_address,t_uint256)": {
        "encoding": "mapping",
        "key": "t_address",
        "label": "mapping(address => uint256)",
        "numberOfBytes": "32",
        "value": "t_uint256"
      },
      "t_mapping(t_uint256,t_mapping(t_address,t_uint256))": {
        "encoding": "mapping",
        "key": "t_uint256",
        "label": "mapping(uint256 => mapping(address => uint256))",
        "numberOfBytes": "32",
        "value": "t_mapping(t_address,t_uint256)"
      },
      "t_mapping(t_uint256,t_string_storage)": {
        "encoding": "mapping",
        "key": "t_uint256",
        "label": "mapping(uint256 => string)",
        "numberOfBytes": "32",
        "value": "t_string_storage"
      },
      "t_mapping(t_uint256,t_uint256)": {
        "encoding": "mapping",
        "key": "t_uint256",
        "label": "mapping(uint256 => uint256)",
        "numberOfBytes": "32",
        "value": "t_uint256"
      },
      "t_string_storage": {
        "encoding": "bytes",
        "label": "string",
        "numberOfBytes": "32"
      },
      "t_uint256": {
        "encoding": "inplace",
        "label": "uint256",
        "numberOfBytes": "32"
      }
    }
  },
  "userdoc": {
    "kind": "user",
    "methods": {},
    "version": 1
  },
  "argsData": "0x",
  "transaction": {
    "hash": "0x5026bb99e8764b5a5bf6f5e206a62eab156ee84ff7ed112b8709ea763215f67c",
    "nonce": "0x1",
    "origin": "0xf39fd6e51aad88f6f4ce6ab8827279cfffb92266"
  }
}