{
  "address": "0x9fe46736679d2d9a65f0992f2272de9f3c7fa6e0",
  "abi": [
    {
      "anonymous": false,
      "inputs": [
        {
          "indexed": true,
          "internalType": "address",
          "name": "account",
          "type": "address"
        },
        {
          "indexed": true,
          "internalType": "address",
          "name": "operator",
          "type": "address"
        },
        {
          "indexed": false,
          "internalType": "bool",
          "name": "approved",
          "type": "bool"
        }
      ],
      "name": "ApprovalForAll",
      "type": "event"
    },
    {
      "anonymous": false,
      "inputs": [
        {
          "indexed": true,
          "internalType": "address",
          "name": "previousOwner",
          "type": "address"
        },
        {
          "indexed": true,
          "internalType": "address",
          "name": "newOwner",
          "type": "address"
        }
      ],
      "name": "OwnershipTransferred",
      "type": "event"
    },
    {
      "anonymous": false,
      "inputs": [
        {
          "indexed": false,
          "internalType": "address",
          "name": "account",
          "type": "address"
        }
      ],
      "name": "Paused",
      "type": "event"
    },
    {
      "anonymous": false,
      "inputs": [
        {
          "indexed": true,
          "internalType": "address",
          "name": "operator",
          "type": "address"
        },
        {
          "indexed": true,
          "internalType": "address",
          "name": "from",
          "type": "address"
        },
        {
          "indexed": true,
          "internalType": "address",
          "name": "to",
          "type": "address"
        },
        {
          "indexed": false,
          "internalType": "uint256[]",
          "name": "ids",
          "type": "uint256[]"
        },
        {
          "indexed": false,
          "internalType": "uint256[]",
          "name": "values",
          "type": "uint256[]"
        }
      ],
      "name": "TransferBatch",
      "type": "event"
    },
    {
      "anonymous": false,
      "inputs": [
        {
          "indexed": true,
          "internalType": "address",
          "name": "operator",
          "type": "address"
        },
        {
          "indexed": true,
          "internalType": "address",
          "name": "from",
          "type": "address"
        },
        {
          "indexed": true,
          "internalType": "address",
          "name": "to",
          "type": "address"
        },
        {
          "indexed": false,
          "internalType": "uint256",
          "name": "id",
          "type": "uint256"
        },
        {
          "indexed": false,
          "internalType": "uint256",
          "name": "value",
          "type": "uint256"
        }
      ],
      "name": "TransferSingle",
      "type": "event"
    },
    {
      "anonymous": false,
      "inputs": [
        {
          "indexed": false,
          "internalType": "string",
          "name": "value",
          "type": "string"
        },
        {
          "indexed": true,
          "internalType": "uint256",
          "name": "id",
          "type": "uint256"
        }
      ],
      "name": "URI",
      "type": "event"
    },
    {
      "anonymous": false,
      "inputs": [
        {
          "indexed": false,
          "internalType": "address",
          "name": "account",
          "type": "address"
        }
      ],
      "name": "Unpaused",
      "type": "event"
    },
    {
      "inputs": [
        {
          "components": [
            {
              "components": [
                {
                  "internalType": "address",
                  "name": "tokenAddress",
                  "type": "address"
                },
                {
                  "internalType": "uint256",
                  "name": "amount",
                  "type": "uint256"
                }
              ],
              "internalType": "struct TCF_NFTPrice.priceTypeAndAomut[]",
              "name": "priceData",
              "type": "tuple[]"
            }
          ],
          "internalType": "struct TCF_NFTPrice.oneTokenPriceTypeAndAomut_parm[6]",
          "name": "prices",
          "type": "tuple[6]"
        },
        {
          "internalType": "address[]",
          "name": "tokenAddresses",
          "type": "address[]"
        }
      ],
      "name": "__TCF_NFTPrice_init_",
      "outputs": [],
      "stateMutability": "nonpayable",
      "type": "function"
    },
    {
      "inputs": [
        {
          "internalType": "address",
          "name": "account",
          "type": "address"
        },
        {
          "internalType": "uint256",
          "name": "id",
          "type": "uint256"
        }
      ],
      "name": "balanceOf",
      "outputs": [
        {
          "internalType": "uint256",
          "name": "",
          "type": "uint256"
        }
      ],
      "stateMutability": "view",
      "type": "function"
    },
    {
      "inputs": [
        {
          "internalType": "address[]",
          "name": "accounts",
          "type": "address[]"
        },
        {
          "internalType": "uint256[]",
          "name": "ids",
          "type": "uint256[]"
        }
      ],
      "name": "balanceOfBatch",
      "outputs": [
        {
          "internalType": "uint256[]",
          "name": "",
          "type": "uint256[]"
        }
      ],
      "stateMutability": "view",
      "type": "function"
    },
    {
      "inputs": [
        {
          "internalType": "address",
          "name": "oldTokenAddress",
          "type": "address"
        },
        {
          "internalType": "address",
          "name": "newTokenAddress",
          "type": "address"
        }
      ],
      "name": "changeSupportedToken",
      "outputs": [],
      "stateMutability": "nonpayable",
      "type": "function"
    },
    {
      "inputs": [
        {
          "internalType": "uint256",
          "name": "id",
          "type": "uint256"
        }
      ],
      "name": "exists",
      "outputs": [
        {
          "internalType": "bool",
          "name": "",
          "type": "bool"
        }
      ],
      "stateMutability": "view",
      "type": "function"
    },
    {
      "inputs": [
        {
          "internalType": "address",
          "name": "account",
          "type": "address"
        },
        {
          "internalType": "address",
          "name": "operator",
          "type": "address"
        }
      ],
      "name": "isApprovedForAll",
      "outputs": [
        {
          "internalType": "bool",
          "name": "",
          "type": "bool"
        }
      ],
      "stateMutability": "view",
      "type": "function"
    },
    {
      "inputs": [
        {
          "internalType": "address",
          "name": "account",
          "type": "address"
        },
        {
          "internalType": "uint256",
          "name": "id",
          "type": "uint256"
        },
        {
          "internalType": "uint256",
          "name": "amount",
          "type": "uint256"
        },
        {
          "internalType": "bytes",
          "name": "data",
          "type": "bytes"
        }
      ],
      "name": "mint",
      "outputs": [],
      "stateMutability": "nonpayable",
      "type": "function"
    },
    {
      "inputs": [
        {
          "internalType": "address",
          "name": "to",
          "type": "address"
        },
        {
          "internalType": "uint256[]",
          "name": "ids",
          "type": "uint256[]"
        },
        {
          "internalType": "uint256[]",
          "name": "amounts",
          "type": "uint256[]"
        },
        {
          "internalType": "bytes",
          "name": "data",
          "type": "bytes"
        }
      ],
      "name": "mintBatch",
      "outputs": [],
      "stateMutability": "nonpayable",
      "type": "function"
    },
    {
      "inputs": [],
      "name": "owner",
      "outputs": [
        {
          "internalType": "address",
          "name": "",
          "type": "address"
        }
      ],
      "stateMutability": "view",
      "type": "function"
    },
    {
      "inputs": [],
      "name": "pause",
      "outputs": [],
      "stateMutability": "nonpayable",
      "type": "function"
    },
    {
      "inputs": [],
      "name": "paused",
      "outputs": [
        {
          "internalType": "bool",
          "name": "",
          "type": "bool"
        }
      ],
      "stateMutability": "view",
      "type": "function"
    },
    {
      "inputs": [],
      "name": "renounceOwnership",
      "outputs": [],
      "stateMutability": "nonpayable",
      "type": "function"
    },
    {
      "inputs": [
        {
          "internalType": "address",
          "name": "from",
          "type": "address"
        },
        {
          "internalType": "address",
          "name": "to",
          "type": "address"
        },
        {
          "internalType": "uint256[]",
          "name": "ids",
          "type": "uint256[]"
        },
        {
          "internalType": "uint256[]",
          "name": "amounts",
          "type": "uint256[]"
        },
        {
          "internalType": "bytes",
          "name": "data",
          "type": "bytes"
        }
      ],
      "name": "safeBatchTransferFrom",
      "outputs": [],
      "stateMutability": "nonpayable",
      "type": "function"
    },
    {
      "inputs": [
        {
          "internalType": "address",
          "name": "from",
          "type": "address"
        },
        {
          "internalType": "address",
          "name": "to",
          "type": "address"
        },
        {
          "internalType": "uint256",
          "name": "id",
          "type": "uint256"
        },
        {
          "internalType": "uint256",
          "name": "amount",
          "type": "uint256"
        },
        {
          "internalType": "bytes",
          "name": "data",
          "type": "bytes"
        }
      ],
      "name": "safeTransferFrom",
      "outputs": [],
      "stateMutability": "nonpayable",
      "type": "function"
    },
    {
      "inputs": [
        {
          "internalType": "address",
          "name": "operator",
          "type": "address"
        },
        {
          "internalType": "bool",
          "name": "approved",
          "type": "bool"
        }
      ],
      "name": "setApprovalForAll",
      "outputs": [],
      "stateMutability": "nonpayable",
      "type": "function"
    },
    {
      "inputs": [
        {
          "internalType": "uint256",
          "name": "tokenID",
          "type": "uint256"
        },
        {
          "internalType": "address",
          "name": "tokenAddress",
          "type": "address"
        },
        {
          "internalType": "uint256",
          "name": "amount",
          "type": "uint256"
        }
      ],
      "name": "setNFTPrice",
      "outputs": [],
      "stateMutability": "nonpayable",
      "type": "function"
    },
    {
      "inputs": [
        {
          "internalType": "uint256[]",
          "name": "tokenIds",
          "type": "uint256[]"
        },
        {
          "internalType": "bytes[]",
          "name": "URIs",
          "type": "bytes[]"
        }
      ],
      "name": "setTokenURI",
      "outputs": [],
      "stateMutability": "nonpayable",
      "type": "function"
    },
    {
      "inputs": [
        {
          "internalType": "address",
          "name": "",
          "type": "address"
        }
      ],
      "name": "supportTokenType",
      "outputs": [
        {
          "internalType": "uint8",
          "name": "",
          "type": "uint8"
        }
      ],
      "stateMutability": "view",
      "type": "function"
    },
    {
      "inputs": [
        {
          "internalType": "bytes4",
          "name": "interfaceId",
          "type": "bytes4"
        }
      ],
      "name": "supportsInterface",
      "outputs": [
        {
          "internalType": "bool",
          "name": "",
          "type": "bool"
        }
      ],
      "stateMutability": "view",
      "type": "function"
    },
    {
      "inputs": [
        {
          "internalType": "uint256",
          "name": "id",
          "type": "uint256"
        }
      ],
      "name": "totalSupply",
      "outputs": [
        {
          "internalType": "uint256",
          "name": "",
          "type": "uint256"
        }
      ],
      "stateMutability": "view",
      "type": "function"
    },
    {
      "inputs": [
        {
          "internalType": "address",
          "name": "newOwner",
          "type": "address"
        }
      ],
      "name": "transferOwnership",
      "outputs": [],
      "stateMutability": "nonpayable",
      "type": "function"
    },
    {
      "inputs": [],
      "name": "unpause",
      "outputs": [],
      "stateMutability": "nonpayable",
      "type": "function"
    },
    {
      "inputs": [
        {
          "internalType": "uint256",
          "name": "tokenId",
          "type": "uint256"
        }
      ],
      "name": "uri",
      "outputs": [
        {
          "internalType": "string",
          "name": "",
          "type": "string"
        }
      ],
      "stateMutability": "view",
      "type": "function"
    }
  ],
  "contractName": "TCF_NFTPrice",
  "sourceName": "contracts/TCF_NFTPrice.sol",
  "bytecode": "0x608060405260405180602001604052806000815250600590805190602001906200002b92919062000149565b503480156200003957600080fd5b506200005a6200004e6200007b60201b60201c565b6200008360201b60201c565b6000600760006101000a81548160ff0219169083151502179055506200025e565b600033905090565b6000600460009054906101000a900473ffffffffffffffffffffffffffffffffffffffff16905081600460006101000a81548173ffffffffffffffffffffffffffffffffffffffff021916908373ffffffffffffffffffffffffffffffffffffffff1602179055508173ffffffffffffffffffffffffffffffffffffffff168173ffffffffffffffffffffffffffffffffffffffff167f8be0079c531659141344cd1fd0a4f28419497f9722a3daafe3b4186f6b6457e060405160405180910390a35050565b8280546200015790620001f9565b90600052602060002090601f0160209004810192826200017b5760008555620001c7565b82601f106200019657805160ff1916838001178555620001c7565b82800160010185558215620001c7579182015b82811115620001c6578251825591602001919060010190620001a9565b5b509050620001d69190620001da565b5090565b5b80821115620001f5576000816000905550600101620001db565b5090565b600060028204905060018216806200021257607f821691505b602082108114156200022957620002286200022f565b5b50919050565b7f4e487b7100000000000000000000000000000000000000000000000000000000600052602260045260246000fd5b615903806200026e6000396000f3fe608060405234801561001057600080fd5b506004361061014c5760003560e01c8063715018a6116100c3578063bd85b0391161007c578063bd85b03914610373578063e6f89bd9146103a3578063e985e9c5146103bf578063ec613539146103ef578063f242432a1461040b578063f2fde38b146104275761014c565b8063715018a6146102ed578063731133e9146102f757806378f91b9c146103135780638456cb591461032f5780638da5cb5b14610339578063a22cb465146103575761014c565b806333f190ee1161011557806333f190ee146102195780633f4ba83a146102495780634e1273f4146102535780634f558e79146102835780635c975abb146102b35780636394c23c146102d15761014c565b8062fdd58e1461015157806301ffc9a7146101815780630e89341c146101b15780631f7fdffa146101e15780632eb2c2d6146101fd575b600080fd5b61016b60048036038101906101669190613b4f565b610443565b604051610178919061495b565b60405180910390f35b61019b60048036038101906101969190613d57565b61050d565b6040516101a8919061457e565b60405180910390f35b6101cb60048036038101906101c69190613dd2565b6105ef565b6040516101d89190614599565b60405180910390f35b6101fb60048036038101906101f69190613a68565b610601565b005b6102176004803603810190610212919061391a565b61061b565b005b610233600480360381019061022e91906138b5565b6106bc565b604051610240919061499f565b60405180910390f35b6102516106dc565b005b61026d60048036038101906102689190613c06565b6106ee565b60405161027a9190614525565b60405180910390f35b61029d60048036038101906102989190613dd2565b61089f565b6040516102aa919061457e565b60405180910390f35b6102bb6108b3565b6040516102c8919061457e565b60405180910390f35b6102eb60048036038101906102e69190613dfb565b6108ca565b005b6102f56109ff565b005b610311600480360381019061030c9190613b8b565b610a13565b005b61032d60048036038101906103289190613ce2565b610a25565b005b610337610b78565b005b610341610b8a565b60405161034e9190614448565b60405180910390f35b610371600480360381019061036c9190613b13565b610bb4565b005b61038d60048036038101906103889190613dd2565b610bca565b60405161039a919061495b565b60405180910390f35b6103bd60048036038101906103b89190613c72565b610be7565b005b6103d960048036038101906103d491906138de565b610d0c565b6040516103e6919061457e565b60405180910390f35b610409600480360381019061040491906138de565b610da0565b005b610425600480360381019061042091906139d9565b610ede565b005b610441600480360381019061043c91906138b5565b610f7f565b005b60008073ffffffffffffffffffffffffffffffffffffffff168373ffffffffffffffffffffffffffffffffffffffff1614156104b4576040517f08c379a00000000000000000000000000000000000000000000000000000000081526004016104ab9061469b565b60405180910390fd5b6001600083815260200190815260200160002060008473ffffffffffffffffffffffffffffffffffffffff1673ffffffffffffffffffffffffffffffffffffffff16815260200190815260200160002054905092915050565b60007fd9b67a26000000000000000000000000000000000000000000000000000000007bffffffffffffffffffffffffffffffffffffffffffffffffffffffff1916827bffffffffffffffffffffffffffffffffffffffffffffffffffffffff191614806105d857507f0e89341c000000000000000000000000000000000000000000000000000000007bffffffffffffffffffffffffffffffffffffffffffffffffffffffff1916827bffffffffffffffffffffffffffffffffffffffffffffffffffffffff1916145b806105e857506105e782611003565b5b9050919050565b60606105fa8261106d565b9050919050565b610609611152565b610615848484846111d0565b50505050565b61062361144a565b73ffffffffffffffffffffffffffffffffffffffff168573ffffffffffffffffffffffffffffffffffffffff16148061066957506106688561066361144a565b610d0c565b5b6106a8576040517f08c379a000000000000000000000000000000000000000000000000000000000815260040161069f906146bb565b60405180910390fd5b6106b58585858585611452565b5050505050565b60096020528060005260406000206000915054906101000a900460ff1681565b6106e4611152565b6106ec6117c3565b565b60608151835114610734576040517f08c379a000000000000000000000000000000000000000000000000000000000815260040161072b906148bb565b60405180910390fd5b6000835167ffffffffffffffff811115610777577f4e487b7100000000000000000000000000000000000000000000000000000000600052604160045260246000fd5b6040519080825280602002602001820160405280156107a55781602001602082028036833780820191505090505b50905060005b84518110156108945761083e8582815181106107f0577f4e487b7100000000000000000000000000000000000000000000000000000000600052603260045260246000fd5b6020026020010151858381518110610831577f4e487b7100000000000000000000000000000000000000000000000000000000600052603260045260246000fd5b6020026020010151610443565b828281518110610877577f4e487b7100000000000000000000000000000000000000000000000000000000600052603260045260246000fd5b6020026020010181815250508061088d90614d86565b90506107ab565b508091505092915050565b6000806108ab83610bca565b119050919050565b6000600760009054906101000a900460ff16905090565b6006831061090d576040517f08c379a0000000000000000000000000000000000000000000000000000000008152600401610904906146fb565b60405180910390fd5b6001600960008473ffffffffffffffffffffffffffffffffffffffff1673ffffffffffffffffffffffffffffffffffffffff16815260200190815260200160002060009054906101000a900460ff1660ff161461099f576040517f08c379a00000000000000000000000000000000000000000000000000000000081526004016109969061487b565b60405180910390fd5b80600b600085815260200190815260200160002060000160000160008473ffffffffffffffffffffffffffffffffffffffff1673ffffffffffffffffffffffffffffffffffffffff16815260200190815260200160002081905550505050565b610a07611152565b610a116000611826565b565b610a1f848484846118ec565b50505050565b610a2d611152565b81819050848490501415610a76576040517f08c379a0000000000000000000000000000000000000000000000000000000008152600401610a6d9061483b565b60405180910390fd5b600084849050905060005b81811015610b7057610b5f868683818110610ac5577f4e487b7100000000000000000000000000000000000000000000000000000000600052603260045260246000fd5b90506020020135858584818110610b05577f4e487b7100000000000000000000000000000000000000000000000000000000600052603260045260246000fd5b9050602002810190610b179190614a11565b8080601f016020809104026020016040519081016040528093929190818152602001838380828437600081840152601f19601f82011690508083019250505050505050611a9e565b80610b6990614d86565b9050610a81565b505050505050565b610b80611152565b610b88611b0a565b565b6000600460009054906101000a900473ffffffffffffffffffffffffffffffffffffffff16905090565b610bc6610bbf61144a565b8383611b6d565b5050565b600060086000838152602001908152602001600020549050919050565b610bef611152565b600060019054906101000a900460ff16610c175760008054906101000a900460ff1615610c20565b610c1f611cda565b5b610c5f576040517f08c379a0000000000000000000000000000000000000000000000000000000008152600401610c569061477b565b60405180910390fd5b60008060019054906101000a900460ff161590508015610caf576001600060016101000a81548160ff02191690831515021790555060016000806101000a81548160ff0219169083151502179055505b610cc760405180602001604052806000815250611ceb565b610cd18383611d46565b610cdc84848461204f565b610ce584612332565b8015610d065760008060016101000a81548160ff0219169083151502179055505b50505050565b6000600260008473ffffffffffffffffffffffffffffffffffffffff1673ffffffffffffffffffffffffffffffffffffffff16815260200190815260200160002060008373ffffffffffffffffffffffffffffffffffffffff1673ffffffffffffffffffffffffffffffffffffffff16815260200190815260200160002060009054906101000a900460ff16905092915050565b6001600960008473ffffffffffffffffffffffffffffffffffffffff1673ffffffffffffffffffffffffffffffffffffffff16815260200190815260200160002060009054906101000a900460ff1660ff1614610e32576040517f08c379a0000000000000000000000000000000000000000000000000000000008152600401610e299061475b565b60405180910390fd5b600960008373ffffffffffffffffffffffffffffffffffffffff1673ffffffffffffffffffffffffffffffffffffffff16815260200190815260200160002060006101000a81549060ff02191690556001600960008373ffffffffffffffffffffffffffffffffffffffff1673ffffffffffffffffffffffffffffffffffffffff16815260200190815260200160002060006101000a81548160ff021916908360ff1602179055505050565b610ee661144a565b73ffffffffffffffffffffffffffffffffffffffff168573ffffffffffffffffffffffffffffffffffffffff161480610f2c5750610f2b85610f2661144a565b610d0c565b5b610f6b576040517f08c379a0000000000000000000000000000000000000000000000000000000008152600401610f62906146bb565b60405180910390fd5b610f7885858585856127cd565b5050505050565b610f87611152565b600073ffffffffffffffffffffffffffffffffffffffff168173ffffffffffffffffffffffffffffffffffffffff161415610ff7576040517f08c379a0000000000000000000000000000000000000000000000000000000008152600401610fee906145fb565b60405180910390fd5b61100081611826565b50565b60007f01ffc9a7000000000000000000000000000000000000000000000000000000007bffffffffffffffffffffffffffffffffffffffffffffffffffffffff1916827bffffffffffffffffffffffffffffffffffffffffffffffffffffffff1916149050919050565b6060600060066000848152602001908152602001600020805461108f90614d23565b80601f01602080910402602001604051908101604052809291908181526020018280546110bb90614d23565b80156111085780601f106110dd57610100808354040283529160200191611108565b820191906000526020600020905b8154815290600101906020018083116110eb57829003601f168201915b5050505050905060008151116111265761112183612a6c565b61114a565b60058160405160200161113a929190614424565b6040516020818303038152906040525b915050919050565b61115a61144a565b73ffffffffffffffffffffffffffffffffffffffff16611178610b8a565b73ffffffffffffffffffffffffffffffffffffffff16146111ce576040517f08c379a00000000000000000000000000000000000000000000000000000000081526004016111c5906147db565b60405180910390fd5b565b600073ffffffffffffffffffffffffffffffffffffffff168473ffffffffffffffffffffffffffffffffffffffff161415611240576040517f08c379a00000000000000000000000000000000000000000000000000000000081526004016112379061491b565b60405180910390fd5b8151835114611284576040517f08c379a000000000000000000000000000000000000000000000000000000000815260040161127b906148fb565b60405180910390fd5b600061128e61144a565b905061129f81600087878787612b00565b60005b84518110156113a5578381815181106112e4577f4e487b7100000000000000000000000000000000000000000000000000000000600052603260045260246000fd5b602002602001015160016000878481518110611329577f4e487b7100000000000000000000000000000000000000000000000000000000600052603260045260246000fd5b6020026020010151815260200190815260200160002060008873ffffffffffffffffffffffffffffffffffffffff1673ffffffffffffffffffffffffffffffffffffffff168152602001908152602001600020600082825461138b9190614bf7565b92505081905550808061139d90614d86565b9150506112a2565b508473ffffffffffffffffffffffffffffffffffffffff16600073ffffffffffffffffffffffffffffffffffffffff168273ffffffffffffffffffffffffffffffffffffffff167f4a39dc06d4c0dbc64b70af90fd698a233a518aa5d07e595d983b8c0526c8f7fb878760405161141d929190614547565b60405180910390a461143481600087878787612b16565b61144381600087878787612b1e565b5050505050565b600033905090565b8151835114611496576040517f08c379a000000000000000000000000000000000000000000000000000000000815260040161148d906148fb565b60405180910390fd5b600073ffffffffffffffffffffffffffffffffffffffff168473ffffffffffffffffffffffffffffffffffffffff161415611506576040517f08c379a00000000000000000000000000000000000000000000000000000000081526004016114fd9061473b565b60405180910390fd5b600061151061144a565b9050611520818787878787612b00565b60005b8451811015611720576000858281518110611567577f4e487b7100000000000000000000000000000000000000000000000000000000600052603260045260246000fd5b6020026020010151905060008583815181106115ac577f4e487b7100000000000000000000000000000000000000000000000000000000600052603260045260246000fd5b6020026020010151905060006001600084815260200190815260200160002060008b73ffffffffffffffffffffffffffffffffffffffff1673ffffffffffffffffffffffffffffffffffffffff1681526020019081526020016000205490508181101561164e576040517f08c379a0000000000000000000000000000000000000000000000000000000008152600401611645906147bb565b60405180910390fd5b8181036001600085815260200190815260200160002060008c73ffffffffffffffffffffffffffffffffffffffff1673ffffffffffffffffffffffffffffffffffffffff16815260200190815260200160002081905550816001600085815260200190815260200160002060008b73ffffffffffffffffffffffffffffffffffffffff1673ffffffffffffffffffffffffffffffffffffffff16815260200190815260200160002060008282546117059190614bf7565b925050819055505050508061171990614d86565b9050611523565b508473ffffffffffffffffffffffffffffffffffffffff168673ffffffffffffffffffffffffffffffffffffffff168273ffffffffffffffffffffffffffffffffffffffff167f4a39dc06d4c0dbc64b70af90fd698a233a518aa5d07e595d983b8c0526c8f7fb8787604051611797929190614547565b60405180910390a46117ad818787878787612b16565b6117bb818787878787612b1e565b505050505050565b6117cb612d05565b6000600760006101000a81548160ff0219169083151502179055507f5db9ee0a495bf2e6ff9c91a7834c1ba4fdd244a5e8aa4e537bd38aeae4b073aa61180f61144a565b60405161181c9190614448565b60405180910390a1565b6000600460009054906101000a900473ffffffffffffffffffffffffffffffffffffffff16905081600460006101000a81548173ffffffffffffffffffffffffffffffffffffffff021916908373ffffffffffffffffffffffffffffffffffffffff1602179055508173ffffffffffffffffffffffffffffffffffffffff168173ffffffffffffffffffffffffffffffffffffffff167f8be0079c531659141344cd1fd0a4f28419497f9722a3daafe3b4186f6b6457e060405160405180910390a35050565b600073ffffffffffffffffffffffffffffffffffffffff168473ffffffffffffffffffffffffffffffffffffffff16141561195c576040517f08c379a00000000000000000000000000000000000000000000000000000000081526004016119539061491b565b60405180910390fd5b600061196661144a565b9050600061197385612d4e565b9050600061198085612d4e565b905061199183600089858589612b00565b846001600088815260200190815260200160002060008973ffffffffffffffffffffffffffffffffffffffff1673ffffffffffffffffffffffffffffffffffffffff16815260200190815260200160002060008282546119f19190614bf7565b925050819055508673ffffffffffffffffffffffffffffffffffffffff16600073ffffffffffffffffffffffffffffffffffffffff168473ffffffffffffffffffffffffffffffffffffffff167fc3d58168c5ae7397731d063d5bbf3d657854427343f4c083240f7aacaa2d0f628989604051611a6f929190614976565b60405180910390a4611a8683600089858589612b16565b611a9583600089898989612e14565b50505050505050565b80600660008481526020019081526020016000209080519060200190611ac59291906133ad565b50817f6bb7ff708619ba0610cba295a58592e0451dee2622938c8755667688daf3529b611af1846105ef565b604051611afe9190614599565b60405180910390a25050565b611b12612ffb565b6001600760006101000a81548160ff0219169083151502179055507f62e78cea01bee320cd4e420270b5ea74000d11b0c9f74754ebdbfc544b05a258611b5661144a565b604051611b639190614448565b60405180910390a1565b8173ffffffffffffffffffffffffffffffffffffffff168373ffffffffffffffffffffffffffffffffffffffff161415611bdc576040517f08c379a0000000000000000000000000000000000000000000000000000000008152600401611bd39061489b565b60405180910390fd5b80600260008573ffffffffffffffffffffffffffffffffffffffff1673ffffffffffffffffffffffffffffffffffffffff16815260200190815260200160002060008473ffffffffffffffffffffffffffffffffffffffff1673ffffffffffffffffffffffffffffffffffffffff16815260200190815260200160002060006101000a81548160ff0219169083151502179055508173ffffffffffffffffffffffffffffffffffffffff168373ffffffffffffffffffffffffffffffffffffffff167f17307eab39ab6107e8899845ad3d59bd9653f200f220920489ca2b5937696c3183604051611ccd919061457e565b60405180910390a3505050565b6000611ce530613045565b15905090565b600060019054906101000a900460ff16611d3a576040517f08c379a0000000000000000000000000000000000000000000000000000000008152600401611d319061485b565b60405180910390fd5b611d4381613068565b50565b60038282905010611d8c576040517f08c379a0000000000000000000000000000000000000000000000000000000008152600401611d839061467b565b60405180910390fd5b600082829050905060005b81811015611e6f57600073ffffffffffffffffffffffffffffffffffffffff16848483818110611df0577f4e487b7100000000000000000000000000000000000000000000000000000000600052603260045260246000fd5b9050602002016020810190611e0591906138b5565b73ffffffffffffffffffffffffffffffffffffffff161415611e5c576040517f08c379a0000000000000000000000000000000000000000000000000000000008152600401611e539061479b565b60405180910390fd5b8080611e6790614d86565b915050611d97565b506002811415611f855782826001818110611eb3577f4e487b7100000000000000000000000000000000000000000000000000000000600052603260045260246000fd5b9050602002016020810190611ec891906138b5565b73ffffffffffffffffffffffffffffffffffffffff1683836000818110611f18577f4e487b7100000000000000000000000000000000000000000000000000000000600052603260045260246000fd5b9050602002016020810190611f2d91906138b5565b73ffffffffffffffffffffffffffffffffffffffff161415611f84576040517f08c379a0000000000000000000000000000000000000000000000000000000008152600401611f7b9061463b565b60405180910390fd5b5b60005b8181101561204957600160096000868685818110611fcf577f4e487b7100000000000000000000000000000000000000000000000000000000600052603260045260246000fd5b9050602002016020810190611fe491906138b5565b73ffffffffffffffffffffffffffffffffffffffff1673ffffffffffffffffffffffffffffffffffffffff16815260200190815260200160002060006101000a81548160ff021916908360ff160217905550808061204190614d86565b915050611f88565b50505050565b60006006905060006001848490506120679190614bf7565b9050600080600090505b8381101561232957828782600681106120b3577f4e487b7100000000000000000000000000000000000000000000000000000000600052603260045260246000fd5b6020028101906120c39190614a68565b80600001906120d291906149ba565b905014612114576040517f08c379a000000000000000000000000000000000000000000000000000000000815260040161210b9061481b565b60405180910390fd5b600087826006811061214f577f4e487b7100000000000000000000000000000000000000000000000000000000600052603260045260246000fd5b60200281019061215f9190614a68565b61216890614cce565b90506000805b858110156122d557826000015181815181106121b3577f4e487b7100000000000000000000000000000000000000000000000000000000600052603260045260246000fd5b6020026020010151600001519450600073ffffffffffffffffffffffffffffffffffffffff168573ffffffffffffffffffffffffffffffffffffffff16148061224b57506001600960008773ffffffffffffffffffffffffffffffffffffffff1673ffffffffffffffffffffffffffffffffffffffff16815260200190815260200160002060009054906101000a900460ff1660ff16145b61228a576040517f08c379a0000000000000000000000000000000000000000000000000000000008152600401612281906146db565b60405180910390fd5b600073ffffffffffffffffffffffffffffffffffffffff168573ffffffffffffffffffffffffffffffffffffffff1614156122c457600191505b806122ce90614d86565b905061216e565b5080612316576040517f08c379a000000000000000000000000000000000000000000000000000000000815260040161230d906148db565b60405180910390fd5b50508061232290614d86565b9050612071565b50505050505050565b60068014612375576040517f08c379a000000000000000000000000000000000000000000000000000000000815260040161236c9061461b565b60405180910390fd5b60006040518060c0016040528062ed4e008152602001630107ac00815260200163013c68008152602001630171240081526020016301a5e00081526020016301da9c00815250905060006040518060c001604052806028815260200160328152602001603c815260200160508152602001605a8152602001606481525090506000600b9050612402613433565b60005b60068110156127a9576000868260068110612449577f4e487b7100000000000000000000000000000000000000000000000000000000600052603260045260246000fd5b6020028101906124599190614a68565b806000019061246891906149ba565b808060200260200160405190810160405280939291908181526020016000905b828210156124b8578484839050604002018036038101906124a99190613da9565b81526020019060010190612488565b505050505090506040518060600160405280888460068110612503577f4e487b7100000000000000000000000000000000000000000000000000000000600052603260045260246000fd5b6020028101906125139190614a68565b61251c90614cce565b815260200186846006811061255a577f4e487b7100000000000000000000000000000000000000000000000000000000600052603260045260246000fd5b6020020151815260200187846006811061259d577f4e487b7100000000000000000000000000000000000000000000000000000000600052603260045260246000fd5b602002015181525092508582600681106125e0577f4e487b7100000000000000000000000000000000000000000000000000000000600052603260045260246000fd5b602002015184600084815260200190815260200160002060020181905550848260068110612637577f4e487b7100000000000000000000000000000000000000000000000000000000600052603260045260246000fd5b60200201518460008481526020019081526020016000206001018190555060005b600381101561279657600082828151811061269c577f4e487b7100000000000000000000000000000000000000000000000000000000600052603260045260246000fd5b6020026020010151600001519050600073ffffffffffffffffffffffffffffffffffffffff168173ffffffffffffffffffffffffffffffffffffffff1614156126e457600190505b82828151811061271d577f4e487b7100000000000000000000000000000000000000000000000000000000600052603260045260246000fd5b60200260200101516020015186600086815260200190815260200160002060000160000160008373ffffffffffffffffffffffffffffffffffffffff1673ffffffffffffffffffffffffffffffffffffffff1681526020019081526020016000208190555050828061278e90614d86565b935050612658565b5050806127a290614d86565b9050612405565b506001600a60006101000a81548160ff021916908360ff1602179055505050505050565b600073ffffffffffffffffffffffffffffffffffffffff168473ffffffffffffffffffffffffffffffffffffffff16141561283d576040517f08c379a00000000000000000000000000000000000000000000000000000000081526004016128349061473b565b60405180910390fd5b600061284761144a565b9050600061285485612d4e565b9050600061286185612d4e565b9050612871838989858589612b00565b60006001600088815260200190815260200160002060008a73ffffffffffffffffffffffffffffffffffffffff1673ffffffffffffffffffffffffffffffffffffffff16815260200190815260200160002054905085811015612909576040517f08c379a0000000000000000000000000000000000000000000000000000000008152600401612900906147bb565b60405180910390fd5b8581036001600089815260200190815260200160002060008b73ffffffffffffffffffffffffffffffffffffffff1673ffffffffffffffffffffffffffffffffffffffff16815260200190815260200160002081905550856001600089815260200190815260200160002060008a73ffffffffffffffffffffffffffffffffffffffff1673ffffffffffffffffffffffffffffffffffffffff16815260200190815260200160002060008282546129c09190614bf7565b925050819055508773ffffffffffffffffffffffffffffffffffffffff168973ffffffffffffffffffffffffffffffffffffffff168573ffffffffffffffffffffffffffffffffffffffff167fc3d58168c5ae7397731d063d5bbf3d657854427343f4c083240f7aacaa2d0f628a8a604051612a3d929190614976565b60405180910390a4612a53848a8a86868a612b16565b612a61848a8a8a8a8a612e14565b505050505050505050565b606060038054612a7b90614d23565b80601f0160208091040260200160405190810160405280929190818152602001828054612aa790614d23565b8015612af45780601f10612ac957610100808354040283529160200191612af4565b820191906000526020600020905b815481529060010190602001808311612ad757829003601f168201915b50505050509050919050565b612b0e8686868686866130c3565b505050505050565b505050505050565b612b3d8473ffffffffffffffffffffffffffffffffffffffff16613045565b15612cfd578373ffffffffffffffffffffffffffffffffffffffff1663bc197c8187878686866040518663ffffffff1660e01b8152600401612b83959493929190614463565b602060405180830381600087803b158015612b9d57600080fd5b505af1925050508015612bce57506040513d601f19601f82011682018060405250810190612bcb9190613d80565b60015b612c7457612bda614e5c565b806308c379a01415612c375750612bef6157db565b80612bfa5750612c39565b806040517f08c379a0000000000000000000000000000000000000000000000000000000008152600401612c2e9190614599565b60405180910390fd5b505b6040517f08c379a0000000000000000000000000000000000000000000000000000000008152600401612c6b9061493b565b60405180910390fd5b63bc197c8160e01b7bffffffffffffffffffffffffffffffffffffffffffffffffffffffff1916817bffffffffffffffffffffffffffffffffffffffffffffffffffffffff191614612cfb576040517f08c379a0000000000000000000000000000000000000000000000000000000008152600401612cf2906145bb565b60405180910390fd5b505b505050505050565b612d0d6108b3565b612d4c576040517f08c379a0000000000000000000000000000000000000000000000000000000008152600401612d43906145db565b60405180910390fd5b565b60606000600167ffffffffffffffff811115612d93577f4e487b7100000000000000000000000000000000000000000000000000000000600052604160045260246000fd5b604051908082528060200260200182016040528015612dc15781602001602082028036833780820191505090505b5090508281600081518110612dff577f4e487b7100000000000000000000000000000000000000000000000000000000600052603260045260246000fd5b60200260200101818152505080915050919050565b612e338473ffffffffffffffffffffffffffffffffffffffff16613045565b15612ff3578373ffffffffffffffffffffffffffffffffffffffff1663f23a6e6187878686866040518663ffffffff1660e01b8152600401612e799594939291906144cb565b602060405180830381600087803b158015612e9357600080fd5b505af1925050508015612ec457506040513d601f19601f82011682018060405250810190612ec19190613d80565b60015b612f6a57612ed0614e5c565b806308c379a01415612f2d5750612ee56157db565b80612ef05750612f2f565b806040517f08c379a0000000000000000000000000000000000000000000000000000000008152600401612f249190614599565b60405180910390fd5b505b6040517f08c379a0000000000000000000000000000000000000000000000000000000008152600401612f619061493b565b60405180910390fd5b63f23a6e6160e01b7bffffffffffffffffffffffffffffffffffffffffffffffffffffffff1916817bffffffffffffffffffffffffffffffffffffffffffffffffffffffff191614612ff1576040517f08c379a0000000000000000000000000000000000000000000000000000000008152600401612fe8906145bb565b60405180910390fd5b505b505050505050565b6130036108b3565b15613043576040517f08c379a000000000000000000000000000000000000000000000000000000000815260040161303a9061471b565b60405180910390fd5b565b6000808273ffffffffffffffffffffffffffffffffffffffff163b119050919050565b600060019054906101000a900460ff166130b7576040517f08c379a00000000000000000000000000000000000000000000000000000000081526004016130ae9061485b565b60405180910390fd5b6130c08161332d565b50565b6130d1868686868686613347565b600073ffffffffffffffffffffffffffffffffffffffff168573ffffffffffffffffffffffffffffffffffffffff1614156131cf5760005b83518110156131cd5782818151811061314b577f4e487b7100000000000000000000000000000000000000000000000000000000600052603260045260246000fd5b602002602001015160086000868481518110613190577f4e487b7100000000000000000000000000000000000000000000000000000000600052603260045260246000fd5b6020026020010151815260200190815260200160002060008282546131b59190614bf7565b92505081905550806131c690614d86565b9050613109565b505b600073ffffffffffffffffffffffffffffffffffffffff168473ffffffffffffffffffffffffffffffffffffffff1614156133255760005b835181101561332357600084828151811061324b577f4e487b7100000000000000000000000000000000000000000000000000000000600052603260045260246000fd5b602002602001015190506000848381518110613290577f4e487b7100000000000000000000000000000000000000000000000000000000600052603260045260246000fd5b60200260200101519050600060086000848152602001908152602001600020549050818110156132f5576040517f08c379a00000000000000000000000000000000000000000000000000000000081526004016132ec906147fb565b60405180910390fd5b81810360086000858152602001908152602001600020819055505050508061331c90614d86565b9050613207565b505b505050505050565b80600390805190602001906133439291906133ad565b5050565b6133558686868686866133a5565b61335d6108b3565b1561339d576040517f08c379a00000000000000000000000000000000000000000000000000000000081526004016133949061465b565b60405180910390fd5b505050505050565b505050505050565b8280546133b990614d23565b90600052602060002090601f0160209004810192826133db5760008555613422565b82601f106133f457805160ff1916838001178555613422565b82800160010185558215613422579182015b82811115613421578251825591602001919060010190613406565b5b50905061342f919061345a565b5090565b6040518060600160405280613446613477565b815260200160008152602001600081525090565b5b8082111561347357600081600090555060010161345b565b5090565b6040518060200160405280606081525090565b600061349d61349884614ab1565b614a8c565b905080838252602082019050828560208602820111156134bc57600080fd5b60005b858110156134ec57816134d2888261360c565b8452602084019350602083019250506001810190506134bf565b5050509392505050565b600061350961350484614add565b614a8c565b9050808382526020820190508285604086028201111561352857600080fd5b60005b85811015613558578161353e8882613854565b84526020840193506040830192505060018101905061352b565b5050509392505050565b600061357561357084614b09565b614a8c565b9050808382526020820190508285602086028201111561359457600080fd5b60005b858110156135c457816135aa88826138a0565b845260208401935060208301925050600181019050613597565b5050509392505050565b60006135e16135dc84614b35565b614a8c565b9050828152602081018484840111156135f957600080fd5b613604848285614ce1565b509392505050565b60008135905061361b81615871565b92915050565b60008083601f84011261363357600080fd5b8235905067ffffffffffffffff81111561364c57600080fd5b60208301915083602082028301111561366457600080fd5b9250929050565b600082601f83011261367c57600080fd5b813561368c84826020860161348a565b91505092915050565b60008083601f8401126136a757600080fd5b8235905067ffffffffffffffff8111156136c057600080fd5b6020830191508360208202830111156136d857600080fd5b9250929050565b6000819050826020600602820111156136f757600080fd5b92915050565b600082601f83011261370e57600080fd5b813561371e8482602086016134f6565b91505092915050565b60008083601f84011261373957600080fd5b8235905067ffffffffffffffff81111561375257600080fd5b60208301915083602082028301111561376a57600080fd5b9250929050565b600082601f83011261378257600080fd5b8135613792848260208601613562565b91505092915050565b6000813590506137aa81615888565b92915050565b6000813590506137bf8161589f565b92915050565b6000815190506137d48161589f565b92915050565b600082601f8301126137eb57600080fd5b81356137fb8482602086016135ce565b91505092915050565b60006020828403121561381657600080fd5b6138206020614a8c565b9050600082013567ffffffffffffffff81111561383c57600080fd5b613848848285016136fd565b60008301525092915050565b60006040828403121561386657600080fd5b6138706040614a8c565b905060006138808482850161360c565b6000830152506020613894848285016138a0565b60208301525092915050565b6000813590506138af816158b6565b92915050565b6000602082840312156138c757600080fd5b60006138d58482850161360c565b91505092915050565b600080604083850312156138f157600080fd5b60006138ff8582860161360c565b92505060206139108582860161360c565b9150509250929050565b600080600080600060a0868803121561393257600080fd5b60006139408882890161360c565b95505060206139518882890161360c565b945050604086013567ffffffffffffffff81111561396e57600080fd5b61397a88828901613771565b935050606086013567ffffffffffffffff81111561399757600080fd5b6139a388828901613771565b925050608086013567ffffffffffffffff8111156139c057600080fd5b6139cc888289016137da565b9150509295509295909350565b600080600080600060a086880312156139f157600080fd5b60006139ff8882890161360c565b9550506020613a108882890161360c565b9450506040613a21888289016138a0565b9350506060613a32888289016138a0565b925050608086013567ffffffffffffffff811115613a4f57600080fd5b613a5b888289016137da565b9150509295509295909350565b60008060008060808587031215613a7e57600080fd5b6000613a8c8782880161360c565b945050602085013567ffffffffffffffff811115613aa957600080fd5b613ab587828801613771565b935050604085013567ffffffffffffffff811115613ad257600080fd5b613ade87828801613771565b925050606085013567ffffffffffffffff811115613afb57600080fd5b613b07878288016137da565b91505092959194509250565b60008060408385031215613b2657600080fd5b6000613b348582860161360c565b9250506020613b458582860161379b565b9150509250929050565b60008060408385031215613b6257600080fd5b6000613b708582860161360c565b9250506020613b81858286016138a0565b9150509250929050565b60008060008060808587031215613ba157600080fd5b6000613baf8782880161360c565b9450506020613bc0878288016138a0565b9350506040613bd1878288016138a0565b925050606085013567ffffffffffffffff811115613bee57600080fd5b613bfa878288016137da565b91505092959194509250565b60008060408385031215613c1957600080fd5b600083013567ffffffffffffffff811115613c3357600080fd5b613c3f8582860161366b565b925050602083013567ffffffffffffffff811115613c5c57600080fd5b613c6885828601613771565b9150509250929050565b600080600060408486031215613c8757600080fd5b600084013567ffffffffffffffff811115613ca157600080fd5b613cad868287016136df565b935050602084013567ffffffffffffffff811115613cca57600080fd5b613cd686828701613621565b92509250509250925092565b60008060008060408587031215613cf857600080fd5b600085013567ffffffffffffffff811115613d1257600080fd5b613d1e87828801613727565b9450945050602085013567ffffffffffffffff811115613d3d57600080fd5b613d4987828801613695565b925092505092959194509250565b600060208284031215613d6957600080fd5b6000613d77848285016137b0565b91505092915050565b600060208284031215613d9257600080fd5b6000613da0848285016137c5565b91505092915050565b600060408284031215613dbb57600080fd5b6000613dc984828501613854565b91505092915050565b600060208284031215613de457600080fd5b6000613df2848285016138a0565b91505092915050565b600080600060608486031215613e1057600080fd5b6000613e1e868287016138a0565b9350506020613e2f8682870161360c565b9250506040613e40868287016138a0565b9150509250925092565b6000613e5683836143f7565b60208301905092915050565b613e6b81614c4d565b82525050565b6000613e7c82614b8b565b613e868185614bb9565b9350613e9183614b66565b8060005b83811015613ec2578151613ea98882613e4a565b9750613eb483614bac565b925050600181019050613e95565b5085935050505092915050565b613ed881614c5f565b82525050565b6000613ee982614b96565b613ef38185614bca565b9350613f03818560208601614cf0565b613f0c81614e7e565b840191505092915050565b6000613f2282614ba1565b613f2c8185614bdb565b9350613f3c818560208601614cf0565b613f4581614e7e565b840191505092915050565b6000613f5b82614ba1565b613f658185614bec565b9350613f75818560208601614cf0565b80840191505092915050565b60008154613f8e81614d23565b613f988186614bec565b94506001821660008114613fb35760018114613fc457613ff7565b60ff19831686528186019350613ff7565b613fcd85614b76565b60005b83811015613fef57815481890152600182019150602081019050613fd0565b838801955050505b50505092915050565b600061400d602883614bdb565b915061401882614e9c565b604082019050919050565b6000614030601483614bdb565b915061403b82614eeb565b602082019050919050565b6000614053602683614bdb565b915061405e82614f14565b604082019050919050565b6000614076602983614bdb565b915061408182614f63565b604082019050919050565b6000614099603c83614bdb565b91506140a482614fb2565b604082019050919050565b60006140bc602c83614bdb565b91506140c782615001565b604082019050919050565b60006140df605083614bdb565b91506140ea82615050565b606082019050919050565b6000614102602a83614bdb565b915061410d826150c5565b604082019050919050565b6000614125602e83614bdb565b915061413082615114565b604082019050919050565b6000614148605483614bdb565b915061415382615163565b606082019050919050565b600061416b603283614bdb565b9150614176826151d8565b604082019050919050565b600061418e601083614bdb565b915061419982615227565b602082019050919050565b60006141b1602583614bdb565b91506141bc82615250565b604082019050919050565b60006141d4603483614bdb565b91506141df8261529f565b604082019050919050565b60006141f7602e83614bdb565b9150614202826152ee565b604082019050919050565b600061421a602d83614bdb565b91506142258261533d565b604082019050919050565b600061423d602a83614bdb565b91506142488261538c565b604082019050919050565b6000614260602083614bdb565b915061426b826153db565b602082019050919050565b6000614283602883614bdb565b915061428e82615404565b604082019050919050565b60006142a6607283614bdb565b91506142b182615453565b608082019050919050565b60006142c9602983614bdb565b91506142d4826154ee565b604082019050919050565b60006142ec602b83614bdb565b91506142f78261553d565b604082019050919050565b600061430f604083614bdb565b915061431a8261558c565b604082019050919050565b6000614332602983614bdb565b915061433d826155db565b604082019050919050565b6000614355602983614bdb565b91506143608261562a565b604082019050919050565b6000614378605a83614bdb565b915061438382615679565b606082019050919050565b600061439b602883614bdb565b91506143a6826156ee565b604082019050919050565b60006143be602183614bdb565b91506143c98261573d565b604082019050919050565b60006143e1603483614bdb565b91506143ec8261578c565b604082019050919050565b61440081614cb7565b82525050565b61440f81614cb7565b82525050565b61441e81614cc1565b82525050565b60006144308285613f81565b915061443c8284613f50565b91508190509392505050565b600060208201905061445d6000830184613e62565b92915050565b600060a0820190506144786000830188613e62565b6144856020830187613e62565b81810360408301526144978186613e71565b905081810360608301526144ab8185613e71565b905081810360808301526144bf8184613ede565b90509695505050505050565b600060a0820190506144e06000830188613e62565b6144ed6020830187613e62565b6144fa6040830186614406565b6145076060830185614406565b81810360808301526145198184613ede565b90509695505050505050565b6000602082019050818103600083015261453f8184613e71565b905092915050565b600060408201905081810360008301526145618185613e71565b905081810360208301526145758184613e71565b90509392505050565b60006020820190506145936000830184613ecf565b92915050565b600060208201905081810360008301526145b38184613f17565b905092915050565b600060208201905081810360008301526145d481614000565b9050919050565b600060208201905081810360008301526145f481614023565b9050919050565b6000602082019050818103600083015261461481614046565b9050919050565b6000602082019050818103600083015261463481614069565b9050919050565b600060208201905081810360008301526146548161408c565b9050919050565b60006020820190508181036000830152614674816140af565b9050919050565b60006020820190508181036000830152614694816140d2565b9050919050565b600060208201905081810360008301526146b4816140f5565b9050919050565b600060208201905081810360008301526146d481614118565b9050919050565b600060208201905081810360008301526146f48161413b565b9050919050565b600060208201905081810360008301526147148161415e565b9050919050565b6000602082019050818103600083015261473481614181565b9050919050565b60006020820190508181036000830152614754816141a4565b9050919050565b60006020820190508181036000830152614774816141c7565b9050919050565b60006020820190508181036000830152614794816141ea565b9050919050565b600060208201905081810360008301526147b48161420d565b9050919050565b600060208201905081810360008301526147d481614230565b9050919050565b600060208201905081810360008301526147f481614253565b9050919050565b6000602082019050818103600083015261481481614276565b9050919050565b6000602082019050818103600083015261483481614299565b9050919050565b60006020820190508181036000830152614854816142bc565b9050919050565b60006020820190508181036000830152614874816142df565b9050919050565b6000602082019050818103600083015261489481614302565b9050919050565b600060208201905081810360008301526148b481614325565b9050919050565b600060208201905081810360008301526148d481614348565b9050919050565b600060208201905081810360008301526148f48161436b565b9050919050565b600060208201905081810360008301526149148161438e565b9050919050565b60006020820190508181036000830152614934816143b1565b9050919050565b60006020820190508181036000830152614954816143d4565b9050919050565b60006020820190506149706000830184614406565b92915050565b600060408201905061498b6000830185614406565b6149986020830184614406565b9392505050565b60006020820190506149b46000830184614415565b92915050565b600080833560016020038436030381126149d357600080fd5b80840192508235915067ffffffffffffffff8211156149f157600080fd5b602083019250604082023603831315614a0957600080fd5b509250929050565b60008083356001602003843603038112614a2a57600080fd5b80840192508235915067ffffffffffffffff821115614a4857600080fd5b602083019250600182023603831315614a6057600080fd5b509250929050565b600082356001602003833603038112614a8057600080fd5b80830191505092915050565b6000614a96614aa7565b9050614aa28282614d55565b919050565b6000604051905090565b600067ffffffffffffffff821115614acc57614acb614e2d565b5b602082029050602081019050919050565b600067ffffffffffffffff821115614af857614af7614e2d565b5b602082029050602081019050919050565b600067ffffffffffffffff821115614b2457614b23614e2d565b5b602082029050602081019050919050565b600067ffffffffffffffff821115614b5057614b4f614e2d565b5b614b5982614e7e565b9050602081019050919050565b6000819050602082019050919050565b60008190508160005260206000209050919050565b600081519050919050565b600081519050919050565b600081519050919050565b6000602082019050919050565b600082825260208201905092915050565b600082825260208201905092915050565b600082825260208201905092915050565b600081905092915050565b6000614c0282614cb7565b9150614c0d83614cb7565b9250827fffffffffffffffffffffffffffffffffffffffffffffffffffffffffffffffff03821115614c4257614c41614dcf565b5b828201905092915050565b6000614c5882614c97565b9050919050565b60008115159050919050565b60007fffffffff0000000000000000000000000000000000000000000000000000000082169050919050565b600073ffffffffffffffffffffffffffffffffffffffff82169050919050565b6000819050919050565b600060ff82169050919050565b6000614cda3683613804565b9050919050565b82818337600083830152505050565b60005b83811015614d0e578082015181840152602081019050614cf3565b83811115614d1d576000848401525b50505050565b60006002820490506001821680614d3b57607f821691505b60208210811415614d4f57614d4e614dfe565b5b50919050565b614d5e82614e7e565b810181811067ffffffffffffffff82111715614d7d57614d7c614e2d565b5b80604052505050565b6000614d9182614cb7565b91507fffffffffffffffffffffffffffffffffffffffffffffffffffffffffffffffff821415614dc457614dc3614dcf565b5b600182019050919050565b7f4e487b7100000000000000000000000000000000000000000000000000000000600052601160045260246000fd5b7f4e487b7100000000000000000000000000000000000000000000000000000000600052602260045260246000fd5b7f4e487b7100000000000000000000000000000000000000000000000000000000600052604160045260246000fd5b600060033d1115614e7b5760046000803e614e78600051614e8f565b90505b90565b6000601f19601f8301169050919050565b60008160e01c9050919050565b7f455243313135353a204552433131353552656365697665722072656a6563746560008201527f6420746f6b656e73000000000000000000000000000000000000000000000000602082015250565b7f5061757361626c653a206e6f7420706175736564000000000000000000000000600082015250565b7f4f776e61626c653a206e6577206f776e657220697320746865207a65726f206160008201527f6464726573730000000000000000000000000000000000000000000000000000602082015250565b7f496e697445717569746965733a2054686520707269636573276c656e6774682060008201527f6d75737420626520360000000000000000000000000000000000000000000000602082015250565b7f696e6974537570706f7274546f6b656e3a205468652074776f20746f6b656e2060008201527f6164647265737365732063616e6e6f74206265207468652073616d6500000000602082015250565b7f455243313135355061757361626c653a20746f6b656e207472616e736665722060008201527f7768696c65207061757365640000000000000000000000000000000000000000602082015250565b7f696e6974537570706f7274546f6b656e3a5468652070726f6a656374206f6e6c60008201527f7920737570706f7274652074776f207479706573206f6620746f6b656e206f6660208201527f2054432054434620616e64205553445400000000000000000000000000000000604082015250565b7f455243313135353a2061646472657373207a65726f206973206e6f742061207660008201527f616c6964206f776e657200000000000000000000000000000000000000000000602082015250565b7f455243313135353a2063616c6c6572206973206e6f7420746f6b656e206f776e60008201527f6572206f7220617070726f766564000000000000000000000000000000000000602082015250565b7f5f4e465450726963655f636865636b496e697469616c697a65506172616d733a60008201527f20546f6b656e416464726573732049736e277420737570706f7274206f72207460208201527f6f6b656e41646472657373206973206572726f72000000000000000000000000604082015250565b7f5365744e465450726963653a20546f6b656e4944206d757374206265206f6e6560008201527f206f6620302c312c322c332c34206f7220350000000000000000000000000000602082015250565b7f5061757361626c653a2070617573656400000000000000000000000000000000600082015250565b7f455243313135353a207472616e7366657220746f20746865207a65726f20616460008201527f6472657373000000000000000000000000000000000000000000000000000000602082015250565b7f4368616e6765537570706f72746564546f6b656e3a206f6c6420746f6b656e2060008201527f61646472657373206973206e6f74206578697374000000000000000000000000602082015250565b7f496e697469616c697a61626c653a20636f6e747261637420697320616c72656160008201527f647920696e697469616c697a6564000000000000000000000000000000000000602082015250565b7f696e6974537570706f7274546f6b656e3a746f6b656e4164647265737320636160008201527f6e206e6f74206265207a6f6e6500000000000000000000000000000000000000602082015250565b7f455243313135353a20696e73756666696369656e742062616c616e636520666f60008201527f72207472616e7366657200000000000000000000000000000000000000000000602082015250565b7f4f776e61626c653a2063616c6c6572206973206e6f7420746865206f776e6572600082015250565b7f455243313135353a206275726e20616d6f756e74206578636565647320746f7460008201527f616c537570706c79000000000000000000000000000000000000000000000000602082015250565b7f5f4e465450726963655f636865636b496e697469616c697a65506172616d733a60008201527f20746f6b656e206164647265737365732773206c656e677468202b31206d757360208201527f7420657175616c20746f20706169727320616d6f756e74206f6620707269636560408201527f20616e6420746f6b656e20616464726573730000000000000000000000000000606082015250565b7f746f6b656e49647320616e6420555249732073686f756c64206861766520736160008201527f6d65206c656e6774680000000000000000000000000000000000000000000000602082015250565b7f496e697469616c697a61626c653a20636f6e7472616374206973206e6f74206960008201527f6e697469616c697a696e67000000000000000000000000000000000000000000602082015250565b7f5365744e465450726963653a20546f6b656e416464726573732049736e27742060008201527f737570706f7274206f7220746f6b656e41646472657373206973206572726f72602082015250565b7f455243313135353a2073657474696e6720617070726f76616c2073746174757360008201527f20666f722073656c660000000000000000000000000000000000000000000000602082015250565b7f455243313135353a206163636f756e747320616e6420696473206c656e67746860008201527f206d69736d617463680000000000000000000000000000000000000000000000602082015250565b7f5f4e465450726963655f636865636b496e697469616c697a65506172616d733a60008201527f205443207072696365206f66204e46542069736e27742065786973742c6f722060208201527f54432061646472657373206d7573742073657420746f20307830000000000000604082015250565b7f455243313135353a2069647320616e6420616d6f756e7473206c656e6774682060008201527f6d69736d61746368000000000000000000000000000000000000000000000000602082015250565b7f455243313135353a206d696e7420746f20746865207a65726f2061646472657360008201527f7300000000000000000000000000000000000000000000000000000000000000602082015250565b7f455243313135353a207472616e7366657220746f206e6f6e2d4552433131353560008201527f526563656976657220696d706c656d656e746572000000000000000000000000602082015250565b600060443d10156157eb5761586e565b6157f3614aa7565b60043d036004823e80513d602482011167ffffffffffffffff8211171561581b57505061586e565b808201805167ffffffffffffffff811115615839575050505061586e565b80602083010160043d03850181111561585657505050505061586e565b61586582602001850186614d55565b82955050505050505b90565b61587a81614c4d565b811461588557600080fd5b50565b61589181614c5f565b811461589c57600080fd5b50565b6158a881614c6b565b81146158b357600080fd5b50565b6158bf81614cb7565b81146158ca57600080fd5b5056fea2646970667358221220255e70ddc12d7df984557fbd3b8898df80dc54a6357ebea03f9603bab1fc75f564736f6c63430008010033",
  "linkReferences": {},
  "deployedLinkReferences": {},
  "immutableReferences": {},
  "inputSourceName": "project/contracts/TCF_NFTPrice.sol",
  "devdoc": {
    "kind": "dev",
    "methods": {
      "balanceOf(address,uint256)": {
        "details": "See {IERC1155-balanceOf}. Requirements: - `account` cannot be the zero address."
      },
      "balanceOfBatch(address[],uint256[])": {
        "details": "See {IERC1155-balanceOfBatch}. Requirements: - `accounts` and `ids` must have the same length."
      },
      "exists(uint256)": {
        "details": "Indicates whether any token exist with a given id, or not."
      },
      "isApprovedForAll(address,address)": {
        "details": "See {IERC1155-isApprovedForAll}."
      },
      "owner()": {
        "details": "Returns the address of the current owner."
      },
      "paused()": {
        "details": "Returns true if the contract is paused, and false otherwise."
      },
      "renounceOwnership()": {
        "details": "Leaves the contract without owner. It will not be possible to call `onlyOwner` functions. Can only be called by the current owner. NOTE: Renouncing ownership will leave the contract without an owner, thereby disabling any functionality that is only available to the owner."
      },
      "safeBatchTransferFrom(address,address,uint256[],uint256[],bytes)": {
        "details": "See {IERC1155-safeBatchTransferFrom}."
      },
      "safeTransferFrom(address,address,uint256,uint256,bytes)": {
        "details": "See {IERC1155-safeTransferFrom}."
      },
      "setApprovalForAll(address,bool)": {
        "details": "See {IERC1155-setApprovalForAll}."
      },
      "supportsInterface(bytes4)": {
        "details": "See {IERC165-supportsInterface}."
      },
      "totalSupply(uint256)": {
        "details": "Total amount of tokens in with a given id."
      },
      "transferOwnership(address)": {
        "details": "Transfers ownership of the contract to a new account (`newOwner`). Can only be called by the current owner."
      }
    },
    "version": 1
  },
  "evm": {
    "gasEstimates": {
      "creation": {
        "codeDepositCost": "4557400",
        "executionCost": "infinite",
        "totalCost": "infinite"
      },
      "external": {
        "__TCF_NFTPrice_init_(((address,uint256)[])[6],address[])": "infinite",
        "balanceOf(address,uint256)": "infinite",
        "balanceOfBatch(address[],uint256[])": "infinite",
        "changeSupportedToken(address,address)": "infinite",
        "exists(uint256)": "1624",
        "isApprovedForAll(address,address)": "infinite",
        "mint(address,uint256,uint256,bytes)": "infinite",
        "mintBatch(address,uint256[],uint256[],bytes)": "infinite",
        "owner()": "1333",
        "pause()": "infinite",
        "paused()": "1290",
        "renounceOwnership()": "24421",
        "safeBatchTransferFrom(address,address,uint256[],uint256[],bytes)": "infinite",
        "safeTransferFrom(address,address,uint256,uint256,bytes)": "infinite",
        "setApprovalForAll(address,bool)": "infinite",
        "setNFTPrice(uint256,address,uint256)": "infinite",
        "setTokenURI(uint256[],bytes[])": "infinite",
        "supportTokenType(address)": "1568",
        "supportsInterface(bytes4)": "819",
        "totalSupply(uint256)": "infinite",
        "transferOwnership(address)": "24879",
        "unpause()": "infinite",
        "uri(uint256)": "infinite"
      },
      "internal": {
        "_NFTPrice_checkInitializeParams(struct TCF_NFTPrice.oneTokenPriceTypeAndAomut_parm calldata[6] calldata,address[] calldata)": "infinite",
        "initEquities(struct TCF_NFTPrice.oneTokenPriceTypeAndAomut_parm calldata[6] calldata)": "infinite",
        "initSupportToken(address[] calldata)": "infinite"
      }
    }
  },
  "storageLayout": {
    "storage": [
      {
        "astId": 848,
        "contract": "project/contracts/TCF_NFTPrice.sol:TCF_NFTPrice",
        "label": "_initialized",
        "offset": 0,
        "slot": "0",
        "type": "t_bool"
      },
      {
        "astId": 851,
        "contract": "project/contracts/TCF_NFTPrice.sol:TCF_NFTPrice",
        "label": "_initializing",
        "offset": 1,
        "slot": "0",
        "type": "t_bool"
      },
      {
        "astId": 1052,
        "contract": "project/contracts/TCF_NFTPrice.sol:TCF_NFTPrice",
        "label": "_balances",
        "offset": 0,
        "slot": "1",
        "type": "t_mapping(t_uint256,t_mapping(t_address,t_uint256))"
      },
      {
        "astId": 1058,
        "contract": "project/contracts/TCF_NFTPrice.sol:TCF_NFTPrice",
        "label": "_operatorApprovals",
        "offset": 0,
        "slot": "2",
        "type": "t_mapping(t_address,t_mapping(t_address,t_bool))"
      },
      {
        "astId": 1060,
        "contract": "project/contracts/TCF_NFTPrice.sol:TCF_NFTPrice",
        "label": "_uri",
        "offset": 0,
        "slot": "3",
        "type": "t_string_storage"
      },
      {
        "astId": 736,
        "contract": "project/contracts/TCF_NFTPrice.sol:TCF_NFTPrice",
        "label": "_owner",
        "offset": 0,
        "slot": "4",
        "type": "t_address"
      },
      {
        "astId": 2644,
        "contract": "project/contracts/TCF_NFTPrice.sol:TCF_NFTPrice",
        "label": "_baseURI",
        "offset": 0,
        "slot": "5",
        "type": "t_string_storage"
      },
      {
        "astId": 2648,
        "contract": "project/contracts/TCF_NFTPrice.sol:TCF_NFTPrice",
        "label": "_tokenURIs",
        "offset": 0,
        "slot": "6",
        "type": "t_mapping(t_uint256,t_string_storage)"
      },
      {
        "astId": 933,
        "contract": "project/contracts/TCF_NFTPrice.sol:TCF_NFTPrice",
        "label": "_paused",
        "offset": 0,
        "slot": "7",
        "type": "t_bool"
      },
      {
        "astId": 2484,
        "contract": "project/contracts/TCF_NFTPrice.sol:TCF_NFTPrice",
        "label": "_totalSupply",
        "offset": 0,
        "slot": "8",
        "type": "t_mapping(t_uint256,t_uint256)"
      },
      {
        "astId": 201,
        "contract": "project/contracts/TCF_NFTPrice.sol:TCF_NFTPrice",
        "label": "supportTokenType",
        "offset": 0,
        "slot": "9",
        "type": "t_mapping(t_address,t_uint8)"
      },
      {
        "astId": 203,
        "contract": "project/contracts/TCF_NFTPrice.sol:TCF_NFTPrice",
        "label": "TCF_NFTPrice_initialized",
        "offset": 0,
        "slot": "10",
        "type": "t_uint8"
      },
      {
        "astId": 239,
        "contract": "project/contracts/TCF_NFTPrice.sol:TCF_NFTPrice",
        "label": "NFTS",
        "offset": 0,
        "slot": "11",
        "type": "t_mapping(t_uint256,t_struct(equities_store)234_storage)"
      }
    ],
    "types": {
      "t_address": {
        "encoding": "inplace",
        "label": "address",
        "numberOfBytes": "20"
      },
      "t_bool": {
        "encoding": "inplace",
        "label": "bool",
        "numberOfBytes": "1"
      },
      "t_mapping(t_address,t_bool)": {
        "encoding": "mapping",
        "key": "t_address",
        "label": "mapping(address => bool)",
        "numberOfBytes": "32",
        "value": "t_bool"
      },
      "t_mapping(t_address,t_mapping(t_address,t_bool))": {
        "encoding": "mapping",
        "key": "t_address",
        "label": "mapping(address => mapping(address => bool))",
        "numberOfBytes": "32",
        "value": "t_mapping(t_address,t_bool)"
      },
      "t_mapping(t_address,t_uint256)": {
        "encoding": "mapping",
        "key": "t_address",
        "label": "mapping(address => uint256)",
        "numberOfBytes": "32",
        "value": "t_uint256"
      },
      "t_mapping(t_address,t_uint8)": {
        "encoding": "mapping",
        "key": "t_address",
        "label": "mapping(address => uint8)",
        "numberOfBytes": "32",
        "value": "t_uint8"
      },
      "t_mapping(t_uint256,t_mapping(t_address,t_uint256))": {
        "encoding": "mapping",
        "key": "t_uint256",
        "label": "mapping(uint256 => mapping(address => uint256))",
        "numberOfBytes": "32",
        "value": "t_mapping(t_address,t_uint256)"
      },
      "t_mapping(t_uint256,t_string_storage)": {
        "encoding": "mapping",
        "key": "t_uint256",
        "label": "mapping(uint256 => string)",
        "numberOfBytes": "32",
        "value": "t_string_storage"
      },
      "t_mapping(t_uint256,t_struct(equities_store)234_storage)": {
        "encoding": "mapping",
        "key": "t_uint256",
        "label": "mapping(uint256 => struct TCF_NFTPrice.equities_store)",
        "numberOfBytes": "32",
        "value": "t_struct(equities_store)234_storage"
      },
      "t_mapping(t_uint256,t_uint256)": {
        "encoding": "mapping",
        "key": "t_uint256",
        "label": "mapping(uint256 => uint256)",
        "numberOfBytes": "32",
        "value": "t_uint256"
      },
      "t_string_storage": {
        "encoding": "bytes",
        "label": "string",
        "numberOfBytes": "32"
      },
      "t_struct(equities_store)234_storage": {
        "encoding": "inplace",
        "label": "struct TCF_NFTPrice.equities_store",
        "members": [
          {
            "astId": 229,
            "contract": "project/contracts/TCF_NFTPrice.sol:TCF_NFTPrice",
            "label": "price",
            "offset": 0,
            "slot": "0",
            "type": "t_struct(oneTokenPriceTypeAndAomut_store)218_storage"
          },
          {
            "astId": 231,
            "contract": "project/contracts/TCF_NFTPrice.sol:TCF_NFTPrice",
            "label": "ratio",
            "offset": 0,
            "slot": "1",
            "type": "t_uint256"
          },
          {
            "astId": 233,
            "contract": "project/contracts/TCF_NFTPrice.sol:TCF_NFTPrice",
            "label": "indate",
            "offset": 0,
            "slot": "2",
            "type": "t_uint256"
          }
        ],
        "numberOfBytes": "96"
      },
      "t_struct(oneTokenPriceTypeAndAomut_store)218_storage": {
        "encoding": "inplace",
        "label": "struct TCF_NFTPrice.oneTokenPriceTypeAndAomut_store",
        "members": [
          {
            "astId": 217,
            "contract": "project/contracts/TCF_NFTPrice.sol:TCF_NFTPrice",
            "label": "priceData",
            "offset": 0,
            "slot": "0",
            "type": "t_mapping(t_address,t_uint256)"
          }
        ],
        "numberOfBytes": "32"
      },
      "t_uint256": {
        "encoding": "inplace",
        "label": "uint256",
        "numberOfBytes": "32"
      },
      "t_uint8": {
        "encoding": "inplace",
        "label": "uint8",
        "numberOfBytes": "1"
      }
    }
  },
  "userdoc": {
    "kind": "user",
    "methods": {},
    "version": 1
  },
  "argsData": "0x",
  "transaction": {
    "hash": "0x0ed54c063dc26585a9437d66d15eed0d18ae82426d6d28ba4dabf14df1d043c1",
    "nonce": "0x2",
    "origin": "0xf39fd6e51aad88f6f4ce6ab8827279cfffb92266"
  }
}