{
  "address": "0xe7f1725e7734ce288f8367e1bb143e90bb3f0512",
  "abi": [
    {
      "anonymous": false,
      "inputs": [
        {
          "indexed": true,
          "internalType": "address",
          "name": "account",
          "type": "address"
        },
        {
          "indexed": true,
          "internalType": "address",
          "name": "operator",
          "type": "address"
        },
        {
          "indexed": false,
          "internalType": "bool",
          "name": "approved",
          "type": "bool"
        }
      ],
      "name": "ApprovalForAll",
      "type": "event"
    },
    {
      "anonymous": false,
      "inputs": [
        {
          "indexed": true,
          "internalType": "address",
          "name": "previousOwner",
          "type": "address"
        },
        {
          "indexed": true,
          "internalType": "address",
          "name": "newOwner",
          "type": "address"
        }
      ],
      "name": "OwnershipTransferred",
      "type": "event"
    },
    {
      "anonymous": false,
      "inputs": [
        {
          "indexed": false,
          "internalType": "address",
          "name": "account",
          "type": "address"
        }
      ],
      "name": "Paused",
      "type": "event"
    },
    {
      "anonymous": false,
      "inputs": [
        {
          "indexed": true,
          "internalType": "address",
          "name": "operator",
          "type": "address"
        },
        {
          "indexed": true,
          "internalType": "address",
          "name": "from",
          "type": "address"
        },
        {
          "indexed": true,
          "internalType": "address",
          "name": "to",
          "type": "address"
        },
        {
          "indexed": false,
          "internalType": "uint256[]",
          "name": "ids",
          "type": "uint256[]"
        },
        {
          "indexed": false,
          "internalType": "uint256[]",
          "name": "values",
          "type": "uint256[]"
        }
      ],
      "name": "TransferBatch",
      "type": "event"
    },
    {
      "anonymous": false,
      "inputs": [
        {
          "indexed": true,
          "internalType": "address",
          "name": "operator",
          "type": "address"
        },
        {
          "indexed": true,
          "internalType": "address",
          "name": "from",
          "type": "address"
        },
        {
          "indexed": true,
          "internalType": "address",
          "name": "to",
          "type": "address"
        },
        {
          "indexed": false,
          "internalType": "uint256",
          "name": "id",
          "type": "uint256"
        },
        {
          "indexed": false,
          "internalType": "uint256",
          "name": "value",
          "type": "uint256"
        }
      ],
      "name": "TransferSingle",
      "type": "event"
    },
    {
      "anonymous": false,
      "inputs": [
        {
          "indexed": false,
          "internalType": "string",
          "name": "value",
          "type": "string"
        },
        {
          "indexed": true,
          "internalType": "uint256",
          "name": "id",
          "type": "uint256"
        }
      ],
      "name": "URI",
      "type": "event"
    },
    {
      "anonymous": false,
      "inputs": [
        {
          "indexed": false,
          "internalType": "address",
          "name": "account",
          "type": "address"
        }
      ],
      "name": "Unpaused",
      "type": "event"
    },
    {
      "inputs": [
        {
          "components": [
            {
              "components": [
                {
                  "internalType": "address",
                  "name": "tokenAddress",
                  "type": "address"
                },
                {
                  "internalType": "uint256",
                  "name": "amount",
                  "type": "uint256"
                }
              ],
              "internalType": "struct TCF_NFTPrice.priceTypeAndAomut[]",
              "name": "priceData",
              "type": "tuple[]"
            }
          ],
          "internalType": "struct TCF_NFTPrice.oneTokenPriceTypeAndAomut_parm[6]",
          "name": "prices",
          "type": "tuple[6]"
        },
        {
          "internalType": "address[]",
          "name": "tokenAddresses",
          "type": "address[]"
        }
      ],
      "name": "TCF_NFTPrice_init",
      "outputs": [],
      "stateMutability": "nonpayable",
      "type": "function"
    },
    {
      "inputs": [
        {
          "internalType": "address[]",
          "name": "tokenAddresses",
          "type": "address[]"
        },
        {
          "internalType": "bool",
          "name": "checkParams",
          "type": "bool"
        }
      ],
      "name": "addSupportedToken",
      "outputs": [],
      "stateMutability": "nonpayable",
      "type": "function"
    },
    {
      "inputs": [
        {
          "internalType": "address",
          "name": "account",
          "type": "address"
        },
        {
          "internalType": "uint256",
          "name": "id",
          "type": "uint256"
        }
      ],
      "name": "balanceOf",
      "outputs": [
        {
          "internalType": "uint256",
          "name": "",
          "type": "uint256"
        }
      ],
      "stateMutability": "view",
      "type": "function"
    },
    {
      "inputs": [
        {
          "internalType": "address[]",
          "name": "accounts",
          "type": "address[]"
        },
        {
          "internalType": "uint256[]",
          "name": "ids",
          "type": "uint256[]"
        }
      ],
      "name": "balanceOfBatch",
      "outputs": [
        {
          "internalType": "uint256[]",
          "name": "",
          "type": "uint256[]"
        }
      ],
      "stateMutability": "view",
      "type": "function"
    },
    {
      "inputs": [
        {
          "components": [
            {
              "internalType": "address",
              "name": "tokenAddress",
              "type": "address"
            },
            {
              "internalType": "uint256",
              "name": "amount",
              "type": "uint256"
            }
          ],
          "internalType": "struct TCF_NFTPrice.priceTypeAndAomut[][6]",
          "name": "prices",
          "type": "tuple[][6]"
        }
      ],
      "name": "checkPricesParams",
      "outputs": [
        {
          "internalType": "string",
          "name": "",
          "type": "string"
        }
      ],
      "stateMutability": "view",
      "type": "function"
    },
    {
      "inputs": [
        {
          "internalType": "address[]",
          "name": "tokenAddresses",
          "type": "address[]"
        }
      ],
      "name": "checkTokenAddressesParams_external",
      "outputs": [
        {
          "internalType": "string",
          "name": "",
          "type": "string"
        }
      ],
      "stateMutability": "view",
      "type": "function"
    },
    {
      "inputs": [
        {
          "internalType": "address",
          "name": "oldTokenAddress",
          "type": "address"
        }
      ],
      "name": "deleteSupportedToken",
      "outputs": [],
      "stateMutability": "nonpayable",
      "type": "function"
    },
    {
      "inputs": [
        {
          "internalType": "uint256",
          "name": "id",
          "type": "uint256"
        }
      ],
      "name": "exists",
      "outputs": [
        {
          "internalType": "bool",
          "name": "",
          "type": "bool"
        }
      ],
      "stateMutability": "view",
      "type": "function"
    },
    {
      "inputs": [],
      "name": "getSupportTokenAddress",
      "outputs": [
        {
          "internalType": "address[]",
          "name": "",
          "type": "address[]"
        }
      ],
      "stateMutability": "view",
      "type": "function"
    },
    {
      "inputs": [],
      "name": "initedTokenAddress",
      "outputs": [
        {
          "internalType": "uint8",
          "name": "",
          "type": "uint8"
        }
      ],
      "stateMutability": "view",
      "type": "function"
    },
    {
      "inputs": [
        {
          "internalType": "address",
          "name": "account",
          "type": "address"
        },
        {
          "internalType": "address",
          "name": "operator",
          "type": "address"
        }
      ],
      "name": "isApprovedForAll",
      "outputs": [
        {
          "internalType": "bool",
          "name": "",
          "type": "bool"
        }
      ],
      "stateMutability": "view",
      "type": "function"
    },
    {
      "inputs": [
        {
          "internalType": "address",
          "name": "account",
          "type": "address"
        },
        {
          "internalType": "uint256",
          "name": "id",
          "type": "uint256"
        },
        {
          "internalType": "uint256",
          "name": "amount",
          "type": "uint256"
        },
        {
          "internalType": "bytes",
          "name": "data",
          "type": "bytes"
        }
      ],
      "name": "mint",
      "outputs": [],
      "stateMutability": "nonpayable",
      "type": "function"
    },
    {
      "inputs": [
        {
          "internalType": "address",
          "name": "to",
          "type": "address"
        },
        {
          "internalType": "uint256[]",
          "name": "ids",
          "type": "uint256[]"
        },
        {
          "internalType": "uint256[]",
          "name": "amounts",
          "type": "uint256[]"
        },
        {
          "internalType": "bytes",
          "name": "data",
          "type": "bytes"
        }
      ],
      "name": "mintBatch",
      "outputs": [],
      "stateMutability": "nonpayable",
      "type": "function"
    },
    {
      "inputs": [],
      "name": "owner",
      "outputs": [
        {
          "internalType": "address",
          "name": "",
          "type": "address"
        }
      ],
      "stateMutability": "view",
      "type": "function"
    },
    {
      "inputs": [],
      "name": "pause",
      "outputs": [],
      "stateMutability": "nonpayable",
      "type": "function"
    },
    {
      "inputs": [],
      "name": "paused",
      "outputs": [
        {
          "internalType": "bool",
          "name": "",
          "type": "bool"
        }
      ],
      "stateMutability": "view",
      "type": "function"
    },
    {
      "inputs": [],
      "name": "renounceOwnership",
      "outputs": [],
      "stateMutability": "nonpayable",
      "type": "function"
    },
    {
      "inputs": [
        {
          "internalType": "address",
          "name": "from",
          "type": "address"
        },
        {
          "internalType": "address",
          "name": "to",
          "type": "address"
        },
        {
          "internalType": "uint256[]",
          "name": "ids",
          "type": "uint256[]"
        },
        {
          "internalType": "uint256[]",
          "name": "amounts",
          "type": "uint256[]"
        },
        {
          "internalType": "bytes",
          "name": "data",
          "type": "bytes"
        }
      ],
      "name": "safeBatchTransferFrom",
      "outputs": [],
      "stateMutability": "nonpayable",
      "type": "function"
    },
    {
      "inputs": [
        {
          "internalType": "address",
          "name": "from",
          "type": "address"
        },
        {
          "internalType": "address",
          "name": "to",
          "type": "address"
        },
        {
          "internalType": "uint256",
          "name": "id",
          "type": "uint256"
        },
        {
          "internalType": "uint256",
          "name": "amount",
          "type": "uint256"
        },
        {
          "internalType": "bytes",
          "name": "data",
          "type": "bytes"
        }
      ],
      "name": "safeTransferFrom",
      "outputs": [],
      "stateMutability": "nonpayable",
      "type": "function"
    },
    {
      "inputs": [
        {
          "internalType": "address",
          "name": "operator",
          "type": "address"
        },
        {
          "internalType": "bool",
          "name": "approved",
          "type": "bool"
        }
      ],
      "name": "setApprovalForAll",
      "outputs": [],
      "stateMutability": "nonpayable",
      "type": "function"
    },
    {
      "inputs": [
        {
          "internalType": "uint256",
          "name": "tokenID",
          "type": "uint256"
        },
        {
          "internalType": "address",
          "name": "tokenAddress",
          "type": "address"
        },
        {
          "internalType": "uint256",
          "name": "amount",
          "type": "uint256"
        }
      ],
      "name": "setNFTPrice",
      "outputs": [],
      "stateMutability": "nonpayable",
      "type": "function"
    },
    {
      "inputs": [
        {
          "internalType": "uint256[]",
          "name": "tokenIds",
          "type": "uint256[]"
        },
        {
          "internalType": "bytes[]",
          "name": "URIs",
          "type": "bytes[]"
        }
      ],
      "name": "setTokenURI",
      "outputs": [],
      "stateMutability": "nonpayable",
      "type": "function"
    },
    {
      "inputs": [
        {
          "internalType": "address",
          "name": "",
          "type": "address"
        }
      ],
      "name": "supportTokenType",
      "outputs": [
        {
          "internalType": "uint8",
          "name": "",
          "type": "uint8"
        }
      ],
      "stateMutability": "view",
      "type": "function"
    },
    {
      "inputs": [],
      "name": "supportedTokenAmount",
      "outputs": [
        {
          "internalType": "uint256",
          "name": "",
          "type": "uint256"
        }
      ],
      "stateMutability": "view",
      "type": "function"
    },
    {
      "inputs": [
        {
          "internalType": "bytes4",
          "name": "interfaceId",
          "type": "bytes4"
        }
      ],
      "name": "supportsInterface",
      "outputs": [
        {
          "internalType": "bool",
          "name": "",
          "type": "bool"
        }
      ],
      "stateMutability": "view",
      "type": "function"
    },
    {
      "inputs": [
        {
          "internalType": "uint256",
          "name": "",
          "type": "uint256"
        }
      ],
      "name": "tokenAddress_array",
      "outputs": [
        {
          "internalType": "address",
          "name": "",
          "type": "address"
        }
      ],
      "stateMutability": "view",
      "type": "function"
    },
    {
      "inputs": [
        {
          "internalType": "uint256",
          "name": "id",
          "type": "uint256"
        }
      ],
      "name": "totalSupply",
      "outputs": [
        {
          "internalType": "uint256",
          "name": "",
          "type": "uint256"
        }
      ],
      "stateMutability": "view",
      "type": "function"
    },
    {
      "inputs": [
        {
          "internalType": "address",
          "name": "newOwner",
          "type": "address"
        }
      ],
      "name": "transferOwnership",
      "outputs": [],
      "stateMutability": "nonpayable",
      "type": "function"
    },
    {
      "inputs": [],
      "name": "unpause",
      "outputs": [],
      "stateMutability": "nonpayable",
      "type": "function"
    },
    {
      "inputs": [
        {
          "internalType": "uint256",
          "name": "tokenId",
          "type": "uint256"
        }
      ],
      "name": "uri",
      "outputs": [
        {
          "internalType": "string",
          "name": "",
          "type": "string"
        }
      ],
      "stateMutability": "view",
      "type": "function"
    }
  ],
  "contractName": "TCF_NFTPrice",
  "sourceName": "contracts/TCF_NFTPrice.sol",
  "bytecode": "0x608060405260405180602001604052806000815250600590805190602001906200002b92919062000149565b503480156200003957600080fd5b506200005a6200004e6200007b60201b60201c565b6200008360201b60201c565b6000600760006101000a81548160ff0219169083151502179055506200025e565b600033905090565b6000600460009054906101000a900473ffffffffffffffffffffffffffffffffffffffff16905081600460006101000a81548173ffffffffffffffffffffffffffffffffffffffff021916908373ffffffffffffffffffffffffffffffffffffffff1602179055508173ffffffffffffffffffffffffffffffffffffffff168173ffffffffffffffffffffffffffffffffffffffff167f8be0079c531659141344cd1fd0a4f28419497f9722a3daafe3b4186f6b6457e060405160405180910390a35050565b8280546200015790620001f9565b90600052602060002090601f0160209004810192826200017b5760008555620001c7565b82601f106200019657805160ff1916838001178555620001c7565b82800160010185558215620001c7579182015b82811115620001c6578251825591602001919060010190620001a9565b5b509050620001d69190620001da565b5090565b5b80821115620001f5576000816000905550600101620001db565b5090565b600060028204905060018216806200021257607f821691505b602082108114156200022957620002286200022f565b5b50919050565b7f4e487b7100000000000000000000000000000000000000000000000000000000600052602260045260246000fd5b615d4d806200026e6000396000f3fe608060405234801561001057600080fd5b50600436106101d95760003560e01c80636394c23c116101045780638da5cb5b116100a2578063e985e9c511610071578063e985e9c514610550578063f242432a14610580578063f2fde38b1461059c578063fbc19dad146105b8576101d9565b80638da5cb5b146104c8578063a22cb465146104e6578063bd85b03914610502578063bf14b06414610532576101d9565b80637596ec3a116100de5780637596ec3a1461046a5780637624b88b1461048657806378f91b9c146104a25780638456cb59146104be576101d9565b80636394c23c14610428578063715018a614610444578063731133e91461044e576101d9565b8063233612831161017c5780633f4ba83a1161014b5780633f4ba83a146103a05780634e1273f4146103aa5780634f558e79146103da5780635c975abb1461040a576101d9565b8063233612831461031a5780632eb2c2d614610338578063333cc85d1461035457806333f190ee14610370576101d9565b80630e89341c116101b85780630e89341c1461026e57806319d62e571461029e5780631ea6e523146102ce5780631f7fdffa146102fe576101d9565b8062fdd58e146101de57806301ffc9a71461020e57806307aca3251461023e575b600080fd5b6101f860048036038101906101f391906140c1565b6105d6565b6040516102059190614f41565b60405180910390f35b6102286004803603810190610223919061439b565b6106a0565b6040516102359190614c64565b60405180910390f35b61025860048036038101906102539190614279565b610782565b6040516102659190614c7f565b60405180910390f35b61028860048036038101906102839190614457565b610a8d565b6040516102959190614c7f565b60405180910390f35b6102b860048036038101906102b39190614457565b610a9f565b6040516102c59190614b0c565b60405180910390f35b6102e860048036038101906102e39190614178565b610ade565b6040516102f59190614c7f565b60405180910390f35b61031860048036038101906103139190613fda565b610af0565b005b610322610b0a565b60405161032f9190614f41565b60405180910390f35b610352600480360381019061034d9190613e8c565b610b10565b005b61036e60048036038101906103699190613e27565b610bb1565b005b61038a60048036038101906103859190613e27565b610f04565b6040516103979190614f85565b60405180910390f35b6103a8610f24565b005b6103c460048036038101906103bf91906141b9565b610f36565b6040516103d19190614c0b565b60405180910390f35b6103f460048036038101906103ef9190614457565b6110e7565b6040516104019190614c64565b60405180910390f35b6104126110fb565b60405161041f9190614c64565b60405180910390f35b610442600480360381019061043d9190614480565b611112565b005b61044c611244565b005b610468600480360381019061046391906140fd565b611258565b005b610484600480360381019061047f91906142ba565b61126a565b005b6104a0600480360381019061049b9190614225565b611276565b005b6104bc60048036038101906104b79190614326565b6114c5565b005b6104c6611618565b005b6104d061162a565b6040516104dd9190614b0c565b60405180910390f35b61050060048036038101906104fb9190614085565b611654565b005b61051c60048036038101906105179190614457565b61166a565b6040516105299190614f41565b60405180910390f35b61053a611687565b6040516105479190614f85565b60405180910390f35b61056a60048036038101906105659190613e50565b61169a565b6040516105779190614c64565b60405180910390f35b61059a60048036038101906105959190613f4b565b61172e565b005b6105b660048036038101906105b19190613e27565b6117cf565b005b6105c0611853565b6040516105cd9190614be9565b60405180910390f35b60008073ffffffffffffffffffffffffffffffffffffffff168373ffffffffffffffffffffffffffffffffffffffff161415610647576040517f08c379a000000000000000000000000000000000000000000000000000000000815260040161063e90614d41565b60405180910390fd5b6001600083815260200190815260200160002060008473ffffffffffffffffffffffffffffffffffffffff1673ffffffffffffffffffffffffffffffffffffffff16815260200190815260200160002054905092915050565b60007fd9b67a26000000000000000000000000000000000000000000000000000000007bffffffffffffffffffffffffffffffffffffffffffffffffffffffff1916827bffffffffffffffffffffffffffffffffffffffffffffffffffffffff1916148061076b57507f0e89341c000000000000000000000000000000000000000000000000000000007bffffffffffffffffffffffffffffffffffffffffffffffffffffffff1916827bffffffffffffffffffffffffffffffffffffffffffffffffffffffff1916145b8061077b575061077a826118e1565b5b9050919050565b60606000600c60009054906101000a900460ff1660ff1614156107dc576040518060400160405280601a81526020017f746f6b656e20646f6e277420626520696e697469616c697a65640000000000008152509050610a88565b600080600090505b6006811015610a7357600a54848260068110610829577f4e487b7100000000000000000000000000000000000000000000000000000000600052603260045260246000fd5b6020028101906108399190614fa0565b905014610862576040518060800160405280604e8152602001615ca7604e913992505050610a88565b600084826006811061089d577f4e487b7100000000000000000000000000000000000000000000000000000000600052603260045260246000fd5b6020028101906108ad9190614fa0565b808060200260200160405190810160405280939291908181526020016000905b828210156108fd578484839050604002018036038101906108ee919061442e565b815260200190600101906108cd565b5050505050905060005b600a54811015610a6057600073ffffffffffffffffffffffffffffffffffffffff16828281518110610962577f4e487b7100000000000000000000000000000000000000000000000000000000600052603260045260246000fd5b60200260200101516000015173ffffffffffffffffffffffffffffffffffffffff1614158015610a2657506001600960008484815181106109cc577f4e487b7100000000000000000000000000000000000000000000000000000000600052603260045260246000fd5b60200260200101516000015173ffffffffffffffffffffffffffffffffffffffff1673ffffffffffffffffffffffffffffffffffffffff16815260200190815260200160002060009054906101000a900460ff1660ff1614155b15610a4f57604051806060016040528060338152602001615c7460339139945050505050610a88565b80610a5990615436565b9050610907565b505080610a6c90615436565b90506107e4565b50604051806020016040528060008152509150505b919050565b6060610a988261194b565b9050919050565b600b8181548110610aaf57600080fd5b906000526020600020016000915054906101000a900473ffffffffffffffffffffffffffffffffffffffff1681565b6060610ae982611a30565b9050919050565b610af8611fd1565b610b048484848461204f565b50505050565b600a5481565b610b186122c9565b73ffffffffffffffffffffffffffffffffffffffff168573ffffffffffffffffffffffffffffffffffffffff161480610b5e5750610b5d85610b586122c9565b61169a565b5b610b9d576040517f08c379a0000000000000000000000000000000000000000000000000000000008152600401610b9490614d61565b60405180910390fd5b610baa85858585856122d1565b5050505050565b610bb9611fd1565b6001600960008373ffffffffffffffffffffffffffffffffffffffff1673ffffffffffffffffffffffffffffffffffffffff16815260200190815260200160002060009054906101000a900460ff1660ff1614610c4b576040517f08c379a0000000000000000000000000000000000000000000000000000000008152600401610c4290614de1565b60405180910390fd5b600960008273ffffffffffffffffffffffffffffffffffffffff1673ffffffffffffffffffffffffffffffffffffffff16815260200190815260200160002060006101000a81549060ff021916905560005b6001600a54610cac91906152b2565b811015610ee6578173ffffffffffffffffffffffffffffffffffffffff16600b8281548110610d04577f4e487b7100000000000000000000000000000000000000000000000000000000600052603260045260246000fd5b9060005260206000200160009054906101000a900473ffffffffffffffffffffffffffffffffffffffff1673ffffffffffffffffffffffffffffffffffffffff161415610ed357600b6002600a54610d5c91906152b2565b81548110610d93577f4e487b7100000000000000000000000000000000000000000000000000000000600052603260045260246000fd5b9060005260206000200160009054906101000a900473ffffffffffffffffffffffffffffffffffffffff16600b8281548110610df8577f4e487b7100000000000000000000000000000000000000000000000000000000600052603260045260246000fd5b9060005260206000200160006101000a81548173ffffffffffffffffffffffffffffffffffffffff021916908373ffffffffffffffffffffffffffffffffffffffff1602179055506000600b6002600a54610e5391906152b2565b81548110610e8a577f4e487b7100000000000000000000000000000000000000000000000000000000600052603260045260246000fd5b9060005260206000200160006101000a81548173ffffffffffffffffffffffffffffffffffffffff021916908373ffffffffffffffffffffffffffffffffffffffff1602179055505b8080610ede90615436565b915050610c9d565b506001600a6000828254610efa91906152b2565b9250508190555050565b60096020528060005260406000206000915054906101000a900460ff1681565b610f2c611fd1565b610f34612642565b565b60608151835114610f7c576040517f08c379a0000000000000000000000000000000000000000000000000000000008152600401610f7390614ec1565b60405180910390fd5b6000835167ffffffffffffffff811115610fbf577f4e487b7100000000000000000000000000000000000000000000000000000000600052604160045260246000fd5b604051908082528060200260200182016040528015610fed5781602001602082028036833780820191505090505b50905060005b84518110156110dc57611086858281518110611038577f4e487b7100000000000000000000000000000000000000000000000000000000600052603260045260246000fd5b6020026020010151858381518110611079577f4e487b7100000000000000000000000000000000000000000000000000000000600052603260045260246000fd5b60200260200101516105d6565b8282815181106110bf577f4e487b7100000000000000000000000000000000000000000000000000000000600052603260045260246000fd5b602002602001018181525050806110d590615436565b9050610ff3565b508091505092915050565b6000806110f38361166a565b119050919050565b6000600760009054906101000a900460ff16905090565b60068310611155576040517f08c379a000000000000000000000000000000000000000000000000000000000815260040161114c90614d81565b60405180910390fd5b6001600960008473ffffffffffffffffffffffffffffffffffffffff1673ffffffffffffffffffffffffffffffffffffffff16815260200190815260200160002060009054906101000a900460ff1660ff16146111e7576040517f08c379a00000000000000000000000000000000000000000000000000000000081526004016111de90614e81565b60405180910390fd5b80600d600085815260200190815260200160002060000160008473ffffffffffffffffffffffffffffffffffffffff1673ffffffffffffffffffffffffffffffffffffffff16815260200190815260200160002081905550505050565b61124c611fd1565b61125660006126a5565b565b6112648484848461276b565b50505050565b611272611fd1565b5050565b61127e611fd1565b80156112f657600061128f83611a30565b90506112b3604051806020016040528060008152508261291d90919063ffffffff16565b6112f457806040517f08c379a00000000000000000000000000000000000000000000000000000000081526004016112eb9190614c7f565b60405180910390fd5b505b60008251905060005b8181101561145657600160096000868481518110611346577f4e487b7100000000000000000000000000000000000000000000000000000000600052603260045260246000fd5b602002602001015173ffffffffffffffffffffffffffffffffffffffff1673ffffffffffffffffffffffffffffffffffffffff16815260200190815260200160002060006101000a81548160ff021916908360ff160217905550600b8482815181106113db577f4e487b7100000000000000000000000000000000000000000000000000000000600052603260045260246000fd5b60200260200101519080600181540180825580915050600190039060005260206000200160009091909190916101000a81548173ffffffffffffffffffffffffffffffffffffffff021916908373ffffffffffffffffffffffffffffffffffffffff160217905550808061144e90615436565b9150506112ff565b506001600c60009054906101000a900460ff1660ff1614156114905780600a60008282546114849190615202565b925050819055506114c0565b6001600c60006101000a81548160ff021916908360ff1602179055506001816114b99190615202565b600a819055505b505050565b6114cd611fd1565b81819050848490501415611516576040517f08c379a000000000000000000000000000000000000000000000000000000000815260040161150d90614e61565b60405180910390fd5b600084849050905060005b81811015611610576115ff868683818110611565577f4e487b7100000000000000000000000000000000000000000000000000000000600052603260045260246000fd5b905060200201358585848181106115a5577f4e487b7100000000000000000000000000000000000000000000000000000000600052603260045260246000fd5b90506020028101906115b79190614ff7565b8080601f016020809104026020016040519081016040528093929190818152602001838380828437600081840152601f19601f82011690508083019250505050505050612938565b8061160990615436565b9050611521565b505050505050565b611620611fd1565b6116286129a4565b565b6000600460009054906101000a900473ffffffffffffffffffffffffffffffffffffffff16905090565b61166661165f6122c9565b8383612a07565b5050565b600060086000838152602001908152602001600020549050919050565b600c60009054906101000a900460ff1681565b6000600260008473ffffffffffffffffffffffffffffffffffffffff1673ffffffffffffffffffffffffffffffffffffffff16815260200190815260200160002060008373ffffffffffffffffffffffffffffffffffffffff1673ffffffffffffffffffffffffffffffffffffffff16815260200190815260200160002060009054906101000a900460ff16905092915050565b6117366122c9565b73ffffffffffffffffffffffffffffffffffffffff168573ffffffffffffffffffffffffffffffffffffffff16148061177c575061177b856117766122c9565b61169a565b5b6117bb576040517f08c379a00000000000000000000000000000000000000000000000000000000081526004016117b290614d61565b60405180910390fd5b6117c88585858585612b74565b5050505050565b6117d7611fd1565b600073ffffffffffffffffffffffffffffffffffffffff168173ffffffffffffffffffffffffffffffffffffffff161415611847576040517f08c379a000000000000000000000000000000000000000000000000000000000815260040161183e90614d01565b60405180910390fd5b611850816126a5565b50565b6060600b8054806020026020016040519081016040528092919081815260200182805480156118d757602002820191906000526020600020905b8160009054906101000a900473ffffffffffffffffffffffffffffffffffffffff1673ffffffffffffffffffffffffffffffffffffffff168152602001906001019080831161188d575b5050505050905090565b60007f01ffc9a7000000000000000000000000000000000000000000000000000000007bffffffffffffffffffffffffffffffffffffffffffffffffffffffff1916827bffffffffffffffffffffffffffffffffffffffffffffffffffffffff1916149050919050565b6060600060066000848152602001908152602001600020805461196d906153d3565b80601f0160208091040260200160405190810160405280929190818152602001828054611999906153d3565b80156119e65780601f106119bb576101008083540402835291602001916119e6565b820191906000526020600020905b8154815290600101906020018083116119c957829003601f168201915b505050505090506000815111611a04576119ff83612e13565b611a28565b600581604051602001611a18929190614ae8565b6040516020818303038152906040525b915050919050565b60606000825190506002811115611a6257604051806060016040528060238152602001615cf560239139915050611fcc565b60008060005b83811015611fb557600160096000888481518110611aaf577f4e487b7100000000000000000000000000000000000000000000000000000000600052603260045260246000fd5b602002602001015173ffffffffffffffffffffffffffffffffffffffff1673ffffffffffffffffffffffffffffffffffffffff16815260200190815260200160002060009054906101000a900460ff1660ff161415611b9157611b67868281518110611b44577f4e487b7100000000000000000000000000000000000000000000000000000000600052603260045260246000fd5b602002602001015173ffffffffffffffffffffffffffffffffffffffff16612ea7565b604051602001611b779190614ac6565b604051602081830303815290604052945050505050611fcc565b60006040516024016040516020818303038152906040527f95d89b41000000000000000000000000000000000000000000000000000000007bffffffffffffffffffffffffffffffffffffffffffffffffffffffff19166020820180517bffffffffffffffffffffffffffffffffffffffffffffffffffffffff83818316178352505050509050600080888481518110611c54577f4e487b7100000000000000000000000000000000000000000000000000000000600052603260045260246000fd5b602002602001015173ffffffffffffffffffffffffffffffffffffffff1683604051611c809190614a8d565b600060405180830381855afa9150503d8060008114611cbb576040519150601f19603f3d011682016040523d82523d6000602084013e611cc0565b606091505b5091509150818015611cd3575060008151115b15611f1357600081806020019051810190611cee91906143ed565b9050611d386040518060400160405280600381526020017f54434600000000000000000000000000000000000000000000000000000000008152508261291d90919063ffffffff16565b158015611d8a5750611d886040518060400160405280600481526020017f55534454000000000000000000000000000000000000000000000000000000008152508261291d90919063ffffffff16565b155b15611e1c57611dee8a8681518110611dcb577f4e487b7100000000000000000000000000000000000000000000000000000000600052603260045260246000fd5b602002602001015173ffffffffffffffffffffffffffffffffffffffff16612ea7565b604051602001611dfe9190614aa4565b60405160208183030381529060405298505050505050505050611fcc565b611e646040518060400160405280600381526020017f54434600000000000000000000000000000000000000000000000000000000008152508261291d90919063ffffffff16565b15611ebd578615611eb4576040518060400160405280601481526020017f426f74682061646472657373206172652054434600000000000000000000000081525098505050505050505050611fcc565b60019650611f0d565b8515611f08576040518060400160405280601581526020017f426f74682061646472657373206172652055534454000000000000000000000081525098505050505050505050611fcc565b600195505b50611f9f565b611f72898581518110611f4f577f4e487b7100000000000000000000000000000000000000000000000000000000600052603260045260246000fd5b602002602001015173ffffffffffffffffffffffffffffffffffffffff16612ea7565b604051602001611f829190614aa4565b604051602081830303815290604052975050505050505050611fcc565b5050508080611fad90615436565b915050611a68565b506040518060200160405280600081525093505050505b919050565b611fd96122c9565b73ffffffffffffffffffffffffffffffffffffffff16611ff761162a565b73ffffffffffffffffffffffffffffffffffffffff161461204d576040517f08c379a000000000000000000000000000000000000000000000000000000000815260040161204490614e21565b60405180910390fd5b565b600073ffffffffffffffffffffffffffffffffffffffff168473ffffffffffffffffffffffffffffffffffffffff1614156120bf576040517f08c379a00000000000000000000000000000000000000000000000000000000081526004016120b690614f01565b60405180910390fd5b8151835114612103576040517f08c379a00000000000000000000000000000000000000000000000000000000081526004016120fa90614ee1565b60405180910390fd5b600061210d6122c9565b905061211e81600087878787612ed1565b60005b845181101561222457838181518110612163577f4e487b7100000000000000000000000000000000000000000000000000000000600052603260045260246000fd5b6020026020010151600160008784815181106121a8577f4e487b7100000000000000000000000000000000000000000000000000000000600052603260045260246000fd5b6020026020010151815260200190815260200160002060008873ffffffffffffffffffffffffffffffffffffffff1673ffffffffffffffffffffffffffffffffffffffff168152602001908152602001600020600082825461220a9190615202565b92505081905550808061221c90615436565b915050612121565b508473ffffffffffffffffffffffffffffffffffffffff16600073ffffffffffffffffffffffffffffffffffffffff168273ffffffffffffffffffffffffffffffffffffffff167f4a39dc06d4c0dbc64b70af90fd698a233a518aa5d07e595d983b8c0526c8f7fb878760405161229c929190614c2d565b60405180910390a46122b381600087878787612ee7565b6122c281600087878787612eef565b5050505050565b600033905090565b8151835114612315576040517f08c379a000000000000000000000000000000000000000000000000000000000815260040161230c90614ee1565b60405180910390fd5b600073ffffffffffffffffffffffffffffffffffffffff168473ffffffffffffffffffffffffffffffffffffffff161415612385576040517f08c379a000000000000000000000000000000000000000000000000000000000815260040161237c90614dc1565b60405180910390fd5b600061238f6122c9565b905061239f818787878787612ed1565b60005b845181101561259f5760008582815181106123e6577f4e487b7100000000000000000000000000000000000000000000000000000000600052603260045260246000fd5b60200260200101519050600085838151811061242b577f4e487b7100000000000000000000000000000000000000000000000000000000600052603260045260246000fd5b6020026020010151905060006001600084815260200190815260200160002060008b73ffffffffffffffffffffffffffffffffffffffff1673ffffffffffffffffffffffffffffffffffffffff168152602001908152602001600020549050818110156124cd576040517f08c379a00000000000000000000000000000000000000000000000000000000081526004016124c490614e01565b60405180910390fd5b8181036001600085815260200190815260200160002060008c73ffffffffffffffffffffffffffffffffffffffff1673ffffffffffffffffffffffffffffffffffffffff16815260200190815260200160002081905550816001600085815260200190815260200160002060008b73ffffffffffffffffffffffffffffffffffffffff1673ffffffffffffffffffffffffffffffffffffffff16815260200190815260200160002060008282546125849190615202565b925050819055505050508061259890615436565b90506123a2565b508473ffffffffffffffffffffffffffffffffffffffff168673ffffffffffffffffffffffffffffffffffffffff168273ffffffffffffffffffffffffffffffffffffffff167f4a39dc06d4c0dbc64b70af90fd698a233a518aa5d07e595d983b8c0526c8f7fb8787604051612616929190614c2d565b60405180910390a461262c818787878787612ee7565b61263a818787878787612eef565b505050505050565b61264a6130d6565b6000600760006101000a81548160ff0219169083151502179055507f5db9ee0a495bf2e6ff9c91a7834c1ba4fdd244a5e8aa4e537bd38aeae4b073aa61268e6122c9565b60405161269b9190614b0c565b60405180910390a1565b6000600460009054906101000a900473ffffffffffffffffffffffffffffffffffffffff16905081600460006101000a81548173ffffffffffffffffffffffffffffffffffffffff021916908373ffffffffffffffffffffffffffffffffffffffff1602179055508173ffffffffffffffffffffffffffffffffffffffff168173ffffffffffffffffffffffffffffffffffffffff167f8be0079c531659141344cd1fd0a4f28419497f9722a3daafe3b4186f6b6457e060405160405180910390a35050565b600073ffffffffffffffffffffffffffffffffffffffff168473ffffffffffffffffffffffffffffffffffffffff1614156127db576040517f08c379a00000000000000000000000000000000000000000000000000000000081526004016127d290614f01565b60405180910390fd5b60006127e56122c9565b905060006127f28561311f565b905060006127ff8561311f565b905061281083600089858589612ed1565b846001600088815260200190815260200160002060008973ffffffffffffffffffffffffffffffffffffffff1673ffffffffffffffffffffffffffffffffffffffff16815260200190815260200160002060008282546128709190615202565b925050819055508673ffffffffffffffffffffffffffffffffffffffff16600073ffffffffffffffffffffffffffffffffffffffff168473ffffffffffffffffffffffffffffffffffffffff167fc3d58168c5ae7397731d063d5bbf3d657854427343f4c083240f7aacaa2d0f6289896040516128ee929190614f5c565b60405180910390a461290583600089858589612ee7565b612914836000898989896131e5565b50505050505050565b60008180519060200120838051906020012014905092915050565b8060066000848152602001908152602001600020908051906020019061295f929190613a03565b50817f6bb7ff708619ba0610cba295a58592e0451dee2622938c8755667688daf3529b61298b84610a8d565b6040516129989190614c7f565b60405180910390a25050565b6129ac6133cc565b6001600760006101000a81548160ff0219169083151502179055507f62e78cea01bee320cd4e420270b5ea74000d11b0c9f74754ebdbfc544b05a2586129f06122c9565b6040516129fd9190614b0c565b60405180910390a1565b8173ffffffffffffffffffffffffffffffffffffffff168373ffffffffffffffffffffffffffffffffffffffff161415612a76576040517f08c379a0000000000000000000000000000000000000000000000000000000008152600401612a6d90614ea1565b60405180910390fd5b80600260008573ffffffffffffffffffffffffffffffffffffffff1673ffffffffffffffffffffffffffffffffffffffff16815260200190815260200160002060008473ffffffffffffffffffffffffffffffffffffffff1673ffffffffffffffffffffffffffffffffffffffff16815260200190815260200160002060006101000a81548160ff0219169083151502179055508173ffffffffffffffffffffffffffffffffffffffff168373ffffffffffffffffffffffffffffffffffffffff167f17307eab39ab6107e8899845ad3d59bd9653f200f220920489ca2b5937696c3183604051612b679190614c64565b60405180910390a3505050565b600073ffffffffffffffffffffffffffffffffffffffff168473ffffffffffffffffffffffffffffffffffffffff161415612be4576040517f08c379a0000000000000000000000000000000000000000000000000000000008152600401612bdb90614dc1565b60405180910390fd5b6000612bee6122c9565b90506000612bfb8561311f565b90506000612c088561311f565b9050612c18838989858589612ed1565b60006001600088815260200190815260200160002060008a73ffffffffffffffffffffffffffffffffffffffff1673ffffffffffffffffffffffffffffffffffffffff16815260200190815260200160002054905085811015612cb0576040517f08c379a0000000000000000000000000000000000000000000000000000000008152600401612ca790614e01565b60405180910390fd5b8581036001600089815260200190815260200160002060008b73ffffffffffffffffffffffffffffffffffffffff1673ffffffffffffffffffffffffffffffffffffffff16815260200190815260200160002081905550856001600089815260200190815260200160002060008a73ffffffffffffffffffffffffffffffffffffffff1673ffffffffffffffffffffffffffffffffffffffff1681526020019081526020016000206000828254612d679190615202565b925050819055508773ffffffffffffffffffffffffffffffffffffffff168973ffffffffffffffffffffffffffffffffffffffff168573ffffffffffffffffffffffffffffffffffffffff167fc3d58168c5ae7397731d063d5bbf3d657854427343f4c083240f7aacaa2d0f628a8a604051612de4929190614f5c565b60405180910390a4612dfa848a8a86868a612ee7565b612e08848a8a8a8a8a6131e5565b505050505050505050565b606060038054612e22906153d3565b80601f0160208091040260200160405190810160405280929190818152602001828054612e4e906153d3565b8015612e9b5780601f10612e7057610100808354040283529160200191612e9b565b820191906000526020600020905b815481529060010190602001808311612e7e57829003601f168201915b50505050509050919050565b6060612eca8273ffffffffffffffffffffffffffffffffffffffff166014613416565b9050919050565b612edf868686868686613710565b505050505050565b505050505050565b612f0e8473ffffffffffffffffffffffffffffffffffffffff1661397a565b156130ce578373ffffffffffffffffffffffffffffffffffffffff1663bc197c8187878686866040518663ffffffff1660e01b8152600401612f54959493929190614b27565b602060405180830381600087803b158015612f6e57600080fd5b505af1925050508015612f9f57506040513d601f19601f82011682018060405250810190612f9c91906143c4565b60015b61304557612fab61550c565b806308c379a014156130085750612fc0615b81565b80612fcb575061300a565b806040517f08c379a0000000000000000000000000000000000000000000000000000000008152600401612fff9190614c7f565b60405180910390fd5b505b6040517f08c379a000000000000000000000000000000000000000000000000000000000815260040161303c90614f21565b60405180910390fd5b63bc197c8160e01b7bffffffffffffffffffffffffffffffffffffffffffffffffffffffff1916817bffffffffffffffffffffffffffffffffffffffffffffffffffffffff1916146130cc576040517f08c379a00000000000000000000000000000000000000000000000000000000081526004016130c390614cc1565b60405180910390fd5b505b505050505050565b6130de6110fb565b61311d576040517f08c379a000000000000000000000000000000000000000000000000000000000815260040161311490614ce1565b60405180910390fd5b565b60606000600167ffffffffffffffff811115613164577f4e487b7100000000000000000000000000000000000000000000000000000000600052604160045260246000fd5b6040519080825280602002602001820160405280156131925781602001602082028036833780820191505090505b50905082816000815181106131d0577f4e487b7100000000000000000000000000000000000000000000000000000000600052603260045260246000fd5b60200260200101818152505080915050919050565b6132048473ffffffffffffffffffffffffffffffffffffffff1661397a565b156133c4578373ffffffffffffffffffffffffffffffffffffffff1663f23a6e6187878686866040518663ffffffff1660e01b815260040161324a959493929190614b8f565b602060405180830381600087803b15801561326457600080fd5b505af192505050801561329557506040513d601f19601f8201168201806040525081019061329291906143c4565b60015b61333b576132a161550c565b806308c379a014156132fe57506132b6615b81565b806132c15750613300565b806040517f08c379a00000000000000000000000000000000000000000000000000000000081526004016132f59190614c7f565b60405180910390fd5b505b6040517f08c379a000000000000000000000000000000000000000000000000000000000815260040161333290614f21565b60405180910390fd5b63f23a6e6160e01b7bffffffffffffffffffffffffffffffffffffffffffffffffffffffff1916817bffffffffffffffffffffffffffffffffffffffffffffffffffffffff1916146133c2576040517f08c379a00000000000000000000000000000000000000000000000000000000081526004016133b990614cc1565b60405180910390fd5b505b505050505050565b6133d46110fb565b15613414576040517f08c379a000000000000000000000000000000000000000000000000000000000815260040161340b90614da1565b60405180910390fd5b565b6060600060028360026134299190615258565b6134339190615202565b67ffffffffffffffff811115613472577f4e487b7100000000000000000000000000000000000000000000000000000000600052604160045260246000fd5b6040519080825280601f01601f1916602001820160405280156134a45781602001600182028036833780820191505090505b5090507f300000000000000000000000000000000000000000000000000000000000000081600081518110613502577f4e487b7100000000000000000000000000000000000000000000000000000000600052603260045260246000fd5b60200101907effffffffffffffffffffffffffffffffffffffffffffffffffffffffffffff1916908160001a9053507f78000000000000000000000000000000000000000000000000000000000000008160018151811061358c577f4e487b7100000000000000000000000000000000000000000000000000000000600052603260045260246000fd5b60200101907effffffffffffffffffffffffffffffffffffffffffffffffffffffffffffff1916908160001a905350600060018460026135cc9190615258565b6135d69190615202565b90505b60018111156136c2577f3031323334353637383961626364656600000000000000000000000000000000600f86166010811061363e577f4e487b7100000000000000000000000000000000000000000000000000000000600052603260045260246000fd5b1a60f81b82828151811061367b577f4e487b7100000000000000000000000000000000000000000000000000000000600052603260045260246000fd5b60200101907effffffffffffffffffffffffffffffffffffffffffffffffffffffffffffff1916908160001a905350600485901c9450806136bb906153a9565b90506135d9565b5060008414613706576040517f08c379a00000000000000000000000000000000000000000000000000000000081526004016136fd90614ca1565b60405180910390fd5b8091505092915050565b61371e86868686868661399d565b600073ffffffffffffffffffffffffffffffffffffffff168573ffffffffffffffffffffffffffffffffffffffff16141561381c5760005b835181101561381a57828181518110613798577f4e487b7100000000000000000000000000000000000000000000000000000000600052603260045260246000fd5b6020026020010151600860008684815181106137dd577f4e487b7100000000000000000000000000000000000000000000000000000000600052603260045260246000fd5b6020026020010151815260200190815260200160002060008282546138029190615202565b925050819055508061381390615436565b9050613756565b505b600073ffffffffffffffffffffffffffffffffffffffff168473ffffffffffffffffffffffffffffffffffffffff1614156139725760005b8351811015613970576000848281518110613898577f4e487b7100000000000000000000000000000000000000000000000000000000600052603260045260246000fd5b6020026020010151905060008483815181106138dd577f4e487b7100000000000000000000000000000000000000000000000000000000600052603260045260246000fd5b6020026020010151905060006008600084815260200190815260200160002054905081811015613942576040517f08c379a000000000000000000000000000000000000000000000000000000000815260040161393990614e41565b60405180910390fd5b81810360086000858152602001908152602001600020819055505050508061396990615436565b9050613854565b505b505050505050565b6000808273ffffffffffffffffffffffffffffffffffffffff163b119050919050565b6139ab8686868686866139fb565b6139b36110fb565b156139f3576040517f08c379a00000000000000000000000000000000000000000000000000000000081526004016139ea90614d21565b60405180910390fd5b505050505050565b505050505050565b828054613a0f906153d3565b90600052602060002090601f016020900481019282613a315760008555613a78565b82601f10613a4a57805160ff1916838001178555613a78565b82800160010185558215613a78579182015b82811115613a77578251825591602001919060010190613a5c565b5b509050613a859190613a89565b5090565b5b80821115613aa2576000816000905550600101613a8a565b5090565b6000613ab9613ab484615073565b61504e565b90508083825260208201905082856020860282011115613ad857600080fd5b60005b85811015613b085781613aee8882613bfa565b845260208401935060208301925050600181019050613adb565b5050509392505050565b6000613b25613b208461509f565b61504e565b90508083825260208201905082856020860282011115613b4457600080fd5b60005b85811015613b745781613b5a8882613e12565b845260208401935060208301925050600181019050613b47565b5050509392505050565b6000613b91613b8c846150cb565b61504e565b905082815260208101848484011115613ba957600080fd5b613bb4848285615367565b509392505050565b6000613bcf613bca846150fc565b61504e565b905082815260208101848484011115613be757600080fd5b613bf2848285615376565b509392505050565b600081359050613c0981615c17565b92915050565b600082601f830112613c2057600080fd5b8135613c30848260208601613aa6565b91505092915050565b600081905082602060060282011115613c5157600080fd5b92915050565b60008083601f840112613c6957600080fd5b8235905067ffffffffffffffff811115613c8257600080fd5b602083019150836020820283011115613c9a57600080fd5b9250929050565b600081905082602060060282011115613cb957600080fd5b92915050565b60008083601f840112613cd157600080fd5b8235905067ffffffffffffffff811115613cea57600080fd5b602083019150836020820283011115613d0257600080fd5b9250929050565b600082601f830112613d1a57600080fd5b8135613d2a848260208601613b12565b91505092915050565b600081359050613d4281615c2e565b92915050565b600081359050613d5781615c45565b92915050565b600081519050613d6c81615c45565b92915050565b600082601f830112613d8357600080fd5b8135613d93848260208601613b7e565b91505092915050565b600082601f830112613dad57600080fd5b8151613dbd848260208601613bbc565b91505092915050565b600060408284031215613dd857600080fd5b613de2604061504e565b90506000613df284828501613bfa565b6000830152506020613e0684828501613e12565b60208301525092915050565b600081359050613e2181615c5c565b92915050565b600060208284031215613e3957600080fd5b6000613e4784828501613bfa565b91505092915050565b60008060408385031215613e6357600080fd5b6000613e7185828601613bfa565b9250506020613e8285828601613bfa565b9150509250929050565b600080600080600060a08688031215613ea457600080fd5b6000613eb288828901613bfa565b9550506020613ec388828901613bfa565b945050604086013567ffffffffffffffff811115613ee057600080fd5b613eec88828901613d09565b935050606086013567ffffffffffffffff811115613f0957600080fd5b613f1588828901613d09565b925050608086013567ffffffffffffffff811115613f3257600080fd5b613f3e88828901613d72565b9150509295509295909350565b600080600080600060a08688031215613f6357600080fd5b6000613f7188828901613bfa565b9550506020613f8288828901613bfa565b9450506040613f9388828901613e12565b9350506060613fa488828901613e12565b925050608086013567ffffffffffffffff811115613fc157600080fd5b613fcd88828901613d72565b9150509295509295909350565b60008060008060808587031215613ff057600080fd5b6000613ffe87828801613bfa565b945050602085013567ffffffffffffffff81111561401b57600080fd5b61402787828801613d09565b935050604085013567ffffffffffffffff81111561404457600080fd5b61405087828801613d09565b925050606085013567ffffffffffffffff81111561406d57600080fd5b61407987828801613d72565b91505092959194509250565b6000806040838503121561409857600080fd5b60006140a685828601613bfa565b92505060206140b785828601613d33565b9150509250929050565b600080604083850312156140d457600080fd5b60006140e285828601613bfa565b92505060206140f385828601613e12565b9150509250929050565b6000806000806080858703121561411357600080fd5b600061412187828801613bfa565b945050602061413287828801613e12565b935050604061414387828801613e12565b925050606085013567ffffffffffffffff81111561416057600080fd5b61416c87828801613d72565b91505092959194509250565b60006020828403121561418a57600080fd5b600082013567ffffffffffffffff8111156141a457600080fd5b6141b084828501613c0f565b91505092915050565b600080604083850312156141cc57600080fd5b600083013567ffffffffffffffff8111156141e657600080fd5b6141f285828601613c0f565b925050602083013567ffffffffffffffff81111561420f57600080fd5b61421b85828601613d09565b9150509250929050565b6000806040838503121561423857600080fd5b600083013567ffffffffffffffff81111561425257600080fd5b61425e85828601613c0f565b925050602061426f85828601613d33565b9150509250929050565b60006020828403121561428b57600080fd5b600082013567ffffffffffffffff8111156142a557600080fd5b6142b184828501613c39565b91505092915050565b600080604083850312156142cd57600080fd5b600083013567ffffffffffffffff8111156142e757600080fd5b6142f385828601613ca1565b925050602083013567ffffffffffffffff81111561431057600080fd5b61431c85828601613c0f565b9150509250929050565b6000806000806040858703121561433c57600080fd5b600085013567ffffffffffffffff81111561435657600080fd5b61436287828801613cbf565b9450945050602085013567ffffffffffffffff81111561438157600080fd5b61438d87828801613c57565b925092505092959194509250565b6000602082840312156143ad57600080fd5b60006143bb84828501613d48565b91505092915050565b6000602082840312156143d657600080fd5b60006143e484828501613d5d565b91505092915050565b6000602082840312156143ff57600080fd5b600082015167ffffffffffffffff81111561441957600080fd5b61442584828501613d9c565b91505092915050565b60006040828403121561444057600080fd5b600061444e84828501613dc6565b91505092915050565b60006020828403121561446957600080fd5b600061447784828501613e12565b91505092915050565b60008060006060848603121561449557600080fd5b60006144a386828701613e12565b93505060206144b486828701613bfa565b92505060406144c586828701613e12565b9150509250925092565b60006144db83836144ff565b60208301905092915050565b60006144f38383614a60565b60208301905092915050565b614508816152e6565b82525050565b614517816152e6565b82525050565b600061452882615162565b61453281856151a8565b935061453d8361512d565b8060005b8381101561456e57815161455588826144cf565b97506145608361518e565b925050600181019050614541565b5085935050505092915050565b60006145868261516d565b61459081856151b9565b935061459b8361513d565b8060005b838110156145cc5781516145b388826144e7565b97506145be8361519b565b92505060018101905061459f565b5085935050505092915050565b6145e2816152f8565b82525050565b60006145f382615178565b6145fd81856151ca565b935061460d818560208601615376565b6146168161552e565b840191505092915050565b600061462c82615178565b61463681856151db565b9350614646818560208601615376565b80840191505092915050565b600061465d82615183565b61466781856151e6565b9350614677818560208601615376565b6146808161552e565b840191505092915050565b600061469682615183565b6146a081856151f7565b93506146b0818560208601615376565b80840191505092915050565b600081546146c9816153d3565b6146d381866151f7565b945060018216600081146146ee57600181146146ff57614732565b60ff19831686528186019350614732565b6147088561514d565b60005b8381101561472a5781548189015260018201915060208101905061470b565b838801955050505b50505092915050565b60006147486020836151e6565b91506147538261554c565b602082019050919050565b600061476b6028836151e6565b915061477682615575565b604082019050919050565b600061478e6014836151e6565b9150614799826155c4565b602082019050919050565b60006147b16026836151e6565b91506147bc826155ed565b604082019050919050565b60006147d4602c836151e6565b91506147df8261563c565b604082019050919050565b60006147f76012836151f7565b91506148028261568b565b601282019050919050565b600061481a602a836151e6565b9150614825826156b4565b604082019050919050565b600061483d602e836151e6565b915061484882615703565b604082019050919050565b60006148606032836151e6565b915061486b82615752565b604082019050919050565b60006148836010836151e6565b915061488e826157a1565b602082019050919050565b60006148a66025836151e6565b91506148b1826157ca565b604082019050919050565b60006148c96007836151f7565b91506148d482615819565b600782019050919050565b60006148ec6034836151e6565b91506148f782615842565b604082019050919050565b600061490f602a836151e6565b915061491a82615891565b604082019050919050565b60006149326020836151e6565b915061493d826158e0565b602082019050919050565b60006149556028836151e6565b915061496082615909565b604082019050919050565b60006149786029836151e6565b915061498382615958565b604082019050919050565b600061499b6040836151e6565b91506149a6826159a7565b604082019050919050565b60006149be6029836151e6565b91506149c9826159f6565b604082019050919050565b60006149e16029836151e6565b91506149ec82615a45565b604082019050919050565b6000614a046028836151e6565b9150614a0f82615a94565b604082019050919050565b6000614a276021836151e6565b9150614a3282615ae3565b604082019050919050565b6000614a4a6034836151e6565b9150614a5582615b32565b604082019050919050565b614a6981615350565b82525050565b614a7881615350565b82525050565b614a878161535a565b82525050565b6000614a998284614621565b915081905092915050565b6000614ab0828461468b565b9150614abb826147ea565b915081905092915050565b6000614ad2828461468b565b9150614add826148bc565b915081905092915050565b6000614af482856146bc565b9150614b00828461468b565b91508190509392505050565b6000602082019050614b21600083018461450e565b92915050565b600060a082019050614b3c600083018861450e565b614b49602083018761450e565b8181036040830152614b5b818661457b565b90508181036060830152614b6f818561457b565b90508181036080830152614b8381846145e8565b90509695505050505050565b600060a082019050614ba4600083018861450e565b614bb1602083018761450e565b614bbe6040830186614a6f565b614bcb6060830185614a6f565b8181036080830152614bdd81846145e8565b90509695505050505050565b60006020820190508181036000830152614c03818461451d565b905092915050565b60006020820190508181036000830152614c25818461457b565b905092915050565b60006040820190508181036000830152614c47818561457b565b90508181036020830152614c5b818461457b565b90509392505050565b6000602082019050614c7960008301846145d9565b92915050565b60006020820190508181036000830152614c998184614652565b905092915050565b60006020820190508181036000830152614cba8161473b565b9050919050565b60006020820190508181036000830152614cda8161475e565b9050919050565b60006020820190508181036000830152614cfa81614781565b9050919050565b60006020820190508181036000830152614d1a816147a4565b9050919050565b60006020820190508181036000830152614d3a816147c7565b9050919050565b60006020820190508181036000830152614d5a8161480d565b9050919050565b60006020820190508181036000830152614d7a81614830565b9050919050565b60006020820190508181036000830152614d9a81614853565b9050919050565b60006020820190508181036000830152614dba81614876565b9050919050565b60006020820190508181036000830152614dda81614899565b9050919050565b60006020820190508181036000830152614dfa816148df565b9050919050565b60006020820190508181036000830152614e1a81614902565b9050919050565b60006020820190508181036000830152614e3a81614925565b9050919050565b60006020820190508181036000830152614e5a81614948565b9050919050565b60006020820190508181036000830152614e7a8161496b565b9050919050565b60006020820190508181036000830152614e9a8161498e565b9050919050565b60006020820190508181036000830152614eba816149b1565b9050919050565b60006020820190508181036000830152614eda816149d4565b9050919050565b60006020820190508181036000830152614efa816149f7565b9050919050565b60006020820190508181036000830152614f1a81614a1a565b9050919050565b60006020820190508181036000830152614f3a81614a3d565b9050919050565b6000602082019050614f566000830184614a6f565b92915050565b6000604082019050614f716000830185614a6f565b614f7e6020830184614a6f565b9392505050565b6000602082019050614f9a6000830184614a7e565b92915050565b60008083356001602003843603038112614fb957600080fd5b80840192508235915067ffffffffffffffff821115614fd757600080fd5b602083019250604082023603831315614fef57600080fd5b509250929050565b6000808335600160200384360303811261501057600080fd5b80840192508235915067ffffffffffffffff82111561502e57600080fd5b60208301925060018202360383131561504657600080fd5b509250929050565b6000615058615069565b90506150648282615405565b919050565b6000604051905090565b600067ffffffffffffffff82111561508e5761508d6154dd565b5b602082029050602081019050919050565b600067ffffffffffffffff8211156150ba576150b96154dd565b5b602082029050602081019050919050565b600067ffffffffffffffff8211156150e6576150e56154dd565b5b6150ef8261552e565b9050602081019050919050565b600067ffffffffffffffff821115615117576151166154dd565b5b6151208261552e565b9050602081019050919050565b6000819050602082019050919050565b6000819050602082019050919050565b60008190508160005260206000209050919050565b600081519050919050565b600081519050919050565b600081519050919050565b600081519050919050565b6000602082019050919050565b6000602082019050919050565b600082825260208201905092915050565b600082825260208201905092915050565b600082825260208201905092915050565b600081905092915050565b600082825260208201905092915050565b600081905092915050565b600061520d82615350565b915061521883615350565b9250827fffffffffffffffffffffffffffffffffffffffffffffffffffffffffffffffff0382111561524d5761524c61547f565b5b828201905092915050565b600061526382615350565b915061526e83615350565b9250817fffffffffffffffffffffffffffffffffffffffffffffffffffffffffffffffff04831182151516156152a7576152a661547f565b5b828202905092915050565b60006152bd82615350565b91506152c883615350565b9250828210156152db576152da61547f565b5b828203905092915050565b60006152f182615330565b9050919050565b60008115159050919050565b60007fffffffff0000000000000000000000000000000000000000000000000000000082169050919050565b600073ffffffffffffffffffffffffffffffffffffffff82169050919050565b6000819050919050565b600060ff82169050919050565b82818337600083830152505050565b60005b83811015615394578082015181840152602081019050615379565b838111156153a3576000848401525b50505050565b60006153b482615350565b915060008214156153c8576153c761547f565b5b600182039050919050565b600060028204905060018216806153eb57607f821691505b602082108114156153ff576153fe6154ae565b5b50919050565b61540e8261552e565b810181811067ffffffffffffffff8211171561542d5761542c6154dd565b5b80604052505050565b600061544182615350565b91507fffffffffffffffffffffffffffffffffffffffffffffffffffffffffffffffff8214156154745761547361547f565b5b600182019050919050565b7f4e487b7100000000000000000000000000000000000000000000000000000000600052601160045260246000fd5b7f4e487b7100000000000000000000000000000000000000000000000000000000600052602260045260246000fd5b7f4e487b7100000000000000000000000000000000000000000000000000000000600052604160045260246000fd5b600060033d111561552b5760046000803e61552860005161553f565b90505b90565b6000601f19601f8301169050919050565b60008160e01c9050919050565b7f537472696e67733a20686578206c656e67746820696e73756666696369656e74600082015250565b7f455243313135353a204552433131353552656365697665722072656a6563746560008201527f6420746f6b656e73000000000000000000000000000000000000000000000000602082015250565b7f5061757361626c653a206e6f7420706175736564000000000000000000000000600082015250565b7f4f776e61626c653a206e6577206f776e657220697320746865207a65726f206160008201527f6464726573730000000000000000000000000000000000000000000000000000602082015250565b7f455243313135355061757361626c653a20746f6b656e207472616e736665722060008201527f7768696c65207061757365640000000000000000000000000000000000000000602082015250565b7f2069736e277420544346206f7220555344540000000000000000000000000000600082015250565b7f455243313135353a2061646472657373207a65726f206973206e6f742061207660008201527f616c6964206f776e657200000000000000000000000000000000000000000000602082015250565b7f455243313135353a2063616c6c6572206973206e6f7420746f6b656e206f776e60008201527f6572206f7220617070726f766564000000000000000000000000000000000000602082015250565b7f5365744e465450726963653a20546f6b656e4944206d757374206265206f6e6560008201527f206f6620302c312c322c332c34206f7220350000000000000000000000000000602082015250565b7f5061757361626c653a2070617573656400000000000000000000000000000000600082015250565b7f455243313135353a207472616e7366657220746f20746865207a65726f20616460008201527f6472657373000000000000000000000000000000000000000000000000000000602082015250565b7f2065786973747300000000000000000000000000000000000000000000000000600082015250565b7f4368616e6765537570706f72746564546f6b656e3a206f6c6420746f6b656e2060008201527f61646472657373206973206e6f74206578697374000000000000000000000000602082015250565b7f455243313135353a20696e73756666696369656e742062616c616e636520666f60008201527f72207472616e7366657200000000000000000000000000000000000000000000602082015250565b7f4f776e61626c653a2063616c6c6572206973206e6f7420746865206f776e6572600082015250565b7f455243313135353a206275726e20616d6f756e74206578636565647320746f7460008201527f616c537570706c79000000000000000000000000000000000000000000000000602082015250565b7f746f6b656e49647320616e6420555249732073686f756c64206861766520736160008201527f6d65206c656e6774680000000000000000000000000000000000000000000000602082015250565b7f5365744e465450726963653a20546f6b656e416464726573732049736e27742060008201527f737570706f7274206f7220746f6b656e41646472657373206973206572726f72602082015250565b7f455243313135353a2073657474696e6720617070726f76616c2073746174757360008201527f20666f722073656c660000000000000000000000000000000000000000000000602082015250565b7f455243313135353a206163636f756e747320616e6420696473206c656e67746860008201527f206d69736d617463680000000000000000000000000000000000000000000000602082015250565b7f455243313135353a2069647320616e6420616d6f756e7473206c656e6774682060008201527f6d69736d61746368000000000000000000000000000000000000000000000000602082015250565b7f455243313135353a206d696e7420746f20746865207a65726f2061646472657360008201527f7300000000000000000000000000000000000000000000000000000000000000602082015250565b7f455243313135353a207472616e7366657220746f206e6f6e2d4552433131353560008201527f526563656976657220696d706c656d656e746572000000000000000000000000602082015250565b600060443d1015615b9157615c14565b615b99615069565b60043d036004823e80513d602482011167ffffffffffffffff82111715615bc1575050615c14565b808201805167ffffffffffffffff811115615bdf5750505050615c14565b80602083010160043d038501811115615bfc575050505050615c14565b615c0b82602001850186615405565b82955050505050505b90565b615c20816152e6565b8114615c2b57600080fd5b50565b615c37816152f8565b8114615c4257600080fd5b50565b615c4e81615304565b8114615c5957600080fd5b50565b615c6581615350565b8114615c7057600080fd5b5056fe546f6b656e416464726573732049736e277420737570706f7274206f7220746f6b656e41646472657373206973206572726f7254686520706169727320616d6f756e74206f6620707269636520616e6420746f6b656e2061646472657373206d75737420657175616c20746f20537570706f72746564546f6b656e416d6f756e7441646472657373206c656e677468206d757374203c20332c544346206f722055534454a26469706673582212207ea0858d18053e06d12a4b2c4bfd6a85006e1057759d68068969b4e3bf5d3b0e64736f6c63430008010033",
  "linkReferences": {},
  "deployedLinkReferences": {},
  "immutableReferences": {},
  "inputSourceName": "project/contracts/TCF_NFTPrice.sol",
  "devdoc": {
    "kind": "dev",
    "methods": {
      "balanceOf(address,uint256)": {
        "details": "See {IERC1155-balanceOf}. Requirements: - `account` cannot be the zero address."
      },
      "balanceOfBatch(address[],uint256[])": {
        "details": "See {IERC1155-balanceOfBatch}. Requirements: - `accounts` and `ids` must have the same length."
      },
      "exists(uint256)": {
        "details": "Indicates whether any token exist with a given id, or not."
      },
      "isApprovedForAll(address,address)": {
        "details": "See {IERC1155-isApprovedForAll}."
      },
      "owner()": {
        "details": "Returns the address of the current owner."
      },
      "paused()": {
        "details": "Returns true if the contract is paused, and false otherwise."
      },
      "renounceOwnership()": {
        "details": "Leaves the contract without owner. It will not be possible to call `onlyOwner` functions. Can only be called by the current owner. NOTE: Renouncing ownership will leave the contract without an owner, thereby disabling any functionality that is only available to the owner."
      },
      "safeBatchTransferFrom(address,address,uint256[],uint256[],bytes)": {
        "details": "See {IERC1155-safeBatchTransferFrom}."
      },
      "safeTransferFrom(address,address,uint256,uint256,bytes)": {
        "details": "See {IERC1155-safeTransferFrom}."
      },
      "setApprovalForAll(address,bool)": {
        "details": "See {IERC1155-setApprovalForAll}."
      },
      "supportsInterface(bytes4)": {
        "details": "See {IERC165-supportsInterface}."
      },
      "totalSupply(uint256)": {
        "details": "Total amount of tokens in with a given id."
      },
      "transferOwnership(address)": {
        "details": "Transfers ownership of the contract to a new account (`newOwner`). Can only be called by the current owner."
      }
    },
    "version": 1
  },
  "evm": {
    "gasEstimates": {
      "creation": {
        "codeDepositCost": "4777000",
        "executionCost": "infinite",
        "totalCost": "infinite"
      },
      "external": {
        "TCF_NFTPrice_init(((address,uint256)[])[6],address[])": "infinite",
        "addSupportedToken(address[],bool)": "infinite",
        "balanceOf(address,uint256)": "infinite",
        "balanceOfBatch(address[],uint256[])": "infinite",
        "checkPricesParams((address,uint256)[][6])": "infinite",
        "checkTokenAddressesParams_external(address[])": "infinite",
        "deleteSupportedToken(address)": "infinite",
        "exists(uint256)": "1624",
        "getSupportTokenAddress()": "infinite",
        "initedTokenAddress()": "1282",
        "isApprovedForAll(address,address)": "infinite",
        "mint(address,uint256,uint256,bytes)": "infinite",
        "mintBatch(address,uint256[],uint256[],bytes)": "infinite",
        "owner()": "1267",
        "pause()": "infinite",
        "paused()": "1290",
        "renounceOwnership()": "24466",
        "safeBatchTransferFrom(address,address,uint256[],uint256[],bytes)": "infinite",
        "safeTransferFrom(address,address,uint256,uint256,bytes)": "infinite",
        "setApprovalForAll(address,bool)": "infinite",
        "setNFTPrice(uint256,address,uint256)": "infinite",
        "setTokenURI(uint256[],bytes[])": "infinite",
        "supportTokenType(address)": "1657",
        "supportedTokenAmount()": "1175",
        "supportsInterface(bytes4)": "842",
        "tokenAddress_array(uint256)": "2424",
        "totalSupply(uint256)": "infinite",
        "transferOwnership(address)": "24835",
        "unpause()": "infinite",
        "uri(uint256)": "infinite"
      },
      "internal": {
        "checkTokenAddressesParams(address[] memory)": "infinite",
        "initEquities(struct TCF_NFTPrice.priceTypeAndAomut calldata[] calldata[6] calldata)": "infinite"
      }
    }
  },
  "storageLayout": {
    "storage": [
      {
        "astId": 1150,
        "contract": "project/contracts/TCF_NFTPrice.sol:TCF_NFTPrice",
        "label": "_initialized",
        "offset": 0,
        "slot": "0",
        "type": "t_bool"
      },
      {
        "astId": 1153,
        "contract": "project/contracts/TCF_NFTPrice.sol:TCF_NFTPrice",
        "label": "_initializing",
        "offset": 1,
        "slot": "0",
        "type": "t_bool"
      },
      {
        "astId": 1354,
        "contract": "project/contracts/TCF_NFTPrice.sol:TCF_NFTPrice",
        "label": "_balances",
        "offset": 0,
        "slot": "1",
        "type": "t_mapping(t_uint256,t_mapping(t_address,t_uint256))"
      },
      {
        "astId": 1360,
        "contract": "project/contracts/TCF_NFTPrice.sol:TCF_NFTPrice",
        "label": "_operatorApprovals",
        "offset": 0,
        "slot": "2",
        "type": "t_mapping(t_address,t_mapping(t_address,t_bool))"
      },
      {
        "astId": 1362,
        "contract": "project/contracts/TCF_NFTPrice.sol:TCF_NFTPrice",
        "label": "_uri",
        "offset": 0,
        "slot": "3",
        "type": "t_string_storage"
      },
      {
        "astId": 1038,
        "contract": "project/contracts/TCF_NFTPrice.sol:TCF_NFTPrice",
        "label": "_owner",
        "offset": 0,
        "slot": "4",
        "type": "t_address"
      },
      {
        "astId": 2946,
        "contract": "project/contracts/TCF_NFTPrice.sol:TCF_NFTPrice",
        "label": "_baseURI",
        "offset": 0,
        "slot": "5",
        "type": "t_string_storage"
      },
      {
        "astId": 2950,
        "contract": "project/contracts/TCF_NFTPrice.sol:TCF_NFTPrice",
        "label": "_tokenURIs",
        "offset": 0,
        "slot": "6",
        "type": "t_mapping(t_uint256,t_string_storage)"
      },
      {
        "astId": 1235,
        "contract": "project/contracts/TCF_NFTPrice.sol:TCF_NFTPrice",
        "label": "_paused",
        "offset": 0,
        "slot": "7",
        "type": "t_bool"
      },
      {
        "astId": 2786,
        "contract": "project/contracts/TCF_NFTPrice.sol:TCF_NFTPrice",
        "label": "_totalSupply",
        "offset": 0,
        "slot": "8",
        "type": "t_mapping(t_uint256,t_uint256)"
      },
      {
        "astId": 332,
        "contract": "project/contracts/TCF_NFTPrice.sol:TCF_NFTPrice",
        "label": "supportTokenType",
        "offset": 0,
        "slot": "9",
        "type": "t_mapping(t_address,t_uint8)"
      },
      {
        "astId": 334,
        "contract": "project/contracts/TCF_NFTPrice.sol:TCF_NFTPrice",
        "label": "supportedTokenAmount",
        "offset": 0,
        "slot": "10",
        "type": "t_uint256"
      },
      {
        "astId": 337,
        "contract": "project/contracts/TCF_NFTPrice.sol:TCF_NFTPrice",
        "label": "tokenAddress_array",
        "offset": 0,
        "slot": "11",
        "type": "t_array(t_address)dyn_storage"
      },
      {
        "astId": 339,
        "contract": "project/contracts/TCF_NFTPrice.sol:TCF_NFTPrice",
        "label": "initedTokenAddress",
        "offset": 0,
        "slot": "12",
        "type": "t_uint8"
      },
      {
        "astId": 341,
        "contract": "project/contracts/TCF_NFTPrice.sol:TCF_NFTPrice",
        "label": "NFTPrice_initialized",
        "offset": 1,
        "slot": "12",
        "type": "t_uint8"
      },
      {
        "astId": 379,
        "contract": "project/contracts/TCF_NFTPrice.sol:TCF_NFTPrice",
        "label": "NFTS",
        "offset": 0,
        "slot": "13",
        "type": "t_mapping(t_uint256,t_struct(equities_store)374_storage)"
      }
    ],
    "types": {
      "t_address": {
        "encoding": "inplace",
        "label": "address",
        "numberOfBytes": "20"
      },
      "t_array(t_address)dyn_storage": {
        "base": "t_address",
        "encoding": "dynamic_array",
        "label": "address[]",
        "numberOfBytes": "32"
      },
      "t_bool": {
        "encoding": "inplace",
        "label": "bool",
        "numberOfBytes": "1"
      },
      "t_mapping(t_address,t_bool)": {
        "encoding": "mapping",
        "key": "t_address",
        "label": "mapping(address => bool)",
        "numberOfBytes": "32",
        "value": "t_bool"
      },
      "t_mapping(t_address,t_mapping(t_address,t_bool))": {
        "encoding": "mapping",
        "key": "t_address",
        "label": "mapping(address => mapping(address => bool))",
        "numberOfBytes": "32",
        "value": "t_mapping(t_address,t_bool)"
      },
      "t_mapping(t_address,t_uint256)": {
        "encoding": "mapping",
        "key": "t_address",
        "label": "mapping(address => uint256)",
        "numberOfBytes": "32",
        "value": "t_uint256"
      },
      "t_mapping(t_address,t_uint8)": {
        "encoding": "mapping",
        "key": "t_address",
        "label": "mapping(address => uint8)",
        "numberOfBytes": "32",
        "value": "t_uint8"
      },
      "t_mapping(t_uint256,t_mapping(t_address,t_uint256))": {
        "encoding": "mapping",
        "key": "t_uint256",
        "label": "mapping(uint256 => mapping(address => uint256))",
        "numberOfBytes": "32",
        "value": "t_mapping(t_address,t_uint256)"
      },
      "t_mapping(t_uint256,t_string_storage)": {
        "encoding": "mapping",
        "key": "t_uint256",
        "label": "mapping(uint256 => string)",
        "numberOfBytes": "32",
        "value": "t_string_storage"
      },
      "t_mapping(t_uint256,t_struct(equities_store)374_storage)": {
        "encoding": "mapping",
        "key": "t_uint256",
        "label": "mapping(uint256 => struct TCF_NFTPrice.equities_store)",
        "numberOfBytes": "32",
        "value": "t_struct(equities_store)374_storage"
      },
      "t_mapping(t_uint256,t_uint256)": {
        "encoding": "mapping",
        "key": "t_uint256",
        "label": "mapping(uint256 => uint256)",
        "numberOfBytes": "32",
        "value": "t_uint256"
      },
      "t_string_storage": {
        "encoding": "bytes",
        "label": "string",
        "numberOfBytes": "32"
      },
      "t_struct(equities_store)374_storage": {
        "encoding": "inplace",
        "label": "struct TCF_NFTPrice.equities_store",
        "members": [
          {
            "astId": 369,
            "contract": "project/contracts/TCF_NFTPrice.sol:TCF_NFTPrice",
            "label": "prices",
            "offset": 0,
            "slot": "0",
            "type": "t_mapping(t_address,t_uint256)"
          },
          {
            "astId": 371,
            "contract": "project/contracts/TCF_NFTPrice.sol:TCF_NFTPrice",
            "label": "ratio",
            "offset": 0,
            "slot": "1",
            "type": "t_uint256"
          },
          {
            "astId": 373,
            "contract": "project/contracts/TCF_NFTPrice.sol:TCF_NFTPrice",
            "label": "indate",
            "offset": 0,
            "slot": "2",
            "type": "t_uint256"
          }
        ],
        "numberOfBytes": "96"
      },
      "t_uint256": {
        "encoding": "inplace",
        "label": "uint256",
        "numberOfBytes": "32"
      },
      "t_uint8": {
        "encoding": "inplace",
        "label": "uint8",
        "numberOfBytes": "1"
      }
    }
  },
  "userdoc": {
    "kind": "user",
    "methods": {},
    "version": 1
  },
  "argsData": "0x",
  "transaction": {
    "hash": "0xbbd8b867451f02b1d98c5f7d85f4d9fa298ae76082f2ec8f00786e903a0da71b",
    "nonce": "0x1",
    "origin": "0xf39fd6e51aad88f6f4ce6ab8827279cfffb92266"
  }
}