{
  "address": "0xdc64a140aa3e981100a9beca4e685f962f0cf6c9",
  "abi": [
    {
      "anonymous": false,
      "inputs": [
        {
          "indexed": true,
          "internalType": "address",
          "name": "account",
          "type": "address"
        },
        {
          "indexed": true,
          "internalType": "address",
          "name": "operator",
          "type": "address"
        },
        {
          "indexed": false,
          "internalType": "bool",
          "name": "approved",
          "type": "bool"
        }
      ],
      "name": "ApprovalForAll",
      "type": "event"
    },
    {
      "anonymous": false,
      "inputs": [
        {
          "indexed": true,
          "internalType": "address",
          "name": "node",
          "type": "address"
        },
        {
          "indexed": true,
          "internalType": "address",
          "name": "parent",
          "type": "address"
        },
        {
          "indexed": true,
          "internalType": "address",
          "name": "recommender",
          "type": "address"
        },
        {
          "indexed": false,
          "internalType": "bool",
          "name": "isLeft",
          "type": "bool"
        }
      ],
      "name": "NodeInserted",
      "type": "event"
    },
    {
      "anonymous": false,
      "inputs": [
        {
          "indexed": true,
          "internalType": "address",
          "name": "previousOwner",
          "type": "address"
        },
        {
          "indexed": true,
          "internalType": "address",
          "name": "newOwner",
          "type": "address"
        }
      ],
      "name": "OwnershipTransferred",
      "type": "event"
    },
    {
      "anonymous": false,
      "inputs": [
        {
          "indexed": true,
          "internalType": "address",
          "name": "root",
          "type": "address"
        }
      ],
      "name": "RootInitialized",
      "type": "event"
    },
    {
      "anonymous": false,
      "inputs": [
        {
          "indexed": true,
          "internalType": "address",
          "name": "operator",
          "type": "address"
        },
        {
          "indexed": true,
          "internalType": "address",
          "name": "from",
          "type": "address"
        },
        {
          "indexed": true,
          "internalType": "address",
          "name": "to",
          "type": "address"
        },
        {
          "indexed": false,
          "internalType": "uint256[]",
          "name": "ids",
          "type": "uint256[]"
        },
        {
          "indexed": false,
          "internalType": "uint256[]",
          "name": "values",
          "type": "uint256[]"
        }
      ],
      "name": "TransferBatch",
      "type": "event"
    },
    {
      "anonymous": false,
      "inputs": [
        {
          "indexed": true,
          "internalType": "address",
          "name": "operator",
          "type": "address"
        },
        {
          "indexed": true,
          "internalType": "address",
          "name": "from",
          "type": "address"
        },
        {
          "indexed": true,
          "internalType": "address",
          "name": "to",
          "type": "address"
        },
        {
          "indexed": false,
          "internalType": "uint256",
          "name": "id",
          "type": "uint256"
        },
        {
          "indexed": false,
          "internalType": "uint256",
          "name": "value",
          "type": "uint256"
        }
      ],
      "name": "TransferSingle",
      "type": "event"
    },
    {
      "anonymous": false,
      "inputs": [
        {
          "indexed": false,
          "internalType": "string",
          "name": "value",
          "type": "string"
        },
        {
          "indexed": true,
          "internalType": "uint256",
          "name": "id",
          "type": "uint256"
        }
      ],
      "name": "URI",
      "type": "event"
    },
    {
      "inputs": [],
      "name": "NFTPrice_initialized",
      "outputs": [
        {
          "internalType": "uint8",
          "name": "",
          "type": "uint8"
        }
      ],
      "stateMutability": "view",
      "type": "function"
    },
    {
      "inputs": [
        {
          "internalType": "uint256",
          "name": "",
          "type": "uint256"
        }
      ],
      "name": "NFTS",
      "outputs": [
        {
          "internalType": "uint8",
          "name": "ratio",
          "type": "uint8"
        },
        {
          "internalType": "uint32",
          "name": "indate",
          "type": "uint32"
        }
      ],
      "stateMutability": "view",
      "type": "function"
    },
    {
      "inputs": [
        {
          "internalType": "uint256",
          "name": "tokenId",
          "type": "uint256"
        },
        {
          "internalType": "uint256",
          "name": "editionId",
          "type": "uint256"
        }
      ],
      "name": "_uri",
      "outputs": [
        {
          "internalType": "string",
          "name": "",
          "type": "string"
        }
      ],
      "stateMutability": "view",
      "type": "function"
    },
    {
      "inputs": [
        {
          "internalType": "address[]",
          "name": "tokenAddresses",
          "type": "address[]"
        }
      ],
      "name": "addSupportedToken",
      "outputs": [],
      "stateMutability": "nonpayable",
      "type": "function"
    },
    {
      "inputs": [
        {
          "internalType": "address",
          "name": "account",
          "type": "address"
        },
        {
          "internalType": "uint256",
          "name": "id",
          "type": "uint256"
        }
      ],
      "name": "balanceOf",
      "outputs": [
        {
          "internalType": "uint256",
          "name": "",
          "type": "uint256"
        }
      ],
      "stateMutability": "view",
      "type": "function"
    },
    {
      "inputs": [
        {
          "internalType": "address[]",
          "name": "accounts",
          "type": "address[]"
        },
        {
          "internalType": "uint256[]",
          "name": "ids",
          "type": "uint256[]"
        }
      ],
      "name": "balanceOfBatch",
      "outputs": [
        {
          "internalType": "uint256[]",
          "name": "",
          "type": "uint256[]"
        }
      ],
      "stateMutability": "view",
      "type": "function"
    },
    {
      "inputs": [
        {
          "internalType": "address",
          "name": "account",
          "type": "address"
        },
        {
          "internalType": "uint256",
          "name": "id",
          "type": "uint256"
        },
        {
          "internalType": "uint256",
          "name": "buyAmount",
          "type": "uint256"
        }
      ],
      "name": "buyNFTByTC",
      "outputs": [],
      "stateMutability": "payable",
      "type": "function"
    },
    {
      "inputs": [
        {
          "internalType": "uint256",
          "name": "tokenID",
          "type": "uint256"
        },
        {
          "internalType": "address",
          "name": "tokenAddress",
          "type": "address"
        },
        {
          "internalType": "uint256",
          "name": "amount",
          "type": "uint256"
        }
      ],
      "name": "changeNFTPrice",
      "outputs": [],
      "stateMutability": "nonpayable",
      "type": "function"
    },
    {
      "inputs": [
        {
          "components": [
            {
              "internalType": "address",
              "name": "tokenAddress",
              "type": "address"
            },
            {
              "internalType": "uint256",
              "name": "amount",
              "type": "uint256"
            }
          ],
          "internalType": "struct TCF_NFTPrice.priceTypeAndAomut[][6]",
          "name": "prices",
          "type": "tuple[][6]"
        }
      ],
      "name": "checkInitPricesParams",
      "outputs": [
        {
          "internalType": "string",
          "name": "",
          "type": "string"
        }
      ],
      "stateMutability": "view",
      "type": "function"
    },
    {
      "inputs": [
        {
          "internalType": "address[]",
          "name": "_tokenAddresses",
          "type": "address[]"
        }
      ],
      "name": "checkTokenAddressesCode",
      "outputs": [
        {
          "internalType": "string",
          "name": "",
          "type": "string"
        }
      ],
      "stateMutability": "view",
      "type": "function"
    },
    {
      "inputs": [
        {
          "internalType": "address",
          "name": "oldTokenAddress",
          "type": "address"
        }
      ],
      "name": "deleteSupportedToken",
      "outputs": [],
      "stateMutability": "nonpayable",
      "type": "function"
    },
    {
      "inputs": [
        {
          "internalType": "address",
          "name": "node",
          "type": "address"
        }
      ],
      "name": "getChildren",
      "outputs": [
        {
          "internalType": "address",
          "name": "left",
          "type": "address"
        },
        {
          "internalType": "address",
          "name": "right",
          "type": "address"
        }
      ],
      "stateMutability": "view",
      "type": "function"
    },
    {
      "inputs": [
        {
          "internalType": "uint256",
          "name": "tokenID",
          "type": "uint256"
        },
        {
          "internalType": "address",
          "name": "_tokenAddress",
          "type": "address"
        }
      ],
      "name": "getNFTPrice",
      "outputs": [
        {
          "internalType": "string",
          "name": "",
          "type": "string"
        },
        {
          "internalType": "uint256",
          "name": "",
          "type": "uint256"
        }
      ],
      "stateMutability": "view",
      "type": "function"
    },
    {
      "inputs": [
        {
          "internalType": "address",
          "name": "node",
          "type": "address"
        }
      ],
      "name": "getNodeBalance",
      "outputs": [
        {
          "internalType": "uint256",
          "name": "",
          "type": "uint256"
        }
      ],
      "stateMutability": "view",
      "type": "function"
    },
    {
      "inputs": [
        {
          "internalType": "address",
          "name": "node",
          "type": "address"
        }
      ],
      "name": "getParent",
      "outputs": [
        {
          "internalType": "address",
          "name": "",
          "type": "address"
        }
      ],
      "stateMutability": "view",
      "type": "function"
    },
    {
      "inputs": [
        {
          "internalType": "address",
          "name": "recommender",
          "type": "address"
        }
      ],
      "name": "getRecommendedParent",
      "outputs": [
        {
          "internalType": "address",
          "name": "parent",
          "type": "address"
        },
        {
          "internalType": "bool",
          "name": "isLeftBranch",
          "type": "bool"
        }
      ],
      "stateMutability": "view",
      "type": "function"
    },
    {
      "inputs": [
        {
          "internalType": "address",
          "name": "node",
          "type": "address"
        }
      ],
      "name": "getRecommender",
      "outputs": [
        {
          "internalType": "address",
          "name": "",
          "type": "address"
        }
      ],
      "stateMutability": "view",
      "type": "function"
    },
    {
      "inputs": [
        {
          "internalType": "address",
          "name": "owner",
          "type": "address"
        }
      ],
      "name": "getTotalNFTWorth",
      "outputs": [
        {
          "internalType": "uint256",
          "name": "",
          "type": "uint256"
        }
      ],
      "stateMutability": "view",
      "type": "function"
    },
    {
      "inputs": [
        {
          "components": [
            {
              "internalType": "address",
              "name": "tokenAddress",
              "type": "address"
            },
            {
              "internalType": "uint256",
              "name": "amount",
              "type": "uint256"
            }
          ],
          "internalType": "struct TCF_NFTPrice.priceTypeAndAomut[][6]",
          "name": "prices",
          "type": "tuple[][6]"
        }
      ],
      "name": "initPrice",
      "outputs": [],
      "stateMutability": "nonpayable",
      "type": "function"
    },
    {
      "inputs": [
        {
          "internalType": "address",
          "name": "rootAddress",
          "type": "address"
        }
      ],
      "name": "initRoot",
      "outputs": [],
      "stateMutability": "nonpayable",
      "type": "function"
    },
    {
      "inputs": [
        {
          "internalType": "address",
          "name": "node",
          "type": "address"
        },
        {
          "internalType": "address",
          "name": "parent",
          "type": "address"
        },
        {
          "internalType": "address",
          "name": "recommender",
          "type": "address"
        },
        {
          "internalType": "bool",
          "name": "isLeft",
          "type": "bool"
        }
      ],
      "name": "insert",
      "outputs": [],
      "stateMutability": "nonpayable",
      "type": "function"
    },
    {
      "inputs": [
        {
          "internalType": "address",
          "name": "account",
          "type": "address"
        },
        {
          "internalType": "address",
          "name": "operator",
          "type": "address"
        }
      ],
      "name": "isApprovedForAll",
      "outputs": [
        {
          "internalType": "bool",
          "name": "",
          "type": "bool"
        }
      ],
      "stateMutability": "view",
      "type": "function"
    },
    {
      "inputs": [
        {
          "internalType": "address",
          "name": "node",
          "type": "address"
        }
      ],
      "name": "isExist",
      "outputs": [
        {
          "internalType": "bool",
          "name": "",
          "type": "bool"
        }
      ],
      "stateMutability": "view",
      "type": "function"
    },
    {
      "inputs": [
        {
          "internalType": "address",
          "name": "token",
          "type": "address"
        }
      ],
      "name": "isSupported",
      "outputs": [
        {
          "internalType": "uint8",
          "name": "",
          "type": "uint8"
        }
      ],
      "stateMutability": "view",
      "type": "function"
    },
    {
      "inputs": [
        {
          "internalType": "address",
          "name": "node",
          "type": "address"
        }
      ],
      "name": "minChildSubtreeBalance",
      "outputs": [
        {
          "internalType": "uint256",
          "name": "",
          "type": "uint256"
        }
      ],
      "stateMutability": "view",
      "type": "function"
    },
    {
      "inputs": [
        {
          "internalType": "address",
          "name": "",
          "type": "address"
        },
        {
          "internalType": "address",
          "name": "from",
          "type": "address"
        },
        {
          "internalType": "uint256",
          "name": "amount",
          "type": "uint256"
        },
        {
          "internalType": "bytes",
          "name": "data",
          "type": "bytes"
        }
      ],
      "name": "onTransferReceived",
      "outputs": [
        {
          "internalType": "bytes4",
          "name": "",
          "type": "bytes4"
        }
      ],
      "stateMutability": "nonpayable",
      "type": "function"
    },
    {
      "inputs": [],
      "name": "owner",
      "outputs": [
        {
          "internalType": "address",
          "name": "",
          "type": "address"
        }
      ],
      "stateMutability": "view",
      "type": "function"
    },
    {
      "inputs": [
        {
          "internalType": "uint256",
          "name": "tokenId",
          "type": "uint256"
        },
        {
          "internalType": "uint256",
          "name": "editionId",
          "type": "uint256"
        }
      ],
      "name": "ownerOf",
      "outputs": [
        {
          "internalType": "address",
          "name": "",
          "type": "address"
        }
      ],
      "stateMutability": "view",
      "type": "function"
    },
    {
      "inputs": [],
      "name": "renounceOwnership",
      "outputs": [],
      "stateMutability": "nonpayable",
      "type": "function"
    },
    {
      "inputs": [],
      "name": "root",
      "outputs": [
        {
          "internalType": "address",
          "name": "",
          "type": "address"
        }
      ],
      "stateMutability": "view",
      "type": "function"
    },
    {
      "inputs": [],
      "name": "rootInitialized",
      "outputs": [
        {
          "internalType": "bool",
          "name": "",
          "type": "bool"
        }
      ],
      "stateMutability": "view",
      "type": "function"
    },
    {
      "inputs": [
        {
          "internalType": "address",
          "name": "from",
          "type": "address"
        },
        {
          "internalType": "address",
          "name": "to",
          "type": "address"
        },
        {
          "internalType": "uint256[]",
          "name": "ids",
          "type": "uint256[]"
        },
        {
          "internalType": "uint256[]",
          "name": "amounts",
          "type": "uint256[]"
        },
        {
          "internalType": "bytes",
          "name": "data",
          "type": "bytes"
        }
      ],
      "name": "safeBatchTransferFrom",
      "outputs": [],
      "stateMutability": "nonpayable",
      "type": "function"
    },
    {
      "inputs": [
        {
          "internalType": "address",
          "name": "from",
          "type": "address"
        },
        {
          "internalType": "address",
          "name": "to",
          "type": "address"
        },
        {
          "internalType": "uint256",
          "name": "id",
          "type": "uint256"
        },
        {
          "internalType": "uint256",
          "name": "amount",
          "type": "uint256"
        },
        {
          "internalType": "bytes",
          "name": "data",
          "type": "bytes"
        }
      ],
      "name": "safeTransferFrom",
      "outputs": [],
      "stateMutability": "nonpayable",
      "type": "function"
    },
    {
      "inputs": [
        {
          "internalType": "address",
          "name": "operator",
          "type": "address"
        },
        {
          "internalType": "bool",
          "name": "approved",
          "type": "bool"
        }
      ],
      "name": "setApprovalForAll",
      "outputs": [],
      "stateMutability": "nonpayable",
      "type": "function"
    },
    {
      "inputs": [
        {
          "internalType": "address",
          "name": "node",
          "type": "address"
        }
      ],
      "name": "subtreeBalance",
      "outputs": [
        {
          "internalType": "uint256",
          "name": "",
          "type": "uint256"
        }
      ],
      "stateMutability": "view",
      "type": "function"
    },
    {
      "inputs": [],
      "name": "supportedTokenAmount",
      "outputs": [
        {
          "internalType": "uint256",
          "name": "",
          "type": "uint256"
        }
      ],
      "stateMutability": "view",
      "type": "function"
    },
    {
      "inputs": [
        {
          "internalType": "bytes4",
          "name": "interfaceId",
          "type": "bytes4"
        }
      ],
      "name": "supportsInterface",
      "outputs": [
        {
          "internalType": "bool",
          "name": "",
          "type": "bool"
        }
      ],
      "stateMutability": "view",
      "type": "function"
    },
    {
      "inputs": [
        {
          "internalType": "uint256",
          "name": "tokenId",
          "type": "uint256"
        },
        {
          "internalType": "address",
          "name": "account",
          "type": "address"
        },
        {
          "internalType": "uint256",
          "name": "editionId",
          "type": "uint256"
        }
      ],
      "name": "test_MintTimes",
      "outputs": [
        {
          "internalType": "uint256",
          "name": "",
          "type": "uint256"
        }
      ],
      "stateMutability": "view",
      "type": "function"
    },
    {
      "inputs": [
        {
          "internalType": "address",
          "name": "account",
          "type": "address"
        },
        {
          "internalType": "uint256",
          "name": "tokenId",
          "type": "uint256"
        }
      ],
      "name": "test_OwnedTokenIds",
      "outputs": [
        {
          "internalType": "uint256[]",
          "name": "",
          "type": "uint256[]"
        }
      ],
      "stateMutability": "view",
      "type": "function"
    },
    {
      "inputs": [
        {
          "internalType": "address",
          "name": "from",
          "type": "address"
        },
        {
          "internalType": "address",
          "name": "to",
          "type": "address"
        },
        {
          "internalType": "uint256",
          "name": "id",
          "type": "uint256"
        },
        {
          "internalType": "uint256[]",
          "name": "indexes",
          "type": "uint256[]"
        },
        {
          "internalType": "bytes",
          "name": "data",
          "type": "bytes"
        }
      ],
      "name": "test_SafeTransferFrom",
      "outputs": [],
      "stateMutability": "nonpayable",
      "type": "function"
    },
    {
      "inputs": [
        {
          "internalType": "uint256",
          "name": "",
          "type": "uint256"
        }
      ],
      "name": "tokenAddress_array",
      "outputs": [
        {
          "internalType": "address",
          "name": "",
          "type": "address"
        }
      ],
      "stateMutability": "view",
      "type": "function"
    },
    {
      "inputs": [],
      "name": "totalTreeBalance",
      "outputs": [
        {
          "internalType": "uint256",
          "name": "",
          "type": "uint256"
        }
      ],
      "stateMutability": "view",
      "type": "function"
    },
    {
      "inputs": [
        {
          "internalType": "address",
          "name": "newOwner",
          "type": "address"
        }
      ],
      "name": "transferOwnership",
      "outputs": [],
      "stateMutability": "nonpayable",
      "type": "function"
    },
    {
      "inputs": [
        {
          "internalType": "uint256",
          "name": "tokenId",
          "type": "uint256"
        }
      ],
      "name": "uri",
      "outputs": [
        {
          "internalType": "string",
          "name": "",
          "type": "string"
        }
      ],
      "stateMutability": "view",
      "type": "function"
    },
    {
      "inputs": [
        {
          "internalType": "address",
          "name": "token",
          "type": "address"
        },
        {
          "internalType": "uint256",
          "name": "amount",
          "type": "uint256"
        }
      ],
      "name": "withdraw",
      "outputs": [],
      "stateMutability": "nonpayable",
      "type": "function"
    }
  ],
  "contractName": "TCF_NFT",
  "sourceName": "contracts/TCF_NFT.sol",
  "bytecode": "0x60806040526019805460ff191690553480156200001b57600080fd5b50620000306200002a620000ae565b620000b2565b600a6020527fbbc70db1b6c7afd11e79c0fb0051300458f1a3acb8ee9789d9b6b26c61ad9bc7805460ff19166001908117909155600c805480830182556000919091527fdf6966c971051c3d54ec59162606531493a51404a002842f56009d7e5cf4a8c70180546001600160a01b03191682179055600b5562000104565b3390565b600980546001600160a01b038381166001600160a01b0319831681179093556040519116919082907f8be0079c531659141344cd1fd0a4f28419497f9722a3daafe3b4186f6b6457e090600090a35050565b614ded80620001146000396000f3fe6080604052600436106102705760003560e01c8063715018a61161014f578063c9b6b485116100c1578063eb58f0b91161007a578063eb58f0b9146107a4578063ebf0c717146107c4578063f1adfd19146107d9578063f242432a146107f9578063f2fde38b14610814578063f3fef3a31461083457610270565b8063c9b6b485146106d6578063d9dad80d14610704578063db891c1014610724578063e054099714610744578063e5030adc14610764578063e985e9c51461078457610270565b806392aeff481161011357806392aeff48146106215780639f2980db14610641578063a15113d114610661578063a22cb46514610676578063a940592314610696578063a9fa729a146106b657610270565b8063715018a61461057c5780637c8e2da71461059157806386ff9113146105b157806388a7ca5c146105df5780638da5cb5b1461060c57610270565b80632eb2c2d6116101e85780634e1273f4116101ac5780634e1273f4146104b95780634f129c53146104e657806355826313146105065780635c92dbd614610526578063651583ee146105395780636999fa451461054e57610270565b80632eb2c2d614610407578063333cc85d146104295780633a4d2d3a146104495780633f257599146104695780634c8cb6721461049757610270565b80630e89341c1161023a5780630e89341c14610345578063153154fd1461036557806319d62e57146103925780631f3fd618146103b257806323361283146103d25780632653335a146103e757610270565b806213eb4b14610275578062fdd58e146102ab57806301ffc9a7146102d8578063027f672d146102f857806307f241ce14610325575b600080fd5b34801561028157600080fd5b50610295610290366004613d15565b610854565b6040516102a291906144fe565b60405180910390f35b3480156102b757600080fd5b506102cb6102c6366004614005565b610880565b6040516102a29190614add565b3480156102e457600080fd5b506102956102f3366004614131565b610895565b34801561030457600080fd5b50610318610313366004614292565b6108ba565b6040516102a2919061451e565b34801561033157600080fd5b506102cb610340366004613d15565b6109c1565b34801561035157600080fd5b50610318610360366004614224565b610a0c565b34801561037157600080fd5b50610385610380366004613d15565b610a17565b6040516102a2919061442c565b34801561039e57600080fd5b506103856103ad366004614224565b610a7b565b3480156103be57600080fd5b506103186103cd3660046140fa565b610aa5565b3480156103de57600080fd5b506102cb610ce7565b3480156103f357600080fd5b506102cb610402366004613d15565b610ced565b34801561041357600080fd5b50610427610422366004613db4565b610df3565b005b34801561043557600080fd5b50610427610444366004613d15565b610dfa565b34801561045557600080fd5b506104276104643660046140fa565b61104b565b34801561047557600080fd5b50610489610484366004613d15565b611360565b6040516102a292919061449f565b3480156104a357600080fd5b506104ac6114af565b6040516102a29190614af4565b3480156104c557600080fd5b506104d96104d436600461409a565b6114bd565b6040516102a291906144ba565b3480156104f257600080fd5b506104ac610501366004613d15565b6114c5565b34801561051257600080fd5b5061042761052136600461425e565b6114f9565b61042761053436600461402e565b61156c565b34801561054557600080fd5b5061029561171f565b34801561055a57600080fd5b5061056e610569366004613d15565b61172f565b6040516102a2929190614440565b34801561058857600080fd5b506104276117a2565b34801561059d57600080fd5b506102cb6105ac366004613d15565b6117b6565b3480156105bd57600080fd5b506105d16105cc36600461423c565b61182d565b6040516102a2929190614531565b3480156105eb57600080fd5b506105ff6105fa366004613f15565b61189f565b6040516102a29190614509565b34801561061857600080fd5b50610385611b2d565b34801561062d57600080fd5b5061042761063c366004613d15565b611b3d565b34801561064d57600080fd5b5061042761065c366004613d61565b611c29565b34801561066d57600080fd5b506102cb611f25565b34801561068257600080fd5b50610427610691366004613fdc565b611f6b565b3480156106a257600080fd5b506103856106b1366004613d15565b611f81565b3480156106c257600080fd5b506102cb6106d136600461425e565b611fe2565b3480156106e257600080fd5b506106f66106f1366004614224565b61205d565b6040516102a2929190614b02565b34801561071057600080fd5b5061038561071f366004614292565b612082565b34801561073057600080fd5b5061042761073f366004614060565b6120f4565b34801561075057600080fd5b5061031861075f366004614060565b61222b565b34801561077057600080fd5b506102cb61077f366004613d15565b612236565b34801561079057600080fd5b5061029561079f366004613d2f565b61240e565b3480156107b057600080fd5b506104d96107bf366004614005565b61243c565b3480156107d057600080fd5b506103856124b1565b3480156107e557600080fd5b506104276107f4366004613e59565b6124c0565b34801561080557600080fd5b50610427610422366004613f7a565b34801561082057600080fd5b5061042761082f366004613d15565b612520565b34801561084057600080fd5b5061042761084f366004614005565b611f7d565b6001600160a01b038116600090815260126020526040902060030154600160a01b900460ff165b919050565b600061088c838361255a565b90505b92915050565b60006001600160e01b03198216632229f29760e21b148061088f575061088f826125f0565b6060600683106040518060400160405280600d81526020016c544f4b454e49445f52414e474560981b8152509061090d5760405162461bcd60e51b8152600401610904919061451e565b60405180910390fd5b50600061091a8484612082565b6001600160a01b03161415604051806040016040528060118152602001701253959053125117d15112551253d39251607a1b8152509061096d5760405162461bcd60e51b8152600401610904919061451e565b506013836006811061098f57634e487b7160e01b600052603260045260246000fd5b0161099983612630565b6040516020016109aa929190614387565b604051602081830303815290604052905092915050565b6001600160a01b038116600090815260126020526040812060030154600160a01b900460ff16610a035760405162461bcd60e51b815260040161090490614720565b61088f82612236565b606061088f82612758565b6001600160a01b038116600090815260126020526040812060030154600160a01b900460ff16610a595760405162461bcd60e51b815260040161090490614720565b506001600160a01b039081166000908152601260205260409020600301541690565b600c8181548110610a8b57600080fd5b6000918252602090912001546001600160a01b0316905081565b606060005b6006811015610cd157600b54838260068110610ad657634e487b7160e01b600052603260045260246000fd5b602002810190610ae69190614b1b565b905014610b1557505060408051808201909152600a815269282924a1a2a9afa622a760b11b602082015261087b565b6000838260068110610b3757634e487b7160e01b600052603260045260246000fd5b602002810190610b479190614b1b565b808060200260200160405190810160405280939291908181526020016000905b82821015610b9357610b84604083028601368190038101906141e6565b81526020019060010190610b67565b5050505050905060005b600b54811015610cbe5760006001600160a01b0316828281518110610bd257634e487b7160e01b600052603260045260246000fd5b6020026020010151600001516001600160a01b031614158015610c415750600a6000838381518110610c1457634e487b7160e01b600052603260045260246000fd5b602090810291909101810151516001600160a01b031682528101919091526040016000205460ff16600114155b15610cae57610ca4828281518110610c6957634e487b7160e01b600052603260045260246000fd5b602002602001015160000151604051806040016040528060118152602001701513d2d15397d55394d5541413d4951151607a1b81525061276b565b935050505061087b565b610cb781614c88565b9050610b9d565b505080610cca90614c88565b9050610aaa565b5050604080516020810190915260008152919050565b600b5481565b601154600090600160a01b900460ff16610d195760405162461bcd60e51b8152600401610904906145df565b6001600160a01b038216600090815260126020526040902060030154600160a01b900460ff16610d5b5760405162461bcd60e51b815260040161090490614720565b6001600160a01b038083166000908152601260205260408120600181015490921615610d9d576001820154610d98906001600160a01b0316612788565b610da0565b60005b60028301549091506000906001600160a01b031615610dd5576002830154610dd0906001600160a01b0316612788565b610dd8565b60005b905080821115610de85780610dea565b815b95945050505050565b5050505050565b610e02612827565b60408051808201909152601081526f13905515549157d513d2d15397d1115360821b60208201526001600160a01b038216610e505760405162461bcd60e51b8152600401610904919061451e565b506001600160a01b0381166000908152600a602090815260409182902054825180840190935260118352701513d2d15397d55394d5541413d4951151607a1b9183019190915260ff1660011490610ea890839061276b565b90610ec65760405162461bcd60e51b8152600401610904919061451e565b506001600160a01b0381166000908152600a60205260408120805460ff191690555b6001600b54610ef79190614c02565b81101561102f57816001600160a01b0316600c8281548110610f2957634e487b7160e01b600052603260045260246000fd5b6000918252602090912001546001600160a01b0316141561101d57600c6002600b54610f559190614c02565b81548110610f7357634e487b7160e01b600052603260045260246000fd5b600091825260209091200154600c80546001600160a01b039092169183908110610fad57634e487b7160e01b600052603260045260246000fd5b9060005260206000200160006101000a8154816001600160a01b0302191690836001600160a01b03160217905550600c805480610ffa57634e487b7160e01b600052603160045260246000fd5b600082815260209020810160001990810180546001600160a01b03191690550190555b8061102781614c88565b915050610ee8565b506001600b60008282546110439190614c02565b909155505050565b611053612827565b600d5460408051808201909152601281527114149250d154d7d25392551250531256915160721b602082015290610100900460ff16156110a65760405162461bcd60e51b8152600401610904919061451e565b5060006110b282610aa5565b905080516000146110d7578060405162461bcd60e51b8152600401610904919061451e565b6040805160c0808201835262ed4e008252630107ac0060208084019190915263013c68008385015263017124006060808501919091526301a5e0006080808601919091526301da9c0060a0808701919091528651948501875260288552603293850193909352603c95840195909552605090830152605a9382019390935260649281019290925290600061116b8580614b1b565b9050905060005b60068110156113495783816006811061119b57634e487b7160e01b600052603260045260246000fd5b6020020151600e600083815260200190815260200160002060010160016101000a81548163ffffffff021916908363ffffffff1602179055508281600681106111f457634e487b7160e01b600052603260045260246000fd5b602090810291909101516000838152600e90925260408220600101805460ff191660ff9092169190911790555b8281101561133857600087836006811061124b57634e487b7160e01b600052603260045260246000fd5b60200281019061125b9190614b1b565b8381811061127957634e487b7160e01b600052603260045260246000fd5b61128f9260206040909202019081019150613d15565b90506001600160a01b0381166112a3575060015b8783600681106112c357634e487b7160e01b600052603260045260246000fd5b6020028101906112d39190614b1b565b838181106112f157634e487b7160e01b600052603260045260246000fd5b6000868152600e602090815260408083206001600160a01b03979097168352958152908590209190940292909201909201359055508061133081614c88565b915050611221565b5061134281614c88565b9050611172565b5050600d805461ff00191661010017905550505050565b6011546000908190600160a01b900460ff1661138e5760405162461bcd60e51b8152600401610904906145df565b6001600160a01b038316600090815260126020526040902060030154600160a01b900460ff166113d05760405162461bcd60e51b8152600401610904906148ea565b825b6001600160a01b03808216600090815260126020526040812060018101549092161561141457600182015461140f906001600160a01b0316612788565b611417565b60005b60028301549091506000906001600160a01b03161561144c576002830154611447906001600160a01b0316612788565b61144f565b60005b90508082111560008161146f5760028501546001600160a01b031661147e565b60018501546001600160a01b03165b90506001600160a01b03811661149e57509395509293506114aa92505050565b94506113d29350505050565b915091565b600d54610100900460ff1681565b606092915050565b60006001600160a01b0382166114da57600191505b506001600160a01b03166000908152600a602052604090205460ff1690565b611501612827565b600061150d8484612866565b90508051600014611532578060405162461bcd60e51b8152600401610904919061451e565b6001600160a01b03831661154557600192505b506000928352600e602090815260408085206001600160a01b039094168552929052912055565b6011546040805180820190915260148152731493d3d517d393d517d25392551250531256915160621b602082015290600160a01b900460ff166115c25760405162461bcd60e51b8152600401610904919061451e565b506115cc83610854565b6040518060400160405280600f81526020016e4e4f44455f4e4f545f45584953545360881b815250906116125760405162461bcd60e51b8152600401610904919061451e565b50600d5460408051808201909152601681527514149250d154d7d393d517d25392551250531256915160521b60208201529060ff6101009091041660011461166d5760405162461bcd60e51b8152600401610904919061451e565b5060008061167c84600061182d565b91509150815160001482906116a45760405162461bcd60e51b8152600401610904919061451e565b506116af8382614be3565b341480156116bd5750600083115b6040518060400160405280600f81526020016e494e434f52524543545f46554e445360881b815250906117035760405162461bcd60e51b8152600401610904919061451e565b50610df385858560405180602001604052806000815250612968565b601154600160a01b900460ff1681565b6001600160a01b0381166000908152601260205260408120600301548190600160a01b900460ff166117735760405162461bcd60e51b815260040161090490614720565b50506001600160a01b039081166000908152601260205260409020600181015460029091015490821692911690565b6117aa612827565b6117b4600061297a565b565b601154600090600160a01b900460ff166117e25760405162461bcd60e51b8152600401610904906145df565b6001600160a01b038216600090815260126020526040902060030154600160a01b900460ff166118245760405162461bcd60e51b815260040161090490614720565b61088f82612788565b606060008061183c8585612866565b9050805160001461185257915060009050611898565b6001600160a01b03841661186557600193505b5050506000828152600e602090815260408083206001600160a01b03851684528252808320548151928301909152918152905b9250929050565b6011546040805180820190915260148152731493d3d517d393d517d25392551250531256915160621b6020820152600091600160a01b900460ff166118f75760405162461bcd60e51b8152600401610904919061451e565b5061190184610854565b6040518060400160405280600f81526020016e4e4f44455f4e4f545f45584953545360881b815250906119475760405162461bcd60e51b8152600401610904919061451e565b50600d5460408051808201909152601681527514149250d154d7d393d517d25392551250531256915160521b60208201529060ff610100909104166001146119a25760405162461bcd60e51b8152600401610904919061451e565b50336000818152600a602090815260409182902054825180840190935260118352701513d2d15397d55394d5541413d4951151607a1b9183019190915260ff16600114611a025760405162461bcd60e51b8152600401610904919061451e565b5060008084806020019051810190611a1a91906142b3565b91509150600682106040518060400160405280600d81526020016c544f4b454e49445f52414e474560981b81525090611a665760405162461bcd60e51b8152600401610904919061451e565b50600080611a74848661182d565b9150915081516000148290611a9c5760405162461bcd60e51b8152600401610904919061451e565b50611aa78382614be3565b88148015611ab55750600083115b6040518060400160405280600f81526020016e494e434f52524543545f46554e445360881b81525090611afb5760405162461bcd60e51b8152600401610904919061451e565b50611b1789858560405180602001604052806000815250612968565b50632229f29760e21b9998505050505050505050565b6009546001600160a01b03165b90565b611b45612827565b601154600160a01b900460ff1615611b6f5760405162461bcd60e51b81526004016109049061459b565b6001600160a01b038116611b955760405162461bcd60e51b8152600401610904906147a1565b601180546001600160a01b0383166001600160a01b031960ff60a01b19928316600160a01b9081178216831790945560008281526012602052604080822060038101805482548616835560018301805487169055600283018054871690559096169096179092169093555190917fbeec1fc786857549cbe9ae8717fa0fbdea9bb7386027cbad8197404a3c94421091a25050565b601154600160a01b900460ff16611c525760405162461bcd60e51b8152600401610904906145df565b6001600160a01b03841615801590611c7257506001600160a01b03831615155b8015611c8657506001600160a01b03821615155b611ca25760405162461bcd60e51b8152600401610904906147a1565b6001600160a01b038416600090815260126020526040902060030154600160a01b900460ff1615611ce55760405162461bcd60e51b8152600401610904906149c6565b6001600160a01b038316600090815260126020526040902060030154600160a01b900460ff16611d275760405162461bcd60e51b815260040161090490614656565b6001600160a01b038216600090815260126020526040902060030154600160a01b900460ff16611d695760405162461bcd60e51b8152600401610904906148ea565b611d7382846129cc565b611d8f5760405162461bcd60e51b815260040161090490614930565b6001600160a01b03808416600090815260126020526040902060018101549091161580611dc7575060028101546001600160a01b0316155b611de35760405162461bcd60e51b815260040161090490614a92565b8115611e365760018101546001600160a01b031615611e145760405162461bcd60e51b815260040161090490614614565b6001810180546001600160a01b0319166001600160a01b038716179055611e7f565b60028101546001600160a01b031615611e615760405162461bcd60e51b8152600401610904906146dd565b6002810180546001600160a01b0319166001600160a01b0387161790555b6001600160a01b038086166000818152601260205260409081902060038101805482548a87166001600160a01b0319918216811785556001850180548316905560028501805483169055968a1660ff60a01b19909216600160a01b17168117909155915190939192907fb7de7526072e4403cbc0296462672a10ed96d94c4169dc8b84b07515e949013d90611f159088906144fe565b60405180910390a4505050505050565b601154600090600160a01b900460ff16611f515760405162461bcd60e51b8152600401610904906145df565b601154611f66906001600160a01b0316612788565b905090565b611f7d611f76612a2d565b8383612a31565b5050565b6001600160a01b038116600090815260126020526040812060030154600160a01b900460ff16611fc35760405162461bcd60e51b815260040161090490614720565b506001600160a01b039081166000908152601260205260409020541690565b6000600684106040518060400160405280600d81526020016c544f4b454e49445f52414e474560981b8152509061202c5760405162461bcd60e51b8152600401610904919061451e565b505060009283526010602090815260408085206001600160a01b039490941685529281528284209184525290205490565b600e6020526000908152604090206001015460ff811690610100900463ffffffff1682565b6000600683106040518060400160405280600d81526020016c544f4b454e49445f52414e474560981b815250906120cc5760405162461bcd60e51b8152600401610904919061451e565b505060009182526006602090815260408084209284529190529020546001600160a01b031690565b6120fc612827565b600061210782612ad4565b9050805160001461212c578060405162461bcd60e51b8152600401610904919061451e565b815160005b8181101561220e576001600a600086848151811061215f57634e487b7160e01b600052603260045260246000fd5b60200260200101516001600160a01b03166001600160a01b0316815260200190815260200160002060006101000a81548160ff021916908360ff160217905550600c8482815181106121c157634e487b7160e01b600052603260045260246000fd5b60209081029190910181015182546001810184556000938452919092200180546001600160a01b0319166001600160a01b039092169190911790558061220681614c88565b915050612131565b5080600b60008282546122219190614bb7565b9091555050505050565b606061088f82612ad4565b60408051808201909152600c81526b5a45524f5f4144445245535360a01b60208201526000906001600160a01b0383166122835760405162461bcd60e51b8152600401610904919061451e565b506000805b6006811015612407576001600160a01b0384166000908152600f602090815260408083208484528252808320805482518185028101850190935280835291929091908301828280156122f957602002820191906000526020600020905b8154815260200190600101908083116122e5575b5050505050905060005b81518110156123f257600082828151811061232e57634e487b7160e01b600052603260045260246000fd5b60209081029190910181015160008681526010835260408082206001600160a01b038c1683528452808220838352845280822054888352600e909452902060010154909250610100900463ffffffff166123888183614bb7565b421115612397575050506123e0565b6000806123a588600061182d565b91509150815160001482906123cd5760405162461bcd60e51b8152600401610904919061451e565b506123d8818a614bb7565b985050505050505b806123ea81614c88565b915050612303565b505080806123ff90614c88565b915050612288565b5092915050565b6001600160a01b03918216600090815260086020908152604080832093909416825291909152205460ff1690565b6001600160a01b0382166000908152600f602090815260408083208484528252918290208054835181840281018401909452808452606093928301828280156124a457602002820191906000526020600020905b815481526020019060010190808311612490575b5050505050905092915050565b6011546001600160a01b031681565b6124c8612a2d565b6001600160a01b0316866001600160a01b031614806124ee57506124ee8661079f612a2d565b61250a5760405162461bcd60e51b815260040161090490614822565b612518868686868686612e99565b505050505050565b612528612827565b6001600160a01b03811661254e5760405162461bcd60e51b815260040161090490614697565b6125578161297a565b50565b60006001600160a01b0383166125825760405162461bcd60e51b8152600401610904906147d8565b60408051808201909152600d81526c544f4b454e49445f52414e474560981b6020820152600683106125c75760405162461bcd60e51b8152600401610904919061451e565b505060009081526007602090815260408083206001600160a01b03949094168352929052205490565b60006001600160e01b03198216636cdb3d1360e11b148061262157506001600160e01b031982166303a24d0760e21b145b8061088f575061088f82612eb6565b60608161265557506040805180820190915260018152600360fc1b602082015261087b565b8160005b811561267f578061266981614c88565b91506126789050600a83614bcf565b9150612659565b6000816001600160401b038111156126a757634e487b7160e01b600052604160045260246000fd5b6040519080825280601f01601f1916602001820160405280156126d1576020820181803683370190505b508593509050815b831561274f57806126e981614c45565b91506126f89050600a85614ca3565b612703906030614bb7565b60f81b82828151811061272657634e487b7160e01b600052603260045260246000fd5b60200101906001600160f81b031916908160001a905350612748600a85614bcf565b93506126d9565b50949350505050565b5060408051602081019091526000815290565b60608161277784612ecf565b6040516020016109aa92919061434b565b60006001600160a01b0382166127a05750600061087b565b6001600160a01b03821660009081526012602052604090206003810154600160a01b900460ff166127d557600091505061087b565b60028101546127ec906001600160a01b0316612788565b6001820154612803906001600160a01b0316612788565b61280c85612236565b6128169190614bb7565b6128209190614bb7565b9392505050565b61282f612a2d565b6001600160a01b0316612840611b2d565b6001600160a01b0316146117b45760405162461bcd60e51b8152600401610904906148b5565b600d5460609060ff610100909104166001146128af575060408051808201909152601681527514149250d154d7d393d517d25392551250531256915160521b602082015261088f565b60058311156128e2575060408051808201909152600d81526c544f4b454e49445f52414e474560981b602082015261088f565b6001600160a01b0382166128f557600191505b6001600160a01b0382166000908152600a602052604090205460ff166001146129525761294b82604051806040016040528060118152602001701513d2d15397d55394d5541413d4951151607a1b81525061276b565b905061088f565b5060408051602081019091526000815292915050565b612974848484846130b5565b50505050565b600980546001600160a01b038381166001600160a01b0319831681179093556040519116919082907f8be0079c531659141344cd1fd0a4f28419497f9722a3daafe3b4186f6b6457e090600090a35050565b6000815b6001600160a01b03811615612a2357836001600160a01b0316816001600160a01b03161415612a0357600191505061088f565b6001600160a01b03908116600090815260126020526040902054166129d0565b5060009392505050565b3390565b816001600160a01b0316836001600160a01b03161415612a635760405162461bcd60e51b81526004016109049061497d565b6001600160a01b0383811660008181526008602090815260408083209487168084529490915290819020805460ff1916851515179055517f17307eab39ab6107e8899845ad3d59bd9653f200f220920489ca2b5937696c3190612ac79085906144fe565b60405180910390a3505050565b8051606090600080805b83811015612e8057600a6000878381518110612b0a57634e487b7160e01b600052603260045260246000fd5b6020908102919091018101516001600160a01b031682528101919091526040016000205460ff1660011415612b9857612b8d868281518110612b5c57634e487b7160e01b600052603260045260246000fd5b60200260200101516040518060400160405280600b81526020016a414444525f45584953545360a81b81525061276b565b94505050505061087b565b6040805160048152602481019091526020810180516001600160e01b03166395d89b4160e01b17905286516000908190899085908110612be857634e487b7160e01b600052603260045260246000fd5b60200260200101516001600160a01b031683604051612c07919061432f565b600060405180830381855afa9150503d8060008114612c42576040519150601f19603f3d011682016040523d82523d6000602084013e612c47565b606091505b5091509150818015612c5a575060008151115b15612e3957600081806020019051810190612c759190614169565b80516020808301919091206040805180820190915260038152622221a360e91b9201919091529091507f580e4ba285e7e1134de91e671c33b0ab748bee7126d5d2e4d0845e6ad176e7eb8114801590612d0a57506040805180820190915260048152631554d11560e21b6020909101527f8b1a1d9c2b109e527c9134b25b1a1833b16b6594f92daa9f6d9b7a6024bce9d08114155b15612d7457612d648b8781518110612d3257634e487b7160e01b600052603260045260246000fd5b60200260200101516040518060400160405280600c81526020016b1393d517d110d197d554d11560a21b81525061276b565b995050505050505050505061087b565b6040805180820190915260038152622221a360e91b6020909101527f580e4ba285e7e1134de91e671c33b0ab748bee7126d5d2e4d0845e6ad176e7eb811415612df6578715612ded5760405180604001604052806007815260200166222aa82fa221a360c91b815250995050505050505050505061087b565b60019750612e32565b8615612e2d576040518060400160405280600881526020016711155417d554d11560c21b815250995050505050505050505061087b565b600196505b5050612e6a565b612e5c898581518110612d3257634e487b7160e01b600052603260045260246000fd5b97505050505050505061087b565b5050508080612e7890614c88565b915050612ade565b5050604080516020810190915260008152949350505050565b6125188686868686604051806020016040528060008152506131a9565b6001600160e01b031981166301ffc9a760e01b14919050565b60408051602a808252606082810190935283831b916f181899199a1a9b1b9c1cb0b131b232b360811b9160009190602082018180368337019050509050600360fc1b81600081518110612f3257634e487b7160e01b600052603260045260246000fd5b60200101906001600160f81b031916908160001a905350600f60fb1b81600181518110612f6f57634e487b7160e01b600052603260045260246000fd5b60200101906001600160f81b031916908160001a90535060005b601481101561274f576000848260148110612fb457634e487b7160e01b600052603260045260246000fd5b1a905083600482901c60ff1660108110612fde57634e487b7160e01b600052603260045260246000fd5b1a60f81b83612fee846002614be3565b612ff9906002614bb7565b8151811061301757634e487b7160e01b600052603260045260246000fd5b60200101906001600160f81b031916908160001a90535083600f82166010811061305157634e487b7160e01b600052603260045260246000fd5b1a60f81b83613061846002614be3565b61306c906003614bb7565b8151811061308a57634e487b7160e01b600052603260045260246000fd5b60200101906001600160f81b031916908160001a9053505080806130ad90614c88565b915050612f89565b4260005b8381101561319c5760008581526010602090815260408083206001600160a01b038a168452909152812083918381896006811061310657634e487b7160e01b600052603260045260246000fd5b01546131129190614bb7565b815260208082019290925260409081016000908120939093556001600160a01b0389168352600f82528083208884529091528120908290876006811061316857634e487b7160e01b600052603260045260246000fd5b01546131749190614bb7565b815460018101835560009283526020909220909101558061319481614c88565b9150506130b9565b50610df3858585856134f5565b6001600160a01b0385166131cf5760405162461bcd60e51b815260040161090490614870565b60408051808201909152600d81526c544f4b454e49445f52414e474560981b6020820152600685106132145760405162461bcd60e51b8152600401610904919061451e565b5060005b828110156134e657600084848381811061324257634e487b7160e01b600052603260045260246000fd5b60008981526010602090815260408083206001600160a01b038f168085529083528184209483029690960135808452938252808320548c8452600e909252909120600101549194509261010090910463ffffffff1691506132a38985612082565b6001600160a01b0316146040518060400160405280600f81526020016e1513d2d15397d393d517d3d5d39151608a1b815250906132f35760405162461bcd60e51b8152600401610904919061451e565b506132fe8183614bb7565b42116040518060400160405280601081526020016f13919517d4d15391115117d59053125160821b815250906133475760405162461bcd60e51b8152600401610904919061451e565b5060008881526010602090815260408083206001600160a01b03808e1680865291845282852088865284528285208590558e168452600f8084528285208d8652845282852091855283528184208c8552909252822090915b825481101561348c57858382815481106133c957634e487b7160e01b600052603260045260246000fd5b9060005260206000200154141561347a57825483906133ea90600190614c02565b8154811061340857634e487b7160e01b600052603260045260246000fd5b906000526020600020015483828154811061343357634e487b7160e01b600052603260045260246000fd5b90600052602060002001819055508280548061345f57634e487b7160e01b600052603160045260246000fd5b6001900381819060005260206000200160009055905561348c565b8061348481614c88565b91505061339f565b508054600181018255600091825260208083209091018690558a82526010815260408083206001600160a01b038f168452825280832096835295905293842093909355508291506134de905081614c88565b915050613218565b50612518868686868686613716565b60408051808201909152600d81526c544f4b454e49445f52414e474560981b60208201526006841061353a5760405162461bcd60e51b8152600401610904919061451e565b506001600160a01b0384166135615760405162461bcd60e51b8152600401610904906149fd565b600061356b612a2d565b9050600061357885613a34565b9050600061358585613a34565b905061359683600089858589613a8d565b60008681526007602090815260408083206001600160a01b038b168452909152812080548792906135c8908490614bb7565b90915550600090505b8581101561365d57876006600089815260200190815260200160002060008360008b6006811061361157634e487b7160e01b600052603260045260246000fd5b015461361d9190614bb7565b8152602081019190915260400160002080546001600160a01b0319166001600160a01b03929092169190911790558061365581614c88565b9150506135d1565b50846000876006811061368057634e487b7160e01b600052603260045260246000fd5b0160008282546136909190614bb7565b92505081905550866001600160a01b031660006001600160a01b0316846001600160a01b03167fc3d58168c5ae7397731d063d5bbf3d657854427343f4c083240f7aacaa2d0f6289896040516136e7929190614ae6565b60405180910390a46136fe83600089858589612518565b61370d83600089898989613a9b565b50505050505050565b6001600160a01b03851661373c5760405162461bcd60e51b815260040161090490614870565b60408051808201909152600d81526c544f4b454e49445f52414e474560981b6020820152600685106137815760405162461bcd60e51b8152600401610904919061451e565b5060005b828110156138185760008581526006602052604081206001600160a01b038916918686858181106137c657634e487b7160e01b600052603260045260246000fd5b60209081029290920135835250810191909152604001600020546001600160a01b0316146138065760405162461bcd60e51b815260040161090490614757565b8061381081614c88565b915050613785565b506000613823612a2d565b9050600061383086613a34565b9050600061383d85613a34565b905061384d838a8a858589613a8d565b60005b858110156138e35760008881526006602052604081206001600160a01b038c169189898581811061389157634e487b7160e01b600052603260045260246000fd5b60209081029290920135835250810191909152604001600020546001600160a01b0316146138d15760405162461bcd60e51b815260040161090490614757565b806138db81614c88565b915050613850565b5060008781526007602090815260408083206001600160a01b038d16845290915281208054878103909155905b868110156139875760008981526006602052604081208b918a8a8581811061394857634e487b7160e01b600052603260045260246000fd5b6020908102929092013583525081019190915260400160002080546001600160a01b0319166001600160a01b0392909216919091179055600101613910565b5060008881526007602090815260408083206001600160a01b038d168452909152812080548892906139ba908490614bb7565b90915550506040516001600160a01b03808b16918c8216918716907fc3d58168c5ae7397731d063d5bbf3d657854427343f4c083240f7aacaa2d0f6290613a04908d908c90614ae6565b60405180910390a4613a1a848b8b86868a612518565b613a28848b8b8b8a8a613a9b565b50505050505050505050565b60408051600180825281830190925260609160009190602080830190803683370190505090508281600081518110613a7c57634e487b7160e01b600052603260045260246000fd5b602090810291909101015292915050565b612518868686868686612518565b6001600160a01b0384163b156125185760405163f23a6e6160e01b81526001600160a01b0385169063f23a6e6190613adf908990899088908890889060040161445a565b602060405180830381600087803b158015613af957600080fd5b505af1925050508015613b29575060408051601f3d908101601f19168201909252613b269181019061414d565b60015b613b8957613b35614cf9565b806308c379a01415613b6f5750613b4a614d10565b80613b555750613b71565b8060405162461bcd60e51b8152600401610904919061451e565b505b60405162461bcd60e51b815260040161090490614a3e565b6001600160e01b0319811663f23a6e6160e01b1461370d5760405162461bcd60e51b815260040161090490614553565b80356001600160a01b038116811461087b57600080fd5b600082601f830112613be0578081fd5b81356020613bed82614b61565b604051613bfa8282614c5c565b838152828101915085830183850287018401881015613c17578586fd5b855b85811015613c3c57613c2a82613bb9565b84529284019290840190600101613c19565b5090979650505050505050565b600082601f830112613c59578081fd5b81356020613c6682614b61565b604051613c738282614c5c565b838152828101915085830183850287018401881015613c90578586fd5b855b85811015613c3c57813584529284019290840190600101613c92565b8035801515811461087b57600080fd5b600082601f830112613cce578081fd5b8135613cd981614b84565b604051613ce68282614c5c565b828152856020848701011115613cfa578384fd5b82602086016020830137918201602001929092529392505050565b600060208284031215613d26578081fd5b61088c82613bb9565b60008060408385031215613d41578081fd5b613d4a83613bb9565b9150613d5860208401613bb9565b90509250929050565b60008060008060808587031215613d76578182fd5b613d7f85613bb9565b9350613d8d60208601613bb9565b9250613d9b60408601613bb9565b9150613da960608601613cae565b905092959194509250565b600080600080600060a08688031215613dcb578081fd5b613dd486613bb9565b9450613de260208701613bb9565b935060408601356001600160401b0380821115613dfd578283fd5b613e0989838a01613c49565b94506060880135915080821115613e1e578283fd5b613e2a89838a01613c49565b93506080880135915080821115613e3f578283fd5b50613e4c88828901613cbe565b9150509295509295909350565b60008060008060008060a08789031215613e71578081fd5b613e7a87613bb9565b9550613e8860208801613bb9565b94506040870135935060608701356001600160401b0380821115613eaa578283fd5b818901915089601f830112613ebd578283fd5b813581811115613ecb578384fd5b8a60208083028501011115613ede578384fd5b602083019550809450506080890135915080821115613efb578283fd5b50613f0889828a01613cbe565b9150509295509295509295565b60008060008060808587031215613f2a578182fd5b613f3385613bb9565b9350613f4160208601613bb9565b92506040850135915060608501356001600160401b03811115613f62578182fd5b613f6e87828801613cbe565b91505092959194509250565b600080600080600060a08688031215613f91578283fd5b613f9a86613bb9565b9450613fa860208701613bb9565b9350604086013592506060860135915060808601356001600160401b03811115613fd0578182fd5b613e4c88828901613cbe565b60008060408385031215613fee578182fd5b613ff783613bb9565b9150613d5860208401613cae565b60008060408385031215614017578182fd5b61402083613bb9565b946020939093013593505050565b600080600060608486031215614042578081fd5b61404b84613bb9565b95602085013595506040909401359392505050565b600060208284031215614071578081fd5b81356001600160401b03811115614086578182fd5b61409284828501613bd0565b949350505050565b600080604083850312156140ac578182fd5b82356001600160401b03808211156140c2578384fd5b6140ce86838701613bd0565b935060208501359150808211156140e3578283fd5b506140f085828601613c49565b9150509250929050565b60006020828403121561410b578081fd5b81356001600160401b03811115614120578182fd5b820160c08101841015612820578182fd5b600060208284031215614142578081fd5b813561282081614da1565b60006020828403121561415e578081fd5b815161282081614da1565b60006020828403121561417a578081fd5b81516001600160401b0381111561418f578182fd5b8201601f8101841361419f578182fd5b80516141aa81614b84565b6040516141b78282614c5c565b8281528660208486010111156141cb578485fd5b6141dc836020830160208701614c19565b9695505050505050565b6000604082840312156141f7578081fd5b604051614205604082614c5c565b61420e83613bb9565b8152602083013560208201528091505092915050565b600060208284031215614235578081fd5b5035919050565b6000806040838503121561424e578182fd5b82359150613d5860208401613bb9565b600080600060608486031215614272578081fd5b8335925061428260208501613bb9565b9150604084013590509250925092565b600080604083850312156142a4578182fd5b50508035926020909101359150565b600080604083850312156142c5578182fd5b505080516020909101519092909150565b600081518084526142ee816020860160208601614c19565b601f01601f19169290920160200192915050565b60008151614314818560208601614c19565b9290920192915050565b64173539b7b760d91b815260050190565b60008251614341818460208701614c19565b9190910192915050565b6000835161435d818460208801614c19565b600160fd1b908301908152835161437b816001840160208801614c19565b01600101949350505050565b82546000908190600281046001808316806143a357607f831692505b60208084108214156143c357634e487b7160e01b87526022600452602487fd5b8180156143d757600181146143e857614414565b60ff19861689528489019650614414565b6143f18b614bab565b885b8681101561440c5781548b8201529085019083016143f3565b505084890196505b505050505050610dea6144278286614302565b61431e565b6001600160a01b0391909116815260200190565b6001600160a01b0392831681529116602082015260400190565b6001600160a01b03868116825285166020820152604081018490526060810183905260a060808201819052600090614494908301846142d6565b979650505050505050565b6001600160a01b039290921682521515602082015260400190565b6020808252825182820181905260009190848201906040850190845b818110156144f2578351835292840192918401916001016144d6565b50909695505050505050565b901515815260200190565b6001600160e01b031991909116815260200190565b60006020825261088c60208301846142d6565b60006040825261454460408301856142d6565b90508260208301529392505050565b60208082526028908201527f455243313135353a204552433131353552656365697665722072656a656374656040820152676420746f6b656e7360c01b606082015260800190565b60208082526024908201527f42696e617279547265653a20726f6f7420616c726561647920696e697469616c6040820152631a5e995960e21b606082015260800190565b6020808252818101527f42696e617279547265653a20726f6f74206e6f7420696e697469616c697a6564604082015260600190565b60208082526022908201527f42696e617279547265653a206c656674206368696c6420616c72656164792073604082015261195d60f21b606082015260800190565b60208082526021908201527f42696e617279547265653a20706172656e7420646f6573206e6f7420657869736040820152601d60fa1b606082015260800190565b60208082526026908201527f4f776e61626c653a206e6577206f776e657220697320746865207a65726f206160408201526564647265737360d01b606082015260800190565b60208082526023908201527f42696e617279547265653a207269676874206368696c6420616c7265616479206040820152621cd95d60ea1b606082015260800190565b6020808252601f908201527f42696e617279547265653a206e6f646520646f6573206e6f7420657869737400604082015260600190565b6020808252602a908201527f455243313135353a207472616e73666572206f6620746f6b656e20746861742060408201526934b9903737ba1037bbb760b11b606082015260800190565b60208082526018908201527f42696e617279547265653a207a65726f20616464726573730000000000000000604082015260600190565b6020808252602a908201527f455243313135353a2061646472657373207a65726f206973206e6f742061207660408201526930b634b21037bbb732b960b11b606082015260800190565b6020808252602e908201527f455243313135353a2063616c6c6572206973206e6f7420746f6b656e206f776e60408201526d195c881bdc88185c1c1c9bdd995960921b606082015260800190565b60208082526025908201527f455243313135353a207472616e7366657220746f20746865207a65726f206164604082015264647265737360d81b606082015260800190565b6020808252818101527f4f776e61626c653a2063616c6c6572206973206e6f7420746865206f776e6572604082015260600190565b60208082526026908201527f42696e617279547265653a207265636f6d6d656e64657220646f6573206e6f7460408201526508195e1a5cdd60d21b606082015260800190565b6020808252602d908201527f42696e617279547265653a20706172656e74206e6f7420696e207265636f6d6d60408201526c656e646572207375627472656560981b606082015260800190565b60208082526029908201527f455243313135353a2073657474696e6720617070726f76616c20737461747573604082015268103337b91039b2b63360b91b606082015260800190565b6020808252601f908201527f42696e617279547265653a206e6f646520616c72656164792065786973747300604082015260600190565b60208082526021908201527f455243313135353a206d696e7420746f20746865207a65726f206164647265736040820152607360f81b606082015260800190565b60208082526034908201527f455243313135353a207472616e7366657220746f206e6f6e2d455243313135356040820152732932b1b2b4bb32b91034b6b83632b6b2b73a32b960611b606082015260800190565b6020808252602b908201527f42696e617279547265653a20706172656e7420616c726561647920686173207460408201526a3bb79031b434b6323932b760a91b606082015260800190565b90815260200190565b918252602082015260400190565b60ff91909116815260200190565b60ff92909216825263ffffffff16602082015260400190565b6000808335601e19843603018112614b31578283fd5b8301803591506001600160401b03821115614b4a578283fd5b602001915060408102360382131561189857600080fd5b60006001600160401b03821115614b7a57614b7a614ce3565b5060209081020190565b60006001600160401b03821115614b9d57614b9d614ce3565b50601f01601f191660200190565b60009081526020902090565b60008219821115614bca57614bca614cb7565b500190565b600082614bde57614bde614ccd565b500490565b6000816000190483118215151615614bfd57614bfd614cb7565b500290565b600082821015614c1457614c14614cb7565b500390565b60005b83811015614c34578181015183820152602001614c1c565b838111156129745750506000910152565b600081614c5457614c54614cb7565b506000190190565b601f8201601f191681016001600160401b0381118282101715614c8157614c81614ce3565b6040525050565b6000600019821415614c9c57614c9c614cb7565b5060010190565b600082614cb257614cb2614ccd565b500690565b634e487b7160e01b600052601160045260246000fd5b634e487b7160e01b600052601260045260246000fd5b634e487b7160e01b600052604160045260246000fd5b600060033d1115611b3a57600481823e5160e01c90565b600060443d1015614d2057611b3a565b6040516003193d81016004833e81513d6001600160401b038160248401118184111715614d51575050505050611b3a565b8285019150815181811115614d6b57505050505050611b3a565b843d8701016020828501011115614d8757505050505050611b3a565b614d9660208286010187614c5c565b509094505050505090565b6001600160e01b03198116811461255757600080fdfea2646970667358221220428153f963f0da36dd3d465af0158233579d842df046022b42f6b0d18a2e6c8664736f6c63430008010033",
  "linkReferences": {},
  "deployedLinkReferences": {},
  "immutableReferences": {},
  "inputSourceName": "project/contracts/TCF_NFT.sol",
  "devdoc": {
    "kind": "dev",
    "methods": {
      "addSupportedToken(address[])": {
        "details": "TC TC",
        "params": {
          "tokenAddresses": "DCFUSDT"
        }
      },
      "balanceOf(address,uint256)": {
        "details": "See {IERC1155-balanceOf}. Requirements: - `account` cannot be the zero address."
      },
      "balanceOfBatch(address[],uint256[])": {
        "details": "See {IERC1155-balanceOfBatch}. Requirements: - `accounts` and `ids` must have the same length."
      },
      "changeNFTPrice(uint256,address,uint256)": {
        "details": "NFT",
        "params": {
          "amount": "",
          "tokenAddress": "address(0)",
          "tokenID": "NFT/ID0-5"
        }
      },
      "checkInitPricesParams((address,uint256)[][6])": {
        "details": "",
        "params": {
          "prices": "6NFTNFT supportedTokenAmount "
        },
        "returns": {
          "_0": "/"
        }
      },
      "checkTokenAddressesCode(address[])": {
        "details": "DCF/USDT",
        "params": {
          "_tokenAddresses": ""
        },
        "returns": {
          "_0": "/"
        }
      },
      "deleteSupportedToken(address)": {
        "details": "",
        "params": {
          "oldTokenAddress": ""
        }
      },
      "getNFTPrice(uint256,address)": {
        "details": "NFT",
        "params": {
          "_tokenAddress": "address(0)",
          "tokenID": "NFT/ID0-5"
        },
        "returns": {
          "_0": "errorMessage /",
          "_1": "price errorMessage0"
        }
      },
      "getRecommendedParent(address)": {
        "details": " recommender left/right       0       parent ",
        "params": {
          "recommender": ""
        },
        "returns": {
          "isLeftBranch": " parent true=leftfalse=right",
          "parent": ""
        }
      },
      "initPrice((address,uint256)[][6])": {
        "details": ".TC0",
        "params": {
          "prices": "6NFT,NFT"
        }
      },
      "initRoot(address)": {
        "params": {
          "rootAddress": ""
        }
      },
      "insert(address,address,address,bool)": {
        "details": "  - parent   - recommender   -  recommender  node parent  recommender  recommender ",
        "params": {
          "isLeft": "true= parent.leftfalse= parent.right",
          "node": "",
          "parent": "",
          "recommender": ""
        }
      },
      "isApprovedForAll(address,address)": {
        "details": "See {IERC1155-isApprovedForAll}."
      },
      "minChildSubtreeBalance(address)": {
        "details": " 0"
      },
      "owner()": {
        "details": "Returns the address of the current owner."
      },
      "renounceOwnership()": {
        "details": "Leaves the contract without owner. It will not be possible to call `onlyOwner` functions. Can only be called by the current owner. NOTE: Renouncing ownership will leave the contract without an owner, thereby disabling any functionality that is only available to the owner."
      },
      "safeBatchTransferFrom(address,address,uint256[],uint256[],bytes)": {
        "details": "See {IERC1155-safeBatchTransferFrom}."
      },
      "safeTransferFrom(address,address,uint256,uint256,bytes)": {
        "details": "See {IERC1155-safeTransferFrom}."
      },
      "setApprovalForAll(address,bool)": {
        "details": "See {IERC1155-setApprovalForAll}."
      },
      "supportsInterface(bytes4)": {
        "details": "See {IERC165-supportsInterface}."
      },
      "test_SafeTransferFrom(address,address,uint256,uint256[],bytes)": {
        "details": "tokenTCF_NFT",
        "params": {
          "indexes": "tokenmintTimes"
        }
      },
      "totalTreeBalance()": {
        "details": " gas view "
      },
      "transferOwnership(address)": {
        "details": "Transfers ownership of the contract to a new account (`newOwner`). Can only be called by the current owner."
      }
    },
    "version": 1
  },
  "evm": {
    "gasEstimates": {
      "creation": {
        "codeDepositCost": "3989800",
        "executionCost": "130361",
        "totalCost": "4120161"
      },
      "external": {
        "NFTPrice_initialized()": "1191",
        "NFTS(uint256)": "1287",
        "_uri(uint256,uint256)": "infinite",
        "addSupportedToken(address[])": "infinite",
        "balanceOf(address,uint256)": "infinite",
        "balanceOfBatch(address[],uint256[])": "infinite",
        "buyNFTByTC(address,uint256,uint256)": "infinite",
        "changeNFTPrice(uint256,address,uint256)": "infinite",
        "checkInitPricesParams((address,uint256)[][6])": "infinite",
        "checkTokenAddressesCode(address[])": "infinite",
        "deleteSupportedToken(address)": "infinite",
        "getChildren(address)": "3262",
        "getNFTPrice(uint256,address)": "infinite",
        "getNodeBalance(address)": "infinite",
        "getParent(address)": "2375",
        "getRecommendedParent(address)": "infinite",
        "getRecommender(address)": "2316",
        "getTotalNFTWorth(address)": "infinite",
        "initPrice((address,uint256)[][6])": "infinite",
        "initRoot(address)": "107601",
        "insert(address,address,address,bool)": "infinite",
        "isApprovedForAll(address,address)": "infinite",
        "isExist(address)": "infinite",
        "isSupported(address)": "1407",
        "minChildSubtreeBalance(address)": "infinite",
        "onTransferReceived(address,address,uint256,bytes)": "infinite",
        "owner()": "1205",
        "ownerOf(uint256,uint256)": "infinite",
        "renounceOwnership()": "infinite",
        "root()": "1136",
        "rootInitialized()": "1190",
        "safeBatchTransferFrom(address,address,uint256[],uint256[],bytes)": "infinite",
        "safeTransferFrom(address,address,uint256,uint256,bytes)": "infinite",
        "setApprovalForAll(address,bool)": "infinite",
        "subtreeBalance(address)": "infinite",
        "supportedTokenAmount()": "1162",
        "supportsInterface(bytes4)": "infinite",
        "test_MintTimes(uint256,address,uint256)": "infinite",
        "test_OwnedTokenIds(address,uint256)": "infinite",
        "test_SafeTransferFrom(address,address,uint256,uint256[],bytes)": "infinite",
        "tokenAddress_array(uint256)": "2128",
        "totalTreeBalance()": "infinite",
        "transferOwnership(address)": "23863",
        "uri(uint256)": "infinite",
        "withdraw(address,uint256)": "481"
      },
      "internal": {
        "_beforeTokenTransfer(address,address,address,uint256[] memory,uint256[] memory,bytes memory)": "infinite",
        "_mint(address,uint256,uint256,bytes memory)": "infinite",
        "_safeTransferFrom(address,address,uint256,uint256[] calldata,bytes memory)": "infinite"
      }
    }
  },
  "storageLayout": {
    "storage": [
      {
        "astId": 388,
        "contract": "project/contracts/TCF_NFT.sol:TCF_NFT",
        "label": "_nextTokenId",
        "offset": 0,
        "slot": "0",
        "type": "t_array(t_uint256)6_storage"
      },
      {
        "astId": 394,
        "contract": "project/contracts/TCF_NFT.sol:TCF_NFT",
        "label": "_owners",
        "offset": 0,
        "slot": "6",
        "type": "t_mapping(t_uint256,t_mapping(t_uint256,t_address))"
      },
      {
        "astId": 400,
        "contract": "project/contracts/TCF_NFT.sol:TCF_NFT",
        "label": "_balances",
        "offset": 0,
        "slot": "7",
        "type": "t_mapping(t_uint256,t_mapping(t_address,t_uint256))"
      },
      {
        "astId": 406,
        "contract": "project/contracts/TCF_NFT.sol:TCF_NFT",
        "label": "_operatorApprovals",
        "offset": 0,
        "slot": "8",
        "type": "t_mapping(t_address,t_mapping(t_address,t_bool))"
      },
      {
        "astId": 3602,
        "contract": "project/contracts/TCF_NFT.sol:TCF_NFT",
        "label": "_owner",
        "offset": 0,
        "slot": "9",
        "type": "t_address"
      },
      {
        "astId": 1869,
        "contract": "project/contracts/TCF_NFT.sol:TCF_NFT",
        "label": "supportTokenType",
        "offset": 0,
        "slot": "10",
        "type": "t_mapping(t_address,t_uint8)"
      },
      {
        "astId": 1871,
        "contract": "project/contracts/TCF_NFT.sol:TCF_NFT",
        "label": "supportedTokenAmount",
        "offset": 0,
        "slot": "11",
        "type": "t_uint256"
      },
      {
        "astId": 1874,
        "contract": "project/contracts/TCF_NFT.sol:TCF_NFT",
        "label": "tokenAddress_array",
        "offset": 0,
        "slot": "12",
        "type": "t_array(t_address)dyn_storage"
      },
      {
        "astId": 1876,
        "contract": "project/contracts/TCF_NFT.sol:TCF_NFT",
        "label": "initedTokenAddress",
        "offset": 0,
        "slot": "13",
        "type": "t_uint8"
      },
      {
        "astId": 1878,
        "contract": "project/contracts/TCF_NFT.sol:TCF_NFT",
        "label": "NFTPrice_initialized",
        "offset": 1,
        "slot": "13",
        "type": "t_uint8"
      },
      {
        "astId": 1897,
        "contract": "project/contracts/TCF_NFT.sol:TCF_NFT",
        "label": "NFTS",
        "offset": 0,
        "slot": "14",
        "type": "t_mapping(t_uint256,t_struct(equities_store)1892_storage)"
      },
      {
        "astId": 1279,
        "contract": "project/contracts/TCF_NFT.sol:TCF_NFT",
        "label": "_ownedTokenIds",
        "offset": 0,
        "slot": "15",
        "type": "t_mapping(t_address,t_mapping(t_uint256,t_array(t_uint256)dyn_storage))"
      },
      {
        "astId": 1287,
        "contract": "project/contracts/TCF_NFT.sol:TCF_NFT",
        "label": "_mintTimes",
        "offset": 0,
        "slot": "16",
        "type": "t_mapping(t_uint256,t_mapping(t_address,t_mapping(t_uint256,t_uint256)))"
      },
      {
        "astId": 2892,
        "contract": "project/contracts/TCF_NFT.sol:TCF_NFT",
        "label": "root",
        "offset": 0,
        "slot": "17",
        "type": "t_address"
      },
      {
        "astId": 2894,
        "contract": "project/contracts/TCF_NFT.sol:TCF_NFT",
        "label": "rootInitialized",
        "offset": 20,
        "slot": "17",
        "type": "t_bool"
      },
      {
        "astId": 2899,
        "contract": "project/contracts/TCF_NFT.sol:TCF_NFT",
        "label": "_nodes",
        "offset": 0,
        "slot": "18",
        "type": "t_mapping(t_address,t_struct(Node)2889_storage)"
      },
      {
        "astId": 1725,
        "contract": "project/contracts/TCF_NFT.sol:TCF_NFT",
        "label": "_baseURI",
        "offset": 0,
        "slot": "19",
        "type": "t_array(t_string_storage)6_storage"
      },
      {
        "astId": 1728,
        "contract": "project/contracts/TCF_NFT.sol:TCF_NFT",
        "label": "_initializedURIStorage",
        "offset": 0,
        "slot": "25",
        "type": "t_uint8"
      },
      {
        "astId": 1734,
        "contract": "project/contracts/TCF_NFT.sol:TCF_NFT",
        "label": "_tokenURIs",
        "offset": 0,
        "slot": "26",
        "type": "t_mapping(t_uint256,t_mapping(t_uint256,t_string_storage))"
      }
    ],
    "types": {
      "t_address": {
        "encoding": "inplace",
        "label": "address",
        "numberOfBytes": "20"
      },
      "t_array(t_address)dyn_storage": {
        "base": "t_address",
        "encoding": "dynamic_array",
        "label": "address[]",
        "numberOfBytes": "32"
      },
      "t_array(t_string_storage)6_storage": {
        "base": "t_string_storage",
        "encoding": "inplace",
        "label": "string[6]",
        "numberOfBytes": "192"
      },
      "t_array(t_uint256)6_storage": {
        "base": "t_uint256",
        "encoding": "inplace",
        "label": "uint256[6]",
        "numberOfBytes": "192"
      },
      "t_array(t_uint256)dyn_storage": {
        "base": "t_uint256",
        "encoding": "dynamic_array",
        "label": "uint256[]",
        "numberOfBytes": "32"
      },
      "t_bool": {
        "encoding": "inplace",
        "label": "bool",
        "numberOfBytes": "1"
      },
      "t_mapping(t_address,t_bool)": {
        "encoding": "mapping",
        "key": "t_address",
        "label": "mapping(address => bool)",
        "numberOfBytes": "32",
        "value": "t_bool"
      },
      "t_mapping(t_address,t_mapping(t_address,t_bool))": {
        "encoding": "mapping",
        "key": "t_address",
        "label": "mapping(address => mapping(address => bool))",
        "numberOfBytes": "32",
        "value": "t_mapping(t_address,t_bool)"
      },
      "t_mapping(t_address,t_mapping(t_uint256,t_array(t_uint256)dyn_storage))": {
        "encoding": "mapping",
        "key": "t_address",
        "label": "mapping(address => mapping(uint256 => uint256[]))",
        "numberOfBytes": "32",
        "value": "t_mapping(t_uint256,t_array(t_uint256)dyn_storage)"
      },
      "t_mapping(t_address,t_mapping(t_uint256,t_uint256))": {
        "encoding": "mapping",
        "key": "t_address",
        "label": "mapping(address => mapping(uint256 => uint256))",
        "numberOfBytes": "32",
        "value": "t_mapping(t_uint256,t_uint256)"
      },
      "t_mapping(t_address,t_struct(Node)2889_storage)": {
        "encoding": "mapping",
        "key": "t_address",
        "label": "mapping(address => struct BinaryTree.Node)",
        "numberOfBytes": "32",
        "value": "t_struct(Node)2889_storage"
      },
      "t_mapping(t_address,t_uint256)": {
        "encoding": "mapping",
        "key": "t_address",
        "label": "mapping(address => uint256)",
        "numberOfBytes": "32",
        "value": "t_uint256"
      },
      "t_mapping(t_address,t_uint8)": {
        "encoding": "mapping",
        "key": "t_address",
        "label": "mapping(address => uint8)",
        "numberOfBytes": "32",
        "value": "t_uint8"
      },
      "t_mapping(t_uint256,t_address)": {
        "encoding": "mapping",
        "key": "t_uint256",
        "label": "mapping(uint256 => address)",
        "numberOfBytes": "32",
        "value": "t_address"
      },
      "t_mapping(t_uint256,t_array(t_uint256)dyn_storage)": {
        "encoding": "mapping",
        "key": "t_uint256",
        "label": "mapping(uint256 => uint256[])",
        "numberOfBytes": "32",
        "value": "t_array(t_uint256)dyn_storage"
      },
      "t_mapping(t_uint256,t_mapping(t_address,t_mapping(t_uint256,t_uint256)))": {
        "encoding": "mapping",
        "key": "t_uint256",
        "label": "mapping(uint256 => mapping(address => mapping(uint256 => uint256)))",
        "numberOfBytes": "32",
        "value": "t_mapping(t_address,t_mapping(t_uint256,t_uint256))"
      },
      "t_mapping(t_uint256,t_mapping(t_address,t_uint256))": {
        "encoding": "mapping",
        "key": "t_uint256",
        "label": "mapping(uint256 => mapping(address => uint256))",
        "numberOfBytes": "32",
        "value": "t_mapping(t_address,t_uint256)"
      },
      "t_mapping(t_uint256,t_mapping(t_uint256,t_address))": {
        "encoding": "mapping",
        "key": "t_uint256",
        "label": "mapping(uint256 => mapping(uint256 => address))",
        "numberOfBytes": "32",
        "value": "t_mapping(t_uint256,t_address)"
      },
      "t_mapping(t_uint256,t_mapping(t_uint256,t_string_storage))": {
        "encoding": "mapping",
        "key": "t_uint256",
        "label": "mapping(uint256 => mapping(uint256 => string))",
        "numberOfBytes": "32",
        "value": "t_mapping(t_uint256,t_string_storage)"
      },
      "t_mapping(t_uint256,t_string_storage)": {
        "encoding": "mapping",
        "key": "t_uint256",
        "label": "mapping(uint256 => string)",
        "numberOfBytes": "32",
        "value": "t_string_storage"
      },
      "t_mapping(t_uint256,t_struct(equities_store)1892_storage)": {
        "encoding": "mapping",
        "key": "t_uint256",
        "label": "mapping(uint256 => struct TCF_NFTPrice.equities_store)",
        "numberOfBytes": "32",
        "value": "t_struct(equities_store)1892_storage"
      },
      "t_mapping(t_uint256,t_uint256)": {
        "encoding": "mapping",
        "key": "t_uint256",
        "label": "mapping(uint256 => uint256)",
        "numberOfBytes": "32",
        "value": "t_uint256"
      },
      "t_string_storage": {
        "encoding": "bytes",
        "label": "string",
        "numberOfBytes": "32"
      },
      "t_struct(Node)2889_storage": {
        "encoding": "inplace",
        "label": "struct BinaryTree.Node",
        "members": [
          {
            "astId": 2880,
            "contract": "project/contracts/TCF_NFT.sol:TCF_NFT",
            "label": "parent",
            "offset": 0,
            "slot": "0",
            "type": "t_address"
          },
          {
            "astId": 2882,
            "contract": "project/contracts/TCF_NFT.sol:TCF_NFT",
            "label": "left",
            "offset": 0,
            "slot": "1",
            "type": "t_address"
          },
          {
            "astId": 2884,
            "contract": "project/contracts/TCF_NFT.sol:TCF_NFT",
            "label": "right",
            "offset": 0,
            "slot": "2",
            "type": "t_address"
          },
          {
            "astId": 2886,
            "contract": "project/contracts/TCF_NFT.sol:TCF_NFT",
            "label": "recommender",
            "offset": 0,
            "slot": "3",
            "type": "t_address"
          },
          {
            "astId": 2888,
            "contract": "project/contracts/TCF_NFT.sol:TCF_NFT",
            "label": "exists",
            "offset": 20,
            "slot": "3",
            "type": "t_bool"
          }
        ],
        "numberOfBytes": "128"
      },
      "t_struct(equities_store)1892_storage": {
        "encoding": "inplace",
        "label": "struct TCF_NFTPrice.equities_store",
        "members": [
          {
            "astId": 1887,
            "contract": "project/contracts/TCF_NFT.sol:TCF_NFT",
            "label": "prices",
            "offset": 0,
            "slot": "0",
            "type": "t_mapping(t_address,t_uint256)"
          },
          {
            "astId": 1889,
            "contract": "project/contracts/TCF_NFT.sol:TCF_NFT",
            "label": "ratio",
            "offset": 0,
            "slot": "1",
            "type": "t_uint8"
          },
          {
            "astId": 1891,
            "contract": "project/contracts/TCF_NFT.sol:TCF_NFT",
            "label": "indate",
            "offset": 1,
            "slot": "1",
            "type": "t_uint32"
          }
        ],
        "numberOfBytes": "64"
      },
      "t_uint256": {
        "encoding": "inplace",
        "label": "uint256",
        "numberOfBytes": "32"
      },
      "t_uint32": {
        "encoding": "inplace",
        "label": "uint32",
        "numberOfBytes": "4"
      },
      "t_uint8": {
        "encoding": "inplace",
        "label": "uint8",
        "numberOfBytes": "1"
      }
    }
  },
  "userdoc": {
    "kind": "user",
    "methods": {
      "getChildren(address)": {
        "notice": "left, right"
      },
      "getNodeBalance(address)": {
        "notice": ""
      },
      "getParent(address)": {
        "notice": ""
      },
      "getRecommendedParent(address)": {
        "notice": ""
      },
      "getRecommender(address)": {
        "notice": ""
      },
      "initPrice((address,uint256)[][6])": {
        "notice": "tokenTC"
      },
      "initRoot(address)": {
        "notice": "/owner "
      },
      "insert(address,address,address,bool)": {
        "notice": ""
      },
      "isExist(address)": {
        "notice": ""
      },
      "minChildSubtreeBalance(address)": {
        "notice": "left/right"
      },
      "root()": {
        "notice": ""
      },
      "subtreeBalance(address)": {
        "notice": ""
      },
      "totalTreeBalance()": {
        "notice": ""
      }
    },
    "version": 1
  },
  "argsData": "0x",
  "transaction": {
    "hash": "0xa7e464ea5272b7723b736301adbe4153e25e8e5a8105e1a38b068afca6e651b7",
    "nonce": "0x4",
    "origin": "0xf39fd6e51aad88f6f4ce6ab8827279cfffb92266"
  }
}