{
  "address": "0x9fe46736679d2d9a65f0992f2272de9f3c7fa6e0",
  "abi": [
    {
      "inputs": [],
      "stateMutability": "nonpayable",
      "type": "constructor"
    },
    {
      "anonymous": false,
      "inputs": [
        {
          "indexed": true,
          "internalType": "address",
          "name": "owner",
          "type": "address"
        },
        {
          "indexed": true,
          "internalType": "address",
          "name": "spender",
          "type": "address"
        },
        {
          "indexed": false,
          "internalType": "uint256",
          "name": "value",
          "type": "uint256"
        }
      ],
      "name": "Approval",
      "type": "event"
    },
    {
      "anonymous": false,
      "inputs": [
        {
          "indexed": true,
          "internalType": "address",
          "name": "previousOwner",
          "type": "address"
        },
        {
          "indexed": true,
          "internalType": "address",
          "name": "newOwner",
          "type": "address"
        }
      ],
      "name": "OwnershipTransferred",
      "type": "event"
    },
    {
      "anonymous": false,
      "inputs": [
        {
          "indexed": true,
          "internalType": "address",
          "name": "from",
          "type": "address"
        },
        {
          "indexed": true,
          "internalType": "address",
          "name": "to",
          "type": "address"
        },
        {
          "indexed": false,
          "internalType": "uint256",
          "name": "value",
          "type": "uint256"
        }
      ],
      "name": "Transfer",
      "type": "event"
    },
    {
      "inputs": [
        {
          "internalType": "address",
          "name": "owner",
          "type": "address"
        },
        {
          "internalType": "address",
          "name": "spender",
          "type": "address"
        }
      ],
      "name": "allowance",
      "outputs": [
        {
          "internalType": "uint256",
          "name": "",
          "type": "uint256"
        }
      ],
      "stateMutability": "view",
      "type": "function"
    },
    {
      "inputs": [
        {
          "internalType": "address",
          "name": "spender",
          "type": "address"
        },
        {
          "internalType": "uint256",
          "name": "amount",
          "type": "uint256"
        }
      ],
      "name": "approve",
      "outputs": [
        {
          "internalType": "bool",
          "name": "",
          "type": "bool"
        }
      ],
      "stateMutability": "nonpayable",
      "type": "function"
    },
    {
      "inputs": [
        {
          "internalType": "address",
          "name": "account",
          "type": "address"
        }
      ],
      "name": "balanceOf",
      "outputs": [
        {
          "internalType": "uint256",
          "name": "",
          "type": "uint256"
        }
      ],
      "stateMutability": "view",
      "type": "function"
    },
    {
      "inputs": [],
      "name": "decimals",
      "outputs": [
        {
          "internalType": "uint8",
          "name": "",
          "type": "uint8"
        }
      ],
      "stateMutability": "view",
      "type": "function"
    },
    {
      "inputs": [
        {
          "internalType": "address",
          "name": "spender",
          "type": "address"
        },
        {
          "internalType": "uint256",
          "name": "subtractedValue",
          "type": "uint256"
        }
      ],
      "name": "decreaseAllowance",
      "outputs": [
        {
          "internalType": "bool",
          "name": "",
          "type": "bool"
        }
      ],
      "stateMutability": "nonpayable",
      "type": "function"
    },
    {
      "inputs": [
        {
          "internalType": "address",
          "name": "spender",
          "type": "address"
        },
        {
          "internalType": "uint256",
          "name": "addedValue",
          "type": "uint256"
        }
      ],
      "name": "increaseAllowance",
      "outputs": [
        {
          "internalType": "bool",
          "name": "",
          "type": "bool"
        }
      ],
      "stateMutability": "nonpayable",
      "type": "function"
    },
    {
      "inputs": [
        {
          "internalType": "bytes",
          "name": "_tokenName",
          "type": "bytes"
        },
        {
          "internalType": "bytes",
          "name": "_tokenSymbol",
          "type": "bytes"
        },
        {
          "internalType": "address",
          "name": "addr_3",
          "type": "address"
        },
        {
          "internalType": "address",
          "name": "addr_7",
          "type": "address"
        }
      ],
      "name": "initialize",
      "outputs": [],
      "stateMutability": "nonpayable",
      "type": "function"
    },
    {
      "inputs": [],
      "name": "name",
      "outputs": [
        {
          "internalType": "string",
          "name": "",
          "type": "string"
        }
      ],
      "stateMutability": "view",
      "type": "function"
    },
    {
      "inputs": [],
      "name": "owner",
      "outputs": [
        {
          "internalType": "address",
          "name": "",
          "type": "address"
        }
      ],
      "stateMutability": "view",
      "type": "function"
    },
    {
      "inputs": [],
      "name": "renounceOwnership",
      "outputs": [],
      "stateMutability": "nonpayable",
      "type": "function"
    },
    {
      "inputs": [
        {
          "internalType": "bytes4",
          "name": "interfaceId",
          "type": "bytes4"
        }
      ],
      "name": "supportsInterface",
      "outputs": [
        {
          "internalType": "bool",
          "name": "",
          "type": "bool"
        }
      ],
      "stateMutability": "view",
      "type": "function"
    },
    {
      "inputs": [],
      "name": "symbol",
      "outputs": [
        {
          "internalType": "string",
          "name": "",
          "type": "string"
        }
      ],
      "stateMutability": "view",
      "type": "function"
    },
    {
      "inputs": [],
      "name": "totalSupply",
      "outputs": [
        {
          "internalType": "uint256",
          "name": "",
          "type": "uint256"
        }
      ],
      "stateMutability": "view",
      "type": "function"
    },
    {
      "inputs": [
        {
          "internalType": "address",
          "name": "to",
          "type": "address"
        },
        {
          "internalType": "uint256",
          "name": "amount",
          "type": "uint256"
        }
      ],
      "name": "transfer",
      "outputs": [
        {
          "internalType": "bool",
          "name": "",
          "type": "bool"
        }
      ],
      "stateMutability": "nonpayable",
      "type": "function"
    },
    {
      "inputs": [
        {
          "internalType": "address",
          "name": "from",
          "type": "address"
        },
        {
          "internalType": "address",
          "name": "to",
          "type": "address"
        },
        {
          "internalType": "uint256",
          "name": "amount",
          "type": "uint256"
        }
      ],
      "name": "transferFrom",
      "outputs": [
        {
          "internalType": "bool",
          "name": "",
          "type": "bool"
        }
      ],
      "stateMutability": "nonpayable",
      "type": "function"
    },
    {
      "inputs": [
        {
          "internalType": "address",
          "name": "newOwner",
          "type": "address"
        }
      ],
      "name": "transferOwnership",
      "outputs": [],
      "stateMutability": "nonpayable",
      "type": "function"
    }
  ],
  "contractName": "TCF_copy",
  "sourceName": "contracts/TCF.sol",
  "bytecode": "0x608060405234801561001057600080fd5b5061002d61002261003260201b60201c565b61003a60201b60201c565b610100565b600033905090565b6000600660009054906101000a900473ffffffffffffffffffffffffffffffffffffffff16905081600660006101000a81548173ffffffffffffffffffffffffffffffffffffffff021916908373ffffffffffffffffffffffffffffffffffffffff1602179055508173ffffffffffffffffffffffffffffffffffffffff168173ffffffffffffffffffffffffffffffffffffffff167f8be0079c531659141344cd1fd0a4f28419497f9722a3daafe3b4186f6b6457e060405160405180910390a35050565b611f7a8061010f6000396000f3fe608060405234801561001057600080fd5b50600436106101005760003560e01c806370a0823111610097578063a457c2d711610066578063a457c2d7146102b1578063a9059cbb146102e1578063dd62ed3e14610311578063f2fde38b1461034157610100565b806370a082311461023b578063715018a61461026b5780638da5cb5b1461027557806395d89b411461029357610100565b806322131d66116100d357806322131d66146101a157806323b872dd146101bd578063313ce567146101ed578063395093511461020b57610100565b806301ffc9a71461010557806306fdde0314610135578063095ea7b31461015357806318160ddd14610183575b600080fd5b61011f600480360381019061011a919061150b565b61035d565b60405161012c9190611803565b60405180910390f35b61013d61043f565b60405161014a919061181e565b60405180910390f35b61016d600480360381019061016891906114cf565b6104d1565b60405161017a9190611803565b60405180910390f35b61018b6104f4565b60405161019891906119c0565b60405180910390f35b6101bb60048036038101906101b69190611534565b6104fe565b005b6101d760048036038101906101d29190611480565b6106b0565b6040516101e49190611803565b60405180910390f35b6101f56106df565b60405161020291906119db565b60405180910390f35b610225600480360381019061022091906114cf565b6106e8565b6040516102329190611803565b60405180910390f35b6102556004803603810190610250919061141b565b61071f565b60405161026291906119c0565b60405180910390f35b610273610768565b005b61027d61077c565b60405161028a91906117e8565b60405180910390f35b61029b6107a6565b6040516102a8919061181e565b60405180910390f35b6102cb60048036038101906102c691906114cf565b610838565b6040516102d89190611803565b60405180910390f35b6102fb60048036038101906102f691906114cf565b6108af565b6040516103089190611803565b60405180910390f35b61032b60048036038101906103269190611444565b6108d2565b60405161033891906119c0565b60405180910390f35b61035b6004803603810190610356919061141b565b610959565b005b60007f36372b07000000000000000000000000000000000000000000000000000000007bffffffffffffffffffffffffffffffffffffffffffffffffffffffff1916827bffffffffffffffffffffffffffffffffffffffffffffffffffffffff1916148061042857507fa219a025000000000000000000000000000000000000000000000000000000007bffffffffffffffffffffffffffffffffffffffffffffffffffffffff1916827bffffffffffffffffffffffffffffffffffffffffffffffffffffffff1916145b806104385750610437826109dd565b5b9050919050565b60606004805461044e90611b1c565b80601f016020809104026020016040519081016040528092919081815260200182805461047a90611b1c565b80156104c75780601f1061049c576101008083540402835291602001916104c7565b820191906000526020600020905b8154815290600101906020018083116104aa57829003601f168201915b5050505050905090565b6000806104dc610a47565b90506104e9818585610a4f565b600191505092915050565b6000600354905090565b600060019054906101000a900460ff166105265760008054906101000a900460ff161561052f565b61052e610c1a565b5b61056e576040517f08c379a0000000000000000000000000000000000000000000000000000000008152600401610565906118e0565b60405180910390fd5b60008060019054906101000a900460ff1615905080156105be576001600060016101000a81548160ff02191690831515021790555060016000806101000a81548160ff0219169083151502179055505b6105c6610c2b565b61065887878080601f016020809104026020016040519081016040528093929190818152602001838380828437600081840152601f19601f8201169050808301925050505050505086868080601f016020809104026020016040519081016040528093929190818152602001838380828437600081840152601f19601f82011690508083019250505050505050610ca9565b61066c61066361077c565b62476940610d06565b6106798362026160610d06565b6106868262058de0610d06565b80156106a75760008060016101000a81548160ff0219169083151502179055505b50505050505050565b6000806106bb610a47565b90506106c8858285610d1c565b6106d3858585610da8565b60019150509392505050565b60006009905090565b6000806106f3610a47565b905061071481858561070585896108d2565b61070f9190611a12565b610a4f565b600191505092915050565b6000600160008373ffffffffffffffffffffffffffffffffffffffff1673ffffffffffffffffffffffffffffffffffffffff168152602001908152602001600020549050919050565b610770610c2b565b61077a6000611023565b565b6000600660009054906101000a900473ffffffffffffffffffffffffffffffffffffffff16905090565b6060600580546107b590611b1c565b80601f01602080910402602001604051908101604052809291908181526020018280546107e190611b1c565b801561082e5780601f106108035761010080835404028352916020019161082e565b820191906000526020600020905b81548152906001019060200180831161081157829003601f168201915b5050505050905090565b600080610843610a47565b9050600061085182866108d2565b905083811015610896576040517f08c379a000000000000000000000000000000000000000000000000000000000815260040161088d90611980565b60405180910390fd5b6108a38286868403610a4f565b60019250505092915050565b6000806108ba610a47565b90506108c7818585610da8565b600191505092915050565b6000600260008473ffffffffffffffffffffffffffffffffffffffff1673ffffffffffffffffffffffffffffffffffffffff16815260200190815260200160002060008373ffffffffffffffffffffffffffffffffffffffff1673ffffffffffffffffffffffffffffffffffffffff16815260200190815260200160002054905092915050565b610961610c2b565b600073ffffffffffffffffffffffffffffffffffffffff168173ffffffffffffffffffffffffffffffffffffffff1614156109d1576040517f08c379a00000000000000000000000000000000000000000000000000000000081526004016109c890611860565b60405180910390fd5b6109da81611023565b50565b60007f01ffc9a7000000000000000000000000000000000000000000000000000000007bffffffffffffffffffffffffffffffffffffffffffffffffffffffff1916827bffffffffffffffffffffffffffffffffffffffffffffffffffffffff1916149050919050565b600033905090565b600073ffffffffffffffffffffffffffffffffffffffff168373ffffffffffffffffffffffffffffffffffffffff161415610abf576040517f08c379a0000000000000000000000000000000000000000000000000000000008152600401610ab690611940565b60405180910390fd5b600073ffffffffffffffffffffffffffffffffffffffff168273ffffffffffffffffffffffffffffffffffffffff161415610b2f576040517f08c379a0000000000000000000000000000000000000000000000000000000008152600401610b2690611880565b60405180910390fd5b80600260008573ffffffffffffffffffffffffffffffffffffffff1673ffffffffffffffffffffffffffffffffffffffff16815260200190815260200160002060008473ffffffffffffffffffffffffffffffffffffffff1673ffffffffffffffffffffffffffffffffffffffff168152602001908152602001600020819055508173ffffffffffffffffffffffffffffffffffffffff168373ffffffffffffffffffffffffffffffffffffffff167f8c5be1e5ebec7d5bd14f71427d1e84f3dd0314c0f7b2291e5b200ac8c7c3b92583604051610c0d91906119c0565b60405180910390a3505050565b6000610c25306110e9565b15905090565b610c33610a47565b73ffffffffffffffffffffffffffffffffffffffff16610c5161077c565b73ffffffffffffffffffffffffffffffffffffffff1614610ca7576040517f08c379a0000000000000000000000000000000000000000000000000000000008152600401610c9e90611900565b60405180910390fd5b565b600060019054906101000a900460ff16610cf8576040517f08c379a0000000000000000000000000000000000000000000000000000000008152600401610cef90611960565b60405180910390fd5b610d02828261110c565b5050565b610d0e610c2b565b610d18828261118d565b5050565b6000610d2884846108d2565b90507fffffffffffffffffffffffffffffffffffffffffffffffffffffffffffffffff8114610da25781811015610d94576040517f08c379a0000000000000000000000000000000000000000000000000000000008152600401610d8b906118a0565b60405180910390fd5b610da18484848403610a4f565b5b50505050565b600073ffffffffffffffffffffffffffffffffffffffff168373ffffffffffffffffffffffffffffffffffffffff161415610e18576040517f08c379a0000000000000000000000000000000000000000000000000000000008152600401610e0f90611920565b60405180910390fd5b600073ffffffffffffffffffffffffffffffffffffffff168273ffffffffffffffffffffffffffffffffffffffff161415610e88576040517f08c379a0000000000000000000000000000000000000000000000000000000008152600401610e7f90611840565b60405180910390fd5b610e938383836112e5565b6000600160008573ffffffffffffffffffffffffffffffffffffffff1673ffffffffffffffffffffffffffffffffffffffff16815260200190815260200160002054905081811015610f1a576040517f08c379a0000000000000000000000000000000000000000000000000000000008152600401610f11906118c0565b60405180910390fd5b818103600160008673ffffffffffffffffffffffffffffffffffffffff1673ffffffffffffffffffffffffffffffffffffffff1681526020019081526020016000208190555081600160008573ffffffffffffffffffffffffffffffffffffffff1673ffffffffffffffffffffffffffffffffffffffff168152602001908152602001600020600082825401925050819055508273ffffffffffffffffffffffffffffffffffffffff168473ffffffffffffffffffffffffffffffffffffffff167fddf252ad1be2c89b69c2b068fc378daa952ba7f163c4a11628f55a4df523b3ef8460405161100a91906119c0565b60405180910390a361101d8484846112ea565b50505050565b6000600660009054906101000a900473ffffffffffffffffffffffffffffffffffffffff16905081600660006101000a81548173ffffffffffffffffffffffffffffffffffffffff021916908373ffffffffffffffffffffffffffffffffffffffff1602179055508173ffffffffffffffffffffffffffffffffffffffff168173ffffffffffffffffffffffffffffffffffffffff167f8be0079c531659141344cd1fd0a4f28419497f9722a3daafe3b4186f6b6457e060405160405180910390a35050565b6000808273ffffffffffffffffffffffffffffffffffffffff163b119050919050565b600060019054906101000a900460ff1661115b576040517f08c379a000000000000000000000000000000000000000000000000000000000815260040161115290611960565b60405180910390fd5b81600490805190602001906111719291906112ef565b5080600590805190602001906111889291906112ef565b505050565b600073ffffffffffffffffffffffffffffffffffffffff168273ffffffffffffffffffffffffffffffffffffffff1614156111fd576040517f08c379a00000000000000000000000000000000000000000000000000000000081526004016111f4906119a0565b60405180910390fd5b611209600083836112e5565b806003600082825461121b9190611a12565b9250508190555080600160008473ffffffffffffffffffffffffffffffffffffffff1673ffffffffffffffffffffffffffffffffffffffff168152602001908152602001600020600082825401925050819055508173ffffffffffffffffffffffffffffffffffffffff16600073ffffffffffffffffffffffffffffffffffffffff167fddf252ad1be2c89b69c2b068fc378daa952ba7f163c4a11628f55a4df523b3ef836040516112cd91906119c0565b60405180910390a36112e1600083836112ea565b5050565b505050565b505050565b8280546112fb90611b1c565b90600052602060002090601f01602090048101928261131d5760008555611364565b82601f1061133657805160ff1916838001178555611364565b82800160010185558215611364579182015b82811115611363578251825591602001919060010190611348565b5b5090506113719190611375565b5090565b5b8082111561138e576000816000905550600101611376565b5090565b6000813590506113a181611eff565b92915050565b6000813590506113b681611f16565b92915050565b60008083601f8401126113ce57600080fd5b8235905067ffffffffffffffff8111156113e757600080fd5b6020830191508360018202830111156113ff57600080fd5b9250929050565b60008135905061141581611f2d565b92915050565b60006020828403121561142d57600080fd5b600061143b84828501611392565b91505092915050565b6000806040838503121561145757600080fd5b600061146585828601611392565b925050602061147685828601611392565b9150509250929050565b60008060006060848603121561149557600080fd5b60006114a386828701611392565b93505060206114b486828701611392565b92505060406114c586828701611406565b9150509250925092565b600080604083850312156114e257600080fd5b60006114f085828601611392565b925050602061150185828601611406565b9150509250929050565b60006020828403121561151d57600080fd5b600061152b848285016113a7565b91505092915050565b6000806000806000806080878903121561154d57600080fd5b600087013567ffffffffffffffff81111561156757600080fd5b61157389828a016113bc565b9650965050602087013567ffffffffffffffff81111561159257600080fd5b61159e89828a016113bc565b945094505060406115b189828a01611392565b92505060606115c289828a01611392565b9150509295509295509295565b6115d881611a68565b82525050565b6115e781611a7a565b82525050565b60006115f8826119f6565b6116028185611a01565b9350611612818560208601611ae9565b61161b81611bac565b840191505092915050565b6000611633602383611a01565b915061163e82611bbd565b604082019050919050565b6000611656602683611a01565b915061166182611c0c565b604082019050919050565b6000611679602283611a01565b915061168482611c5b565b604082019050919050565b600061169c601d83611a01565b91506116a782611caa565b602082019050919050565b60006116bf602683611a01565b91506116ca82611cd3565b604082019050919050565b60006116e2602e83611a01565b91506116ed82611d22565b604082019050919050565b6000611705602083611a01565b915061171082611d71565b602082019050919050565b6000611728602583611a01565b915061173382611d9a565b604082019050919050565b600061174b602483611a01565b915061175682611de9565b604082019050919050565b600061176e602b83611a01565b915061177982611e38565b604082019050919050565b6000611791602583611a01565b915061179c82611e87565b604082019050919050565b60006117b4601f83611a01565b91506117bf82611ed6565b602082019050919050565b6117d381611ad2565b82525050565b6117e281611adc565b82525050565b60006020820190506117fd60008301846115cf565b92915050565b600060208201905061181860008301846115de565b92915050565b6000602082019050818103600083015261183881846115ed565b905092915050565b6000602082019050818103600083015261185981611626565b9050919050565b6000602082019050818103600083015261187981611649565b9050919050565b600060208201905081810360008301526118998161166c565b9050919050565b600060208201905081810360008301526118b98161168f565b9050919050565b600060208201905081810360008301526118d9816116b2565b9050919050565b600060208201905081810360008301526118f9816116d5565b9050919050565b60006020820190508181036000830152611919816116f8565b9050919050565b600060208201905081810360008301526119398161171b565b9050919050565b600060208201905081810360008301526119598161173e565b9050919050565b6000602082019050818103600083015261197981611761565b9050919050565b6000602082019050818103600083015261199981611784565b9050919050565b600060208201905081810360008301526119b9816117a7565b9050919050565b60006020820190506119d560008301846117ca565b92915050565b60006020820190506119f060008301846117d9565b92915050565b600081519050919050565b600082825260208201905092915050565b6000611a1d82611ad2565b9150611a2883611ad2565b9250827fffffffffffffffffffffffffffffffffffffffffffffffffffffffffffffffff03821115611a5d57611a5c611b4e565b5b828201905092915050565b6000611a7382611ab2565b9050919050565b60008115159050919050565b60007fffffffff0000000000000000000000000000000000000000000000000000000082169050919050565b600073ffffffffffffffffffffffffffffffffffffffff82169050919050565b6000819050919050565b600060ff82169050919050565b60005b83811015611b07578082015181840152602081019050611aec565b83811115611b16576000848401525b50505050565b60006002820490506001821680611b3457607f821691505b60208210811415611b4857611b47611b7d565b5b50919050565b7f4e487b7100000000000000000000000000000000000000000000000000000000600052601160045260246000fd5b7f4e487b7100000000000000000000000000000000000000000000000000000000600052602260045260246000fd5b6000601f19601f8301169050919050565b7f45524332303a207472616e7366657220746f20746865207a65726f206164647260008201527f6573730000000000000000000000000000000000000000000000000000000000602082015250565b7f4f776e61626c653a206e6577206f776e657220697320746865207a65726f206160008201527f6464726573730000000000000000000000000000000000000000000000000000602082015250565b7f45524332303a20617070726f766520746f20746865207a65726f20616464726560008201527f7373000000000000000000000000000000000000000000000000000000000000602082015250565b7f45524332303a20696e73756666696369656e7420616c6c6f77616e6365000000600082015250565b7f45524332303a207472616e7366657220616d6f756e742065786365656473206260008201527f616c616e63650000000000000000000000000000000000000000000000000000602082015250565b7f496e697469616c697a61626c653a20636f6e747261637420697320616c72656160008201527f647920696e697469616c697a6564000000000000000000000000000000000000602082015250565b7f4f776e61626c653a2063616c6c6572206973206e6f7420746865206f776e6572600082015250565b7f45524332303a207472616e736665722066726f6d20746865207a65726f20616460008201527f6472657373000000000000000000000000000000000000000000000000000000602082015250565b7f45524332303a20617070726f76652066726f6d20746865207a65726f2061646460008201527f7265737300000000000000000000000000000000000000000000000000000000602082015250565b7f496e697469616c697a61626c653a20636f6e7472616374206973206e6f74206960008201527f6e697469616c697a696e67000000000000000000000000000000000000000000602082015250565b7f45524332303a2064656372656173656420616c6c6f77616e63652062656c6f7760008201527f207a65726f000000000000000000000000000000000000000000000000000000602082015250565b7f45524332303a206d696e7420746f20746865207a65726f206164647265737300600082015250565b611f0881611a68565b8114611f1357600080fd5b50565b611f1f81611a86565b8114611f2a57600080fd5b50565b611f3681611ad2565b8114611f4157600080fd5b5056fea26469706673582212202696db232f6515f447b351bc0a0f90670b440102c429e3a7591e40c41032bc9864736f6c63430008010033",
  "linkReferences": {},
  "deployedLinkReferences": {},
  "immutableReferences": {},
  "inputSourceName": "project/contracts/TCF.sol",
  "devdoc": {
    "kind": "dev",
    "methods": {
      "allowance(address,address)": {
        "details": "See {IERC20-allowance}."
      },
      "approve(address,uint256)": {
        "details": "See {IERC20-approve}. NOTE: If `amount` is the maximum `uint256`, the allowance is not updated on `transferFrom`. This is semantically equivalent to an infinite approval. Requirements: - `spender` cannot be the zero address."
      },
      "balanceOf(address)": {
        "details": "See {IERC20-balanceOf}."
      },
      "decimals()": {
        "details": "Returns the number of decimals used to get its user representation. For example, if `decimals` equals `2`, a balance of `505` tokens should be displayed to a user as `5.05` (`505 / 10 ** 2`). Tokens usually opt for a value of 18, imitating the relationship between Ether and Wei. This is the default value returned by this function, unless it's overridden. NOTE: This information is only used for _display_ purposes: it in no way affects any of the arithmetic of the contract, including {IERC20-balanceOf} and {IERC20-transfer}."
      },
      "decreaseAllowance(address,uint256)": {
        "details": "Atomically decreases the allowance granted to `spender` by the caller. This is an alternative to {approve} that can be used as a mitigation for problems described in {IERC20-approve}. Emits an {Approval} event indicating the updated allowance. Requirements: - `spender` cannot be the zero address. - `spender` must have allowance for the caller of at least `subtractedValue`."
      },
      "increaseAllowance(address,uint256)": {
        "details": "Atomically increases the allowance granted to `spender` by the caller. This is an alternative to {approve} that can be used as a mitigation for problems described in {IERC20-approve}. Emits an {Approval} event indicating the updated allowance. Requirements: - `spender` cannot be the zero address."
      },
      "name()": {
        "details": "Returns the name of the token."
      },
      "owner()": {
        "details": "Returns the address of the current owner."
      },
      "renounceOwnership()": {
        "details": "Leaves the contract without owner. It will not be possible to call `onlyOwner` functions. Can only be called by the current owner. NOTE: Renouncing ownership will leave the contract without an owner, thereby disabling any functionality that is only available to the owner."
      },
      "supportsInterface(bytes4)": {
        "details": "See {IERC165-supportsInterface}."
      },
      "symbol()": {
        "details": "Returns the symbol of the token, usually a shorter version of the name."
      },
      "totalSupply()": {
        "details": "See {IERC20-totalSupply}."
      },
      "transfer(address,uint256)": {
        "details": "See {IERC20-transfer}. Requirements: - `to` cannot be the zero address. - the caller must have a balance of at least `amount`."
      },
      "transferFrom(address,address,uint256)": {
        "details": "See {IERC20-transferFrom}. Emits an {Approval} event indicating the updated allowance. This is not required by the EIP. See the note at the beginning of {ERC20}. NOTE: Does not update the allowance if the current allowance is the maximum `uint256`. Requirements: - `from` and `to` cannot be the zero address. - `from` must have a balance of at least `amount`. - the caller must have allowance for ``from``'s tokens of at least `amount`."
      },
      "transferOwnership(address)": {
        "details": "Transfers ownership of the contract to a new account (`newOwner`). Can only be called by the current owner."
      }
    },
    "version": 1
  },
  "evm": {
    "gasEstimates": {
      "creation": {
        "codeDepositCost": "1611600",
        "executionCost": "infinite",
        "totalCost": "infinite"
      },
      "external": {
        "allowance(address,address)": "infinite",
        "approve(address,uint256)": "infinite",
        "balanceOf(address)": "1564",
        "decimals()": "410",
        "decreaseAllowance(address,uint256)": "infinite",
        "increaseAllowance(address,uint256)": "infinite",
        "initialize(bytes,bytes,address,address)": "infinite",
        "name()": "infinite",
        "owner()": "1289",
        "renounceOwnership()": "24443",
        "supportsInterface(bytes4)": "797",
        "symbol()": "infinite",
        "totalSupply()": "1227",
        "transfer(address,uint256)": "infinite",
        "transferFrom(address,address,uint256)": "infinite",
        "transferOwnership(address)": "24835"
      },
      "internal": {
        "mint(address,uint256)": "infinite"
      }
    }
  },
  "storageLayout": {
    "storage": [
      {
        "astId": 279,
        "contract": "project/contracts/TCF.sol:TCF_copy",
        "label": "_initialized",
        "offset": 0,
        "slot": "0",
        "type": "t_bool"
      },
      {
        "astId": 282,
        "contract": "project/contracts/TCF.sol:TCF_copy",
        "label": "_initializing",
        "offset": 1,
        "slot": "0",
        "type": "t_bool"
      },
      {
        "astId": 369,
        "contract": "project/contracts/TCF.sol:TCF_copy",
        "label": "_balances",
        "offset": 0,
        "slot": "1",
        "type": "t_mapping(t_address,t_uint256)"
      },
      {
        "astId": 375,
        "contract": "project/contracts/TCF.sol:TCF_copy",
        "label": "_allowances",
        "offset": 0,
        "slot": "2",
        "type": "t_mapping(t_address,t_mapping(t_address,t_uint256))"
      },
      {
        "astId": 377,
        "contract": "project/contracts/TCF.sol:TCF_copy",
        "label": "_totalSupply",
        "offset": 0,
        "slot": "3",
        "type": "t_uint256"
      },
      {
        "astId": 379,
        "contract": "project/contracts/TCF.sol:TCF_copy",
        "label": "_name",
        "offset": 0,
        "slot": "4",
        "type": "t_string_storage"
      },
      {
        "astId": 381,
        "contract": "project/contracts/TCF.sol:TCF_copy",
        "label": "_symbol",
        "offset": 0,
        "slot": "5",
        "type": "t_string_storage"
      },
      {
        "astId": 167,
        "contract": "project/contracts/TCF.sol:TCF_copy",
        "label": "_owner",
        "offset": 0,
        "slot": "6",
        "type": "t_address"
      }
    ],
    "types": {
      "t_address": {
        "encoding": "inplace",
        "label": "address",
        "numberOfBytes": "20"
      },
      "t_bool": {
        "encoding": "inplace",
        "label": "bool",
        "numberOfBytes": "1"
      },
      "t_mapping(t_address,t_mapping(t_address,t_uint256))": {
        "encoding": "mapping",
        "key": "t_address",
        "label": "mapping(address => mapping(address => uint256))",
        "numberOfBytes": "32",
        "value": "t_mapping(t_address,t_uint256)"
      },
      "t_mapping(t_address,t_uint256)": {
        "encoding": "mapping",
        "key": "t_address",
        "label": "mapping(address => uint256)",
        "numberOfBytes": "32",
        "value": "t_uint256"
      },
      "t_string_storage": {
        "encoding": "bytes",
        "label": "string",
        "numberOfBytes": "32"
      },
      "t_uint256": {
        "encoding": "inplace",
        "label": "uint256",
        "numberOfBytes": "32"
      }
    }
  },
  "userdoc": {
    "kind": "user",
    "methods": {},
    "version": 1
  },
  "argsData": "0x",
  "transaction": {
    "hash": "0xeb2bef9e8a5f27f155e4a8586ce14d61764bb53a147986738641c0a2a2e02e02",
    "nonce": "0x2",
    "origin": "0xf39fd6e51aad88f6f4ce6ab8827279cfffb92266"
  }
}