{
  "address": "0xcf7ed3acca5a467e9e704c703e8d87f634fb0fc9",
  "abi": [
    {
      "inputs": [],
      "stateMutability": "nonpayable",
      "type": "constructor"
    },
    {
      "anonymous": false,
      "inputs": [
        {
          "indexed": true,
          "internalType": "address",
          "name": "account",
          "type": "address"
        },
        {
          "indexed": true,
          "internalType": "address",
          "name": "operator",
          "type": "address"
        },
        {
          "indexed": false,
          "internalType": "bool",
          "name": "approved",
          "type": "bool"
        }
      ],
      "name": "ApprovalForAll",
      "type": "event"
    },
    {
      "anonymous": false,
      "inputs": [
        {
          "indexed": true,
          "internalType": "address",
          "name": "previousOwner",
          "type": "address"
        },
        {
          "indexed": true,
          "internalType": "address",
          "name": "newOwner",
          "type": "address"
        }
      ],
      "name": "OwnershipTransferred",
      "type": "event"
    },
    {
      "anonymous": false,
      "inputs": [
        {
          "indexed": false,
          "internalType": "address",
          "name": "account",
          "type": "address"
        }
      ],
      "name": "Paused",
      "type": "event"
    },
    {
      "anonymous": false,
      "inputs": [
        {
          "indexed": true,
          "internalType": "address",
          "name": "operator",
          "type": "address"
        },
        {
          "indexed": true,
          "internalType": "address",
          "name": "from",
          "type": "address"
        },
        {
          "indexed": true,
          "internalType": "address",
          "name": "to",
          "type": "address"
        },
        {
          "indexed": false,
          "internalType": "uint256[]",
          "name": "ids",
          "type": "uint256[]"
        },
        {
          "indexed": false,
          "internalType": "uint256[]",
          "name": "values",
          "type": "uint256[]"
        }
      ],
      "name": "TransferBatch",
      "type": "event"
    },
    {
      "anonymous": false,
      "inputs": [
        {
          "indexed": true,
          "internalType": "address",
          "name": "operator",
          "type": "address"
        },
        {
          "indexed": true,
          "internalType": "address",
          "name": "from",
          "type": "address"
        },
        {
          "indexed": true,
          "internalType": "address",
          "name": "to",
          "type": "address"
        },
        {
          "indexed": false,
          "internalType": "uint256",
          "name": "id",
          "type": "uint256"
        },
        {
          "indexed": false,
          "internalType": "uint256",
          "name": "value",
          "type": "uint256"
        }
      ],
      "name": "TransferSingle",
      "type": "event"
    },
    {
      "anonymous": false,
      "inputs": [
        {
          "indexed": false,
          "internalType": "string",
          "name": "value",
          "type": "string"
        },
        {
          "indexed": true,
          "internalType": "uint256",
          "name": "id",
          "type": "uint256"
        }
      ],
      "name": "URI",
      "type": "event"
    },
    {
      "anonymous": false,
      "inputs": [
        {
          "indexed": false,
          "internalType": "address",
          "name": "account",
          "type": "address"
        }
      ],
      "name": "Unpaused",
      "type": "event"
    },
    {
      "inputs": [
        {
          "internalType": "address",
          "name": "account",
          "type": "address"
        },
        {
          "internalType": "uint256",
          "name": "id",
          "type": "uint256"
        }
      ],
      "name": "balanceOf",
      "outputs": [
        {
          "internalType": "uint256",
          "name": "",
          "type": "uint256"
        }
      ],
      "stateMutability": "view",
      "type": "function"
    },
    {
      "inputs": [
        {
          "internalType": "address[]",
          "name": "accounts",
          "type": "address[]"
        },
        {
          "internalType": "uint256[]",
          "name": "ids",
          "type": "uint256[]"
        }
      ],
      "name": "balanceOfBatch",
      "outputs": [
        {
          "internalType": "uint256[]",
          "name": "",
          "type": "uint256[]"
        }
      ],
      "stateMutability": "view",
      "type": "function"
    },
    {
      "inputs": [
        {
          "internalType": "uint256",
          "name": "id",
          "type": "uint256"
        }
      ],
      "name": "exists",
      "outputs": [
        {
          "internalType": "bool",
          "name": "",
          "type": "bool"
        }
      ],
      "stateMutability": "view",
      "type": "function"
    },
    {
      "inputs": [
        {
          "internalType": "address",
          "name": "account",
          "type": "address"
        },
        {
          "internalType": "address",
          "name": "operator",
          "type": "address"
        }
      ],
      "name": "isApprovedForAll",
      "outputs": [
        {
          "internalType": "bool",
          "name": "",
          "type": "bool"
        }
      ],
      "stateMutability": "view",
      "type": "function"
    },
    {
      "inputs": [
        {
          "internalType": "address",
          "name": "account",
          "type": "address"
        },
        {
          "internalType": "uint256",
          "name": "id",
          "type": "uint256"
        },
        {
          "internalType": "uint256",
          "name": "amount",
          "type": "uint256"
        },
        {
          "internalType": "bytes",
          "name": "data",
          "type": "bytes"
        }
      ],
      "name": "mint",
      "outputs": [],
      "stateMutability": "nonpayable",
      "type": "function"
    },
    {
      "inputs": [
        {
          "internalType": "address",
          "name": "to",
          "type": "address"
        },
        {
          "internalType": "uint256[]",
          "name": "ids",
          "type": "uint256[]"
        },
        {
          "internalType": "uint256[]",
          "name": "amounts",
          "type": "uint256[]"
        },
        {
          "internalType": "bytes",
          "name": "data",
          "type": "bytes"
        }
      ],
      "name": "mintBatch",
      "outputs": [],
      "stateMutability": "nonpayable",
      "type": "function"
    },
    {
      "inputs": [],
      "name": "owner",
      "outputs": [
        {
          "internalType": "address",
          "name": "",
          "type": "address"
        }
      ],
      "stateMutability": "view",
      "type": "function"
    },
    {
      "inputs": [],
      "name": "pause",
      "outputs": [],
      "stateMutability": "nonpayable",
      "type": "function"
    },
    {
      "inputs": [],
      "name": "paused",
      "outputs": [
        {
          "internalType": "bool",
          "name": "",
          "type": "bool"
        }
      ],
      "stateMutability": "view",
      "type": "function"
    },
    {
      "inputs": [],
      "name": "renounceOwnership",
      "outputs": [],
      "stateMutability": "nonpayable",
      "type": "function"
    },
    {
      "inputs": [
        {
          "internalType": "address",
          "name": "from",
          "type": "address"
        },
        {
          "internalType": "address",
          "name": "to",
          "type": "address"
        },
        {
          "internalType": "uint256[]",
          "name": "ids",
          "type": "uint256[]"
        },
        {
          "internalType": "uint256[]",
          "name": "amounts",
          "type": "uint256[]"
        },
        {
          "internalType": "bytes",
          "name": "data",
          "type": "bytes"
        }
      ],
      "name": "safeBatchTransferFrom",
      "outputs": [],
      "stateMutability": "nonpayable",
      "type": "function"
    },
    {
      "inputs": [
        {
          "internalType": "address",
          "name": "from",
          "type": "address"
        },
        {
          "internalType": "address",
          "name": "to",
          "type": "address"
        },
        {
          "internalType": "uint256",
          "name": "id",
          "type": "uint256"
        },
        {
          "internalType": "uint256",
          "name": "amount",
          "type": "uint256"
        },
        {
          "internalType": "bytes",
          "name": "data",
          "type": "bytes"
        }
      ],
      "name": "safeTransferFrom",
      "outputs": [],
      "stateMutability": "nonpayable",
      "type": "function"
    },
    {
      "inputs": [
        {
          "internalType": "address",
          "name": "operator",
          "type": "address"
        },
        {
          "internalType": "bool",
          "name": "approved",
          "type": "bool"
        }
      ],
      "name": "setApprovalForAll",
      "outputs": [],
      "stateMutability": "nonpayable",
      "type": "function"
    },
    {
      "inputs": [
        {
          "internalType": "uint256[]",
          "name": "tokenIds",
          "type": "uint256[]"
        },
        {
          "internalType": "bytes[]",
          "name": "URIs",
          "type": "bytes[]"
        }
      ],
      "name": "setTokenURI",
      "outputs": [],
      "stateMutability": "nonpayable",
      "type": "function"
    },
    {
      "inputs": [
        {
          "internalType": "bytes4",
          "name": "interfaceId",
          "type": "bytes4"
        }
      ],
      "name": "supportsInterface",
      "outputs": [
        {
          "internalType": "bool",
          "name": "",
          "type": "bool"
        }
      ],
      "stateMutability": "view",
      "type": "function"
    },
    {
      "inputs": [
        {
          "internalType": "uint256",
          "name": "id",
          "type": "uint256"
        }
      ],
      "name": "totalSupply",
      "outputs": [
        {
          "internalType": "uint256",
          "name": "",
          "type": "uint256"
        }
      ],
      "stateMutability": "view",
      "type": "function"
    },
    {
      "inputs": [
        {
          "internalType": "address",
          "name": "newOwner",
          "type": "address"
        }
      ],
      "name": "transferOwnership",
      "outputs": [],
      "stateMutability": "nonpayable",
      "type": "function"
    },
    {
      "inputs": [],
      "name": "unpause",
      "outputs": [],
      "stateMutability": "nonpayable",
      "type": "function"
    },
    {
      "inputs": [
        {
          "internalType": "uint256",
          "name": "tokenId",
          "type": "uint256"
        }
      ],
      "name": "uri",
      "outputs": [
        {
          "internalType": "string",
          "name": "",
          "type": "string"
        }
      ],
      "stateMutability": "view",
      "type": "function"
    }
  ],
  "contractName": "TCF_NFT",
  "sourceName": "contracts/TCF_NFT.sol",
  "bytecode": "0x608060405260405180602001604052806000815250600590805190602001906200002b92919062000149565b503480156200003957600080fd5b506200005a6200004e6200007b60201b60201c565b6200008360201b60201c565b6000600760006101000a81548160ff0219169083151502179055506200025e565b600033905090565b6000600460009054906101000a900473ffffffffffffffffffffffffffffffffffffffff16905081600460006101000a81548173ffffffffffffffffffffffffffffffffffffffff021916908373ffffffffffffffffffffffffffffffffffffffff1602179055508173ffffffffffffffffffffffffffffffffffffffff168173ffffffffffffffffffffffffffffffffffffffff167f8be0079c531659141344cd1fd0a4f28419497f9722a3daafe3b4186f6b6457e060405160405180910390a35050565b8280546200015790620001f9565b90600052602060002090601f0160209004810192826200017b5760008555620001c7565b82601f106200019657805160ff1916838001178555620001c7565b82800160010185558215620001c7579182015b82811115620001c6578251825591602001919060010190620001a9565b5b509050620001d69190620001da565b5090565b5b80821115620001f5576000816000905550600101620001db565b5090565b600060028204905060018216806200021257607f821691505b602082108114156200022957620002286200022f565b5b50919050565b7f4e487b7100000000000000000000000000000000000000000000000000000000600052602260045260246000fd5b613df0806200026e6000396000f3fe608060405234801561001057600080fd5b50600436106101205760003560e01c8063715018a6116100ad578063a22cb46511610071578063a22cb465146102df578063bd85b039146102fb578063e985e9c51461032b578063f242432a1461035b578063f2fde38b1461037757610120565b8063715018a614610275578063731133e91461027f57806378f91b9c1461029b5780638456cb59146102b75780638da5cb5b146102c157610120565b80632eb2c2d6116100f45780632eb2c2d6146101d15780633f4ba83a146101ed5780634e1273f4146101f75780634f558e79146102275780635c975abb1461025757610120565b8062fdd58e1461012557806301ffc9a7146101555780630e89341c146101855780631f7fdffa146101b5575b600080fd5b61013f600480360381019061013a91906129ab565b610393565b60405161014c919061339c565b60405180910390f35b61016f600480360381019061016a9190612b43565b61045d565b60405161017c919061313f565b60405180910390f35b61019f600480360381019061019a9190612b95565b61053f565b6040516101ac919061315a565b60405180910390f35b6101cf60048036038101906101ca91906128c4565b610551565b005b6101eb60048036038101906101e69190612776565b61056b565b005b6101f561060c565b005b610211600480360381019061020c9190612a62565b61061e565b60405161021e91906130e6565b60405180910390f35b610241600480360381019061023c9190612b95565b6107cf565b60405161024e919061313f565b60405180910390f35b61025f6107e3565b60405161026c919061313f565b60405180910390f35b61027d6107fa565b005b610299600480360381019061029491906129e7565b61080e565b005b6102b560048036038101906102b09190612ace565b610820565b005b6102bf610973565b005b6102c9610985565b6040516102d69190613009565b60405180910390f35b6102f960048036038101906102f4919061296f565b6109af565b005b61031560048036038101906103109190612b95565b6109c5565b604051610322919061339c565b60405180910390f35b6103456004803603810190610340919061273a565b6109e2565b604051610352919061313f565b60405180910390f35b61037560048036038101906103709190612835565b610a76565b005b610391600480360381019061038c9190612711565b610b17565b005b60008073ffffffffffffffffffffffffffffffffffffffff168373ffffffffffffffffffffffffffffffffffffffff161415610404576040517f08c379a00000000000000000000000000000000000000000000000000000000081526004016103fb906131fc565b60405180910390fd5b6001600083815260200190815260200160002060008473ffffffffffffffffffffffffffffffffffffffff1673ffffffffffffffffffffffffffffffffffffffff16815260200190815260200160002054905092915050565b60007fd9b67a26000000000000000000000000000000000000000000000000000000007bffffffffffffffffffffffffffffffffffffffffffffffffffffffff1916827bffffffffffffffffffffffffffffffffffffffffffffffffffffffff1916148061052857507f0e89341c000000000000000000000000000000000000000000000000000000007bffffffffffffffffffffffffffffffffffffffffffffffffffffffff1916827bffffffffffffffffffffffffffffffffffffffffffffffffffffffff1916145b80610538575061053782610b9b565b5b9050919050565b606061054a82610c05565b9050919050565b610559610cea565b61056584848484610d68565b50505050565b610573610fe2565b73ffffffffffffffffffffffffffffffffffffffff168573ffffffffffffffffffffffffffffffffffffffff1614806105b957506105b8856105b3610fe2565b6109e2565b5b6105f8576040517f08c379a00000000000000000000000000000000000000000000000000000000081526004016105ef9061321c565b60405180910390fd5b6106058585858585610fea565b5050505050565b610614610cea565b61061c61135b565b565b60608151835114610664576040517f08c379a000000000000000000000000000000000000000000000000000000000815260040161065b9061331c565b60405180910390fd5b6000835167ffffffffffffffff8111156106a7577f4e487b7100000000000000000000000000000000000000000000000000000000600052604160045260246000fd5b6040519080825280602002602001820160405280156106d55781602001602082028036833780820191505090505b50905060005b84518110156107c45761076e858281518110610720577f4e487b7100000000000000000000000000000000000000000000000000000000600052603260045260246000fd5b6020026020010151858381518110610761577f4e487b7100000000000000000000000000000000000000000000000000000000600052603260045260246000fd5b6020026020010151610393565b8282815181106107a7577f4e487b7100000000000000000000000000000000000000000000000000000000600052603260045260246000fd5b602002602001018181525050806107bd906136e5565b90506106db565b508091505092915050565b6000806107db836109c5565b119050919050565b6000600760009054906101000a900460ff16905090565b610802610cea565b61080c60006113be565b565b61081a84848484611484565b50505050565b610828610cea565b81819050848490501415610871576040517f08c379a0000000000000000000000000000000000000000000000000000000008152600401610868906132dc565b60405180910390fd5b600084849050905060005b8181101561096b5761095a8686838181106108c0577f4e487b7100000000000000000000000000000000000000000000000000000000600052603260045260246000fd5b90506020020135858584818110610900577f4e487b7100000000000000000000000000000000000000000000000000000000600052603260045260246000fd5b905060200281019061091291906133e0565b8080601f016020809104026020016040519081016040528093929190818152602001838380828437600081840152601f19601f82011690508083019250505050505050611636565b80610964906136e5565b905061087c565b505050505050565b61097b610cea565b6109836116a2565b565b6000600460009054906101000a900473ffffffffffffffffffffffffffffffffffffffff16905090565b6109c16109ba610fe2565b8383611705565b5050565b600060086000838152602001908152602001600020549050919050565b6000600260008473ffffffffffffffffffffffffffffffffffffffff1673ffffffffffffffffffffffffffffffffffffffff16815260200190815260200160002060008373ffffffffffffffffffffffffffffffffffffffff1673ffffffffffffffffffffffffffffffffffffffff16815260200190815260200160002060009054906101000a900460ff16905092915050565b610a7e610fe2565b73ffffffffffffffffffffffffffffffffffffffff168573ffffffffffffffffffffffffffffffffffffffff161480610ac45750610ac385610abe610fe2565b6109e2565b5b610b03576040517f08c379a0000000000000000000000000000000000000000000000000000000008152600401610afa9061321c565b60405180910390fd5b610b108585858585611872565b5050505050565b610b1f610cea565b600073ffffffffffffffffffffffffffffffffffffffff168173ffffffffffffffffffffffffffffffffffffffff161415610b8f576040517f08c379a0000000000000000000000000000000000000000000000000000000008152600401610b86906131bc565b60405180910390fd5b610b98816113be565b50565b60007f01ffc9a7000000000000000000000000000000000000000000000000000000007bffffffffffffffffffffffffffffffffffffffffffffffffffffffff1916827bffffffffffffffffffffffffffffffffffffffffffffffffffffffff1916149050919050565b60606000600660008481526020019081526020016000208054610c2790613682565b80601f0160208091040260200160405190810160405280929190818152602001828054610c5390613682565b8015610ca05780601f10610c7557610100808354040283529160200191610ca0565b820191906000526020600020905b815481529060010190602001808311610c8357829003601f168201915b505050505090506000815111610cbe57610cb983611b11565b610ce2565b600581604051602001610cd2929190612fe5565b6040516020818303038152906040525b915050919050565b610cf2610fe2565b73ffffffffffffffffffffffffffffffffffffffff16610d10610985565b73ffffffffffffffffffffffffffffffffffffffff1614610d66576040517f08c379a0000000000000000000000000000000000000000000000000000000008152600401610d5d9061329c565b60405180910390fd5b565b600073ffffffffffffffffffffffffffffffffffffffff168473ffffffffffffffffffffffffffffffffffffffff161415610dd8576040517f08c379a0000000000000000000000000000000000000000000000000000000008152600401610dcf9061335c565b60405180910390fd5b8151835114610e1c576040517f08c379a0000000000000000000000000000000000000000000000000000000008152600401610e139061333c565b60405180910390fd5b6000610e26610fe2565b9050610e3781600087878787611ba5565b60005b8451811015610f3d57838181518110610e7c577f4e487b7100000000000000000000000000000000000000000000000000000000600052603260045260246000fd5b602002602001015160016000878481518110610ec1577f4e487b7100000000000000000000000000000000000000000000000000000000600052603260045260246000fd5b6020026020010151815260200190815260200160002060008873ffffffffffffffffffffffffffffffffffffffff1673ffffffffffffffffffffffffffffffffffffffff1681526020019081526020016000206000828254610f239190613576565b925050819055508080610f35906136e5565b915050610e3a565b508473ffffffffffffffffffffffffffffffffffffffff16600073ffffffffffffffffffffffffffffffffffffffff168273ffffffffffffffffffffffffffffffffffffffff167f4a39dc06d4c0dbc64b70af90fd698a233a518aa5d07e595d983b8c0526c8f7fb8787604051610fb5929190613108565b60405180910390a4610fcc81600087878787611bbb565b610fdb81600087878787611bc3565b5050505050565b600033905090565b815183511461102e576040517f08c379a00000000000000000000000000000000000000000000000000000000081526004016110259061333c565b60405180910390fd5b600073ffffffffffffffffffffffffffffffffffffffff168473ffffffffffffffffffffffffffffffffffffffff16141561109e576040517f08c379a00000000000000000000000000000000000000000000000000000000081526004016110959061325c565b60405180910390fd5b60006110a8610fe2565b90506110b8818787878787611ba5565b60005b84518110156112b85760008582815181106110ff577f4e487b7100000000000000000000000000000000000000000000000000000000600052603260045260246000fd5b602002602001015190506000858381518110611144577f4e487b7100000000000000000000000000000000000000000000000000000000600052603260045260246000fd5b6020026020010151905060006001600084815260200190815260200160002060008b73ffffffffffffffffffffffffffffffffffffffff1673ffffffffffffffffffffffffffffffffffffffff168152602001908152602001600020549050818110156111e6576040517f08c379a00000000000000000000000000000000000000000000000000000000081526004016111dd9061327c565b60405180910390fd5b8181036001600085815260200190815260200160002060008c73ffffffffffffffffffffffffffffffffffffffff1673ffffffffffffffffffffffffffffffffffffffff16815260200190815260200160002081905550816001600085815260200190815260200160002060008b73ffffffffffffffffffffffffffffffffffffffff1673ffffffffffffffffffffffffffffffffffffffff168152602001908152602001600020600082825461129d9190613576565b92505081905550505050806112b1906136e5565b90506110bb565b508473ffffffffffffffffffffffffffffffffffffffff168673ffffffffffffffffffffffffffffffffffffffff168273ffffffffffffffffffffffffffffffffffffffff167f4a39dc06d4c0dbc64b70af90fd698a233a518aa5d07e595d983b8c0526c8f7fb878760405161132f929190613108565b60405180910390a4611345818787878787611bbb565b611353818787878787611bc3565b505050505050565b611363611daa565b6000600760006101000a81548160ff0219169083151502179055507f5db9ee0a495bf2e6ff9c91a7834c1ba4fdd244a5e8aa4e537bd38aeae4b073aa6113a7610fe2565b6040516113b49190613009565b60405180910390a1565b6000600460009054906101000a900473ffffffffffffffffffffffffffffffffffffffff16905081600460006101000a81548173ffffffffffffffffffffffffffffffffffffffff021916908373ffffffffffffffffffffffffffffffffffffffff1602179055508173ffffffffffffffffffffffffffffffffffffffff168173ffffffffffffffffffffffffffffffffffffffff167f8be0079c531659141344cd1fd0a4f28419497f9722a3daafe3b4186f6b6457e060405160405180910390a35050565b600073ffffffffffffffffffffffffffffffffffffffff168473ffffffffffffffffffffffffffffffffffffffff1614156114f4576040517f08c379a00000000000000000000000000000000000000000000000000000000081526004016114eb9061335c565b60405180910390fd5b60006114fe610fe2565b9050600061150b85611df3565b9050600061151885611df3565b905061152983600089858589611ba5565b846001600088815260200190815260200160002060008973ffffffffffffffffffffffffffffffffffffffff1673ffffffffffffffffffffffffffffffffffffffff16815260200190815260200160002060008282546115899190613576565b925050819055508673ffffffffffffffffffffffffffffffffffffffff16600073ffffffffffffffffffffffffffffffffffffffff168473ffffffffffffffffffffffffffffffffffffffff167fc3d58168c5ae7397731d063d5bbf3d657854427343f4c083240f7aacaa2d0f6289896040516116079291906133b7565b60405180910390a461161e83600089858589611bbb565b61162d83600089898989611eb9565b50505050505050565b8060066000848152602001908152602001600020908051906020019061165d9291906123dd565b50817f6bb7ff708619ba0610cba295a58592e0451dee2622938c8755667688daf3529b6116898461053f565b604051611696919061315a565b60405180910390a25050565b6116aa6120a0565b6001600760006101000a81548160ff0219169083151502179055507f62e78cea01bee320cd4e420270b5ea74000d11b0c9f74754ebdbfc544b05a2586116ee610fe2565b6040516116fb9190613009565b60405180910390a1565b8173ffffffffffffffffffffffffffffffffffffffff168373ffffffffffffffffffffffffffffffffffffffff161415611774576040517f08c379a000000000000000000000000000000000000000000000000000000000815260040161176b906132fc565b60405180910390fd5b80600260008573ffffffffffffffffffffffffffffffffffffffff1673ffffffffffffffffffffffffffffffffffffffff16815260200190815260200160002060008473ffffffffffffffffffffffffffffffffffffffff1673ffffffffffffffffffffffffffffffffffffffff16815260200190815260200160002060006101000a81548160ff0219169083151502179055508173ffffffffffffffffffffffffffffffffffffffff168373ffffffffffffffffffffffffffffffffffffffff167f17307eab39ab6107e8899845ad3d59bd9653f200f220920489ca2b5937696c3183604051611865919061313f565b60405180910390a3505050565b600073ffffffffffffffffffffffffffffffffffffffff168473ffffffffffffffffffffffffffffffffffffffff1614156118e2576040517f08c379a00000000000000000000000000000000000000000000000000000000081526004016118d99061325c565b60405180910390fd5b60006118ec610fe2565b905060006118f985611df3565b9050600061190685611df3565b9050611916838989858589611ba5565b60006001600088815260200190815260200160002060008a73ffffffffffffffffffffffffffffffffffffffff1673ffffffffffffffffffffffffffffffffffffffff168152602001908152602001600020549050858110156119ae576040517f08c379a00000000000000000000000000000000000000000000000000000000081526004016119a59061327c565b60405180910390fd5b8581036001600089815260200190815260200160002060008b73ffffffffffffffffffffffffffffffffffffffff1673ffffffffffffffffffffffffffffffffffffffff16815260200190815260200160002081905550856001600089815260200190815260200160002060008a73ffffffffffffffffffffffffffffffffffffffff1673ffffffffffffffffffffffffffffffffffffffff1681526020019081526020016000206000828254611a659190613576565b925050819055508773ffffffffffffffffffffffffffffffffffffffff168973ffffffffffffffffffffffffffffffffffffffff168573ffffffffffffffffffffffffffffffffffffffff167fc3d58168c5ae7397731d063d5bbf3d657854427343f4c083240f7aacaa2d0f628a8a604051611ae29291906133b7565b60405180910390a4611af8848a8a86868a611bbb565b611b06848a8a8a8a8a611eb9565b505050505050505050565b606060038054611b2090613682565b80601f0160208091040260200160405190810160405280929190818152602001828054611b4c90613682565b8015611b995780601f10611b6e57610100808354040283529160200191611b99565b820191906000526020600020905b815481529060010190602001808311611b7c57829003601f168201915b50505050509050919050565b611bb38686868686866120ea565b505050505050565b505050505050565b611be28473ffffffffffffffffffffffffffffffffffffffff16612354565b15611da2578373ffffffffffffffffffffffffffffffffffffffff1663bc197c8187878686866040518663ffffffff1660e01b8152600401611c28959493929190613024565b602060405180830381600087803b158015611c4257600080fd5b505af1925050508015611c7357506040513d601f19601f82011682018060405250810190611c709190612b6c565b60015b611d1957611c7f6137bb565b806308c379a01415611cdc5750611c94613cc8565b80611c9f5750611cde565b806040517f08c379a0000000000000000000000000000000000000000000000000000000008152600401611cd3919061315a565b60405180910390fd5b505b6040517f08c379a0000000000000000000000000000000000000000000000000000000008152600401611d109061337c565b60405180910390fd5b63bc197c8160e01b7bffffffffffffffffffffffffffffffffffffffffffffffffffffffff1916817bffffffffffffffffffffffffffffffffffffffffffffffffffffffff191614611da0576040517f08c379a0000000000000000000000000000000000000000000000000000000008152600401611d979061317c565b60405180910390fd5b505b505050505050565b611db26107e3565b611df1576040517f08c379a0000000000000000000000000000000000000000000000000000000008152600401611de89061319c565b60405180910390fd5b565b60606000600167ffffffffffffffff811115611e38577f4e487b7100000000000000000000000000000000000000000000000000000000600052604160045260246000fd5b604051908082528060200260200182016040528015611e665781602001602082028036833780820191505090505b5090508281600081518110611ea4577f4e487b7100000000000000000000000000000000000000000000000000000000600052603260045260246000fd5b60200260200101818152505080915050919050565b611ed88473ffffffffffffffffffffffffffffffffffffffff16612354565b15612098578373ffffffffffffffffffffffffffffffffffffffff1663f23a6e6187878686866040518663ffffffff1660e01b8152600401611f1e95949392919061308c565b602060405180830381600087803b158015611f3857600080fd5b505af1925050508015611f6957506040513d601f19601f82011682018060405250810190611f669190612b6c565b60015b61200f57611f756137bb565b806308c379a01415611fd25750611f8a613cc8565b80611f955750611fd4565b806040517f08c379a0000000000000000000000000000000000000000000000000000000008152600401611fc9919061315a565b60405180910390fd5b505b6040517f08c379a00000000000000000000000000000000000000000000000000000000081526004016120069061337c565b60405180910390fd5b63f23a6e6160e01b7bffffffffffffffffffffffffffffffffffffffffffffffffffffffff1916817bffffffffffffffffffffffffffffffffffffffffffffffffffffffff191614612096576040517f08c379a000000000000000000000000000000000000000000000000000000000815260040161208d9061317c565b60405180910390fd5b505b505050505050565b6120a86107e3565b156120e8576040517f08c379a00000000000000000000000000000000000000000000000000000000081526004016120df9061323c565b60405180910390fd5b565b6120f8868686868686612377565b600073ffffffffffffffffffffffffffffffffffffffff168573ffffffffffffffffffffffffffffffffffffffff1614156121f65760005b83518110156121f457828181518110612172577f4e487b7100000000000000000000000000000000000000000000000000000000600052603260045260246000fd5b6020026020010151600860008684815181106121b7577f4e487b7100000000000000000000000000000000000000000000000000000000600052603260045260246000fd5b6020026020010151815260200190815260200160002060008282546121dc9190613576565b92505081905550806121ed906136e5565b9050612130565b505b600073ffffffffffffffffffffffffffffffffffffffff168473ffffffffffffffffffffffffffffffffffffffff16141561234c5760005b835181101561234a576000848281518110612272577f4e487b7100000000000000000000000000000000000000000000000000000000600052603260045260246000fd5b6020026020010151905060008483815181106122b7577f4e487b7100000000000000000000000000000000000000000000000000000000600052603260045260246000fd5b602002602001015190506000600860008481526020019081526020016000205490508181101561231c576040517f08c379a0000000000000000000000000000000000000000000000000000000008152600401612313906132bc565b60405180910390fd5b818103600860008581526020019081526020016000208190555050505080612343906136e5565b905061222e565b505b505050505050565b6000808273ffffffffffffffffffffffffffffffffffffffff163b119050919050565b6123858686868686866123d5565b61238d6107e3565b156123cd576040517f08c379a00000000000000000000000000000000000000000000000000000000081526004016123c4906131dc565b60405180910390fd5b505050505050565b505050505050565b8280546123e990613682565b90600052602060002090601f01602090048101928261240b5760008555612452565b82601f1061242457805160ff1916838001178555612452565b82800160010185558215612452579182015b82811115612451578251825591602001919060010190612436565b5b50905061245f9190612463565b5090565b5b8082111561247c576000816000905550600101612464565b5090565b600061249361248e8461345c565b613437565b905080838252602082019050828560208602820111156124b257600080fd5b60005b858110156124e257816124c88882612596565b8452602084019350602083019250506001810190506124b5565b5050509392505050565b60006124ff6124fa84613488565b613437565b9050808382526020820190508285602086028201111561251e57600080fd5b60005b8581101561254e578161253488826126fc565b845260208401935060208301925050600181019050612521565b5050509392505050565b600061256b612566846134b4565b613437565b90508281526020810184848401111561258357600080fd5b61258e848285613640565b509392505050565b6000813590506125a581613d5e565b92915050565b600082601f8301126125bc57600080fd5b81356125cc848260208601612480565b91505092915050565b60008083601f8401126125e757600080fd5b8235905067ffffffffffffffff81111561260057600080fd5b60208301915083602082028301111561261857600080fd5b9250929050565b60008083601f84011261263157600080fd5b8235905067ffffffffffffffff81111561264a57600080fd5b60208301915083602082028301111561266257600080fd5b9250929050565b600082601f83011261267a57600080fd5b813561268a8482602086016124ec565b91505092915050565b6000813590506126a281613d75565b92915050565b6000813590506126b781613d8c565b92915050565b6000815190506126cc81613d8c565b92915050565b600082601f8301126126e357600080fd5b81356126f3848260208601612558565b91505092915050565b60008135905061270b81613da3565b92915050565b60006020828403121561272357600080fd5b600061273184828501612596565b91505092915050565b6000806040838503121561274d57600080fd5b600061275b85828601612596565b925050602061276c85828601612596565b9150509250929050565b600080600080600060a0868803121561278e57600080fd5b600061279c88828901612596565b95505060206127ad88828901612596565b945050604086013567ffffffffffffffff8111156127ca57600080fd5b6127d688828901612669565b935050606086013567ffffffffffffffff8111156127f357600080fd5b6127ff88828901612669565b925050608086013567ffffffffffffffff81111561281c57600080fd5b612828888289016126d2565b9150509295509295909350565b600080600080600060a0868803121561284d57600080fd5b600061285b88828901612596565b955050602061286c88828901612596565b945050604061287d888289016126fc565b935050606061288e888289016126fc565b925050608086013567ffffffffffffffff8111156128ab57600080fd5b6128b7888289016126d2565b9150509295509295909350565b600080600080608085870312156128da57600080fd5b60006128e887828801612596565b945050602085013567ffffffffffffffff81111561290557600080fd5b61291187828801612669565b935050604085013567ffffffffffffffff81111561292e57600080fd5b61293a87828801612669565b925050606085013567ffffffffffffffff81111561295757600080fd5b612963878288016126d2565b91505092959194509250565b6000806040838503121561298257600080fd5b600061299085828601612596565b92505060206129a185828601612693565b9150509250929050565b600080604083850312156129be57600080fd5b60006129cc85828601612596565b92505060206129dd858286016126fc565b9150509250929050565b600080600080608085870312156129fd57600080fd5b6000612a0b87828801612596565b9450506020612a1c878288016126fc565b9350506040612a2d878288016126fc565b925050606085013567ffffffffffffffff811115612a4a57600080fd5b612a56878288016126d2565b91505092959194509250565b60008060408385031215612a7557600080fd5b600083013567ffffffffffffffff811115612a8f57600080fd5b612a9b858286016125ab565b925050602083013567ffffffffffffffff811115612ab857600080fd5b612ac485828601612669565b9150509250929050565b60008060008060408587031215612ae457600080fd5b600085013567ffffffffffffffff811115612afe57600080fd5b612b0a8782880161261f565b9450945050602085013567ffffffffffffffff811115612b2957600080fd5b612b35878288016125d5565b925092505092959194509250565b600060208284031215612b5557600080fd5b6000612b63848285016126a8565b91505092915050565b600060208284031215612b7e57600080fd5b6000612b8c848285016126bd565b91505092915050565b600060208284031215612ba757600080fd5b6000612bb5848285016126fc565b91505092915050565b6000612bca8383612fc7565b60208301905092915050565b612bdf816135cc565b82525050565b6000612bf08261350a565b612bfa8185613538565b9350612c05836134e5565b8060005b83811015612c36578151612c1d8882612bbe565b9750612c288361352b565b925050600181019050612c09565b5085935050505092915050565b612c4c816135de565b82525050565b6000612c5d82613515565b612c678185613549565b9350612c7781856020860161364f565b612c80816137dd565b840191505092915050565b6000612c9682613520565b612ca0818561355a565b9350612cb081856020860161364f565b612cb9816137dd565b840191505092915050565b6000612ccf82613520565b612cd9818561356b565b9350612ce981856020860161364f565b80840191505092915050565b60008154612d0281613682565b612d0c818661356b565b94506001821660008114612d275760018114612d3857612d6b565b60ff19831686528186019350612d6b565b612d41856134f5565b60005b83811015612d6357815481890152600182019150602081019050612d44565b838801955050505b50505092915050565b6000612d8160288361355a565b9150612d8c826137fb565b604082019050919050565b6000612da460148361355a565b9150612daf8261384a565b602082019050919050565b6000612dc760268361355a565b9150612dd282613873565b604082019050919050565b6000612dea602c8361355a565b9150612df5826138c2565b604082019050919050565b6000612e0d602a8361355a565b9150612e1882613911565b604082019050919050565b6000612e30602e8361355a565b9150612e3b82613960565b604082019050919050565b6000612e5360108361355a565b9150612e5e826139af565b602082019050919050565b6000612e7660258361355a565b9150612e81826139d8565b604082019050919050565b6000612e99602a8361355a565b9150612ea482613a27565b604082019050919050565b6000612ebc60208361355a565b9150612ec782613a76565b602082019050919050565b6000612edf60288361355a565b9150612eea82613a9f565b604082019050919050565b6000612f0260298361355a565b9150612f0d82613aee565b604082019050919050565b6000612f2560298361355a565b9150612f3082613b3d565b604082019050919050565b6000612f4860298361355a565b9150612f5382613b8c565b604082019050919050565b6000612f6b60288361355a565b9150612f7682613bdb565b604082019050919050565b6000612f8e60218361355a565b9150612f9982613c2a565b604082019050919050565b6000612fb160348361355a565b9150612fbc82613c79565b604082019050919050565b612fd081613636565b82525050565b612fdf81613636565b82525050565b6000612ff18285612cf5565b9150612ffd8284612cc4565b91508190509392505050565b600060208201905061301e6000830184612bd6565b92915050565b600060a0820190506130396000830188612bd6565b6130466020830187612bd6565b81810360408301526130588186612be5565b9050818103606083015261306c8185612be5565b905081810360808301526130808184612c52565b90509695505050505050565b600060a0820190506130a16000830188612bd6565b6130ae6020830187612bd6565b6130bb6040830186612fd6565b6130c86060830185612fd6565b81810360808301526130da8184612c52565b90509695505050505050565b600060208201905081810360008301526131008184612be5565b905092915050565b600060408201905081810360008301526131228185612be5565b905081810360208301526131368184612be5565b90509392505050565b60006020820190506131546000830184612c43565b92915050565b600060208201905081810360008301526131748184612c8b565b905092915050565b6000602082019050818103600083015261319581612d74565b9050919050565b600060208201905081810360008301526131b581612d97565b9050919050565b600060208201905081810360008301526131d581612dba565b9050919050565b600060208201905081810360008301526131f581612ddd565b9050919050565b6000602082019050818103600083015261321581612e00565b9050919050565b6000602082019050818103600083015261323581612e23565b9050919050565b6000602082019050818103600083015261325581612e46565b9050919050565b6000602082019050818103600083015261327581612e69565b9050919050565b6000602082019050818103600083015261329581612e8c565b9050919050565b600060208201905081810360008301526132b581612eaf565b9050919050565b600060208201905081810360008301526132d581612ed2565b9050919050565b600060208201905081810360008301526132f581612ef5565b9050919050565b6000602082019050818103600083015261331581612f18565b9050919050565b6000602082019050818103600083015261333581612f3b565b9050919050565b6000602082019050818103600083015261335581612f5e565b9050919050565b6000602082019050818103600083015261337581612f81565b9050919050565b6000602082019050818103600083015261339581612fa4565b9050919050565b60006020820190506133b16000830184612fd6565b92915050565b60006040820190506133cc6000830185612fd6565b6133d96020830184612fd6565b9392505050565b600080833560016020038436030381126133f957600080fd5b80840192508235915067ffffffffffffffff82111561341757600080fd5b60208301925060018202360383131561342f57600080fd5b509250929050565b6000613441613452565b905061344d82826136b4565b919050565b6000604051905090565b600067ffffffffffffffff8211156134775761347661378c565b5b602082029050602081019050919050565b600067ffffffffffffffff8211156134a3576134a261378c565b5b602082029050602081019050919050565b600067ffffffffffffffff8211156134cf576134ce61378c565b5b6134d8826137dd565b9050602081019050919050565b6000819050602082019050919050565b60008190508160005260206000209050919050565b600081519050919050565b600081519050919050565b600081519050919050565b6000602082019050919050565b600082825260208201905092915050565b600082825260208201905092915050565b600082825260208201905092915050565b600081905092915050565b600061358182613636565b915061358c83613636565b9250827fffffffffffffffffffffffffffffffffffffffffffffffffffffffffffffffff038211156135c1576135c061372e565b5b828201905092915050565b60006135d782613616565b9050919050565b60008115159050919050565b60007fffffffff0000000000000000000000000000000000000000000000000000000082169050919050565b600073ffffffffffffffffffffffffffffffffffffffff82169050919050565b6000819050919050565b82818337600083830152505050565b60005b8381101561366d578082015181840152602081019050613652565b8381111561367c576000848401525b50505050565b6000600282049050600182168061369a57607f821691505b602082108114156136ae576136ad61375d565b5b50919050565b6136bd826137dd565b810181811067ffffffffffffffff821117156136dc576136db61378c565b5b80604052505050565b60006136f082613636565b91507fffffffffffffffffffffffffffffffffffffffffffffffffffffffffffffffff8214156137235761372261372e565b5b600182019050919050565b7f4e487b7100000000000000000000000000000000000000000000000000000000600052601160045260246000fd5b7f4e487b7100000000000000000000000000000000000000000000000000000000600052602260045260246000fd5b7f4e487b7100000000000000000000000000000000000000000000000000000000600052604160045260246000fd5b600060033d11156137da5760046000803e6137d76000516137ee565b90505b90565b6000601f19601f8301169050919050565b60008160e01c9050919050565b7f455243313135353a204552433131353552656365697665722072656a6563746560008201527f6420746f6b656e73000000000000000000000000000000000000000000000000602082015250565b7f5061757361626c653a206e6f7420706175736564000000000000000000000000600082015250565b7f4f776e61626c653a206e6577206f776e657220697320746865207a65726f206160008201527f6464726573730000000000000000000000000000000000000000000000000000602082015250565b7f455243313135355061757361626c653a20746f6b656e207472616e736665722060008201527f7768696c65207061757365640000000000000000000000000000000000000000602082015250565b7f455243313135353a2061646472657373207a65726f206973206e6f742061207660008201527f616c6964206f776e657200000000000000000000000000000000000000000000602082015250565b7f455243313135353a2063616c6c6572206973206e6f7420746f6b656e206f776e60008201527f6572206f7220617070726f766564000000000000000000000000000000000000602082015250565b7f5061757361626c653a2070617573656400000000000000000000000000000000600082015250565b7f455243313135353a207472616e7366657220746f20746865207a65726f20616460008201527f6472657373000000000000000000000000000000000000000000000000000000602082015250565b7f455243313135353a20696e73756666696369656e742062616c616e636520666f60008201527f72207472616e7366657200000000000000000000000000000000000000000000602082015250565b7f4f776e61626c653a2063616c6c6572206973206e6f7420746865206f776e6572600082015250565b7f455243313135353a206275726e20616d6f756e74206578636565647320746f7460008201527f616c537570706c79000000000000000000000000000000000000000000000000602082015250565b7f746f6b656e49647320616e6420555249732073686f756c64206861766520736160008201527f6d65206c656e6774680000000000000000000000000000000000000000000000602082015250565b7f455243313135353a2073657474696e6720617070726f76616c2073746174757360008201527f20666f722073656c660000000000000000000000000000000000000000000000602082015250565b7f455243313135353a206163636f756e747320616e6420696473206c656e67746860008201527f206d69736d617463680000000000000000000000000000000000000000000000602082015250565b7f455243313135353a2069647320616e6420616d6f756e7473206c656e6774682060008201527f6d69736d61746368000000000000000000000000000000000000000000000000602082015250565b7f455243313135353a206d696e7420746f20746865207a65726f2061646472657360008201527f7300000000000000000000000000000000000000000000000000000000000000602082015250565b7f455243313135353a207472616e7366657220746f206e6f6e2d4552433131353560008201527f526563656976657220696d706c656d656e746572000000000000000000000000602082015250565b600060443d1015613cd857613d5b565b613ce0613452565b60043d036004823e80513d602482011167ffffffffffffffff82111715613d08575050613d5b565b808201805167ffffffffffffffff811115613d265750505050613d5b565b80602083010160043d038501811115613d43575050505050613d5b565b613d52826020018501866136b4565b82955050505050505b90565b613d67816135cc565b8114613d7257600080fd5b50565b613d7e816135de565b8114613d8957600080fd5b50565b613d95816135ea565b8114613da057600080fd5b50565b613dac81613636565b8114613db757600080fd5b5056fea2646970667358221220198ad29b67c43377f6b9b2d2383dced42db9d969d52bf3f360f0e7a913ce793f64736f6c63430008010033",
  "linkReferences": {},
  "deployedLinkReferences": {},
  "immutableReferences": {},
  "inputSourceName": "project/contracts/TCF_NFT.sol",
  "devdoc": {
    "kind": "dev",
    "methods": {
      "balanceOf(address,uint256)": {
        "details": "See {IERC1155-balanceOf}. Requirements: - `account` cannot be the zero address."
      },
      "balanceOfBatch(address[],uint256[])": {
        "details": "See {IERC1155-balanceOfBatch}. Requirements: - `accounts` and `ids` must have the same length."
      },
      "exists(uint256)": {
        "details": "Indicates whether any token exist with a given id, or not."
      },
      "isApprovedForAll(address,address)": {
        "details": "See {IERC1155-isApprovedForAll}."
      },
      "owner()": {
        "details": "Returns the address of the current owner."
      },
      "paused()": {
        "details": "Returns true if the contract is paused, and false otherwise."
      },
      "renounceOwnership()": {
        "details": "Leaves the contract without owner. It will not be possible to call `onlyOwner` functions. Can only be called by the current owner. NOTE: Renouncing ownership will leave the contract without an owner, thereby disabling any functionality that is only available to the owner."
      },
      "safeBatchTransferFrom(address,address,uint256[],uint256[],bytes)": {
        "details": "See {IERC1155-safeBatchTransferFrom}."
      },
      "safeTransferFrom(address,address,uint256,uint256,bytes)": {
        "details": "See {IERC1155-safeTransferFrom}."
      },
      "setApprovalForAll(address,bool)": {
        "details": "See {IERC1155-setApprovalForAll}."
      },
      "supportsInterface(bytes4)": {
        "details": "See {IERC165-supportsInterface}."
      },
      "totalSupply(uint256)": {
        "details": "Total amount of tokens in with a given id."
      },
      "transferOwnership(address)": {
        "details": "Transfers ownership of the contract to a new account (`newOwner`). Can only be called by the current owner."
      }
    },
    "version": 1
  },
  "evm": {
    "gasEstimates": {
      "creation": {
        "codeDepositCost": "3171200",
        "executionCost": "infinite",
        "totalCost": "infinite"
      },
      "external": {
        "balanceOf(address,uint256)": "infinite",
        "balanceOfBatch(address[],uint256[])": "infinite",
        "exists(uint256)": "1624",
        "isApprovedForAll(address,address)": "infinite",
        "mint(address,uint256,uint256,bytes)": "infinite",
        "mintBatch(address,uint256[],uint256[],bytes)": "infinite",
        "owner()": "1333",
        "pause()": "infinite",
        "paused()": "1290",
        "renounceOwnership()": "24421",
        "safeBatchTransferFrom(address,address,uint256[],uint256[],bytes)": "infinite",
        "safeTransferFrom(address,address,uint256,uint256,bytes)": "infinite",
        "setApprovalForAll(address,bool)": "infinite",
        "setTokenURI(uint256[],bytes[])": "infinite",
        "supportsInterface(bytes4)": "819",
        "totalSupply(uint256)": "infinite",
        "transferOwnership(address)": "24857",
        "unpause()": "infinite",
        "uri(uint256)": "infinite"
      },
      "internal": {
        "_beforeTokenTransfer(address,address,address,uint256[] memory,uint256[] memory,bytes memory)": "infinite"
      }
    }
  },
  "storageLayout": {
    "storage": [
      {
        "astId": 2583,
        "contract": "project/contracts/TCF_NFT.sol:TCF_NFT",
        "label": "_initialized",
        "offset": 0,
        "slot": "0",
        "type": "t_bool"
      },
      {
        "astId": 2586,
        "contract": "project/contracts/TCF_NFT.sol:TCF_NFT",
        "label": "_initializing",
        "offset": 1,
        "slot": "0",
        "type": "t_bool"
      },
      {
        "astId": 2787,
        "contract": "project/contracts/TCF_NFT.sol:TCF_NFT",
        "label": "_balances",
        "offset": 0,
        "slot": "1",
        "type": "t_mapping(t_uint256,t_mapping(t_address,t_uint256))"
      },
      {
        "astId": 2793,
        "contract": "project/contracts/TCF_NFT.sol:TCF_NFT",
        "label": "_operatorApprovals",
        "offset": 0,
        "slot": "2",
        "type": "t_mapping(t_address,t_mapping(t_address,t_bool))"
      },
      {
        "astId": 2795,
        "contract": "project/contracts/TCF_NFT.sol:TCF_NFT",
        "label": "_uri",
        "offset": 0,
        "slot": "3",
        "type": "t_string_storage"
      },
      {
        "astId": 2470,
        "contract": "project/contracts/TCF_NFT.sol:TCF_NFT",
        "label": "_owner",
        "offset": 0,
        "slot": "4",
        "type": "t_address"
      },
      {
        "astId": 4448,
        "contract": "project/contracts/TCF_NFT.sol:TCF_NFT",
        "label": "_baseURI",
        "offset": 0,
        "slot": "5",
        "type": "t_string_storage"
      },
      {
        "astId": 4452,
        "contract": "project/contracts/TCF_NFT.sol:TCF_NFT",
        "label": "_tokenURIs",
        "offset": 0,
        "slot": "6",
        "type": "t_mapping(t_uint256,t_string_storage)"
      },
      {
        "astId": 2668,
        "contract": "project/contracts/TCF_NFT.sol:TCF_NFT",
        "label": "_paused",
        "offset": 0,
        "slot": "7",
        "type": "t_bool"
      },
      {
        "astId": 4288,
        "contract": "project/contracts/TCF_NFT.sol:TCF_NFT",
        "label": "_totalSupply",
        "offset": 0,
        "slot": "8",
        "type": "t_mapping(t_uint256,t_uint256)"
      }
    ],
    "types": {
      "t_address": {
        "encoding": "inplace",
        "label": "address",
        "numberOfBytes": "20"
      },
      "t_bool": {
        "encoding": "inplace",
        "label": "bool",
        "numberOfBytes": "1"
      },
      "t_mapping(t_address,t_bool)": {
        "encoding": "mapping",
        "key": "t_address",
        "label": "mapping(address => bool)",
        "numberOfBytes": "32",
        "value": "t_bool"
      },
      "t_mapping(t_address,t_mapping(t_address,t_bool))": {
        "encoding": "mapping",
        "key": "t_address",
        "label": "mapping(address => mapping(address => bool))",
        "numberOfBytes": "32",
        "value": "t_mapping(t_address,t_bool)"
      },
      "t_mapping(t_address,t_uint256)": {
        "encoding": "mapping",
        "key": "t_address",
        "label": "mapping(address => uint256)",
        "numberOfBytes": "32",
        "value": "t_uint256"
      },
      "t_mapping(t_uint256,t_mapping(t_address,t_uint256))": {
        "encoding": "mapping",
        "key": "t_uint256",
        "label": "mapping(uint256 => mapping(address => uint256))",
        "numberOfBytes": "32",
        "value": "t_mapping(t_address,t_uint256)"
      },
      "t_mapping(t_uint256,t_string_storage)": {
        "encoding": "mapping",
        "key": "t_uint256",
        "label": "mapping(uint256 => string)",
        "numberOfBytes": "32",
        "value": "t_string_storage"
      },
      "t_mapping(t_uint256,t_uint256)": {
        "encoding": "mapping",
        "key": "t_uint256",
        "label": "mapping(uint256 => uint256)",
        "numberOfBytes": "32",
        "value": "t_uint256"
      },
      "t_string_storage": {
        "encoding": "bytes",
        "label": "string",
        "numberOfBytes": "32"
      },
      "t_uint256": {
        "encoding": "inplace",
        "label": "uint256",
        "numberOfBytes": "32"
      }
    }
  },
  "userdoc": {
    "kind": "user",
    "methods": {},
    "version": 1
  },
  "argsData": "0x",
  "transaction": {
    "hash": "0xeb90f712d5fead4d710055d3b0ba04d29be59bb594e4bb00d3407b846fee2096",
    "nonce": "0x3",
    "origin": "0xf39fd6e51aad88f6f4ce6ab8827279cfffb92266"
  }
}