{
  "address": "0xb7f8bc63bbcad18155201308c8f3540b07f84f5e",
  "abi": [
    {
      "anonymous": false,
      "inputs": [
        {
          "indexed": true,
          "internalType": "address",
          "name": "account",
          "type": "address"
        },
        {
          "indexed": true,
          "internalType": "address",
          "name": "operator",
          "type": "address"
        },
        {
          "indexed": false,
          "internalType": "bool",
          "name": "approved",
          "type": "bool"
        }
      ],
      "name": "ApprovalForAll",
      "type": "event"
    },
    {
      "anonymous": false,
      "inputs": [
        {
          "indexed": true,
          "internalType": "uint256",
          "name": "tokenID",
          "type": "uint256"
        },
        {
          "indexed": false,
          "internalType": "uint8",
          "name": "previousRatio",
          "type": "uint8"
        },
        {
          "indexed": false,
          "internalType": "uint8",
          "name": "newRatio",
          "type": "uint8"
        }
      ],
      "name": "DynamicRatioChanged",
      "type": "event"
    },
    {
      "anonymous": false,
      "inputs": [
        {
          "indexed": true,
          "internalType": "uint256",
          "name": "tokenID",
          "type": "uint256"
        },
        {
          "indexed": true,
          "internalType": "address",
          "name": "paymentToken",
          "type": "address"
        },
        {
          "indexed": false,
          "internalType": "uint256",
          "name": "oldPrice",
          "type": "uint256"
        },
        {
          "indexed": false,
          "internalType": "uint256",
          "name": "newPrice",
          "type": "uint256"
        }
      ],
      "name": "NFTPriceChanged",
      "type": "event"
    },
    {
      "anonymous": false,
      "inputs": [
        {
          "indexed": true,
          "internalType": "address",
          "name": "previousOwner",
          "type": "address"
        },
        {
          "indexed": true,
          "internalType": "address",
          "name": "newOwner",
          "type": "address"
        }
      ],
      "name": "OwnershipTransferred",
      "type": "event"
    },
    {
      "anonymous": false,
      "inputs": [
        {
          "indexed": true,
          "internalType": "address",
          "name": "to",
          "type": "address"
        },
        {
          "indexed": true,
          "internalType": "uint256",
          "name": "tokenId",
          "type": "uint256"
        },
        {
          "indexed": false,
          "internalType": "uint256",
          "name": "editionId",
          "type": "uint256"
        },
        {
          "indexed": false,
          "internalType": "uint64",
          "name": "mintedAt",
          "type": "uint64"
        }
      ],
      "name": "TokenEditionMinted",
      "type": "event"
    },
    {
      "anonymous": false,
      "inputs": [
        {
          "indexed": true,
          "internalType": "address",
          "name": "operator",
          "type": "address"
        },
        {
          "indexed": true,
          "internalType": "address",
          "name": "from",
          "type": "address"
        },
        {
          "indexed": true,
          "internalType": "address",
          "name": "to",
          "type": "address"
        },
        {
          "indexed": false,
          "internalType": "uint256[]",
          "name": "ids",
          "type": "uint256[]"
        },
        {
          "indexed": false,
          "internalType": "uint256[]",
          "name": "values",
          "type": "uint256[]"
        }
      ],
      "name": "TransferBatch",
      "type": "event"
    },
    {
      "anonymous": false,
      "inputs": [
        {
          "indexed": true,
          "internalType": "address",
          "name": "operator",
          "type": "address"
        },
        {
          "indexed": true,
          "internalType": "address",
          "name": "from",
          "type": "address"
        },
        {
          "indexed": true,
          "internalType": "address",
          "name": "to",
          "type": "address"
        },
        {
          "indexed": false,
          "internalType": "uint256",
          "name": "id",
          "type": "uint256"
        },
        {
          "indexed": false,
          "internalType": "uint256",
          "name": "value",
          "type": "uint256"
        }
      ],
      "name": "TransferSingle",
      "type": "event"
    },
    {
      "anonymous": false,
      "inputs": [
        {
          "indexed": false,
          "internalType": "string",
          "name": "value",
          "type": "string"
        },
        {
          "indexed": true,
          "internalType": "uint256",
          "name": "id",
          "type": "uint256"
        }
      ],
      "name": "URI",
      "type": "event"
    },
    {
      "inputs": [
        {
          "internalType": "address",
          "name": "from",
          "type": "address"
        },
        {
          "internalType": "address",
          "name": "to",
          "type": "address"
        },
        {
          "internalType": "uint256",
          "name": "id",
          "type": "uint256"
        },
        {
          "internalType": "uint256[]",
          "name": "indexes",
          "type": "uint256[]"
        },
        {
          "internalType": "bytes",
          "name": "data",
          "type": "bytes"
        }
      ],
      "name": "ESafeTransferFrom",
      "outputs": [],
      "stateMutability": "nonpayable",
      "type": "function"
    },
    {
      "inputs": [],
      "name": "NFTPrice_initialized",
      "outputs": [
        {
          "internalType": "uint8",
          "name": "",
          "type": "uint8"
        }
      ],
      "stateMutability": "view",
      "type": "function"
    },
    {
      "inputs": [
        {
          "internalType": "address",
          "name": "_tokenAddress",
          "type": "address"
        }
      ],
      "name": "addSupportedToken",
      "outputs": [],
      "stateMutability": "nonpayable",
      "type": "function"
    },
    {
      "inputs": [
        {
          "internalType": "address",
          "name": "account",
          "type": "address"
        },
        {
          "internalType": "uint256",
          "name": "id",
          "type": "uint256"
        }
      ],
      "name": "balanceOf",
      "outputs": [
        {
          "internalType": "uint256",
          "name": "",
          "type": "uint256"
        }
      ],
      "stateMutability": "view",
      "type": "function"
    },
    {
      "inputs": [
        {
          "internalType": "address[]",
          "name": "",
          "type": "address[]"
        },
        {
          "internalType": "uint256[]",
          "name": "",
          "type": "uint256[]"
        }
      ],
      "name": "balanceOfBatch",
      "outputs": [
        {
          "internalType": "uint256[]",
          "name": "",
          "type": "uint256[]"
        }
      ],
      "stateMutability": "view",
      "type": "function"
    },
    {
      "inputs": [
        {
          "internalType": "uint256",
          "name": "tokenId",
          "type": "uint256"
        },
        {
          "internalType": "uint8",
          "name": "newRatio",
          "type": "uint8"
        }
      ],
      "name": "changeDynamicRatio",
      "outputs": [],
      "stateMutability": "nonpayable",
      "type": "function"
    },
    {
      "inputs": [
        {
          "internalType": "uint256",
          "name": "tokenId",
          "type": "uint256"
        },
        {
          "internalType": "address",
          "name": "tokenAddress",
          "type": "address"
        },
        {
          "internalType": "uint256",
          "name": "amount",
          "type": "uint256"
        }
      ],
      "name": "changeNFTPrice",
      "outputs": [],
      "stateMutability": "nonpayable",
      "type": "function"
    },
    {
      "inputs": [
        {
          "components": [
            {
              "internalType": "address",
              "name": "tokenAddress",
              "type": "address"
            },
            {
              "internalType": "uint256",
              "name": "amount",
              "type": "uint256"
            }
          ],
          "internalType": "struct TCF_NFTPrice.priceTypeAndAomut[2][6]",
          "name": "prices",
          "type": "tuple[2][6]"
        }
      ],
      "name": "checkInitPricesParams",
      "outputs": [
        {
          "internalType": "string",
          "name": "",
          "type": "string"
        }
      ],
      "stateMutability": "view",
      "type": "function"
    },
    {
      "inputs": [
        {
          "internalType": "uint256",
          "name": "tokenId",
          "type": "uint256"
        }
      ],
      "name": "getNFTEquityDetails",
      "outputs": [
        {
          "internalType": "uint8",
          "name": "ratio",
          "type": "uint8"
        },
        {
          "internalType": "uint56",
          "name": "indate",
          "type": "uint56"
        }
      ],
      "stateMutability": "view",
      "type": "function"
    },
    {
      "inputs": [
        {
          "internalType": "uint256",
          "name": "tokenId",
          "type": "uint256"
        },
        {
          "internalType": "address",
          "name": "_tokenAddress",
          "type": "address"
        }
      ],
      "name": "getNFTPrice",
      "outputs": [
        {
          "internalType": "string",
          "name": "",
          "type": "string"
        },
        {
          "internalType": "uint256",
          "name": "",
          "type": "uint256"
        }
      ],
      "stateMutability": "view",
      "type": "function"
    },
    {
      "inputs": [
        {
          "internalType": "uint256",
          "name": "tokenId",
          "type": "uint256"
        },
        {
          "internalType": "uint256",
          "name": "editionId",
          "type": "uint256"
        }
      ],
      "name": "getNftMintTime",
      "outputs": [
        {
          "internalType": "uint64",
          "name": "",
          "type": "uint64"
        }
      ],
      "stateMutability": "view",
      "type": "function"
    },
    {
      "inputs": [
        {
          "internalType": "address",
          "name": "account",
          "type": "address"
        },
        {
          "internalType": "uint256",
          "name": "tokenId",
          "type": "uint256"
        }
      ],
      "name": "getUserTokenIds",
      "outputs": [
        {
          "internalType": "uint256[]",
          "name": "",
          "type": "uint256[]"
        }
      ],
      "stateMutability": "view",
      "type": "function"
    },
    {
      "inputs": [
        {
          "components": [
            {
              "internalType": "address",
              "name": "tokenAddress",
              "type": "address"
            },
            {
              "internalType": "uint256",
              "name": "amount",
              "type": "uint256"
            }
          ],
          "internalType": "struct TCF_NFTPrice.priceTypeAndAomut[2][6]",
          "name": "prices",
          "type": "tuple[2][6]"
        }
      ],
      "name": "initPrice",
      "outputs": [],
      "stateMutability": "nonpayable",
      "type": "function"
    },
    {
      "inputs": [
        {
          "internalType": "address",
          "name": "account",
          "type": "address"
        },
        {
          "internalType": "address",
          "name": "operator",
          "type": "address"
        }
      ],
      "name": "isApprovedForAll",
      "outputs": [
        {
          "internalType": "bool",
          "name": "",
          "type": "bool"
        }
      ],
      "stateMutability": "view",
      "type": "function"
    },
    {
      "inputs": [
        {
          "internalType": "address",
          "name": "token",
          "type": "address"
        }
      ],
      "name": "isSupported",
      "outputs": [
        {
          "internalType": "uint8",
          "name": "",
          "type": "uint8"
        }
      ],
      "stateMutability": "view",
      "type": "function"
    },
    {
      "inputs": [],
      "name": "owner",
      "outputs": [
        {
          "internalType": "address",
          "name": "",
          "type": "address"
        }
      ],
      "stateMutability": "view",
      "type": "function"
    },
    {
      "inputs": [
        {
          "internalType": "uint256",
          "name": "tokenId",
          "type": "uint256"
        },
        {
          "internalType": "uint256",
          "name": "editionId",
          "type": "uint256"
        }
      ],
      "name": "ownerOf",
      "outputs": [
        {
          "internalType": "address",
          "name": "",
          "type": "address"
        }
      ],
      "stateMutability": "view",
      "type": "function"
    },
    {
      "inputs": [],
      "name": "renounceOwnership",
      "outputs": [],
      "stateMutability": "nonpayable",
      "type": "function"
    },
    {
      "inputs": [
        {
          "internalType": "address",
          "name": "",
          "type": "address"
        },
        {
          "internalType": "address",
          "name": "",
          "type": "address"
        },
        {
          "internalType": "uint256[]",
          "name": "",
          "type": "uint256[]"
        },
        {
          "internalType": "uint256[]",
          "name": "",
          "type": "uint256[]"
        },
        {
          "internalType": "bytes",
          "name": "",
          "type": "bytes"
        }
      ],
      "name": "safeBatchTransferFrom",
      "outputs": [],
      "stateMutability": "nonpayable",
      "type": "function"
    },
    {
      "inputs": [
        {
          "internalType": "address",
          "name": "from",
          "type": "address"
        },
        {
          "internalType": "address",
          "name": "to",
          "type": "address"
        },
        {
          "internalType": "uint256",
          "name": "id",
          "type": "uint256"
        },
        {
          "internalType": "uint256",
          "name": "amount",
          "type": "uint256"
        },
        {
          "internalType": "bytes",
          "name": "data",
          "type": "bytes"
        }
      ],
      "name": "safeTransferFrom",
      "outputs": [],
      "stateMutability": "nonpayable",
      "type": "function"
    },
    {
      "inputs": [
        {
          "internalType": "address",
          "name": "operator",
          "type": "address"
        },
        {
          "internalType": "bool",
          "name": "approved",
          "type": "bool"
        }
      ],
      "name": "setApprovalForAll",
      "outputs": [],
      "stateMutability": "nonpayable",
      "type": "function"
    },
    {
      "inputs": [],
      "name": "supportedTokenAmount",
      "outputs": [
        {
          "internalType": "uint256",
          "name": "",
          "type": "uint256"
        }
      ],
      "stateMutability": "view",
      "type": "function"
    },
    {
      "inputs": [
        {
          "internalType": "bytes4",
          "name": "interfaceId",
          "type": "bytes4"
        }
      ],
      "name": "supportsInterface",
      "outputs": [
        {
          "internalType": "bool",
          "name": "",
          "type": "bool"
        }
      ],
      "stateMutability": "view",
      "type": "function"
    },
    {
      "inputs": [
        {
          "internalType": "address",
          "name": "account",
          "type": "address"
        },
        {
          "internalType": "uint256",
          "name": "tokenId",
          "type": "uint256"
        },
        {
          "internalType": "uint256",
          "name": "amount",
          "type": "uint256"
        }
      ],
      "name": "testGetExpiredTokenIndexes",
      "outputs": [
        {
          "internalType": "uint256[]",
          "name": "",
          "type": "uint256[]"
        }
      ],
      "stateMutability": "view",
      "type": "function"
    },
    {
      "inputs": [
        {
          "internalType": "address",
          "name": "to",
          "type": "address"
        },
        {
          "internalType": "uint256",
          "name": "id",
          "type": "uint256"
        },
        {
          "internalType": "uint256",
          "name": "amount",
          "type": "uint256"
        },
        {
          "internalType": "bytes",
          "name": "data",
          "type": "bytes"
        }
      ],
      "name": "testMint",
      "outputs": [],
      "stateMutability": "nonpayable",
      "type": "function"
    },
    {
      "inputs": [
        {
          "internalType": "address",
          "name": "from",
          "type": "address"
        },
        {
          "internalType": "address",
          "name": "to",
          "type": "address"
        },
        {
          "internalType": "uint256",
          "name": "id",
          "type": "uint256"
        },
        {
          "internalType": "uint256[]",
          "name": "indexes",
          "type": "uint256[]"
        },
        {
          "internalType": "bytes",
          "name": "data",
          "type": "bytes"
        }
      ],
      "name": "testSafeTransferFrom",
      "outputs": [],
      "stateMutability": "nonpayable",
      "type": "function"
    },
    {
      "inputs": [
        {
          "internalType": "uint256",
          "name": "",
          "type": "uint256"
        }
      ],
      "name": "tokenAddress_array",
      "outputs": [
        {
          "internalType": "address",
          "name": "",
          "type": "address"
        }
      ],
      "stateMutability": "view",
      "type": "function"
    },
    {
      "inputs": [
        {
          "internalType": "address",
          "name": "newOwner",
          "type": "address"
        }
      ],
      "name": "transferOwnership",
      "outputs": [],
      "stateMutability": "nonpayable",
      "type": "function"
    },
    {
      "inputs": [
        {
          "internalType": "uint256",
          "name": "",
          "type": "uint256"
        }
      ],
      "name": "uri",
      "outputs": [
        {
          "internalType": "string",
          "name": "",
          "type": "string"
        }
      ],
      "stateMutability": "view",
      "type": "function"
    }
  ],
  "contractName": "test_TCF_ERC1155MintTime",
  "sourceName": "contracts/test/test_TCF_ERC1155MintTime.sol",
  "bytecode": "0x60806040523480156200001157600080fd5b506200002662000020620000a4565b620000a8565b600a6020527fbbc70db1b6c7afd11e79c0fb0051300458f1a3acb8ee9789d9b6b26c61ad9bc7805460ff19166001908117909155600c805480830182556000919091527fdf6966c971051c3d54ec59162606531493a51404a002842f56009d7e5cf4a8c70180546001600160a01b03191682179055600b55620000fa565b3390565b600980546001600160a01b038381166001600160a01b0319831681179093556040519116919082907f8be0079c531659141344cd1fd0a4f28419497f9722a3daafe3b4186f6b6457e090600090a35050565b613307806200010a6000396000f3fe608060405234801561001057600080fd5b50600436106101ce5760003560e01c80636d69fcaf11610104578063a22cb465116100a2578063d9dad80d11610071578063d9dad80d14610404578063e985e9c514610417578063f242432a1461042a578063f2fde38b1461043d576101ce565b8063a22cb465146103b8578063ae4f8dc5146103cb578063b24661ac146103de578063b788920e146103f1576101ce565b806383023c88116100de57806383023c881461035c57806386ff91131461036f5780638da5cb5b14610390578063a0b77afa14610398576101ce565b80636d69fcaf1461032e578063715018a614610341578063784da43714610349576101ce565b8063292241f2116101715780634e1273f41161014b5780634e1273f4146102d55780634f129c53146102f55780635582631314610308578063598c27bc1461031b576101ce565b8063292241f2146102985780632eb2c2d6146102ad5780634c8cb672146102c0576101ce565b806307759696116101ad578063077596961461023d5780630e89341c1461025d57806319d62e57146102705780632336128314610290576101ce565b8062fdd58e146101d357806301ffc9a7146101fc57806306198b981461021c575b600080fd5b6101e66101e136600461287a565b610450565b6040516101f39190613031565b60405180910390f35b61020f61020a366004612a24565b6104cc565b6040516101f39190612cf0565b61022f61022a366004612b17565b610514565b6040516101f3929190613081565b61025061024b3660046129fb565b61058f565b6040516101f39190612cfb565b61025061026b366004612b17565b61085e565b61028361027e366004612b17565b610871565b6040516101f39190612c53565b6101e661089b565b6102ab6102a63660046128d5565b6108a1565b005b6102ab6102bb36600461262d565b6108b3565b6102c86108cb565b6040516101f39190613073565b6102e86102e3366004612933565b6108d9565b6040516101f39190612cac565b6102c86103033660046125da565b6108f3565b6102ab610316366004612b51565b610927565b6102ab61032936600461278e565b6109df565b6102ab61033c3660046125da565b610a3d565b6102ab610b26565b6102ab6103573660046126d2565b610b3a565b6102ab61036a366004612ba6565b610b83565b61038261037d366004612b2f565b610c3c565b6040516101f3929190612d0e565b610283610ce9565b6103ab6103a6366004612b85565b610cf9565b6040516101f3919061305f565b6102ab6103c6366004612840565b610d42565b6102e86103d93660046128a3565b610d58565b6102ab6103ec3660046129fb565b610d6d565b6102e86103ff36600461287a565b61106f565b610283610412366004612b85565b61112a565b61020f6104253660046125fb565b611173565b6102ab6104383660046127de565b610a36565b6102ab61044b3660046125da565b6111a1565b60006001600160a01b0383166104815760405162461bcd60e51b815260040161047890612eae565b60405180910390fd5b600682106104a15760405162461bcd60e51b815260040161047890612e29565b5060008181526007602090815260408083206001600160a01b03861684529091529020545b92915050565b60006001600160e01b03198216636cdb3d1360e11b14806104fd57506001600160e01b031982166303a24d0760e21b145b8061050c575061050c826111db565b90505b919050565b600d54600090819060ff610100909104166001146105445760405162461bcd60e51b815260040161047890612f8d565b600683106105645760405162461bcd60e51b815260040161047890612e29565b50506000908152600e602052604090206001015460ff81169161010090910466ffffffffffffff1690565b606060005b600681101561084857600b548382600681106105c057634e487b7160e01b600052603260045260246000fd5b50506002146105f157505060408051808201909152600a815269282924a1a2a9afa622a760b11b602082015261050f565b600080600085846006811061061657634e487b7160e01b600052603260045260246000fd5b60408051808201909152916080919091020160026000835b8282101561065a5761064b60408302850136819003810190612ad9565b8152602001906001019061062e565b50505050905060005b600b548110156107ba57600082826002811061068f57634e487b7160e01b600052603260045260246000fd5b60200201515190506001600160a01b0381166106ae57600194506106b3565b600193505b60008383600281106106d557634e487b7160e01b600052603260045260246000fd5b6020020151516001600160a01b03161480159061073c5750600a600084846002811061071157634e487b7160e01b600052603260045260246000fd5b60209081029190910151516001600160a01b031682528101919091526040016000205460ff16600114155b156107a95761079c83836002811061076457634e487b7160e01b600052603260045260246000fd5b602002015160000151604051806040016040528060118152602001701513d2d15397d55394d5541413d4951151607a1b8152506111f4565b965050505050505061050f565b506107b3816131cc565b9050610663565b50826107f757604051806040016040528060138152602001721510d7d4149250d157d35554d517d1561254d5606a1b81525094505050505061050f565b8161083457604051806040016040528060148152602001731110d197d4149250d157d35554d517d1561254d560621b81525094505050505061050f565b50505080610841906131cc565b9050610594565b5050604080516020810190915260008152919050565b5060408051602081019091526000815290565b600c818154811061088157600080fd5b6000918252602090912001546001600160a01b0316905081565b600b5481565b6108ad84848484611228565b50505050565b60405162461bcd60e51b815260040161047890612fbd565b600d54610100900460ff1681565b606060405162461bcd60e51b815260040161047890612fbd565b60006001600160a01b03821661090857600191505b506001600160a01b03166000908152600a602052604090205460ff1690565b61092f611325565b600061093b8484611364565b90508051600014610960578060405162461bcd60e51b81526004016104789190612cfb565b6001600160a01b03831661097357600192505b6000848152600e602090815260408083206001600160a01b038716808552925291829020805490859055915186907f8747a56dd6a09ab1378db3a842a4724d75642265b104e31a28fa736ce71912b3906109d0908590889061303a565b60405180910390a35050505050565b6109e7611466565b6001600160a01b0316856001600160a01b03161480610a0d5750610a0d85610425611466565b610a295760405162461bcd60e51b815260040161047890612dca565b610a36858585858561146a565b5050505050565b610a45611325565b600d5460ff1615610a685760405162461bcd60e51b815260040161047890612d59565b6000610a738261176d565b90508051600014610a98578060405162461bcd60e51b81526004016104789190612cfb565b6001600160a01b0382166000818152600a60205260408120805460ff19166001908117909155600c805480830182559083527fdf6966c971051c3d54ec59162606531493a51404a002842f56009d7e5cf4a8c70180546001600160a01b031916909317909255600b8054909190610b109084906130fb565b9091555050600d805460ff191660011790555050565b610b2e611325565b610b386000611952565b565b610b7b86868686868080602002602001604051908101604052809392919081815260200183836020028082843760009201919091525088925061146a915050565b505050505050565b610b8b611325565b600d5460ff61010090910416600114610bb65760405162461bcd60e51b815260040161047890612f8d565b60068210610bd65760405162461bcd60e51b815260040161047890612e29565b6000828152600e602052604090819020600101805460ff84811660ff19831617909255915191169083907f902e8f79c4772541ba59982b7a572dfdb4a0c003843ec5cfafc727966528895490610c2f908490869061309d565b60405180910390a2505050565b6060600080610c4b8585611364565b90508051600014610c6157915060009050610ce2565b6001600160a01b038416610c7457600193505b6000858152600e602090815260408083206001600160a01b038816845290915290205480610ccd57505060408051808201909152600d81526c14149250d157d393d517d4d155609a1b6020820152915060009050610ce2565b60408051602081019091526000815293509150505b9250929050565b6009546001600160a01b03165b90565b600060068310610d1b5760405162461bcd60e51b815260040161047890612e29565b5060009182526010602090815260408084209284529190529020546001600160401b031690565b610d54610d4d611466565b83836119a4565b5050565b6060610d65848484611a47565b949350505050565b610d75611325565b600d5460ff16600114610d9a5760405162461bcd60e51b815260040161047890612f5e565b600d54610100900460ff1615610dc25760405162461bcd60e51b815260040161047890612efd565b6000610dcd8261058f565b90508051600014610df2578060405162461bcd60e51b81526004016104789190612cfb565b6040805160c08082018352663740762b8c00008252663d641185b800006020808401919091526649ab483a100000838501526655f27eee680000606080850191909152666239b5a2c00000608080860191909152666e80ec5718000060a0808701919091528651948501875260288552603293850193909352603c95840195909552605090830152605a9382019390935260649281019290925290600260005b600681101561105857838160068110610ebb57634e487b7160e01b600052603260045260246000fd5b6020020151600e600083815260200190815260200160002060010160016101000a81548166ffffffffffffff021916908366ffffffffffffff160217905550828160068110610f1a57634e487b7160e01b600052603260045260246000fd5b602090810291909101516000838152600e90925260408220600101805460ff191660ff9092169190911790555b82811015611047576000878360068110610f7157634e487b7160e01b600052603260045260246000fd5b608002018260028110610f9457634e487b7160e01b600052603260045260246000fd5b604002016000016020810190610faa91906125da565b90506001600160a01b038116610fbe575060015b878360068110610fde57634e487b7160e01b600052603260045260246000fd5b60800201826002811061100157634e487b7160e01b600052603260045260246000fd5b6000858152600e602090815260408083206001600160a01b039096168352948152908490209190930291909101919091013590558061103f816131cc565b915050610f47565b50611051816131cc565b9050610e92565b5050600d805461ff00191661010017905550505050565b60606001600160a01b0383166110975760405162461bcd60e51b815260040161047890612eae565b600682106110b75760405162461bcd60e51b815260040161047890612e29565b6001600160a01b0383166000908152600f602090815260408083208584528252918290208054835181840281018401909452808452909183018282801561111d57602002820191906000526020600020905b815481526020019060010190808311611109575b5050505050905092915050565b60006006831061114c5760405162461bcd60e51b815260040161047890612e29565b5060009182526006602090815260408084209284529190529020546001600160a01b031690565b6001600160a01b03918216600090815260086020908152604080832093909416825291909152205460ff1690565b6111a9611325565b6001600160a01b0381166111cf5760405162461bcd60e51b815260040161047890612d84565b6111d881611952565b50565b6001600160e01b031981166301ffc9a760e01b14919050565b60608161120084611c81565b604051602001611211929190612c17565b604051602081830303815290604052905092915050565b4260005b83811015611318576000816000876006811061125857634e487b7160e01b600052603260045260246000fd5b015461126491906130fb565b60008781526010602090815260408083208484528252808320805467ffffffffffffffff19166001600160401b0389161790556001600160a01b038b16808452600f83528184208b855283528184208054600181018255908552929093209091018390555191925087917fa0fe61afe1ffd5e83d09a64b67ad6e6511a42b3876aea9ba71288026e8a29b69906112fd9085908890613048565b60405180910390a35080611310816131cc565b91505061122c565b50610a3685858585611e70565b61132d611466565b6001600160a01b031661133e610ce9565b6001600160a01b031614610b385760405162461bcd60e51b815260040161047890612f29565b600d5460609060ff610100909104166001146113ad575060408051808201909152601681527514149250d154d7d393d517d25392551250531256915160521b60208201526104c6565b60058311156113e0575060408051808201909152600d81526c544f4b454e49445f52414e474560981b60208201526104c6565b6001600160a01b0382166113f357600191505b6001600160a01b0382166000908152600a602052604090205460ff166001146114505761144982604051806040016040528060118152602001701513d2d15397d55394d5541413d4951151607a1b8152506111f4565b90506104c6565b5060408051602081019091526000815292915050565b3390565b6001600160a01b0384166114905760405162461bcd60e51b815260040161047890612eae565b600683106114b05760405162461bcd60e51b815260040161047890612e29565b60005b825181101561175f5760008382815181106114de57634e487b7160e01b600052603260045260246000fd5b6020908102919091018101516000878152601083526040808220838352909352918220549092506001600160401b03169061151887610514565b915050886001600160a01b031661152f888561112a565b6001600160a01b0316146115555760405162461bcd60e51b815260040161047890612ed4565b6001600160a01b03808a166000908152600f602081815260408084208c85528252808420948d1684529181528183208b845290528120909190825b82548110156115e657868382815481106115ba57634e487b7160e01b600052603260045260246000fd5b906000526020600020015414156115d457600193506115e6565b806115de816131cc565b915050611590565b50826116045760405162461bcd60e51b815260040161047890612d30565b61161766ffffffffffffff851686613113565b6001600160401b0316421161163e5760405162461bcd60e51b815260040161047890612e01565b60005b825481101561172e578683828154811061166b57634e487b7160e01b600052603260045260246000fd5b9060005260206000200154141561171c578254839061168c9060019061315d565b815481106116aa57634e487b7160e01b600052603260045260246000fd5b90600052602060002001548382815481106116d557634e487b7160e01b600052603260045260246000fd5b90600052602060002001819055508280548061170157634e487b7160e01b600052603160045260246000fd5b6001900381819060005260206000200160009055905561172e565b80611726816131cc565b915050611641565b5080546001810182556000918252602090912001949094555083925061175791508290506131cc565b9150506114b3565b50610a36858585858561206b565b6001600160a01b0381166000908152600a602052604090205460609060ff16600114156117c8576117c1826040518060400160405280600b81526020016a414444525f45584953545360a81b8152506111f4565b905061050f565b60408051600481526024810182526020810180516001600160e01b03166395d89b4160e01b179052905160009081906001600160a01b0386169061180d908590612bfb565b600060405180830381855afa9150503d8060008114611848576040519150601f19603f3d011682016040523d82523d6000602084013e61184d565b606091505b5091509150818015611860575060008151115b156119075760008180602001905181019061187b9190612a5c565b80516020808301919091206040805180820190915260038152622221a360e91b9201919091529091507f580e4ba285e7e1134de91e671c33b0ab748bee7126d5d2e4d0845e6ad176e7eb8114611900576118f487604051806040016040528060078152602001662727aa2fa221a360c91b8152506111f4565b9550505050505061050f565b505061193a565b61193085604051806040016040528060078152602001662727aa2fa221a360c91b8152506111f4565b935050505061050f565b50506040805160208101909152600081529392505050565b600980546001600160a01b038381166001600160a01b0319831681179093556040519116919082907f8be0079c531659141344cd1fd0a4f28419497f9722a3daafe3b4186f6b6457e090600090a35050565b816001600160a01b0316836001600160a01b031614156119d65760405162461bcd60e51b815260040161047890612e87565b6001600160a01b0383811660008181526008602090815260408083209487168084529490915290819020805460ff1916851515179055517f17307eab39ab6107e8899845ad3d59bd9653f200f220920489ca2b5937696c3190611a3a908590612cf0565b60405180910390a3505050565b60606001600160a01b038416611a6f5760405162461bcd60e51b815260040161047890612eae565b60068310611a8f5760405162461bcd60e51b815260040161047890612e29565b6000826001600160401b03811115611ab757634e487b7160e01b600052604160045260246000fd5b604051908082528060200260200182016040528015611ae0578160200160208202803683370190505b506001600160a01b0386166000908152600f6020908152604080832088845282528083208054825181850281018501909352808352949550929384939192830182828015611b4d57602002820191906000526020600020905b815481526020019060010190808311611b39575b505050505090506000611b5f87610514565b91505060005b8251811015611c67576000888152601060205260408120845166ffffffffffffff85169290869085908110611baa57634e487b7160e01b600052603260045260246000fd5b602090810291909101810151825281019190915260400160002054611bd891906001600160401b0316613113565b6001600160401b0316421115611c5557828181518110611c0857634e487b7160e01b600052603260045260246000fd5b6020026020010151858580611c1c906131cc565b965081518110611c3c57634e487b7160e01b600052603260045260246000fd5b60200260200101818152505086841415611c5557611c67565b80611c5f816131cc565b915050611b65565b5085831015611c7557600084525b50919695505050505050565b60408051602a808252606082810190935283831b916f181899199a1a9b1b9c1cb0b131b232b360811b9160009190602082018180368337019050509050600360fc1b81600081518110611ce457634e487b7160e01b600052603260045260246000fd5b60200101906001600160f81b031916908160001a905350600f60fb1b81600181518110611d2157634e487b7160e01b600052603260045260246000fd5b60200101906001600160f81b031916908160001a90535060005b6014811015611e67576000848260148110611d6657634e487b7160e01b600052603260045260246000fd5b1a905083600482901c60ff1660108110611d9057634e487b7160e01b600052603260045260246000fd5b1a60f81b83611da084600261313e565b611dab9060026130fb565b81518110611dc957634e487b7160e01b600052603260045260246000fd5b60200101906001600160f81b031916908160001a90535083600f821660108110611e0357634e487b7160e01b600052603260045260246000fd5b1a60f81b83611e1384600261313e565b611e1e9060036130fb565b81518110611e3c57634e487b7160e01b600052603260045260246000fd5b60200101906001600160f81b031916908160001a905350508080611e5f906131cc565b915050611d3b565b50949350505050565b60068310611e905760405162461bcd60e51b815260040161047890612e29565b6001600160a01b038416611eb65760405162461bcd60e51b815260040161047890612eae565b6000611ec0611466565b90506000611ecd85612383565b90506000611eda85612383565b9050611eeb83600089858589610b7b565b60008681526007602090815260408083206001600160a01b038b16845290915281208054879290611f1d9084906130fb565b90915550600090505b85811015611fb257876006600089815260200190815260200160002060008360008b60068110611f6657634e487b7160e01b600052603260045260246000fd5b0154611f7291906130fb565b8152602081019190915260400160002080546001600160a01b0319166001600160a01b039290921691909117905580611faa816131cc565b915050611f26565b508460008760068110611fd557634e487b7160e01b600052603260045260246000fd5b016000828254611fe591906130fb565b92505081905550866001600160a01b031660006001600160a01b0316846001600160a01b03167fc3d58168c5ae7397731d063d5bbf3d657854427343f4c083240f7aacaa2d0f62898960405161203c92919061303a565b60405180910390a461205383600089858589610b7b565b612062836000898989896123dc565b50505050505050565b6001600160a01b0384166120915760405162461bcd60e51b815260040161047890612eae565b600683106120b15760405162461bcd60e51b815260040161047890612e29565b60005b825181101561214c57600084815260066020526040812084516001600160a01b03891692908690859081106120f957634e487b7160e01b600052603260045260246000fd5b6020908102919091018101518252810191909152604001600020546001600160a01b03161461213a5760405162461bcd60e51b815260040161047890612ed4565b80612144816131cc565b9150506120b4565b506000612157611466565b9050600061216485612383565b905060006121728551612383565b9050612182838989858589610b7b565b60005b855181101561221d57600087815260066020526040812087516001600160a01b038c1692908990859081106121ca57634e487b7160e01b600052603260045260246000fd5b6020908102919091018101518252810191909152604001600020546001600160a01b03161461220b5760405162461bcd60e51b815260040161047890612ed4565b80612215816131cc565b915050612185565b5060008681526007602090815260408083206001600160a01b038c1684529091528120805487518103909155905b86518110156122c757600088815260066020526040812088518b92908a908590811061228757634e487b7160e01b600052603260045260246000fd5b602090810291909101810151825281019190915260400160002080546001600160a01b0319166001600160a01b039290921691909117905560010161224b565b50855160008881526007602090815260408083206001600160a01b038d168452909152812080549091906122fc9084906130fb565b92505081905550876001600160a01b0316896001600160a01b0316856001600160a01b03167fc3d58168c5ae7397731d063d5bbf3d657854427343f4c083240f7aacaa2d0f628a8a5160405161235392919061303a565b60405180910390a4612369848a8a86868a610b7b565b612378848a8a8a8a518a6123dc565b505050505050505050565b604080516001808252818301909252606091600091906020808301908036833701905050905082816000815181106123cb57634e487b7160e01b600052603260045260246000fd5b602090810291909101015292915050565b6001600160a01b0384163b15610b7b5760405163f23a6e6160e01b81526001600160a01b0385169063f23a6e61906124209089908990889088908890600401612c67565b602060405180830381600087803b15801561243a57600080fd5b505af192505050801561246a575060408051601f3d908101601f1916820190925261246791810190612a40565b60015b6124ca57612476613213565b806308c379a014156124b0575061248b61322a565b8061249657506124b2565b8060405162461bcd60e51b81526004016104789190612cfb565b505b60405162461bcd60e51b815260040161047890612fe6565b6001600160e01b0319811663f23a6e6160e01b146120625760405162461bcd60e51b815260040161047890612e50565b80356001600160a01b038116811461050f57600080fd5b600082601f830112612521578081fd5b8135602061252e826130b1565b60405161253b82826131a0565b838152828101915085830183850287018401881015612558578586fd5b855b858110156125765781358452928401929084019060010161255a565b5090979650505050505050565b600082601f830112612593578081fd5b813561259e816130d4565b6040516125ab82826131a0565b8281528560208487010111156125bf578384fd5b82602086016020830137918201602001929092529392505050565b6000602082840312156125eb578081fd5b6125f4826124fa565b9392505050565b6000806040838503121561260d578081fd5b612616836124fa565b9150612624602084016124fa565b90509250929050565b600080600080600060a08688031215612644578081fd5b61264d866124fa565b945061265b602087016124fa565b935060408601356001600160401b0380821115612676578283fd5b61268289838a01612511565b94506060880135915080821115612697578283fd5b6126a389838a01612511565b935060808801359150808211156126b8578283fd5b506126c588828901612583565b9150509295509295909350565b60008060008060008060a087890312156126ea578081fd5b6126f3876124fa565b9550612701602088016124fa565b94506040870135935060608701356001600160401b0380821115612723578283fd5b818901915089601f830112612736578283fd5b813581811115612744578384fd5b8a60208083028501011115612757578384fd5b602083019550809450506080890135915080821115612774578283fd5b5061278189828a01612583565b9150509295509295509295565b600080600080600060a086880312156127a5578081fd5b6127ae866124fa565b94506127bc602087016124fa565b93506040860135925060608601356001600160401b0380821115612697578283fd5b600080600080600060a086880312156127f5578283fd5b6127fe866124fa565b945061280c602087016124fa565b9350604086013592506060860135915060808601356001600160401b03811115612834578182fd5b6126c588828901612583565b60008060408385031215612852578182fd5b61285b836124fa565b91506020830135801515811461286f578182fd5b809150509250929050565b6000806040838503121561288c578182fd5b612895836124fa565b946020939093013593505050565b6000806000606084860312156128b7578081fd5b6128c0846124fa565b95602085013595506040909401359392505050565b600080600080608085870312156128ea578182fd5b6128f3856124fa565b9350602085013592506040850135915060608501356001600160401b0381111561291b578182fd5b61292787828801612583565b91505092959194509250565b60008060408385031215612945578182fd5b82356001600160401b038082111561295b578384fd5b818501915085601f83011261296e578384fd5b8135602061297b826130b1565b60405161298882826131a0565b8381528281019150858301838502870184018b10156129a5578889fd5b8896505b848710156129ce576129ba816124fa565b8352600196909601959183019183016129a9565b50965050860135925050808211156129e4578283fd5b506129f185828601612511565b9150509250929050565b6000610300808385031215612a0e578182fd5b838184011115612a1c578182fd5b509092915050565b600060208284031215612a35578081fd5b81356125f4816132bb565b600060208284031215612a51578081fd5b81516125f4816132bb565b600060208284031215612a6d578081fd5b81516001600160401b03811115612a82578182fd5b8201601f81018413612a92578182fd5b8051612a9d816130d4565b604051612aaa82826131a0565b828152866020848601011115612abe578485fd5b612acf836020830160208701613174565b9695505050505050565b600060408284031215612aea578081fd5b604051612af86040826131a0565b612b01836124fa565b8152602083013560208201528091505092915050565b600060208284031215612b28578081fd5b5035919050565b60008060408385031215612b41578182fd5b82359150612624602084016124fa565b600080600060608486031215612b65578081fd5b83359250612b75602085016124fa565b9150604084013590509250925092565b60008060408385031215612b97578182fd5b50508035926020909101359150565b60008060408385031215612bb8578182fd5b82359150602083013560ff8116811461286f578182fd5b60008151808452612be7816020860160208601613174565b601f01601f19169290920160200192915050565b60008251612c0d818460208701613174565b9190910192915050565b60008351612c29818460208801613174565b600160fd1b9083019081528351612c47816001840160208801613174565b01600101949350505050565b6001600160a01b0391909116815260200190565b6001600160a01b03868116825285166020820152604081018490526060810183905260a060808201819052600090612ca190830184612bcf565b979650505050505050565b6020808252825182820181905260009190848201906040850190845b81811015612ce457835183529284019291840191600101612cc8565b50909695505050505050565b901515815260200190565b6000602082526125f46020830184612bcf565b600060408252612d216040830185612bcf565b90508260208301529392505050565b6020808252600f908201526e125391115617d393d517d3d5d39151608a1b604082015260600190565b6020808252601190820152701513d2d15397d253925512505312569151607a1b604082015260600190565b60208082526026908201527f4f776e61626c653a206e6577206f776e657220697320746865207a65726f206160408201526564647265737360d01b606082015260800190565b60208082526019908201527f43414c4c45525f4e4f545f4f574e45525f415050524f56454400000000000000604082015260600190565b6020808252600e908201526d14d1539117d59053125117d3919560921b604082015260600190565b6020808252600d908201526c544f4b454e49445f52414e474560981b604082015260600190565b6020808252601f908201527f4552433131353552454345495645525f52454a45435445445f544f4b454e5300604082015260600190565b6020808252600d908201526c20a8282927ab20a62fa9a2a62360991b604082015260600190565b6020808252600c908201526b5a45524f5f4144445245535360a01b604082015260600190565b6020808252600f908201526e1513d2d15397d393d517d3d5d39151608a1b604082015260600190565b60208082526012908201527114149250d154d7d25392551250531256915160721b604082015260600190565b6020808252818101527f4f776e61626c653a2063616c6c6572206973206e6f7420746865206f776e6572604082015260600190565b6020808252601590820152741513d2d15397d393d517d253925512505312569151605a1b604082015260600190565b60208082526016908201527514149250d154d7d393d517d25392551250531256915160521b604082015260600190565b6020808252600f908201526e1393d517d253541311535153951151608a1b604082015260600190565b6020808252602b908201527f7472616e736665725f746f5f6e6f6e2d4552433131353552656365697665725f60408201526a34b6b83632b6b2b73a32b960a91b606082015260800190565b90815260200190565b918252602082015260400190565b9182526001600160401b0316602082015260400190565b6001600160401b0391909116815260200190565b60ff91909116815260200190565b60ff92909216825266ffffffffffffff16602082015260400190565b60ff92831681529116602082015260400190565b60006001600160401b038211156130ca576130ca6131fd565b5060209081020190565b60006001600160401b038211156130ed576130ed6131fd565b50601f01601f191660200190565b6000821982111561310e5761310e6131e7565b500190565b60006001600160401b03808316818516808303821115613135576131356131e7565b01949350505050565b6000816000190483118215151615613158576131586131e7565b500290565b60008282101561316f5761316f6131e7565b500390565b60005b8381101561318f578181015183820152602001613177565b838111156108ad5750506000910152565b601f8201601f191681016001600160401b03811182821017156131c5576131c56131fd565b6040525050565b60006000198214156131e0576131e06131e7565b5060010190565b634e487b7160e01b600052601160045260246000fd5b634e487b7160e01b600052604160045260246000fd5b600060033d1115610cf657600481823e5160e01c90565b600060443d101561323a57610cf6565b6040516003193d81016004833e81513d6001600160401b03816024840111818411171561326b575050505050610cf6565b828501915081518181111561328557505050505050610cf6565b843d87010160208285010111156132a157505050505050610cf6565b6132b0602082860101876131a0565b509094505050505090565b6001600160e01b0319811681146111d857600080fdfea2646970667358221220d1160da6b70e2f3ec73e29d6f1e4de6f3f215a654874b7cfea721e8651ea145064736f6c63430008010033",
  "linkReferences": {},
  "deployedLinkReferences": {},
  "immutableReferences": {},
  "inputSourceName": "project/contracts/test/test_TCF_ERC1155MintTime.sol",
  "devdoc": {
    "kind": "dev",
    "methods": {
      "ESafeTransferFrom(address,address,uint256,uint256[],bytes)": {
        "details": "安全转移无效的token，可以删除，因为后面会在TCF_NFT中实现",
        "params": {
          "indexes": "无效token在mintTimes数组中的位置"
        }
      },
      "addSupportedToken(address)": {
        "details": "添加支持的代币地址列表（原生代币不需要传入地址）。构造函数中已经添加了原生代币TC。 如果项目只支持TC，则不需要调用这个函数。",
        "params": {
          "_tokenAddress": "代币合约地址"
        }
      },
      "balanceOf(address,uint256)": {
        "details": "See {IERC1155-balanceOf}. Requirements: - `account` cannot be the zero address."
      },
      "balanceOfBatch(address[],uint256[])": {
        "details": "See {IERC1155-balanceOfBatch}.没有实现 Requirements: - `accounts` and `ids` must have the same length."
      },
      "changeNFTPrice(uint256,address,uint256)": {
        "details": "修改单个NFT价格",
        "params": {
          "amount": "新价格",
          "tokenAddress": "支付代币地址；原生代币传入address(0)",
          "tokenId": "NFT类型/ID（0-5）"
        }
      },
      "checkInitPricesParams((address,uint256)[2][6])": {
        "details": "初始化价格参数检查：长度、代币是否在支持列表内等。",
        "params": {
          "prices": "6种NFT的价格参数（每种NFT包含 supportedTokenAmount 个价格项）"
        },
        "returns": {
          "_0": "错误码/错误信息；成功时为空字符串"
        }
      },
      "getNFTPrice(uint256,address)": {
        "details": "获取某个NFT在某种支付方式下的价格。",
        "params": {
          "_tokenAddress": "支付代币地址；原生代币传入address(0)",
          "tokenId": "NFT类型/ID（0-5）"
        },
        "returns": {
          "_0": "errorMessage 错误码/错误信息；成功时为空字符串",
          "_1": "price 价格；当errorMessage非空时为0"
        }
      },
      "initPrice((address,uint256)[2][6])": {
        "details": "初始化价格.TC代币的地址设为0",
        "params": {
          "prices": "6种NFT,每中NFT的三类价格"
        }
      },
      "isApprovedForAll(address,address)": {
        "details": "See {IERC1155-isApprovedForAll}."
      },
      "owner()": {
        "details": "Returns the address of the current owner."
      },
      "renounceOwnership()": {
        "details": "Leaves the contract without owner. It will not be possible to call `onlyOwner` functions. Can only be called by the current owner. NOTE: Renouncing ownership will leave the contract without an owner, thereby disabling any functionality that is only available to the owner."
      },
      "safeBatchTransferFrom(address,address,uint256[],uint256[],bytes)": {
        "details": "See {IERC1155-safeBatchTransferFrom}."
      },
      "safeTransferFrom(address,address,uint256,uint256,bytes)": {
        "details": "See {IERC1155-safeTransferFrom}.没有实现 原erc1155的第四个参数是amount，但是我们这个合约中，每个tokenId对应的NFT是不同的，所以第四个参数改为某类NFT下的某个NFTid号"
      },
      "setApprovalForAll(address,bool)": {
        "details": "See {IERC1155-setApprovalForAll}."
      },
      "supportsInterface(bytes4)": {
        "details": "See {IERC165-supportsInterface}."
      },
      "transferOwnership(address)": {
        "details": "Transfers ownership of the contract to a new account (`newOwner`). Can only be called by the current owner."
      }
    },
    "version": 1
  },
  "evm": {
    "gasEstimates": {
      "creation": {
        "codeDepositCost": "2612600",
        "executionCost": "107819",
        "totalCost": "2720419"
      },
      "external": {
        "ESafeTransferFrom(address,address,uint256,uint256[],bytes)": "infinite",
        "NFTPrice_initialized()": "1147",
        "addSupportedToken(address)": "infinite",
        "balanceOf(address,uint256)": "1481",
        "balanceOfBatch(address[],uint256[])": "infinite",
        "changeDynamicRatio(uint256,uint8)": "24850",
        "changeNFTPrice(uint256,address,uint256)": "infinite",
        "checkInitPricesParams((address,uint256)[2][6])": "infinite",
        "getNFTEquityDetails(uint256)": "2218",
        "getNFTPrice(uint256,address)": "infinite",
        "getNftMintTime(uint256,uint256)": "1447",
        "getUserTokenIds(address,uint256)": "infinite",
        "initPrice((address,uint256)[2][6])": "infinite",
        "isApprovedForAll(address,address)": "infinite",
        "isSupported(address)": "1403",
        "owner()": "1160",
        "ownerOf(uint256,uint256)": "1380",
        "renounceOwnership()": "infinite",
        "safeBatchTransferFrom(address,address,uint256[],uint256[],bytes)": "infinite",
        "safeTransferFrom(address,address,uint256,uint256,bytes)": "infinite",
        "setApprovalForAll(address,bool)": "23394",
        "supportedTokenAmount()": "1140",
        "supportsInterface(bytes4)": "649",
        "testGetExpiredTokenIndexes(address,uint256,uint256)": "infinite",
        "testMint(address,uint256,uint256,bytes)": "infinite",
        "testSafeTransferFrom(address,address,uint256,uint256[],bytes)": "infinite",
        "tokenAddress_array(uint256)": "2128",
        "transferOwnership(address)": "23837",
        "uri(uint256)": "626"
      }
    }
  },
  "storageLayout": {
    "storage": [
      {
        "astId": 1670,
        "contract": "project/contracts/test/test_TCF_ERC1155MintTime.sol:test_TCF_ERC1155MintTime",
        "label": "_nextTokenId",
        "offset": 0,
        "slot": "0",
        "type": "t_array(t_uint256)6_storage"
      },
      {
        "astId": 1676,
        "contract": "project/contracts/test/test_TCF_ERC1155MintTime.sol:test_TCF_ERC1155MintTime",
        "label": "_owners",
        "offset": 0,
        "slot": "6",
        "type": "t_mapping(t_uint256,t_mapping(t_uint256,t_address))"
      },
      {
        "astId": 1682,
        "contract": "project/contracts/test/test_TCF_ERC1155MintTime.sol:test_TCF_ERC1155MintTime",
        "label": "_balances",
        "offset": 0,
        "slot": "7",
        "type": "t_mapping(t_uint256,t_mapping(t_address,t_uint256))"
      },
      {
        "astId": 1688,
        "contract": "project/contracts/test/test_TCF_ERC1155MintTime.sol:test_TCF_ERC1155MintTime",
        "label": "_operatorApprovals",
        "offset": 0,
        "slot": "8",
        "type": "t_mapping(t_address,t_mapping(t_address,t_bool))"
      },
      {
        "astId": 5196,
        "contract": "project/contracts/test/test_TCF_ERC1155MintTime.sol:test_TCF_ERC1155MintTime",
        "label": "_owner",
        "offset": 0,
        "slot": "9",
        "type": "t_address"
      },
      {
        "astId": 3216,
        "contract": "project/contracts/test/test_TCF_ERC1155MintTime.sol:test_TCF_ERC1155MintTime",
        "label": "supportTokenType",
        "offset": 0,
        "slot": "10",
        "type": "t_mapping(t_address,t_uint8)"
      },
      {
        "astId": 3218,
        "contract": "project/contracts/test/test_TCF_ERC1155MintTime.sol:test_TCF_ERC1155MintTime",
        "label": "supportedTokenAmount",
        "offset": 0,
        "slot": "11",
        "type": "t_uint256"
      },
      {
        "astId": 3221,
        "contract": "project/contracts/test/test_TCF_ERC1155MintTime.sol:test_TCF_ERC1155MintTime",
        "label": "tokenAddress_array",
        "offset": 0,
        "slot": "12",
        "type": "t_array(t_address)dyn_storage"
      },
      {
        "astId": 3223,
        "contract": "project/contracts/test/test_TCF_ERC1155MintTime.sol:test_TCF_ERC1155MintTime",
        "label": "initedTokenAddress",
        "offset": 0,
        "slot": "13",
        "type": "t_uint8"
      },
      {
        "astId": 3225,
        "contract": "project/contracts/test/test_TCF_ERC1155MintTime.sol:test_TCF_ERC1155MintTime",
        "label": "NFTPrice_initialized",
        "offset": 1,
        "slot": "13",
        "type": "t_uint8"
      },
      {
        "astId": 3244,
        "contract": "project/contracts/test/test_TCF_ERC1155MintTime.sol:test_TCF_ERC1155MintTime",
        "label": "NFTS",
        "offset": 0,
        "slot": "14",
        "type": "t_mapping(t_uint256,t_struct(equities_store)3239_storage)"
      },
      {
        "astId": 2535,
        "contract": "project/contracts/test/test_TCF_ERC1155MintTime.sol:test_TCF_ERC1155MintTime",
        "label": "_ownedTokenIds",
        "offset": 0,
        "slot": "15",
        "type": "t_mapping(t_address,t_mapping(t_uint256,t_array(t_uint256)dyn_storage))"
      },
      {
        "astId": 2541,
        "contract": "project/contracts/test/test_TCF_ERC1155MintTime.sol:test_TCF_ERC1155MintTime",
        "label": "_mintTimes",
        "offset": 0,
        "slot": "16",
        "type": "t_mapping(t_uint256,t_mapping(t_uint256,t_uint64))"
      }
    ],
    "types": {
      "t_address": {
        "encoding": "inplace",
        "label": "address",
        "numberOfBytes": "20"
      },
      "t_array(t_address)dyn_storage": {
        "base": "t_address",
        "encoding": "dynamic_array",
        "label": "address[]",
        "numberOfBytes": "32"
      },
      "t_array(t_uint256)6_storage": {
        "base": "t_uint256",
        "encoding": "inplace",
        "label": "uint256[6]",
        "numberOfBytes": "192"
      },
      "t_array(t_uint256)dyn_storage": {
        "base": "t_uint256",
        "encoding": "dynamic_array",
        "label": "uint256[]",
        "numberOfBytes": "32"
      },
      "t_bool": {
        "encoding": "inplace",
        "label": "bool",
        "numberOfBytes": "1"
      },
      "t_mapping(t_address,t_bool)": {
        "encoding": "mapping",
        "key": "t_address",
        "label": "mapping(address => bool)",
        "numberOfBytes": "32",
        "value": "t_bool"
      },
      "t_mapping(t_address,t_mapping(t_address,t_bool))": {
        "encoding": "mapping",
        "key": "t_address",
        "label": "mapping(address => mapping(address => bool))",
        "numberOfBytes": "32",
        "value": "t_mapping(t_address,t_bool)"
      },
      "t_mapping(t_address,t_mapping(t_uint256,t_array(t_uint256)dyn_storage))": {
        "encoding": "mapping",
        "key": "t_address",
        "label": "mapping(address => mapping(uint256 => uint256[]))",
        "numberOfBytes": "32",
        "value": "t_mapping(t_uint256,t_array(t_uint256)dyn_storage)"
      },
      "t_mapping(t_address,t_uint256)": {
        "encoding": "mapping",
        "key": "t_address",
        "label": "mapping(address => uint256)",
        "numberOfBytes": "32",
        "value": "t_uint256"
      },
      "t_mapping(t_address,t_uint8)": {
        "encoding": "mapping",
        "key": "t_address",
        "label": "mapping(address => uint8)",
        "numberOfBytes": "32",
        "value": "t_uint8"
      },
      "t_mapping(t_uint256,t_address)": {
        "encoding": "mapping",
        "key": "t_uint256",
        "label": "mapping(uint256 => address)",
        "numberOfBytes": "32",
        "value": "t_address"
      },
      "t_mapping(t_uint256,t_array(t_uint256)dyn_storage)": {
        "encoding": "mapping",
        "key": "t_uint256",
        "label": "mapping(uint256 => uint256[])",
        "numberOfBytes": "32",
        "value": "t_array(t_uint256)dyn_storage"
      },
      "t_mapping(t_uint256,t_mapping(t_address,t_uint256))": {
        "encoding": "mapping",
        "key": "t_uint256",
        "label": "mapping(uint256 => mapping(address => uint256))",
        "numberOfBytes": "32",
        "value": "t_mapping(t_address,t_uint256)"
      },
      "t_mapping(t_uint256,t_mapping(t_uint256,t_address))": {
        "encoding": "mapping",
        "key": "t_uint256",
        "label": "mapping(uint256 => mapping(uint256 => address))",
        "numberOfBytes": "32",
        "value": "t_mapping(t_uint256,t_address)"
      },
      "t_mapping(t_uint256,t_mapping(t_uint256,t_uint64))": {
        "encoding": "mapping",
        "key": "t_uint256",
        "label": "mapping(uint256 => mapping(uint256 => uint64))",
        "numberOfBytes": "32",
        "value": "t_mapping(t_uint256,t_uint64)"
      },
      "t_mapping(t_uint256,t_struct(equities_store)3239_storage)": {
        "encoding": "mapping",
        "key": "t_uint256",
        "label": "mapping(uint256 => struct TCF_NFTPrice.equities_store)",
        "numberOfBytes": "32",
        "value": "t_struct(equities_store)3239_storage"
      },
      "t_mapping(t_uint256,t_uint64)": {
        "encoding": "mapping",
        "key": "t_uint256",
        "label": "mapping(uint256 => uint64)",
        "numberOfBytes": "32",
        "value": "t_uint64"
      },
      "t_struct(equities_store)3239_storage": {
        "encoding": "inplace",
        "label": "struct TCF_NFTPrice.equities_store",
        "members": [
          {
            "astId": 3234,
            "contract": "project/contracts/test/test_TCF_ERC1155MintTime.sol:test_TCF_ERC1155MintTime",
            "label": "prices",
            "offset": 0,
            "slot": "0",
            "type": "t_mapping(t_address,t_uint256)"
          },
          {
            "astId": 3236,
            "contract": "project/contracts/test/test_TCF_ERC1155MintTime.sol:test_TCF_ERC1155MintTime",
            "label": "ratio",
            "offset": 0,
            "slot": "1",
            "type": "t_uint8"
          },
          {
            "astId": 3238,
            "contract": "project/contracts/test/test_TCF_ERC1155MintTime.sol:test_TCF_ERC1155MintTime",
            "label": "indate",
            "offset": 1,
            "slot": "1",
            "type": "t_uint56"
          }
        ],
        "numberOfBytes": "64"
      },
      "t_uint256": {
        "encoding": "inplace",
        "label": "uint256",
        "numberOfBytes": "32"
      },
      "t_uint56": {
        "encoding": "inplace",
        "label": "uint56",
        "numberOfBytes": "7"
      },
      "t_uint64": {
        "encoding": "inplace",
        "label": "uint64",
        "numberOfBytes": "8"
      },
      "t_uint8": {
        "encoding": "inplace",
        "label": "uint8",
        "numberOfBytes": "1"
      }
    }
  },
  "userdoc": {
    "kind": "user",
    "methods": {
      "initPrice((address,uint256)[2][6])": {
        "notice": "只能调用一次，调用前必须确保支持的代币地址已经初始化，不需要检查token地址是否初始化，因为在构造函数中，初始化了TC"
      }
    },
    "version": 1
  },
  "argsData": "0x",
  "transaction": {
    "hash": "0xd720a24cb2b76711e756f7c20826f1f522178b3c2f505ce8fa4cac271a945b5c",
    "nonce": "0xb",
    "origin": "0xf39fd6e51aad88f6f4ce6ab8827279cfffb92266"
  }
}