{
  "address": "0xdc64a140aa3e981100a9beca4e685f962f0cf6c9",
  "abi": [
    {
      "inputs": [
        {
          "internalType": "uint256",
          "name": "",
          "type": "uint256"
        }
      ],
      "name": "NFTDeadline",
      "outputs": [
        {
          "internalType": "uint256",
          "name": "",
          "type": "uint256"
        }
      ],
      "stateMutability": "view",
      "type": "function"
    },
    {
      "inputs": [],
      "name": "getIERC20MetadataInterfaceId",
      "outputs": [
        {
          "internalType": "bytes4",
          "name": "",
          "type": "bytes4"
        }
      ],
      "stateMutability": "pure",
      "type": "function"
    },
    {
      "inputs": [
        {
          "internalType": "uint256",
          "name": "_key",
          "type": "uint256"
        },
        {
          "internalType": "uint256",
          "name": "_value",
          "type": "uint256"
        },
        {
          "internalType": "bool",
          "name": "_deleteData",
          "type": "bool"
        }
      ],
      "name": "pushData",
      "outputs": [],
      "stateMutability": "nonpayable",
      "type": "function"
    },
    {
      "inputs": [
        {
          "internalType": "address",
          "name": "tokenAddress",
          "type": "address"
        }
      ],
      "name": "useCall",
      "outputs": [
        {
          "internalType": "string",
          "name": "",
          "type": "string"
        }
      ],
      "stateMutability": "view",
      "type": "function"
    }
  ],
  "contractName": "testGasUsed",
  "sourceName": "contracts/test.sol",
  "bytecode": "0x608060405234801561001057600080fd5b50610773806100206000396000f3fe608060405234801561001057600080fd5b506004361061004c5760003560e01c8063123fa2a8146100515780631dc44d741461006f578063581fe0371461009f578063ff51c6ba146100bb575b600080fd5b6100596100eb565b6040516100669190610500565b60405180910390f35b6100896004803603810190610084919061037f565b610113565b604051610096919061051b565b60405180910390f35b6100b960048036038101906100b49190610412565b61027b565b005b6100d560048036038101906100d091906103e9565b6102a7565b6040516100e2919061053d565b60405180910390f35b60007fa219a02500000000000000000000000000000000000000000000000000000000905090565b606060006040516024016040516020818303038152906040527f95d89b41000000000000000000000000000000000000000000000000000000007bffffffffffffffffffffffffffffffffffffffffffffffffffffffff19166020820180517bffffffffffffffffffffffffffffffffffffffffffffffffffffffff838183161783525050505090506000808473ffffffffffffffffffffffffffffffffffffffff16836040516101c491906104e9565b600060405180830381855afa9150503d80600081146101ff576040519150601f19603f3d011682016040523d82523d6000602084013e610204565b606091505b5091509150818015610217575060008151115b1561023a578080602001905181019061023091906103a8565b9350505050610276565b6040518060400160405280600581526020017f66616c736500000000000000000000000000000000000000000000000000000081525093505050505b919050565b816000808581526020019081526020016000208190555080156102a2576102a1836102bf565b5b505050565b60006020528060005260406000206000915090505481565b6000808281526020019081526020016000206000905550565b60006102eb6102e68461057d565b610558565b90508281526020810184848401111561030357600080fd5b61030e848285610654565b509392505050565b600081359050610325816106f8565b92915050565b60008135905061033a8161070f565b92915050565b600082601f83011261035157600080fd5b81516103618482602086016102d8565b91505092915050565b60008135905061037981610726565b92915050565b60006020828403121561039157600080fd5b600061039f84828501610316565b91505092915050565b6000602082840312156103ba57600080fd5b600082015167ffffffffffffffff8111156103d457600080fd5b6103e084828501610340565b91505092915050565b6000602082840312156103fb57600080fd5b60006104098482850161036a565b91505092915050565b60008060006060848603121561042757600080fd5b60006104358682870161036a565b93505060206104468682870161036a565b92505060406104578682870161032b565b9150509250925092565b61046a816105fe565b82525050565b600061047b826105ae565b61048581856105c4565b9350610495818560208601610654565b80840191505092915050565b60006104ac826105b9565b6104b681856105cf565b93506104c6818560208601610654565b6104cf816106e7565b840191505092915050565b6104e38161064a565b82525050565b60006104f58284610470565b915081905092915050565b60006020820190506105156000830184610461565b92915050565b6000602082019050818103600083015261053581846104a1565b905092915050565b600060208201905061055260008301846104da565b92915050565b6000610562610573565b905061056e8282610687565b919050565b6000604051905090565b600067ffffffffffffffff821115610598576105976106b8565b5b6105a1826106e7565b9050602081019050919050565b600081519050919050565b600081519050919050565b600081905092915050565b600082825260208201905092915050565b60006105eb8261062a565b9050919050565b60008115159050919050565b60007fffffffff0000000000000000000000000000000000000000000000000000000082169050919050565b600073ffffffffffffffffffffffffffffffffffffffff82169050919050565b6000819050919050565b60005b83811015610672578082015181840152602081019050610657565b83811115610681576000848401525b50505050565b610690826106e7565b810181811067ffffffffffffffff821117156106af576106ae6106b8565b5b80604052505050565b7f4e487b7100000000000000000000000000000000000000000000000000000000600052604160045260246000fd5b6000601f19601f8301169050919050565b610701816105e0565b811461070c57600080fd5b50565b610718816105f2565b811461072357600080fd5b50565b61072f8161064a565b811461073a57600080fd5b5056fea26469706673582212203615a51cd2e78cada32fef627068024ff4c3ca10e799fcf3edcebd650583be7864736f6c63430008010033",
  "linkReferences": {},
  "deployedLinkReferences": {},
  "immutableReferences": {},
  "inputSourceName": "project/contracts/test.sol",
  "devdoc": {
    "kind": "dev",
    "methods": {},
    "version": 1
  },
  "evm": {
    "gasEstimates": {
      "creation": {
        "codeDepositCost": "381400",
        "executionCost": "418",
        "totalCost": "381818"
      },
      "external": {
        "NFTDeadline(uint256)": "infinite",
        "getIERC20MetadataInterfaceId()": "321",
        "pushData(uint256,uint256,bool)": "infinite",
        "useCall(address)": "infinite"
      },
      "internal": {
        "deleteData(uint256)": "5104"
      }
    }
  },
  "storageLayout": {
    "storage": [
      {
        "astId": 4745,
        "contract": "project/contracts/test.sol:testGasUsed",
        "label": "NFTDeadline",
        "offset": 0,
        "slot": "0",
        "type": "t_mapping(t_uint256,t_uint256)"
      }
    ],
    "types": {
      "t_mapping(t_uint256,t_uint256)": {
        "encoding": "mapping",
        "key": "t_uint256",
        "label": "mapping(uint256 => uint256)",
        "numberOfBytes": "32",
        "value": "t_uint256"
      },
      "t_uint256": {
        "encoding": "inplace",
        "label": "uint256",
        "numberOfBytes": "32"
      }
    }
  },
  "userdoc": {
    "kind": "user",
    "methods": {},
    "version": 1
  },
  "argsData": "0x",
  "transaction": {
    "hash": "0x509246cc3162795681542c4fc230933d73be9531d3d0af71bad9a8f548130d45",
    "nonce": "0x4",
    "origin": "0xf39fd6e51aad88f6f4ce6ab8827279cfffb92266"
  }
}