{
  "address": "0x610178da211fef7d417bc0e6fed39f05609ad788",
  "abi": [
    {
      "anonymous": false,
      "inputs": [
        {
          "indexed": true,
          "internalType": "address",
          "name": "account",
          "type": "address"
        },
        {
          "indexed": true,
          "internalType": "address",
          "name": "operator",
          "type": "address"
        },
        {
          "indexed": false,
          "internalType": "bool",
          "name": "approved",
          "type": "bool"
        }
      ],
      "name": "ApprovalForAll",
      "type": "event"
    },
    {
      "anonymous": false,
      "inputs": [
        {
          "indexed": true,
          "internalType": "address",
          "name": "operator",
          "type": "address"
        },
        {
          "indexed": true,
          "internalType": "address",
          "name": "from",
          "type": "address"
        },
        {
          "indexed": true,
          "internalType": "address",
          "name": "to",
          "type": "address"
        },
        {
          "indexed": false,
          "internalType": "uint256[]",
          "name": "ids",
          "type": "uint256[]"
        },
        {
          "indexed": false,
          "internalType": "uint256[]",
          "name": "values",
          "type": "uint256[]"
        }
      ],
      "name": "TransferBatch",
      "type": "event"
    },
    {
      "anonymous": false,
      "inputs": [
        {
          "indexed": true,
          "internalType": "address",
          "name": "operator",
          "type": "address"
        },
        {
          "indexed": true,
          "internalType": "address",
          "name": "from",
          "type": "address"
        },
        {
          "indexed": true,
          "internalType": "address",
          "name": "to",
          "type": "address"
        },
        {
          "indexed": false,
          "internalType": "uint256",
          "name": "id",
          "type": "uint256"
        },
        {
          "indexed": false,
          "internalType": "uint256",
          "name": "value",
          "type": "uint256"
        }
      ],
      "name": "TransferSingle",
      "type": "event"
    },
    {
      "anonymous": false,
      "inputs": [
        {
          "indexed": false,
          "internalType": "string",
          "name": "value",
          "type": "string"
        },
        {
          "indexed": true,
          "internalType": "uint256",
          "name": "id",
          "type": "uint256"
        }
      ],
      "name": "URI",
      "type": "event"
    },
    {
      "inputs": [
        {
          "internalType": "uint256",
          "name": "tokenId",
          "type": "uint256"
        },
        {
          "internalType": "uint256",
          "name": "editionId",
          "type": "uint256"
        }
      ],
      "name": "_uri",
      "outputs": [
        {
          "internalType": "string",
          "name": "",
          "type": "string"
        }
      ],
      "stateMutability": "view",
      "type": "function"
    },
    {
      "inputs": [
        {
          "internalType": "address",
          "name": "account",
          "type": "address"
        },
        {
          "internalType": "uint256",
          "name": "id",
          "type": "uint256"
        }
      ],
      "name": "balanceOf",
      "outputs": [
        {
          "internalType": "uint256",
          "name": "",
          "type": "uint256"
        }
      ],
      "stateMutability": "view",
      "type": "function"
    },
    {
      "inputs": [
        {
          "internalType": "address[]",
          "name": "accounts",
          "type": "address[]"
        },
        {
          "internalType": "uint256[]",
          "name": "ids",
          "type": "uint256[]"
        }
      ],
      "name": "balanceOfBatch",
      "outputs": [
        {
          "internalType": "uint256[]",
          "name": "",
          "type": "uint256[]"
        }
      ],
      "stateMutability": "view",
      "type": "function"
    },
    {
      "inputs": [
        {
          "internalType": "address",
          "name": "account",
          "type": "address"
        },
        {
          "internalType": "address",
          "name": "operator",
          "type": "address"
        }
      ],
      "name": "isApprovedForAll",
      "outputs": [
        {
          "internalType": "bool",
          "name": "",
          "type": "bool"
        }
      ],
      "stateMutability": "view",
      "type": "function"
    },
    {
      "inputs": [
        {
          "internalType": "uint256",
          "name": "tokenId",
          "type": "uint256"
        },
        {
          "internalType": "uint256",
          "name": "editionId",
          "type": "uint256"
        }
      ],
      "name": "ownerOf",
      "outputs": [
        {
          "internalType": "address",
          "name": "",
          "type": "address"
        }
      ],
      "stateMutability": "view",
      "type": "function"
    },
    {
      "inputs": [
        {
          "internalType": "address",
          "name": "from",
          "type": "address"
        },
        {
          "internalType": "address",
          "name": "to",
          "type": "address"
        },
        {
          "internalType": "uint256[]",
          "name": "ids",
          "type": "uint256[]"
        },
        {
          "internalType": "uint256[]",
          "name": "amounts",
          "type": "uint256[]"
        },
        {
          "internalType": "bytes",
          "name": "data",
          "type": "bytes"
        }
      ],
      "name": "safeBatchTransferFrom",
      "outputs": [],
      "stateMutability": "nonpayable",
      "type": "function"
    },
    {
      "inputs": [
        {
          "internalType": "address",
          "name": "from",
          "type": "address"
        },
        {
          "internalType": "address",
          "name": "to",
          "type": "address"
        },
        {
          "internalType": "uint256",
          "name": "id",
          "type": "uint256"
        },
        {
          "internalType": "uint256",
          "name": "amount",
          "type": "uint256"
        },
        {
          "internalType": "bytes",
          "name": "data",
          "type": "bytes"
        }
      ],
      "name": "safeTransferFrom",
      "outputs": [],
      "stateMutability": "nonpayable",
      "type": "function"
    },
    {
      "inputs": [
        {
          "internalType": "address",
          "name": "operator",
          "type": "address"
        },
        {
          "internalType": "bool",
          "name": "approved",
          "type": "bool"
        }
      ],
      "name": "setApprovalForAll",
      "outputs": [],
      "stateMutability": "nonpayable",
      "type": "function"
    },
    {
      "inputs": [
        {
          "internalType": "bytes4",
          "name": "interfaceId",
          "type": "bytes4"
        }
      ],
      "name": "supportsInterface",
      "outputs": [
        {
          "internalType": "bool",
          "name": "",
          "type": "bool"
        }
      ],
      "stateMutability": "view",
      "type": "function"
    },
    {
      "inputs": [
        {
          "internalType": "address",
          "name": "from",
          "type": "address"
        },
        {
          "internalType": "address",
          "name": "to",
          "type": "address"
        },
        {
          "internalType": "uint256",
          "name": "id",
          "type": "uint256"
        },
        {
          "internalType": "uint256[]",
          "name": "indexes",
          "type": "uint256[]"
        },
        {
          "internalType": "bytes",
          "name": "data",
          "type": "bytes"
        }
      ],
      "name": "test_SafeTransferFrom",
      "outputs": [],
      "stateMutability": "nonpayable",
      "type": "function"
    },
    {
      "inputs": [
        {
          "internalType": "bytes[6]",
          "name": "baseURI",
          "type": "bytes[6]"
        }
      ],
      "name": "test_SetBaseURI",
      "outputs": [],
      "stateMutability": "nonpayable",
      "type": "function"
    },
    {
      "inputs": [
        {
          "internalType": "uint256",
          "name": "",
          "type": "uint256"
        }
      ],
      "name": "uri",
      "outputs": [
        {
          "internalType": "string",
          "name": "",
          "type": "string"
        }
      ],
      "stateMutability": "view",
      "type": "function"
    }
  ],
  "contractName": "test_TCF_ERC1155URIStorage",
  "sourceName": "contracts/test/test_TCF_ERC1155URIStorage.sol",
  "bytecode": "0x6080604052600f805460ff1916905534801561001a57600080fd5b5061187a8061002a6000396000f3fe608060405234801561001057600080fd5b50600436106100b35760003560e01c8063925be70b11610071578063925be70b14610169578063a22cb4651461017c578063d9dad80d1461018f578063e985e9c5146101af578063f1adfd19146101c2578063f242432a146101d5576100b3565b8062fdd58e146100b857806301ffc9a7146100e1578063027f672d146101015780630e89341c146101215780632eb2c2d6146101345780634e1273f414610149575b600080fd5b6100cb6100c6366004611004565b6101e3565b6040516100d891906115f2565b60405180910390f35b6100f46100ef366004611175565b610282565b6040516100d89190611391565b61011461010f3660046111cc565b6102ca565b6040516100d8919061139c565b61011461012f3660046111b4565b6103c8565b610147610142366004610e04565b6103db565b005b61015c61015736600461102d565b6103e2565b6040516100d8919061134d565b6101476101773660046110f6565b6103ea565b61014761018a366004610fca565b6103f6565b6101a261019d3660046111cc565b61040c565b6040516100d891906112f4565b6100f46101bd366004610dd2565b61047e565b6101476101d0366004610eaa565b6104ac565b610147610142366004610f67565b60006001600160a01b0383166102145760405162461bcd60e51b815260040161020b90611441565b60405180910390fd5b60408051808201909152600d81526c544f4b454e49445f52414e474560981b6020820152600683106102595760405162461bcd60e51b815260040161020b919061139c565b505060009081526007602090815260408083206001600160a01b03949094168352929052205490565b60006001600160e01b03198216636cdb3d1360e11b14806102b357506001600160e01b031982166303a24d0760e21b145b806102c257506102c28261050c565b90505b919050565b6060600683106040518060400160405280600d81526020016c544f4b454e49445f52414e474560981b815250906103145760405162461bcd60e51b815260040161020b919061139c565b506000610321848461040c565b6001600160a01b03161415604051806040016040528060118152602001701253959053125117d15112551253d39251607a1b815250906103745760405162461bcd60e51b815260040161020b919061139c565b506009836006811061039657634e487b7160e01b600052603260045260246000fd5b016103a083610525565b6040516020016103b1929190611246565b604051602081830303815290604052905092915050565b5060408051602081019091526000815290565b5050505050565b606092915050565b6103f38161064e565b50565b6104086104016106fb565b8383610700565b5050565b6000600683106040518060400160405280600d81526020016c544f4b454e49445f52414e474560981b815250906104565760405162461bcd60e51b815260040161020b919061139c565b505060009182526006602090815260408084209284529190529020546001600160a01b031690565b6001600160a01b03918216600090815260086020908152604080832093909416825291909152205460ff1690565b6104b46106fb565b6001600160a01b0316866001600160a01b031614806104da57506104da866101bd6106fb565b6104f65760405162461bcd60e51b815260040161020b9061148b565b6105048686868686866107a3565b505050505050565b6001600160e01b031981166301ffc9a760e01b14919050565b60608161054a57506040805180820190915260018152600360fc1b60208201526102c5565b8160005b8115610574578061055e81611714565b915061056d9050600a83611651565b915061054e565b60008167ffffffffffffffff81111561059d57634e487b7160e01b600052604160045260246000fd5b6040519080825280601f01601f1916602001820160405280156105c7576020820181803683370190505b508593509050815b831561064557806105df81611695565b91506105ee9050600a8561172f565b6105f9906030611639565b60f81b82828151811061061c57634e487b7160e01b600052603260045260246000fd5b60200101906001600160f81b031916908160001a90535061063e600a85611651565b93506105cf565b50949350505050565b600f5460ff16156106715760405162461bcd60e51b815260040161020b9061151e565b60005b60068110156106ea5781816006811061069d57634e487b7160e01b600052603260045260246000fd5b6020020151600982600681106106c357634e487b7160e01b600052603260045260246000fd5b0190805190602001906106d7929190610c41565b50806106e281611714565b915050610674565b5050600f805460ff19166001179055565b335b90565b816001600160a01b0316836001600160a01b031614156107325760405162461bcd60e51b815260040161020b90611555565b6001600160a01b0383811660008181526008602090815260408083209487168084529490915290819020805460ff1916851515179055517f17307eab39ab6107e8899845ad3d59bd9653f200f220920489ca2b5937696c3190610796908590611391565b60405180910390a3505050565b6001600160a01b0385166107c95760405162461bcd60e51b815260040161020b906114d9565b60408051808201909152600d81526c544f4b454e49445f52414e474560981b60208201526006851061080e5760405162461bcd60e51b815260040161020b919061139c565b5060005b828110156108a55760008581526006602052604081206001600160a01b0389169186868581811061085357634e487b7160e01b600052603260045260246000fd5b60209081029290920135835250810191909152604001600020546001600160a01b0316146108935760405162461bcd60e51b815260040161020b906113f7565b8061089d81611714565b915050610812565b5060006108b06106fb565b905060006108bd86610ac1565b905060006108ca85610ac1565b90506108da838a8a858589610504565b60005b858110156109705760008881526006602052604081206001600160a01b038c169189898581811061091e57634e487b7160e01b600052603260045260246000fd5b60209081029290920135835250810191909152604001600020546001600160a01b03161461095e5760405162461bcd60e51b815260040161020b906113f7565b8061096881611714565b9150506108dd565b5060008781526007602090815260408083206001600160a01b038d16845290915281208054878103909155905b86811015610a145760008981526006602052604081208b918a8a858181106109d557634e487b7160e01b600052603260045260246000fd5b6020908102929092013583525081019190915260400160002080546001600160a01b0319166001600160a01b039290921691909117905560010161099d565b5060008881526007602090815260408083206001600160a01b038d16845290915281208054889290610a47908490611639565b90915550506040516001600160a01b03808b16918c8216918716907fc3d58168c5ae7397731d063d5bbf3d657854427343f4c083240f7aacaa2d0f6290610a91908d908c906115fb565b60405180910390a4610aa7848b8b86868a610504565b610ab5848b8b8b8a8a610b1a565b50505050505050505050565b60408051600180825281830190925260609160009190602080830190803683370190505090508281600081518110610b0957634e487b7160e01b600052603260045260246000fd5b602090810291909101015292915050565b6001600160a01b0384163b156105045760405163f23a6e6160e01b81526001600160a01b0385169063f23a6e6190610b5e9089908990889088908890600401611308565b602060405180830381600087803b158015610b7857600080fd5b505af1925050508015610ba8575060408051601f3d908101601f19168201909252610ba591810190611198565b60015b610c0857610bb4611785565b806308c379a01415610bee5750610bc961179c565b80610bd45750610bf0565b8060405162461bcd60e51b815260040161020b919061139c565b505b60405162461bcd60e51b815260040161020b9061159e565b6001600160e01b0319811663f23a6e6160e01b14610c385760405162461bcd60e51b815260040161020b906113af565b50505050505050565b828054610c4d906116ac565b90600052602060002090601f016020900481019282610c6f5760008555610cb5565b82601f10610c8857805160ff1916838001178555610cb5565b82800160010185558215610cb5579182015b82811115610cb5578251825591602001919060010190610c9a565b50610cc1929150610cc5565b5090565b5b80821115610cc15760008155600101610cc6565b80356001600160a01b03811681146102c557600080fd5b600082601f830112610d01578081fd5b81356020610d0e82611609565b604051610d1b82826116e7565b838152828101915085830183850287018401881015610d38578586fd5b855b85811015610d5657813584529284019290840190600101610d3a565b5090979650505050505050565b600082601f830112610d73578081fd5b813567ffffffffffffffff811115610d8d57610d8d61176f565b604051610da4601f8301601f1916602001826116e7565b818152846020838601011115610db8578283fd5b816020850160208301379081016020019190915292915050565b60008060408385031215610de4578182fd5b610ded83610cda565b9150610dfb60208401610cda565b90509250929050565b600080600080600060a08688031215610e1b578081fd5b610e2486610cda565b9450610e3260208701610cda565b9350604086013567ffffffffffffffff80821115610e4e578283fd5b610e5a89838a01610cf1565b94506060880135915080821115610e6f578283fd5b610e7b89838a01610cf1565b93506080880135915080821115610e90578283fd5b50610e9d88828901610d63565b9150509295509295909350565b60008060008060008060a08789031215610ec2578081fd5b610ecb87610cda565b9550610ed960208801610cda565b945060408701359350606087013567ffffffffffffffff80821115610efc578283fd5b818901915089601f830112610f0f578283fd5b813581811115610f1d578384fd5b8a60208083028501011115610f30578384fd5b602083019550809450506080890135915080821115610f4d578283fd5b50610f5a89828a01610d63565b9150509295509295509295565b600080600080600060a08688031215610f7e578081fd5b610f8786610cda565b9450610f9560208701610cda565b93506040860135925060608601359150608086013567ffffffffffffffff811115610fbe578182fd5b610e9d88828901610d63565b60008060408385031215610fdc578182fd5b610fe583610cda565b915060208301358015158114610ff9578182fd5b809150509250929050565b60008060408385031215611016578182fd5b61101f83610cda565b946020939093013593505050565b6000806040838503121561103f578182fd5b823567ffffffffffffffff80821115611056578384fd5b818501915085601f830112611069578384fd5b8135602061107682611609565b60405161108382826116e7565b8381528281019150858301838502870184018b10156110a0578889fd5b8896505b848710156110c9576110b581610cda565b8352600196909601959183019183016110a4565b50965050860135925050808211156110df578283fd5b506110ec85828601610cf1565b9150509250929050565b60006020808385031215611108578182fd5b823567ffffffffffffffff81111561111e578283fd5b8301601f8101851361112e578283fd5b60405161113c60c0826116e7565b8082855b6006811015611168576111568983358701610d63565b83529185019190850190600101611140565b5091979650505050505050565b600060208284031215611186578081fd5b81356111918161182e565b9392505050565b6000602082840312156111a9578081fd5b81516111918161182e565b6000602082840312156111c5578081fd5b5035919050565b600080604083850312156111de578182fd5b50508035926020909101359150565b60008151808452611205816020860160208601611665565b601f01601f19169290920160200192915050565b6000815161122b818560208601611665565b9290920192915050565b64173539b7b760d91b815260050190565b825460009081906002810460018083168061126257607f831692505b602080841082141561128257634e487b7160e01b87526022600452602487fd5b81801561129657600181146112a7576112d3565b60ff198616895284890196506112d3565b6112b08b61162d565b885b868110156112cb5781548b8201529085019083016112b2565b505084890196505b5050505050506112eb6112e68286611219565b611235565b95945050505050565b6001600160a01b0391909116815260200190565b6001600160a01b03868116825285166020820152604081018490526060810183905260a060808201819052600090611342908301846111ed565b979650505050505050565b6020808252825182820181905260009190848201906040850190845b8181101561138557835183529284019291840191600101611369565b50909695505050505050565b901515815260200190565b60006020825261119160208301846111ed565b60208082526028908201527f455243313135353a204552433131353552656365697665722072656a656374656040820152676420746f6b656e7360c01b606082015260800190565b6020808252602a908201527f455243313135353a207472616e73666572206f6620746f6b656e20746861742060408201526934b9903737ba1037bbb760b11b606082015260800190565b6020808252602a908201527f455243313135353a2061646472657373207a65726f206973206e6f742061207660408201526930b634b21037bbb732b960b11b606082015260800190565b6020808252602e908201527f455243313135353a2063616c6c6572206973206e6f7420746f6b656e206f776e60408201526d195c881bdc88185c1c1c9bdd995960921b606082015260800190565b60208082526025908201527f455243313135353a207472616e7366657220746f20746865207a65726f206164604082015264647265737360d81b606082015260800190565b6020808252601c908201527f426173652055524920616c726561647920696e697469616c697a656400000000604082015260600190565b60208082526029908201527f455243313135353a2073657474696e6720617070726f76616c20737461747573604082015268103337b91039b2b63360b91b606082015260800190565b60208082526034908201527f455243313135353a207472616e7366657220746f206e6f6e2d455243313135356040820152732932b1b2b4bb32b91034b6b83632b6b2b73a32b960611b606082015260800190565b90815260200190565b918252602082015260400190565b600067ffffffffffffffff8211156116235761162361176f565b5060209081020190565b60009081526020902090565b6000821982111561164c5761164c611743565b500190565b60008261166057611660611759565b500490565b60005b83811015611680578181015183820152602001611668565b8381111561168f576000848401525b50505050565b6000816116a4576116a4611743565b506000190190565b6002810460018216806116c057607f821691505b602082108114156116e157634e487b7160e01b600052602260045260246000fd5b50919050565b601f8201601f1916810167ffffffffffffffff8111828210171561170d5761170d61176f565b6040525050565b600060001982141561172857611728611743565b5060010190565b60008261173e5761173e611759565b500690565b634e487b7160e01b600052601160045260246000fd5b634e487b7160e01b600052601260045260246000fd5b634e487b7160e01b600052604160045260246000fd5b600060033d11156106fd57600481823e5160e01c90565b600060443d10156117ac576106fd565b6040516003193d81016004833e81513d67ffffffffffffffff81602484011181841117156117de5750505050506106fd565b82850191508151818111156117f8575050505050506106fd565b843d8701016020828501011115611814575050505050506106fd565b611823602082860101876116e7565b509094505050505090565b6001600160e01b0319811681146103f357600080fdfea264697066735822122086f99e43e10047abba2485b8ba7eec3a8a3378446204dfaa7e885ab550523dc964736f6c63430008010033",
  "linkReferences": {},
  "deployedLinkReferences": {},
  "immutableReferences": {},
  "inputSourceName": "project/contracts/test/test_TCF_ERC1155URIStorage.sol",
  "devdoc": {
    "kind": "dev",
    "methods": {
      "balanceOf(address,uint256)": {
        "details": "See {IERC1155-balanceOf}. Requirements: - `account` cannot be the zero address."
      },
      "balanceOfBatch(address[],uint256[])": {
        "details": "See {IERC1155-balanceOfBatch}.没有实现 Requirements: - `accounts` and `ids` must have the same length."
      },
      "isApprovedForAll(address,address)": {
        "details": "See {IERC1155-isApprovedForAll}."
      },
      "safeBatchTransferFrom(address,address,uint256[],uint256[],bytes)": {
        "details": "See {IERC1155-safeBatchTransferFrom}."
      },
      "safeTransferFrom(address,address,uint256,uint256,bytes)": {
        "details": "See {IERC1155-safeTransferFrom}.没有实现"
      },
      "setApprovalForAll(address,bool)": {
        "details": "See {IERC1155-setApprovalForAll}."
      },
      "supportsInterface(bytes4)": {
        "details": "See {IERC165-supportsInterface}."
      },
      "test_SafeTransferFrom(address,address,uint256,uint256[],bytes)": {
        "details": "安全转移无效的token，可以删除，因为后面会在TCF_NFT中实现",
        "params": {
          "indexes": "无效token在mintTimes数组中的位置"
        }
      },
      "uri(uint256)": {
        "details": "See {IERC1155MetadataURI-uri}. This implementation returns the same URI for *all* token types. It relies on the token type ID substitution mechanism https://eips.ethereum.org/EIPS/eip-1155#metadata[defined in the EIP]. Clients calling this function must replace the `\\{id\\}` substring with the actual token type ID."
      }
    },
    "version": 1
  },
  "evm": {
    "gasEstimates": {
      "creation": {
        "codeDepositCost": "1253200",
        "executionCost": "22120",
        "totalCost": "1275320"
      },
      "external": {
        "_uri(uint256,uint256)": "infinite",
        "balanceOf(address,uint256)": "infinite",
        "balanceOfBatch(address[],uint256[])": "infinite",
        "isApprovedForAll(address,address)": "infinite",
        "ownerOf(uint256,uint256)": "infinite",
        "safeBatchTransferFrom(address,address,uint256[],uint256[],bytes)": "infinite",
        "safeTransferFrom(address,address,uint256,uint256,bytes)": "infinite",
        "setApprovalForAll(address,bool)": "23372",
        "supportsInterface(bytes4)": "603",
        "test_SafeTransferFrom(address,address,uint256,uint256[],bytes)": "infinite",
        "test_SetBaseURI(bytes[6])": "infinite",
        "uri(uint256)": "625"
      }
    }
  },
  "storageLayout": {
    "storage": [
      {
        "astId": 358,
        "contract": "project/contracts/test/test_TCF_ERC1155URIStorage.sol:test_TCF_ERC1155URIStorage",
        "label": "_nextTokenId",
        "offset": 0,
        "slot": "0",
        "type": "t_array(t_uint256)6_storage"
      },
      {
        "astId": 364,
        "contract": "project/contracts/test/test_TCF_ERC1155URIStorage.sol:test_TCF_ERC1155URIStorage",
        "label": "_owners",
        "offset": 0,
        "slot": "6",
        "type": "t_mapping(t_uint256,t_mapping(t_uint256,t_address))"
      },
      {
        "astId": 370,
        "contract": "project/contracts/test/test_TCF_ERC1155URIStorage.sol:test_TCF_ERC1155URIStorage",
        "label": "_balances",
        "offset": 0,
        "slot": "7",
        "type": "t_mapping(t_uint256,t_mapping(t_address,t_uint256))"
      },
      {
        "astId": 376,
        "contract": "project/contracts/test/test_TCF_ERC1155URIStorage.sol:test_TCF_ERC1155URIStorage",
        "label": "_operatorApprovals",
        "offset": 0,
        "slot": "8",
        "type": "t_mapping(t_address,t_mapping(t_address,t_bool))"
      },
      {
        "astId": 1702,
        "contract": "project/contracts/test/test_TCF_ERC1155URIStorage.sol:test_TCF_ERC1155URIStorage",
        "label": "_baseURI",
        "offset": 0,
        "slot": "9",
        "type": "t_array(t_string_storage)6_storage"
      },
      {
        "astId": 1705,
        "contract": "project/contracts/test/test_TCF_ERC1155URIStorage.sol:test_TCF_ERC1155URIStorage",
        "label": "_initializedURIStorage",
        "offset": 0,
        "slot": "15",
        "type": "t_uint8"
      },
      {
        "astId": 1711,
        "contract": "project/contracts/test/test_TCF_ERC1155URIStorage.sol:test_TCF_ERC1155URIStorage",
        "label": "_tokenURIs",
        "offset": 0,
        "slot": "16",
        "type": "t_mapping(t_uint256,t_mapping(t_uint256,t_string_storage))"
      }
    ],
    "types": {
      "t_address": {
        "encoding": "inplace",
        "label": "address",
        "numberOfBytes": "20"
      },
      "t_array(t_string_storage)6_storage": {
        "base": "t_string_storage",
        "encoding": "inplace",
        "label": "string[6]",
        "numberOfBytes": "192"
      },
      "t_array(t_uint256)6_storage": {
        "base": "t_uint256",
        "encoding": "inplace",
        "label": "uint256[6]",
        "numberOfBytes": "192"
      },
      "t_bool": {
        "encoding": "inplace",
        "label": "bool",
        "numberOfBytes": "1"
      },
      "t_mapping(t_address,t_bool)": {
        "encoding": "mapping",
        "key": "t_address",
        "label": "mapping(address => bool)",
        "numberOfBytes": "32",
        "value": "t_bool"
      },
      "t_mapping(t_address,t_mapping(t_address,t_bool))": {
        "encoding": "mapping",
        "key": "t_address",
        "label": "mapping(address => mapping(address => bool))",
        "numberOfBytes": "32",
        "value": "t_mapping(t_address,t_bool)"
      },
      "t_mapping(t_address,t_uint256)": {
        "encoding": "mapping",
        "key": "t_address",
        "label": "mapping(address => uint256)",
        "numberOfBytes": "32",
        "value": "t_uint256"
      },
      "t_mapping(t_uint256,t_address)": {
        "encoding": "mapping",
        "key": "t_uint256",
        "label": "mapping(uint256 => address)",
        "numberOfBytes": "32",
        "value": "t_address"
      },
      "t_mapping(t_uint256,t_mapping(t_address,t_uint256))": {
        "encoding": "mapping",
        "key": "t_uint256",
        "label": "mapping(uint256 => mapping(address => uint256))",
        "numberOfBytes": "32",
        "value": "t_mapping(t_address,t_uint256)"
      },
      "t_mapping(t_uint256,t_mapping(t_uint256,t_address))": {
        "encoding": "mapping",
        "key": "t_uint256",
        "label": "mapping(uint256 => mapping(uint256 => address))",
        "numberOfBytes": "32",
        "value": "t_mapping(t_uint256,t_address)"
      },
      "t_mapping(t_uint256,t_mapping(t_uint256,t_string_storage))": {
        "encoding": "mapping",
        "key": "t_uint256",
        "label": "mapping(uint256 => mapping(uint256 => string))",
        "numberOfBytes": "32",
        "value": "t_mapping(t_uint256,t_string_storage)"
      },
      "t_mapping(t_uint256,t_string_storage)": {
        "encoding": "mapping",
        "key": "t_uint256",
        "label": "mapping(uint256 => string)",
        "numberOfBytes": "32",
        "value": "t_string_storage"
      },
      "t_string_storage": {
        "encoding": "bytes",
        "label": "string",
        "numberOfBytes": "32"
      },
      "t_uint256": {
        "encoding": "inplace",
        "label": "uint256",
        "numberOfBytes": "32"
      },
      "t_uint8": {
        "encoding": "inplace",
        "label": "uint8",
        "numberOfBytes": "1"
      }
    }
  },
  "userdoc": {
    "kind": "user",
    "methods": {},
    "version": 1
  },
  "argsData": "0x",
  "transaction": {
    "hash": "0x7d1d441f80a734982a199b6c27648974eee0f90898afaff1c2b5b777eb48f3f8",
    "nonce": "0xa",
    "origin": "0xf39fd6e51aad88f6f4ce6ab8827279cfffb92266"
  }
}