{
  "address": "0x2279b7a0a67db372996a5fab50d91eaa73d2ebe6",
  "abi": [
    {
      "anonymous": false,
      "inputs": [
        {
          "indexed": true,
          "internalType": "address",
          "name": "account",
          "type": "address"
        },
        {
          "indexed": true,
          "internalType": "address",
          "name": "operator",
          "type": "address"
        },
        {
          "indexed": false,
          "internalType": "bool",
          "name": "approved",
          "type": "bool"
        }
      ],
      "name": "ApprovalForAll",
      "type": "event"
    },
    {
      "anonymous": false,
      "inputs": [
        {
          "indexed": true,
          "internalType": "address",
          "name": "operator",
          "type": "address"
        },
        {
          "indexed": true,
          "internalType": "address",
          "name": "from",
          "type": "address"
        },
        {
          "indexed": true,
          "internalType": "address",
          "name": "to",
          "type": "address"
        },
        {
          "indexed": false,
          "internalType": "uint256[]",
          "name": "ids",
          "type": "uint256[]"
        },
        {
          "indexed": false,
          "internalType": "uint256[]",
          "name": "values",
          "type": "uint256[]"
        }
      ],
      "name": "TransferBatch",
      "type": "event"
    },
    {
      "anonymous": false,
      "inputs": [
        {
          "indexed": true,
          "internalType": "address",
          "name": "operator",
          "type": "address"
        },
        {
          "indexed": true,
          "internalType": "address",
          "name": "from",
          "type": "address"
        },
        {
          "indexed": true,
          "internalType": "address",
          "name": "to",
          "type": "address"
        },
        {
          "indexed": false,
          "internalType": "uint256",
          "name": "id",
          "type": "uint256"
        },
        {
          "indexed": false,
          "internalType": "uint256",
          "name": "value",
          "type": "uint256"
        }
      ],
      "name": "TransferSingle",
      "type": "event"
    },
    {
      "anonymous": false,
      "inputs": [
        {
          "indexed": false,
          "internalType": "string",
          "name": "value",
          "type": "string"
        },
        {
          "indexed": true,
          "internalType": "uint256",
          "name": "id",
          "type": "uint256"
        }
      ],
      "name": "URI",
      "type": "event"
    },
    {
      "inputs": [
        {
          "internalType": "address",
          "name": "from",
          "type": "address"
        },
        {
          "internalType": "address",
          "name": "to",
          "type": "address"
        },
        {
          "internalType": "uint256",
          "name": "id",
          "type": "uint256"
        },
        {
          "internalType": "uint256[]",
          "name": "indexes",
          "type": "uint256[]"
        },
        {
          "internalType": "bytes",
          "name": "data",
          "type": "bytes"
        }
      ],
      "name": "ESafeTransferFrom",
      "outputs": [],
      "stateMutability": "nonpayable",
      "type": "function"
    },
    {
      "inputs": [
        {
          "internalType": "address",
          "name": "account",
          "type": "address"
        },
        {
          "internalType": "uint256",
          "name": "id",
          "type": "uint256"
        }
      ],
      "name": "balanceOf",
      "outputs": [
        {
          "internalType": "uint256",
          "name": "",
          "type": "uint256"
        }
      ],
      "stateMutability": "view",
      "type": "function"
    },
    {
      "inputs": [
        {
          "internalType": "address[]",
          "name": "",
          "type": "address[]"
        },
        {
          "internalType": "uint256[]",
          "name": "",
          "type": "uint256[]"
        }
      ],
      "name": "balanceOfBatch",
      "outputs": [
        {
          "internalType": "uint256[]",
          "name": "",
          "type": "uint256[]"
        }
      ],
      "stateMutability": "view",
      "type": "function"
    },
    {
      "inputs": [
        {
          "internalType": "address",
          "name": "account",
          "type": "address"
        },
        {
          "internalType": "address",
          "name": "operator",
          "type": "address"
        }
      ],
      "name": "isApprovedForAll",
      "outputs": [
        {
          "internalType": "bool",
          "name": "",
          "type": "bool"
        }
      ],
      "stateMutability": "view",
      "type": "function"
    },
    {
      "inputs": [
        {
          "internalType": "uint256",
          "name": "tokenId",
          "type": "uint256"
        },
        {
          "internalType": "uint256",
          "name": "editionId",
          "type": "uint256"
        }
      ],
      "name": "ownerOf",
      "outputs": [
        {
          "internalType": "address",
          "name": "",
          "type": "address"
        }
      ],
      "stateMutability": "view",
      "type": "function"
    },
    {
      "inputs": [
        {
          "internalType": "address",
          "name": "",
          "type": "address"
        },
        {
          "internalType": "address",
          "name": "",
          "type": "address"
        },
        {
          "internalType": "uint256[]",
          "name": "",
          "type": "uint256[]"
        },
        {
          "internalType": "uint256[]",
          "name": "",
          "type": "uint256[]"
        },
        {
          "internalType": "bytes",
          "name": "",
          "type": "bytes"
        }
      ],
      "name": "safeBatchTransferFrom",
      "outputs": [],
      "stateMutability": "nonpayable",
      "type": "function"
    },
    {
      "inputs": [
        {
          "internalType": "address",
          "name": "",
          "type": "address"
        },
        {
          "internalType": "address",
          "name": "",
          "type": "address"
        },
        {
          "internalType": "uint256",
          "name": "",
          "type": "uint256"
        },
        {
          "internalType": "uint256",
          "name": "",
          "type": "uint256"
        },
        {
          "internalType": "bytes",
          "name": "",
          "type": "bytes"
        }
      ],
      "name": "safeTransferFrom",
      "outputs": [],
      "stateMutability": "nonpayable",
      "type": "function"
    },
    {
      "inputs": [
        {
          "internalType": "address",
          "name": "operator",
          "type": "address"
        },
        {
          "internalType": "bool",
          "name": "approved",
          "type": "bool"
        }
      ],
      "name": "setApprovalForAll",
      "outputs": [],
      "stateMutability": "nonpayable",
      "type": "function"
    },
    {
      "inputs": [
        {
          "internalType": "bytes4",
          "name": "interfaceId",
          "type": "bytes4"
        }
      ],
      "name": "supportsInterface",
      "outputs": [
        {
          "internalType": "bool",
          "name": "",
          "type": "bool"
        }
      ],
      "stateMutability": "view",
      "type": "function"
    },
    {
      "inputs": [
        {
          "internalType": "address",
          "name": "to",
          "type": "address"
        },
        {
          "internalType": "uint256",
          "name": "id",
          "type": "uint256"
        },
        {
          "internalType": "uint256",
          "name": "amount",
          "type": "uint256"
        },
        {
          "internalType": "bytes",
          "name": "data",
          "type": "bytes"
        }
      ],
      "name": "testMint",
      "outputs": [],
      "stateMutability": "nonpayable",
      "type": "function"
    },
    {
      "inputs": [
        {
          "internalType": "uint256",
          "name": "tokenId",
          "type": "uint256"
        },
        {
          "internalType": "uint256",
          "name": "editionId",
          "type": "uint256"
        }
      ],
      "name": "testOwnerOf",
      "outputs": [
        {
          "internalType": "address",
          "name": "",
          "type": "address"
        }
      ],
      "stateMutability": "view",
      "type": "function"
    },
    {
      "inputs": [
        {
          "internalType": "address",
          "name": "from",
          "type": "address"
        },
        {
          "internalType": "address",
          "name": "to",
          "type": "address"
        },
        {
          "internalType": "uint256",
          "name": "id",
          "type": "uint256"
        },
        {
          "internalType": "uint256[]",
          "name": "indexes",
          "type": "uint256[]"
        },
        {
          "internalType": "bytes",
          "name": "data",
          "type": "bytes"
        }
      ],
      "name": "testSafeTransferFrom",
      "outputs": [],
      "stateMutability": "nonpayable",
      "type": "function"
    },
    {
      "inputs": [
        {
          "internalType": "uint256",
          "name": "",
          "type": "uint256"
        }
      ],
      "name": "uri",
      "outputs": [
        {
          "internalType": "string",
          "name": "",
          "type": "string"
        }
      ],
      "stateMutability": "view",
      "type": "function"
    }
  ],
  "contractName": "test_TCF_ERC1155",
  "sourceName": "contracts/test/test_TCF_ERC1155.sol",
  "bytecode": "0x608060405234801561001057600080fd5b50611524806100206000396000f3fe608060405234801561001057600080fd5b50600436106100ce5760003560e01c8063598c27bc1161008c578063d9dad80d11610066578063d9dad80d146101bd578063dc481313146101dd578063e985e9c5146101f0578063f242432a14610203576100ce565b8063598c27bc14610184578063784da43714610197578063a22cb465146101aa576100ce565b8062fdd58e146100d357806301ffc9a7146100fc5780630e89341c1461011c578063292241f21461013c5780632eb2c2d6146101515780634e1273f414610164575b600080fd5b6100e66100e1366004610ea2565b610216565b6040516100f39190611365565b60405180910390f35b61010f61010a366004610ff3565b61028f565b6040516100f3919061114c565b61012f61012a36600461102b565b6102d7565b6040516100f39190611157565b61014f61014a366004610ecb565b6102f1565b005b61014f61015f366004610ca2565b610303565b610177610172366004610f2a565b61031b565b6040516100f39190611108565b61014f610192366004610d48565b610335565b61014f6101a5366004610d48565b61037f565b61014f6101b8366004610e68565b610395565b6101d06101cb366004611043565b6103ab565b6040516100f391906110af565b6101d06101eb366004611043565b6103f4565b61010f6101fe366004610c70565b610407565b61014f610211366004610e05565b610435565b60006001600160a01b0383166102475760405162461bcd60e51b815260040161023e90611226565b60405180910390fd5b600682106102675760405162461bcd60e51b815260040161023e90611275565b5060009081526007602090815260408083206001600160a01b03949094168352929052205490565b60006001600160e01b03198216636cdb3d1360e11b14806102c057506001600160e01b031982166303a24d0760e21b145b806102cf57506102cf8261044d565b90505b919050565b606060405162461bcd60e51b815260040161023e906112cf565b6102fd84848484610466565b50505050565b60405162461bcd60e51b815260040161023e906112f1565b606060405162461bcd60e51b815260040161023e906112f1565b61033d610661565b6001600160a01b0316866001600160a01b031614806103635750610363866101fe610661565b61037f5760405162461bcd60e51b815260040161023e9061116a565b61038d868686868686610666565b505050505050565b6103a76103a0610661565b838361095e565b5050565b6000600683106103cd5760405162461bcd60e51b815260040161023e906111a1565b5060009182526006602090815260408084209284529190529020546001600160a01b031690565b600061040083836103ab565b9392505050565b6001600160a01b03918216600090815260086020908152604080832093909416825291909152205460ff1690565b60405162461bcd60e51b815260040161023e906112a0565b6001600160e01b031981166301ffc9a760e01b14919050565b600683106104865760405162461bcd60e51b815260040161023e906111a1565b6001600160a01b0384166104ac5760405162461bcd60e51b815260040161023e90611226565b60006104b6610661565b905060006104c385610a01565b905060006104d085610a01565b90506104e18360008985858961038d565b60008681526007602090815260408083206001600160a01b038b168452909152812080548792906105139084906113a0565b90915550600090505b858110156105a857876006600089815260200190815260200160002060008360008b6006811061055c57634e487b7160e01b600052603260045260246000fd5b015461056891906113a0565b8152602081019190915260400160002080546001600160a01b0319166001600160a01b0392909216919091179055806105a0816113e5565b91505061051c565b5084600087600681106105cb57634e487b7160e01b600052603260045260246000fd5b0160008282546105db91906113a0565b92505081905550866001600160a01b031660006001600160a01b0316846001600160a01b03167fc3d58168c5ae7397731d063d5bbf3d657854427343f4c083240f7aacaa2d0f62898960405161063292919061136e565b60405180910390a46106498360008985858961038d565b61065883600089898989610a5a565b50505050505050565b335b90565b6001600160a01b03851661068c5760405162461bcd60e51b815260040161023e90611226565b600684106106ac5760405162461bcd60e51b815260040161023e906111a1565b60005b828110156107425760008581526006602052604081206001600160a01b038916918686858181106106f057634e487b7160e01b600052603260045260246000fd5b60209081029290920135835250810191909152604001600020546001600160a01b0316146107305760405162461bcd60e51b815260040161023e9061124c565b8061073a816113e5565b9150506106af565b50600061074d610661565b9050600061075a86610a01565b9050600061076785610a01565b9050610777838a8a85858961038d565b60005b8581101561080d5760008881526006602052604081206001600160a01b038c16918989858181106107bb57634e487b7160e01b600052603260045260246000fd5b60209081029290920135835250810191909152604001600020546001600160a01b0316146107fb5760405162461bcd60e51b815260040161023e9061124c565b80610805816113e5565b91505061077a565b5060008781526007602090815260408083206001600160a01b038d16845290915281208054878103909155905b868110156108b15760008981526006602052604081208b918a8a8581811061087257634e487b7160e01b600052603260045260246000fd5b6020908102929092013583525081019190915260400160002080546001600160a01b0319166001600160a01b039290921691909117905560010161083a565b5060008881526007602090815260408083206001600160a01b038d168452909152812080548892906108e49084906113a0565b90915550506040516001600160a01b03808b16918c8216918716907fc3d58168c5ae7397731d063d5bbf3d657854427343f4c083240f7aacaa2d0f629061092e908d908c9061136e565b60405180910390a4610944848b8b86868a61038d565b610952848b8b8b8a8a610a5a565b50505050505050505050565b816001600160a01b0316836001600160a01b031614156109905760405162461bcd60e51b815260040161023e906111ff565b6001600160a01b0383811660008181526008602090815260408083209487168084529490915290819020805460ff1916851515179055517f17307eab39ab6107e8899845ad3d59bd9653f200f220920489ca2b5937696c31906109f490859061114c565b60405180910390a3505050565b60408051600180825281830190925260609160009190602080830190803683370190505090508281600081518110610a4957634e487b7160e01b600052603260045260246000fd5b602090810291909101015292915050565b6001600160a01b0384163b1561038d5760405163f23a6e6160e01b81526001600160a01b0385169063f23a6e6190610a9e90899089908890889088906004016110c3565b602060405180830381600087803b158015610ab857600080fd5b505af1925050508015610ae8575060408051601f3d908101601f19168201909252610ae59181019061100f565b60015b610b4857610af461142c565b806308c379a01415610b2e5750610b09611443565b80610b145750610b30565b8060405162461bcd60e51b815260040161023e9190611157565b505b60405162461bcd60e51b815260040161023e9061131a565b6001600160e01b0319811663f23a6e6160e01b146106585760405162461bcd60e51b815260040161023e906111c8565b80356001600160a01b03811681146102d257600080fd5b600082601f830112610b9f578081fd5b81356020610bac8261137c565b604051610bb982826113b8565b838152828101915085830183850287018401881015610bd6578586fd5b855b85811015610bf457813584529284019290840190600101610bd8565b5090979650505050505050565b600082601f830112610c11578081fd5b813567ffffffffffffffff811115610c2b57610c2b611416565b604051610c42601f8301601f1916602001826113b8565b818152846020838601011115610c56578283fd5b816020850160208301379081016020019190915292915050565b60008060408385031215610c82578182fd5b610c8b83610b78565b9150610c9960208401610b78565b90509250929050565b600080600080600060a08688031215610cb9578081fd5b610cc286610b78565b9450610cd060208701610b78565b9350604086013567ffffffffffffffff80821115610cec578283fd5b610cf889838a01610b8f565b94506060880135915080821115610d0d578283fd5b610d1989838a01610b8f565b93506080880135915080821115610d2e578283fd5b50610d3b88828901610c01565b9150509295509295909350565b60008060008060008060a08789031215610d60578081fd5b610d6987610b78565b9550610d7760208801610b78565b945060408701359350606087013567ffffffffffffffff80821115610d9a578283fd5b818901915089601f830112610dad578283fd5b813581811115610dbb578384fd5b8a60208083028501011115610dce578384fd5b602083019550809450506080890135915080821115610deb578283fd5b50610df889828a01610c01565b9150509295509295509295565b600080600080600060a08688031215610e1c578081fd5b610e2586610b78565b9450610e3360208701610b78565b93506040860135925060608601359150608086013567ffffffffffffffff811115610e5c578182fd5b610d3b88828901610c01565b60008060408385031215610e7a578182fd5b610e8383610b78565b915060208301358015158114610e97578182fd5b809150509250929050565b60008060408385031215610eb4578182fd5b610ebd83610b78565b946020939093013593505050565b60008060008060808587031215610ee0578384fd5b610ee985610b78565b93506020850135925060408501359150606085013567ffffffffffffffff811115610f12578182fd5b610f1e87828801610c01565b91505092959194509250565b60008060408385031215610f3c578182fd5b823567ffffffffffffffff80821115610f53578384fd5b818501915085601f830112610f66578384fd5b81356020610f738261137c565b604051610f8082826113b8565b8381528281019150858301838502870184018b1015610f9d578889fd5b8896505b84871015610fc657610fb281610b78565b835260019690960195918301918301610fa1565b5096505086013592505080821115610fdc578283fd5b50610fe985828601610b8f565b9150509250929050565b600060208284031215611004578081fd5b8135610400816114d5565b600060208284031215611020578081fd5b8151610400816114d5565b60006020828403121561103c578081fd5b5035919050565b60008060408385031215611055578182fd5b50508035926020909101359150565b60008151808452815b818110156110895760208185018101518683018201520161106d565b8181111561109a5782602083870101525b50601f01601f19169290920160200192915050565b6001600160a01b0391909116815260200190565b6001600160a01b03868116825285166020820152604081018490526060810183905260a0608082018190526000906110fd90830184611064565b979650505050505050565b6020808252825182820181905260009190848201906040850190845b8181101561114057835183529284019291840191600101611124565b50909695505050505050565b901515815260200190565b6000602082526104006020830184611064565b60208082526019908201527f43414c4c45525f4e4f545f4f574e45525f415050524f56454400000000000000604082015260600190565b6020808252600d908201526c544f4b454e49445f52414e474560981b604082015260600190565b6020808252601f908201527f4552433131353552454345495645525f52454a45435445445f544f4b454e5300604082015260600190565b6020808252600d908201526c20a8282927ab20a62fa9a2a62360991b604082015260600190565b6020808252600c908201526b5a45524f5f4144445245535360a01b604082015260600190565b6020808252600f908201526e1513d2d15397d393d517d3d5d39151608a1b604082015260600190565b6020808252601190820152704552525f544f4b454e49445f52414e474560781b604082015260600190565b6020808252601590820152745553455f45536166655472616e7366657246726f6d60581b604082015260600190565b6020808252600890820152675553455f4575726960c01b604082015260600190565b6020808252600f908201526e1393d517d253541311535153951151608a1b604082015260600190565b6020808252602b908201527f7472616e736665725f746f5f6e6f6e2d4552433131353552656365697665725f60408201526a34b6b83632b6b2b73a32b960a91b606082015260800190565b90815260200190565b918252602082015260400190565b600067ffffffffffffffff82111561139657611396611416565b5060209081020190565b600082198211156113b3576113b3611400565b500190565b601f8201601f1916810167ffffffffffffffff811182821017156113de576113de611416565b6040525050565b60006000198214156113f9576113f9611400565b5060010190565b634e487b7160e01b600052601160045260246000fd5b634e487b7160e01b600052604160045260246000fd5b600060033d111561066357600481823e5160e01c90565b600060443d101561145357610663565b6040516003193d81016004833e81513d67ffffffffffffffff8160248401118184111715611485575050505050610663565b828501915081518181111561149f57505050505050610663565b843d87010160208285010111156114bb57505050505050610663565b6114ca602082860101876113b8565b509094505050505090565b6001600160e01b0319811681146114eb57600080fd5b5056fea26469706673582212208d4f0fec66515bc24f4f1dc9f3ec2f7dedcab89a21642908004af059e27b0cad64736f6c63430008010033",
  "linkReferences": {},
  "deployedLinkReferences": {},
  "immutableReferences": {},
  "inputSourceName": "project/contracts/test/test_TCF_ERC1155.sol",
  "devdoc": {
    "kind": "dev",
    "methods": {
      "ESafeTransferFrom(address,address,uint256,uint256[],bytes)": {
        "details": "安全转移无效的token，可以删除，因为后面会在TCF_NFT中实现",
        "params": {
          "indexes": "无效token在mintTimes数组中的位置"
        }
      },
      "balanceOf(address,uint256)": {
        "details": "See {IERC1155-balanceOf}. Requirements: - `account` cannot be the zero address."
      },
      "balanceOfBatch(address[],uint256[])": {
        "details": "See {IERC1155-balanceOfBatch}.没有实现 Requirements: - `accounts` and `ids` must have the same length."
      },
      "isApprovedForAll(address,address)": {
        "details": "See {IERC1155-isApprovedForAll}."
      },
      "safeBatchTransferFrom(address,address,uint256[],uint256[],bytes)": {
        "details": "See {IERC1155-safeBatchTransferFrom}."
      },
      "safeTransferFrom(address,address,uint256,uint256,bytes)": {
        "details": "See {IERC1155-safeTransferFrom}.没有实现"
      },
      "setApprovalForAll(address,bool)": {
        "details": "See {IERC1155-setApprovalForAll}."
      },
      "supportsInterface(bytes4)": {
        "details": "See {IERC165-supportsInterface}."
      }
    },
    "version": 1
  },
  "evm": {
    "gasEstimates": {
      "creation": {
        "codeDepositCost": "1082400",
        "executionCost": "1127",
        "totalCost": "1083527"
      },
      "external": {
        "ESafeTransferFrom(address,address,uint256,uint256[],bytes)": "infinite",
        "balanceOf(address,uint256)": "1430",
        "balanceOfBatch(address[],uint256[])": "infinite",
        "isApprovedForAll(address,address)": "infinite",
        "ownerOf(uint256,uint256)": "1358",
        "safeBatchTransferFrom(address,address,uint256[],uint256[],bytes)": "infinite",
        "safeTransferFrom(address,address,uint256,uint256,bytes)": "infinite",
        "setApprovalForAll(address,bool)": "23417",
        "supportsInterface(bytes4)": "603",
        "testMint(address,uint256,uint256,bytes)": "infinite",
        "testOwnerOf(uint256,uint256)": "1425",
        "testSafeTransferFrom(address,address,uint256,uint256[],bytes)": "infinite",
        "uri(uint256)": "404"
      }
    }
  },
  "storageLayout": {
    "storage": [
      {
        "astId": 375,
        "contract": "project/contracts/test/test_TCF_ERC1155.sol:test_TCF_ERC1155",
        "label": "_nextTokenId",
        "offset": 0,
        "slot": "0",
        "type": "t_array(t_uint256)6_storage"
      },
      {
        "astId": 381,
        "contract": "project/contracts/test/test_TCF_ERC1155.sol:test_TCF_ERC1155",
        "label": "_owners",
        "offset": 0,
        "slot": "6",
        "type": "t_mapping(t_uint256,t_mapping(t_uint256,t_address))"
      },
      {
        "astId": 387,
        "contract": "project/contracts/test/test_TCF_ERC1155.sol:test_TCF_ERC1155",
        "label": "_balances",
        "offset": 0,
        "slot": "7",
        "type": "t_mapping(t_uint256,t_mapping(t_address,t_uint256))"
      },
      {
        "astId": 393,
        "contract": "project/contracts/test/test_TCF_ERC1155.sol:test_TCF_ERC1155",
        "label": "_operatorApprovals",
        "offset": 0,
        "slot": "8",
        "type": "t_mapping(t_address,t_mapping(t_address,t_bool))"
      }
    ],
    "types": {
      "t_address": {
        "encoding": "inplace",
        "label": "address",
        "numberOfBytes": "20"
      },
      "t_array(t_uint256)6_storage": {
        "base": "t_uint256",
        "encoding": "inplace",
        "label": "uint256[6]",
        "numberOfBytes": "192"
      },
      "t_bool": {
        "encoding": "inplace",
        "label": "bool",
        "numberOfBytes": "1"
      },
      "t_mapping(t_address,t_bool)": {
        "encoding": "mapping",
        "key": "t_address",
        "label": "mapping(address => bool)",
        "numberOfBytes": "32",
        "value": "t_bool"
      },
      "t_mapping(t_address,t_mapping(t_address,t_bool))": {
        "encoding": "mapping",
        "key": "t_address",
        "label": "mapping(address => mapping(address => bool))",
        "numberOfBytes": "32",
        "value": "t_mapping(t_address,t_bool)"
      },
      "t_mapping(t_address,t_uint256)": {
        "encoding": "mapping",
        "key": "t_address",
        "label": "mapping(address => uint256)",
        "numberOfBytes": "32",
        "value": "t_uint256"
      },
      "t_mapping(t_uint256,t_address)": {
        "encoding": "mapping",
        "key": "t_uint256",
        "label": "mapping(uint256 => address)",
        "numberOfBytes": "32",
        "value": "t_address"
      },
      "t_mapping(t_uint256,t_mapping(t_address,t_uint256))": {
        "encoding": "mapping",
        "key": "t_uint256",
        "label": "mapping(uint256 => mapping(address => uint256))",
        "numberOfBytes": "32",
        "value": "t_mapping(t_address,t_uint256)"
      },
      "t_mapping(t_uint256,t_mapping(t_uint256,t_address))": {
        "encoding": "mapping",
        "key": "t_uint256",
        "label": "mapping(uint256 => mapping(uint256 => address))",
        "numberOfBytes": "32",
        "value": "t_mapping(t_uint256,t_address)"
      },
      "t_uint256": {
        "encoding": "inplace",
        "label": "uint256",
        "numberOfBytes": "32"
      }
    }
  },
  "userdoc": {
    "kind": "user",
    "methods": {},
    "version": 1
  },
  "argsData": "0x",
  "transaction": {
    "hash": "0x6dddaa84c0d49ef1bcd08fb3efc9d060c894c6905feefb75563c8ae4c2b8d8a9",
    "nonce": "0x8",
    "origin": "0xf39fd6e51aad88f6f4ce6ab8827279cfffb92266"
  }
}