{
  "address": "0x8a791620dd6260079bf849dc5567adc3f2fdc318",
  "abi": [
    {
      "anonymous": false,
      "inputs": [
        {
          "indexed": true,
          "internalType": "address",
          "name": "account",
          "type": "address"
        },
        {
          "indexed": true,
          "internalType": "address",
          "name": "operator",
          "type": "address"
        },
        {
          "indexed": false,
          "internalType": "bool",
          "name": "approved",
          "type": "bool"
        }
      ],
      "name": "ApprovalForAll",
      "type": "event"
    },
    {
      "anonymous": false,
      "inputs": [
        {
          "indexed": true,
          "internalType": "uint256",
          "name": "tokenID",
          "type": "uint256"
        },
        {
          "indexed": false,
          "internalType": "uint8",
          "name": "previousRatio",
          "type": "uint8"
        },
        {
          "indexed": false,
          "internalType": "uint8",
          "name": "newRatio",
          "type": "uint8"
        }
      ],
      "name": "DynamicRatioChanged",
      "type": "event"
    },
    {
      "anonymous": false,
      "inputs": [
        {
          "indexed": true,
          "internalType": "uint256",
          "name": "tokenID",
          "type": "uint256"
        },
        {
          "indexed": true,
          "internalType": "address",
          "name": "paymentToken",
          "type": "address"
        },
        {
          "indexed": false,
          "internalType": "uint256",
          "name": "oldPrice",
          "type": "uint256"
        },
        {
          "indexed": false,
          "internalType": "uint256",
          "name": "newPrice",
          "type": "uint256"
        }
      ],
      "name": "NFTPriceChanged",
      "type": "event"
    },
    {
      "anonymous": false,
      "inputs": [
        {
          "indexed": true,
          "internalType": "address",
          "name": "previousOwner",
          "type": "address"
        },
        {
          "indexed": true,
          "internalType": "address",
          "name": "newOwner",
          "type": "address"
        }
      ],
      "name": "OwnershipTransferred",
      "type": "event"
    },
    {
      "anonymous": false,
      "inputs": [
        {
          "indexed": true,
          "internalType": "address",
          "name": "to",
          "type": "address"
        },
        {
          "indexed": true,
          "internalType": "uint256",
          "name": "tokenId",
          "type": "uint256"
        },
        {
          "indexed": false,
          "internalType": "uint256",
          "name": "editionId",
          "type": "uint256"
        },
        {
          "indexed": false,
          "internalType": "uint256",
          "name": "mintedAt",
          "type": "uint256"
        }
      ],
      "name": "TokenEditionMinted",
      "type": "event"
    },
    {
      "anonymous": false,
      "inputs": [
        {
          "indexed": true,
          "internalType": "address",
          "name": "operator",
          "type": "address"
        },
        {
          "indexed": true,
          "internalType": "address",
          "name": "from",
          "type": "address"
        },
        {
          "indexed": true,
          "internalType": "address",
          "name": "to",
          "type": "address"
        },
        {
          "indexed": false,
          "internalType": "uint256[]",
          "name": "ids",
          "type": "uint256[]"
        },
        {
          "indexed": false,
          "internalType": "uint256[]",
          "name": "values",
          "type": "uint256[]"
        }
      ],
      "name": "TransferBatch",
      "type": "event"
    },
    {
      "anonymous": false,
      "inputs": [
        {
          "indexed": true,
          "internalType": "address",
          "name": "operator",
          "type": "address"
        },
        {
          "indexed": true,
          "internalType": "address",
          "name": "from",
          "type": "address"
        },
        {
          "indexed": true,
          "internalType": "address",
          "name": "to",
          "type": "address"
        },
        {
          "indexed": false,
          "internalType": "uint256",
          "name": "id",
          "type": "uint256"
        },
        {
          "indexed": false,
          "internalType": "uint256",
          "name": "value",
          "type": "uint256"
        }
      ],
      "name": "TransferSingle",
      "type": "event"
    },
    {
      "anonymous": false,
      "inputs": [
        {
          "indexed": false,
          "internalType": "string",
          "name": "value",
          "type": "string"
        },
        {
          "indexed": true,
          "internalType": "uint256",
          "name": "id",
          "type": "uint256"
        }
      ],
      "name": "URI",
      "type": "event"
    },
    {
      "inputs": [
        {
          "internalType": "address",
          "name": "from",
          "type": "address"
        },
        {
          "internalType": "address",
          "name": "to",
          "type": "address"
        },
        {
          "internalType": "uint256",
          "name": "id",
          "type": "uint256"
        },
        {
          "internalType": "uint256[]",
          "name": "indexes",
          "type": "uint256[]"
        },
        {
          "internalType": "bytes",
          "name": "data",
          "type": "bytes"
        }
      ],
      "name": "ESafeTransferFrom",
      "outputs": [],
      "stateMutability": "nonpayable",
      "type": "function"
    },
    {
      "inputs": [],
      "name": "NFTPrice_initialized",
      "outputs": [
        {
          "internalType": "uint8",
          "name": "",
          "type": "uint8"
        }
      ],
      "stateMutability": "view",
      "type": "function"
    },
    {
      "inputs": [
        {
          "internalType": "uint256",
          "name": "",
          "type": "uint256"
        }
      ],
      "name": "NFTS",
      "outputs": [
        {
          "internalType": "uint8",
          "name": "ratio",
          "type": "uint8"
        },
        {
          "internalType": "uint32",
          "name": "indate",
          "type": "uint32"
        }
      ],
      "stateMutability": "view",
      "type": "function"
    },
    {
      "inputs": [
        {
          "internalType": "address",
          "name": "_tokenAddress",
          "type": "address"
        }
      ],
      "name": "addSupportedToken",
      "outputs": [],
      "stateMutability": "nonpayable",
      "type": "function"
    },
    {
      "inputs": [
        {
          "internalType": "address",
          "name": "account",
          "type": "address"
        },
        {
          "internalType": "uint256",
          "name": "id",
          "type": "uint256"
        }
      ],
      "name": "balanceOf",
      "outputs": [
        {
          "internalType": "uint256",
          "name": "",
          "type": "uint256"
        }
      ],
      "stateMutability": "view",
      "type": "function"
    },
    {
      "inputs": [
        {
          "internalType": "address[]",
          "name": "",
          "type": "address[]"
        },
        {
          "internalType": "uint256[]",
          "name": "",
          "type": "uint256[]"
        }
      ],
      "name": "balanceOfBatch",
      "outputs": [
        {
          "internalType": "uint256[]",
          "name": "",
          "type": "uint256[]"
        }
      ],
      "stateMutability": "view",
      "type": "function"
    },
    {
      "inputs": [
        {
          "internalType": "uint256",
          "name": "tokenID",
          "type": "uint256"
        },
        {
          "internalType": "uint8",
          "name": "newRatio",
          "type": "uint8"
        }
      ],
      "name": "changeDynamicRatio",
      "outputs": [],
      "stateMutability": "nonpayable",
      "type": "function"
    },
    {
      "inputs": [
        {
          "internalType": "uint256",
          "name": "tokenID",
          "type": "uint256"
        },
        {
          "internalType": "address",
          "name": "tokenAddress",
          "type": "address"
        },
        {
          "internalType": "uint256",
          "name": "amount",
          "type": "uint256"
        }
      ],
      "name": "changeNFTPrice",
      "outputs": [],
      "stateMutability": "nonpayable",
      "type": "function"
    },
    {
      "inputs": [
        {
          "components": [
            {
              "internalType": "address",
              "name": "tokenAddress",
              "type": "address"
            },
            {
              "internalType": "uint256",
              "name": "amount",
              "type": "uint256"
            }
          ],
          "internalType": "struct TCF_NFTPrice.priceTypeAndAomut[][6]",
          "name": "prices",
          "type": "tuple[][6]"
        }
      ],
      "name": "checkInitPricesParams",
      "outputs": [
        {
          "internalType": "string",
          "name": "",
          "type": "string"
        }
      ],
      "stateMutability": "view",
      "type": "function"
    },
    {
      "inputs": [
        {
          "internalType": "uint256",
          "name": "tokenID",
          "type": "uint256"
        },
        {
          "internalType": "address",
          "name": "_tokenAddress",
          "type": "address"
        }
      ],
      "name": "getNFTPrice",
      "outputs": [
        {
          "internalType": "string",
          "name": "",
          "type": "string"
        },
        {
          "internalType": "uint256",
          "name": "",
          "type": "uint256"
        }
      ],
      "stateMutability": "view",
      "type": "function"
    },
    {
      "inputs": [
        {
          "internalType": "uint256",
          "name": "tokenId",
          "type": "uint256"
        },
        {
          "internalType": "address",
          "name": "account",
          "type": "address"
        },
        {
          "internalType": "uint256",
          "name": "editionId",
          "type": "uint256"
        }
      ],
      "name": "getNftMintTime",
      "outputs": [
        {
          "internalType": "uint256",
          "name": "",
          "type": "uint256"
        }
      ],
      "stateMutability": "view",
      "type": "function"
    },
    {
      "inputs": [
        {
          "internalType": "address",
          "name": "owner",
          "type": "address"
        }
      ],
      "name": "getTotalNFTWorth",
      "outputs": [
        {
          "internalType": "uint256",
          "name": "",
          "type": "uint256"
        }
      ],
      "stateMutability": "view",
      "type": "function"
    },
    {
      "inputs": [
        {
          "internalType": "address",
          "name": "account",
          "type": "address"
        },
        {
          "internalType": "uint256",
          "name": "tokenId",
          "type": "uint256"
        }
      ],
      "name": "getUserTokenIds",
      "outputs": [
        {
          "internalType": "uint256[]",
          "name": "",
          "type": "uint256[]"
        }
      ],
      "stateMutability": "view",
      "type": "function"
    },
    {
      "inputs": [
        {
          "components": [
            {
              "internalType": "address",
              "name": "tokenAddress",
              "type": "address"
            },
            {
              "internalType": "uint256",
              "name": "amount",
              "type": "uint256"
            }
          ],
          "internalType": "struct TCF_NFTPrice.priceTypeAndAomut[][6]",
          "name": "prices",
          "type": "tuple[][6]"
        }
      ],
      "name": "initPrice",
      "outputs": [],
      "stateMutability": "nonpayable",
      "type": "function"
    },
    {
      "inputs": [
        {
          "internalType": "address",
          "name": "account",
          "type": "address"
        },
        {
          "internalType": "address",
          "name": "operator",
          "type": "address"
        }
      ],
      "name": "isApprovedForAll",
      "outputs": [
        {
          "internalType": "bool",
          "name": "",
          "type": "bool"
        }
      ],
      "stateMutability": "view",
      "type": "function"
    },
    {
      "inputs": [
        {
          "internalType": "address",
          "name": "token",
          "type": "address"
        }
      ],
      "name": "isSupported",
      "outputs": [
        {
          "internalType": "uint8",
          "name": "",
          "type": "uint8"
        }
      ],
      "stateMutability": "view",
      "type": "function"
    },
    {
      "inputs": [],
      "name": "owner",
      "outputs": [
        {
          "internalType": "address",
          "name": "",
          "type": "address"
        }
      ],
      "stateMutability": "view",
      "type": "function"
    },
    {
      "inputs": [
        {
          "internalType": "uint256",
          "name": "tokenId",
          "type": "uint256"
        },
        {
          "internalType": "uint256",
          "name": "editionId",
          "type": "uint256"
        }
      ],
      "name": "ownerOf",
      "outputs": [
        {
          "internalType": "address",
          "name": "",
          "type": "address"
        }
      ],
      "stateMutability": "view",
      "type": "function"
    },
    {
      "inputs": [],
      "name": "renounceOwnership",
      "outputs": [],
      "stateMutability": "nonpayable",
      "type": "function"
    },
    {
      "inputs": [
        {
          "internalType": "address",
          "name": "",
          "type": "address"
        },
        {
          "internalType": "address",
          "name": "",
          "type": "address"
        },
        {
          "internalType": "uint256[]",
          "name": "",
          "type": "uint256[]"
        },
        {
          "internalType": "uint256[]",
          "name": "",
          "type": "uint256[]"
        },
        {
          "internalType": "bytes",
          "name": "",
          "type": "bytes"
        }
      ],
      "name": "safeBatchTransferFrom",
      "outputs": [],
      "stateMutability": "nonpayable",
      "type": "function"
    },
    {
      "inputs": [
        {
          "internalType": "address",
          "name": "",
          "type": "address"
        },
        {
          "internalType": "address",
          "name": "",
          "type": "address"
        },
        {
          "internalType": "uint256",
          "name": "",
          "type": "uint256"
        },
        {
          "internalType": "uint256",
          "name": "",
          "type": "uint256"
        },
        {
          "internalType": "bytes",
          "name": "",
          "type": "bytes"
        }
      ],
      "name": "safeTransferFrom",
      "outputs": [],
      "stateMutability": "nonpayable",
      "type": "function"
    },
    {
      "inputs": [
        {
          "internalType": "address",
          "name": "operator",
          "type": "address"
        },
        {
          "internalType": "bool",
          "name": "approved",
          "type": "bool"
        }
      ],
      "name": "setApprovalForAll",
      "outputs": [],
      "stateMutability": "nonpayable",
      "type": "function"
    },
    {
      "inputs": [],
      "name": "supportedTokenAmount",
      "outputs": [
        {
          "internalType": "uint256",
          "name": "",
          "type": "uint256"
        }
      ],
      "stateMutability": "view",
      "type": "function"
    },
    {
      "inputs": [
        {
          "internalType": "bytes4",
          "name": "interfaceId",
          "type": "bytes4"
        }
      ],
      "name": "supportsInterface",
      "outputs": [
        {
          "internalType": "bool",
          "name": "",
          "type": "bool"
        }
      ],
      "stateMutability": "view",
      "type": "function"
    },
    {
      "inputs": [
        {
          "internalType": "address",
          "name": "to",
          "type": "address"
        },
        {
          "internalType": "uint256",
          "name": "id",
          "type": "uint256"
        },
        {
          "internalType": "uint256",
          "name": "amount",
          "type": "uint256"
        },
        {
          "internalType": "bytes",
          "name": "data",
          "type": "bytes"
        }
      ],
      "name": "testMint",
      "outputs": [],
      "stateMutability": "nonpayable",
      "type": "function"
    },
    {
      "inputs": [
        {
          "internalType": "address",
          "name": "from",
          "type": "address"
        },
        {
          "internalType": "address",
          "name": "to",
          "type": "address"
        },
        {
          "internalType": "uint256",
          "name": "id",
          "type": "uint256"
        },
        {
          "internalType": "uint256[]",
          "name": "indexes",
          "type": "uint256[]"
        },
        {
          "internalType": "bytes",
          "name": "data",
          "type": "bytes"
        }
      ],
      "name": "testSafeTransferFrom",
      "outputs": [],
      "stateMutability": "nonpayable",
      "type": "function"
    },
    {
      "inputs": [
        {
          "internalType": "uint256",
          "name": "",
          "type": "uint256"
        }
      ],
      "name": "tokenAddress_array",
      "outputs": [
        {
          "internalType": "address",
          "name": "",
          "type": "address"
        }
      ],
      "stateMutability": "view",
      "type": "function"
    },
    {
      "inputs": [
        {
          "internalType": "address",
          "name": "newOwner",
          "type": "address"
        }
      ],
      "name": "transferOwnership",
      "outputs": [],
      "stateMutability": "nonpayable",
      "type": "function"
    },
    {
      "inputs": [
        {
          "internalType": "uint256",
          "name": "",
          "type": "uint256"
        }
      ],
      "name": "uri",
      "outputs": [
        {
          "internalType": "string",
          "name": "",
          "type": "string"
        }
      ],
      "stateMutability": "view",
      "type": "function"
    }
  ],
  "contractName": "test_TCF_ERC1155MintTime",
  "sourceName": "contracts/test/test_TCF_ERC1155MintTime.sol",
  "bytecode": "0x60806040523480156200001157600080fd5b506200002662000020620000a4565b620000a8565b600a6020527fbbc70db1b6c7afd11e79c0fb0051300458f1a3acb8ee9789d9b6b26c61ad9bc7805460ff19166001908117909155600c805480830182556000919091527fdf6966c971051c3d54ec59162606531493a51404a002842f56009d7e5cf4a8c70180546001600160a01b03191682179055600b55620000fa565b3390565b600980546001600160a01b038381166001600160a01b0319831681179093556040519116919082907f8be0079c531659141344cd1fd0a4f28419497f9722a3daafe3b4186f6b6457e090600090a35050565b61318c806200010a6000396000f3fe608060405234801561001057600080fd5b50600436106101ce5760003560e01c80636d69fcaf11610104578063aa31281c116100a2578063e5030adc11610071578063e5030adc146103f7578063e985e9c51461040a578063f242432a1461041d578063f2fde38b14610430576101ce565b8063aa31281c1461039d578063b788920e146103b0578063c9b6b485146103c3578063d9dad80d146103e4576101ce565b806383023c88116100de57806383023c881461034e57806386ff9113146103615780638da5cb5b14610382578063a22cb4651461038a576101ce565b80636d69fcaf14610320578063715018a614610333578063784da4371461033b576101ce565b80632eb2c2d6116101715780634e1273f41161014b5780634e1273f4146102c75780634f129c53146102e757806355826313146102fa578063598c27bc1461030d576101ce565b80632eb2c2d61461028c5780633a4d2d3a1461029f5780634c8cb672146102b2576101ce565b806319d62e57116101ad57806319d62e571461023c5780631f3fd6181461025c578063233612831461026f578063292241f214610277576101ce565b8062fdd58e146101d357806301ffc9a7146101fc5780630e89341c1461021c575b600080fd5b6101e66101e13660046126da565b610443565b6040516101f39190612ec4565b60405180910390f35b61020f61020a366004612863565b6104bf565b6040516101f39190612b30565b61022f61022a366004612957565b610507565b6040516101f39190612b3b565b61024f61024a366004612957565b610521565b6040516101f39190612a93565b61022f61026a36600461282b565b61054b565b6101e661085b565b61028a610285366004612703565b610861565b005b61028a61029a3660046124da565b610873565b61028a6102ad36600461282b565b61088b565b6102ba610b99565b6040516101f39190612edb565b6102da6102d5366004612762565b610ba7565b6040516101f39190612aec565b6102ba6102f5366004612487565b610bc1565b61028a610308366004612991565b610bf5565b61028a61031b366004612580565b610cad565b61028a61032e366004612487565b610d0d565b61028a610df6565b61028a610349366004612580565b610cf7565b61028a61035c3660046129e6565b610e0a565b61037461036f36600461296f565b610ec3565b6040516101f3929190612b4e565b61024f610f70565b61028a6103983660046126a0565b610f80565b6101e66103ab366004612991565b610f96565b6102da6103be3660046126da565b610fe8565b6103d66103d1366004612957565b61107d565b6040516101f3929190612ee9565b61024f6103f23660046129c5565b6110a2565b6101e6610405366004612487565b6110eb565b61020f6104183660046124a8565b61129d565b61028a61042b36600461263d565b6112cb565b61028a61043e366004612487565b6112e3565b60006001600160a01b0383166104745760405162461bcd60e51b815260040161046b90612cc5565b60405180910390fd5b600682106104945760405162461bcd60e51b815260040161046b90612d14565b5060008181526007602090815260408083206001600160a01b03861684529091529020545b92915050565b60006001600160e01b03198216636cdb3d1360e11b14806104f057506001600160e01b031982166303a24d0760e21b145b806104ff57506104ff8261131d565b90505b919050565b606060405162461bcd60e51b815260040161046b90612e2e565b600c818154811061053157600080fd5b6000918252602090912001546001600160a01b0316905081565b606060005b600681101561084557600b5483826006811061057c57634e487b7160e01b600052603260045260246000fd5b60200281019061058c9190612f16565b9050146105bb57505060408051808201909152600a815269282924a1a2a9afa622a760b11b6020820152610502565b60008060008584600681106105e057634e487b7160e01b600052603260045260246000fd5b6020028101906105f09190612f16565b808060200260200160405190810160405280939291908181526020016000905b8282101561063c5761062d60408302860136819003810190612919565b81526020019060010190610610565b5050505050905060005b600b548110156107b757600082828151811061067257634e487b7160e01b600052603260045260246000fd5b60209081029190910101515190506001600160a01b038116610697576001945061069c565b600193505b60006001600160a01b03168383815181106106c757634e487b7160e01b600052603260045260246000fd5b6020026020010151600001516001600160a01b0316141580156107365750600a600084848151811061070957634e487b7160e01b600052603260045260246000fd5b602090810291909101810151516001600160a01b031682528101919091526040016000205460ff16600114155b156107a65761079983838151811061075e57634e487b7160e01b600052603260045260246000fd5b602002602001015160000151604051806040016040528060118152602001701513d2d15397d55394d5541413d4951151607a1b815250611336565b9650505050505050610502565b506107b081613050565b9050610646565b50826107f457604051806040016040528060138152602001721510d7d4149250d157d35554d517d1561254d5606a1b815250945050505050610502565b8161083157604051806040016040528060148152602001731110d197d4149250d157d35554d517d1561254d560621b815250945050505050610502565b5050508061083e90613050565b9050610550565b5050604080516020810190915260008152919050565b600b5481565b61086d8484848461136a565b50505050565b60405162461bcd60e51b815260040161046b90612e50565b610893611460565b600d5460ff166001146108b85760405162461bcd60e51b815260040161046b90612dcf565b600d54610100900460ff16156108e05760405162461bcd60e51b815260040161046b90612d3f565b60006108eb8261054b565b90508051600014610910578060405162461bcd60e51b815260040161046b9190612b3b565b6040805160c0808201835262ed4e008252630107ac0060208084019190915263013c68008385015263017124006060808501919091526301a5e0006080808601919091526301da9c0060a0808701919091528651948501875260288552603293850193909352603c95840195909552605090830152605a938201939093526064928101929092529060006109a48580612f16565b9050905060005b6006811015610b82578381600681106109d457634e487b7160e01b600052603260045260246000fd5b6020020151600e600083815260200190815260200160002060010160016101000a81548163ffffffff021916908363ffffffff160217905550828160068110610a2d57634e487b7160e01b600052603260045260246000fd5b602090810291909101516000838152600e90925260408220600101805460ff191660ff9092169190911790555b82811015610b71576000878360068110610a8457634e487b7160e01b600052603260045260246000fd5b602002810190610a949190612f16565b83818110610ab257634e487b7160e01b600052603260045260246000fd5b610ac89260206040909202019081019150612487565b90506001600160a01b038116610adc575060015b878360068110610afc57634e487b7160e01b600052603260045260246000fd5b602002810190610b0c9190612f16565b83818110610b2a57634e487b7160e01b600052603260045260246000fd5b6000868152600e602090815260408083206001600160a01b039790971683529581529085902091909402929092019092013590555080610b6981613050565b915050610a5a565b50610b7b81613050565b90506109ab565b5050600d805461ff00191661010017905550505050565b600d54610100900460ff1681565b606060405162461bcd60e51b815260040161046b90612e50565b60006001600160a01b038216610bd657600191505b506001600160a01b03166000908152600a602052604090205460ff1690565b610bfd611460565b6000610c09848461149f565b90508051600014610c2e578060405162461bcd60e51b815260040161046b9190612b3b565b6001600160a01b038316610c4157600192505b6000848152600e602090815260408083206001600160a01b038716808552925291829020805490859055915186907f8747a56dd6a09ab1378db3a842a4724d75642265b104e31a28fa736ce71912b390610c9e9085908890612ecd565b60405180910390a35050505050565b610cb56115a1565b6001600160a01b0316866001600160a01b03161480610cdb5750610cdb866104186115a1565b610cf75760405162461bcd60e51b815260040161046b90612be1565b610d058686868686866115a5565b505050505050565b610d15611460565b600d5460ff1615610d385760405162461bcd60e51b815260040161046b90612b70565b6000610d4382611874565b90508051600014610d68578060405162461bcd60e51b815260040161046b9190612b3b565b6001600160a01b0382166000818152600a60205260408120805460ff19166001908117909155600c805480830182559083527fdf6966c971051c3d54ec59162606531493a51404a002842f56009d7e5cf4a8c70180546001600160a01b031916909317909255600b8054909190610de0908490612fa9565b9091555050600d805460ff191660011790555050565b610dfe611460565b610e086000611a59565b565b610e12611460565b600d5460ff61010090910416600114610e3d5760405162461bcd60e51b815260040161046b90612dfe565b60068210610e5d5760405162461bcd60e51b815260040161046b90612c40565b6000828152600e602052604090819020600101805460ff84811660ff19831617909255915191169083907f902e8f79c4772541ba59982b7a572dfdb4a0c003843ec5cfafc727966528895490610eb69084908690612f02565b60405180910390a2505050565b6060600080610ed2858561149f565b90508051600014610ee857915060009050610f69565b6001600160a01b038416610efb57600193505b6000858152600e602090815260408083206001600160a01b038816845290915290205480610f5457505060408051808201909152600d81526c14149250d157d393d517d4d155609a1b6020820152915060009050610f69565b60408051602081019091526000815293509150505b9250929050565b6009546001600160a01b03165b90565b610f92610f8b6115a1565b8383611aab565b5050565b600060068410610fb85760405162461bcd60e51b815260040161046b90612c40565b5060009283526010602090815260408085206001600160a01b039490941685529281528284209184525290205490565b60606006821061100a5760405162461bcd60e51b815260040161046b90612c40565b6001600160a01b0383166000908152600f602090815260408083208584528252918290208054835181840281018401909452808452909183018282801561107057602002820191906000526020600020905b81548152602001906001019080831161105c575b5050505050905092915050565b600e6020526000908152604090206001015460ff811690610100900463ffffffff1682565b6000600683106110c45760405162461bcd60e51b815260040161046b90612c40565b5060009182526006602090815260408084209284529190529020546001600160a01b031690565b60006001600160a01b0382166111135760405162461bcd60e51b815260040161046b90612cc5565b6000805b6006811015611296576001600160a01b0384166000908152600f6020908152604080832084845282528083208054825181850281018501909352808352919290919083018282801561118857602002820191906000526020600020905b815481526020019060010190808311611174575b5050505050905060005b81518110156112815760008282815181106111bd57634e487b7160e01b600052603260045260246000fd5b60209081029190910181015160008681526010835260408082206001600160a01b038c1683528452808220838352845280822054888352600e909452902060010154909250610100900463ffffffff166112178183612fa9565b4211156112265750505061126f565b600080611234886000610ec3565b915091508151600014829061125c5760405162461bcd60e51b815260040161046b9190612b3b565b50611267818a612fa9565b985050505050505b8061127981613050565b915050611192565b5050808061128e90613050565b915050611117565b5092915050565b6001600160a01b03918216600090815260086020908152604080832093909416825291909152205460ff1690565b60405162461bcd60e51b815260040161046b90612da0565b6112eb611460565b6001600160a01b0381166113115760405162461bcd60e51b815260040161046b90612b9b565b61131a81611a59565b50565b6001600160e01b031981166301ffc9a760e01b14919050565b60608161134284611b4e565b604051602001611353929190612a57565b604051602081830303815290604052905092915050565b4260005b8381101561144c576000816000876006811061139a57634e487b7160e01b600052603260045260246000fd5b01546113a69190612fa9565b60008781526010602090815260408083206001600160a01b038c168085529083528184208585528352818420889055808452600f83528184208b855283528184208054600181018255908552929093209091018390555191925087917f15b3c203a18b1dd0bb11c2d40f29afa4b9b3a5db0a44561d23ebbfa02768d9ad906114319085908890612ecd565b60405180910390a3508061144481613050565b91505061136e565b5061145985858585611d3d565b5050505050565b6114686115a1565b6001600160a01b0316611479610f70565b6001600160a01b031614610e085760405162461bcd60e51b815260040161046b90612d6b565b600d5460609060ff610100909104166001146114e8575060408051808201909152601681527514149250d154d7d393d517d25392551250531256915160521b60208201526104b9565b600583111561151b575060408051808201909152600d81526c544f4b454e49445f52414e474560981b60208201526104b9565b6001600160a01b03821661152e57600191505b6001600160a01b0382166000908152600a602052604090205460ff1660011461158b5761158482604051806040016040528060118152602001701513d2d15397d55394d5541413d4951151607a1b815250611336565b90506104b9565b5060408051602081019091526000815292915050565b3390565b6001600160a01b0385166115cb5760405162461bcd60e51b815260040161046b90612cc5565b600684106115eb5760405162461bcd60e51b815260040161046b90612c40565b60005b8281101561186557600084848381811061161857634e487b7160e01b600052603260045260246000fd5b60008981526010602090815260408083206001600160a01b038f168085529083528184209483029690960135808452938252808320548c8452600e909252909120600101549194509261010090910463ffffffff16915061167989856110a2565b6001600160a01b03161461169f5760405162461bcd60e51b815260040161046b90612ceb565b6116a98183612fa9565b42116116c75760405162461bcd60e51b815260040161046b90612c18565b60008881526010602090815260408083206001600160a01b03808e1680865291845282852088865284528285208590558e168452600f8084528285208d8652845282852091855283528184208c8552909252822090915b825481101561180b578583828154811061174857634e487b7160e01b600052603260045260246000fd5b906000526020600020015414156117f9578254839061176990600190612fe0565b8154811061178757634e487b7160e01b600052603260045260246000fd5b90600052602060002001548382815481106117b257634e487b7160e01b600052603260045260246000fd5b9060005260206000200181905550828054806117de57634e487b7160e01b600052603160045260246000fd5b6001900381819060005260206000200160009055905561180b565b8061180381613050565b91505061171e565b508054600181018255600091825260208083209091018690558a82526010815260408083206001600160a01b038f1684528252808320968352959052938420939093555082915061185d905081613050565b9150506115ee565b50610d05868686868686611f38565b6001600160a01b0381166000908152600a602052604090205460609060ff16600114156118cf576118c8826040518060400160405280600b81526020016a414444525f45584953545360a81b815250611336565b9050610502565b60408051600481526024810182526020810180516001600160e01b03166395d89b4160e01b179052905160009081906001600160a01b03861690611914908590612a3b565b600060405180830381855afa9150503d806000811461194f576040519150601f19603f3d011682016040523d82523d6000602084013e611954565b606091505b5091509150818015611967575060008151115b15611a0e57600081806020019051810190611982919061289b565b80516020808301919091206040805180820190915260038152622221a360e91b9201919091529091507f580e4ba285e7e1134de91e671c33b0ab748bee7126d5d2e4d0845e6ad176e7eb8114611a07576119fb87604051806040016040528060078152602001662727aa2fa221a360c91b815250611336565b95505050505050610502565b5050611a41565b611a3785604051806040016040528060078152602001662727aa2fa221a360c91b815250611336565b9350505050610502565b50506040805160208101909152600081529392505050565b600980546001600160a01b038381166001600160a01b0319831681179093556040519116919082907f8be0079c531659141344cd1fd0a4f28419497f9722a3daafe3b4186f6b6457e090600090a35050565b816001600160a01b0316836001600160a01b03161415611add5760405162461bcd60e51b815260040161046b90612c9e565b6001600160a01b0383811660008181526008602090815260408083209487168084529490915290819020805460ff1916851515179055517f17307eab39ab6107e8899845ad3d59bd9653f200f220920489ca2b5937696c3190611b41908590612b30565b60405180910390a3505050565b60408051602a808252606082810190935283831b916f181899199a1a9b1b9c1cb0b131b232b360811b9160009190602082018180368337019050509050600360fc1b81600081518110611bb157634e487b7160e01b600052603260045260246000fd5b60200101906001600160f81b031916908160001a905350600f60fb1b81600181518110611bee57634e487b7160e01b600052603260045260246000fd5b60200101906001600160f81b031916908160001a90535060005b6014811015611d34576000848260148110611c3357634e487b7160e01b600052603260045260246000fd5b1a905083600482901c60ff1660108110611c5d57634e487b7160e01b600052603260045260246000fd5b1a60f81b83611c6d846002612fc1565b611c78906002612fa9565b81518110611c9657634e487b7160e01b600052603260045260246000fd5b60200101906001600160f81b031916908160001a90535083600f821660108110611cd057634e487b7160e01b600052603260045260246000fd5b1a60f81b83611ce0846002612fc1565b611ceb906003612fa9565b81518110611d0957634e487b7160e01b600052603260045260246000fd5b60200101906001600160f81b031916908160001a905350508080611d2c90613050565b915050611c08565b50949350505050565b60068310611d5d5760405162461bcd60e51b815260040161046b90612c40565b6001600160a01b038416611d835760405162461bcd60e51b815260040161046b90612cc5565b6000611d8d6115a1565b90506000611d9a85612230565b90506000611da785612230565b9050611db883600089858589610d05565b60008681526007602090815260408083206001600160a01b038b16845290915281208054879290611dea908490612fa9565b90915550600090505b85811015611e7f57876006600089815260200190815260200160002060008360008b60068110611e3357634e487b7160e01b600052603260045260246000fd5b0154611e3f9190612fa9565b8152602081019190915260400160002080546001600160a01b0319166001600160a01b039290921691909117905580611e7781613050565b915050611df3565b508460008760068110611ea257634e487b7160e01b600052603260045260246000fd5b016000828254611eb29190612fa9565b92505081905550866001600160a01b031660006001600160a01b0316846001600160a01b03167fc3d58168c5ae7397731d063d5bbf3d657854427343f4c083240f7aacaa2d0f628989604051611f09929190612ecd565b60405180910390a4611f2083600089858589610d05565b611f2f83600089898989612289565b50505050505050565b6001600160a01b038516611f5e5760405162461bcd60e51b815260040161046b90612cc5565b60068410611f7e5760405162461bcd60e51b815260040161046b90612c40565b60005b828110156120145760008581526006602052604081206001600160a01b03891691868685818110611fc257634e487b7160e01b600052603260045260246000fd5b60209081029290920135835250810191909152604001600020546001600160a01b0316146120025760405162461bcd60e51b815260040161046b90612ceb565b8061200c81613050565b915050611f81565b50600061201f6115a1565b9050600061202c86612230565b9050600061203985612230565b9050612049838a8a858589610d05565b60005b858110156120df5760008881526006602052604081206001600160a01b038c169189898581811061208d57634e487b7160e01b600052603260045260246000fd5b60209081029290920135835250810191909152604001600020546001600160a01b0316146120cd5760405162461bcd60e51b815260040161046b90612ceb565b806120d781613050565b91505061204c565b5060008781526007602090815260408083206001600160a01b038d16845290915281208054878103909155905b868110156121835760008981526006602052604081208b918a8a8581811061214457634e487b7160e01b600052603260045260246000fd5b6020908102929092013583525081019190915260400160002080546001600160a01b0319166001600160a01b039290921691909117905560010161210c565b5060008881526007602090815260408083206001600160a01b038d168452909152812080548892906121b6908490612fa9565b90915550506040516001600160a01b03808b16918c8216918716907fc3d58168c5ae7397731d063d5bbf3d657854427343f4c083240f7aacaa2d0f6290612200908d908c90612ecd565b60405180910390a4612216848b8b86868a610d05565b612224848b8b8b8a8a612289565b50505050505050505050565b6040805160018082528183019092526060916000919060208083019080368337019050509050828160008151811061227857634e487b7160e01b600052603260045260246000fd5b602090810291909101015292915050565b6001600160a01b0384163b15610d055760405163f23a6e6160e01b81526001600160a01b0385169063f23a6e61906122cd9089908990889088908890600401612aa7565b602060405180830381600087803b1580156122e757600080fd5b505af1925050508015612317575060408051601f3d908101601f191682019092526123149181019061287f565b60015b61237757612323613097565b806308c379a0141561235d57506123386130ae565b80612343575061235f565b8060405162461bcd60e51b815260040161046b9190612b3b565b505b60405162461bcd60e51b815260040161046b90612e79565b6001600160e01b0319811663f23a6e6160e01b14611f2f5760405162461bcd60e51b815260040161046b90612c67565b80356001600160a01b038116811461050257600080fd5b600082601f8301126123ce578081fd5b813560206123db82612f5d565b6040516123e88282613023565b838152828101915085830183850287018401881015612405578586fd5b855b8581101561242357813584529284019290840190600101612407565b5090979650505050505050565b600082601f830112612440578081fd5b813561244b81612f81565b6040516124588282613023565b82815285602084870101111561246c578384fd5b82602086016020830137918201602001929092529392505050565b600060208284031215612498578081fd5b6124a1826123a7565b9392505050565b600080604083850312156124ba578081fd5b6124c3836123a7565b91506124d1602084016123a7565b90509250929050565b600080600080600060a086880312156124f1578081fd5b6124fa866123a7565b9450612508602087016123a7565b9350604086013567ffffffffffffffff80821115612524578283fd5b61253089838a016123be565b94506060880135915080821115612545578283fd5b61255189838a016123be565b93506080880135915080821115612566578283fd5b5061257388828901612430565b9150509295509295909350565b60008060008060008060a08789031215612598578081fd5b6125a1876123a7565b95506125af602088016123a7565b945060408701359350606087013567ffffffffffffffff808211156125d2578283fd5b818901915089601f8301126125e5578283fd5b8135818111156125f3578384fd5b8a60208083028501011115612606578384fd5b602083019550809450506080890135915080821115612623578283fd5b5061263089828a01612430565b9150509295509295509295565b600080600080600060a08688031215612654578081fd5b61265d866123a7565b945061266b602087016123a7565b93506040860135925060608601359150608086013567ffffffffffffffff811115612694578182fd5b61257388828901612430565b600080604083850312156126b2578182fd5b6126bb836123a7565b9150602083013580151581146126cf578182fd5b809150509250929050565b600080604083850312156126ec578182fd5b6126f5836123a7565b946020939093013593505050565b60008060008060808587031215612718578182fd5b612721856123a7565b93506020850135925060408501359150606085013567ffffffffffffffff81111561274a578182fd5b61275687828801612430565b91505092959194509250565b60008060408385031215612774578182fd5b823567ffffffffffffffff8082111561278b578384fd5b818501915085601f83011261279e578384fd5b813560206127ab82612f5d565b6040516127b88282613023565b8381528281019150858301838502870184018b10156127d5578889fd5b8896505b848710156127fe576127ea816123a7565b8352600196909601959183019183016127d9565b5096505086013592505080821115612814578283fd5b50612821858286016123be565b9150509250929050565b60006020828403121561283c578081fd5b813567ffffffffffffffff811115612852578182fd5b820160c081018410156124a1578182fd5b600060208284031215612874578081fd5b81356124a181613140565b600060208284031215612890578081fd5b81516124a181613140565b6000602082840312156128ac578081fd5b815167ffffffffffffffff8111156128c2578182fd5b8201601f810184136128d2578182fd5b80516128dd81612f81565b6040516128ea8282613023565b8281528660208486010111156128fe578485fd5b61290f836020830160208701612ff7565b9695505050505050565b60006040828403121561292a578081fd5b604051612938604082613023565b612941836123a7565b8152602083013560208201528091505092915050565b600060208284031215612968578081fd5b5035919050565b60008060408385031215612981578182fd5b823591506124d1602084016123a7565b6000806000606084860312156129a5578081fd5b833592506129b5602085016123a7565b9150604084013590509250925092565b600080604083850312156129d7578182fd5b50508035926020909101359150565b600080604083850312156129f8578182fd5b82359150602083013560ff811681146126cf578182fd5b60008151808452612a27816020860160208601612ff7565b601f01601f19169290920160200192915050565b60008251612a4d818460208701612ff7565b9190910192915050565b60008351612a69818460208801612ff7565b600160fd1b9083019081528351612a87816001840160208801612ff7565b01600101949350505050565b6001600160a01b0391909116815260200190565b6001600160a01b03868116825285166020820152604081018490526060810183905260a060808201819052600090612ae190830184612a0f565b979650505050505050565b6020808252825182820181905260009190848201906040850190845b81811015612b2457835183529284019291840191600101612b08565b50909695505050505050565b901515815260200190565b6000602082526124a16020830184612a0f565b600060408252612b616040830185612a0f565b90508260208301529392505050565b6020808252601190820152701513d2d15397d253925512505312569151607a1b604082015260600190565b60208082526026908201527f4f776e61626c653a206e6577206f776e657220697320746865207a65726f206160408201526564647265737360d01b606082015260800190565b60208082526019908201527f43414c4c45525f4e4f545f4f574e45525f415050524f56454400000000000000604082015260600190565b6020808252600e908201526d14d1539117d59053125117d3919560921b604082015260600190565b6020808252600d908201526c544f4b454e49445f52414e474560981b604082015260600190565b6020808252601f908201527f4552433131353552454345495645525f52454a45435445445f544f4b454e5300604082015260600190565b6020808252600d908201526c20a8282927ab20a62fa9a2a62360991b604082015260600190565b6020808252600c908201526b5a45524f5f4144445245535360a01b604082015260600190565b6020808252600f908201526e1513d2d15397d393d517d3d5d39151608a1b604082015260600190565b6020808252601190820152704552525f544f4b454e49445f52414e474560781b604082015260600190565b60208082526012908201527114149250d154d7d25392551250531256915160721b604082015260600190565b6020808252818101527f4f776e61626c653a2063616c6c6572206973206e6f7420746865206f776e6572604082015260600190565b6020808252601590820152745553455f45536166655472616e7366657246726f6d60581b604082015260600190565b6020808252601590820152741513d2d15397d393d517d253925512505312569151605a1b604082015260600190565b60208082526016908201527514149250d154d7d393d517d25392551250531256915160521b604082015260600190565b6020808252600890820152675553455f4575726960c01b604082015260600190565b6020808252600f908201526e1393d517d253541311535153951151608a1b604082015260600190565b6020808252602b908201527f7472616e736665725f746f5f6e6f6e2d4552433131353552656365697665725f60408201526a34b6b83632b6b2b73a32b960a91b606082015260800190565b90815260200190565b918252602082015260400190565b60ff91909116815260200190565b60ff92909216825263ffffffff16602082015260400190565b60ff92831681529116602082015260400190565b6000808335601e19843603018112612f2c578283fd5b83018035915067ffffffffffffffff821115612f46578283fd5b6020019150604081023603821315610f6957600080fd5b600067ffffffffffffffff821115612f7757612f77613081565b5060209081020190565b600067ffffffffffffffff821115612f9b57612f9b613081565b50601f01601f191660200190565b60008219821115612fbc57612fbc61306b565b500190565b6000816000190483118215151615612fdb57612fdb61306b565b500290565b600082821015612ff257612ff261306b565b500390565b60005b83811015613012578181015183820152602001612ffa565b8381111561086d5750506000910152565b601f8201601f1916810167ffffffffffffffff8111828210171561304957613049613081565b6040525050565b60006000198214156130645761306461306b565b5060010190565b634e487b7160e01b600052601160045260246000fd5b634e487b7160e01b600052604160045260246000fd5b600060033d1115610f7d57600481823e5160e01c90565b600060443d10156130be57610f7d565b6040516003193d81016004833e81513d67ffffffffffffffff81602484011181841117156130f0575050505050610f7d565b828501915081518181111561310a57505050505050610f7d565b843d870101602082850101111561312657505050505050610f7d565b61313560208286010187613023565b509094505050505090565b6001600160e01b03198116811461131a57600080fdfea2646970667358221220513a53a3104239bc7abb1194c56e633d9075e8f6bc3c890a888a80d7080d895364736f6c63430008010033",
  "linkReferences": {},
  "deployedLinkReferences": {},
  "immutableReferences": {},
  "inputSourceName": "project/contracts/test/test_TCF_ERC1155MintTime.sol",
  "devdoc": {
    "kind": "dev",
    "methods": {
      "ESafeTransferFrom(address,address,uint256,uint256[],bytes)": {
        "details": "tokenTCF_NFT",
        "params": {
          "indexes": "tokenmintTimes"
        }
      },
      "addSupportedToken(address)": {
        "details": "TC TC",
        "params": {
          "_tokenAddress": ""
        }
      },
      "balanceOf(address,uint256)": {
        "details": "See {IERC1155-balanceOf}. Requirements: - `account` cannot be the zero address."
      },
      "balanceOfBatch(address[],uint256[])": {
        "details": "See {IERC1155-balanceOfBatch}. Requirements: - `accounts` and `ids` must have the same length."
      },
      "changeNFTPrice(uint256,address,uint256)": {
        "details": "NFT",
        "params": {
          "amount": "",
          "tokenAddress": "address(0)",
          "tokenID": "NFT/ID0-5"
        }
      },
      "checkInitPricesParams((address,uint256)[][6])": {
        "details": "",
        "params": {
          "prices": "6NFTNFT supportedTokenAmount "
        },
        "returns": {
          "_0": "/"
        }
      },
      "getNFTPrice(uint256,address)": {
        "details": "NFT",
        "params": {
          "_tokenAddress": "address(0)",
          "tokenID": "NFT/ID0-5"
        },
        "returns": {
          "_0": "errorMessage /",
          "_1": "price errorMessage0"
        }
      },
      "initPrice((address,uint256)[][6])": {
        "details": ".TC0",
        "params": {
          "prices": "6NFT,NFT"
        }
      },
      "isApprovedForAll(address,address)": {
        "details": "See {IERC1155-isApprovedForAll}."
      },
      "owner()": {
        "details": "Returns the address of the current owner."
      },
      "renounceOwnership()": {
        "details": "Leaves the contract without owner. It will not be possible to call `onlyOwner` functions. Can only be called by the current owner. NOTE: Renouncing ownership will leave the contract without an owner, thereby disabling any functionality that is only available to the owner."
      },
      "safeBatchTransferFrom(address,address,uint256[],uint256[],bytes)": {
        "details": "See {IERC1155-safeBatchTransferFrom}."
      },
      "safeTransferFrom(address,address,uint256,uint256,bytes)": {
        "details": "See {IERC1155-safeTransferFrom}."
      },
      "setApprovalForAll(address,bool)": {
        "details": "See {IERC1155-setApprovalForAll}."
      },
      "supportsInterface(bytes4)": {
        "details": "See {IERC165-supportsInterface}."
      },
      "transferOwnership(address)": {
        "details": "Transfers ownership of the contract to a new account (`newOwner`). Can only be called by the current owner."
      }
    },
    "version": 1
  },
  "evm": {
    "gasEstimates": {
      "creation": {
        "codeDepositCost": "2536800",
        "executionCost": "107728",
        "totalCost": "2644528"
      },
      "external": {
        "ESafeTransferFrom(address,address,uint256,uint256[],bytes)": "infinite",
        "NFTPrice_initialized()": "1147",
        "NFTS(uint256)": "1331",
        "addSupportedToken(address)": "infinite",
        "balanceOf(address,uint256)": "1481",
        "balanceOfBatch(address[],uint256[])": "infinite",
        "changeDynamicRatio(uint256,uint8)": "24850",
        "changeNFTPrice(uint256,address,uint256)": "infinite",
        "checkInitPricesParams((address,uint256)[][6])": "infinite",
        "getNFTPrice(uint256,address)": "infinite",
        "getNftMintTime(uint256,address,uint256)": "1527",
        "getTotalNFTWorth(address)": "infinite",
        "getUserTokenIds(address,uint256)": "infinite",
        "initPrice((address,uint256)[][6])": "infinite",
        "isApprovedForAll(address,address)": "infinite",
        "isSupported(address)": "1403",
        "owner()": "1160",
        "ownerOf(uint256,uint256)": "1447",
        "renounceOwnership()": "infinite",
        "safeBatchTransferFrom(address,address,uint256[],uint256[],bytes)": "infinite",
        "safeTransferFrom(address,address,uint256,uint256,bytes)": "infinite",
        "setApprovalForAll(address,bool)": "23460",
        "supportedTokenAmount()": "1118",
        "supportsInterface(bytes4)": "649",
        "testMint(address,uint256,uint256,bytes)": "infinite",
        "testSafeTransferFrom(address,address,uint256,uint256[],bytes)": "infinite",
        "tokenAddress_array(uint256)": "2084",
        "transferOwnership(address)": "23837",
        "uri(uint256)": "450"
      }
    }
  },
  "storageLayout": {
    "storage": [
      {
        "astId": 458,
        "contract": "project/contracts/test/test_TCF_ERC1155MintTime.sol:test_TCF_ERC1155MintTime",
        "label": "_nextTokenId",
        "offset": 0,
        "slot": "0",
        "type": "t_array(t_uint256)6_storage"
      },
      {
        "astId": 464,
        "contract": "project/contracts/test/test_TCF_ERC1155MintTime.sol:test_TCF_ERC1155MintTime",
        "label": "_owners",
        "offset": 0,
        "slot": "6",
        "type": "t_mapping(t_uint256,t_mapping(t_uint256,t_address))"
      },
      {
        "astId": 470,
        "contract": "project/contracts/test/test_TCF_ERC1155MintTime.sol:test_TCF_ERC1155MintTime",
        "label": "_balances",
        "offset": 0,
        "slot": "7",
        "type": "t_mapping(t_uint256,t_mapping(t_address,t_uint256))"
      },
      {
        "astId": 476,
        "contract": "project/contracts/test/test_TCF_ERC1155MintTime.sol:test_TCF_ERC1155MintTime",
        "label": "_operatorApprovals",
        "offset": 0,
        "slot": "8",
        "type": "t_mapping(t_address,t_mapping(t_address,t_bool))"
      },
      {
        "astId": 3530,
        "contract": "project/contracts/test/test_TCF_ERC1155MintTime.sol:test_TCF_ERC1155MintTime",
        "label": "_owner",
        "offset": 0,
        "slot": "9",
        "type": "t_address"
      },
      {
        "astId": 1885,
        "contract": "project/contracts/test/test_TCF_ERC1155MintTime.sol:test_TCF_ERC1155MintTime",
        "label": "supportTokenType",
        "offset": 0,
        "slot": "10",
        "type": "t_mapping(t_address,t_uint8)"
      },
      {
        "astId": 1887,
        "contract": "project/contracts/test/test_TCF_ERC1155MintTime.sol:test_TCF_ERC1155MintTime",
        "label": "supportedTokenAmount",
        "offset": 0,
        "slot": "11",
        "type": "t_uint256"
      },
      {
        "astId": 1890,
        "contract": "project/contracts/test/test_TCF_ERC1155MintTime.sol:test_TCF_ERC1155MintTime",
        "label": "tokenAddress_array",
        "offset": 0,
        "slot": "12",
        "type": "t_array(t_address)dyn_storage"
      },
      {
        "astId": 1892,
        "contract": "project/contracts/test/test_TCF_ERC1155MintTime.sol:test_TCF_ERC1155MintTime",
        "label": "initedTokenAddress",
        "offset": 0,
        "slot": "13",
        "type": "t_uint8"
      },
      {
        "astId": 1894,
        "contract": "project/contracts/test/test_TCF_ERC1155MintTime.sol:test_TCF_ERC1155MintTime",
        "label": "NFTPrice_initialized",
        "offset": 1,
        "slot": "13",
        "type": "t_uint8"
      },
      {
        "astId": 1913,
        "contract": "project/contracts/test/test_TCF_ERC1155MintTime.sol:test_TCF_ERC1155MintTime",
        "label": "NFTS",
        "offset": 0,
        "slot": "14",
        "type": "t_mapping(t_uint256,t_struct(equities_store)1908_storage)"
      },
      {
        "astId": 1329,
        "contract": "project/contracts/test/test_TCF_ERC1155MintTime.sol:test_TCF_ERC1155MintTime",
        "label": "_ownedTokenIds",
        "offset": 0,
        "slot": "15",
        "type": "t_mapping(t_address,t_mapping(t_uint256,t_array(t_uint256)dyn_storage))"
      },
      {
        "astId": 1337,
        "contract": "project/contracts/test/test_TCF_ERC1155MintTime.sol:test_TCF_ERC1155MintTime",
        "label": "_mintTimes",
        "offset": 0,
        "slot": "16",
        "type": "t_mapping(t_uint256,t_mapping(t_address,t_mapping(t_uint256,t_uint256)))"
      }
    ],
    "types": {
      "t_address": {
        "encoding": "inplace",
        "label": "address",
        "numberOfBytes": "20"
      },
      "t_array(t_address)dyn_storage": {
        "base": "t_address",
        "encoding": "dynamic_array",
        "label": "address[]",
        "numberOfBytes": "32"
      },
      "t_array(t_uint256)6_storage": {
        "base": "t_uint256",
        "encoding": "inplace",
        "label": "uint256[6]",
        "numberOfBytes": "192"
      },
      "t_array(t_uint256)dyn_storage": {
        "base": "t_uint256",
        "encoding": "dynamic_array",
        "label": "uint256[]",
        "numberOfBytes": "32"
      },
      "t_bool": {
        "encoding": "inplace",
        "label": "bool",
        "numberOfBytes": "1"
      },
      "t_mapping(t_address,t_bool)": {
        "encoding": "mapping",
        "key": "t_address",
        "label": "mapping(address => bool)",
        "numberOfBytes": "32",
        "value": "t_bool"
      },
      "t_mapping(t_address,t_mapping(t_address,t_bool))": {
        "encoding": "mapping",
        "key": "t_address",
        "label": "mapping(address => mapping(address => bool))",
        "numberOfBytes": "32",
        "value": "t_mapping(t_address,t_bool)"
      },
      "t_mapping(t_address,t_mapping(t_uint256,t_array(t_uint256)dyn_storage))": {
        "encoding": "mapping",
        "key": "t_address",
        "label": "mapping(address => mapping(uint256 => uint256[]))",
        "numberOfBytes": "32",
        "value": "t_mapping(t_uint256,t_array(t_uint256)dyn_storage)"
      },
      "t_mapping(t_address,t_mapping(t_uint256,t_uint256))": {
        "encoding": "mapping",
        "key": "t_address",
        "label": "mapping(address => mapping(uint256 => uint256))",
        "numberOfBytes": "32",
        "value": "t_mapping(t_uint256,t_uint256)"
      },
      "t_mapping(t_address,t_uint256)": {
        "encoding": "mapping",
        "key": "t_address",
        "label": "mapping(address => uint256)",
        "numberOfBytes": "32",
        "value": "t_uint256"
      },
      "t_mapping(t_address,t_uint8)": {
        "encoding": "mapping",
        "key": "t_address",
        "label": "mapping(address => uint8)",
        "numberOfBytes": "32",
        "value": "t_uint8"
      },
      "t_mapping(t_uint256,t_address)": {
        "encoding": "mapping",
        "key": "t_uint256",
        "label": "mapping(uint256 => address)",
        "numberOfBytes": "32",
        "value": "t_address"
      },
      "t_mapping(t_uint256,t_array(t_uint256)dyn_storage)": {
        "encoding": "mapping",
        "key": "t_uint256",
        "label": "mapping(uint256 => uint256[])",
        "numberOfBytes": "32",
        "value": "t_array(t_uint256)dyn_storage"
      },
      "t_mapping(t_uint256,t_mapping(t_address,t_mapping(t_uint256,t_uint256)))": {
        "encoding": "mapping",
        "key": "t_uint256",
        "label": "mapping(uint256 => mapping(address => mapping(uint256 => uint256)))",
        "numberOfBytes": "32",
        "value": "t_mapping(t_address,t_mapping(t_uint256,t_uint256))"
      },
      "t_mapping(t_uint256,t_mapping(t_address,t_uint256))": {
        "encoding": "mapping",
        "key": "t_uint256",
        "label": "mapping(uint256 => mapping(address => uint256))",
        "numberOfBytes": "32",
        "value": "t_mapping(t_address,t_uint256)"
      },
      "t_mapping(t_uint256,t_mapping(t_uint256,t_address))": {
        "encoding": "mapping",
        "key": "t_uint256",
        "label": "mapping(uint256 => mapping(uint256 => address))",
        "numberOfBytes": "32",
        "value": "t_mapping(t_uint256,t_address)"
      },
      "t_mapping(t_uint256,t_struct(equities_store)1908_storage)": {
        "encoding": "mapping",
        "key": "t_uint256",
        "label": "mapping(uint256 => struct TCF_NFTPrice.equities_store)",
        "numberOfBytes": "32",
        "value": "t_struct(equities_store)1908_storage"
      },
      "t_mapping(t_uint256,t_uint256)": {
        "encoding": "mapping",
        "key": "t_uint256",
        "label": "mapping(uint256 => uint256)",
        "numberOfBytes": "32",
        "value": "t_uint256"
      },
      "t_struct(equities_store)1908_storage": {
        "encoding": "inplace",
        "label": "struct TCF_NFTPrice.equities_store",
        "members": [
          {
            "astId": 1903,
            "contract": "project/contracts/test/test_TCF_ERC1155MintTime.sol:test_TCF_ERC1155MintTime",
            "label": "prices",
            "offset": 0,
            "slot": "0",
            "type": "t_mapping(t_address,t_uint256)"
          },
          {
            "astId": 1905,
            "contract": "project/contracts/test/test_TCF_ERC1155MintTime.sol:test_TCF_ERC1155MintTime",
            "label": "ratio",
            "offset": 0,
            "slot": "1",
            "type": "t_uint8"
          },
          {
            "astId": 1907,
            "contract": "project/contracts/test/test_TCF_ERC1155MintTime.sol:test_TCF_ERC1155MintTime",
            "label": "indate",
            "offset": 1,
            "slot": "1",
            "type": "t_uint32"
          }
        ],
        "numberOfBytes": "64"
      },
      "t_uint256": {
        "encoding": "inplace",
        "label": "uint256",
        "numberOfBytes": "32"
      },
      "t_uint32": {
        "encoding": "inplace",
        "label": "uint32",
        "numberOfBytes": "4"
      },
      "t_uint8": {
        "encoding": "inplace",
        "label": "uint8",
        "numberOfBytes": "1"
      }
    }
  },
  "userdoc": {
    "kind": "user",
    "methods": {
      "initPrice((address,uint256)[][6])": {
        "notice": "tokenTC"
      }
    },
    "version": 1
  },
  "argsData": "0x",
  "transaction": {
    "hash": "0xf398c84c20cfdfef5912507a439f5e3ba2d6c5749321833d61faa5030e890371",
    "nonce": "0x9",
    "origin": "0xf39fd6e51aad88f6f4ce6ab8827279cfffb92266"
  }
}