{
  "address": "0xa51c1fc2f0d1a1b8494ed1fe312d7c3a78ed91c0",
  "abi": [
    {
      "anonymous": false,
      "inputs": [
        {
          "indexed": true,
          "internalType": "address",
          "name": "account",
          "type": "address"
        },
        {
          "indexed": true,
          "internalType": "address",
          "name": "operator",
          "type": "address"
        },
        {
          "indexed": false,
          "internalType": "bool",
          "name": "approved",
          "type": "bool"
        }
      ],
      "name": "ApprovalForAll",
      "type": "event"
    },
    {
      "anonymous": false,
      "inputs": [
        {
          "indexed": true,
          "internalType": "address",
          "name": "previousOwner",
          "type": "address"
        },
        {
          "indexed": true,
          "internalType": "address",
          "name": "newOwner",
          "type": "address"
        }
      ],
      "name": "OwnershipTransferred",
      "type": "event"
    },
    {
      "anonymous": false,
      "inputs": [
        {
          "indexed": true,
          "internalType": "address",
          "name": "operator",
          "type": "address"
        },
        {
          "indexed": true,
          "internalType": "address",
          "name": "from",
          "type": "address"
        },
        {
          "indexed": true,
          "internalType": "address",
          "name": "to",
          "type": "address"
        },
        {
          "indexed": false,
          "internalType": "uint256[]",
          "name": "ids",
          "type": "uint256[]"
        },
        {
          "indexed": false,
          "internalType": "uint256[]",
          "name": "values",
          "type": "uint256[]"
        }
      ],
      "name": "TransferBatch",
      "type": "event"
    },
    {
      "anonymous": false,
      "inputs": [
        {
          "indexed": true,
          "internalType": "address",
          "name": "operator",
          "type": "address"
        },
        {
          "indexed": true,
          "internalType": "address",
          "name": "from",
          "type": "address"
        },
        {
          "indexed": true,
          "internalType": "address",
          "name": "to",
          "type": "address"
        },
        {
          "indexed": false,
          "internalType": "uint256",
          "name": "id",
          "type": "uint256"
        },
        {
          "indexed": false,
          "internalType": "uint256",
          "name": "value",
          "type": "uint256"
        }
      ],
      "name": "TransferSingle",
      "type": "event"
    },
    {
      "anonymous": false,
      "inputs": [
        {
          "indexed": false,
          "internalType": "string",
          "name": "value",
          "type": "string"
        },
        {
          "indexed": true,
          "internalType": "uint256",
          "name": "id",
          "type": "uint256"
        }
      ],
      "name": "URI",
      "type": "event"
    },
    {
      "inputs": [
        {
          "internalType": "address",
          "name": "from",
          "type": "address"
        },
        {
          "internalType": "address",
          "name": "to",
          "type": "address"
        },
        {
          "internalType": "uint256",
          "name": "id",
          "type": "uint256"
        },
        {
          "internalType": "uint256[]",
          "name": "indexes",
          "type": "uint256[]"
        },
        {
          "internalType": "bytes",
          "name": "data",
          "type": "bytes"
        }
      ],
      "name": "ESafeTransferFrom",
      "outputs": [],
      "stateMutability": "nonpayable",
      "type": "function"
    },
    {
      "inputs": [],
      "name": "_initializedURIStorage",
      "outputs": [
        {
          "internalType": "uint8",
          "name": "",
          "type": "uint8"
        }
      ],
      "stateMutability": "view",
      "type": "function"
    },
    {
      "inputs": [
        {
          "internalType": "address",
          "name": "account",
          "type": "address"
        },
        {
          "internalType": "uint256",
          "name": "id",
          "type": "uint256"
        }
      ],
      "name": "balanceOf",
      "outputs": [
        {
          "internalType": "uint256",
          "name": "",
          "type": "uint256"
        }
      ],
      "stateMutability": "view",
      "type": "function"
    },
    {
      "inputs": [
        {
          "internalType": "address[]",
          "name": "",
          "type": "address[]"
        },
        {
          "internalType": "uint256[]",
          "name": "",
          "type": "uint256[]"
        }
      ],
      "name": "balanceOfBatch",
      "outputs": [
        {
          "internalType": "uint256[]",
          "name": "",
          "type": "uint256[]"
        }
      ],
      "stateMutability": "view",
      "type": "function"
    },
    {
      "inputs": [
        {
          "internalType": "address",
          "name": "account",
          "type": "address"
        },
        {
          "internalType": "address",
          "name": "operator",
          "type": "address"
        }
      ],
      "name": "isApprovedForAll",
      "outputs": [
        {
          "internalType": "bool",
          "name": "",
          "type": "bool"
        }
      ],
      "stateMutability": "view",
      "type": "function"
    },
    {
      "inputs": [],
      "name": "owner",
      "outputs": [
        {
          "internalType": "address",
          "name": "",
          "type": "address"
        }
      ],
      "stateMutability": "view",
      "type": "function"
    },
    {
      "inputs": [
        {
          "internalType": "uint256",
          "name": "tokenId",
          "type": "uint256"
        },
        {
          "internalType": "uint256",
          "name": "editionId",
          "type": "uint256"
        }
      ],
      "name": "ownerOf",
      "outputs": [
        {
          "internalType": "address",
          "name": "",
          "type": "address"
        }
      ],
      "stateMutability": "view",
      "type": "function"
    },
    {
      "inputs": [],
      "name": "renounceOwnership",
      "outputs": [],
      "stateMutability": "nonpayable",
      "type": "function"
    },
    {
      "inputs": [
        {
          "internalType": "address",
          "name": "",
          "type": "address"
        },
        {
          "internalType": "address",
          "name": "",
          "type": "address"
        },
        {
          "internalType": "uint256[]",
          "name": "",
          "type": "uint256[]"
        },
        {
          "internalType": "uint256[]",
          "name": "",
          "type": "uint256[]"
        },
        {
          "internalType": "bytes",
          "name": "",
          "type": "bytes"
        }
      ],
      "name": "safeBatchTransferFrom",
      "outputs": [],
      "stateMutability": "nonpayable",
      "type": "function"
    },
    {
      "inputs": [
        {
          "internalType": "address",
          "name": "from",
          "type": "address"
        },
        {
          "internalType": "address",
          "name": "to",
          "type": "address"
        },
        {
          "internalType": "uint256",
          "name": "id",
          "type": "uint256"
        },
        {
          "internalType": "uint256",
          "name": "amount",
          "type": "uint256"
        },
        {
          "internalType": "bytes",
          "name": "data",
          "type": "bytes"
        }
      ],
      "name": "safeTransferFrom",
      "outputs": [],
      "stateMutability": "nonpayable",
      "type": "function"
    },
    {
      "inputs": [
        {
          "internalType": "address",
          "name": "operator",
          "type": "address"
        },
        {
          "internalType": "bool",
          "name": "approved",
          "type": "bool"
        }
      ],
      "name": "setApprovalForAll",
      "outputs": [],
      "stateMutability": "nonpayable",
      "type": "function"
    },
    {
      "inputs": [
        {
          "internalType": "bytes[6]",
          "name": "baseURI",
          "type": "bytes[6]"
        }
      ],
      "name": "setBaseURI",
      "outputs": [],
      "stateMutability": "nonpayable",
      "type": "function"
    },
    {
      "inputs": [
        {
          "internalType": "bytes4",
          "name": "interfaceId",
          "type": "bytes4"
        }
      ],
      "name": "supportsInterface",
      "outputs": [
        {
          "internalType": "bool",
          "name": "",
          "type": "bool"
        }
      ],
      "stateMutability": "view",
      "type": "function"
    },
    {
      "inputs": [
        {
          "internalType": "address",
          "name": "newOwner",
          "type": "address"
        }
      ],
      "name": "transferOwnership",
      "outputs": [],
      "stateMutability": "nonpayable",
      "type": "function"
    },
    {
      "inputs": [
        {
          "internalType": "uint256",
          "name": "tokenId",
          "type": "uint256"
        }
      ],
      "name": "uri",
      "outputs": [
        {
          "internalType": "string",
          "name": "",
          "type": "string"
        }
      ],
      "stateMutability": "view",
      "type": "function"
    }
  ],
  "contractName": "test_TCF_ERC1155URIStorage",
  "sourceName": "contracts/test/test_TCF_ERC1155URIStorage.sol",
  "bytecode": "0x608060405234801561001057600080fd5b5061002161001c610026565b61002a565b61007c565b3390565b600980546001600160a01b038381166001600160a01b0319831681179093556040519116919082907f8be0079c531659141344cd1fd0a4f28419497f9722a3daafe3b4186f6b6457e090600090a35050565b6116a68061008b6000396000f3fe608060405234801561001057600080fd5b50600436106100f45760003560e01c8063715018a611610097578063d9dad80d11610066578063d9dad80d14610202578063e985e9c514610215578063f242432a14610228578063f2fde38b1461023b576100f4565b8063715018a6146101bd5780637a915fde146101c55780638da5cb5b146101da578063a22cb465146101ef576100f4565b80632eb2c2d6116100d35780632eb2c2d6146101625780632fedbf3c146101775780634e1273f41461018a578063598c27bc146101aa576100f4565b8062fdd58e146100f957806301ffc9a7146101225780630e89341c14610142575b600080fd5b61010c610107366004610f88565b61024e565b60405161011991906114a1565b60405180910390f35b6101356101303660046110f9565b6102c7565b6040516101199190611252565b610155610150366004611131565b61030f565b604051610119919061125d565b610175610170366004610df4565b610409565b005b61017561018536600461107a565b610421565b61019d610198366004610fb1565b6104b3565b604051610119919061120e565b6101756101b8366004610e9a565b6104cd565b61017561052b565b6101cd61053f565b60405161011991906114b8565b6101e2610548565b60405161011991906111b5565b6101756101fd366004610f4e565b610558565b6101e2610210366004611149565b61056e565b610135610223366004610dc2565b6105b7565b610175610236366004610eeb565b610524565b610175610249366004610da1565b6105e5565b60006001600160a01b03831661027f5760405162461bcd60e51b815260040161027690611372565b60405180910390fd5b6006821061029f5760405162461bcd60e51b8152600401610276906112ed565b5060009081526007602090815260408083206001600160a01b03949094168352929052205490565b60006001600160e01b03198216636cdb3d1360e11b14806102f857506001600160e01b031982166303a24d0760e21b145b8061030757506103078261061f565b90505b919050565b60105460609060ff166001146103375760405162461bcd60e51b8152600401610276906113c1565b600682106103575760405162461bcd60e51b8152600401610276906112ed565b600a826006811061037857634e487b7160e01b600052603260045260246000fd5b01805461038490611502565b80601f01602080910402602001604051908101604052809291908181526020018280546103b090611502565b80156103fd5780601f106103d2576101008083540402835291602001916103fd565b820191906000526020600020905b8154815290600101906020018083116103e057829003601f168201915b50505050509050919050565b60405162461bcd60e51b81526004016102769061142d565b610429610638565b60005b60068110156104a25781816006811061045557634e487b7160e01b600052603260045260246000fd5b6020020151600a826006811061047b57634e487b7160e01b600052603260045260246000fd5b01908051906020019061048f929190610c10565b508061049a8161156a565b91505061042c565b50506010805460ff19166001179055565b606060405162461bcd60e51b81526004016102769061142d565b6104d5610677565b6001600160a01b0316856001600160a01b031614806104fb57506104fb85610223610677565b6105175760405162461bcd60e51b8152600401610276906112b6565b610524858585858561067b565b5050505050565b610533610638565b61053d6000610993565b565b60105460ff1681565b6009546001600160a01b03165b90565b61056a610563610677565b83836109e5565b5050565b6000600683106105905760405162461bcd60e51b8152600401610276906112ed565b5060009182526006602090815260408084209284529190529020546001600160a01b031690565b6001600160a01b03918216600090815260086020908152604080832093909416825291909152205460ff1690565b6105ed610638565b6001600160a01b0381166106135760405162461bcd60e51b815260040161027690611270565b61061c81610993565b50565b6001600160e01b031981166301ffc9a760e01b14919050565b610640610677565b6001600160a01b0316610651610548565b6001600160a01b03161461053d5760405162461bcd60e51b8152600401610276906113f8565b3390565b6001600160a01b0384166106a15760405162461bcd60e51b815260040161027690611372565b600683106106c15760405162461bcd60e51b8152600401610276906112ed565b60005b825181101561075c57600084815260066020526040812084516001600160a01b038916929086908590811061070957634e487b7160e01b600052603260045260246000fd5b6020908102919091018101518252810191909152604001600020546001600160a01b03161461074a5760405162461bcd60e51b815260040161027690611398565b806107548161156a565b9150506106c4565b506000610767610677565b9050600061077485610a88565b905060006107828551610a88565b9050610792838989858589610ae1565b60005b855181101561082d57600087815260066020526040812087516001600160a01b038c1692908990859081106107da57634e487b7160e01b600052603260045260246000fd5b6020908102919091018101518252810191909152604001600020546001600160a01b03161461081b5760405162461bcd60e51b815260040161027690611398565b806108258161156a565b915050610795565b5060008681526007602090815260408083206001600160a01b038c1684529091528120805487518103909155905b86518110156108d757600088815260066020526040812088518b92908a908590811061089757634e487b7160e01b600052603260045260246000fd5b602090810291909101810151825281019190915260400160002080546001600160a01b0319166001600160a01b039290921691909117905560010161085b565b50855160008881526007602090815260408083206001600160a01b038d1684529091528120805490919061090c9084906114ea565b92505081905550876001600160a01b0316896001600160a01b0316856001600160a01b03167fc3d58168c5ae7397731d063d5bbf3d657854427343f4c083240f7aacaa2d0f628a8a516040516109639291906114aa565b60405180910390a4610979848a8a86868a610ae1565b610988848a8a8a8a518a610ae9565b505050505050505050565b600980546001600160a01b038381166001600160a01b0319831681179093556040519116919082907f8be0079c531659141344cd1fd0a4f28419497f9722a3daafe3b4186f6b6457e090600090a35050565b816001600160a01b0316836001600160a01b03161415610a175760405162461bcd60e51b81526004016102769061134b565b6001600160a01b0383811660008181526008602090815260408083209487168084529490915290819020805460ff1916851515179055517f17307eab39ab6107e8899845ad3d59bd9653f200f220920489ca2b5937696c3190610a7b908590611252565b60405180910390a3505050565b60408051600180825281830190925260609160009190602080830190803683370190505090508281600081518110610ad057634e487b7160e01b600052603260045260246000fd5b602090810291909101015292915050565b505050505050565b6001600160a01b0384163b15610ae15760405163f23a6e6160e01b81526001600160a01b0385169063f23a6e6190610b2d90899089908890889088906004016111c9565b602060405180830381600087803b158015610b4757600080fd5b505af1925050508015610b77575060408051601f3d908101601f19168201909252610b7491810190611115565b60015b610bd757610b836115b1565b806308c379a01415610bbd5750610b986115c8565b80610ba35750610bbf565b8060405162461bcd60e51b8152600401610276919061125d565b505b60405162461bcd60e51b815260040161027690611456565b6001600160e01b0319811663f23a6e6160e01b14610c075760405162461bcd60e51b815260040161027690611314565b50505050505050565b828054610c1c90611502565b90600052602060002090601f016020900481019282610c3e5760008555610c84565b82601f10610c5757805160ff1916838001178555610c84565b82800160010185558215610c84579182015b82811115610c84578251825591602001919060010190610c69565b50610c90929150610c94565b5090565b5b80821115610c905760008155600101610c95565b80356001600160a01b038116811461030a57600080fd5b600082601f830112610cd0578081fd5b81356020610cdd826114c6565b604051610cea828261153d565b838152828101915085830183850287018401881015610d07578586fd5b855b85811015610d2557813584529284019290840190600101610d09565b5090979650505050505050565b600082601f830112610d42578081fd5b813567ffffffffffffffff811115610d5c57610d5c61159b565b604051610d73601f8301601f19166020018261153d565b818152846020838601011115610d87578283fd5b816020850160208301379081016020019190915292915050565b600060208284031215610db2578081fd5b610dbb82610ca9565b9392505050565b60008060408385031215610dd4578081fd5b610ddd83610ca9565b9150610deb60208401610ca9565b90509250929050565b600080600080600060a08688031215610e0b578081fd5b610e1486610ca9565b9450610e2260208701610ca9565b9350604086013567ffffffffffffffff80821115610e3e578283fd5b610e4a89838a01610cc0565b94506060880135915080821115610e5f578283fd5b610e6b89838a01610cc0565b93506080880135915080821115610e80578283fd5b50610e8d88828901610d32565b9150509295509295909350565b600080600080600060a08688031215610eb1578081fd5b610eba86610ca9565b9450610ec860208701610ca9565b935060408601359250606086013567ffffffffffffffff80821115610e5f578283fd5b600080600080600060a08688031215610f02578081fd5b610f0b86610ca9565b9450610f1960208701610ca9565b93506040860135925060608601359150608086013567ffffffffffffffff811115610f42578182fd5b610e8d88828901610d32565b60008060408385031215610f60578182fd5b610f6983610ca9565b915060208301358015158114610f7d578182fd5b809150509250929050565b60008060408385031215610f9a578081fd5b610fa383610ca9565b946020939093013593505050565b60008060408385031215610fc3578182fd5b823567ffffffffffffffff80821115610fda578384fd5b818501915085601f830112610fed578384fd5b81356020610ffa826114c6565b604051611007828261153d565b8381528281019150858301838502870184018b1015611024578889fd5b8896505b8487101561104d5761103981610ca9565b835260019690960195918301918301611028565b5096505086013592505080821115611063578283fd5b5061107085828601610cc0565b9150509250929050565b6000602080838503121561108c578182fd5b823567ffffffffffffffff8111156110a2578283fd5b8301601f810185136110b2578283fd5b6040516110c060c08261153d565b8082855b60068110156110ec576110da8983358701610d32565b835291850191908501906001016110c4565b5091979650505050505050565b60006020828403121561110a578081fd5b8135610dbb8161165a565b600060208284031215611126578081fd5b8151610dbb8161165a565b600060208284031215611142578081fd5b5035919050565b6000806040838503121561115b578182fd5b50508035926020909101359150565b60008151808452815b8181101561118f57602081850181015186830182015201611173565b818111156111a05782602083870101525b50601f01601f19169290920160200192915050565b6001600160a01b0391909116815260200190565b6001600160a01b03868116825285166020820152604081018490526060810183905260a0608082018190526000906112039083018461116a565b979650505050505050565b6020808252825182820181905260009190848201906040850190845b818110156112465783518352928401929184019160010161122a565b50909695505050505050565b901515815260200190565b600060208252610dbb602083018461116a565b60208082526026908201527f4f776e61626c653a206e6577206f776e657220697320746865207a65726f206160408201526564647265737360d01b606082015260800190565b60208082526019908201527f43414c4c45525f4e4f545f4f574e45525f415050524f56454400000000000000604082015260600190565b6020808252600d908201526c544f4b454e49445f52414e474560981b604082015260600190565b6020808252601f908201527f4552433131353552454345495645525f52454a45435445445f544f4b454e5300604082015260600190565b6020808252600d908201526c20a8282927ab20a62fa9a2a62360991b604082015260600190565b6020808252600c908201526b5a45524f5f4144445245535360a01b604082015260600190565b6020808252600f908201526e1513d2d15397d393d517d3d5d39151608a1b604082015260600190565b60208082526017908201527f424153455552495f4e4f545f494e495449414c495a4544000000000000000000604082015260600190565b6020808252818101527f4f776e61626c653a2063616c6c6572206973206e6f7420746865206f776e6572604082015260600190565b6020808252600f908201526e1393d517d253541311535153951151608a1b604082015260600190565b6020808252602b908201527f7472616e736665725f746f5f6e6f6e2d4552433131353552656365697665725f60408201526a34b6b83632b6b2b73a32b960a91b606082015260800190565b90815260200190565b918252602082015260400190565b60ff91909116815260200190565b600067ffffffffffffffff8211156114e0576114e061159b565b5060209081020190565b600082198211156114fd576114fd611585565b500190565b60028104600182168061151657607f821691505b6020821081141561153757634e487b7160e01b600052602260045260246000fd5b50919050565b601f8201601f1916810167ffffffffffffffff811182821017156115635761156361159b565b6040525050565b600060001982141561157e5761157e611585565b5060010190565b634e487b7160e01b600052601160045260246000fd5b634e487b7160e01b600052604160045260246000fd5b600060033d111561055557600481823e5160e01c90565b600060443d10156115d857610555565b6040516003193d81016004833e81513d67ffffffffffffffff816024840111818411171561160a575050505050610555565b828501915081518181111561162457505050505050610555565b843d870101602082850101111561164057505050505050610555565b61164f6020828601018761153d565b509094505050505090565b6001600160e01b03198116811461061c57600080fdfea2646970667358221220249787834c7413e4aab1d012fc777ff233ec8ea843dcc9cf4aa0b2d87072184964736f6c63430008010033",
  "linkReferences": {},
  "deployedLinkReferences": {},
  "immutableReferences": {},
  "inputSourceName": "project/contracts/test/test_TCF_ERC1155URIStorage.sol",
  "devdoc": {
    "kind": "dev",
    "methods": {
      "ESafeTransferFrom(address,address,uint256,uint256[],bytes)": {
        "details": "安全转移无效的token，可以删除，因为后面会在TCF_NFT中实现",
        "params": {
          "indexes": "无效token在mintTimes数组中的位置"
        }
      },
      "balanceOf(address,uint256)": {
        "details": "See {IERC1155-balanceOf}. Requirements: - `account` cannot be the zero address."
      },
      "balanceOfBatch(address[],uint256[])": {
        "details": "See {IERC1155-balanceOfBatch}.没有实现 Requirements: - `accounts` and `ids` must have the same length."
      },
      "isApprovedForAll(address,address)": {
        "details": "See {IERC1155-isApprovedForAll}."
      },
      "owner()": {
        "details": "Returns the address of the current owner."
      },
      "renounceOwnership()": {
        "details": "Leaves the contract without owner. It will not be possible to call `onlyOwner` functions. Can only be called by the current owner. NOTE: Renouncing ownership will leave the contract without an owner, thereby disabling any functionality that is only available to the owner."
      },
      "safeBatchTransferFrom(address,address,uint256[],uint256[],bytes)": {
        "details": "See {IERC1155-safeBatchTransferFrom}."
      },
      "safeTransferFrom(address,address,uint256,uint256,bytes)": {
        "details": "See {IERC1155-safeTransferFrom}.没有实现 原erc1155的第四个参数是amount，但是我们这个合约中，每个tokenId对应的NFT是不同的，所以第四个参数改为某类NFT下的某个NFTid号"
      },
      "setApprovalForAll(address,bool)": {
        "details": "See {IERC1155-setApprovalForAll}."
      },
      "setBaseURI(bytes[6])": {
        "details": "Sets `baseURI` as the `_baseURI` for all tokens Only callable by the owner.可以被设置多次"
      },
      "supportsInterface(bytes4)": {
        "details": "See {IERC165-supportsInterface}."
      },
      "transferOwnership(address)": {
        "details": "Transfers ownership of the contract to a new account (`newOwner`). Can only be called by the current owner."
      }
    },
    "version": 1
  },
  "evm": {
    "gasEstimates": {
      "creation": {
        "codeDepositCost": "1159600",
        "executionCost": "23678",
        "totalCost": "1183278"
      },
      "external": {
        "ESafeTransferFrom(address,address,uint256,uint256[],bytes)": "infinite",
        "_initializedURIStorage()": "1091",
        "balanceOf(address,uint256)": "1453",
        "balanceOfBatch(address[],uint256[])": "infinite",
        "isApprovedForAll(address,address)": "infinite",
        "owner()": "1138",
        "ownerOf(uint256,uint256)": "1358",
        "renounceOwnership()": "infinite",
        "safeBatchTransferFrom(address,address,uint256[],uint256[],bytes)": "infinite",
        "safeTransferFrom(address,address,uint256,uint256,bytes)": "infinite",
        "setApprovalForAll(address,bool)": "23438",
        "setBaseURI(bytes[6])": "infinite",
        "supportsInterface(bytes4)": "626",
        "transferOwnership(address)": "23815",
        "uri(uint256)": "infinite"
      }
    }
  },
  "storageLayout": {
    "storage": [
      {
        "astId": 3949,
        "contract": "project/contracts/test/test_TCF_ERC1155URIStorage.sol:test_TCF_ERC1155URIStorage",
        "label": "_nextTokenId",
        "offset": 0,
        "slot": "0",
        "type": "t_array(t_uint256)6_storage"
      },
      {
        "astId": 3955,
        "contract": "project/contracts/test/test_TCF_ERC1155URIStorage.sol:test_TCF_ERC1155URIStorage",
        "label": "_owners",
        "offset": 0,
        "slot": "6",
        "type": "t_mapping(t_uint256,t_mapping(t_uint256,t_address))"
      },
      {
        "astId": 3961,
        "contract": "project/contracts/test/test_TCF_ERC1155URIStorage.sol:test_TCF_ERC1155URIStorage",
        "label": "_balances",
        "offset": 0,
        "slot": "7",
        "type": "t_mapping(t_uint256,t_mapping(t_address,t_uint256))"
      },
      {
        "astId": 3967,
        "contract": "project/contracts/test/test_TCF_ERC1155URIStorage.sol:test_TCF_ERC1155URIStorage",
        "label": "_operatorApprovals",
        "offset": 0,
        "slot": "8",
        "type": "t_mapping(t_address,t_mapping(t_address,t_bool))"
      },
      {
        "astId": 7778,
        "contract": "project/contracts/test/test_TCF_ERC1155URIStorage.sol:test_TCF_ERC1155URIStorage",
        "label": "_owner",
        "offset": 0,
        "slot": "9",
        "type": "t_address"
      },
      {
        "astId": 5405,
        "contract": "project/contracts/test/test_TCF_ERC1155URIStorage.sol:test_TCF_ERC1155URIStorage",
        "label": "_baseURI",
        "offset": 0,
        "slot": "10",
        "type": "t_array(t_string_storage)6_storage"
      },
      {
        "astId": 5407,
        "contract": "project/contracts/test/test_TCF_ERC1155URIStorage.sol:test_TCF_ERC1155URIStorage",
        "label": "_initializedURIStorage",
        "offset": 0,
        "slot": "16",
        "type": "t_uint8"
      },
      {
        "astId": 5413,
        "contract": "project/contracts/test/test_TCF_ERC1155URIStorage.sol:test_TCF_ERC1155URIStorage",
        "label": "_tokenURIs",
        "offset": 0,
        "slot": "17",
        "type": "t_mapping(t_uint256,t_mapping(t_uint256,t_string_storage))"
      }
    ],
    "types": {
      "t_address": {
        "encoding": "inplace",
        "label": "address",
        "numberOfBytes": "20"
      },
      "t_array(t_string_storage)6_storage": {
        "base": "t_string_storage",
        "encoding": "inplace",
        "label": "string[6]",
        "numberOfBytes": "192"
      },
      "t_array(t_uint256)6_storage": {
        "base": "t_uint256",
        "encoding": "inplace",
        "label": "uint256[6]",
        "numberOfBytes": "192"
      },
      "t_bool": {
        "encoding": "inplace",
        "label": "bool",
        "numberOfBytes": "1"
      },
      "t_mapping(t_address,t_bool)": {
        "encoding": "mapping",
        "key": "t_address",
        "label": "mapping(address => bool)",
        "numberOfBytes": "32",
        "value": "t_bool"
      },
      "t_mapping(t_address,t_mapping(t_address,t_bool))": {
        "encoding": "mapping",
        "key": "t_address",
        "label": "mapping(address => mapping(address => bool))",
        "numberOfBytes": "32",
        "value": "t_mapping(t_address,t_bool)"
      },
      "t_mapping(t_address,t_uint256)": {
        "encoding": "mapping",
        "key": "t_address",
        "label": "mapping(address => uint256)",
        "numberOfBytes": "32",
        "value": "t_uint256"
      },
      "t_mapping(t_uint256,t_address)": {
        "encoding": "mapping",
        "key": "t_uint256",
        "label": "mapping(uint256 => address)",
        "numberOfBytes": "32",
        "value": "t_address"
      },
      "t_mapping(t_uint256,t_mapping(t_address,t_uint256))": {
        "encoding": "mapping",
        "key": "t_uint256",
        "label": "mapping(uint256 => mapping(address => uint256))",
        "numberOfBytes": "32",
        "value": "t_mapping(t_address,t_uint256)"
      },
      "t_mapping(t_uint256,t_mapping(t_uint256,t_address))": {
        "encoding": "mapping",
        "key": "t_uint256",
        "label": "mapping(uint256 => mapping(uint256 => address))",
        "numberOfBytes": "32",
        "value": "t_mapping(t_uint256,t_address)"
      },
      "t_mapping(t_uint256,t_mapping(t_uint256,t_string_storage))": {
        "encoding": "mapping",
        "key": "t_uint256",
        "label": "mapping(uint256 => mapping(uint256 => string))",
        "numberOfBytes": "32",
        "value": "t_mapping(t_uint256,t_string_storage)"
      },
      "t_mapping(t_uint256,t_string_storage)": {
        "encoding": "mapping",
        "key": "t_uint256",
        "label": "mapping(uint256 => string)",
        "numberOfBytes": "32",
        "value": "t_string_storage"
      },
      "t_string_storage": {
        "encoding": "bytes",
        "label": "string",
        "numberOfBytes": "32"
      },
      "t_uint256": {
        "encoding": "inplace",
        "label": "uint256",
        "numberOfBytes": "32"
      },
      "t_uint8": {
        "encoding": "inplace",
        "label": "uint8",
        "numberOfBytes": "1"
      }
    }
  },
  "userdoc": {
    "kind": "user",
    "methods": {},
    "version": 1
  },
  "argsData": "0x",
  "transaction": {
    "hash": "0x43a196d034567a32a48eb075fd97dd559ef8907d1f3d1f55e1ee685078d0017b",
    "nonce": "0xc",
    "origin": "0xf39fd6e51aad88f6f4ce6ab8827279cfffb92266"
  }
}