{
  "address": "0x5fc8d32690cc91d4c39d9d3abcbd16989f875707",
  "abi": [
    {
      "inputs": [
        {
          "internalType": "uint256",
          "name": "",
          "type": "uint256"
        }
      ],
      "name": "NFTDeadline",
      "outputs": [
        {
          "internalType": "uint256",
          "name": "",
          "type": "uint256"
        }
      ],
      "stateMutability": "view",
      "type": "function"
    },
    {
      "inputs": [
        {
          "internalType": "uint256",
          "name": "",
          "type": "uint256"
        }
      ],
      "name": "addresses",
      "outputs": [
        {
          "internalType": "address",
          "name": "",
          "type": "address"
        }
      ],
      "stateMutability": "view",
      "type": "function"
    },
    {
      "inputs": [],
      "name": "getIERC20MetadataInterfaceId",
      "outputs": [
        {
          "internalType": "bytes4",
          "name": "",
          "type": "bytes4"
        }
      ],
      "stateMutability": "pure",
      "type": "function"
    },
    {
      "inputs": [],
      "name": "getTimestamp",
      "outputs": [
        {
          "internalType": "uint256",
          "name": "",
          "type": "uint256"
        }
      ],
      "stateMutability": "view",
      "type": "function"
    },
    {
      "inputs": [],
      "name": "getValue",
      "outputs": [],
      "stateMutability": "pure",
      "type": "function"
    },
    {
      "inputs": [
        {
          "internalType": "address[]",
          "name": "tokenAddresses",
          "type": "address[]"
        }
      ],
      "name": "init",
      "outputs": [],
      "stateMutability": "nonpayable",
      "type": "function"
    },
    {
      "inputs": [
        {
          "internalType": "uint256",
          "name": "_key",
          "type": "uint256"
        },
        {
          "internalType": "uint256",
          "name": "_value",
          "type": "uint256"
        },
        {
          "internalType": "bool",
          "name": "_deleteData",
          "type": "bool"
        }
      ],
      "name": "pushData",
      "outputs": [],
      "stateMutability": "nonpayable",
      "type": "function"
    },
    {
      "inputs": [
        {
          "internalType": "uint256",
          "name": "addAmount",
          "type": "uint256"
        }
      ],
      "name": "setAddress1",
      "outputs": [],
      "stateMutability": "nonpayable",
      "type": "function"
    },
    {
      "inputs": [
        {
          "internalType": "uint256",
          "name": "addAmount",
          "type": "uint256"
        }
      ],
      "name": "setAddress2",
      "outputs": [],
      "stateMutability": "nonpayable",
      "type": "function"
    },
    {
      "inputs": [
        {
          "internalType": "address",
          "name": "",
          "type": "address"
        }
      ],
      "name": "supportTokenAddress",
      "outputs": [
        {
          "internalType": "uint8",
          "name": "",
          "type": "uint8"
        }
      ],
      "stateMutability": "view",
      "type": "function"
    },
    {
      "inputs": [
        {
          "internalType": "bytes",
          "name": "decodeData",
          "type": "bytes"
        }
      ],
      "name": "testDecodeData",
      "outputs": [
        {
          "internalType": "uint256",
          "name": "",
          "type": "uint256"
        },
        {
          "internalType": "uint256",
          "name": "",
          "type": "uint256"
        }
      ],
      "stateMutability": "pure",
      "type": "function"
    },
    {
      "inputs": [
        {
          "internalType": "address",
          "name": "_tokenAddress",
          "type": "address"
        }
      ],
      "name": "testInternalCallContractFunction",
      "outputs": [
        {
          "internalType": "string",
          "name": "",
          "type": "string"
        }
      ],
      "stateMutability": "view",
      "type": "function"
    },
    {
      "inputs": [],
      "name": "testRevert",
      "outputs": [],
      "stateMutability": "pure",
      "type": "function"
    },
    {
      "inputs": [],
      "name": "testencodePacked",
      "outputs": [
        {
          "internalType": "uint256",
          "name": "",
          "type": "uint256"
        },
        {
          "internalType": "uint256",
          "name": "",
          "type": "uint256"
        }
      ],
      "stateMutability": "pure",
      "type": "function"
    },
    {
      "inputs": [
        {
          "internalType": "address",
          "name": "tokenAddress",
          "type": "address"
        }
      ],
      "name": "useCall",
      "outputs": [
        {
          "internalType": "string",
          "name": "",
          "type": "string"
        }
      ],
      "stateMutability": "view",
      "type": "function"
    }
  ],
  "contractName": "testGasUsed",
  "sourceName": "contracts/test.sol",
  "bytecode": "0x608060405234801561001057600080fd5b50610d9f806100206000396000f3fe608060405234801561001057600080fd5b50600436106100f55760003560e01c80637ded2f0711610097578063c6044c4611610066578063c6044c46146101d9578063edf26d9b146101ec578063f8c512001461020c578063ff51c6ba1461021f576100f5565b80637ded2f07146101935780638b21f1b2146101a6578063a26388bb1461014d578063a92317b2146101b9576100f5565b806320965255116100d3578063209652551461014d578063581fe037146101575780635d018bec1461016a57806361ce78301461017d576100f5565b8063123fa2a8146100fa578063188ec356146101185780631dc44d741461012d575b600080fd5b610102610232565b60405161010f9190610c33565b60405180910390f35b61012061023d565b60405161010f9190610cc7565b61014061013b3660046109bc565b610241565b60405161010f9190610c48565b610155610329565b005b610155610165366004610bb9565b61034a565b610155610178366004610b5d565b61036f565b6101856105fe565b60405161010f929190610c11565b6101556101a1366004610b5d565b61064c565b6101856101b4366004610a59565b610787565b6101cc6101c73660046109bc565b6107c6565b60405161010f9190610cd0565b6101556101e73660046109ea565b6107db565b6101ff6101fa366004610b5d565b6107e5565b60405161010f9190610c1f565b61014061021a3660046109bc565b61080f565b61012061022d366004610b5d565b610895565b63a219a02560e01b90565b4290565b60408051600481526024810182526020810180516001600160e01b03166395d89b4160e01b17905290516060919060009081906001600160a01b0386169061028a908590610bf5565b600060405180830381855afa9150503d80600081146102c5576040519150601f19603f3d011682016040523d82523d6000602084013e6102ca565b606091505b50915091508180156102dd575060008151115b1561030057808060200190518101906102f69190610ab4565b9350505050610324565b6040518060400160405280600581526020016466616c736560d81b81525093505050505b919050565b60405162461bcd60e51b815260040161034190610ca8565b60405180910390fd5b6000838152602081905260409020829055801561036a5761036a836108a7565b505050565b600380546001808201835560008381527fc2575a0e9e593c00f959f8c92f12db2869c3395a3b0502d05e2516446f71f85b9283018054738a791620dd6260079bf849dc5567adc3f2fdc3186001600160a01b03199182168117909255855480850187558501805482168317905585548085018755850180548216831790558554808501875585018054821683179055855480850187558501805482168317905585548085018755850180548216831790558554938401865592909301805490921690921790558154604080516020808402820181019092528281529293919083018282801561048757602002820191906000526020600020905b81546001600160a01b03168152600190910190602001808311610469575b50505050509050600082825161049d9190610cde565b67ffffffffffffffff8111156104c357634e487b7160e01b600052604160045260246000fd5b6040519080825280602002602001820160405280156104ec578160200160208202803683370190505b50825190915060005b8181101561056f5783818151811061051d57634e487b7160e01b600052603260045260246000fd5b602002602001015183828151811061054557634e487b7160e01b600052603260045260246000fd5b6001600160a01b03909216602092830291909101909101528061056781610d22565b9150506104f5565b5060005b848110156105e35773dd2fd4581271e230360230f9337d5c0430bf44c08361059b8385610cde565b815181106105b957634e487b7160e01b600052603260045260246000fd5b6001600160a01b0390921660209283029190910190910152806105db81610d22565b915050610573565b5081516105f7906003906020850190610942565b5050505050565b600080600060036064604051602001610618929190610c11565b6040516020818303038152906040529050600080828060200190518101906106409190610b96565b90955093505050509091565b600380546001808201835560008381527fc2575a0e9e593c00f959f8c92f12db2869c3395a3b0502d05e2516446f71f85b9283018054738a791620dd6260079bf849dc5567adc3f2fdc3186001600160a01b03199182168117909255855480850187558501805482168317905585548085018755850180548216831790558554808501875585018054821683179055855480850187558501805482168317905585548085018755850180548216831790558554938401909555919092018054909316179091555b8181101561078357600380546001810182556000919091527fc2575a0e9e593c00f959f8c92f12db2869c3395a3b0502d05e2516446f71f85b0180546001600160a01b03191673dd2fd4581271e230360230f9337d5c0430bf44c01790558061077b81610d22565b915050610713565b5050565b600080604083146107aa5760405162461bcd60e51b815260040161034190610c7b565b6000806107b985870187610b75565b9097909650945050505050565b60026020526000908152604090205460ff1681565b61078382826108b8565b600381815481106107f557600080fd5b6000918252602090912001546001600160a01b0316905081565b606060008290506000816001600160a01b03166395d89b416040518163ffffffff1660e01b815260040160006040518083038186803b15801561085157600080fd5b505afa158015610865573d6000803e3d6000fd5b505050506040513d6000823e601f3d908101601f1916820160405261088d9190810190610ab4565b949350505050565b60006020819052908152604090205481565b600090815260208190526040812055565b8060005b8181101561093c576001600260008686858181106108ea57634e487b7160e01b600052603260045260246000fd5b90506020020160208101906108ff91906109bc565b6001600160a01b031681526020810191909152604001600020805460ff191660ff929092169190911790558061093481610d22565b9150506108bc565b50505050565b828054828255906000526020600020908101928215610997579160200282015b8281111561099757825182546001600160a01b0319166001600160a01b03909116178255602090920191600190910190610962565b506109a39291506109a7565b5090565b5b808211156109a357600081556001016109a8565b6000602082840312156109cd578081fd5b81356001600160a01b03811681146109e3578182fd5b9392505050565b600080602083850312156109fc578081fd5b823567ffffffffffffffff80821115610a13578283fd5b818501915085601f830112610a26578283fd5b813581811115610a34578384fd5b8660208083028501011115610a47578384fd5b60209290920196919550909350505050565b60008060208385031215610a6b578182fd5b823567ffffffffffffffff80821115610a82578384fd5b818501915085601f830112610a95578384fd5b813581811115610aa3578485fd5b866020828501011115610a47578485fd5b600060208284031215610ac5578081fd5b815167ffffffffffffffff80821115610adc578283fd5b818401915084601f830112610aef578283fd5b815181811115610b0157610b01610d53565b604051601f8201601f19908116603f01168101908382118183101715610b2957610b29610d53565b81604052828152876020848701011115610b41578586fd5b610b52836020830160208801610cf6565b979650505050505050565b600060208284031215610b6e578081fd5b5035919050565b60008060408385031215610b87578182fd5b50508035926020909101359150565b60008060408385031215610ba8578182fd5b505080516020909101519092909150565b600080600060608486031215610bcd578081fd5b833592506020840135915060408401358015158114610bea578182fd5b809150509250925092565b60008251610c07818460208701610cf6565b9190910192915050565b918252602082015260400190565b6001600160a01b0391909116815260200190565b6001600160e01b031991909116815260200190565b6000602082528251806020840152610c67816040850160208701610cf6565b601f01601f19169190910160400192915050565b602080825260139082015272092dcecc2d8d2c840c8c2e8c240d8cadccee8d606b1b604082015260600190565b6020808252600590820152646e6968616f60d81b604082015260600190565b90815260200190565b60ff91909116815260200190565b60008219821115610cf157610cf1610d3d565b500190565b60005b83811015610d11578181015183820152602001610cf9565b8381111561093c5750506000910152565b6000600019821415610d3657610d36610d3d565b5060010190565b634e487b7160e01b600052601160045260246000fd5b634e487b7160e01b600052604160045260246000fdfea264697066735822122004f9c66ce8956425749bed9884b82035df15567686d6b8ae587da490e737c95764736f6c63430008010033",
  "linkReferences": {},
  "deployedLinkReferences": {},
  "immutableReferences": {},
  "inputSourceName": "project/contracts/test.sol",
  "devdoc": {
    "details": "测试删除map数据消耗的gas",
    "kind": "dev",
    "methods": {},
    "version": 1
  },
  "evm": {
    "gasEstimates": {
      "creation": {
        "codeDepositCost": "697400",
        "executionCost": "728",
        "totalCost": "698128"
      },
      "external": {
        "NFTDeadline(uint256)": "1262",
        "addresses(uint256)": "2082",
        "getIERC20MetadataInterfaceId()": "285",
        "getTimestamp()": "273",
        "getValue()": "302",
        "init(address[])": "infinite",
        "pushData(uint256,uint256,bool)": "25553",
        "setAddress1(uint256)": "infinite",
        "setAddress2(uint256)": "infinite",
        "supportTokenAddress(address)": "1324",
        "testDecodeData(bytes)": "709",
        "testInternalCallContractFunction(address)": "infinite",
        "testRevert()": "346",
        "testencodePacked()": "infinite",
        "useCall(address)": "infinite"
      },
      "internal": {
        "deleteData(uint256)": "5087",
        "initTokenAddress(address[] calldata)": "infinite"
      }
    }
  },
  "storageLayout": {
    "storage": [
      {
        "astId": 1733,
        "contract": "project/contracts/test.sol:testGasUsed",
        "label": "NFTDeadline",
        "offset": 0,
        "slot": "0",
        "type": "t_mapping(t_uint256,t_uint256)"
      },
      {
        "astId": 1735,
        "contract": "project/contracts/test.sol:testGasUsed",
        "label": "number",
        "offset": 0,
        "slot": "1",
        "type": "t_uint256"
      },
      {
        "astId": 1739,
        "contract": "project/contracts/test.sol:testGasUsed",
        "label": "supportTokenAddress",
        "offset": 0,
        "slot": "2",
        "type": "t_mapping(t_address,t_uint8)"
      },
      {
        "astId": 1742,
        "contract": "project/contracts/test.sol:testGasUsed",
        "label": "addresses",
        "offset": 0,
        "slot": "3",
        "type": "t_array(t_address)dyn_storage"
      }
    ],
    "types": {
      "t_address": {
        "encoding": "inplace",
        "label": "address",
        "numberOfBytes": "20"
      },
      "t_array(t_address)dyn_storage": {
        "base": "t_address",
        "encoding": "dynamic_array",
        "label": "address[]",
        "numberOfBytes": "32"
      },
      "t_mapping(t_address,t_uint8)": {
        "encoding": "mapping",
        "key": "t_address",
        "label": "mapping(address => uint8)",
        "numberOfBytes": "32",
        "value": "t_uint8"
      },
      "t_mapping(t_uint256,t_uint256)": {
        "encoding": "mapping",
        "key": "t_uint256",
        "label": "mapping(uint256 => uint256)",
        "numberOfBytes": "32",
        "value": "t_uint256"
      },
      "t_uint256": {
        "encoding": "inplace",
        "label": "uint256",
        "numberOfBytes": "32"
      },
      "t_uint8": {
        "encoding": "inplace",
        "label": "uint8",
        "numberOfBytes": "1"
      }
    }
  },
  "userdoc": {
    "kind": "user",
    "methods": {},
    "version": 1
  },
  "argsData": "0x",
  "transaction": {
    "hash": "0xb32d312adfd4185b30bcb8183b2183dc05ad5e371c27ec2e3db08bb79b6f7541",
    "nonce": "0x5",
    "origin": "0xf39fd6e51aad88f6f4ce6ab8827279cfffb92266"
  }
}