{
  "address": "0x5fc8d32690cc91d4c39d9d3abcbd16989f875707",
  "abi": [
    {
      "inputs": [
        {
          "internalType": "uint256",
          "name": "",
          "type": "uint256"
        }
      ],
      "name": "NFTDeadline",
      "outputs": [
        {
          "internalType": "uint256",
          "name": "",
          "type": "uint256"
        }
      ],
      "stateMutability": "view",
      "type": "function"
    },
    {
      "inputs": [
        {
          "internalType": "uint256",
          "name": "",
          "type": "uint256"
        }
      ],
      "name": "addresses",
      "outputs": [
        {
          "internalType": "address",
          "name": "",
          "type": "address"
        }
      ],
      "stateMutability": "view",
      "type": "function"
    },
    {
      "inputs": [],
      "name": "getIERC20MetadataInterfaceId",
      "outputs": [
        {
          "internalType": "bytes4",
          "name": "",
          "type": "bytes4"
        }
      ],
      "stateMutability": "pure",
      "type": "function"
    },
    {
      "inputs": [],
      "name": "getTimestamp",
      "outputs": [
        {
          "internalType": "uint256",
          "name": "",
          "type": "uint256"
        }
      ],
      "stateMutability": "view",
      "type": "function"
    },
    {
      "inputs": [],
      "name": "getValue",
      "outputs": [],
      "stateMutability": "pure",
      "type": "function"
    },
    {
      "inputs": [
        {
          "internalType": "address[]",
          "name": "tokenAddresses",
          "type": "address[]"
        }
      ],
      "name": "init",
      "outputs": [],
      "stateMutability": "nonpayable",
      "type": "function"
    },
    {
      "inputs": [
        {
          "internalType": "uint256",
          "name": "_key",
          "type": "uint256"
        },
        {
          "internalType": "uint256",
          "name": "_value",
          "type": "uint256"
        },
        {
          "internalType": "bool",
          "name": "_deleteData",
          "type": "bool"
        }
      ],
      "name": "pushData",
      "outputs": [],
      "stateMutability": "nonpayable",
      "type": "function"
    },
    {
      "inputs": [
        {
          "internalType": "uint256",
          "name": "addAmount",
          "type": "uint256"
        }
      ],
      "name": "setAddress1",
      "outputs": [],
      "stateMutability": "nonpayable",
      "type": "function"
    },
    {
      "inputs": [
        {
          "internalType": "uint256",
          "name": "addAmount",
          "type": "uint256"
        }
      ],
      "name": "setAddress2",
      "outputs": [],
      "stateMutability": "nonpayable",
      "type": "function"
    },
    {
      "inputs": [
        {
          "internalType": "address",
          "name": "",
          "type": "address"
        }
      ],
      "name": "supportTokenAddress",
      "outputs": [
        {
          "internalType": "uint8",
          "name": "",
          "type": "uint8"
        }
      ],
      "stateMutability": "view",
      "type": "function"
    },
    {
      "inputs": [
        {
          "internalType": "bytes",
          "name": "decodeData",
          "type": "bytes"
        }
      ],
      "name": "testDecodeData",
      "outputs": [
        {
          "internalType": "uint256",
          "name": "",
          "type": "uint256"
        },
        {
          "internalType": "uint256",
          "name": "",
          "type": "uint256"
        }
      ],
      "stateMutability": "pure",
      "type": "function"
    },
    {
      "inputs": [
        {
          "internalType": "address",
          "name": "_tokenAddress",
          "type": "address"
        }
      ],
      "name": "testInternalCallContractFunction",
      "outputs": [
        {
          "internalType": "string",
          "name": "",
          "type": "string"
        }
      ],
      "stateMutability": "view",
      "type": "function"
    },
    {
      "inputs": [],
      "name": "testRevert",
      "outputs": [],
      "stateMutability": "pure",
      "type": "function"
    },
    {
      "inputs": [],
      "name": "testencodePacked",
      "outputs": [
        {
          "internalType": "uint256",
          "name": "",
          "type": "uint256"
        },
        {
          "internalType": "uint256",
          "name": "",
          "type": "uint256"
        }
      ],
      "stateMutability": "pure",
      "type": "function"
    },
    {
      "inputs": [
        {
          "internalType": "address",
          "name": "to",
          "type": "address"
        },
        {
          "internalType": "uint256",
          "name": "amount",
          "type": "uint256"
        }
      ],
      "name": "transferNatureToken",
      "outputs": [],
      "stateMutability": "nonpayable",
      "type": "function"
    },
    {
      "inputs": [
        {
          "internalType": "address",
          "name": "tokenAddress",
          "type": "address"
        }
      ],
      "name": "useCall",
      "outputs": [
        {
          "internalType": "string",
          "name": "",
          "type": "string"
        }
      ],
      "stateMutability": "view",
      "type": "function"
    },
    {
      "stateMutability": "payable",
      "type": "receive"
    }
  ],
  "contractName": "testGasUsed",
  "sourceName": "contracts/test.sol",
  "bytecode": "0x608060405234801561001057600080fd5b50610f6e806100206000396000f3fe6080604052600436106100f75760003560e01c80638b21f1b21161008a578063c7c5f75611610059578063c7c5f75614610284578063edf26d9b146102a4578063f8c51200146102d1578063ff51c6ba146102f1576100fe565b80638b21f1b214610217578063a26388bb1461017d578063a92317b214610237578063c6044c4614610264576100fe565b8063581fe037116100c6578063581fe037146101945780635d018bec146101b457806361ce7830146101d45780637ded2f07146101f7576100fe565b8063123fa2a814610103578063188ec3561461012e5780631dc44d7414610150578063209652551461017d576100fe565b366100fe57005b600080fd5b34801561010f57600080fd5b50610118610311565b6040516101259190610ddd565b60405180910390f35b34801561013a57600080fd5b50610143610335565b6040516101259190610e96565b34801561015c57600080fd5b5061017061016b366004610b47565b610339565b6040516101259190610df2565b34801561018957600080fd5b50610192610421565b005b3480156101a057600080fd5b506101926101af366004610d60565b610442565b3480156101c057600080fd5b506101926101cf366004610d04565b610467565b3480156101e057600080fd5b506101e96106f6565b604051610125929190610dbb565b34801561020357600080fd5b50610192610212366004610d04565b610744565b34801561022357600080fd5b506101e9610232366004610c00565b61087f565b34801561024357600080fd5b50610257610252366004610b47565b6108be565b6040516101259190610e9f565b34801561027057600080fd5b5061019261027f366004610b91565b6108d3565b34801561029057600080fd5b5061019261029f366004610b68565b6108dd565b3480156102b057600080fd5b506102c46102bf366004610d04565b610959565b6040516101259190610dc9565b3480156102dd57600080fd5b506101706102ec366004610b47565b610983565b3480156102fd57600080fd5b5061014361030c366004610d04565b610a09565b7f942e8b22f7bef9a2c27f1ca2676ca889264a72d86114480e62eecbced1c1e69190565b4290565b60408051600481526024810182526020810180516001600160e01b03166395d89b4160e01b17905290516060919060009081906001600160a01b03861690610382908590610d9c565b600060405180830381855afa9150503d80600081146103bd576040519150601f19603f3d011682016040523d82523d6000602084013e6103c2565b606091505b50915091508180156103d5575060008151115b156103f857808060200190518101906103ee9190610c5b565b935050505061041c565b6040518060400160405280600581526020016466616c736560d81b81525093505050505b919050565b60405162461bcd60e51b815260040161043990610e77565b60405180910390fd5b600083815260208190526040902082905580156104625761046283610a1b565b505050565b600380546001808201835560008381527fc2575a0e9e593c00f959f8c92f12db2869c3395a3b0502d05e2516446f71f85b9283018054738a791620dd6260079bf849dc5567adc3f2fdc3186001600160a01b03199182168117909255855480850187558501805482168317905585548085018755850180548216831790558554808501875585018054821683179055855480850187558501805482168317905585548085018755850180548216831790558554938401865592909301805490921690921790558154604080516020808402820181019092528281529293919083018282801561057f57602002820191906000526020600020905b81546001600160a01b03168152600190910190602001808311610561575b5050505050905060008282516105959190610ead565b67ffffffffffffffff8111156105bb57634e487b7160e01b600052604160045260246000fd5b6040519080825280602002602001820160405280156105e4578160200160208202803683370190505b50825190915060005b818110156106675783818151811061061557634e487b7160e01b600052603260045260246000fd5b602002602001015183828151811061063d57634e487b7160e01b600052603260045260246000fd5b6001600160a01b03909216602092830291909101909101528061065f81610ef1565b9150506105ed565b5060005b848110156106db5773dd2fd4581271e230360230f9337d5c0430bf44c0836106938385610ead565b815181106106b157634e487b7160e01b600052603260045260246000fd5b6001600160a01b0390921660209283029190910190910152806106d381610ef1565b91505061066b565b5081516106ef906003906020850190610ab6565b5050505050565b600080600060036064604051602001610710929190610dbb565b6040516020818303038152906040529050600080828060200190518101906107389190610d3d565b90955093505050509091565b600380546001808201835560008381527fc2575a0e9e593c00f959f8c92f12db2869c3395a3b0502d05e2516446f71f85b9283018054738a791620dd6260079bf849dc5567adc3f2fdc3186001600160a01b03199182168117909255855480850187558501805482168317905585548085018755850180548216831790558554808501875585018054821683179055855480850187558501805482168317905585548085018755850180548216831790558554938401909555919092018054909316179091555b8181101561087b57600380546001810182556000919091527fc2575a0e9e593c00f959f8c92f12db2869c3395a3b0502d05e2516446f71f85b0180546001600160a01b03191673dd2fd4581271e230360230f9337d5c0430bf44c01790558061087381610ef1565b91505061080b565b5050565b600080604083146108a25760405162461bcd60e51b815260040161043990610e25565b6000806108b185870187610d1c565b9097909650945050505050565b60026020526000908152604090205460ff1681565b61087b8282610a2c565b6000826001600160a01b0316826040516108f690610db8565b60006040518083038185875af1925050503d8060008114610933576040519150601f19603f3d011682016040523d82523d6000602084013e610938565b606091505b50509050806104625760405162461bcd60e51b815260040161043990610e52565b6003818154811061096957600080fd5b6000918252602090912001546001600160a01b0316905081565b606060008290506000816001600160a01b03166395d89b416040518163ffffffff1660e01b815260040160006040518083038186803b1580156109c557600080fd5b505afa1580156109d9573d6000803e3d6000fd5b505050506040513d6000823e601f3d908101601f19168201604052610a019190810190610c5b565b949350505050565b60006020819052908152604090205481565b600090815260208190526040812055565b8060005b81811015610ab057600160026000868685818110610a5e57634e487b7160e01b600052603260045260246000fd5b9050602002016020810190610a739190610b47565b6001600160a01b031681526020810191909152604001600020805460ff191660ff9290921691909117905580610aa881610ef1565b915050610a30565b50505050565b828054828255906000526020600020908101928215610b0b579160200282015b82811115610b0b57825182546001600160a01b0319166001600160a01b03909116178255602090920191600190910190610ad6565b50610b17929150610b1b565b5090565b5b80821115610b175760008155600101610b1c565b80356001600160a01b038116811461041c57600080fd5b600060208284031215610b58578081fd5b610b6182610b30565b9392505050565b60008060408385031215610b7a578081fd5b610b8383610b30565b946020939093013593505050565b60008060208385031215610ba3578182fd5b823567ffffffffffffffff80821115610bba578384fd5b818501915085601f830112610bcd578384fd5b813581811115610bdb578485fd5b8660208083028501011115610bee578485fd5b60209290920196919550909350505050565b60008060208385031215610c12578182fd5b823567ffffffffffffffff80821115610c29578384fd5b818501915085601f830112610c3c578384fd5b813581811115610c4a578485fd5b866020828501011115610bee578485fd5b600060208284031215610c6c578081fd5b815167ffffffffffffffff80821115610c83578283fd5b818401915084601f830112610c96578283fd5b815181811115610ca857610ca8610f22565b604051601f8201601f19908116603f01168101908382118183101715610cd057610cd0610f22565b81604052828152876020848701011115610ce8578586fd5b610cf9836020830160208801610ec5565b979650505050505050565b600060208284031215610d15578081fd5b5035919050565b60008060408385031215610d2e578182fd5b50508035926020909101359150565b60008060408385031215610d4f578182fd5b505080516020909101519092909150565b600080600060608486031215610d74578081fd5b833592506020840135915060408401358015158114610d91578182fd5b809150509250925092565b60008251610dae818460208701610ec5565b9190910192915050565b90565b918252602082015260400190565b6001600160a01b0391909116815260200190565b6001600160e01b031991909116815260200190565b6000602082528251806020840152610e11816040850160208701610ec5565b601f01601f19169190910160400192915050565b602080825260139082015272092dcecc2d8d2c840c8c2e8c240d8cadccee8d606b1b604082015260600190565b6020808252600b908201526a18d85b1b0819985a5b195960aa1b604082015260600190565b6020808252600590820152646e6968616f60d81b604082015260600190565b90815260200190565b60ff91909116815260200190565b60008219821115610ec057610ec0610f0c565b500190565b60005b83811015610ee0578181015183820152602001610ec8565b83811115610ab05750506000910152565b6000600019821415610f0557610f05610f0c565b5060010190565b634e487b7160e01b600052601160045260246000fd5b634e487b7160e01b600052604160045260246000fdfea2646970667358221220c08af7bccca2f9fc01da9135a93d46e5dfd22805f2ac35b0b585f44ec45e92f364736f6c63430008010033",
  "linkReferences": {},
  "deployedLinkReferences": {},
  "immutableReferences": {},
  "inputSourceName": "project/contracts/test.sol",
  "devdoc": {
    "details": "测试删除map数据消耗的gas",
    "kind": "dev",
    "methods": {},
    "version": 1
  },
  "evm": {
    "gasEstimates": {
      "creation": {
        "codeDepositCost": "790000",
        "executionCost": "825",
        "totalCost": "790825"
      },
      "external": {
        "NFTDeadline(uint256)": "1262",
        "addresses(uint256)": "2082",
        "getIERC20MetadataInterfaceId()": "279",
        "getTimestamp()": "273",
        "getValue()": "369",
        "init(address[])": "infinite",
        "pushData(uint256,uint256,bool)": "25531",
        "setAddress1(uint256)": "infinite",
        "setAddress2(uint256)": "infinite",
        "supportTokenAddress(address)": "1337",
        "testDecodeData(bytes)": "687",
        "testInternalCallContractFunction(address)": "infinite",
        "testRevert()": "324",
        "testencodePacked()": "infinite",
        "transferNatureToken(address,uint256)": "infinite",
        "useCall(address)": "infinite"
      },
      "internal": {
        "deleteData(uint256)": "5087",
        "initTokenAddress(address[] calldata)": "infinite"
      }
    }
  },
  "storageLayout": {
    "storage": [
      {
        "astId": 4133,
        "contract": "project/contracts/test.sol:testGasUsed",
        "label": "NFTDeadline",
        "offset": 0,
        "slot": "0",
        "type": "t_mapping(t_uint256,t_uint256)"
      },
      {
        "astId": 4135,
        "contract": "project/contracts/test.sol:testGasUsed",
        "label": "number",
        "offset": 0,
        "slot": "1",
        "type": "t_uint256"
      },
      {
        "astId": 4139,
        "contract": "project/contracts/test.sol:testGasUsed",
        "label": "supportTokenAddress",
        "offset": 0,
        "slot": "2",
        "type": "t_mapping(t_address,t_uint8)"
      },
      {
        "astId": 4142,
        "contract": "project/contracts/test.sol:testGasUsed",
        "label": "addresses",
        "offset": 0,
        "slot": "3",
        "type": "t_array(t_address)dyn_storage"
      }
    ],
    "types": {
      "t_address": {
        "encoding": "inplace",
        "label": "address",
        "numberOfBytes": "20"
      },
      "t_array(t_address)dyn_storage": {
        "base": "t_address",
        "encoding": "dynamic_array",
        "label": "address[]",
        "numberOfBytes": "32"
      },
      "t_mapping(t_address,t_uint8)": {
        "encoding": "mapping",
        "key": "t_address",
        "label": "mapping(address => uint8)",
        "numberOfBytes": "32",
        "value": "t_uint8"
      },
      "t_mapping(t_uint256,t_uint256)": {
        "encoding": "mapping",
        "key": "t_uint256",
        "label": "mapping(uint256 => uint256)",
        "numberOfBytes": "32",
        "value": "t_uint256"
      },
      "t_uint256": {
        "encoding": "inplace",
        "label": "uint256",
        "numberOfBytes": "32"
      },
      "t_uint8": {
        "encoding": "inplace",
        "label": "uint8",
        "numberOfBytes": "1"
      }
    }
  },
  "userdoc": {
    "kind": "user",
    "methods": {},
    "version": 1
  },
  "argsData": "0x",
  "transaction": {
    "hash": "0x49603da576331398216fae47eda9476eed692ffbd2c4d38b6a1fa19834103d56",
    "nonce": "0x5",
    "origin": "0xf39fd6e51aad88f6f4ce6ab8827279cfffb92266"
  }
}