{
  "address": "0x610178da211fef7d417bc0e6fed39f05609ad788",
  "abi": [
    {
      "anonymous": false,
      "inputs": [
        {
          "indexed": true,
          "internalType": "address",
          "name": "account",
          "type": "address"
        },
        {
          "indexed": true,
          "internalType": "address",
          "name": "operator",
          "type": "address"
        },
        {
          "indexed": false,
          "internalType": "bool",
          "name": "approved",
          "type": "bool"
        }
      ],
      "name": "ApprovalForAll",
      "type": "event"
    },
    {
      "anonymous": false,
      "inputs": [
        {
          "indexed": true,
          "internalType": "address",
          "name": "operator",
          "type": "address"
        },
        {
          "indexed": true,
          "internalType": "address",
          "name": "from",
          "type": "address"
        },
        {
          "indexed": true,
          "internalType": "address",
          "name": "to",
          "type": "address"
        },
        {
          "indexed": false,
          "internalType": "uint256[]",
          "name": "ids",
          "type": "uint256[]"
        },
        {
          "indexed": false,
          "internalType": "uint256[]",
          "name": "values",
          "type": "uint256[]"
        }
      ],
      "name": "TransferBatch",
      "type": "event"
    },
    {
      "anonymous": false,
      "inputs": [
        {
          "indexed": true,
          "internalType": "address",
          "name": "operator",
          "type": "address"
        },
        {
          "indexed": true,
          "internalType": "address",
          "name": "from",
          "type": "address"
        },
        {
          "indexed": true,
          "internalType": "address",
          "name": "to",
          "type": "address"
        },
        {
          "indexed": false,
          "internalType": "uint256",
          "name": "id",
          "type": "uint256"
        },
        {
          "indexed": false,
          "internalType": "uint256",
          "name": "value",
          "type": "uint256"
        }
      ],
      "name": "TransferSingle",
      "type": "event"
    },
    {
      "anonymous": false,
      "inputs": [
        {
          "indexed": false,
          "internalType": "string",
          "name": "value",
          "type": "string"
        },
        {
          "indexed": true,
          "internalType": "uint256",
          "name": "id",
          "type": "uint256"
        }
      ],
      "name": "URI",
      "type": "event"
    },
    {
      "inputs": [
        {
          "internalType": "address",
          "name": "from",
          "type": "address"
        },
        {
          "internalType": "address",
          "name": "to",
          "type": "address"
        },
        {
          "internalType": "uint256",
          "name": "id",
          "type": "uint256"
        },
        {
          "internalType": "uint256[]",
          "name": "indexes",
          "type": "uint256[]"
        },
        {
          "internalType": "bytes",
          "name": "data",
          "type": "bytes"
        }
      ],
      "name": "ESafeTransferFrom",
      "outputs": [],
      "stateMutability": "nonpayable",
      "type": "function"
    },
    {
      "inputs": [
        {
          "internalType": "address",
          "name": "account",
          "type": "address"
        },
        {
          "internalType": "uint256",
          "name": "id",
          "type": "uint256"
        }
      ],
      "name": "balanceOf",
      "outputs": [
        {
          "internalType": "uint256",
          "name": "",
          "type": "uint256"
        }
      ],
      "stateMutability": "view",
      "type": "function"
    },
    {
      "inputs": [
        {
          "internalType": "address[]",
          "name": "",
          "type": "address[]"
        },
        {
          "internalType": "uint256[]",
          "name": "",
          "type": "uint256[]"
        }
      ],
      "name": "balanceOfBatch",
      "outputs": [
        {
          "internalType": "uint256[]",
          "name": "",
          "type": "uint256[]"
        }
      ],
      "stateMutability": "view",
      "type": "function"
    },
    {
      "inputs": [
        {
          "internalType": "address",
          "name": "account",
          "type": "address"
        },
        {
          "internalType": "address",
          "name": "operator",
          "type": "address"
        }
      ],
      "name": "isApprovedForAll",
      "outputs": [
        {
          "internalType": "bool",
          "name": "",
          "type": "bool"
        }
      ],
      "stateMutability": "view",
      "type": "function"
    },
    {
      "inputs": [
        {
          "internalType": "uint256",
          "name": "tokenId",
          "type": "uint256"
        },
        {
          "internalType": "uint256",
          "name": "editionId",
          "type": "uint256"
        }
      ],
      "name": "ownerOf",
      "outputs": [
        {
          "internalType": "address",
          "name": "",
          "type": "address"
        }
      ],
      "stateMutability": "view",
      "type": "function"
    },
    {
      "inputs": [
        {
          "internalType": "address",
          "name": "",
          "type": "address"
        },
        {
          "internalType": "address",
          "name": "",
          "type": "address"
        },
        {
          "internalType": "uint256[]",
          "name": "",
          "type": "uint256[]"
        },
        {
          "internalType": "uint256[]",
          "name": "",
          "type": "uint256[]"
        },
        {
          "internalType": "bytes",
          "name": "",
          "type": "bytes"
        }
      ],
      "name": "safeBatchTransferFrom",
      "outputs": [],
      "stateMutability": "nonpayable",
      "type": "function"
    },
    {
      "inputs": [
        {
          "internalType": "address",
          "name": "from",
          "type": "address"
        },
        {
          "internalType": "address",
          "name": "to",
          "type": "address"
        },
        {
          "internalType": "uint256",
          "name": "id",
          "type": "uint256"
        },
        {
          "internalType": "uint256",
          "name": "amount",
          "type": "uint256"
        },
        {
          "internalType": "bytes",
          "name": "data",
          "type": "bytes"
        }
      ],
      "name": "safeTransferFrom",
      "outputs": [],
      "stateMutability": "nonpayable",
      "type": "function"
    },
    {
      "inputs": [
        {
          "internalType": "address",
          "name": "operator",
          "type": "address"
        },
        {
          "internalType": "bool",
          "name": "approved",
          "type": "bool"
        }
      ],
      "name": "setApprovalForAll",
      "outputs": [],
      "stateMutability": "nonpayable",
      "type": "function"
    },
    {
      "inputs": [
        {
          "internalType": "bytes4",
          "name": "interfaceId",
          "type": "bytes4"
        }
      ],
      "name": "supportsInterface",
      "outputs": [
        {
          "internalType": "bool",
          "name": "",
          "type": "bool"
        }
      ],
      "stateMutability": "view",
      "type": "function"
    },
    {
      "inputs": [
        {
          "internalType": "address",
          "name": "to",
          "type": "address"
        },
        {
          "internalType": "uint256",
          "name": "id",
          "type": "uint256"
        },
        {
          "internalType": "uint256",
          "name": "amount",
          "type": "uint256"
        },
        {
          "internalType": "bytes",
          "name": "data",
          "type": "bytes"
        }
      ],
      "name": "testMint",
      "outputs": [],
      "stateMutability": "nonpayable",
      "type": "function"
    },
    {
      "inputs": [
        {
          "internalType": "uint256",
          "name": "tokenId",
          "type": "uint256"
        },
        {
          "internalType": "uint256",
          "name": "editionId",
          "type": "uint256"
        }
      ],
      "name": "testOwnerOf",
      "outputs": [
        {
          "internalType": "address",
          "name": "",
          "type": "address"
        }
      ],
      "stateMutability": "view",
      "type": "function"
    },
    {
      "inputs": [
        {
          "internalType": "address",
          "name": "from",
          "type": "address"
        },
        {
          "internalType": "address",
          "name": "to",
          "type": "address"
        },
        {
          "internalType": "uint256",
          "name": "id",
          "type": "uint256"
        },
        {
          "internalType": "uint256[]",
          "name": "indexes",
          "type": "uint256[]"
        },
        {
          "internalType": "bytes",
          "name": "data",
          "type": "bytes"
        }
      ],
      "name": "testSafeTransferFrom",
      "outputs": [],
      "stateMutability": "nonpayable",
      "type": "function"
    },
    {
      "inputs": [
        {
          "internalType": "uint256",
          "name": "",
          "type": "uint256"
        }
      ],
      "name": "uri",
      "outputs": [
        {
          "internalType": "string",
          "name": "",
          "type": "string"
        }
      ],
      "stateMutability": "view",
      "type": "function"
    }
  ],
  "contractName": "test_TCF_ERC1155",
  "sourceName": "contracts/test/test_TCF_ERC1155.sol",
  "bytecode": "0x608060405234801561001057600080fd5b50611541806100206000396000f3fe608060405234801561001057600080fd5b50600436106100ce5760003560e01c8063598c27bc1161008c578063d9dad80d11610066578063d9dad80d146101bd578063dc481313146101dd578063e985e9c5146101f0578063f242432a14610203576100ce565b8063598c27bc14610184578063784da43714610197578063a22cb465146101aa576100ce565b8062fdd58e146100d357806301ffc9a7146100fc5780630e89341c1461011c578063292241f21461013c5780632eb2c2d6146101515780634e1273f414610164575b600080fd5b6100e66100e1366004610f3b565b610216565b6040516100f39190611382565b60405180910390f35b61010f61010a36600461108c565b61028f565b6040516100f391906111e5565b61012f61012a3660046110c4565b6102d7565b6040516100f391906111f0565b61014f61014a366004610f64565b6102ea565b005b61014f61015f366004610cea565b6102fc565b610177610172366004610fc3565b610314565b6040516100f391906111a1565b61014f610192366004610e4d565b61032e565b61014f6101a5366004610d90565b61038c565b61014f6101b8366004610f01565b6103d5565b6101d06101cb3660046110dc565b6103eb565b6040516100f39190611148565b6101d06101eb3660046110dc565b610434565b61010f6101fe366004610cb8565b610447565b61014f610211366004610e9e565b610385565b60006001600160a01b0383166102475760405162461bcd60e51b815260040161023e906112bf565b60405180910390fd5b600682106102675760405162461bcd60e51b815260040161023e9061123a565b5060009081526007602090815260408083206001600160a01b03949094168352929052205490565b60006001600160e01b03198216636cdb3d1360e11b14806102c057506001600160e01b031982166303a24d0760e21b145b806102cf57506102cf82610475565b90505b919050565b5060408051602081019091526000815290565b6102f68484848461048e565b50505050565b60405162461bcd60e51b815260040161023e9061130e565b606060405162461bcd60e51b815260040161023e9061130e565b610336610689565b6001600160a01b0316856001600160a01b0316148061035c575061035c856101fe610689565b6103785760405162461bcd60e51b815260040161023e90611203565b610385858585858561068e565b5050505050565b6103cd86868686868080602002602001604051908101604052809392919081815260200183836020028082843760009201919091525088925061068e915050565b505050505050565b6103e76103e0610689565b83836109a6565b5050565b60006006831061040d5760405162461bcd60e51b815260040161023e9061123a565b5060009182526006602090815260408084209284529190529020546001600160a01b031690565b600061044083836103eb565b9392505050565b6001600160a01b03918216600090815260086020908152604080832093909416825291909152205460ff1690565b6001600160e01b031981166301ffc9a760e01b14919050565b600683106104ae5760405162461bcd60e51b815260040161023e9061123a565b6001600160a01b0384166104d45760405162461bcd60e51b815260040161023e906112bf565b60006104de610689565b905060006104eb85610a49565b905060006104f885610a49565b9050610509836000898585896103cd565b60008681526007602090815260408083206001600160a01b038b1684529091528120805487929061053b9084906113bd565b90915550600090505b858110156105d057876006600089815260200190815260200160002060008360008b6006811061058457634e487b7160e01b600052603260045260246000fd5b015461059091906113bd565b8152602081019190915260400160002080546001600160a01b0319166001600160a01b0392909216919091179055806105c881611402565b915050610544565b5084600087600681106105f357634e487b7160e01b600052603260045260246000fd5b01600082825461060391906113bd565b92505081905550866001600160a01b031660006001600160a01b0316846001600160a01b03167fc3d58168c5ae7397731d063d5bbf3d657854427343f4c083240f7aacaa2d0f62898960405161065a92919061138b565b60405180910390a4610671836000898585896103cd565b61068083600089898989610aa2565b50505050505050565b335b90565b6001600160a01b0384166106b45760405162461bcd60e51b815260040161023e906112bf565b600683106106d45760405162461bcd60e51b815260040161023e9061123a565b60005b825181101561076f57600084815260066020526040812084516001600160a01b038916929086908590811061071c57634e487b7160e01b600052603260045260246000fd5b6020908102919091018101518252810191909152604001600020546001600160a01b03161461075d5760405162461bcd60e51b815260040161023e906112e5565b8061076781611402565b9150506106d7565b50600061077a610689565b9050600061078785610a49565b905060006107958551610a49565b90506107a58389898585896103cd565b60005b855181101561084057600087815260066020526040812087516001600160a01b038c1692908990859081106107ed57634e487b7160e01b600052603260045260246000fd5b6020908102919091018101518252810191909152604001600020546001600160a01b03161461082e5760405162461bcd60e51b815260040161023e906112e5565b8061083881611402565b9150506107a8565b5060008681526007602090815260408083206001600160a01b038c1684529091528120805487518103909155905b86518110156108ea57600088815260066020526040812088518b92908a90859081106108aa57634e487b7160e01b600052603260045260246000fd5b602090810291909101810151825281019190915260400160002080546001600160a01b0319166001600160a01b039290921691909117905560010161086e565b50855160008881526007602090815260408083206001600160a01b038d1684529091528120805490919061091f9084906113bd565b92505081905550876001600160a01b0316896001600160a01b0316856001600160a01b03167fc3d58168c5ae7397731d063d5bbf3d657854427343f4c083240f7aacaa2d0f628a8a5160405161097692919061138b565b60405180910390a461098c848a8a86868a6103cd565b61099b848a8a8a8a518a610aa2565b505050505050505050565b816001600160a01b0316836001600160a01b031614156109d85760405162461bcd60e51b815260040161023e90611298565b6001600160a01b0383811660008181526008602090815260408083209487168084529490915290819020805460ff1916851515179055517f17307eab39ab6107e8899845ad3d59bd9653f200f220920489ca2b5937696c3190610a3c9085906111e5565b60405180910390a3505050565b60408051600180825281830190925260609160009190602080830190803683370190505090508281600081518110610a9157634e487b7160e01b600052603260045260246000fd5b602090810291909101015292915050565b6001600160a01b0384163b156103cd5760405163f23a6e6160e01b81526001600160a01b0385169063f23a6e6190610ae6908990899088908890889060040161115c565b602060405180830381600087803b158015610b0057600080fd5b505af1925050508015610b30575060408051601f3d908101601f19168201909252610b2d918101906110a8565b60015b610b9057610b3c611449565b806308c379a01415610b765750610b51611460565b80610b5c5750610b78565b8060405162461bcd60e51b815260040161023e91906111f0565b505b60405162461bcd60e51b815260040161023e90611337565b6001600160e01b0319811663f23a6e6160e01b146106805760405162461bcd60e51b815260040161023e90611261565b80356001600160a01b03811681146102d257600080fd5b600082601f830112610be7578081fd5b81356020610bf482611399565b604051610c0182826113d5565b838152828101915085830183850287018401881015610c1e578586fd5b855b85811015610c3c57813584529284019290840190600101610c20565b5090979650505050505050565b600082601f830112610c59578081fd5b813567ffffffffffffffff811115610c7357610c73611433565b604051610c8a601f8301601f1916602001826113d5565b818152846020838601011115610c9e578283fd5b816020850160208301379081016020019190915292915050565b60008060408385031215610cca578182fd5b610cd383610bc0565b9150610ce160208401610bc0565b90509250929050565b600080600080600060a08688031215610d01578081fd5b610d0a86610bc0565b9450610d1860208701610bc0565b9350604086013567ffffffffffffffff80821115610d34578283fd5b610d4089838a01610bd7565b94506060880135915080821115610d55578283fd5b610d6189838a01610bd7565b93506080880135915080821115610d76578283fd5b50610d8388828901610c49565b9150509295509295909350565b60008060008060008060a08789031215610da8578081fd5b610db187610bc0565b9550610dbf60208801610bc0565b945060408701359350606087013567ffffffffffffffff80821115610de2578283fd5b818901915089601f830112610df5578283fd5b813581811115610e03578384fd5b8a60208083028501011115610e16578384fd5b602083019550809450506080890135915080821115610e33578283fd5b50610e4089828a01610c49565b9150509295509295509295565b600080600080600060a08688031215610e64578081fd5b610e6d86610bc0565b9450610e7b60208701610bc0565b935060408601359250606086013567ffffffffffffffff80821115610d55578283fd5b600080600080600060a08688031215610eb5578081fd5b610ebe86610bc0565b9450610ecc60208701610bc0565b93506040860135925060608601359150608086013567ffffffffffffffff811115610ef5578182fd5b610d8388828901610c49565b60008060408385031215610f13578182fd5b610f1c83610bc0565b915060208301358015158114610f30578182fd5b809150509250929050565b60008060408385031215610f4d578182fd5b610f5683610bc0565b946020939093013593505050565b60008060008060808587031215610f79578182fd5b610f8285610bc0565b93506020850135925060408501359150606085013567ffffffffffffffff811115610fab578182fd5b610fb787828801610c49565b91505092959194509250565b60008060408385031215610fd5578182fd5b823567ffffffffffffffff80821115610fec578384fd5b818501915085601f830112610fff578384fd5b8135602061100c82611399565b60405161101982826113d5565b8381528281019150858301838502870184018b1015611036578889fd5b8896505b8487101561105f5761104b81610bc0565b83526001969096019591830191830161103a565b5096505086013592505080821115611075578283fd5b5061108285828601610bd7565b9150509250929050565b60006020828403121561109d578081fd5b8135610440816114f2565b6000602082840312156110b9578081fd5b8151610440816114f2565b6000602082840312156110d5578081fd5b5035919050565b600080604083850312156110ee578182fd5b50508035926020909101359150565b60008151808452815b8181101561112257602081850181015186830182015201611106565b818111156111335782602083870101525b50601f01601f19169290920160200192915050565b6001600160a01b0391909116815260200190565b6001600160a01b03868116825285166020820152604081018490526060810183905260a060808201819052600090611196908301846110fd565b979650505050505050565b6020808252825182820181905260009190848201906040850190845b818110156111d9578351835292840192918401916001016111bd565b50909695505050505050565b901515815260200190565b60006020825261044060208301846110fd565b60208082526019908201527f43414c4c45525f4e4f545f4f574e45525f415050524f56454400000000000000604082015260600190565b6020808252600d908201526c544f4b454e49445f52414e474560981b604082015260600190565b6020808252601f908201527f4552433131353552454345495645525f52454a45435445445f544f4b454e5300604082015260600190565b6020808252600d908201526c20a8282927ab20a62fa9a2a62360991b604082015260600190565b6020808252600c908201526b5a45524f5f4144445245535360a01b604082015260600190565b6020808252600f908201526e1513d2d15397d393d517d3d5d39151608a1b604082015260600190565b6020808252600f908201526e1393d517d253541311535153951151608a1b604082015260600190565b6020808252602b908201527f7472616e736665725f746f5f6e6f6e2d4552433131353552656365697665725f60408201526a34b6b83632b6b2b73a32b960a91b606082015260800190565b90815260200190565b918252602082015260400190565b600067ffffffffffffffff8211156113b3576113b3611433565b5060209081020190565b600082198211156113d0576113d061141d565b500190565b601f8201601f1916810167ffffffffffffffff811182821017156113fb576113fb611433565b6040525050565b60006000198214156114165761141661141d565b5060010190565b634e487b7160e01b600052601160045260246000fd5b634e487b7160e01b600052604160045260246000fd5b600060033d111561068b57600481823e5160e01c90565b600060443d10156114705761068b565b6040516003193d81016004833e81513d67ffffffffffffffff81602484011181841117156114a257505050505061068b565b82850191508151818111156114bc5750505050505061068b565b843d87010160208285010111156114d85750505050505061068b565b6114e7602082860101876113d5565b509094505050505090565b6001600160e01b03198116811461150857600080fd5b5056fea2646970667358221220e70a62607dbf18b684c17f0cf49ce1d9419c3f2e1915f2c92a358dcc9e9f998964736f6c63430008010033",
  "linkReferences": {},
  "deployedLinkReferences": {},
  "immutableReferences": {},
  "inputSourceName": "project/contracts/test/test_TCF_ERC1155.sol",
  "devdoc": {
    "kind": "dev",
    "methods": {
      "ESafeTransferFrom(address,address,uint256,uint256[],bytes)": {
        "details": "安全转移无效的token，可以删除，因为后面会在TCF_NFT中实现",
        "params": {
          "indexes": "无效token在mintTimes数组中的位置"
        }
      },
      "balanceOf(address,uint256)": {
        "details": "See {IERC1155-balanceOf}. Requirements: - `account` cannot be the zero address."
      },
      "balanceOfBatch(address[],uint256[])": {
        "details": "See {IERC1155-balanceOfBatch}.没有实现 Requirements: - `accounts` and `ids` must have the same length."
      },
      "isApprovedForAll(address,address)": {
        "details": "See {IERC1155-isApprovedForAll}."
      },
      "safeBatchTransferFrom(address,address,uint256[],uint256[],bytes)": {
        "details": "See {IERC1155-safeBatchTransferFrom}."
      },
      "safeTransferFrom(address,address,uint256,uint256,bytes)": {
        "details": "See {IERC1155-safeTransferFrom}.没有实现 原erc1155的第四个参数是amount，但是我们这个合约中，每个tokenId对应的NFT是不同的，所以第四个参数改为某类NFT下的某个NFTid号"
      },
      "setApprovalForAll(address,bool)": {
        "details": "See {IERC1155-setApprovalForAll}."
      },
      "supportsInterface(bytes4)": {
        "details": "See {IERC165-supportsInterface}."
      }
    },
    "version": 1
  },
  "evm": {
    "gasEstimates": {
      "creation": {
        "codeDepositCost": "1088200",
        "executionCost": "1134",
        "totalCost": "1089334"
      },
      "external": {
        "ESafeTransferFrom(address,address,uint256,uint256[],bytes)": "infinite",
        "balanceOf(address,uint256)": "1430",
        "balanceOfBatch(address[],uint256[])": "infinite",
        "isApprovedForAll(address,address)": "infinite",
        "ownerOf(uint256,uint256)": "1358",
        "safeBatchTransferFrom(address,address,uint256[],uint256[],bytes)": "infinite",
        "safeTransferFrom(address,address,uint256,uint256,bytes)": "infinite",
        "setApprovalForAll(address,bool)": "23417",
        "supportsInterface(bytes4)": "603",
        "testMint(address,uint256,uint256,bytes)": "infinite",
        "testOwnerOf(uint256,uint256)": "1425",
        "testSafeTransferFrom(address,address,uint256,uint256[],bytes)": "infinite",
        "uri(uint256)": "552"
      }
    }
  },
  "storageLayout": {
    "storage": [
      {
        "astId": 3949,
        "contract": "project/contracts/test/test_TCF_ERC1155.sol:test_TCF_ERC1155",
        "label": "_nextTokenId",
        "offset": 0,
        "slot": "0",
        "type": "t_array(t_uint256)6_storage"
      },
      {
        "astId": 3955,
        "contract": "project/contracts/test/test_TCF_ERC1155.sol:test_TCF_ERC1155",
        "label": "_owners",
        "offset": 0,
        "slot": "6",
        "type": "t_mapping(t_uint256,t_mapping(t_uint256,t_address))"
      },
      {
        "astId": 3961,
        "contract": "project/contracts/test/test_TCF_ERC1155.sol:test_TCF_ERC1155",
        "label": "_balances",
        "offset": 0,
        "slot": "7",
        "type": "t_mapping(t_uint256,t_mapping(t_address,t_uint256))"
      },
      {
        "astId": 3967,
        "contract": "project/contracts/test/test_TCF_ERC1155.sol:test_TCF_ERC1155",
        "label": "_operatorApprovals",
        "offset": 0,
        "slot": "8",
        "type": "t_mapping(t_address,t_mapping(t_address,t_bool))"
      }
    ],
    "types": {
      "t_address": {
        "encoding": "inplace",
        "label": "address",
        "numberOfBytes": "20"
      },
      "t_array(t_uint256)6_storage": {
        "base": "t_uint256",
        "encoding": "inplace",
        "label": "uint256[6]",
        "numberOfBytes": "192"
      },
      "t_bool": {
        "encoding": "inplace",
        "label": "bool",
        "numberOfBytes": "1"
      },
      "t_mapping(t_address,t_bool)": {
        "encoding": "mapping",
        "key": "t_address",
        "label": "mapping(address => bool)",
        "numberOfBytes": "32",
        "value": "t_bool"
      },
      "t_mapping(t_address,t_mapping(t_address,t_bool))": {
        "encoding": "mapping",
        "key": "t_address",
        "label": "mapping(address => mapping(address => bool))",
        "numberOfBytes": "32",
        "value": "t_mapping(t_address,t_bool)"
      },
      "t_mapping(t_address,t_uint256)": {
        "encoding": "mapping",
        "key": "t_address",
        "label": "mapping(address => uint256)",
        "numberOfBytes": "32",
        "value": "t_uint256"
      },
      "t_mapping(t_uint256,t_address)": {
        "encoding": "mapping",
        "key": "t_uint256",
        "label": "mapping(uint256 => address)",
        "numberOfBytes": "32",
        "value": "t_address"
      },
      "t_mapping(t_uint256,t_mapping(t_address,t_uint256))": {
        "encoding": "mapping",
        "key": "t_uint256",
        "label": "mapping(uint256 => mapping(address => uint256))",
        "numberOfBytes": "32",
        "value": "t_mapping(t_address,t_uint256)"
      },
      "t_mapping(t_uint256,t_mapping(t_uint256,t_address))": {
        "encoding": "mapping",
        "key": "t_uint256",
        "label": "mapping(uint256 => mapping(uint256 => address))",
        "numberOfBytes": "32",
        "value": "t_mapping(t_uint256,t_address)"
      },
      "t_uint256": {
        "encoding": "inplace",
        "label": "uint256",
        "numberOfBytes": "32"
      }
    }
  },
  "userdoc": {
    "kind": "user",
    "methods": {},
    "version": 1
  },
  "argsData": "0x",
  "transaction": {
    "hash": "0xefd155a269a79d210e3bce4aee843577d8abe80500f46912fb29f175a082f33f",
    "nonce": "0xa",
    "origin": "0xf39fd6e51aad88f6f4ce6ab8827279cfffb92266"
  }
}