{
  "address": "0x8a791620dd6260079bf849dc5567adc3f2fdc318",
  "abi": [
    {
      "anonymous": false,
      "inputs": [
        {
          "indexed": true,
          "internalType": "address",
          "name": "account",
          "type": "address"
        },
        {
          "indexed": true,
          "internalType": "address",
          "name": "operator",
          "type": "address"
        },
        {
          "indexed": false,
          "internalType": "bool",
          "name": "approved",
          "type": "bool"
        }
      ],
      "name": "ApprovalForAll",
      "type": "event"
    },
    {
      "anonymous": false,
      "inputs": [
        {
          "indexed": true,
          "internalType": "uint256",
          "name": "tokenID",
          "type": "uint256"
        },
        {
          "indexed": false,
          "internalType": "uint8",
          "name": "previousRatio",
          "type": "uint8"
        },
        {
          "indexed": false,
          "internalType": "uint8",
          "name": "newRatio",
          "type": "uint8"
        }
      ],
      "name": "DynamicRatioChanged",
      "type": "event"
    },
    {
      "anonymous": false,
      "inputs": [
        {
          "indexed": true,
          "internalType": "uint256",
          "name": "tokenID",
          "type": "uint256"
        },
        {
          "indexed": true,
          "internalType": "address",
          "name": "paymentToken",
          "type": "address"
        },
        {
          "indexed": false,
          "internalType": "uint256",
          "name": "oldPrice",
          "type": "uint256"
        },
        {
          "indexed": false,
          "internalType": "uint256",
          "name": "newPrice",
          "type": "uint256"
        }
      ],
      "name": "NFTPriceChanged",
      "type": "event"
    },
    {
      "anonymous": false,
      "inputs": [
        {
          "indexed": true,
          "internalType": "address",
          "name": "previousOwner",
          "type": "address"
        },
        {
          "indexed": true,
          "internalType": "address",
          "name": "newOwner",
          "type": "address"
        }
      ],
      "name": "OwnershipTransferred",
      "type": "event"
    },
    {
      "anonymous": false,
      "inputs": [
        {
          "indexed": true,
          "internalType": "address",
          "name": "to",
          "type": "address"
        },
        {
          "indexed": true,
          "internalType": "uint256",
          "name": "tokenId",
          "type": "uint256"
        },
        {
          "indexed": false,
          "internalType": "uint256",
          "name": "editionId",
          "type": "uint256"
        },
        {
          "indexed": false,
          "internalType": "uint256",
          "name": "mintedAt",
          "type": "uint256"
        }
      ],
      "name": "TokenEditionMinted",
      "type": "event"
    },
    {
      "anonymous": false,
      "inputs": [
        {
          "indexed": true,
          "internalType": "address",
          "name": "operator",
          "type": "address"
        },
        {
          "indexed": true,
          "internalType": "address",
          "name": "from",
          "type": "address"
        },
        {
          "indexed": true,
          "internalType": "address",
          "name": "to",
          "type": "address"
        },
        {
          "indexed": false,
          "internalType": "uint256[]",
          "name": "ids",
          "type": "uint256[]"
        },
        {
          "indexed": false,
          "internalType": "uint256[]",
          "name": "values",
          "type": "uint256[]"
        }
      ],
      "name": "TransferBatch",
      "type": "event"
    },
    {
      "anonymous": false,
      "inputs": [
        {
          "indexed": true,
          "internalType": "address",
          "name": "operator",
          "type": "address"
        },
        {
          "indexed": true,
          "internalType": "address",
          "name": "from",
          "type": "address"
        },
        {
          "indexed": true,
          "internalType": "address",
          "name": "to",
          "type": "address"
        },
        {
          "indexed": false,
          "internalType": "uint256",
          "name": "id",
          "type": "uint256"
        },
        {
          "indexed": false,
          "internalType": "uint256",
          "name": "value",
          "type": "uint256"
        }
      ],
      "name": "TransferSingle",
      "type": "event"
    },
    {
      "anonymous": false,
      "inputs": [
        {
          "indexed": false,
          "internalType": "string",
          "name": "value",
          "type": "string"
        },
        {
          "indexed": true,
          "internalType": "uint256",
          "name": "id",
          "type": "uint256"
        }
      ],
      "name": "URI",
      "type": "event"
    },
    {
      "inputs": [
        {
          "internalType": "address",
          "name": "from",
          "type": "address"
        },
        {
          "internalType": "address",
          "name": "to",
          "type": "address"
        },
        {
          "internalType": "uint256",
          "name": "id",
          "type": "uint256"
        },
        {
          "internalType": "uint256[]",
          "name": "indexes",
          "type": "uint256[]"
        },
        {
          "internalType": "bytes",
          "name": "data",
          "type": "bytes"
        }
      ],
      "name": "ESafeTransferFrom",
      "outputs": [],
      "stateMutability": "nonpayable",
      "type": "function"
    },
    {
      "inputs": [],
      "name": "NFTPrice_initialized",
      "outputs": [
        {
          "internalType": "uint8",
          "name": "",
          "type": "uint8"
        }
      ],
      "stateMutability": "view",
      "type": "function"
    },
    {
      "inputs": [
        {
          "internalType": "address",
          "name": "_tokenAddress",
          "type": "address"
        }
      ],
      "name": "addSupportedToken",
      "outputs": [],
      "stateMutability": "nonpayable",
      "type": "function"
    },
    {
      "inputs": [
        {
          "internalType": "address",
          "name": "account",
          "type": "address"
        },
        {
          "internalType": "uint256",
          "name": "id",
          "type": "uint256"
        }
      ],
      "name": "balanceOf",
      "outputs": [
        {
          "internalType": "uint256",
          "name": "",
          "type": "uint256"
        }
      ],
      "stateMutability": "view",
      "type": "function"
    },
    {
      "inputs": [
        {
          "internalType": "address[]",
          "name": "",
          "type": "address[]"
        },
        {
          "internalType": "uint256[]",
          "name": "",
          "type": "uint256[]"
        }
      ],
      "name": "balanceOfBatch",
      "outputs": [
        {
          "internalType": "uint256[]",
          "name": "",
          "type": "uint256[]"
        }
      ],
      "stateMutability": "view",
      "type": "function"
    },
    {
      "inputs": [
        {
          "internalType": "uint256",
          "name": "tokenID",
          "type": "uint256"
        },
        {
          "internalType": "uint8",
          "name": "newRatio",
          "type": "uint8"
        }
      ],
      "name": "changeDynamicRatio",
      "outputs": [],
      "stateMutability": "nonpayable",
      "type": "function"
    },
    {
      "inputs": [
        {
          "internalType": "uint256",
          "name": "tokenID",
          "type": "uint256"
        },
        {
          "internalType": "address",
          "name": "tokenAddress",
          "type": "address"
        },
        {
          "internalType": "uint256",
          "name": "amount",
          "type": "uint256"
        }
      ],
      "name": "changeNFTPrice",
      "outputs": [],
      "stateMutability": "nonpayable",
      "type": "function"
    },
    {
      "inputs": [
        {
          "components": [
            {
              "internalType": "address",
              "name": "tokenAddress",
              "type": "address"
            },
            {
              "internalType": "uint256",
              "name": "amount",
              "type": "uint256"
            }
          ],
          "internalType": "struct TCF_NFTPrice.priceTypeAndAomut[][6]",
          "name": "prices",
          "type": "tuple[][6]"
        }
      ],
      "name": "checkInitPricesParams",
      "outputs": [
        {
          "internalType": "string",
          "name": "",
          "type": "string"
        }
      ],
      "stateMutability": "view",
      "type": "function"
    },
    {
      "inputs": [
        {
          "internalType": "uint256",
          "name": "tokenID",
          "type": "uint256"
        }
      ],
      "name": "getNFTEquityDetails",
      "outputs": [
        {
          "internalType": "uint8",
          "name": "ratio",
          "type": "uint8"
        },
        {
          "internalType": "uint32",
          "name": "indate",
          "type": "uint32"
        }
      ],
      "stateMutability": "view",
      "type": "function"
    },
    {
      "inputs": [
        {
          "internalType": "uint256",
          "name": "tokenID",
          "type": "uint256"
        },
        {
          "internalType": "address",
          "name": "_tokenAddress",
          "type": "address"
        }
      ],
      "name": "getNFTPrice",
      "outputs": [
        {
          "internalType": "string",
          "name": "",
          "type": "string"
        },
        {
          "internalType": "uint256",
          "name": "",
          "type": "uint256"
        }
      ],
      "stateMutability": "view",
      "type": "function"
    },
    {
      "inputs": [
        {
          "internalType": "uint256",
          "name": "tokenId",
          "type": "uint256"
        },
        {
          "internalType": "address",
          "name": "account",
          "type": "address"
        },
        {
          "internalType": "uint256",
          "name": "editionId",
          "type": "uint256"
        }
      ],
      "name": "getNftMintTime",
      "outputs": [
        {
          "internalType": "uint256",
          "name": "",
          "type": "uint256"
        }
      ],
      "stateMutability": "view",
      "type": "function"
    },
    {
      "inputs": [
        {
          "internalType": "address",
          "name": "owner",
          "type": "address"
        }
      ],
      "name": "getTotalNFTWorth",
      "outputs": [
        {
          "internalType": "uint256",
          "name": "",
          "type": "uint256"
        }
      ],
      "stateMutability": "view",
      "type": "function"
    },
    {
      "inputs": [
        {
          "internalType": "address",
          "name": "account",
          "type": "address"
        },
        {
          "internalType": "uint256",
          "name": "tokenId",
          "type": "uint256"
        }
      ],
      "name": "getUserTokenIds",
      "outputs": [
        {
          "internalType": "uint256[]",
          "name": "",
          "type": "uint256[]"
        }
      ],
      "stateMutability": "view",
      "type": "function"
    },
    {
      "inputs": [
        {
          "components": [
            {
              "internalType": "address",
              "name": "tokenAddress",
              "type": "address"
            },
            {
              "internalType": "uint256",
              "name": "amount",
              "type": "uint256"
            }
          ],
          "internalType": "struct TCF_NFTPrice.priceTypeAndAomut[][6]",
          "name": "prices",
          "type": "tuple[][6]"
        }
      ],
      "name": "initPrice",
      "outputs": [],
      "stateMutability": "nonpayable",
      "type": "function"
    },
    {
      "inputs": [
        {
          "internalType": "address",
          "name": "account",
          "type": "address"
        },
        {
          "internalType": "address",
          "name": "operator",
          "type": "address"
        }
      ],
      "name": "isApprovedForAll",
      "outputs": [
        {
          "internalType": "bool",
          "name": "",
          "type": "bool"
        }
      ],
      "stateMutability": "view",
      "type": "function"
    },
    {
      "inputs": [
        {
          "internalType": "address",
          "name": "token",
          "type": "address"
        }
      ],
      "name": "isSupported",
      "outputs": [
        {
          "internalType": "uint8",
          "name": "",
          "type": "uint8"
        }
      ],
      "stateMutability": "view",
      "type": "function"
    },
    {
      "inputs": [],
      "name": "owner",
      "outputs": [
        {
          "internalType": "address",
          "name": "",
          "type": "address"
        }
      ],
      "stateMutability": "view",
      "type": "function"
    },
    {
      "inputs": [
        {
          "internalType": "uint256",
          "name": "tokenId",
          "type": "uint256"
        },
        {
          "internalType": "uint256",
          "name": "editionId",
          "type": "uint256"
        }
      ],
      "name": "ownerOf",
      "outputs": [
        {
          "internalType": "address",
          "name": "",
          "type": "address"
        }
      ],
      "stateMutability": "view",
      "type": "function"
    },
    {
      "inputs": [],
      "name": "renounceOwnership",
      "outputs": [],
      "stateMutability": "nonpayable",
      "type": "function"
    },
    {
      "inputs": [
        {
          "internalType": "address",
          "name": "",
          "type": "address"
        },
        {
          "internalType": "address",
          "name": "",
          "type": "address"
        },
        {
          "internalType": "uint256[]",
          "name": "",
          "type": "uint256[]"
        },
        {
          "internalType": "uint256[]",
          "name": "",
          "type": "uint256[]"
        },
        {
          "internalType": "bytes",
          "name": "",
          "type": "bytes"
        }
      ],
      "name": "safeBatchTransferFrom",
      "outputs": [],
      "stateMutability": "nonpayable",
      "type": "function"
    },
    {
      "inputs": [
        {
          "internalType": "address",
          "name": "",
          "type": "address"
        },
        {
          "internalType": "address",
          "name": "",
          "type": "address"
        },
        {
          "internalType": "uint256",
          "name": "",
          "type": "uint256"
        },
        {
          "internalType": "uint256",
          "name": "",
          "type": "uint256"
        },
        {
          "internalType": "bytes",
          "name": "",
          "type": "bytes"
        }
      ],
      "name": "safeTransferFrom",
      "outputs": [],
      "stateMutability": "nonpayable",
      "type": "function"
    },
    {
      "inputs": [
        {
          "internalType": "address",
          "name": "operator",
          "type": "address"
        },
        {
          "internalType": "bool",
          "name": "approved",
          "type": "bool"
        }
      ],
      "name": "setApprovalForAll",
      "outputs": [],
      "stateMutability": "nonpayable",
      "type": "function"
    },
    {
      "inputs": [],
      "name": "supportedTokenAmount",
      "outputs": [
        {
          "internalType": "uint256",
          "name": "",
          "type": "uint256"
        }
      ],
      "stateMutability": "view",
      "type": "function"
    },
    {
      "inputs": [
        {
          "internalType": "bytes4",
          "name": "interfaceId",
          "type": "bytes4"
        }
      ],
      "name": "supportsInterface",
      "outputs": [
        {
          "internalType": "bool",
          "name": "",
          "type": "bool"
        }
      ],
      "stateMutability": "view",
      "type": "function"
    },
    {
      "inputs": [
        {
          "internalType": "address",
          "name": "to",
          "type": "address"
        },
        {
          "internalType": "uint256",
          "name": "id",
          "type": "uint256"
        },
        {
          "internalType": "uint256",
          "name": "amount",
          "type": "uint256"
        },
        {
          "internalType": "bytes",
          "name": "data",
          "type": "bytes"
        }
      ],
      "name": "testMint",
      "outputs": [],
      "stateMutability": "nonpayable",
      "type": "function"
    },
    {
      "inputs": [
        {
          "internalType": "address",
          "name": "from",
          "type": "address"
        },
        {
          "internalType": "address",
          "name": "to",
          "type": "address"
        },
        {
          "internalType": "uint256",
          "name": "id",
          "type": "uint256"
        },
        {
          "internalType": "uint256[]",
          "name": "indexes",
          "type": "uint256[]"
        },
        {
          "internalType": "bytes",
          "name": "data",
          "type": "bytes"
        }
      ],
      "name": "testSafeTransferFrom",
      "outputs": [],
      "stateMutability": "nonpayable",
      "type": "function"
    },
    {
      "inputs": [
        {
          "internalType": "uint256",
          "name": "",
          "type": "uint256"
        }
      ],
      "name": "tokenAddress_array",
      "outputs": [
        {
          "internalType": "address",
          "name": "",
          "type": "address"
        }
      ],
      "stateMutability": "view",
      "type": "function"
    },
    {
      "inputs": [
        {
          "internalType": "address",
          "name": "newOwner",
          "type": "address"
        }
      ],
      "name": "transferOwnership",
      "outputs": [],
      "stateMutability": "nonpayable",
      "type": "function"
    },
    {
      "inputs": [
        {
          "internalType": "uint256",
          "name": "",
          "type": "uint256"
        }
      ],
      "name": "uri",
      "outputs": [
        {
          "internalType": "string",
          "name": "",
          "type": "string"
        }
      ],
      "stateMutability": "view",
      "type": "function"
    }
  ],
  "contractName": "test_TCF_ERC1155MintTime",
  "sourceName": "contracts/test/test_TCF_ERC1155MintTime.sol",
  "bytecode": "0x60806040523480156200001157600080fd5b506200002662000020620000a4565b620000a8565b600a6020527fbbc70db1b6c7afd11e79c0fb0051300458f1a3acb8ee9789d9b6b26c61ad9bc7805460ff19166001908117909155600c805480830182556000919091527fdf6966c971051c3d54ec59162606531493a51404a002842f56009d7e5cf4a8c70180546001600160a01b03191682179055600b55620000fa565b3390565b600980546001600160a01b038381166001600160a01b0319831681179093556040519116919082907f8be0079c531659141344cd1fd0a4f28419497f9722a3daafe3b4186f6b6457e090600090a35050565b6131da806200010a6000396000f3fe608060405234801561001057600080fd5b50600436106101ce5760003560e01c8063598c27bc11610104578063a22cb465116100a2578063e5030adc11610071578063e5030adc146103f7578063e985e9c51461040a578063f242432a1461041d578063f2fde38b14610430576101ce565b8063a22cb465146103ab578063aa31281c146103be578063b788920e146103d1578063d9dad80d146103e4576101ce565b8063784da437116100de578063784da4371461035c57806383023c881461036f57806386ff9113146103825780638da5cb5b146103a3576101ce565b8063598c27bc1461032e5780636d69fcaf14610341578063715018a614610354576101ce565b8063292241f2116101715780634c8cb6721161014b5780634c8cb672146102d35780634e1273f4146102e85780634f129c5314610308578063558263131461031b576101ce565b8063292241f2146102985780632eb2c2d6146102ad5780633a4d2d3a146102c0576101ce565b80630e89341c116101ad5780630e89341c1461023d57806319d62e571461025d5780631f3fd6181461027d5780632336128314610290576101ce565b8062fdd58e146101d357806301ffc9a7146101fc57806306198b981461021c575b600080fd5b6101e66101e1366004612728565b610443565b6040516101f39190612f12565b60405180910390f35b61020f61020a3660046128b1565b6104bf565b6040516101f39190612b7e565b61022f61022a3660046129a5565b610507565b6040516101f3929190612f37565b61025061024b3660046129a5565b61057f565b6040516101f39190612b89565b61027061026b3660046129a5565b610599565b6040516101f39190612ae1565b61025061028b366004612879565b6105c3565b6101e66108d3565b6102ab6102a6366004612751565b6108d9565b005b6102ab6102bb366004612528565b6108eb565b6102ab6102ce366004612879565b610903565b6102db610c11565b6040516101f39190612f29565b6102fb6102f63660046127b0565b610c1f565b6040516101f39190612b3a565b6102db6103163660046124d5565b610c39565b6102ab6103293660046129df565b610c6d565b6102ab61033c3660046125ce565b610d25565b6102ab61034f3660046124d5565b610d85565b6102ab610e6e565b6102ab61036a3660046125ce565b610d6f565b6102ab61037d366004612a34565b610e82565b6103956103903660046129bd565b610f3b565b6040516101f3929190612b9c565b610270610fe8565b6102ab6103b93660046126ee565b610ff8565b6101e66103cc3660046129df565b61100e565b6102fb6103df366004612728565b611060565b6102706103f2366004612a13565b6110f5565b6101e66104053660046124d5565b61113e565b61020f6104183660046124f6565b6112ec565b6102ab61042b36600461268b565b61131a565b6102ab61043e3660046124d5565b611332565b60006001600160a01b0383166104745760405162461bcd60e51b815260040161046b90612d13565b60405180910390fd5b600682106104945760405162461bcd60e51b815260040161046b90612d62565b5060008181526007602090815260408083206001600160a01b03861684529091529020545b92915050565b60006001600160e01b03198216636cdb3d1360e11b14806104f057506001600160e01b031982166303a24d0760e21b145b806104ff57506104ff8261136c565b90505b919050565b600d54600090819060ff610100909104166001146105375760405162461bcd60e51b815260040161046b90612e4c565b600683106105575760405162461bcd60e51b815260040161046b90612c8e565b50506000908152600e602052604090206001015460ff81169161010090910463ffffffff1690565b606060405162461bcd60e51b815260040161046b90612e7c565b600c81815481106105a957600080fd5b6000918252602090912001546001600160a01b0316905081565b606060005b60068110156108bd57600b548382600681106105f457634e487b7160e01b600052603260045260246000fd5b6020028101906106049190612f64565b90501461063357505060408051808201909152600a815269282924a1a2a9afa622a760b11b6020820152610502565b600080600085846006811061065857634e487b7160e01b600052603260045260246000fd5b6020028101906106689190612f64565b808060200260200160405190810160405280939291908181526020016000905b828210156106b4576106a560408302860136819003810190612967565b81526020019060010190610688565b5050505050905060005b600b5481101561082f5760008282815181106106ea57634e487b7160e01b600052603260045260246000fd5b60209081029190910101515190506001600160a01b03811661070f5760019450610714565b600193505b60006001600160a01b031683838151811061073f57634e487b7160e01b600052603260045260246000fd5b6020026020010151600001516001600160a01b0316141580156107ae5750600a600084848151811061078157634e487b7160e01b600052603260045260246000fd5b602090810291909101810151516001600160a01b031682528101919091526040016000205460ff16600114155b1561081e576108118383815181106107d657634e487b7160e01b600052603260045260246000fd5b602002602001015160000151604051806040016040528060118152602001701513d2d15397d55394d5541413d4951151607a1b815250611385565b9650505050505050610502565b506108288161309e565b90506106be565b508261086c57604051806040016040528060138152602001721510d7d4149250d157d35554d517d1561254d5606a1b815250945050505050610502565b816108a957604051806040016040528060148152602001731110d197d4149250d157d35554d517d1561254d560621b815250945050505050610502565b505050806108b69061309e565b90506105c8565b5050604080516020810190915260008152919050565b600b5481565b6108e5848484846113b9565b50505050565b60405162461bcd60e51b815260040161046b90612e9e565b61090b6114af565b600d5460ff166001146109305760405162461bcd60e51b815260040161046b90612e1d565b600d54610100900460ff16156109585760405162461bcd60e51b815260040161046b90612d8d565b6000610963826105c3565b90508051600014610988578060405162461bcd60e51b815260040161046b9190612b89565b6040805160c0808201835262ed4e008252630107ac0060208084019190915263013c68008385015263017124006060808501919091526301a5e0006080808601919091526301da9c0060a0808701919091528651948501875260288552603293850193909352603c95840195909552605090830152605a93820193909352606492810192909252906000610a1c8580612f64565b9050905060005b6006811015610bfa57838160068110610a4c57634e487b7160e01b600052603260045260246000fd5b6020020151600e600083815260200190815260200160002060010160016101000a81548163ffffffff021916908363ffffffff160217905550828160068110610aa557634e487b7160e01b600052603260045260246000fd5b602090810291909101516000838152600e90925260408220600101805460ff191660ff9092169190911790555b82811015610be9576000878360068110610afc57634e487b7160e01b600052603260045260246000fd5b602002810190610b0c9190612f64565b83818110610b2a57634e487b7160e01b600052603260045260246000fd5b610b4092602060409092020190810191506124d5565b90506001600160a01b038116610b54575060015b878360068110610b7457634e487b7160e01b600052603260045260246000fd5b602002810190610b849190612f64565b83818110610ba257634e487b7160e01b600052603260045260246000fd5b6000868152600e602090815260408083206001600160a01b039790971683529581529085902091909402929092019092013590555080610be18161309e565b915050610ad2565b50610bf38161309e565b9050610a23565b5050600d805461ff00191661010017905550505050565b600d54610100900460ff1681565b606060405162461bcd60e51b815260040161046b90612e9e565b60006001600160a01b038216610c4e57600191505b506001600160a01b03166000908152600a602052604090205460ff1690565b610c756114af565b6000610c8184846114ee565b90508051600014610ca6578060405162461bcd60e51b815260040161046b9190612b89565b6001600160a01b038316610cb957600192505b6000848152600e602090815260408083206001600160a01b038716808552925291829020805490859055915186907f8747a56dd6a09ab1378db3a842a4724d75642265b104e31a28fa736ce71912b390610d169085908890612f1b565b60405180910390a35050505050565b610d2d6115f0565b6001600160a01b0316866001600160a01b03161480610d535750610d53866104186115f0565b610d6f5760405162461bcd60e51b815260040161046b90612c2f565b610d7d8686868686866115f4565b505050505050565b610d8d6114af565b600d5460ff1615610db05760405162461bcd60e51b815260040161046b90612bbe565b6000610dbb826118c2565b90508051600014610de0578060405162461bcd60e51b815260040161046b9190612b89565b6001600160a01b0382166000818152600a60205260408120805460ff19166001908117909155600c805480830182559083527fdf6966c971051c3d54ec59162606531493a51404a002842f56009d7e5cf4a8c70180546001600160a01b031916909317909255600b8054909190610e58908490612ff7565b9091555050600d805460ff191660011790555050565b610e766114af565b610e806000611aa7565b565b610e8a6114af565b600d5460ff61010090910416600114610eb55760405162461bcd60e51b815260040161046b90612e4c565b60068210610ed55760405162461bcd60e51b815260040161046b90612c8e565b6000828152600e602052604090819020600101805460ff84811660ff19831617909255915191169083907f902e8f79c4772541ba59982b7a572dfdb4a0c003843ec5cfafc727966528895490610f2e9084908690612f50565b60405180910390a2505050565b6060600080610f4a85856114ee565b90508051600014610f6057915060009050610fe1565b6001600160a01b038416610f7357600193505b6000858152600e602090815260408083206001600160a01b038816845290915290205480610fcc57505060408051808201909152600d81526c14149250d157d393d517d4d155609a1b6020820152915060009050610fe1565b60408051602081019091526000815293509150505b9250929050565b6009546001600160a01b03165b90565b61100a6110036115f0565b8383611af9565b5050565b6000600684106110305760405162461bcd60e51b815260040161046b90612c8e565b5060009283526010602090815260408085206001600160a01b039490941685529281528284209184525290205490565b6060600682106110825760405162461bcd60e51b815260040161046b90612c8e565b6001600160a01b0383166000908152600f60209081526040808320858452825291829020805483518184028101840190945280845290918301828280156110e857602002820191906000526020600020905b8154815260200190600101908083116110d4575b5050505050905092915050565b6000600683106111175760405162461bcd60e51b815260040161046b90612c8e565b5060009182526006602090815260408084209284529190529020546001600160a01b031690565b60006001600160a01b0382166111665760405162461bcd60e51b815260040161046b90612d13565b6000805b60068110156112e5576001600160a01b0384166000908152600f602090815260408083208484528252808320805482518185028101850190935280835291929091908301828280156111db57602002820191906000526020600020905b8154815260200190600101908083116111c7575b5050505050905060005b81518110156112d057600082828151811061121057634e487b7160e01b600052603260045260246000fd5b60209081029190910181015160008681526010835260408082206001600160a01b038c1683528452808220838352909352918220549092509061125286610507565b9150611266905063ffffffff821683612ff7565b421115611275575050506112be565b600080611283886000610f3b565b91509150815160001482906112ab5760405162461bcd60e51b815260040161046b9190612b89565b506112b6818a612ff7565b985050505050505b806112c88161309e565b9150506111e5565b505080806112dd9061309e565b91505061116a565b5092915050565b6001600160a01b03918216600090815260086020908152604080832093909416825291909152205460ff1690565b60405162461bcd60e51b815260040161046b90612dee565b61133a6114af565b6001600160a01b0381166113605760405162461bcd60e51b815260040161046b90612be9565b61136981611aa7565b50565b6001600160e01b031981166301ffc9a760e01b14919050565b60608161139184611b9c565b6040516020016113a2929190612aa5565b604051602081830303815290604052905092915050565b4260005b8381101561149b57600081600087600681106113e957634e487b7160e01b600052603260045260246000fd5b01546113f59190612ff7565b60008781526010602090815260408083206001600160a01b038c168085529083528184208585528352818420889055808452600f83528184208b855283528184208054600181018255908552929093209091018390555191925087917f15b3c203a18b1dd0bb11c2d40f29afa4b9b3a5db0a44561d23ebbfa02768d9ad906114809085908890612f1b565b60405180910390a350806114938161309e565b9150506113bd565b506114a885858585611d8b565b5050505050565b6114b76115f0565b6001600160a01b03166114c8610fe8565b6001600160a01b031614610e805760405162461bcd60e51b815260040161046b90612db9565b600d5460609060ff61010090910416600114611537575060408051808201909152601681527514149250d154d7d393d517d25392551250531256915160521b60208201526104b9565b600583111561156a575060408051808201909152600d81526c544f4b454e49445f52414e474560981b60208201526104b9565b6001600160a01b03821661157d57600191505b6001600160a01b0382166000908152600a602052604090205460ff166001146115da576115d382604051806040016040528060118152602001701513d2d15397d55394d5541413d4951151607a1b815250611385565b90506104b9565b5060408051602081019091526000815292915050565b3390565b6001600160a01b03851661161a5760405162461bcd60e51b815260040161046b90612d13565b6006841061163a5760405162461bcd60e51b815260040161046b90612c8e565b60005b828110156118b357600084848381811061166757634e487b7160e01b600052603260045260246000fd5b60008981526010602090815260408083206001600160a01b038f16845282528083209382029590950135808352929052928320549093509190506116aa88610507565b915050896001600160a01b03166116c189856110f5565b6001600160a01b0316146116e75760405162461bcd60e51b815260040161046b90612d39565b6116f763ffffffff821683612ff7565b42116117155760405162461bcd60e51b815260040161046b90612c66565b60008881526010602090815260408083206001600160a01b03808e1680865291845282852088865284528285208590558e168452600f8084528285208d8652845282852091855283528184208c8552909252822090915b8254811015611859578583828154811061179657634e487b7160e01b600052603260045260246000fd5b9060005260206000200154141561184757825483906117b79060019061302e565b815481106117d557634e487b7160e01b600052603260045260246000fd5b906000526020600020015483828154811061180057634e487b7160e01b600052603260045260246000fd5b90600052602060002001819055508280548061182c57634e487b7160e01b600052603160045260246000fd5b60019003818190600052602060002001600090559055611859565b806118518161309e565b91505061176c565b508054600181018255600091825260208083209091018690558a82526010815260408083206001600160a01b038f168452825280832096835295905293842093909355508291506118ab90508161309e565b91505061163d565b50610d7d868686868686611f86565b6001600160a01b0381166000908152600a602052604090205460609060ff166001141561191d57611916826040518060400160405280600b81526020016a414444525f45584953545360a81b815250611385565b9050610502565b60408051600481526024810182526020810180516001600160e01b03166395d89b4160e01b179052905160009081906001600160a01b03861690611962908590612a89565b600060405180830381855afa9150503d806000811461199d576040519150601f19603f3d011682016040523d82523d6000602084013e6119a2565b606091505b50915091508180156119b5575060008151115b15611a5c576000818060200190518101906119d091906128e9565b80516020808301919091206040805180820190915260038152622221a360e91b9201919091529091507f580e4ba285e7e1134de91e671c33b0ab748bee7126d5d2e4d0845e6ad176e7eb8114611a5557611a4987604051806040016040528060078152602001662727aa2fa221a360c91b815250611385565b95505050505050610502565b5050611a8f565b611a8585604051806040016040528060078152602001662727aa2fa221a360c91b815250611385565b9350505050610502565b50506040805160208101909152600081529392505050565b600980546001600160a01b038381166001600160a01b0319831681179093556040519116919082907f8be0079c531659141344cd1fd0a4f28419497f9722a3daafe3b4186f6b6457e090600090a35050565b816001600160a01b0316836001600160a01b03161415611b2b5760405162461bcd60e51b815260040161046b90612cec565b6001600160a01b0383811660008181526008602090815260408083209487168084529490915290819020805460ff1916851515179055517f17307eab39ab6107e8899845ad3d59bd9653f200f220920489ca2b5937696c3190611b8f908590612b7e565b60405180910390a3505050565b60408051602a808252606082810190935283831b916f181899199a1a9b1b9c1cb0b131b232b360811b9160009190602082018180368337019050509050600360fc1b81600081518110611bff57634e487b7160e01b600052603260045260246000fd5b60200101906001600160f81b031916908160001a905350600f60fb1b81600181518110611c3c57634e487b7160e01b600052603260045260246000fd5b60200101906001600160f81b031916908160001a90535060005b6014811015611d82576000848260148110611c8157634e487b7160e01b600052603260045260246000fd5b1a905083600482901c60ff1660108110611cab57634e487b7160e01b600052603260045260246000fd5b1a60f81b83611cbb84600261300f565b611cc6906002612ff7565b81518110611ce457634e487b7160e01b600052603260045260246000fd5b60200101906001600160f81b031916908160001a90535083600f821660108110611d1e57634e487b7160e01b600052603260045260246000fd5b1a60f81b83611d2e84600261300f565b611d39906003612ff7565b81518110611d5757634e487b7160e01b600052603260045260246000fd5b60200101906001600160f81b031916908160001a905350508080611d7a9061309e565b915050611c56565b50949350505050565b60068310611dab5760405162461bcd60e51b815260040161046b90612c8e565b6001600160a01b038416611dd15760405162461bcd60e51b815260040161046b90612d13565b6000611ddb6115f0565b90506000611de88561227e565b90506000611df58561227e565b9050611e0683600089858589610d7d565b60008681526007602090815260408083206001600160a01b038b16845290915281208054879290611e38908490612ff7565b90915550600090505b85811015611ecd57876006600089815260200190815260200160002060008360008b60068110611e8157634e487b7160e01b600052603260045260246000fd5b0154611e8d9190612ff7565b8152602081019190915260400160002080546001600160a01b0319166001600160a01b039290921691909117905580611ec58161309e565b915050611e41565b508460008760068110611ef057634e487b7160e01b600052603260045260246000fd5b016000828254611f009190612ff7565b92505081905550866001600160a01b031660006001600160a01b0316846001600160a01b03167fc3d58168c5ae7397731d063d5bbf3d657854427343f4c083240f7aacaa2d0f628989604051611f57929190612f1b565b60405180910390a4611f6e83600089858589610d7d565b611f7d836000898989896122d7565b50505050505050565b6001600160a01b038516611fac5760405162461bcd60e51b815260040161046b90612d13565b60068410611fcc5760405162461bcd60e51b815260040161046b90612c8e565b60005b828110156120625760008581526006602052604081206001600160a01b0389169186868581811061201057634e487b7160e01b600052603260045260246000fd5b60209081029290920135835250810191909152604001600020546001600160a01b0316146120505760405162461bcd60e51b815260040161046b90612d39565b8061205a8161309e565b915050611fcf565b50600061206d6115f0565b9050600061207a8661227e565b905060006120878561227e565b9050612097838a8a858589610d7d565b60005b8581101561212d5760008881526006602052604081206001600160a01b038c16918989858181106120db57634e487b7160e01b600052603260045260246000fd5b60209081029290920135835250810191909152604001600020546001600160a01b03161461211b5760405162461bcd60e51b815260040161046b90612d39565b806121258161309e565b91505061209a565b5060008781526007602090815260408083206001600160a01b038d16845290915281208054878103909155905b868110156121d15760008981526006602052604081208b918a8a8581811061219257634e487b7160e01b600052603260045260246000fd5b6020908102929092013583525081019190915260400160002080546001600160a01b0319166001600160a01b039290921691909117905560010161215a565b5060008881526007602090815260408083206001600160a01b038d16845290915281208054889290612204908490612ff7565b90915550506040516001600160a01b03808b16918c8216918716907fc3d58168c5ae7397731d063d5bbf3d657854427343f4c083240f7aacaa2d0f629061224e908d908c90612f1b565b60405180910390a4612264848b8b86868a610d7d565b612272848b8b8b8a8a6122d7565b50505050505050505050565b604080516001808252818301909252606091600091906020808301908036833701905050905082816000815181106122c657634e487b7160e01b600052603260045260246000fd5b602090810291909101015292915050565b6001600160a01b0384163b15610d7d5760405163f23a6e6160e01b81526001600160a01b0385169063f23a6e619061231b9089908990889088908890600401612af5565b602060405180830381600087803b15801561233557600080fd5b505af1925050508015612365575060408051601f3d908101601f19168201909252612362918101906128cd565b60015b6123c5576123716130e5565b806308c379a014156123ab57506123866130fc565b8061239157506123ad565b8060405162461bcd60e51b815260040161046b9190612b89565b505b60405162461bcd60e51b815260040161046b90612ec7565b6001600160e01b0319811663f23a6e6160e01b14611f7d5760405162461bcd60e51b815260040161046b90612cb5565b80356001600160a01b038116811461050257600080fd5b600082601f83011261241c578081fd5b8135602061242982612fab565b6040516124368282613071565b838152828101915085830183850287018401881015612453578586fd5b855b8581101561247157813584529284019290840190600101612455565b5090979650505050505050565b600082601f83011261248e578081fd5b813561249981612fcf565b6040516124a68282613071565b8281528560208487010111156124ba578384fd5b82602086016020830137918201602001929092529392505050565b6000602082840312156124e6578081fd5b6124ef826123f5565b9392505050565b60008060408385031215612508578081fd5b612511836123f5565b915061251f602084016123f5565b90509250929050565b600080600080600060a0868803121561253f578081fd5b612548866123f5565b9450612556602087016123f5565b9350604086013567ffffffffffffffff80821115612572578283fd5b61257e89838a0161240c565b94506060880135915080821115612593578283fd5b61259f89838a0161240c565b935060808801359150808211156125b4578283fd5b506125c18882890161247e565b9150509295509295909350565b60008060008060008060a087890312156125e6578081fd5b6125ef876123f5565b95506125fd602088016123f5565b945060408701359350606087013567ffffffffffffffff80821115612620578283fd5b818901915089601f830112612633578283fd5b813581811115612641578384fd5b8a60208083028501011115612654578384fd5b602083019550809450506080890135915080821115612671578283fd5b5061267e89828a0161247e565b9150509295509295509295565b600080600080600060a086880312156126a2578081fd5b6126ab866123f5565b94506126b9602087016123f5565b93506040860135925060608601359150608086013567ffffffffffffffff8111156126e2578182fd5b6125c18882890161247e565b60008060408385031215612700578182fd5b612709836123f5565b91506020830135801515811461271d578182fd5b809150509250929050565b6000806040838503121561273a578182fd5b612743836123f5565b946020939093013593505050565b60008060008060808587031215612766578182fd5b61276f856123f5565b93506020850135925060408501359150606085013567ffffffffffffffff811115612798578182fd5b6127a48782880161247e565b91505092959194509250565b600080604083850312156127c2578182fd5b823567ffffffffffffffff808211156127d9578384fd5b818501915085601f8301126127ec578384fd5b813560206127f982612fab565b6040516128068282613071565b8381528281019150858301838502870184018b1015612823578889fd5b8896505b8487101561284c57612838816123f5565b835260019690960195918301918301612827565b5096505086013592505080821115612862578283fd5b5061286f8582860161240c565b9150509250929050565b60006020828403121561288a578081fd5b813567ffffffffffffffff8111156128a0578182fd5b820160c081018410156124ef578182fd5b6000602082840312156128c2578081fd5b81356124ef8161318e565b6000602082840312156128de578081fd5b81516124ef8161318e565b6000602082840312156128fa578081fd5b815167ffffffffffffffff811115612910578182fd5b8201601f81018413612920578182fd5b805161292b81612fcf565b6040516129388282613071565b82815286602084860101111561294c578485fd5b61295d836020830160208701613045565b9695505050505050565b600060408284031215612978578081fd5b604051612986604082613071565b61298f836123f5565b8152602083013560208201528091505092915050565b6000602082840312156129b6578081fd5b5035919050565b600080604083850312156129cf578182fd5b8235915061251f602084016123f5565b6000806000606084860312156129f3578081fd5b83359250612a03602085016123f5565b9150604084013590509250925092565b60008060408385031215612a25578182fd5b50508035926020909101359150565b60008060408385031215612a46578182fd5b82359150602083013560ff8116811461271d578182fd5b60008151808452612a75816020860160208601613045565b601f01601f19169290920160200192915050565b60008251612a9b818460208701613045565b9190910192915050565b60008351612ab7818460208801613045565b600160fd1b9083019081528351612ad5816001840160208801613045565b01600101949350505050565b6001600160a01b0391909116815260200190565b6001600160a01b03868116825285166020820152604081018490526060810183905260a060808201819052600090612b2f90830184612a5d565b979650505050505050565b6020808252825182820181905260009190848201906040850190845b81811015612b7257835183529284019291840191600101612b56565b50909695505050505050565b901515815260200190565b6000602082526124ef6020830184612a5d565b600060408252612baf6040830185612a5d565b90508260208301529392505050565b6020808252601190820152701513d2d15397d253925512505312569151607a1b604082015260600190565b60208082526026908201527f4f776e61626c653a206e6577206f776e657220697320746865207a65726f206160408201526564647265737360d01b606082015260800190565b60208082526019908201527f43414c4c45525f4e4f545f4f574e45525f415050524f56454400000000000000604082015260600190565b6020808252600e908201526d14d1539117d59053125117d3919560921b604082015260600190565b6020808252600d908201526c544f4b454e49445f52414e474560981b604082015260600190565b6020808252601f908201527f4552433131353552454345495645525f52454a45435445445f544f4b454e5300604082015260600190565b6020808252600d908201526c20a8282927ab20a62fa9a2a62360991b604082015260600190565b6020808252600c908201526b5a45524f5f4144445245535360a01b604082015260600190565b6020808252600f908201526e1513d2d15397d393d517d3d5d39151608a1b604082015260600190565b6020808252601190820152704552525f544f4b454e49445f52414e474560781b604082015260600190565b60208082526012908201527114149250d154d7d25392551250531256915160721b604082015260600190565b6020808252818101527f4f776e61626c653a2063616c6c6572206973206e6f7420746865206f776e6572604082015260600190565b6020808252601590820152745553455f45536166655472616e7366657246726f6d60581b604082015260600190565b6020808252601590820152741513d2d15397d393d517d253925512505312569151605a1b604082015260600190565b60208082526016908201527514149250d154d7d393d517d25392551250531256915160521b604082015260600190565b6020808252600890820152675553455f4575726960c01b604082015260600190565b6020808252600f908201526e1393d517d253541311535153951151608a1b604082015260600190565b6020808252602b908201527f7472616e736665725f746f5f6e6f6e2d4552433131353552656365697665725f60408201526a34b6b83632b6b2b73a32b960a91b606082015260800190565b90815260200190565b918252602082015260400190565b60ff91909116815260200190565b60ff92909216825263ffffffff16602082015260400190565b60ff92831681529116602082015260400190565b6000808335601e19843603018112612f7a578283fd5b83018035915067ffffffffffffffff821115612f94578283fd5b6020019150604081023603821315610fe157600080fd5b600067ffffffffffffffff821115612fc557612fc56130cf565b5060209081020190565b600067ffffffffffffffff821115612fe957612fe96130cf565b50601f01601f191660200190565b6000821982111561300a5761300a6130b9565b500190565b6000816000190483118215151615613029576130296130b9565b500290565b600082821015613040576130406130b9565b500390565b60005b83811015613060578181015183820152602001613048565b838111156108e55750506000910152565b601f8201601f1916810167ffffffffffffffff81118282101715613097576130976130cf565b6040525050565b60006000198214156130b2576130b26130b9565b5060010190565b634e487b7160e01b600052601160045260246000fd5b634e487b7160e01b600052604160045260246000fd5b600060033d1115610ff557600481823e5160e01c90565b600060443d101561310c57610ff5565b6040516003193d81016004833e81513d67ffffffffffffffff816024840111818411171561313e575050505050610ff5565b828501915081518181111561315857505050505050610ff5565b843d870101602082850101111561317457505050505050610ff5565b61318360208286010187613071565b509094505050505090565b6001600160e01b03198116811461136957600080fdfea2646970667358221220ed9523ddbeddbac5d7e64e0bc5fe8da60aacfd297bc8049558879bdcfdb09e8a64736f6c63430008010033",
  "linkReferences": {},
  "deployedLinkReferences": {},
  "immutableReferences": {},
  "inputSourceName": "project/contracts/test/test_TCF_ERC1155MintTime.sol",
  "devdoc": {
    "kind": "dev",
    "methods": {
      "ESafeTransferFrom(address,address,uint256,uint256[],bytes)": {
        "details": "安全转移无效的token，可以删除，因为后面会在TCF_NFT中实现",
        "params": {
          "indexes": "无效token在mintTimes数组中的位置"
        }
      },
      "addSupportedToken(address)": {
        "details": "添加支持的代币地址列表（原生代币不需要传入地址）。构造函数中已经添加了原生代币TC。 如果项目只支持TC，则不需要调用这个函数。",
        "params": {
          "_tokenAddress": "代币合约地址"
        }
      },
      "balanceOf(address,uint256)": {
        "details": "See {IERC1155-balanceOf}. Requirements: - `account` cannot be the zero address."
      },
      "balanceOfBatch(address[],uint256[])": {
        "details": "See {IERC1155-balanceOfBatch}.没有实现 Requirements: - `accounts` and `ids` must have the same length."
      },
      "changeNFTPrice(uint256,address,uint256)": {
        "details": "修改单个NFT价格",
        "params": {
          "amount": "新价格",
          "tokenAddress": "支付代币地址；原生代币传入address(0)",
          "tokenID": "NFT类型/ID（0-5）"
        }
      },
      "checkInitPricesParams((address,uint256)[][6])": {
        "details": "初始化价格参数检查：长度、代币是否在支持列表内等。",
        "params": {
          "prices": "6种NFT的价格参数（每种NFT包含 supportedTokenAmount 个价格项）"
        },
        "returns": {
          "_0": "错误码/错误信息；成功时为空字符串"
        }
      },
      "getNFTPrice(uint256,address)": {
        "details": "获取某个NFT在某种支付方式下的价格。",
        "params": {
          "_tokenAddress": "支付代币地址；原生代币传入address(0)",
          "tokenID": "NFT类型/ID（0-5）"
        },
        "returns": {
          "_0": "errorMessage 错误码/错误信息；成功时为空字符串",
          "_1": "price 价格；当errorMessage非空时为0"
        }
      },
      "initPrice((address,uint256)[][6])": {
        "details": "初始化价格.TC代币的地址设为0",
        "params": {
          "prices": "6种NFT,每中NFT的三类价格"
        }
      },
      "isApprovedForAll(address,address)": {
        "details": "See {IERC1155-isApprovedForAll}."
      },
      "owner()": {
        "details": "Returns the address of the current owner."
      },
      "renounceOwnership()": {
        "details": "Leaves the contract without owner. It will not be possible to call `onlyOwner` functions. Can only be called by the current owner. NOTE: Renouncing ownership will leave the contract without an owner, thereby disabling any functionality that is only available to the owner."
      },
      "safeBatchTransferFrom(address,address,uint256[],uint256[],bytes)": {
        "details": "See {IERC1155-safeBatchTransferFrom}."
      },
      "safeTransferFrom(address,address,uint256,uint256,bytes)": {
        "details": "See {IERC1155-safeTransferFrom}.没有实现"
      },
      "setApprovalForAll(address,bool)": {
        "details": "See {IERC1155-setApprovalForAll}."
      },
      "supportsInterface(bytes4)": {
        "details": "See {IERC165-supportsInterface}."
      },
      "transferOwnership(address)": {
        "details": "Transfers ownership of the contract to a new account (`newOwner`). Can only be called by the current owner."
      }
    },
    "version": 1
  },
  "evm": {
    "gasEstimates": {
      "creation": {
        "codeDepositCost": "2552400",
        "executionCost": "107743",
        "totalCost": "2660143"
      },
      "external": {
        "ESafeTransferFrom(address,address,uint256,uint256[],bytes)": "infinite",
        "NFTPrice_initialized()": "1102",
        "addSupportedToken(address)": "infinite",
        "balanceOf(address,uint256)": "1481",
        "balanceOfBatch(address[],uint256[])": "infinite",
        "changeDynamicRatio(uint256,uint8)": "24872",
        "changeNFTPrice(uint256,address,uint256)": "infinite",
        "checkInitPricesParams((address,uint256)[][6])": "infinite",
        "getNFTEquityDetails(uint256)": "2218",
        "getNFTPrice(uint256,address)": "infinite",
        "getNftMintTime(uint256,address,uint256)": "1549",
        "getTotalNFTWorth(address)": "infinite",
        "getUserTokenIds(address,uint256)": "infinite",
        "initPrice((address,uint256)[][6])": "infinite",
        "isApprovedForAll(address,address)": "infinite",
        "isSupported(address)": "1425",
        "owner()": "1182",
        "ownerOf(uint256,uint256)": "1447",
        "renounceOwnership()": "infinite",
        "safeBatchTransferFrom(address,address,uint256[],uint256[],bytes)": "infinite",
        "safeTransferFrom(address,address,uint256,uint256,bytes)": "infinite",
        "setApprovalForAll(address,bool)": "23394",
        "supportedTokenAmount()": "1140",
        "supportsInterface(bytes4)": "649",
        "testMint(address,uint256,uint256,bytes)": "infinite",
        "testSafeTransferFrom(address,address,uint256,uint256[],bytes)": "infinite",
        "tokenAddress_array(uint256)": "2106",
        "transferOwnership(address)": "23837",
        "uri(uint256)": "405"
      }
    }
  },
  "storageLayout": {
    "storage": [
      {
        "astId": 514,
        "contract": "project/contracts/test/test_TCF_ERC1155MintTime.sol:test_TCF_ERC1155MintTime",
        "label": "_nextTokenId",
        "offset": 0,
        "slot": "0",
        "type": "t_array(t_uint256)6_storage"
      },
      {
        "astId": 520,
        "contract": "project/contracts/test/test_TCF_ERC1155MintTime.sol:test_TCF_ERC1155MintTime",
        "label": "_owners",
        "offset": 0,
        "slot": "6",
        "type": "t_mapping(t_uint256,t_mapping(t_uint256,t_address))"
      },
      {
        "astId": 526,
        "contract": "project/contracts/test/test_TCF_ERC1155MintTime.sol:test_TCF_ERC1155MintTime",
        "label": "_balances",
        "offset": 0,
        "slot": "7",
        "type": "t_mapping(t_uint256,t_mapping(t_address,t_uint256))"
      },
      {
        "astId": 532,
        "contract": "project/contracts/test/test_TCF_ERC1155MintTime.sol:test_TCF_ERC1155MintTime",
        "label": "_operatorApprovals",
        "offset": 0,
        "slot": "8",
        "type": "t_mapping(t_address,t_mapping(t_address,t_bool))"
      },
      {
        "astId": 3621,
        "contract": "project/contracts/test/test_TCF_ERC1155MintTime.sol:test_TCF_ERC1155MintTime",
        "label": "_owner",
        "offset": 0,
        "slot": "9",
        "type": "t_address"
      },
      {
        "astId": 1938,
        "contract": "project/contracts/test/test_TCF_ERC1155MintTime.sol:test_TCF_ERC1155MintTime",
        "label": "supportTokenType",
        "offset": 0,
        "slot": "10",
        "type": "t_mapping(t_address,t_uint8)"
      },
      {
        "astId": 1940,
        "contract": "project/contracts/test/test_TCF_ERC1155MintTime.sol:test_TCF_ERC1155MintTime",
        "label": "supportedTokenAmount",
        "offset": 0,
        "slot": "11",
        "type": "t_uint256"
      },
      {
        "astId": 1943,
        "contract": "project/contracts/test/test_TCF_ERC1155MintTime.sol:test_TCF_ERC1155MintTime",
        "label": "tokenAddress_array",
        "offset": 0,
        "slot": "12",
        "type": "t_array(t_address)dyn_storage"
      },
      {
        "astId": 1945,
        "contract": "project/contracts/test/test_TCF_ERC1155MintTime.sol:test_TCF_ERC1155MintTime",
        "label": "initedTokenAddress",
        "offset": 0,
        "slot": "13",
        "type": "t_uint8"
      },
      {
        "astId": 1947,
        "contract": "project/contracts/test/test_TCF_ERC1155MintTime.sol:test_TCF_ERC1155MintTime",
        "label": "NFTPrice_initialized",
        "offset": 1,
        "slot": "13",
        "type": "t_uint8"
      },
      {
        "astId": 1966,
        "contract": "project/contracts/test/test_TCF_ERC1155MintTime.sol:test_TCF_ERC1155MintTime",
        "label": "NFTS",
        "offset": 0,
        "slot": "14",
        "type": "t_mapping(t_uint256,t_struct(equities_store)1961_storage)"
      },
      {
        "astId": 1385,
        "contract": "project/contracts/test/test_TCF_ERC1155MintTime.sol:test_TCF_ERC1155MintTime",
        "label": "_ownedTokenIds",
        "offset": 0,
        "slot": "15",
        "type": "t_mapping(t_address,t_mapping(t_uint256,t_array(t_uint256)dyn_storage))"
      },
      {
        "astId": 1393,
        "contract": "project/contracts/test/test_TCF_ERC1155MintTime.sol:test_TCF_ERC1155MintTime",
        "label": "_mintTimes",
        "offset": 0,
        "slot": "16",
        "type": "t_mapping(t_uint256,t_mapping(t_address,t_mapping(t_uint256,t_uint256)))"
      }
    ],
    "types": {
      "t_address": {
        "encoding": "inplace",
        "label": "address",
        "numberOfBytes": "20"
      },
      "t_array(t_address)dyn_storage": {
        "base": "t_address",
        "encoding": "dynamic_array",
        "label": "address[]",
        "numberOfBytes": "32"
      },
      "t_array(t_uint256)6_storage": {
        "base": "t_uint256",
        "encoding": "inplace",
        "label": "uint256[6]",
        "numberOfBytes": "192"
      },
      "t_array(t_uint256)dyn_storage": {
        "base": "t_uint256",
        "encoding": "dynamic_array",
        "label": "uint256[]",
        "numberOfBytes": "32"
      },
      "t_bool": {
        "encoding": "inplace",
        "label": "bool",
        "numberOfBytes": "1"
      },
      "t_mapping(t_address,t_bool)": {
        "encoding": "mapping",
        "key": "t_address",
        "label": "mapping(address => bool)",
        "numberOfBytes": "32",
        "value": "t_bool"
      },
      "t_mapping(t_address,t_mapping(t_address,t_bool))": {
        "encoding": "mapping",
        "key": "t_address",
        "label": "mapping(address => mapping(address => bool))",
        "numberOfBytes": "32",
        "value": "t_mapping(t_address,t_bool)"
      },
      "t_mapping(t_address,t_mapping(t_uint256,t_array(t_uint256)dyn_storage))": {
        "encoding": "mapping",
        "key": "t_address",
        "label": "mapping(address => mapping(uint256 => uint256[]))",
        "numberOfBytes": "32",
        "value": "t_mapping(t_uint256,t_array(t_uint256)dyn_storage)"
      },
      "t_mapping(t_address,t_mapping(t_uint256,t_uint256))": {
        "encoding": "mapping",
        "key": "t_address",
        "label": "mapping(address => mapping(uint256 => uint256))",
        "numberOfBytes": "32",
        "value": "t_mapping(t_uint256,t_uint256)"
      },
      "t_mapping(t_address,t_uint256)": {
        "encoding": "mapping",
        "key": "t_address",
        "label": "mapping(address => uint256)",
        "numberOfBytes": "32",
        "value": "t_uint256"
      },
      "t_mapping(t_address,t_uint8)": {
        "encoding": "mapping",
        "key": "t_address",
        "label": "mapping(address => uint8)",
        "numberOfBytes": "32",
        "value": "t_uint8"
      },
      "t_mapping(t_uint256,t_address)": {
        "encoding": "mapping",
        "key": "t_uint256",
        "label": "mapping(uint256 => address)",
        "numberOfBytes": "32",
        "value": "t_address"
      },
      "t_mapping(t_uint256,t_array(t_uint256)dyn_storage)": {
        "encoding": "mapping",
        "key": "t_uint256",
        "label": "mapping(uint256 => uint256[])",
        "numberOfBytes": "32",
        "value": "t_array(t_uint256)dyn_storage"
      },
      "t_mapping(t_uint256,t_mapping(t_address,t_mapping(t_uint256,t_uint256)))": {
        "encoding": "mapping",
        "key": "t_uint256",
        "label": "mapping(uint256 => mapping(address => mapping(uint256 => uint256)))",
        "numberOfBytes": "32",
        "value": "t_mapping(t_address,t_mapping(t_uint256,t_uint256))"
      },
      "t_mapping(t_uint256,t_mapping(t_address,t_uint256))": {
        "encoding": "mapping",
        "key": "t_uint256",
        "label": "mapping(uint256 => mapping(address => uint256))",
        "numberOfBytes": "32",
        "value": "t_mapping(t_address,t_uint256)"
      },
      "t_mapping(t_uint256,t_mapping(t_uint256,t_address))": {
        "encoding": "mapping",
        "key": "t_uint256",
        "label": "mapping(uint256 => mapping(uint256 => address))",
        "numberOfBytes": "32",
        "value": "t_mapping(t_uint256,t_address)"
      },
      "t_mapping(t_uint256,t_struct(equities_store)1961_storage)": {
        "encoding": "mapping",
        "key": "t_uint256",
        "label": "mapping(uint256 => struct TCF_NFTPrice.equities_store)",
        "numberOfBytes": "32",
        "value": "t_struct(equities_store)1961_storage"
      },
      "t_mapping(t_uint256,t_uint256)": {
        "encoding": "mapping",
        "key": "t_uint256",
        "label": "mapping(uint256 => uint256)",
        "numberOfBytes": "32",
        "value": "t_uint256"
      },
      "t_struct(equities_store)1961_storage": {
        "encoding": "inplace",
        "label": "struct TCF_NFTPrice.equities_store",
        "members": [
          {
            "astId": 1956,
            "contract": "project/contracts/test/test_TCF_ERC1155MintTime.sol:test_TCF_ERC1155MintTime",
            "label": "prices",
            "offset": 0,
            "slot": "0",
            "type": "t_mapping(t_address,t_uint256)"
          },
          {
            "astId": 1958,
            "contract": "project/contracts/test/test_TCF_ERC1155MintTime.sol:test_TCF_ERC1155MintTime",
            "label": "ratio",
            "offset": 0,
            "slot": "1",
            "type": "t_uint8"
          },
          {
            "astId": 1960,
            "contract": "project/contracts/test/test_TCF_ERC1155MintTime.sol:test_TCF_ERC1155MintTime",
            "label": "indate",
            "offset": 1,
            "slot": "1",
            "type": "t_uint32"
          }
        ],
        "numberOfBytes": "64"
      },
      "t_uint256": {
        "encoding": "inplace",
        "label": "uint256",
        "numberOfBytes": "32"
      },
      "t_uint32": {
        "encoding": "inplace",
        "label": "uint32",
        "numberOfBytes": "4"
      },
      "t_uint8": {
        "encoding": "inplace",
        "label": "uint8",
        "numberOfBytes": "1"
      }
    }
  },
  "userdoc": {
    "kind": "user",
    "methods": {
      "initPrice((address,uint256)[][6])": {
        "notice": "只能调用一次，调用前必须确保支持的代币地址已经初始化，不需要检查token地址是否初始化，因为在构造函数中，初始化了TC"
      }
    },
    "version": 1
  },
  "argsData": "0x",
  "transaction": {
    "hash": "0xd63cbf51566bd92f8519007c8e3e65cb0ce743e66c5b9cd03dac306c489c1e59",
    "nonce": "0x9",
    "origin": "0xf39fd6e51aad88f6f4ce6ab8827279cfffb92266"
  }
}