{
  "address": "0xdc64a140aa3e981100a9beca4e685f962f0cf6c9",
  "abi": [
    {
      "inputs": [
        {
          "internalType": "uint256",
          "name": "",
          "type": "uint256"
        }
      ],
      "name": "NFTDeadline",
      "outputs": [
        {
          "internalType": "uint256",
          "name": "",
          "type": "uint256"
        }
      ],
      "stateMutability": "view",
      "type": "function"
    },
    {
      "inputs": [
        {
          "internalType": "uint256",
          "name": "",
          "type": "uint256"
        }
      ],
      "name": "addresses",
      "outputs": [
        {
          "internalType": "address",
          "name": "",
          "type": "address"
        }
      ],
      "stateMutability": "view",
      "type": "function"
    },
    {
      "inputs": [],
      "name": "getAddress",
      "outputs": [],
      "stateMutability": "nonpayable",
      "type": "function"
    },
    {
      "inputs": [],
      "name": "getIERC20MetadataInterfaceId",
      "outputs": [
        {
          "internalType": "bytes4",
          "name": "",
          "type": "bytes4"
        }
      ],
      "stateMutability": "pure",
      "type": "function"
    },
    {
      "inputs": [],
      "name": "getValue",
      "outputs": [],
      "stateMutability": "nonpayable",
      "type": "function"
    },
    {
      "inputs": [
        {
          "internalType": "address[]",
          "name": "tokenAddresses",
          "type": "address[]"
        }
      ],
      "name": "init",
      "outputs": [],
      "stateMutability": "nonpayable",
      "type": "function"
    },
    {
      "inputs": [
        {
          "internalType": "uint256",
          "name": "_key",
          "type": "uint256"
        },
        {
          "internalType": "uint256",
          "name": "_value",
          "type": "uint256"
        },
        {
          "internalType": "bool",
          "name": "_deleteData",
          "type": "bool"
        }
      ],
      "name": "pushData",
      "outputs": [],
      "stateMutability": "nonpayable",
      "type": "function"
    },
    {
      "inputs": [
        {
          "internalType": "address",
          "name": "",
          "type": "address"
        }
      ],
      "name": "supportTokenAddress",
      "outputs": [
        {
          "internalType": "uint8",
          "name": "",
          "type": "uint8"
        }
      ],
      "stateMutability": "view",
      "type": "function"
    },
    {
      "inputs": [
        {
          "internalType": "address",
          "name": "tokenAddress",
          "type": "address"
        }
      ],
      "name": "testInternalCallContractFunction",
      "outputs": [
        {
          "internalType": "string",
          "name": "",
          "type": "string"
        }
      ],
      "stateMutability": "view",
      "type": "function"
    },
    {
      "inputs": [],
      "name": "testRevert",
      "outputs": [],
      "stateMutability": "nonpayable",
      "type": "function"
    },
    {
      "inputs": [
        {
          "internalType": "address",
          "name": "tokenAddress",
          "type": "address"
        }
      ],
      "name": "useCall",
      "outputs": [
        {
          "internalType": "string",
          "name": "",
          "type": "string"
        }
      ],
      "stateMutability": "view",
      "type": "function"
    }
  ],
  "contractName": "testGasUsed",
  "sourceName": "contracts/test.sol",
  "bytecode": "0x608060405234801561001057600080fd5b50610870806100206000396000f3fe608060405234801561001057600080fd5b50600436106100a95760003560e01c8063a26388bb11610071578063a26388bb146100ec578063a92317b214610111578063c6044c4614610131578063edf26d9b14610144578063f8c5120014610164578063ff51c6ba14610177576100a9565b8063123fa2a8146100ae5780631dc44d74146100cc57806320965255146100ec57806338cc4831146100f6578063581fe037146100fe575b600080fd5b6100b6610197565b6040516100c39190610753565b60405180910390f35b6100df6100da366004610589565b6101a2565b6040516100c39190610768565b6100f461028a565b005b6100f46102ab565b6100f461010c3660046106e7565b6103e4565b61012461011f366004610589565b610409565b6040516100c391906107c3565b6100f461013f3660046105b7565b61041e565b6101576101523660046106cf565b61042c565b6040516100c3919061073f565b6100df610172366004610589565b610456565b61018a6101853660046106cf565b6104dc565b6040516100c391906107ba565b63a219a02560e01b90565b60408051600481526024810182526020810180516001600160e01b03166395d89b4160e01b17905290516060919060009081906001600160a01b038616906101eb908590610723565b600060405180830381855afa9150503d8060008114610226576040519150601f19603f3d011682016040523d82523d6000602084013e61022b565b606091505b509150915081801561023e575060008151115b1561026157808060200190518101906102579190610626565b9350505050610285565b6040518060400160405280600581526020016466616c736560d81b81525093505050505b919050565b60405162461bcd60e51b81526004016102a29061079b565b60405180910390fd5b600480546001818101835560008390527f8a35acfbc15ff81a39ae7d344fd709f28e8600b4aa8c65c6b64bfe7fe36bd19b91820180546001600160a01b0319908116738a791620dd6260079bf849dc5567adc3f2fdc318179091558354808301855583018054821673dd2fd4581271e230360230f9337d5c0430bf44c01790558354918201845591018054909116738626f6940e2eb28930efb4cef49b2d1f2c9c119917905580548061036e57634e487b7160e01b600052603160045260246000fd5b600082815260208120820160001990810180546001600160a01b031990811690915592019092556004805460018101825592527f8a35acfbc15ff81a39ae7d344fd709f28e8600b4aa8c65c6b64bfe7fe36bd19b909101805490911673bda5747bfd65f08deb54cb465eb87d40e51b197e179055565b6000838152602081905260409020829055801561040457610404836104ee565b505050565b60036020526000908152604090205460ff1681565b61042882826104ff565b5050565b6004818154811061043c57600080fd5b6000918252602090912001546001600160a01b0316905081565b606060008290506000816001600160a01b03166395d89b416040518163ffffffff1660e01b815260040160006040518083038186803b15801561049857600080fd5b505afa1580156104ac573d6000803e3d6000fd5b505050506040513d6000823e601f3d908101601f191682016040526104d49190810190610626565b949350505050565b60006020819052908152604090205481565b600090815260208190526040812055565b8060005b818110156105835760016003600086868581811061053157634e487b7160e01b600052603260045260246000fd5b90506020020160208101906105469190610589565b6001600160a01b031681526020810191909152604001600020805460ff191660ff929092169190911790558061057b816107fd565b915050610503565b50505050565b60006020828403121561059a578081fd5b81356001600160a01b03811681146105b0578182fd5b9392505050565b600080602083850312156105c9578081fd5b823567ffffffffffffffff808211156105e0578283fd5b818501915085601f8301126105f3578283fd5b813581811115610601578384fd5b8660208083028501011115610614578384fd5b60209290920196919550909350505050565b600060208284031215610637578081fd5b815167ffffffffffffffff8082111561064e578283fd5b818401915084601f830112610661578283fd5b81518181111561067357610673610824565b604051601f8201601f19908116603f0116810190838211818310171561069b5761069b610824565b816040528281528760208487010111156106b3578586fd5b6106c48360208301602088016107d1565b979650505050505050565b6000602082840312156106e0578081fd5b5035919050565b6000806000606084860312156106fb578081fd5b833592506020840135915060408401358015158114610718578182fd5b809150509250925092565b600082516107358184602087016107d1565b9190910192915050565b6001600160a01b0391909116815260200190565b6001600160e01b031991909116815260200190565b60006020825282518060208401526107878160408501602087016107d1565b601f01601f19169190910160400192915050565b6020808252600590820152646e6968616f60d81b604082015260600190565b90815260200190565b60ff91909116815260200190565b60005b838110156107ec5781810151838201526020016107d4565b838111156105835750506000910152565b600060001982141561081d57634e487b7160e01b81526011600452602481fd5b5060010190565b634e487b7160e01b600052604160045260246000fdfea2646970667358221220aaf4e92baf3276b77180ba72a438043de71bfea7ca532b693871cb51dd29188064736f6c63430008010033",
  "linkReferences": {},
  "deployedLinkReferences": {},
  "immutableReferences": {},
  "inputSourceName": "project/contracts/test.sol",
  "devdoc": {
    "kind": "dev",
    "methods": {},
    "version": 1
  },
  "evm": {
    "gasEstimates": {
      "creation": {
        "codeDepositCost": "432000",
        "executionCost": "468",
        "totalCost": "432468"
      },
      "external": {
        "NFTDeadline(uint256)": "1284",
        "addresses(uint256)": "2104",
        "getAddress()": "208579",
        "getIERC20MetadataInterfaceId()": "262",
        "getValue()": "324",
        "init(address[])": "infinite",
        "pushData(uint256,uint256,bool)": "25597",
        "supportTokenAddress(address)": "1257",
        "testInternalCallContractFunction(address)": "infinite",
        "testRevert()": "279",
        "useCall(address)": "infinite"
      },
      "internal": {
        "deleteData(uint256)": "5087",
        "initTokenAddress(address[] calldata)": "infinite"
      }
    }
  },
  "storageLayout": {
    "storage": [
      {
        "astId": 112,
        "contract": "project/contracts/test.sol:testGasUsed",
        "label": "NFTDeadline",
        "offset": 0,
        "slot": "0",
        "type": "t_mapping(t_uint256,t_uint256)"
      },
      {
        "astId": 114,
        "contract": "project/contracts/test.sol:testGasUsed",
        "label": "number",
        "offset": 0,
        "slot": "1",
        "type": "t_uint256"
      },
      {
        "astId": 116,
        "contract": "project/contracts/test.sol:testGasUsed",
        "label": "tokenAddress",
        "offset": 0,
        "slot": "2",
        "type": "t_address"
      },
      {
        "astId": 120,
        "contract": "project/contracts/test.sol:testGasUsed",
        "label": "supportTokenAddress",
        "offset": 0,
        "slot": "3",
        "type": "t_mapping(t_address,t_uint8)"
      },
      {
        "astId": 123,
        "contract": "project/contracts/test.sol:testGasUsed",
        "label": "addresses",
        "offset": 0,
        "slot": "4",
        "type": "t_array(t_address)dyn_storage"
      }
    ],
    "types": {
      "t_address": {
        "encoding": "inplace",
        "label": "address",
        "numberOfBytes": "20"
      },
      "t_array(t_address)dyn_storage": {
        "base": "t_address",
        "encoding": "dynamic_array",
        "label": "address[]",
        "numberOfBytes": "32"
      },
      "t_mapping(t_address,t_uint8)": {
        "encoding": "mapping",
        "key": "t_address",
        "label": "mapping(address => uint8)",
        "numberOfBytes": "32",
        "value": "t_uint8"
      },
      "t_mapping(t_uint256,t_uint256)": {
        "encoding": "mapping",
        "key": "t_uint256",
        "label": "mapping(uint256 => uint256)",
        "numberOfBytes": "32",
        "value": "t_uint256"
      },
      "t_uint256": {
        "encoding": "inplace",
        "label": "uint256",
        "numberOfBytes": "32"
      },
      "t_uint8": {
        "encoding": "inplace",
        "label": "uint8",
        "numberOfBytes": "1"
      }
    }
  },
  "userdoc": {
    "kind": "user",
    "methods": {},
    "version": 1
  },
  "argsData": "0x",
  "transaction": {
    "hash": "0x58c9225712d9ecd0c4a97a7e59f20c917a95e997a91a0e79bf07fa4cac24c148",
    "nonce": "0x4",
    "origin": "0xf39fd6e51aad88f6f4ce6ab8827279cfffb92266"
  }
}