{
  "address": "0x0165878a594ca255338adfa4d48449f69242eb8f",
  "abi": [
    {
      "inputs": [
        {
          "internalType": "address",
          "name": "tokenAddress",
          "type": "address"
        }
      ],
      "name": "testInternalCallContractFunction",
      "outputs": [
        {
          "internalType": "string",
          "name": "",
          "type": "string"
        }
      ],
      "stateMutability": "view",
      "type": "function"
    }
  ],
  "contractName": "testCallContractFunction",
  "sourceName": "contracts/test.sol",
  "bytecode": "0x608060405234801561001057600080fd5b506103cf806100206000396000f3fe608060405234801561001057600080fd5b506004361061002b5760003560e01c8063f8c5120014610030575b600080fd5b61004a60048036038101906100459190610175565b610060565b6040516100579190610218565b60405180910390f35b6060600082905060008173ffffffffffffffffffffffffffffffffffffffff166395d89b416040518163ffffffff1660e01b815260040160006040518083038186803b1580156100af57600080fd5b505afa1580156100c3573d6000803e3d6000fd5b505050506040513d6000823e3d601f19601f820116820180604052508101906100ec919061019e565b90508092505050919050565b600061010b6101068461025f565b61023a565b90508281526020810184848401111561012357600080fd5b61012e8482856102de565b509392505050565b60008135905061014581610382565b92915050565b600082601f83011261015c57600080fd5b815161016c8482602086016100f8565b91505092915050565b60006020828403121561018757600080fd5b600061019584828501610136565b91505092915050565b6000602082840312156101b057600080fd5b600082015167ffffffffffffffff8111156101ca57600080fd5b6101d68482850161014b565b91505092915050565b60006101ea82610290565b6101f4818561029b565b93506102048185602086016102de565b61020d81610371565b840191505092915050565b6000602082019050818103600083015261023281846101df565b905092915050565b6000610244610255565b90506102508282610311565b919050565b6000604051905090565b600067ffffffffffffffff82111561027a57610279610342565b5b61028382610371565b9050602081019050919050565b600081519050919050565b600082825260208201905092915050565b60006102b7826102be565b9050919050565b600073ffffffffffffffffffffffffffffffffffffffff82169050919050565b60005b838110156102fc5780820151818401526020810190506102e1565b8381111561030b576000848401525b50505050565b61031a82610371565b810181811067ffffffffffffffff8211171561033957610338610342565b5b80604052505050565b7f4e487b7100000000000000000000000000000000000000000000000000000000600052604160045260246000fd5b6000601f19601f8301169050919050565b61038b816102ac565b811461039657600080fd5b5056fea26469706673582212206cca8126556165865ce92bfb45334ae8e003a2c59afac6ddc984b9ffa1888a2364736f6c63430008010033",
  "linkReferences": {},
  "deployedLinkReferences": {},
  "immutableReferences": {},
  "inputSourceName": "project/contracts/test.sol",
  "devdoc": {
    "kind": "dev",
    "methods": {},
    "version": 1
  },
  "evm": {
    "gasEstimates": {
      "creation": {
        "codeDepositCost": "195000",
        "executionCost": "238",
        "totalCost": "195238"
      },
      "external": {
        "testInternalCallContractFunction(address)": "infinite"
      }
    }
  },
  "storageLayout": {
    "storage": [],
    "types": null
  },
  "userdoc": {
    "kind": "user",
    "methods": {},
    "version": 1
  },
  "argsData": "0x",
  "transaction": {
    "hash": "0x4614cfe381db7bc49a99bb36439ee111b8edd5b9d4432bfc4662a3f95f90c786",
    "nonce": "0x6",
    "origin": "0xf39fd6e51aad88f6f4ce6ab8827279cfffb92266"
  }
}