{
  "address": "0x5fc8d32690cc91d4c39d9d3abcbd16989f875707",
  "abi": [
    {
      "inputs": [
        {
          "internalType": "address[]",
          "name": "tokenAddresses",
          "type": "address[]"
        }
      ],
      "name": "init",
      "outputs": [],
      "stateMutability": "nonpayable",
      "type": "function"
    },
    {
      "inputs": [
        {
          "internalType": "address",
          "name": "",
          "type": "address"
        }
      ],
      "name": "supportTokenAddress",
      "outputs": [
        {
          "internalType": "uint8",
          "name": "",
          "type": "uint8"
        }
      ],
      "stateMutability": "view",
      "type": "function"
    }
  ],
  "contractName": "testMapping",
  "sourceName": "contracts/test.sol",
  "bytecode": "0x608060405234801561001057600080fd5b5061038b806100206000396000f3fe608060405234801561001057600080fd5b50600436106100365760003560e01c8063a92317b21461003b578063c6044c461461006b575b600080fd5b610055600480360381019061005091906101e5565b610087565b6040516100629190610262565b60405180910390f35b6100856004803603810190610080919061020e565b6100a7565b005b60006020528060005260406000206000915054906101000a900460ff1681565b6100b182826100b5565b5050565b600082829050905060005b81811015610180576001600080868685818110610106577f4e487b7100000000000000000000000000000000000000000000000000000000600052603260045260246000fd5b905060200201602081019061011b91906101e5565b73ffffffffffffffffffffffffffffffffffffffff1673ffffffffffffffffffffffffffffffffffffffff16815260200190815260200160002060006101000a81548160ff021916908360ff1602179055508080610178906102c6565b9150506100c0565b50505050565b6000813590506101958161033e565b92915050565b60008083601f8401126101ad57600080fd5b8235905067ffffffffffffffff8111156101c657600080fd5b6020830191508360208202830111156101de57600080fd5b9250929050565b6000602082840312156101f757600080fd5b600061020584828501610186565b91505092915050565b6000806020838503121561022157600080fd5b600083013567ffffffffffffffff81111561023b57600080fd5b6102478582860161019b565b92509250509250929050565b61025c816102b9565b82525050565b60006020820190506102776000830184610253565b92915050565b60006102888261028f565b9050919050565b600073ffffffffffffffffffffffffffffffffffffffff82169050919050565b6000819050919050565b600060ff82169050919050565b60006102d1826102af565b91507fffffffffffffffffffffffffffffffffffffffffffffffffffffffffffffffff8214156103045761030361030f565b5b600182019050919050565b7f4e487b7100000000000000000000000000000000000000000000000000000000600052601160045260246000fd5b6103478161027d565b811461035257600080fd5b5056fea2646970667358221220836cb689edea9fc0b856bd3189296fddf527a5104a6e56ebe3b1bbd9182c583564736f6c63430008010033",
  "linkReferences": {},
  "deployedLinkReferences": {},
  "immutableReferences": {},
  "inputSourceName": "project/contracts/test.sol",
  "devdoc": {
    "kind": "dev",
    "methods": {},
    "version": 1
  },
  "evm": {
    "gasEstimates": {
      "creation": {
        "codeDepositCost": "181400",
        "executionCost": "226",
        "totalCost": "181626"
      },
      "external": {
        "init(address[])": "infinite",
        "supportTokenAddress(address)": "1523"
      },
      "internal": {
        "initTokenAddress(address[] calldata)": "infinite"
      }
    }
  },
  "storageLayout": {
    "storage": [
      {
        "astId": 4837,
        "contract": "project/contracts/test.sol:testMapping",
        "label": "supportTokenAddress",
        "offset": 0,
        "slot": "0",
        "type": "t_mapping(t_address,t_uint8)"
      }
    ],
    "types": {
      "t_address": {
        "encoding": "inplace",
        "label": "address",
        "numberOfBytes": "20"
      },
      "t_mapping(t_address,t_uint8)": {
        "encoding": "mapping",
        "key": "t_address",
        "label": "mapping(address => uint8)",
        "numberOfBytes": "32",
        "value": "t_uint8"
      },
      "t_uint8": {
        "encoding": "inplace",
        "label": "uint8",
        "numberOfBytes": "1"
      }
    }
  },
  "userdoc": {
    "kind": "user",
    "methods": {},
    "version": 1
  },
  "argsData": "0x",
  "transaction": {
    "hash": "0x9c8f626bccabfb7f0051f2bf408a2a8e3ae66a13c380e9fb389f1733fd4737c9",
    "nonce": "0x5",
    "origin": "0xf39fd6e51aad88f6f4ce6ab8827279cfffb92266"
  }
}