{
  "address": "0x8a791620dd6260079bf849dc5567adc3f2fdc318",
  "abi": [
    {
      "anonymous": false,
      "inputs": [
        {
          "indexed": true,
          "internalType": "address",
          "name": "account",
          "type": "address"
        },
        {
          "indexed": true,
          "internalType": "address",
          "name": "operator",
          "type": "address"
        },
        {
          "indexed": false,
          "internalType": "bool",
          "name": "approved",
          "type": "bool"
        }
      ],
      "name": "ApprovalForAll",
      "type": "event"
    },
    {
      "anonymous": false,
      "inputs": [
        {
          "indexed": true,
          "internalType": "uint256",
          "name": "tokenID",
          "type": "uint256"
        },
        {
          "indexed": false,
          "internalType": "uint8",
          "name": "previousRatio",
          "type": "uint8"
        },
        {
          "indexed": false,
          "internalType": "uint8",
          "name": "newRatio",
          "type": "uint8"
        }
      ],
      "name": "DynamicRatioChanged",
      "type": "event"
    },
    {
      "anonymous": false,
      "inputs": [
        {
          "indexed": true,
          "internalType": "uint256",
          "name": "tokenID",
          "type": "uint256"
        },
        {
          "indexed": true,
          "internalType": "address",
          "name": "paymentToken",
          "type": "address"
        },
        {
          "indexed": false,
          "internalType": "uint256",
          "name": "oldPrice",
          "type": "uint256"
        },
        {
          "indexed": false,
          "internalType": "uint256",
          "name": "newPrice",
          "type": "uint256"
        }
      ],
      "name": "NFTPriceChanged",
      "type": "event"
    },
    {
      "anonymous": false,
      "inputs": [
        {
          "indexed": true,
          "internalType": "address",
          "name": "previousOwner",
          "type": "address"
        },
        {
          "indexed": true,
          "internalType": "address",
          "name": "newOwner",
          "type": "address"
        }
      ],
      "name": "OwnershipTransferred",
      "type": "event"
    },
    {
      "anonymous": false,
      "inputs": [
        {
          "indexed": true,
          "internalType": "address",
          "name": "to",
          "type": "address"
        },
        {
          "indexed": true,
          "internalType": "uint256",
          "name": "tokenId",
          "type": "uint256"
        },
        {
          "indexed": false,
          "internalType": "uint256",
          "name": "editionId",
          "type": "uint256"
        },
        {
          "indexed": false,
          "internalType": "uint64",
          "name": "mintedAt",
          "type": "uint64"
        }
      ],
      "name": "TokenEditionMinted",
      "type": "event"
    },
    {
      "anonymous": false,
      "inputs": [
        {
          "indexed": true,
          "internalType": "address",
          "name": "operator",
          "type": "address"
        },
        {
          "indexed": true,
          "internalType": "address",
          "name": "from",
          "type": "address"
        },
        {
          "indexed": true,
          "internalType": "address",
          "name": "to",
          "type": "address"
        },
        {
          "indexed": false,
          "internalType": "uint256[]",
          "name": "ids",
          "type": "uint256[]"
        },
        {
          "indexed": false,
          "internalType": "uint256[]",
          "name": "values",
          "type": "uint256[]"
        }
      ],
      "name": "TransferBatch",
      "type": "event"
    },
    {
      "anonymous": false,
      "inputs": [
        {
          "indexed": true,
          "internalType": "address",
          "name": "operator",
          "type": "address"
        },
        {
          "indexed": true,
          "internalType": "address",
          "name": "from",
          "type": "address"
        },
        {
          "indexed": true,
          "internalType": "address",
          "name": "to",
          "type": "address"
        },
        {
          "indexed": false,
          "internalType": "uint256",
          "name": "id",
          "type": "uint256"
        },
        {
          "indexed": false,
          "internalType": "uint256",
          "name": "value",
          "type": "uint256"
        }
      ],
      "name": "TransferSingle",
      "type": "event"
    },
    {
      "anonymous": false,
      "inputs": [
        {
          "indexed": false,
          "internalType": "string",
          "name": "value",
          "type": "string"
        },
        {
          "indexed": true,
          "internalType": "uint256",
          "name": "id",
          "type": "uint256"
        }
      ],
      "name": "URI",
      "type": "event"
    },
    {
      "inputs": [
        {
          "internalType": "address",
          "name": "from",
          "type": "address"
        },
        {
          "internalType": "address",
          "name": "to",
          "type": "address"
        },
        {
          "internalType": "uint256",
          "name": "id",
          "type": "uint256"
        },
        {
          "internalType": "uint256[]",
          "name": "indexes",
          "type": "uint256[]"
        },
        {
          "internalType": "bytes",
          "name": "data",
          "type": "bytes"
        }
      ],
      "name": "ESafeTransferFrom",
      "outputs": [],
      "stateMutability": "nonpayable",
      "type": "function"
    },
    {
      "inputs": [],
      "name": "NFTPrice_initialized",
      "outputs": [
        {
          "internalType": "uint8",
          "name": "",
          "type": "uint8"
        }
      ],
      "stateMutability": "view",
      "type": "function"
    },
    {
      "inputs": [
        {
          "internalType": "address",
          "name": "_tokenAddress",
          "type": "address"
        }
      ],
      "name": "addSupportedToken",
      "outputs": [],
      "stateMutability": "nonpayable",
      "type": "function"
    },
    {
      "inputs": [
        {
          "internalType": "address",
          "name": "account",
          "type": "address"
        },
        {
          "internalType": "uint256",
          "name": "id",
          "type": "uint256"
        }
      ],
      "name": "balanceOf",
      "outputs": [
        {
          "internalType": "uint256",
          "name": "",
          "type": "uint256"
        }
      ],
      "stateMutability": "view",
      "type": "function"
    },
    {
      "inputs": [
        {
          "internalType": "address[]",
          "name": "",
          "type": "address[]"
        },
        {
          "internalType": "uint256[]",
          "name": "",
          "type": "uint256[]"
        }
      ],
      "name": "balanceOfBatch",
      "outputs": [
        {
          "internalType": "uint256[]",
          "name": "",
          "type": "uint256[]"
        }
      ],
      "stateMutability": "view",
      "type": "function"
    },
    {
      "inputs": [
        {
          "internalType": "uint256",
          "name": "tokenID",
          "type": "uint256"
        },
        {
          "internalType": "uint8",
          "name": "newRatio",
          "type": "uint8"
        }
      ],
      "name": "changeDynamicRatio",
      "outputs": [],
      "stateMutability": "nonpayable",
      "type": "function"
    },
    {
      "inputs": [
        {
          "internalType": "uint256",
          "name": "tokenID",
          "type": "uint256"
        },
        {
          "internalType": "address",
          "name": "tokenAddress",
          "type": "address"
        },
        {
          "internalType": "uint256",
          "name": "amount",
          "type": "uint256"
        }
      ],
      "name": "changeNFTPrice",
      "outputs": [],
      "stateMutability": "nonpayable",
      "type": "function"
    },
    {
      "inputs": [
        {
          "components": [
            {
              "internalType": "address",
              "name": "tokenAddress",
              "type": "address"
            },
            {
              "internalType": "uint256",
              "name": "amount",
              "type": "uint256"
            }
          ],
          "internalType": "struct TCF_NFTPrice.priceTypeAndAomut[][6]",
          "name": "prices",
          "type": "tuple[][6]"
        }
      ],
      "name": "checkInitPricesParams",
      "outputs": [
        {
          "internalType": "string",
          "name": "",
          "type": "string"
        }
      ],
      "stateMutability": "view",
      "type": "function"
    },
    {
      "inputs": [
        {
          "internalType": "uint256",
          "name": "tokenID",
          "type": "uint256"
        }
      ],
      "name": "getNFTEquityDetails",
      "outputs": [
        {
          "internalType": "uint8",
          "name": "ratio",
          "type": "uint8"
        },
        {
          "internalType": "uint32",
          "name": "indate",
          "type": "uint32"
        }
      ],
      "stateMutability": "view",
      "type": "function"
    },
    {
      "inputs": [
        {
          "internalType": "uint256",
          "name": "tokenID",
          "type": "uint256"
        },
        {
          "internalType": "address",
          "name": "_tokenAddress",
          "type": "address"
        }
      ],
      "name": "getNFTPrice",
      "outputs": [
        {
          "internalType": "string",
          "name": "",
          "type": "string"
        },
        {
          "internalType": "uint256",
          "name": "",
          "type": "uint256"
        }
      ],
      "stateMutability": "view",
      "type": "function"
    },
    {
      "inputs": [
        {
          "internalType": "uint256",
          "name": "tokenId",
          "type": "uint256"
        },
        {
          "internalType": "uint256",
          "name": "editionId",
          "type": "uint256"
        }
      ],
      "name": "getNftMintTime",
      "outputs": [
        {
          "internalType": "uint64",
          "name": "",
          "type": "uint64"
        }
      ],
      "stateMutability": "view",
      "type": "function"
    },
    {
      "inputs": [
        {
          "internalType": "address",
          "name": "owner",
          "type": "address"
        }
      ],
      "name": "getTotalNFTWorth",
      "outputs": [
        {
          "internalType": "uint256",
          "name": "",
          "type": "uint256"
        }
      ],
      "stateMutability": "view",
      "type": "function"
    },
    {
      "inputs": [
        {
          "internalType": "address",
          "name": "account",
          "type": "address"
        },
        {
          "internalType": "uint256",
          "name": "tokenId",
          "type": "uint256"
        }
      ],
      "name": "getUserTokenIds",
      "outputs": [
        {
          "internalType": "uint256[]",
          "name": "",
          "type": "uint256[]"
        }
      ],
      "stateMutability": "view",
      "type": "function"
    },
    {
      "inputs": [
        {
          "components": [
            {
              "internalType": "address",
              "name": "tokenAddress",
              "type": "address"
            },
            {
              "internalType": "uint256",
              "name": "amount",
              "type": "uint256"
            }
          ],
          "internalType": "struct TCF_NFTPrice.priceTypeAndAomut[][6]",
          "name": "prices",
          "type": "tuple[][6]"
        }
      ],
      "name": "initPrice",
      "outputs": [],
      "stateMutability": "nonpayable",
      "type": "function"
    },
    {
      "inputs": [
        {
          "internalType": "address",
          "name": "account",
          "type": "address"
        },
        {
          "internalType": "address",
          "name": "operator",
          "type": "address"
        }
      ],
      "name": "isApprovedForAll",
      "outputs": [
        {
          "internalType": "bool",
          "name": "",
          "type": "bool"
        }
      ],
      "stateMutability": "view",
      "type": "function"
    },
    {
      "inputs": [
        {
          "internalType": "address",
          "name": "token",
          "type": "address"
        }
      ],
      "name": "isSupported",
      "outputs": [
        {
          "internalType": "uint8",
          "name": "",
          "type": "uint8"
        }
      ],
      "stateMutability": "view",
      "type": "function"
    },
    {
      "inputs": [],
      "name": "owner",
      "outputs": [
        {
          "internalType": "address",
          "name": "",
          "type": "address"
        }
      ],
      "stateMutability": "view",
      "type": "function"
    },
    {
      "inputs": [
        {
          "internalType": "uint256",
          "name": "tokenId",
          "type": "uint256"
        },
        {
          "internalType": "uint256",
          "name": "editionId",
          "type": "uint256"
        }
      ],
      "name": "ownerOf",
      "outputs": [
        {
          "internalType": "address",
          "name": "",
          "type": "address"
        }
      ],
      "stateMutability": "view",
      "type": "function"
    },
    {
      "inputs": [],
      "name": "renounceOwnership",
      "outputs": [],
      "stateMutability": "nonpayable",
      "type": "function"
    },
    {
      "inputs": [
        {
          "internalType": "address",
          "name": "",
          "type": "address"
        },
        {
          "internalType": "address",
          "name": "",
          "type": "address"
        },
        {
          "internalType": "uint256[]",
          "name": "",
          "type": "uint256[]"
        },
        {
          "internalType": "uint256[]",
          "name": "",
          "type": "uint256[]"
        },
        {
          "internalType": "bytes",
          "name": "",
          "type": "bytes"
        }
      ],
      "name": "safeBatchTransferFrom",
      "outputs": [],
      "stateMutability": "nonpayable",
      "type": "function"
    },
    {
      "inputs": [
        {
          "internalType": "address",
          "name": "",
          "type": "address"
        },
        {
          "internalType": "address",
          "name": "",
          "type": "address"
        },
        {
          "internalType": "uint256",
          "name": "",
          "type": "uint256"
        },
        {
          "internalType": "uint256",
          "name": "",
          "type": "uint256"
        },
        {
          "internalType": "bytes",
          "name": "",
          "type": "bytes"
        }
      ],
      "name": "safeTransferFrom",
      "outputs": [],
      "stateMutability": "nonpayable",
      "type": "function"
    },
    {
      "inputs": [
        {
          "internalType": "address",
          "name": "operator",
          "type": "address"
        },
        {
          "internalType": "bool",
          "name": "approved",
          "type": "bool"
        }
      ],
      "name": "setApprovalForAll",
      "outputs": [],
      "stateMutability": "nonpayable",
      "type": "function"
    },
    {
      "inputs": [],
      "name": "supportedTokenAmount",
      "outputs": [
        {
          "internalType": "uint256",
          "name": "",
          "type": "uint256"
        }
      ],
      "stateMutability": "view",
      "type": "function"
    },
    {
      "inputs": [
        {
          "internalType": "bytes4",
          "name": "interfaceId",
          "type": "bytes4"
        }
      ],
      "name": "supportsInterface",
      "outputs": [
        {
          "internalType": "bool",
          "name": "",
          "type": "bool"
        }
      ],
      "stateMutability": "view",
      "type": "function"
    },
    {
      "inputs": [
        {
          "internalType": "address",
          "name": "to",
          "type": "address"
        },
        {
          "internalType": "uint256",
          "name": "id",
          "type": "uint256"
        },
        {
          "internalType": "uint256",
          "name": "amount",
          "type": "uint256"
        },
        {
          "internalType": "bytes",
          "name": "data",
          "type": "bytes"
        }
      ],
      "name": "testMint",
      "outputs": [],
      "stateMutability": "nonpayable",
      "type": "function"
    },
    {
      "inputs": [
        {
          "internalType": "address",
          "name": "from",
          "type": "address"
        },
        {
          "internalType": "address",
          "name": "to",
          "type": "address"
        },
        {
          "internalType": "uint256",
          "name": "id",
          "type": "uint256"
        },
        {
          "internalType": "uint256[]",
          "name": "indexes",
          "type": "uint256[]"
        },
        {
          "internalType": "bytes",
          "name": "data",
          "type": "bytes"
        }
      ],
      "name": "testSafeTransferFrom",
      "outputs": [],
      "stateMutability": "nonpayable",
      "type": "function"
    },
    {
      "inputs": [
        {
          "internalType": "uint256",
          "name": "",
          "type": "uint256"
        }
      ],
      "name": "tokenAddress_array",
      "outputs": [
        {
          "internalType": "address",
          "name": "",
          "type": "address"
        }
      ],
      "stateMutability": "view",
      "type": "function"
    },
    {
      "inputs": [
        {
          "internalType": "address",
          "name": "newOwner",
          "type": "address"
        }
      ],
      "name": "transferOwnership",
      "outputs": [],
      "stateMutability": "nonpayable",
      "type": "function"
    },
    {
      "inputs": [
        {
          "internalType": "uint256",
          "name": "",
          "type": "uint256"
        }
      ],
      "name": "uri",
      "outputs": [
        {
          "internalType": "string",
          "name": "",
          "type": "string"
        }
      ],
      "stateMutability": "view",
      "type": "function"
    }
  ],
  "contractName": "test_TCF_ERC1155MintTime",
  "sourceName": "contracts/test/test_TCF_ERC1155MintTime.sol",
  "bytecode": "0x60806040523480156200001157600080fd5b506200002662000020620000a4565b620000a8565b600a6020527fbbc70db1b6c7afd11e79c0fb0051300458f1a3acb8ee9789d9b6b26c61ad9bc7805460ff19166001908117909155600c805480830182556000919091527fdf6966c971051c3d54ec59162606531493a51404a002842f56009d7e5cf4a8c70180546001600160a01b03191682179055600b55620000fa565b3390565b600980546001600160a01b038381166001600160a01b0319831681179093556040519116919082907f8be0079c531659141344cd1fd0a4f28419497f9722a3daafe3b4186f6b6457e090600090a35050565b613285806200010a6000396000f3fe608060405234801561001057600080fd5b50600436106101ce5760003560e01c8063598c27bc11610104578063a0b77afa116100a2578063e5030adc11610071578063e5030adc14610404578063e985e9c514610417578063f242432a1461042a578063f2fde38b1461043d576101ce565b8063a0b77afa146103ab578063a22cb465146103cb578063b788920e146103de578063d9dad80d146103f1576101ce565b8063784da437116100de578063784da4371461035c57806383023c881461036f57806386ff9113146103825780638da5cb5b146103a3576101ce565b8063598c27bc1461032e5780636d69fcaf14610341578063715018a614610354576101ce565b8063292241f2116101715780634c8cb6721161014b5780634c8cb672146102d35780634e1273f4146102e85780634f129c5314610308578063558263131461031b576101ce565b8063292241f2146102985780632eb2c2d6146102ad5780633a4d2d3a146102c0576101ce565b80630e89341c116101ad5780630e89341c1461023d57806319d62e571461025d5780631f3fd6181461027d5780632336128314610290576101ce565b8062fdd58e146101d357806301ffc9a7146101fc57806306198b981461021c575b600080fd5b6101e66101e136600461275d565b610450565b6040516101f39190612f6c565b60405180910390f35b61020f61020a3660046128e3565b6104cc565b6040516101f39190612baf565b61022f61022a3660046129d6565b610514565b6040516101f3929190612fbc565b61025061024b3660046129d6565b61058c565b6040516101f39190612bba565b61027061026b3660046129d6565b6105a6565b6040516101f39190612b12565b61025061028b3660046128ac565b6105d0565b6101e66108e0565b6102ab6102a6366004612786565b6108e6565b005b6102ab6102bb366004612560565b6108f8565b6102ab6102ce3660046128ac565b610910565b6102db610c10565b6040516101f39190612fae565b6102fb6102f63660046127e4565b610c1e565b6040516101f39190612b6b565b6102db61031636600461250d565b610c38565b6102ab610329366004612a10565b610c6c565b6102ab61033c366004612605565b610d24565b6102ab61034f36600461250d565b610d84565b6102ab610e6d565b6102ab61036a366004612605565b610d6e565b6102ab61037d366004612a65565b610e81565b6103956103903660046129ee565b610f3a565b6040516101f3929190612bcd565b610270610fe7565b6103be6103b9366004612a44565b610ff7565b6040516101f39190612f9a565b6102ab6103d9366004612723565b611040565b6102fb6103ec36600461275d565b611056565b6102706103ff366004612a44565b6110eb565b6101e661041236600461250d565b611134565b61020f61042536600461252e565b6112e3565b6102ab6104383660046126c1565b611311565b6102ab61044b36600461250d565b611329565b60006001600160a01b0383166104815760405162461bcd60e51b815260040161047890612d6d565b60405180910390fd5b600682106104a15760405162461bcd60e51b815260040161047890612dbc565b5060008181526007602090815260408083206001600160a01b03861684529091529020545b92915050565b60006001600160e01b03198216636cdb3d1360e11b14806104fd57506001600160e01b031982166303a24d0760e21b145b8061050c575061050c82611363565b90505b919050565b600d54600090819060ff610100909104166001146105445760405162461bcd60e51b815260040161047890612ea6565b600683106105645760405162461bcd60e51b815260040161047890612ce8565b50506000908152600e602052604090206001015460ff81169161010090910463ffffffff1690565b606060405162461bcd60e51b815260040161047890612ed6565b600c81815481106105b657600080fd5b6000918252602090912001546001600160a01b0316905081565b606060005b60068110156108ca57600b5483826006811061060157634e487b7160e01b600052603260045260246000fd5b6020028101906106119190612fe9565b90501461064057505060408051808201909152600a815269282924a1a2a9afa622a760b11b602082015261050f565b600080600085846006811061066557634e487b7160e01b600052603260045260246000fd5b6020028101906106759190612fe9565b808060200260200160405190810160405280939291908181526020016000905b828210156106c1576106b260408302860136819003810190612998565b81526020019060010190610695565b5050505050905060005b600b5481101561083c5760008282815181106106f757634e487b7160e01b600052603260045260246000fd5b60209081029190910101515190506001600160a01b03811661071c5760019450610721565b600193505b60006001600160a01b031683838151811061074c57634e487b7160e01b600052603260045260246000fd5b6020026020010151600001516001600160a01b0316141580156107bb5750600a600084848151811061078e57634e487b7160e01b600052603260045260246000fd5b602090810291909101810151516001600160a01b031682528101919091526040016000205460ff16600114155b1561082b5761081e8383815181106107e357634e487b7160e01b600052603260045260246000fd5b602002602001015160000151604051806040016040528060118152602001701513d2d15397d55394d5541413d4951151607a1b81525061137c565b965050505050505061050f565b506108358161314a565b90506106cb565b508261087957604051806040016040528060138152602001721510d7d4149250d157d35554d517d1561254d5606a1b81525094505050505061050f565b816108b657604051806040016040528060148152602001731110d197d4149250d157d35554d517d1561254d560621b81525094505050505061050f565b505050806108c39061314a565b90506105d5565b5050604080516020810190915260008152919050565b600b5481565b6108f2848484846113b0565b50505050565b60405162461bcd60e51b815260040161047890612ef8565b6109186114b4565b600d5460ff1660011461093d5760405162461bcd60e51b815260040161047890612e77565b600d54610100900460ff16156109655760405162461bcd60e51b815260040161047890612de7565b6000610970826105d0565b90508051600014610995578060405162461bcd60e51b81526004016104789190612bba565b6040805160c0808201835260018252600260208084019190915260038385015263017124006060808501919091526005608080860191909152600660a0808701919091528651948501875260288552603293850193909352603c95840195909552605090830152605a93820193909352606492810192909252906000610a1b8580612fe9565b9050905060005b6006811015610bf957838160068110610a4b57634e487b7160e01b600052603260045260246000fd5b6020020151600e600083815260200190815260200160002060010160016101000a81548163ffffffff021916908363ffffffff160217905550828160068110610aa457634e487b7160e01b600052603260045260246000fd5b602090810291909101516000838152600e90925260408220600101805460ff191660ff9092169190911790555b82811015610be8576000878360068110610afb57634e487b7160e01b600052603260045260246000fd5b602002810190610b0b9190612fe9565b83818110610b2957634e487b7160e01b600052603260045260246000fd5b610b3f926020604090920201908101915061250d565b90506001600160a01b038116610b53575060015b878360068110610b7357634e487b7160e01b600052603260045260246000fd5b602002810190610b839190612fe9565b83818110610ba157634e487b7160e01b600052603260045260246000fd5b6000868152600e602090815260408083206001600160a01b039790971683529581529085902091909402929092019092013590555080610be08161314a565b915050610ad1565b50610bf28161314a565b9050610a22565b5050600d805461ff00191661010017905550505050565b600d54610100900460ff1681565b606060405162461bcd60e51b815260040161047890612ef8565b60006001600160a01b038216610c4d57600191505b506001600160a01b03166000908152600a602052604090205460ff1690565b610c746114b4565b6000610c8084846114f3565b90508051600014610ca5578060405162461bcd60e51b81526004016104789190612bba565b6001600160a01b038316610cb857600192505b6000848152600e602090815260408083206001600160a01b038716808552925291829020805490859055915186907f8747a56dd6a09ab1378db3a842a4724d75642265b104e31a28fa736ce71912b390610d159085908890612f75565b60405180910390a35050505050565b610d2c6115f5565b6001600160a01b0316866001600160a01b03161480610d525750610d52866104256115f5565b610d6e5760405162461bcd60e51b815260040161047890612c89565b610d7c8686868686866115f9565b505050505050565b610d8c6114b4565b600d5460ff1615610daf5760405162461bcd60e51b815260040161047890612c18565b6000610dba826118fa565b90508051600014610ddf578060405162461bcd60e51b81526004016104789190612bba565b6001600160a01b0382166000818152600a60205260408120805460ff19166001908117909155600c805480830182559083527fdf6966c971051c3d54ec59162606531493a51404a002842f56009d7e5cf4a8c70180546001600160a01b031916909317909255600b8054909190610e57908490613079565b9091555050600d805460ff191660011790555050565b610e756114b4565b610e7f6000611adf565b565b610e896114b4565b600d5460ff61010090910416600114610eb45760405162461bcd60e51b815260040161047890612ea6565b60068210610ed45760405162461bcd60e51b815260040161047890612ce8565b6000828152600e602052604090819020600101805460ff84811660ff19831617909255915191169083907f902e8f79c4772541ba59982b7a572dfdb4a0c003843ec5cfafc727966528895490610f2d9084908690612fd5565b60405180910390a2505050565b6060600080610f4985856114f3565b90508051600014610f5f57915060009050610fe0565b6001600160a01b038416610f7257600193505b6000858152600e602090815260408083206001600160a01b038816845290915290205480610fcb57505060408051808201909152600d81526c14149250d157d393d517d4d155609a1b6020820152915060009050610fe0565b60408051602081019091526000815293509150505b9250929050565b6009546001600160a01b03165b90565b6000600683106110195760405162461bcd60e51b815260040161047890612ce8565b5060009182526010602090815260408084209284529190529020546001600160401b031690565b61105261104b6115f5565b8383611b31565b5050565b6060600682106110785760405162461bcd60e51b815260040161047890612ce8565b6001600160a01b0383166000908152600f60209081526040808320858452825291829020805483518184028101840190945280845290918301828280156110de57602002820191906000526020600020905b8154815260200190600101908083116110ca575b5050505050905092915050565b60006006831061110d5760405162461bcd60e51b815260040161047890612ce8565b5060009182526006602090815260408084209284529190529020546001600160a01b031690565b60006001600160a01b03821661115c5760405162461bcd60e51b815260040161047890612d6d565b6000805b60068110156112dc576001600160a01b0384166000908152600f602090815260408083208484528252808320805482518185028101850190935280835291929091908301828280156111d157602002820191906000526020600020905b8154815260200190600101908083116111bd575b5050505050905060005b81518110156112c757600082828151811061120657634e487b7160e01b600052603260045260246000fd5b6020908102919091018101516000868152601083526040808220838352909352918220549092506001600160401b03169061124086610514565b9150611254905063ffffffff821683613091565b6001600160401b031642111561126c575050506112b5565b60008061127a886000610f3a565b91509150815160001482906112a25760405162461bcd60e51b81526004016104789190612bba565b506112ad818a613079565b985050505050505b806112bf8161314a565b9150506111db565b505080806112d49061314a565b915050611160565b5092915050565b6001600160a01b03918216600090815260086020908152604080832093909416825291909152205460ff1690565b60405162461bcd60e51b815260040161047890612e48565b6113316114b4565b6001600160a01b0381166113575760405162461bcd60e51b815260040161047890612c43565b61136081611adf565b50565b6001600160e01b031981166301ffc9a760e01b14919050565b60608161138884611bd4565b604051602001611399929190612ad6565b604051602081830303815290604052905092915050565b4260005b838110156114a057600081600087600681106113e057634e487b7160e01b600052603260045260246000fd5b01546113ec9190613079565b60008781526010602090815260408083208484528252808320805467ffffffffffffffff19166001600160401b0389161790556001600160a01b038b16808452600f83528184208b855283528184208054600181018255908552929093209091018390555191925087917fa0fe61afe1ffd5e83d09a64b67ad6e6511a42b3876aea9ba71288026e8a29b69906114859085908890612f83565b60405180910390a350806114988161314a565b9150506113b4565b506114ad85858585611dc3565b5050505050565b6114bc6115f5565b6001600160a01b03166114cd610fe7565b6001600160a01b031614610e7f5760405162461bcd60e51b815260040161047890612e13565b600d5460609060ff6101009091041660011461153c575060408051808201909152601681527514149250d154d7d393d517d25392551250531256915160521b60208201526104c6565b600583111561156f575060408051808201909152600d81526c544f4b454e49445f52414e474560981b60208201526104c6565b6001600160a01b03821661158257600191505b6001600160a01b0382166000908152600a602052604090205460ff166001146115df576115d882604051806040016040528060118152602001701513d2d15397d55394d5541413d4951151607a1b81525061137c565b90506104c6565b5060408051602081019091526000815292915050565b3390565b6001600160a01b03851661161f5760405162461bcd60e51b815260040161047890612d6d565b6006841061163f5760405162461bcd60e51b815260040161047890612ce8565b60005b828110156118eb57600084848381811061166c57634e487b7160e01b600052603260045260246000fd5b60008981526010602090815260408083209382029590950135808352929052928320549093506001600160401b03169190506116a788610514565b915050896001600160a01b03166116be89856110eb565b6001600160a01b0316146116e45760405162461bcd60e51b815260040161047890612d93565b6001600160a01b03808b166000908152600f602081815260408084208d85528252808420948e1684529181528183208c845290528120909190825b8254811015611775578683828154811061174957634e487b7160e01b600052603260045260246000fd5b906000526020600020015414156117635760019350611775565b8061176d8161314a565b91505061171f565b50826117935760405162461bcd60e51b815260040161047890612bef565b6117a363ffffffff851686613091565b6001600160401b031642116117ca5760405162461bcd60e51b815260040161047890612cc0565b60005b82548110156118ba57868382815481106117f757634e487b7160e01b600052603260045260246000fd5b906000526020600020015414156118a85782548390611818906001906130db565b8154811061183657634e487b7160e01b600052603260045260246000fd5b906000526020600020015483828154811061186157634e487b7160e01b600052603260045260246000fd5b90600052602060002001819055508280548061188d57634e487b7160e01b600052603160045260246000fd5b600190038181906000526020600020016000905590556118ba565b806118b28161314a565b9150506117cd565b508054600181018255600091825260209091200194909455508392506118e3915082905061314a565b915050611642565b50610d7c868686868686611fbe565b6001600160a01b0381166000908152600a602052604090205460609060ff16600114156119555761194e826040518060400160405280600b81526020016a414444525f45584953545360a81b81525061137c565b905061050f565b60408051600481526024810182526020810180516001600160e01b03166395d89b4160e01b179052905160009081906001600160a01b0386169061199a908590612aba565b600060405180830381855afa9150503d80600081146119d5576040519150601f19603f3d011682016040523d82523d6000602084013e6119da565b606091505b50915091508180156119ed575060008151115b15611a9457600081806020019051810190611a08919061291b565b80516020808301919091206040805180820190915260038152622221a360e91b9201919091529091507f580e4ba285e7e1134de91e671c33b0ab748bee7126d5d2e4d0845e6ad176e7eb8114611a8d57611a8187604051806040016040528060078152602001662727aa2fa221a360c91b81525061137c565b9550505050505061050f565b5050611ac7565b611abd85604051806040016040528060078152602001662727aa2fa221a360c91b81525061137c565b935050505061050f565b50506040805160208101909152600081529392505050565b600980546001600160a01b038381166001600160a01b0319831681179093556040519116919082907f8be0079c531659141344cd1fd0a4f28419497f9722a3daafe3b4186f6b6457e090600090a35050565b816001600160a01b0316836001600160a01b03161415611b635760405162461bcd60e51b815260040161047890612d46565b6001600160a01b0383811660008181526008602090815260408083209487168084529490915290819020805460ff1916851515179055517f17307eab39ab6107e8899845ad3d59bd9653f200f220920489ca2b5937696c3190611bc7908590612baf565b60405180910390a3505050565b60408051602a808252606082810190935283831b916f181899199a1a9b1b9c1cb0b131b232b360811b9160009190602082018180368337019050509050600360fc1b81600081518110611c3757634e487b7160e01b600052603260045260246000fd5b60200101906001600160f81b031916908160001a905350600f60fb1b81600181518110611c7457634e487b7160e01b600052603260045260246000fd5b60200101906001600160f81b031916908160001a90535060005b6014811015611dba576000848260148110611cb957634e487b7160e01b600052603260045260246000fd5b1a905083600482901c60ff1660108110611ce357634e487b7160e01b600052603260045260246000fd5b1a60f81b83611cf38460026130bc565b611cfe906002613079565b81518110611d1c57634e487b7160e01b600052603260045260246000fd5b60200101906001600160f81b031916908160001a90535083600f821660108110611d5657634e487b7160e01b600052603260045260246000fd5b1a60f81b83611d668460026130bc565b611d71906003613079565b81518110611d8f57634e487b7160e01b600052603260045260246000fd5b60200101906001600160f81b031916908160001a905350508080611db29061314a565b915050611c8e565b50949350505050565b60068310611de35760405162461bcd60e51b815260040161047890612ce8565b6001600160a01b038416611e095760405162461bcd60e51b815260040161047890612d6d565b6000611e136115f5565b90506000611e20856122b6565b90506000611e2d856122b6565b9050611e3e83600089858589610d7c565b60008681526007602090815260408083206001600160a01b038b16845290915281208054879290611e70908490613079565b90915550600090505b85811015611f0557876006600089815260200190815260200160002060008360008b60068110611eb957634e487b7160e01b600052603260045260246000fd5b0154611ec59190613079565b8152602081019190915260400160002080546001600160a01b0319166001600160a01b039290921691909117905580611efd8161314a565b915050611e79565b508460008760068110611f2857634e487b7160e01b600052603260045260246000fd5b016000828254611f389190613079565b92505081905550866001600160a01b031660006001600160a01b0316846001600160a01b03167fc3d58168c5ae7397731d063d5bbf3d657854427343f4c083240f7aacaa2d0f628989604051611f8f929190612f75565b60405180910390a4611fa683600089858589610d7c565b611fb58360008989898961230f565b50505050505050565b6001600160a01b038516611fe45760405162461bcd60e51b815260040161047890612d6d565b600684106120045760405162461bcd60e51b815260040161047890612ce8565b60005b8281101561209a5760008581526006602052604081206001600160a01b0389169186868581811061204857634e487b7160e01b600052603260045260246000fd5b60209081029290920135835250810191909152604001600020546001600160a01b0316146120885760405162461bcd60e51b815260040161047890612d93565b806120928161314a565b915050612007565b5060006120a56115f5565b905060006120b2866122b6565b905060006120bf856122b6565b90506120cf838a8a858589610d7c565b60005b858110156121655760008881526006602052604081206001600160a01b038c169189898581811061211357634e487b7160e01b600052603260045260246000fd5b60209081029290920135835250810191909152604001600020546001600160a01b0316146121535760405162461bcd60e51b815260040161047890612d93565b8061215d8161314a565b9150506120d2565b5060008781526007602090815260408083206001600160a01b038d16845290915281208054878103909155905b868110156122095760008981526006602052604081208b918a8a858181106121ca57634e487b7160e01b600052603260045260246000fd5b6020908102929092013583525081019190915260400160002080546001600160a01b0319166001600160a01b0392909216919091179055600101612192565b5060008881526007602090815260408083206001600160a01b038d1684529091528120805488929061223c908490613079565b90915550506040516001600160a01b03808b16918c8216918716907fc3d58168c5ae7397731d063d5bbf3d657854427343f4c083240f7aacaa2d0f6290612286908d908c90612f75565b60405180910390a461229c848b8b86868a610d7c565b6122aa848b8b8b8a8a61230f565b50505050505050505050565b604080516001808252818301909252606091600091906020808301908036833701905050905082816000815181106122fe57634e487b7160e01b600052603260045260246000fd5b602090810291909101015292915050565b6001600160a01b0384163b15610d7c5760405163f23a6e6160e01b81526001600160a01b0385169063f23a6e61906123539089908990889088908890600401612b26565b602060405180830381600087803b15801561236d57600080fd5b505af192505050801561239d575060408051601f3d908101601f1916820190925261239a918101906128ff565b60015b6123fd576123a9613191565b806308c379a014156123e357506123be6131a8565b806123c957506123e5565b8060405162461bcd60e51b81526004016104789190612bba565b505b60405162461bcd60e51b815260040161047890612f21565b6001600160e01b0319811663f23a6e6160e01b14611fb55760405162461bcd60e51b815260040161047890612d0f565b80356001600160a01b038116811461050f57600080fd5b600082601f830112612454578081fd5b813560206124618261302f565b60405161246e828261311e565b83815282810191508583018385028701840188101561248b578586fd5b855b858110156124a95781358452928401929084019060010161248d565b5090979650505050505050565b600082601f8301126124c6578081fd5b81356124d181613052565b6040516124de828261311e565b8281528560208487010111156124f2578384fd5b82602086016020830137918201602001929092529392505050565b60006020828403121561251e578081fd5b6125278261242d565b9392505050565b60008060408385031215612540578081fd5b6125498361242d565b91506125576020840161242d565b90509250929050565b600080600080600060a08688031215612577578081fd5b6125808661242d565b945061258e6020870161242d565b935060408601356001600160401b03808211156125a9578283fd5b6125b589838a01612444565b945060608801359150808211156125ca578283fd5b6125d689838a01612444565b935060808801359150808211156125eb578283fd5b506125f8888289016124b6565b9150509295509295909350565b60008060008060008060a0878903121561261d578081fd5b6126268761242d565b95506126346020880161242d565b94506040870135935060608701356001600160401b0380821115612656578283fd5b818901915089601f830112612669578283fd5b813581811115612677578384fd5b8a6020808302850101111561268a578384fd5b6020830195508094505060808901359150808211156126a7578283fd5b506126b489828a016124b6565b9150509295509295509295565b600080600080600060a086880312156126d8578081fd5b6126e18661242d565b94506126ef6020870161242d565b9350604086013592506060860135915060808601356001600160401b03811115612717578182fd5b6125f8888289016124b6565b60008060408385031215612735578182fd5b61273e8361242d565b915060208301358015158114612752578182fd5b809150509250929050565b6000806040838503121561276f578182fd5b6127788361242d565b946020939093013593505050565b6000806000806080858703121561279b578182fd5b6127a48561242d565b9350602085013592506040850135915060608501356001600160401b038111156127cc578182fd5b6127d8878288016124b6565b91505092959194509250565b600080604083850312156127f6578182fd5b82356001600160401b038082111561280c578384fd5b818501915085601f83011261281f578384fd5b8135602061282c8261302f565b604051612839828261311e565b8381528281019150858301838502870184018b1015612856578889fd5b8896505b8487101561287f5761286b8161242d565b83526001969096019591830191830161285a565b5096505086013592505080821115612895578283fd5b506128a285828601612444565b9150509250929050565b6000602082840312156128bd578081fd5b81356001600160401b038111156128d2578182fd5b820160c08101841015612527578182fd5b6000602082840312156128f4578081fd5b813561252781613239565b600060208284031215612910578081fd5b815161252781613239565b60006020828403121561292c578081fd5b81516001600160401b03811115612941578182fd5b8201601f81018413612951578182fd5b805161295c81613052565b604051612969828261311e565b82815286602084860101111561297d578485fd5b61298e8360208301602087016130f2565b9695505050505050565b6000604082840312156129a9578081fd5b6040516129b760408261311e565b6129c08361242d565b8152602083013560208201528091505092915050565b6000602082840312156129e7578081fd5b5035919050565b60008060408385031215612a00578182fd5b823591506125576020840161242d565b600080600060608486031215612a24578081fd5b83359250612a346020850161242d565b9150604084013590509250925092565b60008060408385031215612a56578182fd5b50508035926020909101359150565b60008060408385031215612a77578182fd5b82359150602083013560ff81168114612752578182fd5b60008151808452612aa68160208601602086016130f2565b601f01601f19169290920160200192915050565b60008251612acc8184602087016130f2565b9190910192915050565b60008351612ae88184602088016130f2565b600160fd1b9083019081528351612b068160018401602088016130f2565b01600101949350505050565b6001600160a01b0391909116815260200190565b6001600160a01b03868116825285166020820152604081018490526060810183905260a060808201819052600090612b6090830184612a8e565b979650505050505050565b6020808252825182820181905260009190848201906040850190845b81811015612ba357835183529284019291840191600101612b87565b50909695505050505050565b901515815260200190565b6000602082526125276020830184612a8e565b600060408252612be06040830185612a8e565b90508260208301529392505050565b6020808252600f908201526e125391115617d393d517d3d5d39151608a1b604082015260600190565b6020808252601190820152701513d2d15397d253925512505312569151607a1b604082015260600190565b60208082526026908201527f4f776e61626c653a206e6577206f776e657220697320746865207a65726f206160408201526564647265737360d01b606082015260800190565b60208082526019908201527f43414c4c45525f4e4f545f4f574e45525f415050524f56454400000000000000604082015260600190565b6020808252600e908201526d14d1539117d59053125117d3919560921b604082015260600190565b6020808252600d908201526c544f4b454e49445f52414e474560981b604082015260600190565b6020808252601f908201527f4552433131353552454345495645525f52454a45435445445f544f4b454e5300604082015260600190565b6020808252600d908201526c20a8282927ab20a62fa9a2a62360991b604082015260600190565b6020808252600c908201526b5a45524f5f4144445245535360a01b604082015260600190565b6020808252600f908201526e1513d2d15397d393d517d3d5d39151608a1b604082015260600190565b6020808252601190820152704552525f544f4b454e49445f52414e474560781b604082015260600190565b60208082526012908201527114149250d154d7d25392551250531256915160721b604082015260600190565b6020808252818101527f4f776e61626c653a2063616c6c6572206973206e6f7420746865206f776e6572604082015260600190565b6020808252601590820152745553455f45536166655472616e7366657246726f6d60581b604082015260600190565b6020808252601590820152741513d2d15397d393d517d253925512505312569151605a1b604082015260600190565b60208082526016908201527514149250d154d7d393d517d25392551250531256915160521b604082015260600190565b6020808252600890820152675553455f4575726960c01b604082015260600190565b6020808252600f908201526e1393d517d253541311535153951151608a1b604082015260600190565b6020808252602b908201527f7472616e736665725f746f5f6e6f6e2d4552433131353552656365697665725f60408201526a34b6b83632b6b2b73a32b960a91b606082015260800190565b90815260200190565b918252602082015260400190565b9182526001600160401b0316602082015260400190565b6001600160401b0391909116815260200190565b60ff91909116815260200190565b60ff92909216825263ffffffff16602082015260400190565b60ff92831681529116602082015260400190565b6000808335601e19843603018112612fff578283fd5b8301803591506001600160401b03821115613018578283fd5b6020019150604081023603821315610fe057600080fd5b60006001600160401b038211156130485761304861317b565b5060209081020190565b60006001600160401b0382111561306b5761306b61317b565b50601f01601f191660200190565b6000821982111561308c5761308c613165565b500190565b60006001600160401b038083168185168083038211156130b3576130b3613165565b01949350505050565b60008160001904831182151516156130d6576130d6613165565b500290565b6000828210156130ed576130ed613165565b500390565b60005b8381101561310d5781810151838201526020016130f5565b838111156108f25750506000910152565b601f8201601f191681016001600160401b03811182821017156131435761314361317b565b6040525050565b600060001982141561315e5761315e613165565b5060010190565b634e487b7160e01b600052601160045260246000fd5b634e487b7160e01b600052604160045260246000fd5b600060033d1115610ff457600481823e5160e01c90565b600060443d10156131b857610ff4565b6040516003193d81016004833e81513d6001600160401b0381602484011181841117156131e9575050505050610ff4565b828501915081518181111561320357505050505050610ff4565b843d870101602082850101111561321f57505050505050610ff4565b61322e6020828601018761311e565b509094505050505090565b6001600160e01b03198116811461136057600080fdfea26469706673582212207586b3bd7ead16b5e29eb92cde5893f48b89fcb372f580e4964db4976de9640364736f6c63430008010033",
  "linkReferences": {},
  "deployedLinkReferences": {},
  "immutableReferences": {},
  "inputSourceName": "project/contracts/test/test_TCF_ERC1155MintTime.sol",
  "devdoc": {
    "kind": "dev",
    "methods": {
      "ESafeTransferFrom(address,address,uint256,uint256[],bytes)": {
        "details": "安全转移无效的token，可以删除，因为后面会在TCF_NFT中实现",
        "params": {
          "indexes": "无效token在mintTimes数组中的位置"
        }
      },
      "addSupportedToken(address)": {
        "details": "添加支持的代币地址列表（原生代币不需要传入地址）。构造函数中已经添加了原生代币TC。 如果项目只支持TC，则不需要调用这个函数。",
        "params": {
          "_tokenAddress": "代币合约地址"
        }
      },
      "balanceOf(address,uint256)": {
        "details": "See {IERC1155-balanceOf}. Requirements: - `account` cannot be the zero address."
      },
      "balanceOfBatch(address[],uint256[])": {
        "details": "See {IERC1155-balanceOfBatch}.没有实现 Requirements: - `accounts` and `ids` must have the same length."
      },
      "changeNFTPrice(uint256,address,uint256)": {
        "details": "修改单个NFT价格",
        "params": {
          "amount": "新价格",
          "tokenAddress": "支付代币地址；原生代币传入address(0)",
          "tokenID": "NFT类型/ID（0-5）"
        }
      },
      "checkInitPricesParams((address,uint256)[][6])": {
        "details": "初始化价格参数检查：长度、代币是否在支持列表内等。",
        "params": {
          "prices": "6种NFT的价格参数（每种NFT包含 supportedTokenAmount 个价格项）"
        },
        "returns": {
          "_0": "错误码/错误信息；成功时为空字符串"
        }
      },
      "getNFTPrice(uint256,address)": {
        "details": "获取某个NFT在某种支付方式下的价格。",
        "params": {
          "_tokenAddress": "支付代币地址；原生代币传入address(0)",
          "tokenID": "NFT类型/ID（0-5）"
        },
        "returns": {
          "_0": "errorMessage 错误码/错误信息；成功时为空字符串",
          "_1": "price 价格；当errorMessage非空时为0"
        }
      },
      "initPrice((address,uint256)[][6])": {
        "details": "初始化价格.TC代币的地址设为0",
        "params": {
          "prices": "6种NFT,每中NFT的三类价格"
        }
      },
      "isApprovedForAll(address,address)": {
        "details": "See {IERC1155-isApprovedForAll}."
      },
      "owner()": {
        "details": "Returns the address of the current owner."
      },
      "renounceOwnership()": {
        "details": "Leaves the contract without owner. It will not be possible to call `onlyOwner` functions. Can only be called by the current owner. NOTE: Renouncing ownership will leave the contract without an owner, thereby disabling any functionality that is only available to the owner."
      },
      "safeBatchTransferFrom(address,address,uint256[],uint256[],bytes)": {
        "details": "See {IERC1155-safeBatchTransferFrom}."
      },
      "safeTransferFrom(address,address,uint256,uint256,bytes)": {
        "details": "See {IERC1155-safeTransferFrom}.没有实现"
      },
      "setApprovalForAll(address,bool)": {
        "details": "See {IERC1155-setApprovalForAll}."
      },
      "supportsInterface(bytes4)": {
        "details": "See {IERC165-supportsInterface}."
      },
      "transferOwnership(address)": {
        "details": "Transfers ownership of the contract to a new account (`newOwner`). Can only be called by the current owner."
      }
    },
    "version": 1
  },
  "evm": {
    "gasEstimates": {
      "creation": {
        "codeDepositCost": "2586600",
        "executionCost": "107789",
        "totalCost": "2694389"
      },
      "external": {
        "ESafeTransferFrom(address,address,uint256,uint256[],bytes)": "infinite",
        "NFTPrice_initialized()": "1102",
        "addSupportedToken(address)": "infinite",
        "balanceOf(address,uint256)": "1481",
        "balanceOfBatch(address[],uint256[])": "infinite",
        "changeDynamicRatio(uint256,uint8)": "24872",
        "changeNFTPrice(uint256,address,uint256)": "infinite",
        "checkInitPricesParams((address,uint256)[][6])": "infinite",
        "getNFTEquityDetails(uint256)": "2218",
        "getNFTPrice(uint256,address)": "infinite",
        "getNftMintTime(uint256,uint256)": "1381",
        "getTotalNFTWorth(address)": "infinite",
        "getUserTokenIds(address,uint256)": "infinite",
        "initPrice((address,uint256)[][6])": "infinite",
        "isApprovedForAll(address,address)": "infinite",
        "isSupported(address)": "1425",
        "owner()": "1182",
        "ownerOf(uint256,uint256)": "1447",
        "renounceOwnership()": "infinite",
        "safeBatchTransferFrom(address,address,uint256[],uint256[],bytes)": "infinite",
        "safeTransferFrom(address,address,uint256,uint256,bytes)": "infinite",
        "setApprovalForAll(address,bool)": "23416",
        "supportedTokenAmount()": "1140",
        "supportsInterface(bytes4)": "649",
        "testMint(address,uint256,uint256,bytes)": "infinite",
        "testSafeTransferFrom(address,address,uint256,uint256[],bytes)": "infinite",
        "tokenAddress_array(uint256)": "2106",
        "transferOwnership(address)": "23837",
        "uri(uint256)": "405"
      }
    }
  },
  "storageLayout": {
    "storage": [
      {
        "astId": 535,
        "contract": "project/contracts/test/test_TCF_ERC1155MintTime.sol:test_TCF_ERC1155MintTime",
        "label": "_nextTokenId",
        "offset": 0,
        "slot": "0",
        "type": "t_array(t_uint256)6_storage"
      },
      {
        "astId": 541,
        "contract": "project/contracts/test/test_TCF_ERC1155MintTime.sol:test_TCF_ERC1155MintTime",
        "label": "_owners",
        "offset": 0,
        "slot": "6",
        "type": "t_mapping(t_uint256,t_mapping(t_uint256,t_address))"
      },
      {
        "astId": 547,
        "contract": "project/contracts/test/test_TCF_ERC1155MintTime.sol:test_TCF_ERC1155MintTime",
        "label": "_balances",
        "offset": 0,
        "slot": "7",
        "type": "t_mapping(t_uint256,t_mapping(t_address,t_uint256))"
      },
      {
        "astId": 553,
        "contract": "project/contracts/test/test_TCF_ERC1155MintTime.sol:test_TCF_ERC1155MintTime",
        "label": "_operatorApprovals",
        "offset": 0,
        "slot": "8",
        "type": "t_mapping(t_address,t_mapping(t_address,t_bool))"
      },
      {
        "astId": 3647,
        "contract": "project/contracts/test/test_TCF_ERC1155MintTime.sol:test_TCF_ERC1155MintTime",
        "label": "_owner",
        "offset": 0,
        "slot": "9",
        "type": "t_address"
      },
      {
        "astId": 1964,
        "contract": "project/contracts/test/test_TCF_ERC1155MintTime.sol:test_TCF_ERC1155MintTime",
        "label": "supportTokenType",
        "offset": 0,
        "slot": "10",
        "type": "t_mapping(t_address,t_uint8)"
      },
      {
        "astId": 1966,
        "contract": "project/contracts/test/test_TCF_ERC1155MintTime.sol:test_TCF_ERC1155MintTime",
        "label": "supportedTokenAmount",
        "offset": 0,
        "slot": "11",
        "type": "t_uint256"
      },
      {
        "astId": 1969,
        "contract": "project/contracts/test/test_TCF_ERC1155MintTime.sol:test_TCF_ERC1155MintTime",
        "label": "tokenAddress_array",
        "offset": 0,
        "slot": "12",
        "type": "t_array(t_address)dyn_storage"
      },
      {
        "astId": 1971,
        "contract": "project/contracts/test/test_TCF_ERC1155MintTime.sol:test_TCF_ERC1155MintTime",
        "label": "initedTokenAddress",
        "offset": 0,
        "slot": "13",
        "type": "t_uint8"
      },
      {
        "astId": 1973,
        "contract": "project/contracts/test/test_TCF_ERC1155MintTime.sol:test_TCF_ERC1155MintTime",
        "label": "NFTPrice_initialized",
        "offset": 1,
        "slot": "13",
        "type": "t_uint8"
      },
      {
        "astId": 1992,
        "contract": "project/contracts/test/test_TCF_ERC1155MintTime.sol:test_TCF_ERC1155MintTime",
        "label": "NFTS",
        "offset": 0,
        "slot": "14",
        "type": "t_mapping(t_uint256,t_struct(equities_store)1987_storage)"
      },
      {
        "astId": 1406,
        "contract": "project/contracts/test/test_TCF_ERC1155MintTime.sol:test_TCF_ERC1155MintTime",
        "label": "_ownedTokenIds",
        "offset": 0,
        "slot": "15",
        "type": "t_mapping(t_address,t_mapping(t_uint256,t_array(t_uint256)dyn_storage))"
      },
      {
        "astId": 1412,
        "contract": "project/contracts/test/test_TCF_ERC1155MintTime.sol:test_TCF_ERC1155MintTime",
        "label": "_mintTimes",
        "offset": 0,
        "slot": "16",
        "type": "t_mapping(t_uint256,t_mapping(t_uint256,t_uint64))"
      }
    ],
    "types": {
      "t_address": {
        "encoding": "inplace",
        "label": "address",
        "numberOfBytes": "20"
      },
      "t_array(t_address)dyn_storage": {
        "base": "t_address",
        "encoding": "dynamic_array",
        "label": "address[]",
        "numberOfBytes": "32"
      },
      "t_array(t_uint256)6_storage": {
        "base": "t_uint256",
        "encoding": "inplace",
        "label": "uint256[6]",
        "numberOfBytes": "192"
      },
      "t_array(t_uint256)dyn_storage": {
        "base": "t_uint256",
        "encoding": "dynamic_array",
        "label": "uint256[]",
        "numberOfBytes": "32"
      },
      "t_bool": {
        "encoding": "inplace",
        "label": "bool",
        "numberOfBytes": "1"
      },
      "t_mapping(t_address,t_bool)": {
        "encoding": "mapping",
        "key": "t_address",
        "label": "mapping(address => bool)",
        "numberOfBytes": "32",
        "value": "t_bool"
      },
      "t_mapping(t_address,t_mapping(t_address,t_bool))": {
        "encoding": "mapping",
        "key": "t_address",
        "label": "mapping(address => mapping(address => bool))",
        "numberOfBytes": "32",
        "value": "t_mapping(t_address,t_bool)"
      },
      "t_mapping(t_address,t_mapping(t_uint256,t_array(t_uint256)dyn_storage))": {
        "encoding": "mapping",
        "key": "t_address",
        "label": "mapping(address => mapping(uint256 => uint256[]))",
        "numberOfBytes": "32",
        "value": "t_mapping(t_uint256,t_array(t_uint256)dyn_storage)"
      },
      "t_mapping(t_address,t_uint256)": {
        "encoding": "mapping",
        "key": "t_address",
        "label": "mapping(address => uint256)",
        "numberOfBytes": "32",
        "value": "t_uint256"
      },
      "t_mapping(t_address,t_uint8)": {
        "encoding": "mapping",
        "key": "t_address",
        "label": "mapping(address => uint8)",
        "numberOfBytes": "32",
        "value": "t_uint8"
      },
      "t_mapping(t_uint256,t_address)": {
        "encoding": "mapping",
        "key": "t_uint256",
        "label": "mapping(uint256 => address)",
        "numberOfBytes": "32",
        "value": "t_address"
      },
      "t_mapping(t_uint256,t_array(t_uint256)dyn_storage)": {
        "encoding": "mapping",
        "key": "t_uint256",
        "label": "mapping(uint256 => uint256[])",
        "numberOfBytes": "32",
        "value": "t_array(t_uint256)dyn_storage"
      },
      "t_mapping(t_uint256,t_mapping(t_address,t_uint256))": {
        "encoding": "mapping",
        "key": "t_uint256",
        "label": "mapping(uint256 => mapping(address => uint256))",
        "numberOfBytes": "32",
        "value": "t_mapping(t_address,t_uint256)"
      },
      "t_mapping(t_uint256,t_mapping(t_uint256,t_address))": {
        "encoding": "mapping",
        "key": "t_uint256",
        "label": "mapping(uint256 => mapping(uint256 => address))",
        "numberOfBytes": "32",
        "value": "t_mapping(t_uint256,t_address)"
      },
      "t_mapping(t_uint256,t_mapping(t_uint256,t_uint64))": {
        "encoding": "mapping",
        "key": "t_uint256",
        "label": "mapping(uint256 => mapping(uint256 => uint64))",
        "numberOfBytes": "32",
        "value": "t_mapping(t_uint256,t_uint64)"
      },
      "t_mapping(t_uint256,t_struct(equities_store)1987_storage)": {
        "encoding": "mapping",
        "key": "t_uint256",
        "label": "mapping(uint256 => struct TCF_NFTPrice.equities_store)",
        "numberOfBytes": "32",
        "value": "t_struct(equities_store)1987_storage"
      },
      "t_mapping(t_uint256,t_uint64)": {
        "encoding": "mapping",
        "key": "t_uint256",
        "label": "mapping(uint256 => uint64)",
        "numberOfBytes": "32",
        "value": "t_uint64"
      },
      "t_struct(equities_store)1987_storage": {
        "encoding": "inplace",
        "label": "struct TCF_NFTPrice.equities_store",
        "members": [
          {
            "astId": 1982,
            "contract": "project/contracts/test/test_TCF_ERC1155MintTime.sol:test_TCF_ERC1155MintTime",
            "label": "prices",
            "offset": 0,
            "slot": "0",
            "type": "t_mapping(t_address,t_uint256)"
          },
          {
            "astId": 1984,
            "contract": "project/contracts/test/test_TCF_ERC1155MintTime.sol:test_TCF_ERC1155MintTime",
            "label": "ratio",
            "offset": 0,
            "slot": "1",
            "type": "t_uint8"
          },
          {
            "astId": 1986,
            "contract": "project/contracts/test/test_TCF_ERC1155MintTime.sol:test_TCF_ERC1155MintTime",
            "label": "indate",
            "offset": 1,
            "slot": "1",
            "type": "t_uint32"
          }
        ],
        "numberOfBytes": "64"
      },
      "t_uint256": {
        "encoding": "inplace",
        "label": "uint256",
        "numberOfBytes": "32"
      },
      "t_uint32": {
        "encoding": "inplace",
        "label": "uint32",
        "numberOfBytes": "4"
      },
      "t_uint64": {
        "encoding": "inplace",
        "label": "uint64",
        "numberOfBytes": "8"
      },
      "t_uint8": {
        "encoding": "inplace",
        "label": "uint8",
        "numberOfBytes": "1"
      }
    }
  },
  "userdoc": {
    "kind": "user",
    "methods": {
      "initPrice((address,uint256)[][6])": {
        "notice": "只能调用一次，调用前必须确保支持的代币地址已经初始化，不需要检查token地址是否初始化，因为在构造函数中，初始化了TC"
      }
    },
    "version": 1
  },
  "argsData": "0x",
  "transaction": {
    "hash": "0xc1a29f8ac8d86fa3f4e8182df7f7cd23b0957c3511ead675b15bc07ef0e06125",
    "nonce": "0x9",
    "origin": "0xf39fd6e51aad88f6f4ce6ab8827279cfffb92266"
  }
}