{
  "address": "0x610178da211fef7d417bc0e6fed39f05609ad788",
  "abi": [
    {
      "anonymous": false,
      "inputs": [
        {
          "indexed": true,
          "internalType": "address",
          "name": "account",
          "type": "address"
        },
        {
          "indexed": true,
          "internalType": "address",
          "name": "operator",
          "type": "address"
        },
        {
          "indexed": false,
          "internalType": "bool",
          "name": "approved",
          "type": "bool"
        }
      ],
      "name": "ApprovalForAll",
      "type": "event"
    },
    {
      "anonymous": false,
      "inputs": [
        {
          "indexed": true,
          "internalType": "address",
          "name": "previousOwner",
          "type": "address"
        },
        {
          "indexed": true,
          "internalType": "address",
          "name": "newOwner",
          "type": "address"
        }
      ],
      "name": "OwnershipTransferred",
      "type": "event"
    },
    {
      "anonymous": false,
      "inputs": [
        {
          "indexed": true,
          "internalType": "address",
          "name": "operator",
          "type": "address"
        },
        {
          "indexed": true,
          "internalType": "address",
          "name": "from",
          "type": "address"
        },
        {
          "indexed": true,
          "internalType": "address",
          "name": "to",
          "type": "address"
        },
        {
          "indexed": false,
          "internalType": "uint256[]",
          "name": "ids",
          "type": "uint256[]"
        },
        {
          "indexed": false,
          "internalType": "uint256[]",
          "name": "values",
          "type": "uint256[]"
        }
      ],
      "name": "TransferBatch",
      "type": "event"
    },
    {
      "anonymous": false,
      "inputs": [
        {
          "indexed": true,
          "internalType": "address",
          "name": "operator",
          "type": "address"
        },
        {
          "indexed": true,
          "internalType": "address",
          "name": "from",
          "type": "address"
        },
        {
          "indexed": true,
          "internalType": "address",
          "name": "to",
          "type": "address"
        },
        {
          "indexed": false,
          "internalType": "uint256",
          "name": "id",
          "type": "uint256"
        },
        {
          "indexed": false,
          "internalType": "uint256",
          "name": "value",
          "type": "uint256"
        }
      ],
      "name": "TransferSingle",
      "type": "event"
    },
    {
      "anonymous": false,
      "inputs": [
        {
          "indexed": false,
          "internalType": "string",
          "name": "value",
          "type": "string"
        },
        {
          "indexed": true,
          "internalType": "uint256",
          "name": "id",
          "type": "uint256"
        }
      ],
      "name": "URI",
      "type": "event"
    },
    {
      "inputs": [
        {
          "internalType": "address",
          "name": "from",
          "type": "address"
        },
        {
          "internalType": "address",
          "name": "to",
          "type": "address"
        },
        {
          "internalType": "uint256",
          "name": "id",
          "type": "uint256"
        },
        {
          "internalType": "uint256[]",
          "name": "indexes",
          "type": "uint256[]"
        },
        {
          "internalType": "bytes",
          "name": "data",
          "type": "bytes"
        }
      ],
      "name": "ESafeTransferFrom",
      "outputs": [],
      "stateMutability": "nonpayable",
      "type": "function"
    },
    {
      "inputs": [
        {
          "internalType": "uint256",
          "name": "tokenId",
          "type": "uint256"
        }
      ],
      "name": "Euri",
      "outputs": [
        {
          "internalType": "string",
          "name": "",
          "type": "string"
        }
      ],
      "stateMutability": "view",
      "type": "function"
    },
    {
      "inputs": [],
      "name": "_initializedURIStorage",
      "outputs": [
        {
          "internalType": "uint8",
          "name": "",
          "type": "uint8"
        }
      ],
      "stateMutability": "view",
      "type": "function"
    },
    {
      "inputs": [
        {
          "internalType": "address",
          "name": "account",
          "type": "address"
        },
        {
          "internalType": "uint256",
          "name": "id",
          "type": "uint256"
        }
      ],
      "name": "balanceOf",
      "outputs": [
        {
          "internalType": "uint256",
          "name": "",
          "type": "uint256"
        }
      ],
      "stateMutability": "view",
      "type": "function"
    },
    {
      "inputs": [
        {
          "internalType": "address[]",
          "name": "",
          "type": "address[]"
        },
        {
          "internalType": "uint256[]",
          "name": "",
          "type": "uint256[]"
        }
      ],
      "name": "balanceOfBatch",
      "outputs": [
        {
          "internalType": "uint256[]",
          "name": "",
          "type": "uint256[]"
        }
      ],
      "stateMutability": "view",
      "type": "function"
    },
    {
      "inputs": [
        {
          "internalType": "address",
          "name": "account",
          "type": "address"
        },
        {
          "internalType": "address",
          "name": "operator",
          "type": "address"
        }
      ],
      "name": "isApprovedForAll",
      "outputs": [
        {
          "internalType": "bool",
          "name": "",
          "type": "bool"
        }
      ],
      "stateMutability": "view",
      "type": "function"
    },
    {
      "inputs": [],
      "name": "owner",
      "outputs": [
        {
          "internalType": "address",
          "name": "",
          "type": "address"
        }
      ],
      "stateMutability": "view",
      "type": "function"
    },
    {
      "inputs": [
        {
          "internalType": "uint256",
          "name": "tokenId",
          "type": "uint256"
        },
        {
          "internalType": "uint256",
          "name": "editionId",
          "type": "uint256"
        }
      ],
      "name": "ownerOf",
      "outputs": [
        {
          "internalType": "address",
          "name": "",
          "type": "address"
        }
      ],
      "stateMutability": "view",
      "type": "function"
    },
    {
      "inputs": [],
      "name": "renounceOwnership",
      "outputs": [],
      "stateMutability": "nonpayable",
      "type": "function"
    },
    {
      "inputs": [
        {
          "internalType": "address",
          "name": "",
          "type": "address"
        },
        {
          "internalType": "address",
          "name": "",
          "type": "address"
        },
        {
          "internalType": "uint256[]",
          "name": "",
          "type": "uint256[]"
        },
        {
          "internalType": "uint256[]",
          "name": "",
          "type": "uint256[]"
        },
        {
          "internalType": "bytes",
          "name": "",
          "type": "bytes"
        }
      ],
      "name": "safeBatchTransferFrom",
      "outputs": [],
      "stateMutability": "nonpayable",
      "type": "function"
    },
    {
      "inputs": [
        {
          "internalType": "address",
          "name": "",
          "type": "address"
        },
        {
          "internalType": "address",
          "name": "",
          "type": "address"
        },
        {
          "internalType": "uint256",
          "name": "",
          "type": "uint256"
        },
        {
          "internalType": "uint256",
          "name": "",
          "type": "uint256"
        },
        {
          "internalType": "bytes",
          "name": "",
          "type": "bytes"
        }
      ],
      "name": "safeTransferFrom",
      "outputs": [],
      "stateMutability": "nonpayable",
      "type": "function"
    },
    {
      "inputs": [
        {
          "internalType": "address",
          "name": "operator",
          "type": "address"
        },
        {
          "internalType": "bool",
          "name": "approved",
          "type": "bool"
        }
      ],
      "name": "setApprovalForAll",
      "outputs": [],
      "stateMutability": "nonpayable",
      "type": "function"
    },
    {
      "inputs": [
        {
          "internalType": "bytes[6]",
          "name": "baseURI",
          "type": "bytes[6]"
        }
      ],
      "name": "setBaseURI",
      "outputs": [],
      "stateMutability": "nonpayable",
      "type": "function"
    },
    {
      "inputs": [
        {
          "internalType": "bytes4",
          "name": "interfaceId",
          "type": "bytes4"
        }
      ],
      "name": "supportsInterface",
      "outputs": [
        {
          "internalType": "bool",
          "name": "",
          "type": "bool"
        }
      ],
      "stateMutability": "view",
      "type": "function"
    },
    {
      "inputs": [
        {
          "internalType": "address",
          "name": "newOwner",
          "type": "address"
        }
      ],
      "name": "transferOwnership",
      "outputs": [],
      "stateMutability": "nonpayable",
      "type": "function"
    },
    {
      "inputs": [
        {
          "internalType": "uint256",
          "name": "",
          "type": "uint256"
        }
      ],
      "name": "uri",
      "outputs": [
        {
          "internalType": "string",
          "name": "",
          "type": "string"
        }
      ],
      "stateMutability": "view",
      "type": "function"
    }
  ],
  "contractName": "test_TCF_ERC1155URIStorage",
  "sourceName": "contracts/test/test_TCF_ERC1155URIStorage.sol",
  "bytecode": "0x608060405234801561001057600080fd5b5061002161001c610026565b61002a565b61007c565b3390565b600980546001600160a01b038381166001600160a01b0319831681179093556040519116919082907f8be0079c531659141344cd1fd0a4f28419497f9722a3daafe3b4186f6b6457e090600090a35050565b6117b88061008b6000396000f3fe608060405234801561001057600080fd5b50600436106100ff5760003560e01c80637a915fde11610097578063d9dad80d11610066578063d9dad80d14610220578063e985e9c514610233578063f242432a14610246578063f2fde38b14610259576100ff565b80637a915fde146101d05780638da5cb5b146101e5578063a22cb465146101fa578063d3ab74431461020d576100ff565b80632fedbf3c116100d35780632fedbf3c146101825780634e1273f414610195578063598c27bc146101b5578063715018a6146101c8576100ff565b8062fdd58e1461010457806301ffc9a71461012d5780630e89341c1461014d5780632eb2c2d61461016d575b600080fd5b61011761011236600461101e565b61026c565b60405161012491906115b3565b60405180910390f35b61014061013b36600461118f565b6102e5565b60405161012491906112e8565b61016061015b3660046111c7565b61032d565b60405161012491906112f3565b61018061017b366004610e1e565b610347565b005b610180610190366004611110565b61035f565b6101a86101a3366004611047565b6103f1565b60405161012491906112a4565b6101806101c3366004610ec4565b61040b565b61018061046b565b6101d861047f565b60405161012491906115ca565b6101ed610488565b604051610124919061124b565b610180610208366004610fe4565b610498565b61016061021b3660046111c7565b6104ae565b6101ed61022e3660046111df565b6105a8565b610140610241366004610dec565b6105f1565b610180610254366004610f81565b61061f565b610180610267366004610dcb565b610637565b60006001600160a01b03831661029d5760405162461bcd60e51b815260040161029490611408565b60405180910390fd5b600682106102bd5760405162461bcd60e51b815260040161029490611457565b5060009081526007602090815260408083206001600160a01b03949094168352929052205490565b60006001600160e01b03198216636cdb3d1360e11b148061031657506001600160e01b031982166303a24d0760e21b145b80610325575061032582610671565b90505b919050565b606060405162461bcd60e51b81526004016102949061151d565b60405162461bcd60e51b81526004016102949061153f565b61036761068a565b60005b60068110156103e05781816006811061039357634e487b7160e01b600052603260045260246000fd5b6020020151600a82600681106103b957634e487b7160e01b600052603260045260246000fd5b0190805190602001906103cd929190610c3a565b50806103d88161167c565b91505061036a565b50506010805460ff19166001179055565b606060405162461bcd60e51b81526004016102949061153f565b6104136106c9565b6001600160a01b0316866001600160a01b031614806104395750610439866102416106c9565b6104555760405162461bcd60e51b81526004016102949061134c565b6104638686868686866106cd565b505050505050565b61047361068a565b61047d60006109c5565b565b60105460ff1681565b6009546001600160a01b03165b90565b6104aa6104a36106c9565b8383610a17565b5050565b60105460609060ff166001146104d65760405162461bcd60e51b815260040161029490611482565b600682106104f65760405162461bcd60e51b815260040161029490611383565b600a826006811061051757634e487b7160e01b600052603260045260246000fd5b01805461052390611614565b80601f016020809104026020016040519081016040528092919081815260200182805461054f90611614565b801561059c5780601f106105715761010080835404028352916020019161059c565b820191906000526020600020905b81548152906001019060200180831161057f57829003601f168201915b50505050509050919050565b6000600683106105ca5760405162461bcd60e51b815260040161029490611383565b5060009182526006602090815260408084209284529190529020546001600160a01b031690565b6001600160a01b03918216600090815260086020908152604080832093909416825291909152205460ff1690565b60405162461bcd60e51b8152600401610294906114ee565b61063f61068a565b6001600160a01b0381166106655760405162461bcd60e51b815260040161029490611306565b61066e816109c5565b50565b6001600160e01b031981166301ffc9a760e01b14919050565b6106926106c9565b6001600160a01b03166106a3610488565b6001600160a01b03161461047d5760405162461bcd60e51b8152600401610294906114b9565b3390565b6001600160a01b0385166106f35760405162461bcd60e51b815260040161029490611408565b600684106107135760405162461bcd60e51b815260040161029490611383565b60005b828110156107a95760008581526006602052604081206001600160a01b0389169186868581811061075757634e487b7160e01b600052603260045260246000fd5b60209081029290920135835250810191909152604001600020546001600160a01b0316146107975760405162461bcd60e51b81526004016102949061142e565b806107a18161167c565b915050610716565b5060006107b46106c9565b905060006107c186610aba565b905060006107ce85610aba565b90506107de838a8a858589610463565b60005b858110156108745760008881526006602052604081206001600160a01b038c169189898581811061082257634e487b7160e01b600052603260045260246000fd5b60209081029290920135835250810191909152604001600020546001600160a01b0316146108625760405162461bcd60e51b81526004016102949061142e565b8061086c8161167c565b9150506107e1565b5060008781526007602090815260408083206001600160a01b038d16845290915281208054878103909155905b868110156109185760008981526006602052604081208b918a8a858181106108d957634e487b7160e01b600052603260045260246000fd5b6020908102929092013583525081019190915260400160002080546001600160a01b0319166001600160a01b03929092169190911790556001016108a1565b5060008881526007602090815260408083206001600160a01b038d1684529091528120805488929061094b9084906115fc565b90915550506040516001600160a01b03808b16918c8216918716907fc3d58168c5ae7397731d063d5bbf3d657854427343f4c083240f7aacaa2d0f6290610995908d908c906115bc565b60405180910390a46109ab848b8b86868a610463565b6109b9848b8b8b8a8a610b13565b50505050505050505050565b600980546001600160a01b038381166001600160a01b0319831681179093556040519116919082907f8be0079c531659141344cd1fd0a4f28419497f9722a3daafe3b4186f6b6457e090600090a35050565b816001600160a01b0316836001600160a01b03161415610a495760405162461bcd60e51b8152600401610294906113e1565b6001600160a01b0383811660008181526008602090815260408083209487168084529490915290819020805460ff1916851515179055517f17307eab39ab6107e8899845ad3d59bd9653f200f220920489ca2b5937696c3190610aad9085906112e8565b60405180910390a3505050565b60408051600180825281830190925260609160009190602080830190803683370190505090508281600081518110610b0257634e487b7160e01b600052603260045260246000fd5b602090810291909101015292915050565b6001600160a01b0384163b156104635760405163f23a6e6160e01b81526001600160a01b0385169063f23a6e6190610b57908990899088908890889060040161125f565b602060405180830381600087803b158015610b7157600080fd5b505af1925050508015610ba1575060408051601f3d908101601f19168201909252610b9e918101906111ab565b60015b610c0157610bad6116c3565b806308c379a01415610be75750610bc26116da565b80610bcd5750610be9565b8060405162461bcd60e51b815260040161029491906112f3565b505b60405162461bcd60e51b815260040161029490611568565b6001600160e01b0319811663f23a6e6160e01b14610c315760405162461bcd60e51b8152600401610294906113aa565b50505050505050565b828054610c4690611614565b90600052602060002090601f016020900481019282610c685760008555610cae565b82601f10610c8157805160ff1916838001178555610cae565b82800160010185558215610cae579182015b82811115610cae578251825591602001919060010190610c93565b50610cba929150610cbe565b5090565b5b80821115610cba5760008155600101610cbf565b80356001600160a01b038116811461032857600080fd5b600082601f830112610cfa578081fd5b81356020610d07826115d8565b604051610d14828261164f565b838152828101915085830183850287018401881015610d31578586fd5b855b85811015610d4f57813584529284019290840190600101610d33565b5090979650505050505050565b600082601f830112610d6c578081fd5b813567ffffffffffffffff811115610d8657610d866116ad565b604051610d9d601f8301601f19166020018261164f565b818152846020838601011115610db1578283fd5b816020850160208301379081016020019190915292915050565b600060208284031215610ddc578081fd5b610de582610cd3565b9392505050565b60008060408385031215610dfe578081fd5b610e0783610cd3565b9150610e1560208401610cd3565b90509250929050565b600080600080600060a08688031215610e35578081fd5b610e3e86610cd3565b9450610e4c60208701610cd3565b9350604086013567ffffffffffffffff80821115610e68578283fd5b610e7489838a01610cea565b94506060880135915080821115610e89578283fd5b610e9589838a01610cea565b93506080880135915080821115610eaa578283fd5b50610eb788828901610d5c565b9150509295509295909350565b60008060008060008060a08789031215610edc578081fd5b610ee587610cd3565b9550610ef360208801610cd3565b945060408701359350606087013567ffffffffffffffff80821115610f16578283fd5b818901915089601f830112610f29578283fd5b813581811115610f37578384fd5b8a60208083028501011115610f4a578384fd5b602083019550809450506080890135915080821115610f67578283fd5b50610f7489828a01610d5c565b9150509295509295509295565b600080600080600060a08688031215610f98578081fd5b610fa186610cd3565b9450610faf60208701610cd3565b93506040860135925060608601359150608086013567ffffffffffffffff811115610fd8578182fd5b610eb788828901610d5c565b60008060408385031215610ff6578182fd5b610fff83610cd3565b915060208301358015158114611013578182fd5b809150509250929050565b60008060408385031215611030578182fd5b61103983610cd3565b946020939093013593505050565b60008060408385031215611059578182fd5b823567ffffffffffffffff80821115611070578384fd5b818501915085601f830112611083578384fd5b81356020611090826115d8565b60405161109d828261164f565b8381528281019150858301838502870184018b10156110ba578889fd5b8896505b848710156110e3576110cf81610cd3565b8352600196909601959183019183016110be565b50965050860135925050808211156110f9578283fd5b5061110685828601610cea565b9150509250929050565b60006020808385031215611122578182fd5b823567ffffffffffffffff811115611138578283fd5b8301601f81018513611148578283fd5b60405161115660c08261164f565b8082855b6006811015611182576111708983358701610d5c565b8352918501919085019060010161115a565b5091979650505050505050565b6000602082840312156111a0578081fd5b8135610de58161176c565b6000602082840312156111bc578081fd5b8151610de58161176c565b6000602082840312156111d8578081fd5b5035919050565b600080604083850312156111f1578182fd5b50508035926020909101359150565b60008151808452815b8181101561122557602081850181015186830182015201611209565b818111156112365782602083870101525b50601f01601f19169290920160200192915050565b6001600160a01b0391909116815260200190565b6001600160a01b03868116825285166020820152604081018490526060810183905260a06080820181905260009061129990830184611200565b979650505050505050565b6020808252825182820181905260009190848201906040850190845b818110156112dc578351835292840192918401916001016112c0565b50909695505050505050565b901515815260200190565b600060208252610de56020830184611200565b60208082526026908201527f4f776e61626c653a206e6577206f776e657220697320746865207a65726f206160408201526564647265737360d01b606082015260800190565b60208082526019908201527f43414c4c45525f4e4f545f4f574e45525f415050524f56454400000000000000604082015260600190565b6020808252600d908201526c544f4b454e49445f52414e474560981b604082015260600190565b6020808252601f908201527f4552433131353552454345495645525f52454a45435445445f544f4b454e5300604082015260600190565b6020808252600d908201526c20a8282927ab20a62fa9a2a62360991b604082015260600190565b6020808252600c908201526b5a45524f5f4144445245535360a01b604082015260600190565b6020808252600f908201526e1513d2d15397d393d517d3d5d39151608a1b604082015260600190565b6020808252601190820152704552525f544f4b454e49445f52414e474560781b604082015260600190565b60208082526017908201527f424153455552495f4e4f545f494e495449414c495a4544000000000000000000604082015260600190565b6020808252818101527f4f776e61626c653a2063616c6c6572206973206e6f7420746865206f776e6572604082015260600190565b6020808252601590820152745553455f45536166655472616e7366657246726f6d60581b604082015260600190565b6020808252600890820152675553455f4575726960c01b604082015260600190565b6020808252600f908201526e1393d517d253541311535153951151608a1b604082015260600190565b6020808252602b908201527f7472616e736665725f746f5f6e6f6e2d4552433131353552656365697665725f60408201526a34b6b83632b6b2b73a32b960a91b606082015260800190565b90815260200190565b918252602082015260400190565b60ff91909116815260200190565b600067ffffffffffffffff8211156115f2576115f26116ad565b5060209081020190565b6000821982111561160f5761160f611697565b500190565b60028104600182168061162857607f821691505b6020821081141561164957634e487b7160e01b600052602260045260246000fd5b50919050565b601f8201601f1916810167ffffffffffffffff81118282101715611675576116756116ad565b6040525050565b600060001982141561169057611690611697565b5060010190565b634e487b7160e01b600052601160045260246000fd5b634e487b7160e01b600052604160045260246000fd5b600060033d111561049557600481823e5160e01c90565b600060443d10156116ea57610495565b6040516003193d81016004833e81513d67ffffffffffffffff816024840111818411171561171c575050505050610495565b828501915081518181111561173657505050505050610495565b843d870101602082850101111561175257505050505050610495565b6117616020828601018761164f565b509094505050505090565b6001600160e01b03198116811461066e57600080fdfea2646970667358221220ec0a4cb1bcd2e0d3619484048d48f1225f901335323314c4e9314318cc3af85364736f6c63430008010033",
  "linkReferences": {},
  "deployedLinkReferences": {},
  "immutableReferences": {},
  "inputSourceName": "project/contracts/test/test_TCF_ERC1155URIStorage.sol",
  "devdoc": {
    "kind": "dev",
    "methods": {
      "ESafeTransferFrom(address,address,uint256,uint256[],bytes)": {
        "details": "安全转移无效的token，可以删除，因为后面会在TCF_NFT中实现",
        "params": {
          "indexes": "无效token在mintTimes数组中的位置"
        }
      },
      "balanceOf(address,uint256)": {
        "details": "See {IERC1155-balanceOf}. Requirements: - `account` cannot be the zero address."
      },
      "balanceOfBatch(address[],uint256[])": {
        "details": "See {IERC1155-balanceOfBatch}.没有实现 Requirements: - `accounts` and `ids` must have the same length."
      },
      "isApprovedForAll(address,address)": {
        "details": "See {IERC1155-isApprovedForAll}."
      },
      "owner()": {
        "details": "Returns the address of the current owner."
      },
      "renounceOwnership()": {
        "details": "Leaves the contract without owner. It will not be possible to call `onlyOwner` functions. Can only be called by the current owner. NOTE: Renouncing ownership will leave the contract without an owner, thereby disabling any functionality that is only available to the owner."
      },
      "safeBatchTransferFrom(address,address,uint256[],uint256[],bytes)": {
        "details": "See {IERC1155-safeBatchTransferFrom}."
      },
      "safeTransferFrom(address,address,uint256,uint256,bytes)": {
        "details": "See {IERC1155-safeTransferFrom}.没有实现"
      },
      "setApprovalForAll(address,bool)": {
        "details": "See {IERC1155-setApprovalForAll}."
      },
      "setBaseURI(bytes[6])": {
        "details": "Sets `baseURI` as the `_baseURI` for all tokens Only callable by the owner.可以被设置多次"
      },
      "supportsInterface(bytes4)": {
        "details": "See {IERC165-supportsInterface}."
      },
      "transferOwnership(address)": {
        "details": "Transfers ownership of the contract to a new account (`newOwner`). Can only be called by the current owner."
      }
    },
    "version": 1
  },
  "evm": {
    "gasEstimates": {
      "creation": {
        "codeDepositCost": "1214400",
        "executionCost": "23732",
        "totalCost": "1238132"
      },
      "external": {
        "ESafeTransferFrom(address,address,uint256,uint256[],bytes)": "infinite",
        "Euri(uint256)": "infinite",
        "_initializedURIStorage()": "1069",
        "balanceOf(address,uint256)": "1453",
        "balanceOfBatch(address[],uint256[])": "infinite",
        "isApprovedForAll(address,address)": "infinite",
        "owner()": "1116",
        "ownerOf(uint256,uint256)": "1358",
        "renounceOwnership()": "infinite",
        "safeBatchTransferFrom(address,address,uint256[],uint256[],bytes)": "infinite",
        "safeTransferFrom(address,address,uint256,uint256,bytes)": "infinite",
        "setApprovalForAll(address,bool)": "23416",
        "setBaseURI(bytes[6])": "infinite",
        "supportsInterface(bytes4)": "626",
        "transferOwnership(address)": "23815",
        "uri(uint256)": "427"
      }
    }
  },
  "storageLayout": {
    "storage": [
      {
        "astId": 458,
        "contract": "project/contracts/test/test_TCF_ERC1155URIStorage.sol:test_TCF_ERC1155URIStorage",
        "label": "_nextTokenId",
        "offset": 0,
        "slot": "0",
        "type": "t_array(t_uint256)6_storage"
      },
      {
        "astId": 464,
        "contract": "project/contracts/test/test_TCF_ERC1155URIStorage.sol:test_TCF_ERC1155URIStorage",
        "label": "_owners",
        "offset": 0,
        "slot": "6",
        "type": "t_mapping(t_uint256,t_mapping(t_uint256,t_address))"
      },
      {
        "astId": 470,
        "contract": "project/contracts/test/test_TCF_ERC1155URIStorage.sol:test_TCF_ERC1155URIStorage",
        "label": "_balances",
        "offset": 0,
        "slot": "7",
        "type": "t_mapping(t_uint256,t_mapping(t_address,t_uint256))"
      },
      {
        "astId": 476,
        "contract": "project/contracts/test/test_TCF_ERC1155URIStorage.sol:test_TCF_ERC1155URIStorage",
        "label": "_operatorApprovals",
        "offset": 0,
        "slot": "8",
        "type": "t_mapping(t_address,t_mapping(t_address,t_bool))"
      },
      {
        "astId": 3530,
        "contract": "project/contracts/test/test_TCF_ERC1155URIStorage.sol:test_TCF_ERC1155URIStorage",
        "label": "_owner",
        "offset": 0,
        "slot": "9",
        "type": "t_address"
      },
      {
        "astId": 1797,
        "contract": "project/contracts/test/test_TCF_ERC1155URIStorage.sol:test_TCF_ERC1155URIStorage",
        "label": "_baseURI",
        "offset": 0,
        "slot": "10",
        "type": "t_array(t_string_storage)6_storage"
      },
      {
        "astId": 1799,
        "contract": "project/contracts/test/test_TCF_ERC1155URIStorage.sol:test_TCF_ERC1155URIStorage",
        "label": "_initializedURIStorage",
        "offset": 0,
        "slot": "16",
        "type": "t_uint8"
      },
      {
        "astId": 1805,
        "contract": "project/contracts/test/test_TCF_ERC1155URIStorage.sol:test_TCF_ERC1155URIStorage",
        "label": "_tokenURIs",
        "offset": 0,
        "slot": "17",
        "type": "t_mapping(t_uint256,t_mapping(t_uint256,t_string_storage))"
      }
    ],
    "types": {
      "t_address": {
        "encoding": "inplace",
        "label": "address",
        "numberOfBytes": "20"
      },
      "t_array(t_string_storage)6_storage": {
        "base": "t_string_storage",
        "encoding": "inplace",
        "label": "string[6]",
        "numberOfBytes": "192"
      },
      "t_array(t_uint256)6_storage": {
        "base": "t_uint256",
        "encoding": "inplace",
        "label": "uint256[6]",
        "numberOfBytes": "192"
      },
      "t_bool": {
        "encoding": "inplace",
        "label": "bool",
        "numberOfBytes": "1"
      },
      "t_mapping(t_address,t_bool)": {
        "encoding": "mapping",
        "key": "t_address",
        "label": "mapping(address => bool)",
        "numberOfBytes": "32",
        "value": "t_bool"
      },
      "t_mapping(t_address,t_mapping(t_address,t_bool))": {
        "encoding": "mapping",
        "key": "t_address",
        "label": "mapping(address => mapping(address => bool))",
        "numberOfBytes": "32",
        "value": "t_mapping(t_address,t_bool)"
      },
      "t_mapping(t_address,t_uint256)": {
        "encoding": "mapping",
        "key": "t_address",
        "label": "mapping(address => uint256)",
        "numberOfBytes": "32",
        "value": "t_uint256"
      },
      "t_mapping(t_uint256,t_address)": {
        "encoding": "mapping",
        "key": "t_uint256",
        "label": "mapping(uint256 => address)",
        "numberOfBytes": "32",
        "value": "t_address"
      },
      "t_mapping(t_uint256,t_mapping(t_address,t_uint256))": {
        "encoding": "mapping",
        "key": "t_uint256",
        "label": "mapping(uint256 => mapping(address => uint256))",
        "numberOfBytes": "32",
        "value": "t_mapping(t_address,t_uint256)"
      },
      "t_mapping(t_uint256,t_mapping(t_uint256,t_address))": {
        "encoding": "mapping",
        "key": "t_uint256",
        "label": "mapping(uint256 => mapping(uint256 => address))",
        "numberOfBytes": "32",
        "value": "t_mapping(t_uint256,t_address)"
      },
      "t_mapping(t_uint256,t_mapping(t_uint256,t_string_storage))": {
        "encoding": "mapping",
        "key": "t_uint256",
        "label": "mapping(uint256 => mapping(uint256 => string))",
        "numberOfBytes": "32",
        "value": "t_mapping(t_uint256,t_string_storage)"
      },
      "t_mapping(t_uint256,t_string_storage)": {
        "encoding": "mapping",
        "key": "t_uint256",
        "label": "mapping(uint256 => string)",
        "numberOfBytes": "32",
        "value": "t_string_storage"
      },
      "t_string_storage": {
        "encoding": "bytes",
        "label": "string",
        "numberOfBytes": "32"
      },
      "t_uint256": {
        "encoding": "inplace",
        "label": "uint256",
        "numberOfBytes": "32"
      },
      "t_uint8": {
        "encoding": "inplace",
        "label": "uint8",
        "numberOfBytes": "1"
      }
    }
  },
  "userdoc": {
    "kind": "user",
    "methods": {},
    "version": 1
  },
  "argsData": "0x",
  "transaction": {
    "hash": "0x67e3660439c670c0049f44c766de45d39fd5b98bee4a63c326b42aab9ad96808",
    "nonce": "0xa",
    "origin": "0xf39fd6e51aad88f6f4ce6ab8827279cfffb92266"
  }
}