{
  "address": "0x8a791620dd6260079bf849dc5567adc3f2fdc318",
  "abi": [
    {
      "anonymous": false,
      "inputs": [
        {
          "indexed": true,
          "internalType": "address",
          "name": "account",
          "type": "address"
        },
        {
          "indexed": true,
          "internalType": "address",
          "name": "operator",
          "type": "address"
        },
        {
          "indexed": false,
          "internalType": "bool",
          "name": "approved",
          "type": "bool"
        }
      ],
      "name": "ApprovalForAll",
      "type": "event"
    },
    {
      "anonymous": false,
      "inputs": [
        {
          "indexed": true,
          "internalType": "address",
          "name": "previousOwner",
          "type": "address"
        },
        {
          "indexed": true,
          "internalType": "address",
          "name": "newOwner",
          "type": "address"
        }
      ],
      "name": "OwnershipTransferred",
      "type": "event"
    },
    {
      "anonymous": false,
      "inputs": [
        {
          "indexed": true,
          "internalType": "address",
          "name": "operator",
          "type": "address"
        },
        {
          "indexed": true,
          "internalType": "address",
          "name": "from",
          "type": "address"
        },
        {
          "indexed": true,
          "internalType": "address",
          "name": "to",
          "type": "address"
        },
        {
          "indexed": false,
          "internalType": "uint256[]",
          "name": "ids",
          "type": "uint256[]"
        },
        {
          "indexed": false,
          "internalType": "uint256[]",
          "name": "values",
          "type": "uint256[]"
        }
      ],
      "name": "TransferBatch",
      "type": "event"
    },
    {
      "anonymous": false,
      "inputs": [
        {
          "indexed": true,
          "internalType": "address",
          "name": "operator",
          "type": "address"
        },
        {
          "indexed": true,
          "internalType": "address",
          "name": "from",
          "type": "address"
        },
        {
          "indexed": true,
          "internalType": "address",
          "name": "to",
          "type": "address"
        },
        {
          "indexed": false,
          "internalType": "uint256",
          "name": "id",
          "type": "uint256"
        },
        {
          "indexed": false,
          "internalType": "uint256",
          "name": "value",
          "type": "uint256"
        }
      ],
      "name": "TransferSingle",
      "type": "event"
    },
    {
      "anonymous": false,
      "inputs": [
        {
          "indexed": false,
          "internalType": "string",
          "name": "value",
          "type": "string"
        },
        {
          "indexed": true,
          "internalType": "uint256",
          "name": "id",
          "type": "uint256"
        }
      ],
      "name": "URI",
      "type": "event"
    },
    {
      "inputs": [],
      "name": "NFTPrice_initialized",
      "outputs": [
        {
          "internalType": "uint8",
          "name": "",
          "type": "uint8"
        }
      ],
      "stateMutability": "view",
      "type": "function"
    },
    {
      "inputs": [
        {
          "internalType": "uint256",
          "name": "",
          "type": "uint256"
        }
      ],
      "name": "NFTS",
      "outputs": [
        {
          "internalType": "uint8",
          "name": "ratio",
          "type": "uint8"
        },
        {
          "internalType": "uint32",
          "name": "indate",
          "type": "uint32"
        }
      ],
      "stateMutability": "view",
      "type": "function"
    },
    {
      "inputs": [
        {
          "internalType": "address[]",
          "name": "tokenAddresses",
          "type": "address[]"
        }
      ],
      "name": "addSupportedToken",
      "outputs": [],
      "stateMutability": "nonpayable",
      "type": "function"
    },
    {
      "inputs": [
        {
          "internalType": "address",
          "name": "account",
          "type": "address"
        },
        {
          "internalType": "uint256",
          "name": "id",
          "type": "uint256"
        }
      ],
      "name": "balanceOf",
      "outputs": [
        {
          "internalType": "uint256",
          "name": "",
          "type": "uint256"
        }
      ],
      "stateMutability": "view",
      "type": "function"
    },
    {
      "inputs": [
        {
          "internalType": "address[]",
          "name": "accounts",
          "type": "address[]"
        },
        {
          "internalType": "uint256[]",
          "name": "ids",
          "type": "uint256[]"
        }
      ],
      "name": "balanceOfBatch",
      "outputs": [
        {
          "internalType": "uint256[]",
          "name": "",
          "type": "uint256[]"
        }
      ],
      "stateMutability": "view",
      "type": "function"
    },
    {
      "inputs": [
        {
          "internalType": "uint256",
          "name": "tokenID",
          "type": "uint256"
        },
        {
          "internalType": "address",
          "name": "tokenAddress",
          "type": "address"
        },
        {
          "internalType": "uint256",
          "name": "amount",
          "type": "uint256"
        }
      ],
      "name": "changeNFTPrice",
      "outputs": [],
      "stateMutability": "nonpayable",
      "type": "function"
    },
    {
      "inputs": [
        {
          "components": [
            {
              "internalType": "address",
              "name": "tokenAddress",
              "type": "address"
            },
            {
              "internalType": "uint256",
              "name": "amount",
              "type": "uint256"
            }
          ],
          "internalType": "struct TCF_NFTPrice.priceTypeAndAomut[][6]",
          "name": "prices",
          "type": "tuple[][6]"
        }
      ],
      "name": "checkInitPricesParams",
      "outputs": [
        {
          "internalType": "string",
          "name": "",
          "type": "string"
        }
      ],
      "stateMutability": "view",
      "type": "function"
    },
    {
      "inputs": [
        {
          "internalType": "address[]",
          "name": "_tokenAddresses",
          "type": "address[]"
        }
      ],
      "name": "checkTokenAddressesCode",
      "outputs": [
        {
          "internalType": "string",
          "name": "",
          "type": "string"
        }
      ],
      "stateMutability": "view",
      "type": "function"
    },
    {
      "inputs": [
        {
          "internalType": "address",
          "name": "oldTokenAddress",
          "type": "address"
        }
      ],
      "name": "deleteSupportedToken",
      "outputs": [],
      "stateMutability": "nonpayable",
      "type": "function"
    },
    {
      "inputs": [
        {
          "internalType": "uint256",
          "name": "tokenID",
          "type": "uint256"
        },
        {
          "internalType": "address",
          "name": "_tokenAddress",
          "type": "address"
        }
      ],
      "name": "getNFTPrice",
      "outputs": [
        {
          "internalType": "string",
          "name": "",
          "type": "string"
        },
        {
          "internalType": "uint256",
          "name": "",
          "type": "uint256"
        }
      ],
      "stateMutability": "view",
      "type": "function"
    },
    {
      "inputs": [
        {
          "internalType": "address",
          "name": "owner",
          "type": "address"
        }
      ],
      "name": "getTotalNFTWorth",
      "outputs": [
        {
          "internalType": "uint256",
          "name": "",
          "type": "uint256"
        }
      ],
      "stateMutability": "view",
      "type": "function"
    },
    {
      "inputs": [
        {
          "components": [
            {
              "internalType": "address",
              "name": "tokenAddress",
              "type": "address"
            },
            {
              "internalType": "uint256",
              "name": "amount",
              "type": "uint256"
            }
          ],
          "internalType": "struct TCF_NFTPrice.priceTypeAndAomut[][6]",
          "name": "prices",
          "type": "tuple[][6]"
        }
      ],
      "name": "initPrice",
      "outputs": [],
      "stateMutability": "nonpayable",
      "type": "function"
    },
    {
      "inputs": [
        {
          "internalType": "address",
          "name": "account",
          "type": "address"
        },
        {
          "internalType": "address",
          "name": "operator",
          "type": "address"
        }
      ],
      "name": "isApprovedForAll",
      "outputs": [
        {
          "internalType": "bool",
          "name": "",
          "type": "bool"
        }
      ],
      "stateMutability": "view",
      "type": "function"
    },
    {
      "inputs": [
        {
          "internalType": "address",
          "name": "token",
          "type": "address"
        }
      ],
      "name": "isSupported",
      "outputs": [
        {
          "internalType": "uint8",
          "name": "",
          "type": "uint8"
        }
      ],
      "stateMutability": "view",
      "type": "function"
    },
    {
      "inputs": [],
      "name": "owner",
      "outputs": [
        {
          "internalType": "address",
          "name": "",
          "type": "address"
        }
      ],
      "stateMutability": "view",
      "type": "function"
    },
    {
      "inputs": [
        {
          "internalType": "uint256",
          "name": "tokenId",
          "type": "uint256"
        },
        {
          "internalType": "uint256",
          "name": "editionId",
          "type": "uint256"
        }
      ],
      "name": "ownerOf",
      "outputs": [
        {
          "internalType": "address",
          "name": "",
          "type": "address"
        }
      ],
      "stateMutability": "view",
      "type": "function"
    },
    {
      "inputs": [],
      "name": "renounceOwnership",
      "outputs": [],
      "stateMutability": "nonpayable",
      "type": "function"
    },
    {
      "inputs": [
        {
          "internalType": "address",
          "name": "from",
          "type": "address"
        },
        {
          "internalType": "address",
          "name": "to",
          "type": "address"
        },
        {
          "internalType": "uint256[]",
          "name": "ids",
          "type": "uint256[]"
        },
        {
          "internalType": "uint256[]",
          "name": "amounts",
          "type": "uint256[]"
        },
        {
          "internalType": "bytes",
          "name": "data",
          "type": "bytes"
        }
      ],
      "name": "safeBatchTransferFrom",
      "outputs": [],
      "stateMutability": "nonpayable",
      "type": "function"
    },
    {
      "inputs": [
        {
          "internalType": "address",
          "name": "from",
          "type": "address"
        },
        {
          "internalType": "address",
          "name": "to",
          "type": "address"
        },
        {
          "internalType": "uint256",
          "name": "id",
          "type": "uint256"
        },
        {
          "internalType": "uint256",
          "name": "amount",
          "type": "uint256"
        },
        {
          "internalType": "bytes",
          "name": "data",
          "type": "bytes"
        }
      ],
      "name": "safeTransferFrom",
      "outputs": [],
      "stateMutability": "nonpayable",
      "type": "function"
    },
    {
      "inputs": [
        {
          "internalType": "address",
          "name": "operator",
          "type": "address"
        },
        {
          "internalType": "bool",
          "name": "approved",
          "type": "bool"
        }
      ],
      "name": "setApprovalForAll",
      "outputs": [],
      "stateMutability": "nonpayable",
      "type": "function"
    },
    {
      "inputs": [],
      "name": "supportedTokenAmount",
      "outputs": [
        {
          "internalType": "uint256",
          "name": "",
          "type": "uint256"
        }
      ],
      "stateMutability": "view",
      "type": "function"
    },
    {
      "inputs": [
        {
          "internalType": "bytes4",
          "name": "interfaceId",
          "type": "bytes4"
        }
      ],
      "name": "supportsInterface",
      "outputs": [
        {
          "internalType": "bool",
          "name": "",
          "type": "bool"
        }
      ],
      "stateMutability": "view",
      "type": "function"
    },
    {
      "inputs": [
        {
          "internalType": "address",
          "name": "to",
          "type": "address"
        },
        {
          "internalType": "uint256",
          "name": "id",
          "type": "uint256"
        },
        {
          "internalType": "uint256",
          "name": "amount",
          "type": "uint256"
        },
        {
          "internalType": "bytes",
          "name": "data",
          "type": "bytes"
        }
      ],
      "name": "testMint",
      "outputs": [],
      "stateMutability": "nonpayable",
      "type": "function"
    },
    {
      "inputs": [
        {
          "internalType": "address",
          "name": "from",
          "type": "address"
        },
        {
          "internalType": "address",
          "name": "to",
          "type": "address"
        },
        {
          "internalType": "uint256",
          "name": "id",
          "type": "uint256"
        },
        {
          "internalType": "uint256[]",
          "name": "indexes",
          "type": "uint256[]"
        },
        {
          "internalType": "bytes",
          "name": "data",
          "type": "bytes"
        }
      ],
      "name": "testSafeTransferFrom",
      "outputs": [],
      "stateMutability": "nonpayable",
      "type": "function"
    },
    {
      "inputs": [
        {
          "internalType": "uint256",
          "name": "tokenId",
          "type": "uint256"
        },
        {
          "internalType": "address",
          "name": "account",
          "type": "address"
        },
        {
          "internalType": "uint256",
          "name": "editionId",
          "type": "uint256"
        }
      ],
      "name": "test_MintTimes",
      "outputs": [
        {
          "internalType": "uint256",
          "name": "",
          "type": "uint256"
        }
      ],
      "stateMutability": "view",
      "type": "function"
    },
    {
      "inputs": [
        {
          "internalType": "address",
          "name": "account",
          "type": "address"
        },
        {
          "internalType": "uint256",
          "name": "tokenId",
          "type": "uint256"
        }
      ],
      "name": "test_OwnedTokenIds",
      "outputs": [
        {
          "internalType": "uint256[]",
          "name": "",
          "type": "uint256[]"
        }
      ],
      "stateMutability": "view",
      "type": "function"
    },
    {
      "inputs": [
        {
          "internalType": "address",
          "name": "from",
          "type": "address"
        },
        {
          "internalType": "address",
          "name": "to",
          "type": "address"
        },
        {
          "internalType": "uint256",
          "name": "id",
          "type": "uint256"
        },
        {
          "internalType": "uint256[]",
          "name": "indexes",
          "type": "uint256[]"
        },
        {
          "internalType": "bytes",
          "name": "data",
          "type": "bytes"
        }
      ],
      "name": "test_SafeTransferFrom",
      "outputs": [],
      "stateMutability": "nonpayable",
      "type": "function"
    },
    {
      "inputs": [
        {
          "internalType": "uint256",
          "name": "",
          "type": "uint256"
        }
      ],
      "name": "tokenAddress_array",
      "outputs": [
        {
          "internalType": "address",
          "name": "",
          "type": "address"
        }
      ],
      "stateMutability": "view",
      "type": "function"
    },
    {
      "inputs": [
        {
          "internalType": "address",
          "name": "newOwner",
          "type": "address"
        }
      ],
      "name": "transferOwnership",
      "outputs": [],
      "stateMutability": "nonpayable",
      "type": "function"
    },
    {
      "inputs": [
        {
          "internalType": "uint256",
          "name": "",
          "type": "uint256"
        }
      ],
      "name": "uri",
      "outputs": [
        {
          "internalType": "string",
          "name": "",
          "type": "string"
        }
      ],
      "stateMutability": "view",
      "type": "function"
    }
  ],
  "contractName": "test_TCF_ERC1155MintTime",
  "sourceName": "contracts/test/test_TCF_ERC1155MintTime.sol",
  "bytecode": "0x60806040523480156200001157600080fd5b506200002662000020620000a4565b620000a8565b600a6020527fbbc70db1b6c7afd11e79c0fb0051300458f1a3acb8ee9789d9b6b26c61ad9bc7805460ff19166001908117909155600c805480830182556000919091527fdf6966c971051c3d54ec59162606531493a51404a002842f56009d7e5cf4a8c70180546001600160a01b03191682179055600b55620000fa565b3390565b600980546001600160a01b038381166001600160a01b0319831681179093556040519116919082907f8be0079c531659141344cd1fd0a4f28419497f9722a3daafe3b4186f6b6457e090600090a35050565b61349b806200010a6000396000f3fe608060405234801561001057600080fd5b50600436106101d95760003560e01c8063784da43711610104578063db891c10116100a2578063eb58f0b911610071578063eb58f0b914610415578063f1adfd1914610428578063f242432a1461043b578063f2fde38b14610449576101d9565b8063db891c10146103c9578063e0540997146103dc578063e5030adc146103ef578063e985e9c514610402576101d9565b8063a22cb465116100de578063a22cb4651461036f578063a9fa729a14610382578063c9b6b48514610395578063d9dad80d146103b6576101d9565b8063784da4371461033357806386ff9113146103465780638da5cb5b14610367576101d9565b80632eb2c2d61161017c5780634e1273f41161014b5780634e1273f4146102e55780634f129c53146103055780635582631314610318578063715018a61461032b576101d9565b80632eb2c2d614610297578063333cc85d146102aa5780633a4d2d3a146102bd5780634c8cb672146102d0576101d9565b806319d62e57116101b857806319d62e57146102475780631f3fd61814610267578063233612831461027a578063292241f214610282576101d9565b8062fdd58e146101de57806301ffc9a7146102075780630e89341c14610227575b600080fd5b6101f16101ec366004612ae9565b61045c565b6040516101fe91906131ec565b60405180910390f35b61021a610215366004612c41565b6104fe565b6040516101fe9190612ee4565b61023a610235366004612d34565b610546565b6040516101fe9190612eef565b61025a610255366004612d34565b610559565b6040516101fe9190612e47565b61023a610275366004612c0a565b610583565b6101f16107c5565b610295610290366004612b12565b6107cb565b005b6102956102a53660046128ec565b6107dd565b6102956102b8366004612899565b6107e4565b6102956102cb366004612c0a565b610a35565b6102d8610d4a565b6040516101fe9190613203565b6102f86102f3366004612baa565b610d58565b6040516101fe9190612ea0565b6102d8610313366004612899565b610d60565b610295610326366004612d6e565b610d94565b610295610e07565b610295610341366004612991565b610e1b565b610359610354366004612d4c565b610e31565b6040516101fe929190612f02565b61025a610ea3565b61029561037d366004612aaf565b610eb3565b6101f1610390366004612d6e565b610ec9565b6103a86103a3366004612d34565b610f44565b6040516101fe929190613211565b61025a6103c4366004612da2565b610f69565b6102956103d7366004612b70565b610fdb565b61023a6103ea366004612b70565b611112565b6101f16103fd366004612899565b61111d565b61021a6104103660046128ba565b6112f5565b6102f8610423366004612ae9565b611323565b610295610436366004612991565b611398565b6102956102a5366004612a4d565b610295610457366004612899565b6113e2565b60006001600160a01b03831661048d5760405162461bcd60e51b815260040161048490612ffc565b60405180910390fd5b60408051808201909152600d81526c544f4b454e49445f52414e474560981b6020820152600683106104d25760405162461bcd60e51b81526004016104849190612eef565b505060008181526007602090815260408083206001600160a01b03861684529091529020545b92915050565b60006001600160e01b03198216636cdb3d1360e11b148061052f57506001600160e01b031982166303a24d0760e21b145b8061053e575061053e8261141c565b90505b919050565b5060408051602081019091526000815290565b600c818154811061056957600080fd5b6000918252602090912001546001600160a01b0316905081565b606060005b60068110156107af57600b548382600681106105b457634e487b7160e01b600052603260045260246000fd5b6020028101906105c4919061322a565b9050146105f357505060408051808201909152600a815269282924a1a2a9afa622a760b11b6020820152610541565b600083826006811061061557634e487b7160e01b600052603260045260246000fd5b602002810190610625919061322a565b808060200260200160405190810160405280939291908181526020016000905b828210156106715761066260408302860136819003810190612cf6565b81526020019060010190610645565b5050505050905060005b600b5481101561079c5760006001600160a01b03168282815181106106b057634e487b7160e01b600052603260045260246000fd5b6020026020010151600001516001600160a01b03161415801561071f5750600a60008383815181106106f257634e487b7160e01b600052603260045260246000fd5b602090810291909101810151516001600160a01b031682528101919091526040016000205460ff16600114155b1561078c5761078282828151811061074757634e487b7160e01b600052603260045260246000fd5b602002602001015160000151604051806040016040528060118152602001701513d2d15397d55394d5541413d4951151607a1b815250611435565b9350505050610541565b61079581613360565b905061067b565b5050806107a890613360565b9050610588565b5050604080516020810190915260008152919050565b600b5481565b6107d784848484611469565b50505050565b5050505050565b6107ec61155d565b60408051808201909152601081526f13905515549157d513d2d15397d1115360821b60208201526001600160a01b03821661083a5760405162461bcd60e51b81526004016104849190612eef565b506001600160a01b0381166000908152600a602090815260409182902054825180840190935260118352701513d2d15397d55394d5541413d4951151607a1b9183019190915260ff1660011490610892908390611435565b906108b05760405162461bcd60e51b81526004016104849190612eef565b506001600160a01b0381166000908152600a60205260408120805460ff191690555b6001600b546108e191906132f1565b811015610a1957816001600160a01b0316600c828154811061091357634e487b7160e01b600052603260045260246000fd5b6000918252602090912001546001600160a01b03161415610a0757600c6002600b5461093f91906132f1565b8154811061095d57634e487b7160e01b600052603260045260246000fd5b600091825260209091200154600c80546001600160a01b03909216918390811061099757634e487b7160e01b600052603260045260246000fd5b9060005260206000200160006101000a8154816001600160a01b0302191690836001600160a01b03160217905550600c8054806109e457634e487b7160e01b600052603160045260246000fd5b600082815260209020810160001990810180546001600160a01b03191690550190555b80610a1181613360565b9150506108d2565b506001600b6000828254610a2d91906132f1565b909155505050565b610a3d61155d565b600d5460408051808201909152601281527114149250d154d7d25392551250531256915160721b602082015290610100900460ff1615610a905760405162461bcd60e51b81526004016104849190612eef565b506000610a9c82610583565b90508051600014610ac1578060405162461bcd60e51b81526004016104849190612eef565b6040805160c0808201835262ed4e008252630107ac0060208084019190915263013c68008385015263017124006060808501919091526301a5e0006080808601919091526301da9c0060a0808701919091528651948501875260288552603293850193909352603c95840195909552605090830152605a93820193909352606492810192909252906000610b55858061322a565b9050905060005b6006811015610d3357838160068110610b8557634e487b7160e01b600052603260045260246000fd5b6020020151600e600083815260200190815260200160002060010160016101000a81548163ffffffff021916908363ffffffff160217905550828160068110610bde57634e487b7160e01b600052603260045260246000fd5b602090810291909101516000838152600e90925260408220600101805460ff191660ff9092169190911790555b82811015610d22576000878360068110610c3557634e487b7160e01b600052603260045260246000fd5b602002810190610c45919061322a565b83818110610c6357634e487b7160e01b600052603260045260246000fd5b610c799260206040909202019081019150612899565b90506001600160a01b038116610c8d575060015b878360068110610cad57634e487b7160e01b600052603260045260246000fd5b602002810190610cbd919061322a565b83818110610cdb57634e487b7160e01b600052603260045260246000fd5b6000868152600e602090815260408083206001600160a01b039790971683529581529085902091909402929092019092013590555080610d1a81613360565b915050610c0b565b50610d2c81613360565b9050610b5c565b5050600d805461ff00191661010017905550505050565b600d54610100900460ff1681565b606092915050565b60006001600160a01b038216610d7557600191505b506001600160a01b03166000908152600a602052604090205460ff1690565b610d9c61155d565b6000610da8848461159c565b90508051600014610dcd578060405162461bcd60e51b81526004016104849190612eef565b6001600160a01b038316610de057600192505b506000928352600e602090815260408085206001600160a01b039094168552929052912055565b610e0f61155d565b610e19600061169e565b565b610e298686868686866116f0565b505050505050565b6060600080610e40858561159c565b90508051600014610e5657915060009050610e9c565b6001600160a01b038416610e6957600193505b5050506000828152600e602090815260408083206001600160a01b03851684528252808320548151928301909152918152905b9250929050565b6009546001600160a01b03165b90565b610ec5610ebe611a3c565b8383611a40565b5050565b6000600684106040518060400160405280600d81526020016c544f4b454e49445f52414e474560981b81525090610f135760405162461bcd60e51b81526004016104849190612eef565b505060009283526010602090815260408085206001600160a01b039490941685529281528284209184525290205490565b600e6020526000908152604090206001015460ff811690610100900463ffffffff1682565b6000600683106040518060400160405280600d81526020016c544f4b454e49445f52414e474560981b81525090610fb35760405162461bcd60e51b81526004016104849190612eef565b505060009182526006602090815260408084209284529190529020546001600160a01b031690565b610fe361155d565b6000610fee82611ae3565b90508051600014611013578060405162461bcd60e51b81526004016104849190612eef565b815160005b818110156110f5576001600a600086848151811061104657634e487b7160e01b600052603260045260246000fd5b60200260200101516001600160a01b03166001600160a01b0316815260200190815260200160002060006101000a81548160ff021916908360ff160217905550600c8482815181106110a857634e487b7160e01b600052603260045260246000fd5b60209081029190910181015182546001810184556000938452919092200180546001600160a01b0319166001600160a01b03909216919091179055806110ed81613360565b915050611018565b5080600b600082825461110891906132ba565b9091555050505050565b606061053e82611ae3565b60408051808201909152600c81526b5a45524f5f4144445245535360a01b60208201526000906001600160a01b03831661116a5760405162461bcd60e51b81526004016104849190612eef565b506000805b60068110156112ee576001600160a01b0384166000908152600f602090815260408083208484528252808320805482518185028101850190935280835291929091908301828280156111e057602002820191906000526020600020905b8154815260200190600101908083116111cc575b5050505050905060005b81518110156112d957600082828151811061121557634e487b7160e01b600052603260045260246000fd5b60209081029190910181015160008681526010835260408082206001600160a01b038c1683528452808220838352845280822054888352600e909452902060010154909250610100900463ffffffff1661126f81836132ba565b42111561127e575050506112c7565b60008061128c886000610e31565b91509150815160001482906112b45760405162461bcd60e51b81526004016104849190612eef565b506112bf818a6132ba565b985050505050505b806112d181613360565b9150506111ea565b505080806112e690613360565b91505061116f565b5092915050565b6001600160a01b03918216600090815260086020908152604080832093909416825291909152205460ff1690565b6001600160a01b0382166000908152600f6020908152604080832084845282529182902080548351818402810184019094528084526060939283018282801561138b57602002820191906000526020600020905b815481526020019060010190808311611377575b5050505050905092915050565b6113a0611a3c565b6001600160a01b0316866001600160a01b031614806113c657506113c686610410611a3c565b610e1b5760405162461bcd60e51b815260040161048490613046565b6113ea61155d565b6001600160a01b0381166114105760405162461bcd60e51b815260040161048490612f6c565b6114198161169e565b50565b6001600160e01b031981166301ffc9a760e01b14919050565b60608161144184611ea8565b604051602001611452929190612e0b565b604051602081830303815290604052905092915050565b4260005b838110156115505760008581526010602090815260408083206001600160a01b038a16845290915281208391838189600681106114ba57634e487b7160e01b600052603260045260246000fd5b01546114c691906132ba565b815260208082019290925260409081016000908120939093556001600160a01b0389168352600f82528083208884529091528120908290876006811061151c57634e487b7160e01b600052603260045260246000fd5b015461152891906132ba565b815460018101835560009283526020909220909101558061154881613360565b91505061146d565b506107dd85858585612097565b611565611a3c565b6001600160a01b0316611576610ea3565b6001600160a01b031614610e195760405162461bcd60e51b8152600401610484906130d9565b600d5460609060ff610100909104166001146115e5575060408051808201909152601681527514149250d154d7d393d517d25392551250531256915160521b60208201526104f8565b6005831115611618575060408051808201909152600d81526c544f4b454e49445f52414e474560981b60208201526104f8565b6001600160a01b03821661162b57600191505b6001600160a01b0382166000908152600a602052604090205460ff166001146116885761168182604051806040016040528060118152602001701513d2d15397d55394d5541413d4951151607a1b815250611435565b90506104f8565b5060408051602081019091526000815292915050565b600980546001600160a01b038381166001600160a01b0319831681179093556040519116919082907f8be0079c531659141344cd1fd0a4f28419497f9722a3daafe3b4186f6b6457e090600090a35050565b6001600160a01b0385166117165760405162461bcd60e51b815260040161048490613094565b60408051808201909152600d81526c544f4b454e49445f52414e474560981b60208201526006851061175b5760405162461bcd60e51b81526004016104849190612eef565b5060005b82811015611a2d57600084848381811061178957634e487b7160e01b600052603260045260246000fd5b60008981526010602090815260408083206001600160a01b038f168085529083528184209483029690960135808452938252808320548c8452600e909252909120600101549194509261010090910463ffffffff1691506117ea8985610f69565b6001600160a01b0316146040518060400160405280600f81526020016e1513d2d15397d393d517d3d5d39151608a1b8152509061183a5760405162461bcd60e51b81526004016104849190612eef565b5061184581836132ba565b42116040518060400160405280601081526020016f13919517d4d15391115117d59053125160821b8152509061188e5760405162461bcd60e51b81526004016104849190612eef565b5060008881526010602090815260408083206001600160a01b03808e1680865291845282852088865284528285208590558e168452600f8084528285208d8652845282852091855283528184208c8552909252822090915b82548110156119d3578583828154811061191057634e487b7160e01b600052603260045260246000fd5b906000526020600020015414156119c15782548390611931906001906132f1565b8154811061194f57634e487b7160e01b600052603260045260246000fd5b906000526020600020015483828154811061197a57634e487b7160e01b600052603260045260246000fd5b9060005260206000200181905550828054806119a657634e487b7160e01b600052603160045260246000fd5b600190038181906000526020600020016000905590556119d3565b806119cb81613360565b9150506118e6565b508054600181018255600091825260208083209091018690558a82526010815260408083206001600160a01b038f16845282528083209683529590529384209390935550829150611a25905081613360565b91505061175f565b50610e298686868686866122b8565b3390565b816001600160a01b0316836001600160a01b03161415611a725760405162461bcd60e51b81526004016104849061310e565b6001600160a01b0383811660008181526008602090815260408083209487168084529490915290819020805460ff1916851515179055517f17307eab39ab6107e8899845ad3d59bd9653f200f220920489ca2b5937696c3190611ad6908590612ee4565b60405180910390a3505050565b8051606090600080805b83811015611e8f57600a6000878381518110611b1957634e487b7160e01b600052603260045260246000fd5b6020908102919091018101516001600160a01b031682528101919091526040016000205460ff1660011415611ba757611b9c868281518110611b6b57634e487b7160e01b600052603260045260246000fd5b60200260200101516040518060400160405280600b81526020016a414444525f45584953545360a81b815250611435565b945050505050610541565b6040805160048152602481019091526020810180516001600160e01b03166395d89b4160e01b17905286516000908190899085908110611bf757634e487b7160e01b600052603260045260246000fd5b60200260200101516001600160a01b031683604051611c169190612def565b600060405180830381855afa9150503d8060008114611c51576040519150601f19603f3d011682016040523d82523d6000602084013e611c56565b606091505b5091509150818015611c69575060008151115b15611e4857600081806020019051810190611c849190612c79565b80516020808301919091206040805180820190915260038152622221a360e91b9201919091529091507f580e4ba285e7e1134de91e671c33b0ab748bee7126d5d2e4d0845e6ad176e7eb8114801590611d1957506040805180820190915260048152631554d11560e21b6020909101527f8b1a1d9c2b109e527c9134b25b1a1833b16b6594f92daa9f6d9b7a6024bce9d08114155b15611d8357611d738b8781518110611d4157634e487b7160e01b600052603260045260246000fd5b60200260200101516040518060400160405280600c81526020016b1393d517d110d197d554d11560a21b815250611435565b9950505050505050505050610541565b6040805180820190915260038152622221a360e91b6020909101527f580e4ba285e7e1134de91e671c33b0ab748bee7126d5d2e4d0845e6ad176e7eb811415611e05578715611dfc5760405180604001604052806007815260200166222aa82fa221a360c91b8152509950505050505050505050610541565b60019750611e41565b8615611e3c576040518060400160405280600881526020016711155417d554d11560c21b8152509950505050505050505050610541565b600196505b5050611e79565b611e6b898581518110611d4157634e487b7160e01b600052603260045260246000fd5b975050505050505050610541565b5050508080611e8790613360565b915050611aed565b5050604080516020810190915260008152949350505050565b60408051602a808252606082810190935283831b916f181899199a1a9b1b9c1cb0b131b232b360811b9160009190602082018180368337019050509050600360fc1b81600081518110611f0b57634e487b7160e01b600052603260045260246000fd5b60200101906001600160f81b031916908160001a905350600f60fb1b81600181518110611f4857634e487b7160e01b600052603260045260246000fd5b60200101906001600160f81b031916908160001a90535060005b601481101561208e576000848260148110611f8d57634e487b7160e01b600052603260045260246000fd5b1a905083600482901c60ff1660108110611fb757634e487b7160e01b600052603260045260246000fd5b1a60f81b83611fc78460026132d2565b611fd29060026132ba565b81518110611ff057634e487b7160e01b600052603260045260246000fd5b60200101906001600160f81b031916908160001a90535083600f82166010811061202a57634e487b7160e01b600052603260045260246000fd5b1a60f81b8361203a8460026132d2565b6120459060036132ba565b8151811061206357634e487b7160e01b600052603260045260246000fd5b60200101906001600160f81b031916908160001a90535050808061208690613360565b915050611f62565b50949350505050565b60408051808201909152600d81526c544f4b454e49445f52414e474560981b6020820152600684106120dc5760405162461bcd60e51b81526004016104849190612eef565b506001600160a01b0384166121035760405162461bcd60e51b815260040161048490613157565b600061210d611a3c565b9050600061211a856125d6565b90506000612127856125d6565b905061213883600089858589610e29565b60008681526007602090815260408083206001600160a01b038b1684529091528120805487929061216a9084906132ba565b90915550600090505b858110156121ff57876006600089815260200190815260200160002060008360008b600681106121b357634e487b7160e01b600052603260045260246000fd5b01546121bf91906132ba565b8152602081019190915260400160002080546001600160a01b0319166001600160a01b0392909216919091179055806121f781613360565b915050612173565b50846000876006811061222257634e487b7160e01b600052603260045260246000fd5b01600082825461223291906132ba565b92505081905550866001600160a01b031660006001600160a01b0316846001600160a01b03167fc3d58168c5ae7397731d063d5bbf3d657854427343f4c083240f7aacaa2d0f6289896040516122899291906131f5565b60405180910390a46122a083600089858589610e29565b6122af8360008989898961262f565b50505050505050565b6001600160a01b0385166122de5760405162461bcd60e51b815260040161048490613094565b60408051808201909152600d81526c544f4b454e49445f52414e474560981b6020820152600685106123235760405162461bcd60e51b81526004016104849190612eef565b5060005b828110156123ba5760008581526006602052604081206001600160a01b0389169186868581811061236857634e487b7160e01b600052603260045260246000fd5b60209081029290920135835250810191909152604001600020546001600160a01b0316146123a85760405162461bcd60e51b815260040161048490612fb2565b806123b281613360565b915050612327565b5060006123c5611a3c565b905060006123d2866125d6565b905060006123df856125d6565b90506123ef838a8a858589610e29565b60005b858110156124855760008881526006602052604081206001600160a01b038c169189898581811061243357634e487b7160e01b600052603260045260246000fd5b60209081029290920135835250810191909152604001600020546001600160a01b0316146124735760405162461bcd60e51b815260040161048490612fb2565b8061247d81613360565b9150506123f2565b5060008781526007602090815260408083206001600160a01b038d16845290915281208054878103909155905b868110156125295760008981526006602052604081208b918a8a858181106124ea57634e487b7160e01b600052603260045260246000fd5b6020908102929092013583525081019190915260400160002080546001600160a01b0319166001600160a01b03929092169190911790556001016124b2565b5060008881526007602090815260408083206001600160a01b038d1684529091528120805488929061255c9084906132ba565b90915550506040516001600160a01b03808b16918c8216918716907fc3d58168c5ae7397731d063d5bbf3d657854427343f4c083240f7aacaa2d0f62906125a6908d908c906131f5565b60405180910390a46125bc848b8b86868a610e29565b6125ca848b8b8b8a8a61262f565b50505050505050505050565b6040805160018082528183019092526060916000919060208083019080368337019050509050828160008151811061261e57634e487b7160e01b600052603260045260246000fd5b602090810291909101015292915050565b6001600160a01b0384163b15610e295760405163f23a6e6160e01b81526001600160a01b0385169063f23a6e61906126739089908990889088908890600401612e5b565b602060405180830381600087803b15801561268d57600080fd5b505af19250505080156126bd575060408051601f3d908101601f191682019092526126ba91810190612c5d565b60015b61271d576126c96133a7565b806308c379a0141561270357506126de6133be565b806126e95750612705565b8060405162461bcd60e51b81526004016104849190612eef565b505b60405162461bcd60e51b815260040161048490613198565b6001600160e01b0319811663f23a6e6160e01b146122af5760405162461bcd60e51b815260040161048490612f24565b80356001600160a01b038116811461054157600080fd5b600082601f830112612774578081fd5b8135602061278182613270565b60405161278e8282613334565b8381528281019150858301838502870184018810156127ab578586fd5b855b858110156127d0576127be8261274d565b845292840192908401906001016127ad565b5090979650505050505050565b600082601f8301126127ed578081fd5b813560206127fa82613270565b6040516128078282613334565b838152828101915085830183850287018401881015612824578586fd5b855b858110156127d057813584529284019290840190600101612826565b600082601f830112612852578081fd5b813561285d81613293565b60405161286a8282613334565b82815285602084870101111561287e578384fd5b82602086016020830137918201602001929092529392505050565b6000602082840312156128aa578081fd5b6128b38261274d565b9392505050565b600080604083850312156128cc578081fd5b6128d58361274d565b91506128e36020840161274d565b90509250929050565b600080600080600060a08688031215612903578081fd5b61290c8661274d565b945061291a6020870161274d565b935060408601356001600160401b0380821115612935578283fd5b61294189838a016127dd565b94506060880135915080821115612956578283fd5b61296289838a016127dd565b93506080880135915080821115612977578283fd5b5061298488828901612842565b9150509295509295909350565b60008060008060008060a087890312156129a9578081fd5b6129b28761274d565b95506129c06020880161274d565b94506040870135935060608701356001600160401b03808211156129e2578283fd5b818901915089601f8301126129f5578283fd5b813581811115612a03578384fd5b8a60208083028501011115612a16578384fd5b602083019550809450506080890135915080821115612a33578283fd5b50612a4089828a01612842565b9150509295509295509295565b600080600080600060a08688031215612a64578081fd5b612a6d8661274d565b9450612a7b6020870161274d565b9350604086013592506060860135915060808601356001600160401b03811115612aa3578182fd5b61298488828901612842565b60008060408385031215612ac1578182fd5b612aca8361274d565b915060208301358015158114612ade578182fd5b809150509250929050565b60008060408385031215612afb578182fd5b612b048361274d565b946020939093013593505050565b60008060008060808587031215612b27578182fd5b612b308561274d565b9350602085013592506040850135915060608501356001600160401b03811115612b58578182fd5b612b6487828801612842565b91505092959194509250565b600060208284031215612b81578081fd5b81356001600160401b03811115612b96578182fd5b612ba284828501612764565b949350505050565b60008060408385031215612bbc578182fd5b82356001600160401b0380821115612bd2578384fd5b612bde86838701612764565b93506020850135915080821115612bf3578283fd5b50612c00858286016127dd565b9150509250929050565b600060208284031215612c1b578081fd5b81356001600160401b03811115612c30578182fd5b820160c081018410156128b3578182fd5b600060208284031215612c52578081fd5b81356128b38161344f565b600060208284031215612c6e578081fd5b81516128b38161344f565b600060208284031215612c8a578081fd5b81516001600160401b03811115612c9f578182fd5b8201601f81018413612caf578182fd5b8051612cba81613293565b604051612cc78282613334565b828152866020848601011115612cdb578485fd5b612cec836020830160208701613308565b9695505050505050565b600060408284031215612d07578081fd5b604051612d15604082613334565b612d1e8361274d565b8152602083013560208201528091505092915050565b600060208284031215612d45578081fd5b5035919050565b60008060408385031215612d5e578182fd5b823591506128e36020840161274d565b600080600060608486031215612d82578081fd5b83359250612d926020850161274d565b9150604084013590509250925092565b60008060408385031215612db4578182fd5b50508035926020909101359150565b60008151808452612ddb816020860160208601613308565b601f01601f19169290920160200192915050565b60008251612e01818460208701613308565b9190910192915050565b60008351612e1d818460208801613308565b600160fd1b9083019081528351612e3b816001840160208801613308565b01600101949350505050565b6001600160a01b0391909116815260200190565b6001600160a01b03868116825285166020820152604081018490526060810183905260a060808201819052600090612e9590830184612dc3565b979650505050505050565b6020808252825182820181905260009190848201906040850190845b81811015612ed857835183529284019291840191600101612ebc565b50909695505050505050565b901515815260200190565b6000602082526128b36020830184612dc3565b600060408252612f156040830185612dc3565b90508260208301529392505050565b60208082526028908201527f455243313135353a204552433131353552656365697665722072656a656374656040820152676420746f6b656e7360c01b606082015260800190565b60208082526026908201527f4f776e61626c653a206e6577206f776e657220697320746865207a65726f206160408201526564647265737360d01b606082015260800190565b6020808252602a908201527f455243313135353a207472616e73666572206f6620746f6b656e20746861742060408201526934b9903737ba1037bbb760b11b606082015260800190565b6020808252602a908201527f455243313135353a2061646472657373207a65726f206973206e6f742061207660408201526930b634b21037bbb732b960b11b606082015260800190565b6020808252602e908201527f455243313135353a2063616c6c6572206973206e6f7420746f6b656e206f776e60408201526d195c881bdc88185c1c1c9bdd995960921b606082015260800190565b60208082526025908201527f455243313135353a207472616e7366657220746f20746865207a65726f206164604082015264647265737360d81b606082015260800190565b6020808252818101527f4f776e61626c653a2063616c6c6572206973206e6f7420746865206f776e6572604082015260600190565b60208082526029908201527f455243313135353a2073657474696e6720617070726f76616c20737461747573604082015268103337b91039b2b63360b91b606082015260800190565b60208082526021908201527f455243313135353a206d696e7420746f20746865207a65726f206164647265736040820152607360f81b606082015260800190565b60208082526034908201527f455243313135353a207472616e7366657220746f206e6f6e2d455243313135356040820152732932b1b2b4bb32b91034b6b83632b6b2b73a32b960611b606082015260800190565b90815260200190565b918252602082015260400190565b60ff91909116815260200190565b60ff92909216825263ffffffff16602082015260400190565b6000808335601e19843603018112613240578283fd5b8301803591506001600160401b03821115613259578283fd5b6020019150604081023603821315610e9c57600080fd5b60006001600160401b0382111561328957613289613391565b5060209081020190565b60006001600160401b038211156132ac576132ac613391565b50601f01601f191660200190565b600082198211156132cd576132cd61337b565b500190565b60008160001904831182151516156132ec576132ec61337b565b500290565b6000828210156133035761330361337b565b500390565b60005b8381101561332357818101518382015260200161330b565b838111156107d75750506000910152565b601f8201601f191681016001600160401b038111828210171561335957613359613391565b6040525050565b60006000198214156133745761337461337b565b5060010190565b634e487b7160e01b600052601160045260246000fd5b634e487b7160e01b600052604160045260246000fd5b600060033d1115610eb057600481823e5160e01c90565b600060443d10156133ce57610eb0565b6040516003193d81016004833e81513d6001600160401b0381602484011181841117156133ff575050505050610eb0565b828501915081518181111561341957505050505050610eb0565b843d870101602082850101111561343557505050505050610eb0565b61344460208286010187613334565b509094505050505090565b6001600160e01b03198116811461141957600080fdfea2646970667358221220c4be957d139fad75fb0f1d9d5716f6353a245720760a4b8fe582b95e86c7ab8f64736f6c63430008010033",
  "linkReferences": {},
  "deployedLinkReferences": {},
  "immutableReferences": {},
  "inputSourceName": "project/contracts/test/test_TCF_ERC1155MintTime.sol",
  "devdoc": {
    "kind": "dev",
    "methods": {
      "addSupportedToken(address[])": {
        "details": "TC TC",
        "params": {
          "tokenAddresses": "DCFUSDT"
        }
      },
      "balanceOf(address,uint256)": {
        "details": "See {IERC1155-balanceOf}. Requirements: - `account` cannot be the zero address."
      },
      "balanceOfBatch(address[],uint256[])": {
        "details": "See {IERC1155-balanceOfBatch}. Requirements: - `accounts` and `ids` must have the same length."
      },
      "changeNFTPrice(uint256,address,uint256)": {
        "details": "NFT",
        "params": {
          "amount": "",
          "tokenAddress": "address(0)",
          "tokenID": "NFT/ID0-5"
        }
      },
      "checkInitPricesParams((address,uint256)[][6])": {
        "details": "",
        "params": {
          "prices": "6NFTNFT supportedTokenAmount "
        },
        "returns": {
          "_0": "/"
        }
      },
      "checkTokenAddressesCode(address[])": {
        "details": "DCF/USDT",
        "params": {
          "_tokenAddresses": ""
        },
        "returns": {
          "_0": "/"
        }
      },
      "deleteSupportedToken(address)": {
        "details": "",
        "params": {
          "oldTokenAddress": ""
        }
      },
      "getNFTPrice(uint256,address)": {
        "details": "NFT",
        "params": {
          "_tokenAddress": "address(0)",
          "tokenID": "NFT/ID0-5"
        },
        "returns": {
          "_0": "errorMessage /",
          "_1": "price errorMessage0"
        }
      },
      "initPrice((address,uint256)[][6])": {
        "details": ".TC0",
        "params": {
          "prices": "6NFT,NFT"
        }
      },
      "isApprovedForAll(address,address)": {
        "details": "See {IERC1155-isApprovedForAll}."
      },
      "owner()": {
        "details": "Returns the address of the current owner."
      },
      "renounceOwnership()": {
        "details": "Leaves the contract without owner. It will not be possible to call `onlyOwner` functions. Can only be called by the current owner. NOTE: Renouncing ownership will leave the contract without an owner, thereby disabling any functionality that is only available to the owner."
      },
      "safeBatchTransferFrom(address,address,uint256[],uint256[],bytes)": {
        "details": "See {IERC1155-safeBatchTransferFrom}."
      },
      "safeTransferFrom(address,address,uint256,uint256,bytes)": {
        "details": "See {IERC1155-safeTransferFrom}."
      },
      "setApprovalForAll(address,bool)": {
        "details": "See {IERC1155-setApprovalForAll}."
      },
      "supportsInterface(bytes4)": {
        "details": "See {IERC165-supportsInterface}."
      },
      "test_SafeTransferFrom(address,address,uint256,uint256[],bytes)": {
        "details": "tokenTCF_NFT",
        "params": {
          "indexes": "tokenmintTimes"
        }
      },
      "transferOwnership(address)": {
        "details": "Transfers ownership of the contract to a new account (`newOwner`). Can only be called by the current owner."
      },
      "uri(uint256)": {
        "details": "See {IERC1155MetadataURI-uri}. This implementation returns the same URI for *all* token types. It relies on the token type ID substitution mechanism https://eips.ethereum.org/EIPS/eip-1155#metadata[defined in the EIP]. Clients calling this function must replace the `\\{id\\}` substring with the actual token type ID."
      }
    },
    "version": 1
  },
  "evm": {
    "gasEstimates": {
      "creation": {
        "codeDepositCost": "2693400",
        "executionCost": "107911",
        "totalCost": "2801311"
      },
      "external": {
        "NFTPrice_initialized()": "1169",
        "NFTS(uint256)": "1331",
        "addSupportedToken(address[])": "infinite",
        "balanceOf(address,uint256)": "infinite",
        "balanceOfBatch(address[],uint256[])": "infinite",
        "changeNFTPrice(uint256,address,uint256)": "infinite",
        "checkInitPricesParams((address,uint256)[][6])": "infinite",
        "checkTokenAddressesCode(address[])": "infinite",
        "deleteSupportedToken(address)": "infinite",
        "getNFTPrice(uint256,address)": "infinite",
        "getTotalNFTWorth(address)": "infinite",
        "initPrice((address,uint256)[][6])": "infinite",
        "isApprovedForAll(address,address)": "infinite",
        "isSupported(address)": "1403",
        "owner()": "1161",
        "ownerOf(uint256,uint256)": "infinite",
        "renounceOwnership()": "infinite",
        "safeBatchTransferFrom(address,address,uint256[],uint256[],bytes)": "infinite",
        "safeTransferFrom(address,address,uint256,uint256,bytes)": "infinite",
        "setApprovalForAll(address,bool)": "23394",
        "supportedTokenAmount()": "1118",
        "supportsInterface(bytes4)": "649",
        "testMint(address,uint256,uint256,bytes)": "infinite",
        "testSafeTransferFrom(address,address,uint256,uint256[],bytes)": "infinite",
        "test_MintTimes(uint256,address,uint256)": "infinite",
        "test_OwnedTokenIds(address,uint256)": "infinite",
        "test_SafeTransferFrom(address,address,uint256,uint256[],bytes)": "infinite",
        "tokenAddress_array(uint256)": "2084",
        "transferOwnership(address)": "23837",
        "uri(uint256)": "649"
      }
    }
  },
  "storageLayout": {
    "storage": [
      {
        "astId": 358,
        "contract": "project/contracts/test/test_TCF_ERC1155MintTime.sol:test_TCF_ERC1155MintTime",
        "label": "_nextTokenId",
        "offset": 0,
        "slot": "0",
        "type": "t_array(t_uint256)6_storage"
      },
      {
        "astId": 364,
        "contract": "project/contracts/test/test_TCF_ERC1155MintTime.sol:test_TCF_ERC1155MintTime",
        "label": "_owners",
        "offset": 0,
        "slot": "6",
        "type": "t_mapping(t_uint256,t_mapping(t_uint256,t_address))"
      },
      {
        "astId": 370,
        "contract": "project/contracts/test/test_TCF_ERC1155MintTime.sol:test_TCF_ERC1155MintTime",
        "label": "_balances",
        "offset": 0,
        "slot": "7",
        "type": "t_mapping(t_uint256,t_mapping(t_address,t_uint256))"
      },
      {
        "astId": 376,
        "contract": "project/contracts/test/test_TCF_ERC1155MintTime.sol:test_TCF_ERC1155MintTime",
        "label": "_operatorApprovals",
        "offset": 0,
        "slot": "8",
        "type": "t_mapping(t_address,t_mapping(t_address,t_bool))"
      },
      {
        "astId": 3579,
        "contract": "project/contracts/test/test_TCF_ERC1155MintTime.sol:test_TCF_ERC1155MintTime",
        "label": "_owner",
        "offset": 0,
        "slot": "9",
        "type": "t_address"
      },
      {
        "astId": 1846,
        "contract": "project/contracts/test/test_TCF_ERC1155MintTime.sol:test_TCF_ERC1155MintTime",
        "label": "supportTokenType",
        "offset": 0,
        "slot": "10",
        "type": "t_mapping(t_address,t_uint8)"
      },
      {
        "astId": 1848,
        "contract": "project/contracts/test/test_TCF_ERC1155MintTime.sol:test_TCF_ERC1155MintTime",
        "label": "supportedTokenAmount",
        "offset": 0,
        "slot": "11",
        "type": "t_uint256"
      },
      {
        "astId": 1851,
        "contract": "project/contracts/test/test_TCF_ERC1155MintTime.sol:test_TCF_ERC1155MintTime",
        "label": "tokenAddress_array",
        "offset": 0,
        "slot": "12",
        "type": "t_array(t_address)dyn_storage"
      },
      {
        "astId": 1853,
        "contract": "project/contracts/test/test_TCF_ERC1155MintTime.sol:test_TCF_ERC1155MintTime",
        "label": "initedTokenAddress",
        "offset": 0,
        "slot": "13",
        "type": "t_uint8"
      },
      {
        "astId": 1855,
        "contract": "project/contracts/test/test_TCF_ERC1155MintTime.sol:test_TCF_ERC1155MintTime",
        "label": "NFTPrice_initialized",
        "offset": 1,
        "slot": "13",
        "type": "t_uint8"
      },
      {
        "astId": 1874,
        "contract": "project/contracts/test/test_TCF_ERC1155MintTime.sol:test_TCF_ERC1155MintTime",
        "label": "NFTS",
        "offset": 0,
        "slot": "14",
        "type": "t_mapping(t_uint256,t_struct(equities_store)1869_storage)"
      },
      {
        "astId": 1256,
        "contract": "project/contracts/test/test_TCF_ERC1155MintTime.sol:test_TCF_ERC1155MintTime",
        "label": "_ownedTokenIds",
        "offset": 0,
        "slot": "15",
        "type": "t_mapping(t_address,t_mapping(t_uint256,t_array(t_uint256)dyn_storage))"
      },
      {
        "astId": 1264,
        "contract": "project/contracts/test/test_TCF_ERC1155MintTime.sol:test_TCF_ERC1155MintTime",
        "label": "_mintTimes",
        "offset": 0,
        "slot": "16",
        "type": "t_mapping(t_uint256,t_mapping(t_address,t_mapping(t_uint256,t_uint256)))"
      }
    ],
    "types": {
      "t_address": {
        "encoding": "inplace",
        "label": "address",
        "numberOfBytes": "20"
      },
      "t_array(t_address)dyn_storage": {
        "base": "t_address",
        "encoding": "dynamic_array",
        "label": "address[]",
        "numberOfBytes": "32"
      },
      "t_array(t_uint256)6_storage": {
        "base": "t_uint256",
        "encoding": "inplace",
        "label": "uint256[6]",
        "numberOfBytes": "192"
      },
      "t_array(t_uint256)dyn_storage": {
        "base": "t_uint256",
        "encoding": "dynamic_array",
        "label": "uint256[]",
        "numberOfBytes": "32"
      },
      "t_bool": {
        "encoding": "inplace",
        "label": "bool",
        "numberOfBytes": "1"
      },
      "t_mapping(t_address,t_bool)": {
        "encoding": "mapping",
        "key": "t_address",
        "label": "mapping(address => bool)",
        "numberOfBytes": "32",
        "value": "t_bool"
      },
      "t_mapping(t_address,t_mapping(t_address,t_bool))": {
        "encoding": "mapping",
        "key": "t_address",
        "label": "mapping(address => mapping(address => bool))",
        "numberOfBytes": "32",
        "value": "t_mapping(t_address,t_bool)"
      },
      "t_mapping(t_address,t_mapping(t_uint256,t_array(t_uint256)dyn_storage))": {
        "encoding": "mapping",
        "key": "t_address",
        "label": "mapping(address => mapping(uint256 => uint256[]))",
        "numberOfBytes": "32",
        "value": "t_mapping(t_uint256,t_array(t_uint256)dyn_storage)"
      },
      "t_mapping(t_address,t_mapping(t_uint256,t_uint256))": {
        "encoding": "mapping",
        "key": "t_address",
        "label": "mapping(address => mapping(uint256 => uint256))",
        "numberOfBytes": "32",
        "value": "t_mapping(t_uint256,t_uint256)"
      },
      "t_mapping(t_address,t_uint256)": {
        "encoding": "mapping",
        "key": "t_address",
        "label": "mapping(address => uint256)",
        "numberOfBytes": "32",
        "value": "t_uint256"
      },
      "t_mapping(t_address,t_uint8)": {
        "encoding": "mapping",
        "key": "t_address",
        "label": "mapping(address => uint8)",
        "numberOfBytes": "32",
        "value": "t_uint8"
      },
      "t_mapping(t_uint256,t_address)": {
        "encoding": "mapping",
        "key": "t_uint256",
        "label": "mapping(uint256 => address)",
        "numberOfBytes": "32",
        "value": "t_address"
      },
      "t_mapping(t_uint256,t_array(t_uint256)dyn_storage)": {
        "encoding": "mapping",
        "key": "t_uint256",
        "label": "mapping(uint256 => uint256[])",
        "numberOfBytes": "32",
        "value": "t_array(t_uint256)dyn_storage"
      },
      "t_mapping(t_uint256,t_mapping(t_address,t_mapping(t_uint256,t_uint256)))": {
        "encoding": "mapping",
        "key": "t_uint256",
        "label": "mapping(uint256 => mapping(address => mapping(uint256 => uint256)))",
        "numberOfBytes": "32",
        "value": "t_mapping(t_address,t_mapping(t_uint256,t_uint256))"
      },
      "t_mapping(t_uint256,t_mapping(t_address,t_uint256))": {
        "encoding": "mapping",
        "key": "t_uint256",
        "label": "mapping(uint256 => mapping(address => uint256))",
        "numberOfBytes": "32",
        "value": "t_mapping(t_address,t_uint256)"
      },
      "t_mapping(t_uint256,t_mapping(t_uint256,t_address))": {
        "encoding": "mapping",
        "key": "t_uint256",
        "label": "mapping(uint256 => mapping(uint256 => address))",
        "numberOfBytes": "32",
        "value": "t_mapping(t_uint256,t_address)"
      },
      "t_mapping(t_uint256,t_struct(equities_store)1869_storage)": {
        "encoding": "mapping",
        "key": "t_uint256",
        "label": "mapping(uint256 => struct TCF_NFTPrice.equities_store)",
        "numberOfBytes": "32",
        "value": "t_struct(equities_store)1869_storage"
      },
      "t_mapping(t_uint256,t_uint256)": {
        "encoding": "mapping",
        "key": "t_uint256",
        "label": "mapping(uint256 => uint256)",
        "numberOfBytes": "32",
        "value": "t_uint256"
      },
      "t_struct(equities_store)1869_storage": {
        "encoding": "inplace",
        "label": "struct TCF_NFTPrice.equities_store",
        "members": [
          {
            "astId": 1864,
            "contract": "project/contracts/test/test_TCF_ERC1155MintTime.sol:test_TCF_ERC1155MintTime",
            "label": "prices",
            "offset": 0,
            "slot": "0",
            "type": "t_mapping(t_address,t_uint256)"
          },
          {
            "astId": 1866,
            "contract": "project/contracts/test/test_TCF_ERC1155MintTime.sol:test_TCF_ERC1155MintTime",
            "label": "ratio",
            "offset": 0,
            "slot": "1",
            "type": "t_uint8"
          },
          {
            "astId": 1868,
            "contract": "project/contracts/test/test_TCF_ERC1155MintTime.sol:test_TCF_ERC1155MintTime",
            "label": "indate",
            "offset": 1,
            "slot": "1",
            "type": "t_uint32"
          }
        ],
        "numberOfBytes": "64"
      },
      "t_uint256": {
        "encoding": "inplace",
        "label": "uint256",
        "numberOfBytes": "32"
      },
      "t_uint32": {
        "encoding": "inplace",
        "label": "uint32",
        "numberOfBytes": "4"
      },
      "t_uint8": {
        "encoding": "inplace",
        "label": "uint8",
        "numberOfBytes": "1"
      }
    }
  },
  "userdoc": {
    "kind": "user",
    "methods": {
      "initPrice((address,uint256)[][6])": {
        "notice": "tokenTC"
      }
    },
    "version": 1
  },
  "argsData": "0x",
  "transaction": {
    "hash": "0xf32046ae4d03032aed34ebb08cc66738f10553a18669d2886100c7ef7780e5a2",
    "nonce": "0x9",
    "origin": "0xf39fd6e51aad88f6f4ce6ab8827279cfffb92266"
  }
}