{
  "address": "0xa51c1fc2f0d1a1b8494ed1fe312d7c3a78ed91c0",
  "abi": [
    {
      "anonymous": false,
      "inputs": [
        {
          "indexed": true,
          "internalType": "address",
          "name": "previousOwner",
          "type": "address"
        },
        {
          "indexed": true,
          "internalType": "address",
          "name": "newOwner",
          "type": "address"
        }
      ],
      "name": "OwnershipTransferred",
      "type": "event"
    },
    {
      "anonymous": false,
      "inputs": [
        {
          "indexed": true,
          "internalType": "address",
          "name": "token",
          "type": "address"
        },
        {
          "indexed": true,
          "internalType": "address",
          "name": "from",
          "type": "address"
        },
        {
          "indexed": false,
          "internalType": "uint256",
          "name": "amount",
          "type": "uint256"
        }
      ],
      "name": "TokensReceived",
      "type": "event"
    },
    {
      "anonymous": false,
      "inputs": [
        {
          "indexed": true,
          "internalType": "address",
          "name": "token",
          "type": "address"
        },
        {
          "indexed": true,
          "internalType": "address",
          "name": "to",
          "type": "address"
        },
        {
          "indexed": false,
          "internalType": "uint256",
          "name": "amount",
          "type": "uint256"
        }
      ],
      "name": "TokensWithdrawn",
      "type": "event"
    },
    {
      "inputs": [
        {
          "internalType": "contract IERC20",
          "name": "token",
          "type": "address"
        }
      ],
      "name": "getBalance",
      "outputs": [
        {
          "internalType": "uint256",
          "name": "",
          "type": "uint256"
        }
      ],
      "stateMutability": "view",
      "type": "function"
    },
    {
      "inputs": [],
      "name": "owner",
      "outputs": [
        {
          "internalType": "address",
          "name": "",
          "type": "address"
        }
      ],
      "stateMutability": "view",
      "type": "function"
    },
    {
      "inputs": [],
      "name": "renounceOwnership",
      "outputs": [],
      "stateMutability": "nonpayable",
      "type": "function"
    },
    {
      "inputs": [
        {
          "internalType": "address",
          "name": "newOwner",
          "type": "address"
        }
      ],
      "name": "transferOwnership",
      "outputs": [],
      "stateMutability": "nonpayable",
      "type": "function"
    },
    {
      "stateMutability": "payable",
      "type": "receive"
    }
  ],
  "contractName": "vault_copy",
  "sourceName": "contracts/extensions/vault/vault copy.sol",
  "bytecode": "0x608060405234801561001057600080fd5b5061002161001c61002a565b61002e565b6001805561007e565b3390565b600080546001600160a01b038381166001600160a01b0319831681178455604051919092169283917f8be0079c531659141344cd1fd0a4f28419497f9722a3daafe3b4186f6b6457e09190a35050565b6103d18061008d6000396000f3fe6080604052600436106100435760003560e01c8063715018a61461006e5780638da5cb5b14610085578063f2fde38b146100b0578063f8b2cb4f146100d057610069565b366100695760405162461bcd60e51b815260040161006090610307565b60405180910390fd5b600080fd5b34801561007a57600080fd5b506100836100fd565b005b34801561009157600080fd5b5061009a610111565b6040516100a791906102ad565b60405180910390f35b3480156100bc57600080fd5b506100836100cb366004610272565b610120565b3480156100dc57600080fd5b506100f06100eb366004610272565b61015a565b6040516100a7919061037d565b6101056101df565b61010f600061021e565b565b6000546001600160a01b031690565b6101286101df565b6001600160a01b03811661014e5760405162461bcd60e51b8152600401610060906102c1565b6101578161021e565b50565b6040516370a0823160e01b81526000906001600160a01b038316906370a08231906101899030906004016102ad565b60206040518083038186803b1580156101a157600080fd5b505afa1580156101b5573d6000803e3d6000fd5b505050506040513d601f19601f820116820180604052508101906101d99190610295565b92915050565b6101e761026e565b6001600160a01b03166101f8610111565b6001600160a01b03161461010f5760405162461bcd60e51b815260040161006090610348565b600080546001600160a01b038381166001600160a01b0319831681178455604051919092169283917f8be0079c531659141344cd1fd0a4f28419497f9722a3daafe3b4186f6b6457e09190a35050565b3390565b600060208284031215610283578081fd5b813561028e81610386565b9392505050565b6000602082840312156102a6578081fd5b5051919050565b6001600160a01b0391909116815260200190565b60208082526026908201527f4f776e61626c653a206e6577206f776e657220697320746865207a65726f206160408201526564647265737360d01b606082015260800190565b60208082526021908201527f5468697320636f6e747261637420646f6573206e6f74206163636570742045546040820152600960fb1b606082015260800190565b6020808252818101527f4f776e61626c653a2063616c6c6572206973206e6f7420746865206f776e6572604082015260600190565b90815260200190565b6001600160a01b038116811461015757600080fdfea26469706673582212202ea34cfaa8e64d11491be6922b5ba650c1513b8464cc74640e3b3d833472f91764736f6c63430008010033",
  "linkReferences": {},
  "deployedLinkReferences": {},
  "immutableReferences": {},
  "inputSourceName": "project/contracts/extensions/vault/vault copy.sol",
  "devdoc": {
    "kind": "dev",
    "methods": {
      "getBalance(address)": {
        "details": "查询合约中某 ERC-20 代币的余额"
      },
      "owner()": {
        "details": "Returns the address of the current owner."
      },
      "renounceOwnership()": {
        "details": "Leaves the contract without owner. It will not be possible to call `onlyOwner` functions. Can only be called by the current owner. NOTE: Renouncing ownership will leave the contract without an owner, thereby disabling any functionality that is only available to the owner."
      },
      "transferOwnership(address)": {
        "details": "Transfers ownership of the contract to a new account (`newOwner`). Can only be called by the current owner."
      }
    },
    "version": 1
  },
  "evm": {
    "gasEstimates": {
      "creation": {
        "codeDepositCost": "195400",
        "executionCost": "42712",
        "totalCost": "238112"
      },
      "external": {
        "getBalance(address)": "infinite",
        "owner()": "1070",
        "renounceOwnership()": "infinite",
        "transferOwnership(address)": "infinite"
      },
      "internal": {
        "deposit(contract IERC20,uint256)": "infinite",
        "withdraw(contract IERC20,address,uint256)": "infinite"
      }
    }
  },
  "storageLayout": {
    "storage": [
      {
        "astId": 164,
        "contract": "project/contracts/extensions/vault/vault copy.sol:vault_copy",
        "label": "_owner",
        "offset": 0,
        "slot": "0",
        "type": "t_address"
      },
      {
        "astId": 280,
        "contract": "project/contracts/extensions/vault/vault copy.sol:vault_copy",
        "label": "_status",
        "offset": 0,
        "slot": "1",
        "type": "t_uint256"
      }
    ],
    "types": {
      "t_address": {
        "encoding": "inplace",
        "label": "address",
        "numberOfBytes": "20"
      },
      "t_uint256": {
        "encoding": "inplace",
        "label": "uint256",
        "numberOfBytes": "32"
      }
    }
  },
  "userdoc": {
    "kind": "user",
    "methods": {},
    "version": 1
  },
  "argsData": "0x",
  "transaction": {
    "hash": "0xabc71d7312a9537bddc91047f8b3c105a9472fcb653af8810d72d5dff5c927e1",
    "nonce": "0xc",
    "origin": "0xf39fd6e51aad88f6f4ce6ab8827279cfffb92266"
  }
}