{"abi":[{"type":"function","name":"ESafeTransferFrom","inputs":[{"name":"from","type":"address","internalType":"address"},{"name":"to","type":"address","internalType":"address"},{"name":"id","type":"uint256","internalType":"uint256"},{"name":"indexes","type":"uint256[]","internalType":"uint256[]"},{"name":"data","type":"bytes","internalType":"bytes"}],"outputs":[],"stateMutability":"nonpayable"},{"type":"function","name":"NFTPrice_initialized","inputs":[],"outputs":[{"name":"","type":"uint8","internalType":"uint8"}],"stateMutability":"view"},{"type":"function","name":"NFTS","inputs":[{"name":"","type":"uint256","internalType":"uint256"}],"outputs":[{"name":"ratio","type":"uint8","internalType":"uint8"},{"name":"indate","type":"uint32","internalType":"uint32"}],"stateMutability":"view"},{"type":"function","name":"addSupportedToken","inputs":[{"name":"_tokenAddress","type":"address","internalType":"address"}],"outputs":[],"stateMutability":"nonpayable"},{"type":"function","name":"balanceOf","inputs":[{"name":"account","type":"address","internalType":"address"},{"name":"id","type":"uint256","internalType":"uint256"}],"outputs":[{"name":"","type":"uint256","internalType":"uint256"}],"stateMutability":"view"},{"type":"function","name":"balanceOfBatch","inputs":[{"name":"","type":"address[]","internalType":"address[]"},{"name":"","type":"uint256[]","internalType":"uint256[]"}],"outputs":[{"name":"","type":"uint256[]","internalType":"uint256[]"}],"stateMutability":"view"},{"type":"function","name":"changeDynamicRatio","inputs":[{"name":"tokenID","type":"uint256","internalType":"uint256"},{"name":"newRatio","type":"uint8","internalType":"uint8"}],"outputs":[],"stateMutability":"nonpayable"},{"type":"function","name":"changeNFTPrice","inputs":[{"name":"tokenID","type":"uint256","internalType":"uint256"},{"name":"tokenAddress","type":"address","internalType":"address"},{"name":"amount","type":"uint256","internalType":"uint256"}],"outputs":[],"stateMutability":"nonpayable"},{"type":"function","name":"checkInitPricesParams","inputs":[{"name":"prices","type":"tuple[][6]","internalType":"struct TCF_NFTPrice.priceTypeAndAomut[][6]","components":[{"name":"tokenAddress","type":"address","internalType":"address"},{"name":"amount","type":"uint256","internalType":"uint256"}]}],"outputs":[{"name":"","type":"string","internalType":"string"}],"stateMutability":"view"},{"type":"function","name":"getNFTPrice","inputs":[{"name":"tokenID","type":"uint256","internalType":"uint256"},{"name":"_tokenAddress","type":"address","internalType":"address"}],"outputs":[{"name":"","type":"string","internalType":"string"},{"name":"","type":"uint256","internalType":"uint256"}],"stateMutability":"view"},{"type":"function","name":"getNftMintTime","inputs":[{"name":"tokenId","type":"uint256","internalType":"uint256"},{"name":"account","type":"address","internalType":"address"},{"name":"editionId","type":"uint256","internalType":"uint256"}],"outputs":[{"name":"","type":"uint256","internalType":"uint256"}],"stateMutability":"view"},{"type":"function","name":"getTotalNFTWorth","inputs":[{"name":"owner","type":"address","internalType":"address"}],"outputs":[{"name":"","type":"uint256","internalType":"uint256"}],"stateMutability":"view"},{"type":"function","name":"getUserTokenIds","inputs":[{"name":"account","type":"address","internalType":"address"},{"name":"tokenId","type":"uint256","internalType":"uint256"}],"outputs":[{"name":"","type":"uint256[]","internalType":"uint256[]"}],"stateMutability":"view"},{"type":"function","name":"initPrice","inputs":[{"name":"prices","type":"tuple[][6]","internalType":"struct TCF_NFTPrice.priceTypeAndAomut[][6]","components":[{"name":"tokenAddress","type":"address","internalType":"address"},{"name":"amount","type":"uint256","internalType":"uint256"}]}],"outputs":[],"stateMutability":"nonpayable"},{"type":"function","name":"isApprovedForAll","inputs":[{"name":"account","type":"address","internalType":"address"},{"name":"operator","type":"address","internalType":"address"}],"outputs":[{"name":"","type":"bool","internalType":"bool"}],"stateMutability":"view"},{"type":"function","name":"isSupported","inputs":[{"name":"token","type":"address","internalType":"address"}],"outputs":[{"name":"","type":"uint8","internalType":"uint8"}],"stateMutability":"view"},{"type":"function","name":"owner","inputs":[],"outputs":[{"name":"","type":"address","internalType":"address"}],"stateMutability":"view"},{"type":"function","name":"ownerOf","inputs":[{"name":"tokenId","type":"uint256","internalType":"uint256"},{"name":"editionId","type":"uint256","internalType":"uint256"}],"outputs":[{"name":"","type":"address","internalType":"address"}],"stateMutability":"view"},{"type":"function","name":"renounceOwnership","inputs":[],"outputs":[],"stateMutability":"nonpayable"},{"type":"function","name":"safeBatchTransferFrom","inputs":[{"name":"","type":"address","internalType":"address"},{"name":"","type":"address","internalType":"address"},{"name":"","type":"uint256[]","internalType":"uint256[]"},{"name":"","type":"uint256[]","internalType":"uint256[]"},{"name":"","type":"bytes","internalType":"bytes"}],"outputs":[],"stateMutability":"nonpayable"},{"type":"function","name":"safeTransferFrom","inputs":[{"name":"","type":"address","internalType":"address"},{"name":"","type":"address","internalType":"address"},{"name":"","type":"uint256","internalType":"uint256"},{"name":"","type":"uint256","internalType":"uint256"},{"name":"","type":"bytes","internalType":"bytes"}],"outputs":[],"stateMutability":"nonpayable"},{"type":"function","name":"setApprovalForAll","inputs":[{"name":"operator","type":"address","internalType":"address"},{"name":"approved","type":"bool","internalType":"bool"}],"outputs":[],"stateMutability":"nonpayable"},{"type":"function","name":"supportedTokenAmount","inputs":[],"outputs":[{"name":"","type":"uint256","internalType":"uint256"}],"stateMutability":"view"},{"type":"function","name":"supportsInterface","inputs":[{"name":"interfaceId","type":"bytes4","internalType":"bytes4"}],"outputs":[{"name":"","type":"bool","internalType":"bool"}],"stateMutability":"view"},{"type":"function","name":"testMint","inputs":[{"name":"to","type":"address","internalType":"address"},{"name":"id","type":"uint256","internalType":"uint256"},{"name":"amount","type":"uint256","internalType":"uint256"},{"name":"data","type":"bytes","internalType":"bytes"}],"outputs":[],"stateMutability":"nonpayable"},{"type":"function","name":"testSafeTransferFrom","inputs":[{"name":"from","type":"address","internalType":"address"},{"name":"to","type":"address","internalType":"address"},{"name":"id","type":"uint256","internalType":"uint256"},{"name":"indexes","type":"uint256[]","internalType":"uint256[]"},{"name":"data","type":"bytes","internalType":"bytes"}],"outputs":[],"stateMutability":"nonpayable"},{"type":"function","name":"tokenAddress_array","inputs":[{"name":"","type":"uint256","internalType":"uint256"}],"outputs":[{"name":"","type":"address","internalType":"address"}],"stateMutability":"view"},{"type":"function","name":"transferOwnership","inputs":[{"name":"newOwner","type":"address","internalType":"address"}],"outputs":[],"stateMutability":"nonpayable"},{"type":"function","name":"uri","inputs":[{"name":"","type":"uint256","internalType":"uint256"}],"outputs":[{"name":"","type":"string","internalType":"string"}],"stateMutability":"view"},{"type":"event","name":"ApprovalForAll","inputs":[{"name":"account","type":"address","indexed":true,"internalType":"address"},{"name":"operator","type":"address","indexed":true,"internalType":"address"},{"name":"approved","type":"bool","indexed":false,"internalType":"bool"}],"anonymous":false},{"type":"event","name":"OwnershipTransferred","inputs":[{"name":"previousOwner","type":"address","indexed":true,"internalType":"address"},{"name":"newOwner","type":"address","indexed":true,"internalType":"address"}],"anonymous":false},{"type":"event","name":"TransferBatch","inputs":[{"name":"operator","type":"address","indexed":true,"internalType":"address"},{"name":"from","type":"address","indexed":true,"internalType":"address"},{"name":"to","type":"address","indexed":true,"internalType":"address"},{"name":"ids","type":"uint256[]","indexed":false,"internalType":"uint256[]"},{"name":"values","type":"uint256[]","indexed":false,"internalType":"uint256[]"}],"anonymous":false},{"type":"event","name":"TransferSingle","inputs":[{"name":"operator","type":"address","indexed":true,"internalType":"address"},{"name":"from","type":"address","indexed":true,"internalType":"address"},{"name":"to","type":"address","indexed":true,"internalType":"address"},{"name":"id","type":"uint256","indexed":false,"internalType":"uint256"},{"name":"value","type":"uint256","indexed":false,"internalType":"uint256"}],"anonymous":false},{"type":"event","name":"URI","inputs":[{"name":"value","type":"string","indexed":false,"internalType":"string"},{"name":"id","type":"uint256","indexed":true,"internalType":"uint256"}],"anonymous":false}],"bytecode":{"object":"0x608060405234801561001057600080fd5b5061001a33610097565b600a6020527fbbc70db1b6c7afd11e79c0fb0051300458f1a3acb8ee9789d9b6b26c61ad9bc7805460ff19166001908117909155600c805480830182556000919091527fdf6966c971051c3d54ec59162606531493a51404a002842f56009d7e5cf4a8c70180546001600160a01b03191682179055600b556100e9565b600980546001600160a01b038381166001600160a01b0319831681179093556040519116919082907f8be0079c531659141344cd1fd0a4f28419497f9722a3daafe3b4186f6b6457e090600090a35050565b612e0a80620000f96000396000f3fe608060405234801561001057600080fd5b50600436106101ce5760003560e01c80636d69fcaf11610104578063aa31281c116100a2578063e5030adc11610071578063e5030adc1461044b578063e985e9c51461045e578063f242432a1461049a578063f2fde38b146104ad57600080fd5b8063aa31281c146103c1578063b788920e146103d4578063c9b6b485146103e7578063d9dad80d1461043857600080fd5b806383023c88116100de57806383023c881461036957806386ff91131461037c5780638da5cb5b1461039d578063a22cb465146103ae57600080fd5b80636d69fcaf1461033b578063715018a61461034e578063784da4371461035657600080fd5b80632eb2c2d6116101715780634e1273f41161014b5780634e1273f4146102e25780634f129c53146103025780635582631314610315578063598c27bc1461032857600080fd5b80632eb2c2d6146102985780633a4d2d3a146102ab5780634c8cb672146102be57600080fd5b806319d62e57116101ad57806319d62e571461023c5780631f3fd61814610267578063233612831461027a578063292241f21461028357600080fd5b8062fdd58e146101d357806301ffc9a7146101f95780630e89341c1461021c575b600080fd5b6101e66101e1366004612350565b6104c0565b6040519081526020015b60405180910390f35b61020c610207366004612390565b610560565b60405190151581526020016101f0565b61022f61022a3660046123b4565b6105b0565b6040516101f0919061241d565b61024f61024a3660046123b4565b6105e6565b6040516001600160a01b0390911681526020016101f0565b61022f610275366004612430565b610610565b6101e6600b5481565b61029661029136600461252f565b6108c5565b005b6102966102a6366004612623565b6108d7565b6102966102b9366004612430565b610911565b600d546102d090610100900460ff1681565b60405160ff90911681526020016101f0565b6102f56102f03660046126cc565b610c18565b6040516101f09190612796565b6102d06103103660046127da565b610c55565b6102966103233660046127f5565b610c89565b61029661033636600461282a565b610cfc565b6102966103493660046127da565b610d7a565b610296610e87565b61029661036436600461282a565b610d64565b6102966103773660046128ed565b610e9b565b61038f61038a366004612923565b610f3c565b6040516101f092919061294f565b6009546001600160a01b031661024f565b6102966103bc366004612971565b610fec565b6101e66103cf3660046127f5565b610ffb565b6102f56103e2366004612350565b61104d565b61041a6103f53660046123b4565b600e6020526000908152604090206001015460ff811690610100900463ffffffff1682565b6040805160ff909316835263ffffffff9091166020830152016101f0565b61024f6104463660046129a2565b6110e2565b6101e66104593660046127da565b61112b565b61020c61046c3660046129c4565b6001600160a01b03918216600090815260086020908152604080832093909416825291909152205460ff1690565b6102966104a83660046129ee565b6112cf565b6102966104bb3660046127da565b61130f565b60006001600160a01b0383166104f15760405162461bcd60e51b81526004016104e890612a52565b60405180910390fd5b600682106105355760405162461bcd60e51b81526020600482015260116024820152704552525f544f4b454e49445f52414e474560781b60448201526064016104e8565b5060008181526007602090815260408083206001600160a01b03861684529091529020545b92915050565b60006001600160e01b03198216636cdb3d1360e11b148061059157506001600160e01b031982166303a24d0760e21b145b8061055a57506301ffc9a760e01b6001600160e01b031983161461055a565b60405162461bcd60e51b81526020600482015260086024820152675553455f4575726960c01b60448201526060906064016104e8565b600c81815481106105f657600080fd5b6000918252602090912001546001600160a01b0316905081565b606060005b60068110156108af57600b5483826006811061063357610633612a78565b6020028101906106439190612a8e565b90501461067257505060408051808201909152600a815269282924a1a2a9afa622a760b11b6020820152919050565b600080600085846006811061068957610689612a78565b6020028101906106999190612a8e565b808060200260200160405190810160405280939291908181526020016000905b828210156106e5576106d660408302860136819003810190612ad7565b815260200190600101906106b9565b5050505050905060005b600b5481101561082757600082828151811061070d5761070d612a78565b60209081029190910101515190506001600160a01b0381166107325760019450610737565b600193505b60006001600160a01b031683838151811061075457610754612a78565b6020026020010151600001516001600160a01b0316141580156107b55750600a600084848151811061078857610788612a78565b602090810291909101810151516001600160a01b031682528101919091526040016000205460ff16600114155b156108165761080a8383815181106107cf576107cf612a78565b602002602001015160000151604051806040016040528060118152602001701513d2d15397d55394d5541413d4951151607a1b815250611388565b98975050505050505050565b5061082081612b43565b90506106ef565b50826108615750506040805180820190915260138152721510d7d4149250d157d35554d517d1561254d5606a1b6020820152949350505050565b8161089b5750506040805180820190915260148152731110d197d4149250d157d35554d517d1561254d560621b6020820152949350505050565b505050806108a890612b43565b9050610615565b5050604080516020810190915260008152919050565b6108d1848484846113bc565b50505050565b60405162461bcd60e51b815260206004820152600f60248201526e1393d517d253541311535153951151608a1b60448201526064016104e8565b61091961149b565b600d5460ff166001146109665760405162461bcd60e51b81526020600482015260156024820152741513d2d15397d393d517d253925512505312569151605a1b60448201526064016104e8565b600d54610100900460ff16156109b35760405162461bcd60e51b815260206004820152601260248201527114149250d154d7d25392551250531256915160721b60448201526064016104e8565b60006109be82610610565b905080516000146109e3578060405162461bcd60e51b81526004016104e8919061241d565b6040805160c0808201835262ed4e008252630107ac0060208084019190915263013c68008385015263017124006060808501919091526301a5e0006080808601919091526301da9c0060a0808701919091528651948501875260288552603293850193909352603c95840195909552605090830152605a93820193909352606492810192909252906000610a778580612a8e565b9050905060005b6006811015610c0157838160068110610a9957610a99612a78565b6020020151600e600083815260200190815260200160002060010160016101000a81548163ffffffff021916908363ffffffff160217905550828160068110610ae457610ae4612a78565b602090810291909101516000838152600e90925260408220600101805460ff191660ff9092169190911790555b82811015610bf0576000878360068110610b2d57610b2d612a78565b602002810190610b3d9190612a8e565b83818110610b4d57610b4d612a78565b610b6392602060409092020190810191506127da565b90506001600160a01b038116610b77575060015b878360068110610b8957610b89612a78565b602002810190610b999190612a8e565b83818110610ba957610ba9612a78565b6000868152600e602090815260408083206001600160a01b039790971683529581529085902091909402929092019092013590555080610be881612b43565b915050610b11565b50610bfa81612b43565b9050610a7e565b5050600d805461ff00191661010017905550505050565b60405162461bcd60e51b815260206004820152600f60248201526e1393d517d253541311535153951151608a1b60448201526060906064016104e8565b60006001600160a01b038216610c6a57600191505b506001600160a01b03166000908152600a602052604090205460ff1690565b610c9161149b565b6000610c9d84846114f5565b90508051600014610cc2578060405162461bcd60e51b81526004016104e8919061241d565b6001600160a01b038316610cd557600192505b506000928352600e602090815260408085206001600160a01b039094168552929052912055565b6001600160a01b038616331480610d185750610d18863361046c565b610d645760405162461bcd60e51b815260206004820152601960248201527f43414c4c45525f4e4f545f4f574e45525f415050524f5645440000000000000060448201526064016104e8565b610d728686868686866115f7565b505050505050565b610d8261149b565b600d5460ff1615610dc95760405162461bcd60e51b81526020600482015260116024820152701513d2d15397d253925512505312569151607a1b60448201526064016104e8565b6000610dd4826118a0565b90508051600014610df9578060405162461bcd60e51b81526004016104e8919061241d565b6001600160a01b0382166000818152600a60205260408120805460ff19166001908117909155600c805480830182559083527fdf6966c971051c3d54ec59162606531493a51404a002842f56009d7e5cf4a8c70180546001600160a01b031916909317909255600b8054909190610e71908490612b5c565b9091555050600d805460ff191660011790555050565b610e8f61149b565b610e996000611a7b565b565b610ea361149b565b600d5460ff61010090910416600114610ef75760405162461bcd60e51b815260206004820152601660248201527514149250d154d7d393d517d25392551250531256915160521b60448201526064016104e8565b60068210610f175760405162461bcd60e51b81526004016104e890612b6f565b6000918252600e6020526040909120600101805460ff191660ff909216919091179055565b6060600080610f4b85856114f5565b90508051600014610f6157915060009050610fe5565b6001600160a01b038416610f7457600193505b6000858152600e602090815260408083206001600160a01b038816845290915281205490819003610fd057505060408051808201909152600d81526c14149250d157d393d517d4d155609a1b6020820152915060009050610fe5565b60408051602081019091526000815293509150505b9250929050565b610ff7338383611acd565b5050565b60006006841061101d5760405162461bcd60e51b81526004016104e890612b6f565b5060009283526010602090815260408085206001600160a01b039490941685529281528284209184525290205490565b60606006821061106f5760405162461bcd60e51b81526004016104e890612b6f565b6001600160a01b0383166000908152600f60209081526040808320858452825291829020805483518184028101840190945280845290918301828280156110d557602002820191906000526020600020905b8154815260200190600101908083116110c1575b5050505050905092915050565b6000600683106111045760405162461bcd60e51b81526004016104e890612b6f565b5060009182526006602090815260408084209284529190529020546001600160a01b031690565b60006001600160a01b0382166111535760405162461bcd60e51b81526004016104e890612a52565b6000805b60068110156112c8576001600160a01b0384166000908152600f602090815260408083208484528252808320805482518185028101850190935280835291929091908301828280156111c857602002820191906000526020600020905b8154815260200190600101908083116111b4575b5050505050905060005b81518110156112b35760008282815181106111ef576111ef612a78565b60209081029190910181015160008681526010835260408082206001600160a01b038c1683528452808220838352845280822054888352600e909452902060010154909250610100900463ffffffff166112498183612b5c565b421115611258575050506112a1565b600080611266886000610f3c565b915091508151600014829061128e5760405162461bcd60e51b81526004016104e8919061241d565b50611299818a612b5c565b985050505050505b806112ab81612b43565b9150506111d2565b505080806112c090612b43565b915050611157565b5092915050565b60405162461bcd60e51b81526020600482015260156024820152745553455f45536166655472616e7366657246726f6d60581b60448201526064016104e8565b61131761149b565b6001600160a01b03811661137c5760405162461bcd60e51b815260206004820152602660248201527f4f776e61626c653a206e6577206f776e657220697320746865207a65726f206160448201526564647265737360d01b60648201526084016104e8565b61138581611a7b565b50565b60608161139484611b8b565b6040516020016113a5929190612b96565b604051602081830303815290604052905092915050565b4260005b838110156114875760008581526010602090815260408083206001600160a01b038a16845290915281208391838189600681106113ff576113ff612a78565b015461140b9190612b5c565b815260208082019290925260409081016000908120939093556001600160a01b0389168352600f82528083208884529091528120908290876006811061145357611453612a78565b015461145f9190612b5c565b815460018101835560009283526020909220909101558061147f81612b43565b9150506113c0565b5061149485858585611d18565b5050505050565b6009546001600160a01b03163314610e995760405162461bcd60e51b815260206004820181905260248201527f4f776e61626c653a2063616c6c6572206973206e6f7420746865206f776e657260448201526064016104e8565b600d5460609060ff6101009091041660011461153e575060408051808201909152601681527514149250d154d7d393d517d25392551250531256915160521b602082015261055a565b6005831115611571575060408051808201909152600d81526c544f4b454e49445f52414e474560981b602082015261055a565b6001600160a01b03821661158457600191505b6001600160a01b0382166000908152600a602052604090205460ff166001146115e1576115da82604051806040016040528060118152602001701513d2d15397d55394d5541413d4951151607a1b815250611388565b905061055a565b5060408051602081019091526000815292915050565b6001600160a01b03851661161d5760405162461bcd60e51b81526004016104e890612a52565b6006841061163d5760405162461bcd60e51b81526004016104e890612b6f565b60005b8281101561189157600084848381811061165c5761165c612a78565b60008981526010602090815260408083206001600160a01b038f168085529083528184209483029690960135808452938252808320548c8452600e909252909120600101549194509261010090910463ffffffff1691506116bd89856110e2565b6001600160a01b0316146116e35760405162461bcd60e51b81526004016104e890612bd2565b6116ed8183612b5c565b421161172c5760405162461bcd60e51b815260206004820152600e60248201526d14d1539117d59053125117d3919560921b60448201526064016104e8565b60008881526010602090815260408083206001600160a01b03808e1680865291845282852088865284528285208590558e168452600f8084528285208d8652845282852091855283528184208c8552909252822090915b8254811015611837578583828154811061179f5761179f612a78565b90600052602060002001540361182557825483906117bf90600190612bfb565b815481106117cf576117cf612a78565b90600052602060002001548382815481106117ec576117ec612a78565b90600052602060002001819055508280548061180a5761180a612c0e565b60019003818190600052602060002001600090559055611837565b8061182f81612b43565b915050611783565b508054600181018255600091825260208083209091018690558a82526010815260408083206001600160a01b038f16845282528083209683529590529384209390935550829150611889905081612b43565b915050611640565b50610d72868686868686611ec0565b6001600160a01b0381166000908152600a602052604090205460609060ff166001036118f35761055a826040518060400160405280600b81526020016a414444525f45584953545360a81b815250611388565b60408051600481526024810182526020810180516001600160e01b03166395d89b4160e01b179052905160009081906001600160a01b03861690611938908590612c24565b600060405180830381855afa9150503d8060008114611973576040519150601f19603f3d011682016040523d82523d6000602084013e611978565b606091505b509150915081801561198b575060008151115b15611a31576000818060200190518101906119a69190612c40565b80516020808301919091206040805180820190915260038152622221a360e91b9201919091529091507f580e4ba285e7e1134de91e671c33b0ab748bee7126d5d2e4d0845e6ad176e7eb8114611a2a57611a1f87604051806040016040528060078152602001662727aa2fa221a360c91b815250611388565b979650505050505050565b5050611a63565b611a5a85604051806040016040528060078152602001662727aa2fa221a360c91b815250611388565b95945050505050565b50506040805160208101909152600081529392505050565b600980546001600160a01b038381166001600160a01b0319831681179093556040519116919082907f8be0079c531659141344cd1fd0a4f28419497f9722a3daafe3b4186f6b6457e090600090a35050565b816001600160a01b0316836001600160a01b031603611b1e5760405162461bcd60e51b815260206004820152600d60248201526c20a8282927ab20a62fa9a2a62360991b60448201526064016104e8565b6001600160a01b03838116600081815260086020908152604080832094871680845294825291829020805460ff191686151590811790915591519182527f17307eab39ab6107e8899845ad3d59bd9653f200f220920489ca2b5937696c31910160405180910390a3505050565b60408051602a808252606082810190935283831b916f181899199a1a9b1b9c1cb0b131b232b360811b9160009190602082018180368337019050509050600360fc1b81600081518110611be057611be0612a78565b60200101906001600160f81b031916908160001a905350600f60fb1b81600181518110611c0f57611c0f612a78565b60200101906001600160f81b031916908160001a90535060005b6014811015611d0f576000848260148110611c4657611c46612a78565b1a905083600482901c60ff1660108110611c6257611c62612a78565b1a60f81b83611c72846002612cc1565b611c7d906002612b5c565b81518110611c8d57611c8d612a78565b60200101906001600160f81b031916908160001a90535083600f821660108110611cb957611cb9612a78565b1a60f81b83611cc9846002612cc1565b611cd4906003612b5c565b81518110611ce457611ce4612a78565b60200101906001600160f81b031916908160001a905350508080611d0790612b43565b915050611c29565b50949350505050565b60068310611d385760405162461bcd60e51b81526004016104e890612b6f565b6001600160a01b038416611d5e5760405162461bcd60e51b81526004016104e890612a52565b336000611d6a85612167565b90506000611d7785612167565b905060008681526007602090815260408083206001600160a01b038b16845290915281208054879290611dab908490612b5c565b90915550600090505b85811015611e3257876006600089815260200190815260200160002060008360008b60068110611de657611de6612a78565b0154611df29190612b5c565b8152602081019190915260400160002080546001600160a01b0319166001600160a01b039290921691909117905580611e2a81612b43565b915050611db4565b508460008760068110611e4757611e47612a78565b016000828254611e579190612b5c565b909155505060408051878152602081018790526001600160a01b03808a1692600092918716917fc3d58168c5ae7397731d063d5bbf3d657854427343f4c083240f7aacaa2d0f62910160405180910390a4611eb7836000898989896121b2565b50505050505050565b6001600160a01b038516611ee65760405162461bcd60e51b81526004016104e890612a52565b60068410611f065760405162461bcd60e51b81526004016104e890612b6f565b60005b82811015611f8e5760008581526006602052604081206001600160a01b03891691868685818110611f3c57611f3c612a78565b60209081029290920135835250810191909152604001600020546001600160a01b031614611f7c5760405162461bcd60e51b81526004016104e890612bd2565b80611f8681612b43565b915050611f09565b50336000611f9b86612167565b90506000611fa885612167565b905060005b858110156120325760008881526006602052604081206001600160a01b038c1691898985818110611fe057611fe0612a78565b60209081029290920135835250810191909152604001600020546001600160a01b0316146120205760405162461bcd60e51b81526004016104e890612bd2565b8061202a81612b43565b915050611fad565b5060008781526007602090815260408083206001600160a01b038d16845290915281208054878103909155905b868110156120c85760008981526006602052604081208b918a8a8581811061208957612089612a78565b6020908102929092013583525081019190915260400160002080546001600160a01b0319166001600160a01b039290921691909117905560010161205f565b5060008881526007602090815260408083206001600160a01b038d168452909152812080548892906120fb908490612b5c565b909155505060408051898152602081018890526001600160a01b038b8116928d821692918816917fc3d58168c5ae7397731d063d5bbf3d657854427343f4c083240f7aacaa2d0f62910160405180910390a461215b848b8b8b8a8a6121b2565b50505050505050505050565b604080516001808252818301909252606091600091906020808301908036833701905050905082816000815181106121a1576121a1612a78565b602090810291909101015292915050565b6001600160a01b0384163b15610d725760405163f23a6e6160e01b81526001600160a01b0385169063f23a6e61906121f69089908990889088908890600401612cd8565b6020604051808303816000875af1925050508015612231575060408051601f3d908101601f1916820190925261222e91810190612d12565b60015b6122d45761223d612d2f565b806308c379a0036122765750612251612d4b565b8061225c5750612278565b8060405162461bcd60e51b81526004016104e8919061241d565b505b60405162461bcd60e51b815260206004820152602b60248201527f7472616e736665725f746f5f6e6f6e2d4552433131353552656365697665725f60448201526a34b6b83632b6b2b73a32b960a91b60648201526084016104e8565b6001600160e01b0319811663f23a6e6160e01b14611eb75760405162461bcd60e51b815260206004820152601f60248201527f4552433131353552454345495645525f52454a45435445445f544f4b454e530060448201526064016104e8565b80356001600160a01b038116811461234b57600080fd5b919050565b6000806040838503121561236357600080fd5b61236c83612334565b946020939093013593505050565b6001600160e01b03198116811461138557600080fd5b6000602082840312156123a257600080fd5b81356123ad8161237a565b9392505050565b6000602082840312156123c657600080fd5b5035919050565b60005b838110156123e85781810151838201526020016123d0565b50506000910152565b600081518084526124098160208601602086016123cd565b601f01601f19169290920160200192915050565b6020815260006123ad60208301846123f1565b60006020828403121561244257600080fd5b81356001600160401b0381111561245857600080fd5b820160c081018410156123ad57600080fd5b634e487b7160e01b600052604160045260246000fd5b601f8201601f191681016001600160401b03811182821017156124a5576124a561246a565b6040525050565b60006001600160401b038211156124c5576124c561246a565b50601f01601f191660200190565b600082601f8301126124e457600080fd5b81356124ef816124ac565b6040516124fc8282612480565b82815285602084870101111561251157600080fd5b82602086016020830137600092810160200192909252509392505050565b6000806000806080858703121561254557600080fd5b61254e85612334565b9350602085013592506040850135915060608501356001600160401b0381111561257757600080fd5b612583878288016124d3565b91505092959194509250565b60006001600160401b038211156125a8576125a861246a565b5060051b60200190565b600082601f8301126125c357600080fd5b813560206125d08261258f565b6040516125dd8282612480565b83815260059390931b85018201928281019150868411156125fd57600080fd5b8286015b848110156126185780358352918301918301612601565b509695505050505050565b600080600080600060a0868803121561263b57600080fd5b61264486612334565b945061265260208701612334565b935060408601356001600160401b038082111561266e57600080fd5b61267a89838a016125b2565b9450606088013591508082111561269057600080fd5b61269c89838a016125b2565b935060808801359150808211156126b257600080fd5b506126bf888289016124d3565b9150509295509295909350565b600080604083850312156126df57600080fd5b82356001600160401b03808211156126f657600080fd5b818501915085601f83011261270a57600080fd5b813560206127178261258f565b6040516127248282612480565b83815260059390931b850182019282810191508984111561274457600080fd5b948201945b838610156127695761275a86612334565b82529482019490820190612749565b9650508601359250508082111561277f57600080fd5b5061278c858286016125b2565b9150509250929050565b6020808252825182820181905260009190848201906040850190845b818110156127ce578351835292840192918401916001016127b2565b50909695505050505050565b6000602082840312156127ec57600080fd5b6123ad82612334565b60008060006060848603121561280a57600080fd5b8335925061281a60208501612334565b9150604084013590509250925092565b60008060008060008060a0878903121561284357600080fd5b61284c87612334565b955061285a60208801612334565b94506040870135935060608701356001600160401b038082111561287d57600080fd5b818901915089601f83011261289157600080fd5b8135818111156128a057600080fd5b8a60208260051b85010111156128b557600080fd5b6020830195508094505060808901359150808211156128d357600080fd5b506128e089828a016124d3565b9150509295509295509295565b6000806040838503121561290057600080fd5b82359150602083013560ff8116811461291857600080fd5b809150509250929050565b6000806040838503121561293657600080fd5b8235915061294660208401612334565b90509250929050565b60408152600061296260408301856123f1565b90508260208301529392505050565b6000806040838503121561298457600080fd5b61298d83612334565b91506020830135801515811461291857600080fd5b600080604083850312156129b557600080fd5b50508035926020909101359150565b600080604083850312156129d757600080fd5b6129e083612334565b915061294660208401612334565b600080600080600060a08688031215612a0657600080fd5b612a0f86612334565b9450612a1d60208701612334565b9350604086013592506060860135915060808601356001600160401b03811115612a4657600080fd5b6126bf888289016124d3565b6020808252600c908201526b5a45524f5f4144445245535360a01b604082015260600190565b634e487b7160e01b600052603260045260246000fd5b6000808335601e19843603018112612aa557600080fd5b8301803591506001600160401b03821115612abf57600080fd5b6020019150600681901b3603821315610fe557600080fd5b600060408284031215612ae957600080fd5b604051604081018181106001600160401b0382111715612b0b57612b0b61246a565b604052612b1783612334565b8152602083013560208201528091505092915050565b634e487b7160e01b600052601160045260246000fd5b600060018201612b5557612b55612b2d565b5060010190565b8082018082111561055a5761055a612b2d565b6020808252600d908201526c544f4b454e49445f52414e474560981b604082015260600190565b60008351612ba88184602088016123cd565b600160fd1b9083019081528351612bc68160018401602088016123cd565b01600101949350505050565b6020808252600f908201526e1513d2d15397d393d517d3d5d39151608a1b604082015260600190565b8181038181111561055a5761055a612b2d565b634e487b7160e01b600052603160045260246000fd5b60008251612c368184602087016123cd565b9190910192915050565b600060208284031215612c5257600080fd5b81516001600160401b03811115612c6857600080fd5b8201601f81018413612c7957600080fd5b8051612c84816124ac565b604051612c918282612480565b828152866020848601011115612ca657600080fd5b612cb78360208301602087016123cd565b9695505050505050565b808202811582820484141761055a5761055a612b2d565b6001600160a01b03868116825285166020820152604081018490526060810183905260a060808201819052600090611a1f908301846123f1565b600060208284031215612d2457600080fd5b81516123ad8161237a565b600060033d1115612d485760046000803e5060005160e01c5b90565b600060443d1015612d595790565b6040516003193d81016004833e81513d6001600160401b038160248401118184111715612d8857505050505090565b8285019150815181811115612da05750505050505090565b843d8701016020828501011115612dba5750505050505090565b612dc960208286010187612480565b50909594505050505056fea2646970667358221220df6cda4223966bffa6dd3819cb186f78148b4dbc9e6072388910664989ad47b864736f6c63430008140033","linkReferences":{}},"methodIdentifiers":{"ESafeTransferFrom(address,address,uint256,uint256[],bytes)":"598c27bc","NFTPrice_initialized()":"4c8cb672","NFTS(uint256)":"c9b6b485","addSupportedToken(address)":"6d69fcaf","balanceOf(address,uint256)":"00fdd58e","balanceOfBatch(address[],uint256[])":"4e1273f4","changeDynamicRatio(uint256,uint8)":"83023c88","changeNFTPrice(uint256,address,uint256)":"55826313","checkInitPricesParams((address,uint256)[][6])":"1f3fd618","getNFTPrice(uint256,address)":"86ff9113","getNftMintTime(uint256,address,uint256)":"aa31281c","getTotalNFTWorth(address)":"e5030adc","getUserTokenIds(address,uint256)":"b788920e","initPrice((address,uint256)[][6])":"3a4d2d3a","isApprovedForAll(address,address)":"e985e9c5","isSupported(address)":"4f129c53","owner()":"8da5cb5b","ownerOf(uint256,uint256)":"d9dad80d","renounceOwnership()":"715018a6","safeBatchTransferFrom(address,address,uint256[],uint256[],bytes)":"2eb2c2d6","safeTransferFrom(address,address,uint256,uint256,bytes)":"f242432a","setApprovalForAll(address,bool)":"a22cb465","supportedTokenAmount()":"23361283","supportsInterface(bytes4)":"01ffc9a7","testMint(address,uint256,uint256,bytes)":"292241f2","testSafeTransferFrom(address,address,uint256,uint256[],bytes)":"784da437","tokenAddress_array(uint256)":"19d62e57","transferOwnership(address)":"f2fde38b","uri(uint256)":"0e89341c"},"id":55}