{"abi":[{"type":"function","name":"_mintExample","inputs":[{"name":"to","type":"address","internalType":"address"},{"name":"amount","type":"uint256","internalType":"uint256"}],"outputs":[],"stateMutability":"nonpayable"},{"type":"function","name":"allowance","inputs":[{"name":"owner","type":"address","internalType":"address"},{"name":"spender","type":"address","internalType":"address"}],"outputs":[{"name":"","type":"uint256","internalType":"uint256"}],"stateMutability":"view"},{"type":"function","name":"approve","inputs":[{"name":"spender","type":"address","internalType":"address"},{"name":"amount","type":"uint256","internalType":"uint256"}],"outputs":[{"name":"","type":"bool","internalType":"bool"}],"stateMutability":"nonpayable"},{"type":"function","name":"approveAndCall","inputs":[{"name":"","type":"address","internalType":"address"},{"name":"","type":"uint256","internalType":"uint256"}],"outputs":[{"name":"","type":"bool","internalType":"bool"}],"stateMutability":"pure"},{"type":"function","name":"approveAndCall","inputs":[{"name":"","type":"address","internalType":"address"},{"name":"","type":"uint256","internalType":"uint256"},{"name":"","type":"bytes","internalType":"bytes"}],"outputs":[{"name":"","type":"bool","internalType":"bool"}],"stateMutability":"pure"},{"type":"function","name":"balanceOf","inputs":[{"name":"account","type":"address","internalType":"address"}],"outputs":[{"name":"","type":"uint256","internalType":"uint256"}],"stateMutability":"view"},{"type":"function","name":"decimals","inputs":[],"outputs":[{"name":"","type":"uint8","internalType":"uint8"}],"stateMutability":"view"},{"type":"function","name":"decreaseAllowance","inputs":[{"name":"spender","type":"address","internalType":"address"},{"name":"subtractedValue","type":"uint256","internalType":"uint256"}],"outputs":[{"name":"","type":"bool","internalType":"bool"}],"stateMutability":"nonpayable"},{"type":"function","name":"increaseAllowance","inputs":[{"name":"spender","type":"address","internalType":"address"},{"name":"addedValue","type":"uint256","internalType":"uint256"}],"outputs":[{"name":"","type":"bool","internalType":"bool"}],"stateMutability":"nonpayable"},{"type":"function","name":"name","inputs":[],"outputs":[{"name":"","type":"string","internalType":"string"}],"stateMutability":"view"},{"type":"function","name":"supportsInterface","inputs":[{"name":"interfaceId","type":"bytes4","internalType":"bytes4"}],"outputs":[{"name":"","type":"bool","internalType":"bool"}],"stateMutability":"view"},{"type":"function","name":"symbol","inputs":[],"outputs":[{"name":"","type":"string","internalType":"string"}],"stateMutability":"view"},{"type":"function","name":"totalSupply","inputs":[],"outputs":[{"name":"","type":"uint256","internalType":"uint256"}],"stateMutability":"view"},{"type":"function","name":"transfer","inputs":[{"name":"to","type":"address","internalType":"address"},{"name":"amount","type":"uint256","internalType":"uint256"}],"outputs":[{"name":"","type":"bool","internalType":"bool"}],"stateMutability":"nonpayable"},{"type":"function","name":"transferAndCall","inputs":[{"name":"","type":"address","internalType":"address"},{"name":"","type":"uint256","internalType":"uint256"}],"outputs":[{"name":"","type":"bool","internalType":"bool"}],"stateMutability":"pure"},{"type":"function","name":"transferAndCall","inputs":[{"name":"to","type":"address","internalType":"address"},{"name":"value","type":"uint256","internalType":"uint256"},{"name":"data","type":"bytes","internalType":"bytes"}],"outputs":[{"name":"","type":"bool","internalType":"bool"}],"stateMutability":"nonpayable"},{"type":"function","name":"transferFrom","inputs":[{"name":"from","type":"address","internalType":"address"},{"name":"to","type":"address","internalType":"address"},{"name":"amount","type":"uint256","internalType":"uint256"}],"outputs":[{"name":"","type":"bool","internalType":"bool"}],"stateMutability":"nonpayable"},{"type":"function","name":"transferFromAndCall","inputs":[{"name":"","type":"address","internalType":"address"},{"name":"","type":"address","internalType":"address"},{"name":"","type":"uint256","internalType":"uint256"},{"name":"","type":"bytes","internalType":"bytes"}],"outputs":[{"name":"","type":"bool","internalType":"bool"}],"stateMutability":"pure"},{"type":"function","name":"transferFromAndCall","inputs":[{"name":"","type":"address","internalType":"address"},{"name":"","type":"address","internalType":"address"},{"name":"","type":"uint256","internalType":"uint256"}],"outputs":[{"name":"","type":"bool","internalType":"bool"}],"stateMutability":"pure"},{"type":"event","name":"Approval","inputs":[{"name":"owner","type":"address","indexed":true,"internalType":"address"},{"name":"spender","type":"address","indexed":true,"internalType":"address"},{"name":"value","type":"uint256","indexed":false,"internalType":"uint256"}],"anonymous":false},{"type":"event","name":"Transfer","inputs":[{"name":"from","type":"address","indexed":true,"internalType":"address"},{"name":"to","type":"address","indexed":true,"internalType":"address"},{"name":"value","type":"uint256","indexed":false,"internalType":"uint256"}],"anonymous":false}],"bytecode":{"object":"0x608060405234801561001057600080fd5b50610f25806100206000396000f3fe608060405234801561001057600080fd5b50600436106101215760003560e01c80634000aea0116100ad578063a9059cbb11610071578063a9059cbb1461023c578063c1d34b891461024f578063cae9ca511461025d578063d8fbe9941461026b578063dd62ed3e1461027957600080fd5b80634000aea0146101d057806370a08231146101e357806395d89b411461020c578063998df48814610214578063a457c2d71461022957600080fd5b806318160ddd116100f457806318160ddd1461018957806323b872dd1461019b578063313ce567146101ae5780633177029f1461017657806339509351146101bd57600080fd5b806301ffc9a71461012657806306fdde031461014e578063095ea7b3146101635780631296ee6214610176575b600080fd5b610139610134366004610b49565b61028c565b60405190151581526020015b60405180910390f35b6101566102b7565b6040516101459190610bb3565b610139610171366004610be2565b610349565b610139610184366004610be2565b610361565b6003545b604051908152602001610145565b6101396101a9366004610c0c565b6103a3565b60405160098152602001610145565b6101396101cb366004610be2565b6103c7565b6101396101de366004610ceb565b6103e9565b61018d6101f1366004610d42565b6001600160a01b031660009081526001602052604090205490565b61015661049f565b610227610222366004610be2565b6104ae565b005b610139610237366004610be2565b6104bc565b61013961024a366004610be2565b610537565b610139610184366004610d5d565b610139610184366004610ceb565b610139610184366004610c0c565b61018d610287366004610dc5565b610545565b60006001600160e01b0319821663b0202a1160e01b14806102b157506102b182610570565b92915050565b6060600480546102c690610df8565b80601f01602080910402602001604051908101604052809291908181526020018280546102f290610df8565b801561033f5780601f106103145761010080835404028352916020019161033f565b820191906000526020600020905b81548152906001019060200180831161032257829003601f168201915b5050505050905090565b6000336103578185856105c0565b5060019392505050565b60405162461bcd60e51b815260206004820152600f60248201526e1393d517d253541311535153951151608a1b60448201526000906064015b60405180910390fd5b6000336103b18582856106e4565b6103bc85858561075e565b506001949350505050565b6000336103578185856103da8383610545565b6103e49190610e32565b6105c0565b6000815160401461043c5760405162461bcd60e51b815260206004820152601c60248201527f455243313336333a20696e76616c6964206461746120666f726d617400000000604482015260640161039a565b6104468484610537565b6104925760405162461bcd60e51b815260206004820152601860248201527f455243313336333a207472616e73666572206661696c65640000000000000000604482015260640161039a565b6103573333868686610909565b6060600580546102c690610df8565b6104b88282610a6f565b5050565b600033816104ca8286610545565b90508381101561052a5760405162461bcd60e51b815260206004820152602560248201527f45524332303a2064656372656173656420616c6c6f77616e63652062656c6f77604482015264207a65726f60d81b606482015260840161039a565b6103bc82868684036105c0565b60003361035781858561075e565b6001600160a01b03918216600090815260026020908152604080832093909416825291909152205490565b60006001600160e01b031982166336372b0760e01b14806105a157506001600160e01b0319821663a219a02560e01b145b806102b157506301ffc9a760e01b6001600160e01b03198316146102b1565b6001600160a01b0383166106225760405162461bcd60e51b8152602060048201526024808201527f45524332303a20617070726f76652066726f6d20746865207a65726f206164646044820152637265737360e01b606482015260840161039a565b6001600160a01b0382166106835760405162461bcd60e51b815260206004820152602260248201527f45524332303a20617070726f766520746f20746865207a65726f206164647265604482015261737360f01b606482015260840161039a565b6001600160a01b0383811660008181526002602090815260408083209487168084529482529182902085905590518481527f8c5be1e5ebec7d5bd14f71427d1e84f3dd0314c0f7b2291e5b200ac8c7c3b925910160405180910390a3505050565b60006106f08484610545565b90506000198114610758578181101561074b5760405162461bcd60e51b815260206004820152601d60248201527f45524332303a20696e73756666696369656e7420616c6c6f77616e6365000000604482015260640161039a565b61075884848484036105c0565b50505050565b6001600160a01b0383166107c25760405162461bcd60e51b815260206004820152602560248201527f45524332303a207472616e736665722066726f6d20746865207a65726f206164604482015264647265737360d81b606482015260840161039a565b6001600160a01b0382166108245760405162461bcd60e51b815260206004820152602360248201527f45524332303a207472616e7366657220746f20746865207a65726f206164647260448201526265737360e81b606482015260840161039a565b6001600160a01b0383166000908152600160205260409020548181101561089c5760405162461bcd60e51b815260206004820152602660248201527f45524332303a207472616e7366657220616d6f756e7420657863656564732062604482015265616c616e636560d01b606482015260840161039a565b6001600160a01b0380851660008181526001602052604080822086860390559286168082529083902080548601905591517fddf252ad1be2c89b69c2b068fc378daa952ba7f163c4a11628f55a4df523b3ef906108fc9086815260200190565b60405180910390a3610758565b826001600160a01b03163b60000361096d5760405162461bcd60e51b815260206004820152602160248201527f455243313336333a207472616e7366657220746f206e6f6e2d636f6e747261636044820152601d60fa1b606482015260840161039a565b604051632229f29760e21b81526001600160a01b038416906388a7ca5c9061099f908890889087908790600401610e53565b6020604051808303816000875af19250505080156109da575060408051601f3d908101601f191682019092526109d791810190610e90565b60015b610a37573d808015610a08576040519150601f19603f3d011682016040523d82523d6000602084013e610a0d565b606091505b508051600003610a2f5760405162461bcd60e51b815260040161039a90610ead565b805160208201fd5b6001600160e01b03198116632229f29760e21b14610a675760405162461bcd60e51b815260040161039a90610ead565b505050505050565b6001600160a01b038216610ac55760405162461bcd60e51b815260206004820152601f60248201527f45524332303a206d696e7420746f20746865207a65726f206164647265737300604482015260640161039a565b8060036000828254610ad79190610e32565b90915550506001600160a01b0382166000818152600160209081526040808320805486019055518481527fddf252ad1be2c89b69c2b068fc378daa952ba7f163c4a11628f55a4df523b3ef910160405180910390a35050565b6001600160e01b031981168114610b4657600080fd5b50565b600060208284031215610b5b57600080fd5b8135610b6681610b30565b9392505050565b6000815180845260005b81811015610b9357602081850181015186830182015201610b77565b506000602082860101526020601f19601f83011685010191505092915050565b602081526000610b666020830184610b6d565b80356001600160a01b0381168114610bdd57600080fd5b919050565b60008060408385031215610bf557600080fd5b610bfe83610bc6565b946020939093013593505050565b600080600060608486031215610c2157600080fd5b610c2a84610bc6565b9250610c3860208501610bc6565b9150604084013590509250925092565b634e487b7160e01b600052604160045260246000fd5b600082601f830112610c6f57600080fd5b813567ffffffffffffffff80821115610c8a57610c8a610c48565b604051601f8301601f19908116603f01168101908282118183101715610cb257610cb2610c48565b81604052838152866020858801011115610ccb57600080fd5b836020870160208301376000602085830101528094505050505092915050565b600080600060608486031215610d0057600080fd5b610d0984610bc6565b925060208401359150604084013567ffffffffffffffff811115610d2c57600080fd5b610d3886828701610c5e565b9150509250925092565b600060208284031215610d5457600080fd5b610b6682610bc6565b60008060008060808587031215610d7357600080fd5b610d7c85610bc6565b9350610d8a60208601610bc6565b925060408501359150606085013567ffffffffffffffff811115610dad57600080fd5b610db987828801610c5e565b91505092959194509250565b60008060408385031215610dd857600080fd5b610de183610bc6565b9150610def60208401610bc6565b90509250929050565b600181811c90821680610e0c57607f821691505b602082108103610e2c57634e487b7160e01b600052602260045260246000fd5b50919050565b808201808211156102b157634e487b7160e01b600052601160045260246000fd5b6001600160a01b0385811682528416602082015260408101839052608060608201819052600090610e8690830184610b6d565b9695505050505050565b600060208284031215610ea257600080fd5b8151610b6681610b30565b60208082526022908201527f455243313336333a20746f206973206120696e636f7272656374206164647265604082015261737360f01b60608201526080019056fea2646970667358221220af64b4db3a4ca7c95fd070d44790f001f98043528c9e7579675ea3f93b36f12164736f6c63430008140033","linkReferences":{}},"methodIdentifiers":{"_mintExample(address,uint256)":"998df488","allowance(address,address)":"dd62ed3e","approve(address,uint256)":"095ea7b3","approveAndCall(address,uint256)":"3177029f","approveAndCall(address,uint256,bytes)":"cae9ca51","balanceOf(address)":"70a08231","decimals()":"313ce567","decreaseAllowance(address,uint256)":"a457c2d7","increaseAllowance(address,uint256)":"39509351","name()":"06fdde03","supportsInterface(bytes4)":"01ffc9a7","symbol()":"95d89b41","totalSupply()":"18160ddd","transfer(address,uint256)":"a9059cbb","transferAndCall(address,uint256)":"1296ee62","transferAndCall(address,uint256,bytes)":"4000aea0","transferFrom(address,address,uint256)":"23b872dd","transferFromAndCall(address,address,uint256)":"d8fbe994","transferFromAndCall(address,address,uint256,bytes)":"c1d34b89"},"id":51}