{"abi":[{"type":"function","name":"testUintToString","inputs":[{"name":"value","type":"uint256","internalType":"uint256"}],"outputs":[{"name":"","type":"string","internalType":"string"}],"stateMutability":"pure"}],"bytecode":{"object":"0x608060405234801561001057600080fd5b506102d9806100206000396000f3fe608060405234801561001057600080fd5b506004361061002b5760003560e01c80639de6111e14610030575b600080fd5b61004361003e366004610179565b610059565b6040516100509190610192565b60405180910390f35b60606100648261006a565b92915050565b6060816000036100915750506040805180820190915260018152600360fc1b602082015290565b8160005b81156100bb57806100a5816101f6565b91506100b49050600a83610225565b9150610095565b60008167ffffffffffffffff8111156100d6576100d6610239565b6040519080825280601f01601f191660200182016040528015610100576020820181803683370190505b508593509050815b831561017057806101188161024f565b91506101279050600a85610266565b61013290603061027a565b60f81b8282815181106101475761014761028d565b60200101906001600160f81b031916908160001a905350610169600a85610225565b9350610108565b50949350505050565b60006020828403121561018b57600080fd5b5035919050565b600060208083528351808285015260005b818110156101bf578581018301518582016040015282016101a3565b506000604082860101526040601f19601f8301168501019250505092915050565b634e487b7160e01b600052601160045260246000fd5b600060018201610208576102086101e0565b5060010190565b634e487b7160e01b600052601260045260246000fd5b6000826102345761023461020f565b500490565b634e487b7160e01b600052604160045260246000fd5b60008161025e5761025e6101e0565b506000190190565b6000826102755761027561020f565b500690565b80820180821115610064576100646101e0565b634e487b7160e01b600052603260045260246000fdfea26469706673582212200a4cf353597e1d5e00074752525bbe903ecf991e9df6bb98e4b861a636cb808f64736f6c63430008140033","linkReferences":{}},"methodIdentifiers":{"testUintToString(uint256)":"9de6111e"},"id":58}