{"abi":[{"type":"function","name":"ESafeTransferFrom","inputs":[{"name":"from","type":"address","internalType":"address"},{"name":"to","type":"address","internalType":"address"},{"name":"id","type":"uint256","internalType":"uint256"},{"name":"indexes","type":"uint256[]","internalType":"uint256[]"},{"name":"data","type":"bytes","internalType":"bytes"}],"outputs":[],"stateMutability":"nonpayable"},{"type":"function","name":"NFTPrice_initialized","inputs":[],"outputs":[{"name":"","type":"uint8","internalType":"uint8"}],"stateMutability":"view"},{"type":"function","name":"NFTS","inputs":[{"name":"","type":"uint256","internalType":"uint256"}],"outputs":[{"name":"ratio","type":"uint8","internalType":"uint8"},{"name":"indate","type":"uint32","internalType":"uint32"}],"stateMutability":"view"},{"type":"function","name":"addSupportedToken","inputs":[{"name":"_tokenAddress","type":"address","internalType":"address"}],"outputs":[],"stateMutability":"nonpayable"},{"type":"function","name":"balanceOf","inputs":[{"name":"account","type":"address","internalType":"address"},{"name":"id","type":"uint256","internalType":"uint256"}],"outputs":[{"name":"","type":"uint256","internalType":"uint256"}],"stateMutability":"view"},{"type":"function","name":"balanceOfBatch","inputs":[{"name":"","type":"address[]","internalType":"address[]"},{"name":"","type":"uint256[]","internalType":"uint256[]"}],"outputs":[{"name":"","type":"uint256[]","internalType":"uint256[]"}],"stateMutability":"view"},{"type":"function","name":"changeDynamicRatio","inputs":[{"name":"tokenID","type":"uint256","internalType":"uint256"},{"name":"newRatio","type":"uint8","internalType":"uint8"}],"outputs":[],"stateMutability":"nonpayable"},{"type":"function","name":"changeNFTPrice","inputs":[{"name":"tokenID","type":"uint256","internalType":"uint256"},{"name":"tokenAddress","type":"address","internalType":"address"},{"name":"amount","type":"uint256","internalType":"uint256"}],"outputs":[],"stateMutability":"nonpayable"},{"type":"function","name":"checkInitPricesParams","inputs":[{"name":"prices","type":"tuple[][6]","internalType":"struct TCF_NFTPrice.priceTypeAndAomut[][6]","components":[{"name":"tokenAddress","type":"address","internalType":"address"},{"name":"amount","type":"uint256","internalType":"uint256"}]}],"outputs":[{"name":"","type":"string","internalType":"string"}],"stateMutability":"view"},{"type":"function","name":"getChildren","inputs":[{"name":"node","type":"address","internalType":"address"}],"outputs":[{"name":"left","type":"address","internalType":"address"},{"name":"right","type":"address","internalType":"address"}],"stateMutability":"view"},{"type":"function","name":"getNFTPrice","inputs":[{"name":"tokenID","type":"uint256","internalType":"uint256"},{"name":"_tokenAddress","type":"address","internalType":"address"}],"outputs":[{"name":"","type":"string","internalType":"string"},{"name":"","type":"uint256","internalType":"uint256"}],"stateMutability":"view"},{"type":"function","name":"getNftMintTime","inputs":[{"name":"tokenId","type":"uint256","internalType":"uint256"},{"name":"account","type":"address","internalType":"address"},{"name":"editionId","type":"uint256","internalType":"uint256"}],"outputs":[{"name":"","type":"uint256","internalType":"uint256"}],"stateMutability":"view"},{"type":"function","name":"getNodeBalance","inputs":[{"name":"node","type":"address","internalType":"address"}],"outputs":[{"name":"","type":"uint256","internalType":"uint256"}],"stateMutability":"view"},{"type":"function","name":"getParent","inputs":[{"name":"node","type":"address","internalType":"address"}],"outputs":[{"name":"","type":"address","internalType":"address"}],"stateMutability":"view"},{"type":"function","name":"getRecommendedParent","inputs":[{"name":"recommender","type":"address","internalType":"address"}],"outputs":[{"name":"parent","type":"address","internalType":"address"},{"name":"isLeftBranch","type":"bool","internalType":"bool"}],"stateMutability":"view"},{"type":"function","name":"getRecommender","inputs":[{"name":"node","type":"address","internalType":"address"}],"outputs":[{"name":"","type":"address","internalType":"address"}],"stateMutability":"view"},{"type":"function","name":"getTotalNFTWorth","inputs":[{"name":"owner","type":"address","internalType":"address"}],"outputs":[{"name":"","type":"uint256","internalType":"uint256"}],"stateMutability":"view"},{"type":"function","name":"getUserTokenIds","inputs":[{"name":"account","type":"address","internalType":"address"},{"name":"tokenId","type":"uint256","internalType":"uint256"}],"outputs":[{"name":"","type":"uint256[]","internalType":"uint256[]"}],"stateMutability":"view"},{"type":"function","name":"initPrice","inputs":[{"name":"prices","type":"tuple[][6]","internalType":"struct TCF_NFTPrice.priceTypeAndAomut[][6]","components":[{"name":"tokenAddress","type":"address","internalType":"address"},{"name":"amount","type":"uint256","internalType":"uint256"}]}],"outputs":[],"stateMutability":"nonpayable"},{"type":"function","name":"initRoot","inputs":[{"name":"rootAddress","type":"address","internalType":"address"}],"outputs":[],"stateMutability":"nonpayable"},{"type":"function","name":"insert","inputs":[{"name":"node","type":"address","internalType":"address"},{"name":"parent","type":"address","internalType":"address"},{"name":"recommender","type":"address","internalType":"address"},{"name":"isLeft","type":"bool","internalType":"bool"}],"outputs":[],"stateMutability":"nonpayable"},{"type":"function","name":"isApprovedForAll","inputs":[{"name":"account","type":"address","internalType":"address"},{"name":"operator","type":"address","internalType":"address"}],"outputs":[{"name":"","type":"bool","internalType":"bool"}],"stateMutability":"view"},{"type":"function","name":"isExist","inputs":[{"name":"node","type":"address","internalType":"address"}],"outputs":[{"name":"","type":"bool","internalType":"bool"}],"stateMutability":"view"},{"type":"function","name":"isSupported","inputs":[{"name":"token","type":"address","internalType":"address"}],"outputs":[{"name":"","type":"uint8","internalType":"uint8"}],"stateMutability":"view"},{"type":"function","name":"minChildSubtreeBalance","inputs":[{"name":"node","type":"address","internalType":"address"}],"outputs":[{"name":"","type":"uint256","internalType":"uint256"}],"stateMutability":"view"},{"type":"function","name":"owner","inputs":[],"outputs":[{"name":"","type":"address","internalType":"address"}],"stateMutability":"view"},{"type":"function","name":"ownerOf","inputs":[{"name":"tokenId","type":"uint256","internalType":"uint256"},{"name":"editionId","type":"uint256","internalType":"uint256"}],"outputs":[{"name":"","type":"address","internalType":"address"}],"stateMutability":"view"},{"type":"function","name":"renounceOwnership","inputs":[],"outputs":[],"stateMutability":"nonpayable"},{"type":"function","name":"root","inputs":[],"outputs":[{"name":"","type":"address","internalType":"address"}],"stateMutability":"view"},{"type":"function","name":"rootInitialized","inputs":[],"outputs":[{"name":"","type":"bool","internalType":"bool"}],"stateMutability":"view"},{"type":"function","name":"safeBatchTransferFrom","inputs":[{"name":"","type":"address","internalType":"address"},{"name":"","type":"address","internalType":"address"},{"name":"","type":"uint256[]","internalType":"uint256[]"},{"name":"","type":"uint256[]","internalType":"uint256[]"},{"name":"","type":"bytes","internalType":"bytes"}],"outputs":[],"stateMutability":"nonpayable"},{"type":"function","name":"safeTransferFrom","inputs":[{"name":"","type":"address","internalType":"address"},{"name":"","type":"address","internalType":"address"},{"name":"","type":"uint256","internalType":"uint256"},{"name":"","type":"uint256","internalType":"uint256"},{"name":"","type":"bytes","internalType":"bytes"}],"outputs":[],"stateMutability":"nonpayable"},{"type":"function","name":"setApprovalForAll","inputs":[{"name":"operator","type":"address","internalType":"address"},{"name":"approved","type":"bool","internalType":"bool"}],"outputs":[],"stateMutability":"nonpayable"},{"type":"function","name":"subtreeBalance","inputs":[{"name":"node","type":"address","internalType":"address"}],"outputs":[{"name":"","type":"uint256","internalType":"uint256"}],"stateMutability":"view"},{"type":"function","name":"supportedTokenAmount","inputs":[],"outputs":[{"name":"","type":"uint256","internalType":"uint256"}],"stateMutability":"view"},{"type":"function","name":"supportsInterface","inputs":[{"name":"interfaceId","type":"bytes4","internalType":"bytes4"}],"outputs":[{"name":"","type":"bool","internalType":"bool"}],"stateMutability":"view"},{"type":"function","name":"testMint","inputs":[{"name":"to","type":"address","internalType":"address"},{"name":"id","type":"uint256","internalType":"uint256"},{"name":"amount","type":"uint256","internalType":"uint256"},{"name":"data","type":"bytes","internalType":"bytes"}],"outputs":[],"stateMutability":"nonpayable"},{"type":"function","name":"tokenAddress_array","inputs":[{"name":"","type":"uint256","internalType":"uint256"}],"outputs":[{"name":"","type":"address","internalType":"address"}],"stateMutability":"view"},{"type":"function","name":"totalTreeBalance","inputs":[],"outputs":[{"name":"","type":"uint256","internalType":"uint256"}],"stateMutability":"view"},{"type":"function","name":"transferOwnership","inputs":[{"name":"newOwner","type":"address","internalType":"address"}],"outputs":[],"stateMutability":"nonpayable"},{"type":"function","name":"uri","inputs":[{"name":"","type":"uint256","internalType":"uint256"}],"outputs":[{"name":"","type":"string","internalType":"string"}],"stateMutability":"view"},{"type":"event","name":"ApprovalForAll","inputs":[{"name":"account","type":"address","indexed":true,"internalType":"address"},{"name":"operator","type":"address","indexed":true,"internalType":"address"},{"name":"approved","type":"bool","indexed":false,"internalType":"bool"}],"anonymous":false},{"type":"event","name":"NodeInserted","inputs":[{"name":"node","type":"address","indexed":true,"internalType":"address"},{"name":"parent","type":"address","indexed":true,"internalType":"address"},{"name":"recommender","type":"address","indexed":true,"internalType":"address"},{"name":"isLeft","type":"bool","indexed":false,"internalType":"bool"}],"anonymous":false},{"type":"event","name":"OwnershipTransferred","inputs":[{"name":"previousOwner","type":"address","indexed":true,"internalType":"address"},{"name":"newOwner","type":"address","indexed":true,"internalType":"address"}],"anonymous":false},{"type":"event","name":"RootInitialized","inputs":[{"name":"root","type":"address","indexed":true,"internalType":"address"}],"anonymous":false},{"type":"event","name":"TransferBatch","inputs":[{"name":"operator","type":"address","indexed":true,"internalType":"address"},{"name":"from","type":"address","indexed":true,"internalType":"address"},{"name":"to","type":"address","indexed":true,"internalType":"address"},{"name":"ids","type":"uint256[]","indexed":false,"internalType":"uint256[]"},{"name":"values","type":"uint256[]","indexed":false,"internalType":"uint256[]"}],"anonymous":false},{"type":"event","name":"TransferSingle","inputs":[{"name":"operator","type":"address","indexed":true,"internalType":"address"},{"name":"from","type":"address","indexed":true,"internalType":"address"},{"name":"to","type":"address","indexed":true,"internalType":"address"},{"name":"id","type":"uint256","indexed":false,"internalType":"uint256"},{"name":"value","type":"uint256","indexed":false,"internalType":"uint256"}],"anonymous":false},{"type":"event","name":"URI","inputs":[{"name":"value","type":"string","indexed":false,"internalType":"string"},{"name":"id","type":"uint256","indexed":true,"internalType":"uint256"}],"anonymous":false}],"bytecode":{"object":"0x60806040523480156200001157600080fd5b506200001d336200009b565b600a6020527fbbc70db1b6c7afd11e79c0fb0051300458f1a3acb8ee9789d9b6b26c61ad9bc7805460ff19166001908117909155600c805480830182556000919091527fdf6966c971051c3d54ec59162606531493a51404a002842f56009d7e5cf4a8c70180546001600160a01b03191682179055600b55620000ed565b600980546001600160a01b038381166001600160a01b0319831681179093556040519116919082907f8be0079c531659141344cd1fd0a4f28419497f9722a3daafe3b4186f6b6457e090600090a35050565b613b4c80620000fd6000396000f3fe608060405234801561001057600080fd5b50600436106102515760003560e01c80636999fa4511610146578063a22cb465116100c3578063d9dad80d11610087578063d9dad80d146105c1578063e5030adc146105d4578063e985e9c5146105e7578063ebf0c71714610623578063f242432a14610636578063f2fde38b1461064957600080fd5b8063a22cb46514610524578063a940592314610537578063aa31281c1461054a578063b788920e1461055d578063c9b6b4851461057057600080fd5b806386ff91131161010a57806386ff9113146104c45780638da5cb5b146104e557806392aeff48146104f65780639f2980db14610509578063a15113d11461051c57600080fd5b80636999fa45146104505780636d69fcaf14610483578063715018a6146104965780637c8e2da71461049e57806383023c88146104b157600080fd5b8063292241f2116101d45780634e1273f4116101985780634e1273f4146103e35780634f129c53146104035780635582631314610416578063598c27bc14610429578063651583ee1461043c57600080fd5b8063292241f2146103525780632eb2c2d6146103675780633a4d2d3a1461037a5780633f2575991461038d5780634c8cb672146103bf57600080fd5b8063153154fd1161021b578063153154fd146102e557806319d62e57146103105780631f3fd6181461032357806323361283146103365780632653335a1461033f57600080fd5b806213eb4b14610256578062fdd58e1461027e57806301ffc9a71461029f57806307f241ce146102b25780630e89341c146102c5575b600080fd5b610269610264366004612fe5565b61065c565b60405190151581526020015b60405180910390f35b61029161028c366004613000565b6106b6565b604051908152602001610275565b6102696102ad366004613040565b61074d565b6102916102c0366004612fe5565b61079d565b6102d86102d336600461305d565b6107e8565b60405161027591906130c6565b6102f86102f3366004612fe5565b61081e565b6040516001600160a01b039091168152602001610275565b6102f861031e36600461305d565b610882565b6102d86103313660046130d9565b6108ac565b610291600b5481565b61029161034d366004612fe5565b610b61565b6103656103603660046131d8565b610c67565b005b6103656103753660046132cc565b610c79565b6103656103883660046130d9565b610cb3565b6103a061039b366004612fe5565b610fba565b604080516001600160a01b039093168352901515602083015201610275565b600d546103d190610100900460ff1681565b60405160ff9091168152602001610275565b6103f66103f1366004613375565b61112b565b604051610275919061343f565b6103d1610411366004612fe5565b611168565b610365610424366004613483565b61119c565b6103656104373660046134b8565b61120f565b60115461026990600160a01b900460ff1681565b61046361045e366004612fe5565b61128d565b604080516001600160a01b03938416815292909116602083015201610275565b610365610491366004612fe5565b611300565b61036561140d565b6102916104ac366004612fe5565b611421565b6103656104bf36600461357b565b611498565b6104d76104d23660046135b1565b611539565b6040516102759291906135dd565b6009546001600160a01b03166102f8565b610365610504366004612fe5565b6115e9565b61036561051736600461360f565b611706565b610291611ae5565b610365610532366004613663565b611b2b565b6102f8610545366004612fe5565b611b3a565b610291610558366004613483565b611b9b565b6103f661056b366004613000565b611bed565b6105a361057e36600461305d565b600e6020526000908152604090206001015460ff811690610100900463ffffffff1682565b6040805160ff909316835263ffffffff909116602083015201610275565b6102f86105cf36600461368d565b611c82565b6102916105e2366004612fe5565b611ccb565b6102696105f53660046136af565b6001600160a01b03918216600090815260086020908152604080832093909416825291909152205460ff1690565b6011546102f8906001600160a01b031681565b6103656106443660046136d9565b611e6f565b610365610657366004612fe5565b611eaf565b60006001600160a01b03821661068d5760405162461bcd60e51b81526004016106849061373d565b60405180910390fd5b506001600160a01b0316600090815260126020526040902060030154600160a01b900460ff1690565b60006001600160a01b0383166106de5760405162461bcd60e51b81526004016106849061373d565b600682106107225760405162461bcd60e51b81526020600482015260116024820152704552525f544f4b454e49445f52414e474560781b6044820152606401610684565b5060008181526007602090815260408083206001600160a01b03861684529091529020545b92915050565b60006001600160e01b03198216636cdb3d1360e11b148061077e57506001600160e01b031982166303a24d0760e21b145b8061074757506301ffc9a760e01b6001600160e01b0319831614610747565b6001600160a01b038116600090815260126020526040812060030154600160a01b900460ff166107df5760405162461bcd60e51b815260040161068490613763565b61074782611ccb565b60405162461bcd60e51b81526020600482015260086024820152675553455f4575726960c01b6044820152606090606401610684565b6001600160a01b038116600090815260126020526040812060030154600160a01b900460ff166108605760405162461bcd60e51b815260040161068490613763565b506001600160a01b039081166000908152601260205260409020600301541690565b600c818154811061089257600080fd5b6000918252602090912001546001600160a01b0316905081565b606060005b6006811015610b4b57600b548382600681106108cf576108cf61378c565b6020028101906108df91906137a2565b90501461090e57505060408051808201909152600a815269282924a1a2a9afa622a760b11b6020820152919050565b60008060008584600681106109255761092561378c565b60200281019061093591906137a2565b808060200260200160405190810160405280939291908181526020016000905b8282101561098157610972604083028601368190038101906137eb565b81526020019060010190610955565b5050505050905060005b600b54811015610ac35760008282815181106109a9576109a961378c565b60209081029190910101515190506001600160a01b0381166109ce57600194506109d3565b600193505b60006001600160a01b03168383815181106109f0576109f061378c565b6020026020010151600001516001600160a01b031614158015610a515750600a6000848481518110610a2457610a2461378c565b602090810291909101810151516001600160a01b031682528101919091526040016000205460ff16600114155b15610ab257610aa6838381518110610a6b57610a6b61378c565b602002602001015160000151604051806040016040528060118152602001701513d2d15397d55394d5541413d4951151607a1b815250611f28565b98975050505050505050565b50610abc81613857565b905061098b565b5082610afd5750506040805180820190915260138152721510d7d4149250d157d35554d517d1561254d5606a1b6020820152949350505050565b81610b375750506040805180820190915260148152731110d197d4149250d157d35554d517d1561254d560621b6020820152949350505050565b50505080610b4490613857565b90506108b1565b5050604080516020810190915260008152919050565b601154600090600160a01b900460ff16610b8d5760405162461bcd60e51b815260040161068490613870565b6001600160a01b038216600090815260126020526040902060030154600160a01b900460ff16610bcf5760405162461bcd60e51b815260040161068490613763565b6001600160a01b038083166000908152601260205260408120600181015490921615610c11576001820154610c0c906001600160a01b0316611f5c565b610c14565b60005b60028301549091506000906001600160a01b031615610c49576002830154610c44906001600160a01b0316611f5c565b610c4c565b60005b905080821115610c5c5780610c5e565b815b95945050505050565b610c7384848484611ffa565b50505050565b60405162461bcd60e51b815260206004820152600f60248201526e1393d517d253541311535153951151608a1b6044820152606401610684565b610cbb6120d9565b600d5460ff16600114610d085760405162461bcd60e51b81526020600482015260156024820152741513d2d15397d393d517d253925512505312569151605a1b6044820152606401610684565b600d54610100900460ff1615610d555760405162461bcd60e51b815260206004820152601260248201527114149250d154d7d25392551250531256915160721b6044820152606401610684565b6000610d60826108ac565b90508051600014610d85578060405162461bcd60e51b815260040161068491906130c6565b6040805160c0808201835262ed4e008252630107ac0060208084019190915263013c68008385015263017124006060808501919091526301a5e0006080808601919091526301da9c0060a0808701919091528651948501875260288552603293850193909352603c95840195909552605090830152605a93820193909352606492810192909252906000610e1985806137a2565b9050905060005b6006811015610fa357838160068110610e3b57610e3b61378c565b6020020151600e600083815260200190815260200160002060010160016101000a81548163ffffffff021916908363ffffffff160217905550828160068110610e8657610e8661378c565b602090810291909101516000838152600e90925260408220600101805460ff191660ff9092169190911790555b82811015610f92576000878360068110610ecf57610ecf61378c565b602002810190610edf91906137a2565b83818110610eef57610eef61378c565b610f059260206040909202019081019150612fe5565b90506001600160a01b038116610f19575060015b878360068110610f2b57610f2b61378c565b602002810190610f3b91906137a2565b83818110610f4b57610f4b61378c565b6000868152600e602090815260408083206001600160a01b039790971683529581529085902091909402929092019092013590555080610f8a81613857565b915050610eb3565b50610f9c81613857565b9050610e20565b5050600d805461ff00191661010017905550505050565b6011546000908190600160a01b900460ff16610fe85760405162461bcd60e51b815260040161068490613870565b6001600160a01b038316600090815260126020526040902060030154600160a01b900460ff166110525760405162461bcd60e51b8152602060048201526015602482015274149150d3d353515391115497d393d517d1561254d5605a1b6044820152606401610684565b825b6001600160a01b038082166000908152601260205260408120600181015490921615611096576001820154611091906001600160a01b0316611f5c565b611099565b60005b60028301549091506000906001600160a01b0316156110ce5760028301546110c9906001600160a01b0316611f5c565b6110d1565b60005b9050808211156000816110f15760028501546001600160a01b0316611100565b60018501546001600160a01b03165b90506001600160a01b03811661111f5750939793965092945050505050565b94506110549350505050565b60405162461bcd60e51b815260206004820152600f60248201526e1393d517d253541311535153951151608a1b6044820152606090606401610684565b60006001600160a01b03821661117d57600191505b506001600160a01b03166000908152600a602052604090205460ff1690565b6111a46120d9565b60006111b08484612133565b905080516000146111d5578060405162461bcd60e51b815260040161068491906130c6565b6001600160a01b0383166111e857600192505b506000928352600e602090815260408085206001600160a01b039094168552929052912055565b6001600160a01b03861633148061122b575061122b86336105f5565b6112775760405162461bcd60e51b815260206004820152601960248201527f43414c4c45525f4e4f545f4f574e45525f415050524f564544000000000000006044820152606401610684565b611285868686868686612235565b505050505050565b6001600160a01b0381166000908152601260205260408120600301548190600160a01b900460ff166112d15760405162461bcd60e51b815260040161068490613763565b50506001600160a01b039081166000908152601260205260409020600181015460029091015490821692911690565b6113086120d9565b600d5460ff161561134f5760405162461bcd60e51b81526020600482015260116024820152701513d2d15397d253925512505312569151607a1b6044820152606401610684565b600061135a826124de565b9050805160001461137f578060405162461bcd60e51b815260040161068491906130c6565b6001600160a01b0382166000818152600a60205260408120805460ff19166001908117909155600c805480830182559083527fdf6966c971051c3d54ec59162606531493a51404a002842f56009d7e5cf4a8c70180546001600160a01b031916909317909255600b80549091906113f790849061389e565b9091555050600d805460ff191660011790555050565b6114156120d9565b61141f60006126b0565b565b601154600090600160a01b900460ff1661144d5760405162461bcd60e51b815260040161068490613870565b6001600160a01b038216600090815260126020526040902060030154600160a01b900460ff1661148f5760405162461bcd60e51b815260040161068490613763565b61074782611f5c565b6114a06120d9565b600d5460ff610100909104166001146114f45760405162461bcd60e51b815260206004820152601660248201527514149250d154d7d393d517d25392551250531256915160521b6044820152606401610684565b600682106115145760405162461bcd60e51b8152600401610684906138b1565b6000918252600e6020526040909120600101805460ff191660ff909216919091179055565b60606000806115488585612133565b9050805160001461155e579150600090506115e2565b6001600160a01b03841661157157600193505b6000858152600e602090815260408083206001600160a01b0388168452909152812054908190036115cd57505060408051808201909152600d81526c14149250d157d393d517d4d155609a1b60208201529150600090506115e2565b60408051602081019091526000815293509150505b9250929050565b6115f16120d9565b601154600160a01b900460ff161561164b5760405162461bcd60e51b815260206004820152601860248201527f524f4f545f414c52454144595f494e495449414c495a454400000000000000006044820152606401610684565b6001600160a01b0381166116715760405162461bcd60e51b81526004016106849061373d565b601180546001600160a01b0383166001600160a81b03199182168117600160a01b90811790935560008181526012602052604080822060038101805482546001600160a01b03199081168455600184018054821690556002840180549091169055909516909517909355915190917fbeec1fc786857549cbe9ae8717fa0fbdea9bb7386027cbad8197404a3c94421091a25050565b601154600160a01b900460ff1661172f5760405162461bcd60e51b815260040161068490613870565b6001600160a01b0384161580159061174f57506001600160a01b03831615155b801561176357506001600160a01b03821615155b61177f5760405162461bcd60e51b81526004016106849061373d565b6001600160a01b038416600090815260126020526040902060030154600160a01b900460ff16156117e05760405162461bcd60e51b815260206004820152600b60248201526a4e4f44455f45584953545360a81b6044820152606401610684565b6001600160a01b038316600090815260126020526040902060030154600160a01b900460ff166118455760405162461bcd60e51b815260206004820152601060248201526f14105491539517d393d517d1561254d560821b6044820152606401610684565b6001600160a01b038216600090815260126020526040902060030154600160a01b900460ff166118af5760405162461bcd60e51b8152602060048201526015602482015274149150d3d353515391115497d393d517d1561254d5605a1b6044820152606401610684565b6118b98284612702565b6119055760405162461bcd60e51b815260206004820152601e60248201527f504152454e545f4e4f545f5245434f4d4d454e4445525f5355425452454500006044820152606401610684565b6001600160a01b0380841660009081526012602052604090206001810154909116158061193d575060028101546001600160a01b0316155b6119895760405162461bcd60e51b815260206004820152601760248201527f504152454e545f4841535f54574f5f4348494c4452454e0000000000000000006044820152606401610684565b81156119e55760018101546001600160a01b03166119c3576001810180546001600160a01b0319166001600160a01b038716179055611a37565b6002810180546001600160a01b0319166001600160a01b038716179055611a37565b60028101546001600160a01b0316611a19576002810180546001600160a01b0319166001600160a01b038716179055611a37565b6001810180546001600160a01b0319166001600160a01b0387161790555b6001600160a01b038086166000818152601260205260409081902060038101805482548a87166001600160a01b031991821681178555600185018054831690556002850180549092169091559589166001600160a81b03199091168117600160a01b17909155915190939192907fb7de7526072e4403cbc0296462672a10ed96d94c4169dc8b84b07515e949013d90611ad590881515815260200190565b60405180910390a4505050505050565b601154600090600160a01b900460ff16611b115760405162461bcd60e51b815260040161068490613870565b601154611b26906001600160a01b0316611f5c565b905090565b611b36338383612762565b5050565b6001600160a01b038116600090815260126020526040812060030154600160a01b900460ff16611b7c5760405162461bcd60e51b815260040161068490613763565b506001600160a01b039081166000908152601260205260409020541690565b600060068410611bbd5760405162461bcd60e51b8152600401610684906138b1565b5060009283526010602090815260408085206001600160a01b039490941685529281528284209184525290205490565b606060068210611c0f5760405162461bcd60e51b8152600401610684906138b1565b6001600160a01b0383166000908152600f6020908152604080832085845282529182902080548351818402810184019094528084529091830182828015611c7557602002820191906000526020600020905b815481526020019060010190808311611c61575b5050505050905092915050565b600060068310611ca45760405162461bcd60e51b8152600401610684906138b1565b5060009182526006602090815260408084209284529190529020546001600160a01b031690565b60006001600160a01b038216611cf35760405162461bcd60e51b81526004016106849061373d565b6000805b6006811015611e68576001600160a01b0384166000908152600f60209081526040808320848452825280832080548251818502810185019093528083529192909190830182828015611d6857602002820191906000526020600020905b815481526020019060010190808311611d54575b5050505050905060005b8151811015611e53576000828281518110611d8f57611d8f61378c565b60209081029190910181015160008681526010835260408082206001600160a01b038c1683528452808220838352845280822054888352600e909452902060010154909250610100900463ffffffff16611de9818361389e565b421115611df857505050611e41565b600080611e06886000611539565b9150915081516000148290611e2e5760405162461bcd60e51b815260040161068491906130c6565b50611e39818a61389e565b985050505050505b80611e4b81613857565b915050611d72565b50508080611e6090613857565b915050611cf7565b5092915050565b60405162461bcd60e51b81526020600482015260156024820152745553455f45536166655472616e7366657246726f6d60581b6044820152606401610684565b611eb76120d9565b6001600160a01b038116611f1c5760405162461bcd60e51b815260206004820152602660248201527f4f776e61626c653a206e6577206f776e657220697320746865207a65726f206160448201526564647265737360d01b6064820152608401610684565b611f25816126b0565b50565b606081611f3484612820565b604051602001611f459291906138d8565b604051602081830303815290604052905092915050565b60006001600160a01b038216611f7457506000919050565b6001600160a01b03821660009081526012602052604090206003810154600160a01b900460ff16611fa85750600092915050565b6002810154611fbf906001600160a01b0316611f5c565b6001820154611fd6906001600160a01b0316611f5c565b611fdf85611ccb565b611fe9919061389e565b611ff3919061389e565b9392505050565b4260005b838110156120c55760008581526010602090815260408083206001600160a01b038a168452909152812083918381896006811061203d5761203d61378c565b0154612049919061389e565b815260208082019290925260409081016000908120939093556001600160a01b0389168352600f8252808320888452909152812090829087600681106120915761209161378c565b015461209d919061389e565b81546001810183556000928352602090922090910155806120bd81613857565b915050611ffe565b506120d2858585856129ad565b5050505050565b6009546001600160a01b0316331461141f5760405162461bcd60e51b815260206004820181905260248201527f4f776e61626c653a2063616c6c6572206973206e6f7420746865206f776e65726044820152606401610684565b600d5460609060ff6101009091041660011461217c575060408051808201909152601681527514149250d154d7d393d517d25392551250531256915160521b6020820152610747565b60058311156121af575060408051808201909152600d81526c544f4b454e49445f52414e474560981b6020820152610747565b6001600160a01b0382166121c257600191505b6001600160a01b0382166000908152600a602052604090205460ff1660011461221f5761221882604051806040016040528060118152602001701513d2d15397d55394d5541413d4951151607a1b815250611f28565b9050610747565b5060408051602081019091526000815292915050565b6001600160a01b03851661225b5760405162461bcd60e51b81526004016106849061373d565b6006841061227b5760405162461bcd60e51b8152600401610684906138b1565b60005b828110156124cf57600084848381811061229a5761229a61378c565b60008981526010602090815260408083206001600160a01b038f168085529083528184209483029690960135808452938252808320548c8452600e909252909120600101549194509261010090910463ffffffff1691506122fb8985611c82565b6001600160a01b0316146123215760405162461bcd60e51b815260040161068490613914565b61232b818361389e565b421161236a5760405162461bcd60e51b815260206004820152600e60248201526d14d1539117d59053125117d3919560921b6044820152606401610684565b60008881526010602090815260408083206001600160a01b03808e1680865291845282852088865284528285208590558e168452600f8084528285208d8652845282852091855283528184208c8552909252822090915b825481101561247557858382815481106123dd576123dd61378c565b90600052602060002001540361246357825483906123fd9060019061393d565b8154811061240d5761240d61378c565b906000526020600020015483828154811061242a5761242a61378c565b90600052602060002001819055508280548061244857612448613950565b60019003818190600052602060002001600090559055612475565b8061246d81613857565b9150506123c1565b508054600181018255600091825260208083209091018690558a82526010815260408083206001600160a01b038f168452825280832096835295905293842093909355508291506124c7905081613857565b91505061227e565b50611285868686868686612b55565b6001600160a01b0381166000908152600a602052604090205460609060ff1660010361253157610747826040518060400160405280600b81526020016a414444525f45584953545360a81b815250611f28565b60408051600481526024810182526020810180516001600160e01b03166395d89b4160e01b179052905160009081906001600160a01b03861690612576908590613966565b600060405180830381855afa9150503d80600081146125b1576040519150601f19603f3d011682016040523d82523d6000602084013e6125b6565b606091505b50915091508180156125c9575060008151115b1561266f576000818060200190518101906125e49190613982565b80516020808301919091206040805180820190915260038152622221a360e91b9201919091529091507f580e4ba285e7e1134de91e671c33b0ab748bee7126d5d2e4d0845e6ad176e7eb81146126685761265d87604051806040016040528060078152602001662727aa2fa221a360c91b815250611f28565b979650505050505050565b5050612698565b610c5e85604051806040016040528060078152602001662727aa2fa221a360c91b815250611f28565b50506040805160208101909152600081529392505050565b600980546001600160a01b038381166001600160a01b0319831681179093556040519116919082907f8be0079c531659141344cd1fd0a4f28419497f9722a3daafe3b4186f6b6457e090600090a35050565b6000815b6001600160a01b0381161561275857836001600160a01b0316816001600160a01b031603612738576001915050610747565b6001600160a01b0390811660009081526012602052604090205416612706565b5060009392505050565b816001600160a01b0316836001600160a01b0316036127b35760405162461bcd60e51b815260206004820152600d60248201526c20a8282927ab20a62fa9a2a62360991b6044820152606401610684565b6001600160a01b03838116600081815260086020908152604080832094871680845294825291829020805460ff191686151590811790915591519182527f17307eab39ab6107e8899845ad3d59bd9653f200f220920489ca2b5937696c31910160405180910390a3505050565b60408051602a808252606082810190935283831b916f181899199a1a9b1b9c1cb0b131b232b360811b9160009190602082018180368337019050509050600360fc1b816000815181106128755761287561378c565b60200101906001600160f81b031916908160001a905350600f60fb1b816001815181106128a4576128a461378c565b60200101906001600160f81b031916908160001a90535060005b60148110156129a45760008482601481106128db576128db61378c565b1a905083600482901c60ff16601081106128f7576128f761378c565b1a60f81b83612907846002613a03565b61291290600261389e565b815181106129225761292261378c565b60200101906001600160f81b031916908160001a90535083600f82166010811061294e5761294e61378c565b1a60f81b8361295e846002613a03565b61296990600361389e565b815181106129795761297961378c565b60200101906001600160f81b031916908160001a90535050808061299c90613857565b9150506128be565b50949350505050565b600683106129cd5760405162461bcd60e51b8152600401610684906138b1565b6001600160a01b0384166129f35760405162461bcd60e51b81526004016106849061373d565b3360006129ff85612dfc565b90506000612a0c85612dfc565b905060008681526007602090815260408083206001600160a01b038b16845290915281208054879290612a4090849061389e565b90915550600090505b85811015612ac757876006600089815260200190815260200160002060008360008b60068110612a7b57612a7b61378c565b0154612a87919061389e565b8152602081019190915260400160002080546001600160a01b0319166001600160a01b039290921691909117905580612abf81613857565b915050612a49565b508460008760068110612adc57612adc61378c565b016000828254612aec919061389e565b909155505060408051878152602081018790526001600160a01b03808a1692600092918716917fc3d58168c5ae7397731d063d5bbf3d657854427343f4c083240f7aacaa2d0f62910160405180910390a4612b4c83600089898989612e47565b50505050505050565b6001600160a01b038516612b7b5760405162461bcd60e51b81526004016106849061373d565b60068410612b9b5760405162461bcd60e51b8152600401610684906138b1565b60005b82811015612c235760008581526006602052604081206001600160a01b03891691868685818110612bd157612bd161378c565b60209081029290920135835250810191909152604001600020546001600160a01b031614612c115760405162461bcd60e51b815260040161068490613914565b80612c1b81613857565b915050612b9e565b50336000612c3086612dfc565b90506000612c3d85612dfc565b905060005b85811015612cc75760008881526006602052604081206001600160a01b038c1691898985818110612c7557612c7561378c565b60209081029290920135835250810191909152604001600020546001600160a01b031614612cb55760405162461bcd60e51b815260040161068490613914565b80612cbf81613857565b915050612c42565b5060008781526007602090815260408083206001600160a01b038d16845290915281208054878103909155905b86811015612d5d5760008981526006602052604081208b918a8a85818110612d1e57612d1e61378c565b6020908102929092013583525081019190915260400160002080546001600160a01b0319166001600160a01b0392909216919091179055600101612cf4565b5060008881526007602090815260408083206001600160a01b038d16845290915281208054889290612d9090849061389e565b909155505060408051898152602081018890526001600160a01b038b8116928d821692918816917fc3d58168c5ae7397731d063d5bbf3d657854427343f4c083240f7aacaa2d0f62910160405180910390a4612df0848b8b8b8a8a612e47565b50505050505050505050565b60408051600180825281830190925260609160009190602080830190803683370190505090508281600081518110612e3657612e3661378c565b602090810291909101015292915050565b6001600160a01b0384163b156112855760405163f23a6e6160e01b81526001600160a01b0385169063f23a6e6190612e8b9089908990889088908890600401613a1a565b6020604051808303816000875af1925050508015612ec6575060408051601f3d908101601f19168201909252612ec391810190613a54565b60015b612f6957612ed2613a71565b806308c379a003612f0b5750612ee6613a8d565b80612ef15750612f0d565b8060405162461bcd60e51b815260040161068491906130c6565b505b60405162461bcd60e51b815260206004820152602b60248201527f7472616e736665725f746f5f6e6f6e2d4552433131353552656365697665725f60448201526a34b6b83632b6b2b73a32b960a91b6064820152608401610684565b6001600160e01b0319811663f23a6e6160e01b14612b4c5760405162461bcd60e51b815260206004820152601f60248201527f4552433131353552454345495645525f52454a45435445445f544f4b454e53006044820152606401610684565b80356001600160a01b0381168114612fe057600080fd5b919050565b600060208284031215612ff757600080fd5b611ff382612fc9565b6000806040838503121561301357600080fd5b61301c83612fc9565b946020939093013593505050565b6001600160e01b031981168114611f2557600080fd5b60006020828403121561305257600080fd5b8135611ff38161302a565b60006020828403121561306f57600080fd5b5035919050565b60005b83811015613091578181015183820152602001613079565b50506000910152565b600081518084526130b2816020860160208601613076565b601f01601f19169290920160200192915050565b602081526000611ff3602083018461309a565b6000602082840312156130eb57600080fd5b81356001600160401b0381111561310157600080fd5b820160c08101841015611ff357600080fd5b634e487b7160e01b600052604160045260246000fd5b601f8201601f191681016001600160401b038111828210171561314e5761314e613113565b6040525050565b60006001600160401b0382111561316e5761316e613113565b50601f01601f191660200190565b600082601f83011261318d57600080fd5b813561319881613155565b6040516131a58282613129565b8281528560208487010111156131ba57600080fd5b82602086016020830137600092810160200192909252509392505050565b600080600080608085870312156131ee57600080fd5b6131f785612fc9565b9350602085013592506040850135915060608501356001600160401b0381111561322057600080fd5b61322c8782880161317c565b91505092959194509250565b60006001600160401b0382111561325157613251613113565b5060051b60200190565b600082601f83011261326c57600080fd5b8135602061327982613238565b6040516132868282613129565b83815260059390931b85018201928281019150868411156132a657600080fd5b8286015b848110156132c157803583529183019183016132aa565b509695505050505050565b600080600080600060a086880312156132e457600080fd5b6132ed86612fc9565b94506132fb60208701612fc9565b935060408601356001600160401b038082111561331757600080fd5b61332389838a0161325b565b9450606088013591508082111561333957600080fd5b61334589838a0161325b565b9350608088013591508082111561335b57600080fd5b506133688882890161317c565b9150509295509295909350565b6000806040838503121561338857600080fd5b82356001600160401b038082111561339f57600080fd5b818501915085601f8301126133b357600080fd5b813560206133c082613238565b6040516133cd8282613129565b83815260059390931b85018201928281019150898411156133ed57600080fd5b948201945b838610156134125761340386612fc9565b825294820194908201906133f2565b9650508601359250508082111561342857600080fd5b506134358582860161325b565b9150509250929050565b6020808252825182820181905260009190848201906040850190845b818110156134775783518352928401929184019160010161345b565b50909695505050505050565b60008060006060848603121561349857600080fd5b833592506134a860208501612fc9565b9150604084013590509250925092565b60008060008060008060a087890312156134d157600080fd5b6134da87612fc9565b95506134e860208801612fc9565b94506040870135935060608701356001600160401b038082111561350b57600080fd5b818901915089601f83011261351f57600080fd5b81358181111561352e57600080fd5b8a60208260051b850101111561354357600080fd5b60208301955080945050608089013591508082111561356157600080fd5b5061356e89828a0161317c565b9150509295509295509295565b6000806040838503121561358e57600080fd5b82359150602083013560ff811681146135a657600080fd5b809150509250929050565b600080604083850312156135c457600080fd5b823591506135d460208401612fc9565b90509250929050565b6040815260006135f0604083018561309a565b90508260208301529392505050565b80358015158114612fe057600080fd5b6000806000806080858703121561362557600080fd5b61362e85612fc9565b935061363c60208601612fc9565b925061364a60408601612fc9565b9150613658606086016135ff565b905092959194509250565b6000806040838503121561367657600080fd5b61367f83612fc9565b91506135d4602084016135ff565b600080604083850312156136a057600080fd5b50508035926020909101359150565b600080604083850312156136c257600080fd5b6136cb83612fc9565b91506135d460208401612fc9565b600080600080600060a086880312156136f157600080fd5b6136fa86612fc9565b945061370860208701612fc9565b9350604086013592506060860135915060808601356001600160401b0381111561373157600080fd5b6133688882890161317c565b6020808252600c908201526b5a45524f5f4144445245535360a01b604082015260600190565b6020808252600f908201526e4e4f44455f4e4f545f45584953545360881b604082015260600190565b634e487b7160e01b600052603260045260246000fd5b6000808335601e198436030181126137b957600080fd5b8301803591506001600160401b038211156137d357600080fd5b6020019150600681901b36038213156115e257600080fd5b6000604082840312156137fd57600080fd5b604051604081018181106001600160401b038211171561381f5761381f613113565b60405261382b83612fc9565b8152602083013560208201528091505092915050565b634e487b7160e01b600052601160045260246000fd5b60006001820161386957613869613841565b5060010190565b6020808252601490820152731493d3d517d393d517d25392551250531256915160621b604082015260600190565b8082018082111561074757610747613841565b6020808252600d908201526c544f4b454e49445f52414e474560981b604082015260600190565b600083516138ea818460208801613076565b600160fd1b9083019081528351613908816001840160208801613076565b01600101949350505050565b6020808252600f908201526e1513d2d15397d393d517d3d5d39151608a1b604082015260600190565b8181038181111561074757610747613841565b634e487b7160e01b600052603160045260246000fd5b60008251613978818460208701613076565b9190910192915050565b60006020828403121561399457600080fd5b81516001600160401b038111156139aa57600080fd5b8201601f810184136139bb57600080fd5b80516139c681613155565b6040516139d38282613129565b8281528660208486010111156139e857600080fd5b6139f9836020830160208701613076565b9695505050505050565b808202811582820484141761074757610747613841565b6001600160a01b03868116825285166020820152604081018490526060810183905260a06080820181905260009061265d9083018461309a565b600060208284031215613a6657600080fd5b8151611ff38161302a565b600060033d1115613a8a5760046000803e5060005160e01c5b90565b600060443d1015613a9b5790565b6040516003193d81016004833e81513d6001600160401b038160248401118184111715613aca57505050505090565b8285019150815181811115613ae25750505050505090565b843d8701016020828501011115613afc5750505050505090565b613b0b60208286010187613129565b50909594505050505056fea26469706673582212200b1d2f73fe7e51ad8b8f2e4069135799d16a3b7f843ff0badb95d3e15818735f64736f6c63430008140033","linkReferences":{}},"methodIdentifiers":{"ESafeTransferFrom(address,address,uint256,uint256[],bytes)":"598c27bc","NFTPrice_initialized()":"4c8cb672","NFTS(uint256)":"c9b6b485","addSupportedToken(address)":"6d69fcaf","balanceOf(address,uint256)":"00fdd58e","balanceOfBatch(address[],uint256[])":"4e1273f4","changeDynamicRatio(uint256,uint8)":"83023c88","changeNFTPrice(uint256,address,uint256)":"55826313","checkInitPricesParams((address,uint256)[][6])":"1f3fd618","getChildren(address)":"6999fa45","getNFTPrice(uint256,address)":"86ff9113","getNftMintTime(uint256,address,uint256)":"aa31281c","getNodeBalance(address)":"07f241ce","getParent(address)":"a9405923","getRecommendedParent(address)":"3f257599","getRecommender(address)":"153154fd","getTotalNFTWorth(address)":"e5030adc","getUserTokenIds(address,uint256)":"b788920e","initPrice((address,uint256)[][6])":"3a4d2d3a","initRoot(address)":"92aeff48","insert(address,address,address,bool)":"9f2980db","isApprovedForAll(address,address)":"e985e9c5","isExist(address)":"0013eb4b","isSupported(address)":"4f129c53","minChildSubtreeBalance(address)":"2653335a","owner()":"8da5cb5b","ownerOf(uint256,uint256)":"d9dad80d","renounceOwnership()":"715018a6","root()":"ebf0c717","rootInitialized()":"651583ee","safeBatchTransferFrom(address,address,uint256[],uint256[],bytes)":"2eb2c2d6","safeTransferFrom(address,address,uint256,uint256,bytes)":"f242432a","setApprovalForAll(address,bool)":"a22cb465","subtreeBalance(address)":"7c8e2da7","supportedTokenAmount()":"23361283","supportsInterface(bytes4)":"01ffc9a7","testMint(address,uint256,uint256,bytes)":"292241f2","tokenAddress_array(uint256)":"19d62e57","totalTreeBalance()":"a15113d1","transferOwnership(address)":"f2fde38b","uri(uint256)":"0e89341c"},"id":53}