{
	"data": {
		"bytecode": {
			"linkReferences": {},
			"object": "60806040523480156200001157600080fd5b5062000032620000266200005360201b60201c565b6200005b60201b60201c565b6000600760006101000a81548160ff02191690831515021790555062000120565b600033905090565b60008060029054906101000a900473ffffffffffffffffffffffffffffffffffffffff16905081600060026101000a81548173ffffffffffffffffffffffffffffffffffffffff021916908373ffffffffffffffffffffffffffffffffffffffff1602179055508173ffffffffffffffffffffffffffffffffffffffff168173ffffffffffffffffffffffffffffffffffffffff167f8be0079c531659141344cd1fd0a4f28419497f9722a3daafe3b4186f6b6457e060405160405180910390a35050565b614ecd80620001306000396000f3fe608060405234801561001057600080fd5b506004361061018e5760003560e01c80636352211e116100de57806395d89b4111610097578063bf2add2f11610071578063bf2add2f1461045b578063c87b56dd1461048b578063e985e9c5146104bb578063f2fde38b146104eb5761018e565b806395d89b4114610405578063a22cb46514610423578063b88d4fde1461043f5761018e565b80636352211e1461034357806370a0823114610373578063715018a6146103a3578063785bb03e146103ad5780638456cb59146103dd5780638da5cb5b146103e75761018e565b806323b872dd1161014b57806342842e0e1161012557806342842e0e146102bd57806342966c68146102d95780634f6ccce7146102f55780635c975abb146103255761018e565b806323b872dd146102675780632f745c59146102835780633f4ba83a146102b35761018e565b806301ffc9a71461019357806306fdde03146101c3578063081812fc146101e1578063095ea7b31461021157806318160ddd1461022d5780631af19f771461024b575b600080fd5b6101ad60048036038101906101a89190613743565b610507565b6040516101ba9190613f6c565b60405180910390f35b6101cb610519565b6040516101d89190613f87565b60405180910390f35b6101fb60048036038101906101f6919061380a565b6105ab565b6040516102089190613f05565b60405180910390f35b61022b60048036038101906102269190613707565b6105f1565b005b610235610709565b60405161024291906142ab565b60405180910390f35b61026560048036038101906102609190613795565b610716565b005b610281600480360381019061027c91906135ad565b610898565b005b61029d60048036038101906102989190613707565b6108f8565b6040516102aa91906142ab565b60405180910390f35b6102bb61099d565b005b6102d760048036038101906102d291906135ad565b6109af565b005b6102f360048036038101906102ee919061380a565b6109cf565b005b61030f600480360381019061030a919061380a565b6109db565b60405161031c91906142ab565b60405180910390f35b61032d610a72565b60405161033a9190613f6c565b60405180910390f35b61035d6004803603810190610358919061380a565b610a89565b60405161036a9190613f05565b60405180910390f35b61038d60048036038101906103889190613548565b610b10565b60405161039a91906142ab565b60405180910390f35b6103ab610bc8565b005b6103c760048036038101906103c291906136b3565b610bdc565b6040516103d491906142ab565b60405180910390f35b6103e5610c7c565b005b6103ef610c8e565b6040516103fc9190613f05565b60405180910390f35b61040d610cb7565b60405161041a9190613f87565b60405180910390f35b61043d60048036038101906104389190613677565b610d49565b005b610459600480360381019061045491906135fc565b610d5f565b005b61047560048036038101906104709190613833565b610dc1565b6040516104829190614289565b60405180910390f35b6104a560048036038101906104a0919061380a565b6110f5565b6040516104b29190613f87565b60405180910390f35b6104d560048036038101906104d09190613571565b611107565b6040516104e29190613f6c565b60405180910390f35b61050560048036038101906105009190613548565b61119b565b005b60006105128261121f565b9050919050565b606060018054610528906145b5565b80601f0160208091040260200160405190810160405280929190818152602001828054610554906145b5565b80156105a15780601f10610576576101008083540402835291602001916105a1565b820191906000526020600020905b81548152906001019060200180831161058457829003601f168201915b5050505050905090565b60006105b682611280565b6005600083815260200190815260200160002060009054906101000a900473ffffffffffffffffffffffffffffffffffffffff169050919050565b60006105fc82610a89565b90508073ffffffffffffffffffffffffffffffffffffffff168373ffffffffffffffffffffffffffffffffffffffff16141561066d576040517f08c379a0000000000000000000000000000000000000000000000000000000008152600401610664906141e9565b60405180910390fd5b8073ffffffffffffffffffffffffffffffffffffffff1661068c6112cb565b73ffffffffffffffffffffffffffffffffffffffff1614806106bb57506106ba816106b56112cb565b611107565b5b6106fa576040517f08c379a00000000000000000000000000000000000000000000000000000000081526004016106f190614209565b60405180910390fd5b61070483836112d3565b505050565b6000600a80549050905090565b600060019054906101000a900460ff1661073e5760008054906101000a900460ff1615610747565b61074661138c565b5b610786576040517f08c379a000000000000000000000000000000000000000000000000000000000815260040161077d90614169565b60405180910390fd5b60008060019054906101000a900460ff1615905080156107d6576001600060016101000a81548160ff02191690831515021790555060016000806101000a81548160ff0219169083151502179055505b6107de61139d565b61087085858080601f016020809104026020016040519081016040528093929190818152602001838380828437600081840152601f19601f8201169050808301925050505050505084848080601f016020809104026020016040519081016040528093929190818152602001838380828437600081840152601f19601f8201169050808301925050505050505061141b565b80156108915760008060016101000a81548160ff0219169083151502179055505b5050505050565b6108a96108a36112cb565b82611478565b6108e8576040517f08c379a00000000000000000000000000000000000000000000000000000000081526004016108df90613fe9565b60405180910390fd5b6108f383838361150d565b505050565b600061090383610b10565b8210610944576040517f08c379a000000000000000000000000000000000000000000000000000000000815260040161093b90614009565b60405180910390fd5b600860008473ffffffffffffffffffffffffffffffffffffffff1673ffffffffffffffffffffffffffffffffffffffff168152602001908152602001600020600083815260200190815260200160002054905092915050565b6109a561139d565b6109ad611807565b565b6109ca83838360405180602001604052806000815250610d5f565b505050565b6109d88161186a565b50565b60006109e5610709565b8210610a26576040517f08c379a0000000000000000000000000000000000000000000000000000000008152600401610a1d90614229565b60405180910390fd5b600a8281548110610a60577f4e487b7100000000000000000000000000000000000000000000000000000000600052603260045260246000fd5b90600052602060002001549050919050565b6000600760009054906101000a900460ff16905090565b600080610a95836118c6565b9050600073ffffffffffffffffffffffffffffffffffffffff168173ffffffffffffffffffffffffffffffffffffffff161415610b07576040517f08c379a0000000000000000000000000000000000000000000000000000000008152600401610afe906141c9565b60405180910390fd5b80915050919050565b60008073ffffffffffffffffffffffffffffffffffffffff168273ffffffffffffffffffffffffffffffffffffffff161415610b81576040517f08c379a0000000000000000000000000000000000000000000000000000000008152600401610b7890614129565b60405180910390fd5b600460008373ffffffffffffffffffffffffffffffffffffffff1673ffffffffffffffffffffffffffffffffffffffff168152602001908152602001600020549050919050565b610bd061139d565b610bda6000611903565b565b6000610be661139d565b6000600d6000815480929190610bfb90614618565b919050559050600160ca610c0f91906144be565b60ff16811115610c5e576000835111610c5d576040517f08c379a0000000000000000000000000000000000000000000000000000000008152600401610c5490614069565b60405180910390fd5b5b610c6884826119c8565b610c7281846119e6565b8091505092915050565b610c8461139d565b610c8c611a91565b565b60008060029054906101000a900473ffffffffffffffffffffffffffffffffffffffff16905090565b606060028054610cc6906145b5565b80601f0160208091040260200160405190810160405280929190818152602001828054610cf2906145b5565b8015610d3f5780601f10610d1457610100808354040283529160200191610d3f565b820191906000526020600020905b815481529060010190602001808311610d2257829003601f168201915b5050505050905090565b610d5b610d546112cb565b8383611af4565b5050565b610d70610d6a6112cb565b83611478565b610daf576040517f08c379a0000000000000000000000000000000000000000000000000000000008152600401610da690613fe9565b60405180910390fd5b610dbb84848484611c61565b50505050565b610dc96132b3565b600073ffffffffffffffffffffffffffffffffffffffff168273ffffffffffffffffffffffffffffffffffffffff161415610e2957610e228484846040518060600160405280602f8152602001614e69602f9139611cbd565b90506110ee565b6001841015610e5d57610e568484846040518060600160405280602e8152602001614e12602e9139611daa565b90506110ee565b6000610e6883610b10565b9050600084600187610e7a919061448a565b610e849190614430565b9050818110610eba57610eb1868686604051806060016040528060298152602001614e4060299139611daa565b925050506110ee565b60008183610ec8919061448a565b9050600086821015610edc57819050610ee0565b8690505b60008167ffffffffffffffff811115610f22577f4e487b7100000000000000000000000000000000000000000000000000000000600052604160045260246000fd5b604051908082528060200260200182016040528015610f5b57816020015b610f486132e4565b815260200190600190039081610f405790505b50905060008285610f6c91906143a9565b90506000808690505b82811015611066576000610f88826109db565b90506000610f95826110f5565b905060405180608001604052808381526020018281526020013073ffffffffffffffffffffffffffffffffffffffff1681526020016040518060400160405280600681526020017f657263373231000000000000000000000000000000000000000000000000000081525081525086858151811061103c577f4e487b7100000000000000000000000000000000000000000000000000000000600052603260045260246000fd5b60200260200101819052508361105190614618565b935050508061105f90614618565b9050610f75565b5060006110748c8c8c611e7e565b905061107e6132b3565b6000816000019060ff16908160ff16815250506040518060400160405280600781526020017f737563636573730000000000000000000000000000000000000000000000000081525081602001819052508481604001819052508181606001819052508099505050505050505050505b9392505050565b606061110082611f7e565b9050919050565b6000600660008473ffffffffffffffffffffffffffffffffffffffff1673ffffffffffffffffffffffffffffffffffffffff16815260200190815260200160002060008373ffffffffffffffffffffffffffffffffffffffff1673ffffffffffffffffffffffffffffffffffffffff16815260200190815260200160002060009054906101000a900460ff16905092915050565b6111a361139d565b600073ffffffffffffffffffffffffffffffffffffffff168173ffffffffffffffffffffffffffffffffffffffff161415611213576040517f08c379a000000000000000000000000000000000000000000000000000000000815260040161120a90614049565b60405180910390fd5b61121c81611903565b50565b6000634906490660e01b7bffffffffffffffffffffffffffffffffffffffffffffffffffffffff1916827bffffffffffffffffffffffffffffffffffffffffffffffffffffffff19161480611279575061127882612091565b5b9050919050565b6112898161210b565b6112c8576040517f08c379a00000000000000000000000000000000000000000000000000000000081526004016112bf906141c9565b60405180910390fd5b50565b600033905090565b816005600083815260200190815260200160002060006101000a81548173ffffffffffffffffffffffffffffffffffffffff021916908373ffffffffffffffffffffffffffffffffffffffff160217905550808273ffffffffffffffffffffffffffffffffffffffff1661134683610a89565b73ffffffffffffffffffffffffffffffffffffffff167f8c5be1e5ebec7d5bd14f71427d1e84f3dd0314c0f7b2291e5b200ac8c7c3b92560405160405180910390a45050565b60006113973061214c565b15905090565b6113a56112cb565b73ffffffffffffffffffffffffffffffffffffffff166113c3610c8e565b73ffffffffffffffffffffffffffffffffffffffff1614611419576040517f08c379a0000000000000000000000000000000000000000000000000000000008152600401611410906141a9565b60405180910390fd5b565b600060019054906101000a900460ff1661146a576040517f08c379a000000000000000000000000000000000000000000000000000000000815260040161146190614249565b60405180910390fd5b611474828261216f565b5050565b60008061148483610a89565b90508073ffffffffffffffffffffffffffffffffffffffff168473ffffffffffffffffffffffffffffffffffffffff1614806114c657506114c58185611107565b5b8061150457508373ffffffffffffffffffffffffffffffffffffffff166114ec846105ab565b73ffffffffffffffffffffffffffffffffffffffff16145b91505092915050565b8273ffffffffffffffffffffffffffffffffffffffff1661152d82610a89565b73ffffffffffffffffffffffffffffffffffffffff1614611583576040517f08c379a000000000000000000000000000000000000000000000000000000000815260040161157a90614089565b60405180910390fd5b600073ffffffffffffffffffffffffffffffffffffffff168273ffffffffffffffffffffffffffffffffffffffff1614156115f3576040517f08c379a00000000000000000000000000000000000000000000000000000000081526004016115ea906140c9565b60405180910390fd5b61160083838360016121f0565b8273ffffffffffffffffffffffffffffffffffffffff1661162082610a89565b73ffffffffffffffffffffffffffffffffffffffff1614611676576040517f08c379a000000000000000000000000000000000000000000000000000000000815260040161166d90614089565b60405180910390fd5b6005600082815260200190815260200160002060006101000a81549073ffffffffffffffffffffffffffffffffffffffff02191690556001600460008573ffffffffffffffffffffffffffffffffffffffff1673ffffffffffffffffffffffffffffffffffffffff168152602001908152602001600020600082825403925050819055506001600460008473ffffffffffffffffffffffffffffffffffffffff1673ffffffffffffffffffffffffffffffffffffffff16815260200190815260200160002060008282540192505081905550816003600083815260200190815260200160002060006101000a81548173ffffffffffffffffffffffffffffffffffffffff021916908373ffffffffffffffffffffffffffffffffffffffff160217905550808273ffffffffffffffffffffffffffffffffffffffff168473ffffffffffffffffffffffffffffffffffffffff167fddf252ad1be2c89b69c2b068fc378daa952ba7f163c4a11628f55a4df523b3ef60405160405180910390a46118028383836001612202565b505050565b61180f612208565b6000600760006101000a81548160ff0219169083151502179055507f5db9ee0a495bf2e6ff9c91a7834c1ba4fdd244a5e8aa4e537bd38aeae4b073aa6118536112cb565b6040516118609190613f05565b60405180910390a1565b61187b6118756112cb565b82611478565b6118ba576040517f08c379a00000000000000000000000000000000000000000000000000000000081526004016118b190613fe9565b60405180910390fd5b6118c381612251565b50565b60006003600083815260200190815260200160002060009054906101000a900473ffffffffffffffffffffffffffffffffffffffff169050919050565b60008060029054906101000a900473ffffffffffffffffffffffffffffffffffffffff16905081600060026101000a81548173ffffffffffffffffffffffffffffffffffffffff021916908373ffffffffffffffffffffffffffffffffffffffff1602179055508173ffffffffffffffffffffffffffffffffffffffff168173ffffffffffffffffffffffffffffffffffffffff167f8be0079c531659141344cd1fd0a4f28419497f9722a3daafe3b4186f6b6457e060405160405180910390a35050565b6119e28282604051806020016040528060008152506122a4565b5050565b6119ef8261210b565b611a2e576040517f08c379a0000000000000000000000000000000000000000000000000000000008152600401611a2590614149565b60405180910390fd5b80600c60008481526020019081526020016000209080519060200190611a55929190613322565b507ff8e1a15aba9398e019f0b49df1a4fde98ee17ae345cb5f6b5e2c27f5033e8ce782604051611a8591906142ab565b60405180910390a15050565b611a996122ff565b6001600760006101000a81548160ff0219169083151502179055507f62e78cea01bee320cd4e420270b5ea74000d11b0c9f74754ebdbfc544b05a258611add6112cb565b604051611aea9190613f05565b60405180910390a1565b8173ffffffffffffffffffffffffffffffffffffffff168373ffffffffffffffffffffffffffffffffffffffff161415611b63576040517f08c379a0000000000000000000000000000000000000000000000000000000008152600401611b5a906140e9565b60405180910390fd5b80600660008573ffffffffffffffffffffffffffffffffffffffff1673ffffffffffffffffffffffffffffffffffffffff16815260200190815260200160002060008473ffffffffffffffffffffffffffffffffffffffff1673ffffffffffffffffffffffffffffffffffffffff16815260200190815260200160002060006101000a81548160ff0219169083151502179055508173ffffffffffffffffffffffffffffffffffffffff168373ffffffffffffffffffffffffffffffffffffffff167f17307eab39ab6107e8899845ad3d59bd9653f200f220920489ca2b5937696c3183604051611c549190613f6c565b60405180910390a3505050565b611c6c84848461150d565b611c7884848484612349565b611cb7576040517f08c379a0000000000000000000000000000000000000000000000000000000008152600401611cae90614029565b60405180910390fd5b50505050565b611cc56132b3565b611ccd6133a8565b85816020018181525050600186611ce4919061448a565b816040018181525050611cf56132b3565b6001816000019060ff16908160ff1681525050838160200181905250600067ffffffffffffffff811115611d52577f4e487b7100000000000000000000000000000000000000000000000000000000600052604160045260246000fd5b604051908082528060200260200182016040528015611d8b57816020015b611d786132e4565b815260200190600190039081611d705790505b5081604001819052508181606001819052508092505050949350505050565b611db26132b3565b6000611dbf868686611e7e565b9050611dc96132b3565b6001816000019060ff16908160ff1681525050838160200181905250600067ffffffffffffffff811115611e26577f4e487b7100000000000000000000000000000000000000000000000000000000600052604160045260246000fd5b604051908082528060200260200182016040528015611e5f57816020015b611e4c6132e4565b815260200190600190039081611e445790505b5081604001819052508181606001819052508092505050949350505050565b611e866133a8565b6000611e9183610b10565b905060008482611ea191906143ff565b905060008583611eb19190614661565b14611ec657600181611ec391906143a9565b90505b600081600188611ed691906143a9565b1115611ee457819050611ef4565b600187611ef191906143a9565b90505b600080881480611f045750600188145b15611f125760019050611f3f565b82600189611f20919061448a565b1115611f2e57829050611f3e565b600188611f3b919061448a565b90505b5b611f476133a8565b8381600001818152505088816020018181525050818160400181815250508281606001818152505080955050505050509392505050565b6060611f8982611280565b6000600c60008481526020019081526020016000208054611fa9906145b5565b80601f0160208091040260200160405190810160405280929190818152602001828054611fd5906145b5565b80156120225780601f10611ff757610100808354040283529160200191612022565b820191906000526020600020905b81548152906001019060200180831161200557829003601f168201915b5050505050905060006120336124e0565b905060008151141561204957819250505061208c565b60008251111561207e578082604051602001612066929190613eb2565b6040516020818303038152906040529250505061208c565b61208784612500565b925050505b919050565b60007f780e9d63000000000000000000000000000000000000000000000000000000007bffffffffffffffffffffffffffffffffffffffffffffffffffffffff1916827bffffffffffffffffffffffffffffffffffffffffffffffffffffffff19161480612104575061210382612568565b5b9050919050565b60008073ffffffffffffffffffffffffffffffffffffffff1661212d836118c6565b73ffffffffffffffffffffffffffffffffffffffff1614159050919050565b6000808273ffffffffffffffffffffffffffffffffffffffff163b119050919050565b600060019054906101000a900460ff166121be576040517f08c379a00000000000000000000000000000000000000000000000000000000081526004016121b590614249565b60405180910390fd5b81600190805190602001906121d4929190613322565b5080600290805190602001906121eb929190613322565b505050565b6121fc8484848461264a565b50505050565b50505050565b612210610a72565b61224f576040517f08c379a000000000000000000000000000000000000000000000000000000000815260040161224690613fc9565b60405180910390fd5b565b61225a816127aa565b6000600c6000838152602001908152602001600020805461227a906145b5565b9050146122a157600c600082815260200190815260200160002060006122a091906133d0565b5b50565b6122ae83836128f8565b6122bb6000848484612349565b6122fa576040517f08c379a00000000000000000000000000000000000000000000000000000000081526004016122f190614029565b60405180910390fd5b505050565b612307610a72565b15612347576040517f08c379a000000000000000000000000000000000000000000000000000000000815260040161233e90614109565b60405180910390fd5b565b600061236a8473ffffffffffffffffffffffffffffffffffffffff1661214c565b156124d3578373ffffffffffffffffffffffffffffffffffffffff1663150b7a026123936112cb565b8786866040518563ffffffff1660e01b81526004016123b59493929190613f20565b602060405180830381600087803b1580156123cf57600080fd5b505af192505050801561240057506040513d601f19601f820116820180604052508101906123fd919061376c565b60015b612483573d8060008114612430576040519150601f19603f3d011682016040523d82523d6000602084013e612435565b606091505b5060008151141561247b576040517f08c379a000000000000000000000000000000000000000000000000000000000815260040161247290614029565b60405180910390fd5b805181602001fd5b63150b7a0260e01b7bffffffffffffffffffffffffffffffffffffffffffffffffffffffff1916817bffffffffffffffffffffffffffffffffffffffffffffffffffffffff1916149150506124d8565b600190505b949350505050565b6060604051806080016040528060448152602001614dce60449139905090565b606061250b82611280565b60006125156124e0565b905060008151116125355760405180602001604052806000815250612560565b8061253f84612b16565b604051602001612550929190613ed6565b6040516020818303038152906040525b915050919050565b60007f80ac58cd000000000000000000000000000000000000000000000000000000007bffffffffffffffffffffffffffffffffffffffffffffffffffffffff1916827bffffffffffffffffffffffffffffffffffffffffffffffffffffffff1916148061263357507f5b5e139f000000000000000000000000000000000000000000000000000000007bffffffffffffffffffffffffffffffffffffffffffffffffffffffff1916827bffffffffffffffffffffffffffffffffffffffffffffffffffffffff1916145b80612643575061264282612c3a565b5b9050919050565b61265684848484612ca4565b600181111561269a576040517f08c379a000000000000000000000000000000000000000000000000000000000815260040161269190614269565b60405180910390fd5b6000829050600073ffffffffffffffffffffffffffffffffffffffff168573ffffffffffffffffffffffffffffffffffffffff1614156126e2576126dd81612cfe565b612721565b8373ffffffffffffffffffffffffffffffffffffffff168573ffffffffffffffffffffffffffffffffffffffff16146127205761271f8582612d47565b5b5b600073ffffffffffffffffffffffffffffffffffffffff168473ffffffffffffffffffffffffffffffffffffffff1614156127645761275f81612eb4565b6127a3565b8473ffffffffffffffffffffffffffffffffffffffff168473ffffffffffffffffffffffffffffffffffffffff16146127a2576127a18482612ff7565b5b5b5050505050565b60006127b582610a89565b90506127c58160008460016121f0565b6127ce82610a89565b90506005600083815260200190815260200160002060006101000a81549073ffffffffffffffffffffffffffffffffffffffff02191690556001600460008373ffffffffffffffffffffffffffffffffffffffff1673ffffffffffffffffffffffffffffffffffffffff168152602001908152602001600020600082825403925050819055506003600083815260200190815260200160002060006101000a81549073ffffffffffffffffffffffffffffffffffffffff021916905581600073ffffffffffffffffffffffffffffffffffffffff168273ffffffffffffffffffffffffffffffffffffffff167fddf252ad1be2c89b69c2b068fc378daa952ba7f163c4a11628f55a4df523b3ef60405160405180910390a46128f4816000846001612202565b5050565b600073ffffffffffffffffffffffffffffffffffffffff168273ffffffffffffffffffffffffffffffffffffffff161415612968576040517f08c379a000000000000000000000000000000000000000000000000000000000815260040161295f90614189565b60405180910390fd5b6129718161210b565b156129b1576040517f08c379a00000000000000000000000000000000000000000000000000000000081526004016129a8906140a9565b60405180910390fd5b6129bf6000838360016121f0565b6129c88161210b565b15612a08576040517f08c379a00000000000000000000000000000000000000000000000000000000081526004016129ff906140a9565b60405180910390fd5b6001600460008473ffffffffffffffffffffffffffffffffffffffff1673ffffffffffffffffffffffffffffffffffffffff16815260200190815260200160002060008282540192505081905550816003600083815260200190815260200160002060006101000a81548173ffffffffffffffffffffffffffffffffffffffff021916908373ffffffffffffffffffffffffffffffffffffffff160217905550808273ffffffffffffffffffffffffffffffffffffffff16600073ffffffffffffffffffffffffffffffffffffffff167fddf252ad1be2c89b69c2b068fc378daa952ba7f163c4a11628f55a4df523b3ef60405160405180910390a4612b12600083836001612202565b5050565b606060006001612b2584613076565b01905060008167ffffffffffffffff811115612b6a577f4e487b7100000000000000000000000000000000000000000000000000000000600052604160045260246000fd5b6040519080825280601f01601f191660200182016040528015612b9c5781602001600182028036833780820191505090505b509050600082602001820190505b600115612c2f578080600190039150507f3031323334353637383961626364656600000000000000000000000000000000600a86061a8153600a8581612c19577f4e487b7100000000000000000000000000000000000000000000000000000000600052601260045260246000fd5b0494506000851415612c2a57612c2f565b612baa565b819350505050919050565b60007f01ffc9a7000000000000000000000000000000000000000000000000000000007bffffffffffffffffffffffffffffffffffffffffffffffffffffffff1916827bffffffffffffffffffffffffffffffffffffffffffffffffffffffff1916149050919050565b612cb0848484846132ad565b612cb8610a72565b15612cf8576040517f08c379a0000000000000000000000000000000000000000000000000000000008152600401612cef90613fa9565b60405180910390fd5b50505050565b600a80549050600b600083815260200190815260200160002081905550600a81908060018154018082558091505060019003906000526020600020016000909190919091505550565b60006001612d5484610b10565b612d5e919061448a565b9050600060096000848152602001908152602001600020549050818114612e43576000600860008673ffffffffffffffffffffffffffffffffffffffff1673ffffffffffffffffffffffffffffffffffffffff168152602001908152602001600020600084815260200190815260200160002054905080600860008773ffffffffffffffffffffffffffffffffffffffff1673ffffffffffffffffffffffffffffffffffffffff168152602001908152602001600020600084815260200190815260200160002081905550816009600083815260200190815260200160002081905550505b6009600084815260200190815260200160002060009055600860008573ffffffffffffffffffffffffffffffffffffffff1673ffffffffffffffffffffffffffffffffffffffff16815260200190815260200160002060008381526020019081526020016000206000905550505050565b60006001600a80549050612ec8919061448a565b90506000600b60008481526020019081526020016000205490506000600a8381548110612f1e577f4e487b7100000000000000000000000000000000000000000000000000000000600052603260045260246000fd5b9060005260206000200154905080600a8381548110612f66577f4e487b7100000000000000000000000000000000000000000000000000000000600052603260045260246000fd5b906000526020600020018190555081600b600083815260200190815260200160002081905550600b600085815260200190815260200160002060009055600a805480612fdb577f4e487b7100000000000000000000000000000000000000000000000000000000600052603160045260246000fd5b6001900381819060005260206000200160009055905550505050565b600061300283610b10565b905081600860008573ffffffffffffffffffffffffffffffffffffffff1673ffffffffffffffffffffffffffffffffffffffff168152602001908152602001600020600083815260200190815260200160002081905550806009600084815260200190815260200160002081905550505050565b600080600090507a184f03e93ff9f4daa797ed6e38ed64bf6a1f01000000000000000083106130fa577a184f03e93ff9f4daa797ed6e38ed64bf6a1f01000000000000000083816130f0577f4e487b7100000000000000000000000000000000000000000000000000000000600052601260045260246000fd5b0492506040810190505b6d04ee2d6d415b85acef8100000000831061315d576d04ee2d6d415b85acef81000000008381613153577f4e487b7100000000000000000000000000000000000000000000000000000000600052601260045260246000fd5b0492506020810190505b662386f26fc1000083106131b257662386f26fc1000083816131a8577f4e487b7100000000000000000000000000000000000000000000000000000000600052601260045260246000fd5b0492506010810190505b6305f5e1008310613201576305f5e10083816131f7577f4e487b7100000000000000000000000000000000000000000000000000000000600052601260045260246000fd5b0492506008810190505b612710831061324c576127108381613242577f4e487b7100000000000000000000000000000000000000000000000000000000600052601260045260246000fd5b0492506004810190505b60648310613295576064838161328b577f4e487b7100000000000000000000000000000000000000000000000000000000600052601260045260246000fd5b0492506002810190505b600a83106132a4576001810190505b80915050919050565b50505050565b6040518060800160405280600060ff16815260200160608152602001606081526020016132de6133a8565b81525090565b60405180608001604052806000815260200160608152602001600073ffffffffffffffffffffffffffffffffffffffff168152602001606081525090565b82805461332e906145b5565b90600052602060002090601f0160209004810192826133505760008555613397565b82601f1061336957805160ff1916838001178555613397565b82800160010185558215613397579182015b8281111561339657825182559160200191906001019061337b565b5b5090506133a49190613410565b5090565b6040518060800160405280600081526020016000815260200160008152602001600081525090565b5080546133dc906145b5565b6000825580601f106133ee575061340d565b601f01602090049060005260206000209081019061340c9190613410565b5b50565b5b80821115613429576000816000905550600101613411565b5090565b600061344061343b846142eb565b6142c6565b90508281526020810184848401111561345857600080fd5b613463848285614573565b509392505050565b60008135905061347a81614d71565b92915050565b60008135905061348f81614d88565b92915050565b6000813590506134a481614d9f565b92915050565b6000815190506134b981614d9f565b92915050565b60008083601f8401126134d157600080fd5b8235905067ffffffffffffffff8111156134ea57600080fd5b60208301915083600182028301111561350257600080fd5b9250929050565b600082601f83011261351a57600080fd5b813561352a84826020860161342d565b91505092915050565b60008135905061354281614db6565b92915050565b60006020828403121561355a57600080fd5b60006135688482850161346b565b91505092915050565b6000806040838503121561358457600080fd5b60006135928582860161346b565b92505060206135a38582860161346b565b9150509250929050565b6000806000606084860312156135c257600080fd5b60006135d08682870161346b565b93505060206135e18682870161346b565b92505060406135f286828701613533565b9150509250925092565b6000806000806080858703121561361257600080fd5b60006136208782880161346b565b94505060206136318782880161346b565b935050604061364287828801613533565b925050606085013567ffffffffffffffff81111561365f57600080fd5b61366b87828801613509565b91505092959194509250565b6000806040838503121561368a57600080fd5b60006136988582860161346b565b92505060206136a985828601613480565b9150509250929050565b600080604083850312156136c657600080fd5b60006136d48582860161346b565b925050602083013567ffffffffffffffff8111156136f157600080fd5b6136fd85828601613509565b9150509250929050565b6000806040838503121561371a57600080fd5b60006137288582860161346b565b925050602061373985828601613533565b9150509250929050565b60006020828403121561375557600080fd5b600061376384828501613495565b91505092915050565b60006020828403121561377e57600080fd5b600061378c848285016134aa565b91505092915050565b600080600080604085870312156137ab57600080fd5b600085013567ffffffffffffffff8111156137c557600080fd5b6137d1878288016134bf565b9450945050602085013567ffffffffffffffff8111156137f057600080fd5b6137fc878288016134bf565b925092505092959194509250565b60006020828403121561381c57600080fd5b600061382a84828501613533565b91505092915050565b60008060006060848603121561384857600080fd5b600061385686828701613533565b935050602061386786828701613533565b92505060406138788682870161346b565b9150509250925092565b600061388e8383613d5c565b905092915050565b61389f816144f2565b82525050565b6138ae816144f2565b82525050565b60006138bf8261432c565b6138c9818561435a565b9350836020820285016138db8561431c565b8060005b8581101561391757848403895281516138f88582613882565b94506139038361434d565b925060208a019950506001810190506138df565b50829750879550505050505092915050565b61393281614504565b82525050565b600061394382614337565b61394d818561436b565b935061395d818560208601614582565b6139668161474e565b840191505092915050565b600061397c82614342565b613986818561437c565b9350613996818560208601614582565b61399f8161474e565b840191505092915050565b60006139b582614342565b6139bf818561438d565b93506139cf818560208601614582565b6139d88161474e565b840191505092915050565b60006139ee82614342565b6139f8818561439e565b9350613a08818560208601614582565b80840191505092915050565b6000613a21602b8361438d565b9150613a2c8261475f565b604082019050919050565b6000613a4460148361438d565b9150613a4f826147ae565b602082019050919050565b6000613a67602d8361438d565b9150613a72826147d7565b604082019050919050565b6000613a8a602b8361438d565b9150613a9582614826565b604082019050919050565b6000613aad60328361438d565b9150613ab882614875565b604082019050919050565b6000613ad060268361438d565b9150613adb826148c4565b604082019050919050565b6000613af360178361438d565b9150613afe82614913565b602082019050919050565b6000613b1660258361438d565b9150613b218261493c565b604082019050919050565b6000613b39601c8361438d565b9150613b448261498b565b602082019050919050565b6000613b5c60248361438d565b9150613b67826149b4565b604082019050919050565b6000613b7f60198361438d565b9150613b8a82614a03565b602082019050919050565b6000613ba260108361438d565b9150613bad82614a2c565b602082019050919050565b6000613bc560298361438d565b9150613bd082614a55565b604082019050919050565b6000613be8602e8361438d565b9150613bf382614aa4565b604082019050919050565b6000613c0b602e8361438d565b9150613c1682614af3565b604082019050919050565b6000613c2e60208361438d565b9150613c3982614b42565b602082019050919050565b6000613c5160058361439e565b9150613c5c82614b6b565b600582019050919050565b6000613c7460208361438d565b9150613c7f82614b94565b602082019050919050565b6000613c9760188361438d565b9150613ca282614bbd565b602082019050919050565b6000613cba60218361438d565b9150613cc582614be6565b604082019050919050565b6000613cdd603d8361438d565b9150613ce882614c35565b604082019050919050565b6000613d00602c8361438d565b9150613d0b82614c84565b604082019050919050565b6000613d23602b8361438d565b9150613d2e82614cd3565b604082019050919050565b6000613d4660358361438d565b9150613d5182614d22565b604082019050919050565b6000608083016000830151613d746000860182613e85565b5060208301518482036020860152613d8c8282613971565b9150506040830151613da16040860182613896565b5060608301518482036060860152613db98282613971565b9150508091505092915050565b608082016000820151613ddc6000850182613e85565b506020820151613def6020850182613e85565b506040820151613e026040850182613e85565b506060820151613e156060850182613e85565b50505050565b600060e083016000830151613e336000860182613ea3565b5060208301518482036020860152613e4b8282613971565b91505060408301518482036040860152613e6582826138b4565b9150506060830151613e7a6060860182613dc6565b508091505092915050565b613e8e8161455c565b82525050565b613e9d8161455c565b82525050565b613eac81614566565b82525050565b6000613ebe82856139e3565b9150613eca82846139e3565b91508190509392505050565b6000613ee282856139e3565b9150613eee82846139e3565b9150613ef982613c44565b91508190509392505050565b6000602082019050613f1a60008301846138a5565b92915050565b6000608082019050613f3560008301876138a5565b613f4260208301866138a5565b613f4f6040830185613e94565b8181036060830152613f618184613938565b905095945050505050565b6000602082019050613f816000830184613929565b92915050565b60006020820190508181036000830152613fa181846139aa565b905092915050565b60006020820190508181036000830152613fc281613a14565b9050919050565b60006020820190508181036000830152613fe281613a37565b9050919050565b6000602082019050818103600083015261400281613a5a565b9050919050565b6000602082019050818103600083015261402281613a7d565b9050919050565b6000602082019050818103600083015261404281613aa0565b9050919050565b6000602082019050818103600083015261406281613ac3565b9050919050565b6000602082019050818103600083015261408281613ae6565b9050919050565b600060208201905081810360008301526140a281613b09565b9050919050565b600060208201905081810360008301526140c281613b2c565b9050919050565b600060208201905081810360008301526140e281613b4f565b9050919050565b6000602082019050818103600083015261410281613b72565b9050919050565b6000602082019050818103600083015261412281613b95565b9050919050565b6000602082019050818103600083015261414281613bb8565b9050919050565b6000602082019050818103600083015261416281613bdb565b9050919050565b6000602082019050818103600083015261418281613bfe565b9050919050565b600060208201905081810360008301526141a281613c21565b9050919050565b600060208201905081810360008301526141c281613c67565b9050919050565b600060208201905081810360008301526141e281613c8a565b9050919050565b6000602082019050818103600083015261420281613cad565b9050919050565b6000602082019050818103600083015261422281613cd0565b9050919050565b6000602082019050818103600083015261424281613cf3565b9050919050565b6000602082019050818103600083015261426281613d16565b9050919050565b6000602082019050818103600083015261428281613d39565b9050919050565b600060208201905081810360008301526142a38184613e1b565b905092915050565b60006020820190506142c06000830184613e94565b92915050565b60006142d06142e1565b90506142dc82826145e7565b919050565b6000604051905090565b600067ffffffffffffffff8211156143065761430561471f565b5b61430f8261474e565b9050602081019050919050565b6000819050602082019050919050565b600081519050919050565b600081519050919050565b600081519050919050565b6000602082019050919050565b600082825260208201905092915050565b600082825260208201905092915050565b600082825260208201905092915050565b600082825260208201905092915050565b600081905092915050565b60006143b48261455c565b91506143bf8361455c565b9250827fffffffffffffffffffffffffffffffffffffffffffffffffffffffffffffffff038211156143f4576143f3614692565b5b828201905092915050565b600061440a8261455c565b91506144158361455c565b925082614425576144246146c1565b5b828204905092915050565b600061443b8261455c565b91506144468361455c565b9250817fffffffffffffffffffffffffffffffffffffffffffffffffffffffffffffffff048311821515161561447f5761447e614692565b5b828202905092915050565b60006144958261455c565b91506144a08361455c565b9250828210156144b3576144b2614692565b5b828203905092915050565b60006144c982614566565b91506144d483614566565b9250828210156144e7576144e6614692565b5b828203905092915050565b60006144fd8261453c565b9050919050565b60008115159050919050565b60007fffffffff0000000000000000000000000000000000000000000000000000000082169050919050565b600073ffffffffffffffffffffffffffffffffffffffff82169050919050565b6000819050919050565b600060ff82169050919050565b82818337600083830152505050565b60005b838110156145a0578082015181840152602081019050614585565b838111156145af576000848401525b50505050565b600060028204905060018216806145cd57607f821691505b602082108114156145e1576145e06146f0565b5b50919050565b6145f08261474e565b810181811067ffffffffffffffff8211171561460f5761460e61471f565b5b80604052505050565b60006146238261455c565b91507fffffffffffffffffffffffffffffffffffffffffffffffffffffffffffffffff82141561465657614655614692565b5b600182019050919050565b600061466c8261455c565b91506146778361455c565b925082614687576146866146c1565b5b828206905092915050565b7f4e487b7100000000000000000000000000000000000000000000000000000000600052601160045260246000fd5b7f4e487b7100000000000000000000000000000000000000000000000000000000600052601260045260246000fd5b7f4e487b7100000000000000000000000000000000000000000000000000000000600052602260045260246000fd5b7f4e487b7100000000000000000000000000000000000000000000000000000000600052604160045260246000fd5b6000601f19601f8301169050919050565b7f4552433732315061757361626c653a20746f6b656e207472616e73666572207760008201527f68696c6520706175736564000000000000000000000000000000000000000000602082015250565b7f5061757361626c653a206e6f7420706175736564000000000000000000000000600082015250565b7f4552433732313a2063616c6c6572206973206e6f7420746f6b656e206f776e6560008201527f72206f7220617070726f76656400000000000000000000000000000000000000602082015250565b7f455243373231456e756d657261626c653a206f776e657220696e646578206f7560008201527f74206f6620626f756e6473000000000000000000000000000000000000000000602082015250565b7f4552433732313a207472616e7366657220746f206e6f6e20455243373231526560008201527f63656976657220696d706c656d656e7465720000000000000000000000000000602082015250565b7f4f776e61626c653a206e6577206f776e657220697320746865207a65726f206160008201527f6464726573730000000000000000000000000000000000000000000000000000602082015250565b7f4d79546f6b656e3a757269206973207265717569726564000000000000000000600082015250565b7f4552433732313a207472616e736665722066726f6d20696e636f72726563742060008201527f6f776e6572000000000000000000000000000000000000000000000000000000602082015250565b7f4552433732313a20746f6b656e20616c7265616479206d696e74656400000000600082015250565b7f4552433732313a207472616e7366657220746f20746865207a65726f2061646460008201527f7265737300000000000000000000000000000000000000000000000000000000602082015250565b7f4552433732313a20617070726f766520746f2063616c6c657200000000000000600082015250565b7f5061757361626c653a2070617573656400000000000000000000000000000000600082015250565b7f4552433732313a2061646472657373207a65726f206973206e6f74206120766160008201527f6c6964206f776e65720000000000000000000000000000000000000000000000602082015250565b7f45524337323155524953746f726167653a2055524920736574206f66206e6f6e60008201527f6578697374656e7420746f6b656e000000000000000000000000000000000000602082015250565b7f496e697469616c697a61626c653a20636f6e747261637420697320616c72656160008201527f647920696e697469616c697a6564000000000000000000000000000000000000602082015250565b7f4552433732313a206d696e7420746f20746865207a65726f2061646472657373600082015250565b7f2e6a736f6e000000000000000000000000000000000000000000000000000000600082015250565b7f4f776e61626c653a2063616c6c6572206973206e6f7420746865206f776e6572600082015250565b7f4552433732313a20696e76616c696420746f6b656e2049440000000000000000600082015250565b7f4552433732313a20617070726f76616c20746f2063757272656e74206f776e6560008201527f7200000000000000000000000000000000000000000000000000000000000000602082015250565b7f4552433732313a20617070726f76652063616c6c6572206973206e6f7420746f60008201527f6b656e206f776e6572206f7220617070726f76656420666f7220616c6c000000602082015250565b7f455243373231456e756d657261626c653a20676c6f62616c20696e646578206f60008201527f7574206f6620626f756e64730000000000000000000000000000000000000000602082015250565b7f496e697469616c697a61626c653a20636f6e7472616374206973206e6f74206960008201527f6e697469616c697a696e67000000000000000000000000000000000000000000602082015250565b7f455243373231456e756d657261626c653a20636f6e736563757469766520747260008201527f616e7366657273206e6f7420737570706f727465640000000000000000000000602082015250565b614d7a816144f2565b8114614d8557600080fd5b50565b614d9181614504565b8114614d9c57600080fd5b50565b614da881614510565b8114614db357600080fd5b50565b614dbf8161455c565b8114614dca57600080fd5b5056fe68747470733a2f2f697066732e696f2f697066732f516d543732754a7a6b36524d656f584a3159517943433741396263504463356f314b6742456b635836635171374a2f6261746368555249416e6449643a70616765496e646578206d7573742062652067726561746572207468616e20306261746368555249416e6449643a746865207374617274496e646578206f7574206f662072616e67656261746368555249416e6449643a61646472657373207a65726f206973206e6f7420612076616c6964206f776e6572a2646970667358221220e063708dd949875889d60c201f9196add96c3a3fbcb78c4d04a908d7d0ae896764736f6c63430008010033",
			"opcodes": "PUSH1 0x80 PUSH1 0x40 MSTORE CALLVALUE DUP1 ISZERO PUSH3 0x11 JUMPI PUSH1 0x0 DUP1 REVERT JUMPDEST POP PUSH3 0x32 PUSH3 0x26 PUSH3 0x53 PUSH1 0x20 SHL PUSH1 0x20 SHR JUMP JUMPDEST PUSH3 0x5B PUSH1 0x20 SHL PUSH1 0x20 SHR JUMP JUMPDEST PUSH1 0x0 PUSH1 0x7 PUSH1 0x0 PUSH2 0x100 EXP DUP2 SLOAD DUP2 PUSH1 0xFF MUL NOT AND SWAP1 DUP4 ISZERO ISZERO MUL OR SWAP1 SSTORE POP PUSH3 0x120 JUMP JUMPDEST PUSH1 0x0 CALLER SWAP1 POP SWAP1 JUMP JUMPDEST PUSH1 0x0 DUP1 PUSH1 0x2 SWAP1 SLOAD SWAP1 PUSH2 0x100 EXP SWAP1 DIV PUSH20 0xFFFFFFFFFFFFFFFFFFFFFFFFFFFFFFFFFFFFFFFF AND SWAP1 POP DUP2 PUSH1 0x0 PUSH1 0x2 PUSH2 0x100 EXP DUP2 SLOAD DUP2 PUSH20 0xFFFFFFFFFFFFFFFFFFFFFFFFFFFFFFFFFFFFFFFF MUL NOT AND SWAP1 DUP4 PUSH20 0xFFFFFFFFFFFFFFFFFFFFFFFFFFFFFFFFFFFFFFFF AND MUL OR SWAP1 SSTORE POP DUP2 PUSH20 0xFFFFFFFFFFFFFFFFFFFFFFFFFFFFFFFFFFFFFFFF AND DUP2 PUSH20 0xFFFFFFFFFFFFFFFFFFFFFFFFFFFFFFFFFFFFFFFF AND PUSH32 0x8BE0079C531659141344CD1FD0A4F28419497F9722A3DAAFE3B4186F6B6457E0 PUSH1 0x40 MLOAD PUSH1 0x40 MLOAD DUP1 SWAP2 SUB SWAP1 LOG3 POP POP JUMP JUMPDEST PUSH2 0x4ECD DUP1 PUSH3 0x130 PUSH1 0x0 CODECOPY PUSH1 0x0 RETURN INVALID PUSH1 0x80 PUSH1 0x40 MSTORE CALLVALUE DUP1 ISZERO PUSH2 0x10 JUMPI PUSH1 0x0 DUP1 REVERT JUMPDEST POP PUSH1 0x4 CALLDATASIZE LT PUSH2 0x18E JUMPI PUSH1 0x0 CALLDATALOAD PUSH1 0xE0 SHR DUP1 PUSH4 0x6352211E GT PUSH2 0xDE JUMPI DUP1 PUSH4 0x95D89B41 GT PUSH2 0x97 JUMPI DUP1 PUSH4 0xBF2ADD2F GT PUSH2 0x71 JUMPI DUP1 PUSH4 0xBF2ADD2F EQ PUSH2 0x45B JUMPI DUP1 PUSH4 0xC87B56DD EQ PUSH2 0x48B JUMPI DUP1 PUSH4 0xE985E9C5 EQ PUSH2 0x4BB JUMPI DUP1 PUSH4 0xF2FDE38B EQ PUSH2 0x4EB JUMPI PUSH2 0x18E JUMP JUMPDEST DUP1 PUSH4 0x95D89B41 EQ PUSH2 0x405 JUMPI DUP1 PUSH4 0xA22CB465 EQ PUSH2 0x423 JUMPI DUP1 PUSH4 0xB88D4FDE EQ PUSH2 0x43F JUMPI PUSH2 0x18E JUMP JUMPDEST DUP1 PUSH4 0x6352211E EQ PUSH2 0x343 JUMPI DUP1 PUSH4 0x70A08231 EQ PUSH2 0x373 JUMPI DUP1 PUSH4 0x715018A6 EQ PUSH2 0x3A3 JUMPI DUP1 PUSH4 0x785BB03E EQ PUSH2 0x3AD JUMPI DUP1 PUSH4 0x8456CB59 EQ PUSH2 0x3DD JUMPI DUP1 PUSH4 0x8DA5CB5B EQ PUSH2 0x3E7 JUMPI PUSH2 0x18E JUMP JUMPDEST DUP1 PUSH4 0x23B872DD GT PUSH2 0x14B JUMPI DUP1 PUSH4 0x42842E0E GT PUSH2 0x125 JUMPI DUP1 PUSH4 0x42842E0E EQ PUSH2 0x2BD JUMPI DUP1 PUSH4 0x42966C68 EQ PUSH2 0x2D9 JUMPI DUP1 PUSH4 0x4F6CCCE7 EQ PUSH2 0x2F5 JUMPI DUP1 PUSH4 0x5C975ABB EQ PUSH2 0x325 JUMPI PUSH2 0x18E JUMP JUMPDEST DUP1 PUSH4 0x23B872DD EQ PUSH2 0x267 JUMPI DUP1 PUSH4 0x2F745C59 EQ PUSH2 0x283 JUMPI DUP1 PUSH4 0x3F4BA83A EQ PUSH2 0x2B3 JUMPI PUSH2 0x18E JUMP JUMPDEST DUP1 PUSH4 0x1FFC9A7 EQ PUSH2 0x193 JUMPI DUP1 PUSH4 0x6FDDE03 EQ PUSH2 0x1C3 JUMPI DUP1 PUSH4 0x81812FC EQ PUSH2 0x1E1 JUMPI DUP1 PUSH4 0x95EA7B3 EQ PUSH2 0x211 JUMPI DUP1 PUSH4 0x18160DDD EQ PUSH2 0x22D JUMPI DUP1 PUSH4 0x1AF19F77 EQ PUSH2 0x24B JUMPI JUMPDEST PUSH1 0x0 DUP1 REVERT JUMPDEST PUSH2 0x1AD PUSH1 0x4 DUP1 CALLDATASIZE SUB DUP2 ADD SWAP1 PUSH2 0x1A8 SWAP2 SWAP1 PUSH2 0x3743 JUMP JUMPDEST PUSH2 0x507 JUMP JUMPDEST PUSH1 0x40 MLOAD PUSH2 0x1BA SWAP2 SWAP1 PUSH2 0x3F6C JUMP JUMPDEST PUSH1 0x40 MLOAD DUP1 SWAP2 SUB SWAP1 RETURN JUMPDEST PUSH2 0x1CB PUSH2 0x519 JUMP JUMPDEST PUSH1 0x40 MLOAD PUSH2 0x1D8 SWAP2 SWAP1 PUSH2 0x3F87 JUMP JUMPDEST PUSH1 0x40 MLOAD DUP1 SWAP2 SUB SWAP1 RETURN JUMPDEST PUSH2 0x1FB PUSH1 0x4 DUP1 CALLDATASIZE SUB DUP2 ADD SWAP1 PUSH2 0x1F6 SWAP2 SWAP1 PUSH2 0x380A JUMP JUMPDEST PUSH2 0x5AB JUMP JUMPDEST PUSH1 0x40 MLOAD PUSH2 0x208 SWAP2 SWAP1 PUSH2 0x3F05 JUMP JUMPDEST PUSH1 0x40 MLOAD DUP1 SWAP2 SUB SWAP1 RETURN JUMPDEST PUSH2 0x22B PUSH1 0x4 DUP1 CALLDATASIZE SUB DUP2 ADD SWAP1 PUSH2 0x226 SWAP2 SWAP1 PUSH2 0x3707 JUMP JUMPDEST PUSH2 0x5F1 JUMP JUMPDEST STOP JUMPDEST PUSH2 0x235 PUSH2 0x709 JUMP JUMPDEST PUSH1 0x40 MLOAD PUSH2 0x242 SWAP2 SWAP1 PUSH2 0x42AB JUMP JUMPDEST PUSH1 0x40 MLOAD DUP1 SWAP2 SUB SWAP1 RETURN JUMPDEST PUSH2 0x265 PUSH1 0x4 DUP1 CALLDATASIZE SUB DUP2 ADD SWAP1 PUSH2 0x260 SWAP2 SWAP1 PUSH2 0x3795 JUMP JUMPDEST PUSH2 0x716 JUMP JUMPDEST STOP JUMPDEST PUSH2 0x281 PUSH1 0x4 DUP1 CALLDATASIZE SUB DUP2 ADD SWAP1 PUSH2 0x27C SWAP2 SWAP1 PUSH2 0x35AD JUMP JUMPDEST PUSH2 0x898 JUMP JUMPDEST STOP JUMPDEST PUSH2 0x29D PUSH1 0x4 DUP1 CALLDATASIZE SUB DUP2 ADD SWAP1 PUSH2 0x298 SWAP2 SWAP1 PUSH2 0x3707 JUMP JUMPDEST PUSH2 0x8F8 JUMP JUMPDEST PUSH1 0x40 MLOAD PUSH2 0x2AA SWAP2 SWAP1 PUSH2 0x42AB JUMP JUMPDEST PUSH1 0x40 MLOAD DUP1 SWAP2 SUB SWAP1 RETURN JUMPDEST PUSH2 0x2BB PUSH2 0x99D JUMP JUMPDEST STOP JUMPDEST PUSH2 0x2D7 PUSH1 0x4 DUP1 CALLDATASIZE SUB DUP2 ADD SWAP1 PUSH2 0x2D2 SWAP2 SWAP1 PUSH2 0x35AD JUMP JUMPDEST PUSH2 0x9AF JUMP JUMPDEST STOP JUMPDEST PUSH2 0x2F3 PUSH1 0x4 DUP1 CALLDATASIZE SUB DUP2 ADD SWAP1 PUSH2 0x2EE SWAP2 SWAP1 PUSH2 0x380A JUMP JUMPDEST PUSH2 0x9CF JUMP JUMPDEST STOP JUMPDEST PUSH2 0x30F PUSH1 0x4 DUP1 CALLDATASIZE SUB DUP2 ADD SWAP1 PUSH2 0x30A SWAP2 SWAP1 PUSH2 0x380A JUMP JUMPDEST PUSH2 0x9DB JUMP JUMPDEST PUSH1 0x40 MLOAD PUSH2 0x31C SWAP2 SWAP1 PUSH2 0x42AB JUMP JUMPDEST PUSH1 0x40 MLOAD DUP1 SWAP2 SUB SWAP1 RETURN JUMPDEST PUSH2 0x32D PUSH2 0xA72 JUMP JUMPDEST PUSH1 0x40 MLOAD PUSH2 0x33A SWAP2 SWAP1 PUSH2 0x3F6C JUMP JUMPDEST PUSH1 0x40 MLOAD DUP1 SWAP2 SUB SWAP1 RETURN JUMPDEST PUSH2 0x35D PUSH1 0x4 DUP1 CALLDATASIZE SUB DUP2 ADD SWAP1 PUSH2 0x358 SWAP2 SWAP1 PUSH2 0x380A JUMP JUMPDEST PUSH2 0xA89 JUMP JUMPDEST PUSH1 0x40 MLOAD PUSH2 0x36A SWAP2 SWAP1 PUSH2 0x3F05 JUMP JUMPDEST PUSH1 0x40 MLOAD DUP1 SWAP2 SUB SWAP1 RETURN JUMPDEST PUSH2 0x38D PUSH1 0x4 DUP1 CALLDATASIZE SUB DUP2 ADD SWAP1 PUSH2 0x388 SWAP2 SWAP1 PUSH2 0x3548 JUMP JUMPDEST PUSH2 0xB10 JUMP JUMPDEST PUSH1 0x40 MLOAD PUSH2 0x39A SWAP2 SWAP1 PUSH2 0x42AB JUMP JUMPDEST PUSH1 0x40 MLOAD DUP1 SWAP2 SUB SWAP1 RETURN JUMPDEST PUSH2 0x3AB PUSH2 0xBC8 JUMP JUMPDEST STOP JUMPDEST PUSH2 0x3C7 PUSH1 0x4 DUP1 CALLDATASIZE SUB DUP2 ADD SWAP1 PUSH2 0x3C2 SWAP2 SWAP1 PUSH2 0x36B3 JUMP JUMPDEST PUSH2 0xBDC JUMP JUMPDEST PUSH1 0x40 MLOAD PUSH2 0x3D4 SWAP2 SWAP1 PUSH2 0x42AB JUMP JUMPDEST PUSH1 0x40 MLOAD DUP1 SWAP2 SUB SWAP1 RETURN JUMPDEST PUSH2 0x3E5 PUSH2 0xC7C JUMP JUMPDEST STOP JUMPDEST PUSH2 0x3EF PUSH2 0xC8E JUMP JUMPDEST PUSH1 0x40 MLOAD PUSH2 0x3FC SWAP2 SWAP1 PUSH2 0x3F05 JUMP JUMPDEST PUSH1 0x40 MLOAD DUP1 SWAP2 SUB SWAP1 RETURN JUMPDEST PUSH2 0x40D PUSH2 0xCB7 JUMP JUMPDEST PUSH1 0x40 MLOAD PUSH2 0x41A SWAP2 SWAP1 PUSH2 0x3F87 JUMP JUMPDEST PUSH1 0x40 MLOAD DUP1 SWAP2 SUB SWAP1 RETURN JUMPDEST PUSH2 0x43D PUSH1 0x4 DUP1 CALLDATASIZE SUB DUP2 ADD SWAP1 PUSH2 0x438 SWAP2 SWAP1 PUSH2 0x3677 JUMP JUMPDEST PUSH2 0xD49 JUMP JUMPDEST STOP JUMPDEST PUSH2 0x459 PUSH1 0x4 DUP1 CALLDATASIZE SUB DUP2 ADD SWAP1 PUSH2 0x454 SWAP2 SWAP1 PUSH2 0x35FC JUMP JUMPDEST PUSH2 0xD5F JUMP JUMPDEST STOP JUMPDEST PUSH2 0x475 PUSH1 0x4 DUP1 CALLDATASIZE SUB DUP2 ADD SWAP1 PUSH2 0x470 SWAP2 SWAP1 PUSH2 0x3833 JUMP JUMPDEST PUSH2 0xDC1 JUMP JUMPDEST PUSH1 0x40 MLOAD PUSH2 0x482 SWAP2 SWAP1 PUSH2 0x4289 JUMP JUMPDEST PUSH1 0x40 MLOAD DUP1 SWAP2 SUB SWAP1 RETURN JUMPDEST PUSH2 0x4A5 PUSH1 0x4 DUP1 CALLDATASIZE SUB DUP2 ADD SWAP1 PUSH2 0x4A0 SWAP2 SWAP1 PUSH2 0x380A JUMP JUMPDEST PUSH2 0x10F5 JUMP JUMPDEST PUSH1 0x40 MLOAD PUSH2 0x4B2 SWAP2 SWAP1 PUSH2 0x3F87 JUMP JUMPDEST PUSH1 0x40 MLOAD DUP1 SWAP2 SUB SWAP1 RETURN JUMPDEST PUSH2 0x4D5 PUSH1 0x4 DUP1 CALLDATASIZE SUB DUP2 ADD SWAP1 PUSH2 0x4D0 SWAP2 SWAP1 PUSH2 0x3571 JUMP JUMPDEST PUSH2 0x1107 JUMP JUMPDEST PUSH1 0x40 MLOAD PUSH2 0x4E2 SWAP2 SWAP1 PUSH2 0x3F6C JUMP JUMPDEST PUSH1 0x40 MLOAD DUP1 SWAP2 SUB SWAP1 RETURN JUMPDEST PUSH2 0x505 PUSH1 0x4 DUP1 CALLDATASIZE SUB DUP2 ADD SWAP1 PUSH2 0x500 SWAP2 SWAP1 PUSH2 0x3548 JUMP JUMPDEST PUSH2 0x119B JUMP JUMPDEST STOP JUMPDEST PUSH1 0x0 PUSH2 0x512 DUP3 PUSH2 0x121F JUMP JUMPDEST SWAP1 POP SWAP2 SWAP1 POP JUMP JUMPDEST PUSH1 0x60 PUSH1 0x1 DUP1 SLOAD PUSH2 0x528 SWAP1 PUSH2 0x45B5 JUMP JUMPDEST DUP1 PUSH1 0x1F ADD PUSH1 0x20 DUP1 SWAP2 DIV MUL PUSH1 0x20 ADD PUSH1 0x40 MLOAD SWAP1 DUP2 ADD PUSH1 0x40 MSTORE DUP1 SWAP3 SWAP2 SWAP1 DUP2 DUP2 MSTORE PUSH1 0x20 ADD DUP3 DUP1 SLOAD PUSH2 0x554 SWAP1 PUSH2 0x45B5 JUMP JUMPDEST DUP1 ISZERO PUSH2 0x5A1 JUMPI DUP1 PUSH1 0x1F LT PUSH2 0x576 JUMPI PUSH2 0x100 DUP1 DUP4 SLOAD DIV MUL DUP4 MSTORE SWAP2 PUSH1 0x20 ADD SWAP2 PUSH2 0x5A1 JUMP JUMPDEST DUP3 ADD SWAP2 SWAP1 PUSH1 0x0 MSTORE PUSH1 0x20 PUSH1 0x0 KECCAK256 SWAP1 JUMPDEST DUP2 SLOAD DUP2 MSTORE SWAP1 PUSH1 0x1 ADD SWAP1 PUSH1 0x20 ADD DUP1 DUP4 GT PUSH2 0x584 JUMPI DUP3 SWAP1 SUB PUSH1 0x1F AND DUP3 ADD SWAP2 JUMPDEST POP POP POP POP POP SWAP1 POP SWAP1 JUMP JUMPDEST PUSH1 0x0 PUSH2 0x5B6 DUP3 PUSH2 0x1280 JUMP JUMPDEST PUSH1 0x5 PUSH1 0x0 DUP4 DUP2 MSTORE PUSH1 0x20 ADD SWAP1 DUP2 MSTORE PUSH1 0x20 ADD PUSH1 0x0 KECCAK256 PUSH1 0x0 SWAP1 SLOAD SWAP1 PUSH2 0x100 EXP SWAP1 DIV PUSH20 0xFFFFFFFFFFFFFFFFFFFFFFFFFFFFFFFFFFFFFFFF AND SWAP1 POP SWAP2 SWAP1 POP JUMP JUMPDEST PUSH1 0x0 PUSH2 0x5FC DUP3 PUSH2 0xA89 JUMP JUMPDEST SWAP1 POP DUP1 PUSH20 0xFFFFFFFFFFFFFFFFFFFFFFFFFFFFFFFFFFFFFFFF AND DUP4 PUSH20 0xFFFFFFFFFFFFFFFFFFFFFFFFFFFFFFFFFFFFFFFF AND EQ ISZERO PUSH2 0x66D JUMPI PUSH1 0x40 MLOAD PUSH32 0x8C379A000000000000000000000000000000000000000000000000000000000 DUP2 MSTORE PUSH1 0x4 ADD PUSH2 0x664 SWAP1 PUSH2 0x41E9 JUMP JUMPDEST PUSH1 0x40 MLOAD DUP1 SWAP2 SUB SWAP1 REVERT JUMPDEST DUP1 PUSH20 0xFFFFFFFFFFFFFFFFFFFFFFFFFFFFFFFFFFFFFFFF AND PUSH2 0x68C PUSH2 0x12CB JUMP JUMPDEST PUSH20 0xFFFFFFFFFFFFFFFFFFFFFFFFFFFFFFFFFFFFFFFF AND EQ DUP1 PUSH2 0x6BB JUMPI POP PUSH2 0x6BA DUP2 PUSH2 0x6B5 PUSH2 0x12CB JUMP JUMPDEST PUSH2 0x1107 JUMP JUMPDEST JUMPDEST PUSH2 0x6FA JUMPI PUSH1 0x40 MLOAD PUSH32 0x8C379A000000000000000000000000000000000000000000000000000000000 DUP2 MSTORE PUSH1 0x4 ADD PUSH2 0x6F1 SWAP1 PUSH2 0x4209 JUMP JUMPDEST PUSH1 0x40 MLOAD DUP1 SWAP2 SUB SWAP1 REVERT JUMPDEST PUSH2 0x704 DUP4 DUP4 PUSH2 0x12D3 JUMP JUMPDEST POP POP POP JUMP JUMPDEST PUSH1 0x0 PUSH1 0xA DUP1 SLOAD SWAP1 POP SWAP1 POP SWAP1 JUMP JUMPDEST PUSH1 0x0 PUSH1 0x1 SWAP1 SLOAD SWAP1 PUSH2 0x100 EXP SWAP1 DIV PUSH1 0xFF AND PUSH2 0x73E JUMPI PUSH1 0x0 DUP1 SLOAD SWAP1 PUSH2 0x100 EXP SWAP1 DIV PUSH1 0xFF AND ISZERO PUSH2 0x747 JUMP JUMPDEST PUSH2 0x746 PUSH2 0x138C JUMP JUMPDEST JUMPDEST PUSH2 0x786 JUMPI PUSH1 0x40 MLOAD PUSH32 0x8C379A000000000000000000000000000000000000000000000000000000000 DUP2 MSTORE PUSH1 0x4 ADD PUSH2 0x77D SWAP1 PUSH2 0x4169 JUMP JUMPDEST PUSH1 0x40 MLOAD DUP1 SWAP2 SUB SWAP1 REVERT JUMPDEST PUSH1 0x0 DUP1 PUSH1 0x1 SWAP1 SLOAD SWAP1 PUSH2 0x100 EXP SWAP1 DIV PUSH1 0xFF AND ISZERO SWAP1 POP DUP1 ISZERO PUSH2 0x7D6 JUMPI PUSH1 0x1 PUSH1 0x0 PUSH1 0x1 PUSH2 0x100 EXP DUP2 SLOAD DUP2 PUSH1 0xFF MUL NOT AND SWAP1 DUP4 ISZERO ISZERO MUL OR SWAP1 SSTORE POP PUSH1 0x1 PUSH1 0x0 DUP1 PUSH2 0x100 EXP DUP2 SLOAD DUP2 PUSH1 0xFF MUL NOT AND SWAP1 DUP4 ISZERO ISZERO MUL OR SWAP1 SSTORE POP JUMPDEST PUSH2 0x7DE PUSH2 0x139D JUMP JUMPDEST PUSH2 0x870 DUP6 DUP6 DUP1 DUP1 PUSH1 0x1F ADD PUSH1 0x20 DUP1 SWAP2 DIV MUL PUSH1 0x20 ADD PUSH1 0x40 MLOAD SWAP1 DUP2 ADD PUSH1 0x40 MSTORE DUP1 SWAP4 SWAP3 SWAP2 SWAP1 DUP2 DUP2 MSTORE PUSH1 0x20 ADD DUP4 DUP4 DUP1 DUP3 DUP5 CALLDATACOPY PUSH1 0x0 DUP2 DUP5 ADD MSTORE PUSH1 0x1F NOT PUSH1 0x1F DUP3 ADD AND SWAP1 POP DUP1 DUP4 ADD SWAP3 POP POP POP POP POP POP POP DUP5 DUP5 DUP1 DUP1 PUSH1 0x1F ADD PUSH1 0x20 DUP1 SWAP2 DIV MUL PUSH1 0x20 ADD PUSH1 0x40 MLOAD SWAP1 DUP2 ADD PUSH1 0x40 MSTORE DUP1 SWAP4 SWAP3 SWAP2 SWAP1 DUP2 DUP2 MSTORE PUSH1 0x20 ADD DUP4 DUP4 DUP1 DUP3 DUP5 CALLDATACOPY PUSH1 0x0 DUP2 DUP5 ADD MSTORE PUSH1 0x1F NOT PUSH1 0x1F DUP3 ADD AND SWAP1 POP DUP1 DUP4 ADD SWAP3 POP POP POP POP POP POP POP PUSH2 0x141B JUMP JUMPDEST DUP1 ISZERO PUSH2 0x891 JUMPI PUSH1 0x0 DUP1 PUSH1 0x1 PUSH2 0x100 EXP DUP2 SLOAD DUP2 PUSH1 0xFF MUL NOT AND SWAP1 DUP4 ISZERO ISZERO MUL OR SWAP1 SSTORE POP JUMPDEST POP POP POP POP POP JUMP JUMPDEST PUSH2 0x8A9 PUSH2 0x8A3 PUSH2 0x12CB JUMP JUMPDEST DUP3 PUSH2 0x1478 JUMP JUMPDEST PUSH2 0x8E8 JUMPI PUSH1 0x40 MLOAD PUSH32 0x8C379A000000000000000000000000000000000000000000000000000000000 DUP2 MSTORE PUSH1 0x4 ADD PUSH2 0x8DF SWAP1 PUSH2 0x3FE9 JUMP JUMPDEST PUSH1 0x40 MLOAD DUP1 SWAP2 SUB SWAP1 REVERT JUMPDEST PUSH2 0x8F3 DUP4 DUP4 DUP4 PUSH2 0x150D JUMP JUMPDEST POP POP POP JUMP JUMPDEST PUSH1 0x0 PUSH2 0x903 DUP4 PUSH2 0xB10 JUMP JUMPDEST DUP3 LT PUSH2 0x944 JUMPI PUSH1 0x40 MLOAD PUSH32 0x8C379A000000000000000000000000000000000000000000000000000000000 DUP2 MSTORE PUSH1 0x4 ADD PUSH2 0x93B SWAP1 PUSH2 0x4009 JUMP JUMPDEST PUSH1 0x40 MLOAD DUP1 SWAP2 SUB SWAP1 REVERT JUMPDEST PUSH1 0x8 PUSH1 0x0 DUP5 PUSH20 0xFFFFFFFFFFFFFFFFFFFFFFFFFFFFFFFFFFFFFFFF AND PUSH20 0xFFFFFFFFFFFFFFFFFFFFFFFFFFFFFFFFFFFFFFFF AND DUP2 MSTORE PUSH1 0x20 ADD SWAP1 DUP2 MSTORE PUSH1 0x20 ADD PUSH1 0x0 KECCAK256 PUSH1 0x0 DUP4 DUP2 MSTORE PUSH1 0x20 ADD SWAP1 DUP2 MSTORE PUSH1 0x20 ADD PUSH1 0x0 KECCAK256 SLOAD SWAP1 POP SWAP3 SWAP2 POP POP JUMP JUMPDEST PUSH2 0x9A5 PUSH2 0x139D JUMP JUMPDEST PUSH2 0x9AD PUSH2 0x1807 JUMP JUMPDEST JUMP JUMPDEST PUSH2 0x9CA DUP4 DUP4 DUP4 PUSH1 0x40 MLOAD DUP1 PUSH1 0x20 ADD PUSH1 0x40 MSTORE DUP1 PUSH1 0x0 DUP2 MSTORE POP PUSH2 0xD5F JUMP JUMPDEST POP POP POP JUMP JUMPDEST PUSH2 0x9D8 DUP2 PUSH2 0x186A JUMP JUMPDEST POP JUMP JUMPDEST PUSH1 0x0 PUSH2 0x9E5 PUSH2 0x709 JUMP JUMPDEST DUP3 LT PUSH2 0xA26 JUMPI PUSH1 0x40 MLOAD PUSH32 0x8C379A000000000000000000000000000000000000000000000000000000000 DUP2 MSTORE PUSH1 0x4 ADD PUSH2 0xA1D SWAP1 PUSH2 0x4229 JUMP JUMPDEST PUSH1 0x40 MLOAD DUP1 SWAP2 SUB SWAP1 REVERT JUMPDEST PUSH1 0xA DUP3 DUP2 SLOAD DUP2 LT PUSH2 0xA60 JUMPI PUSH32 0x4E487B7100000000000000000000000000000000000000000000000000000000 PUSH1 0x0 MSTORE PUSH1 0x32 PUSH1 0x4 MSTORE PUSH1 0x24 PUSH1 0x0 REVERT JUMPDEST SWAP1 PUSH1 0x0 MSTORE PUSH1 0x20 PUSH1 0x0 KECCAK256 ADD SLOAD SWAP1 POP SWAP2 SWAP1 POP JUMP JUMPDEST PUSH1 0x0 PUSH1 0x7 PUSH1 0x0 SWAP1 SLOAD SWAP1 PUSH2 0x100 EXP SWAP1 DIV PUSH1 0xFF AND SWAP1 POP SWAP1 JUMP JUMPDEST PUSH1 0x0 DUP1 PUSH2 0xA95 DUP4 PUSH2 0x18C6 JUMP JUMPDEST SWAP1 POP PUSH1 0x0 PUSH20 0xFFFFFFFFFFFFFFFFFFFFFFFFFFFFFFFFFFFFFFFF AND DUP2 PUSH20 0xFFFFFFFFFFFFFFFFFFFFFFFFFFFFFFFFFFFFFFFF AND EQ ISZERO PUSH2 0xB07 JUMPI PUSH1 0x40 MLOAD PUSH32 0x8C379A000000000000000000000000000000000000000000000000000000000 DUP2 MSTORE PUSH1 0x4 ADD PUSH2 0xAFE SWAP1 PUSH2 0x41C9 JUMP JUMPDEST PUSH1 0x40 MLOAD DUP1 SWAP2 SUB SWAP1 REVERT JUMPDEST DUP1 SWAP2 POP POP SWAP2 SWAP1 POP JUMP JUMPDEST PUSH1 0x0 DUP1 PUSH20 0xFFFFFFFFFFFFFFFFFFFFFFFFFFFFFFFFFFFFFFFF AND DUP3 PUSH20 0xFFFFFFFFFFFFFFFFFFFFFFFFFFFFFFFFFFFFFFFF AND EQ ISZERO PUSH2 0xB81 JUMPI PUSH1 0x40 MLOAD PUSH32 0x8C379A000000000000000000000000000000000000000000000000000000000 DUP2 MSTORE PUSH1 0x4 ADD PUSH2 0xB78 SWAP1 PUSH2 0x4129 JUMP JUMPDEST PUSH1 0x40 MLOAD DUP1 SWAP2 SUB SWAP1 REVERT JUMPDEST PUSH1 0x4 PUSH1 0x0 DUP4 PUSH20 0xFFFFFFFFFFFFFFFFFFFFFFFFFFFFFFFFFFFFFFFF AND PUSH20 0xFFFFFFFFFFFFFFFFFFFFFFFFFFFFFFFFFFFFFFFF AND DUP2 MSTORE PUSH1 0x20 ADD SWAP1 DUP2 MSTORE PUSH1 0x20 ADD PUSH1 0x0 KECCAK256 SLOAD SWAP1 POP SWAP2 SWAP1 POP JUMP JUMPDEST PUSH2 0xBD0 PUSH2 0x139D JUMP JUMPDEST PUSH2 0xBDA PUSH1 0x0 PUSH2 0x1903 JUMP JUMPDEST JUMP JUMPDEST PUSH1 0x0 PUSH2 0xBE6 PUSH2 0x139D JUMP JUMPDEST PUSH1 0x0 PUSH1 0xD PUSH1 0x0 DUP2 SLOAD DUP1 SWAP3 SWAP2 SWAP1 PUSH2 0xBFB SWAP1 PUSH2 0x4618 JUMP JUMPDEST SWAP2 SWAP1 POP SSTORE SWAP1 POP PUSH1 0x1 PUSH1 0xCA PUSH2 0xC0F SWAP2 SWAP1 PUSH2 0x44BE JUMP JUMPDEST PUSH1 0xFF AND DUP2 GT ISZERO PUSH2 0xC5E JUMPI PUSH1 0x0 DUP4 MLOAD GT PUSH2 0xC5D JUMPI PUSH1 0x40 MLOAD PUSH32 0x8C379A000000000000000000000000000000000000000000000000000000000 DUP2 MSTORE PUSH1 0x4 ADD PUSH2 0xC54 SWAP1 PUSH2 0x4069 JUMP JUMPDEST PUSH1 0x40 MLOAD DUP1 SWAP2 SUB SWAP1 REVERT JUMPDEST JUMPDEST PUSH2 0xC68 DUP5 DUP3 PUSH2 0x19C8 JUMP JUMPDEST PUSH2 0xC72 DUP2 DUP5 PUSH2 0x19E6 JUMP JUMPDEST DUP1 SWAP2 POP POP SWAP3 SWAP2 POP POP JUMP JUMPDEST PUSH2 0xC84 PUSH2 0x139D JUMP JUMPDEST PUSH2 0xC8C PUSH2 0x1A91 JUMP JUMPDEST JUMP JUMPDEST PUSH1 0x0 DUP1 PUSH1 0x2 SWAP1 SLOAD SWAP1 PUSH2 0x100 EXP SWAP1 DIV PUSH20 0xFFFFFFFFFFFFFFFFFFFFFFFFFFFFFFFFFFFFFFFF AND SWAP1 POP SWAP1 JUMP JUMPDEST PUSH1 0x60 PUSH1 0x2 DUP1 SLOAD PUSH2 0xCC6 SWAP1 PUSH2 0x45B5 JUMP JUMPDEST DUP1 PUSH1 0x1F ADD PUSH1 0x20 DUP1 SWAP2 DIV MUL PUSH1 0x20 ADD PUSH1 0x40 MLOAD SWAP1 DUP2 ADD PUSH1 0x40 MSTORE DUP1 SWAP3 SWAP2 SWAP1 DUP2 DUP2 MSTORE PUSH1 0x20 ADD DUP3 DUP1 SLOAD PUSH2 0xCF2 SWAP1 PUSH2 0x45B5 JUMP JUMPDEST DUP1 ISZERO PUSH2 0xD3F JUMPI DUP1 PUSH1 0x1F LT PUSH2 0xD14 JUMPI PUSH2 0x100 DUP1 DUP4 SLOAD DIV MUL DUP4 MSTORE SWAP2 PUSH1 0x20 ADD SWAP2 PUSH2 0xD3F JUMP JUMPDEST DUP3 ADD SWAP2 SWAP1 PUSH1 0x0 MSTORE PUSH1 0x20 PUSH1 0x0 KECCAK256 SWAP1 JUMPDEST DUP2 SLOAD DUP2 MSTORE SWAP1 PUSH1 0x1 ADD SWAP1 PUSH1 0x20 ADD DUP1 DUP4 GT PUSH2 0xD22 JUMPI DUP3 SWAP1 SUB PUSH1 0x1F AND DUP3 ADD SWAP2 JUMPDEST POP POP POP POP POP SWAP1 POP SWAP1 JUMP JUMPDEST PUSH2 0xD5B PUSH2 0xD54 PUSH2 0x12CB JUMP JUMPDEST DUP4 DUP4 PUSH2 0x1AF4 JUMP JUMPDEST POP POP JUMP JUMPDEST PUSH2 0xD70 PUSH2 0xD6A PUSH2 0x12CB JUMP JUMPDEST DUP4 PUSH2 0x1478 JUMP JUMPDEST PUSH2 0xDAF JUMPI PUSH1 0x40 MLOAD PUSH32 0x8C379A000000000000000000000000000000000000000000000000000000000 DUP2 MSTORE PUSH1 0x4 ADD PUSH2 0xDA6 SWAP1 PUSH2 0x3FE9 JUMP JUMPDEST PUSH1 0x40 MLOAD DUP1 SWAP2 SUB SWAP1 REVERT JUMPDEST PUSH2 0xDBB DUP5 DUP5 DUP5 DUP5 PUSH2 0x1C61 JUMP JUMPDEST POP POP POP POP JUMP JUMPDEST PUSH2 0xDC9 PUSH2 0x32B3 JUMP JUMPDEST PUSH1 0x0 PUSH20 0xFFFFFFFFFFFFFFFFFFFFFFFFFFFFFFFFFFFFFFFF AND DUP3 PUSH20 0xFFFFFFFFFFFFFFFFFFFFFFFFFFFFFFFFFFFFFFFF AND EQ ISZERO PUSH2 0xE29 JUMPI PUSH2 0xE22 DUP5 DUP5 DUP5 PUSH1 0x40 MLOAD DUP1 PUSH1 0x60 ADD PUSH1 0x40 MSTORE DUP1 PUSH1 0x2F DUP2 MSTORE PUSH1 0x20 ADD PUSH2 0x4E69 PUSH1 0x2F SWAP2 CODECOPY PUSH2 0x1CBD JUMP JUMPDEST SWAP1 POP PUSH2 0x10EE JUMP JUMPDEST PUSH1 0x1 DUP5 LT ISZERO PUSH2 0xE5D JUMPI PUSH2 0xE56 DUP5 DUP5 DUP5 PUSH1 0x40 MLOAD DUP1 PUSH1 0x60 ADD PUSH1 0x40 MSTORE DUP1 PUSH1 0x2E DUP2 MSTORE PUSH1 0x20 ADD PUSH2 0x4E12 PUSH1 0x2E SWAP2 CODECOPY PUSH2 0x1DAA JUMP JUMPDEST SWAP1 POP PUSH2 0x10EE JUMP JUMPDEST PUSH1 0x0 PUSH2 0xE68 DUP4 PUSH2 0xB10 JUMP JUMPDEST SWAP1 POP PUSH1 0x0 DUP5 PUSH1 0x1 DUP8 PUSH2 0xE7A SWAP2 SWAP1 PUSH2 0x448A JUMP JUMPDEST PUSH2 0xE84 SWAP2 SWAP1 PUSH2 0x4430 JUMP JUMPDEST SWAP1 POP DUP2 DUP2 LT PUSH2 0xEBA JUMPI PUSH2 0xEB1 DUP7 DUP7 DUP7 PUSH1 0x40 MLOAD DUP1 PUSH1 0x60 ADD PUSH1 0x40 MSTORE DUP1 PUSH1 0x29 DUP2 MSTORE PUSH1 0x20 ADD PUSH2 0x4E40 PUSH1 0x29 SWAP2 CODECOPY PUSH2 0x1DAA JUMP JUMPDEST SWAP3 POP POP POP PUSH2 0x10EE JUMP JUMPDEST PUSH1 0x0 DUP2 DUP4 PUSH2 0xEC8 SWAP2 SWAP1 PUSH2 0x448A JUMP JUMPDEST SWAP1 POP PUSH1 0x0 DUP7 DUP3 LT ISZERO PUSH2 0xEDC JUMPI DUP2 SWAP1 POP PUSH2 0xEE0 JUMP JUMPDEST DUP7 SWAP1 POP JUMPDEST PUSH1 0x0 DUP2 PUSH8 0xFFFFFFFFFFFFFFFF DUP2 GT ISZERO PUSH2 0xF22 JUMPI PUSH32 0x4E487B7100000000000000000000000000000000000000000000000000000000 PUSH1 0x0 MSTORE PUSH1 0x41 PUSH1 0x4 MSTORE PUSH1 0x24 PUSH1 0x0 REVERT JUMPDEST PUSH1 0x40 MLOAD SWAP1 DUP1 DUP3 MSTORE DUP1 PUSH1 0x20 MUL PUSH1 0x20 ADD DUP3 ADD PUSH1 0x40 MSTORE DUP1 ISZERO PUSH2 0xF5B JUMPI DUP2 PUSH1 0x20 ADD JUMPDEST PUSH2 0xF48 PUSH2 0x32E4 JUMP JUMPDEST DUP2 MSTORE PUSH1 0x20 ADD SWAP1 PUSH1 0x1 SWAP1 SUB SWAP1 DUP2 PUSH2 0xF40 JUMPI SWAP1 POP JUMPDEST POP SWAP1 POP PUSH1 0x0 DUP3 DUP6 PUSH2 0xF6C SWAP2 SWAP1 PUSH2 0x43A9 JUMP JUMPDEST SWAP1 POP PUSH1 0x0 DUP1 DUP7 SWAP1 POP JUMPDEST DUP3 DUP2 LT ISZERO PUSH2 0x1066 JUMPI PUSH1 0x0 PUSH2 0xF88 DUP3 PUSH2 0x9DB JUMP JUMPDEST SWAP1 POP PUSH1 0x0 PUSH2 0xF95 DUP3 PUSH2 0x10F5 JUMP JUMPDEST SWAP1 POP PUSH1 0x40 MLOAD DUP1 PUSH1 0x80 ADD PUSH1 0x40 MSTORE DUP1 DUP4 DUP2 MSTORE PUSH1 0x20 ADD DUP3 DUP2 MSTORE PUSH1 0x20 ADD ADDRESS PUSH20 0xFFFFFFFFFFFFFFFFFFFFFFFFFFFFFFFFFFFFFFFF AND DUP2 MSTORE PUSH1 0x20 ADD PUSH1 0x40 MLOAD DUP1 PUSH1 0x40 ADD PUSH1 0x40 MSTORE DUP1 PUSH1 0x6 DUP2 MSTORE PUSH1 0x20 ADD PUSH32 0x6572633732310000000000000000000000000000000000000000000000000000 DUP2 MSTORE POP DUP2 MSTORE POP DUP7 DUP6 DUP2 MLOAD DUP2 LT PUSH2 0x103C JUMPI PUSH32 0x4E487B7100000000000000000000000000000000000000000000000000000000 PUSH1 0x0 MSTORE PUSH1 0x32 PUSH1 0x4 MSTORE PUSH1 0x24 PUSH1 0x0 REVERT JUMPDEST PUSH1 0x20 MUL PUSH1 0x20 ADD ADD DUP2 SWAP1 MSTORE POP DUP4 PUSH2 0x1051 SWAP1 PUSH2 0x4618 JUMP JUMPDEST SWAP4 POP POP POP DUP1 PUSH2 0x105F SWAP1 PUSH2 0x4618 JUMP JUMPDEST SWAP1 POP PUSH2 0xF75 JUMP JUMPDEST POP PUSH1 0x0 PUSH2 0x1074 DUP13 DUP13 DUP13 PUSH2 0x1E7E JUMP JUMPDEST SWAP1 POP PUSH2 0x107E PUSH2 0x32B3 JUMP JUMPDEST PUSH1 0x0 DUP2 PUSH1 0x0 ADD SWAP1 PUSH1 0xFF AND SWAP1 DUP2 PUSH1 0xFF AND DUP2 MSTORE POP POP PUSH1 0x40 MLOAD DUP1 PUSH1 0x40 ADD PUSH1 0x40 MSTORE DUP1 PUSH1 0x7 DUP2 MSTORE PUSH1 0x20 ADD PUSH32 0x7375636365737300000000000000000000000000000000000000000000000000 DUP2 MSTORE POP DUP2 PUSH1 0x20 ADD DUP2 SWAP1 MSTORE POP DUP5 DUP2 PUSH1 0x40 ADD DUP2 SWAP1 MSTORE POP DUP2 DUP2 PUSH1 0x60 ADD DUP2 SWAP1 MSTORE POP DUP1 SWAP10 POP POP POP POP POP POP POP POP POP POP JUMPDEST SWAP4 SWAP3 POP POP POP JUMP JUMPDEST PUSH1 0x60 PUSH2 0x1100 DUP3 PUSH2 0x1F7E JUMP JUMPDEST SWAP1 POP SWAP2 SWAP1 POP JUMP JUMPDEST PUSH1 0x0 PUSH1 0x6 PUSH1 0x0 DUP5 PUSH20 0xFFFFFFFFFFFFFFFFFFFFFFFFFFFFFFFFFFFFFFFF AND PUSH20 0xFFFFFFFFFFFFFFFFFFFFFFFFFFFFFFFFFFFFFFFF AND DUP2 MSTORE PUSH1 0x20 ADD SWAP1 DUP2 MSTORE PUSH1 0x20 ADD PUSH1 0x0 KECCAK256 PUSH1 0x0 DUP4 PUSH20 0xFFFFFFFFFFFFFFFFFFFFFFFFFFFFFFFFFFFFFFFF AND PUSH20 0xFFFFFFFFFFFFFFFFFFFFFFFFFFFFFFFFFFFFFFFF AND DUP2 MSTORE PUSH1 0x20 ADD SWAP1 DUP2 MSTORE PUSH1 0x20 ADD PUSH1 0x0 KECCAK256 PUSH1 0x0 SWAP1 SLOAD SWAP1 PUSH2 0x100 EXP SWAP1 DIV PUSH1 0xFF AND SWAP1 POP SWAP3 SWAP2 POP POP JUMP JUMPDEST PUSH2 0x11A3 PUSH2 0x139D JUMP JUMPDEST PUSH1 0x0 PUSH20 0xFFFFFFFFFFFFFFFFFFFFFFFFFFFFFFFFFFFFFFFF AND DUP2 PUSH20 0xFFFFFFFFFFFFFFFFFFFFFFFFFFFFFFFFFFFFFFFF AND EQ ISZERO PUSH2 0x1213 JUMPI PUSH1 0x40 MLOAD PUSH32 0x8C379A000000000000000000000000000000000000000000000000000000000 DUP2 MSTORE PUSH1 0x4 ADD PUSH2 0x120A SWAP1 PUSH2 0x4049 JUMP JUMPDEST PUSH1 0x40 MLOAD DUP1 SWAP2 SUB SWAP1 REVERT JUMPDEST PUSH2 0x121C DUP2 PUSH2 0x1903 JUMP JUMPDEST POP JUMP JUMPDEST PUSH1 0x0 PUSH4 0x49064906 PUSH1 0xE0 SHL PUSH28 0xFFFFFFFFFFFFFFFFFFFFFFFFFFFFFFFFFFFFFFFFFFFFFFFFFFFFFFFF NOT AND DUP3 PUSH28 0xFFFFFFFFFFFFFFFFFFFFFFFFFFFFFFFFFFFFFFFFFFFFFFFFFFFFFFFF NOT AND EQ DUP1 PUSH2 0x1279 JUMPI POP PUSH2 0x1278 DUP3 PUSH2 0x2091 JUMP JUMPDEST JUMPDEST SWAP1 POP SWAP2 SWAP1 POP JUMP JUMPDEST PUSH2 0x1289 DUP2 PUSH2 0x210B JUMP JUMPDEST PUSH2 0x12C8 JUMPI PUSH1 0x40 MLOAD PUSH32 0x8C379A000000000000000000000000000000000000000000000000000000000 DUP2 MSTORE PUSH1 0x4 ADD PUSH2 0x12BF SWAP1 PUSH2 0x41C9 JUMP JUMPDEST PUSH1 0x40 MLOAD DUP1 SWAP2 SUB SWAP1 REVERT JUMPDEST POP JUMP JUMPDEST PUSH1 0x0 CALLER SWAP1 POP SWAP1 JUMP JUMPDEST DUP2 PUSH1 0x5 PUSH1 0x0 DUP4 DUP2 MSTORE PUSH1 0x20 ADD SWAP1 DUP2 MSTORE PUSH1 0x20 ADD PUSH1 0x0 KECCAK256 PUSH1 0x0 PUSH2 0x100 EXP DUP2 SLOAD DUP2 PUSH20 0xFFFFFFFFFFFFFFFFFFFFFFFFFFFFFFFFFFFFFFFF MUL NOT AND SWAP1 DUP4 PUSH20 0xFFFFFFFFFFFFFFFFFFFFFFFFFFFFFFFFFFFFFFFF AND MUL OR SWAP1 SSTORE POP DUP1 DUP3 PUSH20 0xFFFFFFFFFFFFFFFFFFFFFFFFFFFFFFFFFFFFFFFF AND PUSH2 0x1346 DUP4 PUSH2 0xA89 JUMP JUMPDEST PUSH20 0xFFFFFFFFFFFFFFFFFFFFFFFFFFFFFFFFFFFFFFFF AND PUSH32 0x8C5BE1E5EBEC7D5BD14F71427D1E84F3DD0314C0F7B2291E5B200AC8C7C3B925 PUSH1 0x40 MLOAD PUSH1 0x40 MLOAD DUP1 SWAP2 SUB SWAP1 LOG4 POP POP JUMP JUMPDEST PUSH1 0x0 PUSH2 0x1397 ADDRESS PUSH2 0x214C JUMP JUMPDEST ISZERO SWAP1 POP SWAP1 JUMP JUMPDEST PUSH2 0x13A5 PUSH2 0x12CB JUMP JUMPDEST PUSH20 0xFFFFFFFFFFFFFFFFFFFFFFFFFFFFFFFFFFFFFFFF AND PUSH2 0x13C3 PUSH2 0xC8E JUMP JUMPDEST PUSH20 0xFFFFFFFFFFFFFFFFFFFFFFFFFFFFFFFFFFFFFFFF AND EQ PUSH2 0x1419 JUMPI PUSH1 0x40 MLOAD PUSH32 0x8C379A000000000000000000000000000000000000000000000000000000000 DUP2 MSTORE PUSH1 0x4 ADD PUSH2 0x1410 SWAP1 PUSH2 0x41A9 JUMP JUMPDEST PUSH1 0x40 MLOAD DUP1 SWAP2 SUB SWAP1 REVERT JUMPDEST JUMP JUMPDEST PUSH1 0x0 PUSH1 0x1 SWAP1 SLOAD SWAP1 PUSH2 0x100 EXP SWAP1 DIV PUSH1 0xFF AND PUSH2 0x146A JUMPI PUSH1 0x40 MLOAD PUSH32 0x8C379A000000000000000000000000000000000000000000000000000000000 DUP2 MSTORE PUSH1 0x4 ADD PUSH2 0x1461 SWAP1 PUSH2 0x4249 JUMP JUMPDEST PUSH1 0x40 MLOAD DUP1 SWAP2 SUB SWAP1 REVERT JUMPDEST PUSH2 0x1474 DUP3 DUP3 PUSH2 0x216F JUMP JUMPDEST POP POP JUMP JUMPDEST PUSH1 0x0 DUP1 PUSH2 0x1484 DUP4 PUSH2 0xA89 JUMP JUMPDEST SWAP1 POP DUP1 PUSH20 0xFFFFFFFFFFFFFFFFFFFFFFFFFFFFFFFFFFFFFFFF AND DUP5 PUSH20 0xFFFFFFFFFFFFFFFFFFFFFFFFFFFFFFFFFFFFFFFF AND EQ DUP1 PUSH2 0x14C6 JUMPI POP PUSH2 0x14C5 DUP2 DUP6 PUSH2 0x1107 JUMP JUMPDEST JUMPDEST DUP1 PUSH2 0x1504 JUMPI POP DUP4 PUSH20 0xFFFFFFFFFFFFFFFFFFFFFFFFFFFFFFFFFFFFFFFF AND PUSH2 0x14EC DUP5 PUSH2 0x5AB JUMP JUMPDEST PUSH20 0xFFFFFFFFFFFFFFFFFFFFFFFFFFFFFFFFFFFFFFFF AND EQ JUMPDEST SWAP2 POP POP SWAP3 SWAP2 POP POP JUMP JUMPDEST DUP3 PUSH20 0xFFFFFFFFFFFFFFFFFFFFFFFFFFFFFFFFFFFFFFFF AND PUSH2 0x152D DUP3 PUSH2 0xA89 JUMP JUMPDEST PUSH20 0xFFFFFFFFFFFFFFFFFFFFFFFFFFFFFFFFFFFFFFFF AND EQ PUSH2 0x1583 JUMPI PUSH1 0x40 MLOAD PUSH32 0x8C379A000000000000000000000000000000000000000000000000000000000 DUP2 MSTORE PUSH1 0x4 ADD PUSH2 0x157A SWAP1 PUSH2 0x4089 JUMP JUMPDEST PUSH1 0x40 MLOAD DUP1 SWAP2 SUB SWAP1 REVERT JUMPDEST PUSH1 0x0 PUSH20 0xFFFFFFFFFFFFFFFFFFFFFFFFFFFFFFFFFFFFFFFF AND DUP3 PUSH20 0xFFFFFFFFFFFFFFFFFFFFFFFFFFFFFFFFFFFFFFFF AND EQ ISZERO PUSH2 0x15F3 JUMPI PUSH1 0x40 MLOAD PUSH32 0x8C379A000000000000000000000000000000000000000000000000000000000 DUP2 MSTORE PUSH1 0x4 ADD PUSH2 0x15EA SWAP1 PUSH2 0x40C9 JUMP JUMPDEST PUSH1 0x40 MLOAD DUP1 SWAP2 SUB SWAP1 REVERT JUMPDEST PUSH2 0x1600 DUP4 DUP4 DUP4 PUSH1 0x1 PUSH2 0x21F0 JUMP JUMPDEST DUP3 PUSH20 0xFFFFFFFFFFFFFFFFFFFFFFFFFFFFFFFFFFFFFFFF AND PUSH2 0x1620 DUP3 PUSH2 0xA89 JUMP JUMPDEST PUSH20 0xFFFFFFFFFFFFFFFFFFFFFFFFFFFFFFFFFFFFFFFF AND EQ PUSH2 0x1676 JUMPI PUSH1 0x40 MLOAD PUSH32 0x8C379A000000000000000000000000000000000000000000000000000000000 DUP2 MSTORE PUSH1 0x4 ADD PUSH2 0x166D SWAP1 PUSH2 0x4089 JUMP JUMPDEST PUSH1 0x40 MLOAD DUP1 SWAP2 SUB SWAP1 REVERT JUMPDEST PUSH1 0x5 PUSH1 0x0 DUP3 DUP2 MSTORE PUSH1 0x20 ADD SWAP1 DUP2 MSTORE PUSH1 0x20 ADD PUSH1 0x0 KECCAK256 PUSH1 0x0 PUSH2 0x100 EXP DUP2 SLOAD SWAP1 PUSH20 0xFFFFFFFFFFFFFFFFFFFFFFFFFFFFFFFFFFFFFFFF MUL NOT AND SWAP1 SSTORE PUSH1 0x1 PUSH1 0x4 PUSH1 0x0 DUP6 PUSH20 0xFFFFFFFFFFFFFFFFFFFFFFFFFFFFFFFFFFFFFFFF AND PUSH20 0xFFFFFFFFFFFFFFFFFFFFFFFFFFFFFFFFFFFFFFFF AND DUP2 MSTORE PUSH1 0x20 ADD SWAP1 DUP2 MSTORE PUSH1 0x20 ADD PUSH1 0x0 KECCAK256 PUSH1 0x0 DUP3 DUP3 SLOAD SUB SWAP3 POP POP DUP2 SWAP1 SSTORE POP PUSH1 0x1 PUSH1 0x4 PUSH1 0x0 DUP5 PUSH20 0xFFFFFFFFFFFFFFFFFFFFFFFFFFFFFFFFFFFFFFFF AND PUSH20 0xFFFFFFFFFFFFFFFFFFFFFFFFFFFFFFFFFFFFFFFF AND DUP2 MSTORE PUSH1 0x20 ADD SWAP1 DUP2 MSTORE PUSH1 0x20 ADD PUSH1 0x0 KECCAK256 PUSH1 0x0 DUP3 DUP3 SLOAD ADD SWAP3 POP POP DUP2 SWAP1 SSTORE POP DUP2 PUSH1 0x3 PUSH1 0x0 DUP4 DUP2 MSTORE PUSH1 0x20 ADD SWAP1 DUP2 MSTORE PUSH1 0x20 ADD PUSH1 0x0 KECCAK256 PUSH1 0x0 PUSH2 0x100 EXP DUP2 SLOAD DUP2 PUSH20 0xFFFFFFFFFFFFFFFFFFFFFFFFFFFFFFFFFFFFFFFF MUL NOT AND SWAP1 DUP4 PUSH20 0xFFFFFFFFFFFFFFFFFFFFFFFFFFFFFFFFFFFFFFFF AND MUL OR SWAP1 SSTORE POP DUP1 DUP3 PUSH20 0xFFFFFFFFFFFFFFFFFFFFFFFFFFFFFFFFFFFFFFFF AND DUP5 PUSH20 0xFFFFFFFFFFFFFFFFFFFFFFFFFFFFFFFFFFFFFFFF AND PUSH32 0xDDF252AD1BE2C89B69C2B068FC378DAA952BA7F163C4A11628F55A4DF523B3EF PUSH1 0x40 MLOAD PUSH1 0x40 MLOAD DUP1 SWAP2 SUB SWAP1 LOG4 PUSH2 0x1802 DUP4 DUP4 DUP4 PUSH1 0x1 PUSH2 0x2202 JUMP JUMPDEST POP POP POP JUMP JUMPDEST PUSH2 0x180F PUSH2 0x2208 JUMP JUMPDEST PUSH1 0x0 PUSH1 0x7 PUSH1 0x0 PUSH2 0x100 EXP DUP2 SLOAD DUP2 PUSH1 0xFF MUL NOT AND SWAP1 DUP4 ISZERO ISZERO MUL OR SWAP1 SSTORE POP PUSH32 0x5DB9EE0A495BF2E6FF9C91A7834C1BA4FDD244A5E8AA4E537BD38AEAE4B073AA PUSH2 0x1853 PUSH2 0x12CB JUMP JUMPDEST PUSH1 0x40 MLOAD PUSH2 0x1860 SWAP2 SWAP1 PUSH2 0x3F05 JUMP JUMPDEST PUSH1 0x40 MLOAD DUP1 SWAP2 SUB SWAP1 LOG1 JUMP JUMPDEST PUSH2 0x187B PUSH2 0x1875 PUSH2 0x12CB JUMP JUMPDEST DUP3 PUSH2 0x1478 JUMP JUMPDEST PUSH2 0x18BA JUMPI PUSH1 0x40 MLOAD PUSH32 0x8C379A000000000000000000000000000000000000000000000000000000000 DUP2 MSTORE PUSH1 0x4 ADD PUSH2 0x18B1 SWAP1 PUSH2 0x3FE9 JUMP JUMPDEST PUSH1 0x40 MLOAD DUP1 SWAP2 SUB SWAP1 REVERT JUMPDEST PUSH2 0x18C3 DUP2 PUSH2 0x2251 JUMP JUMPDEST POP JUMP JUMPDEST PUSH1 0x0 PUSH1 0x3 PUSH1 0x0 DUP4 DUP2 MSTORE PUSH1 0x20 ADD SWAP1 DUP2 MSTORE PUSH1 0x20 ADD PUSH1 0x0 KECCAK256 PUSH1 0x0 SWAP1 SLOAD SWAP1 PUSH2 0x100 EXP SWAP1 DIV PUSH20 0xFFFFFFFFFFFFFFFFFFFFFFFFFFFFFFFFFFFFFFFF AND SWAP1 POP SWAP2 SWAP1 POP JUMP JUMPDEST PUSH1 0x0 DUP1 PUSH1 0x2 SWAP1 SLOAD SWAP1 PUSH2 0x100 EXP SWAP1 DIV PUSH20 0xFFFFFFFFFFFFFFFFFFFFFFFFFFFFFFFFFFFFFFFF AND SWAP1 POP DUP2 PUSH1 0x0 PUSH1 0x2 PUSH2 0x100 EXP DUP2 SLOAD DUP2 PUSH20 0xFFFFFFFFFFFFFFFFFFFFFFFFFFFFFFFFFFFFFFFF MUL NOT AND SWAP1 DUP4 PUSH20 0xFFFFFFFFFFFFFFFFFFFFFFFFFFFFFFFFFFFFFFFF AND MUL OR SWAP1 SSTORE POP DUP2 PUSH20 0xFFFFFFFFFFFFFFFFFFFFFFFFFFFFFFFFFFFFFFFF AND DUP2 PUSH20 0xFFFFFFFFFFFFFFFFFFFFFFFFFFFFFFFFFFFFFFFF AND PUSH32 0x8BE0079C531659141344CD1FD0A4F28419497F9722A3DAAFE3B4186F6B6457E0 PUSH1 0x40 MLOAD PUSH1 0x40 MLOAD DUP1 SWAP2 SUB SWAP1 LOG3 POP POP JUMP JUMPDEST PUSH2 0x19E2 DUP3 DUP3 PUSH1 0x40 MLOAD DUP1 PUSH1 0x20 ADD PUSH1 0x40 MSTORE DUP1 PUSH1 0x0 DUP2 MSTORE POP PUSH2 0x22A4 JUMP JUMPDEST POP POP JUMP JUMPDEST PUSH2 0x19EF DUP3 PUSH2 0x210B JUMP JUMPDEST PUSH2 0x1A2E JUMPI PUSH1 0x40 MLOAD PUSH32 0x8C379A000000000000000000000000000000000000000000000000000000000 DUP2 MSTORE PUSH1 0x4 ADD PUSH2 0x1A25 SWAP1 PUSH2 0x4149 JUMP JUMPDEST PUSH1 0x40 MLOAD DUP1 SWAP2 SUB SWAP1 REVERT JUMPDEST DUP1 PUSH1 0xC PUSH1 0x0 DUP5 DUP2 MSTORE PUSH1 0x20 ADD SWAP1 DUP2 MSTORE PUSH1 0x20 ADD PUSH1 0x0 KECCAK256 SWAP1 DUP1 MLOAD SWAP1 PUSH1 0x20 ADD SWAP1 PUSH2 0x1A55 SWAP3 SWAP2 SWAP1 PUSH2 0x3322 JUMP JUMPDEST POP PUSH32 0xF8E1A15ABA9398E019F0B49DF1A4FDE98EE17AE345CB5F6B5E2C27F5033E8CE7 DUP3 PUSH1 0x40 MLOAD PUSH2 0x1A85 SWAP2 SWAP1 PUSH2 0x42AB JUMP JUMPDEST PUSH1 0x40 MLOAD DUP1 SWAP2 SUB SWAP1 LOG1 POP POP JUMP JUMPDEST PUSH2 0x1A99 PUSH2 0x22FF JUMP JUMPDEST PUSH1 0x1 PUSH1 0x7 PUSH1 0x0 PUSH2 0x100 EXP DUP2 SLOAD DUP2 PUSH1 0xFF MUL NOT AND SWAP1 DUP4 ISZERO ISZERO MUL OR SWAP1 SSTORE POP PUSH32 0x62E78CEA01BEE320CD4E420270B5EA74000D11B0C9F74754EBDBFC544B05A258 PUSH2 0x1ADD PUSH2 0x12CB JUMP JUMPDEST PUSH1 0x40 MLOAD PUSH2 0x1AEA SWAP2 SWAP1 PUSH2 0x3F05 JUMP JUMPDEST PUSH1 0x40 MLOAD DUP1 SWAP2 SUB SWAP1 LOG1 JUMP JUMPDEST DUP2 PUSH20 0xFFFFFFFFFFFFFFFFFFFFFFFFFFFFFFFFFFFFFFFF AND DUP4 PUSH20 0xFFFFFFFFFFFFFFFFFFFFFFFFFFFFFFFFFFFFFFFF AND EQ ISZERO PUSH2 0x1B63 JUMPI PUSH1 0x40 MLOAD PUSH32 0x8C379A000000000000000000000000000000000000000000000000000000000 DUP2 MSTORE PUSH1 0x4 ADD PUSH2 0x1B5A SWAP1 PUSH2 0x40E9 JUMP JUMPDEST PUSH1 0x40 MLOAD DUP1 SWAP2 SUB SWAP1 REVERT JUMPDEST DUP1 PUSH1 0x6 PUSH1 0x0 DUP6 PUSH20 0xFFFFFFFFFFFFFFFFFFFFFFFFFFFFFFFFFFFFFFFF AND PUSH20 0xFFFFFFFFFFFFFFFFFFFFFFFFFFFFFFFFFFFFFFFF AND DUP2 MSTORE PUSH1 0x20 ADD SWAP1 DUP2 MSTORE PUSH1 0x20 ADD PUSH1 0x0 KECCAK256 PUSH1 0x0 DUP5 PUSH20 0xFFFFFFFFFFFFFFFFFFFFFFFFFFFFFFFFFFFFFFFF AND PUSH20 0xFFFFFFFFFFFFFFFFFFFFFFFFFFFFFFFFFFFFFFFF AND DUP2 MSTORE PUSH1 0x20 ADD SWAP1 DUP2 MSTORE PUSH1 0x20 ADD PUSH1 0x0 KECCAK256 PUSH1 0x0 PUSH2 0x100 EXP DUP2 SLOAD DUP2 PUSH1 0xFF MUL NOT AND SWAP1 DUP4 ISZERO ISZERO MUL OR SWAP1 SSTORE POP DUP2 PUSH20 0xFFFFFFFFFFFFFFFFFFFFFFFFFFFFFFFFFFFFFFFF AND DUP4 PUSH20 0xFFFFFFFFFFFFFFFFFFFFFFFFFFFFFFFFFFFFFFFF AND PUSH32 0x17307EAB39AB6107E8899845AD3D59BD9653F200F220920489CA2B5937696C31 DUP4 PUSH1 0x40 MLOAD PUSH2 0x1C54 SWAP2 SWAP1 PUSH2 0x3F6C JUMP JUMPDEST PUSH1 0x40 MLOAD DUP1 SWAP2 SUB SWAP1 LOG3 POP POP POP JUMP JUMPDEST PUSH2 0x1C6C DUP5 DUP5 DUP5 PUSH2 0x150D JUMP JUMPDEST PUSH2 0x1C78 DUP5 DUP5 DUP5 DUP5 PUSH2 0x2349 JUMP JUMPDEST PUSH2 0x1CB7 JUMPI PUSH1 0x40 MLOAD PUSH32 0x8C379A000000000000000000000000000000000000000000000000000000000 DUP2 MSTORE PUSH1 0x4 ADD PUSH2 0x1CAE SWAP1 PUSH2 0x4029 JUMP JUMPDEST PUSH1 0x40 MLOAD DUP1 SWAP2 SUB SWAP1 REVERT JUMPDEST POP POP POP POP JUMP JUMPDEST PUSH2 0x1CC5 PUSH2 0x32B3 JUMP JUMPDEST PUSH2 0x1CCD PUSH2 0x33A8 JUMP JUMPDEST DUP6 DUP2 PUSH1 0x20 ADD DUP2 DUP2 MSTORE POP POP PUSH1 0x1 DUP7 PUSH2 0x1CE4 SWAP2 SWAP1 PUSH2 0x448A JUMP JUMPDEST DUP2 PUSH1 0x40 ADD DUP2 DUP2 MSTORE POP POP PUSH2 0x1CF5 PUSH2 0x32B3 JUMP JUMPDEST PUSH1 0x1 DUP2 PUSH1 0x0 ADD SWAP1 PUSH1 0xFF AND SWAP1 DUP2 PUSH1 0xFF AND DUP2 MSTORE POP POP DUP4 DUP2 PUSH1 0x20 ADD DUP2 SWAP1 MSTORE POP PUSH1 0x0 PUSH8 0xFFFFFFFFFFFFFFFF DUP2 GT ISZERO PUSH2 0x1D52 JUMPI PUSH32 0x4E487B7100000000000000000000000000000000000000000000000000000000 PUSH1 0x0 MSTORE PUSH1 0x41 PUSH1 0x4 MSTORE PUSH1 0x24 PUSH1 0x0 REVERT JUMPDEST PUSH1 0x40 MLOAD SWAP1 DUP1 DUP3 MSTORE DUP1 PUSH1 0x20 MUL PUSH1 0x20 ADD DUP3 ADD PUSH1 0x40 MSTORE DUP1 ISZERO PUSH2 0x1D8B JUMPI DUP2 PUSH1 0x20 ADD JUMPDEST PUSH2 0x1D78 PUSH2 0x32E4 JUMP JUMPDEST DUP2 MSTORE PUSH1 0x20 ADD SWAP1 PUSH1 0x1 SWAP1 SUB SWAP1 DUP2 PUSH2 0x1D70 JUMPI SWAP1 POP JUMPDEST POP DUP2 PUSH1 0x40 ADD DUP2 SWAP1 MSTORE POP DUP2 DUP2 PUSH1 0x60 ADD DUP2 SWAP1 MSTORE POP DUP1 SWAP3 POP POP POP SWAP5 SWAP4 POP POP POP POP JUMP JUMPDEST PUSH2 0x1DB2 PUSH2 0x32B3 JUMP JUMPDEST PUSH1 0x0 PUSH2 0x1DBF DUP7 DUP7 DUP7 PUSH2 0x1E7E JUMP JUMPDEST SWAP1 POP PUSH2 0x1DC9 PUSH2 0x32B3 JUMP JUMPDEST PUSH1 0x1 DUP2 PUSH1 0x0 ADD SWAP1 PUSH1 0xFF AND SWAP1 DUP2 PUSH1 0xFF AND DUP2 MSTORE POP POP DUP4 DUP2 PUSH1 0x20 ADD DUP2 SWAP1 MSTORE POP PUSH1 0x0 PUSH8 0xFFFFFFFFFFFFFFFF DUP2 GT ISZERO PUSH2 0x1E26 JUMPI PUSH32 0x4E487B7100000000000000000000000000000000000000000000000000000000 PUSH1 0x0 MSTORE PUSH1 0x41 PUSH1 0x4 MSTORE PUSH1 0x24 PUSH1 0x0 REVERT JUMPDEST PUSH1 0x40 MLOAD SWAP1 DUP1 DUP3 MSTORE DUP1 PUSH1 0x20 MUL PUSH1 0x20 ADD DUP3 ADD PUSH1 0x40 MSTORE DUP1 ISZERO PUSH2 0x1E5F JUMPI DUP2 PUSH1 0x20 ADD JUMPDEST PUSH2 0x1E4C PUSH2 0x32E4 JUMP JUMPDEST DUP2 MSTORE PUSH1 0x20 ADD SWAP1 PUSH1 0x1 SWAP1 SUB SWAP1 DUP2 PUSH2 0x1E44 JUMPI SWAP1 POP JUMPDEST POP DUP2 PUSH1 0x40 ADD DUP2 SWAP1 MSTORE POP DUP2 DUP2 PUSH1 0x60 ADD DUP2 SWAP1 MSTORE POP DUP1 SWAP3 POP POP POP SWAP5 SWAP4 POP POP POP POP JUMP JUMPDEST PUSH2 0x1E86 PUSH2 0x33A8 JUMP JUMPDEST PUSH1 0x0 PUSH2 0x1E91 DUP4 PUSH2 0xB10 JUMP JUMPDEST SWAP1 POP PUSH1 0x0 DUP5 DUP3 PUSH2 0x1EA1 SWAP2 SWAP1 PUSH2 0x43FF JUMP JUMPDEST SWAP1 POP PUSH1 0x0 DUP6 DUP4 PUSH2 0x1EB1 SWAP2 SWAP1 PUSH2 0x4661 JUMP JUMPDEST EQ PUSH2 0x1EC6 JUMPI PUSH1 0x1 DUP2 PUSH2 0x1EC3 SWAP2 SWAP1 PUSH2 0x43A9 JUMP JUMPDEST SWAP1 POP JUMPDEST PUSH1 0x0 DUP2 PUSH1 0x1 DUP9 PUSH2 0x1ED6 SWAP2 SWAP1 PUSH2 0x43A9 JUMP JUMPDEST GT ISZERO PUSH2 0x1EE4 JUMPI DUP2 SWAP1 POP PUSH2 0x1EF4 JUMP JUMPDEST PUSH1 0x1 DUP8 PUSH2 0x1EF1 SWAP2 SWAP1 PUSH2 0x43A9 JUMP JUMPDEST SWAP1 POP JUMPDEST PUSH1 0x0 DUP1 DUP9 EQ DUP1 PUSH2 0x1F04 JUMPI POP PUSH1 0x1 DUP9 EQ JUMPDEST ISZERO PUSH2 0x1F12 JUMPI PUSH1 0x1 SWAP1 POP PUSH2 0x1F3F JUMP JUMPDEST DUP3 PUSH1 0x1 DUP10 PUSH2 0x1F20 SWAP2 SWAP1 PUSH2 0x448A JUMP JUMPDEST GT ISZERO PUSH2 0x1F2E JUMPI DUP3 SWAP1 POP PUSH2 0x1F3E JUMP JUMPDEST PUSH1 0x1 DUP9 PUSH2 0x1F3B SWAP2 SWAP1 PUSH2 0x448A JUMP JUMPDEST SWAP1 POP JUMPDEST JUMPDEST PUSH2 0x1F47 PUSH2 0x33A8 JUMP JUMPDEST DUP4 DUP2 PUSH1 0x0 ADD DUP2 DUP2 MSTORE POP POP DUP9 DUP2 PUSH1 0x20 ADD DUP2 DUP2 MSTORE POP POP DUP2 DUP2 PUSH1 0x40 ADD DUP2 DUP2 MSTORE POP POP DUP3 DUP2 PUSH1 0x60 ADD DUP2 DUP2 MSTORE POP POP DUP1 SWAP6 POP POP POP POP POP POP SWAP4 SWAP3 POP POP POP JUMP JUMPDEST PUSH1 0x60 PUSH2 0x1F89 DUP3 PUSH2 0x1280 JUMP JUMPDEST PUSH1 0x0 PUSH1 0xC PUSH1 0x0 DUP5 DUP2 MSTORE PUSH1 0x20 ADD SWAP1 DUP2 MSTORE PUSH1 0x20 ADD PUSH1 0x0 KECCAK256 DUP1 SLOAD PUSH2 0x1FA9 SWAP1 PUSH2 0x45B5 JUMP JUMPDEST DUP1 PUSH1 0x1F ADD PUSH1 0x20 DUP1 SWAP2 DIV MUL PUSH1 0x20 ADD PUSH1 0x40 MLOAD SWAP1 DUP2 ADD PUSH1 0x40 MSTORE DUP1 SWAP3 SWAP2 SWAP1 DUP2 DUP2 MSTORE PUSH1 0x20 ADD DUP3 DUP1 SLOAD PUSH2 0x1FD5 SWAP1 PUSH2 0x45B5 JUMP JUMPDEST DUP1 ISZERO PUSH2 0x2022 JUMPI DUP1 PUSH1 0x1F LT PUSH2 0x1FF7 JUMPI PUSH2 0x100 DUP1 DUP4 SLOAD DIV MUL DUP4 MSTORE SWAP2 PUSH1 0x20 ADD SWAP2 PUSH2 0x2022 JUMP JUMPDEST DUP3 ADD SWAP2 SWAP1 PUSH1 0x0 MSTORE PUSH1 0x20 PUSH1 0x0 KECCAK256 SWAP1 JUMPDEST DUP2 SLOAD DUP2 MSTORE SWAP1 PUSH1 0x1 ADD SWAP1 PUSH1 0x20 ADD DUP1 DUP4 GT PUSH2 0x2005 JUMPI DUP3 SWAP1 SUB PUSH1 0x1F AND DUP3 ADD SWAP2 JUMPDEST POP POP POP POP POP SWAP1 POP PUSH1 0x0 PUSH2 0x2033 PUSH2 0x24E0 JUMP JUMPDEST SWAP1 POP PUSH1 0x0 DUP2 MLOAD EQ ISZERO PUSH2 0x2049 JUMPI DUP2 SWAP3 POP POP POP PUSH2 0x208C JUMP JUMPDEST PUSH1 0x0 DUP3 MLOAD GT ISZERO PUSH2 0x207E JUMPI DUP1 DUP3 PUSH1 0x40 MLOAD PUSH1 0x20 ADD PUSH2 0x2066 SWAP3 SWAP2 SWAP1 PUSH2 0x3EB2 JUMP JUMPDEST PUSH1 0x40 MLOAD PUSH1 0x20 DUP2 DUP4 SUB SUB DUP2 MSTORE SWAP1 PUSH1 0x40 MSTORE SWAP3 POP POP POP PUSH2 0x208C JUMP JUMPDEST PUSH2 0x2087 DUP5 PUSH2 0x2500 JUMP JUMPDEST SWAP3 POP POP POP JUMPDEST SWAP2 SWAP1 POP JUMP JUMPDEST PUSH1 0x0 PUSH32 0x780E9D6300000000000000000000000000000000000000000000000000000000 PUSH28 0xFFFFFFFFFFFFFFFFFFFFFFFFFFFFFFFFFFFFFFFFFFFFFFFFFFFFFFFF NOT AND DUP3 PUSH28 0xFFFFFFFFFFFFFFFFFFFFFFFFFFFFFFFFFFFFFFFFFFFFFFFFFFFFFFFF NOT AND EQ DUP1 PUSH2 0x2104 JUMPI POP PUSH2 0x2103 DUP3 PUSH2 0x2568 JUMP JUMPDEST JUMPDEST SWAP1 POP SWAP2 SWAP1 POP JUMP JUMPDEST PUSH1 0x0 DUP1 PUSH20 0xFFFFFFFFFFFFFFFFFFFFFFFFFFFFFFFFFFFFFFFF AND PUSH2 0x212D DUP4 PUSH2 0x18C6 JUMP JUMPDEST PUSH20 0xFFFFFFFFFFFFFFFFFFFFFFFFFFFFFFFFFFFFFFFF AND EQ ISZERO SWAP1 POP SWAP2 SWAP1 POP JUMP JUMPDEST PUSH1 0x0 DUP1 DUP3 PUSH20 0xFFFFFFFFFFFFFFFFFFFFFFFFFFFFFFFFFFFFFFFF AND EXTCODESIZE GT SWAP1 POP SWAP2 SWAP1 POP JUMP JUMPDEST PUSH1 0x0 PUSH1 0x1 SWAP1 SLOAD SWAP1 PUSH2 0x100 EXP SWAP1 DIV PUSH1 0xFF AND PUSH2 0x21BE JUMPI PUSH1 0x40 MLOAD PUSH32 0x8C379A000000000000000000000000000000000000000000000000000000000 DUP2 MSTORE PUSH1 0x4 ADD PUSH2 0x21B5 SWAP1 PUSH2 0x4249 JUMP JUMPDEST PUSH1 0x40 MLOAD DUP1 SWAP2 SUB SWAP1 REVERT JUMPDEST DUP2 PUSH1 0x1 SWAP1 DUP1 MLOAD SWAP1 PUSH1 0x20 ADD SWAP1 PUSH2 0x21D4 SWAP3 SWAP2 SWAP1 PUSH2 0x3322 JUMP JUMPDEST POP DUP1 PUSH1 0x2 SWAP1 DUP1 MLOAD SWAP1 PUSH1 0x20 ADD SWAP1 PUSH2 0x21EB SWAP3 SWAP2 SWAP1 PUSH2 0x3322 JUMP JUMPDEST POP POP POP JUMP JUMPDEST PUSH2 0x21FC DUP5 DUP5 DUP5 DUP5 PUSH2 0x264A JUMP JUMPDEST POP POP POP POP JUMP JUMPDEST POP POP POP POP JUMP JUMPDEST PUSH2 0x2210 PUSH2 0xA72 JUMP JUMPDEST PUSH2 0x224F JUMPI PUSH1 0x40 MLOAD PUSH32 0x8C379A000000000000000000000000000000000000000000000000000000000 DUP2 MSTORE PUSH1 0x4 ADD PUSH2 0x2246 SWAP1 PUSH2 0x3FC9 JUMP JUMPDEST PUSH1 0x40 MLOAD DUP1 SWAP2 SUB SWAP1 REVERT JUMPDEST JUMP JUMPDEST PUSH2 0x225A DUP2 PUSH2 0x27AA JUMP JUMPDEST PUSH1 0x0 PUSH1 0xC PUSH1 0x0 DUP4 DUP2 MSTORE PUSH1 0x20 ADD SWAP1 DUP2 MSTORE PUSH1 0x20 ADD PUSH1 0x0 KECCAK256 DUP1 SLOAD PUSH2 0x227A SWAP1 PUSH2 0x45B5 JUMP JUMPDEST SWAP1 POP EQ PUSH2 0x22A1 JUMPI PUSH1 0xC PUSH1 0x0 DUP3 DUP2 MSTORE PUSH1 0x20 ADD SWAP1 DUP2 MSTORE PUSH1 0x20 ADD PUSH1 0x0 KECCAK256 PUSH1 0x0 PUSH2 0x22A0 SWAP2 SWAP1 PUSH2 0x33D0 JUMP JUMPDEST JUMPDEST POP JUMP JUMPDEST PUSH2 0x22AE DUP4 DUP4 PUSH2 0x28F8 JUMP JUMPDEST PUSH2 0x22BB PUSH1 0x0 DUP5 DUP5 DUP5 PUSH2 0x2349 JUMP JUMPDEST PUSH2 0x22FA JUMPI PUSH1 0x40 MLOAD PUSH32 0x8C379A000000000000000000000000000000000000000000000000000000000 DUP2 MSTORE PUSH1 0x4 ADD PUSH2 0x22F1 SWAP1 PUSH2 0x4029 JUMP JUMPDEST PUSH1 0x40 MLOAD DUP1 SWAP2 SUB SWAP1 REVERT JUMPDEST POP POP POP JUMP JUMPDEST PUSH2 0x2307 PUSH2 0xA72 JUMP JUMPDEST ISZERO PUSH2 0x2347 JUMPI PUSH1 0x40 MLOAD PUSH32 0x8C379A000000000000000000000000000000000000000000000000000000000 DUP2 MSTORE PUSH1 0x4 ADD PUSH2 0x233E SWAP1 PUSH2 0x4109 JUMP JUMPDEST PUSH1 0x40 MLOAD DUP1 SWAP2 SUB SWAP1 REVERT JUMPDEST JUMP JUMPDEST PUSH1 0x0 PUSH2 0x236A DUP5 PUSH20 0xFFFFFFFFFFFFFFFFFFFFFFFFFFFFFFFFFFFFFFFF AND PUSH2 0x214C JUMP JUMPDEST ISZERO PUSH2 0x24D3 JUMPI DUP4 PUSH20 0xFFFFFFFFFFFFFFFFFFFFFFFFFFFFFFFFFFFFFFFF AND PUSH4 0x150B7A02 PUSH2 0x2393 PUSH2 0x12CB JUMP JUMPDEST DUP8 DUP7 DUP7 PUSH1 0x40 MLOAD DUP6 PUSH4 0xFFFFFFFF AND PUSH1 0xE0 SHL DUP2 MSTORE PUSH1 0x4 ADD PUSH2 0x23B5 SWAP5 SWAP4 SWAP3 SWAP2 SWAP1 PUSH2 0x3F20 JUMP JUMPDEST PUSH1 0x20 PUSH1 0x40 MLOAD DUP1 DUP4 SUB DUP2 PUSH1 0x0 DUP8 DUP1 EXTCODESIZE ISZERO DUP1 ISZERO PUSH2 0x23CF JUMPI PUSH1 0x0 DUP1 REVERT JUMPDEST POP GAS CALL SWAP3 POP POP POP DUP1 ISZERO PUSH2 0x2400 JUMPI POP PUSH1 0x40 MLOAD RETURNDATASIZE PUSH1 0x1F NOT PUSH1 0x1F DUP3 ADD AND DUP3 ADD DUP1 PUSH1 0x40 MSTORE POP DUP2 ADD SWAP1 PUSH2 0x23FD SWAP2 SWAP1 PUSH2 0x376C JUMP JUMPDEST PUSH1 0x1 JUMPDEST PUSH2 0x2483 JUMPI RETURNDATASIZE DUP1 PUSH1 0x0 DUP2 EQ PUSH2 0x2430 JUMPI PUSH1 0x40 MLOAD SWAP2 POP PUSH1 0x1F NOT PUSH1 0x3F RETURNDATASIZE ADD AND DUP3 ADD PUSH1 0x40 MSTORE RETURNDATASIZE DUP3 MSTORE RETURNDATASIZE PUSH1 0x0 PUSH1 0x20 DUP5 ADD RETURNDATACOPY PUSH2 0x2435 JUMP JUMPDEST PUSH1 0x60 SWAP2 POP JUMPDEST POP PUSH1 0x0 DUP2 MLOAD EQ ISZERO PUSH2 0x247B JUMPI PUSH1 0x40 MLOAD PUSH32 0x8C379A000000000000000000000000000000000000000000000000000000000 DUP2 MSTORE PUSH1 0x4 ADD PUSH2 0x2472 SWAP1 PUSH2 0x4029 JUMP JUMPDEST PUSH1 0x40 MLOAD DUP1 SWAP2 SUB SWAP1 REVERT JUMPDEST DUP1 MLOAD DUP2 PUSH1 0x20 ADD REVERT JUMPDEST PUSH4 0x150B7A02 PUSH1 0xE0 SHL PUSH28 0xFFFFFFFFFFFFFFFFFFFFFFFFFFFFFFFFFFFFFFFFFFFFFFFFFFFFFFFF NOT AND DUP2 PUSH28 0xFFFFFFFFFFFFFFFFFFFFFFFFFFFFFFFFFFFFFFFFFFFFFFFFFFFFFFFF NOT AND EQ SWAP2 POP POP PUSH2 0x24D8 JUMP JUMPDEST PUSH1 0x1 SWAP1 POP JUMPDEST SWAP5 SWAP4 POP POP POP POP JUMP JUMPDEST PUSH1 0x60 PUSH1 0x40 MLOAD DUP1 PUSH1 0x80 ADD PUSH1 0x40 MSTORE DUP1 PUSH1 0x44 DUP2 MSTORE PUSH1 0x20 ADD PUSH2 0x4DCE PUSH1 0x44 SWAP2 CODECOPY SWAP1 POP SWAP1 JUMP JUMPDEST PUSH1 0x60 PUSH2 0x250B DUP3 PUSH2 0x1280 JUMP JUMPDEST PUSH1 0x0 PUSH2 0x2515 PUSH2 0x24E0 JUMP JUMPDEST SWAP1 POP PUSH1 0x0 DUP2 MLOAD GT PUSH2 0x2535 JUMPI PUSH1 0x40 MLOAD DUP1 PUSH1 0x20 ADD PUSH1 0x40 MSTORE DUP1 PUSH1 0x0 DUP2 MSTORE POP PUSH2 0x2560 JUMP JUMPDEST DUP1 PUSH2 0x253F DUP5 PUSH2 0x2B16 JUMP JUMPDEST PUSH1 0x40 MLOAD PUSH1 0x20 ADD PUSH2 0x2550 SWAP3 SWAP2 SWAP1 PUSH2 0x3ED6 JUMP JUMPDEST PUSH1 0x40 MLOAD PUSH1 0x20 DUP2 DUP4 SUB SUB DUP2 MSTORE SWAP1 PUSH1 0x40 MSTORE JUMPDEST SWAP2 POP POP SWAP2 SWAP1 POP JUMP JUMPDEST PUSH1 0x0 PUSH32 0x80AC58CD00000000000000000000000000000000000000000000000000000000 PUSH28 0xFFFFFFFFFFFFFFFFFFFFFFFFFFFFFFFFFFFFFFFFFFFFFFFFFFFFFFFF NOT AND DUP3 PUSH28 0xFFFFFFFFFFFFFFFFFFFFFFFFFFFFFFFFFFFFFFFFFFFFFFFFFFFFFFFF NOT AND EQ DUP1 PUSH2 0x2633 JUMPI POP PUSH32 0x5B5E139F00000000000000000000000000000000000000000000000000000000 PUSH28 0xFFFFFFFFFFFFFFFFFFFFFFFFFFFFFFFFFFFFFFFFFFFFFFFFFFFFFFFF NOT AND DUP3 PUSH28 0xFFFFFFFFFFFFFFFFFFFFFFFFFFFFFFFFFFFFFFFFFFFFFFFFFFFFFFFF NOT AND EQ JUMPDEST DUP1 PUSH2 0x2643 JUMPI POP PUSH2 0x2642 DUP3 PUSH2 0x2C3A JUMP JUMPDEST JUMPDEST SWAP1 POP SWAP2 SWAP1 POP JUMP JUMPDEST PUSH2 0x2656 DUP5 DUP5 DUP5 DUP5 PUSH2 0x2CA4 JUMP JUMPDEST PUSH1 0x1 DUP2 GT ISZERO PUSH2 0x269A JUMPI PUSH1 0x40 MLOAD PUSH32 0x8C379A000000000000000000000000000000000000000000000000000000000 DUP2 MSTORE PUSH1 0x4 ADD PUSH2 0x2691 SWAP1 PUSH2 0x4269 JUMP JUMPDEST PUSH1 0x40 MLOAD DUP1 SWAP2 SUB SWAP1 REVERT JUMPDEST PUSH1 0x0 DUP3 SWAP1 POP PUSH1 0x0 PUSH20 0xFFFFFFFFFFFFFFFFFFFFFFFFFFFFFFFFFFFFFFFF AND DUP6 PUSH20 0xFFFFFFFFFFFFFFFFFFFFFFFFFFFFFFFFFFFFFFFF AND EQ ISZERO PUSH2 0x26E2 JUMPI PUSH2 0x26DD DUP2 PUSH2 0x2CFE JUMP JUMPDEST PUSH2 0x2721 JUMP JUMPDEST DUP4 PUSH20 0xFFFFFFFFFFFFFFFFFFFFFFFFFFFFFFFFFFFFFFFF AND DUP6 PUSH20 0xFFFFFFFFFFFFFFFFFFFFFFFFFFFFFFFFFFFFFFFF AND EQ PUSH2 0x2720 JUMPI PUSH2 0x271F DUP6 DUP3 PUSH2 0x2D47 JUMP JUMPDEST JUMPDEST JUMPDEST PUSH1 0x0 PUSH20 0xFFFFFFFFFFFFFFFFFFFFFFFFFFFFFFFFFFFFFFFF AND DUP5 PUSH20 0xFFFFFFFFFFFFFFFFFFFFFFFFFFFFFFFFFFFFFFFF AND EQ ISZERO PUSH2 0x2764 JUMPI PUSH2 0x275F DUP2 PUSH2 0x2EB4 JUMP JUMPDEST PUSH2 0x27A3 JUMP JUMPDEST DUP5 PUSH20 0xFFFFFFFFFFFFFFFFFFFFFFFFFFFFFFFFFFFFFFFF AND DUP5 PUSH20 0xFFFFFFFFFFFFFFFFFFFFFFFFFFFFFFFFFFFFFFFF AND EQ PUSH2 0x27A2 JUMPI PUSH2 0x27A1 DUP5 DUP3 PUSH2 0x2FF7 JUMP JUMPDEST JUMPDEST JUMPDEST POP POP POP POP POP JUMP JUMPDEST PUSH1 0x0 PUSH2 0x27B5 DUP3 PUSH2 0xA89 JUMP JUMPDEST SWAP1 POP PUSH2 0x27C5 DUP2 PUSH1 0x0 DUP5 PUSH1 0x1 PUSH2 0x21F0 JUMP JUMPDEST PUSH2 0x27CE DUP3 PUSH2 0xA89 JUMP JUMPDEST SWAP1 POP PUSH1 0x5 PUSH1 0x0 DUP4 DUP2 MSTORE PUSH1 0x20 ADD SWAP1 DUP2 MSTORE PUSH1 0x20 ADD PUSH1 0x0 KECCAK256 PUSH1 0x0 PUSH2 0x100 EXP DUP2 SLOAD SWAP1 PUSH20 0xFFFFFFFFFFFFFFFFFFFFFFFFFFFFFFFFFFFFFFFF MUL NOT AND SWAP1 SSTORE PUSH1 0x1 PUSH1 0x4 PUSH1 0x0 DUP4 PUSH20 0xFFFFFFFFFFFFFFFFFFFFFFFFFFFFFFFFFFFFFFFF AND PUSH20 0xFFFFFFFFFFFFFFFFFFFFFFFFFFFFFFFFFFFFFFFF AND DUP2 MSTORE PUSH1 0x20 ADD SWAP1 DUP2 MSTORE PUSH1 0x20 ADD PUSH1 0x0 KECCAK256 PUSH1 0x0 DUP3 DUP3 SLOAD SUB SWAP3 POP POP DUP2 SWAP1 SSTORE POP PUSH1 0x3 PUSH1 0x0 DUP4 DUP2 MSTORE PUSH1 0x20 ADD SWAP1 DUP2 MSTORE PUSH1 0x20 ADD PUSH1 0x0 KECCAK256 PUSH1 0x0 PUSH2 0x100 EXP DUP2 SLOAD SWAP1 PUSH20 0xFFFFFFFFFFFFFFFFFFFFFFFFFFFFFFFFFFFFFFFF MUL NOT AND SWAP1 SSTORE DUP2 PUSH1 0x0 PUSH20 0xFFFFFFFFFFFFFFFFFFFFFFFFFFFFFFFFFFFFFFFF AND DUP3 PUSH20 0xFFFFFFFFFFFFFFFFFFFFFFFFFFFFFFFFFFFFFFFF AND PUSH32 0xDDF252AD1BE2C89B69C2B068FC378DAA952BA7F163C4A11628F55A4DF523B3EF PUSH1 0x40 MLOAD PUSH1 0x40 MLOAD DUP1 SWAP2 SUB SWAP1 LOG4 PUSH2 0x28F4 DUP2 PUSH1 0x0 DUP5 PUSH1 0x1 PUSH2 0x2202 JUMP JUMPDEST POP POP JUMP JUMPDEST PUSH1 0x0 PUSH20 0xFFFFFFFFFFFFFFFFFFFFFFFFFFFFFFFFFFFFFFFF AND DUP3 PUSH20 0xFFFFFFFFFFFFFFFFFFFFFFFFFFFFFFFFFFFFFFFF AND EQ ISZERO PUSH2 0x2968 JUMPI PUSH1 0x40 MLOAD PUSH32 0x8C379A000000000000000000000000000000000000000000000000000000000 DUP2 MSTORE PUSH1 0x4 ADD PUSH2 0x295F SWAP1 PUSH2 0x4189 JUMP JUMPDEST PUSH1 0x40 MLOAD DUP1 SWAP2 SUB SWAP1 REVERT JUMPDEST PUSH2 0x2971 DUP2 PUSH2 0x210B JUMP JUMPDEST ISZERO PUSH2 0x29B1 JUMPI PUSH1 0x40 MLOAD PUSH32 0x8C379A000000000000000000000000000000000000000000000000000000000 DUP2 MSTORE PUSH1 0x4 ADD PUSH2 0x29A8 SWAP1 PUSH2 0x40A9 JUMP JUMPDEST PUSH1 0x40 MLOAD DUP1 SWAP2 SUB SWAP1 REVERT JUMPDEST PUSH2 0x29BF PUSH1 0x0 DUP4 DUP4 PUSH1 0x1 PUSH2 0x21F0 JUMP JUMPDEST PUSH2 0x29C8 DUP2 PUSH2 0x210B JUMP JUMPDEST ISZERO PUSH2 0x2A08 JUMPI PUSH1 0x40 MLOAD PUSH32 0x8C379A000000000000000000000000000000000000000000000000000000000 DUP2 MSTORE PUSH1 0x4 ADD PUSH2 0x29FF SWAP1 PUSH2 0x40A9 JUMP JUMPDEST PUSH1 0x40 MLOAD DUP1 SWAP2 SUB SWAP1 REVERT JUMPDEST PUSH1 0x1 PUSH1 0x4 PUSH1 0x0 DUP5 PUSH20 0xFFFFFFFFFFFFFFFFFFFFFFFFFFFFFFFFFFFFFFFF AND PUSH20 0xFFFFFFFFFFFFFFFFFFFFFFFFFFFFFFFFFFFFFFFF AND DUP2 MSTORE PUSH1 0x20 ADD SWAP1 DUP2 MSTORE PUSH1 0x20 ADD PUSH1 0x0 KECCAK256 PUSH1 0x0 DUP3 DUP3 SLOAD ADD SWAP3 POP POP DUP2 SWAP1 SSTORE POP DUP2 PUSH1 0x3 PUSH1 0x0 DUP4 DUP2 MSTORE PUSH1 0x20 ADD SWAP1 DUP2 MSTORE PUSH1 0x20 ADD PUSH1 0x0 KECCAK256 PUSH1 0x0 PUSH2 0x100 EXP DUP2 SLOAD DUP2 PUSH20 0xFFFFFFFFFFFFFFFFFFFFFFFFFFFFFFFFFFFFFFFF MUL NOT AND SWAP1 DUP4 PUSH20 0xFFFFFFFFFFFFFFFFFFFFFFFFFFFFFFFFFFFFFFFF AND MUL OR SWAP1 SSTORE POP DUP1 DUP3 PUSH20 0xFFFFFFFFFFFFFFFFFFFFFFFFFFFFFFFFFFFFFFFF AND PUSH1 0x0 PUSH20 0xFFFFFFFFFFFFFFFFFFFFFFFFFFFFFFFFFFFFFFFF AND PUSH32 0xDDF252AD1BE2C89B69C2B068FC378DAA952BA7F163C4A11628F55A4DF523B3EF PUSH1 0x40 MLOAD PUSH1 0x40 MLOAD DUP1 SWAP2 SUB SWAP1 LOG4 PUSH2 0x2B12 PUSH1 0x0 DUP4 DUP4 PUSH1 0x1 PUSH2 0x2202 JUMP JUMPDEST POP POP JUMP JUMPDEST PUSH1 0x60 PUSH1 0x0 PUSH1 0x1 PUSH2 0x2B25 DUP5 PUSH2 0x3076 JUMP JUMPDEST ADD SWAP1 POP PUSH1 0x0 DUP2 PUSH8 0xFFFFFFFFFFFFFFFF DUP2 GT ISZERO PUSH2 0x2B6A JUMPI PUSH32 0x4E487B7100000000000000000000000000000000000000000000000000000000 PUSH1 0x0 MSTORE PUSH1 0x41 PUSH1 0x4 MSTORE PUSH1 0x24 PUSH1 0x0 REVERT JUMPDEST PUSH1 0x40 MLOAD SWAP1 DUP1 DUP3 MSTORE DUP1 PUSH1 0x1F ADD PUSH1 0x1F NOT AND PUSH1 0x20 ADD DUP3 ADD PUSH1 0x40 MSTORE DUP1 ISZERO PUSH2 0x2B9C JUMPI DUP2 PUSH1 0x20 ADD PUSH1 0x1 DUP3 MUL DUP1 CALLDATASIZE DUP4 CALLDATACOPY DUP1 DUP3 ADD SWAP2 POP POP SWAP1 POP JUMPDEST POP SWAP1 POP PUSH1 0x0 DUP3 PUSH1 0x20 ADD DUP3 ADD SWAP1 POP JUMPDEST PUSH1 0x1 ISZERO PUSH2 0x2C2F JUMPI DUP1 DUP1 PUSH1 0x1 SWAP1 SUB SWAP2 POP POP PUSH32 0x3031323334353637383961626364656600000000000000000000000000000000 PUSH1 0xA DUP7 MOD BYTE DUP2 MSTORE8 PUSH1 0xA DUP6 DUP2 PUSH2 0x2C19 JUMPI PUSH32 0x4E487B7100000000000000000000000000000000000000000000000000000000 PUSH1 0x0 MSTORE PUSH1 0x12 PUSH1 0x4 MSTORE PUSH1 0x24 PUSH1 0x0 REVERT JUMPDEST DIV SWAP5 POP PUSH1 0x0 DUP6 EQ ISZERO PUSH2 0x2C2A JUMPI PUSH2 0x2C2F JUMP JUMPDEST PUSH2 0x2BAA JUMP JUMPDEST DUP2 SWAP4 POP POP POP POP SWAP2 SWAP1 POP JUMP JUMPDEST PUSH1 0x0 PUSH32 0x1FFC9A700000000000000000000000000000000000000000000000000000000 PUSH28 0xFFFFFFFFFFFFFFFFFFFFFFFFFFFFFFFFFFFFFFFFFFFFFFFFFFFFFFFF NOT AND DUP3 PUSH28 0xFFFFFFFFFFFFFFFFFFFFFFFFFFFFFFFFFFFFFFFFFFFFFFFFFFFFFFFF NOT AND EQ SWAP1 POP SWAP2 SWAP1 POP JUMP JUMPDEST PUSH2 0x2CB0 DUP5 DUP5 DUP5 DUP5 PUSH2 0x32AD JUMP JUMPDEST PUSH2 0x2CB8 PUSH2 0xA72 JUMP JUMPDEST ISZERO PUSH2 0x2CF8 JUMPI PUSH1 0x40 MLOAD PUSH32 0x8C379A000000000000000000000000000000000000000000000000000000000 DUP2 MSTORE PUSH1 0x4 ADD PUSH2 0x2CEF SWAP1 PUSH2 0x3FA9 JUMP JUMPDEST PUSH1 0x40 MLOAD DUP1 SWAP2 SUB SWAP1 REVERT JUMPDEST POP POP POP POP JUMP JUMPDEST PUSH1 0xA DUP1 SLOAD SWAP1 POP PUSH1 0xB PUSH1 0x0 DUP4 DUP2 MSTORE PUSH1 0x20 ADD SWAP1 DUP2 MSTORE PUSH1 0x20 ADD PUSH1 0x0 KECCAK256 DUP2 SWAP1 SSTORE POP PUSH1 0xA DUP2 SWAP1 DUP1 PUSH1 0x1 DUP2 SLOAD ADD DUP1 DUP3 SSTORE DUP1 SWAP2 POP POP PUSH1 0x1 SWAP1 SUB SWAP1 PUSH1 0x0 MSTORE PUSH1 0x20 PUSH1 0x0 KECCAK256 ADD PUSH1 0x0 SWAP1 SWAP2 SWAP1 SWAP2 SWAP1 SWAP2 POP SSTORE POP JUMP JUMPDEST PUSH1 0x0 PUSH1 0x1 PUSH2 0x2D54 DUP5 PUSH2 0xB10 JUMP JUMPDEST PUSH2 0x2D5E SWAP2 SWAP1 PUSH2 0x448A JUMP JUMPDEST SWAP1 POP PUSH1 0x0 PUSH1 0x9 PUSH1 0x0 DUP5 DUP2 MSTORE PUSH1 0x20 ADD SWAP1 DUP2 MSTORE PUSH1 0x20 ADD PUSH1 0x0 KECCAK256 SLOAD SWAP1 POP DUP2 DUP2 EQ PUSH2 0x2E43 JUMPI PUSH1 0x0 PUSH1 0x8 PUSH1 0x0 DUP7 PUSH20 0xFFFFFFFFFFFFFFFFFFFFFFFFFFFFFFFFFFFFFFFF AND PUSH20 0xFFFFFFFFFFFFFFFFFFFFFFFFFFFFFFFFFFFFFFFF AND DUP2 MSTORE PUSH1 0x20 ADD SWAP1 DUP2 MSTORE PUSH1 0x20 ADD PUSH1 0x0 KECCAK256 PUSH1 0x0 DUP5 DUP2 MSTORE PUSH1 0x20 ADD SWAP1 DUP2 MSTORE PUSH1 0x20 ADD PUSH1 0x0 KECCAK256 SLOAD SWAP1 POP DUP1 PUSH1 0x8 PUSH1 0x0 DUP8 PUSH20 0xFFFFFFFFFFFFFFFFFFFFFFFFFFFFFFFFFFFFFFFF AND PUSH20 0xFFFFFFFFFFFFFFFFFFFFFFFFFFFFFFFFFFFFFFFF AND DUP2 MSTORE PUSH1 0x20 ADD SWAP1 DUP2 MSTORE PUSH1 0x20 ADD PUSH1 0x0 KECCAK256 PUSH1 0x0 DUP5 DUP2 MSTORE PUSH1 0x20 ADD SWAP1 DUP2 MSTORE PUSH1 0x20 ADD PUSH1 0x0 KECCAK256 DUP2 SWAP1 SSTORE POP DUP2 PUSH1 0x9 PUSH1 0x0 DUP4 DUP2 MSTORE PUSH1 0x20 ADD SWAP1 DUP2 MSTORE PUSH1 0x20 ADD PUSH1 0x0 KECCAK256 DUP2 SWAP1 SSTORE POP POP JUMPDEST PUSH1 0x9 PUSH1 0x0 DUP5 DUP2 MSTORE PUSH1 0x20 ADD SWAP1 DUP2 MSTORE PUSH1 0x20 ADD PUSH1 0x0 KECCAK256 PUSH1 0x0 SWAP1 SSTORE PUSH1 0x8 PUSH1 0x0 DUP6 PUSH20 0xFFFFFFFFFFFFFFFFFFFFFFFFFFFFFFFFFFFFFFFF AND PUSH20 0xFFFFFFFFFFFFFFFFFFFFFFFFFFFFFFFFFFFFFFFF AND DUP2 MSTORE PUSH1 0x20 ADD SWAP1 DUP2 MSTORE PUSH1 0x20 ADD PUSH1 0x0 KECCAK256 PUSH1 0x0 DUP4 DUP2 MSTORE PUSH1 0x20 ADD SWAP1 DUP2 MSTORE PUSH1 0x20 ADD PUSH1 0x0 KECCAK256 PUSH1 0x0 SWAP1 SSTORE POP POP POP POP JUMP JUMPDEST PUSH1 0x0 PUSH1 0x1 PUSH1 0xA DUP1 SLOAD SWAP1 POP PUSH2 0x2EC8 SWAP2 SWAP1 PUSH2 0x448A JUMP JUMPDEST SWAP1 POP PUSH1 0x0 PUSH1 0xB PUSH1 0x0 DUP5 DUP2 MSTORE PUSH1 0x20 ADD SWAP1 DUP2 MSTORE PUSH1 0x20 ADD PUSH1 0x0 KECCAK256 SLOAD SWAP1 POP PUSH1 0x0 PUSH1 0xA DUP4 DUP2 SLOAD DUP2 LT PUSH2 0x2F1E JUMPI PUSH32 0x4E487B7100000000000000000000000000000000000000000000000000000000 PUSH1 0x0 MSTORE PUSH1 0x32 PUSH1 0x4 MSTORE PUSH1 0x24 PUSH1 0x0 REVERT JUMPDEST SWAP1 PUSH1 0x0 MSTORE PUSH1 0x20 PUSH1 0x0 KECCAK256 ADD SLOAD SWAP1 POP DUP1 PUSH1 0xA DUP4 DUP2 SLOAD DUP2 LT PUSH2 0x2F66 JUMPI PUSH32 0x4E487B7100000000000000000000000000000000000000000000000000000000 PUSH1 0x0 MSTORE PUSH1 0x32 PUSH1 0x4 MSTORE PUSH1 0x24 PUSH1 0x0 REVERT JUMPDEST SWAP1 PUSH1 0x0 MSTORE PUSH1 0x20 PUSH1 0x0 KECCAK256 ADD DUP2 SWAP1 SSTORE POP DUP2 PUSH1 0xB PUSH1 0x0 DUP4 DUP2 MSTORE PUSH1 0x20 ADD SWAP1 DUP2 MSTORE PUSH1 0x20 ADD PUSH1 0x0 KECCAK256 DUP2 SWAP1 SSTORE POP PUSH1 0xB PUSH1 0x0 DUP6 DUP2 MSTORE PUSH1 0x20 ADD SWAP1 DUP2 MSTORE PUSH1 0x20 ADD PUSH1 0x0 KECCAK256 PUSH1 0x0 SWAP1 SSTORE PUSH1 0xA DUP1 SLOAD DUP1 PUSH2 0x2FDB JUMPI PUSH32 0x4E487B7100000000000000000000000000000000000000000000000000000000 PUSH1 0x0 MSTORE PUSH1 0x31 PUSH1 0x4 MSTORE PUSH1 0x24 PUSH1 0x0 REVERT JUMPDEST PUSH1 0x1 SWAP1 SUB DUP2 DUP2 SWAP1 PUSH1 0x0 MSTORE PUSH1 0x20 PUSH1 0x0 KECCAK256 ADD PUSH1 0x0 SWAP1 SSTORE SWAP1 SSTORE POP POP POP POP JUMP JUMPDEST PUSH1 0x0 PUSH2 0x3002 DUP4 PUSH2 0xB10 JUMP JUMPDEST SWAP1 POP DUP2 PUSH1 0x8 PUSH1 0x0 DUP6 PUSH20 0xFFFFFFFFFFFFFFFFFFFFFFFFFFFFFFFFFFFFFFFF AND PUSH20 0xFFFFFFFFFFFFFFFFFFFFFFFFFFFFFFFFFFFFFFFF AND DUP2 MSTORE PUSH1 0x20 ADD SWAP1 DUP2 MSTORE PUSH1 0x20 ADD PUSH1 0x0 KECCAK256 PUSH1 0x0 DUP4 DUP2 MSTORE PUSH1 0x20 ADD SWAP1 DUP2 MSTORE PUSH1 0x20 ADD PUSH1 0x0 KECCAK256 DUP2 SWAP1 SSTORE POP DUP1 PUSH1 0x9 PUSH1 0x0 DUP5 DUP2 MSTORE PUSH1 0x20 ADD SWAP1 DUP2 MSTORE PUSH1 0x20 ADD PUSH1 0x0 KECCAK256 DUP2 SWAP1 SSTORE POP POP POP POP JUMP JUMPDEST PUSH1 0x0 DUP1 PUSH1 0x0 SWAP1 POP PUSH27 0x184F03E93FF9F4DAA797ED6E38ED64BF6A1F010000000000000000 DUP4 LT PUSH2 0x30FA JUMPI PUSH27 0x184F03E93FF9F4DAA797ED6E38ED64BF6A1F010000000000000000 DUP4 DUP2 PUSH2 0x30F0 JUMPI PUSH32 0x4E487B7100000000000000000000000000000000000000000000000000000000 PUSH1 0x0 MSTORE PUSH1 0x12 PUSH1 0x4 MSTORE PUSH1 0x24 PUSH1 0x0 REVERT JUMPDEST DIV SWAP3 POP PUSH1 0x40 DUP2 ADD SWAP1 POP JUMPDEST PUSH14 0x4EE2D6D415B85ACEF8100000000 DUP4 LT PUSH2 0x315D JUMPI PUSH14 0x4EE2D6D415B85ACEF8100000000 DUP4 DUP2 PUSH2 0x3153 JUMPI PUSH32 0x4E487B7100000000000000000000000000000000000000000000000000000000 PUSH1 0x0 MSTORE PUSH1 0x12 PUSH1 0x4 MSTORE PUSH1 0x24 PUSH1 0x0 REVERT JUMPDEST DIV SWAP3 POP PUSH1 0x20 DUP2 ADD SWAP1 POP JUMPDEST PUSH7 0x2386F26FC10000 DUP4 LT PUSH2 0x31B2 JUMPI PUSH7 0x2386F26FC10000 DUP4 DUP2 PUSH2 0x31A8 JUMPI PUSH32 0x4E487B7100000000000000000000000000000000000000000000000000000000 PUSH1 0x0 MSTORE PUSH1 0x12 PUSH1 0x4 MSTORE PUSH1 0x24 PUSH1 0x0 REVERT JUMPDEST DIV SWAP3 POP PUSH1 0x10 DUP2 ADD SWAP1 POP JUMPDEST PUSH4 0x5F5E100 DUP4 LT PUSH2 0x3201 JUMPI PUSH4 0x5F5E100 DUP4 DUP2 PUSH2 0x31F7 JUMPI PUSH32 0x4E487B7100000000000000000000000000000000000000000000000000000000 PUSH1 0x0 MSTORE PUSH1 0x12 PUSH1 0x4 MSTORE PUSH1 0x24 PUSH1 0x0 REVERT JUMPDEST DIV SWAP3 POP PUSH1 0x8 DUP2 ADD SWAP1 POP JUMPDEST PUSH2 0x2710 DUP4 LT PUSH2 0x324C JUMPI PUSH2 0x2710 DUP4 DUP2 PUSH2 0x3242 JUMPI PUSH32 0x4E487B7100000000000000000000000000000000000000000000000000000000 PUSH1 0x0 MSTORE PUSH1 0x12 PUSH1 0x4 MSTORE PUSH1 0x24 PUSH1 0x0 REVERT JUMPDEST DIV SWAP3 POP PUSH1 0x4 DUP2 ADD SWAP1 POP JUMPDEST PUSH1 0x64 DUP4 LT PUSH2 0x3295 JUMPI PUSH1 0x64 DUP4 DUP2 PUSH2 0x328B JUMPI PUSH32 0x4E487B7100000000000000000000000000000000000000000000000000000000 PUSH1 0x0 MSTORE PUSH1 0x12 PUSH1 0x4 MSTORE PUSH1 0x24 PUSH1 0x0 REVERT JUMPDEST DIV SWAP3 POP PUSH1 0x2 DUP2 ADD SWAP1 POP JUMPDEST PUSH1 0xA DUP4 LT PUSH2 0x32A4 JUMPI PUSH1 0x1 DUP2 ADD SWAP1 POP JUMPDEST DUP1 SWAP2 POP POP SWAP2 SWAP1 POP JUMP JUMPDEST POP POP POP POP JUMP JUMPDEST PUSH1 0x40 MLOAD DUP1 PUSH1 0x80 ADD PUSH1 0x40 MSTORE DUP1 PUSH1 0x0 PUSH1 0xFF AND DUP2 MSTORE PUSH1 0x20 ADD PUSH1 0x60 DUP2 MSTORE PUSH1 0x20 ADD PUSH1 0x60 DUP2 MSTORE PUSH1 0x20 ADD PUSH2 0x32DE PUSH2 0x33A8 JUMP JUMPDEST DUP2 MSTORE POP SWAP1 JUMP JUMPDEST PUSH1 0x40 MLOAD DUP1 PUSH1 0x80 ADD PUSH1 0x40 MSTORE DUP1 PUSH1 0x0 DUP2 MSTORE PUSH1 0x20 ADD PUSH1 0x60 DUP2 MSTORE PUSH1 0x20 ADD PUSH1 0x0 PUSH20 0xFFFFFFFFFFFFFFFFFFFFFFFFFFFFFFFFFFFFFFFF AND DUP2 MSTORE PUSH1 0x20 ADD PUSH1 0x60 DUP2 MSTORE POP SWAP1 JUMP JUMPDEST DUP3 DUP1 SLOAD PUSH2 0x332E SWAP1 PUSH2 0x45B5 JUMP JUMPDEST SWAP1 PUSH1 0x0 MSTORE PUSH1 0x20 PUSH1 0x0 KECCAK256 SWAP1 PUSH1 0x1F ADD PUSH1 0x20 SWAP1 DIV DUP2 ADD SWAP3 DUP3 PUSH2 0x3350 JUMPI PUSH1 0x0 DUP6 SSTORE PUSH2 0x3397 JUMP JUMPDEST DUP3 PUSH1 0x1F LT PUSH2 0x3369 JUMPI DUP1 MLOAD PUSH1 0xFF NOT AND DUP4 DUP1 ADD OR DUP6 SSTORE PUSH2 0x3397 JUMP JUMPDEST DUP3 DUP1 ADD PUSH1 0x1 ADD DUP6 SSTORE DUP3 ISZERO PUSH2 0x3397 JUMPI SWAP2 DUP3 ADD JUMPDEST DUP3 DUP2 GT ISZERO PUSH2 0x3396 JUMPI DUP3 MLOAD DUP3 SSTORE SWAP2 PUSH1 0x20 ADD SWAP2 SWAP1 PUSH1 0x1 ADD SWAP1 PUSH2 0x337B JUMP JUMPDEST JUMPDEST POP SWAP1 POP PUSH2 0x33A4 SWAP2 SWAP1 PUSH2 0x3410 JUMP JUMPDEST POP SWAP1 JUMP JUMPDEST PUSH1 0x40 MLOAD DUP1 PUSH1 0x80 ADD PUSH1 0x40 MSTORE DUP1 PUSH1 0x0 DUP2 MSTORE PUSH1 0x20 ADD PUSH1 0x0 DUP2 MSTORE PUSH1 0x20 ADD PUSH1 0x0 DUP2 MSTORE PUSH1 0x20 ADD PUSH1 0x0 DUP2 MSTORE POP SWAP1 JUMP JUMPDEST POP DUP1 SLOAD PUSH2 0x33DC SWAP1 PUSH2 0x45B5 JUMP JUMPDEST PUSH1 0x0 DUP3 SSTORE DUP1 PUSH1 0x1F LT PUSH2 0x33EE JUMPI POP PUSH2 0x340D JUMP JUMPDEST PUSH1 0x1F ADD PUSH1 0x20 SWAP1 DIV SWAP1 PUSH1 0x0 MSTORE PUSH1 0x20 PUSH1 0x0 KECCAK256 SWAP1 DUP2 ADD SWAP1 PUSH2 0x340C SWAP2 SWAP1 PUSH2 0x3410 JUMP JUMPDEST JUMPDEST POP JUMP JUMPDEST JUMPDEST DUP1 DUP3 GT ISZERO PUSH2 0x3429 JUMPI PUSH1 0x0 DUP2 PUSH1 0x0 SWAP1 SSTORE POP PUSH1 0x1 ADD PUSH2 0x3411 JUMP JUMPDEST POP SWAP1 JUMP JUMPDEST PUSH1 0x0 PUSH2 0x3440 PUSH2 0x343B DUP5 PUSH2 0x42EB JUMP JUMPDEST PUSH2 0x42C6 JUMP JUMPDEST SWAP1 POP DUP3 DUP2 MSTORE PUSH1 0x20 DUP2 ADD DUP5 DUP5 DUP5 ADD GT ISZERO PUSH2 0x3458 JUMPI PUSH1 0x0 DUP1 REVERT JUMPDEST PUSH2 0x3463 DUP5 DUP3 DUP6 PUSH2 0x4573 JUMP JUMPDEST POP SWAP4 SWAP3 POP POP POP JUMP JUMPDEST PUSH1 0x0 DUP2 CALLDATALOAD SWAP1 POP PUSH2 0x347A DUP2 PUSH2 0x4D71 JUMP JUMPDEST SWAP3 SWAP2 POP POP JUMP JUMPDEST PUSH1 0x0 DUP2 CALLDATALOAD SWAP1 POP PUSH2 0x348F DUP2 PUSH2 0x4D88 JUMP JUMPDEST SWAP3 SWAP2 POP POP JUMP JUMPDEST PUSH1 0x0 DUP2 CALLDATALOAD SWAP1 POP PUSH2 0x34A4 DUP2 PUSH2 0x4D9F JUMP JUMPDEST SWAP3 SWAP2 POP POP JUMP JUMPDEST PUSH1 0x0 DUP2 MLOAD SWAP1 POP PUSH2 0x34B9 DUP2 PUSH2 0x4D9F JUMP JUMPDEST SWAP3 SWAP2 POP POP JUMP JUMPDEST PUSH1 0x0 DUP1 DUP4 PUSH1 0x1F DUP5 ADD SLT PUSH2 0x34D1 JUMPI PUSH1 0x0 DUP1 REVERT JUMPDEST DUP3 CALLDATALOAD SWAP1 POP PUSH8 0xFFFFFFFFFFFFFFFF DUP2 GT ISZERO PUSH2 0x34EA JUMPI PUSH1 0x0 DUP1 REVERT JUMPDEST PUSH1 0x20 DUP4 ADD SWAP2 POP DUP4 PUSH1 0x1 DUP3 MUL DUP4 ADD GT ISZERO PUSH2 0x3502 JUMPI PUSH1 0x0 DUP1 REVERT JUMPDEST SWAP3 POP SWAP3 SWAP1 POP JUMP JUMPDEST PUSH1 0x0 DUP3 PUSH1 0x1F DUP4 ADD SLT PUSH2 0x351A JUMPI PUSH1 0x0 DUP1 REVERT JUMPDEST DUP2 CALLDATALOAD PUSH2 0x352A DUP5 DUP3 PUSH1 0x20 DUP7 ADD PUSH2 0x342D JUMP JUMPDEST SWAP2 POP POP SWAP3 SWAP2 POP POP JUMP JUMPDEST PUSH1 0x0 DUP2 CALLDATALOAD SWAP1 POP PUSH2 0x3542 DUP2 PUSH2 0x4DB6 JUMP JUMPDEST SWAP3 SWAP2 POP POP JUMP JUMPDEST PUSH1 0x0 PUSH1 0x20 DUP3 DUP5 SUB SLT ISZERO PUSH2 0x355A JUMPI PUSH1 0x0 DUP1 REVERT JUMPDEST PUSH1 0x0 PUSH2 0x3568 DUP5 DUP3 DUP6 ADD PUSH2 0x346B JUMP JUMPDEST SWAP2 POP POP SWAP3 SWAP2 POP POP JUMP JUMPDEST PUSH1 0x0 DUP1 PUSH1 0x40 DUP4 DUP6 SUB SLT ISZERO PUSH2 0x3584 JUMPI PUSH1 0x0 DUP1 REVERT JUMPDEST PUSH1 0x0 PUSH2 0x3592 DUP6 DUP3 DUP7 ADD PUSH2 0x346B JUMP JUMPDEST SWAP3 POP POP PUSH1 0x20 PUSH2 0x35A3 DUP6 DUP3 DUP7 ADD PUSH2 0x346B JUMP JUMPDEST SWAP2 POP POP SWAP3 POP SWAP3 SWAP1 POP JUMP JUMPDEST PUSH1 0x0 DUP1 PUSH1 0x0 PUSH1 0x60 DUP5 DUP7 SUB SLT ISZERO PUSH2 0x35C2 JUMPI PUSH1 0x0 DUP1 REVERT JUMPDEST PUSH1 0x0 PUSH2 0x35D0 DUP7 DUP3 DUP8 ADD PUSH2 0x346B JUMP JUMPDEST SWAP4 POP POP PUSH1 0x20 PUSH2 0x35E1 DUP7 DUP3 DUP8 ADD PUSH2 0x346B JUMP JUMPDEST SWAP3 POP POP PUSH1 0x40 PUSH2 0x35F2 DUP7 DUP3 DUP8 ADD PUSH2 0x3533 JUMP JUMPDEST SWAP2 POP POP SWAP3 POP SWAP3 POP SWAP3 JUMP JUMPDEST PUSH1 0x0 DUP1 PUSH1 0x0 DUP1 PUSH1 0x80 DUP6 DUP8 SUB SLT ISZERO PUSH2 0x3612 JUMPI PUSH1 0x0 DUP1 REVERT JUMPDEST PUSH1 0x0 PUSH2 0x3620 DUP8 DUP3 DUP9 ADD PUSH2 0x346B JUMP JUMPDEST SWAP5 POP POP PUSH1 0x20 PUSH2 0x3631 DUP8 DUP3 DUP9 ADD PUSH2 0x346B JUMP JUMPDEST SWAP4 POP POP PUSH1 0x40 PUSH2 0x3642 DUP8 DUP3 DUP9 ADD PUSH2 0x3533 JUMP JUMPDEST SWAP3 POP POP PUSH1 0x60 DUP6 ADD CALLDATALOAD PUSH8 0xFFFFFFFFFFFFFFFF DUP2 GT ISZERO PUSH2 0x365F JUMPI PUSH1 0x0 DUP1 REVERT JUMPDEST PUSH2 0x366B DUP8 DUP3 DUP9 ADD PUSH2 0x3509 JUMP JUMPDEST SWAP2 POP POP SWAP3 SWAP6 SWAP2 SWAP5 POP SWAP3 POP JUMP JUMPDEST PUSH1 0x0 DUP1 PUSH1 0x40 DUP4 DUP6 SUB SLT ISZERO PUSH2 0x368A JUMPI PUSH1 0x0 DUP1 REVERT JUMPDEST PUSH1 0x0 PUSH2 0x3698 DUP6 DUP3 DUP7 ADD PUSH2 0x346B JUMP JUMPDEST SWAP3 POP POP PUSH1 0x20 PUSH2 0x36A9 DUP6 DUP3 DUP7 ADD PUSH2 0x3480 JUMP JUMPDEST SWAP2 POP POP SWAP3 POP SWAP3 SWAP1 POP JUMP JUMPDEST PUSH1 0x0 DUP1 PUSH1 0x40 DUP4 DUP6 SUB SLT ISZERO PUSH2 0x36C6 JUMPI PUSH1 0x0 DUP1 REVERT JUMPDEST PUSH1 0x0 PUSH2 0x36D4 DUP6 DUP3 DUP7 ADD PUSH2 0x346B JUMP JUMPDEST SWAP3 POP POP PUSH1 0x20 DUP4 ADD CALLDATALOAD PUSH8 0xFFFFFFFFFFFFFFFF DUP2 GT ISZERO PUSH2 0x36F1 JUMPI PUSH1 0x0 DUP1 REVERT JUMPDEST PUSH2 0x36FD DUP6 DUP3 DUP7 ADD PUSH2 0x3509 JUMP JUMPDEST SWAP2 POP POP SWAP3 POP SWAP3 SWAP1 POP JUMP JUMPDEST PUSH1 0x0 DUP1 PUSH1 0x40 DUP4 DUP6 SUB SLT ISZERO PUSH2 0x371A JUMPI PUSH1 0x0 DUP1 REVERT JUMPDEST PUSH1 0x0 PUSH2 0x3728 DUP6 DUP3 DUP7 ADD PUSH2 0x346B JUMP JUMPDEST SWAP3 POP POP PUSH1 0x20 PUSH2 0x3739 DUP6 DUP3 DUP7 ADD PUSH2 0x3533 JUMP JUMPDEST SWAP2 POP POP SWAP3 POP SWAP3 SWAP1 POP JUMP JUMPDEST PUSH1 0x0 PUSH1 0x20 DUP3 DUP5 SUB SLT ISZERO PUSH2 0x3755 JUMPI PUSH1 0x0 DUP1 REVERT JUMPDEST PUSH1 0x0 PUSH2 0x3763 DUP5 DUP3 DUP6 ADD PUSH2 0x3495 JUMP JUMPDEST SWAP2 POP POP SWAP3 SWAP2 POP POP JUMP JUMPDEST PUSH1 0x0 PUSH1 0x20 DUP3 DUP5 SUB SLT ISZERO PUSH2 0x377E JUMPI PUSH1 0x0 DUP1 REVERT JUMPDEST PUSH1 0x0 PUSH2 0x378C DUP5 DUP3 DUP6 ADD PUSH2 0x34AA JUMP JUMPDEST SWAP2 POP POP SWAP3 SWAP2 POP POP JUMP JUMPDEST PUSH1 0x0 DUP1 PUSH1 0x0 DUP1 PUSH1 0x40 DUP6 DUP8 SUB SLT ISZERO PUSH2 0x37AB JUMPI PUSH1 0x0 DUP1 REVERT JUMPDEST PUSH1 0x0 DUP6 ADD CALLDATALOAD PUSH8 0xFFFFFFFFFFFFFFFF DUP2 GT ISZERO PUSH2 0x37C5 JUMPI PUSH1 0x0 DUP1 REVERT JUMPDEST PUSH2 0x37D1 DUP8 DUP3 DUP9 ADD PUSH2 0x34BF JUMP JUMPDEST SWAP5 POP SWAP5 POP POP PUSH1 0x20 DUP6 ADD CALLDATALOAD PUSH8 0xFFFFFFFFFFFFFFFF DUP2 GT ISZERO PUSH2 0x37F0 JUMPI PUSH1 0x0 DUP1 REVERT JUMPDEST PUSH2 0x37FC DUP8 DUP3 DUP9 ADD PUSH2 0x34BF JUMP JUMPDEST SWAP3 POP SWAP3 POP POP SWAP3 SWAP6 SWAP2 SWAP5 POP SWAP3 POP JUMP JUMPDEST PUSH1 0x0 PUSH1 0x20 DUP3 DUP5 SUB SLT ISZERO PUSH2 0x381C JUMPI PUSH1 0x0 DUP1 REVERT JUMPDEST PUSH1 0x0 PUSH2 0x382A DUP5 DUP3 DUP6 ADD PUSH2 0x3533 JUMP JUMPDEST SWAP2 POP POP SWAP3 SWAP2 POP POP JUMP JUMPDEST PUSH1 0x0 DUP1 PUSH1 0x0 PUSH1 0x60 DUP5 DUP7 SUB SLT ISZERO PUSH2 0x3848 JUMPI PUSH1 0x0 DUP1 REVERT JUMPDEST PUSH1 0x0 PUSH2 0x3856 DUP7 DUP3 DUP8 ADD PUSH2 0x3533 JUMP JUMPDEST SWAP4 POP POP PUSH1 0x20 PUSH2 0x3867 DUP7 DUP3 DUP8 ADD PUSH2 0x3533 JUMP JUMPDEST SWAP3 POP POP PUSH1 0x40 PUSH2 0x3878 DUP7 DUP3 DUP8 ADD PUSH2 0x346B JUMP JUMPDEST SWAP2 POP POP SWAP3 POP SWAP3 POP SWAP3 JUMP JUMPDEST PUSH1 0x0 PUSH2 0x388E DUP4 DUP4 PUSH2 0x3D5C JUMP JUMPDEST SWAP1 POP SWAP3 SWAP2 POP POP JUMP JUMPDEST PUSH2 0x389F DUP2 PUSH2 0x44F2 JUMP JUMPDEST DUP3 MSTORE POP POP JUMP JUMPDEST PUSH2 0x38AE DUP2 PUSH2 0x44F2 JUMP JUMPDEST DUP3 MSTORE POP POP JUMP JUMPDEST PUSH1 0x0 PUSH2 0x38BF DUP3 PUSH2 0x432C JUMP JUMPDEST PUSH2 0x38C9 DUP2 DUP6 PUSH2 0x435A JUMP JUMPDEST SWAP4 POP DUP4 PUSH1 0x20 DUP3 MUL DUP6 ADD PUSH2 0x38DB DUP6 PUSH2 0x431C JUMP JUMPDEST DUP1 PUSH1 0x0 JUMPDEST DUP6 DUP2 LT ISZERO PUSH2 0x3917 JUMPI DUP5 DUP5 SUB DUP10 MSTORE DUP2 MLOAD PUSH2 0x38F8 DUP6 DUP3 PUSH2 0x3882 JUMP JUMPDEST SWAP5 POP PUSH2 0x3903 DUP4 PUSH2 0x434D JUMP JUMPDEST SWAP3 POP PUSH1 0x20 DUP11 ADD SWAP10 POP POP PUSH1 0x1 DUP2 ADD SWAP1 POP PUSH2 0x38DF JUMP JUMPDEST POP DUP3 SWAP8 POP DUP8 SWAP6 POP POP POP POP POP POP SWAP3 SWAP2 POP POP JUMP JUMPDEST PUSH2 0x3932 DUP2 PUSH2 0x4504 JUMP JUMPDEST DUP3 MSTORE POP POP JUMP JUMPDEST PUSH1 0x0 PUSH2 0x3943 DUP3 PUSH2 0x4337 JUMP JUMPDEST PUSH2 0x394D DUP2 DUP6 PUSH2 0x436B JUMP JUMPDEST SWAP4 POP PUSH2 0x395D DUP2 DUP6 PUSH1 0x20 DUP7 ADD PUSH2 0x4582 JUMP JUMPDEST PUSH2 0x3966 DUP2 PUSH2 0x474E JUMP JUMPDEST DUP5 ADD SWAP2 POP POP SWAP3 SWAP2 POP POP JUMP JUMPDEST PUSH1 0x0 PUSH2 0x397C DUP3 PUSH2 0x4342 JUMP JUMPDEST PUSH2 0x3986 DUP2 DUP6 PUSH2 0x437C JUMP JUMPDEST SWAP4 POP PUSH2 0x3996 DUP2 DUP6 PUSH1 0x20 DUP7 ADD PUSH2 0x4582 JUMP JUMPDEST PUSH2 0x399F DUP2 PUSH2 0x474E JUMP JUMPDEST DUP5 ADD SWAP2 POP POP SWAP3 SWAP2 POP POP JUMP JUMPDEST PUSH1 0x0 PUSH2 0x39B5 DUP3 PUSH2 0x4342 JUMP JUMPDEST PUSH2 0x39BF DUP2 DUP6 PUSH2 0x438D JUMP JUMPDEST SWAP4 POP PUSH2 0x39CF DUP2 DUP6 PUSH1 0x20 DUP7 ADD PUSH2 0x4582 JUMP JUMPDEST PUSH2 0x39D8 DUP2 PUSH2 0x474E JUMP JUMPDEST DUP5 ADD SWAP2 POP POP SWAP3 SWAP2 POP POP JUMP JUMPDEST PUSH1 0x0 PUSH2 0x39EE DUP3 PUSH2 0x4342 JUMP JUMPDEST PUSH2 0x39F8 DUP2 DUP6 PUSH2 0x439E JUMP JUMPDEST SWAP4 POP PUSH2 0x3A08 DUP2 DUP6 PUSH1 0x20 DUP7 ADD PUSH2 0x4582 JUMP JUMPDEST DUP1 DUP5 ADD SWAP2 POP POP SWAP3 SWAP2 POP POP JUMP JUMPDEST PUSH1 0x0 PUSH2 0x3A21 PUSH1 0x2B DUP4 PUSH2 0x438D JUMP JUMPDEST SWAP2 POP PUSH2 0x3A2C DUP3 PUSH2 0x475F JUMP JUMPDEST PUSH1 0x40 DUP3 ADD SWAP1 POP SWAP2 SWAP1 POP JUMP JUMPDEST PUSH1 0x0 PUSH2 0x3A44 PUSH1 0x14 DUP4 PUSH2 0x438D JUMP JUMPDEST SWAP2 POP PUSH2 0x3A4F DUP3 PUSH2 0x47AE JUMP JUMPDEST PUSH1 0x20 DUP3 ADD SWAP1 POP SWAP2 SWAP1 POP JUMP JUMPDEST PUSH1 0x0 PUSH2 0x3A67 PUSH1 0x2D DUP4 PUSH2 0x438D JUMP JUMPDEST SWAP2 POP PUSH2 0x3A72 DUP3 PUSH2 0x47D7 JUMP JUMPDEST PUSH1 0x40 DUP3 ADD SWAP1 POP SWAP2 SWAP1 POP JUMP JUMPDEST PUSH1 0x0 PUSH2 0x3A8A PUSH1 0x2B DUP4 PUSH2 0x438D JUMP JUMPDEST SWAP2 POP PUSH2 0x3A95 DUP3 PUSH2 0x4826 JUMP JUMPDEST PUSH1 0x40 DUP3 ADD SWAP1 POP SWAP2 SWAP1 POP JUMP JUMPDEST PUSH1 0x0 PUSH2 0x3AAD PUSH1 0x32 DUP4 PUSH2 0x438D JUMP JUMPDEST SWAP2 POP PUSH2 0x3AB8 DUP3 PUSH2 0x4875 JUMP JUMPDEST PUSH1 0x40 DUP3 ADD SWAP1 POP SWAP2 SWAP1 POP JUMP JUMPDEST PUSH1 0x0 PUSH2 0x3AD0 PUSH1 0x26 DUP4 PUSH2 0x438D JUMP JUMPDEST SWAP2 POP PUSH2 0x3ADB DUP3 PUSH2 0x48C4 JUMP JUMPDEST PUSH1 0x40 DUP3 ADD SWAP1 POP SWAP2 SWAP1 POP JUMP JUMPDEST PUSH1 0x0 PUSH2 0x3AF3 PUSH1 0x17 DUP4 PUSH2 0x438D JUMP JUMPDEST SWAP2 POP PUSH2 0x3AFE DUP3 PUSH2 0x4913 JUMP JUMPDEST PUSH1 0x20 DUP3 ADD SWAP1 POP SWAP2 SWAP1 POP JUMP JUMPDEST PUSH1 0x0 PUSH2 0x3B16 PUSH1 0x25 DUP4 PUSH2 0x438D JUMP JUMPDEST SWAP2 POP PUSH2 0x3B21 DUP3 PUSH2 0x493C JUMP JUMPDEST PUSH1 0x40 DUP3 ADD SWAP1 POP SWAP2 SWAP1 POP JUMP JUMPDEST PUSH1 0x0 PUSH2 0x3B39 PUSH1 0x1C DUP4 PUSH2 0x438D JUMP JUMPDEST SWAP2 POP PUSH2 0x3B44 DUP3 PUSH2 0x498B JUMP JUMPDEST PUSH1 0x20 DUP3 ADD SWAP1 POP SWAP2 SWAP1 POP JUMP JUMPDEST PUSH1 0x0 PUSH2 0x3B5C PUSH1 0x24 DUP4 PUSH2 0x438D JUMP JUMPDEST SWAP2 POP PUSH2 0x3B67 DUP3 PUSH2 0x49B4 JUMP JUMPDEST PUSH1 0x40 DUP3 ADD SWAP1 POP SWAP2 SWAP1 POP JUMP JUMPDEST PUSH1 0x0 PUSH2 0x3B7F PUSH1 0x19 DUP4 PUSH2 0x438D JUMP JUMPDEST SWAP2 POP PUSH2 0x3B8A DUP3 PUSH2 0x4A03 JUMP JUMPDEST PUSH1 0x20 DUP3 ADD SWAP1 POP SWAP2 SWAP1 POP JUMP JUMPDEST PUSH1 0x0 PUSH2 0x3BA2 PUSH1 0x10 DUP4 PUSH2 0x438D JUMP JUMPDEST SWAP2 POP PUSH2 0x3BAD DUP3 PUSH2 0x4A2C JUMP JUMPDEST PUSH1 0x20 DUP3 ADD SWAP1 POP SWAP2 SWAP1 POP JUMP JUMPDEST PUSH1 0x0 PUSH2 0x3BC5 PUSH1 0x29 DUP4 PUSH2 0x438D JUMP JUMPDEST SWAP2 POP PUSH2 0x3BD0 DUP3 PUSH2 0x4A55 JUMP JUMPDEST PUSH1 0x40 DUP3 ADD SWAP1 POP SWAP2 SWAP1 POP JUMP JUMPDEST PUSH1 0x0 PUSH2 0x3BE8 PUSH1 0x2E DUP4 PUSH2 0x438D JUMP JUMPDEST SWAP2 POP PUSH2 0x3BF3 DUP3 PUSH2 0x4AA4 JUMP JUMPDEST PUSH1 0x40 DUP3 ADD SWAP1 POP SWAP2 SWAP1 POP JUMP JUMPDEST PUSH1 0x0 PUSH2 0x3C0B PUSH1 0x2E DUP4 PUSH2 0x438D JUMP JUMPDEST SWAP2 POP PUSH2 0x3C16 DUP3 PUSH2 0x4AF3 JUMP JUMPDEST PUSH1 0x40 DUP3 ADD SWAP1 POP SWAP2 SWAP1 POP JUMP JUMPDEST PUSH1 0x0 PUSH2 0x3C2E PUSH1 0x20 DUP4 PUSH2 0x438D JUMP JUMPDEST SWAP2 POP PUSH2 0x3C39 DUP3 PUSH2 0x4B42 JUMP JUMPDEST PUSH1 0x20 DUP3 ADD SWAP1 POP SWAP2 SWAP1 POP JUMP JUMPDEST PUSH1 0x0 PUSH2 0x3C51 PUSH1 0x5 DUP4 PUSH2 0x439E JUMP JUMPDEST SWAP2 POP PUSH2 0x3C5C DUP3 PUSH2 0x4B6B JUMP JUMPDEST PUSH1 0x5 DUP3 ADD SWAP1 POP SWAP2 SWAP1 POP JUMP JUMPDEST PUSH1 0x0 PUSH2 0x3C74 PUSH1 0x20 DUP4 PUSH2 0x438D JUMP JUMPDEST SWAP2 POP PUSH2 0x3C7F DUP3 PUSH2 0x4B94 JUMP JUMPDEST PUSH1 0x20 DUP3 ADD SWAP1 POP SWAP2 SWAP1 POP JUMP JUMPDEST PUSH1 0x0 PUSH2 0x3C97 PUSH1 0x18 DUP4 PUSH2 0x438D JUMP JUMPDEST SWAP2 POP PUSH2 0x3CA2 DUP3 PUSH2 0x4BBD JUMP JUMPDEST PUSH1 0x20 DUP3 ADD SWAP1 POP SWAP2 SWAP1 POP JUMP JUMPDEST PUSH1 0x0 PUSH2 0x3CBA PUSH1 0x21 DUP4 PUSH2 0x438D JUMP JUMPDEST SWAP2 POP PUSH2 0x3CC5 DUP3 PUSH2 0x4BE6 JUMP JUMPDEST PUSH1 0x40 DUP3 ADD SWAP1 POP SWAP2 SWAP1 POP JUMP JUMPDEST PUSH1 0x0 PUSH2 0x3CDD PUSH1 0x3D DUP4 PUSH2 0x438D JUMP JUMPDEST SWAP2 POP PUSH2 0x3CE8 DUP3 PUSH2 0x4C35 JUMP JUMPDEST PUSH1 0x40 DUP3 ADD SWAP1 POP SWAP2 SWAP1 POP JUMP JUMPDEST PUSH1 0x0 PUSH2 0x3D00 PUSH1 0x2C DUP4 PUSH2 0x438D JUMP JUMPDEST SWAP2 POP PUSH2 0x3D0B DUP3 PUSH2 0x4C84 JUMP JUMPDEST PUSH1 0x40 DUP3 ADD SWAP1 POP SWAP2 SWAP1 POP JUMP JUMPDEST PUSH1 0x0 PUSH2 0x3D23 PUSH1 0x2B DUP4 PUSH2 0x438D JUMP JUMPDEST SWAP2 POP PUSH2 0x3D2E DUP3 PUSH2 0x4CD3 JUMP JUMPDEST PUSH1 0x40 DUP3 ADD SWAP1 POP SWAP2 SWAP1 POP JUMP JUMPDEST PUSH1 0x0 PUSH2 0x3D46 PUSH1 0x35 DUP4 PUSH2 0x438D JUMP JUMPDEST SWAP2 POP PUSH2 0x3D51 DUP3 PUSH2 0x4D22 JUMP JUMPDEST PUSH1 0x40 DUP3 ADD SWAP1 POP SWAP2 SWAP1 POP JUMP JUMPDEST PUSH1 0x0 PUSH1 0x80 DUP4 ADD PUSH1 0x0 DUP4 ADD MLOAD PUSH2 0x3D74 PUSH1 0x0 DUP7 ADD DUP3 PUSH2 0x3E85 JUMP JUMPDEST POP PUSH1 0x20 DUP4 ADD MLOAD DUP5 DUP3 SUB PUSH1 0x20 DUP7 ADD MSTORE PUSH2 0x3D8C DUP3 DUP3 PUSH2 0x3971 JUMP JUMPDEST SWAP2 POP POP PUSH1 0x40 DUP4 ADD MLOAD PUSH2 0x3DA1 PUSH1 0x40 DUP7 ADD DUP3 PUSH2 0x3896 JUMP JUMPDEST POP PUSH1 0x60 DUP4 ADD MLOAD DUP5 DUP3 SUB PUSH1 0x60 DUP7 ADD MSTORE PUSH2 0x3DB9 DUP3 DUP3 PUSH2 0x3971 JUMP JUMPDEST SWAP2 POP POP DUP1 SWAP2 POP POP SWAP3 SWAP2 POP POP JUMP JUMPDEST PUSH1 0x80 DUP3 ADD PUSH1 0x0 DUP3 ADD MLOAD PUSH2 0x3DDC PUSH1 0x0 DUP6 ADD DUP3 PUSH2 0x3E85 JUMP JUMPDEST POP PUSH1 0x20 DUP3 ADD MLOAD PUSH2 0x3DEF PUSH1 0x20 DUP6 ADD DUP3 PUSH2 0x3E85 JUMP JUMPDEST POP PUSH1 0x40 DUP3 ADD MLOAD PUSH2 0x3E02 PUSH1 0x40 DUP6 ADD DUP3 PUSH2 0x3E85 JUMP JUMPDEST POP PUSH1 0x60 DUP3 ADD MLOAD PUSH2 0x3E15 PUSH1 0x60 DUP6 ADD DUP3 PUSH2 0x3E85 JUMP JUMPDEST POP POP POP POP JUMP JUMPDEST PUSH1 0x0 PUSH1 0xE0 DUP4 ADD PUSH1 0x0 DUP4 ADD MLOAD PUSH2 0x3E33 PUSH1 0x0 DUP7 ADD DUP3 PUSH2 0x3EA3 JUMP JUMPDEST POP PUSH1 0x20 DUP4 ADD MLOAD DUP5 DUP3 SUB PUSH1 0x20 DUP7 ADD MSTORE PUSH2 0x3E4B DUP3 DUP3 PUSH2 0x3971 JUMP JUMPDEST SWAP2 POP POP PUSH1 0x40 DUP4 ADD MLOAD DUP5 DUP3 SUB PUSH1 0x40 DUP7 ADD MSTORE PUSH2 0x3E65 DUP3 DUP3 PUSH2 0x38B4 JUMP JUMPDEST SWAP2 POP POP PUSH1 0x60 DUP4 ADD MLOAD PUSH2 0x3E7A PUSH1 0x60 DUP7 ADD DUP3 PUSH2 0x3DC6 JUMP JUMPDEST POP DUP1 SWAP2 POP POP SWAP3 SWAP2 POP POP JUMP JUMPDEST PUSH2 0x3E8E DUP2 PUSH2 0x455C JUMP JUMPDEST DUP3 MSTORE POP POP JUMP JUMPDEST PUSH2 0x3E9D DUP2 PUSH2 0x455C JUMP JUMPDEST DUP3 MSTORE POP POP JUMP JUMPDEST PUSH2 0x3EAC DUP2 PUSH2 0x4566 JUMP JUMPDEST DUP3 MSTORE POP POP JUMP JUMPDEST PUSH1 0x0 PUSH2 0x3EBE DUP3 DUP6 PUSH2 0x39E3 JUMP JUMPDEST SWAP2 POP PUSH2 0x3ECA DUP3 DUP5 PUSH2 0x39E3 JUMP JUMPDEST SWAP2 POP DUP2 SWAP1 POP SWAP4 SWAP3 POP POP POP JUMP JUMPDEST PUSH1 0x0 PUSH2 0x3EE2 DUP3 DUP6 PUSH2 0x39E3 JUMP JUMPDEST SWAP2 POP PUSH2 0x3EEE DUP3 DUP5 PUSH2 0x39E3 JUMP JUMPDEST SWAP2 POP PUSH2 0x3EF9 DUP3 PUSH2 0x3C44 JUMP JUMPDEST SWAP2 POP DUP2 SWAP1 POP SWAP4 SWAP3 POP POP POP JUMP JUMPDEST PUSH1 0x0 PUSH1 0x20 DUP3 ADD SWAP1 POP PUSH2 0x3F1A PUSH1 0x0 DUP4 ADD DUP5 PUSH2 0x38A5 JUMP JUMPDEST SWAP3 SWAP2 POP POP JUMP JUMPDEST PUSH1 0x0 PUSH1 0x80 DUP3 ADD SWAP1 POP PUSH2 0x3F35 PUSH1 0x0 DUP4 ADD DUP8 PUSH2 0x38A5 JUMP JUMPDEST PUSH2 0x3F42 PUSH1 0x20 DUP4 ADD DUP7 PUSH2 0x38A5 JUMP JUMPDEST PUSH2 0x3F4F PUSH1 0x40 DUP4 ADD DUP6 PUSH2 0x3E94 JUMP JUMPDEST DUP2 DUP2 SUB PUSH1 0x60 DUP4 ADD MSTORE PUSH2 0x3F61 DUP2 DUP5 PUSH2 0x3938 JUMP JUMPDEST SWAP1 POP SWAP6 SWAP5 POP POP POP POP POP JUMP JUMPDEST PUSH1 0x0 PUSH1 0x20 DUP3 ADD SWAP1 POP PUSH2 0x3F81 PUSH1 0x0 DUP4 ADD DUP5 PUSH2 0x3929 JUMP JUMPDEST SWAP3 SWAP2 POP POP JUMP JUMPDEST PUSH1 0x0 PUSH1 0x20 DUP3 ADD SWAP1 POP DUP2 DUP2 SUB PUSH1 0x0 DUP4 ADD MSTORE PUSH2 0x3FA1 DUP2 DUP5 PUSH2 0x39AA JUMP JUMPDEST SWAP1 POP SWAP3 SWAP2 POP POP JUMP JUMPDEST PUSH1 0x0 PUSH1 0x20 DUP3 ADD SWAP1 POP DUP2 DUP2 SUB PUSH1 0x0 DUP4 ADD MSTORE PUSH2 0x3FC2 DUP2 PUSH2 0x3A14 JUMP JUMPDEST SWAP1 POP SWAP2 SWAP1 POP JUMP JUMPDEST PUSH1 0x0 PUSH1 0x20 DUP3 ADD SWAP1 POP DUP2 DUP2 SUB PUSH1 0x0 DUP4 ADD MSTORE PUSH2 0x3FE2 DUP2 PUSH2 0x3A37 JUMP JUMPDEST SWAP1 POP SWAP2 SWAP1 POP JUMP JUMPDEST PUSH1 0x0 PUSH1 0x20 DUP3 ADD SWAP1 POP DUP2 DUP2 SUB PUSH1 0x0 DUP4 ADD MSTORE PUSH2 0x4002 DUP2 PUSH2 0x3A5A JUMP JUMPDEST SWAP1 POP SWAP2 SWAP1 POP JUMP JUMPDEST PUSH1 0x0 PUSH1 0x20 DUP3 ADD SWAP1 POP DUP2 DUP2 SUB PUSH1 0x0 DUP4 ADD MSTORE PUSH2 0x4022 DUP2 PUSH2 0x3A7D JUMP JUMPDEST SWAP1 POP SWAP2 SWAP1 POP JUMP JUMPDEST PUSH1 0x0 PUSH1 0x20 DUP3 ADD SWAP1 POP DUP2 DUP2 SUB PUSH1 0x0 DUP4 ADD MSTORE PUSH2 0x4042 DUP2 PUSH2 0x3AA0 JUMP JUMPDEST SWAP1 POP SWAP2 SWAP1 POP JUMP JUMPDEST PUSH1 0x0 PUSH1 0x20 DUP3 ADD SWAP1 POP DUP2 DUP2 SUB PUSH1 0x0 DUP4 ADD MSTORE PUSH2 0x4062 DUP2 PUSH2 0x3AC3 JUMP JUMPDEST SWAP1 POP SWAP2 SWAP1 POP JUMP JUMPDEST PUSH1 0x0 PUSH1 0x20 DUP3 ADD SWAP1 POP DUP2 DUP2 SUB PUSH1 0x0 DUP4 ADD MSTORE PUSH2 0x4082 DUP2 PUSH2 0x3AE6 JUMP JUMPDEST SWAP1 POP SWAP2 SWAP1 POP JUMP JUMPDEST PUSH1 0x0 PUSH1 0x20 DUP3 ADD SWAP1 POP DUP2 DUP2 SUB PUSH1 0x0 DUP4 ADD MSTORE PUSH2 0x40A2 DUP2 PUSH2 0x3B09 JUMP JUMPDEST SWAP1 POP SWAP2 SWAP1 POP JUMP JUMPDEST PUSH1 0x0 PUSH1 0x20 DUP3 ADD SWAP1 POP DUP2 DUP2 SUB PUSH1 0x0 DUP4 ADD MSTORE PUSH2 0x40C2 DUP2 PUSH2 0x3B2C JUMP JUMPDEST SWAP1 POP SWAP2 SWAP1 POP JUMP JUMPDEST PUSH1 0x0 PUSH1 0x20 DUP3 ADD SWAP1 POP DUP2 DUP2 SUB PUSH1 0x0 DUP4 ADD MSTORE PUSH2 0x40E2 DUP2 PUSH2 0x3B4F JUMP JUMPDEST SWAP1 POP SWAP2 SWAP1 POP JUMP JUMPDEST PUSH1 0x0 PUSH1 0x20 DUP3 ADD SWAP1 POP DUP2 DUP2 SUB PUSH1 0x0 DUP4 ADD MSTORE PUSH2 0x4102 DUP2 PUSH2 0x3B72 JUMP JUMPDEST SWAP1 POP SWAP2 SWAP1 POP JUMP JUMPDEST PUSH1 0x0 PUSH1 0x20 DUP3 ADD SWAP1 POP DUP2 DUP2 SUB PUSH1 0x0 DUP4 ADD MSTORE PUSH2 0x4122 DUP2 PUSH2 0x3B95 JUMP JUMPDEST SWAP1 POP SWAP2 SWAP1 POP JUMP JUMPDEST PUSH1 0x0 PUSH1 0x20 DUP3 ADD SWAP1 POP DUP2 DUP2 SUB PUSH1 0x0 DUP4 ADD MSTORE PUSH2 0x4142 DUP2 PUSH2 0x3BB8 JUMP JUMPDEST SWAP1 POP SWAP2 SWAP1 POP JUMP JUMPDEST PUSH1 0x0 PUSH1 0x20 DUP3 ADD SWAP1 POP DUP2 DUP2 SUB PUSH1 0x0 DUP4 ADD MSTORE PUSH2 0x4162 DUP2 PUSH2 0x3BDB JUMP JUMPDEST SWAP1 POP SWAP2 SWAP1 POP JUMP JUMPDEST PUSH1 0x0 PUSH1 0x20 DUP3 ADD SWAP1 POP DUP2 DUP2 SUB PUSH1 0x0 DUP4 ADD MSTORE PUSH2 0x4182 DUP2 PUSH2 0x3BFE JUMP JUMPDEST SWAP1 POP SWAP2 SWAP1 POP JUMP JUMPDEST PUSH1 0x0 PUSH1 0x20 DUP3 ADD SWAP1 POP DUP2 DUP2 SUB PUSH1 0x0 DUP4 ADD MSTORE PUSH2 0x41A2 DUP2 PUSH2 0x3C21 JUMP JUMPDEST SWAP1 POP SWAP2 SWAP1 POP JUMP JUMPDEST PUSH1 0x0 PUSH1 0x20 DUP3 ADD SWAP1 POP DUP2 DUP2 SUB PUSH1 0x0 DUP4 ADD MSTORE PUSH2 0x41C2 DUP2 PUSH2 0x3C67 JUMP JUMPDEST SWAP1 POP SWAP2 SWAP1 POP JUMP JUMPDEST PUSH1 0x0 PUSH1 0x20 DUP3 ADD SWAP1 POP DUP2 DUP2 SUB PUSH1 0x0 DUP4 ADD MSTORE PUSH2 0x41E2 DUP2 PUSH2 0x3C8A JUMP JUMPDEST SWAP1 POP SWAP2 SWAP1 POP JUMP JUMPDEST PUSH1 0x0 PUSH1 0x20 DUP3 ADD SWAP1 POP DUP2 DUP2 SUB PUSH1 0x0 DUP4 ADD MSTORE PUSH2 0x4202 DUP2 PUSH2 0x3CAD JUMP JUMPDEST SWAP1 POP SWAP2 SWAP1 POP JUMP JUMPDEST PUSH1 0x0 PUSH1 0x20 DUP3 ADD SWAP1 POP DUP2 DUP2 SUB PUSH1 0x0 DUP4 ADD MSTORE PUSH2 0x4222 DUP2 PUSH2 0x3CD0 JUMP JUMPDEST SWAP1 POP SWAP2 SWAP1 POP JUMP JUMPDEST PUSH1 0x0 PUSH1 0x20 DUP3 ADD SWAP1 POP DUP2 DUP2 SUB PUSH1 0x0 DUP4 ADD MSTORE PUSH2 0x4242 DUP2 PUSH2 0x3CF3 JUMP JUMPDEST SWAP1 POP SWAP2 SWAP1 POP JUMP JUMPDEST PUSH1 0x0 PUSH1 0x20 DUP3 ADD SWAP1 POP DUP2 DUP2 SUB PUSH1 0x0 DUP4 ADD MSTORE PUSH2 0x4262 DUP2 PUSH2 0x3D16 JUMP JUMPDEST SWAP1 POP SWAP2 SWAP1 POP JUMP JUMPDEST PUSH1 0x0 PUSH1 0x20 DUP3 ADD SWAP1 POP DUP2 DUP2 SUB PUSH1 0x0 DUP4 ADD MSTORE PUSH2 0x4282 DUP2 PUSH2 0x3D39 JUMP JUMPDEST SWAP1 POP SWAP2 SWAP1 POP JUMP JUMPDEST PUSH1 0x0 PUSH1 0x20 DUP3 ADD SWAP1 POP DUP2 DUP2 SUB PUSH1 0x0 DUP4 ADD MSTORE PUSH2 0x42A3 DUP2 DUP5 PUSH2 0x3E1B JUMP JUMPDEST SWAP1 POP SWAP3 SWAP2 POP POP JUMP JUMPDEST PUSH1 0x0 PUSH1 0x20 DUP3 ADD SWAP1 POP PUSH2 0x42C0 PUSH1 0x0 DUP4 ADD DUP5 PUSH2 0x3E94 JUMP JUMPDEST SWAP3 SWAP2 POP POP JUMP JUMPDEST PUSH1 0x0 PUSH2 0x42D0 PUSH2 0x42E1 JUMP JUMPDEST SWAP1 POP PUSH2 0x42DC DUP3 DUP3 PUSH2 0x45E7 JUMP JUMPDEST SWAP2 SWAP1 POP JUMP JUMPDEST PUSH1 0x0 PUSH1 0x40 MLOAD SWAP1 POP SWAP1 JUMP JUMPDEST PUSH1 0x0 PUSH8 0xFFFFFFFFFFFFFFFF DUP3 GT ISZERO PUSH2 0x4306 JUMPI PUSH2 0x4305 PUSH2 0x471F JUMP JUMPDEST JUMPDEST PUSH2 0x430F DUP3 PUSH2 0x474E JUMP JUMPDEST SWAP1 POP PUSH1 0x20 DUP2 ADD SWAP1 POP SWAP2 SWAP1 POP JUMP JUMPDEST PUSH1 0x0 DUP2 SWAP1 POP PUSH1 0x20 DUP3 ADD SWAP1 POP SWAP2 SWAP1 POP JUMP JUMPDEST PUSH1 0x0 DUP2 MLOAD SWAP1 POP SWAP2 SWAP1 POP JUMP JUMPDEST PUSH1 0x0 DUP2 MLOAD SWAP1 POP SWAP2 SWAP1 POP JUMP JUMPDEST PUSH1 0x0 DUP2 MLOAD SWAP1 POP SWAP2 SWAP1 POP JUMP JUMPDEST PUSH1 0x0 PUSH1 0x20 DUP3 ADD SWAP1 POP SWAP2 SWAP1 POP JUMP JUMPDEST PUSH1 0x0 DUP3 DUP3 MSTORE PUSH1 0x20 DUP3 ADD SWAP1 POP SWAP3 SWAP2 POP POP JUMP JUMPDEST PUSH1 0x0 DUP3 DUP3 MSTORE PUSH1 0x20 DUP3 ADD SWAP1 POP SWAP3 SWAP2 POP POP JUMP JUMPDEST PUSH1 0x0 DUP3 DUP3 MSTORE PUSH1 0x20 DUP3 ADD SWAP1 POP SWAP3 SWAP2 POP POP JUMP JUMPDEST PUSH1 0x0 DUP3 DUP3 MSTORE PUSH1 0x20 DUP3 ADD SWAP1 POP SWAP3 SWAP2 POP POP JUMP JUMPDEST PUSH1 0x0 DUP2 SWAP1 POP SWAP3 SWAP2 POP POP JUMP JUMPDEST PUSH1 0x0 PUSH2 0x43B4 DUP3 PUSH2 0x455C JUMP JUMPDEST SWAP2 POP PUSH2 0x43BF DUP4 PUSH2 0x455C JUMP JUMPDEST SWAP3 POP DUP3 PUSH32 0xFFFFFFFFFFFFFFFFFFFFFFFFFFFFFFFFFFFFFFFFFFFFFFFFFFFFFFFFFFFFFFFF SUB DUP3 GT ISZERO PUSH2 0x43F4 JUMPI PUSH2 0x43F3 PUSH2 0x4692 JUMP JUMPDEST JUMPDEST DUP3 DUP3 ADD SWAP1 POP SWAP3 SWAP2 POP POP JUMP JUMPDEST PUSH1 0x0 PUSH2 0x440A DUP3 PUSH2 0x455C JUMP JUMPDEST SWAP2 POP PUSH2 0x4415 DUP4 PUSH2 0x455C JUMP JUMPDEST SWAP3 POP DUP3 PUSH2 0x4425 JUMPI PUSH2 0x4424 PUSH2 0x46C1 JUMP JUMPDEST JUMPDEST DUP3 DUP3 DIV SWAP1 POP SWAP3 SWAP2 POP POP JUMP JUMPDEST PUSH1 0x0 PUSH2 0x443B DUP3 PUSH2 0x455C JUMP JUMPDEST SWAP2 POP PUSH2 0x4446 DUP4 PUSH2 0x455C JUMP JUMPDEST SWAP3 POP DUP2 PUSH32 0xFFFFFFFFFFFFFFFFFFFFFFFFFFFFFFFFFFFFFFFFFFFFFFFFFFFFFFFFFFFFFFFF DIV DUP4 GT DUP3 ISZERO ISZERO AND ISZERO PUSH2 0x447F JUMPI PUSH2 0x447E PUSH2 0x4692 JUMP JUMPDEST JUMPDEST DUP3 DUP3 MUL SWAP1 POP SWAP3 SWAP2 POP POP JUMP JUMPDEST PUSH1 0x0 PUSH2 0x4495 DUP3 PUSH2 0x455C JUMP JUMPDEST SWAP2 POP PUSH2 0x44A0 DUP4 PUSH2 0x455C JUMP JUMPDEST SWAP3 POP DUP3 DUP3 LT ISZERO PUSH2 0x44B3 JUMPI PUSH2 0x44B2 PUSH2 0x4692 JUMP JUMPDEST JUMPDEST DUP3 DUP3 SUB SWAP1 POP SWAP3 SWAP2 POP POP JUMP JUMPDEST PUSH1 0x0 PUSH2 0x44C9 DUP3 PUSH2 0x4566 JUMP JUMPDEST SWAP2 POP PUSH2 0x44D4 DUP4 PUSH2 0x4566 JUMP JUMPDEST SWAP3 POP DUP3 DUP3 LT ISZERO PUSH2 0x44E7 JUMPI PUSH2 0x44E6 PUSH2 0x4692 JUMP JUMPDEST JUMPDEST DUP3 DUP3 SUB SWAP1 POP SWAP3 SWAP2 POP POP JUMP JUMPDEST PUSH1 0x0 PUSH2 0x44FD DUP3 PUSH2 0x453C JUMP JUMPDEST SWAP1 POP SWAP2 SWAP1 POP JUMP JUMPDEST PUSH1 0x0 DUP2 ISZERO ISZERO SWAP1 POP SWAP2 SWAP1 POP JUMP JUMPDEST PUSH1 0x0 PUSH32 0xFFFFFFFF00000000000000000000000000000000000000000000000000000000 DUP3 AND SWAP1 POP SWAP2 SWAP1 POP JUMP JUMPDEST PUSH1 0x0 PUSH20 0xFFFFFFFFFFFFFFFFFFFFFFFFFFFFFFFFFFFFFFFF DUP3 AND SWAP1 POP SWAP2 SWAP1 POP JUMP JUMPDEST PUSH1 0x0 DUP2 SWAP1 POP SWAP2 SWAP1 POP JUMP JUMPDEST PUSH1 0x0 PUSH1 0xFF DUP3 AND SWAP1 POP SWAP2 SWAP1 POP JUMP JUMPDEST DUP3 DUP2 DUP4 CALLDATACOPY PUSH1 0x0 DUP4 DUP4 ADD MSTORE POP POP POP JUMP JUMPDEST PUSH1 0x0 JUMPDEST DUP4 DUP2 LT ISZERO PUSH2 0x45A0 JUMPI DUP1 DUP3 ADD MLOAD DUP2 DUP5 ADD MSTORE PUSH1 0x20 DUP2 ADD SWAP1 POP PUSH2 0x4585 JUMP JUMPDEST DUP4 DUP2 GT ISZERO PUSH2 0x45AF JUMPI PUSH1 0x0 DUP5 DUP5 ADD MSTORE JUMPDEST POP POP POP POP JUMP JUMPDEST PUSH1 0x0 PUSH1 0x2 DUP3 DIV SWAP1 POP PUSH1 0x1 DUP3 AND DUP1 PUSH2 0x45CD JUMPI PUSH1 0x7F DUP3 AND SWAP2 POP JUMPDEST PUSH1 0x20 DUP3 LT DUP2 EQ ISZERO PUSH2 0x45E1 JUMPI PUSH2 0x45E0 PUSH2 0x46F0 JUMP JUMPDEST JUMPDEST POP SWAP2 SWAP1 POP JUMP JUMPDEST PUSH2 0x45F0 DUP3 PUSH2 0x474E JUMP JUMPDEST DUP2 ADD DUP2 DUP2 LT PUSH8 0xFFFFFFFFFFFFFFFF DUP3 GT OR ISZERO PUSH2 0x460F JUMPI PUSH2 0x460E PUSH2 0x471F JUMP JUMPDEST JUMPDEST DUP1 PUSH1 0x40 MSTORE POP POP POP JUMP JUMPDEST PUSH1 0x0 PUSH2 0x4623 DUP3 PUSH2 0x455C JUMP JUMPDEST SWAP2 POP PUSH32 0xFFFFFFFFFFFFFFFFFFFFFFFFFFFFFFFFFFFFFFFFFFFFFFFFFFFFFFFFFFFFFFFF DUP3 EQ ISZERO PUSH2 0x4656 JUMPI PUSH2 0x4655 PUSH2 0x4692 JUMP JUMPDEST JUMPDEST PUSH1 0x1 DUP3 ADD SWAP1 POP SWAP2 SWAP1 POP JUMP JUMPDEST PUSH1 0x0 PUSH2 0x466C DUP3 PUSH2 0x455C JUMP JUMPDEST SWAP2 POP PUSH2 0x4677 DUP4 PUSH2 0x455C JUMP JUMPDEST SWAP3 POP DUP3 PUSH2 0x4687 JUMPI PUSH2 0x4686 PUSH2 0x46C1 JUMP JUMPDEST JUMPDEST DUP3 DUP3 MOD SWAP1 POP SWAP3 SWAP2 POP POP JUMP JUMPDEST PUSH32 0x4E487B7100000000000000000000000000000000000000000000000000000000 PUSH1 0x0 MSTORE PUSH1 0x11 PUSH1 0x4 MSTORE PUSH1 0x24 PUSH1 0x0 REVERT JUMPDEST PUSH32 0x4E487B7100000000000000000000000000000000000000000000000000000000 PUSH1 0x0 MSTORE PUSH1 0x12 PUSH1 0x4 MSTORE PUSH1 0x24 PUSH1 0x0 REVERT JUMPDEST PUSH32 0x4E487B7100000000000000000000000000000000000000000000000000000000 PUSH1 0x0 MSTORE PUSH1 0x22 PUSH1 0x4 MSTORE PUSH1 0x24 PUSH1 0x0 REVERT JUMPDEST PUSH32 0x4E487B7100000000000000000000000000000000000000000000000000000000 PUSH1 0x0 MSTORE PUSH1 0x41 PUSH1 0x4 MSTORE PUSH1 0x24 PUSH1 0x0 REVERT JUMPDEST PUSH1 0x0 PUSH1 0x1F NOT PUSH1 0x1F DUP4 ADD AND SWAP1 POP SWAP2 SWAP1 POP JUMP JUMPDEST PUSH32 0x4552433732315061757361626C653A20746F6B656E207472616E736665722077 PUSH1 0x0 DUP3 ADD MSTORE PUSH32 0x68696C6520706175736564000000000000000000000000000000000000000000 PUSH1 0x20 DUP3 ADD MSTORE POP JUMP JUMPDEST PUSH32 0x5061757361626C653A206E6F7420706175736564000000000000000000000000 PUSH1 0x0 DUP3 ADD MSTORE POP JUMP JUMPDEST PUSH32 0x4552433732313A2063616C6C6572206973206E6F7420746F6B656E206F776E65 PUSH1 0x0 DUP3 ADD MSTORE PUSH32 0x72206F7220617070726F76656400000000000000000000000000000000000000 PUSH1 0x20 DUP3 ADD MSTORE POP JUMP JUMPDEST PUSH32 0x455243373231456E756D657261626C653A206F776E657220696E646578206F75 PUSH1 0x0 DUP3 ADD MSTORE PUSH32 0x74206F6620626F756E6473000000000000000000000000000000000000000000 PUSH1 0x20 DUP3 ADD MSTORE POP JUMP JUMPDEST PUSH32 0x4552433732313A207472616E7366657220746F206E6F6E204552433732315265 PUSH1 0x0 DUP3 ADD MSTORE PUSH32 0x63656976657220696D706C656D656E7465720000000000000000000000000000 PUSH1 0x20 DUP3 ADD MSTORE POP JUMP JUMPDEST PUSH32 0x4F776E61626C653A206E6577206F776E657220697320746865207A65726F2061 PUSH1 0x0 DUP3 ADD MSTORE PUSH32 0x6464726573730000000000000000000000000000000000000000000000000000 PUSH1 0x20 DUP3 ADD MSTORE POP JUMP JUMPDEST PUSH32 0x4D79546F6B656E3A757269206973207265717569726564000000000000000000 PUSH1 0x0 DUP3 ADD MSTORE POP JUMP JUMPDEST PUSH32 0x4552433732313A207472616E736665722066726F6D20696E636F727265637420 PUSH1 0x0 DUP3 ADD MSTORE PUSH32 0x6F776E6572000000000000000000000000000000000000000000000000000000 PUSH1 0x20 DUP3 ADD MSTORE POP JUMP JUMPDEST PUSH32 0x4552433732313A20746F6B656E20616C7265616479206D696E74656400000000 PUSH1 0x0 DUP3 ADD MSTORE POP JUMP JUMPDEST PUSH32 0x4552433732313A207472616E7366657220746F20746865207A65726F20616464 PUSH1 0x0 DUP3 ADD MSTORE PUSH32 0x7265737300000000000000000000000000000000000000000000000000000000 PUSH1 0x20 DUP3 ADD MSTORE POP JUMP JUMPDEST PUSH32 0x4552433732313A20617070726F766520746F2063616C6C657200000000000000 PUSH1 0x0 DUP3 ADD MSTORE POP JUMP JUMPDEST PUSH32 0x5061757361626C653A2070617573656400000000000000000000000000000000 PUSH1 0x0 DUP3 ADD MSTORE POP JUMP JUMPDEST PUSH32 0x4552433732313A2061646472657373207A65726F206973206E6F742061207661 PUSH1 0x0 DUP3 ADD MSTORE PUSH32 0x6C6964206F776E65720000000000000000000000000000000000000000000000 PUSH1 0x20 DUP3 ADD MSTORE POP JUMP JUMPDEST PUSH32 0x45524337323155524953746F726167653A2055524920736574206F66206E6F6E PUSH1 0x0 DUP3 ADD MSTORE PUSH32 0x6578697374656E7420746F6B656E000000000000000000000000000000000000 PUSH1 0x20 DUP3 ADD MSTORE POP JUMP JUMPDEST PUSH32 0x496E697469616C697A61626C653A20636F6E747261637420697320616C726561 PUSH1 0x0 DUP3 ADD MSTORE PUSH32 0x647920696E697469616C697A6564000000000000000000000000000000000000 PUSH1 0x20 DUP3 ADD MSTORE POP JUMP JUMPDEST PUSH32 0x4552433732313A206D696E7420746F20746865207A65726F2061646472657373 PUSH1 0x0 DUP3 ADD MSTORE POP JUMP JUMPDEST PUSH32 0x2E6A736F6E000000000000000000000000000000000000000000000000000000 PUSH1 0x0 DUP3 ADD MSTORE POP JUMP JUMPDEST PUSH32 0x4F776E61626C653A2063616C6C6572206973206E6F7420746865206F776E6572 PUSH1 0x0 DUP3 ADD MSTORE POP JUMP JUMPDEST PUSH32 0x4552433732313A20696E76616C696420746F6B656E2049440000000000000000 PUSH1 0x0 DUP3 ADD MSTORE POP JUMP JUMPDEST PUSH32 0x4552433732313A20617070726F76616C20746F2063757272656E74206F776E65 PUSH1 0x0 DUP3 ADD MSTORE PUSH32 0x7200000000000000000000000000000000000000000000000000000000000000 PUSH1 0x20 DUP3 ADD MSTORE POP JUMP JUMPDEST PUSH32 0x4552433732313A20617070726F76652063616C6C6572206973206E6F7420746F PUSH1 0x0 DUP3 ADD MSTORE PUSH32 0x6B656E206F776E6572206F7220617070726F76656420666F7220616C6C000000 PUSH1 0x20 DUP3 ADD MSTORE POP JUMP JUMPDEST PUSH32 0x455243373231456E756D657261626C653A20676C6F62616C20696E646578206F PUSH1 0x0 DUP3 ADD MSTORE PUSH32 0x7574206F6620626F756E64730000000000000000000000000000000000000000 PUSH1 0x20 DUP3 ADD MSTORE POP JUMP JUMPDEST PUSH32 0x496E697469616C697A61626C653A20636F6E7472616374206973206E6F742069 PUSH1 0x0 DUP3 ADD MSTORE PUSH32 0x6E697469616C697A696E67000000000000000000000000000000000000000000 PUSH1 0x20 DUP3 ADD MSTORE POP JUMP JUMPDEST PUSH32 0x455243373231456E756D657261626C653A20636F6E7365637574697665207472 PUSH1 0x0 DUP3 ADD MSTORE PUSH32 0x616E7366657273206E6F7420737570706F727465640000000000000000000000 PUSH1 0x20 DUP3 ADD MSTORE POP JUMP JUMPDEST PUSH2 0x4D7A DUP2 PUSH2 0x44F2 JUMP JUMPDEST DUP2 EQ PUSH2 0x4D85 JUMPI PUSH1 0x0 DUP1 REVERT JUMPDEST POP JUMP JUMPDEST PUSH2 0x4D91 DUP2 PUSH2 0x4504 JUMP JUMPDEST DUP2 EQ PUSH2 0x4D9C JUMPI PUSH1 0x0 DUP1 REVERT JUMPDEST POP JUMP JUMPDEST PUSH2 0x4DA8 DUP2 PUSH2 0x4510 JUMP JUMPDEST DUP2 EQ PUSH2 0x4DB3 JUMPI PUSH1 0x0 DUP1 REVERT JUMPDEST POP JUMP JUMPDEST PUSH2 0x4DBF DUP2 PUSH2 0x455C JUMP JUMPDEST DUP2 EQ PUSH2 0x4DCA JUMPI PUSH1 0x0 DUP1 REVERT JUMPDEST POP JUMP INVALID PUSH9 0x747470733A2F2F6970 PUSH7 0x732E696F2F6970 PUSH7 0x732F516D543732 PUSH22 0x4A7A6B36524D656F584A315951794343374139626350 DIFFICULTY PUSH4 0x356F314B PUSH8 0x42456B6358366351 PUSH18 0x374A2F6261746368555249416E6449643A70 PUSH2 0x6765 0x49 PUSH15 0x646578206D75737420626520677265 PUSH2 0x7465 PUSH19 0x207468616E20306261746368555249416E6449 PUSH5 0x3A74686520 PUSH20 0x74617274496E646578206F7574206F662072616E PUSH8 0x6562617463685552 0x49 COINBASE PUSH15 0x6449643A61646472657373207A6572 PUSH16 0x206973206E6F7420612076616C696420 PUSH16 0x776E6572A2646970667358221220E063 PUSH17 0x8DD949875889D60C201F9196ADD96C3A3F 0xBC 0xB7 DUP13 0x4D DIV 0xA9 ADDMOD 0xD7 0xD0 0xAE DUP10 PUSH8 0x64736F6C63430008 ADD STOP CALLER "
		},
		"gasEstimates": {
			"creation": {
				"codeDepositCost": "4034600",
				"executionCost": "infinite",
				"totalCost": "infinite"
			},
			"external": {
				"approve(address,uint256)": "infinite",
				"balanceOf(address)": "1624",
				"burn(uint256)": "infinite",
				"getApproved(uint256)": "2700",
				"getBatchURI(uint256,uint256,address)": "infinite",
				"initialize(bytes,bytes)": "infinite",
				"isApprovedForAll(address,address)": "infinite",
				"name()": "infinite",
				"owner()": "1405",
				"ownerOf(uint256)": "1725",
				"pause()": "infinite",
				"paused()": "1290",
				"renounceOwnership()": "24615",
				"safeMint(address,bytes)": "infinite",
				"safeTransferFrom(address,address,uint256)": "infinite",
				"safeTransferFrom(address,address,uint256,bytes)": "infinite",
				"setApprovalForAll(address,bool)": "infinite",
				"supportsInterface(bytes4)": "1024",
				"symbol()": "infinite",
				"tokenByIndex(uint256)": "infinite",
				"tokenOfOwnerByIndex(address,uint256)": "infinite",
				"tokenURI(uint256)": "infinite",
				"totalSupply()": "1257",
				"transferFrom(address,address,uint256)": "infinite",
				"transferOwnership(address)": "25007",
				"unpause()": "infinite"
			},
			"internal": {
				"computerPageConfig(uint256,uint256,address)": "infinite",
				"revertMessage_Address_0(uint256,uint256,address,string memory)": "infinite",
				"revertMessage_IndexOutOfRange(uint256,uint256,address,string memory)": "infinite"
			}
		},
		"methodIdentifiers": {
			"approve(address,uint256)": "095ea7b3",
			"balanceOf(address)": "70a08231",
			"burn(uint256)": "42966c68",
			"getApproved(uint256)": "081812fc",
			"getBatchURI(uint256,uint256,address)": "bf2add2f",
			"initialize(bytes,bytes)": "1af19f77",
			"isApprovedForAll(address,address)": "e985e9c5",
			"name()": "06fdde03",
			"owner()": "8da5cb5b",
			"ownerOf(uint256)": "6352211e",
			"pause()": "8456cb59",
			"paused()": "5c975abb",
			"renounceOwnership()": "715018a6",
			"safeMint(address,bytes)": "785bb03e",
			"safeTransferFrom(address,address,uint256)": "42842e0e",
			"safeTransferFrom(address,address,uint256,bytes)": "b88d4fde",
			"setApprovalForAll(address,bool)": "a22cb465",
			"supportsInterface(bytes4)": "01ffc9a7",
			"symbol()": "95d89b41",
			"tokenByIndex(uint256)": "4f6ccce7",
			"tokenOfOwnerByIndex(address,uint256)": "2f745c59",
			"tokenURI(uint256)": "c87b56dd",
			"totalSupply()": "18160ddd",
			"transferFrom(address,address,uint256)": "23b872dd",
			"transferOwnership(address)": "f2fde38b",
			"unpause()": "3f4ba83a"
		}
	},
	"abi": [
		{
			"anonymous": false,
			"inputs": [
				{
					"indexed": true,
					"internalType": "address",
					"name": "owner",
					"type": "address"
				},
				{
					"indexed": true,
					"internalType": "address",
					"name": "approved",
					"type": "address"
				},
				{
					"indexed": true,
					"internalType": "uint256",
					"name": "tokenId",
					"type": "uint256"
				}
			],
			"name": "Approval",
			"type": "event"
		},
		{
			"anonymous": false,
			"inputs": [
				{
					"indexed": true,
					"internalType": "address",
					"name": "owner",
					"type": "address"
				},
				{
					"indexed": true,
					"internalType": "address",
					"name": "operator",
					"type": "address"
				},
				{
					"indexed": false,
					"internalType": "bool",
					"name": "approved",
					"type": "bool"
				}
			],
			"name": "ApprovalForAll",
			"type": "event"
		},
		{
			"anonymous": false,
			"inputs": [
				{
					"indexed": false,
					"internalType": "uint256",
					"name": "_fromTokenId",
					"type": "uint256"
				},
				{
					"indexed": false,
					"internalType": "uint256",
					"name": "_toTokenId",
					"type": "uint256"
				}
			],
			"name": "BatchMetadataUpdate",
			"type": "event"
		},
		{
			"anonymous": false,
			"inputs": [
				{
					"indexed": false,
					"internalType": "uint256",
					"name": "_tokenId",
					"type": "uint256"
				}
			],
			"name": "MetadataUpdate",
			"type": "event"
		},
		{
			"anonymous": false,
			"inputs": [
				{
					"indexed": true,
					"internalType": "address",
					"name": "previousOwner",
					"type": "address"
				},
				{
					"indexed": true,
					"internalType": "address",
					"name": "newOwner",
					"type": "address"
				}
			],
			"name": "OwnershipTransferred",
			"type": "event"
		},
		{
			"anonymous": false,
			"inputs": [
				{
					"indexed": false,
					"internalType": "address",
					"name": "account",
					"type": "address"
				}
			],
			"name": "Paused",
			"type": "event"
		},
		{
			"anonymous": false,
			"inputs": [
				{
					"indexed": true,
					"internalType": "address",
					"name": "from",
					"type": "address"
				},
				{
					"indexed": true,
					"internalType": "address",
					"name": "to",
					"type": "address"
				},
				{
					"indexed": true,
					"internalType": "uint256",
					"name": "tokenId",
					"type": "uint256"
				}
			],
			"name": "Transfer",
			"type": "event"
		},
		{
			"anonymous": false,
			"inputs": [
				{
					"indexed": false,
					"internalType": "address",
					"name": "account",
					"type": "address"
				}
			],
			"name": "Unpaused",
			"type": "event"
		},
		{
			"inputs": [
				{
					"internalType": "address",
					"name": "to",
					"type": "address"
				},
				{
					"internalType": "uint256",
					"name": "tokenId",
					"type": "uint256"
				}
			],
			"name": "approve",
			"outputs": [],
			"stateMutability": "nonpayable",
			"type": "function"
		},
		{
			"inputs": [
				{
					"internalType": "address",
					"name": "owner",
					"type": "address"
				}
			],
			"name": "balanceOf",
			"outputs": [
				{
					"internalType": "uint256",
					"name": "",
					"type": "uint256"
				}
			],
			"stateMutability": "view",
			"type": "function"
		},
		{
			"inputs": [
				{
					"internalType": "uint256",
					"name": "tokenId",
					"type": "uint256"
				}
			],
			"name": "burn",
			"outputs": [],
			"stateMutability": "nonpayable",
			"type": "function"
		},
		{
			"inputs": [
				{
					"internalType": "uint256",
					"name": "tokenId",
					"type": "uint256"
				}
			],
			"name": "getApproved",
			"outputs": [
				{
					"internalType": "address",
					"name": "",
					"type": "address"
				}
			],
			"stateMutability": "view",
			"type": "function"
		},
		{
			"inputs": [
				{
					"internalType": "uint256",
					"name": "pageIndex",
					"type": "uint256"
				},
				{
					"internalType": "uint256",
					"name": "batchSize",
					"type": "uint256"
				},
				{
					"internalType": "address",
					"name": "owner",
					"type": "address"
				}
			],
			"name": "getBatchURI",
			"outputs": [
				{
					"components": [
						{
							"internalType": "uint8",
							"name": "code",
							"type": "uint8"
						},
						{
							"internalType": "string",
							"name": "message",
							"type": "string"
						},
						{
							"components": [
								{
									"internalType": "uint256",
									"name": "id",
									"type": "uint256"
								},
								{
									"internalType": "string",
									"name": "uri",
									"type": "string"
								},
								{
									"internalType": "address",
									"name": "contractAddress",
									"type": "address"
								},
								{
									"internalType": "string",
									"name": "tokenStandard",
									"type": "string"
								}
							],
							"internalType": "struct batchURIAndId.NFT[]",
							"name": "NFTs",
							"type": "tuple[]"
						},
						{
							"components": [
								{
									"internalType": "uint256",
									"name": "last_page",
									"type": "uint256"
								},
								{
									"internalType": "uint256",
									"name": "current_page",
									"type": "uint256"
								},
								{
									"internalType": "uint256",
									"name": "pre_page",
									"type": "uint256"
								},
								{
									"internalType": "uint256",
									"name": "next_page",
									"type": "uint256"
								}
							],
							"internalType": "struct batchURIAndId.PageConfig",
							"name": "page_config",
							"type": "tuple"
						}
					],
					"internalType": "struct batchURIAndId.response",
					"name": "",
					"type": "tuple"
				}
			],
			"stateMutability": "view",
			"type": "function"
		},
		{
			"inputs": [
				{
					"internalType": "bytes",
					"name": "_tokenName",
					"type": "bytes"
				},
				{
					"internalType": "bytes",
					"name": "_tokenSymbol",
					"type": "bytes"
				}
			],
			"name": "initialize",
			"outputs": [],
			"stateMutability": "nonpayable",
			"type": "function"
		},
		{
			"inputs": [
				{
					"internalType": "address",
					"name": "owner",
					"type": "address"
				},
				{
					"internalType": "address",
					"name": "operator",
					"type": "address"
				}
			],
			"name": "isApprovedForAll",
			"outputs": [
				{
					"internalType": "bool",
					"name": "",
					"type": "bool"
				}
			],
			"stateMutability": "view",
			"type": "function"
		},
		{
			"inputs": [],
			"name": "name",
			"outputs": [
				{
					"internalType": "string",
					"name": "",
					"type": "string"
				}
			],
			"stateMutability": "view",
			"type": "function"
		},
		{
			"inputs": [],
			"name": "owner",
			"outputs": [
				{
					"internalType": "address",
					"name": "",
					"type": "address"
				}
			],
			"stateMutability": "view",
			"type": "function"
		},
		{
			"inputs": [
				{
					"internalType": "uint256",
					"name": "tokenId",
					"type": "uint256"
				}
			],
			"name": "ownerOf",
			"outputs": [
				{
					"internalType": "address",
					"name": "",
					"type": "address"
				}
			],
			"stateMutability": "view",
			"type": "function"
		},
		{
			"inputs": [],
			"name": "pause",
			"outputs": [],
			"stateMutability": "nonpayable",
			"type": "function"
		},
		{
			"inputs": [],
			"name": "paused",
			"outputs": [
				{
					"internalType": "bool",
					"name": "",
					"type": "bool"
				}
			],
			"stateMutability": "view",
			"type": "function"
		},
		{
			"inputs": [],
			"name": "renounceOwnership",
			"outputs": [],
			"stateMutability": "nonpayable",
			"type": "function"
		},
		{
			"inputs": [
				{
					"internalType": "address",
					"name": "to",
					"type": "address"
				},
				{
					"internalType": "bytes",
					"name": "uri",
					"type": "bytes"
				}
			],
			"name": "safeMint",
			"outputs": [
				{
					"internalType": "uint256",
					"name": "",
					"type": "uint256"
				}
			],
			"stateMutability": "nonpayable",
			"type": "function"
		},
		{
			"inputs": [
				{
					"internalType": "address",
					"name": "from",
					"type": "address"
				},
				{
					"internalType": "address",
					"name": "to",
					"type": "address"
				},
				{
					"internalType": "uint256",
					"name": "tokenId",
					"type": "uint256"
				}
			],
			"name": "safeTransferFrom",
			"outputs": [],
			"stateMutability": "nonpayable",
			"type": "function"
		},
		{
			"inputs": [
				{
					"internalType": "address",
					"name": "from",
					"type": "address"
				},
				{
					"internalType": "address",
					"name": "to",
					"type": "address"
				},
				{
					"internalType": "uint256",
					"name": "tokenId",
					"type": "uint256"
				},
				{
					"internalType": "bytes",
					"name": "data",
					"type": "bytes"
				}
			],
			"name": "safeTransferFrom",
			"outputs": [],
			"stateMutability": "nonpayable",
			"type": "function"
		},
		{
			"inputs": [
				{
					"internalType": "address",
					"name": "operator",
					"type": "address"
				},
				{
					"internalType": "bool",
					"name": "approved",
					"type": "bool"
				}
			],
			"name": "setApprovalForAll",
			"outputs": [],
			"stateMutability": "nonpayable",
			"type": "function"
		},
		{
			"inputs": [
				{
					"internalType": "bytes4",
					"name": "interfaceId",
					"type": "bytes4"
				}
			],
			"name": "supportsInterface",
			"outputs": [
				{
					"internalType": "bool",
					"name": "",
					"type": "bool"
				}
			],
			"stateMutability": "view",
			"type": "function"
		},
		{
			"inputs": [],
			"name": "symbol",
			"outputs": [
				{
					"internalType": "string",
					"name": "",
					"type": "string"
				}
			],
			"stateMutability": "view",
			"type": "function"
		},
		{
			"inputs": [
				{
					"internalType": "uint256",
					"name": "index",
					"type": "uint256"
				}
			],
			"name": "tokenByIndex",
			"outputs": [
				{
					"internalType": "uint256",
					"name": "",
					"type": "uint256"
				}
			],
			"stateMutability": "view",
			"type": "function"
		},
		{
			"inputs": [
				{
					"internalType": "address",
					"name": "owner",
					"type": "address"
				},
				{
					"internalType": "uint256",
					"name": "index",
					"type": "uint256"
				}
			],
			"name": "tokenOfOwnerByIndex",
			"outputs": [
				{
					"internalType": "uint256",
					"name": "",
					"type": "uint256"
				}
			],
			"stateMutability": "view",
			"type": "function"
		},
		{
			"inputs": [
				{
					"internalType": "uint256",
					"name": "tokenId",
					"type": "uint256"
				}
			],
			"name": "tokenURI",
			"outputs": [
				{
					"internalType": "string",
					"name": "",
					"type": "string"
				}
			],
			"stateMutability": "view",
			"type": "function"
		},
		{
			"inputs": [],
			"name": "totalSupply",
			"outputs": [
				{
					"internalType": "uint256",
					"name": "",
					"type": "uint256"
				}
			],
			"stateMutability": "view",
			"type": "function"
		},
		{
			"inputs": [
				{
					"internalType": "address",
					"name": "from",
					"type": "address"
				},
				{
					"internalType": "address",
					"name": "to",
					"type": "address"
				},
				{
					"internalType": "uint256",
					"name": "tokenId",
					"type": "uint256"
				}
			],
			"name": "transferFrom",
			"outputs": [],
			"stateMutability": "nonpayable",
			"type": "function"
		},
		{
			"inputs": [
				{
					"internalType": "address",
					"name": "newOwner",
					"type": "address"
				}
			],
			"name": "transferOwnership",
			"outputs": [],
			"stateMutability": "nonpayable",
			"type": "function"
		},
		{
			"inputs": [],
			"name": "unpause",
			"outputs": [],
			"stateMutability": "nonpayable",
			"type": "function"
		}
	]
}