{"abi":[{"type":"constructor","inputs":[],"stateMutability":"nonpayable"},{"type":"function","name":"allowance","inputs":[{"name":"owner","type":"address","internalType":"address"},{"name":"spender","type":"address","internalType":"address"}],"outputs":[{"name":"","type":"uint256","internalType":"uint256"}],"stateMutability":"view"},{"type":"function","name":"approve","inputs":[{"name":"spender","type":"address","internalType":"address"},{"name":"amount","type":"uint256","internalType":"uint256"}],"outputs":[{"name":"","type":"bool","internalType":"bool"}],"stateMutability":"nonpayable"},{"type":"function","name":"approveAndCall","inputs":[{"name":"","type":"address","internalType":"address"},{"name":"","type":"uint256","internalType":"uint256"}],"outputs":[{"name":"","type":"bool","internalType":"bool"}],"stateMutability":"pure"},{"type":"function","name":"approveAndCall","inputs":[{"name":"","type":"address","internalType":"address"},{"name":"","type":"uint256","internalType":"uint256"},{"name":"","type":"bytes","internalType":"bytes"}],"outputs":[{"name":"","type":"bool","internalType":"bool"}],"stateMutability":"pure"},{"type":"function","name":"balanceOf","inputs":[{"name":"account","type":"address","internalType":"address"}],"outputs":[{"name":"","type":"uint256","internalType":"uint256"}],"stateMutability":"view"},{"type":"function","name":"decimals","inputs":[],"outputs":[{"name":"","type":"uint8","internalType":"uint8"}],"stateMutability":"view"},{"type":"function","name":"decreaseAllowance","inputs":[{"name":"spender","type":"address","internalType":"address"},{"name":"subtractedValue","type":"uint256","internalType":"uint256"}],"outputs":[{"name":"","type":"bool","internalType":"bool"}],"stateMutability":"nonpayable"},{"type":"function","name":"increaseAllowance","inputs":[{"name":"spender","type":"address","internalType":"address"},{"name":"addedValue","type":"uint256","internalType":"uint256"}],"outputs":[{"name":"","type":"bool","internalType":"bool"}],"stateMutability":"nonpayable"},{"type":"function","name":"initialize","inputs":[{"name":"addr_3","type":"address","internalType":"address"},{"name":"addr_7","type":"address","internalType":"address"}],"outputs":[],"stateMutability":"nonpayable"},{"type":"function","name":"name","inputs":[],"outputs":[{"name":"","type":"string","internalType":"string"}],"stateMutability":"view"},{"type":"function","name":"owner","inputs":[],"outputs":[{"name":"","type":"address","internalType":"address"}],"stateMutability":"view"},{"type":"function","name":"renounceOwnership","inputs":[],"outputs":[],"stateMutability":"nonpayable"},{"type":"function","name":"supportsInterface","inputs":[{"name":"interfaceId","type":"bytes4","internalType":"bytes4"}],"outputs":[{"name":"","type":"bool","internalType":"bool"}],"stateMutability":"view"},{"type":"function","name":"symbol","inputs":[],"outputs":[{"name":"","type":"string","internalType":"string"}],"stateMutability":"view"},{"type":"function","name":"totalSupply","inputs":[],"outputs":[{"name":"","type":"uint256","internalType":"uint256"}],"stateMutability":"view"},{"type":"function","name":"transfer","inputs":[{"name":"to","type":"address","internalType":"address"},{"name":"amount","type":"uint256","internalType":"uint256"}],"outputs":[{"name":"","type":"bool","internalType":"bool"}],"stateMutability":"nonpayable"},{"type":"function","name":"transferAndCall","inputs":[{"name":"","type":"address","internalType":"address"},{"name":"","type":"uint256","internalType":"uint256"}],"outputs":[{"name":"","type":"bool","internalType":"bool"}],"stateMutability":"pure"},{"type":"function","name":"transferAndCall","inputs":[{"name":"to","type":"address","internalType":"address"},{"name":"value","type":"uint256","internalType":"uint256"},{"name":"data","type":"bytes","internalType":"bytes"}],"outputs":[{"name":"","type":"bool","internalType":"bool"}],"stateMutability":"nonpayable"},{"type":"function","name":"transferFrom","inputs":[{"name":"from","type":"address","internalType":"address"},{"name":"to","type":"address","internalType":"address"},{"name":"amount","type":"uint256","internalType":"uint256"}],"outputs":[{"name":"","type":"bool","internalType":"bool"}],"stateMutability":"nonpayable"},{"type":"function","name":"transferFromAndCall","inputs":[{"name":"","type":"address","internalType":"address"},{"name":"","type":"address","internalType":"address"},{"name":"","type":"uint256","internalType":"uint256"},{"name":"","type":"bytes","internalType":"bytes"}],"outputs":[{"name":"","type":"bool","internalType":"bool"}],"stateMutability":"pure"},{"type":"function","name":"transferFromAndCall","inputs":[{"name":"","type":"address","internalType":"address"},{"name":"","type":"address","internalType":"address"},{"name":"","type":"uint256","internalType":"uint256"}],"outputs":[{"name":"","type":"bool","internalType":"bool"}],"stateMutability":"pure"},{"type":"function","name":"transferOwnership","inputs":[{"name":"newOwner","type":"address","internalType":"address"}],"outputs":[],"stateMutability":"nonpayable"},{"type":"event","name":"Approval","inputs":[{"name":"owner","type":"address","indexed":true,"internalType":"address"},{"name":"spender","type":"address","indexed":true,"internalType":"address"},{"name":"value","type":"uint256","indexed":false,"internalType":"uint256"}],"anonymous":false},{"type":"event","name":"OwnershipTransferred","inputs":[{"name":"previousOwner","type":"address","indexed":true,"internalType":"address"},{"name":"newOwner","type":"address","indexed":true,"internalType":"address"}],"anonymous":false},{"type":"event","name":"Transfer","inputs":[{"name":"from","type":"address","indexed":true,"internalType":"address"},{"name":"to","type":"address","indexed":true,"internalType":"address"},{"name":"value","type":"uint256","indexed":false,"internalType":"uint256"}],"anonymous":false}],"bytecode":{"object":"0x608060405234801561001057600080fd5b5061001a3361001f565b610071565b600680546001600160a01b038381166001600160a01b0319831681179093556040519116919082907f8be0079c531659141344cd1fd0a4f28419497f9722a3daafe3b4186f6b6457e090600090a35050565b6113a5806100806000396000f3fe608060405234801561001057600080fd5b50600436106101425760003560e01c806370a08231116100b8578063a9059cbb1161007c578063a9059cbb14610280578063c1d34b8914610293578063cae9ca51146102a1578063d8fbe994146102af578063dd62ed3e146102bd578063f2fde38b146102d057600080fd5b806370a0823114610219578063715018a6146102425780638da5cb5b1461024a57806395d89b4114610265578063a457c2d71461026d57600080fd5b806323b872dd1161010a57806323b872dd146101bc578063313ce567146101cf5780633177029f1461019757806339509351146101de5780634000aea0146101f1578063485cc9551461020457600080fd5b806301ffc9a71461014757806306fdde031461016f578063095ea7b3146101845780631296ee621461019757806318160ddd146101aa575b600080fd5b61015a610155366004610e78565b6102e3565b60405190151581526020015b60405180910390f35b61017761030e565b6040516101669190610ee2565b61015a610192366004610f11565b6103a0565b61015a6101a5366004610f11565b6103b8565b6003545b604051908152602001610166565b61015a6101ca366004610f3b565b6103fa565b60405160098152602001610166565b61015a6101ec366004610f11565b61041e565b61015a6101ff36600461101a565b610440565b610217610212366004611071565b6104f6565b005b6101ae6102273660046110a4565b6001600160a01b031660009081526001602052604090205490565b610217610631565b6006546040516001600160a01b039091168152602001610166565b610177610645565b61015a61027b366004610f11565b610654565b61015a61028e366004610f11565b6106cf565b61015a6101a53660046110bf565b61015a6101a536600461101a565b61015a6101a5366004610f3b565b6101ae6102cb366004611071565b6106dd565b6102176102de3660046110a4565b610708565b60006001600160e01b0319821663b0202a1160e01b1480610308575061030882610781565b92915050565b60606004805461031d90611127565b80601f016020809104026020016040519081016040528092919081815260200182805461034990611127565b80156103965780601f1061036b57610100808354040283529160200191610396565b820191906000526020600020905b81548152906001019060200180831161037957829003601f168201915b5050505050905090565b6000336103ae8185856107d1565b5060019392505050565b60405162461bcd60e51b815260206004820152600f60248201526e1393d517d253541311535153951151608a1b60448201526000906064015b60405180910390fd5b6000336104088582856108f5565b61041385858561096f565b506001949350505050565b6000336103ae81858561043183836106dd565b61043b9190611161565b6107d1565b600081516040146104935760405162461bcd60e51b815260206004820152601c60248201527f455243313336333a20696e76616c6964206461746120666f726d61740000000060448201526064016103f1565b61049d84846106cf565b6104e95760405162461bcd60e51b815260206004820152601860248201527f455243313336333a207472616e73666572206661696c6564000000000000000060448201526064016103f1565b6103ae3333868686610b1a565b600054610100900460ff166105115760005460ff1615610515565b303b155b6105785760405162461bcd60e51b815260206004820152602e60248201527f496e697469616c697a61626c653a20636f6e747261637420697320616c72656160448201526d191e481a5b9a5d1a585b1a5e995960921b60648201526084016103f1565b600054610100900460ff1615801561059a576000805461ffff19166101011790555b6105a2610c80565b6105e2604051806040016040528060038152602001622221a360e91b815250604051806040016040528060038152602001622221a360e91b815250610cda565b6106006105f76006546001600160a01b031690565b62476940610d0f565b61060d8362026160610d0f565b61061a8262058de0610d0f565b801561062c576000805461ff00191690555b505050565b610639610c80565b6106436000610dd0565b565b60606005805461031d90611127565b6000338161066282866106dd565b9050838110156106c25760405162461bcd60e51b815260206004820152602560248201527f45524332303a2064656372656173656420616c6c6f77616e63652062656c6f77604482015264207a65726f60d81b60648201526084016103f1565b61041382868684036107d1565b6000336103ae81858561096f565b6001600160a01b03918216600090815260026020908152604080832093909416825291909152205490565b610710610c80565b6001600160a01b0381166107755760405162461bcd60e51b815260206004820152602660248201527f4f776e61626c653a206e6577206f776e657220697320746865207a65726f206160448201526564647265737360d01b60648201526084016103f1565b61077e81610dd0565b50565b60006001600160e01b031982166336372b0760e01b14806107b257506001600160e01b0319821663a219a02560e01b145b8061030857506301ffc9a760e01b6001600160e01b0319831614610308565b6001600160a01b0383166108335760405162461bcd60e51b8152602060048201526024808201527f45524332303a20617070726f76652066726f6d20746865207a65726f206164646044820152637265737360e01b60648201526084016103f1565b6001600160a01b0382166108945760405162461bcd60e51b815260206004820152602260248201527f45524332303a20617070726f766520746f20746865207a65726f206164647265604482015261737360f01b60648201526084016103f1565b6001600160a01b0383811660008181526002602090815260408083209487168084529482529182902085905590518481527f8c5be1e5ebec7d5bd14f71427d1e84f3dd0314c0f7b2291e5b200ac8c7c3b925910160405180910390a3505050565b600061090184846106dd565b90506000198114610969578181101561095c5760405162461bcd60e51b815260206004820152601d60248201527f45524332303a20696e73756666696369656e7420616c6c6f77616e636500000060448201526064016103f1565b61096984848484036107d1565b50505050565b6001600160a01b0383166109d35760405162461bcd60e51b815260206004820152602560248201527f45524332303a207472616e736665722066726f6d20746865207a65726f206164604482015264647265737360d81b60648201526084016103f1565b6001600160a01b038216610a355760405162461bcd60e51b815260206004820152602360248201527f45524332303a207472616e7366657220746f20746865207a65726f206164647260448201526265737360e81b60648201526084016103f1565b6001600160a01b03831660009081526001602052604090205481811015610aad5760405162461bcd60e51b815260206004820152602660248201527f45524332303a207472616e7366657220616d6f756e7420657863656564732062604482015265616c616e636560d01b60648201526084016103f1565b6001600160a01b0380851660008181526001602052604080822086860390559286168082529083902080548601905591517fddf252ad1be2c89b69c2b068fc378daa952ba7f163c4a11628f55a4df523b3ef90610b0d9086815260200190565b60405180910390a3610969565b826001600160a01b03163b600003610b7e5760405162461bcd60e51b815260206004820152602160248201527f455243313336333a207472616e7366657220746f206e6f6e2d636f6e747261636044820152601d60fa1b60648201526084016103f1565b604051632229f29760e21b81526001600160a01b038416906388a7ca5c90610bb0908890889087908790600401611182565b6020604051808303816000875af1925050508015610beb575060408051601f3d908101601f19168201909252610be8918101906111bf565b60015b610c48573d808015610c19576040519150601f19603f3d011682016040523d82523d6000602084013e610c1e565b606091505b508051600003610c405760405162461bcd60e51b81526004016103f1906111dc565b805160208201fd5b6001600160e01b03198116632229f29760e21b14610c785760405162461bcd60e51b81526004016103f1906111dc565b505050505050565b6006546001600160a01b031633146106435760405162461bcd60e51b815260206004820181905260248201527f4f776e61626c653a2063616c6c6572206973206e6f7420746865206f776e657260448201526064016103f1565b600054610100900460ff16610d015760405162461bcd60e51b81526004016103f19061121e565b610d0b8282610e22565b5050565b6001600160a01b038216610d655760405162461bcd60e51b815260206004820152601f60248201527f45524332303a206d696e7420746f20746865207a65726f20616464726573730060448201526064016103f1565b8060036000828254610d779190611161565b90915550506001600160a01b0382166000818152600160209081526040808320805486019055518481527fddf252ad1be2c89b69c2b068fc378daa952ba7f163c4a11628f55a4df523b3ef910160405180910390a35050565b600680546001600160a01b038381166001600160a01b0319831681179093556040519116919082907f8be0079c531659141344cd1fd0a4f28419497f9722a3daafe3b4186f6b6457e090600090a35050565b600054610100900460ff16610e495760405162461bcd60e51b81526004016103f19061121e565b6004610e5583826112af565b50600561062c82826112af565b6001600160e01b03198116811461077e57600080fd5b600060208284031215610e8a57600080fd5b8135610e9581610e62565b9392505050565b6000815180845260005b81811015610ec257602081850181015186830182015201610ea6565b506000602082860101526020601f19601f83011685010191505092915050565b602081526000610e956020830184610e9c565b80356001600160a01b0381168114610f0c57600080fd5b919050565b60008060408385031215610f2457600080fd5b610f2d83610ef5565b946020939093013593505050565b600080600060608486031215610f5057600080fd5b610f5984610ef5565b9250610f6760208501610ef5565b9150604084013590509250925092565b634e487b7160e01b600052604160045260246000fd5b600082601f830112610f9e57600080fd5b813567ffffffffffffffff80821115610fb957610fb9610f77565b604051601f8301601f19908116603f01168101908282118183101715610fe157610fe1610f77565b81604052838152866020858801011115610ffa57600080fd5b836020870160208301376000602085830101528094505050505092915050565b60008060006060848603121561102f57600080fd5b61103884610ef5565b925060208401359150604084013567ffffffffffffffff81111561105b57600080fd5b61106786828701610f8d565b9150509250925092565b6000806040838503121561108457600080fd5b61108d83610ef5565b915061109b60208401610ef5565b90509250929050565b6000602082840312156110b657600080fd5b610e9582610ef5565b600080600080608085870312156110d557600080fd5b6110de85610ef5565b93506110ec60208601610ef5565b925060408501359150606085013567ffffffffffffffff81111561110f57600080fd5b61111b87828801610f8d565b91505092959194509250565b600181811c9082168061113b57607f821691505b60208210810361115b57634e487b7160e01b600052602260045260246000fd5b50919050565b8082018082111561030857634e487b7160e01b600052601160045260246000fd5b6001600160a01b03858116825284166020820152604081018390526080606082018190526000906111b590830184610e9c565b9695505050505050565b6000602082840312156111d157600080fd5b8151610e9581610e62565b60208082526022908201527f455243313336333a20746f206973206120696e636f7272656374206164647265604082015261737360f01b606082015260800190565b6020808252602b908201527f496e697469616c697a61626c653a20636f6e7472616374206973206e6f74206960408201526a6e697469616c697a696e6760a81b606082015260800190565b601f82111561062c57600081815260208120601f850160051c810160208610156112905750805b601f850160051c820191505b81811015610c785782815560010161129c565b815167ffffffffffffffff8111156112c9576112c9610f77565b6112dd816112d78454611127565b84611269565b602080601f83116001811461131257600084156112fa5750858301515b600019600386901b1c1916600185901b178555610c78565b600085815260208120601f198616915b8281101561134157888601518255948401946001909101908401611322565b508582101561135f5787850151600019600388901b60f8161c191681555b5050505050600190811b0190555056fea2646970667358221220f015163bbc5399d7e9d061ab41242ac3334bbee0678a1d61362d4a5cff3446b664736f6c63430008140033","linkReferences":{}},"methodIdentifiers":{"allowance(address,address)":"dd62ed3e","approve(address,uint256)":"095ea7b3","approveAndCall(address,uint256)":"3177029f","approveAndCall(address,uint256,bytes)":"cae9ca51","balanceOf(address)":"70a08231","decimals()":"313ce567","decreaseAllowance(address,uint256)":"a457c2d7","increaseAllowance(address,uint256)":"39509351","initialize(address,address)":"485cc955","name()":"06fdde03","owner()":"8da5cb5b","renounceOwnership()":"715018a6","supportsInterface(bytes4)":"01ffc9a7","symbol()":"95d89b41","totalSupply()":"18160ddd","transfer(address,uint256)":"a9059cbb","transferAndCall(address,uint256)":"1296ee62","transferAndCall(address,uint256,bytes)":"4000aea0","transferFrom(address,address,uint256)":"23b872dd","transferFromAndCall(address,address,uint256)":"d8fbe994","transferFromAndCall(address,address,uint256,bytes)":"c1d34b89","transferOwnership(address)":"f2fde38b"},"id":3}