{"abi":[{"type":"function","name":"ESafeTransferFrom","inputs":[{"name":"from","type":"address","internalType":"address"},{"name":"to","type":"address","internalType":"address"},{"name":"id","type":"uint256","internalType":"uint256"},{"name":"indexes","type":"uint256[]","internalType":"uint256[]"},{"name":"data","type":"bytes","internalType":"bytes"}],"outputs":[],"stateMutability":"nonpayable"},{"type":"function","name":"Euri","inputs":[{"name":"tokenId","type":"uint256","internalType":"uint256"}],"outputs":[{"name":"","type":"string","internalType":"string"}],"stateMutability":"view"},{"type":"function","name":"_initializedURIStorage","inputs":[],"outputs":[{"name":"","type":"uint8","internalType":"uint8"}],"stateMutability":"view"},{"type":"function","name":"balanceOf","inputs":[{"name":"account","type":"address","internalType":"address"},{"name":"id","type":"uint256","internalType":"uint256"}],"outputs":[{"name":"","type":"uint256","internalType":"uint256"}],"stateMutability":"view"},{"type":"function","name":"balanceOfBatch","inputs":[{"name":"","type":"address[]","internalType":"address[]"},{"name":"","type":"uint256[]","internalType":"uint256[]"}],"outputs":[{"name":"","type":"uint256[]","internalType":"uint256[]"}],"stateMutability":"view"},{"type":"function","name":"isApprovedForAll","inputs":[{"name":"account","type":"address","internalType":"address"},{"name":"operator","type":"address","internalType":"address"}],"outputs":[{"name":"","type":"bool","internalType":"bool"}],"stateMutability":"view"},{"type":"function","name":"owner","inputs":[],"outputs":[{"name":"","type":"address","internalType":"address"}],"stateMutability":"view"},{"type":"function","name":"ownerOf","inputs":[{"name":"tokenId","type":"uint256","internalType":"uint256"},{"name":"editionId","type":"uint256","internalType":"uint256"}],"outputs":[{"name":"","type":"address","internalType":"address"}],"stateMutability":"view"},{"type":"function","name":"renounceOwnership","inputs":[],"outputs":[],"stateMutability":"nonpayable"},{"type":"function","name":"safeBatchTransferFrom","inputs":[{"name":"","type":"address","internalType":"address"},{"name":"","type":"address","internalType":"address"},{"name":"","type":"uint256[]","internalType":"uint256[]"},{"name":"","type":"uint256[]","internalType":"uint256[]"},{"name":"","type":"bytes","internalType":"bytes"}],"outputs":[],"stateMutability":"nonpayable"},{"type":"function","name":"safeTransferFrom","inputs":[{"name":"","type":"address","internalType":"address"},{"name":"","type":"address","internalType":"address"},{"name":"","type":"uint256","internalType":"uint256"},{"name":"","type":"uint256","internalType":"uint256"},{"name":"","type":"bytes","internalType":"bytes"}],"outputs":[],"stateMutability":"nonpayable"},{"type":"function","name":"setApprovalForAll","inputs":[{"name":"operator","type":"address","internalType":"address"},{"name":"approved","type":"bool","internalType":"bool"}],"outputs":[],"stateMutability":"nonpayable"},{"type":"function","name":"setBaseURI","inputs":[{"name":"baseURI","type":"bytes[6]","internalType":"bytes[6]"}],"outputs":[],"stateMutability":"nonpayable"},{"type":"function","name":"supportsInterface","inputs":[{"name":"interfaceId","type":"bytes4","internalType":"bytes4"}],"outputs":[{"name":"","type":"bool","internalType":"bool"}],"stateMutability":"view"},{"type":"function","name":"transferOwnership","inputs":[{"name":"newOwner","type":"address","internalType":"address"}],"outputs":[],"stateMutability":"nonpayable"},{"type":"function","name":"uri","inputs":[{"name":"","type":"uint256","internalType":"uint256"}],"outputs":[{"name":"","type":"string","internalType":"string"}],"stateMutability":"view"},{"type":"event","name":"ApprovalForAll","inputs":[{"name":"account","type":"address","indexed":true,"internalType":"address"},{"name":"operator","type":"address","indexed":true,"internalType":"address"},{"name":"approved","type":"bool","indexed":false,"internalType":"bool"}],"anonymous":false},{"type":"event","name":"OwnershipTransferred","inputs":[{"name":"previousOwner","type":"address","indexed":true,"internalType":"address"},{"name":"newOwner","type":"address","indexed":true,"internalType":"address"}],"anonymous":false},{"type":"event","name":"TransferBatch","inputs":[{"name":"operator","type":"address","indexed":true,"internalType":"address"},{"name":"from","type":"address","indexed":true,"internalType":"address"},{"name":"to","type":"address","indexed":true,"internalType":"address"},{"name":"ids","type":"uint256[]","indexed":false,"internalType":"uint256[]"},{"name":"values","type":"uint256[]","indexed":false,"internalType":"uint256[]"}],"anonymous":false},{"type":"event","name":"TransferSingle","inputs":[{"name":"operator","type":"address","indexed":true,"internalType":"address"},{"name":"from","type":"address","indexed":true,"internalType":"address"},{"name":"to","type":"address","indexed":true,"internalType":"address"},{"name":"id","type":"uint256","indexed":false,"internalType":"uint256"},{"name":"value","type":"uint256","indexed":false,"internalType":"uint256"}],"anonymous":false},{"type":"event","name":"URI","inputs":[{"name":"value","type":"string","indexed":false,"internalType":"string"},{"name":"id","type":"uint256","indexed":true,"internalType":"uint256"}],"anonymous":false}],"bytecode":{"object":"0x608060405234801561001057600080fd5b5061001a3361001f565b610071565b600980546001600160a01b038381166001600160a01b0319831681179093556040519116919082907f8be0079c531659141344cd1fd0a4f28419497f9722a3daafe3b4186f6b6457e090600090a35050565b611771806100806000396000f3fe608060405234801561001057600080fd5b50600436106100ff5760003560e01c80637a915fde11610097578063d9dad80d11610066578063d9dad80d1461023a578063e985e9c51461024d578063f242432a14610289578063f2fde38b1461029c57600080fd5b80637a915fde146101d05780638da5cb5b146101ef578063a22cb46514610214578063d3ab74431461022757600080fd5b80632fedbf3c116100d35780632fedbf3c146101825780634e1273f414610195578063598c27bc146101b5578063715018a6146101c857600080fd5b8062fdd58e1461010457806301ffc9a71461012a5780630e89341c1461014d5780632eb2c2d61461016d575b600080fd5b610117610112366004610dfa565b6102af565b6040519081526020015b60405180910390f35b61013d610138366004610e3a565b61036a565b6040519015158152602001610121565b61016061015b366004610e5e565b6103ba565b6040516101219190610ebd565b61018061017b366004611042565b6103f0565b005b6101806101903660046110ec565b61042a565b6101a86101a336600461118b565b610498565b6040516101219190611256565b6101806101c336600461129a565b6104d5565b610180610553565b6010546101dd9060ff1681565b60405160ff9091168152602001610121565b6009546001600160a01b03165b6040516001600160a01b039091168152602001610121565b61018061022236600461135e565b610567565b610160610235366004610e5e565b610576565b6101fc61024836600461139a565b610692565b61013d61025b3660046113bc565b6001600160a01b03918216600090815260086020908152604080832093909416825291909152205460ff1690565b6101806102973660046113ef565b6106db565b6101806102aa366004611454565b61071b565b60006001600160a01b0383166102fb5760405162461bcd60e51b815260206004820152600c60248201526b5a45524f5f4144445245535360a01b60448201526064015b60405180910390fd5b6006821061033f5760405162461bcd60e51b81526020600482015260116024820152704552525f544f4b454e49445f52414e474560781b60448201526064016102f2565b5060008181526007602090815260408083206001600160a01b03861684529091529020545b92915050565b60006001600160e01b03198216636cdb3d1360e11b148061039b57506001600160e01b031982166303a24d0760e21b145b8061036457506301ffc9a760e01b6001600160e01b0319831614610364565b60405162461bcd60e51b81526020600482015260086024820152675553455f4575726960c01b60448201526060906064016102f2565b60405162461bcd60e51b815260206004820152600f60248201526e1393d517d253541311535153951151608a1b60448201526064016102f2565b610432610794565b60005b6006811015610487578181600681106104505761045061146f565b6020020151600a82600681106104685761046861146f565b0190610474908261150a565b508061047f816115e0565b915050610435565b50506010805460ff19166001179055565b60405162461bcd60e51b815260206004820152600f60248201526e1393d517d253541311535153951151608a1b60448201526060906064016102f2565b6001600160a01b0386163314806104f157506104f1863361025b565b61053d5760405162461bcd60e51b815260206004820152601960248201527f43414c4c45525f4e4f545f4f574e45525f415050524f5645440000000000000060448201526064016102f2565b61054b8686868686866107ee565b505050505050565b61055b610794565b6105656000610af8565b565b610572338383610b4a565b5050565b60105460609060ff166001146105ce5760405162461bcd60e51b815260206004820152601760248201527f424153455552495f4e4f545f494e495449414c495a454400000000000000000060448201526064016102f2565b600682106105ee5760405162461bcd60e51b81526004016102f2906115f9565b600a82600681106106015761060161146f565b01805461060d90611485565b80601f016020809104026020016040519081016040528092919081815260200182805461063990611485565b80156106865780601f1061065b57610100808354040283529160200191610686565b820191906000526020600020905b81548152906001019060200180831161066957829003601f168201915b50505050509050919050565b6000600683106106b45760405162461bcd60e51b81526004016102f2906115f9565b5060009182526006602090815260408084209284529190529020546001600160a01b031690565b60405162461bcd60e51b81526020600482015260156024820152745553455f45536166655472616e7366657246726f6d60581b60448201526064016102f2565b610723610794565b6001600160a01b0381166107885760405162461bcd60e51b815260206004820152602660248201527f4f776e61626c653a206e6577206f776e657220697320746865207a65726f206160448201526564647265737360d01b60648201526084016102f2565b61079181610af8565b50565b6009546001600160a01b031633146105655760405162461bcd60e51b815260206004820181905260248201527f4f776e61626c653a2063616c6c6572206973206e6f7420746865206f776e657260448201526064016102f2565b6001600160a01b0385166108335760405162461bcd60e51b815260206004820152600c60248201526b5a45524f5f4144445245535360a01b60448201526064016102f2565b600684106108535760405162461bcd60e51b81526004016102f2906115f9565b60005b828110156108fd5760008581526006602052604081206001600160a01b038916918686858181106108895761088961146f565b60209081029290920135835250810191909152604001600020546001600160a01b0316146108eb5760405162461bcd60e51b815260206004820152600f60248201526e1513d2d15397d393d517d3d5d39151608a1b60448201526064016102f2565b806108f5816115e0565b915050610856565b5033600061090a86610c08565b9050600061091785610c08565b905060005b858110156109c35760008881526006602052604081206001600160a01b038c169189898581811061094f5761094f61146f565b60209081029290920135835250810191909152604001600020546001600160a01b0316146109b15760405162461bcd60e51b815260206004820152600f60248201526e1513d2d15397d393d517d3d5d39151608a1b60448201526064016102f2565b806109bb816115e0565b91505061091c565b5060008781526007602090815260408083206001600160a01b038d16845290915281208054878103909155905b86811015610a595760008981526006602052604081208b918a8a85818110610a1a57610a1a61146f565b6020908102929092013583525081019190915260400160002080546001600160a01b0319166001600160a01b03929092169190911790556001016109f0565b5060008881526007602090815260408083206001600160a01b038d16845290915281208054889290610a8c908490611620565b909155505060408051898152602081018890526001600160a01b038b8116928d821692918816917fc3d58168c5ae7397731d063d5bbf3d657854427343f4c083240f7aacaa2d0f62910160405180910390a4610aec848b8b8b8a8a610c53565b50505050505050505050565b600980546001600160a01b038381166001600160a01b0319831681179093556040519116919082907f8be0079c531659141344cd1fd0a4f28419497f9722a3daafe3b4186f6b6457e090600090a35050565b816001600160a01b0316836001600160a01b031603610b9b5760405162461bcd60e51b815260206004820152600d60248201526c20a8282927ab20a62fa9a2a62360991b60448201526064016102f2565b6001600160a01b03838116600081815260086020908152604080832094871680845294825291829020805460ff191686151590811790915591519182527f17307eab39ab6107e8899845ad3d59bd9653f200f220920489ca2b5937696c31910160405180910390a3505050565b60408051600180825281830190925260609160009190602080830190803683370190505090508281600081518110610c4257610c4261146f565b602090810291909101015292915050565b6001600160a01b0384163b1561054b5760405163f23a6e6160e01b81526001600160a01b0385169063f23a6e6190610c979089908990889088908890600401611633565b6020604051808303816000875af1925050508015610cd2575060408051601f3d908101601f19168201909252610ccf91810190611678565b60015b610d7557610cde611695565b806308c379a003610d175750610cf26116b1565b80610cfd5750610d19565b8060405162461bcd60e51b81526004016102f29190610ebd565b505b60405162461bcd60e51b815260206004820152602b60248201527f7472616e736665725f746f5f6e6f6e2d4552433131353552656365697665725f60448201526a34b6b83632b6b2b73a32b960a91b60648201526084016102f2565b6001600160e01b0319811663f23a6e6160e01b14610dd55760405162461bcd60e51b815260206004820152601f60248201527f4552433131353552454345495645525f52454a45435445445f544f4b454e530060448201526064016102f2565b50505050505050565b80356001600160a01b0381168114610df557600080fd5b919050565b60008060408385031215610e0d57600080fd5b610e1683610dde565b946020939093013593505050565b6001600160e01b03198116811461079157600080fd5b600060208284031215610e4c57600080fd5b8135610e5781610e24565b9392505050565b600060208284031215610e7057600080fd5b5035919050565b6000815180845260005b81811015610e9d57602081850181015186830182015201610e81565b506000602082860101526020601f19601f83011685010191505092915050565b602081526000610e576020830184610e77565b634e487b7160e01b600052604160045260246000fd5b60c0810181811067ffffffffffffffff82111715610f0657610f06610ed0565b60405250565b601f8201601f1916810167ffffffffffffffff81118282101715610f3257610f32610ed0565b6040525050565b600067ffffffffffffffff821115610f5357610f53610ed0565b5060051b60200190565b600082601f830112610f6e57600080fd5b81356020610f7b82610f39565b604051610f888282610f0c565b83815260059390931b8501820192828101915086841115610fa857600080fd5b8286015b84811015610fc35780358352918301918301610fac565b509695505050505050565b600082601f830112610fdf57600080fd5b813567ffffffffffffffff811115610ff957610ff9610ed0565b604051611010601f8301601f191660200182610f0c565b81815284602083860101111561102557600080fd5b816020850160208301376000918101602001919091529392505050565b600080600080600060a0868803121561105a57600080fd5b61106386610dde565b945061107160208701610dde565b9350604086013567ffffffffffffffff8082111561108e57600080fd5b61109a89838a01610f5d565b945060608801359150808211156110b057600080fd5b6110bc89838a01610f5d565b935060808801359150808211156110d257600080fd5b506110df88828901610fce565b9150509295509295909350565b600060208083850312156110ff57600080fd5b823567ffffffffffffffff8082111561111757600080fd5b818501915085601f83011261112b57600080fd5b60405161113781610ee6565b8060c084018881111561114957600080fd5b845b8181101561117d578035858111156111635760008081fd5b61116f8b828901610fce565b84525091860191860161114b565b509198975050505050505050565b6000806040838503121561119e57600080fd5b823567ffffffffffffffff808211156111b657600080fd5b818501915085601f8301126111ca57600080fd5b813560206111d782610f39565b6040516111e48282610f0c565b83815260059390931b850182019282810191508984111561120457600080fd5b948201945b838610156112295761121a86610dde565b82529482019490820190611209565b9650508601359250508082111561123f57600080fd5b5061124c85828601610f5d565b9150509250929050565b6020808252825182820181905260009190848201906040850190845b8181101561128e57835183529284019291840191600101611272565b50909695505050505050565b60008060008060008060a087890312156112b357600080fd5b6112bc87610dde565b95506112ca60208801610dde565b945060408701359350606087013567ffffffffffffffff808211156112ee57600080fd5b818901915089601f83011261130257600080fd5b81358181111561131157600080fd5b8a60208260051b850101111561132657600080fd5b60208301955080945050608089013591508082111561134457600080fd5b5061135189828a01610fce565b9150509295509295509295565b6000806040838503121561137157600080fd5b61137a83610dde565b91506020830135801515811461138f57600080fd5b809150509250929050565b600080604083850312156113ad57600080fd5b50508035926020909101359150565b600080604083850312156113cf57600080fd5b6113d883610dde565b91506113e660208401610dde565b90509250929050565b600080600080600060a0868803121561140757600080fd5b61141086610dde565b945061141e60208701610dde565b93506040860135925060608601359150608086013567ffffffffffffffff81111561144857600080fd5b6110df88828901610fce565b60006020828403121561146657600080fd5b610e5782610dde565b634e487b7160e01b600052603260045260246000fd5b600181811c9082168061149957607f821691505b6020821081036114b957634e487b7160e01b600052602260045260246000fd5b50919050565b601f82111561150557600081815260208120601f850160051c810160208610156114e65750805b601f850160051c820191505b8181101561054b578281556001016114f2565b505050565b815167ffffffffffffffff81111561152457611524610ed0565b611538816115328454611485565b846114bf565b602080601f83116001811461156d57600084156115555750858301515b600019600386901b1c1916600185901b17855561054b565b600085815260208120601f198616915b8281101561159c5788860151825594840194600190910190840161157d565b50858210156115ba5787850151600019600388901b60f8161c191681555b5050505050600190811b01905550565b634e487b7160e01b600052601160045260246000fd5b6000600182016115f2576115f26115ca565b5060010190565b6020808252600d908201526c544f4b454e49445f52414e474560981b604082015260600190565b80820180821115610364576103646115ca565b6001600160a01b03868116825285166020820152604081018490526060810183905260a06080820181905260009061166d90830184610e77565b979650505050505050565b60006020828403121561168a57600080fd5b8151610e5781610e24565b600060033d11156116ae5760046000803e5060005160e01c5b90565b600060443d10156116bf5790565b6040516003193d81016004833e81513d67ffffffffffffffff81602484011181841117156116ef57505050505090565b82850191508151818111156117075750505050505090565b843d87010160208285010111156117215750505050505090565b61173060208286010187610f0c565b50909594505050505056fea264697066735822122097bfc221bae951e0a88309b08c10af0e87e7126c9b3615e8c73df74af037450664736f6c63430008140033","linkReferences":{}},"methodIdentifiers":{"ESafeTransferFrom(address,address,uint256,uint256[],bytes)":"598c27bc","Euri(uint256)":"d3ab7443","_initializedURIStorage()":"7a915fde","balanceOf(address,uint256)":"00fdd58e","balanceOfBatch(address[],uint256[])":"4e1273f4","isApprovedForAll(address,address)":"e985e9c5","owner()":"8da5cb5b","ownerOf(uint256,uint256)":"d9dad80d","renounceOwnership()":"715018a6","safeBatchTransferFrom(address,address,uint256[],uint256[],bytes)":"2eb2c2d6","safeTransferFrom(address,address,uint256,uint256,bytes)":"f242432a","setApprovalForAll(address,bool)":"a22cb465","setBaseURI(bytes[6])":"2fedbf3c","supportsInterface(bytes4)":"01ffc9a7","transferOwnership(address)":"f2fde38b","uri(uint256)":"0e89341c"},"id":56}