{"abi":[{"type":"function","name":"deposited","inputs":[{"name":"","type":"address","internalType":"address"}],"outputs":[{"name":"","type":"uint256","internalType":"uint256"}],"stateMutability":"view"},{"type":"function","name":"onTransferReceived","inputs":[{"name":"operator","type":"address","internalType":"address"},{"name":"from","type":"address","internalType":"address"},{"name":"value","type":"uint256","internalType":"uint256"},{"name":"data","type":"bytes","internalType":"bytes"}],"outputs":[{"name":"","type":"bytes4","internalType":"bytes4"}],"stateMutability":"nonpayable"},{"type":"function","name":"supportsInterface","inputs":[{"name":"interfaceId","type":"bytes4","internalType":"bytes4"}],"outputs":[{"name":"","type":"bool","internalType":"bool"}],"stateMutability":"view"},{"type":"function","name":"tokenAddress","inputs":[],"outputs":[{"name":"","type":"address","internalType":"address"}],"stateMutability":"view"},{"type":"function","name":"withdraw","inputs":[{"name":"token","type":"address","internalType":"address"},{"name":"amount","type":"uint256","internalType":"uint256"}],"outputs":[],"stateMutability":"nonpayable"},{"type":"event","name":"TokensReceived","inputs":[{"name":"from","type":"address","indexed":true,"internalType":"address"},{"name":"value","type":"uint256","indexed":false,"internalType":"uint256"},{"name":"data","type":"bytes","indexed":false,"internalType":"bytes"}],"anonymous":false}],"bytecode":{"object":"0x608060405234801561001057600080fd5b50610552806100206000396000f3fe608060405234801561001057600080fd5b50600436106100575760003560e01c806301ffc9a71461005c57806388a7ca5c146100845780639d76ea58146100b0578063cb13cddb146100db578063f3fef3a314610109575b600080fd5b61006f61006a36600461034e565b61011e565b60405190151581526020015b60405180910390f35b61009761009236600461039b565b610155565b6040516001600160e01b0319909116815260200161007b565b6001546100c3906001600160a01b031681565b6040516001600160a01b03909116815260200161007b565b6100fb6100e9366004610436565b60006020819052908152604090205481565b60405190815260200161007b565b61011c610117366004610451565b6101ef565b005b60006001600160e01b03198216632229f29760e21b148061014f57506301ffc9a760e01b6001600160e01b03198316145b92915050565b6001600160a01b03841660009081526020819052604081208054859190839061017f908490610491565b9091555050600180546001600160a01b031916331790556040516001600160a01b038616907f0f611859dc94a66d9bec0e66c7485098c0d5e4662896ff2f523c47f962a7abef906101d5908790879087906104a4565b60405180910390a250632229f29760e21b95945050505050565b3360009081526020819052604090205481111561024a5760405162461bcd60e51b8152602060048201526014602482015273125b9cdd59999a58da595b9d0819195c1bdcda5d60621b60448201526064015b60405180910390fd5b33600090815260208190526040812080548392906102699084906104da565b9091555050604051336024820152604481018290526000906001600160a01b0384169060640160408051601f198184030181529181526020820180516001600160e01b031663a9059cbb60e01b179052516102c491906104ed565b6000604051808303816000865af19150503d8060008114610301576040519150601f19603f3d011682016040523d82523d6000602084013e610306565b606091505b50509050806103495760405162461bcd60e51b815260206004820152600f60248201526e151c985b9cd9995c8819985a5b1959608a1b6044820152606401610241565b505050565b60006020828403121561036057600080fd5b81356001600160e01b03198116811461037857600080fd5b9392505050565b80356001600160a01b038116811461039657600080fd5b919050565b6000806000806000608086880312156103b357600080fd5b6103bc8661037f565b94506103ca6020870161037f565b935060408601359250606086013567ffffffffffffffff808211156103ee57600080fd5b818801915088601f83011261040257600080fd5b81358181111561041157600080fd5b89602082850101111561042357600080fd5b9699959850939650602001949392505050565b60006020828403121561044857600080fd5b6103788261037f565b6000806040838503121561046457600080fd5b61046d8361037f565b946020939093013593505050565b634e487b7160e01b600052601160045260246000fd5b8082018082111561014f5761014f61047b565b83815260406020820152816040820152818360608301376000818301606090810191909152601f909201601f1916010192915050565b8181038181111561014f5761014f61047b565b6000825160005b8181101561050e57602081860181015185830152016104f4565b50600092019182525091905056fea264697066735822122022c189d4008cbb56471a4b51359d312a343ccadde19175628ef4070a57c007e564736f6c63430008140033","linkReferences":{}},"methodIdentifiers":{"deposited(address)":"cb13cddb","onTransferReceived(address,address,uint256,bytes)":"88a7ca5c","supportsInterface(bytes4)":"01ffc9a7","tokenAddress()":"9d76ea58","withdraw(address,uint256)":"f3fef3a3"},"id":52}