{
	"data": {
		"bytecode": {
			"linkReferences": {},
			"object": "608060405234801561001057600080fd5b50610fbe806100206000396000f3fe608060405234801561001057600080fd5b506004361061002b5760003560e01c80634929369414610030575b600080fd5b610038610050565b60405161004793929190610763565b60405180910390f35b6000606060008060405161006390610496565b604051809103906000f08015801561007f573d6000803e3d6000fd5b5090506000808273ffffffffffffffffffffffffffffffffffffffff16600a60146040516024016100b19291906106fa565b6040516020818303038152906040527f771602f7000000000000000000000000000000000000000000000000000000007bffffffffffffffffffffffffffffffffffffffffffffffffffffffff19166020820180517bffffffffffffffffffffffffffffffffffffffffffffffffffffffff838183161783525050505060405161013b91906106e3565b6000604051808303816000865af19150503d8060008114610178576040519150601f19603f3d011682016040523d82523d6000602084013e61017d565b606091505b5091509150816101c2576040517f08c379a00000000000000000000000000000000000000000000000000000000081526004016101b990610723565b60405180910390fd5b6000818060200190518101906101d89190610576565b90506000808573ffffffffffffffffffffffffffffffffffffffff1660405160240161020390610743565b6040516020818303038152906040527fead710c4000000000000000000000000000000000000000000000000000000007bffffffffffffffffffffffffffffffffffffffffffffffffffffffff19166020820180517bffffffffffffffffffffffffffffffffffffffffffffffffffffffff838183161783525050505060405161028d91906106e3565b6000604051808303816000865af19150503d80600081146102ca576040519150601f19603f3d011682016040523d82523d6000602084013e6102cf565b606091505b509150915081610314576040517f08c379a000000000000000000000000000000000000000000000000000000000815260040161030b90610723565b60405180910390fd5b60008180602001905181019061032a9190610535565b90506000808873ffffffffffffffffffffffffffffffffffffffff166040516024016040516020818303038152906040527f19eb4a90000000000000000000000000000000000000000000000000000000007bffffffffffffffffffffffffffffffffffffffffffffffffffffffff19166020820180517bffffffffffffffffffffffffffffffffffffffffffffffffffffffff83818316178352505050506040516103d691906106e3565b6000604051808303816000865af19150503d8060008114610413576040519150601f19603f3d011682016040523d82523d6000602084013e610418565b606091505b50915091508161045d576040517f08c379a000000000000000000000000000000000000000000000000000000000815260040161045490610723565b60405180910390fd5b600080600083806020019051810190610476919061059f565b9250925092508886849e509e509e50505050505050505050505050909192565b6105f48061099583390190565b60006104b66104b1846107c6565b6107a1565b9050828152602081018484840111156104ce57600080fd5b6104d9848285610870565b509392505050565b6000815190506104f081610966565b92915050565b600082601f83011261050757600080fd5b81516105178482602086016104a3565b91505092915050565b60008151905061052f8161097d565b92915050565b60006020828403121561054757600080fd5b600082015167ffffffffffffffff81111561056157600080fd5b61056d848285016104f6565b91505092915050565b60006020828403121561058857600080fd5b600061059684828501610520565b91505092915050565b6000806000606084860312156105b457600080fd5b60006105c286828701610520565b935050602084015167ffffffffffffffff8111156105df57600080fd5b6105eb868287016104f6565b92505060406105fc868287016104e1565b9150509250925092565b6000610611826107f7565b61061b818561080d565b935061062b818560208601610870565b80840191505092915050565b6106408161084c565b82525050565b61064f8161085e565b82525050565b600061066082610802565b61066a8185610818565b935061067a818560208601610870565b61068381610903565b840191505092915050565b600061069b600b83610818565b91506106a682610914565b602082019050919050565b60006106be600583610818565b91506106c98261093d565b602082019050919050565b6106dd81610835565b82525050565b60006106ef8284610606565b915081905092915050565b600060408201905061070f6000830185610637565b61071c6020830184610646565b9392505050565b6000602082019050818103600083015261073c8161068e565b9050919050565b6000602082019050818103600083015261075c816106b1565b9050919050565b600060608201905061077860008301866106d4565b818103602083015261078a8185610655565b905061079960408301846106d4565b949350505050565b60006107ab6107bc565b90506107b782826108a3565b919050565b6000604051905090565b600067ffffffffffffffff8211156107e1576107e06108d4565b5b6107ea82610903565b9050602081019050919050565b600081519050919050565b600081519050919050565b600081905092915050565b600082825260208201905092915050565b60008115159050919050565b6000819050919050565b600060ff82169050919050565b60006108578261083f565b9050919050565b60006108698261083f565b9050919050565b60005b8381101561088e578082015181840152602081019050610873565b8381111561089d576000848401525b50505050565b6108ac82610903565b810181811067ffffffffffffffff821117156108cb576108ca6108d4565b5b80604052505050565b7f4e487b7100000000000000000000000000000000000000000000000000000000600052604160045260246000fd5b6000601f19601f8301169050919050565b7f43616c6c206661696c6564000000000000000000000000000000000000000000600082015250565b7f416c696365000000000000000000000000000000000000000000000000000000600082015250565b61096f81610829565b811461097a57600080fd5b50565b61098681610835565b811461099157600080fd5b5056fe608060405234801561001057600080fd5b506105d4806100206000396000f3fe608060405234801561001057600080fd5b50600436106100415760003560e01c806319eb4a9014610046578063771602f714610066578063ead710c414610096575b600080fd5b61004e6100c6565b60405161005d93929190610355565b60405180910390f35b610080600480360381019061007b919061020f565b610112565b60405161008d919061033a565b60405180910390f35b6100b060048036038101906100ab91906101ce565b610128565b6040516100bd9190610318565b60405180910390f35b600060606000602a60016040518060400160405280600481526020017f746573740000000000000000000000000000000000000000000000000000000081525090925092509250909192565b600081836101209190610410565b905092915050565b60608160405160200161013b91906102f6565b6040516020818303038152906040529050919050565b600061016461015f846103b8565b610393565b90508281526020810184848401111561017c57600080fd5b61018784828561047c565b509392505050565b600082601f8301126101a057600080fd5b81356101b0848260208601610151565b91505092915050565b6000813590506101c881610587565b92915050565b6000602082840312156101e057600080fd5b600082013567ffffffffffffffff8111156101fa57600080fd5b6102068482850161018f565b91505092915050565b6000806040838503121561022257600080fd5b6000610230858286016101b9565b9250506020610241858286016101b9565b9150509250929050565b61025481610466565b82525050565b6000610265826103e9565b61026f81856103f4565b935061027f81856020860161048b565b6102888161054d565b840191505092915050565b600061029e826103e9565b6102a88185610405565b93506102b881856020860161048b565b80840191505092915050565b60006102d1600783610405565b91506102dc8261055e565b600782019050919050565b6102f081610472565b82525050565b6000610301826102c4565b915061030d8284610293565b915081905092915050565b60006020820190508181036000830152610332818461025a565b905092915050565b600060208201905061034f60008301846102e7565b92915050565b600060608201905061036a60008301866102e7565b818103602083015261037c818561025a565b905061038b604083018461024b565b949350505050565b600061039d6103ae565b90506103a982826104be565b919050565b6000604051905090565b600067ffffffffffffffff8211156103d3576103d261051e565b5b6103dc8261054d565b9050602081019050919050565b600081519050919050565b600082825260208201905092915050565b600081905092915050565b600061041b82610472565b915061042683610472565b9250827fffffffffffffffffffffffffffffffffffffffffffffffffffffffffffffffff0382111561045b5761045a6104ef565b5b828201905092915050565b60008115159050919050565b6000819050919050565b82818337600083830152505050565b60005b838110156104a957808201518184015260208101905061048e565b838111156104b8576000848401525b50505050565b6104c78261054d565b810181811067ffffffffffffffff821117156104e6576104e561051e565b5b80604052505050565b7f4e487b7100000000000000000000000000000000000000000000000000000000600052601160045260246000fd5b7f4e487b7100000000000000000000000000000000000000000000000000000000600052604160045260246000fd5b6000601f19601f8301169050919050565b7f48656c6c6f2c2000000000000000000000000000000000000000000000000000600082015250565b61059081610472565b811461059b57600080fd5b5056fea2646970667358221220af7b997295fa3b669e62649675d50294cb745e85dc4ddc275148c571604e670764736f6c63430008010033a26469706673582212200627e13b4519b4bf7ebf383a184fc48dab4cdf45eeab5cb2d0974f2098193ab164736f6c63430008010033",
			"opcodes": "PUSH1 0x80 PUSH1 0x40 MSTORE CALLVALUE DUP1 ISZERO PUSH2 0x10 JUMPI PUSH1 0x0 DUP1 REVERT JUMPDEST POP PUSH2 0xFBE DUP1 PUSH2 0x20 PUSH1 0x0 CODECOPY PUSH1 0x0 RETURN INVALID PUSH1 0x80 PUSH1 0x40 MSTORE CALLVALUE DUP1 ISZERO PUSH2 0x10 JUMPI PUSH1 0x0 DUP1 REVERT JUMPDEST POP PUSH1 0x4 CALLDATASIZE LT PUSH2 0x2B JUMPI PUSH1 0x0 CALLDATALOAD PUSH1 0xE0 SHR DUP1 PUSH4 0x49293694 EQ PUSH2 0x30 JUMPI JUMPDEST PUSH1 0x0 DUP1 REVERT JUMPDEST PUSH2 0x38 PUSH2 0x50 JUMP JUMPDEST PUSH1 0x40 MLOAD PUSH2 0x47 SWAP4 SWAP3 SWAP2 SWAP1 PUSH2 0x763 JUMP JUMPDEST PUSH1 0x40 MLOAD DUP1 SWAP2 SUB SWAP1 RETURN JUMPDEST PUSH1 0x0 PUSH1 0x60 PUSH1 0x0 DUP1 PUSH1 0x40 MLOAD PUSH2 0x63 SWAP1 PUSH2 0x496 JUMP JUMPDEST PUSH1 0x40 MLOAD DUP1 SWAP2 SUB SWAP1 PUSH1 0x0 CREATE DUP1 ISZERO DUP1 ISZERO PUSH2 0x7F JUMPI RETURNDATASIZE PUSH1 0x0 DUP1 RETURNDATACOPY RETURNDATASIZE PUSH1 0x0 REVERT JUMPDEST POP SWAP1 POP PUSH1 0x0 DUP1 DUP3 PUSH20 0xFFFFFFFFFFFFFFFFFFFFFFFFFFFFFFFFFFFFFFFF AND PUSH1 0xA PUSH1 0x14 PUSH1 0x40 MLOAD PUSH1 0x24 ADD PUSH2 0xB1 SWAP3 SWAP2 SWAP1 PUSH2 0x6FA JUMP JUMPDEST PUSH1 0x40 MLOAD PUSH1 0x20 DUP2 DUP4 SUB SUB DUP2 MSTORE SWAP1 PUSH1 0x40 MSTORE PUSH32 0x771602F700000000000000000000000000000000000000000000000000000000 PUSH28 0xFFFFFFFFFFFFFFFFFFFFFFFFFFFFFFFFFFFFFFFFFFFFFFFFFFFFFFFF NOT AND PUSH1 0x20 DUP3 ADD DUP1 MLOAD PUSH28 0xFFFFFFFFFFFFFFFFFFFFFFFFFFFFFFFFFFFFFFFFFFFFFFFFFFFFFFFF DUP4 DUP2 DUP4 AND OR DUP4 MSTORE POP POP POP POP PUSH1 0x40 MLOAD PUSH2 0x13B SWAP2 SWAP1 PUSH2 0x6E3 JUMP JUMPDEST PUSH1 0x0 PUSH1 0x40 MLOAD DUP1 DUP4 SUB DUP2 PUSH1 0x0 DUP7 GAS CALL SWAP2 POP POP RETURNDATASIZE DUP1 PUSH1 0x0 DUP2 EQ PUSH2 0x178 JUMPI PUSH1 0x40 MLOAD SWAP2 POP PUSH1 0x1F NOT PUSH1 0x3F RETURNDATASIZE ADD AND DUP3 ADD PUSH1 0x40 MSTORE RETURNDATASIZE DUP3 MSTORE RETURNDATASIZE PUSH1 0x0 PUSH1 0x20 DUP5 ADD RETURNDATACOPY PUSH2 0x17D JUMP JUMPDEST PUSH1 0x60 SWAP2 POP JUMPDEST POP SWAP2 POP SWAP2 POP DUP2 PUSH2 0x1C2 JUMPI PUSH1 0x40 MLOAD PUSH32 0x8C379A000000000000000000000000000000000000000000000000000000000 DUP2 MSTORE PUSH1 0x4 ADD PUSH2 0x1B9 SWAP1 PUSH2 0x723 JUMP JUMPDEST PUSH1 0x40 MLOAD DUP1 SWAP2 SUB SWAP1 REVERT JUMPDEST PUSH1 0x0 DUP2 DUP1 PUSH1 0x20 ADD SWAP1 MLOAD DUP2 ADD SWAP1 PUSH2 0x1D8 SWAP2 SWAP1 PUSH2 0x576 JUMP JUMPDEST SWAP1 POP PUSH1 0x0 DUP1 DUP6 PUSH20 0xFFFFFFFFFFFFFFFFFFFFFFFFFFFFFFFFFFFFFFFF AND PUSH1 0x40 MLOAD PUSH1 0x24 ADD PUSH2 0x203 SWAP1 PUSH2 0x743 JUMP JUMPDEST PUSH1 0x40 MLOAD PUSH1 0x20 DUP2 DUP4 SUB SUB DUP2 MSTORE SWAP1 PUSH1 0x40 MSTORE PUSH32 0xEAD710C400000000000000000000000000000000000000000000000000000000 PUSH28 0xFFFFFFFFFFFFFFFFFFFFFFFFFFFFFFFFFFFFFFFFFFFFFFFFFFFFFFFF NOT AND PUSH1 0x20 DUP3 ADD DUP1 MLOAD PUSH28 0xFFFFFFFFFFFFFFFFFFFFFFFFFFFFFFFFFFFFFFFFFFFFFFFFFFFFFFFF DUP4 DUP2 DUP4 AND OR DUP4 MSTORE POP POP POP POP PUSH1 0x40 MLOAD PUSH2 0x28D SWAP2 SWAP1 PUSH2 0x6E3 JUMP JUMPDEST PUSH1 0x0 PUSH1 0x40 MLOAD DUP1 DUP4 SUB DUP2 PUSH1 0x0 DUP7 GAS CALL SWAP2 POP POP RETURNDATASIZE DUP1 PUSH1 0x0 DUP2 EQ PUSH2 0x2CA JUMPI PUSH1 0x40 MLOAD SWAP2 POP PUSH1 0x1F NOT PUSH1 0x3F RETURNDATASIZE ADD AND DUP3 ADD PUSH1 0x40 MSTORE RETURNDATASIZE DUP3 MSTORE RETURNDATASIZE PUSH1 0x0 PUSH1 0x20 DUP5 ADD RETURNDATACOPY PUSH2 0x2CF JUMP JUMPDEST PUSH1 0x60 SWAP2 POP JUMPDEST POP SWAP2 POP SWAP2 POP DUP2 PUSH2 0x314 JUMPI PUSH1 0x40 MLOAD PUSH32 0x8C379A000000000000000000000000000000000000000000000000000000000 DUP2 MSTORE PUSH1 0x4 ADD PUSH2 0x30B SWAP1 PUSH2 0x723 JUMP JUMPDEST PUSH1 0x40 MLOAD DUP1 SWAP2 SUB SWAP1 REVERT JUMPDEST PUSH1 0x0 DUP2 DUP1 PUSH1 0x20 ADD SWAP1 MLOAD DUP2 ADD SWAP1 PUSH2 0x32A SWAP2 SWAP1 PUSH2 0x535 JUMP JUMPDEST SWAP1 POP PUSH1 0x0 DUP1 DUP9 PUSH20 0xFFFFFFFFFFFFFFFFFFFFFFFFFFFFFFFFFFFFFFFF AND PUSH1 0x40 MLOAD PUSH1 0x24 ADD PUSH1 0x40 MLOAD PUSH1 0x20 DUP2 DUP4 SUB SUB DUP2 MSTORE SWAP1 PUSH1 0x40 MSTORE PUSH32 0x19EB4A9000000000000000000000000000000000000000000000000000000000 PUSH28 0xFFFFFFFFFFFFFFFFFFFFFFFFFFFFFFFFFFFFFFFFFFFFFFFFFFFFFFFF NOT AND PUSH1 0x20 DUP3 ADD DUP1 MLOAD PUSH28 0xFFFFFFFFFFFFFFFFFFFFFFFFFFFFFFFFFFFFFFFFFFFFFFFFFFFFFFFF DUP4 DUP2 DUP4 AND OR DUP4 MSTORE POP POP POP POP PUSH1 0x40 MLOAD PUSH2 0x3D6 SWAP2 SWAP1 PUSH2 0x6E3 JUMP JUMPDEST PUSH1 0x0 PUSH1 0x40 MLOAD DUP1 DUP4 SUB DUP2 PUSH1 0x0 DUP7 GAS CALL SWAP2 POP POP RETURNDATASIZE DUP1 PUSH1 0x0 DUP2 EQ PUSH2 0x413 JUMPI PUSH1 0x40 MLOAD SWAP2 POP PUSH1 0x1F NOT PUSH1 0x3F RETURNDATASIZE ADD AND DUP3 ADD PUSH1 0x40 MSTORE RETURNDATASIZE DUP3 MSTORE RETURNDATASIZE PUSH1 0x0 PUSH1 0x20 DUP5 ADD RETURNDATACOPY PUSH2 0x418 JUMP JUMPDEST PUSH1 0x60 SWAP2 POP JUMPDEST POP SWAP2 POP SWAP2 POP DUP2 PUSH2 0x45D JUMPI PUSH1 0x40 MLOAD PUSH32 0x8C379A000000000000000000000000000000000000000000000000000000000 DUP2 MSTORE PUSH1 0x4 ADD PUSH2 0x454 SWAP1 PUSH2 0x723 JUMP JUMPDEST PUSH1 0x40 MLOAD DUP1 SWAP2 SUB SWAP1 REVERT JUMPDEST PUSH1 0x0 DUP1 PUSH1 0x0 DUP4 DUP1 PUSH1 0x20 ADD SWAP1 MLOAD DUP2 ADD SWAP1 PUSH2 0x476 SWAP2 SWAP1 PUSH2 0x59F JUMP JUMPDEST SWAP3 POP SWAP3 POP SWAP3 POP DUP9 DUP7 DUP5 SWAP15 POP SWAP15 POP SWAP15 POP POP POP POP POP POP POP POP POP POP POP POP POP SWAP1 SWAP2 SWAP3 JUMP JUMPDEST PUSH2 0x5F4 DUP1 PUSH2 0x995 DUP4 CODECOPY ADD SWAP1 JUMP JUMPDEST PUSH1 0x0 PUSH2 0x4B6 PUSH2 0x4B1 DUP5 PUSH2 0x7C6 JUMP JUMPDEST PUSH2 0x7A1 JUMP JUMPDEST SWAP1 POP DUP3 DUP2 MSTORE PUSH1 0x20 DUP2 ADD DUP5 DUP5 DUP5 ADD GT ISZERO PUSH2 0x4CE JUMPI PUSH1 0x0 DUP1 REVERT JUMPDEST PUSH2 0x4D9 DUP5 DUP3 DUP6 PUSH2 0x870 JUMP JUMPDEST POP SWAP4 SWAP3 POP POP POP JUMP JUMPDEST PUSH1 0x0 DUP2 MLOAD SWAP1 POP PUSH2 0x4F0 DUP2 PUSH2 0x966 JUMP JUMPDEST SWAP3 SWAP2 POP POP JUMP JUMPDEST PUSH1 0x0 DUP3 PUSH1 0x1F DUP4 ADD SLT PUSH2 0x507 JUMPI PUSH1 0x0 DUP1 REVERT JUMPDEST DUP2 MLOAD PUSH2 0x517 DUP5 DUP3 PUSH1 0x20 DUP7 ADD PUSH2 0x4A3 JUMP JUMPDEST SWAP2 POP POP SWAP3 SWAP2 POP POP JUMP JUMPDEST PUSH1 0x0 DUP2 MLOAD SWAP1 POP PUSH2 0x52F DUP2 PUSH2 0x97D JUMP JUMPDEST SWAP3 SWAP2 POP POP JUMP JUMPDEST PUSH1 0x0 PUSH1 0x20 DUP3 DUP5 SUB SLT ISZERO PUSH2 0x547 JUMPI PUSH1 0x0 DUP1 REVERT JUMPDEST PUSH1 0x0 DUP3 ADD MLOAD PUSH8 0xFFFFFFFFFFFFFFFF DUP2 GT ISZERO PUSH2 0x561 JUMPI PUSH1 0x0 DUP1 REVERT JUMPDEST PUSH2 0x56D DUP5 DUP3 DUP6 ADD PUSH2 0x4F6 JUMP JUMPDEST SWAP2 POP POP SWAP3 SWAP2 POP POP JUMP JUMPDEST PUSH1 0x0 PUSH1 0x20 DUP3 DUP5 SUB SLT ISZERO PUSH2 0x588 JUMPI PUSH1 0x0 DUP1 REVERT JUMPDEST PUSH1 0x0 PUSH2 0x596 DUP5 DUP3 DUP6 ADD PUSH2 0x520 JUMP JUMPDEST SWAP2 POP POP SWAP3 SWAP2 POP POP JUMP JUMPDEST PUSH1 0x0 DUP1 PUSH1 0x0 PUSH1 0x60 DUP5 DUP7 SUB SLT ISZERO PUSH2 0x5B4 JUMPI PUSH1 0x0 DUP1 REVERT JUMPDEST PUSH1 0x0 PUSH2 0x5C2 DUP7 DUP3 DUP8 ADD PUSH2 0x520 JUMP JUMPDEST SWAP4 POP POP PUSH1 0x20 DUP5 ADD MLOAD PUSH8 0xFFFFFFFFFFFFFFFF DUP2 GT ISZERO PUSH2 0x5DF JUMPI PUSH1 0x0 DUP1 REVERT JUMPDEST PUSH2 0x5EB DUP7 DUP3 DUP8 ADD PUSH2 0x4F6 JUMP JUMPDEST SWAP3 POP POP PUSH1 0x40 PUSH2 0x5FC DUP7 DUP3 DUP8 ADD PUSH2 0x4E1 JUMP JUMPDEST SWAP2 POP POP SWAP3 POP SWAP3 POP SWAP3 JUMP JUMPDEST PUSH1 0x0 PUSH2 0x611 DUP3 PUSH2 0x7F7 JUMP JUMPDEST PUSH2 0x61B DUP2 DUP6 PUSH2 0x80D JUMP JUMPDEST SWAP4 POP PUSH2 0x62B DUP2 DUP6 PUSH1 0x20 DUP7 ADD PUSH2 0x870 JUMP JUMPDEST DUP1 DUP5 ADD SWAP2 POP POP SWAP3 SWAP2 POP POP JUMP JUMPDEST PUSH2 0x640 DUP2 PUSH2 0x84C JUMP JUMPDEST DUP3 MSTORE POP POP JUMP JUMPDEST PUSH2 0x64F DUP2 PUSH2 0x85E JUMP JUMPDEST DUP3 MSTORE POP POP JUMP JUMPDEST PUSH1 0x0 PUSH2 0x660 DUP3 PUSH2 0x802 JUMP JUMPDEST PUSH2 0x66A DUP2 DUP6 PUSH2 0x818 JUMP JUMPDEST SWAP4 POP PUSH2 0x67A DUP2 DUP6 PUSH1 0x20 DUP7 ADD PUSH2 0x870 JUMP JUMPDEST PUSH2 0x683 DUP2 PUSH2 0x903 JUMP JUMPDEST DUP5 ADD SWAP2 POP POP SWAP3 SWAP2 POP POP JUMP JUMPDEST PUSH1 0x0 PUSH2 0x69B PUSH1 0xB DUP4 PUSH2 0x818 JUMP JUMPDEST SWAP2 POP PUSH2 0x6A6 DUP3 PUSH2 0x914 JUMP JUMPDEST PUSH1 0x20 DUP3 ADD SWAP1 POP SWAP2 SWAP1 POP JUMP JUMPDEST PUSH1 0x0 PUSH2 0x6BE PUSH1 0x5 DUP4 PUSH2 0x818 JUMP JUMPDEST SWAP2 POP PUSH2 0x6C9 DUP3 PUSH2 0x93D JUMP JUMPDEST PUSH1 0x20 DUP3 ADD SWAP1 POP SWAP2 SWAP1 POP JUMP JUMPDEST PUSH2 0x6DD DUP2 PUSH2 0x835 JUMP JUMPDEST DUP3 MSTORE POP POP JUMP JUMPDEST PUSH1 0x0 PUSH2 0x6EF DUP3 DUP5 PUSH2 0x606 JUMP JUMPDEST SWAP2 POP DUP2 SWAP1 POP SWAP3 SWAP2 POP POP JUMP JUMPDEST PUSH1 0x0 PUSH1 0x40 DUP3 ADD SWAP1 POP PUSH2 0x70F PUSH1 0x0 DUP4 ADD DUP6 PUSH2 0x637 JUMP JUMPDEST PUSH2 0x71C PUSH1 0x20 DUP4 ADD DUP5 PUSH2 0x646 JUMP JUMPDEST SWAP4 SWAP3 POP POP POP JUMP JUMPDEST PUSH1 0x0 PUSH1 0x20 DUP3 ADD SWAP1 POP DUP2 DUP2 SUB PUSH1 0x0 DUP4 ADD MSTORE PUSH2 0x73C DUP2 PUSH2 0x68E JUMP JUMPDEST SWAP1 POP SWAP2 SWAP1 POP JUMP JUMPDEST PUSH1 0x0 PUSH1 0x20 DUP3 ADD SWAP1 POP DUP2 DUP2 SUB PUSH1 0x0 DUP4 ADD MSTORE PUSH2 0x75C DUP2 PUSH2 0x6B1 JUMP JUMPDEST SWAP1 POP SWAP2 SWAP1 POP JUMP JUMPDEST PUSH1 0x0 PUSH1 0x60 DUP3 ADD SWAP1 POP PUSH2 0x778 PUSH1 0x0 DUP4 ADD DUP7 PUSH2 0x6D4 JUMP JUMPDEST DUP2 DUP2 SUB PUSH1 0x20 DUP4 ADD MSTORE PUSH2 0x78A DUP2 DUP6 PUSH2 0x655 JUMP JUMPDEST SWAP1 POP PUSH2 0x799 PUSH1 0x40 DUP4 ADD DUP5 PUSH2 0x6D4 JUMP JUMPDEST SWAP5 SWAP4 POP POP POP POP JUMP JUMPDEST PUSH1 0x0 PUSH2 0x7AB PUSH2 0x7BC JUMP JUMPDEST SWAP1 POP PUSH2 0x7B7 DUP3 DUP3 PUSH2 0x8A3 JUMP JUMPDEST SWAP2 SWAP1 POP JUMP JUMPDEST PUSH1 0x0 PUSH1 0x40 MLOAD SWAP1 POP SWAP1 JUMP JUMPDEST PUSH1 0x0 PUSH8 0xFFFFFFFFFFFFFFFF DUP3 GT ISZERO PUSH2 0x7E1 JUMPI PUSH2 0x7E0 PUSH2 0x8D4 JUMP JUMPDEST JUMPDEST PUSH2 0x7EA DUP3 PUSH2 0x903 JUMP JUMPDEST SWAP1 POP PUSH1 0x20 DUP2 ADD SWAP1 POP SWAP2 SWAP1 POP JUMP JUMPDEST PUSH1 0x0 DUP2 MLOAD SWAP1 POP SWAP2 SWAP1 POP JUMP JUMPDEST PUSH1 0x0 DUP2 MLOAD SWAP1 POP SWAP2 SWAP1 POP JUMP JUMPDEST PUSH1 0x0 DUP2 SWAP1 POP SWAP3 SWAP2 POP POP JUMP JUMPDEST PUSH1 0x0 DUP3 DUP3 MSTORE PUSH1 0x20 DUP3 ADD SWAP1 POP SWAP3 SWAP2 POP POP JUMP JUMPDEST PUSH1 0x0 DUP2 ISZERO ISZERO SWAP1 POP SWAP2 SWAP1 POP JUMP JUMPDEST PUSH1 0x0 DUP2 SWAP1 POP SWAP2 SWAP1 POP JUMP JUMPDEST PUSH1 0x0 PUSH1 0xFF DUP3 AND SWAP1 POP SWAP2 SWAP1 POP JUMP JUMPDEST PUSH1 0x0 PUSH2 0x857 DUP3 PUSH2 0x83F JUMP JUMPDEST SWAP1 POP SWAP2 SWAP1 POP JUMP JUMPDEST PUSH1 0x0 PUSH2 0x869 DUP3 PUSH2 0x83F JUMP JUMPDEST SWAP1 POP SWAP2 SWAP1 POP JUMP JUMPDEST PUSH1 0x0 JUMPDEST DUP4 DUP2 LT ISZERO PUSH2 0x88E JUMPI DUP1 DUP3 ADD MLOAD DUP2 DUP5 ADD MSTORE PUSH1 0x20 DUP2 ADD SWAP1 POP PUSH2 0x873 JUMP JUMPDEST DUP4 DUP2 GT ISZERO PUSH2 0x89D JUMPI PUSH1 0x0 DUP5 DUP5 ADD MSTORE JUMPDEST POP POP POP POP JUMP JUMPDEST PUSH2 0x8AC DUP3 PUSH2 0x903 JUMP JUMPDEST DUP2 ADD DUP2 DUP2 LT PUSH8 0xFFFFFFFFFFFFFFFF DUP3 GT OR ISZERO PUSH2 0x8CB JUMPI PUSH2 0x8CA PUSH2 0x8D4 JUMP JUMPDEST JUMPDEST DUP1 PUSH1 0x40 MSTORE POP POP POP JUMP JUMPDEST PUSH32 0x4E487B7100000000000000000000000000000000000000000000000000000000 PUSH1 0x0 MSTORE PUSH1 0x41 PUSH1 0x4 MSTORE PUSH1 0x24 PUSH1 0x0 REVERT JUMPDEST PUSH1 0x0 PUSH1 0x1F NOT PUSH1 0x1F DUP4 ADD AND SWAP1 POP SWAP2 SWAP1 POP JUMP JUMPDEST PUSH32 0x43616C6C206661696C6564000000000000000000000000000000000000000000 PUSH1 0x0 DUP3 ADD MSTORE POP JUMP JUMPDEST PUSH32 0x416C696365000000000000000000000000000000000000000000000000000000 PUSH1 0x0 DUP3 ADD MSTORE POP JUMP JUMPDEST PUSH2 0x96F DUP2 PUSH2 0x829 JUMP JUMPDEST DUP2 EQ PUSH2 0x97A JUMPI PUSH1 0x0 DUP1 REVERT JUMPDEST POP JUMP JUMPDEST PUSH2 0x986 DUP2 PUSH2 0x835 JUMP JUMPDEST DUP2 EQ PUSH2 0x991 JUMPI PUSH1 0x0 DUP1 REVERT JUMPDEST POP JUMP INVALID PUSH1 0x80 PUSH1 0x40 MSTORE CALLVALUE DUP1 ISZERO PUSH2 0x10 JUMPI PUSH1 0x0 DUP1 REVERT JUMPDEST POP PUSH2 0x5D4 DUP1 PUSH2 0x20 PUSH1 0x0 CODECOPY PUSH1 0x0 RETURN INVALID PUSH1 0x80 PUSH1 0x40 MSTORE CALLVALUE DUP1 ISZERO PUSH2 0x10 JUMPI PUSH1 0x0 DUP1 REVERT JUMPDEST POP PUSH1 0x4 CALLDATASIZE LT PUSH2 0x41 JUMPI PUSH1 0x0 CALLDATALOAD PUSH1 0xE0 SHR DUP1 PUSH4 0x19EB4A90 EQ PUSH2 0x46 JUMPI DUP1 PUSH4 0x771602F7 EQ PUSH2 0x66 JUMPI DUP1 PUSH4 0xEAD710C4 EQ PUSH2 0x96 JUMPI JUMPDEST PUSH1 0x0 DUP1 REVERT JUMPDEST PUSH2 0x4E PUSH2 0xC6 JUMP JUMPDEST PUSH1 0x40 MLOAD PUSH2 0x5D SWAP4 SWAP3 SWAP2 SWAP1 PUSH2 0x355 JUMP JUMPDEST PUSH1 0x40 MLOAD DUP1 SWAP2 SUB SWAP1 RETURN JUMPDEST PUSH2 0x80 PUSH1 0x4 DUP1 CALLDATASIZE SUB DUP2 ADD SWAP1 PUSH2 0x7B SWAP2 SWAP1 PUSH2 0x20F JUMP JUMPDEST PUSH2 0x112 JUMP JUMPDEST PUSH1 0x40 MLOAD PUSH2 0x8D SWAP2 SWAP1 PUSH2 0x33A JUMP JUMPDEST PUSH1 0x40 MLOAD DUP1 SWAP2 SUB SWAP1 RETURN JUMPDEST PUSH2 0xB0 PUSH1 0x4 DUP1 CALLDATASIZE SUB DUP2 ADD SWAP1 PUSH2 0xAB SWAP2 SWAP1 PUSH2 0x1CE JUMP JUMPDEST PUSH2 0x128 JUMP JUMPDEST PUSH1 0x40 MLOAD PUSH2 0xBD SWAP2 SWAP1 PUSH2 0x318 JUMP JUMPDEST PUSH1 0x40 MLOAD DUP1 SWAP2 SUB SWAP1 RETURN JUMPDEST PUSH1 0x0 PUSH1 0x60 PUSH1 0x0 PUSH1 0x2A PUSH1 0x1 PUSH1 0x40 MLOAD DUP1 PUSH1 0x40 ADD PUSH1 0x40 MSTORE DUP1 PUSH1 0x4 DUP2 MSTORE PUSH1 0x20 ADD PUSH32 0x7465737400000000000000000000000000000000000000000000000000000000 DUP2 MSTORE POP SWAP1 SWAP3 POP SWAP3 POP SWAP3 POP SWAP1 SWAP2 SWAP3 JUMP JUMPDEST PUSH1 0x0 DUP2 DUP4 PUSH2 0x120 SWAP2 SWAP1 PUSH2 0x410 JUMP JUMPDEST SWAP1 POP SWAP3 SWAP2 POP POP JUMP JUMPDEST PUSH1 0x60 DUP2 PUSH1 0x40 MLOAD PUSH1 0x20 ADD PUSH2 0x13B SWAP2 SWAP1 PUSH2 0x2F6 JUMP JUMPDEST PUSH1 0x40 MLOAD PUSH1 0x20 DUP2 DUP4 SUB SUB DUP2 MSTORE SWAP1 PUSH1 0x40 MSTORE SWAP1 POP SWAP2 SWAP1 POP JUMP JUMPDEST PUSH1 0x0 PUSH2 0x164 PUSH2 0x15F DUP5 PUSH2 0x3B8 JUMP JUMPDEST PUSH2 0x393 JUMP JUMPDEST SWAP1 POP DUP3 DUP2 MSTORE PUSH1 0x20 DUP2 ADD DUP5 DUP5 DUP5 ADD GT ISZERO PUSH2 0x17C JUMPI PUSH1 0x0 DUP1 REVERT JUMPDEST PUSH2 0x187 DUP5 DUP3 DUP6 PUSH2 0x47C JUMP JUMPDEST POP SWAP4 SWAP3 POP POP POP JUMP JUMPDEST PUSH1 0x0 DUP3 PUSH1 0x1F DUP4 ADD SLT PUSH2 0x1A0 JUMPI PUSH1 0x0 DUP1 REVERT JUMPDEST DUP2 CALLDATALOAD PUSH2 0x1B0 DUP5 DUP3 PUSH1 0x20 DUP7 ADD PUSH2 0x151 JUMP JUMPDEST SWAP2 POP POP SWAP3 SWAP2 POP POP JUMP JUMPDEST PUSH1 0x0 DUP2 CALLDATALOAD SWAP1 POP PUSH2 0x1C8 DUP2 PUSH2 0x587 JUMP JUMPDEST SWAP3 SWAP2 POP POP JUMP JUMPDEST PUSH1 0x0 PUSH1 0x20 DUP3 DUP5 SUB SLT ISZERO PUSH2 0x1E0 JUMPI PUSH1 0x0 DUP1 REVERT JUMPDEST PUSH1 0x0 DUP3 ADD CALLDATALOAD PUSH8 0xFFFFFFFFFFFFFFFF DUP2 GT ISZERO PUSH2 0x1FA JUMPI PUSH1 0x0 DUP1 REVERT JUMPDEST PUSH2 0x206 DUP5 DUP3 DUP6 ADD PUSH2 0x18F JUMP JUMPDEST SWAP2 POP POP SWAP3 SWAP2 POP POP JUMP JUMPDEST PUSH1 0x0 DUP1 PUSH1 0x40 DUP4 DUP6 SUB SLT ISZERO PUSH2 0x222 JUMPI PUSH1 0x0 DUP1 REVERT JUMPDEST PUSH1 0x0 PUSH2 0x230 DUP6 DUP3 DUP7 ADD PUSH2 0x1B9 JUMP JUMPDEST SWAP3 POP POP PUSH1 0x20 PUSH2 0x241 DUP6 DUP3 DUP7 ADD PUSH2 0x1B9 JUMP JUMPDEST SWAP2 POP POP SWAP3 POP SWAP3 SWAP1 POP JUMP JUMPDEST PUSH2 0x254 DUP2 PUSH2 0x466 JUMP JUMPDEST DUP3 MSTORE POP POP JUMP JUMPDEST PUSH1 0x0 PUSH2 0x265 DUP3 PUSH2 0x3E9 JUMP JUMPDEST PUSH2 0x26F DUP2 DUP6 PUSH2 0x3F4 JUMP JUMPDEST SWAP4 POP PUSH2 0x27F DUP2 DUP6 PUSH1 0x20 DUP7 ADD PUSH2 0x48B JUMP JUMPDEST PUSH2 0x288 DUP2 PUSH2 0x54D JUMP JUMPDEST DUP5 ADD SWAP2 POP POP SWAP3 SWAP2 POP POP JUMP JUMPDEST PUSH1 0x0 PUSH2 0x29E DUP3 PUSH2 0x3E9 JUMP JUMPDEST PUSH2 0x2A8 DUP2 DUP6 PUSH2 0x405 JUMP JUMPDEST SWAP4 POP PUSH2 0x2B8 DUP2 DUP6 PUSH1 0x20 DUP7 ADD PUSH2 0x48B JUMP JUMPDEST DUP1 DUP5 ADD SWAP2 POP POP SWAP3 SWAP2 POP POP JUMP JUMPDEST PUSH1 0x0 PUSH2 0x2D1 PUSH1 0x7 DUP4 PUSH2 0x405 JUMP JUMPDEST SWAP2 POP PUSH2 0x2DC DUP3 PUSH2 0x55E JUMP JUMPDEST PUSH1 0x7 DUP3 ADD SWAP1 POP SWAP2 SWAP1 POP JUMP JUMPDEST PUSH2 0x2F0 DUP2 PUSH2 0x472 JUMP JUMPDEST DUP3 MSTORE POP POP JUMP JUMPDEST PUSH1 0x0 PUSH2 0x301 DUP3 PUSH2 0x2C4 JUMP JUMPDEST SWAP2 POP PUSH2 0x30D DUP3 DUP5 PUSH2 0x293 JUMP JUMPDEST SWAP2 POP DUP2 SWAP1 POP SWAP3 SWAP2 POP POP JUMP JUMPDEST PUSH1 0x0 PUSH1 0x20 DUP3 ADD SWAP1 POP DUP2 DUP2 SUB PUSH1 0x0 DUP4 ADD MSTORE PUSH2 0x332 DUP2 DUP5 PUSH2 0x25A JUMP JUMPDEST SWAP1 POP SWAP3 SWAP2 POP POP JUMP JUMPDEST PUSH1 0x0 PUSH1 0x20 DUP3 ADD SWAP1 POP PUSH2 0x34F PUSH1 0x0 DUP4 ADD DUP5 PUSH2 0x2E7 JUMP JUMPDEST SWAP3 SWAP2 POP POP JUMP JUMPDEST PUSH1 0x0 PUSH1 0x60 DUP3 ADD SWAP1 POP PUSH2 0x36A PUSH1 0x0 DUP4 ADD DUP7 PUSH2 0x2E7 JUMP JUMPDEST DUP2 DUP2 SUB PUSH1 0x20 DUP4 ADD MSTORE PUSH2 0x37C DUP2 DUP6 PUSH2 0x25A JUMP JUMPDEST SWAP1 POP PUSH2 0x38B PUSH1 0x40 DUP4 ADD DUP5 PUSH2 0x24B JUMP JUMPDEST SWAP5 SWAP4 POP POP POP POP JUMP JUMPDEST PUSH1 0x0 PUSH2 0x39D PUSH2 0x3AE JUMP JUMPDEST SWAP1 POP PUSH2 0x3A9 DUP3 DUP3 PUSH2 0x4BE JUMP JUMPDEST SWAP2 SWAP1 POP JUMP JUMPDEST PUSH1 0x0 PUSH1 0x40 MLOAD SWAP1 POP SWAP1 JUMP JUMPDEST PUSH1 0x0 PUSH8 0xFFFFFFFFFFFFFFFF DUP3 GT ISZERO PUSH2 0x3D3 JUMPI PUSH2 0x3D2 PUSH2 0x51E JUMP JUMPDEST JUMPDEST PUSH2 0x3DC DUP3 PUSH2 0x54D JUMP JUMPDEST SWAP1 POP PUSH1 0x20 DUP2 ADD SWAP1 POP SWAP2 SWAP1 POP JUMP JUMPDEST PUSH1 0x0 DUP2 MLOAD SWAP1 POP SWAP2 SWAP1 POP JUMP JUMPDEST PUSH1 0x0 DUP3 DUP3 MSTORE PUSH1 0x20 DUP3 ADD SWAP1 POP SWAP3 SWAP2 POP POP JUMP JUMPDEST PUSH1 0x0 DUP2 SWAP1 POP SWAP3 SWAP2 POP POP JUMP JUMPDEST PUSH1 0x0 PUSH2 0x41B DUP3 PUSH2 0x472 JUMP JUMPDEST SWAP2 POP PUSH2 0x426 DUP4 PUSH2 0x472 JUMP JUMPDEST SWAP3 POP DUP3 PUSH32 0xFFFFFFFFFFFFFFFFFFFFFFFFFFFFFFFFFFFFFFFFFFFFFFFFFFFFFFFFFFFFFFFF SUB DUP3 GT ISZERO PUSH2 0x45B JUMPI PUSH2 0x45A PUSH2 0x4EF JUMP JUMPDEST JUMPDEST DUP3 DUP3 ADD SWAP1 POP SWAP3 SWAP2 POP POP JUMP JUMPDEST PUSH1 0x0 DUP2 ISZERO ISZERO SWAP1 POP SWAP2 SWAP1 POP JUMP JUMPDEST PUSH1 0x0 DUP2 SWAP1 POP SWAP2 SWAP1 POP JUMP JUMPDEST DUP3 DUP2 DUP4 CALLDATACOPY PUSH1 0x0 DUP4 DUP4 ADD MSTORE POP POP POP JUMP JUMPDEST PUSH1 0x0 JUMPDEST DUP4 DUP2 LT ISZERO PUSH2 0x4A9 JUMPI DUP1 DUP3 ADD MLOAD DUP2 DUP5 ADD MSTORE PUSH1 0x20 DUP2 ADD SWAP1 POP PUSH2 0x48E JUMP JUMPDEST DUP4 DUP2 GT ISZERO PUSH2 0x4B8 JUMPI PUSH1 0x0 DUP5 DUP5 ADD MSTORE JUMPDEST POP POP POP POP JUMP JUMPDEST PUSH2 0x4C7 DUP3 PUSH2 0x54D JUMP JUMPDEST DUP2 ADD DUP2 DUP2 LT PUSH8 0xFFFFFFFFFFFFFFFF DUP3 GT OR ISZERO PUSH2 0x4E6 JUMPI PUSH2 0x4E5 PUSH2 0x51E JUMP JUMPDEST JUMPDEST DUP1 PUSH1 0x40 MSTORE POP POP POP JUMP JUMPDEST PUSH32 0x4E487B7100000000000000000000000000000000000000000000000000000000 PUSH1 0x0 MSTORE PUSH1 0x11 PUSH1 0x4 MSTORE PUSH1 0x24 PUSH1 0x0 REVERT JUMPDEST PUSH32 0x4E487B7100000000000000000000000000000000000000000000000000000000 PUSH1 0x0 MSTORE PUSH1 0x41 PUSH1 0x4 MSTORE PUSH1 0x24 PUSH1 0x0 REVERT JUMPDEST PUSH1 0x0 PUSH1 0x1F NOT PUSH1 0x1F DUP4 ADD AND SWAP1 POP SWAP2 SWAP1 POP JUMP JUMPDEST PUSH32 0x48656C6C6F2C2000000000000000000000000000000000000000000000000000 PUSH1 0x0 DUP3 ADD MSTORE POP JUMP JUMPDEST PUSH2 0x590 DUP2 PUSH2 0x472 JUMP JUMPDEST DUP2 EQ PUSH2 0x59B JUMPI PUSH1 0x0 DUP1 REVERT JUMPDEST POP JUMP INVALID LOG2 PUSH5 0x6970667358 0x22 SLT KECCAK256 0xAF PUSH28 0x997295FA3B669E62649675D50294CB745E85DC4DDC275148C571604E PUSH8 0x764736F6C634300 ADDMOD ADD STOP CALLER LOG2 PUSH5 0x6970667358 0x22 SLT KECCAK256 MOD 0x27 0xE1 EXTCODESIZE GASLIMIT NOT 0xB4 0xBF PUSH31 0xBF383A184FC48DAB4CDF45EEAB5CB2D0974F2098193AB164736F6C63430008 ADD STOP CALLER "
		},
		"gasEstimates": {
			"creation": {
				"codeDepositCost": "806000",
				"executionCost": "838",
				"totalCost": "806838"
			},
			"external": {
				"decodeReturnData()": "infinite"
			}
		},
		"methodIdentifiers": {
			"decodeReturnData()": "49293694"
		}
	},
	"abi": [
		{
			"inputs": [],
			"name": "decodeReturnData",
			"outputs": [
				{
					"internalType": "uint256",
					"name": "",
					"type": "uint256"
				},
				{
					"internalType": "string",
					"name": "",
					"type": "string"
				},
				{
					"internalType": "uint256",
					"name": "",
					"type": "uint256"
				}
			],
			"stateMutability": "nonpayable",
			"type": "function"
		}
	]
}