{
	"data": {
		"bytecode": {
			"linkReferences": {},
			"object": "608060405234801561000f575f5ffd5b5061002c61002161003160201b60201c565b61003860201b60201c565b6100fb565b5f33905090565b5f600c5f9054906101000a900473ffffffffffffffffffffffffffffffffffffffff16905081600c5f6101000a81548173ffffffffffffffffffffffffffffffffffffffff021916908373ffffffffffffffffffffffffffffffffffffffff1602179055508173ffffffffffffffffffffffffffffffffffffffff168173ffffffffffffffffffffffffffffffffffffffff167f8be0079c531659141344cd1fd0a4f28419497f9722a3daafe3b4186f6b6457e060405160405180910390a35050565b613b0f806101085f395ff3fe608060405234801561000f575f5ffd5b5060043610610135575f3560e01c80636352211e116100b657806395d89b411161007a57806395d89b411461035d578063a22cb4651461037b578063b88d4fde14610397578063c87b56dd146103b3578063e985e9c5146103e3578063f2fde38b1461041357610135565b80636352211e146102a557806370a08231146102d5578063715018a614610305578063785bb03e1461030f5780638da5cb5b1461033f57610135565b80631af19f77116100fd5780631af19f77146101f157806323b872dd1461020d5780632f745c591461022957806342842e0e146102595780634f6ccce71461027557610135565b806301ffc9a71461013957806306fdde0314610169578063081812fc14610187578063095ea7b3146101b757806318160ddd146101d3575b5f5ffd5b610153600480360381019061014e9190612542565b61042f565b6040516101609190612587565b60405180910390f35b610171610440565b60405161017e9190612610565b60405180910390f35b6101a1600480360381019061019c9190612663565b6104d0565b6040516101ae91906126cd565b60405180910390f35b6101d160048036038101906101cc9190612710565b610512565b005b6101db610628565b6040516101e8919061275d565b60405180910390f35b61020b600480360381019061020691906127d7565b610634565b005b61022760048036038101906102229190612855565b6107a7565b005b610243600480360381019061023e9190612710565b610807565b604051610250919061275d565b60405180910390f35b610273600480360381019061026e9190612855565b6108a7565b005b61028f600480360381019061028a9190612663565b6108c6565b60405161029c919061275d565b60405180910390f35b6102bf60048036038101906102ba9190612663565b610934565b6040516102cc91906126cd565b60405180910390f35b6102ef60048036038101906102ea91906128a5565b6109b8565b6040516102fc919061275d565b60405180910390f35b61030d610a6c565b005b610329600480360381019061032491906129f8565b610a7f565b604051610336919061275d565b60405180910390f35b610347610abf565b60405161035491906126cd565b60405180910390f35b610365610ae7565b6040516103729190612610565b60405180910390f35b61039560048036038101906103909190612a7c565b610b77565b005b6103b160048036038101906103ac9190612aba565b610b8d565b005b6103cd60048036038101906103c89190612663565b610bef565b6040516103da9190612610565b60405180910390f35b6103fd60048036038101906103f89190612b3a565b610c01565b60405161040a9190612587565b60405180910390f35b61042d600480360381019061042891906128a5565b610c8f565b005b5f61043982610d11565b9050919050565b60606001805461044f90612ba5565b80601f016020809104026020016040519081016040528092919081815260200182805461047b90612ba5565b80156104c65780601f1061049d576101008083540402835291602001916104c6565b820191905f5260205f20905b8154815290600101906020018083116104a957829003601f168201915b5050505050905090565b5f6104da82610d71565b60055f8381526020019081526020015f205f9054906101000a900473ffffffffffffffffffffffffffffffffffffffff169050919050565b5f61051c82610934565b90508073ffffffffffffffffffffffffffffffffffffffff168373ffffffffffffffffffffffffffffffffffffffff160361058c576040517f08c379a000000000000000000000000000000000000000000000000000000000815260040161058390612c45565b60405180910390fd5b8073ffffffffffffffffffffffffffffffffffffffff166105ab610dbc565b73ffffffffffffffffffffffffffffffffffffffff1614806105da57506105d9816105d4610dbc565b610c01565b5b610619576040517f08c379a000000000000000000000000000000000000000000000000000000000815260040161061090612cd3565b60405180910390fd5b6106238383610dc3565b505050565b5f600980549050905090565b5f60019054906101000a900460ff1661065b575f5f9054906101000a900460ff1615610664565b610663610e79565b5b6106a3576040517f08c379a000000000000000000000000000000000000000000000000000000000815260040161069a90612d61565b60405180910390fd5b5f5f60019054906101000a900460ff1615905080156106f05760015f60016101000a81548160ff02191690831515021790555060015f5f6101000a81548160ff0219169083151502179055505b61078085858080601f0160208091040260200160405190810160405280939291908181526020018383808284375f81840152601f19601f8201169050808301925050505050505084848080601f0160208091040260200160405190810160405280939291908181526020018383808284375f81840152601f19601f82011690508083019250505050505050610e89565b80156107a0575f5f60016101000a81548160ff0219169083151502179055505b5050505050565b6107b86107b2610dbc565b82610ee5565b6107f7576040517f08c379a00000000000000000000000000000000000000000000000000000000081526004016107ee90612def565b60405180910390fd5b610802838383610f79565b505050565b5f610811836109b8565b8210610852576040517f08c379a000000000000000000000000000000000000000000000000000000000815260040161084990612e7d565b60405180910390fd5b60075f8473ffffffffffffffffffffffffffffffffffffffff1673ffffffffffffffffffffffffffffffffffffffff1681526020019081526020015f205f8381526020019081526020015f2054905092915050565b6108c183838360405180602001604052805f815250610b8d565b505050565b5f6108cf610628565b8210610910576040517f08c379a000000000000000000000000000000000000000000000000000000000815260040161090790612f0b565b60405180910390fd5b6009828154811061092457610923612f29565b5b905f5260205f2001549050919050565b5f5f61093f83611265565b90505f73ffffffffffffffffffffffffffffffffffffffff168173ffffffffffffffffffffffffffffffffffffffff16036109af576040517f08c379a00000000000000000000000000000000000000000000000000000000081526004016109a690612fa0565b60405180910390fd5b80915050919050565b5f5f73ffffffffffffffffffffffffffffffffffffffff168273ffffffffffffffffffffffffffffffffffffffff1603610a27576040517f08c379a0000000000000000000000000000000000000000000000000000000008152600401610a1e9061302e565b60405180910390fd5b60045f8373ffffffffffffffffffffffffffffffffffffffff1673ffffffffffffffffffffffffffffffffffffffff1681526020019081526020015f20549050919050565b610a7461129e565b610a7d5f61131c565b565b5f610a8861129e565b5f600d5f815480929190610a9b90613079565b919050559050610aab84826113df565b610ab581846113fc565b8091505092915050565b5f600c5f9054906101000a900473ffffffffffffffffffffffffffffffffffffffff16905090565b606060028054610af690612ba5565b80601f0160208091040260200160405190810160405280929190818152602001828054610b2290612ba5565b8015610b6d5780601f10610b4457610100808354040283529160200191610b6d565b820191905f5260205f20905b815481529060010190602001808311610b5057829003601f168201915b5050505050905090565b610b89610b82610dbc565b838361149e565b5050565b610b9e610b98610dbc565b83610ee5565b610bdd576040517f08c379a0000000000000000000000000000000000000000000000000000000008152600401610bd490612def565b60405180910390fd5b610be984848484611605565b50505050565b6060610bfa82611661565b9050919050565b5f60065f8473ffffffffffffffffffffffffffffffffffffffff1673ffffffffffffffffffffffffffffffffffffffff1681526020019081526020015f205f8373ffffffffffffffffffffffffffffffffffffffff1673ffffffffffffffffffffffffffffffffffffffff1681526020019081526020015f205f9054906101000a900460ff16905092915050565b610c9761129e565b5f73ffffffffffffffffffffffffffffffffffffffff168173ffffffffffffffffffffffffffffffffffffffff1603610d05576040517f08c379a0000000000000000000000000000000000000000000000000000000008152600401610cfc90613130565b60405180910390fd5b610d0e8161131c565b50565b5f634906490660e01b7bffffffffffffffffffffffffffffffffffffffffffffffffffffffff1916827bffffffffffffffffffffffffffffffffffffffffffffffffffffffff19161480610d6a5750610d698261176b565b5b9050919050565b610d7a816117e4565b610db9576040517f08c379a0000000000000000000000000000000000000000000000000000000008152600401610db090612fa0565b60405180910390fd5b50565b5f33905090565b8160055f8381526020019081526020015f205f6101000a81548173ffffffffffffffffffffffffffffffffffffffff021916908373ffffffffffffffffffffffffffffffffffffffff160217905550808273ffffffffffffffffffffffffffffffffffffffff16610e3383610934565b73ffffffffffffffffffffffffffffffffffffffff167f8c5be1e5ebec7d5bd14f71427d1e84f3dd0314c0f7b2291e5b200ac8c7c3b92560405160405180910390a45050565b5f610e8330611824565b15905090565b5f60019054906101000a900460ff16610ed7576040517f08c379a0000000000000000000000000000000000000000000000000000000008152600401610ece906131be565b60405180910390fd5b610ee18282611846565b5050565b5f5f610ef083610934565b90508073ffffffffffffffffffffffffffffffffffffffff168473ffffffffffffffffffffffffffffffffffffffff161480610f325750610f318185610c01565b5b80610f7057508373ffffffffffffffffffffffffffffffffffffffff16610f58846104d0565b73ffffffffffffffffffffffffffffffffffffffff16145b91505092915050565b8273ffffffffffffffffffffffffffffffffffffffff16610f9982610934565b73ffffffffffffffffffffffffffffffffffffffff1614610fef576040517f08c379a0000000000000000000000000000000000000000000000000000000008152600401610fe69061324c565b60405180910390fd5b5f73ffffffffffffffffffffffffffffffffffffffff168273ffffffffffffffffffffffffffffffffffffffff160361105d576040517f08c379a0000000000000000000000000000000000000000000000000000000008152600401611054906132da565b60405180910390fd5b61106a83838360016118b8565b8273ffffffffffffffffffffffffffffffffffffffff1661108a82610934565b73ffffffffffffffffffffffffffffffffffffffff16146110e0576040517f08c379a00000000000000000000000000000000000000000000000000000000081526004016110d79061324c565b60405180910390fd5b60055f8281526020019081526020015f205f6101000a81549073ffffffffffffffffffffffffffffffffffffffff0219169055600160045f8573ffffffffffffffffffffffffffffffffffffffff1673ffffffffffffffffffffffffffffffffffffffff1681526020019081526020015f205f8282540392505081905550600160045f8473ffffffffffffffffffffffffffffffffffffffff1673ffffffffffffffffffffffffffffffffffffffff1681526020019081526020015f205f82825401925050819055508160035f8381526020019081526020015f205f6101000a81548173ffffffffffffffffffffffffffffffffffffffff021916908373ffffffffffffffffffffffffffffffffffffffff160217905550808273ffffffffffffffffffffffffffffffffffffffff168473ffffffffffffffffffffffffffffffffffffffff167fddf252ad1be2c89b69c2b068fc378daa952ba7f163c4a11628f55a4df523b3ef60405160405180910390a461126083838360016118ca565b505050565b5f60035f8381526020019081526020015f205f9054906101000a900473ffffffffffffffffffffffffffffffffffffffff169050919050565b6112a6610dbc565b73ffffffffffffffffffffffffffffffffffffffff166112c4610abf565b73ffffffffffffffffffffffffffffffffffffffff161461131a576040517f08c379a000000000000000000000000000000000000000000000000000000000815260040161131190613342565b60405180910390fd5b565b5f600c5f9054906101000a900473ffffffffffffffffffffffffffffffffffffffff16905081600c5f6101000a81548173ffffffffffffffffffffffffffffffffffffffff021916908373ffffffffffffffffffffffffffffffffffffffff1602179055508173ffffffffffffffffffffffffffffffffffffffff168173ffffffffffffffffffffffffffffffffffffffff167f8be0079c531659141344cd1fd0a4f28419497f9722a3daafe3b4186f6b6457e060405160405180910390a35050565b6113f8828260405180602001604052805f8152506118d0565b5050565b611405826117e4565b611444576040517f08c379a000000000000000000000000000000000000000000000000000000000815260040161143b906133d0565b60405180910390fd5b80600b5f8481526020019081526020015f209081611462919061358e565b507ff8e1a15aba9398e019f0b49df1a4fde98ee17ae345cb5f6b5e2c27f5033e8ce782604051611492919061275d565b60405180910390a15050565b8173ffffffffffffffffffffffffffffffffffffffff168373ffffffffffffffffffffffffffffffffffffffff160361150c576040517f08c379a0000000000000000000000000000000000000000000000000000000008152600401611503906136a7565b60405180910390fd5b8060065f8573ffffffffffffffffffffffffffffffffffffffff1673ffffffffffffffffffffffffffffffffffffffff1681526020019081526020015f205f8473ffffffffffffffffffffffffffffffffffffffff1673ffffffffffffffffffffffffffffffffffffffff1681526020019081526020015f205f6101000a81548160ff0219169083151502179055508173ffffffffffffffffffffffffffffffffffffffff168373ffffffffffffffffffffffffffffffffffffffff167f17307eab39ab6107e8899845ad3d59bd9653f200f220920489ca2b5937696c31836040516115f89190612587565b60405180910390a3505050565b611610848484610f79565b61161c8484848461192a565b61165b576040517f08c379a000000000000000000000000000000000000000000000000000000000815260040161165290613735565b60405180910390fd5b50505050565b606061166c82610d71565b5f600b5f8481526020019081526020015f20805461168990612ba5565b80601f01602080910402602001604051908101604052809291908181526020018280546116b590612ba5565b80156117005780601f106116d757610100808354040283529160200191611700565b820191905f5260205f20905b8154815290600101906020018083116116e357829003601f168201915b505050505090505f611710611aac565b90505f815103611724578192505050611766565b5f8251111561175857808260405160200161174092919061378d565b60405160208183030381529060405292505050611766565b61176184611acc565b925050505b919050565b5f7f780e9d63000000000000000000000000000000000000000000000000000000007bffffffffffffffffffffffffffffffffffffffffffffffffffffffff1916827bffffffffffffffffffffffffffffffffffffffffffffffffffffffff191614806117dd57506117dc82611b31565b5b9050919050565b5f5f73ffffffffffffffffffffffffffffffffffffffff1661180583611265565b73ffffffffffffffffffffffffffffffffffffffff1614159050919050565b5f5f8273ffffffffffffffffffffffffffffffffffffffff163b119050919050565b5f60019054906101000a900460ff16611894576040517f08c379a000000000000000000000000000000000000000000000000000000000815260040161188b906131be565b60405180910390fd5b81600190816118a3919061358e565b5080600290816118b3919061358e565b505050565b6118c484848484611c12565b50505050565b50505050565b6118da8383611d6d565b6118e65f84848461192a565b611925576040517f08c379a000000000000000000000000000000000000000000000000000000000815260040161191c90613735565b60405180910390fd5b505050565b5f61194a8473ffffffffffffffffffffffffffffffffffffffff16611824565b15611a9f578373ffffffffffffffffffffffffffffffffffffffff1663150b7a02611973610dbc565b8786866040518563ffffffff1660e01b81526004016119959493929190613802565b6020604051808303815f875af19250505080156119d057506040513d601f19601f820116820180604052508101906119cd9190613860565b60015b611a4f573d805f81146119fe576040519150601f19603f3d011682016040523d82523d5f602084013e611a03565b606091505b505f815103611a47576040517f08c379a0000000000000000000000000000000000000000000000000000000008152600401611a3e90613735565b60405180910390fd5b805181602001fd5b63150b7a0260e01b7bffffffffffffffffffffffffffffffffffffffffffffffffffffffff1916817bffffffffffffffffffffffffffffffffffffffffffffffffffffffff191614915050611aa4565b600190505b949350505050565b60606040518060a0016040528060638152602001613a7760639139905090565b6060611ad782610d71565b5f611ae0611aac565b90505f815111611afe5760405180602001604052805f815250611b29565b80611b0884611f80565b604051602001611b1992919061378d565b6040516020818303038152906040525b915050919050565b5f7f80ac58cd000000000000000000000000000000000000000000000000000000007bffffffffffffffffffffffffffffffffffffffffffffffffffffffff1916827bffffffffffffffffffffffffffffffffffffffffffffffffffffffff19161480611bfb57507f5b5e139f000000000000000000000000000000000000000000000000000000007bffffffffffffffffffffffffffffffffffffffffffffffffffffffff1916827bffffffffffffffffffffffffffffffffffffffffffffffffffffffff1916145b80611c0b5750611c0a8261204a565b5b9050919050565b611c1e848484846120b3565b6001811115611c62576040517f08c379a0000000000000000000000000000000000000000000000000000000008152600401611c59906138fb565b60405180910390fd5b5f8290505f73ffffffffffffffffffffffffffffffffffffffff168573ffffffffffffffffffffffffffffffffffffffff1603611ca757611ca2816120b9565b611ce6565b8373ffffffffffffffffffffffffffffffffffffffff168573ffffffffffffffffffffffffffffffffffffffff1614611ce557611ce485826120fd565b5b5b5f73ffffffffffffffffffffffffffffffffffffffff168473ffffffffffffffffffffffffffffffffffffffff1603611d2757611d2281612253565b611d66565b8473ffffffffffffffffffffffffffffffffffffffff168473ffffffffffffffffffffffffffffffffffffffff1614611d6557611d648482612313565b5b5b5050505050565b5f73ffffffffffffffffffffffffffffffffffffffff168273ffffffffffffffffffffffffffffffffffffffff1603611ddb576040517f08c379a0000000000000000000000000000000000000000000000000000000008152600401611dd290613963565b60405180910390fd5b611de4816117e4565b15611e24576040517f08c379a0000000000000000000000000000000000000000000000000000000008152600401611e1b906139cb565b60405180910390fd5b611e315f838360016118b8565b611e3a816117e4565b15611e7a576040517f08c379a0000000000000000000000000000000000000000000000000000000008152600401611e71906139cb565b60405180910390fd5b600160045f8473ffffffffffffffffffffffffffffffffffffffff1673ffffffffffffffffffffffffffffffffffffffff1681526020019081526020015f205f82825401925050819055508160035f8381526020019081526020015f205f6101000a81548173ffffffffffffffffffffffffffffffffffffffff021916908373ffffffffffffffffffffffffffffffffffffffff160217905550808273ffffffffffffffffffffffffffffffffffffffff165f73ffffffffffffffffffffffffffffffffffffffff167fddf252ad1be2c89b69c2b068fc378daa952ba7f163c4a11628f55a4df523b3ef60405160405180910390a4611f7c5f838360016118ca565b5050565b60605f6001611f8e8461238b565b0190505f8167ffffffffffffffff811115611fac57611fab6128d4565b5b6040519080825280601f01601f191660200182016040528015611fde5781602001600182028036833780820191505090505b5090505f82602001820190505b60011561203f578080600190039150507f3031323334353637383961626364656600000000000000000000000000000000600a86061a8153600a8581612034576120336139e9565b5b0494505f8503611feb575b819350505050919050565b5f7f01ffc9a7000000000000000000000000000000000000000000000000000000007bffffffffffffffffffffffffffffffffffffffffffffffffffffffff1916827bffffffffffffffffffffffffffffffffffffffffffffffffffffffff1916149050919050565b50505050565b600980549050600a5f8381526020019081526020015f2081905550600981908060018154018082558091505060019003905f5260205f20015f909190919091505550565b5f6001612109846109b8565b6121139190613a16565b90505f60085f8481526020019081526020015f205490508181146121ea575f60075f8673ffffffffffffffffffffffffffffffffffffffff1673ffffffffffffffffffffffffffffffffffffffff1681526020019081526020015f205f8481526020019081526020015f205490508060075f8773ffffffffffffffffffffffffffffffffffffffff1673ffffffffffffffffffffffffffffffffffffffff1681526020019081526020015f205f8481526020019081526020015f20819055508160085f8381526020019081526020015f2081905550505b60085f8481526020019081526020015f205f905560075f8573ffffffffffffffffffffffffffffffffffffffff1673ffffffffffffffffffffffffffffffffffffffff1681526020019081526020015f205f8381526020019081526020015f205f905550505050565b5f60016009805490506122669190613a16565b90505f600a5f8481526020019081526020015f205490505f6009838154811061229257612291612f29565b5b905f5260205f200154905080600983815481106122b2576122b1612f29565b5b905f5260205f20018190555081600a5f8381526020019081526020015f2081905550600a5f8581526020019081526020015f205f905560098054806122fa576122f9613a49565b5b600190038181905f5260205f20015f9055905550505050565b5f61231d836109b8565b90508160075f8573ffffffffffffffffffffffffffffffffffffffff1673ffffffffffffffffffffffffffffffffffffffff1681526020019081526020015f205f8381526020019081526020015f20819055508060085f8481526020019081526020015f2081905550505050565b5f5f5f90507a184f03e93ff9f4daa797ed6e38ed64bf6a1f01000000000000000083106123e7577a184f03e93ff9f4daa797ed6e38ed64bf6a1f01000000000000000083816123dd576123dc6139e9565b5b0492506040810190505b6d04ee2d6d415b85acef81000000008310612424576d04ee2d6d415b85acef8100000000838161241a576124196139e9565b5b0492506020810190505b662386f26fc10000831061245357662386f26fc100008381612449576124486139e9565b5b0492506010810190505b6305f5e100831061247c576305f5e1008381612472576124716139e9565b5b0492506008810190505b61271083106124a1576127108381612497576124966139e9565b5b0492506004810190505b606483106124c457606483816124ba576124b96139e9565b5b0492506002810190505b600a83106124d3576001810190505b80915050919050565b5f604051905090565b5f5ffd5b5f5ffd5b5f7fffffffff0000000000000000000000000000000000000000000000000000000082169050919050565b612521816124ed565b811461252b575f5ffd5b50565b5f8135905061253c81612518565b92915050565b5f60208284031215612557576125566124e5565b5b5f6125648482850161252e565b91505092915050565b5f8115159050919050565b6125818161256d565b82525050565b5f60208201905061259a5f830184612578565b92915050565b5f81519050919050565b5f82825260208201905092915050565b8281835e5f83830152505050565b5f601f19601f8301169050919050565b5f6125e2826125a0565b6125ec81856125aa565b93506125fc8185602086016125ba565b612605816125c8565b840191505092915050565b5f6020820190508181035f83015261262881846125d8565b905092915050565b5f819050919050565b61264281612630565b811461264c575f5ffd5b50565b5f8135905061265d81612639565b92915050565b5f60208284031215612678576126776124e5565b5b5f6126858482850161264f565b91505092915050565b5f73ffffffffffffffffffffffffffffffffffffffff82169050919050565b5f6126b78261268e565b9050919050565b6126c7816126ad565b82525050565b5f6020820190506126e05f8301846126be565b92915050565b6126ef816126ad565b81146126f9575f5ffd5b50565b5f8135905061270a816126e6565b92915050565b5f5f60408385031215612726576127256124e5565b5b5f612733858286016126fc565b92505060206127448582860161264f565b9150509250929050565b61275781612630565b82525050565b5f6020820190506127705f83018461274e565b92915050565b5f5ffd5b5f5ffd5b5f5ffd5b5f5f83601f84011261279757612796612776565b5b8235905067ffffffffffffffff8111156127b4576127b361277a565b5b6020830191508360018202830111156127d0576127cf61277e565b5b9250929050565b5f5f5f5f604085870312156127ef576127ee6124e5565b5b5f85013567ffffffffffffffff81111561280c5761280b6124e9565b5b61281887828801612782565b9450945050602085013567ffffffffffffffff81111561283b5761283a6124e9565b5b61284787828801612782565b925092505092959194509250565b5f5f5f6060848603121561286c5761286b6124e5565b5b5f612879868287016126fc565b935050602061288a868287016126fc565b925050604061289b8682870161264f565b9150509250925092565b5f602082840312156128ba576128b96124e5565b5b5f6128c7848285016126fc565b91505092915050565b5f5ffd5b7f4e487b71000000000000000000000000000000000000000000000000000000005f52604160045260245ffd5b61290a826125c8565b810181811067ffffffffffffffff82111715612929576129286128d4565b5b80604052505050565b5f61293b6124dc565b90506129478282612901565b919050565b5f67ffffffffffffffff821115612966576129656128d4565b5b61296f826125c8565b9050602081019050919050565b828183375f83830152505050565b5f61299c6129978461294c565b612932565b9050828152602081018484840111156129b8576129b76128d0565b5b6129c384828561297c565b509392505050565b5f82601f8301126129df576129de612776565b5b81356129ef84826020860161298a565b91505092915050565b5f5f60408385031215612a0e57612a0d6124e5565b5b5f612a1b858286016126fc565b925050602083013567ffffffffffffffff811115612a3c57612a3b6124e9565b5b612a48858286016129cb565b9150509250929050565b612a5b8161256d565b8114612a65575f5ffd5b50565b5f81359050612a7681612a52565b92915050565b5f5f60408385031215612a9257612a916124e5565b5b5f612a9f858286016126fc565b9250506020612ab085828601612a68565b9150509250929050565b5f5f5f5f60808587031215612ad257612ad16124e5565b5b5f612adf878288016126fc565b9450506020612af0878288016126fc565b9350506040612b018782880161264f565b925050606085013567ffffffffffffffff811115612b2257612b216124e9565b5b612b2e878288016129cb565b91505092959194509250565b5f5f60408385031215612b5057612b4f6124e5565b5b5f612b5d858286016126fc565b9250506020612b6e858286016126fc565b9150509250929050565b7f4e487b71000000000000000000000000000000000000000000000000000000005f52602260045260245ffd5b5f6002820490506001821680612bbc57607f821691505b602082108103612bcf57612bce612b78565b5b50919050565b7f4552433732313a20617070726f76616c20746f2063757272656e74206f776e655f8201527f7200000000000000000000000000000000000000000000000000000000000000602082015250565b5f612c2f6021836125aa565b9150612c3a82612bd5565b604082019050919050565b5f6020820190508181035f830152612c5c81612c23565b9050919050565b7f4552433732313a20617070726f76652063616c6c6572206973206e6f7420746f5f8201527f6b656e206f776e6572206f7220617070726f76656420666f7220616c6c000000602082015250565b5f612cbd603d836125aa565b9150612cc882612c63565b604082019050919050565b5f6020820190508181035f830152612cea81612cb1565b9050919050565b7f496e697469616c697a61626c653a20636f6e747261637420697320616c7265615f8201527f647920696e697469616c697a6564000000000000000000000000000000000000602082015250565b5f612d4b602e836125aa565b9150612d5682612cf1565b604082019050919050565b5f6020820190508181035f830152612d7881612d3f565b9050919050565b7f4552433732313a2063616c6c6572206973206e6f7420746f6b656e206f776e655f8201527f72206f7220617070726f76656400000000000000000000000000000000000000602082015250565b5f612dd9602d836125aa565b9150612de482612d7f565b604082019050919050565b5f6020820190508181035f830152612e0681612dcd565b9050919050565b7f455243373231456e756d657261626c653a206f776e657220696e646578206f755f8201527f74206f6620626f756e6473000000000000000000000000000000000000000000602082015250565b5f612e67602b836125aa565b9150612e7282612e0d565b604082019050919050565b5f6020820190508181035f830152612e9481612e5b565b9050919050565b7f455243373231456e756d657261626c653a20676c6f62616c20696e646578206f5f8201527f7574206f6620626f756e64730000000000000000000000000000000000000000602082015250565b5f612ef5602c836125aa565b9150612f0082612e9b565b604082019050919050565b5f6020820190508181035f830152612f2281612ee9565b9050919050565b7f4e487b71000000000000000000000000000000000000000000000000000000005f52603260045260245ffd5b7f4552433732313a20696e76616c696420746f6b656e20494400000000000000005f82015250565b5f612f8a6018836125aa565b9150612f9582612f56565b602082019050919050565b5f6020820190508181035f830152612fb781612f7e565b9050919050565b7f4552433732313a2061646472657373207a65726f206973206e6f7420612076615f8201527f6c6964206f776e65720000000000000000000000000000000000000000000000602082015250565b5f6130186029836125aa565b915061302382612fbe565b604082019050919050565b5f6020820190508181035f8301526130458161300c565b9050919050565b7f4e487b71000000000000000000000000000000000000000000000000000000005f52601160045260245ffd5b5f61308382612630565b91507fffffffffffffffffffffffffffffffffffffffffffffffffffffffffffffffff82036130b5576130b461304c565b5b600182019050919050565b7f4f776e61626c653a206e6577206f776e657220697320746865207a65726f20615f8201527f6464726573730000000000000000000000000000000000000000000000000000602082015250565b5f61311a6026836125aa565b9150613125826130c0565b604082019050919050565b5f6020820190508181035f8301526131478161310e565b9050919050565b7f496e697469616c697a61626c653a20636f6e7472616374206973206e6f7420695f8201527f6e697469616c697a696e67000000000000000000000000000000000000000000602082015250565b5f6131a8602b836125aa565b91506131b38261314e565b604082019050919050565b5f6020820190508181035f8301526131d58161319c565b9050919050565b7f4552433732313a207472616e736665722066726f6d20696e636f7272656374205f8201527f6f776e6572000000000000000000000000000000000000000000000000000000602082015250565b5f6132366025836125aa565b9150613241826131dc565b604082019050919050565b5f6020820190508181035f8301526132638161322a565b9050919050565b7f4552433732313a207472616e7366657220746f20746865207a65726f206164645f8201527f7265737300000000000000000000000000000000000000000000000000000000602082015250565b5f6132c46024836125aa565b91506132cf8261326a565b604082019050919050565b5f6020820190508181035f8301526132f1816132b8565b9050919050565b7f4f776e61626c653a2063616c6c6572206973206e6f7420746865206f776e65725f82015250565b5f61332c6020836125aa565b9150613337826132f8565b602082019050919050565b5f6020820190508181035f83015261335981613320565b9050919050565b7f45524337323155524953746f726167653a2055524920736574206f66206e6f6e5f8201527f6578697374656e7420746f6b656e000000000000000000000000000000000000602082015250565b5f6133ba602e836125aa565b91506133c582613360565b604082019050919050565b5f6020820190508181035f8301526133e7816133ae565b9050919050565b5f819050815f5260205f209050919050565b5f6020601f8301049050919050565b5f82821b905092915050565b5f6008830261344a7fffffffffffffffffffffffffffffffffffffffffffffffffffffffffffffffff8261340f565b613454868361340f565b95508019841693508086168417925050509392505050565b5f819050919050565b5f61348f61348a61348584612630565b61346c565b612630565b9050919050565b5f819050919050565b6134a883613475565b6134bc6134b482613496565b84845461341b565b825550505050565b5f5f905090565b6134d36134c4565b6134de81848461349f565b505050565b5b81811015613501576134f65f826134cb565b6001810190506134e4565b5050565b601f82111561354657613517816133ee565b61352084613400565b8101602085101561352f578190505b61354361353b85613400565b8301826134e3565b50505b505050565b5f82821c905092915050565b5f6135665f198460080261354b565b1980831691505092915050565b5f61357e8383613557565b9150826002028217905092915050565b613597826125a0565b67ffffffffffffffff8111156135b0576135af6128d4565b5b6135ba8254612ba5565b6135c5828285613505565b5f60209050601f8311600181146135f6575f84156135e4578287015190505b6135ee8582613573565b865550613655565b601f198416613604866133ee565b5f5b8281101561362b57848901518255600182019150602085019450602081019050613606565b868310156136485784890151613644601f891682613557565b8355505b6001600288020188555050505b505050505050565b7f4552433732313a20617070726f766520746f2063616c6c6572000000000000005f82015250565b5f6136916019836125aa565b915061369c8261365d565b602082019050919050565b5f6020820190508181035f8301526136be81613685565b9050919050565b7f4552433732313a207472616e7366657220746f206e6f6e2045524337323152655f8201527f63656976657220696d706c656d656e7465720000000000000000000000000000602082015250565b5f61371f6032836125aa565b915061372a826136c5565b604082019050919050565b5f6020820190508181035f83015261374c81613713565b9050919050565b5f81905092915050565b5f613767826125a0565b6137718185613753565b93506137818185602086016125ba565b80840191505092915050565b5f613798828561375d565b91506137a4828461375d565b91508190509392505050565b5f81519050919050565b5f82825260208201905092915050565b5f6137d4826137b0565b6137de81856137ba565b93506137ee8185602086016125ba565b6137f7816125c8565b840191505092915050565b5f6080820190506138155f8301876126be565b61382260208301866126be565b61382f604083018561274e565b818103606083015261384181846137ca565b905095945050505050565b5f8151905061385a81612518565b92915050565b5f60208284031215613875576138746124e5565b5b5f6138828482850161384c565b91505092915050565b7f455243373231456e756d657261626c653a20636f6e73656375746976652074725f8201527f616e7366657273206e6f7420737570706f727465640000000000000000000000602082015250565b5f6138e56035836125aa565b91506138f08261388b565b604082019050919050565b5f6020820190508181035f830152613912816138d9565b9050919050565b7f4552433732313a206d696e7420746f20746865207a65726f20616464726573735f82015250565b5f61394d6020836125aa565b915061395882613919565b602082019050919050565b5f6020820190508181035f83015261397a81613941565b9050919050565b7f4552433732313a20746f6b656e20616c7265616479206d696e746564000000005f82015250565b5f6139b5601c836125aa565b91506139c082613981565b602082019050919050565b5f6020820190508181035f8301526139e2816139a9565b9050919050565b7f4e487b71000000000000000000000000000000000000000000000000000000005f52601260045260245ffd5b5f613a2082612630565b9150613a2b83612630565b9250828203905081811115613a4357613a4261304c565b5b92915050565b7f4e487b71000000000000000000000000000000000000000000000000000000005f52603160045260245ffdfe68747470733a2f2f63726f776465642d6861726c657175696e2d736b756e6b2e6d7966696c65626173652e636f6d2f697066732f516d5a334437416b364e36564d35634152543255317a5756504a6876646d6153326979526833414e4447434e4d4c2fa264697066735822122024658edff4256d0bf49866107d9c5dddb26c0ef9d089c6143dc178260eaebc1164736f6c634300081e0033",
			"opcodes": "PUSH1 0x80 PUSH1 0x40 MSTORE CALLVALUE DUP1 ISZERO PUSH2 0xF JUMPI PUSH0 PUSH0 REVERT JUMPDEST POP PUSH2 0x2C PUSH2 0x21 PUSH2 0x31 PUSH1 0x20 SHL PUSH1 0x20 SHR JUMP JUMPDEST PUSH2 0x38 PUSH1 0x20 SHL PUSH1 0x20 SHR JUMP JUMPDEST PUSH2 0xFB JUMP JUMPDEST PUSH0 CALLER SWAP1 POP SWAP1 JUMP JUMPDEST PUSH0 PUSH1 0xC PUSH0 SWAP1 SLOAD SWAP1 PUSH2 0x100 EXP SWAP1 DIV PUSH20 0xFFFFFFFFFFFFFFFFFFFFFFFFFFFFFFFFFFFFFFFF AND SWAP1 POP DUP2 PUSH1 0xC PUSH0 PUSH2 0x100 EXP DUP2 SLOAD DUP2 PUSH20 0xFFFFFFFFFFFFFFFFFFFFFFFFFFFFFFFFFFFFFFFF MUL NOT AND SWAP1 DUP4 PUSH20 0xFFFFFFFFFFFFFFFFFFFFFFFFFFFFFFFFFFFFFFFF AND MUL OR SWAP1 SSTORE POP DUP2 PUSH20 0xFFFFFFFFFFFFFFFFFFFFFFFFFFFFFFFFFFFFFFFF AND DUP2 PUSH20 0xFFFFFFFFFFFFFFFFFFFFFFFFFFFFFFFFFFFFFFFF AND PUSH32 0x8BE0079C531659141344CD1FD0A4F28419497F9722A3DAAFE3B4186F6B6457E0 PUSH1 0x40 MLOAD PUSH1 0x40 MLOAD DUP1 SWAP2 SUB SWAP1 LOG3 POP POP JUMP JUMPDEST PUSH2 0x3B0F DUP1 PUSH2 0x108 PUSH0 CODECOPY PUSH0 RETURN INVALID PUSH1 0x80 PUSH1 0x40 MSTORE CALLVALUE DUP1 ISZERO PUSH2 0xF JUMPI PUSH0 PUSH0 REVERT JUMPDEST POP PUSH1 0x4 CALLDATASIZE LT PUSH2 0x135 JUMPI PUSH0 CALLDATALOAD PUSH1 0xE0 SHR DUP1 PUSH4 0x6352211E GT PUSH2 0xB6 JUMPI DUP1 PUSH4 0x95D89B41 GT PUSH2 0x7A JUMPI DUP1 PUSH4 0x95D89B41 EQ PUSH2 0x35D JUMPI DUP1 PUSH4 0xA22CB465 EQ PUSH2 0x37B JUMPI DUP1 PUSH4 0xB88D4FDE EQ PUSH2 0x397 JUMPI DUP1 PUSH4 0xC87B56DD EQ PUSH2 0x3B3 JUMPI DUP1 PUSH4 0xE985E9C5 EQ PUSH2 0x3E3 JUMPI DUP1 PUSH4 0xF2FDE38B EQ PUSH2 0x413 JUMPI PUSH2 0x135 JUMP JUMPDEST DUP1 PUSH4 0x6352211E EQ PUSH2 0x2A5 JUMPI DUP1 PUSH4 0x70A08231 EQ PUSH2 0x2D5 JUMPI DUP1 PUSH4 0x715018A6 EQ PUSH2 0x305 JUMPI DUP1 PUSH4 0x785BB03E EQ PUSH2 0x30F JUMPI DUP1 PUSH4 0x8DA5CB5B EQ PUSH2 0x33F JUMPI PUSH2 0x135 JUMP JUMPDEST DUP1 PUSH4 0x1AF19F77 GT PUSH2 0xFD JUMPI DUP1 PUSH4 0x1AF19F77 EQ PUSH2 0x1F1 JUMPI DUP1 PUSH4 0x23B872DD EQ PUSH2 0x20D JUMPI DUP1 PUSH4 0x2F745C59 EQ PUSH2 0x229 JUMPI DUP1 PUSH4 0x42842E0E EQ PUSH2 0x259 JUMPI DUP1 PUSH4 0x4F6CCCE7 EQ PUSH2 0x275 JUMPI PUSH2 0x135 JUMP JUMPDEST DUP1 PUSH4 0x1FFC9A7 EQ PUSH2 0x139 JUMPI DUP1 PUSH4 0x6FDDE03 EQ PUSH2 0x169 JUMPI DUP1 PUSH4 0x81812FC EQ PUSH2 0x187 JUMPI DUP1 PUSH4 0x95EA7B3 EQ PUSH2 0x1B7 JUMPI DUP1 PUSH4 0x18160DDD EQ PUSH2 0x1D3 JUMPI JUMPDEST PUSH0 PUSH0 REVERT JUMPDEST PUSH2 0x153 PUSH1 0x4 DUP1 CALLDATASIZE SUB DUP2 ADD SWAP1 PUSH2 0x14E SWAP2 SWAP1 PUSH2 0x2542 JUMP JUMPDEST PUSH2 0x42F JUMP JUMPDEST PUSH1 0x40 MLOAD PUSH2 0x160 SWAP2 SWAP1 PUSH2 0x2587 JUMP JUMPDEST PUSH1 0x40 MLOAD DUP1 SWAP2 SUB SWAP1 RETURN JUMPDEST PUSH2 0x171 PUSH2 0x440 JUMP JUMPDEST PUSH1 0x40 MLOAD PUSH2 0x17E SWAP2 SWAP1 PUSH2 0x2610 JUMP JUMPDEST PUSH1 0x40 MLOAD DUP1 SWAP2 SUB SWAP1 RETURN JUMPDEST PUSH2 0x1A1 PUSH1 0x4 DUP1 CALLDATASIZE SUB DUP2 ADD SWAP1 PUSH2 0x19C SWAP2 SWAP1 PUSH2 0x2663 JUMP JUMPDEST PUSH2 0x4D0 JUMP JUMPDEST PUSH1 0x40 MLOAD PUSH2 0x1AE SWAP2 SWAP1 PUSH2 0x26CD JUMP JUMPDEST PUSH1 0x40 MLOAD DUP1 SWAP2 SUB SWAP1 RETURN JUMPDEST PUSH2 0x1D1 PUSH1 0x4 DUP1 CALLDATASIZE SUB DUP2 ADD SWAP1 PUSH2 0x1CC SWAP2 SWAP1 PUSH2 0x2710 JUMP JUMPDEST PUSH2 0x512 JUMP JUMPDEST STOP JUMPDEST PUSH2 0x1DB PUSH2 0x628 JUMP JUMPDEST PUSH1 0x40 MLOAD PUSH2 0x1E8 SWAP2 SWAP1 PUSH2 0x275D JUMP JUMPDEST PUSH1 0x40 MLOAD DUP1 SWAP2 SUB SWAP1 RETURN JUMPDEST PUSH2 0x20B PUSH1 0x4 DUP1 CALLDATASIZE SUB DUP2 ADD SWAP1 PUSH2 0x206 SWAP2 SWAP1 PUSH2 0x27D7 JUMP JUMPDEST PUSH2 0x634 JUMP JUMPDEST STOP JUMPDEST PUSH2 0x227 PUSH1 0x4 DUP1 CALLDATASIZE SUB DUP2 ADD SWAP1 PUSH2 0x222 SWAP2 SWAP1 PUSH2 0x2855 JUMP JUMPDEST PUSH2 0x7A7 JUMP JUMPDEST STOP JUMPDEST PUSH2 0x243 PUSH1 0x4 DUP1 CALLDATASIZE SUB DUP2 ADD SWAP1 PUSH2 0x23E SWAP2 SWAP1 PUSH2 0x2710 JUMP JUMPDEST PUSH2 0x807 JUMP JUMPDEST PUSH1 0x40 MLOAD PUSH2 0x250 SWAP2 SWAP1 PUSH2 0x275D JUMP JUMPDEST PUSH1 0x40 MLOAD DUP1 SWAP2 SUB SWAP1 RETURN JUMPDEST PUSH2 0x273 PUSH1 0x4 DUP1 CALLDATASIZE SUB DUP2 ADD SWAP1 PUSH2 0x26E SWAP2 SWAP1 PUSH2 0x2855 JUMP JUMPDEST PUSH2 0x8A7 JUMP JUMPDEST STOP JUMPDEST PUSH2 0x28F PUSH1 0x4 DUP1 CALLDATASIZE SUB DUP2 ADD SWAP1 PUSH2 0x28A SWAP2 SWAP1 PUSH2 0x2663 JUMP JUMPDEST PUSH2 0x8C6 JUMP JUMPDEST PUSH1 0x40 MLOAD PUSH2 0x29C SWAP2 SWAP1 PUSH2 0x275D JUMP JUMPDEST PUSH1 0x40 MLOAD DUP1 SWAP2 SUB SWAP1 RETURN JUMPDEST PUSH2 0x2BF PUSH1 0x4 DUP1 CALLDATASIZE SUB DUP2 ADD SWAP1 PUSH2 0x2BA SWAP2 SWAP1 PUSH2 0x2663 JUMP JUMPDEST PUSH2 0x934 JUMP JUMPDEST PUSH1 0x40 MLOAD PUSH2 0x2CC SWAP2 SWAP1 PUSH2 0x26CD JUMP JUMPDEST PUSH1 0x40 MLOAD DUP1 SWAP2 SUB SWAP1 RETURN JUMPDEST PUSH2 0x2EF PUSH1 0x4 DUP1 CALLDATASIZE SUB DUP2 ADD SWAP1 PUSH2 0x2EA SWAP2 SWAP1 PUSH2 0x28A5 JUMP JUMPDEST PUSH2 0x9B8 JUMP JUMPDEST PUSH1 0x40 MLOAD PUSH2 0x2FC SWAP2 SWAP1 PUSH2 0x275D JUMP JUMPDEST PUSH1 0x40 MLOAD DUP1 SWAP2 SUB SWAP1 RETURN JUMPDEST PUSH2 0x30D PUSH2 0xA6C JUMP JUMPDEST STOP JUMPDEST PUSH2 0x329 PUSH1 0x4 DUP1 CALLDATASIZE SUB DUP2 ADD SWAP1 PUSH2 0x324 SWAP2 SWAP1 PUSH2 0x29F8 JUMP JUMPDEST PUSH2 0xA7F JUMP JUMPDEST PUSH1 0x40 MLOAD PUSH2 0x336 SWAP2 SWAP1 PUSH2 0x275D JUMP JUMPDEST PUSH1 0x40 MLOAD DUP1 SWAP2 SUB SWAP1 RETURN JUMPDEST PUSH2 0x347 PUSH2 0xABF JUMP JUMPDEST PUSH1 0x40 MLOAD PUSH2 0x354 SWAP2 SWAP1 PUSH2 0x26CD JUMP JUMPDEST PUSH1 0x40 MLOAD DUP1 SWAP2 SUB SWAP1 RETURN JUMPDEST PUSH2 0x365 PUSH2 0xAE7 JUMP JUMPDEST PUSH1 0x40 MLOAD PUSH2 0x372 SWAP2 SWAP1 PUSH2 0x2610 JUMP JUMPDEST PUSH1 0x40 MLOAD DUP1 SWAP2 SUB SWAP1 RETURN JUMPDEST PUSH2 0x395 PUSH1 0x4 DUP1 CALLDATASIZE SUB DUP2 ADD SWAP1 PUSH2 0x390 SWAP2 SWAP1 PUSH2 0x2A7C JUMP JUMPDEST PUSH2 0xB77 JUMP JUMPDEST STOP JUMPDEST PUSH2 0x3B1 PUSH1 0x4 DUP1 CALLDATASIZE SUB DUP2 ADD SWAP1 PUSH2 0x3AC SWAP2 SWAP1 PUSH2 0x2ABA JUMP JUMPDEST PUSH2 0xB8D JUMP JUMPDEST STOP JUMPDEST PUSH2 0x3CD PUSH1 0x4 DUP1 CALLDATASIZE SUB DUP2 ADD SWAP1 PUSH2 0x3C8 SWAP2 SWAP1 PUSH2 0x2663 JUMP JUMPDEST PUSH2 0xBEF JUMP JUMPDEST PUSH1 0x40 MLOAD PUSH2 0x3DA SWAP2 SWAP1 PUSH2 0x2610 JUMP JUMPDEST PUSH1 0x40 MLOAD DUP1 SWAP2 SUB SWAP1 RETURN JUMPDEST PUSH2 0x3FD PUSH1 0x4 DUP1 CALLDATASIZE SUB DUP2 ADD SWAP1 PUSH2 0x3F8 SWAP2 SWAP1 PUSH2 0x2B3A JUMP JUMPDEST PUSH2 0xC01 JUMP JUMPDEST PUSH1 0x40 MLOAD PUSH2 0x40A SWAP2 SWAP1 PUSH2 0x2587 JUMP JUMPDEST PUSH1 0x40 MLOAD DUP1 SWAP2 SUB SWAP1 RETURN JUMPDEST PUSH2 0x42D PUSH1 0x4 DUP1 CALLDATASIZE SUB DUP2 ADD SWAP1 PUSH2 0x428 SWAP2 SWAP1 PUSH2 0x28A5 JUMP JUMPDEST PUSH2 0xC8F JUMP JUMPDEST STOP JUMPDEST PUSH0 PUSH2 0x439 DUP3 PUSH2 0xD11 JUMP JUMPDEST SWAP1 POP SWAP2 SWAP1 POP JUMP JUMPDEST PUSH1 0x60 PUSH1 0x1 DUP1 SLOAD PUSH2 0x44F SWAP1 PUSH2 0x2BA5 JUMP JUMPDEST DUP1 PUSH1 0x1F ADD PUSH1 0x20 DUP1 SWAP2 DIV MUL PUSH1 0x20 ADD PUSH1 0x40 MLOAD SWAP1 DUP2 ADD PUSH1 0x40 MSTORE DUP1 SWAP3 SWAP2 SWAP1 DUP2 DUP2 MSTORE PUSH1 0x20 ADD DUP3 DUP1 SLOAD PUSH2 0x47B SWAP1 PUSH2 0x2BA5 JUMP JUMPDEST DUP1 ISZERO PUSH2 0x4C6 JUMPI DUP1 PUSH1 0x1F LT PUSH2 0x49D JUMPI PUSH2 0x100 DUP1 DUP4 SLOAD DIV MUL DUP4 MSTORE SWAP2 PUSH1 0x20 ADD SWAP2 PUSH2 0x4C6 JUMP JUMPDEST DUP3 ADD SWAP2 SWAP1 PUSH0 MSTORE PUSH1 0x20 PUSH0 KECCAK256 SWAP1 JUMPDEST DUP2 SLOAD DUP2 MSTORE SWAP1 PUSH1 0x1 ADD SWAP1 PUSH1 0x20 ADD DUP1 DUP4 GT PUSH2 0x4A9 JUMPI DUP3 SWAP1 SUB PUSH1 0x1F AND DUP3 ADD SWAP2 JUMPDEST POP POP POP POP POP SWAP1 POP SWAP1 JUMP JUMPDEST PUSH0 PUSH2 0x4DA DUP3 PUSH2 0xD71 JUMP JUMPDEST PUSH1 0x5 PUSH0 DUP4 DUP2 MSTORE PUSH1 0x20 ADD SWAP1 DUP2 MSTORE PUSH1 0x20 ADD PUSH0 KECCAK256 PUSH0 SWAP1 SLOAD SWAP1 PUSH2 0x100 EXP SWAP1 DIV PUSH20 0xFFFFFFFFFFFFFFFFFFFFFFFFFFFFFFFFFFFFFFFF AND SWAP1 POP SWAP2 SWAP1 POP JUMP JUMPDEST PUSH0 PUSH2 0x51C DUP3 PUSH2 0x934 JUMP JUMPDEST SWAP1 POP DUP1 PUSH20 0xFFFFFFFFFFFFFFFFFFFFFFFFFFFFFFFFFFFFFFFF AND DUP4 PUSH20 0xFFFFFFFFFFFFFFFFFFFFFFFFFFFFFFFFFFFFFFFF AND SUB PUSH2 0x58C JUMPI PUSH1 0x40 MLOAD PUSH32 0x8C379A000000000000000000000000000000000000000000000000000000000 DUP2 MSTORE PUSH1 0x4 ADD PUSH2 0x583 SWAP1 PUSH2 0x2C45 JUMP JUMPDEST PUSH1 0x40 MLOAD DUP1 SWAP2 SUB SWAP1 REVERT JUMPDEST DUP1 PUSH20 0xFFFFFFFFFFFFFFFFFFFFFFFFFFFFFFFFFFFFFFFF AND PUSH2 0x5AB PUSH2 0xDBC JUMP JUMPDEST PUSH20 0xFFFFFFFFFFFFFFFFFFFFFFFFFFFFFFFFFFFFFFFF AND EQ DUP1 PUSH2 0x5DA JUMPI POP PUSH2 0x5D9 DUP2 PUSH2 0x5D4 PUSH2 0xDBC JUMP JUMPDEST PUSH2 0xC01 JUMP JUMPDEST JUMPDEST PUSH2 0x619 JUMPI PUSH1 0x40 MLOAD PUSH32 0x8C379A000000000000000000000000000000000000000000000000000000000 DUP2 MSTORE PUSH1 0x4 ADD PUSH2 0x610 SWAP1 PUSH2 0x2CD3 JUMP JUMPDEST PUSH1 0x40 MLOAD DUP1 SWAP2 SUB SWAP1 REVERT JUMPDEST PUSH2 0x623 DUP4 DUP4 PUSH2 0xDC3 JUMP JUMPDEST POP POP POP JUMP JUMPDEST PUSH0 PUSH1 0x9 DUP1 SLOAD SWAP1 POP SWAP1 POP SWAP1 JUMP JUMPDEST PUSH0 PUSH1 0x1 SWAP1 SLOAD SWAP1 PUSH2 0x100 EXP SWAP1 DIV PUSH1 0xFF AND PUSH2 0x65B JUMPI PUSH0 PUSH0 SWAP1 SLOAD SWAP1 PUSH2 0x100 EXP SWAP1 DIV PUSH1 0xFF AND ISZERO PUSH2 0x664 JUMP JUMPDEST PUSH2 0x663 PUSH2 0xE79 JUMP JUMPDEST JUMPDEST PUSH2 0x6A3 JUMPI PUSH1 0x40 MLOAD PUSH32 0x8C379A000000000000000000000000000000000000000000000000000000000 DUP2 MSTORE PUSH1 0x4 ADD PUSH2 0x69A SWAP1 PUSH2 0x2D61 JUMP JUMPDEST PUSH1 0x40 MLOAD DUP1 SWAP2 SUB SWAP1 REVERT JUMPDEST PUSH0 PUSH0 PUSH1 0x1 SWAP1 SLOAD SWAP1 PUSH2 0x100 EXP SWAP1 DIV PUSH1 0xFF AND ISZERO SWAP1 POP DUP1 ISZERO PUSH2 0x6F0 JUMPI PUSH1 0x1 PUSH0 PUSH1 0x1 PUSH2 0x100 EXP DUP2 SLOAD DUP2 PUSH1 0xFF MUL NOT AND SWAP1 DUP4 ISZERO ISZERO MUL OR SWAP1 SSTORE POP PUSH1 0x1 PUSH0 PUSH0 PUSH2 0x100 EXP DUP2 SLOAD DUP2 PUSH1 0xFF MUL NOT AND SWAP1 DUP4 ISZERO ISZERO MUL OR SWAP1 SSTORE POP JUMPDEST PUSH2 0x780 DUP6 DUP6 DUP1 DUP1 PUSH1 0x1F ADD PUSH1 0x20 DUP1 SWAP2 DIV MUL PUSH1 0x20 ADD PUSH1 0x40 MLOAD SWAP1 DUP2 ADD PUSH1 0x40 MSTORE DUP1 SWAP4 SWAP3 SWAP2 SWAP1 DUP2 DUP2 MSTORE PUSH1 0x20 ADD DUP4 DUP4 DUP1 DUP3 DUP5 CALLDATACOPY PUSH0 DUP2 DUP5 ADD MSTORE PUSH1 0x1F NOT PUSH1 0x1F DUP3 ADD AND SWAP1 POP DUP1 DUP4 ADD SWAP3 POP POP POP POP POP POP POP DUP5 DUP5 DUP1 DUP1 PUSH1 0x1F ADD PUSH1 0x20 DUP1 SWAP2 DIV MUL PUSH1 0x20 ADD PUSH1 0x40 MLOAD SWAP1 DUP2 ADD PUSH1 0x40 MSTORE DUP1 SWAP4 SWAP3 SWAP2 SWAP1 DUP2 DUP2 MSTORE PUSH1 0x20 ADD DUP4 DUP4 DUP1 DUP3 DUP5 CALLDATACOPY PUSH0 DUP2 DUP5 ADD MSTORE PUSH1 0x1F NOT PUSH1 0x1F DUP3 ADD AND SWAP1 POP DUP1 DUP4 ADD SWAP3 POP POP POP POP POP POP POP PUSH2 0xE89 JUMP JUMPDEST DUP1 ISZERO PUSH2 0x7A0 JUMPI PUSH0 PUSH0 PUSH1 0x1 PUSH2 0x100 EXP DUP2 SLOAD DUP2 PUSH1 0xFF MUL NOT AND SWAP1 DUP4 ISZERO ISZERO MUL OR SWAP1 SSTORE POP JUMPDEST POP POP POP POP POP JUMP JUMPDEST PUSH2 0x7B8 PUSH2 0x7B2 PUSH2 0xDBC JUMP JUMPDEST DUP3 PUSH2 0xEE5 JUMP JUMPDEST PUSH2 0x7F7 JUMPI PUSH1 0x40 MLOAD PUSH32 0x8C379A000000000000000000000000000000000000000000000000000000000 DUP2 MSTORE PUSH1 0x4 ADD PUSH2 0x7EE SWAP1 PUSH2 0x2DEF JUMP JUMPDEST PUSH1 0x40 MLOAD DUP1 SWAP2 SUB SWAP1 REVERT JUMPDEST PUSH2 0x802 DUP4 DUP4 DUP4 PUSH2 0xF79 JUMP JUMPDEST POP POP POP JUMP JUMPDEST PUSH0 PUSH2 0x811 DUP4 PUSH2 0x9B8 JUMP JUMPDEST DUP3 LT PUSH2 0x852 JUMPI PUSH1 0x40 MLOAD PUSH32 0x8C379A000000000000000000000000000000000000000000000000000000000 DUP2 MSTORE PUSH1 0x4 ADD PUSH2 0x849 SWAP1 PUSH2 0x2E7D JUMP JUMPDEST PUSH1 0x40 MLOAD DUP1 SWAP2 SUB SWAP1 REVERT JUMPDEST PUSH1 0x7 PUSH0 DUP5 PUSH20 0xFFFFFFFFFFFFFFFFFFFFFFFFFFFFFFFFFFFFFFFF AND PUSH20 0xFFFFFFFFFFFFFFFFFFFFFFFFFFFFFFFFFFFFFFFF AND DUP2 MSTORE PUSH1 0x20 ADD SWAP1 DUP2 MSTORE PUSH1 0x20 ADD PUSH0 KECCAK256 PUSH0 DUP4 DUP2 MSTORE PUSH1 0x20 ADD SWAP1 DUP2 MSTORE PUSH1 0x20 ADD PUSH0 KECCAK256 SLOAD SWAP1 POP SWAP3 SWAP2 POP POP JUMP JUMPDEST PUSH2 0x8C1 DUP4 DUP4 DUP4 PUSH1 0x40 MLOAD DUP1 PUSH1 0x20 ADD PUSH1 0x40 MSTORE DUP1 PUSH0 DUP2 MSTORE POP PUSH2 0xB8D JUMP JUMPDEST POP POP POP JUMP JUMPDEST PUSH0 PUSH2 0x8CF PUSH2 0x628 JUMP JUMPDEST DUP3 LT PUSH2 0x910 JUMPI PUSH1 0x40 MLOAD PUSH32 0x8C379A000000000000000000000000000000000000000000000000000000000 DUP2 MSTORE PUSH1 0x4 ADD PUSH2 0x907 SWAP1 PUSH2 0x2F0B JUMP JUMPDEST PUSH1 0x40 MLOAD DUP1 SWAP2 SUB SWAP1 REVERT JUMPDEST PUSH1 0x9 DUP3 DUP2 SLOAD DUP2 LT PUSH2 0x924 JUMPI PUSH2 0x923 PUSH2 0x2F29 JUMP JUMPDEST JUMPDEST SWAP1 PUSH0 MSTORE PUSH1 0x20 PUSH0 KECCAK256 ADD SLOAD SWAP1 POP SWAP2 SWAP1 POP JUMP JUMPDEST PUSH0 PUSH0 PUSH2 0x93F DUP4 PUSH2 0x1265 JUMP JUMPDEST SWAP1 POP PUSH0 PUSH20 0xFFFFFFFFFFFFFFFFFFFFFFFFFFFFFFFFFFFFFFFF AND DUP2 PUSH20 0xFFFFFFFFFFFFFFFFFFFFFFFFFFFFFFFFFFFFFFFF AND SUB PUSH2 0x9AF JUMPI PUSH1 0x40 MLOAD PUSH32 0x8C379A000000000000000000000000000000000000000000000000000000000 DUP2 MSTORE PUSH1 0x4 ADD PUSH2 0x9A6 SWAP1 PUSH2 0x2FA0 JUMP JUMPDEST PUSH1 0x40 MLOAD DUP1 SWAP2 SUB SWAP1 REVERT JUMPDEST DUP1 SWAP2 POP POP SWAP2 SWAP1 POP JUMP JUMPDEST PUSH0 PUSH0 PUSH20 0xFFFFFFFFFFFFFFFFFFFFFFFFFFFFFFFFFFFFFFFF AND DUP3 PUSH20 0xFFFFFFFFFFFFFFFFFFFFFFFFFFFFFFFFFFFFFFFF AND SUB PUSH2 0xA27 JUMPI PUSH1 0x40 MLOAD PUSH32 0x8C379A000000000000000000000000000000000000000000000000000000000 DUP2 MSTORE PUSH1 0x4 ADD PUSH2 0xA1E SWAP1 PUSH2 0x302E JUMP JUMPDEST PUSH1 0x40 MLOAD DUP1 SWAP2 SUB SWAP1 REVERT JUMPDEST PUSH1 0x4 PUSH0 DUP4 PUSH20 0xFFFFFFFFFFFFFFFFFFFFFFFFFFFFFFFFFFFFFFFF AND PUSH20 0xFFFFFFFFFFFFFFFFFFFFFFFFFFFFFFFFFFFFFFFF AND DUP2 MSTORE PUSH1 0x20 ADD SWAP1 DUP2 MSTORE PUSH1 0x20 ADD PUSH0 KECCAK256 SLOAD SWAP1 POP SWAP2 SWAP1 POP JUMP JUMPDEST PUSH2 0xA74 PUSH2 0x129E JUMP JUMPDEST PUSH2 0xA7D PUSH0 PUSH2 0x131C JUMP JUMPDEST JUMP JUMPDEST PUSH0 PUSH2 0xA88 PUSH2 0x129E JUMP JUMPDEST PUSH0 PUSH1 0xD PUSH0 DUP2 SLOAD DUP1 SWAP3 SWAP2 SWAP1 PUSH2 0xA9B SWAP1 PUSH2 0x3079 JUMP JUMPDEST SWAP2 SWAP1 POP SSTORE SWAP1 POP PUSH2 0xAAB DUP5 DUP3 PUSH2 0x13DF JUMP JUMPDEST PUSH2 0xAB5 DUP2 DUP5 PUSH2 0x13FC JUMP JUMPDEST DUP1 SWAP2 POP POP SWAP3 SWAP2 POP POP JUMP JUMPDEST PUSH0 PUSH1 0xC PUSH0 SWAP1 SLOAD SWAP1 PUSH2 0x100 EXP SWAP1 DIV PUSH20 0xFFFFFFFFFFFFFFFFFFFFFFFFFFFFFFFFFFFFFFFF AND SWAP1 POP SWAP1 JUMP JUMPDEST PUSH1 0x60 PUSH1 0x2 DUP1 SLOAD PUSH2 0xAF6 SWAP1 PUSH2 0x2BA5 JUMP JUMPDEST DUP1 PUSH1 0x1F ADD PUSH1 0x20 DUP1 SWAP2 DIV MUL PUSH1 0x20 ADD PUSH1 0x40 MLOAD SWAP1 DUP2 ADD PUSH1 0x40 MSTORE DUP1 SWAP3 SWAP2 SWAP1 DUP2 DUP2 MSTORE PUSH1 0x20 ADD DUP3 DUP1 SLOAD PUSH2 0xB22 SWAP1 PUSH2 0x2BA5 JUMP JUMPDEST DUP1 ISZERO PUSH2 0xB6D JUMPI DUP1 PUSH1 0x1F LT PUSH2 0xB44 JUMPI PUSH2 0x100 DUP1 DUP4 SLOAD DIV MUL DUP4 MSTORE SWAP2 PUSH1 0x20 ADD SWAP2 PUSH2 0xB6D JUMP JUMPDEST DUP3 ADD SWAP2 SWAP1 PUSH0 MSTORE PUSH1 0x20 PUSH0 KECCAK256 SWAP1 JUMPDEST DUP2 SLOAD DUP2 MSTORE SWAP1 PUSH1 0x1 ADD SWAP1 PUSH1 0x20 ADD DUP1 DUP4 GT PUSH2 0xB50 JUMPI DUP3 SWAP1 SUB PUSH1 0x1F AND DUP3 ADD SWAP2 JUMPDEST POP POP POP POP POP SWAP1 POP SWAP1 JUMP JUMPDEST PUSH2 0xB89 PUSH2 0xB82 PUSH2 0xDBC JUMP JUMPDEST DUP4 DUP4 PUSH2 0x149E JUMP JUMPDEST POP POP JUMP JUMPDEST PUSH2 0xB9E PUSH2 0xB98 PUSH2 0xDBC JUMP JUMPDEST DUP4 PUSH2 0xEE5 JUMP JUMPDEST PUSH2 0xBDD JUMPI PUSH1 0x40 MLOAD PUSH32 0x8C379A000000000000000000000000000000000000000000000000000000000 DUP2 MSTORE PUSH1 0x4 ADD PUSH2 0xBD4 SWAP1 PUSH2 0x2DEF JUMP JUMPDEST PUSH1 0x40 MLOAD DUP1 SWAP2 SUB SWAP1 REVERT JUMPDEST PUSH2 0xBE9 DUP5 DUP5 DUP5 DUP5 PUSH2 0x1605 JUMP JUMPDEST POP POP POP POP JUMP JUMPDEST PUSH1 0x60 PUSH2 0xBFA DUP3 PUSH2 0x1661 JUMP JUMPDEST SWAP1 POP SWAP2 SWAP1 POP JUMP JUMPDEST PUSH0 PUSH1 0x6 PUSH0 DUP5 PUSH20 0xFFFFFFFFFFFFFFFFFFFFFFFFFFFFFFFFFFFFFFFF AND PUSH20 0xFFFFFFFFFFFFFFFFFFFFFFFFFFFFFFFFFFFFFFFF AND DUP2 MSTORE PUSH1 0x20 ADD SWAP1 DUP2 MSTORE PUSH1 0x20 ADD PUSH0 KECCAK256 PUSH0 DUP4 PUSH20 0xFFFFFFFFFFFFFFFFFFFFFFFFFFFFFFFFFFFFFFFF AND PUSH20 0xFFFFFFFFFFFFFFFFFFFFFFFFFFFFFFFFFFFFFFFF AND DUP2 MSTORE PUSH1 0x20 ADD SWAP1 DUP2 MSTORE PUSH1 0x20 ADD PUSH0 KECCAK256 PUSH0 SWAP1 SLOAD SWAP1 PUSH2 0x100 EXP SWAP1 DIV PUSH1 0xFF AND SWAP1 POP SWAP3 SWAP2 POP POP JUMP JUMPDEST PUSH2 0xC97 PUSH2 0x129E JUMP JUMPDEST PUSH0 PUSH20 0xFFFFFFFFFFFFFFFFFFFFFFFFFFFFFFFFFFFFFFFF AND DUP2 PUSH20 0xFFFFFFFFFFFFFFFFFFFFFFFFFFFFFFFFFFFFFFFF AND SUB PUSH2 0xD05 JUMPI PUSH1 0x40 MLOAD PUSH32 0x8C379A000000000000000000000000000000000000000000000000000000000 DUP2 MSTORE PUSH1 0x4 ADD PUSH2 0xCFC SWAP1 PUSH2 0x3130 JUMP JUMPDEST PUSH1 0x40 MLOAD DUP1 SWAP2 SUB SWAP1 REVERT JUMPDEST PUSH2 0xD0E DUP2 PUSH2 0x131C JUMP JUMPDEST POP JUMP JUMPDEST PUSH0 PUSH4 0x49064906 PUSH1 0xE0 SHL PUSH28 0xFFFFFFFFFFFFFFFFFFFFFFFFFFFFFFFFFFFFFFFFFFFFFFFFFFFFFFFF NOT AND DUP3 PUSH28 0xFFFFFFFFFFFFFFFFFFFFFFFFFFFFFFFFFFFFFFFFFFFFFFFFFFFFFFFF NOT AND EQ DUP1 PUSH2 0xD6A JUMPI POP PUSH2 0xD69 DUP3 PUSH2 0x176B JUMP JUMPDEST JUMPDEST SWAP1 POP SWAP2 SWAP1 POP JUMP JUMPDEST PUSH2 0xD7A DUP2 PUSH2 0x17E4 JUMP JUMPDEST PUSH2 0xDB9 JUMPI PUSH1 0x40 MLOAD PUSH32 0x8C379A000000000000000000000000000000000000000000000000000000000 DUP2 MSTORE PUSH1 0x4 ADD PUSH2 0xDB0 SWAP1 PUSH2 0x2FA0 JUMP JUMPDEST PUSH1 0x40 MLOAD DUP1 SWAP2 SUB SWAP1 REVERT JUMPDEST POP JUMP JUMPDEST PUSH0 CALLER SWAP1 POP SWAP1 JUMP JUMPDEST DUP2 PUSH1 0x5 PUSH0 DUP4 DUP2 MSTORE PUSH1 0x20 ADD SWAP1 DUP2 MSTORE PUSH1 0x20 ADD PUSH0 KECCAK256 PUSH0 PUSH2 0x100 EXP DUP2 SLOAD DUP2 PUSH20 0xFFFFFFFFFFFFFFFFFFFFFFFFFFFFFFFFFFFFFFFF MUL NOT AND SWAP1 DUP4 PUSH20 0xFFFFFFFFFFFFFFFFFFFFFFFFFFFFFFFFFFFFFFFF AND MUL OR SWAP1 SSTORE POP DUP1 DUP3 PUSH20 0xFFFFFFFFFFFFFFFFFFFFFFFFFFFFFFFFFFFFFFFF AND PUSH2 0xE33 DUP4 PUSH2 0x934 JUMP JUMPDEST PUSH20 0xFFFFFFFFFFFFFFFFFFFFFFFFFFFFFFFFFFFFFFFF AND PUSH32 0x8C5BE1E5EBEC7D5BD14F71427D1E84F3DD0314C0F7B2291E5B200AC8C7C3B925 PUSH1 0x40 MLOAD PUSH1 0x40 MLOAD DUP1 SWAP2 SUB SWAP1 LOG4 POP POP JUMP JUMPDEST PUSH0 PUSH2 0xE83 ADDRESS PUSH2 0x1824 JUMP JUMPDEST ISZERO SWAP1 POP SWAP1 JUMP JUMPDEST PUSH0 PUSH1 0x1 SWAP1 SLOAD SWAP1 PUSH2 0x100 EXP SWAP1 DIV PUSH1 0xFF AND PUSH2 0xED7 JUMPI PUSH1 0x40 MLOAD PUSH32 0x8C379A000000000000000000000000000000000000000000000000000000000 DUP2 MSTORE PUSH1 0x4 ADD PUSH2 0xECE SWAP1 PUSH2 0x31BE JUMP JUMPDEST PUSH1 0x40 MLOAD DUP1 SWAP2 SUB SWAP1 REVERT JUMPDEST PUSH2 0xEE1 DUP3 DUP3 PUSH2 0x1846 JUMP JUMPDEST POP POP JUMP JUMPDEST PUSH0 PUSH0 PUSH2 0xEF0 DUP4 PUSH2 0x934 JUMP JUMPDEST SWAP1 POP DUP1 PUSH20 0xFFFFFFFFFFFFFFFFFFFFFFFFFFFFFFFFFFFFFFFF AND DUP5 PUSH20 0xFFFFFFFFFFFFFFFFFFFFFFFFFFFFFFFFFFFFFFFF AND EQ DUP1 PUSH2 0xF32 JUMPI POP PUSH2 0xF31 DUP2 DUP6 PUSH2 0xC01 JUMP JUMPDEST JUMPDEST DUP1 PUSH2 0xF70 JUMPI POP DUP4 PUSH20 0xFFFFFFFFFFFFFFFFFFFFFFFFFFFFFFFFFFFFFFFF AND PUSH2 0xF58 DUP5 PUSH2 0x4D0 JUMP JUMPDEST PUSH20 0xFFFFFFFFFFFFFFFFFFFFFFFFFFFFFFFFFFFFFFFF AND EQ JUMPDEST SWAP2 POP POP SWAP3 SWAP2 POP POP JUMP JUMPDEST DUP3 PUSH20 0xFFFFFFFFFFFFFFFFFFFFFFFFFFFFFFFFFFFFFFFF AND PUSH2 0xF99 DUP3 PUSH2 0x934 JUMP JUMPDEST PUSH20 0xFFFFFFFFFFFFFFFFFFFFFFFFFFFFFFFFFFFFFFFF AND EQ PUSH2 0xFEF JUMPI PUSH1 0x40 MLOAD PUSH32 0x8C379A000000000000000000000000000000000000000000000000000000000 DUP2 MSTORE PUSH1 0x4 ADD PUSH2 0xFE6 SWAP1 PUSH2 0x324C JUMP JUMPDEST PUSH1 0x40 MLOAD DUP1 SWAP2 SUB SWAP1 REVERT JUMPDEST PUSH0 PUSH20 0xFFFFFFFFFFFFFFFFFFFFFFFFFFFFFFFFFFFFFFFF AND DUP3 PUSH20 0xFFFFFFFFFFFFFFFFFFFFFFFFFFFFFFFFFFFFFFFF AND SUB PUSH2 0x105D JUMPI PUSH1 0x40 MLOAD PUSH32 0x8C379A000000000000000000000000000000000000000000000000000000000 DUP2 MSTORE PUSH1 0x4 ADD PUSH2 0x1054 SWAP1 PUSH2 0x32DA JUMP JUMPDEST PUSH1 0x40 MLOAD DUP1 SWAP2 SUB SWAP1 REVERT JUMPDEST PUSH2 0x106A DUP4 DUP4 DUP4 PUSH1 0x1 PUSH2 0x18B8 JUMP JUMPDEST DUP3 PUSH20 0xFFFFFFFFFFFFFFFFFFFFFFFFFFFFFFFFFFFFFFFF AND PUSH2 0x108A DUP3 PUSH2 0x934 JUMP JUMPDEST PUSH20 0xFFFFFFFFFFFFFFFFFFFFFFFFFFFFFFFFFFFFFFFF AND EQ PUSH2 0x10E0 JUMPI PUSH1 0x40 MLOAD PUSH32 0x8C379A000000000000000000000000000000000000000000000000000000000 DUP2 MSTORE PUSH1 0x4 ADD PUSH2 0x10D7 SWAP1 PUSH2 0x324C JUMP JUMPDEST PUSH1 0x40 MLOAD DUP1 SWAP2 SUB SWAP1 REVERT JUMPDEST PUSH1 0x5 PUSH0 DUP3 DUP2 MSTORE PUSH1 0x20 ADD SWAP1 DUP2 MSTORE PUSH1 0x20 ADD PUSH0 KECCAK256 PUSH0 PUSH2 0x100 EXP DUP2 SLOAD SWAP1 PUSH20 0xFFFFFFFFFFFFFFFFFFFFFFFFFFFFFFFFFFFFFFFF MUL NOT AND SWAP1 SSTORE PUSH1 0x1 PUSH1 0x4 PUSH0 DUP6 PUSH20 0xFFFFFFFFFFFFFFFFFFFFFFFFFFFFFFFFFFFFFFFF AND PUSH20 0xFFFFFFFFFFFFFFFFFFFFFFFFFFFFFFFFFFFFFFFF AND DUP2 MSTORE PUSH1 0x20 ADD SWAP1 DUP2 MSTORE PUSH1 0x20 ADD PUSH0 KECCAK256 PUSH0 DUP3 DUP3 SLOAD SUB SWAP3 POP POP DUP2 SWAP1 SSTORE POP PUSH1 0x1 PUSH1 0x4 PUSH0 DUP5 PUSH20 0xFFFFFFFFFFFFFFFFFFFFFFFFFFFFFFFFFFFFFFFF AND PUSH20 0xFFFFFFFFFFFFFFFFFFFFFFFFFFFFFFFFFFFFFFFF AND DUP2 MSTORE PUSH1 0x20 ADD SWAP1 DUP2 MSTORE PUSH1 0x20 ADD PUSH0 KECCAK256 PUSH0 DUP3 DUP3 SLOAD ADD SWAP3 POP POP DUP2 SWAP1 SSTORE POP DUP2 PUSH1 0x3 PUSH0 DUP4 DUP2 MSTORE PUSH1 0x20 ADD SWAP1 DUP2 MSTORE PUSH1 0x20 ADD PUSH0 KECCAK256 PUSH0 PUSH2 0x100 EXP DUP2 SLOAD DUP2 PUSH20 0xFFFFFFFFFFFFFFFFFFFFFFFFFFFFFFFFFFFFFFFF MUL NOT AND SWAP1 DUP4 PUSH20 0xFFFFFFFFFFFFFFFFFFFFFFFFFFFFFFFFFFFFFFFF AND MUL OR SWAP1 SSTORE POP DUP1 DUP3 PUSH20 0xFFFFFFFFFFFFFFFFFFFFFFFFFFFFFFFFFFFFFFFF AND DUP5 PUSH20 0xFFFFFFFFFFFFFFFFFFFFFFFFFFFFFFFFFFFFFFFF AND PUSH32 0xDDF252AD1BE2C89B69C2B068FC378DAA952BA7F163C4A11628F55A4DF523B3EF PUSH1 0x40 MLOAD PUSH1 0x40 MLOAD DUP1 SWAP2 SUB SWAP1 LOG4 PUSH2 0x1260 DUP4 DUP4 DUP4 PUSH1 0x1 PUSH2 0x18CA JUMP JUMPDEST POP POP POP JUMP JUMPDEST PUSH0 PUSH1 0x3 PUSH0 DUP4 DUP2 MSTORE PUSH1 0x20 ADD SWAP1 DUP2 MSTORE PUSH1 0x20 ADD PUSH0 KECCAK256 PUSH0 SWAP1 SLOAD SWAP1 PUSH2 0x100 EXP SWAP1 DIV PUSH20 0xFFFFFFFFFFFFFFFFFFFFFFFFFFFFFFFFFFFFFFFF AND SWAP1 POP SWAP2 SWAP1 POP JUMP JUMPDEST PUSH2 0x12A6 PUSH2 0xDBC JUMP JUMPDEST PUSH20 0xFFFFFFFFFFFFFFFFFFFFFFFFFFFFFFFFFFFFFFFF AND PUSH2 0x12C4 PUSH2 0xABF JUMP JUMPDEST PUSH20 0xFFFFFFFFFFFFFFFFFFFFFFFFFFFFFFFFFFFFFFFF AND EQ PUSH2 0x131A JUMPI PUSH1 0x40 MLOAD PUSH32 0x8C379A000000000000000000000000000000000000000000000000000000000 DUP2 MSTORE PUSH1 0x4 ADD PUSH2 0x1311 SWAP1 PUSH2 0x3342 JUMP JUMPDEST PUSH1 0x40 MLOAD DUP1 SWAP2 SUB SWAP1 REVERT JUMPDEST JUMP JUMPDEST PUSH0 PUSH1 0xC PUSH0 SWAP1 SLOAD SWAP1 PUSH2 0x100 EXP SWAP1 DIV PUSH20 0xFFFFFFFFFFFFFFFFFFFFFFFFFFFFFFFFFFFFFFFF AND SWAP1 POP DUP2 PUSH1 0xC PUSH0 PUSH2 0x100 EXP DUP2 SLOAD DUP2 PUSH20 0xFFFFFFFFFFFFFFFFFFFFFFFFFFFFFFFFFFFFFFFF MUL NOT AND SWAP1 DUP4 PUSH20 0xFFFFFFFFFFFFFFFFFFFFFFFFFFFFFFFFFFFFFFFF AND MUL OR SWAP1 SSTORE POP DUP2 PUSH20 0xFFFFFFFFFFFFFFFFFFFFFFFFFFFFFFFFFFFFFFFF AND DUP2 PUSH20 0xFFFFFFFFFFFFFFFFFFFFFFFFFFFFFFFFFFFFFFFF AND PUSH32 0x8BE0079C531659141344CD1FD0A4F28419497F9722A3DAAFE3B4186F6B6457E0 PUSH1 0x40 MLOAD PUSH1 0x40 MLOAD DUP1 SWAP2 SUB SWAP1 LOG3 POP POP JUMP JUMPDEST PUSH2 0x13F8 DUP3 DUP3 PUSH1 0x40 MLOAD DUP1 PUSH1 0x20 ADD PUSH1 0x40 MSTORE DUP1 PUSH0 DUP2 MSTORE POP PUSH2 0x18D0 JUMP JUMPDEST POP POP JUMP JUMPDEST PUSH2 0x1405 DUP3 PUSH2 0x17E4 JUMP JUMPDEST PUSH2 0x1444 JUMPI PUSH1 0x40 MLOAD PUSH32 0x8C379A000000000000000000000000000000000000000000000000000000000 DUP2 MSTORE PUSH1 0x4 ADD PUSH2 0x143B SWAP1 PUSH2 0x33D0 JUMP JUMPDEST PUSH1 0x40 MLOAD DUP1 SWAP2 SUB SWAP1 REVERT JUMPDEST DUP1 PUSH1 0xB PUSH0 DUP5 DUP2 MSTORE PUSH1 0x20 ADD SWAP1 DUP2 MSTORE PUSH1 0x20 ADD PUSH0 KECCAK256 SWAP1 DUP2 PUSH2 0x1462 SWAP2 SWAP1 PUSH2 0x358E JUMP JUMPDEST POP PUSH32 0xF8E1A15ABA9398E019F0B49DF1A4FDE98EE17AE345CB5F6B5E2C27F5033E8CE7 DUP3 PUSH1 0x40 MLOAD PUSH2 0x1492 SWAP2 SWAP1 PUSH2 0x275D JUMP JUMPDEST PUSH1 0x40 MLOAD DUP1 SWAP2 SUB SWAP1 LOG1 POP POP JUMP JUMPDEST DUP2 PUSH20 0xFFFFFFFFFFFFFFFFFFFFFFFFFFFFFFFFFFFFFFFF AND DUP4 PUSH20 0xFFFFFFFFFFFFFFFFFFFFFFFFFFFFFFFFFFFFFFFF AND SUB PUSH2 0x150C JUMPI PUSH1 0x40 MLOAD PUSH32 0x8C379A000000000000000000000000000000000000000000000000000000000 DUP2 MSTORE PUSH1 0x4 ADD PUSH2 0x1503 SWAP1 PUSH2 0x36A7 JUMP JUMPDEST PUSH1 0x40 MLOAD DUP1 SWAP2 SUB SWAP1 REVERT JUMPDEST DUP1 PUSH1 0x6 PUSH0 DUP6 PUSH20 0xFFFFFFFFFFFFFFFFFFFFFFFFFFFFFFFFFFFFFFFF AND PUSH20 0xFFFFFFFFFFFFFFFFFFFFFFFFFFFFFFFFFFFFFFFF AND DUP2 MSTORE PUSH1 0x20 ADD SWAP1 DUP2 MSTORE PUSH1 0x20 ADD PUSH0 KECCAK256 PUSH0 DUP5 PUSH20 0xFFFFFFFFFFFFFFFFFFFFFFFFFFFFFFFFFFFFFFFF AND PUSH20 0xFFFFFFFFFFFFFFFFFFFFFFFFFFFFFFFFFFFFFFFF AND DUP2 MSTORE PUSH1 0x20 ADD SWAP1 DUP2 MSTORE PUSH1 0x20 ADD PUSH0 KECCAK256 PUSH0 PUSH2 0x100 EXP DUP2 SLOAD DUP2 PUSH1 0xFF MUL NOT AND SWAP1 DUP4 ISZERO ISZERO MUL OR SWAP1 SSTORE POP DUP2 PUSH20 0xFFFFFFFFFFFFFFFFFFFFFFFFFFFFFFFFFFFFFFFF AND DUP4 PUSH20 0xFFFFFFFFFFFFFFFFFFFFFFFFFFFFFFFFFFFFFFFF AND PUSH32 0x17307EAB39AB6107E8899845AD3D59BD9653F200F220920489CA2B5937696C31 DUP4 PUSH1 0x40 MLOAD PUSH2 0x15F8 SWAP2 SWAP1 PUSH2 0x2587 JUMP JUMPDEST PUSH1 0x40 MLOAD DUP1 SWAP2 SUB SWAP1 LOG3 POP POP POP JUMP JUMPDEST PUSH2 0x1610 DUP5 DUP5 DUP5 PUSH2 0xF79 JUMP JUMPDEST PUSH2 0x161C DUP5 DUP5 DUP5 DUP5 PUSH2 0x192A JUMP JUMPDEST PUSH2 0x165B JUMPI PUSH1 0x40 MLOAD PUSH32 0x8C379A000000000000000000000000000000000000000000000000000000000 DUP2 MSTORE PUSH1 0x4 ADD PUSH2 0x1652 SWAP1 PUSH2 0x3735 JUMP JUMPDEST PUSH1 0x40 MLOAD DUP1 SWAP2 SUB SWAP1 REVERT JUMPDEST POP POP POP POP JUMP JUMPDEST PUSH1 0x60 PUSH2 0x166C DUP3 PUSH2 0xD71 JUMP JUMPDEST PUSH0 PUSH1 0xB PUSH0 DUP5 DUP2 MSTORE PUSH1 0x20 ADD SWAP1 DUP2 MSTORE PUSH1 0x20 ADD PUSH0 KECCAK256 DUP1 SLOAD PUSH2 0x1689 SWAP1 PUSH2 0x2BA5 JUMP JUMPDEST DUP1 PUSH1 0x1F ADD PUSH1 0x20 DUP1 SWAP2 DIV MUL PUSH1 0x20 ADD PUSH1 0x40 MLOAD SWAP1 DUP2 ADD PUSH1 0x40 MSTORE DUP1 SWAP3 SWAP2 SWAP1 DUP2 DUP2 MSTORE PUSH1 0x20 ADD DUP3 DUP1 SLOAD PUSH2 0x16B5 SWAP1 PUSH2 0x2BA5 JUMP JUMPDEST DUP1 ISZERO PUSH2 0x1700 JUMPI DUP1 PUSH1 0x1F LT PUSH2 0x16D7 JUMPI PUSH2 0x100 DUP1 DUP4 SLOAD DIV MUL DUP4 MSTORE SWAP2 PUSH1 0x20 ADD SWAP2 PUSH2 0x1700 JUMP JUMPDEST DUP3 ADD SWAP2 SWAP1 PUSH0 MSTORE PUSH1 0x20 PUSH0 KECCAK256 SWAP1 JUMPDEST DUP2 SLOAD DUP2 MSTORE SWAP1 PUSH1 0x1 ADD SWAP1 PUSH1 0x20 ADD DUP1 DUP4 GT PUSH2 0x16E3 JUMPI DUP3 SWAP1 SUB PUSH1 0x1F AND DUP3 ADD SWAP2 JUMPDEST POP POP POP POP POP SWAP1 POP PUSH0 PUSH2 0x1710 PUSH2 0x1AAC JUMP JUMPDEST SWAP1 POP PUSH0 DUP2 MLOAD SUB PUSH2 0x1724 JUMPI DUP2 SWAP3 POP POP POP PUSH2 0x1766 JUMP JUMPDEST PUSH0 DUP3 MLOAD GT ISZERO PUSH2 0x1758 JUMPI DUP1 DUP3 PUSH1 0x40 MLOAD PUSH1 0x20 ADD PUSH2 0x1740 SWAP3 SWAP2 SWAP1 PUSH2 0x378D JUMP JUMPDEST PUSH1 0x40 MLOAD PUSH1 0x20 DUP2 DUP4 SUB SUB DUP2 MSTORE SWAP1 PUSH1 0x40 MSTORE SWAP3 POP POP POP PUSH2 0x1766 JUMP JUMPDEST PUSH2 0x1761 DUP5 PUSH2 0x1ACC JUMP JUMPDEST SWAP3 POP POP POP JUMPDEST SWAP2 SWAP1 POP JUMP JUMPDEST PUSH0 PUSH32 0x780E9D6300000000000000000000000000000000000000000000000000000000 PUSH28 0xFFFFFFFFFFFFFFFFFFFFFFFFFFFFFFFFFFFFFFFFFFFFFFFFFFFFFFFF NOT AND DUP3 PUSH28 0xFFFFFFFFFFFFFFFFFFFFFFFFFFFFFFFFFFFFFFFFFFFFFFFFFFFFFFFF NOT AND EQ DUP1 PUSH2 0x17DD JUMPI POP PUSH2 0x17DC DUP3 PUSH2 0x1B31 JUMP JUMPDEST JUMPDEST SWAP1 POP SWAP2 SWAP1 POP JUMP JUMPDEST PUSH0 PUSH0 PUSH20 0xFFFFFFFFFFFFFFFFFFFFFFFFFFFFFFFFFFFFFFFF AND PUSH2 0x1805 DUP4 PUSH2 0x1265 JUMP JUMPDEST PUSH20 0xFFFFFFFFFFFFFFFFFFFFFFFFFFFFFFFFFFFFFFFF AND EQ ISZERO SWAP1 POP SWAP2 SWAP1 POP JUMP JUMPDEST PUSH0 PUSH0 DUP3 PUSH20 0xFFFFFFFFFFFFFFFFFFFFFFFFFFFFFFFFFFFFFFFF AND EXTCODESIZE GT SWAP1 POP SWAP2 SWAP1 POP JUMP JUMPDEST PUSH0 PUSH1 0x1 SWAP1 SLOAD SWAP1 PUSH2 0x100 EXP SWAP1 DIV PUSH1 0xFF AND PUSH2 0x1894 JUMPI PUSH1 0x40 MLOAD PUSH32 0x8C379A000000000000000000000000000000000000000000000000000000000 DUP2 MSTORE PUSH1 0x4 ADD PUSH2 0x188B SWAP1 PUSH2 0x31BE JUMP JUMPDEST PUSH1 0x40 MLOAD DUP1 SWAP2 SUB SWAP1 REVERT JUMPDEST DUP2 PUSH1 0x1 SWAP1 DUP2 PUSH2 0x18A3 SWAP2 SWAP1 PUSH2 0x358E JUMP JUMPDEST POP DUP1 PUSH1 0x2 SWAP1 DUP2 PUSH2 0x18B3 SWAP2 SWAP1 PUSH2 0x358E JUMP JUMPDEST POP POP POP JUMP JUMPDEST PUSH2 0x18C4 DUP5 DUP5 DUP5 DUP5 PUSH2 0x1C12 JUMP JUMPDEST POP POP POP POP JUMP JUMPDEST POP POP POP POP JUMP JUMPDEST PUSH2 0x18DA DUP4 DUP4 PUSH2 0x1D6D JUMP JUMPDEST PUSH2 0x18E6 PUSH0 DUP5 DUP5 DUP5 PUSH2 0x192A JUMP JUMPDEST PUSH2 0x1925 JUMPI PUSH1 0x40 MLOAD PUSH32 0x8C379A000000000000000000000000000000000000000000000000000000000 DUP2 MSTORE PUSH1 0x4 ADD PUSH2 0x191C SWAP1 PUSH2 0x3735 JUMP JUMPDEST PUSH1 0x40 MLOAD DUP1 SWAP2 SUB SWAP1 REVERT JUMPDEST POP POP POP JUMP JUMPDEST PUSH0 PUSH2 0x194A DUP5 PUSH20 0xFFFFFFFFFFFFFFFFFFFFFFFFFFFFFFFFFFFFFFFF AND PUSH2 0x1824 JUMP JUMPDEST ISZERO PUSH2 0x1A9F JUMPI DUP4 PUSH20 0xFFFFFFFFFFFFFFFFFFFFFFFFFFFFFFFFFFFFFFFF AND PUSH4 0x150B7A02 PUSH2 0x1973 PUSH2 0xDBC JUMP JUMPDEST DUP8 DUP7 DUP7 PUSH1 0x40 MLOAD DUP6 PUSH4 0xFFFFFFFF AND PUSH1 0xE0 SHL DUP2 MSTORE PUSH1 0x4 ADD PUSH2 0x1995 SWAP5 SWAP4 SWAP3 SWAP2 SWAP1 PUSH2 0x3802 JUMP JUMPDEST PUSH1 0x20 PUSH1 0x40 MLOAD DUP1 DUP4 SUB DUP2 PUSH0 DUP8 GAS CALL SWAP3 POP POP POP DUP1 ISZERO PUSH2 0x19D0 JUMPI POP PUSH1 0x40 MLOAD RETURNDATASIZE PUSH1 0x1F NOT PUSH1 0x1F DUP3 ADD AND DUP3 ADD DUP1 PUSH1 0x40 MSTORE POP DUP2 ADD SWAP1 PUSH2 0x19CD SWAP2 SWAP1 PUSH2 0x3860 JUMP JUMPDEST PUSH1 0x1 JUMPDEST PUSH2 0x1A4F JUMPI RETURNDATASIZE DUP1 PUSH0 DUP2 EQ PUSH2 0x19FE JUMPI PUSH1 0x40 MLOAD SWAP2 POP PUSH1 0x1F NOT PUSH1 0x3F RETURNDATASIZE ADD AND DUP3 ADD PUSH1 0x40 MSTORE RETURNDATASIZE DUP3 MSTORE RETURNDATASIZE PUSH0 PUSH1 0x20 DUP5 ADD RETURNDATACOPY PUSH2 0x1A03 JUMP JUMPDEST PUSH1 0x60 SWAP2 POP JUMPDEST POP PUSH0 DUP2 MLOAD SUB PUSH2 0x1A47 JUMPI PUSH1 0x40 MLOAD PUSH32 0x8C379A000000000000000000000000000000000000000000000000000000000 DUP2 MSTORE PUSH1 0x4 ADD PUSH2 0x1A3E SWAP1 PUSH2 0x3735 JUMP JUMPDEST PUSH1 0x40 MLOAD DUP1 SWAP2 SUB SWAP1 REVERT JUMPDEST DUP1 MLOAD DUP2 PUSH1 0x20 ADD REVERT JUMPDEST PUSH4 0x150B7A02 PUSH1 0xE0 SHL PUSH28 0xFFFFFFFFFFFFFFFFFFFFFFFFFFFFFFFFFFFFFFFFFFFFFFFFFFFFFFFF NOT AND DUP2 PUSH28 0xFFFFFFFFFFFFFFFFFFFFFFFFFFFFFFFFFFFFFFFFFFFFFFFFFFFFFFFF NOT AND EQ SWAP2 POP POP PUSH2 0x1AA4 JUMP JUMPDEST PUSH1 0x1 SWAP1 POP JUMPDEST SWAP5 SWAP4 POP POP POP POP JUMP JUMPDEST PUSH1 0x60 PUSH1 0x40 MLOAD DUP1 PUSH1 0xA0 ADD PUSH1 0x40 MSTORE DUP1 PUSH1 0x63 DUP2 MSTORE PUSH1 0x20 ADD PUSH2 0x3A77 PUSH1 0x63 SWAP2 CODECOPY SWAP1 POP SWAP1 JUMP JUMPDEST PUSH1 0x60 PUSH2 0x1AD7 DUP3 PUSH2 0xD71 JUMP JUMPDEST PUSH0 PUSH2 0x1AE0 PUSH2 0x1AAC JUMP JUMPDEST SWAP1 POP PUSH0 DUP2 MLOAD GT PUSH2 0x1AFE JUMPI PUSH1 0x40 MLOAD DUP1 PUSH1 0x20 ADD PUSH1 0x40 MSTORE DUP1 PUSH0 DUP2 MSTORE POP PUSH2 0x1B29 JUMP JUMPDEST DUP1 PUSH2 0x1B08 DUP5 PUSH2 0x1F80 JUMP JUMPDEST PUSH1 0x40 MLOAD PUSH1 0x20 ADD PUSH2 0x1B19 SWAP3 SWAP2 SWAP1 PUSH2 0x378D JUMP JUMPDEST PUSH1 0x40 MLOAD PUSH1 0x20 DUP2 DUP4 SUB SUB DUP2 MSTORE SWAP1 PUSH1 0x40 MSTORE JUMPDEST SWAP2 POP POP SWAP2 SWAP1 POP JUMP JUMPDEST PUSH0 PUSH32 0x80AC58CD00000000000000000000000000000000000000000000000000000000 PUSH28 0xFFFFFFFFFFFFFFFFFFFFFFFFFFFFFFFFFFFFFFFFFFFFFFFFFFFFFFFF NOT AND DUP3 PUSH28 0xFFFFFFFFFFFFFFFFFFFFFFFFFFFFFFFFFFFFFFFFFFFFFFFFFFFFFFFF NOT AND EQ DUP1 PUSH2 0x1BFB JUMPI POP PUSH32 0x5B5E139F00000000000000000000000000000000000000000000000000000000 PUSH28 0xFFFFFFFFFFFFFFFFFFFFFFFFFFFFFFFFFFFFFFFFFFFFFFFFFFFFFFFF NOT AND DUP3 PUSH28 0xFFFFFFFFFFFFFFFFFFFFFFFFFFFFFFFFFFFFFFFFFFFFFFFFFFFFFFFF NOT AND EQ JUMPDEST DUP1 PUSH2 0x1C0B JUMPI POP PUSH2 0x1C0A DUP3 PUSH2 0x204A JUMP JUMPDEST JUMPDEST SWAP1 POP SWAP2 SWAP1 POP JUMP JUMPDEST PUSH2 0x1C1E DUP5 DUP5 DUP5 DUP5 PUSH2 0x20B3 JUMP JUMPDEST PUSH1 0x1 DUP2 GT ISZERO PUSH2 0x1C62 JUMPI PUSH1 0x40 MLOAD PUSH32 0x8C379A000000000000000000000000000000000000000000000000000000000 DUP2 MSTORE PUSH1 0x4 ADD PUSH2 0x1C59 SWAP1 PUSH2 0x38FB JUMP JUMPDEST PUSH1 0x40 MLOAD DUP1 SWAP2 SUB SWAP1 REVERT JUMPDEST PUSH0 DUP3 SWAP1 POP PUSH0 PUSH20 0xFFFFFFFFFFFFFFFFFFFFFFFFFFFFFFFFFFFFFFFF AND DUP6 PUSH20 0xFFFFFFFFFFFFFFFFFFFFFFFFFFFFFFFFFFFFFFFF AND SUB PUSH2 0x1CA7 JUMPI PUSH2 0x1CA2 DUP2 PUSH2 0x20B9 JUMP JUMPDEST PUSH2 0x1CE6 JUMP JUMPDEST DUP4 PUSH20 0xFFFFFFFFFFFFFFFFFFFFFFFFFFFFFFFFFFFFFFFF AND DUP6 PUSH20 0xFFFFFFFFFFFFFFFFFFFFFFFFFFFFFFFFFFFFFFFF AND EQ PUSH2 0x1CE5 JUMPI PUSH2 0x1CE4 DUP6 DUP3 PUSH2 0x20FD JUMP JUMPDEST JUMPDEST JUMPDEST PUSH0 PUSH20 0xFFFFFFFFFFFFFFFFFFFFFFFFFFFFFFFFFFFFFFFF AND DUP5 PUSH20 0xFFFFFFFFFFFFFFFFFFFFFFFFFFFFFFFFFFFFFFFF AND SUB PUSH2 0x1D27 JUMPI PUSH2 0x1D22 DUP2 PUSH2 0x2253 JUMP JUMPDEST PUSH2 0x1D66 JUMP JUMPDEST DUP5 PUSH20 0xFFFFFFFFFFFFFFFFFFFFFFFFFFFFFFFFFFFFFFFF AND DUP5 PUSH20 0xFFFFFFFFFFFFFFFFFFFFFFFFFFFFFFFFFFFFFFFF AND EQ PUSH2 0x1D65 JUMPI PUSH2 0x1D64 DUP5 DUP3 PUSH2 0x2313 JUMP JUMPDEST JUMPDEST JUMPDEST POP POP POP POP POP JUMP JUMPDEST PUSH0 PUSH20 0xFFFFFFFFFFFFFFFFFFFFFFFFFFFFFFFFFFFFFFFF AND DUP3 PUSH20 0xFFFFFFFFFFFFFFFFFFFFFFFFFFFFFFFFFFFFFFFF AND SUB PUSH2 0x1DDB JUMPI PUSH1 0x40 MLOAD PUSH32 0x8C379A000000000000000000000000000000000000000000000000000000000 DUP2 MSTORE PUSH1 0x4 ADD PUSH2 0x1DD2 SWAP1 PUSH2 0x3963 JUMP JUMPDEST PUSH1 0x40 MLOAD DUP1 SWAP2 SUB SWAP1 REVERT JUMPDEST PUSH2 0x1DE4 DUP2 PUSH2 0x17E4 JUMP JUMPDEST ISZERO PUSH2 0x1E24 JUMPI PUSH1 0x40 MLOAD PUSH32 0x8C379A000000000000000000000000000000000000000000000000000000000 DUP2 MSTORE PUSH1 0x4 ADD PUSH2 0x1E1B SWAP1 PUSH2 0x39CB JUMP JUMPDEST PUSH1 0x40 MLOAD DUP1 SWAP2 SUB SWAP1 REVERT JUMPDEST PUSH2 0x1E31 PUSH0 DUP4 DUP4 PUSH1 0x1 PUSH2 0x18B8 JUMP JUMPDEST PUSH2 0x1E3A DUP2 PUSH2 0x17E4 JUMP JUMPDEST ISZERO PUSH2 0x1E7A JUMPI PUSH1 0x40 MLOAD PUSH32 0x8C379A000000000000000000000000000000000000000000000000000000000 DUP2 MSTORE PUSH1 0x4 ADD PUSH2 0x1E71 SWAP1 PUSH2 0x39CB JUMP JUMPDEST PUSH1 0x40 MLOAD DUP1 SWAP2 SUB SWAP1 REVERT JUMPDEST PUSH1 0x1 PUSH1 0x4 PUSH0 DUP5 PUSH20 0xFFFFFFFFFFFFFFFFFFFFFFFFFFFFFFFFFFFFFFFF AND PUSH20 0xFFFFFFFFFFFFFFFFFFFFFFFFFFFFFFFFFFFFFFFF AND DUP2 MSTORE PUSH1 0x20 ADD SWAP1 DUP2 MSTORE PUSH1 0x20 ADD PUSH0 KECCAK256 PUSH0 DUP3 DUP3 SLOAD ADD SWAP3 POP POP DUP2 SWAP1 SSTORE POP DUP2 PUSH1 0x3 PUSH0 DUP4 DUP2 MSTORE PUSH1 0x20 ADD SWAP1 DUP2 MSTORE PUSH1 0x20 ADD PUSH0 KECCAK256 PUSH0 PUSH2 0x100 EXP DUP2 SLOAD DUP2 PUSH20 0xFFFFFFFFFFFFFFFFFFFFFFFFFFFFFFFFFFFFFFFF MUL NOT AND SWAP1 DUP4 PUSH20 0xFFFFFFFFFFFFFFFFFFFFFFFFFFFFFFFFFFFFFFFF AND MUL OR SWAP1 SSTORE POP DUP1 DUP3 PUSH20 0xFFFFFFFFFFFFFFFFFFFFFFFFFFFFFFFFFFFFFFFF AND PUSH0 PUSH20 0xFFFFFFFFFFFFFFFFFFFFFFFFFFFFFFFFFFFFFFFF AND PUSH32 0xDDF252AD1BE2C89B69C2B068FC378DAA952BA7F163C4A11628F55A4DF523B3EF PUSH1 0x40 MLOAD PUSH1 0x40 MLOAD DUP1 SWAP2 SUB SWAP1 LOG4 PUSH2 0x1F7C PUSH0 DUP4 DUP4 PUSH1 0x1 PUSH2 0x18CA JUMP JUMPDEST POP POP JUMP JUMPDEST PUSH1 0x60 PUSH0 PUSH1 0x1 PUSH2 0x1F8E DUP5 PUSH2 0x238B JUMP JUMPDEST ADD SWAP1 POP PUSH0 DUP2 PUSH8 0xFFFFFFFFFFFFFFFF DUP2 GT ISZERO PUSH2 0x1FAC JUMPI PUSH2 0x1FAB PUSH2 0x28D4 JUMP JUMPDEST JUMPDEST PUSH1 0x40 MLOAD SWAP1 DUP1 DUP3 MSTORE DUP1 PUSH1 0x1F ADD PUSH1 0x1F NOT AND PUSH1 0x20 ADD DUP3 ADD PUSH1 0x40 MSTORE DUP1 ISZERO PUSH2 0x1FDE JUMPI DUP2 PUSH1 0x20 ADD PUSH1 0x1 DUP3 MUL DUP1 CALLDATASIZE DUP4 CALLDATACOPY DUP1 DUP3 ADD SWAP2 POP POP SWAP1 POP JUMPDEST POP SWAP1 POP PUSH0 DUP3 PUSH1 0x20 ADD DUP3 ADD SWAP1 POP JUMPDEST PUSH1 0x1 ISZERO PUSH2 0x203F JUMPI DUP1 DUP1 PUSH1 0x1 SWAP1 SUB SWAP2 POP POP PUSH32 0x3031323334353637383961626364656600000000000000000000000000000000 PUSH1 0xA DUP7 MOD BYTE DUP2 MSTORE8 PUSH1 0xA DUP6 DUP2 PUSH2 0x2034 JUMPI PUSH2 0x2033 PUSH2 0x39E9 JUMP JUMPDEST JUMPDEST DIV SWAP5 POP PUSH0 DUP6 SUB PUSH2 0x1FEB JUMPI JUMPDEST DUP2 SWAP4 POP POP POP POP SWAP2 SWAP1 POP JUMP JUMPDEST PUSH0 PUSH32 0x1FFC9A700000000000000000000000000000000000000000000000000000000 PUSH28 0xFFFFFFFFFFFFFFFFFFFFFFFFFFFFFFFFFFFFFFFFFFFFFFFFFFFFFFFF NOT AND DUP3 PUSH28 0xFFFFFFFFFFFFFFFFFFFFFFFFFFFFFFFFFFFFFFFFFFFFFFFFFFFFFFFF NOT AND EQ SWAP1 POP SWAP2 SWAP1 POP JUMP JUMPDEST POP POP POP POP JUMP JUMPDEST PUSH1 0x9 DUP1 SLOAD SWAP1 POP PUSH1 0xA PUSH0 DUP4 DUP2 MSTORE PUSH1 0x20 ADD SWAP1 DUP2 MSTORE PUSH1 0x20 ADD PUSH0 KECCAK256 DUP2 SWAP1 SSTORE POP PUSH1 0x9 DUP2 SWAP1 DUP1 PUSH1 0x1 DUP2 SLOAD ADD DUP1 DUP3 SSTORE DUP1 SWAP2 POP POP PUSH1 0x1 SWAP1 SUB SWAP1 PUSH0 MSTORE PUSH1 0x20 PUSH0 KECCAK256 ADD PUSH0 SWAP1 SWAP2 SWAP1 SWAP2 SWAP1 SWAP2 POP SSTORE POP JUMP JUMPDEST PUSH0 PUSH1 0x1 PUSH2 0x2109 DUP5 PUSH2 0x9B8 JUMP JUMPDEST PUSH2 0x2113 SWAP2 SWAP1 PUSH2 0x3A16 JUMP JUMPDEST SWAP1 POP PUSH0 PUSH1 0x8 PUSH0 DUP5 DUP2 MSTORE PUSH1 0x20 ADD SWAP1 DUP2 MSTORE PUSH1 0x20 ADD PUSH0 KECCAK256 SLOAD SWAP1 POP DUP2 DUP2 EQ PUSH2 0x21EA JUMPI PUSH0 PUSH1 0x7 PUSH0 DUP7 PUSH20 0xFFFFFFFFFFFFFFFFFFFFFFFFFFFFFFFFFFFFFFFF AND PUSH20 0xFFFFFFFFFFFFFFFFFFFFFFFFFFFFFFFFFFFFFFFF AND DUP2 MSTORE PUSH1 0x20 ADD SWAP1 DUP2 MSTORE PUSH1 0x20 ADD PUSH0 KECCAK256 PUSH0 DUP5 DUP2 MSTORE PUSH1 0x20 ADD SWAP1 DUP2 MSTORE PUSH1 0x20 ADD PUSH0 KECCAK256 SLOAD SWAP1 POP DUP1 PUSH1 0x7 PUSH0 DUP8 PUSH20 0xFFFFFFFFFFFFFFFFFFFFFFFFFFFFFFFFFFFFFFFF AND PUSH20 0xFFFFFFFFFFFFFFFFFFFFFFFFFFFFFFFFFFFFFFFF AND DUP2 MSTORE PUSH1 0x20 ADD SWAP1 DUP2 MSTORE PUSH1 0x20 ADD PUSH0 KECCAK256 PUSH0 DUP5 DUP2 MSTORE PUSH1 0x20 ADD SWAP1 DUP2 MSTORE PUSH1 0x20 ADD PUSH0 KECCAK256 DUP2 SWAP1 SSTORE POP DUP2 PUSH1 0x8 PUSH0 DUP4 DUP2 MSTORE PUSH1 0x20 ADD SWAP1 DUP2 MSTORE PUSH1 0x20 ADD PUSH0 KECCAK256 DUP2 SWAP1 SSTORE POP POP JUMPDEST PUSH1 0x8 PUSH0 DUP5 DUP2 MSTORE PUSH1 0x20 ADD SWAP1 DUP2 MSTORE PUSH1 0x20 ADD PUSH0 KECCAK256 PUSH0 SWAP1 SSTORE PUSH1 0x7 PUSH0 DUP6 PUSH20 0xFFFFFFFFFFFFFFFFFFFFFFFFFFFFFFFFFFFFFFFF AND PUSH20 0xFFFFFFFFFFFFFFFFFFFFFFFFFFFFFFFFFFFFFFFF AND DUP2 MSTORE PUSH1 0x20 ADD SWAP1 DUP2 MSTORE PUSH1 0x20 ADD PUSH0 KECCAK256 PUSH0 DUP4 DUP2 MSTORE PUSH1 0x20 ADD SWAP1 DUP2 MSTORE PUSH1 0x20 ADD PUSH0 KECCAK256 PUSH0 SWAP1 SSTORE POP POP POP POP JUMP JUMPDEST PUSH0 PUSH1 0x1 PUSH1 0x9 DUP1 SLOAD SWAP1 POP PUSH2 0x2266 SWAP2 SWAP1 PUSH2 0x3A16 JUMP JUMPDEST SWAP1 POP PUSH0 PUSH1 0xA PUSH0 DUP5 DUP2 MSTORE PUSH1 0x20 ADD SWAP1 DUP2 MSTORE PUSH1 0x20 ADD PUSH0 KECCAK256 SLOAD SWAP1 POP PUSH0 PUSH1 0x9 DUP4 DUP2 SLOAD DUP2 LT PUSH2 0x2292 JUMPI PUSH2 0x2291 PUSH2 0x2F29 JUMP JUMPDEST JUMPDEST SWAP1 PUSH0 MSTORE PUSH1 0x20 PUSH0 KECCAK256 ADD SLOAD SWAP1 POP DUP1 PUSH1 0x9 DUP4 DUP2 SLOAD DUP2 LT PUSH2 0x22B2 JUMPI PUSH2 0x22B1 PUSH2 0x2F29 JUMP JUMPDEST JUMPDEST SWAP1 PUSH0 MSTORE PUSH1 0x20 PUSH0 KECCAK256 ADD DUP2 SWAP1 SSTORE POP DUP2 PUSH1 0xA PUSH0 DUP4 DUP2 MSTORE PUSH1 0x20 ADD SWAP1 DUP2 MSTORE PUSH1 0x20 ADD PUSH0 KECCAK256 DUP2 SWAP1 SSTORE POP PUSH1 0xA PUSH0 DUP6 DUP2 MSTORE PUSH1 0x20 ADD SWAP1 DUP2 MSTORE PUSH1 0x20 ADD PUSH0 KECCAK256 PUSH0 SWAP1 SSTORE PUSH1 0x9 DUP1 SLOAD DUP1 PUSH2 0x22FA JUMPI PUSH2 0x22F9 PUSH2 0x3A49 JUMP JUMPDEST JUMPDEST PUSH1 0x1 SWAP1 SUB DUP2 DUP2 SWAP1 PUSH0 MSTORE PUSH1 0x20 PUSH0 KECCAK256 ADD PUSH0 SWAP1 SSTORE SWAP1 SSTORE POP POP POP POP JUMP JUMPDEST PUSH0 PUSH2 0x231D DUP4 PUSH2 0x9B8 JUMP JUMPDEST SWAP1 POP DUP2 PUSH1 0x7 PUSH0 DUP6 PUSH20 0xFFFFFFFFFFFFFFFFFFFFFFFFFFFFFFFFFFFFFFFF AND PUSH20 0xFFFFFFFFFFFFFFFFFFFFFFFFFFFFFFFFFFFFFFFF AND DUP2 MSTORE PUSH1 0x20 ADD SWAP1 DUP2 MSTORE PUSH1 0x20 ADD PUSH0 KECCAK256 PUSH0 DUP4 DUP2 MSTORE PUSH1 0x20 ADD SWAP1 DUP2 MSTORE PUSH1 0x20 ADD PUSH0 KECCAK256 DUP2 SWAP1 SSTORE POP DUP1 PUSH1 0x8 PUSH0 DUP5 DUP2 MSTORE PUSH1 0x20 ADD SWAP1 DUP2 MSTORE PUSH1 0x20 ADD PUSH0 KECCAK256 DUP2 SWAP1 SSTORE POP POP POP POP JUMP JUMPDEST PUSH0 PUSH0 PUSH0 SWAP1 POP PUSH27 0x184F03E93FF9F4DAA797ED6E38ED64BF6A1F010000000000000000 DUP4 LT PUSH2 0x23E7 JUMPI PUSH27 0x184F03E93FF9F4DAA797ED6E38ED64BF6A1F010000000000000000 DUP4 DUP2 PUSH2 0x23DD JUMPI PUSH2 0x23DC PUSH2 0x39E9 JUMP JUMPDEST JUMPDEST DIV SWAP3 POP PUSH1 0x40 DUP2 ADD SWAP1 POP JUMPDEST PUSH14 0x4EE2D6D415B85ACEF8100000000 DUP4 LT PUSH2 0x2424 JUMPI PUSH14 0x4EE2D6D415B85ACEF8100000000 DUP4 DUP2 PUSH2 0x241A JUMPI PUSH2 0x2419 PUSH2 0x39E9 JUMP JUMPDEST JUMPDEST DIV SWAP3 POP PUSH1 0x20 DUP2 ADD SWAP1 POP JUMPDEST PUSH7 0x2386F26FC10000 DUP4 LT PUSH2 0x2453 JUMPI PUSH7 0x2386F26FC10000 DUP4 DUP2 PUSH2 0x2449 JUMPI PUSH2 0x2448 PUSH2 0x39E9 JUMP JUMPDEST JUMPDEST DIV SWAP3 POP PUSH1 0x10 DUP2 ADD SWAP1 POP JUMPDEST PUSH4 0x5F5E100 DUP4 LT PUSH2 0x247C JUMPI PUSH4 0x5F5E100 DUP4 DUP2 PUSH2 0x2472 JUMPI PUSH2 0x2471 PUSH2 0x39E9 JUMP JUMPDEST JUMPDEST DIV SWAP3 POP PUSH1 0x8 DUP2 ADD SWAP1 POP JUMPDEST PUSH2 0x2710 DUP4 LT PUSH2 0x24A1 JUMPI PUSH2 0x2710 DUP4 DUP2 PUSH2 0x2497 JUMPI PUSH2 0x2496 PUSH2 0x39E9 JUMP JUMPDEST JUMPDEST DIV SWAP3 POP PUSH1 0x4 DUP2 ADD SWAP1 POP JUMPDEST PUSH1 0x64 DUP4 LT PUSH2 0x24C4 JUMPI PUSH1 0x64 DUP4 DUP2 PUSH2 0x24BA JUMPI PUSH2 0x24B9 PUSH2 0x39E9 JUMP JUMPDEST JUMPDEST DIV SWAP3 POP PUSH1 0x2 DUP2 ADD SWAP1 POP JUMPDEST PUSH1 0xA DUP4 LT PUSH2 0x24D3 JUMPI PUSH1 0x1 DUP2 ADD SWAP1 POP JUMPDEST DUP1 SWAP2 POP POP SWAP2 SWAP1 POP JUMP JUMPDEST PUSH0 PUSH1 0x40 MLOAD SWAP1 POP SWAP1 JUMP JUMPDEST PUSH0 PUSH0 REVERT JUMPDEST PUSH0 PUSH0 REVERT JUMPDEST PUSH0 PUSH32 0xFFFFFFFF00000000000000000000000000000000000000000000000000000000 DUP3 AND SWAP1 POP SWAP2 SWAP1 POP JUMP JUMPDEST PUSH2 0x2521 DUP2 PUSH2 0x24ED JUMP JUMPDEST DUP2 EQ PUSH2 0x252B JUMPI PUSH0 PUSH0 REVERT JUMPDEST POP JUMP JUMPDEST PUSH0 DUP2 CALLDATALOAD SWAP1 POP PUSH2 0x253C DUP2 PUSH2 0x2518 JUMP JUMPDEST SWAP3 SWAP2 POP POP JUMP JUMPDEST PUSH0 PUSH1 0x20 DUP3 DUP5 SUB SLT ISZERO PUSH2 0x2557 JUMPI PUSH2 0x2556 PUSH2 0x24E5 JUMP JUMPDEST JUMPDEST PUSH0 PUSH2 0x2564 DUP5 DUP3 DUP6 ADD PUSH2 0x252E JUMP JUMPDEST SWAP2 POP POP SWAP3 SWAP2 POP POP JUMP JUMPDEST PUSH0 DUP2 ISZERO ISZERO SWAP1 POP SWAP2 SWAP1 POP JUMP JUMPDEST PUSH2 0x2581 DUP2 PUSH2 0x256D JUMP JUMPDEST DUP3 MSTORE POP POP JUMP JUMPDEST PUSH0 PUSH1 0x20 DUP3 ADD SWAP1 POP PUSH2 0x259A PUSH0 DUP4 ADD DUP5 PUSH2 0x2578 JUMP JUMPDEST SWAP3 SWAP2 POP POP JUMP JUMPDEST PUSH0 DUP2 MLOAD SWAP1 POP SWAP2 SWAP1 POP JUMP JUMPDEST PUSH0 DUP3 DUP3 MSTORE PUSH1 0x20 DUP3 ADD SWAP1 POP SWAP3 SWAP2 POP POP JUMP JUMPDEST DUP3 DUP2 DUP4 MCOPY PUSH0 DUP4 DUP4 ADD MSTORE POP POP POP JUMP JUMPDEST PUSH0 PUSH1 0x1F NOT PUSH1 0x1F DUP4 ADD AND SWAP1 POP SWAP2 SWAP1 POP JUMP JUMPDEST PUSH0 PUSH2 0x25E2 DUP3 PUSH2 0x25A0 JUMP JUMPDEST PUSH2 0x25EC DUP2 DUP6 PUSH2 0x25AA JUMP JUMPDEST SWAP4 POP PUSH2 0x25FC DUP2 DUP6 PUSH1 0x20 DUP7 ADD PUSH2 0x25BA JUMP JUMPDEST PUSH2 0x2605 DUP2 PUSH2 0x25C8 JUMP JUMPDEST DUP5 ADD SWAP2 POP POP SWAP3 SWAP2 POP POP JUMP JUMPDEST PUSH0 PUSH1 0x20 DUP3 ADD SWAP1 POP DUP2 DUP2 SUB PUSH0 DUP4 ADD MSTORE PUSH2 0x2628 DUP2 DUP5 PUSH2 0x25D8 JUMP JUMPDEST SWAP1 POP SWAP3 SWAP2 POP POP JUMP JUMPDEST PUSH0 DUP2 SWAP1 POP SWAP2 SWAP1 POP JUMP JUMPDEST PUSH2 0x2642 DUP2 PUSH2 0x2630 JUMP JUMPDEST DUP2 EQ PUSH2 0x264C JUMPI PUSH0 PUSH0 REVERT JUMPDEST POP JUMP JUMPDEST PUSH0 DUP2 CALLDATALOAD SWAP1 POP PUSH2 0x265D DUP2 PUSH2 0x2639 JUMP JUMPDEST SWAP3 SWAP2 POP POP JUMP JUMPDEST PUSH0 PUSH1 0x20 DUP3 DUP5 SUB SLT ISZERO PUSH2 0x2678 JUMPI PUSH2 0x2677 PUSH2 0x24E5 JUMP JUMPDEST JUMPDEST PUSH0 PUSH2 0x2685 DUP5 DUP3 DUP6 ADD PUSH2 0x264F JUMP JUMPDEST SWAP2 POP POP SWAP3 SWAP2 POP POP JUMP JUMPDEST PUSH0 PUSH20 0xFFFFFFFFFFFFFFFFFFFFFFFFFFFFFFFFFFFFFFFF DUP3 AND SWAP1 POP SWAP2 SWAP1 POP JUMP JUMPDEST PUSH0 PUSH2 0x26B7 DUP3 PUSH2 0x268E JUMP JUMPDEST SWAP1 POP SWAP2 SWAP1 POP JUMP JUMPDEST PUSH2 0x26C7 DUP2 PUSH2 0x26AD JUMP JUMPDEST DUP3 MSTORE POP POP JUMP JUMPDEST PUSH0 PUSH1 0x20 DUP3 ADD SWAP1 POP PUSH2 0x26E0 PUSH0 DUP4 ADD DUP5 PUSH2 0x26BE JUMP JUMPDEST SWAP3 SWAP2 POP POP JUMP JUMPDEST PUSH2 0x26EF DUP2 PUSH2 0x26AD JUMP JUMPDEST DUP2 EQ PUSH2 0x26F9 JUMPI PUSH0 PUSH0 REVERT JUMPDEST POP JUMP JUMPDEST PUSH0 DUP2 CALLDATALOAD SWAP1 POP PUSH2 0x270A DUP2 PUSH2 0x26E6 JUMP JUMPDEST SWAP3 SWAP2 POP POP JUMP JUMPDEST PUSH0 PUSH0 PUSH1 0x40 DUP4 DUP6 SUB SLT ISZERO PUSH2 0x2726 JUMPI PUSH2 0x2725 PUSH2 0x24E5 JUMP JUMPDEST JUMPDEST PUSH0 PUSH2 0x2733 DUP6 DUP3 DUP7 ADD PUSH2 0x26FC JUMP JUMPDEST SWAP3 POP POP PUSH1 0x20 PUSH2 0x2744 DUP6 DUP3 DUP7 ADD PUSH2 0x264F JUMP JUMPDEST SWAP2 POP POP SWAP3 POP SWAP3 SWAP1 POP JUMP JUMPDEST PUSH2 0x2757 DUP2 PUSH2 0x2630 JUMP JUMPDEST DUP3 MSTORE POP POP JUMP JUMPDEST PUSH0 PUSH1 0x20 DUP3 ADD SWAP1 POP PUSH2 0x2770 PUSH0 DUP4 ADD DUP5 PUSH2 0x274E JUMP JUMPDEST SWAP3 SWAP2 POP POP JUMP JUMPDEST PUSH0 PUSH0 REVERT JUMPDEST PUSH0 PUSH0 REVERT JUMPDEST PUSH0 PUSH0 REVERT JUMPDEST PUSH0 PUSH0 DUP4 PUSH1 0x1F DUP5 ADD SLT PUSH2 0x2797 JUMPI PUSH2 0x2796 PUSH2 0x2776 JUMP JUMPDEST JUMPDEST DUP3 CALLDATALOAD SWAP1 POP PUSH8 0xFFFFFFFFFFFFFFFF DUP2 GT ISZERO PUSH2 0x27B4 JUMPI PUSH2 0x27B3 PUSH2 0x277A JUMP JUMPDEST JUMPDEST PUSH1 0x20 DUP4 ADD SWAP2 POP DUP4 PUSH1 0x1 DUP3 MUL DUP4 ADD GT ISZERO PUSH2 0x27D0 JUMPI PUSH2 0x27CF PUSH2 0x277E JUMP JUMPDEST JUMPDEST SWAP3 POP SWAP3 SWAP1 POP JUMP JUMPDEST PUSH0 PUSH0 PUSH0 PUSH0 PUSH1 0x40 DUP6 DUP8 SUB SLT ISZERO PUSH2 0x27EF JUMPI PUSH2 0x27EE PUSH2 0x24E5 JUMP JUMPDEST JUMPDEST PUSH0 DUP6 ADD CALLDATALOAD PUSH8 0xFFFFFFFFFFFFFFFF DUP2 GT ISZERO PUSH2 0x280C JUMPI PUSH2 0x280B PUSH2 0x24E9 JUMP JUMPDEST JUMPDEST PUSH2 0x2818 DUP8 DUP3 DUP9 ADD PUSH2 0x2782 JUMP JUMPDEST SWAP5 POP SWAP5 POP POP PUSH1 0x20 DUP6 ADD CALLDATALOAD PUSH8 0xFFFFFFFFFFFFFFFF DUP2 GT ISZERO PUSH2 0x283B JUMPI PUSH2 0x283A PUSH2 0x24E9 JUMP JUMPDEST JUMPDEST PUSH2 0x2847 DUP8 DUP3 DUP9 ADD PUSH2 0x2782 JUMP JUMPDEST SWAP3 POP SWAP3 POP POP SWAP3 SWAP6 SWAP2 SWAP5 POP SWAP3 POP JUMP JUMPDEST PUSH0 PUSH0 PUSH0 PUSH1 0x60 DUP5 DUP7 SUB SLT ISZERO PUSH2 0x286C JUMPI PUSH2 0x286B PUSH2 0x24E5 JUMP JUMPDEST JUMPDEST PUSH0 PUSH2 0x2879 DUP7 DUP3 DUP8 ADD PUSH2 0x26FC JUMP JUMPDEST SWAP4 POP POP PUSH1 0x20 PUSH2 0x288A DUP7 DUP3 DUP8 ADD PUSH2 0x26FC JUMP JUMPDEST SWAP3 POP POP PUSH1 0x40 PUSH2 0x289B DUP7 DUP3 DUP8 ADD PUSH2 0x264F JUMP JUMPDEST SWAP2 POP POP SWAP3 POP SWAP3 POP SWAP3 JUMP JUMPDEST PUSH0 PUSH1 0x20 DUP3 DUP5 SUB SLT ISZERO PUSH2 0x28BA JUMPI PUSH2 0x28B9 PUSH2 0x24E5 JUMP JUMPDEST JUMPDEST PUSH0 PUSH2 0x28C7 DUP5 DUP3 DUP6 ADD PUSH2 0x26FC JUMP JUMPDEST SWAP2 POP POP SWAP3 SWAP2 POP POP JUMP JUMPDEST PUSH0 PUSH0 REVERT JUMPDEST PUSH32 0x4E487B7100000000000000000000000000000000000000000000000000000000 PUSH0 MSTORE PUSH1 0x41 PUSH1 0x4 MSTORE PUSH1 0x24 PUSH0 REVERT JUMPDEST PUSH2 0x290A DUP3 PUSH2 0x25C8 JUMP JUMPDEST DUP2 ADD DUP2 DUP2 LT PUSH8 0xFFFFFFFFFFFFFFFF DUP3 GT OR ISZERO PUSH2 0x2929 JUMPI PUSH2 0x2928 PUSH2 0x28D4 JUMP JUMPDEST JUMPDEST DUP1 PUSH1 0x40 MSTORE POP POP POP JUMP JUMPDEST PUSH0 PUSH2 0x293B PUSH2 0x24DC JUMP JUMPDEST SWAP1 POP PUSH2 0x2947 DUP3 DUP3 PUSH2 0x2901 JUMP JUMPDEST SWAP2 SWAP1 POP JUMP JUMPDEST PUSH0 PUSH8 0xFFFFFFFFFFFFFFFF DUP3 GT ISZERO PUSH2 0x2966 JUMPI PUSH2 0x2965 PUSH2 0x28D4 JUMP JUMPDEST JUMPDEST PUSH2 0x296F DUP3 PUSH2 0x25C8 JUMP JUMPDEST SWAP1 POP PUSH1 0x20 DUP2 ADD SWAP1 POP SWAP2 SWAP1 POP JUMP JUMPDEST DUP3 DUP2 DUP4 CALLDATACOPY PUSH0 DUP4 DUP4 ADD MSTORE POP POP POP JUMP JUMPDEST PUSH0 PUSH2 0x299C PUSH2 0x2997 DUP5 PUSH2 0x294C JUMP JUMPDEST PUSH2 0x2932 JUMP JUMPDEST SWAP1 POP DUP3 DUP2 MSTORE PUSH1 0x20 DUP2 ADD DUP5 DUP5 DUP5 ADD GT ISZERO PUSH2 0x29B8 JUMPI PUSH2 0x29B7 PUSH2 0x28D0 JUMP JUMPDEST JUMPDEST PUSH2 0x29C3 DUP5 DUP3 DUP6 PUSH2 0x297C JUMP JUMPDEST POP SWAP4 SWAP3 POP POP POP JUMP JUMPDEST PUSH0 DUP3 PUSH1 0x1F DUP4 ADD SLT PUSH2 0x29DF JUMPI PUSH2 0x29DE PUSH2 0x2776 JUMP JUMPDEST JUMPDEST DUP2 CALLDATALOAD PUSH2 0x29EF DUP5 DUP3 PUSH1 0x20 DUP7 ADD PUSH2 0x298A JUMP JUMPDEST SWAP2 POP POP SWAP3 SWAP2 POP POP JUMP JUMPDEST PUSH0 PUSH0 PUSH1 0x40 DUP4 DUP6 SUB SLT ISZERO PUSH2 0x2A0E JUMPI PUSH2 0x2A0D PUSH2 0x24E5 JUMP JUMPDEST JUMPDEST PUSH0 PUSH2 0x2A1B DUP6 DUP3 DUP7 ADD PUSH2 0x26FC JUMP JUMPDEST SWAP3 POP POP PUSH1 0x20 DUP4 ADD CALLDATALOAD PUSH8 0xFFFFFFFFFFFFFFFF DUP2 GT ISZERO PUSH2 0x2A3C JUMPI PUSH2 0x2A3B PUSH2 0x24E9 JUMP JUMPDEST JUMPDEST PUSH2 0x2A48 DUP6 DUP3 DUP7 ADD PUSH2 0x29CB JUMP JUMPDEST SWAP2 POP POP SWAP3 POP SWAP3 SWAP1 POP JUMP JUMPDEST PUSH2 0x2A5B DUP2 PUSH2 0x256D JUMP JUMPDEST DUP2 EQ PUSH2 0x2A65 JUMPI PUSH0 PUSH0 REVERT JUMPDEST POP JUMP JUMPDEST PUSH0 DUP2 CALLDATALOAD SWAP1 POP PUSH2 0x2A76 DUP2 PUSH2 0x2A52 JUMP JUMPDEST SWAP3 SWAP2 POP POP JUMP JUMPDEST PUSH0 PUSH0 PUSH1 0x40 DUP4 DUP6 SUB SLT ISZERO PUSH2 0x2A92 JUMPI PUSH2 0x2A91 PUSH2 0x24E5 JUMP JUMPDEST JUMPDEST PUSH0 PUSH2 0x2A9F DUP6 DUP3 DUP7 ADD PUSH2 0x26FC JUMP JUMPDEST SWAP3 POP POP PUSH1 0x20 PUSH2 0x2AB0 DUP6 DUP3 DUP7 ADD PUSH2 0x2A68 JUMP JUMPDEST SWAP2 POP POP SWAP3 POP SWAP3 SWAP1 POP JUMP JUMPDEST PUSH0 PUSH0 PUSH0 PUSH0 PUSH1 0x80 DUP6 DUP8 SUB SLT ISZERO PUSH2 0x2AD2 JUMPI PUSH2 0x2AD1 PUSH2 0x24E5 JUMP JUMPDEST JUMPDEST PUSH0 PUSH2 0x2ADF DUP8 DUP3 DUP9 ADD PUSH2 0x26FC JUMP JUMPDEST SWAP5 POP POP PUSH1 0x20 PUSH2 0x2AF0 DUP8 DUP3 DUP9 ADD PUSH2 0x26FC JUMP JUMPDEST SWAP4 POP POP PUSH1 0x40 PUSH2 0x2B01 DUP8 DUP3 DUP9 ADD PUSH2 0x264F JUMP JUMPDEST SWAP3 POP POP PUSH1 0x60 DUP6 ADD CALLDATALOAD PUSH8 0xFFFFFFFFFFFFFFFF DUP2 GT ISZERO PUSH2 0x2B22 JUMPI PUSH2 0x2B21 PUSH2 0x24E9 JUMP JUMPDEST JUMPDEST PUSH2 0x2B2E DUP8 DUP3 DUP9 ADD PUSH2 0x29CB JUMP JUMPDEST SWAP2 POP POP SWAP3 SWAP6 SWAP2 SWAP5 POP SWAP3 POP JUMP JUMPDEST PUSH0 PUSH0 PUSH1 0x40 DUP4 DUP6 SUB SLT ISZERO PUSH2 0x2B50 JUMPI PUSH2 0x2B4F PUSH2 0x24E5 JUMP JUMPDEST JUMPDEST PUSH0 PUSH2 0x2B5D DUP6 DUP3 DUP7 ADD PUSH2 0x26FC JUMP JUMPDEST SWAP3 POP POP PUSH1 0x20 PUSH2 0x2B6E DUP6 DUP3 DUP7 ADD PUSH2 0x26FC JUMP JUMPDEST SWAP2 POP POP SWAP3 POP SWAP3 SWAP1 POP JUMP JUMPDEST PUSH32 0x4E487B7100000000000000000000000000000000000000000000000000000000 PUSH0 MSTORE PUSH1 0x22 PUSH1 0x4 MSTORE PUSH1 0x24 PUSH0 REVERT JUMPDEST PUSH0 PUSH1 0x2 DUP3 DIV SWAP1 POP PUSH1 0x1 DUP3 AND DUP1 PUSH2 0x2BBC JUMPI PUSH1 0x7F DUP3 AND SWAP2 POP JUMPDEST PUSH1 0x20 DUP3 LT DUP2 SUB PUSH2 0x2BCF JUMPI PUSH2 0x2BCE PUSH2 0x2B78 JUMP JUMPDEST JUMPDEST POP SWAP2 SWAP1 POP JUMP JUMPDEST PUSH32 0x4552433732313A20617070726F76616C20746F2063757272656E74206F776E65 PUSH0 DUP3 ADD MSTORE PUSH32 0x7200000000000000000000000000000000000000000000000000000000000000 PUSH1 0x20 DUP3 ADD MSTORE POP JUMP JUMPDEST PUSH0 PUSH2 0x2C2F PUSH1 0x21 DUP4 PUSH2 0x25AA JUMP JUMPDEST SWAP2 POP PUSH2 0x2C3A DUP3 PUSH2 0x2BD5 JUMP JUMPDEST PUSH1 0x40 DUP3 ADD SWAP1 POP SWAP2 SWAP1 POP JUMP JUMPDEST PUSH0 PUSH1 0x20 DUP3 ADD SWAP1 POP DUP2 DUP2 SUB PUSH0 DUP4 ADD MSTORE PUSH2 0x2C5C DUP2 PUSH2 0x2C23 JUMP JUMPDEST SWAP1 POP SWAP2 SWAP1 POP JUMP JUMPDEST PUSH32 0x4552433732313A20617070726F76652063616C6C6572206973206E6F7420746F PUSH0 DUP3 ADD MSTORE PUSH32 0x6B656E206F776E6572206F7220617070726F76656420666F7220616C6C000000 PUSH1 0x20 DUP3 ADD MSTORE POP JUMP JUMPDEST PUSH0 PUSH2 0x2CBD PUSH1 0x3D DUP4 PUSH2 0x25AA JUMP JUMPDEST SWAP2 POP PUSH2 0x2CC8 DUP3 PUSH2 0x2C63 JUMP JUMPDEST PUSH1 0x40 DUP3 ADD SWAP1 POP SWAP2 SWAP1 POP JUMP JUMPDEST PUSH0 PUSH1 0x20 DUP3 ADD SWAP1 POP DUP2 DUP2 SUB PUSH0 DUP4 ADD MSTORE PUSH2 0x2CEA DUP2 PUSH2 0x2CB1 JUMP JUMPDEST SWAP1 POP SWAP2 SWAP1 POP JUMP JUMPDEST PUSH32 0x496E697469616C697A61626C653A20636F6E747261637420697320616C726561 PUSH0 DUP3 ADD MSTORE PUSH32 0x647920696E697469616C697A6564000000000000000000000000000000000000 PUSH1 0x20 DUP3 ADD MSTORE POP JUMP JUMPDEST PUSH0 PUSH2 0x2D4B PUSH1 0x2E DUP4 PUSH2 0x25AA JUMP JUMPDEST SWAP2 POP PUSH2 0x2D56 DUP3 PUSH2 0x2CF1 JUMP JUMPDEST PUSH1 0x40 DUP3 ADD SWAP1 POP SWAP2 SWAP1 POP JUMP JUMPDEST PUSH0 PUSH1 0x20 DUP3 ADD SWAP1 POP DUP2 DUP2 SUB PUSH0 DUP4 ADD MSTORE PUSH2 0x2D78 DUP2 PUSH2 0x2D3F JUMP JUMPDEST SWAP1 POP SWAP2 SWAP1 POP JUMP JUMPDEST PUSH32 0x4552433732313A2063616C6C6572206973206E6F7420746F6B656E206F776E65 PUSH0 DUP3 ADD MSTORE PUSH32 0x72206F7220617070726F76656400000000000000000000000000000000000000 PUSH1 0x20 DUP3 ADD MSTORE POP JUMP JUMPDEST PUSH0 PUSH2 0x2DD9 PUSH1 0x2D DUP4 PUSH2 0x25AA JUMP JUMPDEST SWAP2 POP PUSH2 0x2DE4 DUP3 PUSH2 0x2D7F JUMP JUMPDEST PUSH1 0x40 DUP3 ADD SWAP1 POP SWAP2 SWAP1 POP JUMP JUMPDEST PUSH0 PUSH1 0x20 DUP3 ADD SWAP1 POP DUP2 DUP2 SUB PUSH0 DUP4 ADD MSTORE PUSH2 0x2E06 DUP2 PUSH2 0x2DCD JUMP JUMPDEST SWAP1 POP SWAP2 SWAP1 POP JUMP JUMPDEST PUSH32 0x455243373231456E756D657261626C653A206F776E657220696E646578206F75 PUSH0 DUP3 ADD MSTORE PUSH32 0x74206F6620626F756E6473000000000000000000000000000000000000000000 PUSH1 0x20 DUP3 ADD MSTORE POP JUMP JUMPDEST PUSH0 PUSH2 0x2E67 PUSH1 0x2B DUP4 PUSH2 0x25AA JUMP JUMPDEST SWAP2 POP PUSH2 0x2E72 DUP3 PUSH2 0x2E0D JUMP JUMPDEST PUSH1 0x40 DUP3 ADD SWAP1 POP SWAP2 SWAP1 POP JUMP JUMPDEST PUSH0 PUSH1 0x20 DUP3 ADD SWAP1 POP DUP2 DUP2 SUB PUSH0 DUP4 ADD MSTORE PUSH2 0x2E94 DUP2 PUSH2 0x2E5B JUMP JUMPDEST SWAP1 POP SWAP2 SWAP1 POP JUMP JUMPDEST PUSH32 0x455243373231456E756D657261626C653A20676C6F62616C20696E646578206F PUSH0 DUP3 ADD MSTORE PUSH32 0x7574206F6620626F756E64730000000000000000000000000000000000000000 PUSH1 0x20 DUP3 ADD MSTORE POP JUMP JUMPDEST PUSH0 PUSH2 0x2EF5 PUSH1 0x2C DUP4 PUSH2 0x25AA JUMP JUMPDEST SWAP2 POP PUSH2 0x2F00 DUP3 PUSH2 0x2E9B JUMP JUMPDEST PUSH1 0x40 DUP3 ADD SWAP1 POP SWAP2 SWAP1 POP JUMP JUMPDEST PUSH0 PUSH1 0x20 DUP3 ADD SWAP1 POP DUP2 DUP2 SUB PUSH0 DUP4 ADD MSTORE PUSH2 0x2F22 DUP2 PUSH2 0x2EE9 JUMP JUMPDEST SWAP1 POP SWAP2 SWAP1 POP JUMP JUMPDEST PUSH32 0x4E487B7100000000000000000000000000000000000000000000000000000000 PUSH0 MSTORE PUSH1 0x32 PUSH1 0x4 MSTORE PUSH1 0x24 PUSH0 REVERT JUMPDEST PUSH32 0x4552433732313A20696E76616C696420746F6B656E2049440000000000000000 PUSH0 DUP3 ADD MSTORE POP JUMP JUMPDEST PUSH0 PUSH2 0x2F8A PUSH1 0x18 DUP4 PUSH2 0x25AA JUMP JUMPDEST SWAP2 POP PUSH2 0x2F95 DUP3 PUSH2 0x2F56 JUMP JUMPDEST PUSH1 0x20 DUP3 ADD SWAP1 POP SWAP2 SWAP1 POP JUMP JUMPDEST PUSH0 PUSH1 0x20 DUP3 ADD SWAP1 POP DUP2 DUP2 SUB PUSH0 DUP4 ADD MSTORE PUSH2 0x2FB7 DUP2 PUSH2 0x2F7E JUMP JUMPDEST SWAP1 POP SWAP2 SWAP1 POP JUMP JUMPDEST PUSH32 0x4552433732313A2061646472657373207A65726F206973206E6F742061207661 PUSH0 DUP3 ADD MSTORE PUSH32 0x6C6964206F776E65720000000000000000000000000000000000000000000000 PUSH1 0x20 DUP3 ADD MSTORE POP JUMP JUMPDEST PUSH0 PUSH2 0x3018 PUSH1 0x29 DUP4 PUSH2 0x25AA JUMP JUMPDEST SWAP2 POP PUSH2 0x3023 DUP3 PUSH2 0x2FBE JUMP JUMPDEST PUSH1 0x40 DUP3 ADD SWAP1 POP SWAP2 SWAP1 POP JUMP JUMPDEST PUSH0 PUSH1 0x20 DUP3 ADD SWAP1 POP DUP2 DUP2 SUB PUSH0 DUP4 ADD MSTORE PUSH2 0x3045 DUP2 PUSH2 0x300C JUMP JUMPDEST SWAP1 POP SWAP2 SWAP1 POP JUMP JUMPDEST PUSH32 0x4E487B7100000000000000000000000000000000000000000000000000000000 PUSH0 MSTORE PUSH1 0x11 PUSH1 0x4 MSTORE PUSH1 0x24 PUSH0 REVERT JUMPDEST PUSH0 PUSH2 0x3083 DUP3 PUSH2 0x2630 JUMP JUMPDEST SWAP2 POP PUSH32 0xFFFFFFFFFFFFFFFFFFFFFFFFFFFFFFFFFFFFFFFFFFFFFFFFFFFFFFFFFFFFFFFF DUP3 SUB PUSH2 0x30B5 JUMPI PUSH2 0x30B4 PUSH2 0x304C JUMP JUMPDEST JUMPDEST PUSH1 0x1 DUP3 ADD SWAP1 POP SWAP2 SWAP1 POP JUMP JUMPDEST PUSH32 0x4F776E61626C653A206E6577206F776E657220697320746865207A65726F2061 PUSH0 DUP3 ADD MSTORE PUSH32 0x6464726573730000000000000000000000000000000000000000000000000000 PUSH1 0x20 DUP3 ADD MSTORE POP JUMP JUMPDEST PUSH0 PUSH2 0x311A PUSH1 0x26 DUP4 PUSH2 0x25AA JUMP JUMPDEST SWAP2 POP PUSH2 0x3125 DUP3 PUSH2 0x30C0 JUMP JUMPDEST PUSH1 0x40 DUP3 ADD SWAP1 POP SWAP2 SWAP1 POP JUMP JUMPDEST PUSH0 PUSH1 0x20 DUP3 ADD SWAP1 POP DUP2 DUP2 SUB PUSH0 DUP4 ADD MSTORE PUSH2 0x3147 DUP2 PUSH2 0x310E JUMP JUMPDEST SWAP1 POP SWAP2 SWAP1 POP JUMP JUMPDEST PUSH32 0x496E697469616C697A61626C653A20636F6E7472616374206973206E6F742069 PUSH0 DUP3 ADD MSTORE PUSH32 0x6E697469616C697A696E67000000000000000000000000000000000000000000 PUSH1 0x20 DUP3 ADD MSTORE POP JUMP JUMPDEST PUSH0 PUSH2 0x31A8 PUSH1 0x2B DUP4 PUSH2 0x25AA JUMP JUMPDEST SWAP2 POP PUSH2 0x31B3 DUP3 PUSH2 0x314E JUMP JUMPDEST PUSH1 0x40 DUP3 ADD SWAP1 POP SWAP2 SWAP1 POP JUMP JUMPDEST PUSH0 PUSH1 0x20 DUP3 ADD SWAP1 POP DUP2 DUP2 SUB PUSH0 DUP4 ADD MSTORE PUSH2 0x31D5 DUP2 PUSH2 0x319C JUMP JUMPDEST SWAP1 POP SWAP2 SWAP1 POP JUMP JUMPDEST PUSH32 0x4552433732313A207472616E736665722066726F6D20696E636F727265637420 PUSH0 DUP3 ADD MSTORE PUSH32 0x6F776E6572000000000000000000000000000000000000000000000000000000 PUSH1 0x20 DUP3 ADD MSTORE POP JUMP JUMPDEST PUSH0 PUSH2 0x3236 PUSH1 0x25 DUP4 PUSH2 0x25AA JUMP JUMPDEST SWAP2 POP PUSH2 0x3241 DUP3 PUSH2 0x31DC JUMP JUMPDEST PUSH1 0x40 DUP3 ADD SWAP1 POP SWAP2 SWAP1 POP JUMP JUMPDEST PUSH0 PUSH1 0x20 DUP3 ADD SWAP1 POP DUP2 DUP2 SUB PUSH0 DUP4 ADD MSTORE PUSH2 0x3263 DUP2 PUSH2 0x322A JUMP JUMPDEST SWAP1 POP SWAP2 SWAP1 POP JUMP JUMPDEST PUSH32 0x4552433732313A207472616E7366657220746F20746865207A65726F20616464 PUSH0 DUP3 ADD MSTORE PUSH32 0x7265737300000000000000000000000000000000000000000000000000000000 PUSH1 0x20 DUP3 ADD MSTORE POP JUMP JUMPDEST PUSH0 PUSH2 0x32C4 PUSH1 0x24 DUP4 PUSH2 0x25AA JUMP JUMPDEST SWAP2 POP PUSH2 0x32CF DUP3 PUSH2 0x326A JUMP JUMPDEST PUSH1 0x40 DUP3 ADD SWAP1 POP SWAP2 SWAP1 POP JUMP JUMPDEST PUSH0 PUSH1 0x20 DUP3 ADD SWAP1 POP DUP2 DUP2 SUB PUSH0 DUP4 ADD MSTORE PUSH2 0x32F1 DUP2 PUSH2 0x32B8 JUMP JUMPDEST SWAP1 POP SWAP2 SWAP1 POP JUMP JUMPDEST PUSH32 0x4F776E61626C653A2063616C6C6572206973206E6F7420746865206F776E6572 PUSH0 DUP3 ADD MSTORE POP JUMP JUMPDEST PUSH0 PUSH2 0x332C PUSH1 0x20 DUP4 PUSH2 0x25AA JUMP JUMPDEST SWAP2 POP PUSH2 0x3337 DUP3 PUSH2 0x32F8 JUMP JUMPDEST PUSH1 0x20 DUP3 ADD SWAP1 POP SWAP2 SWAP1 POP JUMP JUMPDEST PUSH0 PUSH1 0x20 DUP3 ADD SWAP1 POP DUP2 DUP2 SUB PUSH0 DUP4 ADD MSTORE PUSH2 0x3359 DUP2 PUSH2 0x3320 JUMP JUMPDEST SWAP1 POP SWAP2 SWAP1 POP JUMP JUMPDEST PUSH32 0x45524337323155524953746F726167653A2055524920736574206F66206E6F6E PUSH0 DUP3 ADD MSTORE PUSH32 0x6578697374656E7420746F6B656E000000000000000000000000000000000000 PUSH1 0x20 DUP3 ADD MSTORE POP JUMP JUMPDEST PUSH0 PUSH2 0x33BA PUSH1 0x2E DUP4 PUSH2 0x25AA JUMP JUMPDEST SWAP2 POP PUSH2 0x33C5 DUP3 PUSH2 0x3360 JUMP JUMPDEST PUSH1 0x40 DUP3 ADD SWAP1 POP SWAP2 SWAP1 POP JUMP JUMPDEST PUSH0 PUSH1 0x20 DUP3 ADD SWAP1 POP DUP2 DUP2 SUB PUSH0 DUP4 ADD MSTORE PUSH2 0x33E7 DUP2 PUSH2 0x33AE JUMP JUMPDEST SWAP1 POP SWAP2 SWAP1 POP JUMP JUMPDEST PUSH0 DUP2 SWAP1 POP DUP2 PUSH0 MSTORE PUSH1 0x20 PUSH0 KECCAK256 SWAP1 POP SWAP2 SWAP1 POP JUMP JUMPDEST PUSH0 PUSH1 0x20 PUSH1 0x1F DUP4 ADD DIV SWAP1 POP SWAP2 SWAP1 POP JUMP JUMPDEST PUSH0 DUP3 DUP3 SHL SWAP1 POP SWAP3 SWAP2 POP POP JUMP JUMPDEST PUSH0 PUSH1 0x8 DUP4 MUL PUSH2 0x344A PUSH32 0xFFFFFFFFFFFFFFFFFFFFFFFFFFFFFFFFFFFFFFFFFFFFFFFFFFFFFFFFFFFFFFFF DUP3 PUSH2 0x340F JUMP JUMPDEST PUSH2 0x3454 DUP7 DUP4 PUSH2 0x340F JUMP JUMPDEST SWAP6 POP DUP1 NOT DUP5 AND SWAP4 POP DUP1 DUP7 AND DUP5 OR SWAP3 POP POP POP SWAP4 SWAP3 POP POP POP JUMP JUMPDEST PUSH0 DUP2 SWAP1 POP SWAP2 SWAP1 POP JUMP JUMPDEST PUSH0 PUSH2 0x348F PUSH2 0x348A PUSH2 0x3485 DUP5 PUSH2 0x2630 JUMP JUMPDEST PUSH2 0x346C JUMP JUMPDEST PUSH2 0x2630 JUMP JUMPDEST SWAP1 POP SWAP2 SWAP1 POP JUMP JUMPDEST PUSH0 DUP2 SWAP1 POP SWAP2 SWAP1 POP JUMP JUMPDEST PUSH2 0x34A8 DUP4 PUSH2 0x3475 JUMP JUMPDEST PUSH2 0x34BC PUSH2 0x34B4 DUP3 PUSH2 0x3496 JUMP JUMPDEST DUP5 DUP5 SLOAD PUSH2 0x341B JUMP JUMPDEST DUP3 SSTORE POP POP POP POP JUMP JUMPDEST PUSH0 PUSH0 SWAP1 POP SWAP1 JUMP JUMPDEST PUSH2 0x34D3 PUSH2 0x34C4 JUMP JUMPDEST PUSH2 0x34DE DUP2 DUP5 DUP5 PUSH2 0x349F JUMP JUMPDEST POP POP POP JUMP JUMPDEST JUMPDEST DUP2 DUP2 LT ISZERO PUSH2 0x3501 JUMPI PUSH2 0x34F6 PUSH0 DUP3 PUSH2 0x34CB JUMP JUMPDEST PUSH1 0x1 DUP2 ADD SWAP1 POP PUSH2 0x34E4 JUMP JUMPDEST POP POP JUMP JUMPDEST PUSH1 0x1F DUP3 GT ISZERO PUSH2 0x3546 JUMPI PUSH2 0x3517 DUP2 PUSH2 0x33EE JUMP JUMPDEST PUSH2 0x3520 DUP5 PUSH2 0x3400 JUMP JUMPDEST DUP2 ADD PUSH1 0x20 DUP6 LT ISZERO PUSH2 0x352F JUMPI DUP2 SWAP1 POP JUMPDEST PUSH2 0x3543 PUSH2 0x353B DUP6 PUSH2 0x3400 JUMP JUMPDEST DUP4 ADD DUP3 PUSH2 0x34E3 JUMP JUMPDEST POP POP JUMPDEST POP POP POP JUMP JUMPDEST PUSH0 DUP3 DUP3 SHR SWAP1 POP SWAP3 SWAP2 POP POP JUMP JUMPDEST PUSH0 PUSH2 0x3566 PUSH0 NOT DUP5 PUSH1 0x8 MUL PUSH2 0x354B JUMP JUMPDEST NOT DUP1 DUP4 AND SWAP2 POP POP SWAP3 SWAP2 POP POP JUMP JUMPDEST PUSH0 PUSH2 0x357E DUP4 DUP4 PUSH2 0x3557 JUMP JUMPDEST SWAP2 POP DUP3 PUSH1 0x2 MUL DUP3 OR SWAP1 POP SWAP3 SWAP2 POP POP JUMP JUMPDEST PUSH2 0x3597 DUP3 PUSH2 0x25A0 JUMP JUMPDEST PUSH8 0xFFFFFFFFFFFFFFFF DUP2 GT ISZERO PUSH2 0x35B0 JUMPI PUSH2 0x35AF PUSH2 0x28D4 JUMP JUMPDEST JUMPDEST PUSH2 0x35BA DUP3 SLOAD PUSH2 0x2BA5 JUMP JUMPDEST PUSH2 0x35C5 DUP3 DUP3 DUP6 PUSH2 0x3505 JUMP JUMPDEST PUSH0 PUSH1 0x20 SWAP1 POP PUSH1 0x1F DUP4 GT PUSH1 0x1 DUP2 EQ PUSH2 0x35F6 JUMPI PUSH0 DUP5 ISZERO PUSH2 0x35E4 JUMPI DUP3 DUP8 ADD MLOAD SWAP1 POP JUMPDEST PUSH2 0x35EE DUP6 DUP3 PUSH2 0x3573 JUMP JUMPDEST DUP7 SSTORE POP PUSH2 0x3655 JUMP JUMPDEST PUSH1 0x1F NOT DUP5 AND PUSH2 0x3604 DUP7 PUSH2 0x33EE JUMP JUMPDEST PUSH0 JUMPDEST DUP3 DUP2 LT ISZERO PUSH2 0x362B JUMPI DUP5 DUP10 ADD MLOAD DUP3 SSTORE PUSH1 0x1 DUP3 ADD SWAP2 POP PUSH1 0x20 DUP6 ADD SWAP5 POP PUSH1 0x20 DUP2 ADD SWAP1 POP PUSH2 0x3606 JUMP JUMPDEST DUP7 DUP4 LT ISZERO PUSH2 0x3648 JUMPI DUP5 DUP10 ADD MLOAD PUSH2 0x3644 PUSH1 0x1F DUP10 AND DUP3 PUSH2 0x3557 JUMP JUMPDEST DUP4 SSTORE POP JUMPDEST PUSH1 0x1 PUSH1 0x2 DUP9 MUL ADD DUP9 SSTORE POP POP POP JUMPDEST POP POP POP POP POP POP JUMP JUMPDEST PUSH32 0x4552433732313A20617070726F766520746F2063616C6C657200000000000000 PUSH0 DUP3 ADD MSTORE POP JUMP JUMPDEST PUSH0 PUSH2 0x3691 PUSH1 0x19 DUP4 PUSH2 0x25AA JUMP JUMPDEST SWAP2 POP PUSH2 0x369C DUP3 PUSH2 0x365D JUMP JUMPDEST PUSH1 0x20 DUP3 ADD SWAP1 POP SWAP2 SWAP1 POP JUMP JUMPDEST PUSH0 PUSH1 0x20 DUP3 ADD SWAP1 POP DUP2 DUP2 SUB PUSH0 DUP4 ADD MSTORE PUSH2 0x36BE DUP2 PUSH2 0x3685 JUMP JUMPDEST SWAP1 POP SWAP2 SWAP1 POP JUMP JUMPDEST PUSH32 0x4552433732313A207472616E7366657220746F206E6F6E204552433732315265 PUSH0 DUP3 ADD MSTORE PUSH32 0x63656976657220696D706C656D656E7465720000000000000000000000000000 PUSH1 0x20 DUP3 ADD MSTORE POP JUMP JUMPDEST PUSH0 PUSH2 0x371F PUSH1 0x32 DUP4 PUSH2 0x25AA JUMP JUMPDEST SWAP2 POP PUSH2 0x372A DUP3 PUSH2 0x36C5 JUMP JUMPDEST PUSH1 0x40 DUP3 ADD SWAP1 POP SWAP2 SWAP1 POP JUMP JUMPDEST PUSH0 PUSH1 0x20 DUP3 ADD SWAP1 POP DUP2 DUP2 SUB PUSH0 DUP4 ADD MSTORE PUSH2 0x374C DUP2 PUSH2 0x3713 JUMP JUMPDEST SWAP1 POP SWAP2 SWAP1 POP JUMP JUMPDEST PUSH0 DUP2 SWAP1 POP SWAP3 SWAP2 POP POP JUMP JUMPDEST PUSH0 PUSH2 0x3767 DUP3 PUSH2 0x25A0 JUMP JUMPDEST PUSH2 0x3771 DUP2 DUP6 PUSH2 0x3753 JUMP JUMPDEST SWAP4 POP PUSH2 0x3781 DUP2 DUP6 PUSH1 0x20 DUP7 ADD PUSH2 0x25BA JUMP JUMPDEST DUP1 DUP5 ADD SWAP2 POP POP SWAP3 SWAP2 POP POP JUMP JUMPDEST PUSH0 PUSH2 0x3798 DUP3 DUP6 PUSH2 0x375D JUMP JUMPDEST SWAP2 POP PUSH2 0x37A4 DUP3 DUP5 PUSH2 0x375D JUMP JUMPDEST SWAP2 POP DUP2 SWAP1 POP SWAP4 SWAP3 POP POP POP JUMP JUMPDEST PUSH0 DUP2 MLOAD SWAP1 POP SWAP2 SWAP1 POP JUMP JUMPDEST PUSH0 DUP3 DUP3 MSTORE PUSH1 0x20 DUP3 ADD SWAP1 POP SWAP3 SWAP2 POP POP JUMP JUMPDEST PUSH0 PUSH2 0x37D4 DUP3 PUSH2 0x37B0 JUMP JUMPDEST PUSH2 0x37DE DUP2 DUP6 PUSH2 0x37BA JUMP JUMPDEST SWAP4 POP PUSH2 0x37EE DUP2 DUP6 PUSH1 0x20 DUP7 ADD PUSH2 0x25BA JUMP JUMPDEST PUSH2 0x37F7 DUP2 PUSH2 0x25C8 JUMP JUMPDEST DUP5 ADD SWAP2 POP POP SWAP3 SWAP2 POP POP JUMP JUMPDEST PUSH0 PUSH1 0x80 DUP3 ADD SWAP1 POP PUSH2 0x3815 PUSH0 DUP4 ADD DUP8 PUSH2 0x26BE JUMP JUMPDEST PUSH2 0x3822 PUSH1 0x20 DUP4 ADD DUP7 PUSH2 0x26BE JUMP JUMPDEST PUSH2 0x382F PUSH1 0x40 DUP4 ADD DUP6 PUSH2 0x274E JUMP JUMPDEST DUP2 DUP2 SUB PUSH1 0x60 DUP4 ADD MSTORE PUSH2 0x3841 DUP2 DUP5 PUSH2 0x37CA JUMP JUMPDEST SWAP1 POP SWAP6 SWAP5 POP POP POP POP POP JUMP JUMPDEST PUSH0 DUP2 MLOAD SWAP1 POP PUSH2 0x385A DUP2 PUSH2 0x2518 JUMP JUMPDEST SWAP3 SWAP2 POP POP JUMP JUMPDEST PUSH0 PUSH1 0x20 DUP3 DUP5 SUB SLT ISZERO PUSH2 0x3875 JUMPI PUSH2 0x3874 PUSH2 0x24E5 JUMP JUMPDEST JUMPDEST PUSH0 PUSH2 0x3882 DUP5 DUP3 DUP6 ADD PUSH2 0x384C JUMP JUMPDEST SWAP2 POP POP SWAP3 SWAP2 POP POP JUMP JUMPDEST PUSH32 0x455243373231456E756D657261626C653A20636F6E7365637574697665207472 PUSH0 DUP3 ADD MSTORE PUSH32 0x616E7366657273206E6F7420737570706F727465640000000000000000000000 PUSH1 0x20 DUP3 ADD MSTORE POP JUMP JUMPDEST PUSH0 PUSH2 0x38E5 PUSH1 0x35 DUP4 PUSH2 0x25AA JUMP JUMPDEST SWAP2 POP PUSH2 0x38F0 DUP3 PUSH2 0x388B JUMP JUMPDEST PUSH1 0x40 DUP3 ADD SWAP1 POP SWAP2 SWAP1 POP JUMP JUMPDEST PUSH0 PUSH1 0x20 DUP3 ADD SWAP1 POP DUP2 DUP2 SUB PUSH0 DUP4 ADD MSTORE PUSH2 0x3912 DUP2 PUSH2 0x38D9 JUMP JUMPDEST SWAP1 POP SWAP2 SWAP1 POP JUMP JUMPDEST PUSH32 0x4552433732313A206D696E7420746F20746865207A65726F2061646472657373 PUSH0 DUP3 ADD MSTORE POP JUMP JUMPDEST PUSH0 PUSH2 0x394D PUSH1 0x20 DUP4 PUSH2 0x25AA JUMP JUMPDEST SWAP2 POP PUSH2 0x3958 DUP3 PUSH2 0x3919 JUMP JUMPDEST PUSH1 0x20 DUP3 ADD SWAP1 POP SWAP2 SWAP1 POP JUMP JUMPDEST PUSH0 PUSH1 0x20 DUP3 ADD SWAP1 POP DUP2 DUP2 SUB PUSH0 DUP4 ADD MSTORE PUSH2 0x397A DUP2 PUSH2 0x3941 JUMP JUMPDEST SWAP1 POP SWAP2 SWAP1 POP JUMP JUMPDEST PUSH32 0x4552433732313A20746F6B656E20616C7265616479206D696E74656400000000 PUSH0 DUP3 ADD MSTORE POP JUMP JUMPDEST PUSH0 PUSH2 0x39B5 PUSH1 0x1C DUP4 PUSH2 0x25AA JUMP JUMPDEST SWAP2 POP PUSH2 0x39C0 DUP3 PUSH2 0x3981 JUMP JUMPDEST PUSH1 0x20 DUP3 ADD SWAP1 POP SWAP2 SWAP1 POP JUMP JUMPDEST PUSH0 PUSH1 0x20 DUP3 ADD SWAP1 POP DUP2 DUP2 SUB PUSH0 DUP4 ADD MSTORE PUSH2 0x39E2 DUP2 PUSH2 0x39A9 JUMP JUMPDEST SWAP1 POP SWAP2 SWAP1 POP JUMP JUMPDEST PUSH32 0x4E487B7100000000000000000000000000000000000000000000000000000000 PUSH0 MSTORE PUSH1 0x12 PUSH1 0x4 MSTORE PUSH1 0x24 PUSH0 REVERT JUMPDEST PUSH0 PUSH2 0x3A20 DUP3 PUSH2 0x2630 JUMP JUMPDEST SWAP2 POP PUSH2 0x3A2B DUP4 PUSH2 0x2630 JUMP JUMPDEST SWAP3 POP DUP3 DUP3 SUB SWAP1 POP DUP2 DUP2 GT ISZERO PUSH2 0x3A43 JUMPI PUSH2 0x3A42 PUSH2 0x304C JUMP JUMPDEST JUMPDEST SWAP3 SWAP2 POP POP JUMP JUMPDEST PUSH32 0x4E487B7100000000000000000000000000000000000000000000000000000000 PUSH0 MSTORE PUSH1 0x31 PUSH1 0x4 MSTORE PUSH1 0x24 PUSH0 REVERT INVALID PUSH9 0x747470733A2F2F6372 PUSH16 0x776465642D6861726C657175696E2D73 PUSH12 0x756E6B2E6D7966696C656261 PUSH20 0x652E636F6D2F697066732F516D5A334437416B36 0x4E CALLDATASIZE JUMP 0x4D CALLDATALOAD PUSH4 0x41525432 SSTORE BALANCE PUSH27 0x5756504A6876646D6153326979526833414E4447434E4D4C2FA264 PUSH10 0x7066735822122024658E 0xDF DELEGATECALL 0x25 PUSH14 0xBF49866107D9C5DDDB26C0EF9D0 DUP10 0xC6 EQ RETURNDATASIZE 0xC1 PUSH25 0x260EAEBC1164736F6C634300081E0033000000000000000000 "
		},
		"gasEstimates": {
			"creation": {
				"codeDepositCost": "3023800",
				"executionCost": "infinite",
				"totalCost": "infinite"
			},
			"external": {
				"approve(address,uint256)": "infinite",
				"balanceOf(address)": "2908",
				"getApproved(uint256)": "5281",
				"initialize(bytes,bytes)": "infinite",
				"isApprovedForAll(address,address)": "infinite",
				"name()": "infinite",
				"owner()": "2626",
				"ownerOf(uint256)": "3005",
				"renounceOwnership()": "30457",
				"safeMint(address,bytes)": "infinite",
				"safeTransferFrom(address,address,uint256)": "infinite",
				"safeTransferFrom(address,address,uint256,bytes)": "infinite",
				"setApprovalForAll(address,bool)": "infinite",
				"supportsInterface(bytes4)": "1011",
				"symbol()": "infinite",
				"tokenByIndex(uint256)": "infinite",
				"tokenOfOwnerByIndex(address,uint256)": "infinite",
				"tokenURI(uint256)": "infinite",
				"totalSupply()": "2552",
				"transferFrom(address,address,uint256)": "infinite",
				"transferOwnership(address)": "30863"
			},
			"internal": {
				"_baseURI()": "infinite",
				"_beforeTokenTransfer(address,address,uint256,uint256)": "infinite",
				"_burn(uint256)": "infinite"
			}
		},
		"methodIdentifiers": {
			"approve(address,uint256)": "095ea7b3",
			"balanceOf(address)": "70a08231",
			"getApproved(uint256)": "081812fc",
			"initialize(bytes,bytes)": "1af19f77",
			"isApprovedForAll(address,address)": "e985e9c5",
			"name()": "06fdde03",
			"owner()": "8da5cb5b",
			"ownerOf(uint256)": "6352211e",
			"renounceOwnership()": "715018a6",
			"safeMint(address,bytes)": "785bb03e",
			"safeTransferFrom(address,address,uint256)": "42842e0e",
			"safeTransferFrom(address,address,uint256,bytes)": "b88d4fde",
			"setApprovalForAll(address,bool)": "a22cb465",
			"supportsInterface(bytes4)": "01ffc9a7",
			"symbol()": "95d89b41",
			"tokenByIndex(uint256)": "4f6ccce7",
			"tokenOfOwnerByIndex(address,uint256)": "2f745c59",
			"tokenURI(uint256)": "c87b56dd",
			"totalSupply()": "18160ddd",
			"transferFrom(address,address,uint256)": "23b872dd",
			"transferOwnership(address)": "f2fde38b"
		}
	},
	"abi": [
		{
			"anonymous": false,
			"inputs": [
				{
					"indexed": true,
					"internalType": "address",
					"name": "owner",
					"type": "address"
				},
				{
					"indexed": true,
					"internalType": "address",
					"name": "approved",
					"type": "address"
				},
				{
					"indexed": true,
					"internalType": "uint256",
					"name": "tokenId",
					"type": "uint256"
				}
			],
			"name": "Approval",
			"type": "event"
		},
		{
			"anonymous": false,
			"inputs": [
				{
					"indexed": true,
					"internalType": "address",
					"name": "owner",
					"type": "address"
				},
				{
					"indexed": true,
					"internalType": "address",
					"name": "operator",
					"type": "address"
				},
				{
					"indexed": false,
					"internalType": "bool",
					"name": "approved",
					"type": "bool"
				}
			],
			"name": "ApprovalForAll",
			"type": "event"
		},
		{
			"anonymous": false,
			"inputs": [
				{
					"indexed": false,
					"internalType": "uint256",
					"name": "_fromTokenId",
					"type": "uint256"
				},
				{
					"indexed": false,
					"internalType": "uint256",
					"name": "_toTokenId",
					"type": "uint256"
				}
			],
			"name": "BatchMetadataUpdate",
			"type": "event"
		},
		{
			"anonymous": false,
			"inputs": [
				{
					"indexed": false,
					"internalType": "uint256",
					"name": "_tokenId",
					"type": "uint256"
				}
			],
			"name": "MetadataUpdate",
			"type": "event"
		},
		{
			"anonymous": false,
			"inputs": [
				{
					"indexed": true,
					"internalType": "address",
					"name": "previousOwner",
					"type": "address"
				},
				{
					"indexed": true,
					"internalType": "address",
					"name": "newOwner",
					"type": "address"
				}
			],
			"name": "OwnershipTransferred",
			"type": "event"
		},
		{
			"anonymous": false,
			"inputs": [
				{
					"indexed": true,
					"internalType": "address",
					"name": "from",
					"type": "address"
				},
				{
					"indexed": true,
					"internalType": "address",
					"name": "to",
					"type": "address"
				},
				{
					"indexed": true,
					"internalType": "uint256",
					"name": "tokenId",
					"type": "uint256"
				}
			],
			"name": "Transfer",
			"type": "event"
		},
		{
			"inputs": [
				{
					"internalType": "address",
					"name": "to",
					"type": "address"
				},
				{
					"internalType": "uint256",
					"name": "tokenId",
					"type": "uint256"
				}
			],
			"name": "approve",
			"outputs": [],
			"stateMutability": "nonpayable",
			"type": "function"
		},
		{
			"inputs": [
				{
					"internalType": "address",
					"name": "owner",
					"type": "address"
				}
			],
			"name": "balanceOf",
			"outputs": [
				{
					"internalType": "uint256",
					"name": "",
					"type": "uint256"
				}
			],
			"stateMutability": "view",
			"type": "function"
		},
		{
			"inputs": [
				{
					"internalType": "uint256",
					"name": "tokenId",
					"type": "uint256"
				}
			],
			"name": "getApproved",
			"outputs": [
				{
					"internalType": "address",
					"name": "",
					"type": "address"
				}
			],
			"stateMutability": "view",
			"type": "function"
		},
		{
			"inputs": [
				{
					"internalType": "bytes",
					"name": "_tokenName",
					"type": "bytes"
				},
				{
					"internalType": "bytes",
					"name": "_tokenSymbol",
					"type": "bytes"
				}
			],
			"name": "initialize",
			"outputs": [],
			"stateMutability": "nonpayable",
			"type": "function"
		},
		{
			"inputs": [
				{
					"internalType": "address",
					"name": "owner",
					"type": "address"
				},
				{
					"internalType": "address",
					"name": "operator",
					"type": "address"
				}
			],
			"name": "isApprovedForAll",
			"outputs": [
				{
					"internalType": "bool",
					"name": "",
					"type": "bool"
				}
			],
			"stateMutability": "view",
			"type": "function"
		},
		{
			"inputs": [],
			"name": "name",
			"outputs": [
				{
					"internalType": "string",
					"name": "",
					"type": "string"
				}
			],
			"stateMutability": "view",
			"type": "function"
		},
		{
			"inputs": [],
			"name": "owner",
			"outputs": [
				{
					"internalType": "address",
					"name": "",
					"type": "address"
				}
			],
			"stateMutability": "view",
			"type": "function"
		},
		{
			"inputs": [
				{
					"internalType": "uint256",
					"name": "tokenId",
					"type": "uint256"
				}
			],
			"name": "ownerOf",
			"outputs": [
				{
					"internalType": "address",
					"name": "",
					"type": "address"
				}
			],
			"stateMutability": "view",
			"type": "function"
		},
		{
			"inputs": [],
			"name": "renounceOwnership",
			"outputs": [],
			"stateMutability": "nonpayable",
			"type": "function"
		},
		{
			"inputs": [
				{
					"internalType": "address",
					"name": "to",
					"type": "address"
				},
				{
					"internalType": "bytes",
					"name": "uri",
					"type": "bytes"
				}
			],
			"name": "safeMint",
			"outputs": [
				{
					"internalType": "uint256",
					"name": "",
					"type": "uint256"
				}
			],
			"stateMutability": "nonpayable",
			"type": "function"
		},
		{
			"inputs": [
				{
					"internalType": "address",
					"name": "from",
					"type": "address"
				},
				{
					"internalType": "address",
					"name": "to",
					"type": "address"
				},
				{
					"internalType": "uint256",
					"name": "tokenId",
					"type": "uint256"
				}
			],
			"name": "safeTransferFrom",
			"outputs": [],
			"stateMutability": "nonpayable",
			"type": "function"
		},
		{
			"inputs": [
				{
					"internalType": "address",
					"name": "from",
					"type": "address"
				},
				{
					"internalType": "address",
					"name": "to",
					"type": "address"
				},
				{
					"internalType": "uint256",
					"name": "tokenId",
					"type": "uint256"
				},
				{
					"internalType": "bytes",
					"name": "data",
					"type": "bytes"
				}
			],
			"name": "safeTransferFrom",
			"outputs": [],
			"stateMutability": "nonpayable",
			"type": "function"
		},
		{
			"inputs": [
				{
					"internalType": "address",
					"name": "operator",
					"type": "address"
				},
				{
					"internalType": "bool",
					"name": "approved",
					"type": "bool"
				}
			],
			"name": "setApprovalForAll",
			"outputs": [],
			"stateMutability": "nonpayable",
			"type": "function"
		},
		{
			"inputs": [
				{
					"internalType": "bytes4",
					"name": "interfaceId",
					"type": "bytes4"
				}
			],
			"name": "supportsInterface",
			"outputs": [
				{
					"internalType": "bool",
					"name": "",
					"type": "bool"
				}
			],
			"stateMutability": "view",
			"type": "function"
		},
		{
			"inputs": [],
			"name": "symbol",
			"outputs": [
				{
					"internalType": "string",
					"name": "",
					"type": "string"
				}
			],
			"stateMutability": "view",
			"type": "function"
		},
		{
			"inputs": [
				{
					"internalType": "uint256",
					"name": "index",
					"type": "uint256"
				}
			],
			"name": "tokenByIndex",
			"outputs": [
				{
					"internalType": "uint256",
					"name": "",
					"type": "uint256"
				}
			],
			"stateMutability": "view",
			"type": "function"
		},
		{
			"inputs": [
				{
					"internalType": "address",
					"name": "owner",
					"type": "address"
				},
				{
					"internalType": "uint256",
					"name": "index",
					"type": "uint256"
				}
			],
			"name": "tokenOfOwnerByIndex",
			"outputs": [
				{
					"internalType": "uint256",
					"name": "",
					"type": "uint256"
				}
			],
			"stateMutability": "view",
			"type": "function"
		},
		{
			"inputs": [
				{
					"internalType": "uint256",
					"name": "tokenId",
					"type": "uint256"
				}
			],
			"name": "tokenURI",
			"outputs": [
				{
					"internalType": "string",
					"name": "",
					"type": "string"
				}
			],
			"stateMutability": "view",
			"type": "function"
		},
		{
			"inputs": [],
			"name": "totalSupply",
			"outputs": [
				{
					"internalType": "uint256",
					"name": "",
					"type": "uint256"
				}
			],
			"stateMutability": "view",
			"type": "function"
		},
		{
			"inputs": [
				{
					"internalType": "address",
					"name": "from",
					"type": "address"
				},
				{
					"internalType": "address",
					"name": "to",
					"type": "address"
				},
				{
					"internalType": "uint256",
					"name": "tokenId",
					"type": "uint256"
				}
			],
			"name": "transferFrom",
			"outputs": [],
			"stateMutability": "nonpayable",
			"type": "function"
		},
		{
			"inputs": [
				{
					"internalType": "address",
					"name": "newOwner",
					"type": "address"
				}
			],
			"name": "transferOwnership",
			"outputs": [],
			"stateMutability": "nonpayable",
			"type": "function"
		}
	]
}