{
	"data": {
		"bytecode": {
			"linkReferences": {},
			"object": "608060405260645f5f6101000a81548160ff021916908360ff1602179055505f5f9054906101000a900460ff1660405160200161003c91906100ab565b604051602081830303815290604052600190816100599190610302565b50348015610065575f5ffd5b506103d1565b5f60ff82169050919050565b5f8160f81b9050919050565b5f61008d82610077565b9050919050565b6100a56100a08261006b565b610083565b82525050565b5f6100b68284610094565b60018201915081905092915050565b5f81519050919050565b7f4e487b71000000000000000000000000000000000000000000000000000000005f52604160045260245ffd5b7f4e487b71000000000000000000000000000000000000000000000000000000005f52602260045260245ffd5b5f600282049050600182168061014057607f821691505b602082108103610153576101526100fc565b5b50919050565b5f819050815f5260205f209050919050565b5f6020601f8301049050919050565b5f82821b905092915050565b5f600883026101b57fffffffffffffffffffffffffffffffffffffffffffffffffffffffffffffffff8261017a565b6101bf868361017a565b95508019841693508086168417925050509392505050565b5f819050919050565b5f819050919050565b5f6102036101fe6101f9846101d7565b6101e0565b6101d7565b9050919050565b5f819050919050565b61021c836101e9565b6102306102288261020a565b848454610186565b825550505050565b5f5f905090565b610247610238565b610252818484610213565b505050565b5b818110156102755761026a5f8261023f565b600181019050610258565b5050565b601f8211156102ba5761028b81610159565b6102948461016b565b810160208510156102a3578190505b6102b76102af8561016b565b830182610257565b50505b505050565b5f82821c905092915050565b5f6102da5f19846008026102bf565b1980831691505092915050565b5f6102f283836102cb565b9150826002028217905092915050565b61030b826100c5565b67ffffffffffffffff811115610324576103236100cf565b5b61032e8254610129565b610339828285610279565b5f60209050601f83116001811461036a575f8415610358578287015190505b61036285826102e7565b8655506103c9565b601f19841661037886610159565b5f5b8281101561039f5784890151825560018201915060208501945060208101905061037a565b868310156103bc57848901516103b8601f8916826102cb565b8355505b6001600288020188555050505b505050505050565b610268806103de5f395ff3fe608060405234801561000f575f5ffd5b5060043610610034575f3560e01c80630dbe671f146100385780638381f58a14610056575b5f5ffd5b610040610074565b60405161004d919061012c565b60405180910390f35b61005e610085565b60405161006b91906101b5565b60405180910390f35b5f5f9054906101000a900460ff1681565b6001805461009290610202565b80601f01602080910402602001604051908101604052809291908181526020018280546100be90610202565b80156101095780601f106100e057610100808354040283529160200191610109565b820191905f5260205f20905b8154815290600101906020018083116100ec57829003601f168201915b505050505081565b5f60ff82169050919050565b61012681610111565b82525050565b5f60208201905061013f5f83018461011d565b92915050565b5f81519050919050565b5f82825260208201905092915050565b8281835e5f83830152505050565b5f601f19601f8301169050919050565b5f61018782610145565b610191818561014f565b93506101a181856020860161015f565b6101aa8161016d565b840191505092915050565b5f6020820190508181035f8301526101cd818461017d565b905092915050565b7f4e487b71000000000000000000000000000000000000000000000000000000005f52602260045260245ffd5b5f600282049050600182168061021957607f821691505b60208210810361022c5761022b6101d5565b5b5091905056fea2646970667358221220504e8150c96f48d5ccc3de3be8735f3cb1c2d89907b97e774948be2674c4aae064736f6c634300081e0033",
			"opcodes": "PUSH1 0x80 PUSH1 0x40 MSTORE PUSH1 0x64 PUSH0 PUSH0 PUSH2 0x100 EXP DUP2 SLOAD DUP2 PUSH1 0xFF MUL NOT AND SWAP1 DUP4 PUSH1 0xFF AND MUL OR SWAP1 SSTORE POP PUSH0 PUSH0 SWAP1 SLOAD SWAP1 PUSH2 0x100 EXP SWAP1 DIV PUSH1 0xFF AND PUSH1 0x40 MLOAD PUSH1 0x20 ADD PUSH2 0x3C SWAP2 SWAP1 PUSH2 0xAB JUMP JUMPDEST PUSH1 0x40 MLOAD PUSH1 0x20 DUP2 DUP4 SUB SUB DUP2 MSTORE SWAP1 PUSH1 0x40 MSTORE PUSH1 0x1 SWAP1 DUP2 PUSH2 0x59 SWAP2 SWAP1 PUSH2 0x302 JUMP JUMPDEST POP CALLVALUE DUP1 ISZERO PUSH2 0x65 JUMPI PUSH0 PUSH0 REVERT JUMPDEST POP PUSH2 0x3D1 JUMP JUMPDEST PUSH0 PUSH1 0xFF DUP3 AND SWAP1 POP SWAP2 SWAP1 POP JUMP JUMPDEST PUSH0 DUP2 PUSH1 0xF8 SHL SWAP1 POP SWAP2 SWAP1 POP JUMP JUMPDEST PUSH0 PUSH2 0x8D DUP3 PUSH2 0x77 JUMP JUMPDEST SWAP1 POP SWAP2 SWAP1 POP JUMP JUMPDEST PUSH2 0xA5 PUSH2 0xA0 DUP3 PUSH2 0x6B JUMP JUMPDEST PUSH2 0x83 JUMP JUMPDEST DUP3 MSTORE POP POP JUMP JUMPDEST PUSH0 PUSH2 0xB6 DUP3 DUP5 PUSH2 0x94 JUMP JUMPDEST PUSH1 0x1 DUP3 ADD SWAP2 POP DUP2 SWAP1 POP SWAP3 SWAP2 POP POP JUMP JUMPDEST PUSH0 DUP2 MLOAD SWAP1 POP SWAP2 SWAP1 POP JUMP JUMPDEST PUSH32 0x4E487B7100000000000000000000000000000000000000000000000000000000 PUSH0 MSTORE PUSH1 0x41 PUSH1 0x4 MSTORE PUSH1 0x24 PUSH0 REVERT JUMPDEST PUSH32 0x4E487B7100000000000000000000000000000000000000000000000000000000 PUSH0 MSTORE PUSH1 0x22 PUSH1 0x4 MSTORE PUSH1 0x24 PUSH0 REVERT JUMPDEST PUSH0 PUSH1 0x2 DUP3 DIV SWAP1 POP PUSH1 0x1 DUP3 AND DUP1 PUSH2 0x140 JUMPI PUSH1 0x7F DUP3 AND SWAP2 POP JUMPDEST PUSH1 0x20 DUP3 LT DUP2 SUB PUSH2 0x153 JUMPI PUSH2 0x152 PUSH2 0xFC JUMP JUMPDEST JUMPDEST POP SWAP2 SWAP1 POP JUMP JUMPDEST PUSH0 DUP2 SWAP1 POP DUP2 PUSH0 MSTORE PUSH1 0x20 PUSH0 KECCAK256 SWAP1 POP SWAP2 SWAP1 POP JUMP JUMPDEST PUSH0 PUSH1 0x20 PUSH1 0x1F DUP4 ADD DIV SWAP1 POP SWAP2 SWAP1 POP JUMP JUMPDEST PUSH0 DUP3 DUP3 SHL SWAP1 POP SWAP3 SWAP2 POP POP JUMP JUMPDEST PUSH0 PUSH1 0x8 DUP4 MUL PUSH2 0x1B5 PUSH32 0xFFFFFFFFFFFFFFFFFFFFFFFFFFFFFFFFFFFFFFFFFFFFFFFFFFFFFFFFFFFFFFFF DUP3 PUSH2 0x17A JUMP JUMPDEST PUSH2 0x1BF DUP7 DUP4 PUSH2 0x17A JUMP JUMPDEST SWAP6 POP DUP1 NOT DUP5 AND SWAP4 POP DUP1 DUP7 AND DUP5 OR SWAP3 POP POP POP SWAP4 SWAP3 POP POP POP JUMP JUMPDEST PUSH0 DUP2 SWAP1 POP SWAP2 SWAP1 POP JUMP JUMPDEST PUSH0 DUP2 SWAP1 POP SWAP2 SWAP1 POP JUMP JUMPDEST PUSH0 PUSH2 0x203 PUSH2 0x1FE PUSH2 0x1F9 DUP5 PUSH2 0x1D7 JUMP JUMPDEST PUSH2 0x1E0 JUMP JUMPDEST PUSH2 0x1D7 JUMP JUMPDEST SWAP1 POP SWAP2 SWAP1 POP JUMP JUMPDEST PUSH0 DUP2 SWAP1 POP SWAP2 SWAP1 POP JUMP JUMPDEST PUSH2 0x21C DUP4 PUSH2 0x1E9 JUMP JUMPDEST PUSH2 0x230 PUSH2 0x228 DUP3 PUSH2 0x20A JUMP JUMPDEST DUP5 DUP5 SLOAD PUSH2 0x186 JUMP JUMPDEST DUP3 SSTORE POP POP POP POP JUMP JUMPDEST PUSH0 PUSH0 SWAP1 POP SWAP1 JUMP JUMPDEST PUSH2 0x247 PUSH2 0x238 JUMP JUMPDEST PUSH2 0x252 DUP2 DUP5 DUP5 PUSH2 0x213 JUMP JUMPDEST POP POP POP JUMP JUMPDEST JUMPDEST DUP2 DUP2 LT ISZERO PUSH2 0x275 JUMPI PUSH2 0x26A PUSH0 DUP3 PUSH2 0x23F JUMP JUMPDEST PUSH1 0x1 DUP2 ADD SWAP1 POP PUSH2 0x258 JUMP JUMPDEST POP POP JUMP JUMPDEST PUSH1 0x1F DUP3 GT ISZERO PUSH2 0x2BA JUMPI PUSH2 0x28B DUP2 PUSH2 0x159 JUMP JUMPDEST PUSH2 0x294 DUP5 PUSH2 0x16B JUMP JUMPDEST DUP2 ADD PUSH1 0x20 DUP6 LT ISZERO PUSH2 0x2A3 JUMPI DUP2 SWAP1 POP JUMPDEST PUSH2 0x2B7 PUSH2 0x2AF DUP6 PUSH2 0x16B JUMP JUMPDEST DUP4 ADD DUP3 PUSH2 0x257 JUMP JUMPDEST POP POP JUMPDEST POP POP POP JUMP JUMPDEST PUSH0 DUP3 DUP3 SHR SWAP1 POP SWAP3 SWAP2 POP POP JUMP JUMPDEST PUSH0 PUSH2 0x2DA PUSH0 NOT DUP5 PUSH1 0x8 MUL PUSH2 0x2BF JUMP JUMPDEST NOT DUP1 DUP4 AND SWAP2 POP POP SWAP3 SWAP2 POP POP JUMP JUMPDEST PUSH0 PUSH2 0x2F2 DUP4 DUP4 PUSH2 0x2CB JUMP JUMPDEST SWAP2 POP DUP3 PUSH1 0x2 MUL DUP3 OR SWAP1 POP SWAP3 SWAP2 POP POP JUMP JUMPDEST PUSH2 0x30B DUP3 PUSH2 0xC5 JUMP JUMPDEST PUSH8 0xFFFFFFFFFFFFFFFF DUP2 GT ISZERO PUSH2 0x324 JUMPI PUSH2 0x323 PUSH2 0xCF JUMP JUMPDEST JUMPDEST PUSH2 0x32E DUP3 SLOAD PUSH2 0x129 JUMP JUMPDEST PUSH2 0x339 DUP3 DUP3 DUP6 PUSH2 0x279 JUMP JUMPDEST PUSH0 PUSH1 0x20 SWAP1 POP PUSH1 0x1F DUP4 GT PUSH1 0x1 DUP2 EQ PUSH2 0x36A JUMPI PUSH0 DUP5 ISZERO PUSH2 0x358 JUMPI DUP3 DUP8 ADD MLOAD SWAP1 POP JUMPDEST PUSH2 0x362 DUP6 DUP3 PUSH2 0x2E7 JUMP JUMPDEST DUP7 SSTORE POP PUSH2 0x3C9 JUMP JUMPDEST PUSH1 0x1F NOT DUP5 AND PUSH2 0x378 DUP7 PUSH2 0x159 JUMP JUMPDEST PUSH0 JUMPDEST DUP3 DUP2 LT ISZERO PUSH2 0x39F JUMPI DUP5 DUP10 ADD MLOAD DUP3 SSTORE PUSH1 0x1 DUP3 ADD SWAP2 POP PUSH1 0x20 DUP6 ADD SWAP5 POP PUSH1 0x20 DUP2 ADD SWAP1 POP PUSH2 0x37A JUMP JUMPDEST DUP7 DUP4 LT ISZERO PUSH2 0x3BC JUMPI DUP5 DUP10 ADD MLOAD PUSH2 0x3B8 PUSH1 0x1F DUP10 AND DUP3 PUSH2 0x2CB JUMP JUMPDEST DUP4 SSTORE POP JUMPDEST PUSH1 0x1 PUSH1 0x2 DUP9 MUL ADD DUP9 SSTORE POP POP POP JUMPDEST POP POP POP POP POP POP JUMP JUMPDEST PUSH2 0x268 DUP1 PUSH2 0x3DE PUSH0 CODECOPY PUSH0 RETURN INVALID PUSH1 0x80 PUSH1 0x40 MSTORE CALLVALUE DUP1 ISZERO PUSH2 0xF JUMPI PUSH0 PUSH0 REVERT JUMPDEST POP PUSH1 0x4 CALLDATASIZE LT PUSH2 0x34 JUMPI PUSH0 CALLDATALOAD PUSH1 0xE0 SHR DUP1 PUSH4 0xDBE671F EQ PUSH2 0x38 JUMPI DUP1 PUSH4 0x8381F58A EQ PUSH2 0x56 JUMPI JUMPDEST PUSH0 PUSH0 REVERT JUMPDEST PUSH2 0x40 PUSH2 0x74 JUMP JUMPDEST PUSH1 0x40 MLOAD PUSH2 0x4D SWAP2 SWAP1 PUSH2 0x12C JUMP JUMPDEST PUSH1 0x40 MLOAD DUP1 SWAP2 SUB SWAP1 RETURN JUMPDEST PUSH2 0x5E PUSH2 0x85 JUMP JUMPDEST PUSH1 0x40 MLOAD PUSH2 0x6B SWAP2 SWAP1 PUSH2 0x1B5 JUMP JUMPDEST PUSH1 0x40 MLOAD DUP1 SWAP2 SUB SWAP1 RETURN JUMPDEST PUSH0 PUSH0 SWAP1 SLOAD SWAP1 PUSH2 0x100 EXP SWAP1 DIV PUSH1 0xFF AND DUP2 JUMP JUMPDEST PUSH1 0x1 DUP1 SLOAD PUSH2 0x92 SWAP1 PUSH2 0x202 JUMP JUMPDEST DUP1 PUSH1 0x1F ADD PUSH1 0x20 DUP1 SWAP2 DIV MUL PUSH1 0x20 ADD PUSH1 0x40 MLOAD SWAP1 DUP2 ADD PUSH1 0x40 MSTORE DUP1 SWAP3 SWAP2 SWAP1 DUP2 DUP2 MSTORE PUSH1 0x20 ADD DUP3 DUP1 SLOAD PUSH2 0xBE SWAP1 PUSH2 0x202 JUMP JUMPDEST DUP1 ISZERO PUSH2 0x109 JUMPI DUP1 PUSH1 0x1F LT PUSH2 0xE0 JUMPI PUSH2 0x100 DUP1 DUP4 SLOAD DIV MUL DUP4 MSTORE SWAP2 PUSH1 0x20 ADD SWAP2 PUSH2 0x109 JUMP JUMPDEST DUP3 ADD SWAP2 SWAP1 PUSH0 MSTORE PUSH1 0x20 PUSH0 KECCAK256 SWAP1 JUMPDEST DUP2 SLOAD DUP2 MSTORE SWAP1 PUSH1 0x1 ADD SWAP1 PUSH1 0x20 ADD DUP1 DUP4 GT PUSH2 0xEC JUMPI DUP3 SWAP1 SUB PUSH1 0x1F AND DUP3 ADD SWAP2 JUMPDEST POP POP POP POP POP DUP2 JUMP JUMPDEST PUSH0 PUSH1 0xFF DUP3 AND SWAP1 POP SWAP2 SWAP1 POP JUMP JUMPDEST PUSH2 0x126 DUP2 PUSH2 0x111 JUMP JUMPDEST DUP3 MSTORE POP POP JUMP JUMPDEST PUSH0 PUSH1 0x20 DUP3 ADD SWAP1 POP PUSH2 0x13F PUSH0 DUP4 ADD DUP5 PUSH2 0x11D JUMP JUMPDEST SWAP3 SWAP2 POP POP JUMP JUMPDEST PUSH0 DUP2 MLOAD SWAP1 POP SWAP2 SWAP1 POP JUMP JUMPDEST PUSH0 DUP3 DUP3 MSTORE PUSH1 0x20 DUP3 ADD SWAP1 POP SWAP3 SWAP2 POP POP JUMP JUMPDEST DUP3 DUP2 DUP4 MCOPY PUSH0 DUP4 DUP4 ADD MSTORE POP POP POP JUMP JUMPDEST PUSH0 PUSH1 0x1F NOT PUSH1 0x1F DUP4 ADD AND SWAP1 POP SWAP2 SWAP1 POP JUMP JUMPDEST PUSH0 PUSH2 0x187 DUP3 PUSH2 0x145 JUMP JUMPDEST PUSH2 0x191 DUP2 DUP6 PUSH2 0x14F JUMP JUMPDEST SWAP4 POP PUSH2 0x1A1 DUP2 DUP6 PUSH1 0x20 DUP7 ADD PUSH2 0x15F JUMP JUMPDEST PUSH2 0x1AA DUP2 PUSH2 0x16D JUMP JUMPDEST DUP5 ADD SWAP2 POP POP SWAP3 SWAP2 POP POP JUMP JUMPDEST PUSH0 PUSH1 0x20 DUP3 ADD SWAP1 POP DUP2 DUP2 SUB PUSH0 DUP4 ADD MSTORE PUSH2 0x1CD DUP2 DUP5 PUSH2 0x17D JUMP JUMPDEST SWAP1 POP SWAP3 SWAP2 POP POP JUMP JUMPDEST PUSH32 0x4E487B7100000000000000000000000000000000000000000000000000000000 PUSH0 MSTORE PUSH1 0x22 PUSH1 0x4 MSTORE PUSH1 0x24 PUSH0 REVERT JUMPDEST PUSH0 PUSH1 0x2 DUP3 DIV SWAP1 POP PUSH1 0x1 DUP3 AND DUP1 PUSH2 0x219 JUMPI PUSH1 0x7F DUP3 AND SWAP2 POP JUMPDEST PUSH1 0x20 DUP3 LT DUP2 SUB PUSH2 0x22C JUMPI PUSH2 0x22B PUSH2 0x1D5 JUMP JUMPDEST JUMPDEST POP SWAP2 SWAP1 POP JUMP INVALID LOG2 PUSH5 0x6970667358 0x22 SLT KECCAK256 POP 0x4E DUP2 POP 0xC9 PUSH16 0x48D5CCC3DE3BE8735F3CB1C2D89907B9 PUSH31 0x774948BE2674C4AAE064736F6C634300081E00330000000000000000000000 "
		},
		"gasEstimates": {
			"creation": {
				"codeDepositCost": "123200",
				"executionCost": "infinite",
				"totalCost": "infinite"
			},
			"external": {
				"a()": "2443",
				"number()": "infinite"
			}
		},
		"methodIdentifiers": {
			"a()": "0dbe671f",
			"number()": "8381f58a"
		}
	},
	"abi": [
		{
			"inputs": [],
			"name": "a",
			"outputs": [
				{
					"internalType": "uint8",
					"name": "",
					"type": "uint8"
				}
			],
			"stateMutability": "view",
			"type": "function"
		},
		{
			"inputs": [],
			"name": "number",
			"outputs": [
				{
					"internalType": "bytes",
					"name": "",
					"type": "bytes"
				}
			],
			"stateMutability": "view",
			"type": "function"
		}
	]
}