{"contracts/extensions/ERC1155/TCF_ERC1155.sol":{"TCF_ERC1155":{"abi":[{"type":"function","name":"ESafeTransferFrom","inputs":[{"name":"from","type":"address","internalType":"address"},{"name":"to","type":"address","internalType":"address"},{"name":"id","type":"uint256","internalType":"uint256"},{"name":"indexes","type":"uint256[]","internalType":"uint256[]"},{"name":"data","type":"bytes","internalType":"bytes"}],"outputs":[],"stateMutability":"nonpayable"},{"type":"function","name":"balanceOf","inputs":[{"name":"account","type":"address","internalType":"address"},{"name":"id","type":"uint256","internalType":"uint256"}],"outputs":[{"name":"","type":"uint256","internalType":"uint256"}],"stateMutability":"view"},{"type":"function","name":"balanceOfBatch","inputs":[{"name":"","type":"address[]","internalType":"address[]"},{"name":"","type":"uint256[]","internalType":"uint256[]"}],"outputs":[{"name":"","type":"uint256[]","internalType":"uint256[]"}],"stateMutability":"view"},{"type":"function","name":"isApprovedForAll","inputs":[{"name":"account","type":"address","internalType":"address"},{"name":"operator","type":"address","internalType":"address"}],"outputs":[{"name":"","type":"bool","internalType":"bool"}],"stateMutability":"view"},{"type":"function","name":"ownerOf","inputs":[{"name":"tokenId","type":"uint256","internalType":"uint256"},{"name":"editionId","type":"uint256","internalType":"uint256"}],"outputs":[{"name":"","type":"address","internalType":"address"}],"stateMutability":"view"},{"type":"function","name":"safeBatchTransferFrom","inputs":[{"name":"","type":"address","internalType":"address"},{"name":"","type":"address","internalType":"address"},{"name":"","type":"uint256[]","internalType":"uint256[]"},{"name":"","type":"uint256[]","internalType":"uint256[]"},{"name":"","type":"bytes","internalType":"bytes"}],"outputs":[],"stateMutability":"nonpayable"},{"type":"function","name":"safeTransferFrom","inputs":[{"name":"","type":"address","internalType":"address"},{"name":"","type":"address","internalType":"address"},{"name":"","type":"uint256","internalType":"uint256"},{"name":"","type":"uint256","internalType":"uint256"},{"name":"","type":"bytes","internalType":"bytes"}],"outputs":[],"stateMutability":"nonpayable"},{"type":"function","name":"setApprovalForAll","inputs":[{"name":"operator","type":"address","internalType":"address"},{"name":"approved","type":"bool","internalType":"bool"}],"outputs":[],"stateMutability":"nonpayable"},{"type":"function","name":"supportsInterface","inputs":[{"name":"interfaceId","type":"bytes4","internalType":"bytes4"}],"outputs":[{"name":"","type":"bool","internalType":"bool"}],"stateMutability":"view"},{"type":"function","name":"uri","inputs":[{"name":"","type":"uint256","internalType":"uint256"}],"outputs":[{"name":"","type":"string","internalType":"string"}],"stateMutability":"view"},{"type":"event","name":"ApprovalForAll","inputs":[{"name":"account","type":"address","indexed":true,"internalType":"address"},{"name":"operator","type":"address","indexed":true,"internalType":"address"},{"name":"approved","type":"bool","indexed":false,"internalType":"bool"}],"anonymous":false},{"type":"event","name":"TransferBatch","inputs":[{"name":"operator","type":"address","indexed":true,"internalType":"address"},{"name":"from","type":"address","indexed":true,"internalType":"address"},{"name":"to","type":"address","indexed":true,"internalType":"address"},{"name":"ids","type":"uint256[]","indexed":false,"internalType":"uint256[]"},{"name":"values","type":"uint256[]","indexed":false,"internalType":"uint256[]"}],"anonymous":false},{"type":"event","name":"TransferSingle","inputs":[{"name":"operator","type":"address","indexed":true,"internalType":"address"},{"name":"from","type":"address","indexed":true,"internalType":"address"},{"name":"to","type":"address","indexed":true,"internalType":"address"},{"name":"id","type":"uint256","indexed":false,"internalType":"uint256"},{"name":"value","type":"uint256","indexed":false,"internalType":"uint256"}],"anonymous":false},{"type":"event","name":"URI","inputs":[{"name":"value","type":"string","indexed":false,"internalType":"string"},{"name":"id","type":"uint256","indexed":true,"internalType":"uint256"}],"anonymous":false}],"userdoc":{},"devdoc":{},"evm":{"bytecode":{"object":"608060405234801561001057600080fd5b5061124b806100206000396000f3fe608060405234801561001057600080fd5b506004361061009d5760003560e01c8063598c27bc11610066578063598c27bc14610140578063a22cb46514610153578063d9dad80d14610166578063e985e9c514610186578063f242432a146101995761009d565b8062fdd58e146100a257806301ffc9a7146100cb5780630e89341c146100eb5780632eb2c2d61461010b5780634e1273f414610120575b600080fd5b6100b56100b0366004610c21565b6101ac565b6040516100c2919061108c565b60405180910390f35b6100de6100d9366004610d13565b610225565b6040516100c29190610e73565b6100fe6100f9366004610d52565b61026d565b6040516100c29190610e7e565b61011e610119366004610a21565b610287565b005b61013361012e366004610c4a565b61029f565b6040516100c29190610e2f565b61011e61014e366004610ac7565b6102b9565b61011e610161366004610be7565b610319565b610179610174366004610d6a565b61032f565b6040516100c29190610dd6565b6100de6101943660046109ef565b610378565b61011e6101a7366004610b84565b6103a6565b60006001600160a01b0383166101dd5760405162461bcd60e51b81526004016101d490610f4d565b60405180910390fd5b600682106101fd5760405162461bcd60e51b81526004016101d490610f9c565b5060009081526007602090815260408083206001600160a01b03949094168352929052205490565b60006001600160e01b03198216636cdb3d1360e11b148061025657506001600160e01b031982166303a24d0760e21b145b806102655750610265826103be565b90505b919050565b606060405162461bcd60e51b81526004016101d490610ff6565b60405162461bcd60e51b81526004016101d490611018565b606060405162461bcd60e51b81526004016101d490611018565b6102c16103d7565b6001600160a01b0316866001600160a01b031614806102e757506102e7866101946103d7565b6103035760405162461bcd60e51b81526004016101d490610e91565b6103118686868686866103dc565b505050505050565b61032b6103246103d7565b83836106d4565b5050565b6000600683106103515760405162461bcd60e51b81526004016101d490610ec8565b5060009182526006602090815260408084209284529190529020546001600160a01b031690565b6001600160a01b03918216600090815260086020908152604080832093909416825291909152205460ff1690565b60405162461bcd60e51b81526004016101d490610fc7565b6001600160e01b031981166301ffc9a760e01b14919050565b335b90565b6001600160a01b0385166104025760405162461bcd60e51b81526004016101d490610f4d565b600684106104225760405162461bcd60e51b81526004016101d490610ec8565b60005b828110156104b85760008581526006602052604081206001600160a01b0389169186868581811061046657634e487b7160e01b600052603260045260246000fd5b60209081029290920135835250810191909152604001600020546001600160a01b0316146104a65760405162461bcd60e51b81526004016101d490610f73565b806104b08161110c565b915050610425565b5060006104c36103d7565b905060006104d086610777565b905060006104dd85610777565b90506104ed838a8a858589610311565b60005b858110156105835760008881526006602052604081206001600160a01b038c169189898581811061053157634e487b7160e01b600052603260045260246000fd5b60209081029290920135835250810191909152604001600020546001600160a01b0316146105715760405162461bcd60e51b81526004016101d490610f73565b8061057b8161110c565b9150506104f0565b5060008781526007602090815260408083206001600160a01b038d16845290915281208054878103909155905b868110156106275760008981526006602052604081208b918a8a858181106105e857634e487b7160e01b600052603260045260246000fd5b6020908102929092013583525081019190915260400160002080546001600160a01b0319166001600160a01b03929092169190911790556001016105b0565b5060008881526007602090815260408083206001600160a01b038d1684529091528120805488929061065a9084906110c7565b90915550506040516001600160a01b03808b16918c8216918716907fc3d58168c5ae7397731d063d5bbf3d657854427343f4c083240f7aacaa2d0f62906106a4908d908c90611095565b60405180910390a46106ba848b8b86868a610311565b6106c8848b8b8b8a8a6107d0565b50505050505050505050565b816001600160a01b0316836001600160a01b031614156107065760405162461bcd60e51b81526004016101d490610f26565b6001600160a01b0383811660008181526008602090815260408083209487168084529490915290819020805460ff1916851515179055517f17307eab39ab6107e8899845ad3d59bd9653f200f220920489ca2b5937696c319061076a908590610e73565b60405180910390a3505050565b604080516001808252818301909252606091600091906020808301908036833701905050905082816000815181106107bf57634e487b7160e01b600052603260045260246000fd5b602090810291909101015292915050565b6001600160a01b0384163b156103115760405163f23a6e6160e01b81526001600160a01b0385169063f23a6e61906108149089908990889088908890600401610dea565b602060405180830381600087803b15801561082e57600080fd5b505af192505050801561085e575060408051601f3d908101601f1916820190925261085b91810190610d36565b60015b6108be5761086a611153565b806308c379a014156108a4575061087f61116a565b8061088a57506108a6565b8060405162461bcd60e51b81526004016101d49190610e7e565b505b60405162461bcd60e51b81526004016101d490611041565b6001600160e01b0319811663f23a6e6160e01b146108ee5760405162461bcd60e51b81526004016101d490610eef565b50505050505050565b80356001600160a01b038116811461026857600080fd5b600082601f83011261091e578081fd5b8135602061092b826110a3565b60405161093882826110df565b838152828101915085830183850287018401881015610955578586fd5b855b8581101561097357813584529284019290840190600101610957565b5090979650505050505050565b600082601f830112610990578081fd5b813567ffffffffffffffff8111156109aa576109aa61113d565b6040516109c1601f8301601f1916602001826110df565b8181528460208386010111156109d5578283fd5b816020850160208301379081016020019190915292915050565b60008060408385031215610a01578182fd5b610a0a836108f7565b9150610a18602084016108f7565b90509250929050565b600080600080600060a08688031215610a38578081fd5b610a41866108f7565b9450610a4f602087016108f7565b9350604086013567ffffffffffffffff80821115610a6b578283fd5b610a7789838a0161090e565b94506060880135915080821115610a8c578283fd5b610a9889838a0161090e565b93506080880135915080821115610aad578283fd5b50610aba88828901610980565b9150509295509295909350565b60008060008060008060a08789031215610adf578081fd5b610ae8876108f7565b9550610af6602088016108f7565b945060408701359350606087013567ffffffffffffffff80821115610b19578283fd5b818901915089601f830112610b2c578283fd5b813581811115610b3a578384fd5b8a60208083028501011115610b4d578384fd5b602083019550809450506080890135915080821115610b6a578283fd5b50610b7789828a01610980565b9150509295509295509295565b600080600080600060a08688031215610b9b578081fd5b610ba4866108f7565b9450610bb2602087016108f7565b93506040860135925060608601359150608086013567ffffffffffffffff811115610bdb578182fd5b610aba88828901610980565b60008060408385031215610bf9578182fd5b610c02836108f7565b915060208301358015158114610c16578182fd5b809150509250929050565b60008060408385031215610c33578182fd5b610c3c836108f7565b946020939093013593505050565b60008060408385031215610c5c578182fd5b823567ffffffffffffffff80821115610c73578384fd5b818501915085601f830112610c86578384fd5b81356020610c93826110a3565b604051610ca082826110df565b8381528281019150858301838502870184018b1015610cbd578889fd5b8896505b84871015610ce657610cd2816108f7565b835260019690960195918301918301610cc1565b5096505086013592505080821115610cfc578283fd5b50610d098582860161090e565b9150509250929050565b600060208284031215610d24578081fd5b8135610d2f816111fc565b9392505050565b600060208284031215610d47578081fd5b8151610d2f816111fc565b600060208284031215610d63578081fd5b5035919050565b60008060408385031215610d7c578182fd5b50508035926020909101359150565b60008151808452815b81811015610db057602081850181015186830182015201610d94565b81811115610dc15782602083870101525b50601f01601f19169290920160200192915050565b6001600160a01b0391909116815260200190565b6001600160a01b03868116825285166020820152604081018490526060810183905260a060808201819052600090610e2490830184610d8b565b979650505050505050565b6020808252825182820181905260009190848201906040850190845b81811015610e6757835183529284019291840191600101610e4b565b50909695505050505050565b901515815260200190565b600060208252610d2f6020830184610d8b565b60208082526019908201527f43414c4c45525f4e4f545f4f574e45525f415050524f56454400000000000000604082015260600190565b6020808252600d908201526c544f4b454e49445f52414e474560981b604082015260600190565b6020808252601f908201527f4552433131353552454345495645525f52454a45435445445f544f4b454e5300604082015260600190565b6020808252600d908201526c20a8282927ab20a62fa9a2a62360991b604082015260600190565b6020808252600c908201526b5a45524f5f4144445245535360a01b604082015260600190565b6020808252600f908201526e1513d2d15397d393d517d3d5d39151608a1b604082015260600190565b6020808252601190820152704552525f544f4b454e49445f52414e474560781b604082015260600190565b6020808252601590820152745553455f45536166655472616e7366657246726f6d60581b604082015260600190565b6020808252600890820152675553455f4575726960c01b604082015260600190565b6020808252600f908201526e1393d517d253541311535153951151608a1b604082015260600190565b6020808252602b908201527f7472616e736665725f746f5f6e6f6e2d4552433131353552656365697665725f60408201526a34b6b83632b6b2b73a32b960a91b606082015260800190565b90815260200190565b918252602082015260400190565b600067ffffffffffffffff8211156110bd576110bd61113d565b5060209081020190565b600082198211156110da576110da611127565b500190565b601f8201601f1916810167ffffffffffffffff811182821017156111055761110561113d565b6040525050565b600060001982141561112057611120611127565b5060010190565b634e487b7160e01b600052601160045260246000fd5b634e487b7160e01b600052604160045260246000fd5b600060033d11156103d957600481823e5160e01c90565b600060443d101561117a576103d9565b6040516003193d81016004833e81513d67ffffffffffffffff81602484011181841117156111ac5750505050506103d9565b82850191508151818111156111c6575050505050506103d9565b843d87010160208285010111156111e2575050505050506103d9565b6111f1602082860101876110df565b509094505050505090565b6001600160e01b03198116811461121257600080fd5b5056fea26469706673582212200bf4c490bf7cdfa265fa0fc43163a321de026d0e09f8d3f0dd107262d0e55eef64736f6c63430008010033","linkReferences":{}},"methodIdentifiers":{"ESafeTransferFrom(address,address,uint256,uint256[],bytes)":"598c27bc","balanceOf(address,uint256)":"00fdd58e","balanceOfBatch(address[],uint256[])":"4e1273f4","isApprovedForAll(address,address)":"e985e9c5","ownerOf(uint256,uint256)":"d9dad80d","safeBatchTransferFrom(address,address,uint256[],uint256[],bytes)":"2eb2c2d6","safeTransferFrom(address,address,uint256,uint256,bytes)":"f242432a","setApprovalForAll(address,bool)":"a22cb465","supportsInterface(bytes4)":"01ffc9a7","uri(uint256)":"0e89341c"}}}}}