{"contracts/extensions/binaryTree/binaryTree.sol":{"BinaryTree":{"abi":[{"type":"function","name":"ESafeTransferFrom","inputs":[{"name":"from","type":"address","internalType":"address"},{"name":"to","type":"address","internalType":"address"},{"name":"id","type":"uint256","internalType":"uint256"},{"name":"indexes","type":"uint256[]","internalType":"uint256[]"},{"name":"data","type":"bytes","internalType":"bytes"}],"outputs":[],"stateMutability":"nonpayable"},{"type":"function","name":"NFTPrice_initialized","inputs":[],"outputs":[{"name":"","type":"uint8","internalType":"uint8"}],"stateMutability":"view"},{"type":"function","name":"NFTS","inputs":[{"name":"","type":"uint256","internalType":"uint256"}],"outputs":[{"name":"ratio","type":"uint8","internalType":"uint8"},{"name":"indate","type":"uint32","internalType":"uint32"}],"stateMutability":"view"},{"type":"function","name":"addSupportedToken","inputs":[{"name":"_tokenAddress","type":"address","internalType":"address"}],"outputs":[],"stateMutability":"nonpayable"},{"type":"function","name":"balanceOf","inputs":[{"name":"account","type":"address","internalType":"address"},{"name":"id","type":"uint256","internalType":"uint256"}],"outputs":[{"name":"","type":"uint256","internalType":"uint256"}],"stateMutability":"view"},{"type":"function","name":"balanceOfBatch","inputs":[{"name":"","type":"address[]","internalType":"address[]"},{"name":"","type":"uint256[]","internalType":"uint256[]"}],"outputs":[{"name":"","type":"uint256[]","internalType":"uint256[]"}],"stateMutability":"view"},{"type":"function","name":"changeDynamicRatio","inputs":[{"name":"tokenID","type":"uint256","internalType":"uint256"},{"name":"newRatio","type":"uint8","internalType":"uint8"}],"outputs":[],"stateMutability":"nonpayable"},{"type":"function","name":"changeNFTPrice","inputs":[{"name":"tokenID","type":"uint256","internalType":"uint256"},{"name":"tokenAddress","type":"address","internalType":"address"},{"name":"amount","type":"uint256","internalType":"uint256"}],"outputs":[],"stateMutability":"nonpayable"},{"type":"function","name":"checkInitPricesParams","inputs":[{"name":"prices","type":"tuple[][6]","internalType":"struct TCF_NFTPrice.priceTypeAndAomut[][6]","components":[{"name":"tokenAddress","type":"address","internalType":"address"},{"name":"amount","type":"uint256","internalType":"uint256"}]}],"outputs":[{"name":"","type":"string","internalType":"string"}],"stateMutability":"view"},{"type":"function","name":"getChildren","inputs":[{"name":"node","type":"address","internalType":"address"}],"outputs":[{"name":"left","type":"address","internalType":"address"},{"name":"right","type":"address","internalType":"address"}],"stateMutability":"view"},{"type":"function","name":"getNFTPrice","inputs":[{"name":"tokenID","type":"uint256","internalType":"uint256"},{"name":"_tokenAddress","type":"address","internalType":"address"}],"outputs":[{"name":"","type":"string","internalType":"string"},{"name":"","type":"uint256","internalType":"uint256"}],"stateMutability":"view"},{"type":"function","name":"getNftMintTime","inputs":[{"name":"tokenId","type":"uint256","internalType":"uint256"},{"name":"account","type":"address","internalType":"address"},{"name":"editionId","type":"uint256","internalType":"uint256"}],"outputs":[{"name":"","type":"uint256","internalType":"uint256"}],"stateMutability":"view"},{"type":"function","name":"getNodeBalance","inputs":[{"name":"node","type":"address","internalType":"address"}],"outputs":[{"name":"","type":"uint256","internalType":"uint256"}],"stateMutability":"view"},{"type":"function","name":"getParent","inputs":[{"name":"node","type":"address","internalType":"address"}],"outputs":[{"name":"","type":"address","internalType":"address"}],"stateMutability":"view"},{"type":"function","name":"getRecommendedParent","inputs":[{"name":"recommender","type":"address","internalType":"address"}],"outputs":[{"name":"parent","type":"address","internalType":"address"},{"name":"isLeftBranch","type":"bool","internalType":"bool"}],"stateMutability":"view"},{"type":"function","name":"getRecommender","inputs":[{"name":"node","type":"address","internalType":"address"}],"outputs":[{"name":"","type":"address","internalType":"address"}],"stateMutability":"view"},{"type":"function","name":"getTotalNFTWorth","inputs":[{"name":"owner","type":"address","internalType":"address"}],"outputs":[{"name":"","type":"uint256","internalType":"uint256"}],"stateMutability":"view"},{"type":"function","name":"getUserTokenIds","inputs":[{"name":"account","type":"address","internalType":"address"},{"name":"tokenId","type":"uint256","internalType":"uint256"}],"outputs":[{"name":"","type":"uint256[]","internalType":"uint256[]"}],"stateMutability":"view"},{"type":"function","name":"initPrice","inputs":[{"name":"prices","type":"tuple[][6]","internalType":"struct TCF_NFTPrice.priceTypeAndAomut[][6]","components":[{"name":"tokenAddress","type":"address","internalType":"address"},{"name":"amount","type":"uint256","internalType":"uint256"}]}],"outputs":[],"stateMutability":"nonpayable"},{"type":"function","name":"initRoot","inputs":[{"name":"rootAddress","type":"address","internalType":"address"}],"outputs":[],"stateMutability":"nonpayable"},{"type":"function","name":"insert","inputs":[{"name":"node","type":"address","internalType":"address"},{"name":"parent","type":"address","internalType":"address"},{"name":"recommender","type":"address","internalType":"address"},{"name":"isLeft","type":"bool","internalType":"bool"}],"outputs":[],"stateMutability":"nonpayable"},{"type":"function","name":"isApprovedForAll","inputs":[{"name":"account","type":"address","internalType":"address"},{"name":"operator","type":"address","internalType":"address"}],"outputs":[{"name":"","type":"bool","internalType":"bool"}],"stateMutability":"view"},{"type":"function","name":"isExist","inputs":[{"name":"node","type":"address","internalType":"address"}],"outputs":[{"name":"","type":"bool","internalType":"bool"}],"stateMutability":"view"},{"type":"function","name":"isSupported","inputs":[{"name":"token","type":"address","internalType":"address"}],"outputs":[{"name":"","type":"uint8","internalType":"uint8"}],"stateMutability":"view"},{"type":"function","name":"minChildSubtreeBalance","inputs":[{"name":"node","type":"address","internalType":"address"}],"outputs":[{"name":"","type":"uint256","internalType":"uint256"}],"stateMutability":"view"},{"type":"function","name":"owner","inputs":[],"outputs":[{"name":"","type":"address","internalType":"address"}],"stateMutability":"view"},{"type":"function","name":"ownerOf","inputs":[{"name":"tokenId","type":"uint256","internalType":"uint256"},{"name":"editionId","type":"uint256","internalType":"uint256"}],"outputs":[{"name":"","type":"address","internalType":"address"}],"stateMutability":"view"},{"type":"function","name":"renounceOwnership","inputs":[],"outputs":[],"stateMutability":"nonpayable"},{"type":"function","name":"root","inputs":[],"outputs":[{"name":"","type":"address","internalType":"address"}],"stateMutability":"view"},{"type":"function","name":"rootInitialized","inputs":[],"outputs":[{"name":"","type":"bool","internalType":"bool"}],"stateMutability":"view"},{"type":"function","name":"safeBatchTransferFrom","inputs":[{"name":"","type":"address","internalType":"address"},{"name":"","type":"address","internalType":"address"},{"name":"","type":"uint256[]","internalType":"uint256[]"},{"name":"","type":"uint256[]","internalType":"uint256[]"},{"name":"","type":"bytes","internalType":"bytes"}],"outputs":[],"stateMutability":"nonpayable"},{"type":"function","name":"safeTransferFrom","inputs":[{"name":"","type":"address","internalType":"address"},{"name":"","type":"address","internalType":"address"},{"name":"","type":"uint256","internalType":"uint256"},{"name":"","type":"uint256","internalType":"uint256"},{"name":"","type":"bytes","internalType":"bytes"}],"outputs":[],"stateMutability":"nonpayable"},{"type":"function","name":"setApprovalForAll","inputs":[{"name":"operator","type":"address","internalType":"address"},{"name":"approved","type":"bool","internalType":"bool"}],"outputs":[],"stateMutability":"nonpayable"},{"type":"function","name":"subtreeBalance","inputs":[{"name":"node","type":"address","internalType":"address"}],"outputs":[{"name":"","type":"uint256","internalType":"uint256"}],"stateMutability":"view"},{"type":"function","name":"supportedTokenAmount","inputs":[],"outputs":[{"name":"","type":"uint256","internalType":"uint256"}],"stateMutability":"view"},{"type":"function","name":"supportsInterface","inputs":[{"name":"interfaceId","type":"bytes4","internalType":"bytes4"}],"outputs":[{"name":"","type":"bool","internalType":"bool"}],"stateMutability":"view"},{"type":"function","name":"tokenAddress_array","inputs":[{"name":"","type":"uint256","internalType":"uint256"}],"outputs":[{"name":"","type":"address","internalType":"address"}],"stateMutability":"view"},{"type":"function","name":"totalTreeBalance","inputs":[],"outputs":[{"name":"","type":"uint256","internalType":"uint256"}],"stateMutability":"view"},{"type":"function","name":"transferOwnership","inputs":[{"name":"newOwner","type":"address","internalType":"address"}],"outputs":[],"stateMutability":"nonpayable"},{"type":"function","name":"uri","inputs":[{"name":"","type":"uint256","internalType":"uint256"}],"outputs":[{"name":"","type":"string","internalType":"string"}],"stateMutability":"view"},{"type":"event","name":"ApprovalForAll","inputs":[{"name":"account","type":"address","indexed":true,"internalType":"address"},{"name":"operator","type":"address","indexed":true,"internalType":"address"},{"name":"approved","type":"bool","indexed":false,"internalType":"bool"}],"anonymous":false},{"type":"event","name":"NodeInserted","inputs":[{"name":"node","type":"address","indexed":true,"internalType":"address"},{"name":"parent","type":"address","indexed":true,"internalType":"address"},{"name":"recommender","type":"address","indexed":true,"internalType":"address"},{"name":"isLeft","type":"bool","indexed":false,"internalType":"bool"}],"anonymous":false},{"type":"event","name":"OwnershipTransferred","inputs":[{"name":"previousOwner","type":"address","indexed":true,"internalType":"address"},{"name":"newOwner","type":"address","indexed":true,"internalType":"address"}],"anonymous":false},{"type":"event","name":"RootInitialized","inputs":[{"name":"root","type":"address","indexed":true,"internalType":"address"}],"anonymous":false},{"type":"event","name":"TransferBatch","inputs":[{"name":"operator","type":"address","indexed":true,"internalType":"address"},{"name":"from","type":"address","indexed":true,"internalType":"address"},{"name":"to","type":"address","indexed":true,"internalType":"address"},{"name":"ids","type":"uint256[]","indexed":false,"internalType":"uint256[]"},{"name":"values","type":"uint256[]","indexed":false,"internalType":"uint256[]"}],"anonymous":false},{"type":"event","name":"TransferSingle","inputs":[{"name":"operator","type":"address","indexed":true,"internalType":"address"},{"name":"from","type":"address","indexed":true,"internalType":"address"},{"name":"to","type":"address","indexed":true,"internalType":"address"},{"name":"id","type":"uint256","indexed":false,"internalType":"uint256"},{"name":"value","type":"uint256","indexed":false,"internalType":"uint256"}],"anonymous":false},{"type":"event","name":"URI","inputs":[{"name":"value","type":"string","indexed":false,"internalType":"string"},{"name":"id","type":"uint256","indexed":true,"internalType":"uint256"}],"anonymous":false}],"userdoc":{},"devdoc":{},"evm":{"bytecode":{"object":"60806040523480156200001157600080fd5b506200002662000020620000a4565b620000a8565b600a6020527fbbc70db1b6c7afd11e79c0fb0051300458f1a3acb8ee9789d9b6b26c61ad9bc7805460ff19166001908117909155600c805480830182556000919091527fdf6966c971051c3d54ec59162606531493a51404a002842f56009d7e5cf4a8c70180546001600160a01b03191682179055600b55620000fa565b3390565b600980546001600160a01b038381166001600160a01b0319831681179093556040519116919082907f8be0079c531659141344cd1fd0a4f28419497f9722a3daafe3b4186f6b6457e090600090a35050565b613ae2806200010a6000396000f3fe608060405234801561001057600080fd5b50600436106102465760003560e01c80636d69fcaf1161013b578063a9405923116100b8578063e5030adc1161007c578063e5030adc14610533578063e985e9c514610546578063ebf0c71714610559578063f242432a14610561578063f2fde38b1461057457610246565b8063a9405923146104c6578063aa31281c146104d9578063b788920e146104ec578063c9b6b485146104ff578063d9dad80d1461052057610246565b80638da5cb5b116100ff5780638da5cb5b1461047d57806392aeff48146104855780639f2980db14610498578063a15113d1146104ab578063a22cb465146104b357610246565b80636d69fcaf1461041b578063715018a61461042e5780637c8e2da71461043657806383023c881461044957806386ff91131461045c57610246565b80632eb2c2d6116101c95780634f129c531161018d5780634f129c53146103b957806355826313146103cc578063598c27bc146103df578063651583ee146103f25780636999fa45146103fa57610246565b80632eb2c2d61461033b5780633a4d2d3a146103505780633f257599146103635780634c8cb672146103845780634e1273f41461039957610246565b8063153154fd11610210578063153154fd146102da57806319d62e57146102fa5780631f3fd6181461030d57806323361283146103205780632653335a1461032857610246565b806213eb4b1461024b578062fdd58e1461027457806301ffc9a71461029457806307f241ce146102a75780630e89341c146102ba575b600080fd5b61025e610259366004612c57565b610587565b60405161026b919061331c565b60405180910390f35b610287610282366004612ee5565b6105e5565b60405161026b919061382a565b61025e6102a236600461300f565b610658565b6102876102b5366004612c57565b610698565b6102cd6102c8366004613103565b6106e3565b60405161026b9190613327565b6102ed6102e8366004612c57565b6106fd565b60405161026b919061324a565b6102ed610308366004613103565b610761565b6102cd61031b366004612fd7565b61078b565b610287610a9b565b610287610336366004612c57565b610aa1565b61034e610349366004612cf6565b610ba7565b005b61034e61035e366004612fd7565b610bbf565b610376610371366004612c57565b610ecd565b60405161026b9291906132bd565b61038c61101c565b60405161026b9190613841565b6103ac6103a7366004612f0e565b61102a565b60405161026b91906132d8565b61038c6103c7366004612c57565b611044565b61034e6103da36600461313d565b611078565b61034e6103ed366004612d9c565b6110eb565b61025e61114b565b61040d610408366004612c57565b61115b565b60405161026b92919061325e565b61034e610429366004612c57565b6111ce565b61034e6112b7565b610287610444366004612c57565b6112cb565b61034e610457366004613192565b611342565b61046f61046a36600461311b565b6113ba565b60405161026b92919061333a565b6102ed611467565b61034e610493366004612c57565b611477565b61034e6104a6366004612ca3565b611563565b610287611872565b61034e6104c1366004612ebc565b6118b8565b6102ed6104d4366004612c57565b6118ce565b6102876104e736600461313d565b61192f565b6103ac6104fa366004612ee5565b611981565b61051261050d366004613103565b611a16565b60405161026b92919061384f565b6102ed61052e366004613171565b611a3b565b610287610541366004612c57565b611a84565b61025e610554366004612c71565b611c36565b6102ed611c64565b61034e61056f366004612e59565b611c73565b61034e610582366004612c57565b611c8b565b60006001600160a01b0382166105b85760405162461bcd60e51b81526004016105af90613584565b60405180910390fd5b506001600160a01b038116600090815260126020526040902060030154600160a01b900460ff165b919050565b60006001600160a01b03831661060d5760405162461bcd60e51b81526004016105af90613584565b6006821061062d5760405162461bcd60e51b81526004016105af906135d3565b5060008181526007602090815260408083206001600160a01b03861684529091529020545b92915050565b60006001600160e01b03198216636cdb3d1360e11b148061068957506001600160e01b031982166303a24d0760e21b145b80610652575061065282611cc5565b6001600160a01b038116600090815260126020526040812060030154600160a01b900460ff166106da5760405162461bcd60e51b81526004016105af90613801565b61065282611a84565b606060405162461bcd60e51b81526004016105af9061376b565b6001600160a01b038116600090815260126020526040812060030154600160a01b900460ff1661073f5760405162461bcd60e51b81526004016105af90613801565b506001600160a01b039081166000908152601260205260409020600301541690565b600c818154811061077157600080fd5b6000918252602090912001546001600160a01b0316905081565b606060005b6006811015610a8557600b548382600681106107bc57634e487b7160e01b600052603260045260246000fd5b6020028101906107cc9190613868565b9050146107fb57505060408051808201909152600a815269282924a1a2a9afa622a760b11b60208201526105e0565b600080600085846006811061082057634e487b7160e01b600052603260045260246000fd5b6020028101906108309190613868565b808060200260200160405190810160405280939291908181526020016000905b8282101561087c5761086d604083028601368190038101906130c5565b81526020019060010190610850565b5050505050905060005b600b548110156109f75760008282815181106108b257634e487b7160e01b600052603260045260246000fd5b60209081029190910101515190506001600160a01b0381166108d757600194506108dc565b600193505b60006001600160a01b031683838151811061090757634e487b7160e01b600052603260045260246000fd5b6020026020010151600001516001600160a01b0316141580156109765750600a600084848151811061094957634e487b7160e01b600052603260045260246000fd5b602090810291909101810151516001600160a01b031682528101919091526040016000205460ff16600114155b156109e6576109d983838151811061099e57634e487b7160e01b600052603260045260246000fd5b602002602001015160000151604051806040016040528060118152602001701513d2d15397d55394d5541413d4951151607a1b815250611cde565b96505050505050506105e0565b506109f0816139a6565b9050610886565b5082610a3457604051806040016040528060138152602001721510d7d4149250d157d35554d517d1561254d5606a1b8152509450505050506105e0565b81610a7157604051806040016040528060148152602001731110d197d4149250d157d35554d517d1561254d560621b8152509450505050506105e0565b50505080610a7e906139a6565b9050610790565b5050604080516020810190915260008152919050565b600b5481565b601154600090600160a01b900460ff16610acd5760405162461bcd60e51b81526004016105af90613556565b6001600160a01b038216600090815260126020526040902060030154600160a01b900460ff16610b0f5760405162461bcd60e51b81526004016105af90613801565b6001600160a01b038083166000908152601260205260408120600181015490921615610b51576001820154610b4c906001600160a01b0316611d12565b610b54565b60005b60028301549091506000906001600160a01b031615610b89576002830154610b84906001600160a01b0316611d12565b610b8c565b60005b905080821115610b9c5780610b9e565b815b95945050505050565b60405162461bcd60e51b81526004016105af9061378d565b610bc7611db1565b600d5460ff16600114610bec5760405162461bcd60e51b81526004016105af9061370c565b600d54610100900460ff1615610c145760405162461bcd60e51b81526004016105af906135fe565b6000610c1f8261078b565b90508051600014610c44578060405162461bcd60e51b81526004016105af9190613327565b6040805160c0808201835262ed4e008252630107ac0060208084019190915263013c68008385015263017124006060808501919091526301a5e0006080808601919091526301da9c0060a0808701919091528651948501875260288552603293850193909352603c95840195909552605090830152605a93820193909352606492810192909252906000610cd88580613868565b9050905060005b6006811015610eb657838160068110610d0857634e487b7160e01b600052603260045260246000fd5b6020020151600e600083815260200190815260200160002060010160016101000a81548163ffffffff021916908363ffffffff160217905550828160068110610d6157634e487b7160e01b600052603260045260246000fd5b602090810291909101516000838152600e90925260408220600101805460ff191660ff9092169190911790555b82811015610ea5576000878360068110610db857634e487b7160e01b600052603260045260246000fd5b602002810190610dc89190613868565b83818110610de657634e487b7160e01b600052603260045260246000fd5b610dfc9260206040909202019081019150612c57565b90506001600160a01b038116610e10575060015b878360068110610e3057634e487b7160e01b600052603260045260246000fd5b602002810190610e409190613868565b83818110610e5e57634e487b7160e01b600052603260045260246000fd5b6000868152600e602090815260408083206001600160a01b039790971683529581529085902091909402929092019092013590555080610e9d816139a6565b915050610d8e565b50610eaf816139a6565b9050610cdf565b5050600d805461ff00191661010017905550505050565b6011546000908190600160a01b900460ff16610efb5760405162461bcd60e51b81526004016105af90613556565b6001600160a01b038316600090815260126020526040902060030154600160a01b900460ff16610f3d5760405162461bcd60e51b81526004016105af90613684565b825b6001600160a01b038082166000908152601260205260408120600181015490921615610f81576001820154610f7c906001600160a01b0316611d12565b610f84565b60005b60028301549091506000906001600160a01b031615610fb9576002830154610fb4906001600160a01b0316611d12565b610fbc565b60005b905080821115600081610fdc5760028501546001600160a01b0316610feb565b60018501546001600160a01b03165b90506001600160a01b03811661100b575093955092935061101792505050565b9450610f3f9350505050565b915091565b600d54610100900460ff1681565b606060405162461bcd60e51b81526004016105af9061378d565b60006001600160a01b03821661105957600191505b506001600160a01b03166000908152600a602052604090205460ff1690565b611080611db1565b600061108c8484611df0565b905080516000146110b1578060405162461bcd60e51b81526004016105af9190613327565b6001600160a01b0383166110c457600192505b506000928352600e602090815260408085206001600160a01b039094168552929052912055565b6110f3611ef2565b6001600160a01b0316866001600160a01b03161480611119575061111986610554611ef2565b6111355760405162461bcd60e51b81526004016105af90613404565b611143868686868686611ef6565b505050505050565b601154600160a01b900460ff1681565b6001600160a01b0381166000908152601260205260408120600301548190600160a01b900460ff1661119f5760405162461bcd60e51b81526004016105af90613801565b50506001600160a01b039081166000908152601260205260409020600181015460029091015490821692911690565b6111d6611db1565b600d5460ff16156111f95760405162461bcd60e51b81526004016105af9061335c565b6000611204826121c5565b90508051600014611229578060405162461bcd60e51b81526004016105af9190613327565b6001600160a01b0382166000818152600a60205260408120805460ff19166001908117909155600c805480830182559083527fdf6966c971051c3d54ec59162606531493a51404a002842f56009d7e5cf4a8c70180546001600160a01b031916909317909255600b80549091906112a19084906138fb565b9091555050600d805460ff191660011790555050565b6112bf611db1565b6112c960006123aa565b565b601154600090600160a01b900460ff166112f75760405162461bcd60e51b81526004016105af90613556565b6001600160a01b038216600090815260126020526040902060030154600160a01b900460ff166113395760405162461bcd60e51b81526004016105af90613801565b61065282611d12565b61134a611db1565b600d5460ff610100909104166001146113755760405162461bcd60e51b81526004016105af9061373b565b600682106113955760405162461bcd60e51b81526004016105af9061349a565b6000918252600e6020526040909120600101805460ff191660ff909216919091179055565b60606000806113c98585611df0565b905080516000146113df57915060009050611460565b6001600160a01b0384166113f257600193505b6000858152600e602090815260408083206001600160a01b03881684529091529020548061144b57505060408051808201909152600d81526c14149250d157d393d517d4d155609a1b6020820152915060009050611460565b60408051602081019091526000815293509150505b9250929050565b6009546001600160a01b03165b90565b61147f611db1565b601154600160a01b900460ff16156114a95760405162461bcd60e51b81526004016105af9061343b565b6001600160a01b0381166114cf5760405162461bcd60e51b81526004016105af90613584565b601180546001600160a01b0383166001600160a01b031960ff60a01b19928316600160a01b9081178216831790945560008281526012602052604080822060038101805482548616835560018301805487169055600283018054871690559096169096179092169093555190917fbeec1fc786857549cbe9ae8717fa0fbdea9bb7386027cbad8197404a3c94421091a25050565b601154600160a01b900460ff1661158c5760405162461bcd60e51b81526004016105af90613556565b6001600160a01b038416158015906115ac57506001600160a01b03831615155b80156115c057506001600160a01b03821615155b6115dc5760405162461bcd60e51b81526004016105af90613584565b6001600160a01b038416600090815260126020526040902060030154600160a01b900460ff161561161f5760405162461bcd60e51b81526004016105af9061362a565b6001600160a01b038316600090815260126020526040902060030154600160a01b900460ff166116615760405162461bcd60e51b81526004016105af906136b3565b6001600160a01b038216600090815260126020526040902060030154600160a01b900460ff166116a35760405162461bcd60e51b81526004016105af90613684565b6116ad82846123fc565b6116c95760405162461bcd60e51b81526004016105af906134f8565b6001600160a01b03808416600090815260126020526040902060018101549091161580611701575060028101546001600160a01b0316155b61171d5760405162461bcd60e51b81526004016105af906133cd565b811561177a5760018101546001600160a01b0316611757576001810180546001600160a01b0319166001600160a01b038716179055611775565b6002810180546001600160a01b0319166001600160a01b0387161790555b6117cc565b60028101546001600160a01b03166117ae576002810180546001600160a01b0319166001600160a01b0387161790556117cc565b6001810180546001600160a01b0319166001600160a01b0387161790555b6001600160a01b038086166000818152601260205260409081902060038101805482548a87166001600160a01b0319918216811785556001850180548316905560028501805483169055968a1660ff60a01b19909216600160a01b17168117909155915190939192907fb7de7526072e4403cbc0296462672a10ed96d94c4169dc8b84b07515e949013d9061186290889061331c565b60405180910390a4505050505050565b601154600090600160a01b900460ff1661189e5760405162461bcd60e51b81526004016105af90613556565b6011546118b3906001600160a01b0316611d12565b905090565b6118ca6118c3611ef2565b838361245d565b5050565b6001600160a01b038116600090815260126020526040812060030154600160a01b900460ff166119105760405162461bcd60e51b81526004016105af90613801565b506001600160a01b039081166000908152601260205260409020541690565b6000600684106119515760405162461bcd60e51b81526004016105af9061349a565b5060009283526010602090815260408085206001600160a01b039490941685529281528284209184525290205490565b6060600682106119a35760405162461bcd60e51b81526004016105af9061349a565b6001600160a01b0383166000908152600f6020908152604080832085845282529182902080548351818402810184019094528084529091830182828015611a0957602002820191906000526020600020905b8154815260200190600101908083116119f5575b5050505050905092915050565b600e6020526000908152604090206001015460ff811690610100900463ffffffff1682565b600060068310611a5d5760405162461bcd60e51b81526004016105af9061349a565b5060009182526006602090815260408084209284529190529020546001600160a01b031690565b60006001600160a01b038216611aac5760405162461bcd60e51b81526004016105af90613584565b6000805b6006811015611c2f576001600160a01b0384166000908152600f60209081526040808320848452825280832080548251818502810185019093528083529192909190830182828015611b2157602002820191906000526020600020905b815481526020019060010190808311611b0d575b5050505050905060005b8151811015611c1a576000828281518110611b5657634e487b7160e01b600052603260045260246000fd5b60209081029190910181015160008681526010835260408082206001600160a01b038c1683528452808220838352845280822054888352600e909452902060010154909250610100900463ffffffff16611bb081836138fb565b421115611bbf57505050611c08565b600080611bcd8860006113ba565b9150915081516000148290611bf55760405162461bcd60e51b81526004016105af9190613327565b50611c00818a6138fb565b985050505050505b80611c12816139a6565b915050611b2b565b50508080611c27906139a6565b915050611ab0565b5092915050565b6001600160a01b03918216600090815260086020908152604080832093909416825291909152205460ff1690565b6011546001600160a01b031681565b60405162461bcd60e51b81526004016105af906136dd565b611c93611db1565b6001600160a01b038116611cb95760405162461bcd60e51b81526004016105af90613387565b611cc2816123aa565b50565b6001600160e01b031981166301ffc9a760e01b14919050565b606081611cea84612500565b604051602001611cfb92919061320e565b604051602081830303815290604052905092915050565b60006001600160a01b038216611d2a575060006105e0565b6001600160a01b03821660009081526012602052604090206003810154600160a01b900460ff16611d5f5760009150506105e0565b6002810154611d76906001600160a01b0316611d12565b6001820154611d8d906001600160a01b0316611d12565b611d9685611a84565b611da091906138fb565b611daa91906138fb565b9392505050565b611db9611ef2565b6001600160a01b0316611dca611467565b6001600160a01b0316146112c95760405162461bcd60e51b81526004016105af9061364f565b600d5460609060ff61010090910416600114611e39575060408051808201909152601681527514149250d154d7d393d517d25392551250531256915160521b6020820152610652565b6005831115611e6c575060408051808201909152600d81526c544f4b454e49445f52414e474560981b6020820152610652565b6001600160a01b038216611e7f57600191505b6001600160a01b0382166000908152600a602052604090205460ff16600114611edc57611ed582604051806040016040528060118152602001701513d2d15397d55394d5541413d4951151607a1b815250611cde565b9050610652565b5060408051602081019091526000815292915050565b3390565b6001600160a01b038516611f1c5760405162461bcd60e51b81526004016105af90613584565b60068410611f3c5760405162461bcd60e51b81526004016105af9061349a565b60005b828110156121b6576000848483818110611f6957634e487b7160e01b600052603260045260246000fd5b60008981526010602090815260408083206001600160a01b038f168085529083528184209483029690960135808452938252808320548c8452600e909252909120600101549194509261010090910463ffffffff169150611fca8985611a3b565b6001600160a01b031614611ff05760405162461bcd60e51b81526004016105af906135aa565b611ffa81836138fb565b42116120185760405162461bcd60e51b81526004016105af90613472565b60008881526010602090815260408083206001600160a01b03808e1680865291845282852088865284528285208590558e168452600f8084528285208d8652845282852091855283528184208c8552909252822090915b825481101561215c578583828154811061209957634e487b7160e01b600052603260045260246000fd5b9060005260206000200154141561214a57825483906120ba90600190613932565b815481106120d857634e487b7160e01b600052603260045260246000fd5b906000526020600020015483828154811061210357634e487b7160e01b600052603260045260246000fd5b90600052602060002001819055508280548061212f57634e487b7160e01b600052603160045260246000fd5b6001900381819060005260206000200160009055905561215c565b80612154816139a6565b91505061206f565b508054600181018255600091825260208083209091018690558a82526010815260408083206001600160a01b038f168452825280832096835295905293842093909355508291506121ae9050816139a6565b915050611f3f565b506111438686868686866126ef565b6001600160a01b0381166000908152600a602052604090205460609060ff166001141561222057612219826040518060400160405280600b81526020016a414444525f45584953545360a81b815250611cde565b90506105e0565b60408051600481526024810182526020810180516001600160e01b03166395d89b4160e01b179052905160009081906001600160a01b038616906122659085906131f2565b600060405180830381855afa9150503d80600081146122a0576040519150601f19603f3d011682016040523d82523d6000602084013e6122a5565b606091505b50915091508180156122b8575060008151115b1561235f576000818060200190518101906122d39190613047565b80516020808301919091206040805180820190915260038152622221a360e91b9201919091529091507f580e4ba285e7e1134de91e671c33b0ab748bee7126d5d2e4d0845e6ad176e7eb81146123585761234c87604051806040016040528060078152602001662727aa2fa221a360c91b815250611cde565b955050505050506105e0565b5050612392565b61238885604051806040016040528060078152602001662727aa2fa221a360c91b815250611cde565b93505050506105e0565b50506040805160208101909152600081529392505050565b600980546001600160a01b038381166001600160a01b0319831681179093556040519116919082907f8be0079c531659141344cd1fd0a4f28419497f9722a3daafe3b4186f6b6457e090600090a35050565b6000815b6001600160a01b0381161561245357836001600160a01b0316816001600160a01b03161415612433576001915050610652565b6001600160a01b0390811660009081526012602052604090205416612400565b5060009392505050565b816001600160a01b0316836001600160a01b0316141561248f5760405162461bcd60e51b81526004016105af9061352f565b6001600160a01b0383811660008181526008602090815260408083209487168084529490915290819020805460ff1916851515179055517f17307eab39ab6107e8899845ad3d59bd9653f200f220920489ca2b5937696c31906124f390859061331c565b60405180910390a3505050565b60408051602a808252606082810190935283831b916f181899199a1a9b1b9c1cb0b131b232b360811b9160009190602082018180368337019050509050600360fc1b8160008151811061256357634e487b7160e01b600052603260045260246000fd5b60200101906001600160f81b031916908160001a905350600f60fb1b816001815181106125a057634e487b7160e01b600052603260045260246000fd5b60200101906001600160f81b031916908160001a90535060005b60148110156126e65760008482601481106125e557634e487b7160e01b600052603260045260246000fd5b1a905083600482901c60ff166010811061260f57634e487b7160e01b600052603260045260246000fd5b1a60f81b8361261f846002613913565b61262a9060026138fb565b8151811061264857634e487b7160e01b600052603260045260246000fd5b60200101906001600160f81b031916908160001a90535083600f82166010811061268257634e487b7160e01b600052603260045260246000fd5b1a60f81b83612692846002613913565b61269d9060036138fb565b815181106126bb57634e487b7160e01b600052603260045260246000fd5b60200101906001600160f81b031916908160001a9053505080806126de906139a6565b9150506125ba565b50949350505050565b6001600160a01b0385166127155760405162461bcd60e51b81526004016105af90613584565b600684106127355760405162461bcd60e51b81526004016105af9061349a565b60005b828110156127cb5760008581526006602052604081206001600160a01b0389169186868581811061277957634e487b7160e01b600052603260045260246000fd5b60209081029290920135835250810191909152604001600020546001600160a01b0316146127b95760405162461bcd60e51b81526004016105af906135aa565b806127c3816139a6565b915050612738565b5060006127d6611ef2565b905060006127e3866129e7565b905060006127f0856129e7565b9050612800838a8a858589611143565b60005b858110156128965760008881526006602052604081206001600160a01b038c169189898581811061284457634e487b7160e01b600052603260045260246000fd5b60209081029290920135835250810191909152604001600020546001600160a01b0316146128845760405162461bcd60e51b81526004016105af906135aa565b8061288e816139a6565b915050612803565b5060008781526007602090815260408083206001600160a01b038d16845290915281208054878103909155905b8681101561293a5760008981526006602052604081208b918a8a858181106128fb57634e487b7160e01b600052603260045260246000fd5b6020908102929092013583525081019190915260400160002080546001600160a01b0319166001600160a01b03929092169190911790556001016128c3565b5060008881526007602090815260408083206001600160a01b038d1684529091528120805488929061296d9084906138fb565b90915550506040516001600160a01b03808b16918c8216918716907fc3d58168c5ae7397731d063d5bbf3d657854427343f4c083240f7aacaa2d0f62906129b7908d908c90613833565b60405180910390a46129cd848b8b86868a611143565b6129db848b8b8b8a8a612a40565b50505050505050505050565b60408051600180825281830190925260609160009190602080830190803683370190505090508281600081518110612a2f57634e487b7160e01b600052603260045260246000fd5b602090810291909101015292915050565b6001600160a01b0384163b156111435760405163f23a6e6160e01b81526001600160a01b0385169063f23a6e6190612a849089908990889088908890600401613278565b602060405180830381600087803b158015612a9e57600080fd5b505af1925050508015612ace575060408051601f3d908101601f19168201909252612acb9181019061302b565b60015b612b2e57612ada6139ed565b806308c379a01415612b145750612aef613a04565b80612afa5750612b16565b8060405162461bcd60e51b81526004016105af9190613327565b505b60405162461bcd60e51b81526004016105af906137b6565b6001600160e01b0319811663f23a6e6160e01b14612b5e5760405162461bcd60e51b81526004016105af906134c1565b50505050505050565b80356001600160a01b03811681146105e057600080fd5b600082601f830112612b8e578081fd5b81356020612b9b826138af565b604051612ba88282613979565b838152828101915085830183850287018401881015612bc5578586fd5b855b85811015612be357813584529284019290840190600101612bc7565b5090979650505050505050565b803580151581146105e057600080fd5b600082601f830112612c10578081fd5b8135612c1b816138d3565b604051612c288282613979565b828152856020848701011115612c3c578384fd5b82602086016020830137918201602001929092529392505050565b600060208284031215612c68578081fd5b611daa82612b67565b60008060408385031215612c83578081fd5b612c8c83612b67565b9150612c9a60208401612b67565b90509250929050565b60008060008060808587031215612cb8578182fd5b612cc185612b67565b9350612ccf60208601612b67565b9250612cdd60408601612b67565b9150612ceb60608601612bf0565b905092959194509250565b600080600080600060a08688031215612d0d578081fd5b612d1686612b67565b9450612d2460208701612b67565b9350604086013567ffffffffffffffff80821115612d40578283fd5b612d4c89838a01612b7e565b94506060880135915080821115612d61578283fd5b612d6d89838a01612b7e565b93506080880135915080821115612d82578283fd5b50612d8f88828901612c00565b9150509295509295909350565b60008060008060008060a08789031215612db4578081fd5b612dbd87612b67565b9550612dcb60208801612b67565b945060408701359350606087013567ffffffffffffffff80821115612dee578283fd5b818901915089601f830112612e01578283fd5b813581811115612e0f578384fd5b8a60208083028501011115612e22578384fd5b602083019550809450506080890135915080821115612e3f578283fd5b50612e4c89828a01612c00565b9150509295509295509295565b600080600080600060a08688031215612e70578283fd5b612e7986612b67565b9450612e8760208701612b67565b93506040860135925060608601359150608086013567ffffffffffffffff811115612eb0578182fd5b612d8f88828901612c00565b60008060408385031215612ece578182fd5b612ed783612b67565b9150612c9a60208401612bf0565b60008060408385031215612ef7578182fd5b612f0083612b67565b946020939093013593505050565b60008060408385031215612f20578182fd5b823567ffffffffffffffff80821115612f37578384fd5b818501915085601f830112612f4a578384fd5b81356020612f57826138af565b604051612f648282613979565b8381528281019150858301838502870184018b1015612f81578889fd5b8896505b84871015612faa57612f9681612b67565b835260019690960195918301918301612f85565b5096505086013592505080821115612fc0578283fd5b50612fcd85828601612b7e565b9150509250929050565b600060208284031215612fe8578081fd5b813567ffffffffffffffff811115612ffe578182fd5b820160c08101841015611daa578182fd5b600060208284031215613020578081fd5b8135611daa81613a96565b60006020828403121561303c578081fd5b8151611daa81613a96565b600060208284031215613058578081fd5b815167ffffffffffffffff81111561306e578182fd5b8201601f8101841361307e578182fd5b8051613089816138d3565b6040516130968282613979565b8281528660208486010111156130aa578485fd5b6130bb836020830160208701613949565b9695505050505050565b6000604082840312156130d6578081fd5b6040516130e4604082613979565b6130ed83612b67565b8152602083013560208201528091505092915050565b600060208284031215613114578081fd5b5035919050565b6000806040838503121561312d578182fd5b82359150612c9a60208401612b67565b600080600060608486031215613151578081fd5b8335925061316160208501612b67565b9150604084013590509250925092565b60008060408385031215613183578182fd5b50508035926020909101359150565b600080604083850312156131a4578182fd5b82359150602083013560ff811681146131bb578182fd5b809150509250929050565b600081518084526131de816020860160208601613949565b601f01601f19169290920160200192915050565b60008251613204818460208701613949565b9190910192915050565b60008351613220818460208801613949565b600160fd1b908301908152835161323e816001840160208801613949565b01600101949350505050565b6001600160a01b0391909116815260200190565b6001600160a01b0392831681529116602082015260400190565b6001600160a01b03868116825285166020820152604081018490526060810183905260a0608082018190526000906132b2908301846131c6565b979650505050505050565b6001600160a01b039290921682521515602082015260400190565b6020808252825182820181905260009190848201906040850190845b81811015613310578351835292840192918401916001016132f4565b50909695505050505050565b901515815260200190565b600060208252611daa60208301846131c6565b60006040825261334d60408301856131c6565b90508260208301529392505050565b6020808252601190820152701513d2d15397d253925512505312569151607a1b604082015260600190565b60208082526026908201527f4f776e61626c653a206e6577206f776e657220697320746865207a65726f206160408201526564647265737360d01b606082015260800190565b60208082526017908201527f504152454e545f4841535f54574f5f4348494c4452454e000000000000000000604082015260600190565b60208082526019908201527f43414c4c45525f4e4f545f4f574e45525f415050524f56454400000000000000604082015260600190565b60208082526018908201527f524f4f545f414c52454144595f494e495449414c495a45440000000000000000604082015260600190565b6020808252600e908201526d14d1539117d59053125117d3919560921b604082015260600190565b6020808252600d908201526c544f4b454e49445f52414e474560981b604082015260600190565b6020808252601f908201527f4552433131353552454345495645525f52454a45435445445f544f4b454e5300604082015260600190565b6020808252601e908201527f504152454e545f4e4f545f5245434f4d4d454e4445525f535542545245450000604082015260600190565b6020808252600d908201526c20a8282927ab20a62fa9a2a62360991b604082015260600190565b6020808252601490820152731493d3d517d393d517d25392551250531256915160621b604082015260600190565b6020808252600c908201526b5a45524f5f4144445245535360a01b604082015260600190565b6020808252600f908201526e1513d2d15397d393d517d3d5d39151608a1b604082015260600190565b6020808252601190820152704552525f544f4b454e49445f52414e474560781b604082015260600190565b60208082526012908201527114149250d154d7d25392551250531256915160721b604082015260600190565b6020808252600b908201526a4e4f44455f45584953545360a81b604082015260600190565b6020808252818101527f4f776e61626c653a2063616c6c6572206973206e6f7420746865206f776e6572604082015260600190565b602080825260159082015274149150d3d353515391115497d393d517d1561254d5605a1b604082015260600190565b60208082526010908201526f14105491539517d393d517d1561254d560821b604082015260600190565b6020808252601590820152745553455f45536166655472616e7366657246726f6d60581b604082015260600190565b6020808252601590820152741513d2d15397d393d517d253925512505312569151605a1b604082015260600190565b60208082526016908201527514149250d154d7d393d517d25392551250531256915160521b604082015260600190565b6020808252600890820152675553455f4575726960c01b604082015260600190565b6020808252600f908201526e1393d517d253541311535153951151608a1b604082015260600190565b6020808252602b908201527f7472616e736665725f746f5f6e6f6e2d4552433131353552656365697665725f60408201526a34b6b83632b6b2b73a32b960a91b606082015260800190565b6020808252600f908201526e4e4f44455f4e4f545f45584953545360881b604082015260600190565b90815260200190565b918252602082015260400190565b60ff91909116815260200190565b60ff92909216825263ffffffff16602082015260400190565b6000808335601e1984360301811261387e578283fd5b83018035915067ffffffffffffffff821115613898578283fd5b602001915060408102360382131561146057600080fd5b600067ffffffffffffffff8211156138c9576138c96139d7565b5060209081020190565b600067ffffffffffffffff8211156138ed576138ed6139d7565b50601f01601f191660200190565b6000821982111561390e5761390e6139c1565b500190565b600081600019048311821515161561392d5761392d6139c1565b500290565b600082821015613944576139446139c1565b500390565b60005b8381101561396457818101518382015260200161394c565b83811115613973576000848401525b50505050565b601f8201601f1916810167ffffffffffffffff8111828210171561399f5761399f6139d7565b6040525050565b60006000198214156139ba576139ba6139c1565b5060010190565b634e487b7160e01b600052601160045260246000fd5b634e487b7160e01b600052604160045260246000fd5b600060033d111561147457600481823e5160e01c90565b600060443d1015613a1457611474565b6040516003193d81016004833e81513d67ffffffffffffffff8160248401118184111715613a46575050505050611474565b8285019150815181811115613a6057505050505050611474565b843d8701016020828501011115613a7c57505050505050611474565b613a8b60208286010187613979565b509094505050505090565b6001600160e01b031981168114611cc257600080fdfea2646970667358221220c0c8624c3c68c167752242826c409f3a9541dda3fa57ee08750bb190f77eef3064736f6c63430008010033","linkReferences":{}},"methodIdentifiers":{"ESafeTransferFrom(address,address,uint256,uint256[],bytes)":"598c27bc","NFTPrice_initialized()":"4c8cb672","NFTS(uint256)":"c9b6b485","addSupportedToken(address)":"6d69fcaf","balanceOf(address,uint256)":"00fdd58e","balanceOfBatch(address[],uint256[])":"4e1273f4","changeDynamicRatio(uint256,uint8)":"83023c88","changeNFTPrice(uint256,address,uint256)":"55826313","checkInitPricesParams((address,uint256)[][6])":"1f3fd618","getChildren(address)":"6999fa45","getNFTPrice(uint256,address)":"86ff9113","getNftMintTime(uint256,address,uint256)":"aa31281c","getNodeBalance(address)":"07f241ce","getParent(address)":"a9405923","getRecommendedParent(address)":"3f257599","getRecommender(address)":"153154fd","getTotalNFTWorth(address)":"e5030adc","getUserTokenIds(address,uint256)":"b788920e","initPrice((address,uint256)[][6])":"3a4d2d3a","initRoot(address)":"92aeff48","insert(address,address,address,bool)":"9f2980db","isApprovedForAll(address,address)":"e985e9c5","isExist(address)":"0013eb4b","isSupported(address)":"4f129c53","minChildSubtreeBalance(address)":"2653335a","owner()":"8da5cb5b","ownerOf(uint256,uint256)":"d9dad80d","renounceOwnership()":"715018a6","root()":"ebf0c717","rootInitialized()":"651583ee","safeBatchTransferFrom(address,address,uint256[],uint256[],bytes)":"2eb2c2d6","safeTransferFrom(address,address,uint256,uint256,bytes)":"f242432a","setApprovalForAll(address,bool)":"a22cb465","subtreeBalance(address)":"7c8e2da7","supportedTokenAmount()":"23361283","supportsInterface(bytes4)":"01ffc9a7","tokenAddress_array(uint256)":"19d62e57","totalTreeBalance()":"a15113d1","transferOwnership(address)":"f2fde38b","uri(uint256)":"0e89341c"}}}}}