{"test/echidna/TCF_NFT_Echidna.sol":{"MockDCF":{"abi":[{"type":"function","name":"callOnTransfer","inputs":[{"name":"nft","type":"address","internalType":"contract TCF_NFT"},{"name":"from","type":"address","internalType":"address"},{"name":"amount","type":"uint256","internalType":"uint256"},{"name":"data","type":"bytes","internalType":"bytes"}],"outputs":[{"name":"","type":"bytes4","internalType":"bytes4"}],"stateMutability":"nonpayable"},{"type":"function","name":"symbol","inputs":[],"outputs":[{"name":"","type":"string","internalType":"string"}],"stateMutability":"pure"}],"userdoc":{},"devdoc":{},"evm":{"bytecode":{"object":"608060405234801561001057600080fd5b50610342806100206000396000f3fe608060405234801561001057600080fd5b50600436106100365760003560e01c8063258093c91461003b57806395d89b4114610064575b600080fd5b61004e610049366004610155565b610079565b60405161005b91906102b6565b60405180910390f35b61006c610109565b60405161005b91906102cb565b604051632229f29760e21b81526000906001600160a01b038616906388a7ca5c906100ae908490889088908890600401610279565b602060405180830381600087803b1580156100c857600080fd5b505af11580156100dc573d6000803e3d6000fd5b505050506040513d601f19601f820116820180604052508101906101009190610126565b95945050505050565b6040805180820190915260038152622221a360e91b602082015290565b600060208284031215610137578081fd5b81516001600160e01b03198116811461014e578182fd5b9392505050565b6000806000806080858703121561016a578283fd5b8435610175816102f4565b93506020850135610185816102f4565b925060408501359150606085013567ffffffffffffffff808211156101a8578283fd5b818701915087601f8301126101bb578283fd5b8135818111156101cd576101cd6102de565b604051601f8201601f19908116603f011681019083821181831017156101f5576101f56102de565b816040528281528a602084870101111561020d578586fd5b82602086016020830137918201602001949094529598949750929550505050565b60008151808452815b8181101561025357602081850181015186830182015201610237565b818111156102645782602083870101525b50601f01601f19169290920160200192915050565b6001600160a01b03858116825284166020820152604081018390526080606082018190526000906102ac9083018461022e565b9695505050505050565b6001600160e01b031991909116815260200190565b60006020825261014e602083018461022e565b634e487b7160e01b600052604160045260246000fd5b6001600160a01b038116811461030957600080fd5b5056fea2646970667358221220f3edf6cb7de1b5a74c74dcd08aba07cbd8b2226583e42616f403b6f217ad990a64736f6c63430008010033","linkReferences":{}},"methodIdentifiers":{"callOnTransfer(address,address,uint256,bytes)":"258093c9","symbol()":"95d89b41"}}}}}