{"contracts/TCF_NFT.sol":{"TCF_NFT":{"abi":[{"type":"function","name":"ESafeTransferFrom","inputs":[{"name":"from","type":"address","internalType":"address"},{"name":"to","type":"address","internalType":"address"},{"name":"id","type":"uint256","internalType":"uint256"},{"name":"indexes","type":"uint256[]","internalType":"uint256[]"},{"name":"data","type":"bytes","internalType":"bytes"}],"outputs":[],"stateMutability":"nonpayable"},{"type":"function","name":"Euri","inputs":[{"name":"tokenId","type":"uint256","internalType":"uint256"}],"outputs":[{"name":"","type":"string","internalType":"string"}],"stateMutability":"view"},{"type":"function","name":"NFTPrice_initialized","inputs":[],"outputs":[{"name":"","type":"uint8","internalType":"uint8"}],"stateMutability":"view"},{"type":"function","name":"NFTS","inputs":[{"name":"","type":"uint256","internalType":"uint256"}],"outputs":[{"name":"ratio","type":"uint8","internalType":"uint8"},{"name":"indate","type":"uint32","internalType":"uint32"}],"stateMutability":"view"},{"type":"function","name":"_initializedURIStorage","inputs":[],"outputs":[{"name":"","type":"uint8","internalType":"uint8"}],"stateMutability":"view"},{"type":"function","name":"addSupportedToken","inputs":[{"name":"_tokenAddress","type":"address","internalType":"address"}],"outputs":[],"stateMutability":"nonpayable"},{"type":"function","name":"balanceOf","inputs":[{"name":"account","type":"address","internalType":"address"},{"name":"id","type":"uint256","internalType":"uint256"}],"outputs":[{"name":"","type":"uint256","internalType":"uint256"}],"stateMutability":"view"},{"type":"function","name":"balanceOfBatch","inputs":[{"name":"","type":"address[]","internalType":"address[]"},{"name":"","type":"uint256[]","internalType":"uint256[]"}],"outputs":[{"name":"","type":"uint256[]","internalType":"uint256[]"}],"stateMutability":"view"},{"type":"function","name":"buyNFTByTC","inputs":[{"name":"account","type":"address","internalType":"address"},{"name":"id","type":"uint256","internalType":"uint256"},{"name":"buyAmount","type":"uint256","internalType":"uint256"}],"outputs":[],"stateMutability":"payable"},{"type":"function","name":"changeDynamicRatio","inputs":[{"name":"tokenID","type":"uint256","internalType":"uint256"},{"name":"newRatio","type":"uint8","internalType":"uint8"}],"outputs":[],"stateMutability":"nonpayable"},{"type":"function","name":"changeNFTPrice","inputs":[{"name":"tokenID","type":"uint256","internalType":"uint256"},{"name":"tokenAddress","type":"address","internalType":"address"},{"name":"amount","type":"uint256","internalType":"uint256"}],"outputs":[],"stateMutability":"nonpayable"},{"type":"function","name":"checkInitPricesParams","inputs":[{"name":"prices","type":"tuple[][6]","internalType":"struct TCF_NFTPrice.priceTypeAndAomut[][6]","components":[{"name":"tokenAddress","type":"address","internalType":"address"},{"name":"amount","type":"uint256","internalType":"uint256"}]}],"outputs":[{"name":"","type":"string","internalType":"string"}],"stateMutability":"view"},{"type":"function","name":"getChildren","inputs":[{"name":"node","type":"address","internalType":"address"}],"outputs":[{"name":"left","type":"address","internalType":"address"},{"name":"right","type":"address","internalType":"address"}],"stateMutability":"view"},{"type":"function","name":"getNFTPrice","inputs":[{"name":"tokenID","type":"uint256","internalType":"uint256"},{"name":"_tokenAddress","type":"address","internalType":"address"}],"outputs":[{"name":"","type":"string","internalType":"string"},{"name":"","type":"uint256","internalType":"uint256"}],"stateMutability":"view"},{"type":"function","name":"getNftMintTime","inputs":[{"name":"tokenId","type":"uint256","internalType":"uint256"},{"name":"account","type":"address","internalType":"address"},{"name":"editionId","type":"uint256","internalType":"uint256"}],"outputs":[{"name":"","type":"uint256","internalType":"uint256"}],"stateMutability":"view"},{"type":"function","name":"getNodeBalance","inputs":[{"name":"node","type":"address","internalType":"address"}],"outputs":[{"name":"","type":"uint256","internalType":"uint256"}],"stateMutability":"view"},{"type":"function","name":"getParent","inputs":[{"name":"node","type":"address","internalType":"address"}],"outputs":[{"name":"","type":"address","internalType":"address"}],"stateMutability":"view"},{"type":"function","name":"getRecommendedParent","inputs":[{"name":"recommender","type":"address","internalType":"address"}],"outputs":[{"name":"parent","type":"address","internalType":"address"},{"name":"isLeftBranch","type":"bool","internalType":"bool"}],"stateMutability":"view"},{"type":"function","name":"getRecommender","inputs":[{"name":"node","type":"address","internalType":"address"}],"outputs":[{"name":"","type":"address","internalType":"address"}],"stateMutability":"view"},{"type":"function","name":"getTotalNFTWorth","inputs":[{"name":"owner","type":"address","internalType":"address"}],"outputs":[{"name":"","type":"uint256","internalType":"uint256"}],"stateMutability":"view"},{"type":"function","name":"getUserTokenIds","inputs":[{"name":"account","type":"address","internalType":"address"},{"name":"tokenId","type":"uint256","internalType":"uint256"}],"outputs":[{"name":"","type":"uint256[]","internalType":"uint256[]"}],"stateMutability":"view"},{"type":"function","name":"initPrice","inputs":[{"name":"prices","type":"tuple[][6]","internalType":"struct TCF_NFTPrice.priceTypeAndAomut[][6]","components":[{"name":"tokenAddress","type":"address","internalType":"address"},{"name":"amount","type":"uint256","internalType":"uint256"}]}],"outputs":[],"stateMutability":"nonpayable"},{"type":"function","name":"initRoot","inputs":[{"name":"rootAddress","type":"address","internalType":"address"}],"outputs":[],"stateMutability":"nonpayable"},{"type":"function","name":"insert","inputs":[{"name":"node","type":"address","internalType":"address"},{"name":"parent","type":"address","internalType":"address"},{"name":"recommender","type":"address","internalType":"address"},{"name":"isLeft","type":"bool","internalType":"bool"}],"outputs":[],"stateMutability":"nonpayable"},{"type":"function","name":"isApprovedForAll","inputs":[{"name":"account","type":"address","internalType":"address"},{"name":"operator","type":"address","internalType":"address"}],"outputs":[{"name":"","type":"bool","internalType":"bool"}],"stateMutability":"view"},{"type":"function","name":"isExist","inputs":[{"name":"node","type":"address","internalType":"address"}],"outputs":[{"name":"","type":"bool","internalType":"bool"}],"stateMutability":"view"},{"type":"function","name":"isSupported","inputs":[{"name":"token","type":"address","internalType":"address"}],"outputs":[{"name":"","type":"uint8","internalType":"uint8"}],"stateMutability":"view"},{"type":"function","name":"minChildSubtreeBalance","inputs":[{"name":"node","type":"address","internalType":"address"}],"outputs":[{"name":"","type":"uint256","internalType":"uint256"}],"stateMutability":"view"},{"type":"function","name":"onTransferReceived","inputs":[{"name":"","type":"address","internalType":"address"},{"name":"from","type":"address","internalType":"address"},{"name":"amount","type":"uint256","internalType":"uint256"},{"name":"data","type":"bytes","internalType":"bytes"}],"outputs":[{"name":"","type":"bytes4","internalType":"bytes4"}],"stateMutability":"nonpayable"},{"type":"function","name":"owner","inputs":[],"outputs":[{"name":"","type":"address","internalType":"address"}],"stateMutability":"view"},{"type":"function","name":"ownerOf","inputs":[{"name":"tokenId","type":"uint256","internalType":"uint256"},{"name":"editionId","type":"uint256","internalType":"uint256"}],"outputs":[{"name":"","type":"address","internalType":"address"}],"stateMutability":"view"},{"type":"function","name":"renounceOwnership","inputs":[],"outputs":[],"stateMutability":"nonpayable"},{"type":"function","name":"root","inputs":[],"outputs":[{"name":"","type":"address","internalType":"address"}],"stateMutability":"view"},{"type":"function","name":"rootInitialized","inputs":[],"outputs":[{"name":"","type":"bool","internalType":"bool"}],"stateMutability":"view"},{"type":"function","name":"safeBatchTransferFrom","inputs":[{"name":"","type":"address","internalType":"address"},{"name":"","type":"address","internalType":"address"},{"name":"","type":"uint256[]","internalType":"uint256[]"},{"name":"","type":"uint256[]","internalType":"uint256[]"},{"name":"","type":"bytes","internalType":"bytes"}],"outputs":[],"stateMutability":"nonpayable"},{"type":"function","name":"safeTransferFrom","inputs":[{"name":"","type":"address","internalType":"address"},{"name":"","type":"address","internalType":"address"},{"name":"","type":"uint256","internalType":"uint256"},{"name":"","type":"uint256","internalType":"uint256"},{"name":"","type":"bytes","internalType":"bytes"}],"outputs":[],"stateMutability":"nonpayable"},{"type":"function","name":"setApprovalForAll","inputs":[{"name":"operator","type":"address","internalType":"address"},{"name":"approved","type":"bool","internalType":"bool"}],"outputs":[],"stateMutability":"nonpayable"},{"type":"function","name":"setBaseURI","inputs":[{"name":"baseURI","type":"bytes[6]","internalType":"bytes[6]"}],"outputs":[],"stateMutability":"nonpayable"},{"type":"function","name":"setWithdrawAddress","inputs":[{"name":"addr","type":"address","internalType":"address"}],"outputs":[],"stateMutability":"nonpayable"},{"type":"function","name":"subtreeBalance","inputs":[{"name":"node","type":"address","internalType":"address"}],"outputs":[{"name":"","type":"uint256","internalType":"uint256"}],"stateMutability":"view"},{"type":"function","name":"supportedTokenAmount","inputs":[],"outputs":[{"name":"","type":"uint256","internalType":"uint256"}],"stateMutability":"view"},{"type":"function","name":"supportsInterface","inputs":[{"name":"interfaceId","type":"bytes4","internalType":"bytes4"}],"outputs":[{"name":"","type":"bool","internalType":"bool"}],"stateMutability":"view"},{"type":"function","name":"tokenAddress_array","inputs":[{"name":"","type":"uint256","internalType":"uint256"}],"outputs":[{"name":"","type":"address","internalType":"address"}],"stateMutability":"view"},{"type":"function","name":"totalTreeBalance","inputs":[],"outputs":[{"name":"","type":"uint256","internalType":"uint256"}],"stateMutability":"view"},{"type":"function","name":"transferOwnership","inputs":[{"name":"newOwner","type":"address","internalType":"address"}],"outputs":[],"stateMutability":"nonpayable"},{"type":"function","name":"uri","inputs":[{"name":"","type":"uint256","internalType":"uint256"}],"outputs":[{"name":"","type":"string","internalType":"string"}],"stateMutability":"view"},{"type":"function","name":"withdrawAddress","inputs":[],"outputs":[{"name":"","type":"address","internalType":"address"}],"stateMutability":"view"},{"type":"function","name":"withdrawAddress_initialized","inputs":[],"outputs":[{"name":"","type":"uint8","internalType":"uint8"}],"stateMutability":"view"},{"type":"event","name":"ApprovalForAll","inputs":[{"name":"account","type":"address","indexed":true,"internalType":"address"},{"name":"operator","type":"address","indexed":true,"internalType":"address"},{"name":"approved","type":"bool","indexed":false,"internalType":"bool"}],"anonymous":false},{"type":"event","name":"NodeInserted","inputs":[{"name":"node","type":"address","indexed":true,"internalType":"address"},{"name":"parent","type":"address","indexed":true,"internalType":"address"},{"name":"recommender","type":"address","indexed":true,"internalType":"address"},{"name":"isLeft","type":"bool","indexed":false,"internalType":"bool"}],"anonymous":false},{"type":"event","name":"OwnershipTransferred","inputs":[{"name":"previousOwner","type":"address","indexed":true,"internalType":"address"},{"name":"newOwner","type":"address","indexed":true,"internalType":"address"}],"anonymous":false},{"type":"event","name":"RootInitialized","inputs":[{"name":"root","type":"address","indexed":true,"internalType":"address"}],"anonymous":false},{"type":"event","name":"TransferBatch","inputs":[{"name":"operator","type":"address","indexed":true,"internalType":"address"},{"name":"from","type":"address","indexed":true,"internalType":"address"},{"name":"to","type":"address","indexed":true,"internalType":"address"},{"name":"ids","type":"uint256[]","indexed":false,"internalType":"uint256[]"},{"name":"values","type":"uint256[]","indexed":false,"internalType":"uint256[]"}],"anonymous":false},{"type":"event","name":"TransferSingle","inputs":[{"name":"operator","type":"address","indexed":true,"internalType":"address"},{"name":"from","type":"address","indexed":true,"internalType":"address"},{"name":"to","type":"address","indexed":true,"internalType":"address"},{"name":"id","type":"uint256","indexed":false,"internalType":"uint256"},{"name":"value","type":"uint256","indexed":false,"internalType":"uint256"}],"anonymous":false},{"type":"event","name":"URI","inputs":[{"name":"value","type":"string","indexed":false,"internalType":"string"},{"name":"id","type":"uint256","indexed":true,"internalType":"uint256"}],"anonymous":false}],"userdoc":{},"devdoc":{},"evm":{"bytecode":{"object":"60806040523480156200001157600080fd5b506200002662000020620000a4565b620000a8565b60126020527f71a67924699a20698523213e55fe499d539379d7769cd5567e2c45d583f815a3805460ff191660019081179091556014805480830182556000919091527fce6d7b5282bd9a3661ae061feed1dbda4e52ab073b1f9285be6e155d9c38d4ec0180546001600160a01b03191682179055601355620000fa565b3390565b600980546001600160a01b038381166001600160a01b0319831681179093556040519116919082907f8be0079c531659141344cd1fd0a4f28419497f9722a3daafe3b4186f6b6457e090600090a35050565b614a91806200010a6000396000f3fe6080604052600436106102915760003560e01c80636d69fcaf1161015a578063a22cb465116100c1578063d9dad80d1161007a578063d9dad80d14610804578063e5030adc14610824578063e985e9c514610844578063ebf0c71714610864578063f242432a14610879578063f2fde38b1461089957610291565b8063a22cb46514610736578063a940592314610756578063aa31281c14610776578063b788920e14610796578063c9b6b485146107b6578063d3ab7443146107e457610291565b806388a7ca5c1161011357806388a7ca5c1461068a5780638da5cb5b146106b757806392aeff48146106cc5780639da879b4146106ec5780639f2980db14610701578063a15113d11461072157610291565b80636d69fcaf146105d2578063715018a6146105f25780637a915fde146106075780637c8e2da71461061c57806383023c881461063c57806386ff91131461065c57610291565b80632fedbf3c116101fe5780634f129c53116101b75780634f129c531461051c578063558263131461053c578063598c27bc1461055c5780635c92dbd61461057c578063651583ee1461058f5780636999fa45146105a457610291565b80632fedbf3c1461043f5780633a4d2d3a1461045f5780633ab1a4941461047f5780633f2575991461049f5780634c8cb672146104cd5780634e1273f4146104ef57610291565b80631581b600116102505780631581b6001461039357806319d62e57146103a85780631f3fd618146103c857806323361283146103e85780632653335a146103fd5780632eb2c2d61461041d57610291565b806213eb4b14610296578062fdd58e146102cc57806301ffc9a7146102f957806307f241ce146103195780630e89341c14610339578063153154fd14610366575b600080fd5b3480156102a257600080fd5b506102b66102b1366004613972565b6108b9565b6040516102c39190614169565b60405180910390f35b3480156102d857600080fd5b506102ec6102e7366004613c62565b610917565b6040516102c391906147a7565b34801561030557600080fd5b506102b6610314366004613e3a565b61092c565b34801561032557600080fd5b506102ec610334366004613972565b610951565b34801561034557600080fd5b50610359610354366004613f2d565b61099c565b6040516102c39190614189565b34801561037257600080fd5b50610386610381366004613972565b6109b6565b6040516102c39190614097565b34801561039f57600080fd5b50610386610a1a565b3480156103b457600080fd5b506103866103c3366004613f2d565b610a29565b3480156103d457600080fd5b506103596103e3366004613d85565b610a53565b3480156103f457600080fd5b506102ec610d63565b34801561040957600080fd5b506102ec610418366004613972565b610d69565b34801561042957600080fd5b5061043d610438366004613a11565b610e6f565b005b34801561044b57600080fd5b5061043d61045a366004613dbc565b610e87565b34801561046b57600080fd5b5061043d61047a366004613d85565b610f19565b34801561048b57600080fd5b5061043d61049a366004613972565b611227565b3480156104ab57600080fd5b506104bf6104ba366004613972565b6112bf565b6040516102c392919061410a565b3480156104d957600080fd5b506104e261140e565b6040516102c391906147be565b3480156104fb57600080fd5b5061050f61050a366004613cbd565b61141c565b6040516102c39190614125565b34801561052857600080fd5b506104e2610537366004613972565b611436565b34801561054857600080fd5b5061043d610557366004613f67565b61146a565b34801561056857600080fd5b5061043d610577366004613ab6565b6114dd565b61043d61058a366004613c8b565b61153d565b34801561059b57600080fd5b506102b661170e565b3480156105b057600080fd5b506105c46105bf366004613972565b61171e565b6040516102c39291906140ab565b3480156105de57600080fd5b5061043d6105ed366004613972565b611791565b3480156105fe57600080fd5b5061043d61187a565b34801561061357600080fd5b506104e261188e565b34801561062857600080fd5b506102ec610637366004613972565b611897565b34801561064857600080fd5b5061043d610657366004613fdf565b61190e565b34801561066857600080fd5b5061067c610677366004613f45565b611986565b6040516102c392919061419c565b34801561069657600080fd5b506106aa6106a5366004613b72565b611a33565b6040516102c39190614174565b3480156106c357600080fd5b50610386611c08565b3480156106d857600080fd5b5061043d6106e7366004613972565b611c18565b3480156106f857600080fd5b506104e2611d04565b34801561070d57600080fd5b5061043d61071c3660046139be565b611d14565b34801561072d57600080fd5b506102ec612023565b34801561074257600080fd5b5061043d610751366004613c39565b612069565b34801561076257600080fd5b50610386610771366004613972565b61207f565b34801561078257600080fd5b506102ec610791366004613f67565b6120e0565b3480156107a257600080fd5b5061050f6107b1366004613c62565b612132565b3480156107c257600080fd5b506107d66107d1366004613f2d565b6121c7565b6040516102c39291906147cc565b3480156107f057600080fd5b506103596107ff366004613f2d565b6121ec565b34801561081057600080fd5b5061038661081f366004613f9b565b6122e6565b34801561083057600080fd5b506102ec61083f366004613972565b61232f565b34801561085057600080fd5b506102b661085f36600461398c565b6124e1565b34801561087057600080fd5b5061038661250f565b34801561088557600080fd5b5061043d610894366004613bd7565b61251e565b3480156108a557600080fd5b5061043d6108b4366004613972565b612536565b60006001600160a01b0382166108ea5760405162461bcd60e51b81526004016108e19061441d565b60405180910390fd5b506001600160a01b0381166000908152601a6020526040902060030154600160a01b900460ff165b919050565b6000610923838361256d565b90505b92915050565b60006001600160e01b03198216632229f29760e21b14806109265750610926826125dd565b6001600160a01b0381166000908152601a6020526040812060030154600160a01b900460ff166109935760405162461bcd60e51b81526004016108e19061477e565b6109268261232f565b606060405162461bcd60e51b81526004016108e1906146bb565b6001600160a01b0381166000908152601a6020526040812060030154600160a01b900460ff166109f85760405162461bcd60e51b81526004016108e19061477e565b506001600160a01b039081166000908152601a60205260409020600301541690565b601b546001600160a01b031681565b60148181548110610a3957600080fd5b6000918252602090912001546001600160a01b0316905081565b606060005b6006811015610d4d57601354838260068110610a8457634e487b7160e01b600052603260045260246000fd5b602002810190610a9491906147e5565b905014610ac357505060408051808201909152600a815269282924a1a2a9afa622a760b11b6020820152610912565b6000806000858460068110610ae857634e487b7160e01b600052603260045260246000fd5b602002810190610af891906147e5565b808060200260200160405190810160405280939291908181526020016000905b82821015610b4457610b3560408302860136819003810190613eef565b81526020019060010190610b18565b5050505050905060005b601354811015610cbf576000828281518110610b7a57634e487b7160e01b600052603260045260246000fd5b60209081029190910101515190506001600160a01b038116610b9f5760019450610ba4565b600193505b60006001600160a01b0316838381518110610bcf57634e487b7160e01b600052603260045260246000fd5b6020026020010151600001516001600160a01b031614158015610c3e575060126000848481518110610c1157634e487b7160e01b600052603260045260246000fd5b602090810291909101810151516001600160a01b031682528101919091526040016000205460ff16600114155b15610cae57610ca1838381518110610c6657634e487b7160e01b600052603260045260246000fd5b602002602001015160000151604051806040016040528060118152602001701513d2d15397d55394d5541413d4951151607a1b81525061261d565b9650505050505050610912565b50610cb881614956565b9050610b4e565b5082610cfc57604051806040016040528060138152602001721510d7d4149250d157d35554d517d1561254d5606a1b815250945050505050610912565b81610d3957604051806040016040528060148152602001731110d197d4149250d157d35554d517d1561254d560621b815250945050505050610912565b50505080610d4690614956565b9050610a58565b5050604080516020810190915260008152919050565b60135481565b601954600090600160a01b900460ff16610d955760405162461bcd60e51b81526004016108e1906143ef565b6001600160a01b0382166000908152601a6020526040902060030154600160a01b900460ff16610dd75760405162461bcd60e51b81526004016108e19061477e565b6001600160a01b038083166000908152601a60205260408120600181015490921615610e19576001820154610e14906001600160a01b0316612651565b610e1c565b60005b60028301549091506000906001600160a01b031615610e51576002830154610e4c906001600160a01b0316612651565b610e54565b60005b905080821115610e645780610e66565b815b95945050505050565b60405162461bcd60e51b81526004016108e19061470a565b610e8f6126f0565b60005b6006811015610f0857818160068110610ebb57634e487b7160e01b600052603260045260246000fd5b6020020151600a8260068110610ee157634e487b7160e01b600052603260045260246000fd5b019080519060200190610ef59291906137e9565b5080610f0081614956565b915050610e92565b50506010805460ff19166001179055565b610f216126f0565b60155460ff16600114610f465760405162461bcd60e51b81526004016108e19061465c565b601554610100900460ff1615610f6e5760405162461bcd60e51b81526004016108e1906144c3565b6000610f7982610a53565b90508051600014610f9e578060405162461bcd60e51b81526004016108e19190614189565b6040805160c0808201835262ed4e008252630107ac0060208084019190915263013c68008385015263017124006060808501919091526301a5e0006080808601919091526301da9c0060a0808701919091528651948501875260288552603293850193909352603c95840195909552605090830152605a9382019390935260649281019290925290600061103285806147e5565b9050905060005b60068110156112105783816006811061106257634e487b7160e01b600052603260045260246000fd5b60200201516016600083815260200190815260200160002060010160016101000a81548163ffffffff021916908363ffffffff1602179055508281600681106110bb57634e487b7160e01b600052603260045260246000fd5b602090810291909101516000838152601690925260408220600101805460ff191660ff9092169190911790555b828110156111ff57600087836006811061111257634e487b7160e01b600052603260045260246000fd5b60200281019061112291906147e5565b8381811061114057634e487b7160e01b600052603260045260246000fd5b6111569260206040909202019081019150613972565b90506001600160a01b03811661116a575060015b87836006811061118a57634e487b7160e01b600052603260045260246000fd5b60200281019061119a91906147e5565b838181106111b857634e487b7160e01b600052603260045260246000fd5b60008681526016602090815260408083206001600160a01b0397909716835295815290859020919094029290920190920135905550806111f781614956565b9150506110e8565b5061120981614956565b9050611039565b50506015805461ff00191661010017905550505050565b61122f6126f0565b6001600160a01b0381166112555760405162461bcd60e51b81526004016108e19061441d565b6001600160a01b0381163b1561127d5760405162461bcd60e51b81526004016108e1906146dd565b601b80546001600160a01b0319166001600160a01b0383161790819055600160a01b900460ff166112bc57601b805460ff60a01b1916600160a01b1790555b50565b6019546000908190600160a01b900460ff166112ed5760405162461bcd60e51b81526004016108e1906143ef565b6001600160a01b0383166000908152601a6020526040902060030154600160a01b900460ff1661132f5760405162461bcd60e51b81526004016108e1906145ab565b825b6001600160a01b038082166000908152601a6020526040812060018101549092161561137357600182015461136e906001600160a01b0316612651565b611376565b60005b60028301549091506000906001600160a01b0316156113ab5760028301546113a6906001600160a01b0316612651565b6113ae565b60005b9050808211156000816113ce5760028501546001600160a01b03166113dd565b60018501546001600160a01b03165b90506001600160a01b0381166113fd575093955092935061140992505050565b94506113319350505050565b915091565b601554610100900460ff1681565b606060405162461bcd60e51b81526004016108e19061470a565b60006001600160a01b03821661144b57600191505b506001600160a01b031660009081526012602052604090205460ff1690565b6114726126f0565b600061147e848461272f565b905080516000146114a3578060405162461bcd60e51b81526004016108e19190614189565b6001600160a01b0383166114b657600192505b5060009283526016602090815260408085206001600160a01b039094168552929052912055565b6114e5612831565b6001600160a01b0316866001600160a01b0316148061150b575061150b8661085f612831565b6115275760405162461bcd60e51b81526004016108e190614266565b611535868686868686612835565b505050505050565b601b54600160a01b900460ff166001146115695760405162461bcd60e51b81526004016108e1906143b8565b601954600160a01b900460ff166115925760405162461bcd60e51b81526004016108e1906143ef565b60155460ff610100909104166001146115bd5760405162461bcd60e51b81526004016108e19061468b565b60105460ff166001146115e25760405162461bcd60e51b81526004016108e1906144ef565b6115eb836108b9565b6116075760405162461bcd60e51b81526004016108e19061477e565b600080611615846000611986565b915091508151600014829061163d5760405162461bcd60e51b81526004016108e19190614189565b50611648838261488d565b341480156116565750600083115b6116725760405162461bcd60e51b81526004016108e1906145da565b61168d85858560405180602001604052806000815250612852565b601b546040516000916001600160a01b03169034906116ab90611c15565b60006040518083038185875af1925050503d80600081146116e8576040519150601f19603f3d011682016040523d82523d6000602084013e6116ed565b606091505b50509050806115355760405162461bcd60e51b81526004016108e190614497565b601954600160a01b900460ff1681565b6001600160a01b0381166000908152601a60205260408120600301548190600160a01b900460ff166117625760405162461bcd60e51b81526004016108e19061477e565b50506001600160a01b039081166000908152601a60205260409020600181015460029091015490821692911690565b6117996126f0565b60155460ff16156117bc5760405162461bcd60e51b81526004016108e1906141be565b60006117c782612864565b905080516000146117ec578060405162461bcd60e51b81526004016108e19190614189565b6001600160a01b0382166000818152601260205260408120805460ff191660019081179091556014805480830182559083527fce6d7b5282bd9a3661ae061feed1dbda4e52ab073b1f9285be6e155d9c38d4ec0180546001600160a01b03191690931790925560138054909190611864908490614875565b90915550506015805460ff191660011790555050565b6118826126f0565b61188c6000612a49565b565b60105460ff1681565b601954600090600160a01b900460ff166118c35760405162461bcd60e51b81526004016108e1906143ef565b6001600160a01b0382166000908152601a6020526040902060030154600160a01b900460ff166119055760405162461bcd60e51b81526004016108e19061477e565b61092682612651565b6119166126f0565b60155460ff610100909104166001146119415760405162461bcd60e51b81526004016108e19061468b565b600682106119615760405162461bcd60e51b81526004016108e1906142fc565b600091825260166020526040909120600101805460ff191660ff909216919091179055565b6060600080611995858561272f565b905080516000146119ab57915060009050611a2c565b6001600160a01b0384166119be57600193505b60008581526016602090815260408083206001600160a01b038816845290915290205480611a1757505060408051808201909152600d81526c14149250d157d393d517d4d155609a1b6020820152915060009050611a2c565b60408051602081019091526000815293509150505b9250929050565b601b54600090600160a01b900460ff16600114611a625760405162461bcd60e51b81526004016108e1906143b8565b601954600160a01b900460ff16611a8b5760405162461bcd60e51b81526004016108e1906143ef565b60155460ff61010090910416600114611ab65760405162461bcd60e51b81526004016108e19061468b565b60105460ff16600114611adb5760405162461bcd60e51b81526004016108e1906144ef565b611ae4846108b9565b611b005760405162461bcd60e51b81526004016108e19061477e565b3360008181526012602052604090205460ff16600114611b325760405162461bcd60e51b81526004016108e19061454b565b60008084806020019051810190611b499190613fbc565b9150915060068210611b6d5760405162461bcd60e51b81526004016108e1906142fc565b600080611b7a8486611986565b9150915081516000148290611ba25760405162461bcd60e51b81526004016108e19190614189565b50611bad838261488d565b88148015611bbb5750600083115b611bd75760405162461bcd60e51b81526004016108e1906145da565b611bf289858560405180602001604052806000815250612852565b50632229f29760e21b9998505050505050505050565b6009546001600160a01b03165b90565b611c206126f0565b601954600160a01b900460ff1615611c4a5760405162461bcd60e51b81526004016108e19061429d565b6001600160a01b038116611c705760405162461bcd60e51b81526004016108e19061441d565b601980546001600160a01b0383166001600160a01b031960ff60a01b19928316600160a01b908117821683179094556000828152601a602052604080822060038101805482548616835560018301805487169055600283018054871690559096169096179092169093555190917fbeec1fc786857549cbe9ae8717fa0fbdea9bb7386027cbad8197404a3c94421091a25050565b601b54600160a01b900460ff1681565b601954600160a01b900460ff16611d3d5760405162461bcd60e51b81526004016108e1906143ef565b6001600160a01b03841615801590611d5d57506001600160a01b03831615155b8015611d7157506001600160a01b03821615155b611d8d5760405162461bcd60e51b81526004016108e19061441d565b6001600160a01b0384166000908152601a6020526040902060030154600160a01b900460ff1615611dd05760405162461bcd60e51b81526004016108e190614526565b6001600160a01b0383166000908152601a6020526040902060030154600160a01b900460ff16611e125760405162461bcd60e51b81526004016108e190614603565b6001600160a01b0382166000908152601a6020526040902060030154600160a01b900460ff16611e545760405162461bcd60e51b81526004016108e1906145ab565b611e5e8284612a9b565b611e7a5760405162461bcd60e51b81526004016108e19061435a565b6001600160a01b038084166000908152601a6020526040902060018101549091161580611eb2575060028101546001600160a01b0316155b611ece5760405162461bcd60e51b81526004016108e19061422f565b8115611f2b5760018101546001600160a01b0316611f08576001810180546001600160a01b0319166001600160a01b038716179055611f26565b6002810180546001600160a01b0319166001600160a01b0387161790555b611f7d565b60028101546001600160a01b0316611f5f576002810180546001600160a01b0319166001600160a01b038716179055611f7d565b6001810180546001600160a01b0319166001600160a01b0387161790555b6001600160a01b038086166000818152601a60205260409081902060038101805482548a87166001600160a01b0319918216811785556001850180548316905560028501805483169055968a1660ff60a01b19909216600160a01b17168117909155915190939192907fb7de7526072e4403cbc0296462672a10ed96d94c4169dc8b84b07515e949013d90612013908890614169565b60405180910390a4505050505050565b601954600090600160a01b900460ff1661204f5760405162461bcd60e51b81526004016108e1906143ef565b601954612064906001600160a01b0316612651565b905090565b61207b612074612831565b8383612afc565b5050565b6001600160a01b0381166000908152601a6020526040812060030154600160a01b900460ff166120c15760405162461bcd60e51b81526004016108e19061477e565b506001600160a01b039081166000908152601a60205260409020541690565b6000600684106121025760405162461bcd60e51b81526004016108e1906142fc565b5060009283526018602090815260408085206001600160a01b039490941685529281528284209184525290205490565b6060600682106121545760405162461bcd60e51b81526004016108e1906142fc565b6001600160a01b0383166000908152601760209081526040808320858452825291829020805483518184028101840190945280845290918301828280156121ba57602002820191906000526020600020905b8154815260200190600101908083116121a6575b5050505050905092915050565b60166020526000908152604090206001015460ff811690610100900463ffffffff1682565b60105460609060ff166001146122145760405162461bcd60e51b81526004016108e1906144ef565b600682106122345760405162461bcd60e51b81526004016108e1906142fc565b600a826006811061225557634e487b7160e01b600052603260045260246000fd5b018054612261906148ef565b80601f016020809104026020016040519081016040528092919081815260200182805461228d906148ef565b80156122da5780601f106122af576101008083540402835291602001916122da565b820191906000526020600020905b8154815290600101906020018083116122bd57829003601f168201915b50505050509050919050565b6000600683106123085760405162461bcd60e51b81526004016108e1906142fc565b5060009182526006602090815260408084209284529190529020546001600160a01b031690565b60006001600160a01b0382166123575760405162461bcd60e51b81526004016108e19061441d565b6000805b60068110156124da576001600160a01b03841660009081526017602090815260408083208484528252808320805482518185028101850190935280835291929091908301828280156123cc57602002820191906000526020600020905b8154815260200190600101908083116123b8575b5050505050905060005b81518110156124c557600082828151811061240157634e487b7160e01b600052603260045260246000fd5b60209081029190910181015160008681526018835260408082206001600160a01b038c16835284528082208383528452808220548883526016909452902060010154909250610100900463ffffffff1661245b8183614875565b42111561246a575050506124b3565b600080612478886000611986565b91509150815160001482906124a05760405162461bcd60e51b81526004016108e19190614189565b506124ab818a614875565b985050505050505b806124bd81614956565b9150506123d6565b505080806124d290614956565b91505061235b565b5092915050565b6001600160a01b03918216600090815260086020908152604080832093909416825291909152205460ff1690565b6019546001600160a01b031681565b60405162461bcd60e51b81526004016108e19061462d565b61253e6126f0565b6001600160a01b0381166125645760405162461bcd60e51b81526004016108e1906141e9565b6112bc81612a49565b60006001600160a01b0383166125955760405162461bcd60e51b81526004016108e19061441d565b600682106125b55760405162461bcd60e51b81526004016108e19061446c565b5060009081526007602090815260408083206001600160a01b03949094168352929052205490565b60006001600160e01b03198216636cdb3d1360e11b148061260e57506001600160e01b031982166303a24d0760e21b145b80610926575061092682612b9f565b60608161262984612bb8565b60405160200161263a92919061405b565b604051602081830303815290604052905092915050565b60006001600160a01b03821661266957506000610912565b6001600160a01b0382166000908152601a602052604090206003810154600160a01b900460ff1661269e576000915050610912565b60028101546126b5906001600160a01b0316612651565b60018201546126cc906001600160a01b0316612651565b6126d58561232f565b6126df9190614875565b6126e99190614875565b9392505050565b6126f8612831565b6001600160a01b0316612709611c08565b6001600160a01b03161461188c5760405162461bcd60e51b81526004016108e190614576565b60155460609060ff61010090910416600114612778575060408051808201909152601681527514149250d154d7d393d517d25392551250531256915160521b6020820152610926565b60058311156127ab575060408051808201909152600d81526c544f4b454e49445f52414e474560981b6020820152610926565b6001600160a01b0382166127be57600191505b6001600160a01b03821660009081526012602052604090205460ff1660011461281b5761281482604051806040016040528060118152602001701513d2d15397d55394d5541413d4951151607a1b81525061261d565b9050610926565b5060408051602081019091526000815292915050565b3390565b611535868686868660405180602001604052806000815250612da7565b61285e84848484613076565b50505050565b6001600160a01b03811660009081526012602052604090205460609060ff16600114156128bf576128b8826040518060400160405280600b81526020016a414444525f45584953545360a81b81525061261d565b9050610912565b60408051600481526024810182526020810180516001600160e01b03166395d89b4160e01b179052905160009081906001600160a01b0386169061290490859061403f565b600060405180830381855afa9150503d806000811461293f576040519150601f19603f3d011682016040523d82523d6000602084013e612944565b606091505b5091509150818015612957575060008151115b156129fe576000818060200190518101906129729190613e72565b80516020808301919091206040805180820190915260038152622221a360e91b9201919091529091507f580e4ba285e7e1134de91e671c33b0ab748bee7126d5d2e4d0845e6ad176e7eb81146129f7576129eb87604051806040016040528060078152602001662727aa2fa221a360c91b81525061261d565b95505050505050610912565b5050612a31565b612a2785604051806040016040528060078152602001662727aa2fa221a360c91b81525061261d565b9350505050610912565b50506040805160208101909152600081529392505050565b600980546001600160a01b038381166001600160a01b0319831681179093556040519116919082907f8be0079c531659141344cd1fd0a4f28419497f9722a3daafe3b4186f6b6457e090600090a35050565b6000815b6001600160a01b03811615612af257836001600160a01b0316816001600160a01b03161415612ad2576001915050610926565b6001600160a01b039081166000908152601a602052604090205416612a9f565b5060009392505050565b816001600160a01b0316836001600160a01b03161415612b2e5760405162461bcd60e51b81526004016108e190614391565b6001600160a01b0383811660008181526008602090815260408083209487168084529490915290819020805460ff1916851515179055517f17307eab39ab6107e8899845ad3d59bd9653f200f220920489ca2b5937696c3190612b92908590614169565b60405180910390a3505050565b6001600160e01b031981166301ffc9a760e01b14919050565b60408051602a808252606082810190935283831b916f181899199a1a9b1b9c1cb0b131b232b360811b9160009190602082018180368337019050509050600360fc1b81600081518110612c1b57634e487b7160e01b600052603260045260246000fd5b60200101906001600160f81b031916908160001a905350600f60fb1b81600181518110612c5857634e487b7160e01b600052603260045260246000fd5b60200101906001600160f81b031916908160001a90535060005b6014811015612d9e576000848260148110612c9d57634e487b7160e01b600052603260045260246000fd5b1a905083600482901c60ff1660108110612cc757634e487b7160e01b600052603260045260246000fd5b1a60f81b83612cd784600261488d565b612ce2906002614875565b81518110612d0057634e487b7160e01b600052603260045260246000fd5b60200101906001600160f81b031916908160001a90535083600f821660108110612d3a57634e487b7160e01b600052603260045260246000fd5b1a60f81b83612d4a84600261488d565b612d55906003614875565b81518110612d7357634e487b7160e01b600052603260045260246000fd5b60200101906001600160f81b031916908160001a905350508080612d9690614956565b915050612c72565b50949350505050565b6001600160a01b038516612dcd5760405162461bcd60e51b81526004016108e19061441d565b60068410612ded5760405162461bcd60e51b81526004016108e1906142fc565b60005b82811015613067576000848483818110612e1a57634e487b7160e01b600052603260045260246000fd5b60008981526018602090815260408083206001600160a01b038f168085529083528184209483029690960135808452938252808320548c84526016909252909120600101549194509261010090910463ffffffff169150612e7b89856122e6565b6001600160a01b031614612ea15760405162461bcd60e51b81526004016108e190614443565b612eab8183614875565b4211612ec95760405162461bcd60e51b81526004016108e1906142d4565b60008881526018602090815260408083206001600160a01b03808e1680865291845282852088865284528285208590558e16845260178084528285208d8652845282852091855283528184208c8552909252822090915b825481101561300d5785838281548110612f4a57634e487b7160e01b600052603260045260246000fd5b90600052602060002001541415612ffb5782548390612f6b906001906148ac565b81548110612f8957634e487b7160e01b600052603260045260246000fd5b9060005260206000200154838281548110612fb457634e487b7160e01b600052603260045260246000fd5b906000526020600020018190555082805480612fe057634e487b7160e01b600052603160045260246000fd5b6001900381819060005260206000200160009055905561300d565b8061300581614956565b915050612f20565b508054600181018255600091825260208083209091018690558a82526018815260408083206001600160a01b038f1684528252808320968352959052938420939093555082915061305f905081614956565b915050612df0565b50611535868686868686613171565b4260005b8381101561315d5760008581526018602090815260408083206001600160a01b038a16845290915281208391838189600681106130c757634e487b7160e01b600052603260045260246000fd5b01546130d39190614875565b815260208082019290925260409081016000908120939093556001600160a01b0389168352601782528083208884529091528120908290876006811061312957634e487b7160e01b600052603260045260246000fd5b01546131359190614875565b815460018101835560009283526020909220909101558061315581614956565b91505061307a565b5061316a85858585613469565b5050505050565b6001600160a01b0385166131975760405162461bcd60e51b81526004016108e19061441d565b600684106131b75760405162461bcd60e51b81526004016108e1906142fc565b60005b8281101561324d5760008581526006602052604081206001600160a01b038916918686858181106131fb57634e487b7160e01b600052603260045260246000fd5b60209081029290920135835250810191909152604001600020546001600160a01b03161461323b5760405162461bcd60e51b81526004016108e190614443565b8061324581614956565b9150506131ba565b506000613258612831565b9050600061326586613664565b9050600061327285613664565b9050613282838a8a8585896136bd565b60005b858110156133185760008881526006602052604081206001600160a01b038c16918989858181106132c657634e487b7160e01b600052603260045260246000fd5b60209081029290920135835250810191909152604001600020546001600160a01b0316146133065760405162461bcd60e51b81526004016108e190614443565b8061331081614956565b915050613285565b5060008781526007602090815260408083206001600160a01b038d16845290915281208054878103909155905b868110156133bc5760008981526006602052604081208b918a8a8581811061337d57634e487b7160e01b600052603260045260246000fd5b6020908102929092013583525081019190915260400160002080546001600160a01b0319166001600160a01b0392909216919091179055600101613345565b5060008881526007602090815260408083206001600160a01b038d168452909152812080548892906133ef908490614875565b90915550506040516001600160a01b03808b16918c8216918716907fc3d58168c5ae7397731d063d5bbf3d657854427343f4c083240f7aacaa2d0f6290613439908d908c906147b0565b60405180910390a461344f848b8b86868a611535565b61345d848b8b8b8a8a6136cb565b50505050505050505050565b600683106134895760405162461bcd60e51b81526004016108e1906142fc565b6001600160a01b0384166134af5760405162461bcd60e51b81526004016108e19061441d565b60006134b9612831565b905060006134c685613664565b905060006134d385613664565b90506134e4836000898585896136bd565b60008681526007602090815260408083206001600160a01b038b16845290915281208054879290613516908490614875565b90915550600090505b858110156135ab57876006600089815260200190815260200160002060008360008b6006811061355f57634e487b7160e01b600052603260045260246000fd5b015461356b9190614875565b8152602081019190915260400160002080546001600160a01b0319166001600160a01b0392909216919091179055806135a381614956565b91505061351f565b5084600087600681106135ce57634e487b7160e01b600052603260045260246000fd5b0160008282546135de9190614875565b92505081905550866001600160a01b031660006001600160a01b0316846001600160a01b03167fc3d58168c5ae7397731d063d5bbf3d657854427343f4c083240f7aacaa2d0f6289896040516136359291906147b0565b60405180910390a461364c83600089858589611535565b61365b836000898989896136cb565b50505050505050565b604080516001808252818301909252606091600091906020808301908036833701905050905082816000815181106136ac57634e487b7160e01b600052603260045260246000fd5b602090810291909101015292915050565b611535868686868686611535565b6001600160a01b0384163b156115355760405163f23a6e6160e01b81526001600160a01b0385169063f23a6e619061370f90899089908890889088906004016140c5565b602060405180830381600087803b15801561372957600080fd5b505af1925050508015613759575060408051601f3d908101601f1916820190925261375691810190613e56565b60015b6137b95761376561499d565b806308c379a0141561379f575061377a6149b4565b8061378557506137a1565b8060405162461bcd60e51b81526004016108e19190614189565b505b60405162461bcd60e51b81526004016108e190614733565b6001600160e01b0319811663f23a6e6160e01b1461365b5760405162461bcd60e51b81526004016108e190614323565b8280546137f5906148ef565b90600052602060002090601f016020900481019282613817576000855561385d565b82601f1061383057805160ff191683800117855561385d565b8280016001018555821561385d579182015b8281111561385d578251825591602001919060010190613842565b5061386992915061386d565b5090565b5b80821115613869576000815560010161386e565b80356001600160a01b038116811461091257600080fd5b600082601f8301126138a9578081fd5b813560206138b68261482b565b6040516138c3828261492a565b8381528281019150858301838502870184018810156138e0578586fd5b855b858110156138fe578135845292840192908401906001016138e2565b5090979650505050505050565b8035801515811461091257600080fd5b600082601f83011261392b578081fd5b81356139368161484e565b604051613943828261492a565b828152856020848701011115613957578384fd5b82602086016020830137918201602001929092529392505050565b600060208284031215613983578081fd5b61092382613882565b6000806040838503121561399e578081fd5b6139a783613882565b91506139b560208401613882565b90509250929050565b600080600080608085870312156139d3578182fd5b6139dc85613882565b93506139ea60208601613882565b92506139f860408601613882565b9150613a066060860161390b565b905092959194509250565b600080600080600060a08688031215613a28578081fd5b613a3186613882565b9450613a3f60208701613882565b935060408601356001600160401b0380821115613a5a578283fd5b613a6689838a01613899565b94506060880135915080821115613a7b578283fd5b613a8789838a01613899565b93506080880135915080821115613a9c578283fd5b50613aa98882890161391b565b9150509295509295909350565b60008060008060008060a08789031215613ace578384fd5b613ad787613882565b9550613ae560208801613882565b94506040870135935060608701356001600160401b0380821115613b07578283fd5b818901915089601f830112613b1a578283fd5b813581811115613b28578384fd5b8a60208083028501011115613b3b578384fd5b602083019550809450506080890135915080821115613b58578283fd5b50613b6589828a0161391b565b9150509295509295509295565b60008060008060808587031215613b87578182fd5b613b9085613882565b9350613b9e60208601613882565b92506040850135915060608501356001600160401b03811115613bbf578182fd5b613bcb8782880161391b565b91505092959194509250565b600080600080600060a08688031215613bee578283fd5b613bf786613882565b9450613c0560208701613882565b9350604086013592506060860135915060808601356001600160401b03811115613c2d578182fd5b613aa98882890161391b565b60008060408385031215613c4b578182fd5b613c5483613882565b91506139b56020840161390b565b60008060408385031215613c74578182fd5b613c7d83613882565b946020939093013593505050565b600080600060608486031215613c9f578081fd5b613ca884613882565b95602085013595506040909401359392505050565b60008060408385031215613ccf578182fd5b82356001600160401b0380821115613ce5578384fd5b818501915085601f830112613cf8578384fd5b81356020613d058261482b565b604051613d12828261492a565b8381528281019150858301838502870184018b1015613d2f578889fd5b8896505b84871015613d5857613d4481613882565b835260019690960195918301918301613d33565b5096505086013592505080821115613d6e578283fd5b50613d7b85828601613899565b9150509250929050565b600060208284031215613d96578081fd5b81356001600160401b03811115613dab578182fd5b820160c081018410156126e9578182fd5b60006020808385031215613dce578182fd5b82356001600160401b03811115613de3578283fd5b8301601f81018513613df3578283fd5b604051613e0160c08261492a565b8082855b6006811015613e2d57613e1b898335870161391b565b83529185019190850190600101613e05565b5091979650505050505050565b600060208284031215613e4b578081fd5b81356126e981614a45565b600060208284031215613e67578081fd5b81516126e981614a45565b600060208284031215613e83578081fd5b81516001600160401b03811115613e98578182fd5b8201601f81018413613ea8578182fd5b8051613eb38161484e565b604051613ec0828261492a565b828152866020848601011115613ed4578485fd5b613ee58360208301602087016148c3565b9695505050505050565b600060408284031215613f00578081fd5b604051613f0e60408261492a565b613f1783613882565b8152602083013560208201528091505092915050565b600060208284031215613f3e578081fd5b5035919050565b60008060408385031215613f57578182fd5b823591506139b560208401613882565b600080600060608486031215613f7b578081fd5b83359250613f8b60208501613882565b9150604084013590509250925092565b60008060408385031215613fad578182fd5b50508035926020909101359150565b60008060408385031215613fce578182fd5b505080516020909101519092909150565b60008060408385031215613ff1578182fd5b82359150602083013560ff81168114614008578182fd5b809150509250929050565b6000815180845261402b8160208601602086016148c3565b601f01601f19169290920160200192915050565b600082516140518184602087016148c3565b9190910192915050565b6000835161406d8184602088016148c3565b600160fd1b908301908152835161408b8160018401602088016148c3565b01600101949350505050565b6001600160a01b0391909116815260200190565b6001600160a01b0392831681529116602082015260400190565b6001600160a01b03868116825285166020820152604081018490526060810183905260a0608082018190526000906140ff90830184614013565b979650505050505050565b6001600160a01b039290921682521515602082015260400190565b6020808252825182820181905260009190848201906040850190845b8181101561415d57835183529284019291840191600101614141565b50909695505050505050565b901515815260200190565b6001600160e01b031991909116815260200190565b6000602082526109236020830184614013565b6000604082526141af6040830185614013565b90508260208301529392505050565b6020808252601190820152701513d2d15397d253925512505312569151607a1b604082015260600190565b60208082526026908201527f4f776e61626c653a206e6577206f776e657220697320746865207a65726f206160408201526564647265737360d01b606082015260800190565b60208082526017908201527f504152454e545f4841535f54574f5f4348494c4452454e000000000000000000604082015260600190565b60208082526019908201527f43414c4c45525f4e4f545f4f574e45525f415050524f56454400000000000000604082015260600190565b60208082526018908201527f524f4f545f414c52454144595f494e495449414c495a45440000000000000000604082015260600190565b6020808252600e908201526d14d1539117d59053125117d3919560921b604082015260600190565b6020808252600d908201526c544f4b454e49445f52414e474560981b604082015260600190565b6020808252601f908201527f4552433131353552454345495645525f52454a45435445445f544f4b454e5300604082015260600190565b6020808252601e908201527f504152454e545f4e4f545f5245434f4d4d454e4445525f535542545245450000604082015260600190565b6020808252600d908201526c20a8282927ab20a62fa9a2a62360991b604082015260600190565b6020808252601d908201527f57495448445241575f414444525f4e4f545f494e495449414c495a4544000000604082015260600190565b6020808252601490820152731493d3d517d393d517d25392551250531256915160621b604082015260600190565b6020808252600c908201526b5a45524f5f4144445245535360a01b604082015260600190565b6020808252600f908201526e1513d2d15397d393d517d3d5d39151608a1b604082015260600190565b6020808252601190820152704552525f544f4b454e49445f52414e474560781b604082015260600190565b6020808252601290820152711510d7d514905394d1915497d1905253115160721b604082015260600190565b60208082526012908201527114149250d154d7d25392551250531256915160721b604082015260600190565b60208082526017908201527f424153455552495f4e4f545f494e495449414c495a4544000000000000000000604082015260600190565b6020808252600b908201526a4e4f44455f45584953545360a81b604082015260600190565b6020808252601190820152701513d2d15397d55394d5541413d4951151607a1b604082015260600190565b6020808252818101527f4f776e61626c653a2063616c6c6572206973206e6f7420746865206f776e6572604082015260600190565b602080825260159082015274149150d3d353515391115497d393d517d1561254d5605a1b604082015260600190565b6020808252600f908201526e494e434f52524543545f46554e445360881b604082015260600190565b60208082526010908201526f14105491539517d393d517d1561254d560821b604082015260600190565b6020808252601590820152745553455f45536166655472616e7366657246726f6d60581b604082015260600190565b6020808252601590820152741513d2d15397d393d517d253925512505312569151605a1b604082015260600190565b60208082526016908201527514149250d154d7d393d517d25392551250531256915160521b604082015260600190565b6020808252600890820152675553455f4575726960c01b604082015260600190565b602080825260139082015272105111149154d4d7d254d7d0d3d395149050d5606a1b604082015260600190565b6020808252600f908201526e1393d517d253541311535153951151608a1b604082015260600190565b6020808252602b908201527f7472616e736665725f746f5f6e6f6e2d4552433131353552656365697665725f60408201526a34b6b83632b6b2b73a32b960a91b606082015260800190565b6020808252600f908201526e4e4f44455f4e4f545f45584953545360881b604082015260600190565b90815260200190565b918252602082015260400190565b60ff91909116815260200190565b60ff92909216825263ffffffff16602082015260400190565b6000808335601e198436030181126147fb578283fd5b8301803591506001600160401b03821115614814578283fd5b6020019150604081023603821315611a2c57600080fd5b60006001600160401b0382111561484457614844614987565b5060209081020190565b60006001600160401b0382111561486757614867614987565b50601f01601f191660200190565b6000821982111561488857614888614971565b500190565b60008160001904831182151516156148a7576148a7614971565b500290565b6000828210156148be576148be614971565b500390565b60005b838110156148de5781810151838201526020016148c6565b8381111561285e5750506000910152565b60028104600182168061490357607f821691505b6020821081141561492457634e487b7160e01b600052602260045260246000fd5b50919050565b601f8201601f191681016001600160401b038111828210171561494f5761494f614987565b6040525050565b600060001982141561496a5761496a614971565b5060010190565b634e487b7160e01b600052601160045260246000fd5b634e487b7160e01b600052604160045260246000fd5b600060033d1115611c1557600481823e5160e01c90565b600060443d10156149c457611c15565b6040516003193d81016004833e81513d6001600160401b0381602484011181841117156149f5575050505050611c15565b8285019150815181811115614a0f57505050505050611c15565b843d8701016020828501011115614a2b57505050505050611c15565b614a3a6020828601018761492a565b509094505050505090565b6001600160e01b0319811681146112bc57600080fdfea2646970667358221220302fa49757fbc17901f1777b4ce9c2ca825ce026687b9adaa4518ca3570a6b8764736f6c63430008010033","linkReferences":{}},"methodIdentifiers":{"ESafeTransferFrom(address,address,uint256,uint256[],bytes)":"598c27bc","Euri(uint256)":"d3ab7443","NFTPrice_initialized()":"4c8cb672","NFTS(uint256)":"c9b6b485","_initializedURIStorage()":"7a915fde","addSupportedToken(address)":"6d69fcaf","balanceOf(address,uint256)":"00fdd58e","balanceOfBatch(address[],uint256[])":"4e1273f4","buyNFTByTC(address,uint256,uint256)":"5c92dbd6","changeDynamicRatio(uint256,uint8)":"83023c88","changeNFTPrice(uint256,address,uint256)":"55826313","checkInitPricesParams((address,uint256)[][6])":"1f3fd618","getChildren(address)":"6999fa45","getNFTPrice(uint256,address)":"86ff9113","getNftMintTime(uint256,address,uint256)":"aa31281c","getNodeBalance(address)":"07f241ce","getParent(address)":"a9405923","getRecommendedParent(address)":"3f257599","getRecommender(address)":"153154fd","getTotalNFTWorth(address)":"e5030adc","getUserTokenIds(address,uint256)":"b788920e","initPrice((address,uint256)[][6])":"3a4d2d3a","initRoot(address)":"92aeff48","insert(address,address,address,bool)":"9f2980db","isApprovedForAll(address,address)":"e985e9c5","isExist(address)":"0013eb4b","isSupported(address)":"4f129c53","minChildSubtreeBalance(address)":"2653335a","onTransferReceived(address,address,uint256,bytes)":"88a7ca5c","owner()":"8da5cb5b","ownerOf(uint256,uint256)":"d9dad80d","renounceOwnership()":"715018a6","root()":"ebf0c717","rootInitialized()":"651583ee","safeBatchTransferFrom(address,address,uint256[],uint256[],bytes)":"2eb2c2d6","safeTransferFrom(address,address,uint256,uint256,bytes)":"f242432a","setApprovalForAll(address,bool)":"a22cb465","setBaseURI(bytes[6])":"2fedbf3c","setWithdrawAddress(address)":"3ab1a494","subtreeBalance(address)":"7c8e2da7","supportedTokenAmount()":"23361283","supportsInterface(bytes4)":"01ffc9a7","tokenAddress_array(uint256)":"19d62e57","totalTreeBalance()":"a15113d1","transferOwnership(address)":"f2fde38b","uri(uint256)":"0e89341c","withdrawAddress()":"1581b600","withdrawAddress_initialized()":"9da879b4"}}}}}