{"abi":[{"type":"receive","stateMutability":"payable"},{"type":"function","name":"NFTDeadline","inputs":[{"name":"","type":"uint256","internalType":"uint256"}],"outputs":[{"name":"","type":"uint256","internalType":"uint256"}],"stateMutability":"view"},{"type":"function","name":"addresses","inputs":[{"name":"","type":"uint256","internalType":"uint256"}],"outputs":[{"name":"","type":"address","internalType":"address"}],"stateMutability":"view"},{"type":"function","name":"getIERC20MetadataInterfaceId","inputs":[],"outputs":[{"name":"","type":"bytes4","internalType":"bytes4"}],"stateMutability":"pure"},{"type":"function","name":"getTimestamp","inputs":[],"outputs":[{"name":"","type":"uint256","internalType":"uint256"}],"stateMutability":"view"},{"type":"function","name":"getValue","inputs":[],"outputs":[],"stateMutability":"pure"},{"type":"function","name":"init","inputs":[{"name":"tokenAddresses","type":"address[]","internalType":"address[]"}],"outputs":[],"stateMutability":"nonpayable"},{"type":"function","name":"pushData","inputs":[{"name":"_key","type":"uint256","internalType":"uint256"},{"name":"_value","type":"uint256","internalType":"uint256"},{"name":"_deleteData","type":"bool","internalType":"bool"}],"outputs":[],"stateMutability":"nonpayable"},{"type":"function","name":"setAddress1","inputs":[{"name":"addAmount","type":"uint256","internalType":"uint256"}],"outputs":[],"stateMutability":"nonpayable"},{"type":"function","name":"setAddress2","inputs":[{"name":"addAmount","type":"uint256","internalType":"uint256"}],"outputs":[],"stateMutability":"nonpayable"},{"type":"function","name":"supportTokenAddress","inputs":[{"name":"","type":"address","internalType":"address"}],"outputs":[{"name":"","type":"uint8","internalType":"uint8"}],"stateMutability":"view"},{"type":"function","name":"testDecodeData","inputs":[{"name":"decodeData","type":"bytes","internalType":"bytes"}],"outputs":[{"name":"","type":"uint256","internalType":"uint256"},{"name":"","type":"uint256","internalType":"uint256"}],"stateMutability":"pure"},{"type":"function","name":"testInternalCallContractFunction","inputs":[{"name":"_tokenAddress","type":"address","internalType":"address"}],"outputs":[{"name":"","type":"string","internalType":"string"}],"stateMutability":"view"},{"type":"function","name":"testRevert","inputs":[],"outputs":[],"stateMutability":"pure"},{"type":"function","name":"testencodePacked","inputs":[],"outputs":[{"name":"","type":"uint256","internalType":"uint256"},{"name":"","type":"uint256","internalType":"uint256"}],"stateMutability":"pure"},{"type":"function","name":"transferNatureToken","inputs":[{"name":"to","type":"address","internalType":"address"},{"name":"amount","type":"uint256","internalType":"uint256"}],"outputs":[],"stateMutability":"nonpayable"},{"type":"function","name":"useCall","inputs":[{"name":"tokenAddress","type":"address","internalType":"address"}],"outputs":[{"name":"","type":"string","internalType":"string"}],"stateMutability":"view"}],"bytecode":{"object":"0x608060405234801561001057600080fd5b50610ea7806100206000396000f3fe6080604052600436106100f75760003560e01c80638b21f1b21161008a578063c7c5f75611610059578063c7c5f75614610297578063edf26d9b146102b7578063f8c51200146102ef578063ff51c6ba1461030f57600080fd5b80638b21f1b214610215578063a26388bb14610174578063a92317b214610235578063c6044c461461027757600080fd5b8063581fe037116100c6578063581fe0371461018b5780635d018bec146101ab57806361ce7830146101cb5780637ded2f07146101f557600080fd5b8063123fa2a814610103578063188ec3561461012a5780631dc44d7414610147578063209652551461017457600080fd5b366100fe57005b600080fd5b34801561010f57600080fd5b50604051634a17459160e11b81526020015b60405180910390f35b34801561013657600080fd5b50425b604051908152602001610121565b34801561015357600080fd5b50610167610162366004610b1f565b61033c565b6040516101219190610b65565b34801561018057600080fd5b5061018961041f565b005b34801561019757600080fd5b506101896101a6366004610b98565b610454565b3480156101b757600080fd5b506101896101c6366004610bd6565b610483565b3480156101d757600080fd5b506101e06106da565b60408051928352602083019190915201610121565b34801561020157600080fd5b50610189610210366004610bd6565b610731565b34801561022157600080fd5b506101e0610230366004610bef565b61086c565b34801561024157600080fd5b50610265610250366004610b1f565b60026020526000908152604090205460ff1681565b60405160ff9091168152602001610121565b34801561028357600080fd5b50610189610292366004610c61565b6108d1565b3480156102a357600080fd5b506101896102b2366004610cc4565b6108db565b3480156102c357600080fd5b506102d76102d2366004610bd6565b61096c565b6040516001600160a01b039091168152602001610121565b3480156102fb57600080fd5b5061016761030a366004610b1f565b610996565b34801561031b57600080fd5b5061013961032a366004610bd6565b60006020819052908152604090205481565b60408051600481526024810182526020810180516001600160e01b03166395d89b4160e01b17905290516060919060009081906001600160a01b03861690610385908590610cee565b600060405180830381855afa9150503d80600081146103c0576040519150601f19603f3d011682016040523d82523d6000602084013e6103c5565b606091505b50915091508180156103d8575060008151115b156103fa57808060200190518101906103f19190610d20565b95945050505050565b505060408051808201909152600581526466616c736560d81b60208201529392505050565b60405162461bcd60e51b81526020600482015260056024820152646e6968616f60d81b60448201526064015b60405180910390fd5b6000838152602081905260409020829055801561047e575050600090815260208190526040812055565b505050565b600380546001808201835560008381527fc2575a0e9e593c00f959f8c92f12db2869c3395a3b0502d05e2516446f71f85b9283018054738a791620dd6260079bf849dc5567adc3f2fdc3186001600160a01b03199182168117909255855480850187558501805482168317905585548085018755850180548216831790558554808501875585018054821683179055855480850187558501805482168317905585548085018755850180548216831790558554938401865592909301805490921690921790558154604080516020808402820181019092528281529293919083018282801561059b57602002820191906000526020600020905b81546001600160a01b0316815260019091019060200180831161057d575b5050505050905060008282516105b19190610de3565b67ffffffffffffffff8111156105c9576105c9610d0a565b6040519080825280602002602001820160405280156105f2578160200160208202803683370190505b50825190915060005b818110156106595783818151811061061557610615610dfc565b602002602001015183828151811061062f5761062f610dfc565b6001600160a01b03909216602092830291909101909101528061065181610e12565b9150506105fb565b5060005b848110156106bf5773dd2fd4581271e230360230f9337d5c0430bf44c0836106858385610de3565b8151811061069557610695610dfc565b6001600160a01b0390921660209283029190910190910152806106b781610e12565b91505061065d565b5081516106d3906003906020850190610a89565b5050505050565b6000806000600360646040516020016106fd929190918252602082015260400190565b6040516020818303038152906040529050600080828060200190518101906107259190610e2b565b90969095509350505050565b600380546001808201835560008381527fc2575a0e9e593c00f959f8c92f12db2869c3395a3b0502d05e2516446f71f85b9283018054738a791620dd6260079bf849dc5567adc3f2fdc3186001600160a01b03199182168117909255855480850187558501805482168317905585548085018755850180548216831790558554808501875585018054821683179055855480850187558501805482168317905585548085018755850180548216831790558554938401909555919092018054909316179091555b8181101561086857600380546001810182556000919091527fc2575a0e9e593c00f959f8c92f12db2869c3395a3b0502d05e2516446f71f85b0180546001600160a01b03191673dd2fd4581271e230360230f9337d5c0430bf44c01790558061086081610e12565b9150506107f8565b5050565b600080604083146108b55760405162461bcd60e51b8152602060048201526013602482015272092dcecc2d8d2c840c8c2e8c240d8cadccee8d606b1b604482015260640161044b565b6000806108c485870187610e4f565b9097909650945050505050565b6108688282610a0d565b6000826001600160a01b03168260405160006040518083038185875af1925050503d8060008114610928576040519150601f19603f3d011682016040523d82523d6000602084013e61092d565b606091505b505090508061047e5760405162461bcd60e51b815260206004820152600b60248201526a18d85b1b0819985a5b195960aa1b604482015260640161044b565b6003818154811061097c57600080fd5b6000918252602090912001546001600160a01b0316905081565b606060008290506000816001600160a01b03166395d89b416040518163ffffffff1660e01b8152600401600060405180830381865afa1580156109dd573d6000803e3d6000fd5b505050506040513d6000823e601f3d908101601f19168201604052610a059190810190610d20565b949350505050565b8060005b81811015610a8357600160026000868685818110610a3157610a31610dfc565b9050602002016020810190610a469190610b1f565b6001600160a01b031681526020810191909152604001600020805460ff191660ff9290921691909117905580610a7b81610e12565b915050610a11565b50505050565b828054828255906000526020600020908101928215610ade579160200282015b82811115610ade57825182546001600160a01b0319166001600160a01b03909116178255602090920191600190910190610aa9565b50610aea929150610aee565b5090565b5b80821115610aea5760008155600101610aef565b80356001600160a01b0381168114610b1a57600080fd5b919050565b600060208284031215610b3157600080fd5b610b3a82610b03565b9392505050565b60005b83811015610b5c578181015183820152602001610b44565b50506000910152565b6020815260008251806020840152610b84816040850160208701610b41565b601f01601f19169190910160400192915050565b600080600060608486031215610bad57600080fd5b833592506020840135915060408401358015158114610bcb57600080fd5b809150509250925092565b600060208284031215610be857600080fd5b5035919050565b60008060208385031215610c0257600080fd5b823567ffffffffffffffff80821115610c1a57600080fd5b818501915085601f830112610c2e57600080fd5b813581811115610c3d57600080fd5b866020828501011115610c4f57600080fd5b60209290920196919550909350505050565b60008060208385031215610c7457600080fd5b823567ffffffffffffffff80821115610c8c57600080fd5b818501915085601f830112610ca057600080fd5b813581811115610caf57600080fd5b8660208260051b8501011115610c4f57600080fd5b60008060408385031215610cd757600080fd5b610ce083610b03565b946020939093013593505050565b60008251610d00818460208701610b41565b9190910192915050565b634e487b7160e01b600052604160045260246000fd5b600060208284031215610d3257600080fd5b815167ffffffffffffffff80821115610d4a57600080fd5b818401915084601f830112610d5e57600080fd5b815181811115610d7057610d70610d0a565b604051601f8201601f19908116603f01168101908382118183101715610d9857610d98610d0a565b81604052828152876020848701011115610db157600080fd5b610dc2836020830160208801610b41565b979650505050505050565b634e487b7160e01b600052601160045260246000fd5b80820180821115610df657610df6610dcd565b92915050565b634e487b7160e01b600052603260045260246000fd5b600060018201610e2457610e24610dcd565b5060010190565b60008060408385031215610e3e57600080fd5b505080516020909101519092909150565b60008060408385031215610e6257600080fd5b5050803592602090910135915056fea26469706673582212207d2b2640fa8cf8d4e76e5d018ba59bc250fd1663b7e14611db815f70d3f20fbc64736f6c63430008140033","linkReferences":{}},"methodIdentifiers":{"NFTDeadline(uint256)":"ff51c6ba","addresses(uint256)":"edf26d9b","getIERC20MetadataInterfaceId()":"123fa2a8","getTimestamp()":"188ec356","getValue()":"20965255","init(address[])":"c6044c46","pushData(uint256,uint256,bool)":"581fe037","setAddress1(uint256)":"5d018bec","setAddress2(uint256)":"7ded2f07","supportTokenAddress(address)":"a92317b2","testDecodeData(bytes)":"8b21f1b2","testInternalCallContractFunction(address)":"f8c51200","testRevert()":"a26388bb","testencodePacked()":"61ce7830","transferNatureToken(address,uint256)":"c7c5f756","useCall(address)":"1dc44d74"},"id":50}