{"abi":[{"type":"function","name":"ESafeTransferFrom","inputs":[{"name":"from","type":"address","internalType":"address"},{"name":"to","type":"address","internalType":"address"},{"name":"id","type":"uint256","internalType":"uint256"},{"name":"indexes","type":"uint256[]","internalType":"uint256[]"},{"name":"data","type":"bytes","internalType":"bytes"}],"outputs":[],"stateMutability":"nonpayable"},{"type":"function","name":"NFTPrice_initialized","inputs":[],"outputs":[{"name":"","type":"uint8","internalType":"uint8"}],"stateMutability":"view"},{"type":"function","name":"NFTS","inputs":[{"name":"","type":"uint256","internalType":"uint256"}],"outputs":[{"name":"ratio","type":"uint8","internalType":"uint8"},{"name":"indate","type":"uint32","internalType":"uint32"}],"stateMutability":"view"},{"type":"function","name":"addSupportedToken","inputs":[{"name":"_tokenAddress","type":"address","internalType":"address"}],"outputs":[],"stateMutability":"nonpayable"},{"type":"function","name":"balanceOf","inputs":[{"name":"account","type":"address","internalType":"address"},{"name":"id","type":"uint256","internalType":"uint256"}],"outputs":[{"name":"","type":"uint256","internalType":"uint256"}],"stateMutability":"view"},{"type":"function","name":"balanceOfBatch","inputs":[{"name":"","type":"address[]","internalType":"address[]"},{"name":"","type":"uint256[]","internalType":"uint256[]"}],"outputs":[{"name":"","type":"uint256[]","internalType":"uint256[]"}],"stateMutability":"view"},{"type":"function","name":"changeDynamicRatio","inputs":[{"name":"tokenID","type":"uint256","internalType":"uint256"},{"name":"newRatio","type":"uint8","internalType":"uint8"}],"outputs":[],"stateMutability":"nonpayable"},{"type":"function","name":"changeNFTPrice","inputs":[{"name":"tokenID","type":"uint256","internalType":"uint256"},{"name":"tokenAddress","type":"address","internalType":"address"},{"name":"amount","type":"uint256","internalType":"uint256"}],"outputs":[],"stateMutability":"nonpayable"},{"type":"function","name":"checkInitPricesParams","inputs":[{"name":"prices","type":"tuple[][6]","internalType":"struct TCF_NFTPrice.priceTypeAndAomut[][6]","components":[{"name":"tokenAddress","type":"address","internalType":"address"},{"name":"amount","type":"uint256","internalType":"uint256"}]}],"outputs":[{"name":"","type":"string","internalType":"string"}],"stateMutability":"view"},{"type":"function","name":"getNFTPrice","inputs":[{"name":"tokenID","type":"uint256","internalType":"uint256"},{"name":"_tokenAddress","type":"address","internalType":"address"}],"outputs":[{"name":"","type":"string","internalType":"string"},{"name":"","type":"uint256","internalType":"uint256"}],"stateMutability":"view"},{"type":"function","name":"getNftMintTime","inputs":[{"name":"tokenId","type":"uint256","internalType":"uint256"},{"name":"account","type":"address","internalType":"address"},{"name":"editionId","type":"uint256","internalType":"uint256"}],"outputs":[{"name":"","type":"uint256","internalType":"uint256"}],"stateMutability":"view"},{"type":"function","name":"getTotalNFTWorth","inputs":[{"name":"owner","type":"address","internalType":"address"}],"outputs":[{"name":"","type":"uint256","internalType":"uint256"}],"stateMutability":"view"},{"type":"function","name":"getUserTokenIds","inputs":[{"name":"account","type":"address","internalType":"address"},{"name":"tokenId","type":"uint256","internalType":"uint256"}],"outputs":[{"name":"","type":"uint256[]","internalType":"uint256[]"}],"stateMutability":"view"},{"type":"function","name":"initPrice","inputs":[{"name":"prices","type":"tuple[][6]","internalType":"struct TCF_NFTPrice.priceTypeAndAomut[][6]","components":[{"name":"tokenAddress","type":"address","internalType":"address"},{"name":"amount","type":"uint256","internalType":"uint256"}]}],"outputs":[],"stateMutability":"nonpayable"},{"type":"function","name":"isApprovedForAll","inputs":[{"name":"account","type":"address","internalType":"address"},{"name":"operator","type":"address","internalType":"address"}],"outputs":[{"name":"","type":"bool","internalType":"bool"}],"stateMutability":"view"},{"type":"function","name":"isSupported","inputs":[{"name":"token","type":"address","internalType":"address"}],"outputs":[{"name":"","type":"uint8","internalType":"uint8"}],"stateMutability":"view"},{"type":"function","name":"owner","inputs":[],"outputs":[{"name":"","type":"address","internalType":"address"}],"stateMutability":"view"},{"type":"function","name":"ownerOf","inputs":[{"name":"tokenId","type":"uint256","internalType":"uint256"},{"name":"editionId","type":"uint256","internalType":"uint256"}],"outputs":[{"name":"","type":"address","internalType":"address"}],"stateMutability":"view"},{"type":"function","name":"renounceOwnership","inputs":[],"outputs":[],"stateMutability":"nonpayable"},{"type":"function","name":"safeBatchTransferFrom","inputs":[{"name":"","type":"address","internalType":"address"},{"name":"","type":"address","internalType":"address"},{"name":"","type":"uint256[]","internalType":"uint256[]"},{"name":"","type":"uint256[]","internalType":"uint256[]"},{"name":"","type":"bytes","internalType":"bytes"}],"outputs":[],"stateMutability":"nonpayable"},{"type":"function","name":"safeTransferFrom","inputs":[{"name":"","type":"address","internalType":"address"},{"name":"","type":"address","internalType":"address"},{"name":"","type":"uint256","internalType":"uint256"},{"name":"","type":"uint256","internalType":"uint256"},{"name":"","type":"bytes","internalType":"bytes"}],"outputs":[],"stateMutability":"nonpayable"},{"type":"function","name":"setApprovalForAll","inputs":[{"name":"operator","type":"address","internalType":"address"},{"name":"approved","type":"bool","internalType":"bool"}],"outputs":[],"stateMutability":"nonpayable"},{"type":"function","name":"supportedTokenAmount","inputs":[],"outputs":[{"name":"","type":"uint256","internalType":"uint256"}],"stateMutability":"view"},{"type":"function","name":"supportsInterface","inputs":[{"name":"interfaceId","type":"bytes4","internalType":"bytes4"}],"outputs":[{"name":"","type":"bool","internalType":"bool"}],"stateMutability":"view"},{"type":"function","name":"tokenAddress_array","inputs":[{"name":"","type":"uint256","internalType":"uint256"}],"outputs":[{"name":"","type":"address","internalType":"address"}],"stateMutability":"view"},{"type":"function","name":"transferOwnership","inputs":[{"name":"newOwner","type":"address","internalType":"address"}],"outputs":[],"stateMutability":"nonpayable"},{"type":"function","name":"uri","inputs":[{"name":"","type":"uint256","internalType":"uint256"}],"outputs":[{"name":"","type":"string","internalType":"string"}],"stateMutability":"view"},{"type":"event","name":"ApprovalForAll","inputs":[{"name":"account","type":"address","indexed":true,"internalType":"address"},{"name":"operator","type":"address","indexed":true,"internalType":"address"},{"name":"approved","type":"bool","indexed":false,"internalType":"bool"}],"anonymous":false},{"type":"event","name":"OwnershipTransferred","inputs":[{"name":"previousOwner","type":"address","indexed":true,"internalType":"address"},{"name":"newOwner","type":"address","indexed":true,"internalType":"address"}],"anonymous":false},{"type":"event","name":"TransferBatch","inputs":[{"name":"operator","type":"address","indexed":true,"internalType":"address"},{"name":"from","type":"address","indexed":true,"internalType":"address"},{"name":"to","type":"address","indexed":true,"internalType":"address"},{"name":"ids","type":"uint256[]","indexed":false,"internalType":"uint256[]"},{"name":"values","type":"uint256[]","indexed":false,"internalType":"uint256[]"}],"anonymous":false},{"type":"event","name":"TransferSingle","inputs":[{"name":"operator","type":"address","indexed":true,"internalType":"address"},{"name":"from","type":"address","indexed":true,"internalType":"address"},{"name":"to","type":"address","indexed":true,"internalType":"address"},{"name":"id","type":"uint256","indexed":false,"internalType":"uint256"},{"name":"value","type":"uint256","indexed":false,"internalType":"uint256"}],"anonymous":false},{"type":"event","name":"URI","inputs":[{"name":"value","type":"string","indexed":false,"internalType":"string"},{"name":"id","type":"uint256","indexed":true,"internalType":"uint256"}],"anonymous":false}],"bytecode":{"object":"0x608060405234801561001057600080fd5b5061001a33610097565b600a6020527fbbc70db1b6c7afd11e79c0fb0051300458f1a3acb8ee9789d9b6b26c61ad9bc7805460ff19166001908117909155600c805480830182556000919091527fdf6966c971051c3d54ec59162606531493a51404a002842f56009d7e5cf4a8c70180546001600160a01b03191682179055600b556100e9565b600980546001600160a01b038381166001600160a01b0319831681179093556040519116919082907f8be0079c531659141344cd1fd0a4f28419497f9722a3daafe3b4186f6b6457e090600090a35050565b612ada80620000f96000396000f3fe608060405234801561001057600080fd5b50600436106101a85760003560e01c80636d69fcaf116100f9578063b788920e11610097578063e5030adc11610071578063e5030adc146103ff578063e985e9c514610412578063f242432a1461044e578063f2fde38b1461046157600080fd5b8063b788920e14610388578063c9b6b4851461039b578063d9dad80d146103ec57600080fd5b806386ff9113116100d357806386ff9113146103305780638da5cb5b14610351578063a22cb46514610362578063aa31281c1461037557600080fd5b80636d69fcaf14610302578063715018a61461031557806383023c881461031d57600080fd5b80632eb2c2d6116101665780634e1273f4116101405780634e1273f4146102a95780634f129c53146102c957806355826313146102dc578063598c27bc146102ef57600080fd5b80632eb2c2d61461025d5780633a4d2d3a146102725780634c8cb6721461028557600080fd5b8062fdd58e146101ad57806301ffc9a7146101d35780630e89341c146101f657806319d62e57146102165780631f3fd618146102415780632336128314610254575b600080fd5b6101c06101bb366004612074565b610474565b6040519081526020015b60405180910390f35b6101e66101e13660046120b4565b610514565b60405190151581526020016101ca565b6102096102043660046120d8565b610564565b6040516101ca9190612141565b6102296102243660046120d8565b61059a565b6040516001600160a01b0390911681526020016101ca565b61020961024f366004612154565b6105c4565b6101c0600b5481565b61027061026b3660046122eb565b610879565b005b610270610280366004612154565b6108b3565b600d5461029790610100900460ff1681565b60405160ff90911681526020016101ca565b6102bc6102b7366004612395565b610bba565b6040516101ca9190612460565b6102976102d73660046124a4565b610bf7565b6102706102ea3660046124bf565b610c2b565b6102706102fd3660046124f4565b610c9e565b6102706103103660046124a4565b610d1c565b610270610e29565b61027061032b3660046125b8565b610e3d565b61034361033e3660046125ee565b610ede565b6040516101ca92919061261a565b6009546001600160a01b0316610229565b61027061037036600461263c565b610f8e565b6101c06103833660046124bf565b610f9d565b6102bc610396366004612074565b610fef565b6103ce6103a93660046120d8565b600e6020526000908152604090206001015460ff811690610100900463ffffffff1682565b6040805160ff909316835263ffffffff9091166020830152016101ca565b6102296103fa36600461266d565b611084565b6101c061040d3660046124a4565b6110cd565b6101e661042036600461268f565b6001600160a01b03918216600090815260086020908152604080832093909416825291909152205460ff1690565b61027061045c3660046126b9565b611271565b61027061046f3660046124a4565b6112b1565b60006001600160a01b0383166104a55760405162461bcd60e51b815260040161049c9061271e565b60405180910390fd5b600682106104e95760405162461bcd60e51b81526020600482015260116024820152704552525f544f4b454e49445f52414e474560781b604482015260640161049c565b5060008181526007602090815260408083206001600160a01b03861684529091529020545b92915050565b60006001600160e01b03198216636cdb3d1360e11b148061054557506001600160e01b031982166303a24d0760e21b145b8061050e57506301ffc9a760e01b6001600160e01b031983161461050e565b60405162461bcd60e51b81526020600482015260086024820152675553455f4575726960c01b604482015260609060640161049c565b600c81815481106105aa57600080fd5b6000918252602090912001546001600160a01b0316905081565b606060005b600681101561086357600b548382600681106105e7576105e7612744565b6020028101906105f7919061275a565b90501461062657505060408051808201909152600a815269282924a1a2a9afa622a760b11b6020820152919050565b600080600085846006811061063d5761063d612744565b60200281019061064d919061275a565b808060200260200160405190810160405280939291908181526020016000905b828210156106995761068a604083028601368190038101906127a4565b8152602001906001019061066d565b5050505050905060005b600b548110156107db5760008282815181106106c1576106c1612744565b60209081029190910101515190506001600160a01b0381166106e657600194506106eb565b600193505b60006001600160a01b031683838151811061070857610708612744565b6020026020010151600001516001600160a01b0316141580156107695750600a600084848151811061073c5761073c612744565b602090810291909101810151516001600160a01b031682528101919091526040016000205460ff16600114155b156107ca576107be83838151811061078357610783612744565b602002602001015160000151604051806040016040528060118152602001701513d2d15397d55394d5541413d4951151607a1b81525061132a565b98975050505050505050565b506107d481612811565b90506106a3565b50826108155750506040805180820190915260138152721510d7d4149250d157d35554d517d1561254d5606a1b6020820152949350505050565b8161084f5750506040805180820190915260148152731110d197d4149250d157d35554d517d1561254d560621b6020820152949350505050565b5050508061085c90612811565b90506105c9565b5050604080516020810190915260008152919050565b60405162461bcd60e51b815260206004820152600f60248201526e1393d517d253541311535153951151608a1b604482015260640161049c565b6108bb61135e565b600d5460ff166001146109085760405162461bcd60e51b81526020600482015260156024820152741513d2d15397d393d517d253925512505312569151605a1b604482015260640161049c565b600d54610100900460ff16156109555760405162461bcd60e51b815260206004820152601260248201527114149250d154d7d25392551250531256915160721b604482015260640161049c565b6000610960826105c4565b90508051600014610985578060405162461bcd60e51b815260040161049c9190612141565b6040805160c0808201835262ed4e008252630107ac0060208084019190915263013c68008385015263017124006060808501919091526301a5e0006080808601919091526301da9c0060a0808701919091528651948501875260288552603293850193909352603c95840195909552605090830152605a93820193909352606492810192909252906000610a19858061275a565b9050905060005b6006811015610ba357838160068110610a3b57610a3b612744565b6020020151600e600083815260200190815260200160002060010160016101000a81548163ffffffff021916908363ffffffff160217905550828160068110610a8657610a86612744565b602090810291909101516000838152600e90925260408220600101805460ff191660ff9092169190911790555b82811015610b92576000878360068110610acf57610acf612744565b602002810190610adf919061275a565b83818110610aef57610aef612744565b610b0592602060409092020190810191506124a4565b90506001600160a01b038116610b19575060015b878360068110610b2b57610b2b612744565b602002810190610b3b919061275a565b83818110610b4b57610b4b612744565b6000868152600e602090815260408083206001600160a01b039790971683529581529085902091909402929092019092013590555080610b8a81612811565b915050610ab3565b50610b9c81612811565b9050610a20565b5050600d805461ff00191661010017905550505050565b60405162461bcd60e51b815260206004820152600f60248201526e1393d517d253541311535153951151608a1b604482015260609060640161049c565b60006001600160a01b038216610c0c57600191505b506001600160a01b03166000908152600a602052604090205460ff1690565b610c3361135e565b6000610c3f84846113b8565b90508051600014610c64578060405162461bcd60e51b815260040161049c9190612141565b6001600160a01b038316610c7757600192505b506000928352600e602090815260408085206001600160a01b039094168552929052912055565b6001600160a01b038616331480610cba5750610cba8633610420565b610d065760405162461bcd60e51b815260206004820152601960248201527f43414c4c45525f4e4f545f4f574e45525f415050524f56454400000000000000604482015260640161049c565b610d148686868686866114ba565b505050505050565b610d2461135e565b600d5460ff1615610d6b5760405162461bcd60e51b81526020600482015260116024820152701513d2d15397d253925512505312569151607a1b604482015260640161049c565b6000610d7682611763565b90508051600014610d9b578060405162461bcd60e51b815260040161049c9190612141565b6001600160a01b0382166000818152600a60205260408120805460ff19166001908117909155600c805480830182559083527fdf6966c971051c3d54ec59162606531493a51404a002842f56009d7e5cf4a8c70180546001600160a01b031916909317909255600b8054909190610e1390849061282a565b9091555050600d805460ff191660011790555050565b610e3161135e565b610e3b600061193e565b565b610e4561135e565b600d5460ff61010090910416600114610e995760405162461bcd60e51b815260206004820152601660248201527514149250d154d7d393d517d25392551250531256915160521b604482015260640161049c565b60068210610eb95760405162461bcd60e51b815260040161049c9061283d565b6000918252600e6020526040909120600101805460ff191660ff909216919091179055565b6060600080610eed85856113b8565b90508051600014610f0357915060009050610f87565b6001600160a01b038416610f1657600193505b6000858152600e602090815260408083206001600160a01b038816845290915281205490819003610f7257505060408051808201909152600d81526c14149250d157d393d517d4d155609a1b6020820152915060009050610f87565b60408051602081019091526000815293509150505b9250929050565b610f99338383611990565b5050565b600060068410610fbf5760405162461bcd60e51b815260040161049c9061283d565b5060009283526010602090815260408085206001600160a01b039490941685529281528284209184525290205490565b6060600682106110115760405162461bcd60e51b815260040161049c9061283d565b6001600160a01b0383166000908152600f602090815260408083208584528252918290208054835181840281018401909452808452909183018282801561107757602002820191906000526020600020905b815481526020019060010190808311611063575b5050505050905092915050565b6000600683106110a65760405162461bcd60e51b815260040161049c9061283d565b5060009182526006602090815260408084209284529190529020546001600160a01b031690565b60006001600160a01b0382166110f55760405162461bcd60e51b815260040161049c9061271e565b6000805b600681101561126a576001600160a01b0384166000908152600f6020908152604080832084845282528083208054825181850281018501909352808352919290919083018282801561116a57602002820191906000526020600020905b815481526020019060010190808311611156575b5050505050905060005b815181101561125557600082828151811061119157611191612744565b60209081029190910181015160008681526010835260408082206001600160a01b038c1683528452808220838352845280822054888352600e909452902060010154909250610100900463ffffffff166111eb818361282a565b4211156111fa57505050611243565b600080611208886000610ede565b91509150815160001482906112305760405162461bcd60e51b815260040161049c9190612141565b5061123b818a61282a565b985050505050505b8061124d81612811565b915050611174565b5050808061126290612811565b9150506110f9565b5092915050565b60405162461bcd60e51b81526020600482015260156024820152745553455f45536166655472616e7366657246726f6d60581b604482015260640161049c565b6112b961135e565b6001600160a01b03811661131e5760405162461bcd60e51b815260206004820152602660248201527f4f776e61626c653a206e6577206f776e657220697320746865207a65726f206160448201526564647265737360d01b606482015260840161049c565b6113278161193e565b50565b60608161133684611a4e565b604051602001611347929190612864565b604051602081830303815290604052905092915050565b6009546001600160a01b03163314610e3b5760405162461bcd60e51b815260206004820181905260248201527f4f776e61626c653a2063616c6c6572206973206e6f7420746865206f776e6572604482015260640161049c565b600d5460609060ff61010090910416600114611401575060408051808201909152601681527514149250d154d7d393d517d25392551250531256915160521b602082015261050e565b6005831115611434575060408051808201909152600d81526c544f4b454e49445f52414e474560981b602082015261050e565b6001600160a01b03821661144757600191505b6001600160a01b0382166000908152600a602052604090205460ff166001146114a45761149d82604051806040016040528060118152602001701513d2d15397d55394d5541413d4951151607a1b81525061132a565b905061050e565b5060408051602081019091526000815292915050565b6001600160a01b0385166114e05760405162461bcd60e51b815260040161049c9061271e565b600684106115005760405162461bcd60e51b815260040161049c9061283d565b60005b8281101561175457600084848381811061151f5761151f612744565b60008981526010602090815260408083206001600160a01b038f168085529083528184209483029690960135808452938252808320548c8452600e909252909120600101549194509261010090910463ffffffff1691506115808985611084565b6001600160a01b0316146115a65760405162461bcd60e51b815260040161049c906128a0565b6115b0818361282a565b42116115ef5760405162461bcd60e51b815260206004820152600e60248201526d14d1539117d59053125117d3919560921b604482015260640161049c565b60008881526010602090815260408083206001600160a01b03808e1680865291845282852088865284528285208590558e168452600f8084528285208d8652845282852091855283528184208c8552909252822090915b82548110156116fa578583828154811061166257611662612744565b9060005260206000200154036116e85782548390611682906001906128c9565b8154811061169257611692612744565b90600052602060002001548382815481106116af576116af612744565b9060005260206000200181905550828054806116cd576116cd6128dc565b600190038181906000526020600020016000905590556116fa565b806116f281612811565b915050611646565b508054600181018255600091825260208083209091018690558a82526010815260408083206001600160a01b038f1684528252808320968352959052938420939093555082915061174c905081612811565b915050611503565b50610d14868686868686611bdb565b6001600160a01b0381166000908152600a602052604090205460609060ff166001036117b65761050e826040518060400160405280600b81526020016a414444525f45584953545360a81b81525061132a565b60408051600481526024810182526020810180516001600160e01b03166395d89b4160e01b179052905160009081906001600160a01b038616906117fb9085906128f2565b600060405180830381855afa9150503d8060008114611836576040519150601f19603f3d011682016040523d82523d6000602084013e61183b565b606091505b509150915081801561184e575060008151115b156118f457600081806020019051810190611869919061290e565b80516020808301919091206040805180820190915260038152622221a360e91b9201919091529091507f580e4ba285e7e1134de91e671c33b0ab748bee7126d5d2e4d0845e6ad176e7eb81146118ed576118e287604051806040016040528060078152602001662727aa2fa221a360c91b81525061132a565b979650505050505050565b5050611926565b61191d85604051806040016040528060078152602001662727aa2fa221a360c91b81525061132a565b95945050505050565b50506040805160208101909152600081529392505050565b600980546001600160a01b038381166001600160a01b0319831681179093556040519116919082907f8be0079c531659141344cd1fd0a4f28419497f9722a3daafe3b4186f6b6457e090600090a35050565b816001600160a01b0316836001600160a01b0316036119e15760405162461bcd60e51b815260206004820152600d60248201526c20a8282927ab20a62fa9a2a62360991b604482015260640161049c565b6001600160a01b03838116600081815260086020908152604080832094871680845294825291829020805460ff191686151590811790915591519182527f17307eab39ab6107e8899845ad3d59bd9653f200f220920489ca2b5937696c31910160405180910390a3505050565b60408051602a808252606082810190935283831b916f181899199a1a9b1b9c1cb0b131b232b360811b9160009190602082018180368337019050509050600360fc1b81600081518110611aa357611aa3612744565b60200101906001600160f81b031916908160001a905350600f60fb1b81600181518110611ad257611ad2612744565b60200101906001600160f81b031916908160001a90535060005b6014811015611bd2576000848260148110611b0957611b09612744565b1a905083600482901c60ff1660108110611b2557611b25612744565b1a60f81b83611b35846002612990565b611b4090600261282a565b81518110611b5057611b50612744565b60200101906001600160f81b031916908160001a90535083600f821660108110611b7c57611b7c612744565b1a60f81b83611b8c846002612990565b611b9790600361282a565b81518110611ba757611ba7612744565b60200101906001600160f81b031916908160001a905350508080611bca90612811565b915050611aec565b50949350505050565b6001600160a01b038516611c015760405162461bcd60e51b815260040161049c9061271e565b60068410611c215760405162461bcd60e51b815260040161049c9061283d565b60005b82811015611ca95760008581526006602052604081206001600160a01b03891691868685818110611c5757611c57612744565b60209081029290920135835250810191909152604001600020546001600160a01b031614611c975760405162461bcd60e51b815260040161049c906128a0565b80611ca181612811565b915050611c24565b50336000611cb686611e82565b90506000611cc385611e82565b905060005b85811015611d4d5760008881526006602052604081206001600160a01b038c1691898985818110611cfb57611cfb612744565b60209081029290920135835250810191909152604001600020546001600160a01b031614611d3b5760405162461bcd60e51b815260040161049c906128a0565b80611d4581612811565b915050611cc8565b5060008781526007602090815260408083206001600160a01b038d16845290915281208054878103909155905b86811015611de35760008981526006602052604081208b918a8a85818110611da457611da4612744565b6020908102929092013583525081019190915260400160002080546001600160a01b0319166001600160a01b0392909216919091179055600101611d7a565b5060008881526007602090815260408083206001600160a01b038d16845290915281208054889290611e1690849061282a565b909155505060408051898152602081018890526001600160a01b038b8116928d821692918816917fc3d58168c5ae7397731d063d5bbf3d657854427343f4c083240f7aacaa2d0f62910160405180910390a4611e76848b8b8b8a8a611ecd565b50505050505050505050565b60408051600180825281830190925260609160009190602080830190803683370190505090508281600081518110611ebc57611ebc612744565b602090810291909101015292915050565b6001600160a01b0384163b15610d145760405163f23a6e6160e01b81526001600160a01b0385169063f23a6e6190611f1190899089908890889088906004016129a7565b6020604051808303816000875af1925050508015611f4c575060408051601f3d908101601f19168201909252611f49918101906129e1565b60015b611fef57611f586129fe565b806308c379a003611f915750611f6c612a1a565b80611f775750611f93565b8060405162461bcd60e51b815260040161049c9190612141565b505b60405162461bcd60e51b815260206004820152602b60248201527f7472616e736665725f746f5f6e6f6e2d4552433131353552656365697665725f60448201526a34b6b83632b6b2b73a32b960a91b606482015260840161049c565b6001600160e01b0319811663f23a6e6160e01b1461204f5760405162461bcd60e51b815260206004820152601f60248201527f4552433131353552454345495645525f52454a45435445445f544f4b454e5300604482015260640161049c565b50505050505050565b80356001600160a01b038116811461206f57600080fd5b919050565b6000806040838503121561208757600080fd5b61209083612058565b946020939093013593505050565b6001600160e01b03198116811461132757600080fd5b6000602082840312156120c657600080fd5b81356120d18161209e565b9392505050565b6000602082840312156120ea57600080fd5b5035919050565b60005b8381101561210c5781810151838201526020016120f4565b50506000910152565b6000815180845261212d8160208601602086016120f1565b601f01601f19169290920160200192915050565b6020815260006120d16020830184612115565b60006020828403121561216657600080fd5b813567ffffffffffffffff81111561217d57600080fd5b820160c081018410156120d157600080fd5b634e487b7160e01b600052604160045260246000fd5b601f8201601f1916810167ffffffffffffffff811182821017156121cb576121cb61218f565b6040525050565b600067ffffffffffffffff8211156121ec576121ec61218f565b5060051b60200190565b600082601f83011261220757600080fd5b81356020612214826121d2565b60405161222182826121a5565b83815260059390931b850182019282810191508684111561224157600080fd5b8286015b8481101561225c5780358352918301918301612245565b509695505050505050565b600067ffffffffffffffff8211156122815761228161218f565b50601f01601f191660200190565b600082601f8301126122a057600080fd5b81356122ab81612267565b6040516122b882826121a5565b8281528560208487010111156122cd57600080fd5b82602086016020830137600092810160200192909252509392505050565b600080600080600060a0868803121561230357600080fd5b61230c86612058565b945061231a60208701612058565b9350604086013567ffffffffffffffff8082111561233757600080fd5b61234389838a016121f6565b9450606088013591508082111561235957600080fd5b61236589838a016121f6565b9350608088013591508082111561237b57600080fd5b506123888882890161228f565b9150509295509295909350565b600080604083850312156123a857600080fd5b823567ffffffffffffffff808211156123c057600080fd5b818501915085601f8301126123d457600080fd5b813560206123e1826121d2565b6040516123ee82826121a5565b83815260059390931b850182019282810191508984111561240e57600080fd5b948201945b838610156124335761242486612058565b82529482019490820190612413565b9650508601359250508082111561244957600080fd5b50612456858286016121f6565b9150509250929050565b6020808252825182820181905260009190848201906040850190845b818110156124985783518352928401929184019160010161247c565b50909695505050505050565b6000602082840312156124b657600080fd5b6120d182612058565b6000806000606084860312156124d457600080fd5b833592506124e460208501612058565b9150604084013590509250925092565b60008060008060008060a0878903121561250d57600080fd5b61251687612058565b955061252460208801612058565b945060408701359350606087013567ffffffffffffffff8082111561254857600080fd5b818901915089601f83011261255c57600080fd5b81358181111561256b57600080fd5b8a60208260051b850101111561258057600080fd5b60208301955080945050608089013591508082111561259e57600080fd5b506125ab89828a0161228f565b9150509295509295509295565b600080604083850312156125cb57600080fd5b82359150602083013560ff811681146125e357600080fd5b809150509250929050565b6000806040838503121561260157600080fd5b8235915061261160208401612058565b90509250929050565b60408152600061262d6040830185612115565b90508260208301529392505050565b6000806040838503121561264f57600080fd5b61265883612058565b9150602083013580151581146125e357600080fd5b6000806040838503121561268057600080fd5b50508035926020909101359150565b600080604083850312156126a257600080fd5b6126ab83612058565b915061261160208401612058565b600080600080600060a086880312156126d157600080fd5b6126da86612058565b94506126e860208701612058565b93506040860135925060608601359150608086013567ffffffffffffffff81111561271257600080fd5b6123888882890161228f565b6020808252600c908201526b5a45524f5f4144445245535360a01b604082015260600190565b634e487b7160e01b600052603260045260246000fd5b6000808335601e1984360301811261277157600080fd5b83018035915067ffffffffffffffff82111561278c57600080fd5b6020019150600681901b3603821315610f8757600080fd5b6000604082840312156127b657600080fd5b6040516040810181811067ffffffffffffffff821117156127d9576127d961218f565b6040526127e583612058565b8152602083013560208201528091505092915050565b634e487b7160e01b600052601160045260246000fd5b600060018201612823576128236127fb565b5060010190565b8082018082111561050e5761050e6127fb565b6020808252600d908201526c544f4b454e49445f52414e474560981b604082015260600190565b600083516128768184602088016120f1565b600160fd1b90830190815283516128948160018401602088016120f1565b01600101949350505050565b6020808252600f908201526e1513d2d15397d393d517d3d5d39151608a1b604082015260600190565b8181038181111561050e5761050e6127fb565b634e487b7160e01b600052603160045260246000fd5b600082516129048184602087016120f1565b9190910192915050565b60006020828403121561292057600080fd5b815167ffffffffffffffff81111561293757600080fd5b8201601f8101841361294857600080fd5b805161295381612267565b60405161296082826121a5565b82815286602084860101111561297557600080fd5b6129868360208301602087016120f1565b9695505050505050565b808202811582820484141761050e5761050e6127fb565b6001600160a01b03868116825285166020820152604081018490526060810183905260a0608082018190526000906118e290830184612115565b6000602082840312156129f357600080fd5b81516120d18161209e565b600060033d1115612a175760046000803e5060005160e01c5b90565b600060443d1015612a285790565b6040516003193d81016004833e81513d67ffffffffffffffff8160248401118184111715612a5857505050505090565b8285019150815181811115612a705750505050505090565b843d8701016020828501011115612a8a5750505050505090565b612a99602082860101876121a5565b50909594505050505056fea264697066735822122065a1c8e7826df1e470d46e0dc9fa6775185fb546400bab46edc128c45eb6dfd664736f6c63430008140033","linkReferences":{}},"methodIdentifiers":{"ESafeTransferFrom(address,address,uint256,uint256[],bytes)":"598c27bc","NFTPrice_initialized()":"4c8cb672","NFTS(uint256)":"c9b6b485","addSupportedToken(address)":"6d69fcaf","balanceOf(address,uint256)":"00fdd58e","balanceOfBatch(address[],uint256[])":"4e1273f4","changeDynamicRatio(uint256,uint8)":"83023c88","changeNFTPrice(uint256,address,uint256)":"55826313","checkInitPricesParams((address,uint256)[][6])":"1f3fd618","getNFTPrice(uint256,address)":"86ff9113","getNftMintTime(uint256,address,uint256)":"aa31281c","getTotalNFTWorth(address)":"e5030adc","getUserTokenIds(address,uint256)":"b788920e","initPrice((address,uint256)[][6])":"3a4d2d3a","isApprovedForAll(address,address)":"e985e9c5","isSupported(address)":"4f129c53","owner()":"8da5cb5b","ownerOf(uint256,uint256)":"d9dad80d","renounceOwnership()":"715018a6","safeBatchTransferFrom(address,address,uint256[],uint256[],bytes)":"2eb2c2d6","safeTransferFrom(address,address,uint256,uint256,bytes)":"f242432a","setApprovalForAll(address,bool)":"a22cb465","supportedTokenAmount()":"23361283","supportsInterface(bytes4)":"01ffc9a7","tokenAddress_array(uint256)":"19d62e57","transferOwnership(address)":"f2fde38b","uri(uint256)":"0e89341c"},"id":5}